0145601010999991995010100004+35733-005900SY-MT+0021GMTT V0201801N00411220001CN0080001N1+01471+01291102161ADDAA106000091AG10000GA1021+004809999GF104991041051004501001001MA1102201999999MD1810071+9999REMSYN011 333 84616;MET008NEW NSG;EQDQ01+000000PRSWM2
0077601010999991995010100304+35733-005900FM-15+0021GMTT V0201801N00411220001CN0080001N1+01501+01301999999ADDAG10999GA1021+004809999MA1102101999999REMMET008NEW NSG;EQDQ01+000000PRSWM2
0077601010999991995010101004+35733-005900FM-15+0021GMTT V0201801N00411220001CN0080001N1+01501+01301999999ADDAG10999GA1021+004809999MA1102101999999REMMET008NEW NSG;EQDQ01+000000PRSWM2
0077601010999991995010102004+35733-005900FM-15+0021GMTT V0201801N00511220001CN0080001N1+01501+01301999999ADDAG10999GA1021+004809999MA1102001999999REMMET008NEW NSG;EQDQ01+000000PRSWM2
0145601010999991995010103004+35733-005900SY-MT+0021GMTT V0201801N00621220001CN0080001N1+01471+01261102001ADDAA106000091AG10000GA1021+004809999GF102991021051004501001001MA1102001999999MD1810161+9999REMSYN011 333 82616;MET008NEW NSG;EQDQ01+000000PRSWM2
0077601010999991995010103304+35733-005900FM-15+0021GMTT V0201801N00621220001CN0080001N1+01501+01301999999ADDAG10999GA1021+004809999MA1102001999999REMMET008NEW NSG;EQDQ01+000000PRSWM2
0077601010999991995010104304+35733-005900FM-15+0021GMTT V0202001N00621004801CN0080001N1+01501+01301999999ADDAG10999GA1071+004809999MA1101901999999REMMET008NEW NSG;EQDQ01+000000PRSWM2
0164601010999991995010106004+35733-005900SY-MT+0021GMTT V0201801N00721004801CN0080001N1+01561+01371101841ADDAA106000091AG10000GA1071+004809999GF107991071021004501999999KA1120N+01461MA1101901999999MD1710161+9999REMSYN017 333 20146 87816;MET008NEW NSG;EQDQ01+000000PRSWM2
0077601010999991995010106304+35733-005900FM-15+0021GMTT V0201801N00621004801CN0080001N1+01601+01401999999ADDAG10999GA1071+004809999MA1101801999999REMMET008NEW NSG;EQDQ01+000000PRSWM2
0077601010999991995010107304+35733-005900FM-15+0021GMTT V0201801N00821004801CN0080001N1+01601+01401999999ADDAG10999GA1071+004809999MA1101801999999REMMET008NEW NSG;EQDQ01+000000PRSWM2
0145601010999991995010109004+35733-005900SY-MT+0021GMTT V0201801N00821004801CN0070001N1+01601+01341101911ADDAA106000091AG10000GA1071+004809999GF107991071021004501999999MA1101901999999MD1110071+9999REMSYN011 333 87816;MET008NEW NSG;EQDQ01+000000PRSWM2
0077601010999991995010109304+35733-005900FM-15+0021GMTT V0201801N00821004801CN0070001N1+01601+01301999999ADDAG10999GA1071+004809999MA1101901999999REMMET008NEW NSG;EQDQ01+000000PRSWM2
0093601010999991995010111004+35733-005900FM-15+0021GMTT V0202001N01131004801CN0070001N1+01801+01401999999ADDAG10999GA1021+003009999GA2071+004809999MA1101801999999REMMET008NEW NSG;EQDQ01+000000PRSWM2
0167601010999991995010112004+35733-005900SY-MT+0021GMTT V0202001N01031004801CN0060001N1+01851+01601101811ADDAA106000091AG10000GA1021+003009999GA2071+004809999GF108991081021004501999999MA1101801999999MD1810091+9999REMSYN017 333 82810 87816;MET008NEW NSG;EQDQ01+000000PRSWM2
0080601010999991995010113004+35733-005900FM-15+0021GMTT V0202001N01031004801CN0050001N1+01801+01601999999ADDAG10999GA1021+003009999GA2071+004809999MA1101691999999MW1611REMMET008NEW NSG;
0080601010999991995010113304+35733-005900FM-15+0021GMTT V0202401N01031004501CN0040001N1+01801+01601999999ADDAG10999GA1021+001509999GA2071+004509999MA1101691999999MW1611REMMET008NEW NSG;
0165601010999991995010115004+35733-005900SY-MT+0021GMTT V0202401N01131004501CN0040001N1+01801+01621101751ADDAG10001AY161031AY221031GA1021+001509999GA2071+004509999GF108991081051001501999999MA1101691999999MD1610061+9999MW1601MW2611REMSYN017 333 84705 87615;MET008NEW NSG;
0093601010999991995010116004+35733-005900FM-15+0021GMTT V0203001N00821004501CN0060001N1+01401+01301999999ADDAG10999GA1021+003009999GA2071+004509999MA1101801999999REMMET008NEW NSG;EQDQ01+000000PRSWM2
0093601010999991995010116304+35733-005900FM-15+0021GMTT V0203001N00721004501CN0060001N1+01401+01301999999ADDAG10999GA1021+003009999GA2071+004509999MA1101801999999REMMET008NEW NSG;EQDQ01+000000PRSWM2
0186601010999991995010118004+35733-005900SY-MT+0021GMTT V0203201N00621004501CN0080001N1+01481+00701101941ADDAA199006091AG10001AY161061AY221061GA1071+004509999GF107991071051004501999999KA1120M+01851MA1101801999999MD1210221+9999MW1021REMSYN017 333 10185 87615;MET008NEW NSG;EQDQ01+000000PRSWM2
0077601010999991995010118304+35733-005900FM-15+0021GMTT V0203201N00511004501CN0080001N1+01501+00701999999ADDAG10999GA1071+004509999MA1101901999999REMMET008NEW NSG;EQDQ01+000000PRSWM2
0077601010999991995010119304+35733-005900FM-15+0021GMTT V0203201N00511004501CN0080001N1+01501+00701999999ADDAG10999GA1071+004509999MA1101901999999REMMET008NEW NSG;EQDQ01+000000PRSWM2
0161601010999991995010121004+35733-005900SY-MT+0021GMTT V0203401N00511004501CN0080001N1+01441+00601102121ADDAA106000091AG10000GA1071+004509999GF199999061051004501001001MA1102001999999MD1110181+9999REMSYN011 333 86615;MET008NEW NSG;EQDQ01+000062SCOTCVQ02+000000PRSWM2
0061601010999991995010121304+35733-005900FM-16+0021GMTT V0203201N00621004501CN0080001N1+99999+99999999999ADDAG10000GA1071+004509999REMMET007NEW 14;EQDQ01+000000PRSWM2
0077601010999991995010122004+35733-005900FM-15+0021GMTT V0203601N00511004501CN0080001N1+01401+00701999999ADDAG10999GA1071+004509999MA1102101999999REMMET008NEW NSG;EQDQ01+000000PRSWM2
0077601010999991995010122304+35733-005900FM-15+0021GMTT V0203401N00511004501CN0080001N1+01301+00701999999ADDAG10999GA1071+004509999MA1102101999999REMMET008NEW NSG;EQDQ01+000000PRSWM2
0145601010999991995010200004+35733-005900SY-MT+0021GMTT V0203401N00511220001CN0100001N1+01101+00551102261ADDAA106000091AG10000GA1021+004509999GF103991031051004501001001MA1102101999999MD1110141+9999REMSYN011 333 83615;MET008NEW NSG;EQDQ01+000000PRSWM2
0077601010999991995010200304+35733-005900FM-15+0021GMTT V0203401N00511220001CN0112651N1+01101+00601999999ADDAG10999GA1021+004509999MA1102201999999REMMET008NEW NSG;EQDQ01+000000PRSWM2
0077601010999991995010201304+35733-005900FM-15+0021GMTT V0203401N00411220001CN0112651N1+01101+00601999999ADDAG10999GA1021+004509999MA1102201999999REMMET008NEW NSG;EQDQ01+000000PRSWM2
0145601010999991995010203004+35733-005900SY-MT+0021GMTT V0203401N00411220001CN0100001N1+01041+00621102321ADDAA106000091AG10000GA1021+004509999GF103991031051004501001001MA1102301999999MD1110071+9999REMSYN011 333 83615;MET008NEW NSG;EQDQ01+000000PRSWM2
0077601010999991995010203304+35733-005900FM-15+0021GMTT V0203401N00411220001CN0112651N1+01001+00601999999ADDAG10999GA1021+004509999MA1102301999999REMMET008NEW NSG;EQDQ01+000000PRSWM2
0077601010999991995010204304+35733-005900FM-15+0021GMTT V0201201N00311220001CN0112651N1+00901+00601999999ADDAG10999GA1021+004509999MA1102301999999REMMET008NEW NSG;EQDQ01+000000PRSWM2
0148601010999991995010206004+35733-005900SY-MT+0021GMTT V0209991C00001220001CN0100001N1+00501+00261102331ADDAA106006091AG10000GF100991001001999999001001KA1999N+00501MA1102301999999MD1410001+9999REMSYN011 333 20050;MET014NEW CAVOK NSG;EQDQ01+000000PRSWM2
0067601010999991995010206304+35733-005900FM-15+0021GMTT V0209991C00001999991CY0099001N1+00501+00301999999ADDAG10999MA1102301999999REMMET014NEW CAVOK NSG;EQDQ01+000000PRSWM2
0067601010999991995010207304+35733-005900FM-15+0021GMTT V0209991C00001999991CY0099001N1+00501+00301999999ADDAG10999MA1102301999999REMMET014NEW CAVOK NSG;EQDQ01+000000PRSWM2
0118601010999991995010209004+35733-005900SY-MT+0021GMTT V0200801N00261220001CN0100001N1+00631+00451102491ADDAA106000091AG10000GF100991001001999999001001MA1102401999999MD1310161+9999REMMET014NEW CAVOK NSG;EQDQ01+000000PRSWM2
0067601010999991995010209304+35733-005900FM-15+0021GMTT V0200801N00211999991CY0099001N1+00601+00501999999ADDAG10999MA1102401999999REMMET014NEW CAVOK NSG;EQDQ01+000000PRSWM2
0067601010999991995010210304+35733-005900FM-15+0021GMTT V0200801N00101999991CY0099001N1+00901+00601999999ADDAG10999MA1102511999999REMMET014NEW CAVOK NSG;EQDQ01+000000PRSWM2
0118601010999991995010212004+35733-005900SY-MT+0021GMTT V0200401N00511220001CN0150001N1+01501+00581102641ADDAA106000091AG10000GF100991001001999999001001MA1102611999999MD1010161+9999REMMET014NEW CAVOK NSG;EQDQ01+000000PRSWM2
0067601010999991995010212304+35733-005900FM-15+0021GMTT V0200401N00621999991CY0099001N1+01501+00701999999ADDAG10999MA1102611999999REMMET014NEW CAVOK NSG;EQDQ01+000000PRSWM2
0077601010999991995010214004+35733-005900FM-15+0021GMTT V0200401N00621220001CN0112651N1+01601+00901999999ADDAG10999GA1021+004809999MA1102511999999REMMET008NEW NSG;EQDQ01+000000PRSWM2
0151601010999991995010215004+35733-005900SY-MT+0021GMTT V0200801N00411220001CN0100001N1+01671+00731102511ADDAA106000091AG10000GA1021+004809999GF104991031021004501001021MA1102511999999MD1610131+9999REMSYN017 333 83816 83073;MET008NEW NSG;EQDQ01+000000PRSWM2
0093601010999991995010215304+35733-005900FM-15+0021GMTT V0200401N00461220001CN0112651N1+01701+00701999999ADDAG10999GA1021+004809999GA2021+069009999MA1102511999999REMMET008NEW NSG;EQDQ01+000000PRSWM2
0093601010999991995010216304+35733-005900FM-15+0021GMTT V0200401N00411220001CN0112651N1+01601+00701999999ADDAG10999GA1021+004809999GA2021+069009999MA1102511999999REMMET008NEW NSG;EQDQ01+000000PRSWM2
0180601010999991995010218004+35733-005900SY-MT+0021GMTT V0200401N00411220001CN0150001N1+01381+00811102641ADDAA106000091AG10000GA1021+004809999GA2021+069009999GF104991031021004501001021KA1120M+01691MA1102511999999MD1310131+9999REMSYN017 333 10169 83816;MET008NEW NSG;EQDQ01+000000PRSWM2
0077601010999991995010218304+35733-005900FM-15+0021GMTT V0200401N00411220001CN0112651N1+01401+00801999999ADDAG10999GA1021+004809999MA1102611999999REMMET008NEW NSG;EQDQ01+000000PRSWM2
0077601010999991995010219304+35733-005900FM-15+0021GMTT V0200401N00411220001CN0112651N1+01401+00701999999ADDAG10999GA1021+004809999MA1102511999999REMMET008NEW NSG;EQDQ01+000000PRSWM2
0161601010999991995010221004+35733-005900SY-MT+0021GMTT V0200801N00511220001CN0100001N1+01181+00661102731ADDAA106000091AG10000GA1021+004809999GF199999011021004501001001MA1102711999999MD1110091+9999REMSYN011 333 81816;MET008NEW NSG;EQDQ01+000012SCOTCVQ02+000000PRSWM2
0077601010999991995010221304+35733-005900FM-15+0021GMTT V0200801N00511220001CN0112651N1+01201+00701999999ADDAG10999GA1021+004809999MA1102711999999REMMET008NEW NSG;EQDQ01+000000PRSWM2
0077601010999991995010222304+35733-005900FM-15+0021GMTT V0200801N00311220001CN0112651N1+01201+00701999999ADDAG10999GA1021+004809999MA1102711999999REMMET008NEW NSG;EQDQ01+000000PRSWM2
0160601010999991995010300004+35733-005900SY-MT+0021GMTT V0200801N00101220001CN0100001N1+00801+00601102681ADDAA106000091AG10000GA1021+004809999GF199999001001999999001001MA1102711999999MD1810051+9999REMMET008NEW NSG;EQDQ01+000002SCOTCVQ02+000992SCOLCBQ03+000000PRSWM2
0067601010999991995010300304+35733-005900FM-15+0021GMTT V0200801N00311999991CY0099001N1+00801+00601999999ADDAG10999MA1102611999999REMMET014NEW CAVOK NSG;EQDQ01+000000PRSWM2
0067601010999991995010301304+35733-005900FM-15+0021GMTT V0201001N00311999991CY0099001N1+00801+00601999999ADDAG10999MA1102611999999REMMET014NEW CAVOK NSG;EQDQ01+000000PRSWM2
0118601010999991995010303004+35733-005900SY-MT+0021GMTT V0201001N00411220001CN0100001N1+00781+00621102631ADDAA106000091AG10000GF100991001001999999001001MA1102611999999MD1610051+9999REMMET014NEW CAVOK NSG;EQDQ01+000000PRSWM2
0067601010999991995010303304+35733-005900FM-15+0021GMTT V0201001N00411999991CY0099001N1+00801+00601999999ADDAG10999MA1102611999999REMMET014NEW CAVOK NSG;EQDQ01+000000PRSWM2
0067601010999991995010304304+35733-005900FM-15+0021GMTT V0201001N00411999991CY0099001N1+00801+00601999999ADDAG10999MA1102611999999REMMET014NEW CAVOK NSG;EQDQ01+000000PRSWM2
0180601010999991995010306004+35733-005900SY-MT+0021GMTT V0200601N00311220001CN0100001N1+00821+00671102511ADDAA106000091AG10000GA1021+004809999GF199999011051004501001001KA1120N+00621MA1102511999999MD1810121+9999REMSYN017 333 20062 81616;MET008NEW NSG;EQDQ01+000012SCOTCVQ02+000000PRSWM2
0077601010999991995010306304+35733-005900FM-15+0021GMTT V0200601N00311220001CN0112651N1+00801+00701999999ADDAG10999GA1021+004809999MA1102511999999REMMET008NEW NSG;EQDQ01+000000PRSWM2
0093601010999991995010308004+35733-005900FM-15+0021GMTT V0200401N00261030001CN0112651N1+00901+00601999999ADDAG10999GA1021+004809999GA2071+030009999MA1102511999999REMMET008NEW NSG;EQDQ01+000000PRSWM2
0130601010999991995010309004+35733-005900SY-MT+0021GMTT V0209991C000019999999N0100001N1+01111+00741999999ADDAA106000091AG10000GA1021+004809999GA2021+030009999GF106991999999004501999999MA1102511999999REMMET008NEW NSG;EQDQ01+000000PRSWM2
0093601010999991995010309304+35733-005900FM-15+0021GMTT V0209991C00001069001CN0112651N1+01101+00701999999ADDAG10999GA1021+004809999GA2071+069009999MA1102511999999REMMET008NEW NSG;EQDQ01+000000PRSWM2
0093601010999991995010310304+35733-005900FM-15+0021GMTT V0200401N00211069001CN0112651N1+01301+00801999999ADDAG10999GA1021+004809999GA2071+069009999MA1102611999999REMMET008NEW NSG;EQDQ01+000000PRSWM2
0183601010999991995010312004+35733-005900SY-MT+0021GMTT V0200601N00411069001CN0100001N1+01551+00751102561ADDAA106000091AG10000GA1021+004809999GA2071+069009999GF107991031051999999001021MA1102611999999MD1010011+9999REMSYN017 333 83616 87073;MET008NEW NSG;EQDQ01+000992SCOLCBQ02+000000PRSWM2
0093601010999991995010312304+35733-005900FM-15+0021GMTT V0200801N00411069001CN0112651N1+01601+00801999999ADDAG10999GA1021+004809999GA2071+069009999MA1102511999999REMMET008NEW NSG;EQDQ01+000000PRSWM2
0093601010999991995010313304+35733-005900FM-15+0021GMTT V0200801N00511069001CN0112651N1+01601+00901999999ADDAG10999GA1021+004809999GA2071+069009999MA1102511999999REMMET008NEW NSG;EQDQ01+000000PRSWM2
0167601010999991995010315004+35733-005900SY-MT+0021GMTT V0200401N00721069001CN0100001N1+01541+00631102421ADDAA106000091AG10000GA1021+004809999GA2071+069009999GF107991031051004501001021MA1102401999999MD1710141+9999REMSYN017 333 83616 87073;MET008NEW NSG;EQDQ01+000000PRSWM2
0093601010999991995010315304+35733-005900FM-15+0021GMTT V0200401N00721069001CN0112651N1+01501+00601999999ADDAG10999GA1021+004809999GA2071+069009999MA1102401999999REMMET008NEW NSG;EQDQ01+000000PRSWM2
0122601010999991995010318004+35733-005900FM-12+0021GMTT V0200601N00311090001CN0100001N1+01271+00461102401ADDAA106000091AG10000GA1031+004809059GF107991021051004501001021KA1120M+01631MD1810021+9999REMSYN023 333 10163 83616 87073;
0093601010999991995010319004+35733-005900FM-15+0021GMTT V0200401N00311069001CN0112651N1+01201+00501999999ADDAG10999GA1021+004809999GA2071+069009999MA1102401999999REMMET008NEW NSG;EQDQ01+000000PRSWM2
0093601010999991995010320004+35733-005900FM-15+0021GMTT V0200401N00311069001CN0112651N1+01201+00501999999ADDAG10999GA1021+004809999GA2071+069009999MA1102401999999REMMET008NEW NSG;EQDQ01+000000PRSWM2
0183601010999991995010321004+35733-005900SY-MT+0021GMTT V0200201N00311069001CN0100001N1+00851+00381102431ADDAA106000091AG10000GA1021+004809999GA2071+069009999GF199999011051004501001021MA1102401999999MD1310031+9999REMSYN017 333 81816 85073;MET008NEW NSG;EQDQ01+000052SCOTCVQ02+000000PRSWM2
0093601010999991995010321304+35733-005900FM-15+0021GMTT V0200401N00411220001CN0112651N1+00901+00401999999ADDAG10999GA1021+004809999GA2021+069009999MA1102401999999REMMET008NEW NSG;EQDQ01+000000PRSWM2
0093601010999991995010322304+35733-005900FM-15+0021GMTT V0209991C00001069001CN0112651N1+00801+00401999999ADDAG10999GA1021+004809999GA2071+069009999MA1102401999999REMMET008NEW NSG;EQDQ01+000000PRSWM2
0177601010999991995010400004+35733-005900SY-MT+0021GMTT V0209991C00001220001CN0100001N1+00601+00441102551ADDAA106000091AG10000GA1021+004809999GA2071+030009999GF199999011051004501001021MA1102511999999MD1110111+9999REMSYN011 333 81616;MET008NEW NSG;EQDQ01+000022SCOTCVQ02+000000PRSWM2
0077601010999991995010401004+35733-005900FM-15+0021GMTT V0209991C00001220001CN0112651N1+00501+00401999999ADDAG10999GA1021+004809999MA1102511999999REMMET008NEW NSG;EQDQ01+000000PRSWM2
0077601010999991995010401304+35733-005900FM-15+0021GMTT V0209991C00001220001CN0112651N1+00501+00401999999ADDAG10999GA1021+004809999MA1102511999999REMMET008NEW NSG;EQDQ01+000000PRSWM2
0145601010999991995010403004+35733-005900SY-MT+0021GMTT V0203401N00411220001CN0100001N1+00431+00281102521ADDAA106000091AG10000GA1021+004809999GF102991011051004501001021MA1102511999999MD1510031+9999REMSYN011 333 81616;MET008NEW NSG;EQDQ01+000000PRSWM2
0074601010999991995010404004+35733-005900FM-15+0021GMTT V0203201N00261220001CN0112651N1+99999+99999999999ADDAG10999GA1021+004809999REMMET020NEW 0</03 Q1025 NSG;EQDQ01+000000PRSWM2
0093601010999991995010405004+35733-005900FM-15+0021GMTT V0203201N00211220001CN0112651N1+00401+00301999999ADDAG10999GA1021+004809999GA2021+069009999MA1102511999999REMMET008NEW NSG;EQDQ01+000000PRSWM2
0180601010999991995010406004+35733-005900SY-MT+0021GMTT V0200201N00101220001CN0100001N1+00441+00161102531ADDAA106000091AG10000GA1021+004809999GA2021+069009999GF102991011051004501001021KA1120N+00391MA1102511999999MD1310011+9999REMSYN017 333 20039 81616;MET008NEW NSG;EQDQ01+000000PRSWM2
0077601010999991995010407004+35733-005900FM-15+0021GMTT V0201201N00101220001CN0112651N1+00401+00301999999ADDAG10999GA1021+004809999MA1102511999999REMMET008NEW NSG;EQDQ01+000000PRSWM2
0077601010999991995010407304+35733-005900FM-15+0021GMTT V0201201N00101220001CN0112651N1+00401+00301999999ADDAG10999GA1021+004809999MA1102511999999REMMET008NEW NSG;EQDQ01+000000PRSWM2
0097601010999991995010409004+35733-005900FM-12+0021GMTT V0200601N00101220001CN0100001N1+00851+00441102721ADDAA106000091AG10000GA1011+004809059GF102991011051004501001021MD1210191+9999REMSYN011 333 81616;
0077601010999991995010412004+35733-005900FM-12+0021GMTT V0203001N00151220001CN0100001N1+01271+00321102721ADDAA106000091AG10000GA1001+999999999GF100991001001999999001001MD1410001+9999
0097601010999991995010415004+35733-005900FM-12+0021GMTT V0203001N00511220001CN0150001N1+01401+00421102561ADDAA106000091AG10000GA1021+069009009GF102991001001999999001021MD1610151+9999REMSYN011 333 82073;
0067601010999991995010416004+35733-005900FM-15+0021GMTT V0203201N00511999991CY0099001N1+01401+00501999999ADDAG10999MA1102511999999REMMET014NEW CAVOK NSG;EQDQ01+000000PRSWM2
0067601010999991995010416304+35733-005900FM-15+0021GMTT V0203201N00411999991CY0099001N1+01401+00501999999ADDAG10999MA1102511999999REMMET014NEW CAVOK NSG;EQDQ01+000000PRSWM2
0154601010999991995010418004+35733-005900SY-MT+0021GMTT V0203201N00311220001CN0150001N1+01201+00431102601ADDAA106000091AG10000GF104991001001999999001021KA1120M+01441MA1102511999999MD1310041+9999REMSYN017 333 10144 84073;MET014NEW CAVOK NSG;EQDQ01+000000PRSWM2
0067601010999991995010419004+35733-005900FM-15+0021GMTT V0203201N00511999991CY0099001N1+01201+00301999999ADDAG10999MA1102611999999REMMET014NEW CAVOK NSG;EQDQ01+000000PRSWM2
0067601010999991995010419304+35733-005900FM-15+0021GMTT V0203201N00511999991CY0099001N1+01201+00401999999ADDAG10999MA1102611999999REMMET014NEW CAVOK NSG;EQDQ01+000000PRSWM2
0135601010999991995010421004+35733-005900SY-MT+0021GMTT V0202001N00621220001CN0100001N1+01031+00431102701ADDAA106000091AG10000GF103991001001999999001021MA1102711999999MD1210101+9999REMSYN011 333 83073;MET014NEW CAVOK NSG;EQDQ01+000000PRSWM2
0067601010999991995010421304+35733-005900FM-15+0021GMTT V0203201N00511999991CY0099001N1+01001+00401999999ADDAG10999MA1102711999999REMMET014NEW CAVOK NSG;EQDQ01+000000PRSWM2
0067601010999991995010422304+35733-005900FM-15+0021GMTT V0203201N00211999991CY0099001N1+00901+00401999999ADDAG10999MA1102711999999REMMET014NEW CAVOK NSG;EQDQ01+000000PRSWM2
0118601010999991995010500004+35733-005900SY-MT+0021GMTT V0200801N00211220001CN0100001N1+00601+00361102711ADDAA106000091AG10000GF100991001001999999001001MA1102711999999MD1310011+9999REMMET014NEW CAVOK NSG;EQDQ01+000000PRSWM2
0067601010999991995010501004+35733-005900FM-15+0021GMTT V0209991C00001999991CY0099001N1+00601+00301999999ADDAG10999MA1102711999999REMMET014NEW CAVOK NSG;EQDQ01+000000PRSWM2
0067601010999991995010501304+35733-005900FM-15+0021GMTT V0209991C00001999991CY0099001N1+00601+00301999999ADDAG10999MA1102711999999REMMET014NEW CAVOK NSG;EQDQ01+000000PRSWM2
0118601010999991995010503004+35733-005900SY-MT+0021GMTT V0209991C00001220001CN0100001N1+00431+00241102721ADDAA106000091AG10000GF100991001001999999001001MA1102711999999MD1310011+9999REMMET014NEW CAVOK NSG;EQDQ01+000000PRSWM2
0067601010999991995010503304+35733-005900FM-15+0021GMTT V0209991C00001999991CY0099001N1+00401+00201999999ADDAG10999MA1102711999999REMMET014NEW CAVOK NSG;EQDQ01+000000PRSWM2
0067601010999991995010504304+35733-005900FM-15+0021GMTT V0209991C00001999991CY0099001N1+00401+00201999999ADDAG10999MA1102711999999REMMET014NEW CAVOK NSG;EQDQ01+000000PRSWM2
0148601010999991995010506004+35733-005900SY-MT+0021GMTT V0209991C00001220001CN0100001N1+00381+00261102751ADDAA106000091AG10000GF100991001001999999001001KA1999N+00381MA1102711999999MD1310031+9999REMSYN011 333 20038;MET014NEW CAVOK NSG;EQDQ01+000000PRSWM2
0067601010999991995010506304+35733-005900FM-15+0021GMTT V0209991C00001999991CY0099001N1+00401+00301999999ADDAG10999MA1102711999999REMMET014NEW CAVOK NSG;EQDQ01+000000PRSWM2
0093601010999991995010508004+35733-005900FM-15+0021GMTT V0209991C00001004801CN0112651N1+00601+00501999999ADDAG10999GA1021+003909999GA2071+004809999MA1102811999999REMMET008NEW NSG;EQDQ01+000000PRSWM2
0167601010999991995010509004+35733-005900SY-MT+0021GMTT V0209991C00001004801CN0100001N1+00761+00631102851ADDAA106000091AG10000GA1021+003909999GA2071+004809999GF107991071081004501999999MA1102811999999MD1310091+9999REMSYN017 333 83813 86620;MET008NEW NSG;EQDQ01+000000PRSWM2
0093601010999991995010509304+35733-005900FM-15+0021GMTT V0209991C00001006001CN0112651N1+00801+00601999999ADDAG10999GA1021+003909999GA2071+006009999MA1102811999999REMMET008NEW NSG;EQDQ01+000000PRSWM2
0093601010999991995010510304+35733-005900FM-15+0021GMTT V0202001N00361006001CN0112651N1+01001+00801999999ADDAG10999GA1021+003909999GA2071+006009999MA1102811999999REMMET008NEW NSG;EQDQ01+000000PRSWM2
0183601010999991995010512004+35733-005900SY-MT+0021GMTT V0201801N00411006001CN0100001N1+01441+00751102871ADDAA106000091AG10000GA1021+003909999GA2071+006009999GF199999061081004501001001MA1102911999999MD1010031+9999REMSYN017 333 82813 85620;MET008NEW NSG;EQDQ01+000062SCOTCVQ02+000000PRSWM2
0093601010999991995010512304+35733-005900FM-15+0021GMTT V0201801N00411006001CN0112651N1+01401+00801999999ADDAG10999GA1021+003909999GA2071+006009999MA1102811999999REMMET008NEW NSG;EQDQ01+000000PRSWM2
0093601010999991995010513304+35733-005900FM-15+0021GMTT V0202201N00411006001CN0112651N1+01401+00801999999ADDAG10999GA1021+003909999GA2071+006009999MA1102811999999REMMET008NEW NSG;EQDQ01+000000PRSWM2
0144601010999991995010515004+35733-005900SY-MT+0021GMTT V0202601N00311006001CN0150001N1+01551+01081102781ADDAA106000091AG10000GA1021+003909999GA2071+006009999GF107991041081004501999999MA1102811999999MD1710091+9999REMMET008NEW NSG;EQDQ01+000000PRSWM2
0093601010999991995010515304+35733-005900FM-15+0021GMTT V0202601N00411006001CN0112651N1+01601+01101999999ADDAG10999GA1021+003909999GA2071+006009999MA1102711999999REMMET008NEW NSG;EQDQ01+000000PRSWM2
0093601010999991995010516304+35733-005900FM-15+0021GMTT V0202601N00411006001CN0112651N1+01501+01001999999ADDAG10999GA1021+003909999GA2071+006009999MA1102711999999REMMET008NEW NSG;EQDQ01+000000PRSWM2
0202601010999991995010518004+35733-005900SY-MT+0021GMTT V0202801N00411006001CN0150001N1+01281+00931102871ADDAA106000091AG10000GA1021+003909999GA2071+006009999GF199999061081004501001001KA1120M+01551MA1102711999999MD1310091+9999REMSYN023 333 10155 82813 85620;MET008NEW NSG;EQDQ01+000062SCOTCVQ02+000000PRSWM2
0093601010999991995010518304+35733-005900FM-15+0021GMTT V0202601N00411006001CN0112651N1+01301+00901999999ADDAG10999GA1021+003909999GA2071+006009999MA1102811999999REMMET008NEW NSG;EQDQ01+000000PRSWM2
0093601010999991995010519304+35733-005900FM-15+0021GMTT V0202801N00361006001CN0112651N1+01201+00901999999ADDAG10999GA1021+003909999GA2071+006009999MA1102811999999REMMET008NEW NSG;EQDQ01+000000PRSWM2
0167601010999991995010521004+35733-005900SY-MT+0021GMTT V0202801N00411220001CN0100001N1+00901+00711102971ADDAA106000091AG10000GA1021+003909999GA2021+006009999GF104991041081004501001001MA1102911999999MD1310091+9999REMSYN017 333 82813 83820;MET008NEW NSG;EQDQ01+000000PRSWM2
0093601010999991995010521304+35733-005900FM-15+0021GMTT V0202801N00411220001CN0112651N1+00901+00701999999ADDAG10999GA1021+003909999GA2021+006009999MA1102911999999REMMET008NEW NSG;EQDQ01+000000PRSWM2
0093601010999991995010523004+35733-005900FM-15+0021GMTT V0203001N00411220001CN0112651N1+00901+00801999999ADDAG10999GA1021+003909999GA2021+006009999MA1102911999999REMMET008NEW NSG;EQDQ01+000000PRSWM2
0161601010999991995010600004+35733-005900SY-MT+0021GMTT V0203001N00511220001CN0100001N1+01421+01261102981ADDAA106000091AG10000GA1021+003909999GA2021+006009999GF104991041051004501001001MA1102911999999MD1310021+9999REMSYN011 333 84616;MET008NEW NQSGEQDQ01+000000PRSWM2
0077601010999991995010601004+35733-005900FM-15+0021GMTT V0203001N00511220001CN0112651N1+01401+01301999999ADDAG10999GA1021+004809999MA1102911999999REMMET008NEW NSG;EQDQ01+000000PRSWM2
0077601010999991995010601304+35733-005900FM-15+0021GMTT V0203001N00621220001CN0112651N1+01401+01301999999ADDAG10999GA1021+004809999MA1102811999999REMMET008NEW NSG;EQDQ01+000000PRSWM2
0145601010999991995010603004+35733-005900SY-MT+0021GMTT V0203001N00511220001CN0100001N1+01341+01221102861ADDAA106000091AG10000GA1021+004809999GF104991041051004501001001MA1102811999999MD1410001+9999REMSYN011 333 84616;MET008NEW NSG;EQDQ01+000000PRSWM2
0077601010999991995010604004+35733-005900FM-15+0021GMTT V0203201N00511220001CN0112651N1+01301+01201999999ADDAG10999GA1021+004809999MA1102811999999REMMET008NEW NSG;EQDQ01+000000PRSWM2
0077601010999991995010605004+35733-005900FM-15+0021GMTT V0203001N00411220001CN0112651N1+01201+01001999999ADDAG10999GA1021+004809999MA1102811999999REMMET008NEW NSG;EQDQ01+000000PRSWM2
0180601010999991995010606004+35733-005900SY-MT+0021GMTT V0203001N00511004801CN0100001N1+01351+01071102941ADDAA106000091AG10000GA1071+004809999GF199999051051004501001001KA1120N+00801MA1102911999999MD1710041+9999REMSYN017 333 20080 85616;MET008NEW NSG;EQDQ01+000052SCOTCVQ02+000000PRSWM2
0077601010999991995010607004+35733-005900FM-15+0021GMTT V0203001N00511220001CN0112651N1+01401+01101999999ADDAG10999GA1021+004809999MA1102911999999REMMET008NEW NSG;EQDQ01+000000PRSWM2
0062601010999991995010607304+35733-005900FM-16+0021GMTT V0203001N00621220001CN0112651N1+99999+99999999999ADDAG10999GA1021+004809999REMMET008NEW 14 1EQDQ01+000000PRSWM2
0077601010999991995010608004+35733-005900FM-15+0021GMTT V0203001N00511220001CN0112651N1+01401+01101999999ADDAG10999GA1021+004809999MA1102911999999REMMET008NEW NSG;EQDQ01+000000PRSWM2
0161601010999991995010609004+35733-005900SY-MT+0021GMTT V0202401N00311004801CN0100001N1+01481+01141102991ADDAA106000091AG10000GA1071+004809999GF199999051021004501001001MA1102911999999MD1210051+9999REMSYN011 333 85816;MET008NEW NSG;EQDQ01+000052SCOTCVQ02+000000PRSWM2
0077601010999991995010609304+35733-005900FM-15+0021GMTT V0202601N00411004801CN0112651N1+01501+01101999999ADDAG10999GA1071+004809999MA1102911999999REMMET008NEW NSG;EQDQ01+000000PRSWM2
0077601010999991995010611004+35733-005900FM-15+0021GMTT V0202601N00511004801CN0112651N1+01501+01101999999ADDAG10999GA1071+004809999MA1103121999999REMMET008NEW NSG;EQDQ01+000000PRSWM2
0161601010999991995010612004+35733-005900SY-MT+0021GMTT V0202401N00411004801CN0150001N1+01721+01041103151ADDAA106000091AG10000GA1071+004809999GF199999051021004501001001MA1103121999999MD1810011+9999REMSYN011 333 85816;MET008NEW NSG;EQDQ01+000052SCOTCVQ02+000000PRSWM2
0077601010999991995010612304+35733-005900FM-15+0021GMTT V0202801N00621004801CN0112651N1+01501+01201999999ADDAG10999GA1071+004809999MA1103121999999REMMET008NEW NSG;EQDQ01+000000PRSWM2
0077601010999991995010613304+35733-005900FM-15+0021GMTT V0202801N00621004801CN0112651N1+01501+01001999999ADDAG10999GA1071+004809999MA1103011999999REMMET008NEW NSG;EQDQ01+000000PRSWM2
0145601010999991995010615004+35733-005900SY-MT+0021GMTT V0202801N00511004801CN0100001N1+01501+01041103021ADDAA106000091AG10000GA1071+004809999GF107991071051004501001001MA1103011999999MD1610131+9999REMSYN011 333 87616;MET008NEW NSG;EQDQ01+000000PRSWM2
0077601010999991995010615304+35733-005900FM-15+0021GMTT V0202801N00411004801CN0112651N1+01501+01001999999ADDAG10999GA1071+004809999MA1103011999999REMMET008NEW NSG;EQDQ01+000000PRSWM2
0077601010999991995010616304+35733-005900FM-15+0021GMTT V0202801N00621004801CN0112651N1+01501+01001999999ADDAG10999GA1071+004809999MA1103011999999REMMET008NEW NSG;EQDQ01+000000PRSWM2
0180601010999991995010618004+35733-005900SY-MT+0021GMTT V0203001N00311004801CN0100001N1+01351+00961103061ADDAA106000091AG10000GA1071+004809999GF199999051051004501001001KA1120M+01731MA1103011999999MD1210041+9999REMSYN017 333 10173 85616;MET008NEW NSG;EQDQ01+000052SCOTCVQ02+000000PRSWM2
0077601010999991995010618304+35733-005900FM-15+0021GMTT V0203001N00311004801CN0112651N1+01401+01001999999ADDAG10999GA1071+004809999MA1103011999999REMMET008NEW NSG;EQDQ01+000000PRSWM2
0077601010999991995010619304+35733-005900FM-15+0021GMTT V0202801N00311220001CN0112651N1+01401+01001999999ADDAG10999GA1021+004809999MA1103011999999REMMET008NEW NSG;EQDQ01+000000PRSWM2
0145601010999991995010621004+35733-005900SY-MT+0021GMTT V0202801N00511220001CN0100001N1+01361+00221103031ADDAA106000091AG10000GA1021+004809999GF102991021051004501001001MA1103121999999MD1810031+9999REMSYN011 333 82616;MET008NEW NSG;EQDQ01+000000PRSWM2
0077601010999991995010621304+35733-005900FM-15+0021GMTT V0203001N00511220001CN0112651N1+01401+00201999999ADDAG10999GA1021+004809999MA1103011999999REMMET008NEW NSG;EQDQ01+000000PRSWM2
0077601010999991995010623004+35733-005900FM-15+0021GMTT V0203201N00511004801CN0112651N1+01401+00601999999ADDAG10999GA1071+004809999MA1103011999999REMMET008NEW NSG;EQDQ01+000000PRSWM2
0151601010999991995010700004+35733-005900SY-MT+0021GMTT V0203201N00671004801CN0100001N1+01431+00761102961ADDAA106000091AG10000GA1071+004809999GF107991051051004501081999MA1103011999999MD1510071+9999REMSYN017 333 85616 85360;MET008NEW NSG;EQDQ01+000000PRSWM2
0093601010999991995010701004+35733-005900FM-15+0021GMTT V0203201N00511004801CN0112651N1+01501+00801999999ADDAG10999GA1071+004809999GA2071+030009999MA1102911999999REMMET008NEW NSG;EQDQ01+000000PRSWM2
0093601010999991995010701304+35733-005900FM-15+0021GMTT V0203201N00461004801CN0112651N1+01501+00801999999ADDAG10999GA1071+004809999GA2071+030009999MA1102911999999REMMET008NEW NSG;EQDQ01+000000PRSWM2
0151601010999991995010703004+35733-005900SY-MT+0021GMTT V0203201N00671004801CN0100001N1+01431+00761102961ADDAA106000091AG10000GA1071+004809999GF107991051051012501081999MA1102911999999MD1510071+9999REMSYN017 333 85616 85360;MET008NEW NSG;EQDQ01+000000PRSWM2
0077601010999991995010703304+35733-005900FM-15+0021GMTT V0203401N00411220001CN0112651N1+01201+00701999999ADDAG10999GA1021+004809999MA1102811999999REMMET008NEW NSG;EQDQ01+000000PRSWM2
0077601010999991995010704304+35733-005900FM-15+0021GMTT V0200201N00411220001CN0112651N1+01201+00701999999ADDAG10999GA1021+004809999MA1102811999999REMMET008NEW NSG;EQDQ01+000000PRSWM2
0164601010999991995010706004+35733-005900SY-MT+0021GMTT V0200801N00101220001CN0100001N1+00731+00501102801ADDAA106000091AG10000GA1021+004809999GF103991031051004501001001KA1120N+00701MA1102811999999MD1610051+9999REMSYN017 333 20070 83616;MET008NEW NSG;EQDQ01+000000PRSWM2
0077601010999991995010706304+35733-005900FM-15+0021GMTT V0203601N00211220001CN0112651N1+00701+00501999999ADDAG10999GA1021+004809999MA1102811999999REMMET008NEW NSG;EQDQ01+000000PRSWM2
0077601010999991995010707304+35733-005900FM-15+0021GMTT V0200801N00151220001CN0112651N1+00701+00501999999ADDAG10999GA1021+004809999MA1102811999999REMMET008NEW NSG;EQDQ01+000000PRSWM2
0160601010999991995010709004+35733-005900SY-MT+0021GMTT V0203601N00311220001CN0150001N1+00671+00511102921ADDAA106000091AG10000GA1021+004809999GF199999001001999999001001MA1102811999999MD1210121+9999REMMET008NEW NSG;EQDQ01+000002SCOTCVQ02+000992SCOLCBQ03+000000PRSWM2
0067601010999991995010709304+35733-005900FM-15+0021GMTT V0203601N00621999991CY0099001N1+00701+00501999999ADDAG10999MA1102911999999REMMET014NEW CAVOK NSG;EQDQ01+000000PRSWM2
0067601010999991995010710304+35733-005900FM-15+0021GMTT V0203601N00511999991CY0099001N1+01001+00601999999ADDAG10999MA1103011999999REMMET014NEW CAVOK NSG;EQDQ01+000000PRSWM2
0118601010999991995010712004+35733-005900SY-MT+0021GMTT V0200201N00821220001CN0150001N1+01521+00071103021ADDAA106000091AG10000GF100991001001999999001001MA1103011999999MD1010111+9999REMMET014NEW CAVOK NSG;EQDQ01+000000PRSWM2
0067601010999991995010712304+35733-005900FM-15+0021GMTT V0200201N00821999991CY0099001N1+01501+00101999999ADDAG10999MA1103011999999REMMET014NEW CAVOK NSG;EQDQ01+000000PRSWM2
0077601010999991995010713304+35733-005900FM-15+0021GMTT V0203601N00621220001CN0112651N1+01501-00201999999ADDAG10999GA1021+004809999MA1102911999999REMMET008NEW NQG;EQDQ01+000000PRSWM2
0145601010999991995010715004+35733-005900SY-MT+0021GMTT V0203601N00721220001CN0150001N1+01561-00271102801ADDAA106000091AG10000GA1021+004809999GF102991021021004501001001MA1102811999999MD1610221+9999REMSYN011 333 82816;MET008NEW NSG;EQDQ01+000000PRSWM2
0077601010999991995010715304+35733-005900FM-15+0021GMTT V0200601N00621220001CN0112651N1+01601-00301999999ADDAG10999GA1021+004809999MA1102811999999REMMET008NEW NSG;EQDQ01+000000PRSWM2
0077601010999991995010716304+35733-005900FM-15+0021GMTT V0200601N00721220001CN0112651N1+01501+00001999999ADDAG10999GA1021+004809999MA1102811999999REMMET008NEW NSG;EQDQ01+000000PRSWM2
0164601010999991995010718004+35733-005900SY-MT+0021GMTT V0200601N00311220001CN0150001N1+01151-00131102911ADDAA106000091AG10000GA1021+004809999GF102991021021004501001001KA1120M+01601MA1102911999999MD1310111+9999REMSYN017 333 10160 82816;MET008NEW NSG;EQDQ01+000000PRSWM2
0077601010999991995010718304+35733-005900FM-15+0021GMTT V0200601N00151220001CN0112651N1+01101-00101999999ADDAG10999GA1021+004809999MA1102911999999REMMET008NEW NSG;EQDQ01+000000PRSWM2
0077601010999991995010719304+35733-005900FM-15+0021GMTT V0209991C00001220001CN0112651N1+00701+00001999999ADDAG10999GA1021+004809999MA1102911999999REMMET008NEW NSG;EQDQ01+000000PRSWM2
0145601010999991995010721004+35733-005900SY-MT+0021GMTT V0200201N00211220001CN0100001N1+00751+00141102991ADDAA106000091AG10000GA1021+004809999GF102991021051004501001001MA1103011999999MD1210071+9999REMSYN011 333 82616;MET008NEW NSG;EQDQ01+000000PRSWM2
0077601010999991995010721304+35733-005900FM-15+0021GMTT V0201201N00101220001CN0112651N1+00801+00101999999ADDAG10999GA1021+004809999MA1102911999999REMMET008NEW NSG;EQDQ01+000000PRSWM2
0077601010999991995010722304+35733-005900FM-15+0021GMTT V0200801N00101220001CN0112651N1+00701+00101999999ADDAG10999GA1021+004809999MA1103011999999REMMET008NEW NSG;EQDQ01+000000PRSWM2
0144601010999991995010800004+35733-005900SY-MT+0021GMTT V0200801N00101220001CN0100001N1+00531+00121103031ADDAA106000091AG10000GA1021+030009999GF199999001001999999001001MA1102911999999MD1210041+9999REMMET008NEW NSG;EQDQ01+000002SCOTCVQ02+000000PRSWM2
0067601010999991995010800304+35733-005900FM-15+0021GMTT V0201201N00211999991CY0099001N1+00501+00101999999ADDAG10999MA1103011999999REMMET014NEW CAVOK NSG;EQDQ01+000000PRSWM2
0067601010999991995010801304+35733-005900FM-15+0021GMTT V0201201N00211999991CY0099001N1+00501+00101999999ADDAG10999MA1103011999999REMMET014NEW CAVOK NSG;EQDQ01+000000PRSWM2
0118601010999991995010803004+35733-005900SY-MT+0021GMTT V0200401N00211220001CN0100001N1+00441+00101103031ADDAA106000091AG10000GF100991001001999999001001MA1103011999999MD1410001+9999REMMET014NEW CAVOK NSG;EQDQ01+000000PRSWM2
0110601010999991995010806004+35733-005900FM-12+0021GMTT V0209991C00001220001CN0100001N1+00191-00061102961ADDAA106000091AG10000GA1001+999999999GF100991001001999999001001KA1999N+00161MD1610071+9999REMSYN011 333 20016;
0077601010999991995010808004+35733-005900FM-15+0021GMTT V0209991C00001220001CN0112651N1+00301+00101999999ADDAG10999GA1021+004809999MA1103011999999REMMET008NEW NSG;EQDQ01+000000PRSWM2
0145601010999991995010809004+35733-005900SY-MT+0021GMTT V0209991C00001220001CN0150001N1+00471+00161103081ADDAA106000091AG10000GA1021+004809999GF102991021021004501001001MA1103011999999MD1210121+9999REMSYN011 333 82816;MET008NEW NSG;EQDQ01+000000PRSWM2
0077601010999991995010809304+35733-005900FM-15+0021GMTT V0209991C00001220001CN0112651N1+00601+00201999999ADDAG10999GA1021+004809999MA1103011999999REMMET008NEW NSG;EQDQ01+000000PRSWM2
0077601010999991995010810304+35733-005900FM-15+0021GMTT V0200601N00411220001CN0112651N1+01201+00301999999ADDAG10999GA1021+004809999MA1103121999999REMMET008NEW NG/;EQDQ01+000000PRSWM2
0145601010999991995010812004+35733-005900SY-MT+0021GMTT V0200601N00511220001CN0150001N1+01351+00281103201ADDAA106000091AG10000GA1021+004809999GF102991021021004501001001MA1103181999999MD1110131+9999REMSYN011 333 82816;MET008NEW NSG;EQDQ01+000000PRSWM2
0077601010999991995010813004+35733-005900FM-15+0021GMTT V0200601N00511220001CN0112651N1+01401+00301999999ADDAG10999GA1021+004809999MA1103121999999REMMET008NEW NSG;EQDQ01+000000PRSWM2
0077601010999991995010813304+35733-005900FM-15+0021GMTT V0200601N00511220001CN0112651N1+01401+00301999999ADDAG10999GA1021+004809999MA1103121999999REMMET008NEW NSG;EQDQ01+000000PRSWM2
0074601010999991995010814304+35733-005900FM-16+0021GMTT V0200601N00621220001CN0112651N1+99999+99999999999ADDAG10999GA1021+004809999REMMET020NEW 75.04 Q1031 NSG;EQDQ01+000000PRSWM2
0145601010999991995010815004+35733-005900SY-MT+0021GMTT V0200401N00511220001CN0150001N1+01461+00341103021ADDAA106000091AG10000GA1021+004809999GF103991031021004501001001MA1103011999999MD1710181+9999REMSYN011 333 83816;MET008NEW NSG;EQDQ01+000000PRSWM2
0077601010999991995010815304+35733-005900FM-15+0021GMTT V0200401N00511220001CN0112651N1+01501+00301999999ADDAG10999GA1021+004809999MA1103011999999REMMET008NEW NSG;EQDQ01+000000PRSWM2
0077601010999991995010817004+35733-005900FM-15+0021GMTT V0200401N00411220001CN0112651N1+01401+00201999999ADDAG10999GA1021+004809999MA1103011999999REMMET008NEW NSG;EQDQ01+000000PRSWM2
0164601010999991995010818004+35733-005900SY-MT+0021GMTT V0200401N00211220001CN0150001N1+01101+00051103081ADDAA106000091AG10000GA1021+004809999GF102991021021004501001001KA1120M+01481MA1103011999999MD1110061+9999REMSYN017 333 10148 82816;MET008NEW NSG;EQDQ01+000000PRSWM2
0077601010999991995010818304+35733-005900FM-15+0021GMTT V0200601N00211220001CN0112651N1+01101+00101999999ADDAG10999GA1021+004809999MA1103011999999REMMET008NEW NSG;EQDQ01+000000PRSWM2
0077601010999991995010819304+35733-005900FM-15+0021GMTT V0200601N00211220001CN0112651N1+01001+00101999999ADDAG10999GA1021+004809999MA1103011999999REMMET008NEW NESGEQDQ01+000000PRSWM2
0145601010999991995010821004+35733-005900SY-MT+0021GMTT V0209991C00001220001CN0100001N1+00701+00341103311ADDAA106000091AG10000GA1021+004809999GF102991021021004501001001MA1103291999999MD1310221+9999REMSYN011 333 82816;MET008NEW NSG;EQDQ01+000000PRSWM2
0077601010999991995010821304+35733-005900FM-15+0021GMTT V0209991C00001220001CN0112651N1+00701+00301999999ADDAG10999GA1021+004809999MA1103291999999REMMET008NEW NSG;EQDQ01+000000PRSWM2
0077601010999991995010822304+35733-005900FM-15+0021GMTT V0209991C00001220001CN0112651N1+00601+00301999999ADDAG10999GA1021+004809999MA1103291999999REMMET008NEW NSG;EQDQ01+000000PRSWM2
0161601010999991995010900004+35733-005900SY-MT+0021GMTT V0209991C00001220001CN0100001N1+00401+00151103291ADDAA106000091AG10000GA1021+004809999GF102991999051004501001001MA1103291999999MD1010021+9999REMSYN011 333 81616;MET008NEW NSG;EQDQ01+000012SCOTLCQ02+000000PRSWM2
0077601010999991995010900304+35733-005900FM-15+0021GMTT V0209991C00001220001CN0112651N1+00401+00201999999ADDAG10999GA1021+004809999MA1103181999999REMMET008NEW NSG;EQDQ01+000000PRSWM2
0067601010999991995010901304+35733-005900FM-15+0021GMTT V0209991C00001999991CY0099001N1+00301+00101999999ADDAG10999MA1103181999999REMMET014NEW CAVOK NSG;EQDQ01+000000PRSWM2
0118601010999991995010903004+35733-005900SY-MT+0021GMTT V0209991C00001220001CN0100001N1+00351+00221103291ADDAA106000091AG10000GF100991001001999999001001MA1103181999999MD1510001+9999REMMET014NEW CAVOK NSG;EQDQ01+000000PRSWM2
0067601010999991995010903304+35733-005900FM-15+0021GMTT V0209991C00001999991CY0099001N1+00401+00201999999ADDAG10999MA1103181999999REMMET014NEW CAVOK NSG;EQDQ01+000000PRSWM2
0080601010999991995010904304+35733-005900FM-15+0021GMTT V0209991C00001999999CN9999999N9+99999+99999999999ADDAG10999REMMET026NEW CAVOK 03/02 Q1032 NSG;EQDQ01+000002VOVAR Q02+000000PRSWM2
0148601010999991995010906004+35733-005900SY-MT+0021GMTT V0200801N00211220001CN0100001N1+00251+00121103281ADDAA106000091AG10000GF100991001001999999001001KA1999N+00161MA1103181999999MD1610011+9999REMSYN011 333 20016;MET014NEW CAVOK NSG;EQDQ01+000000PRSWM2
0067601010999991995010907004+35733-005900FM-15+0021GMTT V0201001N00151999991CY0099001N1+00201+00101999999ADDAG10999MA1103291999999REMMET014NEW CAVOK NSG;EQDQ01+000000PRSWM2
0067601010999991995010907304+35733-005900FM-15+0021GMTT V0200601N00211999991CY0099001N1+00201+00101999999ADDAG10999MA1103291999999REMMET014NEW CAVOK NSG;EQDQ01+000000PRSWM2
0077601010999991995010909004+35733-005900FM-12+0021GMTT V0200801N00211220001CN0200001N1+00261+00051103351ADDAA106000091AG10000GA1001+999999999GF100991001001999999001001MD1310071+9999
0067601010999991995010910304+35733-005900FM-15+0021GMTT V0201601N00311999991CY0099001N1+00901+00401999999ADDAG10999MA1103391999999REMMET014NEW CAVOK NSG;EQDQ01+000000PRSWM2
0145601010999991995010912004+35733-005900SY-MT+0021GMTT V0201801N00511220001CN0200001N1+01401+00351103361ADDAA106000091AG10000GA1021+004809999GF102991999999004501999999MA1103291999999MD1010021+9999REMSYN011 333 81616;MET008NEW NSG;EQDQ01+000000PRSWM2
0069601010999991995010912304+35733-005900FM-15+0021GMTT V0209999999999999999CN0018011N1+99999+99999999999ADDAG10999REMMET031NEW 2KT 9999 SCT016 14/04 Q1033EQDQ01+000000PRSWM2
0067601010999991995010913304+35733-005900FM-15+0021GMTT V0202201N00311999991CY0099001N1+01401+00401999999ADDAG10999MA1103291999999REMMET014NEW CAVOK NSG;EQDQ01+000000PRSWM2
0160601010999991995010915004+35733-005900SY-MT+0021GMTT V0202601N00211220001CN0200001N1+01481+00501103141ADDAA106000091AG10000GA1021+004809999GF199999001001999999001001MA1103291999999MD1810221+9999REMMET008NEW NSG;EQDQ01+000002SCOTCVQ02+000992SCOLCBQ03+000000PRSWM2
0067601010999991995010915304+35733-005900FM-15+0021GMTT V0202601N00211999991CY0099001N1+01501+00501999999ADDAG10999MA1103121999999REMMET014NEW CAVOK NSG;EQDQ01+000000PRSWM2
0067601010999991995010916304+35733-005900FM-15+0021GMTT V0203001N00101999991CY0099001N1+01401+00501999999ADDAG10999MA1103121999999REMMET014NEW CAVOK NSG;EQDQ01+000000PRSWM2
0180601010999991995010918004+35733-005900SY-MT+0021GMTT V0209991C00001220001CN0150001N1+01251+00491103181ADDAA106000091AG10000GA1021+004809999GF199999011051004501001001KA1120M+01501MA1103121999999MD1310041+9999REMSYN017 333 10150 81816;MET008NEW NSG;EQDQ01+000012SCOTCVQ02+000000PRSWM2
0067601010999991995010919004+35733-005900FM-15+0021GMTT V0203201N00571999991CY0099001N1+01001+00401999999ADDAG10999MA1103121999999REMMET014NEW CAVOK NSG;EQDQ01+000000PRSWM2
0067601010999991995010919304+35733-005900FM-15+0021GMTT V0203201N00411999991CY0099001N1+01001+00401999999ADDAG10999MA1103121999999REMMET014NEW CAVOK NSG;EQDQ01+000000PRSWM2
0118601010999991995010921004+35733-005900SY-MT+0021GMTT V0203201N00311220001CN0150001N1+00871+00281103231ADDAA106000091AG10000GF100991001001999999001001MA1103181999999MD1110051+9999REMMET014NEW CAVOK NSG;EQDQ01+000000PRSWM2
0067601010999991995010921304+35733-005900FM-15+0021GMTT V0203201N00261999991CY0099001N1+00901+00301999999ADDAG10999MA1103181999999REMMET014NEW CAVOK NSG;EQDQ01+000000PRSWM2
0067601010999991995010922304+35733-005900FM-15+0021GMTT V0200601N00151999991CY0099001N1+00801+00301999999ADDAG10999MA1103181999999REMMET014NEW CAVOK NSG;EQDQ01+000000PRSWM2
0118601010999991995011000004+35733-005900SY-MT+0021GMTT V0200601N00211220001CN0150001N1+00491+00271103251ADDAA106000091AG10000GF100991001001999999001001MA1103181999999MD1110051+9999REMMET014NEW CAVOK NSG;EQDQ01+000000PRSWM2
0077601010999991995011003004+35733-005900FM-12+0021GMTT V0209991C00001220001CN0100001N1+00421+00221103251ADDAA106000091AG10000GA1001+999999999GF100991001001999999001001MD1410001+9999
0148601010999991995011006004+35733-005900SY-MT+0021GMTT V0209991C00001220001CN0100001N1+00331+00201103161ADDAA106000091AG10000GF100991001001999999001001KA1999N+00301MA1103121999999MD1610031+9999REMSYN011 333 20030;MET014NEW CAVOK NSG;EQDQ01+000000PRSWM2
0067601010999991995011007004+35733-005900FM-15+0021GMTT V0201601N00151999991CY0099001N1+00301+00201999999ADDAG10999MA1103121999999REMMET014NEW CAVOK NSG;EQDQ01+000000PRSWM2
0077601010999991995011008004+35733-005900FM-15+0021GMTT V0201801N00261220001CN0112651N1+00701+00501999999ADDAG10999GA1021+004809999MA1103121999999REMMET008NEW NSG;EQDQ01+000000PRSWM2
0145601010999991995011009004+35733-005900SY-MT+0021GMTT V0201801N00411220001CN0100001N1+00901+00581103191ADDAA106000091AG10000GA1021+004809999GF102991021021004501001001MA1103121999999MD1110031+9999REMSYN011 333 82816;MET008NEW NSG;EQDQ01+000000PRSWM2
0077601010999991995011009304+35733-005900FM-15+0021GMTT V0201801N00411220001CN0112651N1+00901+00601999999ADDAG10999GA1021+004809999MA1103121999999REMMET008NEW NSG;EQDQ01+000000PRSWM2
0077601010999991995011010304+35733-005900FM-15+0021GMTT V0201601N00511220001CN0112651N1+01201+00701999999ADDAG10999GA1021+004809999MA1103181999999REMMET008NEW NSG;EQDQ01+000000PRSWM2
0145601010999991995011012004+35733-005900SY-MT+0021GMTT V0202801N00511220001CN0150001N1+01401+00681103251ADDAA106000091AG10000GA1021+004809999GF103991031021004501001001MA1103181999999MD1010061+9999REMSYN011 333 83816;MET008NEW NSG;EQDQ01+000000PRSWM2
0077601010999991995011013304+35733-005900FM-15+0021GMTT V0202601N00621220001CN0112651N1+01401+00701999999ADDAG10999GA1021+004809999MA1103181999999REMMET008NEW NSG;EQDQ01+000000PRSWM2
0145601010999991995011015004+35733-005900SY-MT+0021GMTT V0202601N00411220001CN0150001N1+01451+00701103061ADDAA106000091AG10000GA1021+004809999GF104991041021004501001001MA1103121999999MD1710191+9999REMSYN011 333 84816;MET008NEW NSG;EQDQ01+000000PRSWM2
0077601010999991995011015304+35733-005900FM-15+0021GMTT V0202601N00411220001CN0112651N1+01501+01001999999ADDAG10999GA1021+004809999MA1103011999999REMMET008NEW NSG;EQDQ01+000000PRSWM2
0067601010999991995011016304+35733-005900FM-15+0021GMTT V0209991C00001999991CY0099001N1+01501+00401999999ADDAG10999MA1103011999999REMMET014NEW CAVOK NSG;EQDQ01+000000PRSWM2
0154601010999991995011018004+35733-005900SY-MT+0021GMTT V0201801N00311220001CN0100001N1+01151+00441103081ADDAA106000091AG10000GF102991021051004501001001KA1120M+01571MA1103121999999MD1510081+9999REMSYN017 333 10157 82616;MET014NEW CAVOK NSG;EQDQ01+000000PRSWM2
0077601010999991995011018304+35733-005900FM-15+0021GMTT V0209991C00001220001CN0112651N1+01201+00401999999ADDAG10999GA1021+004809999MA1103011999999REMMET008NEW NSG;EQDQ01+000000PRSWM2
0077601010999991995011019304+35733-005900FM-15+0021GMTT V0202001N00151220001CN0112651N1+01101+00501999999ADDAG10999GA1021+004809999MA1103121999999REMMET008NEW NSG;EQDQ01+000000PRSWM2
0160601010999991995011021004+35733-005900SY-MT+0021GMTT V0200601N00151220001CN0100001N1+00821+00421103121ADDAA106000091AG10000GA1021+004809999GF199999001001999999001001MA1103011999999MD1310041+9999REMMET008NEW NSG;EQDQ01+000002SCOTCVQ02+000992SCOLCBQ03+000000PRSWM2
0067601010999991995011021304+35733-005900FM-15+0021GMTT V0200601N00151999991CY0099001N1+00801+00401999999ADDAG10999MA1103121999999REMMET014NEW CAVOK NSG;EQDQ01+000000PRSWM2
0067601010999991995011023004+35733-005900FM-15+0021GMTT V0200601N00151999991CY0099001N1+00701+00401999999ADDAG10999MA1103121999999REMMET014NEW CAVOK NSG;EQDQ01+000000PRSWM2
0118601010999991995011100004+35733-005900SY-MT+0021GMTT V0200801N00101220001CN0100001N1+00421+00301103131ADDAA106000091AG10000GF100991001001999999001001MA1103121999999MD1510021+9999REMMET014NEW CAVOK NSG;EQDQ01+000000PRSWM2
0067601010999991995011100304+35733-005900FM-15+0021GMTT V0200801N00101999991CY0099001N1+00401+00301999999ADDAG10999MA1103121999999REMMET014NEW CAVOK NSG;EQDQ01+000000PRSWM2
0067601010999991995011101304+35733-005900FM-15+0021GMTT V0200801N00261999991CY0099001N1+00501+00401999999ADDAG10999MA1103121999999REMMET014NEW CAVOK NSG;EQDQ01+000000PRSWM2
0118601010999991995011103004+35733-005900SY-MT+0021GMTT V0200801N00261220001CN0100001N1+00601+00491103031ADDAA106000091AG10000GF100991001001999999001001MA1103011999999MD1810101+9999REMMET014NEW CAVOK NSG;EQDQ01+000000PRSWM2
0067601010999991995011103304+35733-005900FM-15+0021GMTT V0200801N00261999991CY0099001N1+00601+00501999999ADDAG10999MA1103011999999REMMET014NEW CAVOK NSG;EQDQ01+000000PRSWM2
0077601010999991995011104304+35733-005900FM-15+0021GMTT V0200801N00261220001CN0112651N1+00701+00601999999ADDAG10999GA1021+004509999MA1103011999999REMMET008NEW NSG;EQDQ01+000000PRSWM2
0180601010999991995011106004+35733-005900SY-MT+0021GMTT V0201801N00311220001CN0100001N1+00951+00561102951ADDAA106000091AG10000GA1021+004809999GF199999011051004501001001KA1120N+00331MA1102911999999MD1610051+9999REMSYN017 333 20033 81616;MET008NEW NSG;EQDQ01+000012SCOTCVQ02+000000PRSWM2
0077601010999991995011106304+35733-005900FM-15+0021GMTT V0201801N00311220001CN0112651N1+01001+00601999999ADDAG10999GA1021+004809999MA1102911999999REMMET008NEW NSG;EQDQ01+000000PRSWM2
0077601010999991995011107304+35733-005900FM-15+0021GMTT V0201601N00311220001CN0112651N1+00801+00601999999ADDAG10999GA1021+004809999MA1102911999999REMMET008NEW NSG;EQDQ01+000000PRSWM2
0145601010999991995011109004+35733-005900SY-MT+0021GMTT V0201601N00511220001CN0100001N1+00881+00721102951ADDAA106000091AG10000GA1021+004809999GF102991021051004501001001MA1102911999999MD1410001+9999REMSYN011 333 82616;MET008NEW NSG;EQDQ01+000000PRSWM2
0077601010999991995011109304+35733-005900FM-15+0021GMTT V0201601N00511220001CN0112651N1+00901+00701999999ADDAG10999GA1021+004809999MA1102911999999REMMET008NEW NSG;EQDQ01+000000PRSWM2
0074601010999991995011111004+35733-005900FM-15+0021GMTT V0201801N00621004801CN0112651N1+99999+99999999999ADDAG10999GA1071+004809999REMMET020NEW 75(=2 11030 NSG;EQDQ01+000000PRSWM2
0069601010999991995011111304+35733-005900FM-16+0021GMTT V0201201N00621999999CN0990001N1+99999+99999999999ADDAG10999REMMET031NEW 9.9 SCT016 15/06 Q1030 NSG;EQDQ01+000000PRSWM2
0135601010999991995011112004+35733-005900SY-MT+0021GMTT V0202001N00511220001CN0150001N1+01581+00761102961ADDAA106000091AG10000GF103991031051004501001001MD1010051+9999REMSYN011 333 83616;MET029NEW 9 BQT016 15/06 Q1030 NSG;EQDQ01+000000PRSWM2
0077601010999991995011113304+35733-005900FM-15+0021GMTT V0202201N00821004801CN0112651N1+01601+00801999999ADDAG10999GA1071+004809999MA1102911999999REMMET008NEW NSG;EQDQ01+000000PRSWM2
0161601010999991995011115004+35733-005900SY-MT+0021GMTT V0202201N00411220001CN0150001N1+01651+00981102781ADDAA106000091AG10000GA1071+004809999GF199999041051004501001001MA1102811999999MD1710181+9999REMSYN011 333 84616;MET008NEW NSG;EQDQ01+000042SCOTCVQ02+000000PRSWM2
0077601010999991995011115304+35733-005900FM-15+0021GMTT V0202201N00511220001CN0112651N1+01701+01001999999ADDAG10999GA1021+004809999MA1102711999999REMMET008NEW NSG;EQDQ01+000000PRSWM2
0077601010999991995011116304+35733-005900FM-15+0021GMTT V0202201N00511220001CN0112651N1+01701+01001999999ADDAG10999GA1021+004809999MA1102711999999REMMET008NEW NSG;EQDQ01+000000PRSWM2
0154601010999991995011118004+35733-005900SY-MT+0021GMTT V0202801N00151220001CN0150001N1+01341+01021102751ADDAA106000091AG10000GA1021+004809999GF104991041051004501001001KA1120M+01661MD1810031+9999REMSYN017 333 10166 84616;MET013NEW 1027 NSG;EQDQ01+000000PRSWM2
0077601010999991995011119004+35733-005900FM-15+0021GMTT V0202801N00151220001CN0112651N1+01201+01001999999ADDAG10999GA1021+004809999MA1102711999999REMMET008NEW NSG;EQDQ01+000000PRSWM2
0077601010999991995011120004+35733-005900FM-15+0021GMTT V0209991C00001220001CN0112651N1+01201+01001999999ADDAG10999GA1021+004809999MA1102711999999REMMET008NEW NSG;EQDQ01+000000PRSWM2
0089601010999991995011120304+35733-005900FM-16+0021GMTT V0209991C00001220001CN0112651N1+99999+99999999999ADDAG10999GA1021+006009999MA1102711999999REMMET020NEW 112/10 Q1027 NSGEQDQ01+000000PRSWM2
0118601010999991995011121004+35733-005900SY-MT+0021GMTT V0209991C00001220001CN0100001N1+00701+00591102811ADDAA106000091AG10000GF100991001001999999001001MA1102811999999MD1310051+9999REMMET014NEW CAVOK NSG;EQDQ01+000000PRSWM2
0067601010999991995011121304+35733-005900FM-15+0021GMTT V0209991C00001999991CY0099001N1+00701+00601999999ADDAG10999MA1102811999999REMMET014NEW CAVOK NSG;EQDQ01+000000PRSWM2
0067601010999991995011122304+35733-005900FM-15+0021GMTT V0209991C00001999991CY0099001N1+00701+00601999999ADDAG10999MA1102811999999REMMET014NEW CAVOK NSG;EQDQ01+000000PRSWM2
0112601010999991995011200004+35733-005900SY-MT+0021GMTT V0209991C00001220001CN0060001N1+00551+00431102791ADDAA106000091AG10000GF100991001001999999001001MA1102711999999MD1810021+9999REMMET008NEW NSG;EQDQ01+000000PRSWM2
0061601010999991995011201004+35733-005900FM-15+0021GMTT V0209991C00001220001CN0060001N1+00501+00401999999ADDAG10999MA1102711999999REMMET008NEW NSG;EQDQ01+000000PRSWM2
0061601010999991995011202004+35733-005900FM-15+0021GMTT V0209991C00001220001CN0050001N1+00501+00401999999ADDAG10999MA1102711999999REMMET008NEW NSG;EQDQ01+000000PRSWM2
0107601010999991995011203004+35733-005900SY-MT+0021GMTT V0209991C00001220001CN0060001N1+00581+00441102651ADDAG10000GF100991001001999999001001MA1102711999999MD1810141+9999MW1001REMMET008NEW NSG;EQDQ01+000000PRSWM2
0061601010999991995011204004+35733-005900FM-15+0021GMTT V0209991C00001220001CN0050001N1+00601+00401999999ADDAG10999MA1102611999999REMMET008NEW NSG;EQDQ01+000000PRSWM2
0061601010999991995011204304+35733-005900FM-15+0021GMTT V0209991C00001220001CN0060001N1+00601+00401999999ADDAG10999MA1102611999999REMMET008NEW NSG;EQDQ01+000000PRSWM2
0148601010999991995011206004+35733-005900SY-MT+0021GMTT V0201601N00211220001CN0070001N1+00921+00781102621ADDAA106000091AG10000GF104991041051004501001001KA1120N+00341MA1102611999999MD1610021+9999REMSYN017 333 20034 84616;MET008NEW NSG;EQDQ01+000000PRSWM2
0062601010999991995011207004+35733-005900FM-16+0021GMTT V0201601N00311220001CN0070001N1+99999+99999999999ADDAG10999GA1021+000309999REMMET008NEW NSG;EQDQ01+000000PRSWM2
0077601010999991995011208004+35733-005900FM-15+0021GMTT V0201601N00311220001CN0070001N1+00901+00801999999ADDAG10999GA1021+004809999MA1102611999999REMMET008NEW NSG;EQDQ01+000000PRSWM2
0097601010999991995011209004+35733-005900FM-12+0021GMTT V0201601N00211220001CN0080001N1+01131+00871102681ADDAA106000091AG10000GA1041+004809059GF104991041051004501001001MD1310061+9999REMSYN011 333 84616;
0077601010999991995011209304+35733-005900FM-15+0021GMTT V0201601N00211220001CN0080001N1+01101+00901999999ADDAG10999GA1021+004809999MA1102611999999REMMET008NEW NSG;EQDQ01+000000PRSWM2
0077601010999991995011210304+35733-005900FM-15+0021GMTT V0202001N00411004801CN0080001N1+01201+00901999999ADDAG10999GA1071+004809999MA1102611999999REMMET008NEW NSG;EQDQ01+000000PRSWM2
0161601010999991995011212004+35733-005900SY-MT+0021GMTT V0202001N00511220001CN0100001N1+01631+01041102671ADDAA106000091AG10000GA1071+004809999GF199999041051004501001001MA1102611999999MD1810011+9999REMSYN011 333 84616;MET008NEW NSG;EQDQ01+000042SCOTCVQ02+000000PRSWM2
0077601010999991995011212304+35733-005900FM-15+0021GMTT V0202001N00511220001CN0112651N1+01601+01001999999ADDAG10999GA1021+004809999MA1102611999999REMMET008NEW NSG;EQDQ01+000000PRSWM2
0077601010999991995011213304+35733-005900FM-15+0021GMTT V0202201N00511004801CN0112651N1+01601+01001999999ADDAG10999GA1071+004809999MA1102611999999REMMET008NEW NSG;EQDQ01+000000PRSWM2
0161601010999991995011215004+35733-005900SY-MT+0021GMTT V0202001N00511004801CN0100001N1+01641+01121102421ADDAA106000091AG10000GA1071+004809999GF199999051051004501001021MA1102401999999MD1710251+9999REMSYN011 333 85616;MET008NEW NSG;EQDQ01+000062SCOTCVQ02+000000PRSWM2
0077601010999991995011216004+35733-005900FM-15+0021GMTT V0202001N00411004801CN0112651N1+01601+01101999999ADDAG10999GA1071+004809999MA1102401999999REMMET008NEW NSG;EQDQ01+000000PRSWM2
0077601010999991995011217004+35733-005900FM-15+0021GMTT V0209991C00001004801CN0112651N1+01501+01201999999ADDAG10999GA1071+004809999MA1102401999999REMMET008NEW NSG;EQDQ01+000000PRSWM2
0164601010999991995011218004+35733-005900SY-MT+0021GMTT V0209991C00001220001CN0100001N1+01351+01071102461ADDAA106000091AG10000GA1021+004809999GF103991021051004501001011KA1120M+01691MA1102401999999MD1310041+9999REMSYN017 333 10169 82616;MET008NEW NSG;EQDQ01+000000PRSWM2
0077601010999991995011218304+35733-005900FM-15+0021GMTT V0209991C00001220001CN0080001N1+01401+01101999999ADDAG10999GA1021+004809999MA1102401999999REMMET008NEW NSG;EQDQ01+000000PRSWM2
0077601010999991995011219304+35733-005900FM-15+0021GMTT V0209991C00001220001CN0070001N1+01301+01101999999ADDAG10999GA1021+004809999MA1102401999999REMMET008NEW NSG;EQDQ01+000000PRSWM2
0145601010999991995011221004+35733-005900SY-MT+0021GMTT V0209991C00001220001CN0050001N1+00751+00601102551ADDAA106000091AG10000GA1021+004809999GF103991031051004501001001MA1102401999999MD1310081+9999REMSYN011 333 83616;MET008NEW NSG;EQDQ01+000000PRSWM2
0077601010999991995011222004+35733-005900FM-15+0021GMTT V0209991C00001220001CN0050001N1+00701+00601999999ADDAG10999GA1021+004809999MA1102511999999REMMET008NEW NSG;EQDQ01+000000PRSWM2
0145601010999991995011300004+35733-005900SY-MT+0021GMTT V0200801N00211220001CN0060001N1+00801+00741102631ADDAA106000091AG10000GA1021+004809999GF103991031051004501001001MA1102511999999MD1310081+9999REMSYN011 333 83616;MET008NEW NSG;EQDQ01+000000PRSWM2
0077601010999991995011300304+35733-005900FM-15+0021GMTT V0200801N00211220001CN0060001N1+00801+00701999999ADDAG10999GA1021+004809999MA1102611999999REMMET008NEW NSG;EQDQ01+000000PRSWM2
0077601010999991995011301304+35733-005900FM-15+0021GMTT V0200801N00211220001CN0060001N1+00801+00701999999ADDAG10999GA1021+004809999MA1102611999999REMMET008NEW NSG;EQDQ01+000000PRSWM2
0145601010999991995011303004+35733-005900SY-MT+0021GMTT V0200801N00211220001CN0060001N1+00751+00681102631ADDAA106000091AG10000GA1021+004809999GF103991031051004501001001MA1102611999999MD1410001+9999REMSYN011 333 83616;MET008NEW NSG;EQDQ01+000000PRSWM2
0077601010999991995011303304+35733-005900FM-15+0021GMTT V0200801N00211220001CN0060001N1+00801+00701999999ADDAG10999GA1021+004809999MA1102611999999REMMET008NEW NSG;EQDQ01+000000PRSWM2
0077601010999991995011304304+35733-005900FM-15+0021GMTT V0200801N00211220001CN0060001N1+00701+00601999999ADDAG10999GA1021+004809999MA1102611999999REMMET008NEW NSG;EQDQ01+000000PRSWM2
0164601010999991995011306004+35733-005900SY-MT+0021GMTT V0200601N00311220001CN0080001N1+01221+00931102641ADDAA106000091AG10000GA1021+004809999GF103991031051004501001001KA1120N+00301MA1102611999999MD1310021+9999REMSYN017 333 20030 83616;MET008NEW NSG;EQDQ01+000000PRSWM2
0077601010999991995011306304+35733-005900FM-15+0021GMTT V0200601N00311220001CN0080001N1+01201+00901999999ADDAG10999GA1021+004809999MA1102611999999REMMET008NEW NSG;EQDQ01+000000PRSWM2
0077601010999991995011307304+35733-005900FM-15+0021GMTT V0200601N00311220001CN0080001N1+01201+00901999999ADDAG10999GA1021+004809999MA1102611999999REMMET008NEW NSG;EQDQ01+000000PRSWM2
0145601010999991995011309004+35733-005900SY-MT+0021GMTT V0200601N00101220001CN0100001N1+01261+00791102791ADDAA106000091AG10000GA1021+004809999GF103991031051004501001001MA1102711999999MD1310151+9999REMSYN011 333 83616;MET008NEW NSG;EQDQ01+000000PRSWM2
0077601010999991995011309304+35733-005900FM-15+0021GMTT V0200601N00511220001CN0112651N1+01301+00801999999ADDAG10999GA1021+004809999MA1102711999999REMMET008NEW NSG;EQDQ01+000000PRSWM2
0077601010999991995011310304+35733-005900FM-15+0021GMTT V0200601N00821220001CN0112651N1+01401+00701999999ADDAG10999GA1021+004809999MA1102811999999REMMET008NEW NSG;EQDQ01+000000PRSWM2
0145601010999991995011312004+35733-005900SY-MT+0021GMTT V0200601N00931220001CN0150001N1+01611+00341102881ADDAA106000091AG10000GA1021+004809999GF103991031051004501001001MA1102911999999MD1010091+9999REMSYN011 333 83616;MET008NEW NSG;EQDQ01+000000PRSWM2
0077601010999991995011312304+35733-005900FM-15+0021GMTT V0200601N00931220001CN0112651N1+01601+00301999999ADDAG10999GA1021+004809999MA1102811999999REMMET008NEW NSG;EQDQ01+000000PRSWM2
0077601010999991995011313304+35733-005900FM-15+0021GMTT V0200801N00771220001CN0112651N1+01601+00301999999ADDAG10999GA1021+004809999MA1102811999999REMMET008NEW NSG;EQDQ01+000000PRSWM2
0145601010999991995011315004+35733-005900SY-MT+0021GMTT V0200801N01031220001CN0150001N1+01621+00051102741ADDAA106000091AG10000GA1021+004809999GF103991031051004501001001MA1102711999999MD1610141+9999REMSYN011 333 83616;MET008NEW NSG;EQDQ01+000000PRSWM2
0077601010999991995011315304+35733-005900FM-15+0021GMTT V0200601N00931220001CN0112651N1+01601+00101999999ADDAG10999GA1021+004809999MA1102711999999REMMET008NEW NSG;EQDQ01+000000PRSWM2
0077601010999991995011316304+35733-005900FM-15+0021GMTT V0200601N00771220001CN0112651N1+01601+00001999999ADDAG10999GA1021+004809999MA1102611999999REMMET008NEW NSG;EQDQ01+000000PRSWM2
0148601010999991995011318004+35733-005900SY-MT+0021GMTT V0200601N00821220001CN0150001N1+01251+00051102751ADDAA106000091AG10000GF100991001001999999001001KA1999M+01581MA1102711999999MD1310011+9999REMSYN011 333 10158;MET014NEW CAVOK NSG;EQDQ01+000000PRSWM2
0067601010999991995011319004+35733-005900FM-15+0021GMTT V0200601N00821999991CY0099001N1+01201+00101999999ADDAG10999MA1102811999999REMMET014NEW CAVOK NSG;EQDQ01+000000PRSWM2
0067601010999991995011319304+35733-005900FM-15+0021GMTT V0200801N00821999991CY0099001N1+01201+00101999999ADDAG10999MA1102811999999REMMET014NEW CAVOK NSG;EQDQ01+000000PRSWM2
0118601010999991995011321004+35733-005900SY-MT+0021GMTT V0200801N00931220001CN0150001N1+01201-00031102801ADDAA106000091AG10000GF100991001001999999001001MA1102811999999MD1310051+9999REMMET014NEW CAVOK NSG;EQDQ01+000000PRSWM2
0067601010999991995011321304+35733-005900FM-15+0021GMTT V0200801N01031999991CY0099001N1+01201+00001999999ADDAG10999MA1102811999999REMMET014NEW CAVOK NSG;EQDQ01+000000PRSWM2
0067601010999991995011322304+35733-005900FM-15+0021GMTT V0200801N00931999991CY0099001N1+01201+00001999999ADDAG10999MA1102811999999REMMET014NEW CAVOK NSG;EQDQ01+000000PRSWM2
0118601010999991995011400004+35733-005900SY-MT+0021GMTT V0200801N00721220001CN0150001N1+01101-00011102801ADDAA106000091AG10000GF100991001001999999001001MA1102811999999MD1410001+9999REMMET014NEW CAVOK NSG;EQDQ01+000000PRSWM2
0067601010999991995011400304+35733-005900FM-15+0021GMTT V0200801N00821999991CY0099001N1+01101+00001999999ADDAG10999MA1102811999999REMMET014NEW CAVOK NSG;EQDQ01+000000PRSWM2
0067601010999991995011402004+35733-005900FM-15+0021GMTT V0200801N00721999991CY0099001N1+01101+00001999999ADDAG10999MA1102811999999REMMET014NEW CAVOK NSG;EQDQ01+000000PRSWM2
0118601010999991995011403004+35733-005900SY-MT+0021GMTT V0200801N00621220001CN0150001N1+01021-00011102801ADDAA106000091AG10000GF100991001001999999001001MA1102811999999MD1410001+9999REMMET014NEW CAVOK NSG;EQDQ01+000000PRSWM2
0058601010999991995011404004+35733-005900FM-15+0021GMTT V0200801N00511999991CY0099001N1+01001+00201999999ADDAG10999REMMET020NEW CAVOK Q10-85NSG;EQDQ01+000000PRSWM2
0067601010999991995011404304+35733-005900FM-15+0021GMTT V0200801N00511999991CY0099001N1+01001+00201999999ADDAG10999MA1102811999999REMMET014NEW CAVOK NSG;EQDQ01+000000PRSWM2
0190601010999991995011406004+35733-005900SY-MT+0021GMTT V0200801N00931220001CN0100001N1+00901-00151102681ADDAA106000091AG10000GA1021+004809999GF199999001001999999001001KA1999N+00831MA1102711999999MD1710041+9999REMSYN011 333 20083;MET008NEW NSG;EQDQ01+000002SCOTCVQ02+000992SCOLCBQ03+000000PRSWM2
0067601010999991995011407004+35733-005900FM-15+0021GMTT V0200801N00511999991CY0099001N1+00901-00201999999ADDAG10999MA1102611999999REMMET014NEW CAVOK NSG;EQDQ01+000000PRSWM2
0067601010999991995011407304+35733-005900FM-15+0021GMTT V0200801N00621999991CY0099001N1+00901+00001999999ADDAG10999MA1102611999999REMMET014NEW CAVOK NSG;EQDQ01+000000PRSWM2
0118601010999991995011409004+35733-005900SY-MT+0021GMTT V0200801N00931220001CN0200001N1+01101-00431102701ADDAA106000091AG10000GF100991001001999999001001MA1102711999999MD1310021+9999REMMET014NEW CAVOK NSG;EQDQ01+000000PRSWM2
0067601010999991995011409304+35733-005900FM-15+0021GMTT V0200801N00821999991CY0099001N1+01101-00401999999ADDAG10999MA1102711999999REMMET014NEW CAVOK NSG;EQDQ01+000000PRSWM2
0067601010999991995011410304+35733-005900FM-15+0021GMTT V0200801N00931999991CY0099001N1+01401-00601999999ADDAG10999MA1102711999999REMMET014NEW CAVOK NSG;EQDQ01+000000PRSWM2
0118601010999991995011412004+35733-005900SY-MT+0021GMTT V0200801N00821220001CN0200001N1+01601-00471102831ADDAA106000091AG10000GF100991001001999999001001MA1102811999999MD1110131+9999REMMET014NEW CAVOK NSG;EQDQ01+000000PRSWM2
0067601010999991995011412304+35733-005900FM-15+0021GMTT V0200601N00931999991CY0099001N1+01601-00501999999ADDAG10999MA1102811999999REMMET014NEW CAVOK NSG;EQDQ01+000000PRSWM2
0085601010999991995011413304+35733-005900FM-15+0021GMTT V0201321N01541999999CN9999999N9+99999+99999999999ADDAG10999REMMET031NEW 8KT CAVOK 16/M05 Q1027 NSG;EQDQ01+000002VOVAR Q02+000000PRSWM2
0118601010999991995011415004+35733-005900SY-MT+0021GMTT V0200801N01031220001CN0150001N1+01541+00001102701ADDAA106000091AG10000GF100991001001999999001001MA1102711999999MD1810131+9999REMMET014NEW CAVOK NSG;EQDQ01+000000PRSWM2
0067601010999991995011415304+35733-005900FM-15+0021GMTT V0200801N00931999991CY0099001N1+01501+00001999999ADDAG10999MA1102711999999REMMET014NEW CAVOK NSG;EQDQ01+000000PRSWM2
0067601010999991995011416304+35733-005900FM-15+0021GMTT V0200801N00821999991CY0099001N1+01601-00301999999ADDAG10999MA1102611999999REMMET014NEW CAVOK NSG;EQDQ01+000000PRSWM2
0148601010999991995011418004+35733-005900SY-MT+0021GMTT V0200801N00511220001CN0150001N1+01221-00211102741ADDAA106000091AG10000GF100991001001999999001001KA1999M+01711MA1102611999999MD1310081+9999REMSYN011 333 10171;MET014NEW CAVOK NSG;EQDQ01+000000PRSWM2
0067601010999991995011418304+35733-005900FM-15+0021GMTT V0200801N00511999991CY0099001N1+01201-00201999999ADDAG10999MA1102711999999REMMET014NEW CAVOK NSG;EQDQ01+000000PRSWM2
0067601010999991995011419304+35733-005900FM-15+0021GMTT V0200801N00621999991CY0099001N1+01101-00101999999ADDAG10999MA1102811999999REMMET014NEW CAVOK NSG;EQDQ01+000000PRSWM2
0118601010999991995011421004+35733-005900SY-MT+0021GMTT V0209991C00001220001CN0150001N1+00981-00101102801ADDAA106000091AG10000GF100991001001999999001001MA1102711999999MD1110061+9999REMMET014NEW CAVOK NSG;EQDQ01+000000PRSWM2
0067601010999991995011421304+35733-005900FM-15+0021GMTT V0200801N00211999991CY0099001N1+01001-00101999999ADDAG10999MA1102811999999REMMET014NEW CAVOK NSG;EQDQ01+000000PRSWM2
0067601010999991995011422304+35733-005900FM-15+0021GMTT V0209991C00001999991CY0099001N1+01001+00101999999ADDAG10999MA1102811999999REMMET014NEW CAVOK NSG;EQDQ01+000000PRSWM2
0118601010999991995011500004+35733-005900SY-MT+0021GMTT V0201001N00311220001CN0150001N1+00781-00021102771ADDAA106000091AG10000GF100991001001999999001001MA1102811999999MD1610041+9999REMMET014NEW CAVOK NSG;EQDQ01+000000PRSWM2
0067601010999991995011500304+35733-005900FM-15+0021GMTT V0200801N00361999991CY0099001N1+00801+00001999999ADDAG10999MA1102711999999REMMET014NEW CAVOK NSG;EQDQ01+000000PRSWM2
0067601010999991995011501304+35733-005900FM-15+0021GMTT V0200801N00411999991CY0099001N1+00701+00001999999ADDAG10999MA1102711999999REMMET014NEW CAVOK NSG;EQDQ01+000000PRSWM2
0118601010999991995011503004+35733-005900SY-MT+0021GMTT V0200801N00411220001CN0150001N1+00631-00071102701ADDAA106000091AG10000GF100991001001999999001001MA1102711999999MD1610071+9999REMMET014NEW CAVOK NSG;EQDQ01+000000PRSWM2
0067601010999991995011505004+35733-005900FM-15+0021GMTT V0200801N00361999991CY0099001N1+00601-00101999999ADDAG10999MA1102611999999REMMET014NEW CAVOK NSG;EQDQ01+000000PRSWM2
0148601010999991995011506004+35733-005900SY-MT+0021GMTT V0200801N00411220001CN0150001N1+00621+00091102611ADDAA106000091AG10000GF100991001001999999001001KA1999N+00421MA1102611999999MD1610111+9999REMSYN011 333 20042;MET014NEW CAVOK NSG;EQDQ01+000000PRSWM2
0067601010999991995011506304+35733-005900FM-15+0021GMTT V0200801N00411999991CY0099001N1+00601+00101999999ADDAG10999MA1102611999999REMMET014NEW CAVOK NSG;EQDQ01+000000PRSWM2
0067601010999991995011508004+35733-005900FM-15+0021GMTT V0200801N00411999991CY0099001N1+00601+00001999999ADDAG10999MA1102611999999REMMET014NEW CAVOK NSG;EQDQ01+000000PRSWM2
0118601010999991995011509004+35733-005900SY-MT+0021GMTT V0200801N00411220001CN0200001N1+00991+00101102701ADDAA106000091AG10000GF100991001001999999001001MA1102611999999MD1210091+9999REMMET014NEW CAVOK NSG;EQDQ01+000000PRSWM2
0094601010999991995011510004+35733-005900FM-15+0021GMTT V0209999999999999999CN9999999N9+99999+99999999999ADDAG10999REMMET040NEW 1000Z OOOOOKT CAVOK 13/02 Q1027 NSG;EQDQ01+000002VOVAR Q02+000000PRSWM2
0067601010999991995011510304+35733-005900FM-15+0021GMTT V0209991C00001999991CY0099001N1+01301+00201999999ADDAG10999MA1102711999999REMMET014NEW CAVOK NSG;EQDQ01+000000PRSWM2
0118601010999991995011512004+35733-005900SY-MT+0021GMTT V0209991C00001220001CN0150001N1+01651+00771102781ADDAA106000091AG10000GF100991001001999999001001MA1102811999999MD1710031+9999REMMET014NEW CAVOK NSG;EQDQ01+000000PRSWM2
0067601010999991995011512304+35733-005900FM-15+0021GMTT V0209991C00001999991CY0099001N1+01701+00801999999ADDAG10999MA1102711999999REMMET014NEW CAVOK NSG;EQDQ01+000000PRSWM2
0067601010999991995011513304+35733-005900FM-15+0021GMTT V0202201N00311999991CY0099001N1+01701+00801999999ADDAG10999MA1102711999999REMMET014NEW CAVOK NSG;EQDQ01+000000PRSWM2
0118601010999991995011515004+35733-005900SY-MT+0021GMTT V0202601N00151220001CN0150001N1+01651+00791102501ADDAA106000091AG10000GF100991001001999999001001MA1102611999999MD1810281+9999REMMET014NEW CAVOK NSG;EQDQ01+000000PRSWM2
0067601010999991995011515304+35733-005900FM-15+0021GMTT V0202401N00151999991CY0099001N1+01601+00801999999ADDAG10999MA1102401999999REMMET014NEW CAVOK NSG;EQDQ01+000000PRSWM2
0067601010999991995011516304+35733-005900FM-15+0021GMTT V0202601N00151999991CY0099001N1+01601+01001999999ADDAG10999MA1102511999999REMMET014NEW CAVOK NSG;EQDQ01+000000PRSWM2
0148601010999991995011518004+35733-005900SY-MT+0021GMTT V0203001N00101220001CN0150001N1+01321+00791102591ADDAA106000091AG10000GF100991001001999999001001KA1999M+01701MA1102511999999MD1310011+9999REMSYN011 333 10170;MET014NEW CAVOK NSG;EQDQ01+000000PRSWM2
0067601010999991995011518304+35733-005900FM-15+0021GMTT V0209991C00001999991CY0099001N1+01301+00801999999ADDAG10999MA1102511999999REMMET014NEW CAVOK NSG;EQDQ01+000000PRSWM2
0067601010999991995011519304+35733-005900FM-15+0021GMTT V0209991C00001999991CY0099001N1+01001+00701999999ADDAG10999MA1102611999999REMMET014NEW CAVOK NSG;EQDQ01+000000PRSWM2
0118601010999991995011521004+35733-005900SY-MT+0021GMTT V0209991C00001220001CN0150001N1+00591+00381102631ADDAA106000091AG10000GF100991001001999999001001MA1102611999999MD1310031+9999REMMET014NEW CAVOK NSG;EQDQ01+000000PRSWM2
0067601010999991995011521304+35733-005900FM-15+0021GMTT V0209991C00001999991CY0099001N1+00601+00401999999ADDAG10999MA1102611999999REMMET014NEW CAVOK NSG;EQDQ01+000000PRSWM2
0067601010999991995011522304+35733-005900FM-15+0021GMTT V0200801N00151999991CY0099001N1+00601+00301999999ADDAG10999MA1102611999999REMMET014NEW CAVOK NSG;EQDQ01+000000PRSWM2
0118601010999991995011600004+35733-005900SY-MT+0021GMTT V0200801N00101220001CN0150001N1+00541+00301102691ADDAA106000091AG10000GF100991001001999999001001MA1102611999999MD1110061+9999REMMET014NEW CAVOK NSG;EQDQ01+000000PRSWM2
0067601010999991995011600304+35733-005900FM-15+0021GMTT V0200801N00151999991CY0099001N1+00501+00301999999ADDAG10999MA1102611999999REMMET014NEW CAVOK NSG;EQDQ01+000000PRSWM2
0067601010999991995011601304+35733-005900FM-15+0021GMTT V0200801N00101999991CY0099001N1+00501+00301999999ADDAG10999MA1102611999999REMMET014NEW CAVOK NSG;EQDQ01+000000PRSWM2
0118601010999991995011603004+35733-005900SY-MT+0021GMTT V0209991C00001220001CN0150001N1+00461+00241102681ADDAA106000091AG10000GF100991001001999999001001MA1102611999999MD1810011+9999REMMET014NEW CAVOK NSG;EQDQ01+000000PRSWM2
0067601010999991995011603304+35733-005900FM-15+0021GMTT V0209991C00001999991CY0099001N1+00501+00201999999ADDAG10999MA1102611999999REMMET014NEW CAVOK NSG;EQDQ01+000000PRSWM2
0067601010999991995011605004+35733-005900FM-15+0021GMTT V0201001N00151999991CY0099001N1+00501+00201999999ADDAG10999MA1102611999999REMMET014NEW CAVOK NSG;EQDQ01+000000PRSWM2
0148601010999991995011606004+35733-005900SY-MT+0021GMTT V0200801N00101220001CN0150001N1+00351+00221102671ADDAA106000091AG10000GF100991001001999999001001KA1999N+00241MA1102611999999MD1710011+9999REMSYN011 333 20024;MET014NEW CAVOK NSG;EQDQ01+000000PRSWM2
0067601010999991995011606304+35733-005900FM-15+0021GMTT V0200801N00211999991CY0099001N1+00401+00201999999ADDAG10999MA1102611999999REMMET014NEW CAVOK NSG;EQDQ01+000000PRSWM2
0067601010999991995011607304+35733-005900FM-15+0021GMTT V0200801N00211999991CY0099001N1+00601+00301999999ADDAG10999MA1102611999999REMMET014NEW CAVOK NSG;EQDQ01+000000PRSWM2
0145601010999991995011609004+35733-005900SY-MT+0021GMTT V0200801N00151220001CN0100001N1+00741+00421102771ADDAA106000091AG10000GA1021+004809999GF103991031051004501001001MA1102611999999MD1310101+9999REMSYN011 333 83616;MET008NEW NSG;EQDQ01+000000PRSWM2
0077601010999991995011609304+35733-005900FM-15+0021GMTT V0200801N00151220001CN0112651N1+00701+00401999999ADDAG10999GA1021+004809999MA1102711999999REMMET008NEW NSG;EQDQ01+000000PRSWM2
0077601010999991995011610304+35733-005900FM-15+0021GMTT V0209991C00001004801CN0112651N1+01101+00601999999ADDAG10999GA1071+004809999MA1102711999999REMMET008NEW NSG;EQDQ01+000000PRSWM2
0145601010999991995011612004+35733-005900SY-MT+0021GMTT V0201401N00211220001CN0100001N1+01641+00881102781ADDAA106000091AG10000GA1021+004809999GF103991031051004501001001MA1102711999999MD1010021+9999REMSYN011 333 83616;MET008NEW NSG;EQDQ01+000000PRSWM2
0077601010999991995011612304+35733-005900FM-15+0021GMTT V0201401N00211220001CN0112651N1+01601+00901999999ADDAG10999GA1021+004809999MA1102711999999REMMET008NEW NSG;EQDQ01+000000PRSWM2
0077601010999991995011613304+35733-005900FM-15+0021GMTT V0202001N00311004801CN0112651N1+01601+00901999999ADDAG10999GA1071+004809999MA1102711999999REMMET008NEW NSG;EQDQ01+000000PRSWM2
0161601010999991995011615004+35733-005900SY-MT+0021GMTT V0202201N00261004801CN0150001N1+01741+00961102631ADDAA106000091AG10000GA1071+004809999GF199999051051004501001001MA1102611999999MD1610151+9999REMSYN011 333 85616;MET008NEW NSG;EQDQ01+000052SCOTCVQ02+000000PRSWM2
0077601010999991995011615304+35733-005900FM-15+0021GMTT V0202201N00261004801CN0112651N1+01701+01001999999ADDAG10999GA1071+004809999MA1102611999999REMMET008NEW NSG;EQDQ01+000000PRSWM2
0077601010999991995011616304+35733-005900FM-15+0021GMTT V0202201N00261220001CN0112651N1+01701+00901999999ADDAG10999GA1021+004809999MA1102611999999REMMET008NEW NSG;EQDQ01+000000PRSWM2
0164601010999991995011618004+35733-005900SY-MT+0021GMTT V0209991C00001220001CN0100001N1+01461+01071102631ADDAA106000091AG10000GA1021+004809999GF104991031021004501001021KA1120M+01771MA1102611999999MD1410001+9999REMSYN017 333 10177 83816;MET008NEW NSG;EQDQ01+000000PRSWM2
0077601010999991995011618304+35733-005900FM-15+0021GMTT V0209991C00001220001CN0112651N1+01501+01101999999ADDAG10999GA1021+004809999MA1102611999999REMMET008NEW NSG;EQDQ01+000000PRSWM2
0077601010999991995011619304+35733-005900FM-15+0021GMTT V0209991C00001220001CN0112651N1+01301+01101999999ADDAG10999GA1021+004809999MA1102611999999REMMET008NEW NSG;EQDQ01+000000PRSWM2
0177601010999991995011621004+35733-005900SY-MT+0021GMTT V0209991C00001220001CN0100001N1+00921+00731102731ADDAA106000091AG10000GA1021+004809999GA2071+069009999GF199999031021004501001021MA1102611999999MD1310091+9999REMSYN011 333 83816;MET008NEW NSG;EQDQ01+000042SCOTCVQ02+000000PRSWM2
0077601010999991995011621304+35733-005900FM-15+0021GMTT V0200801N00151004801CN0112651N1+00901+00701999999ADDAG10999GA1071+004809999MA1102711999999REMMET008NEW NSG;EQDQ01+000000PRSWM2
0077601010999991995011622304+35733-005900FM-15+0021GMTT V0200801N00211004801CN0112651N1+00901+00701999999ADDAG10999GA1071+004809999MA1102711999999REMMET008NEW NSG;EQDQ01+000000PRSWM2
0151601010999991995011700004+35733-005900SY-MT+0021GMTT V0200801N00151220001CN0100001N1+00901+00751102691ADDAA106000091AG10000GA1021+004809999GF103991021051004501001021MA1102711999999MD1710041+9999REMSYN017 333 82616 83073;MET008NEW NSG;EQDQ01+000000PRSWM2
0093601010999991995011701304+35733-005900FM-15+0021GMTT V0200801N00211069001CN0112651N1+00901+00701999999ADDAG10999GA1021+004809999GA2071+069009999MA1102611999999REMMET008NEW NSG;EQDQ01+000000PRSWM2
0167601010999991995011703004+35733-005900SY-MT+0021GMTT V0201001N00211069001CN0100001N1+00901+00751102641ADDAA106000091AG10000GA1021+004809999GA2071+069009999GF107991021051004501001051MA1102611999999MD1710051+9999REMSYN017 333 82616 87073;MET008NEW NSG;EQDQ01+000000PRSWM2
0093601010999991995011703304+35733-005900FM-15+0021GMTT V0200801N00211069001CN0112651N1+00901+00801999999ADDAG10999GA1021+004809999GA2071+069009999MA1102611999999REMMET008NEW NSG;EQDQ01+000000PRSWM2
0093601010999991995011704304+35733-005900FM-15+0021GMTT V0200801N00211069001CN0112651N1+00901+00801999999ADDAG10999GA1021+004809999GA2071+069009999MA1102611999999REMMET008NEW NSG;EQDQ01+000000PRSWM2
0202601010999991995011706004+35733-005900SY-MT+0021GMTT V0200801N00311069001CN0100001N1+01071+00971102561ADDAA106000091AG10000GA1021+004809999GA2071+069009999GF199999061051004501001021KA1120N+00701MA1102511999999MD1810071+9999REMSYN023 333 20070 84616 84073;MET008NEW NSG;EQDQ01+000062SCOTCVQ02+000000PRSWM2
0093601010999991995011706304+35733-005900FM-15+0021GMTT V0200801N00311220001CN0112651N1+01101+01001999999ADDAG10999GA1021+004809999GA2021+069009999MA1102511999999REMMET008NEW NSG;EQDQ01+000000PRSWM2
0092601010999991995011707304+35733-005900FM-15+0021GMTT V0200801N00211220001CN0112651N1+01101+01001999999ADDAG10999GA1021+004809999GA2021+069009999MA1102511999999REMMET007NEW NG;EQDQ01+000000PRSWM2
0145601010999991995011709004+35733-005900SY-MT+0021GMTT V0201601N00311004801CN0100001N1+01271+00711102581ADDAA106000091AG10000GA1071+004809999GF107991061051004501001021MA1102511999999MD1310021+9999REMSYN011 333 86616;MET008NEW NSG;EQDQ01+000000PRSWM2
0093601010999991995011710004+35733-005900FM-15+0021GMTT V0201601N00621004801CN0112651N1+01401+00701999999ADDAG10999GA1071+004809999GA2071+069009999MA1102611999999REMMET008NEW NSG;EQDQ01+000000PRSWM2
0093601010999991995011710304+35733-005900FM-15+0021GMTT V0201601N00621004801CN0112651N1+01401+00701999999ADDAG10999GA1071+004809999GA2071+069009999MA1102611999999REMMET008NEW NSG;EQDQ01+000000PRSWM2
0183601010999991995011712004+35733-005900SY-MT+0021GMTT V0201801N00821004801CN0150001N1+01681+00671102601ADDAA106000091AG10000GA1071+004809999GA2071+069009999GF199999041051004501081021MA1102611999999MD1010021+9999REMSYN017 333 84616 83073;MET008NEW NSG;EQDQ01+000062SCOTCVQ02+000000PRSWM2
0093601010999991995011712304+35733-005900FM-15+0021GMTT V0201801N00721220001CN0112651N1+01701+00701999999ADDAG10999GA1021+004809999GA2021+069009999MA1102611999999REMMET008NEW NSG;EQDQ01+000000PRSWM2
0093601010999991995011713304+35733-005900FM-15+0021GMTT V0202001N00931069001CN0112651N1+01701+00701999999ADDAG10999GA1021+004809999GA2071+069009999MA1102611999999REMMET008NEW NSG;EQDQ01+000000PRSWM2
0167601010999991995011715004+35733-005900SY-MT+0021GMTT V0202001N00821004801CN0100001N1+01661+00741102401ADDAA106000091AG10000GA1021+003909999GA2071+004809999GF107991071081004501999999MA1102401999999MD1810201+9999REMSYN017 333 82813 87616;MET008NEW NSG;EQDQ01+000000PRSWM2
0109601010999991995011716004+35733-005900FM-15+0021GMTT V0202001N00931030001CN0080001N1+01701+00701999999ADDAG10999GA1021+003909999GA2021+004809999GA3021+030009999MA1102301999999REMMET008NEW NSG;EQDQ01+000000PRSWM2
0093601010999991995011716304+35733-005900FM-15+0021GMTT V0202001N00931004801CN0080001N1+01601+00801999999ADDAG10999GA1021+003909999GA2071+004809999MA1102301999999REMMET008NEW NSG;EQDQ01+000000PRSWM2
0186601010999991995011718004+35733-005900SY-MT+0021GMTT V0201801N00721004801CN0080001N1+01571+00951102381ADDAA106000091AG10000GA1021+003909999GA2071+004809999GF107991071081004501999999KA1120M+01791MA1102301999999MD1610021+9999REMSYN023 333 10179 82813 87616;MET008NEW NSG;EQDQ01+000000PRSWM2
0093601010999991995011718304+35733-005900FM-15+0021GMTT V0202001N00721004801CN0080001N1+01601+01001999999ADDAG10999GA1021+003909999GA2071+004809999MA1102301999999REMMET008NEW NSG;EQDQ01+000000PRSWM2
0080601010999991995011720004+35733-005900FM-15+0021GMTT V0202201N00721004801CN0080001N1+01401+01001999999ADDAG10999GA1021+003909999GA2071+004809999MA1102301999999MW1611REMMET008NEW NSG;
0167601010999991995011721004+35733-005900SY-MT+0021GMTT V0201601N00511004801CN0080001N1+01401+00901102431ADDAA106000091AG10001GA1021+003909999GA2071+004809999GF107991071081004501999999MA1102301999999MD1310051+9999REMSYN017 333 83813 86616;MET008NEW NSG;EQDQ01+000003PRSWM1
0090601010999991995011721304+35733-005900FM-15+0021GMTT V0201601N00771004801CN0080001N1+01401+00901999999ADDAG10999GA1021+003909999GA2071+004809999MA1102401999999REMMET005NEW ;EQDQ01+000000PRSWM2
0090601010999991995011722304+35733-005900FM-15+0021GMTT V0201601N00621004801CN0080001N1+01401+00901999999ADDAG10999GA1021+003909999GA2071+004809999MA1102401999999REMMET005NEW ;EQDQ01+000000PRSWM2
0186601010999991995011800004+35733-005900SY-MT+0021GMTT V0201801N00511004801CN0080001N1+01481+01271102381ADDAA106001091AG10001AY161061AY221061GA1021+003909999GA2071+004809999GF107991071081004501999999MA1102401999999MD1810051+9999MW1021REMSYN017 333 84813 86615;MET005NEW ;EQDQ01+000000PRSWM2
0090601010999991995011800304+35733-005900FM-15+0021GMTT V0201801N00721004501CN0080001N1+01501+01301999999ADDAG10999GA1021+003909999GA2071+004509999MA1102301999999REMMET005NEW ;EQDQ01+000000PRSWM2
0090601010999991995011801304+35733-005900FM-15+0021GMTT V0201801N01031004501CN0080001N1+01501+01301999999ADDAG10999GA1021+003909999GA2071+004509999MA1102301999999REMMET005NEW ;EQDQ01+000000PRSWM2
0180601010999991995011803004+35733-005900SY-MT+0021GMTT V0201801N00931004801CN0080001N1+01441+01231102341ADDAA106000091AG10000GA1021+003909999GA2071+004809999GF199999061081004501001001MA1102301999999MD1610041+9999REMSYN017 333 83813 85616;MET005NEW ;EQDQ01+000062SCOTCVQ02+000000PRSWM2
0090601010999991995011804004+35733-005900FM-15+0021GMTT V0201801N00721004501CN0080001N1+01401+01201999999ADDAG10999GA1021+003909999GA2071+004509999MA1102201999999REMMET005NEW ;EQDQ01+000000PRSWM2
0090601010999991995011805004+35733-005900FM-15+0021GMTT V0201801N00931004501CN0080001N1+01401+01201999999ADDAG10999GA1021+003909999GA2071+004509999MA1102101999999REMMET005NEW ;EQDQ01+000000PRSWM2
0164601010999991995011806004+35733-005900SY-MT+0021GMTT V0201801N00931004801CN0080001N1+01421+01081102151ADDAA124001091AG10000GA1021+003909999GA2071+004809999GF107991071081004501999999MA1102101999999MD1610091+9999REMSYN017 333 84813 86616;MET005NEW ;EQDQ01+000000PRSWM2
0090601010999991995011806304+35733-005900FM-15+0021GMTT V0201801N01031004801CN0080001N1+01401+01101999999ADDAG10999GA1021+003909999GA2071+004809999MA1102101999999REMMET005NEW ;EQDQ01+000000PRSWM2
0096601010999991995011808004+35733-005900FM-15+0021GMTT V0201801N01031004801CN0040001N1+01301+01101999999ADDAG10999GA1021+003009999GA2021+003909999GA3071+004809999MA1102101999999MW1611REMMET008NEW NSG;
0187601010999991995011809004+35733-005900SY-MT+0021GMTT V0201601N00931004801CN0060001N1+01351+01141102161ADDAG10001AY161031AY261031GA1021+003009999GA2021+003909999GA3071+004809999GF108991081081004501999999MA1102101999999MD1310011+9999MW1601MW2611REMSYN023 333 83710 83813 87616;MET008NEW NSG;
0104601010999991995011810004+35733-005900FM-15+0021GMTT V0201801N00931004801CN0060001N1+01401+01201999999ADDAG10999GA1021+003009999GA2021+003909999GA3071+004809999MA1102201999999MW1611OC101651REMMET008NEW NSG;
0104601010999991995011810304+35733-005900FM-15+0021GMTT V0201801N01031004801CN0050001N1+01301+01201999999ADDAG10999GA1021+003009999GA2021+003909999GA3071+004809999MA1102201999999MW1631OC101651REMMET008NEW NSG;
0206601010999991995011812004+35733-005900SY-MT+0021GMTT V0202001N00821004801CN0060001N1+01341+01191102301ADDAA106010091AG10003AY161061AY261061GA1021+003009999GA2021+003909999GA3071+004809999GF108991081081004501999999MA1102201999999MD1210141+9999MW1211MW2631OC101541REMSYN023 333 83710 83813 87616;MET008NEW NSG;
0109601010999991995011814004+35733-005900FM-15+0021GMTT V0202001N01031004801CN0050001N1+01601+01301999999ADDAG10999GA1021+003009999GA2021+003909999GA3071+004809999MA1102201999999REMMET008NEW RERAEQDQ01+000000PRSWM2
0200601010999991995011815004+35733-005900SY-MT+0021GMTT V0203001N00821004801CN0070001N1+01641+01251102271ADDAG10001AY161031AY221031GA1021+003009999GA2021+003909999GA3071+004809999GF107991071081004501999999MA1102201999999MD1510031+9999MW1211REMSYN023 333 82710 82813 86616;MET008NEW NSG;EQDQ01+000000PRSWM2
0109601010999991995011815304+35733-005900FM-15+0021GMTT V0203001N00621004801CN0070001N1+01601+01301999999ADDAG10999GA1021+003009999GA2021+003909999GA3071+004809999MA1102201999999REMMET008NEW NSG;EQDQ01+000000PRSWM2
0109601010999991995011816304+35733-005900FM-15+0021GMTT V0203001N00621004801CN0070001N1+01401+01201999999ADDAG10999GA1021+003009999GA2021+003909999GA3071+004809999MA1102301999999REMMET008NEW NSG;EQDQ01+000000PRSWM2
0224601010999991995011818004+35733-005900SY-MT+0021GMTT V0202801N00311004801CN0070001N1+01261+00951102481ADDAA199016091AG10001AY161061AY221061GA1021+003009999GA2021+003909999GA3071+004809999GF107991061051004501081999KA1120M+01651MA1102401999999MD1210201+9999MW1211REMSYN023 333 10165 82710 85616;MET008NEW -REREQDQ01+000000PRSWM2
0093601010999991995011818304+35733-005900FM-15+0021GMTT V0202801N00311004801CN0070001N1+01301+01001999999ADDAG10999GA1021+003009999GA2071+004809999MA1102401999999REMMET008NEW NSG;EQDQ01+000000PRSWM2
0093601010999991995011819304+35733-005900FM-15+0021GMTT V0202601N00211004801CN0080001N1+01301+00901999999ADDAG10999GA1021+003009999GA2071+004809999MA1102511999999REMMET008NEW NSG;EQDQ01+000000PRSWM2
0178601010999991995011821004+35733-005900SY-MT+0021GMTT V0202201N00211004801CN0080001N1+01191+00921102681ADDAG10001AY161031AY261031GA1021+003009999GA2071+004809999GF107991061051004501081999MA1102511999999MD1210201+9999MW1211REMSYN017 333 82710 85616;MET008NEW NSG;EQDQ01+000000PRSWM2
0093601010999991995011821304+35733-005900FM-15+0021GMTT V0201801N00151004801CN0080001N1+01201+00901999999ADDAG10999GA1021+003009999GA2071+004809999MA1102611999999REMMET008NEW NSG;EQDQ01+000000PRSWM2
0093601010999991995011822304+35733-005900FM-15+0021GMTT V0209991C00001220001CN0080001N1+01201+00901999999ADDAG10999GA1021+004809999GA2021+030009999MA1102711999999REMMET008NEW NSG;EQDQ01+000000PRSWM2
0183601010999991995011900004+35733-005900SY-MT+0021GMTT V0201601N00101220001CN0080001N1+01151+00961102751ADDAA106000191AG10001AY161061AY261061GA1071+004809999GF199999041021004501001001MA1102711999999MD1010071+9999MW1011REMSYN011 333 84816;MET008NEW NSG;EQDQ01+000042SCOTCVQ02+000000PRSWM2
0077601010999991995011900304+35733-005900FM-15+0021GMTT V0201601N00101220001CN0080001N1+01201+01001999999ADDAG10999GA1021+004809999MA1102711999999REMMET008NEW NSG;EQDQ01+000000PRSWM2
0077601010999991995011901304+35733-005900FM-15+0021GMTT V0209991V00151220001CN0112651N1+01001+00801999999ADDAG10999GA1021+004809999MA1102711999999REMMET008NEW NSG;EQDQ01+000000PRSWM2
0145601010999991995011903004+35733-005900SY-MT+0021GMTT V0209991C00001220001CN0100001N1+00851+00741102771ADDAA106000091AG10000GA1021+004809999GF102991021021004501001001MA1102711999999MD1110011+9999REMSYN011 333 82816;MET008NEW NSG;EQDQ01+000000PRSWM2
0077601010999991995011903304+35733-005900FM-15+0021GMTT V0209991C00001220001CN0112651N1+00901+00701999999ADDAG10999GA1021+004809999MA1102711999999REMMET008NEW NSG;EQDQ01+000000PRSWM2
0077601010999991995011904304+35733-005900FM-15+0021GMTT V0209991V00151220001CN0112651N1+00801+00701999999ADDAG10999GA1021+004809999MA1102711999999REMMET008NEW NSG;EQDQ01+000000PRSWM2
0164601010999991995011906004+35733-005900SY-MT+0021GMTT V0201001N00101220001CN0100001N1+00531+00441102791ADDAA124016091AG10000GA1021+004809999GF102991021021004501001001KA1120N+00531MA1102711999999MD1110021+9999REMSYN017 333 20053 82816;MET008NEW NSG;EQDQ01+000000PRSWM2
0077601010999991995011906304+35733-005900FM-15+0021GMTT V0201201N00101220001CN0112651N1+00501+00401999999ADDAG10999GA1021+004809999MA1102711999999REMMET008NEW NSQGEQDQ01+000000PRSWM2
0077601010999991995011907304+35733-005900FM-15+0021GMTT V0201201N00151220001CN0112651N1+00501+00301999999ADDAG10999GA1021+004809999MA1102811999999REMMET008NEW NSG;EQDQ01+000000PRSWM2
0145601010999991995011909004+35733-005900SY-MT+0021GMTT V0200801N00211220001CN0100001N1+00881+00801102871ADDAA106000091AG10000GA1021+004809999GF102991021021004501001001MA1102811999999MD1310081+9999REMSYN011 333 82816;MET008NEW NSG;EQDQ01+000000PRSWM2
0077601010999991995011910004+35733-005900FM-15+0021GMTT V0200801N00101220001CN0112651N1+01001+00901999999ADDAG10999GA1021+004809999MA1102911999999REMMET008NEW NSG;EQDQ01+000000PRSWM2
0077601010999991995011910304+35733-005900FM-15+0021GMTT V0200801N00101220001CN0112651N1+01001+00901999999ADDAG10999GA1021+004809999MA1102911999999REMMET008NEW NSG;EQDQ01+000000PRSWM2
0151601010999991995011912004+35733-005900SY-MT+0021GMTT V0209991C00001220001CN0150001N1+01501+00821102941ADDAA106000091AG10000GA1021+004809999GF102991021021004501001021MA1102911999999MD1110081+9999REMSYN017 333 82816 82073;MET008NEW NSG;EQDQ01+000000PRSWM2
0093601010999991995011912304+35733-005900FM-15+0021GMTT V0202801N00101220001CN0112651N1+01501+00801999999ADDAG10999GA1021+004809999GA2021+069009999MA1102911999999REMMET008NEW NSG;EQDQ01+000000PRSWM2
0093601010999991995011913304+35733-005900FM-15+0021GMTT V0202801N00151220001CN0112651N1+01601+00801999999ADDAG10999GA1021+004809999GA2021+030009999MA1102911999999REMMET008NEW NSG;EQDQ01+000000PRSWM2
0167601010999991995011915004+35733-005900SY-MT+0021GMTT V0209991C00001036001CN0100001N1+01601+00921102781ADDAA106000091AG10000GA1021+004809999GA2021+030009999GF106991021021004501081021MA1102811999999MD1610161+9999REMSYN017 333 82816 83360;MET008NEW NSG;EQDQ01+000000PRSWM2
0093601010999991995011915304+35733-005900FM-15+0021GMTT V0209991C00001220001CN0112651N1+01601+00901999999ADDAG10999GA1021+004809999GA2021+030009999MA1102711999999REMMET008NEW NSG;EQDQ01+000000PRSWM2
0093601010999991995011916304+35733-005900FM-15+0021GMTT V0209991C00001004801CN0112651N1+01501+00901999999ADDAG10999GA1071+004809999GA2021+030009999MA1102711999999REMMET008NEW NSG;EQDQ01+000000PRSWM2
0183601010999991995011918004+35733-005900SY-MT+0021GMTT V0209991C00001004801CN0100001N1+01601+00921102781ADDAA106000091AG10000GA1071+004809999GA2021+030009999GF199999999999004501999999MA1102711999999MD1610161+9999REMSYN017 333 82816 83360;MET008NEW NSG;EQDQ01+000062SCOTCVQ02+000000PRSWM2
0093601010999991995011919004+35733-005900FM-15+0021GMTT V0209991C00001004801CN0112651N1+01401+01001999999ADDAG10999GA1071+004809999GA2021+030009999MA1102711999999REMMET008NEW NSG;EQDQ01+000000PRSWM2
0093601010999991995011919304+35733-005900FM-15+0021GMTT V0209991C00001004801CN0112651N1+01401+01001999999ADDAG10999GA1071+004809999GA2021+030009999MA1102711999999REMMET008NEW NSG;EQDQ01+000000PRSWM2
0167601010999991995011921004+35733-005900SY-MT+0021GMTT V0209991C00001004801CN0100001N1+01251+01041102821ADDAA106000091AG10000GA1071+004809999GA2021+030009999GF107991051081004501081999MA1102711999999MD1310041+9999REMSYN017 333 83616 85620;MET008NEW NSG;EQDQ01+000000PRSWM2
0109601010999991995011922004+35733-005900FM-15+0021GMTT V0200801N00151030001CN0112651N1+01201+01001999999ADDAG10999GA1021+004809999GA2021+006009999GA3071+030009999MA1102811999999REMMET008NEW NSG;EQDQ01+000000PRSWM2
0109601010999991995011922304+35733-005900FM-15+0021GMTT V0209991C00001030001CN0112651N1+01201+01001999999ADDAG10999GA1021+004809999GA2021+006009999GA3071+030009999MA1102811999999REMMET008NEW NSG;EQDQ01+000000PRSWM2
0189601010999991995012000004+35733-005900SY-MT+0021GMTT V0209991C00001030001CN0100001N1+01201+01071102841ADDAA106000091AG10000GA1021+004809999GA2021+006009999GA3071+030009999GF108991051051004501081999MA1102811999999MD1110021+9999REMSYN023 333 83616 85616 85360;MET008NEW NSG;EQDQ01+000000PRSWM2
0109601010999991995012001004+35733-005900FM-15+0021GMTT V0209991C00001004801CN0112651N1+01201+01101999999ADDAG10999GA1021+003909999GA2071+004809999GA3071+030009999MA1102811999999REMMET008NEW NSG;EQDQ01+000000PRSWM2
0109601010999991995012001304+35733-005900FM-15+0021GMTT V0209991C00001004801CN0112651N1+01201+01001999999ADDAG10999GA1021+003909999GA2071+004809999GA3071+030009999MA1102811999999REMMET008NEW NSG;EQDQ01+000000PRSWM2
0189601010999991995012003004+35733-005900SY-MT+0021GMTT V0201601N00621004801CN0100001N1+01321+01141102721ADDAA106000091AG10000GA1021+003909999GA2071+004809999GA3071+030009999GF108991051051004501081999MA1102711999999MD1710121+9999REMSYN023 333 83613 85616 85360;MET008NEW NSG;EQDQ01+000000PRSWM2
0109601010999991995012003304+35733-005900FM-15+0021GMTT V0201601N00621004801CN0112651N1+01301+01101999999ADDAG10999GA1021+003909999GA2071+004809999GA3071+030009999MA1102711999999REMMET008NEW NSG;EQDQ01+000000PRSWM2
0109601010999991995012004304+35733-005900FM-15+0021GMTT V0202001N00571004801CN0112651N1+01301+01101999999ADDAG10999GA1021+003909999GA2071+004809999GA3071+027009999MA1102611999999REMMET008NEW NSG;EQDQ01+000000PRSWM2
0227601010999991995012006004+35733-005900SY-MT+0021GMTT V0201801N00411003901CN0050001N1+01441+01351102681ADDAA124001091AG10001AY161061AY221061GA1021+002409999GA2071+003909999GA3071+027009999GF108991061051002501081999KA1120N+01141MA1102611999999MD1610041+9999MW1211REMSYN029 333 20114 83708 86615 85359;MET005NEW ;EQDQ01+000000PRSWM2
0109601010999991995012007004+35733-005900FM-15+0021GMTT V0201601N00411004501CN0050001N1+01401+01301999999ADDAG10999GA1021+002409999GA2071+004509999GA3071+027009999MA1102711999999REMMET008NEW RERAEQDQ01+000000PRSWM2
0093601010999991995012007304+35733-005900FM-15+0021GMTT V0201601N00411004501CN0050001N1+01401+01301999999ADDAG10999GA1021+002409999GA2071+004509999GA3071+027009999MA1102711999999MW1611REMMET005NEW ;
0162601010999991995012009004+35733-005900SY-MT+0021GMTT V0202201N00511004501CN0070001N1+01451+01361102761ADDAG10003AY161031AY221031GA1021+002409999GA2071+004509999GF107991061051002501081999MA1102611999999MD1310081+9999MW1211MW2631REMSYN017 333 83708 86815;MET005NEW ;
0093601010999991995012010004+35733-005900FM-15+0021GMTT V0201801N00511004501CN0070001N1+01501+01401999999ADDAG10999GA1021+002409999GA2071+004509999MA1102811999999REMMET008NEW RERAEQDQ01+000000PRSWM2
0093601010999991995012011004+35733-005900FM-15+0021GMTT V0202201N00721004501CN0070001N1+01601+01601999999ADDAG10999GA1021+002409999GA2071+004509999MA1102811999999REMMET008NEW RERAEQDQ01+000000PRSWM2
0186601010999991995012012004+35733-005900SY-MT+0021GMTT V0202601N00621004501CN0070001N1+01661+01451102921ADDAA106005091AG10001AY181061AY261061GA1021+002409999GA2071+004509999GF107991061021002501081999MA1102811999999MD1310151+9999MW1021REMSYN017 333 83708 86815;MET005NEW ;EQDQ01+000000PRSWM2
0090601010999991995012012304+35733-005900FM-15+0021GMTT V0202601N00621004501CN0070001N1+01701+01501999999ADDAG10999GA1021+002409999GA2071+004509999MA1102911999999REMMET005NEW ;EQDQ01+000000PRSWM2
0093601010999991995012013304+35733-005900FM-15+0021GMTT V0202601N00311004501CN0080001N1+01701+01501999999ADDAG10999GA1021+002409999GA2071+004509999MA1102811999999REMMET008NEW NSG;EQDQ01+000000PRSWM2
0177601010999991995012015004+35733-005900SY-MT+0021GMTT V0202601N00411004501CN0150001N1+01761+01331102821ADDAA106000091AG10000GA1021+002409999GA2071+004509999GF199999041021004501081021MA1102811999999MD1610091+9999REMSYN011 333 84815;MET008NEW NSG;EQDQ01+000062SCOTCVQ02+000000PRSWM2
0093601010999991995012016004+35733-005900FM-15+0021GMTT V0202601N00411220001CN0112651N1+01801+01301999999ADDAG10999GA1021+004509999GA2021+069009999MA1102811999999REMMET008NEW NSG;EQDQ01+000000PRSWM2
0093601010999991995012016304+35733-005900FM-15+0021GMTT V0202601N00311220001CN0112651N1+01801+01301999999ADDAG10999GA1021+004509999GA2021+069009999MA1102811999999REMMET008NEW NSG;EQDQ01+000000PRSWM2
0186601010999991995012018004+35733-005900SY-MT+0021GMTT V0202401N00311004501CN0100001N1+01601+01341102941ADDAA199005091AG10000GA1071+004509999GA2021+069009999GF107991051021004501001021KA1120M+01801MA1102911999999MD1210121+9999REMSYN023 333 10180 85815 83073;MET008NEW NSG;EQDQ01+000000PRSWM2
0093601010999991995012018304+35733-005900FM-15+0021GMTT V0202601N00621004801CN0112651N1+01601+01301999999ADDAG10999GA1071+004809999GA2021+069009999MA1102911999999REMMET008NEW NSG;EQDQ01+000000PRSWM2
0093601010999991995012019304+35733-005900FM-15+0021GMTT V0202401N00411004801CN0080001N1+01501+01301999999ADDAG10999GA1021+003909999GA2071+004809999MA1102911999999REMMET008NEW NSG;EQDQ01+000000PRSWM2
0194601010999991995012021004+35733-005900SY-MT+0021GMTT V0202801N00311004801CN0100001N1+01371+01301103041ADDAG10001AY161031AY221031GA1021+003909999GA2071+004809999GF199999051081004501001001MA1102911999999MD1110101+9999MW1011REMSYN017 333 83813 84616;MET008NEW NSG;EQDQ01+000052SCOTCVQ02+000000PRSWM2
0093601010999991995012021304+35733-005900FM-15+0021GMTT V0202801N00311220001CN0112651N1+01401+01301999999ADDAG10999GA1021+003909999GA2021+004809999MA1103011999999REMMET008NEW NSG;EQDQ01+000000PRSWM2
0093601010999991995012022304+35733-005900FM-15+0021GMTT V0203201N00411004801CN0112651N1+01401+01301999999ADDAG10999GA1021+003909999GA2071+004809999MA1103011999999REMMET008NEW RERAEQDQ01+000000PRSWM2
0176601010999991995012100004+35733-005900SY-MT+0021GMTT V0203401N00411004801CN0080001N1+01351+01261103151ADDAA106002091AG10001AY161061AY261061GA1021+003909999GA2071+004809999GF108991061081004501081999MA1103121999999MD1210111+9999MW1211MW2611REMSYN017 333 83813 86616;MET008NEW NSG;
0077601010999991995012100304+35733-005900FM-15+0021GMTT V0203201N00411004801CN0080001N1+01401+01301999999ADDAG10999GA1021+003909999GA2071+004809999MA1103121999999MW1631REMMET005NEW ;
0093601010999991995012101304+35733-005900FM-15+0021GMTT V0203201N00411004801CN0080001N1+01301+01301999999ADDAG10999GA1021+003909999GA2071+004809999MA1103121999999REMMET008NEW RERAEQDQ01+000000PRSWM2
0159601010999991995012103004+35733-005900SY-MT+0021GMTT V0203401N00311004801CN0080001N1+01301+01251103151ADDAG10000GA1021+003909999GA2071+004809999GF107991071081004501081999MA1103121999999MD1410001+9999MW1001REMSYN017 333 83813 86616;MET005NEW ;EQDQ01+000000PRSWM2
0091601010999991995012104004+35733-005900FM-15+0021GMTT V0203401N00311220001CN0080001N1+99999+99999999999ADDAG10999GA1021+003909999REMMET037NEW B5KT 8000 BKN020 11/10 Q1028 NSG;EQDQ01+000000PRSWM2
0093601010999991995012105004+35733-005900FM-15+0021GMTT V0209991C00001004801CN0080001N1+01001+00901999999ADDAG10999GA1021+003909999GA2071+004809999MA1103121999999REMMET008NEW NSG;EQDQ01+000000PRSWM2
0202601010999991995012106004+35733-005900SY-MT+0021GMTT V0209991C00001004801CN0100001N1+00861+00781103141ADDAA124009091AG10000GA1021+003909999GA2071+004809999GF199999041021004501001021KA1120N+00861MA1103121999999MD1510011+9999REMSYN023 333 20086 84816 83070;MET008NEW NSG;EQDQ01+000052SCOTCVQ02+000000PRSWM2
0093601010999991995012107004+35733-005900FM-15+0021GMTT V0209991C00001220001CN0112651N1+00901+00801999999ADDAG10999GA1021+004809999GA2021+060009999MA1103121999999REMMET008NEW NSG;EQDQ01+000000PRSWM2
0093601010999991995012107304+35733-005900FM-15+0021GMTT V0209991C00001220001CN0112651N1+00901+00801999999ADDAG10999GA1021+004809999GA2021+060009999MA1103121999999REMMET008NEW NSG;EQDQ01+000000PRSWM2
