0123601010999991980010100004+35717-005900FM-12+0015GMTT V0203001N00571004801CN0100001N9+01501+01401102471ADDAA106000091AY121999GA1081+004809089GF108991081021004501999999MD1810041+9999MW1021REMSYN011700// 88816EQDQ01  00003PRCP99
0068601010999991980010101004+35717-005900FM-15+0015GMTT V0202801N00511004801CN0112001N1+01501+01401999999ADDGA1081+004809089MA1102401999999REMMET006NOSIG?EQDQ01+000000PRSWM2
0053601010999991980010102004+35717-005900FM-15+0015GMTT V0203201N00511004801CN0112001N1+01601+01401999999ADDGA1081+004809089MA1102401999999EQDQ01+000000PRSWM2
0121601010999991980010103004+35717-005900SY-MT+0015GMTT V0203001N00511004801CN0112001N1+01601+01401102421ADDAY121999GA1081+004809089GF108991081021004501999999MA1102401999999MD1610051+9999MW1021REMSYN00588816EQDQ01+000000PRSWM2
0053601010999991980010104004+35717-005900FM-15+0015GMTT V0203001N00361004801CN0112001N1+01601+01501999999ADDGA1081+004809089MA1102301999999EQDQ01+000000PRSWM2
0053601010999991980010105004+35717-005900FM-15+0015GMTT V0203201N00251004801CN0112001N1+01501+01401999999ADDGA1081+004809089MA1102301999999EQDQ01+000000PRSWM2
0167601010999991980010106004+35717-005900SY-MT+0015GMTT V0203401N00721004801CN0112001N1+01501+01401102391ADDAA124999929AY121999GA1081+004809089GF108991081021004501999999KA1999N+01401MA1102301999999MD1510031+9999MW1021REMSYN01179714 88816EQDQ01+000000PRSWM2Q02  99993PRCP99
0053601010999991980010107004+35717-005900FM-15+0015GMTT V0203201N00511004801CN0112001N1+01501+01401999999ADDGA1081+004809089MA1102401999999EQDQ01+000000PRSWM2
0082601010999991980010108004+35717-005900FM-15+0015GMTT V0203201N00511006001CN0112001N1+01501+01401999999ADDGA1031+004809089GA2061+006009059MA1102401999999REMMET004NSG?EQDQ01+000000PRSWM2
0162601010999991980010109004+35717-005900SY-MT+0015GMTT V0203401N00511006901CN0112001N1+01501+99999102481ADDAY121999GA1031+004809089GA2071+006909059GF108991081081004501999999MD1210071+9999MW1011REMSYN01183816 87623MET01213 1024 NSG?EQDQ01+027423ATOD  Q02+000000PRSWM2
0084601010999991980010110004+35717-005900FM-15+0015GMTT V0203201N00251006901CN0112001N1+01501+01401999999ADDGA1031+004809089GA2071+006909059MA1102511999999REMMET006NOSIG?EQDQ01+000000PRSWM2
0084601010999991980010111004+35717-005900FM-15+0015GMTT V0203401N00511006901CN0112001N1+01601+01401999999ADDGA1031+003909089GA2071+006909059MA1102511999999REMMET006NOSIG?EQDQ01+000000PRSWM2
0186601010999991980010112004+35717-005900SY-MT+0015GMTT V0203201N00411006001CN0112001N1+01601+01401102541ADDAA106000091AY121999GA1031+003909089GA2031+006009059GF106991051081004501031001MA1102511999999MD1010061+9999MW1011REMSYN017700// 83813 83620MET004NSG?EQDQ01+000000PRSWM2Q02  00003PRCP99
0082601010999991980010113004+35717-005900FM-15+0015GMTT V0203201N00511006001CN0112001N1+01601+01401999999ADDGA1031+003909089GA2051+006009059MA1102401999999REMMET004NSG?EQDQ01+000000PRSWM2
0084601010999991980010114004+35717-005900FM-15+0015GMTT V0202401N00511006001CN0112001N1+01601+01401999999ADDGA1031+003909089GA2061+006009059MA1102401999999REMMET006NOSIG?EQDQ01+000000PRSWM2
0155601010999991980010115004+35717-005900SY-MT+0015GMTT V0203001N00511006001CN0112001N1+01601+01401102341ADDAY121999GA1041+004809089GA2051+006009059GF106991061081004501001001MA1102301999999MD1810201+9999MW1021REMSYN01184816 85620MET006NOSIG?EQDQ01+000000PRSWM2
0084601010999991980010116004+35717-005900FM-15+0015GMTT V0202601N00411006001CN0112001N1+01601+01401999999ADDGA1041+004809089GA2051+006009059MA1102301999999REMMET006NOSIG?EQDQ01+000000PRSWM2
0084601010999991980010117004+35717-005900FM-15+0015GMTT V0203001N00411006001CN0112001N1+01501+01301999999ADDGA1021+004809089GA2041+006009059MA1102301999999REMMET006NOSIG?EQDQ01+000000PRSWM2
0185601010999991980010118004+35717-005900SY-MT+0015GMTT V0202801N00411006001CN0112001N1+01501+01401102281ADDAA199000091AY121999GA1021+003909089GA2031+006009059GF105991031081004501081001KA1999M+01601MA1102201999999MD1810061+9999MW1011REMSYN01770016 82813 83620MET006NOSIG?EQDQ01+000000PRSWM2
0084601010999991980010119004+35717-005900FM-15+0015GMTT V0202601N00301006001CN0112001N1+01401+01301999999ADDGA1021+003909089GA2031+006009059MA1102201999999REMMET006NOSIG?EQDQ01+000000PRSWM2
0084601010999991980010120004+35717-005900FM-15+0015GMTT V0202801N00411006001CN0112001N1+01401+01301999999ADDGA1021+003909089GA2031+006009059MA1102301999999REMMET006NOSIG?EQDQ01+000000PRSWM2
0177601010999991980010121004+35717-005900SY-MT+0015GMTT V0202801N00411006001CN0112001N1+01401+01301102441ADDAY121999GA1021+003909089GA2031+006009059GA3051+030009039GF107991051081004501081999MA1102401999999MD1210161+9999MW1031REMSYN01782813 83620 85360MET006NOSIG?EQDQ01+000000PRSWM2
0100601010999991980010122004+35717-005900FM-15+0015GMTT V0202801N00461030001CN0112001N1+01401+01301999999ADDGA1011+003909089GA2031+006009059GA3051+030009039MA1102401999999REMMET006NOSIG?EQDQ01+000000PRSWM2
0084601010999991980010123004+35717-005900FM-15+0015GMTT V0202801N00411006001CN0112001N1+01301+01101999999ADDGA1031+000309089GA2051+006009059MA1102401999999REMMET006NOSIG?EQDQ01+000000PRSWM2
0210601010999991980010200004+35717-005900SY-MT+0015GMTT V0202801N00361007801CN0112001N1+01401+01301102501ADDAA106000091AY121999GA1021+003909089GA2031+007809059GA3051+030009039GF107991031081004501081999MA1102511999999MD1210071+9999MW1011REMSYN023700// 82813 83626 85360MET006NOSIG?EQDQ01+000000PRSWM2Q02  00003PRCP99
0100601010999991980010201004+35717-005900FM-15+0015GMTT V0202801N00361007801CN0112001N1+01401+01301999999ADDGA1021+003909089GA2031+007809059GA3051+030009039MA1102511999999REMMET006NOSIG?EQDQ01+000000PRSWM2
0155601010999991980010203004+35717-005900SY-MT+0015GMTT V0203001N00361006901CN0112001N1+01401+01301102481ADDAY121999GA1041+003909089GA2061+006909059GF107991071081004501999999MA1102401999999MD1610021+9999MW1031REMSYN01184813 86623MET006NOSIG?EQDQ01+000000PRSWM2
0068601010999991980010204004+35717-005900FM-15+0015GMTT V0203001N00611006901CN0112001N1+01401+01301999999ADDGA1051+006909059MA1102401999999REMMET006NOSIG?EQDQ01+000000PRSWM2
0201601010999991980010206004+35717-005900SY-MT+0015GMTT V0203401N00461220001CN0112001N1+01401+01301102401ADDAA124000091AY111999GA1011+003909089GA2031+006909059GF104991031081004501081001KA1999N+01201MA1102401999999MD1610071+9999MW1011REMSYN01770012 81813 83623MET006NOSIG?EQDQ01+000000PRSWM2Q02  00003PRCP99
0084601010999991980010207004+35717-005900FM-15+0015GMTT V0203601N00511220001CN0112001N1+01201+01001999999ADDGA1011+003909089GA2031+006909059MA1102401999999REMMET006NOSIG?EQDQ01+000000PRSWM2
0143601010999991980010209004+35717-005900SY-MT+0015GMTT V0203201N00511036001CN0150001N1+01201+01101102221ADDAY111999GA1011+003909089GA2031+006909059GF105991031081004501081021MA1102201999999MD1310101+9999MW1031REMSYN01181813 83620EQDQ01+000000PRSWM2
0082601010999991980010210004+35717-005900FM-15+0015GMTT V0203201N00511006901CN0112001N1+01201+01101999999ADDGA1021+003909089GA2041+006909059MA1102201999999REMMET004NSG?EQDQ01+000000PRSWM2
0069601010999991980010211004+35717-005900FM-15+0015GMTT V0203201N00511006901CN0112001N1+01301+01101999999ADDGA1021+003909089GA2041+006909059MA1102511999999EQDQ01+000000PRSWM2
0188601010999991980010212004+35717-005900SY-MT+0015GMTT V0203201N00561006001CN0112001N1+01501+01201102521ADDAA106000091AY121999GA1021+004509089GA2041+006009059GF106991051081004501031001MA1102511999999MD1010021+9999MW1031REMSYN017700// 82815 84620MET006NOSIG?EQDQ01+000000PRSWM2Q02  00003PRCP99
0068601010999991980010213004+35717-005900FM-15+0015GMTT V0203201N00511220001CN0112001N1+01501+01201999999ADDGA1031+003909089MA1102511999999REMMET006NOSIG?EQDQ01+000000PRSWM2
0068601010999991980010214004+35717-005900FM-15+0015GMTT V0203001N00611220001CN0112001N1+01501+01201999999ADDGA1031+003909089MA1102511999999REMMET006NOSIG?EQDQ01+000000PRSWM2
0057601010999991980010215004+35717-005900FM-12+0015GMTT V0203201N00511036001CN0150001N9+01501+99999102391ADDAY131999GF107991011031022501011031MD1610201+9999MW1021
0084601010999991980010216004+35717-005900FM-15+0015GMTT V0203201N00511006001CN0112001N1+01501+01301999999ADDGA1041+004509089GA2041+006009059MA1102301999999REMMET006NOSIG?EQDQ01+000000PRSWM2
0084601010999991980010217004+35717-005900FM-15+0015GMTT V0203001N00561220001CN9999999N9+01401+01101999999ADDGA1041+006009059MA1102301999999REMMET006NOSIG?EQDQ01+000002VOVAR Q02+000000PRSWM2
0123601010999991980010218004+35717-005900FM-12+0015GMTT V0203001N00571009001CN0150001N9+01301+01101102371ADDAA199000091AY121999GA1041+006009059GF107991071081004501999999KA1999M+01501MD1999999+0011MW1021REMSYN01770015 84815 84620
0084601010999991980010219004+35717-005900FM-15+0015GMTT V0203001N00511006001CN0112001N1+01301+01101999999ADDGA1041+004509089GA2041+006009059MA1102301999999REMMET006NOSIG?EQDQ01+000000PRSWM2
0084601010999991980010220004+35717-005900FM-15+0015GMTT V0203001N00511006001CN0112001N1+01301+01101999999ADDGA1041+004509089GA2041+006009059MA1102301999999REMMET006NOSIG?EQDQ01+000000PRSWM2
0143601010999991980010221004+35717-005900SY-MT+0015GMTT V0203001N00511006001CN0112001N1+01201+01101102361ADDAY121999GA1041+004509089GA2041+006009059GF107991071081004501999999MA1102301999999MD1999999+0141MW1021REMSYN01184820 84620EQDQ01+000000PRSWM2
0069601010999991980010222004+35717-005900FM-15+0015GMTT V0203001N00511006001CN0112001N1+01201+01101999999ADDGA1041+004509089GA2041+006009059MA1102301999999EQDQ01+000000PRSWM2
0084601010999991980010223004+35717-005900FM-15+0015GMTT V0203001N00201006001CN0112001N1+00901+00601999999ADDGA1021+004809089GA2031+006009059MA1102401999999REMMET006NOSIG?EQDQ01+000000PRSWM2
0123601010999991980010300004+35717-005900FM-12+0015GMTT V0201001N00211220001CN0100001N9+00801+00701102501ADDAA106000091AY111999GA1021+006009059GF103991021051008001081001MD1110031+9999MW1011REMSYN011700// 82620EQDQ01  00003PRCP99
0068601010999991980010301004+35717-005900FM-15+0015GMTT V0200601N00251220001CN0112001N1+00801+00701999999ADDGA1021+006009059MA1102511999999REMMET006NOSIG?EQDQ01+000000PRSWM2
0053601010999991980010302004+35717-005900FM-15+0015GMTT V0200801N00251220001CN0112001N1+00801+00701999999ADDGA1021+006009059MA1102511999999EQDQ01+000000PRSWM2
0131601010999991980010303004+35717-005900SY-MT+0015GMTT V0200601N00251220001CN0112001N1+00701+00601102501ADDAY101999GA1021+006009059GF103991021051008001081001MA1102511999999MD1010021+9999MW1021REMSYN00582820MET004NSG?EQDQ01+000000PRSWM2
0066601010999991980010304004+35717-005900FM-15+0015GMTT V0200601N00251220001CN0112001N1+00701+00601999999ADDGA1021+006009059MA1102511999999REMMET004NSG?EQDQ01+000000PRSWM2
0052601010999991980010305004+35717-005900FM-15+0015GMTT V0200601N003019999999N0112001N1+99999+99999999999REMMET0242SN#+0 #7/#6 6026 NOSIG?EQDQ01+000000PRSWM2
0179601010999991980010306004+35717-005900SY-MT+0015GMTT V0201201N00301220001CN0112001N1+00701+00401102341ADDAA124000091AY101999GA1021+006009059GF102991021051008001001001KA1999N+00701MA1102301999999MD1810061+9999MW1021REMSYN01170007 82620MET006NOSIG?EQDQ01+000000PRSWM2Q02  00003PRCP99
0068601010999991980010307004+35717-005900FM-15+0015GMTT V0201201N00251220001CN0112001N1+00701+00401999999ADDGA1021+006009059MA1102301999999REMMET006NOSIG?EQDQ01+000000PRSWM2
0068601010999991980010308004+35717-005900FM-15+0015GMTT V0209999999999220001CN0112001N1+00701+00601999999ADDGA1011+006009059MA1102301999999REMMET006NOSIG?EQDQ01+000000PRSWM2
0134601010999991980010309004+35717-005900SY-MT+0015GMTT V0201201N00301220001CN0112001N1+00901+00901102431ADDAY101999GA1011+006009059GF101991011051008001001001MA1102401999999MD1310091+9999MW1021MW2201WG199370999999REMSYN00581620MET006NOSIG?
0066601010999991980010310004+35717-005900FM-15+0015GMTT V0200801N00361220001CN0112001N1+01001+00901999999ADDGA1011+006009059MA1102401999999REMMET004NSG?EQDQ01+000000PRSWM2
0066601010999991980010311004+35717-005900FM-15+0015GMTT V0201001N00301220001CN0112001N1+01501+01301999999ADDGA1011+006009059MA1102511999999REMMET004NSG?EQDQ01+000000PRSWM2
0164601010999991980010312004+35717-005900SY-MT+0015GMTT V0201001N00511220001CN0112001N1+01601+01201102481ADDAA106000091AY101999GA1011+006009059GF101991011051008001001001MA1102401999999MD1010051+9999MW1021REMSYN011700// 81620MET004NSG?EQDQ01+000000PRSWM2Q02  00003PRCP99
0066601010999991980010313004+35717-005900FM-15+0015GMTT V0201001N00511220001CN0112001N1+01601+01201999999ADDGA1011+006009059MA1102401999999REMMET004NSG?EQDQ01+000000PRSWM2
0101601010999991980010315004+35717-005900FM-12+0015GMTT V0200801N00721220001CN0200001N9+01701+01401102191ADDAY101999GA1021+006009059GF102991021051008001001001MD1810291+9999MW1021WG199060499999REMSYN00582620
0053601010999991980010316004+35717-005900FM-15+0015GMTT V0200601N00721220001CN0112001N1+01701+01401999999ADDGA1021+006009059MA1102101999999EQDQ01+000000PRSWM2
0053601010999991980010317004+35717-005900FM-15+0015GMTT V0200601N00721220001CN0112001N1+01701+01401999999ADDGA1021+006009059MA1102101999999EQDQ01+000000PRSWM2
0140601010999991980010318004+35717-005900SY-MT+0015GMTT V0200601N00611220001CN0099001N1+01401+01101102141ADDAA199000091AY101999GF100991001001999999001001KA1999M+01701MA1102101999999MD1810051+9999MW1011REMSYN00570017MET005CAVOKEQDQ01+000000PRSWM2
0051601010999991980010319004+35717-005900FM-15+0015GMTT V0200401N00611999991CY0099001N1+01301+01101999999ADDMA1102101999999REMMET005CAVOKEQDQ01+000000PRSWM2
0051601010999991980010320004+35717-005900FM-15+0015GMTT V0200401N00611999991CY0099001N1+01301+01101999999ADDMA1102101999999REMMET005CAVOKEQDQ01+000000PRSWM2
0126601010999991980010321004+35717-005900SY-MT+0015GMTT V0200801N00301220001CN0099001N1+00801+00701102241ADDAY101999GF100991001001999999001001MA1102201999999MD1310101+9999MW1021WG199370999999REMMET012CAVOK NOSIG?EQDQ01+000000PRSWM2
0058601010999991980010322004+35717-005900FM-15+0015GMTT V0200801N00301999991CY0099001N1+00801+00701999999ADDMA1102201999999REMMET012CAVOK NOSIG?EQDQ01+000000PRSWM2
0058601010999991980010323004+35717-005900FM-15+0015GMTT V0200601N00251999991CY0099001N1+00801+00701999999ADDMA1102201999999REMMET012CAVOK NOSIG?EQDQ01+000000PRSWM2
0150601010999991980010400004+35717-005900SY-MT+0015GMTT V0201201N00301220001CN0099001N1+00701+00601102271ADDAA106000091AY101999GF100991001001999999001001MA1102201999999MD1310031+9999MW1021REMSYN005700//MET012CAVOK NOSIG?EQDQ01+000000PRSWM2Q02  00003PRCP99
0058601010999991980010401004+35717-005900FM-15+0015GMTT V0200801N00411999991CY0099001N1+00701+00601999999ADDMA1102201999999REMMET012CAVOK NOSIG?EQDQ01+000000PRSWM2
0058601010999991980010402004+35717-005900FM-15+0015GMTT V0200601N00251999991CY0099001N1+00801+00701999999ADDMA1102201999999REMMET012CAVOK NOSIG?EQDQ01+000000PRSWM2
0112601010999991980010403004+35717-005900SY-MT+0015GMTT V0201001N00511220001CN0099001N1+00801+00701102251ADDAY101999GF100991001001999999001001MA1102201999999MD1310011+9999MW1021REMMET012CAVOK NOSIG?EQDQ01+000000PRSWM2
0058601010999991980010404004+35717-005900FM-15+0015GMTT V0201001N00301999991CY0099001N1+00801+00701999999ADDMA1102201999999REMMET012CAVOK NOSIG?EQDQ01+000000PRSWM2
0051601010999991980010405004+35717-005900FM-15+0015GMTT V0201001N00411999991CY0099001N1+00801+00701999999ADDMA1102201999999REMMET005CAVOKEQDQ01+000000PRSWM2
0163601010999991980010406004+35717-005900SY-MT+0015GMTT V0201001N00461220001CN0099001N1+00801+00801102181ADDAA124000091AY101999GF100991001001999999001001KA1999N+00701MA1102101999999MD1810081+9999MW1021REMSYN00570007MET012CAVOK NOSIG?EQDQ01+000000PRSWM2Q02  00003PRCP99
0058601010999991980010407004+35717-005900FM-15+0015GMTT V0201001N00411999991CY0099001N1+00801+00801999999ADDMA1102101999999REMMET012CAVOK NOSIG?EQDQ01+000000PRSWM2
0051601010999991980010408004+35717-005900FM-15+0015GMTT V0200401N00411999991CY0099001N1+00901+00801999999ADDMA1102201999999REMMET005CAVOKEQDQ01+000000PRSWM2
0105601010999991980010409004+35717-005900SY-MT+0015GMTT V0201001N00361220001CN0099001N1+01001+00801102461ADDAY101999GF100991001001999999001001MA1102201999999MD1310031+9999MW1021REMMET005CAVOKEQDQ01+000000PRSWM2
0058601010999991980010410004+35717-005900FM-15+0015GMTT V0201001N00411999991CY0099001N1+01401+01101999999ADDMA1102301999999REMMET012CAVOK NOSIG?EQDQ01+000000PRSWM2
0058601010999991980010411004+35717-005900FM-15+0015GMTT V0201001N00201999991CY0099001N1+01401+01101999999ADDMA1102301999999REMMET012CAVOK NOSIG?EQDQ01+000000PRSWM2
0166601010999991980010412004+35717-005900SY-MT+0015GMTT V0202601N00301220001CN0112001N1+01501+01101102301ADDAA106000091AY101999GA1011+006009059GF101991011051008001001001MA1102301999999MD1610161+9999MW1031REMSYN011700// 81620MET006NOSIG?EQDQ01+000000PRSWM2Q02  00003PRCP99
0068601010999991980010414004+35717-005900FM-15+0015GMTT V0202801N00361220001CN0112001N1+01601+01301999999ADDGA1011+004809059MA1102201999999REMMET006NOSIG?EQDQ01+000000PRSWM2
0133601010999991980010415004+35717-005900SY-MT+0015GMTT V0202801N00361220001CN0112001N1+01601+01301102241ADDAY101999GA1021+004809089GF103991021021004501001021MA1102201999999MD1610101+9999MW1031REMSYN00502816MET006NOSIG?EQDQ01+000000PRSWM2
0082601010999991980010416004+35717-005900FM-15+0015GMTT V0202801N00411220001CN0112001N1+01601+01301999999ADDGA1021+004809089GA2031+060009009MA1102201999999REMMET004NSG?EQDQ01+000000PRSWM2
0123601010999991980010418004+35717-005900FM-12+0015GMTT V0203001N00311220001CN0150001N9+01301+01201102261ADDAA199000091AY101999GA1031+060009009GF104991021051008001001021KA1999M+01601MD1310021+9999MW1011REMSYN01770016 83620 83070
0082601010999991980010419004+35717-005900FM-15+0015GMTT V0203001N00151060001CN0112001N1+01201+01101999999ADDGA1031+006009059GA2051+060009009MA1102201999999REMMET004NSG?EQDQ01+000000PRSWM2
0082601010999991980010420004+35717-005900FM-15+0015GMTT V0203001N00151060001CN0080001N1+01201+01101999999ADDGA1041+004809059GA2051+060009009MA1102301999999REMMET004NSG?EQDQ01+000000PRSWM2
0155601010999991980010421004+35717-005900SY-MT+0015GMTT V0209991C00001004801CN0080001N1+01301+01201102281ADDAY121999GA1051+004809059GA2031+060009009GF107991051051004501001021MA1102201999999MD1110021+9999MW1031REMSYN01185616 83070MET006NOSIG?EQDQ01+000000PRSWM2
0084601010999991980010423004+35717-005900FM-15+0015GMTT V0209991C00001030001CN0080001N1+01101+00901999999ADDGA1041+004809059GA2051+030009039MA1102301999999REMMET006NOSIG?EQDQ01+000000PRSWM2
0188601010999991980010500004+35717-005900SY-MT+0015GMTT V0209991C00001030001CN0080001N1+01001+00901102281ADDAA106000091AY121999GA1041+004809059GA2031+030009039GF107991041051004501031021MA1102201999999MD1810021+9999MW1021REMSYN017700// 84616 83360MET006NOSIG?EQDQ01+000000PRSWM2Q02  00003PRCP99
0084601010999991980010501004+35717-005900FM-15+0015GMTT V0209991C00001060001CN0080001N1+00901+00801999999ADDGA1011+004809059GA2051+060009009MA1102201999999REMMET006NOSIG?EQDQ01+000000PRSWM2
0053601010999991980010502004+35717-005900FM-15+0015GMTT V0201201N00101004801CN0080001N1+00801+00801999999ADDGA1061+004809059MA1102301999999EQDQ01+000000PRSWM2
0121601010999991980010503004+35717-005900SY-MT+0015GMTT V0201201N00201004801CN0080001N1+00801+00701102321ADDAY121999GA1061+004809059GF106991061051004501001021MA1102301999999MD1110041+9999MW1021REMSYN00586616EQDQ01+000000PRSWM2
0053601010999991980010504004+35717-005900FM-15+0015GMTT V0201801N00101004801CN0060001N1+00801+00701999999ADDGA1061+004809059MA1102301999999EQDQ01+000000PRSWM2
0053601010999991980010505004+35717-005900FM-15+0015GMTT V0209991C00001004801CN0080001N1+01201+01101999999ADDGA1061+004809059MA1102301999999EQDQ01+000000PRSWM2
0167601010999991980010506004+35717-005900SY-MT+0015GMTT V0200601N00151004801CN0080001N1+01201+01001102301ADDAA124000091AY121999GA1061+004809059GF106991061051004501001021KA1999N+00801MA1102301999999MD1710021+9999MW1021REMSYN01170008 86616EQDQ01+000000PRSWM2Q02  00003PRCP99
0053601010999991980010507004+35717-005900FM-15+0015GMTT V0200601N00151004801CN0080001N1+01201+01001999999ADDGA1061+004809059MA1102301999999EQDQ01+000000PRSWM2
0068601010999991980010508004+35717-005900FM-15+0015GMTT V0201201N00151006001CN0112001N1+01001+00901999999ADDGA1061+006009059MA1102301999999REMMET006NOSIG?EQDQ01+000000PRSWM2
0169601010999991980010509004+35717-005900SY-MT+0015GMTT V0201201N00151220001CN0112001N1+01001+00901102401ADDAY111999GA1011+004809089GA2031+006009059GF103991031081004501001001MA1102401999999MD1210101+9999MW1011WG199010999999REMSYN01181816 83620MET006NOSIG?EQDQ01+000000PRSWM2
0068601010999991980010510004+35717-005900FM-15+0015GMTT V0201201N00151220001CN0112001N1+01301+01101999999ADDGA1021+004809089MA1102401999999REMMET006NOSIG?EQDQ01+000000PRSWM2
0068601010999991980010511004+35717-005900FM-15+0015GMTT V0209991C00001220001CN0112001N1+01601+01001999999ADDGA1021+004809089MA1102511999999REMMET006NOSIG?EQDQ01+000000PRSWM2
0166601010999991980010512004+35717-005900SY-MT+0015GMTT V0202201N00101220001CN0112001N1+01601+01001102511ADDAA106000091AY111999GA1021+004809089GF103991021081004501031001MA1102511999999MD1110111+9999MW1031REMSYN011700// 82816MET006NOSIG?EQDQ01+000000PRSWM2Q02  00003PRCP99
0068601010999991980010513004+35717-005900FM-15+0015GMTT V0202601N00151220001CN0112001N1+01601+01001999999ADDGA1021+004809089MA1102401999999REMMET006NOSIG?EQDQ01+000000PRSWM2
0068601010999991980010514004+35717-005900FM-15+0015GMTT V0202601N00151220001CN0112001N1+01601+01001999999ADDGA1031+004809089MA1102401999999REMMET006NOSIG?EQDQ01+000000PRSWM2
0117601010999991980010515004+35717-005900SY-MT+0015GMTT V0209991C00001220001CN0112001N1+01601+01101102301ADDAY101999GF102991021021004501001001MA1102301999999MD1710211+9999MW1011REMSYN00582816MET006NOSIG?EQDQ01+000000PRSWM2
0068601010999991980010517004+35717-005900FM-15+0015GMTT V0203001N00301220001CN0112001N1+01501+01001999999ADDGA1021+004809089MA1102301999999REMMET006NOSIG?EQDQ01+000000PRSWM2
0151601010999991980010518004+35717-005900SY-MT+0015GMTT V0209991C00001220001CN0112001N1+01301+01101102301ADDAA199000091AY101999GA1011+004809089GF101991011021004501001001KA1999M+01701MA1102301999999MD1410001+9999MW1011REMSYN01170017 81816EQDQ01+000000PRSWM2
0066601010999991980010519004+35717-005900FM-15+0015GMTT V0209991C00001220001CN0112001N1+01201+01001999999ADDGA1011+004809089MA1102301999999REMMET004NSG?EQDQ01+000000PRSWM2
0056601010999991980010520004+35717-005900FM-15+0015GMTT V0209991C00001999991CY0099001N1+01101+01001999999ADDMA1102301999999REMMET010CAVOK NSG?EQDQ01+000000PRSWM2
0071601010999991980010521004+35717-005900FM-12+0015GMTT V0209991C00001220001CN0100001N9+01101+01001102381ADDAY101999GF100991001001999999001001MD1310081+9999MW1021WG199370999999
0058601010999991980010522004+35717-005900FM-15+0015GMTT V0209991C00001999991CY0099001N1+99999+99999999999ADDMA1102301999999REMMET012CAVOK NOSIG?EQDQ01+000000PRSWM2
0058601010999991980010523004+35717-005900FM-15+0015GMTT V0209991C00001999991CY0099001N1+01001+00801999999ADDMA1102301999999REMMET012CAVOK NOSIG?EQDQ01+000000PRSWM2
0150601010999991980010600004+35717-005900SY-MT+0015GMTT V0201001N00101220001CN0099001N1+00801+00701102341ADDAA106000091AY101999GF100991001001999999001001MA1102301999999MD1810011+9999MW1021REMSYN005700//MET012CAVOK NOSIG?EQDQ01+000000PRSWM2Q02  00003PRCP99
0058601010999991980010602004+35717-005900FM-15+0015GMTT V0209991C00001999991CY0099001N1+00701+00601999999ADDMA1102301999999REMMET012CAVOK NOSIG?EQDQ01+000000PRSWM2
0057601010999991980010603004+35717-005900FM-12+0015GMTT V0209991C00001220001CN0100001N9+00601+00601102301ADDAY101999GF100991001001999999001001MD1610041+9999MW1021
0058601010999991980010604004+35717-005900FM-15+0015GMTT V0209991C00001999991CY0099001N1+00601+00601999999ADDMA1102301999999REMMET012CAVOK NOSIG?EQDQ01+000000PRSWM2
0122601010999991980010606004+35717-005900SY-MT+0015GMTT V0201201N00101220001CN0099001N1+00501+00401102161ADDAY101999GF100991001001999999001001MA1102101999999MD1810141+9999MW1021REMSYN0047005MET012CAVOK NOSIG?EQDQ01+000000PRSWM2
0112601010999991980010609004+35717-005900SY-MT+0015GMTT V0209991C00001220001CN0099001N1+00801+00701102121ADDAY101999GF100991001001999999001001MA1102101999999MD1610031+9999MW1021REMMET012CAVOK NOSIG?EQDQ01+000000PRSWM2
0056601010999991980010610004+35717-005900FM-15+0015GMTT V0209991C00001999991CY0099001N1+00801+00701999999ADDMA1102101999999REMMET010CAVOK NSG?EQDQ01+000000PRSWM2
0101601010999991980010612004+35717-005900FM-12+0015GMTT V0209991C00001220001CN0150001N9+01601+01001102081ADDAA106000091AY101999GF100991001001999999001001MD1810051+9999MW1021REMSYN005700//EQDQ01  00003PRCP99
0056601010999991980010613004+35717-005900FM-15+0015GMTT V0209991C00001999991CY0099001N1+01701+01101999999ADDMA1102001999999REMMET010CAVOK NSG?EQDQ01+000000PRSWM2
0068601010999991980010614004+35717-005900FM-15+0015GMTT V0209991C00001220001CN0112001N1+01701+01101999999ADDGA1011+004509089MA1102101999999REMMET006NOSIG?EQDQ01+000000PRSWM2
0057601010999991980010615004+35717-005900FM-12+0015GMTT V0209991C00001220001CN0150001N9+01701+01201102031ADDAY101999GF100991001001999999001001MD1810051+9999MW1011
0137601010999991980010618004+35717-005900SY-MT+0015GMTT V0200601N00201220001CN0099001N1+01401+01201101941ADDAA199000091AY101999GF100991001001999999001001KA1999M+01701MD1610091+9999MW1021REMSYN00570017MET017CAVOK 0119 NOSIG?EQDQ01+000000PRSWM2
0058601010999991980010619004+35717-005900FM-15+0015GMTT V0209991C00001999991CY0099001N1+01301+01201999999ADDMA1101901999999REMMET012CAVOK NOSIG?EQDQ01+000000PRSWM2
0126601010999991980010621004+35717-005900SY-MT+0015GMTT V0209991C00001220001CN0099001N1+00901+00801102041ADDAY101999GF100991001001999999001001MA1102001999999MD1310101+9999MW1021WG199060499999REMMET012CAVOK NOSIG?EQDQ01+000000PRSWM2
0058601010999991980010622004+35717-005900FM-15+0015GMTT V0209991C00001999991CY0099001N1+00901+00801999999ADDMA1102001999999REMMET012CAVOK NOSIG?EQDQ01+000000PRSWM2
0058601010999991980010623004+35717-005900FM-15+0015GMTT V0209991C00001999991CY0099001N1+00801+00701999999ADDMA1102001999999REMMET012CAVOK NOSIG?EQDQ01+000000PRSWM2
0150601010999991980010700004+35717-005900SY-MT+0015GMTT V0209991C00001220001CN0100001N1+00801+00701102061ADDAA106000091AY101999GF100991001001999999001001MA1102001999999MD1110021+9999MW1021REMSYN005700//MET012CAVOK NOSIG?EQDQ01+000000PRSWM2Q02  00003PRCP99
0058601010999991980010701004+35717-005900FM-15+0015GMTT V0209991C00001999991CY0099001N1+00701+00601999999ADDMA1102001999999REMMET012CAVOK NOSIG?EQDQ01+000000PRSWM2
0058601010999991980010702004+35717-005900FM-15+0015GMTT V0209991C00001999991CY0099001N1+00701+00601999999ADDMA1102001999999REMMET012CAVOK NOSIG?EQDQ01+000000PRSWM2
0112601010999991980010703004+35717-005900SY-MT+0015GMTT V0209991C00001220001CN0099001N1+00701+00601102061ADDAY101999GF100991001001999999001001MA1102001999999MD1110021+9999MW1021REMMET012CAVOK NOSIG?EQDQ01+000000PRSWM2
0058601010999991980010704004+35717-005900FM-15+0015GMTT V0209991C00001999991CY0099001N1+00601+00501999999ADDMA1102001999999REMMET012CAVOK NOSIG?EQDQ01+000000PRSWM2
0058601010999991980010705004+35717-005900FM-15+0015GMTT V0209991C00001999991CY0099001N1+00601+00501999999ADDMA1102001999999REMMET012CAVOK NOSIG?EQDQ01+000000PRSWM2
0150601010999991980010706004+35717-005900SY-MT+0015GMTT V0209991C00001220001CN0099001N1+00601+00501101861ADDAA124000091AY101999GF100991001001999999001001MA1101801999999MD1810061+9999MW1021REMSYN005700//MET012CAVOK NOSIG?EQDQ01+000000PRSWM2Q02  00003PRCP99
0058601010999991980010707004+35717-005900FM-15+0015GMTT V0209991C00001999991CY0099001N1+00601+00501999999ADDMA1101801999999REMMET012CAVOK NOSIG?EQDQ01+000000PRSWM2
0058601010999991980010708004+35717-005900FM-15+0015GMTT V0201201N00201999991CY0099001N1+00601+00601999999ADDMA1101801999999REMMET012CAVOK NOSIG?EQDQ01+000000PRSWM2
0123601010999991980010709004+35717-005900SY-MT+0015GMTT V0209991C00001220001CN0099001N1+00801+00801101911ADDAY101999GF103991001001999999001021MA1101901999999MD1310051+9999MW1031REMSYN00583073MET012CAVOK NOSIG?EQDQ01+000000PRSWM2
0058601010999991980010710004+35717-005900FM-15+0015GMTT V0209991C00001999991CY0099001N1+01101+00901999999ADDMA1101901999999REMMET012CAVOK NOSIG?EQDQ01+000000PRSWM2
0058601010999991980010711004+35717-005900FM-15+0015GMTT V0209991C00001999991CY0099001N1+01401+01001999999ADDMA1101901999999REMMET012CAVOK NOSIG?EQDQ01+000000PRSWM2
0056601010999991980010712004+35717-005900FM-15+0015GMTT V0209991C00001999991CY0099001N1+01601+01101999999ADDMA1102001999999REMMET010CAVOK NSG?EQDQ01+000000PRSWM2
0056601010999991980010713004+35717-005900FM-15+0015GMTT V0209991C00001999991CY0099001N1+01601+01101999999ADDMA1101901999999REMMET010CAVOK NSG?EQDQ01+000000PRSWM2
0058601010999991980010714004+35717-005900FM-15+0015GMTT V0209991C00001999991CY0099001N1+01501+01301999999ADDMA1101801999999REMMET012CAVOK NOSIG?EQDQ01+000000PRSWM2
0139601010999991980010715004+35717-005900SY-MT+0015GMTT V0203201N00101069001CN0099001N1+01601+01301101741ADDAY111999GA1071+069009009GF107991001001999999001021MA1101691999999MD1610281+9999MW1031REMSYN00587073MET012CAVOK NOSIG?EQDQ01+000000PRSWM2
0058601010999991980010716004+35717-005900FM-15+0015GMTT V0203201N00411999991CY0099001N1+01601+01301999999ADDMA1101691999999REMMET012CAVOK NOSIG?EQDQ01+000000PRSWM2
0058601010999991980010717004+35717-005900FM-15+0015GMTT V0203401N00301999991CY0099001N1+01401+01101999999ADDMA1101691999999REMMET012CAVOK NOSIG?EQDQ01+000000PRSWM2
0173601010999991980010718004+35717-005900SY-MT+0015GMTT V0203401N00301069001CN0112001N1+01301+01001101781ADDAA199000091AY121999GA1011+004809059GA2051+069009009GF106991011051008001031021KA1999M+01601MA1101691999999MD1310041+9999MW1031REMSYN01770016 81616 85073EQDQ01+000000PRSWM2
0069601010999991980010719004+35717-005900FM-15+0015GMTT V0203401N00101069001CN0112001N1+01001+00801999999ADDGA1011+004809059GA2051+069009009MA1101801999999EQDQ01+000000PRSWM2
0069601010999991980010720004+35717-005900FM-15+0015GMTT V0203401N00201069001CN0112001N1+00901+00701999999ADDGA1011+004809059GA2051+069009009MA1101801999999EQDQ01+000000PRSWM2
0139601010999991980010721004+35717-005900SY-MT+0015GMTT V0209991C00001220001CN0099001N1+00701+00701101851ADDAY111999GA1031+069009009GF103991001001999999001021MA1101801999999MD1310021+9999MW1011REMSYN00583073MET012CAVOK NOSIG?EQDQ01+000000PRSWM2
0058601010999991980010722124+35717-005900FM-15+0015GMTT V0200801N00201999991CY0099001N1+00801+00701999999ADDMA1101801999999REMMET012CAVOK NOSIG?EQDQ01+000000PRSWM2
0058601010999991980010723004+35717-005900FM-15+0015GMTT V0209991C00001999991CY0099001N1+00701+00701999999ADDMA1101801999999REMMET012CAVOK NOSIG?EQDQ01+000000PRSWM2
0150601010999991980010800004+35717-005900SY-MT+0015GMTT V0209991C00001220001CN0099001N1+00601+00601101881ADDAA106000091AY111999GF100991001001999999001001MA1101801999999MD1310031+9999MW1011REMSYN005700//MET012CAVOK NOSIG?EQDQ01+000000PRSWM2Q02  00003PRCP99
0112601010999991980010803004+35717-005900SY-MT+0015GMTT V0200801N00301220001CN0099001N1+00701+00701101881ADDAY101999GF100991001001999999001001MA1101801999999MD1510001+9999MW1021REMMET012CAVOK NOSIG?EQDQ01+000000PRSWM2
0058601010999991980010804004+35717-005900FM-15+0015GMTT V0200801N00301999991CY0099001N1+00701+00601999999ADDMA1101801999999REMMET012CAVOK NOSIG?EQDQ01+000000PRSWM2
0058601010999991980010805004+35717-005900FM-15+0015GMTT V0200801N00251999991CY0099001N1+00601+00501999999ADDMA1101801999999REMMET012CAVOK NOSIG?EQDQ01+000000PRSWM2
0169601010999991980010806004+35717-005900SY-MT+0015GMTT V0200801N00201220001CN0099001N1+00501+00401101861ADDAA124000091AY101999GF100991001001999999001001KA1999N+00501MA1101801999999MD1710021+9999MW1021REMSYN01170005 01018MET012CAVOK NOSIG?EQDQ01+000000PRSWM2Q02  00003PRCP99
0058601010999991980010807004+35717-005900FM-15+0015GMTT V0200801N00201999991CY0099001N1+00501+00401999999ADDMA1101801999999REMMET012CAVOK NOSIG?EQDQ01+000000PRSWM2
0051601010999991980010808004+35717-005900FM-15+0015GMTT V0200401N00411999991CY0099001N1+00601+00501999999ADDMA1101901999999REMMET005CAVOKEQDQ01+000000PRSWM2
0112601010999991980010809004+35717-005900SY-MT+0015GMTT V0201001N00251220001CN0099001N1+00701+00601999999ADDAY101999GF100991001001999999001001MD1710021+9999MW1021REMSYN0117877  )1018MET010CAVOK 101?EQDQ01+000000PRSWM2
0188601010999991980010812004+35717-005900SY-MT+0015GMTT V0201001N00301220001CN0112001N1+01601+01201102081ADDAA106000091AY101999GA1011+004809059GA2031+069009009GF103991011051008001001021MA1102001999999MD1110121+9999MW1021REMSYN017700// 81616 83073MET006NOSIG?EQDQ01+000000PRSWM2Q02  00003PRCP99
0084601010999991980010813004+35717-005900FM-15+0015GMTT V0200801N00511220001CN0112001N1+01601+01201999999ADDGA1011+004809059GA2031+069009009MA1102001999999REMMET006NOSIG?EQDQ01+000000PRSWM2
0056601010999991980010815004+35717-005900FM-15+0015GMTT V0203601N00511999991CY0099001N1+01701+01101999999ADDMA1101901999999REMMET010CAVOK NSG?EQDQ01+000000PRSWM2
0056601010999991980010816004+35717-005900FM-15+0015GMTT V0203601N00511999991CY0099001N1+01501+00501999999ADDMA1101801999999REMMET010CAVOK NSG?EQDQ01+000000PRSWM2
0056601010999991980010817004+35717-005900FM-15+0015GMTT V0203601N00411999991CY0099001N1+01601+01101999999ADDMA1101801999999REMMET010CAVOK NSG?EQDQ01+000000PRSWM2
0169601010999991980010818004+35717-005900SY-MT+0015GMTT V0203601N00251220001CN0099001N1+01501+01101101911ADDAA199000091AY101999GA1011+069009009GF101991001001999999001021KA1999M+01701MA1101901999999MD1310011+9999MW1011REMSYN01170017 81073MET012CAVOK NOSIG?EQDQ01+000000PRSWM2
0058601010999991980010819004+35717-005900FM-15+0015GMTT V0200201N00251999991CY0099001N1+01401+00901999999ADDMA1101901999999REMMET012CAVOK NOSIG?EQDQ01+000000PRSWM2
0051601010999991980010820004+35717-005900FM-15+0015GMTT V0200201N00251999991CY0099001N1+01301+00901999999ADDMA1101901999999REMMET005CAVOKEQDQ01+000000PRSWM2
0139601010999991980010821004+35717-005900SY-MT+0015GMTT V0200801N00301220001CN0099001N1+00701+00701101991ADDAY101999GA1021+069009009GF102991001001999999001021MA1101901999999MD1210081+9999MW1021REMSYN00582073MET012CAVOK NOSIG?EQDQ01+000000PRSWM2
0058601010999991980010822004+35717-005900FM-15+0015GMTT V0200801N00301999991CY0099001N1+00801+00701999999ADDMA1102001999999REMMET012CAVOK NOSIG?EQDQ01+000000PRSWM2
0058601010999991980010823004+35717-005900FM-15+0015GMTT V0200601N00301999991CY0099001N1+00801+00701999999ADDMA1102001999999REMMET012CAVOK NOSIG?EQDQ01+000000PRSWM2
0070601010999991980010900004+35717-005900FM-12+0015GMTT V0201001N00311220001CN0150001N9+00701+00601102081ADDAY101999GF100991001001999999001001MD1110091+9999MW1011REMSYN00400//
0058601010999991980010901004+35717-005900FM-15+0015GMTT V0201001N00301999991CY0099001N1+00001+99999999999ADDMA1102001999999REMMET012CAVOK NOSIG?EQDQ01+000000PRSWM2
0058601010999991980010902004+35717-005900FM-15+0015GMTT V0200801N00301999991CY0099001N1+00701+00601999999ADDMA1102001999999REMMET012CAVOK NOSIG?EQDQ01+000000PRSWM2
0057601010999991980010903004+35717-005900FM-12+0015GMTT V0200801N00311220001CN0150001N9+00701+00601102071ADDAY101999GF100991001001999999001001MD1810071+9999MW1021
0058601010999991980010904004+35717-005900FM-15+0015GMTT V0200801N00201999991CY0099001N1+00701+00601999999ADDMA1102101999999REMMET012CAVOK NOSIG?EQDQ01+000000PRSWM2
0051601010999991980010905004+35717-005900FM-15+0015GMTT V0209999999999999991CY0099001N1+99999+99999999999REMMET023CAVOK 0//05 1021 NOSIG?EQDQ01+000000PRSWM2
0156601010999991980010906004+35717-005900SY-MT+0015GMTT V0200801N00301220001CN0099001N1+00701+00601102111ADDAA124000091AY101999GF100991001001999999001001KA1999N+00601MA1102101999999MD1110031+9999MW1021REMSYN00570006MET005CAVOKEQDQ01+000000PRSWM2Q02  00003PRCP99
0056601010999991980010908004+35717-005900FM-15+0015GMTT V0201001N00301999991CY0099001N1+00601+00501999999ADDMA1102101999999REMMET010CAVOK NSG?EQDQ01+000000PRSWM2
0153601010999991980010909004+35717-005900SY-MT+0015GMTT V0201001N00201006001CN0112001N1+00801+00601102201ADDAY111999GA1021+004809089GA2041+006009059GF106991051081004501031001MA1102201999999MD1310091+9999MW1031REMSYN01182816 84620MET004NSG?EQDQ01+000000PRSWM2
0084601010999991980010910004+35717-005900FM-15+0015GMTT V0201001N00151006001CN0112001N1+01101+00901999999ADDGA1021+004809089GA2041+006009059MA1102201999999REMMET006NOSIG?EQDQ01+000000PRSWM2
0084601010999991980010911004+35717-005900FM-15+0015GMTT V0200801N00151006001CN0112001N1+01401+01001999999ADDGA1021+004809089GA2041+006009059MA1102301999999REMMET006NOSIG?EQDQ01+000000PRSWM2
0187601010999991980010912004+35717-005900SY-MT+0015GMTT V0202401N00301006001CN0112001N1+01501+01201102281ADDAA106000091AY111999GA1031+004809089GA2041+006009059GF107991061081004501031999MA1102201999999MD1010091+9999MW1031REMSYN016700// 83816 8460MET006NOSIG?EQDQ01+000000PRSWM2Q02  00003PRCP99
0084601010999991980010913004+35717-005900FM-15+0015GMTT V0202401N00301006001CN0112001N1+01501+01201999999ADDGA1031+004809089GA2041+006009059MA1102201999999REMMET006NOSIG?EQDQ01+000000PRSWM2
0084601010999991980010914004+35717-005900FM-15+0015GMTT V0202601N00251006001CN0112001N1+01501+01201999999ADDGA1031+004809089GA2041+006009059MA1102101999999REMMET006NOSIG?EQDQ01+000000PRSWM2
0133601010999991980010915004+35717-005900SY-MT+0015GMTT V0203001N00411220001CN0112001N1+01601+01201102141ADDAY111999GA1021+004809089GF102991021021004501001021MA1102101999999MD1710141+9999MW1011REMSYN00582816MET006NOSIG?EQDQ01+000000PRSWM2
0068601010999991980010916004+35717-005900FM-15+0015GMTT V0203001N00411220001CN0112001N1+01601+01201999999ADDGA1021+004809089MA1102101999999REMMET006NOSIG?EQDQ01+000000PRSWM2
0068601010999991980010917004+35717-005900FM-15+0015GMTT V0203001N00511220001CN0112001N1+01501+01201999999ADDGA1021+004809089MA1102101999999REMMET006NOSIG?EQDQ01+000000PRSWM2
0179601010999991980010918004+35717-005900SY-MT+0015GMTT V0203201N00411220001CN0200001N1+01201+00901102241ADDAA199000091AY111999GA1021+004809059GA2031+069009009GF104991021051004501011021KA1999M+01601MA1102201999999MD1210101+9999MW1011REMSYN01170016 82616MET006NOSIG?EQDQ01+000000PRSWM2
0068601010999991980010920004+35717-005900FM-15+0015GMTT V0203201N00411220001CN0112001N1+01001+00901999999ADDGA1021+004809059MA1102511999999REMMET006NOSIG?EQDQ01+000000PRSWM2
0131601010999991980010921004+35717-005900SY-MT+0015GMTT V0201001N00151220001CN0112001N1+00801+00401102361ADDAY101999GA1021+004809059GF103991021051004501001021MA1102301999999MD1210111+9999MW1021REMSYN00582616MET004NSG?EQDQ01+000000PRSWM2
0066601010999991980010922004+35717-005900FM-15+0015GMTT V0209991C00001220001CN0112001N1+00701+00501999999ADDGA1021+004809059MA1102401999999REMMET004NSG?EQDQ01+000000PRSWM2
0066601010999991980010923004+35717-005900FM-15+0015GMTT V0201001N00301220001CN0112001N1+00701+00601999999ADDGA1021+004809059MA1102401999999REMMET004NSG?EQDQ01+000000PRSWM2
0137601010999991980011000004+35717-005900SY-MT+0015GMTT V0201001N00151220001CN0112001N1+00701+00501102411ADDAY101999GA1021+004809059GF103991021051004501001021MA1102401999999MD1110051+9999MW1021REMSYN011700///82616MET004NSG?EQDQ01+000000PRSWM2
0066601010999991980011001004+35717-005900FM-15+0015GMTT V0201001N00151220001CN0112001N1+00701+00501999999ADDGA1021+004809059MA1102301999999REMMET004NSG?EQDQ01+000000PRSWM2
0053601010999991980011002004+35717-005900FM-15+0015GMTT V0201001N00151220001CN0112001N1+00701+00501999999ADDGA1021+004809059MA1102301999999EQDQ01+000000PRSWM2
0131601010999991980011003004+35717-005900SY-MT+0015GMTT V0200801N00151220001CN0150001N1+00801+00601102361ADDAY101999GA1031+004809059GF103991031051004501001021MA1102301999999MD1710051+9999MW1031REMSYN00583616MET004NSG?EQDQ01+000000PRSWM2
0066601010999991980011004004+35717-005900FM-15+0015GMTT V0201001N00151220001CN0112001N1+00801+00801999999ADDGA1031+004809059MA1102301999999REMMET004NSG?EQDQ01+000000PRSWM2
0069601010999991980011005004+35717-005900FM-15+0015GMTT V0209991C00001004801CN0080001N1+01001+00901999999ADDGA1061+004809059GA2051+030009039MA1102301999999MW1601REMMET004NSG?
0189601010999991980011006004+35717-005900SY-MT+0015GMTT V0209991C00001004801CN0060001N1+01101+01001102331ADDAA124000591AA299000491AY161999GA1031+002409079GA2061+004809059GF108991081081002501999999KA1999N+00701MA1102301999999MD1710031+9999MW1611WG199370999999REMSYN01779407 83708 86616MET004NSG?
0082601010999991980011007004+35717-005900FM-15+0015GMTT V0202201N00301004801CN0060001N1+01101+01001999999ADDGA1031+002409079GA2061+004809059MA1102301999999REMMET004NSG?EQDQ01+000000PRSWM2
0084601010999991980011008004+35717-005900FM-15+0015GMTT V0202001N00411004801CN0060001N1+01101+01001999999ADDGA1031+002409079GA2061+004809089MA1102301999999REMMET006NOSIG?EQDQ01+000000PRSWM2
0171601010999991980011009004+35717-005900SY-MT+0015GMTT V0209991C00001003301CN0080001N1+01101+01001102441ADDAY161999GA1021+002409079GA2041+003309089GA3061+004809059GF107991071081002501999999MA1102401999999MD1310121+9999MW1211REMSYN01182708 86616MET006NOSIG?EQDQ01+000000PRSWM2
0069601010999991980011010004+35717-005900FM-15+0015GMTT V0203001N00411004801CN0112001N1+01101+01001999999ADDGA1031+003309089GA2051+004809059MA1102401999999EQDQ01+000000PRSWM2
0084601010999991980011011004+35717-005900FM-15+0015GMTT V0203001N00411004801CN0112001N1+01101+01001999999ADDGA1031+003309089GA2051+004809059MA1102401999999REMMET006NOSIG?EQDQ01+000000PRSWM2
0166601010999991980011012004+35717-005900SY-MT+0015GMTT V0203001N00411004801CN0112001N1+01301+01001102501ADDAA106001091AY161999GA1051+004809089GF105991051021004501001001MA1102511999999MD1110061+9999MW1011REMSYN011701// 85816MET006NOSIG?EQDQ01+000000PRSWM2Q02  00103PRCP99
0068601010999991980011013004+35717-005900FM-15+0015GMTT V0203201N00511004801CN0112001N1+01301+01001999999ADDGA1051+004809089MA1102401999999REMMET006NOSIG?EQDQ01+000000PRSWM2
0068601010999991980011014004+35717-005900FM-15+0015GMTT V0203001N00611004801CN0112001N1+01401+01001999999ADDGA1051+004809089MA1102401999999REMMET006NOSIG?EQDQ01+000000PRSWM2
0087601010999991980011015004+35717-005900FM-12+0015GMTT V0203201N00461004801CN0150001N9+01401+00901102421ADDAY121999GA1051+004809089GF105991051021004501001001MD1710081+9999MW1021REMSYN00585816
0068601010999991980011016004+35717-005900FM-15+0015GMTT V0203201N00511004801CN0112001N1+01401+00901999999ADDGA1051+004809089MA1102401999999REMMET006NOSIG?EQDQ01+000000PRSWM2
0068601010999991980011017004+35717-005900FM-15+0015GMTT V0203201N00511004801CN0112001N1+01301+00901999999ADDGA1051+004809089MA1102401999999REMMET006NOSIG?EQDQ01+000000PRSWM2
0183601010999991980011018004+35717-005900SY-MT+0015GMTT V0203201N00201069001CN0112001N1+01101+00701102471ADDAA199000391AY121999GA1011+004809089GA2051+069009009GF105991011021004501001021KA1999M+01401MA1102401999999MD1310051+9999MW1011REMSYN01779314 81816 85073MET004NSG?EQDQ01+000000PRSWM2
0084601010999991980011019004+35717-005900FM-15+0015GMTT V0200601N00301069001CN0112001N1+01101+00701999999ADDGA1011+004809089GA2051+069009009MA1102401999999REMMET006NOSIG?EQDQ01+000000PRSWM2
0084601010999991980011020004+35717-005900FM-15+0015GMTT V0209991C00001220001CN0112001N1+01001+00701999999ADDGA1011+004809089GA2041+069009009MA1102511999999REMMET006NOSIG?EQDQ01+000000PRSWM2
0112601010999991980011021004+35717-005900SY-MT+0015GMTT V0200801N00151220001CN0099001N1+00601+00601102621ADDAY111999GF100991001001999999001001MA1102611999999MD1110151+9999MW1011REMMET012CAVOK NOSIG?EQDQ01+000000PRSWM2
0058601010999991980011022004+35717-005900FM-15+0015GMTT V0200401N00201999991CY0099001N1+00501+00301999999ADDMA1102611999999REMMET012CAVOK NOSIG?EQDQ01+000000PRSWM2
0058601010999991980011023004+35717-005900FM-15+0015GMTT V0201001N00251999991CY0099001N1+00501+00401999999ADDMA1102611999999REMMET012CAVOK NOSIG?EQDQ01+000000PRSWM2
0164601010999991980011100004+35717-005900SY-MT+0015GMTT V0200201N00411220001CN0099001N1+00501+00301102631ADDAA106000091AY101999GF100991001001999999001001MA1102611999999MD1410001+9999MW1021WG199370999999REMSYN005700//MET012CAVOK NOSIG?EQDQ01+000000PRSWM2Q02  00003PRCP99
0058601010999991980011101004+35717-005900FM-15+0015GMTT V0200801N00251999991CY0099001N1+00501+00401999999ADDMA1102611999999REMMET012CAVOK NOSIG?EQDQ01+000000PRSWM2
0058601010999991980011102004+35717-005900FM-15+0015GMTT V0201001N00151999991CY0099001N1+00401+00301999999ADDMA1102611999999REMMET012CAVOK NOSIG?EQDQ01+000000PRSWM2
0058601010999991980011103004+35717-005900FM-15+0015GMTT V0200801N00301999991CY0099001N1+00401+00301999999ADDMA1102511999999REMMET012CAVOK NOSIG?EQDQ01+000000PRSWM2
0058601010999991980011104004+35717-005900FM-15+0015GMTT V0200801N00301999991CY0099001N1+00401+00301999999ADDMA1102511999999REMMET012CAVOK NOSIG?EQDQ01+000000PRSWM2
0163601010999991980011106004+35717-005900SY-MT+0015GMTT V0201001N00201220001CN0099001N1+00301+00201102551ADDAA124003091AY101999GF100991001001999999001001KA1999N+00301MA1102511999999MD1510031+9999MW1021REMSYN00570303MET012CAVOK NOSIG?EQDQ01+000000PRSWM2Q02  00303PRCP99
0061601010999991980011107004+35717-005900FM-15+0015GMTT V0201001N00201999991CY0099001N1+00201+00201999999ADDMA1102511999999REMMET015CAVOK NOZISIFG?EQDQ01+000000PRSWM2
0051601010999991980011108004+35717-005900FM-15+0015GMTT V0200801N00411999991CY0099001N1+00401+00201999999ADDMA1102511999999REMMET005CAVOKEQDQ01+000000PRSWM2
0124601010999991980011109004+35717-005900SY-MT+0015GMTT V0201001N00201220001CN0099001N1+00501+00401102631ADDAY101999GF100991001001999999001001MA1102611999999MD1310081+9999MW1021WG199090999999REMMET010CAVOK NSG?EQDQ01+000000PRSWM2
0058601010999991980011110004+35717-005900FM-15+0015GMTT V0201001N00201999991CY0099001N1+00801+00701999999ADDMA1102611999999REMMET012CAVOK NOSIG?EQDQ01+000000PRSWM2
0058601010999991980011111004+35717-005900FM-15+0015GMTT V0202401N00151999991CY0099001N1+01201+00801999999ADDMA1102611999999REMMET012CAVOK NOSIG?EQDQ01+000000PRSWM2
0150601010999991980011112004+35717-005900SY-MT+0015GMTT V0202201N00151220001CN0099001N1+01401+00801102671ADDAA106000091AY101999GF100991001001999999001001MA1102611999999MD1110041+9999MW1021REMSYN005700//MET012CAVOK NOSIG?EQDQ01+000000PRSWM2Q02  00003PRCP99
0058601010999991980011113004+35717-005900FM-15+0015GMTT V0202401N00201999991CY0099001N1+01401+00801999999ADDMA1102611999999REMMET012CAVOK NOSIG?EQDQ01+000000PRSWM2
0058601010999991980011114004+35717-005900FM-15+0015GMTT V0202601N00301999991CY0099001N1+01401+00801999999ADDMA1102611999999REMMET012CAVOK NOSIG?EQDQ01+000000PRSWM2
0071601010999991980011115004+35717-005900FM-12+0015GMTT V0203401N00261220001CN0150001N9+01501+00801102361ADDAY101999GF100991001001999999001001MD1710311+9999MW1021WG199370999999
0058601010999991980011117004+35717-005900FM-15+0015GMTT V0203401N00251999991CY0099001N1+01501+00801999999ADDMA1102301999999REMMET012CAVOK NOSIG?EQDQ01+000000PRSWM2
0161601010999991980011118004+35717-005900SY-MT+0015GMTT V0203601N00511220001CN0099001N1+01301+00801102271ADDAA199000091AY101999GF100991001001999999001001KA1999M+01501MA1102201999999MD1610091+9999MW1021WG199370999999REMSYN00570015MET012CAVOK NOSIG?EQDQ01+000000PRSWM2
0058601010999991980011119004+35717-005900FM-15+0015GMTT V0203401N00721999991CY0099001N1+01201+00901999999ADDMA1102201999999REMMET012CAVOK NOSIG?EQDQ01+000000PRSWM2
0058601010999991980011120004+35717-005900FM-15+0015GMTT V0203401N00611999991CY0099001N1+01101+00901999999ADDMA1102201999999REMMET012CAVOK NOISG?EQDQ01+000000PRSWM2
0112601010999991980011121004+35717-005900SY-MT+0015GMTT V0200201N00511220001CN0099001N1+00901+00501102231ADDAY101999GF100991001001999999001001MA1102201999999MD1810041+9999MW1021REMMET012CAVOK NOSIG?EQDQ01+000000PRSWM2
0058601010999991980011122004+35717-005900FM-15+0015GMTT V0200201N00511999991CY0099001N1+00901+00501999999ADDMA1102201999999REMMET012CAVOK NOSIG?EQDQ01+000000PRSWM2
0058601010999991980011123004+35717-005900FM-15+0015GMTT V0200201N00411999991CY0099001N1+00801+00501999999ADDMA1102201999999REMMET012CAVOK NOSIG?EQDQ01+000000PRSWM2
0150601010999991980011200004+35717-005900SY-MT+0015GMTT V0201001N00101220001CN0099001N1+00501+00401102111ADDAA106000091AY101999GF100991001001999999001001MA1102101999999MD1810121+9999MW1021REMSYN005700//MET012CAVOK NOSIG?EQDQ01+000000PRSWM2Q02  00003PRCP99
0058601010999991980011201004+35717-005900FM-15+0015GMTT V0201001N00201999991CY0099001N1+00501+00401999999ADDMA1102001999999REMMET012CAVOK NOSIG?EQDQ01+000000PRSWM2
0058601010999991980011202004+35717-005900FM-15+0015GMTT V0201001N00201999991CY0099001N1+00401+00301999999ADDMA1101901999999REMMET012CAVOK NOSIG?EQDQ01+000000PRSWM2
0105601010999991980011203004+35717-005900SY-MT+0015GMTT V0201001N00301220001CN0099001N1+00401+00301101941ADDAY101999GF100991001001999999001001MA1101901999999MD1610171+9999MW1021REMMET005CAVOKEQDQ01+000000PRSWM2
0058601010999991980011204004+35717-005900FM-15+0015GMTT V0201001N00301999991CY0099001N1+00401+00301999999ADDMA1101901999999REMMET012CAVOK NOSIG?EQDQ01+000000PRSWM2
0058601010999991980011205004+35717-005900FM-15+0015GMTT V0200801N00411999991CY0099001N1+00501+00401999999ADDMA1101801999999REMMET012CAVOK NOSIG?EQDQ01+000000PRSWM2
0179601010999991980011206004+35717-005900SY-MT+0015GMTT V0201001N00201220001CN0112001N1+00601+00401101611ADDAA124000091AY101999GA1021+006009059GF102991021051008001001001KA1999N+00401MA1101591999999MD1810041+9999MW1031REMSYN01170004 82620MET006NOSIG?EQDQ01+000000PRSWM2Q02  00003PRCP99
0068601010999991980011207004+35717-005900FM-15+0015GMTT V0200601N00511220001CN0112001N1+00601+00501999999ADDGA1021+006009059MA1101491999999REMMET006NOSIG?EQDQ01+000000PRSWM2
0084601010999991980011208004+35717-005900FM-15+0015GMTT V0201001N00201220001CN0112001N1+00501+00301999999ADDGA1021+006009059GA2031+027009039MA1101591999999REMMET006NOSIG?EQDQ01+000000PRSWM2
0177601010999991980011209004+35717-005900SY-MT+0015GMTT V0209991C00001027001CN0112001N1+00501+00401101671ADDAY111999GA1021+006009059GA2011+006909099GA3031+027009039GF105991031031008001081001MA1101591999999MD1310061+9999MW1031REMSYN01782620 81923 83359MET006NOSIG?EQDQ01+000000PRSWM2
0100601010999991980011210004+35717-005900FM-15+0015GMTT V0201001N00101027001CN0112001N1+01101+00701999999ADDGA1021+006009059GA2011+006909099GA3041+027009039MA1101591999999REMMET006NOSIG?EQDQ01+000000PRSWM2
0100601010999991980011211004+35717-005900FM-15+0015GMTT V0209991C00001027001CN0112001N1+01201+00701999999ADDGA1021+006009059GA2011+006909099GA3041+027009039MA1101591999999REMMET006NOSIG?EQDQ01+000000PRSWM2
0188601010999991980011212004+35717-005900SY-MT+0015GMTT V0202001N00201006001CN0112001N1+01301+00701101591ADDAA106000091AY111999GA1021+004809089GA2031+006009059GF107991041081004501081001MA1101491999999MD1710071+9999MW1011REMSYN017700// 82816 83620MET006NOSIG?EQDQ01+000000PRSWM2Q02  00003PRCP99
0084601010999991980011213004+35717-005900FM-15+0015GMTT V0202201N00301006001CN0112001N1+01301+00701999999ADDGA1021+004809089GA2031+006009059MA1101491999999REMMET006NOSIG?EQDQ01+000000PRSWM2
0069601010999991980011214004+35717-005900FM-15+0015GMTT V0203001N00251006001CN0112001N1+01201+00901999999ADDGA1041+004809089GA2031+006009059MA1101391999999MW1251REMMET004NSG?
0153601010999991980011215004+35717-005900SY-MT+0015GMTT V0203601N00251006001CN0112001N1+01201+00701101381ADDAY181999GA1041+004509089GA2031+006009059GF107991051081004501031021MA1101291999999MD1810211+9999MW1031REMSYN01184815 83620MET004NSG?EQDQ01+000000PRSWM2
0085601010999991980011216004+35717-005900FM-15+0015GMTT V0200401N00301006001CN0112001N1+01201+00701999999ADDGA1031+004509089GA2031+006009059GA3021+006909099MA1101291999999MW1171REMMET004NSG?
0085601010999991980011217004+35717-005900FM-15+0015GMTT V0200601N00561006001CN0112001N1+01101+00901999999ADDGA1031+004509089GA2031+006009059GA3021+006909099MA1101391999999MW1171REMMET004NSG?
0188601010999991980011218004+35717-005900SY-MT+0015GMTT V0200601N00611006001CN0112001N1+01101+00901101431ADDAA199999929AY191999GA1031+004509089GA2031+006009059GA3021+006909099GF108991061091004501031021KA1999M+01501MA1101391999999MD1310051+9999MW1171REMSYN02379715 83815 83620 82923MET006NOSIG?
0087601010999991980011219004+35717-005900FM-15+0015GMTT V0200401N00661006001CN0112001N1+01001+00801999999ADDGA1031+004509089GA2031+006009059GA3021+006909099MA1101391999999MW1291REMMET006NOSIG?
0100601010999991980011220004+35717-005900FM-15+0015GMTT V0200601N00771006001CN0112001N1+01001+00801999999ADDGA1021+004509089GA2031+006009059GA3011+006909099MA1101391999999REMMET006NOSIG?EQDQ01+000000PRSWM2
0167601010999991980011221004+35717-005900SY-MT+0015GMTT V0200801N00461220001CN0112001N1+00901+00801101461ADDAY191999GA1021+004509089GA2031+006009059GF104991041081004501001001MA1101391999999MD1310031+9999MW1011WG199030099999REMSYN01182815 83620MET004NSG?EQDQ01+000000PRSWM2
0145601010999991980011300004+35717-005900FM-12+0015GMTT V0200601N00411220001CN0100001N9+00801+00701101401ADDAA106000091AY191999GA1021+004509089GA2031+006009059GF104991041081004501001001MD1810061+9999MW1021REMSYN017700// 82815 83620EQDQ01  00003PRCP99
0082601010999991980011301004+35717-005900FM-15+0015GMTT V0200601N00411006001CN0112001N1+00801+00701999999ADDGA1021+004509089GA2031+006009059MA1101391999999REMMET004NSG?EQDQ01+000000PRSWM2
0177601010999991980011303004+35717-005900SY-MT+0015GMTT V0200601N00511004801CN0112001N1+00901+00801101341ADDAY161999GA1051+004809059GA2011+006909099GA3061+027009039GF107991051091004501071999MA1101291999999MD1710061+9999MW1011REMSYN0178581681932  84359MET006NOSIG?EQDQ01+000000PRSWM2
0100601010999991980011304004+35717-005900FM-15+0015GMTT V0200401N00411004801CN0112001N1+00801+00701999999ADDGA1051+004809089GA2011+006909099GA3041+027009039MA1101291999999REMMET006NOSIG?EQDQ01+000000PRSWM2
0116601010999991980011305004+35717-005900FM-15+0015GMTT V0200401N00411004801CN9999999N9+00901+00801999999ADDGA1061+004809089GA2011+006909099GA3041+027009039MA1101291999999REMMET006NOSIG?EQDQ01+000002VOVAR Q02+000000PRSWM2
0207601010999991980011306004+35717-005900SY-MT+0015GMTT V0200601N00251004801CN0080001N1+00901+00801101241ADDAA124004091AY181999GA1061+004809089GA2011+006909099GA3041+027009039GF108991061091004501071999KA1999N+00801MA1101191999999MD1810101+9999MW1801REMSYN02370408 86816 81923 84459MET006NOSIG?EQDQ01  00403PRCP99
0087601010999991980011307004+35717-005900FM-15+0015GMTT V0200601N00411004801CN0080001N1+00801+00701999999ADDGA1061+004809089GA2011+006909099GA3041+027009039MA1101191999999MW1801REMMET006NOSIG?
0087601010999991980011308004+35717-005900FM-15+0015GMTT V0200601N00251003901CN0070001N1+00801+00501999999ADDGA1021+003009079GA2051+003909089GA3011+006909099MA1101191999999MW1801REMMET006NOSIG?
0158601010999991980011309004+35717-005900SY-MT+0015GMTT V0200601N00301003901CN0070001N1+00801+00801101231ADDAY181999GA1011+003009079GA2051+003909089GA3011+006909099GF107991061091004501071999MA1101191999999MD1810011+9999MW1801REMSYN01781710 85813 81923MET006NOSIG?
0085601010999991980011310004+35717-005900FM-15+0015GMTT V0200801N00511003901CN0070001N1+00801+00701999999ADDGA1011+003009079GA2051+003909089GA3011+006909099MA1101191999999MW1801REMMET004NSG?
0085601010999991980011311004+35717-005900FM-15+0015GMTT V0200801N00561003901CN0070001N1+00601+00401999999ADDGA1011+003609079GA2061+003909089GA3011+006909099MA1101191999999MW1801REMMET004NSG?
0167601010999991980011312004+35717-005900FM-12+0015GMTT V0201001N00621004501CN0070001N9+00701+00601101161ADDAA106012091AY181999GA1051+004509089GA2011+006909099GA3051+024009049GF108991051091004501071999MD1810071+9999MW1251REMSYN023712// 85815 81923 85458EQDQ01  01203PRCP99
0098601010999991980011313004+35717-005900FM-15+0015GMTT V0200601N00821004501CN0080001N1+00801+00701999999ADDGA1051+004509089GA2011+006909099GA3051+024009039MA1101081999999REMMET004NSG?EQDQ01+000000PRSWM2
0100601010999991980011314004+35717-005900FM-15+0015GMTT V0200201N00921004501CN0080001N1+00801+00701999999ADDGA1051+004509089GA2011+006909099GA3051+024009039MA1100911999999REMMET006NOSIG?EQDQ01+000000PRSWM2
0136601010999991980011315004+35717-005900SY-MT+0015GMTT V0200601N00611004501CN0060001N1+00901+00701100901ADDAY161999GA1071+004509089GA2021+006909099GF108991081091004501999999MA1100911999999MD1610261+9999MW1611REMSYN01187815 82923MET006NOSIG?
0071601010999991980011316004+35717-005900FM-15+0015GMTT V0200401N00611004501CN0080001N1+00901+00701999999ADDGA1071+004509089GA2021+006909099MA1100811999999MW1211REMMET006NOSIG?
0087601010999991980011317004+35717-005900FM-15+0015GMTT V0203601N00821004501CN0060001N1+00801+00701999999ADDGA1021+002409079GA2071+004509089GA3021+006909099MA1100811999999MW1611REMMET006NOSIG?
0188601010999991980011318004+35717-005900SY-MT+0015GMTT V0203601N00921004501CN0070001N1+00801+00701100781ADDAA199016091AY161999GA1021+002409079GA2071+004509089GA3021+006909099GF108991081091004501999999KA1999M+01001MA1100711999999MD1810121+9999MW1611REMSYN02371610 82708 87815 82923MET006NOSIG?
0087601010999991980011319004+35717-005900FM-15+0015GMTT V0203401N01021004501CN0060001N1+00701+00601999999ADDGA1021+002409079GA2071+004509089GA3021+006909099MA1100711999999MW1211REMMET006NOSIG?
0087601010999991980011320004+35717-005900FM-15+0015GMTT V0203601N01021004501CN0060001N1+00701+00601999999ADDGA1021+002409079GA2071+004509089GA3021+006909099MA1100711999999MW1611REMMET006NOSIG?
0158601010999991980011321004+35717-005900SY-MT+0015GMTT V0200401N00411003901CN0060001N1+00801+00601100701ADDAY181999GA1021+001809079GA2071+003909089GA3021+006009099GF108991081091002501999999MA1100711999999MD1810081+9999MW1801REMSYN0178270687813  82923MET006NOSIG?
0087601010999991980011322004+35717-005900FM-15+0015GMTT V0200401N00151003901CN0060001N1+00801+00701999999ADDGA1021+001809079GA2071+003909089GA3021+006009099MA1100611999999MW1801REMMET006NOSIG?
0194601010999991980011400004+35717-005900SY-MT+0015GMTT V0201401N00251003901CN0060001N1+00601+00501100621ADDAA106016091AY181999GA1021+001809079GA2061+003909089GA3021+006009099GF108991081091002501999999MA1100611999999MD1810081+9999MW1801REMSYN023716// 82706 86813 82920MET006NOSIG?EQDQ01  01603PRCP99
0131601010999991980011403004+35717-005900FM-12+0015GMTT V0203001N00511003901CN0070001N9+00601+00501100521ADDAY191999GA1021+001809079GA2061+003909089GA3021+006009099GF108991081091002501999999MD1710101+9999MW1251REMSYN01782706 86813 82920
0087601010999991980011405004+35717-005900FM-15+0015GMTT V0203001N00611003901CN0080001N1+00701+00601999999ADDGA1011+002409079GA2051+003909089GA3011+006009099MA1100411999999MW1251REMMET006NOSIG?
0148601010999991980011406004+35717-005900FM-12+0015GMTT V0203201N00621002101CN0070001N9+00701+00601100421ADDAA124036091AY191999GA1011+006009099GF107991071031002501999999KA1999N+00601MD1710101+9999MW1011REMSYN02373606 81709 05813 81920EQDQ01  03603PRCP99
0100601010999991980011407004+35717-005900FM-15+0015GMTT V0203201N00611003601CN0070001N1+00801+00701999999ADDGA1011+002709079GA2051+003609089GA3011+006009099MA1100411999999REMMET006NOSIG?EQDQ01+000000PRSWM2
0056601010999991980011409004+35717-005900FM-15+0015GMTT V0203001N00661003901CN0070001N1+00801+00601999999ADDGA1061+003909089GA2051+024009039MA1100511999999MW1801
0071601010999991980011411004+35717-005900FM-15+0015GMTT V0203001N00461003901CN0112001N1+00801+00701999999ADDGA1061+003909089GA2051+024009039MA1100711999999MW1601REMMET006NOSIG?
0186601010999991980011412004+35717-005900SY-MT+0015GMTT V0202001N00301003901CN0070001N1+00801+00701100701ADDAA106000591AY161999GA1061+003909089GA2051+024009039GF108991061021004501071999MA1100711999999MD1110151+9999MW1601WG199350099999REMSYN017795// 86813 85458MET006NOSIG?EQDQ01  00053PRCP99
0084601010999991980011413004+35717-005900FM-15+0015GMTT V0201801N00511003901CN0070001N1+00801+00701999999ADDGA1061+003909089GA2051+024009039MA1100711999999REMMET006NOSIG?EQDQ01+000000PRSWM2
0084601010999991980011414004+35717-005900FM-15+0015GMTT V0202001N00611003901CN0080001N1+00901+00701999999ADDGA1061+003909089GA2051+024009049MA1100611999999REMMET006NOSIG?EQDQ01+000000PRSWM2
0123601010999991980011415004+35717-005900FM-12+0015GMTT V0202001N00511003901CN0080001N9+00901+00701100621ADDGA1061+003909089GA2011+006009099GA3051+024009049GF108991061031004501071999MD1610081+9999MW1251REMSYN01786813 81920 85458
0085601010999991980011416004+35717-005900FM-15+0015GMTT V0202001N00611003901CN0080001N1+00901+00601999999ADDGA1051+003909089GA2011+006009099GA3061+024009039MA1100611999999MW1251REMMET004NSG?
0098601010999991980011417004+35717-005900FM-15+0015GMTT V0201801N00611006001CN0080001N1+00801+00601999999ADDGA1041+003909089GA2011+006009099GA3061+024009039MA1100611999999REMMET004NSG?EQDQ01+000000PRSWM2
0205601010999991980011418004+35717-005900SY-MT+0015GMTT V0201801N00511004801CN0080001N1+00701+00501100701ADDAA199001091AY181999GA1021+003909089GA2031+004809059GA3011+006009099GF107991041031004501071999KA1999M+00901MA1100711999999MD1210081+9999MW1011REMSYN02370109 82813 83616 81920MET004NSG?EQDQ01+000000PRSWM2
0098601010999991980011419004+35717-005900FM-15+0015GMTT V0201801N00511004801CN0080001N1+00701+00501999999ADDGA1021+003909089GA2031+004809059GA3011+006009099MA1100711999999REMMET004NSG?EQDQ01+000000PRSWM2
0098601010999991980011420004+35717-005900FM-15+0015GMTT V0202001N00611004801CN0080001N1+00701+00501999999ADDGA1021+003909089GA2031+004809059GA3011+006009099MA1100711999999REMMET004NSG?EQDQ01+000000PRSWM2
0169601010999991980011421004+35717-005900SY-MT+0015GMTT V0202001N00511006001CN0080001N1+00801+00501100791ADDAY121999GA1041+004809089GA2011+006009099GF107991051031004501071999MA1100711999999MD1310091+9999MW1031WG199030099999REMSYN01184216 81920MET006NOSIG?EQDQ01+000000PRSWM2
0084601010999991980011422004+35717-005900FM-15+0015GMTT V0201801N00561006001CN0080001N1+00701+00501999999ADDGA1041+004809089GA2011+006009099MA1100711999999REMMET006NOSIG?EQDQ01+000000PRSWM2
0100601010999991980011423004+35717-005900FM-15+0015GMTT V0202001N00511004801CN0080001N1+00701+00501999999ADDGA1021+003909089GA2051+004809059GA3011+006009099MA1100711999999REMMET006NOSIG?EQDQ01+000000PRSWM2
0181601010999991980011500004+35717-005900FM-12+0015GMTT V0201801N00511004801CN0080001N9+00701+00401100781ADDAA106999929AY181999GA1021+003909089GA2051+004809059GA3011+006009099GF108991061031004501071999MD1810011+9999MW1021WG199060099999REMSYN023797// 82813 85616 81920EQDQ01  99993PRCP99
0100601010999991980011501004+35717-005900FM-15+0015GMTT V0201801N00511004801CN0080001N1+00701+00401999999ADDGA1021+003909089GA2051+004809059GA3011+006009099MA1100711999999REMMET006NOSIG?EQDQ01+000000PRSWM2
0100601010999991980011502004+35717-005900FM-15+0015GMTT V0201801N00721004801CN0080001N1+00701+00401999999ADDGA1021+003909089GA2041+004809059GA3011+006009099MA1100711999999REMMET006NOSIG?EQDQ01+000000PRSWM2
0087601010999991980011503004+35717-005900FM-15+0015GMTT V0202001N00771004801CN0080001N1+00701+00501999999ADDGA1021+003909089GA2041+004809059GA3011+006009099MA1100711999999MW1251REMMET006NOSIG?
0100601010999991980011504004+35717-005900FM-15+0015GMTT V0202001N00721004801CN0080001N1+00601+00501999999ADDGA1021+003909089GA2041+004809059GA3011+006009099MA1100811999999REMMET006NOSIG?EQDQ01+000000PRSWM2
0100601010999991980011505004+35717-005900FM-15+0015GMTT V0201801N00921004801CN0080001N1+00601+00501999999ADDGA1021+003909089GA2041+004809059GA3011+006009099MA1100711999999REMMET006NOSIG?EQDQ01+000000PRSWM2
0207601010999991980011506004+35717-005900SY-MT+0015GMTT V0202001N00921004801CN0080001N1+00601+00501100781ADDAA124003091AY181999GA1021+003909089GA2051+004809059GA3011+006009099GF108991051041017501999999KA1999N+00601MA1100711999999MD1410001+9999MW1801REMSYN02370306 82813 85616 81920MET006NOSIG?EQDQ01  00303PRCP99
0087601010999991980011508004+35717-005900FM-15+0015GMTT V0201801N00771004801CN0080001N1+00701+00501999999ADDGA1021+003909089GA2051+004809059GA3011+006009099MA1100711999999MW1801REMMET006NOSIG?
0177601010999991980011509004+35717-005900SY-MT+0015GMTT V0201801N00931004801CN0080001N1+00701+00501100841ADDAY181999GA1021+003909089GA2041+004809059GA3021+006009099GF107991051091004501071999MA1100811999999MD1310061+9999MW1031REMSYN01782813 84616 82920MET006NOSIG?EQDQ01+000000PRSWM2
0100601010999991980011510004+35717-005900FM-15+0015GMTT V0201801N00921004801CN0080001N1+00801+00501999999ADDGA1021+003909089GA2041+004809059GA3021+006009099MA1100911999999REMMET006NOSIG?EQDQ01+000000PRSWM2
0087601010999991980011511004+35717-005900FM-15+0015GMTT V0201801N00871006001CN0080001N1+00801+00501999999ADDGA1041+004509089GA2021+006009099GA3051+024009039MA1100911999999MW1601REMMET006NOSIG?
0243601010999991980011512004+35717-005900SY-MT+0015GMTT V0201801N00921004501CN0070001N1+00901+00701100971ADDAA106000591AY181999GA1021+002409079GA2041+004509089GA3011+006009099GA4051+024009049GF107991051091002501071999MA1100911999999MD1010121+9999MW1601REMSYN029795// 82708 84615 81920 85458MET033NOS        ?8&? 0      ?     113?EQDQ01  00053PRCP99
0101601010999991980011514004+35717-005900FM-15+0015GMTT V0202201N01021004501CN0070001N1+00901+00701999999ADDGA1021+002409079GA2061+004509089GA3021+006009099GA4061+024009039MA1100911999999EQDQ01+000000PRSWM2
0208601010999991980011515004+35717-005900SY-MT+0015GMTT V0201801N00611004501CN0070001N1+01001+00801100871ADDAY161999GA1021+002409079GA2061+004509089GA3021+006009099GA4051+024009049GF107991061091002501071999MA1100811999999MD1810091+9999MW1211REMSYN02382708 86815 82920 85458MET0345ASA080 10/08          ?     1008?
0088601010999991980011516004+35717-005900FM-15+0015GMTT V0202001N00611004501CN0070001N1+01001+00801999999ADDGA1021+002409079GA2041+004509089GA3021+006009099GA4051+024009039MA1100911999999MW1801
0173601010999991980011518004+35717-005900SY-MT+0015GMTT V0202001N00511004501CN0112001N1+00901+00801100921ADDAA199008091AY181999GA1011+003009079GA2041+004509089GF105991051081004501031001KA1999M+01001MA1100911999999MD1110051+9999MW1011REMSYN01770810 81710 84815EQDQ01+000000PRSWM2
0069601010999991980011519004+35717-005900FM-15+0015GMTT V0201801N00611220001CN0112001N1+00801+00701999999ADDGA1011+003009079GA2041+004509089MA1100911999999EQDQ01+000000PRSWM2
0155601010999991980011521004+35717-005900SY-MT+0015GMTT V0201801N00611220001CN0112001N1+00901+00801100981ADDAY111999GA1021+004509089GA2031+006009059GF104991041081004501031001MA1100911999999MD1310031+9999MW1011REMSYN01182815 83620MET006NOSIG?EQDQ01+000000PRSWM2
0063601010999991980011523004+35717-005900FM-15+0015GMTT V0201801N00611006001CN0112001N1+01001+99999999999ADDGA1021+004509089GA2061+006009059MW1601REMMET013081009 NOSIG?
0210601010999991980011600004+35717-005900SY-MT+0015GMTT V0201801N00771006001CN0112001N1+01001+00801100921ADDAA106002091AY161999GA1021+004509089GA2031+006009059GA3011+006909099GF105991051091004501001001MA1100911999999MD1710061+9999MW1131REMSYN023702// 82815 83626 81923MET006NOSIG?EQDQ01+000000PRSWM2Q02  00203PRCP99
0100601010999991980011601004+35717-005900FM-15+0015GMTT V0201801N00771006001CN0112001N1+01001+00801999999ADDGA1021+004509089GA2031+006009059GA3011+006909099MA1100811999999REMMET006NOSIG?EQDQ01+000000PRSWM2
0100601010999991980011602004+35717-005900FM-15+0015GMTT V0201801N00821006001CN0112001N1+01001+00801999999ADDGA1021+004509089GA2031+006009059GA3011+006909099MA1100711999999REMMET006NOSIG?EQDQ01+000000PRSWM2
0177601010999991980011603004+35717-005900SY-MT+0015GMTT V0201801N00821006001CN0112001N1+01001+00601100711ADDAY121999GA1021+004509089GA2031+006009059GA3011+006909099GF105991051091004501001001MA1100711999999MD1610211+9999MW1131REMSYN01782815 83620 81923MET006NOSIG?EQDQ01+000000PRSWM2
0100601010999991980011604004+35717-005900FM-15+0015GMTT V0201801N00921006001CN0112001N1+01001+00801999999ADDGA1021+004509089GA2031+006009059GA3011+006909099MA1100611999999REMMET006NOSIG?EQDQ01+000000PRSWM2
0116601010999991980011605004+35717-005900FM-15+0015GMTT V0201801N01021006001CN0112001N1+01001+00601999999ADDGA1021+004509089GA2031+006009059GA3011+009009099GA4051+024009039MA1100511999999REMMET006NOSIG?EQDQ01+000000PRSWM2
0259601010999991980011606004+35717-005900SY-MT+0015GMTT V0201801N00921006001CN0112001N1+01101+00601100361ADDAA124010091AY121999GA1031+004509089GA2041+006009059GA3021+006909099GA4051+024009039GF106991051091004501041001KA1999N+00901MA1100311999999MD1610351+9999MW1131REMSYN02971009 83815 84620 82923 85458MET020TEND       ?     TS?EQDQ01+000000PRSWM2Q02  01003PRCP99
0105601010999991980011607004+35717-005900FM-15+0015GMTT V0201801N00921004501CN0080001N1+01101+00601999999ADDGA1041+002409079GA2051+004509089GA3021+006909099GA4061+024009039MA1100311999999MW1631REMMET008TEND TS?
0096601010999991980011608004+35717-005900FM-15+0015GMTT V0201801N00921004501CN0060001N1+01001+00801999999ADDGA1031+002409079GA2051+004509089GA3021+006009099GA4061+024009039MA1100311999999MW1951OC101331
0218601010999991980011609004+35717-005900SY-MT+0015GMTT V0202001N01021004501CN0060001N1+01001+00801100341ADDAY191999GA1031+002409079GA2051+004509089GA3021+006009099GA4061+024009039GF108991071091002501071999MD1810021+9999MW1811OC101541REMSYN02383708 85815 82920 86458MET032100        ?3? 01      ?     13?EQDQ01+000000PRSWM2
0096601010999991980011610004+35717-005900FM-15+0015GMTT V0202001N01331004501CN0030001N1+01001+00801999999ADDGA1031+002409079GA2051+004509089GA3021+006009099GA4061+024009039MA1100311999999MW1251OC102051
0204601010999991980011612004+35717-005900SY-MT+0015GMTT V0201801N00821004501CN0060001N1+01001+00901100341ADDAA106020091AY191999GA1031+002409079GA2051+004509089GA3021+006009099GA4061+024009039GF108991071091002501071999MA1100311999999MD1010001+9999MW1801REMSYN029720// 83708 85815 82920 86458EQDQ01  02003PRCP99
0174601010999991980011613004+35717-005900FM-15+0015GMTT V0201801N00821004501CN0060001N1+01001+00901999999ADDGA1031+002409079GA2051+004509089GA3021+006009099GA4061+024009039MA1100311999999REMMET06425RES 3ST008 5CUSC015 2CB020 6ACAS080 10/09          ?     1003?EQDQ01+000000PRSWM2
0092601010999991980011614004+35717-005900FM-15+0015GMTT V0202801N00821004501CN0060001N1+01001+00901999999ADDGA1031+002409079GA2051+004509089GA3021+006009099GA4051+024009039MW1801EQDQ01+030183APOA  
0158601010999991980011615004+35717-005900SY-MT+0015GMTT V0202401N00921004501CN0080001N1+01101+01001100241ADDAY181999GA1051+004509089GA2021+006009099GA3051+024009039GF108991051091004501071999MA1100201999999MD1999999+0121MW1251REMSYN01785815 82920 85458MET006NOSIG?
0087601010999991980011616004+35717-005900FM-15+0015GMTT V0202401N00821004501CN0060001N1+01101+00901999999ADDGA1011+003009089GA2051+004509089GA3021+006009099MA1100201999999MW1801REMMET006NOSIG?
0069601010999991980011617004+35717-005900FM-15+0015GMTT V0202401N00821004501CN0080001N1+01201+01001999999ADDGA1061+004509089GA2031+006009099MA1100201999999MW1251REMMET004NSG?
0205601010999991980011618004+35717-005900SY-MT+0015GMTT V0202401N00821004501CN0080001N1+01201+01001100241ADDAA199024091AY181999GA1011+001809089GA2061+004509089GA3031+006009099GF108991081091001501999999KA1999M+01201MA1100201999999MD1410001+9999MW1031REMSYN02372412 81806 86815 83920MET004NSG?EQDQ01+000000PRSWM2
0098601010999991980011619004+35717-005900FM-15+0015GMTT V0202601N00721004501CN0080001N1+01001+00901999999ADDGA1011+002409089GA2061+004509089GA3031+006009099MA1100201999999REMMET004NSG?EQDQ01+000000PRSWM2
0072601010999991980011620004+35717-005900FM-15+0015GMTT V0202201N01021004501CN0060001N1+00901+00801999999ADDGA1031+002409089GA2061+004509089GA3031+006009099MA1100201999999MW1951
0160601010999991980011621004+35717-005900SY-MT+0015GMTT V0201801N00721004501CN0060001N1+00901+00801100001ADDAY181999GA1031+002409089GA2061+004509089GA3031+006009099GF108991081091001501999999MA1100001999999MD1810241+9999MW1171WG199010799999REMSYN01783808 86815 83920
0084601010999991980011623004+35717-005900FM-15+0015GMTT V0202601N01021004501CN0060001N1+01101+00901999999ADDGA1031+002409089GA2061+004509089GA3031+006009099MW1171OC101331EQDQ01+029233APOA  
0196601010999991980011700004+35717-005900SY-MT+0015GMTT V0202401N01131004501CN0060001N1+01201+01101099821ADDAA106015091AY181999GA1031+002409089GA2061+004509089GA3031+006009099GF108991081091001501999999MA1099801999999MD1810181+9999MW1951WG199010799999REMSYN023715// 83808 86815 83920EQDQ01  01503PRCP99
0072601010999991980011701004+35717-005900FM-15+0015GMTT V0202601N02211004501CN0060001N1+01201+01101999999ADDGA1031+002409079GA2061+004509089GA3031+006009099MA1099801999999MW1171
0093601010999991980011702004+35717-005900FM-15+0015GMTT V0202801N01751004501CN0060001N1+01201+01101999999ADDGA1031+002409079GA2061+004509089GA3031+006009099MA1099901999999OC102261EQDQ01+000000PRSWM2
0187601010999991980011703004+35717-005900SY-MT+0015GMTT V0202801N01751004501CN0060001N1+01201+01001100131ADDAY191999GA1031+002409079GA2061+004509089GA3031+006009099GF108991081091001501999999MA1100101999999MD1310311+9999MW1021OC102051WG199090099999REMSYN01783708 86815 83920EQDQ01+000000PRSWM2
0072601010999991980011705004+35717-005900FM-15+0015GMTT V0203001N01021004501CN0080001N1+01101+00901999999ADDGA1031+002409079GA2061+004509089GA3021+006009099MA1100201999999MW1251
0211601010999991980011706004+35717-005900SY-MT+0015GMTT V0203001N00821004501CN0100001N1+01101+00801100501ADDAA124040091AY191999GA1021+002409079GA2051+004509089GA3011+006009099GF107991071091001501999999KA1999N+01101MA1100511999999MD1210371+9999MW1011REMSYN02374011 82708 85815 81920EQDQ01+000000PRSWM2Q02  04003PRCP99
0072601010999991980011707004+35717-005900FM-15+0015GMTT V0203001N00821004501CN0112001N1+01101+00701999999ADDGA1021+002409079GA2061+004509089GA3011+006009099MA1100511999999MW1251
0098601010999991980011708004+35717-005900FM-15+0015GMTT V0203001N00661006001CN0112001N1+01101+00801999999ADDGA1011+003009079GA2041+004509089GA3011+006009099MA1100711999999REMMET004NSG?EQDQ01+000000PRSWM2
0131601010999991980011709004+35717-005900FM-12+0015GMTT V0202801N00571004501CN0100001N9+01101+00701100751ADDAY181999GA1011+003009089GA2051+004509089GA3011+006009099GF107991071031004501999999MD1210251+9999MW1031REMSYN01781810 85815 81920
0056601010999991980011710004+35717-005900FM-15+0015GMTT V0202801N00661004501CN0112001N1+01101+00901999999ADDGA1051+004509089GA2031+006009099MA1100811999999MW1251
0071601010999991980011711004+35717-005900FM-15+0015GMTT V0202801N00661004501CN0112001N1+01101+00901999999ADDGA1051+004509089GA2021+006009099MA1100911999999MW1801REMMET006NOSIG?
0188601010999991980011712004+35717-005900SY-MT+0015GMTT V0202801N00821006001CN0100001N1+01201+00801100901ADDAA106002091AY181999GA1041+004509089GA2011+006009099GF105991051031004501001001MA1100911999999MD1110151+9999MW1011REMSYN017702// 84815 81920MET006NOSIG?EQDQ01+000000PRSWM2Q02  00203PRCP99
0084601010999991980011713004+35717-005900FM-15+0015GMTT V0202601N01021004501CN0112001N1+01101+00901999999ADDGA1051+004509089GA2011+006009099MA1100911999999REMMET006NOSIG?EQDQ01+000000PRSWM2
0069601010999991980011714004+35717-005900FM-15+0015GMTT V0202601N01021004501CN0112001N1+01101+00901999999ADDGA1051+004509089GA2011+006009099MA1100911999999EQDQ01+000000PRSWM2
0121601010999991980011715004+35717-005900SY-MT+0015GMTT V0203001N00771220001CN0112001N1+01201+00801100981ADDAY111999GA1041+004509089GF104991041021004501001001MA1100911999999MD1210081+9999MW1011REMSYN00584815EQDQ01+000000PRSWM2
0084601010999991980011716004+35717-005900FM-15+0015GMTT V0202801N00661069001CN0112001N1+01201+00701999999ADDGA1041+004509089GA2031+069009009MA1101021999999REMMET006NOSIG?EQDQ01+000000PRSWM2
0084601010999991980011717004+35717-005900FM-15+0015GMTT V0202801N00721069001CN0112001N1+01201+00801999999ADDGA1041+004509089GA2031+069009009MA1101021999999REMMET006NOSIG?EQDQ01+000000PRSWM2
0201601010999991980011718004+35717-005900SY-MT+0015GMTT V0203001N00561069001CN0112001N1+01001+00701101201ADDAA199002091AY111999GA1041+004509089GA2031+069009009GF105991041021004501001999KA1999M+01301MA1101191999999MD1310221+9999MW1021REMSYN01770213 84815 83073MET006NOSIG?EQDQ01+000002SCOHCGQ02+000000PRSWM2
0068601010999991980011720004+35717-005900FM-15+0015GMTT V0202601N00511220001CN0112001N1+00901+00701999999ADDGA1021+004509089MA1101191999999REMMET006NOSIG?EQDQ01+000000PRSWM2
0149601010999991980011721004+35717-005900SY-MT+0015GMTT V0202601N00771220001CN0150001N1+00801+00701101251ADDAY101999GA1041+004509089GA2011+006009099GF104991041021004501001001MA1101191999999MD1310051+9999MW1031REMSYN00584815MET006NOSIG?EQDQ01+000000PRSWM2
0084601010999991980011723004+35717-005900FM-15+0015GMTT V0202601N00561220001CN0112001N1+00801+00701999999ADDGA1031+004509089GA2011+006009099MA1101291999999REMMET006NOSIG?EQDQ01+000000PRSWM2
0187601010999991980011800004+35717-005900SY-MT+0015GMTT V0202601N00721006001CN0112001N1+01201+00701101311ADDAA106000091AY111999GA1041+004509089GA2011+006009099GF105991051031004501001001MA1101291999999MD1310031+9999MW1131REMSYN017700// 84815 81920MET005NOIG?EQDQ01+000000PRSWM2Q02  00003PRCP99
0084601010999991980011801004+35717-005900FM-15+0015GMTT V0202001N00721006001CN0112001N1+01001+00801999999ADDGA1041+004509089GA2011+006009099MA1101291999999REMMET006NOSIG?EQDQ01+000000PRSWM2
0109601010999991980011803004+35717-005900FM-12+0015GMTT V0202201N00771006001CN0150001N9+01001+00801101301ADDAY191999GA1041+004509089GA2021+006009099GF106991061091004501001001MD1810011+9999MW1951REMSYN01184815 82920
0069601010999991980011804004+35717-005900FM-15+0015GMTT V0202001N00771006001CN0112001N1+01001+00801999999ADDGA1041+004509089GA2021+006009099MA1101191999999MW1291REMMET004NSG?
0199601010999991980011806004+35717-005900SY-MT+0015GMTT V0201001N00151006001CN0112001N1+00801+00701101231ADDAA124003091AY191999GA1041+004509089GA2021+006009099GF106991061091004501001001KA1999N+00801MA1101191999999MD1810071+9999MW1021REMSYN01770308 84815 82920MET004NSG?EQDQ01+000000PRSWM2Q02  00303PRCP99
0082601010999991980011807004+35717-005900FM-15+0015GMTT V0209991C00001006001CN0112001N1+00801+00701999999ADDGA1041+004509089GA2021+006009099MA1101191999999REMMET004NSG?EQDQ01+000000PRSWM2
0084601010999991980011808004+35717-005900FM-15+0015GMTT V0201201N00101069001CN0112001N1+00601+00601999999ADDGA1031+004509089GA2031+069009009MA1101291999999REMMET006NOSIG?EQDQ01+000000PRSWM2
0155601010999991980011809004+35717-005900SY-MT+0015GMTT V0201201N00151069001CN0112001N1+00801+00801101381ADDAY121999GA1031+004509089GA2031+069009009GF106991031021004501031021MA1101291999999MD1310151+9999MW1021REMSYN01183815 83073MET006NOSIG?EQDQ01+000000PRSWM2
0084601010999991980011810004+35717-005900FM-15+0015GMTT V0202001N00411069001CN0112001N1+01101+00901999999ADDGA1031+004509089GA2031+069009009MA1101391999999REMMET006NOSIG?EQDQ01+000000PRSWM2
0084601010999991980011811004+35717-005900FM-15+0015GMTT V0202001N00411069001CN0112001N1+01201+01001999999ADDGA1031+004509089GA2031+069009009MA1101391999999REMMET006NOSIG?EQDQ01+000000PRSWM2
0154601010999991980011812004+35717-005900SY-MT+0015GMTT V0202001N00461036001CN0112001N1+01201+00801101431ADDAA106000091AY121999GA1041+004509089GF105991041021004501021001MA1101391999999MD1110051+9999MW1011REMSYN011700// 84815EQDQ01+000000PRSWM2Q02  00003PRCP99
0040601010999991980011813004+35717-005900FM-15+0015GMTT V0202201N00611004501CN0112001N1+01101+00901999999ADDGA1061+004509089MA1101391999999MW1251
0068601010999991980011814004+35717-005900FM-15+0015GMTT V0203201N00611004501CN0112001N1+01201+01001999999ADDGA1061+004509089MA1101291999999REMMET006NOSIG?EQDQ01+000000PRSWM2
0133601010999991980011815004+35717-005900SY-MT+0015GMTT V0203001N00511220001CN0112001N1+01301+01001101301ADDAY111999GA1041+004509089GF104991041021004501001001MA1101291999999MD1610131+9999MW1011REMSYN00584815MET006NOSIG?EQDQ01+000000PRSWM2
0082601010999991980011816004+35717-005900FM-15+0015GMTT V0202801N00511030001CN0112001N1+01201+00601999999ADDGA1031+004509089GA2031+030009039MA1101391999999REMMET004NSG?EQDQ01+000000PRSWM2
0139601010999991980011818004+35717-005900FM-12+0015GMTT V0203001N00621030001CN0100001N9+01201+00601101471ADDAA199999929AY181999GA1041+004509089GA2051+030009039GF107991041021004501031999KA1999M+01301MD1110171+9999MW1021REMSYN01779713 84815 85360
0082601010999991980011819004+35717-005900FM-15+0015GMTT V0203001N00611030001CN0112001N1+01101+00601999999ADDGA1041+004809089GA2051+030009039MA1101391999999REMMET004NSG?EQDQ01+000000PRSWM2
0066601010999991980011820004+35717-005900FM-15+0015GMTT V0203001N00611220001CN0112001N1+01101+00601999999ADDGA1041+004509089MA1101491999999REMMET004NSG?EQDQ01+000000PRSWM2
0169601010999991980011821004+35717-005900SY-MT+0015GMTT V0202801N00611030001CN0112001N1+01101+00601101611ADDAY121999GA1041+004509089GA2051+030009039GF107991041021004501031999MA1101591999999MD1310141+9999MW1021WG199990299999REMSYN01184815 85360MET006NOSIG?EQDQ01+000000PRSWM2
0068601010999991980011822004+35717-005900FM-15+0015GMTT V0202801N00511220001CN0112001N1+01001+00601999999ADDGA1031+004509089MA1101591999999REMMET006NOSIG?EQDQ01+000000PRSWM2
0068601010999991980011823004+35717-005900FM-15+0015GMTT V0202601N00411220001CN0112001N1+01001+00901999999ADDGA1031+004509089MA1101591999999REMMET006NOSIG?EQDQ01+000000PRSWM2
0166601010999991980011900004+35717-005900SY-MT+0015GMTT V0201801N00151220001CN0112001N1+00701+00501101631ADDAA106000091AY111999GA1021+004509089GF102991021021004501001001MA1101591999999MD1310031+9999MW1011REMSYN011700// 82815MET006NOSIG?EQDQ01+000000PRSWM2Q02  00003PRCP99
0068601010999991980011901004+35717-005900FM-15+0015GMTT V0201801N00301220001CN0112001N1+00701+00501999999ADDGA1021+004509089MA1101591999999REMMET006NOSIG?EQDQ01+000000PRSWM2
0068601010999991980011902004+35717-005900FM-15+0015GMTT V0201801N00511220001CN0112001N1+00701+00501999999ADDGA1021+004509089MA1101591999999REMMET006NOSIG?EQDQ01+000000PRSWM2
0068601010999991980011903004+35717-005900FM-15+0015GMTT V0201801N00511220001CN0112001N1+00701+00501999999ADDGA1021+004509089MA1101691999999REMMET006NOSIG?EQDQ01+000000PRSWM2
0084601010999991980011905004+35717-005900FM-15+0015GMTT V0202201N00361004501CN0112001N1+00901+00701999999ADDGA1061+004509089GA2051+027009039MA1101691999999REMMET006NOSIG?EQDQ01+000000PRSWM2
0136601010999991980011906004+35717-005900FM-12+0015GMTT V0201801N00311036001CN0100001N9+00801+00701101721ADDAA124001091AY181999GA1041+004509089GF105991041021004501031001KA1999N+00701MD1110021+9999MW1211REMSYN01170107 84815EQDQ01  00103PRCP99
0068601010999991980011907004+35717-005900FM-15+0015GMTT V0201801N00361220001CN0112001N1+00801+00701999999ADDGA1031+004509089MA1101691999999REMMET006NOSIG?EQDQ01+000000PRSWM2
0084601010999991980011908004+35717-005900FM-15+0015GMTT V0201801N00361021001CN0112001N1+00901+00801999999ADDGA1031+004509089GA2031+021009039MA1101801999999REMMET006NOSIG?EQDQ01+000000PRSWM2
0155601010999991980011909004+35717-005900SY-MT+0015GMTT V0201801N00411027001CN0112001N1+01001+00801101861ADDAY121999GA1031+004509089GA2031+027009039GF105991031021004501031001MA1101801999999MD1310141+9999MW1021REMSYN01183815 83359MET006NOSIG?EQDQ01+000000PRSWM2
0068601010999991980011910004+35717-005900FM-15+0015GMTT V0201801N00611220001CN0112001N1+01101+00801999999ADDGA1021+004509089MA1101901999999REMMET006NOSIG?EQDQ01+000000PRSWM2
0084601010999991980011911004+35717-005900FM-15+0015GMTT V0202001N00611220001CN0112001N1+01201+99999999999ADDGA1021+004509089MA1101901999999REMMET006NOSIG?EQDQ01+027323ATOD  Q02+000000PRSWM2
0166601010999991980011912004+35717-005900SY-MT+0015GMTT V0202001N00511220001CN0112001N1+01401+01001101941ADDAA106000091AY111999GA1021+004509089GF104991021021004501031001MA1101901999999MD1110081+9999MW1021REMSYN011700// 82815MET006NOSIG?EQDQ01+000000PRSWM2Q02  00003PRCP99
0068601010999991980011913004+35717-005900FM-15+0015GMTT V0202201N00611220001CN0112001N1+01401+01001999999ADDGA1031+004509089MA1101901999999REMMET006NOSIG?EQDQ01+000000PRSWM2
0069601010999991980011914004+35717-005900FM-15+0015GMTT V0202201N00511004501CN0112001N1+01401+00901999999ADDGA1051+004509089GA2031+027009039MA1101801999999EQDQ01+000000PRSWM2
0155601010999991980011915004+35717-005900SY-MT+0015GMTT V0202201N00511027001CN0112001N1+01401+00901101841ADDAY111999GA1041+004509089GA2031+027009039GF106991041021004501031001MA1101801999999MD1610101+9999MW1011REMSYN01184815 83359MET006NOSIG?EQDQ01+000000PRSWM2
0084601010999991980011916004+35717-005900FM-15+0015GMTT V0202201N00511027001CN0112001N1+01401+00901999999ADDGA1041+004509089GA2031+027009039MA1101801999999REMMET006NOSIG?EQDQ01+000000PRSWM2
0173601010999991980011918004+35717-005900SY-MT+0015GMTT V0202201N00511006901CN0112001N1+01301+00901101861ADDAA199000091AY111999GA1021+004509089GA2061+006909059GF107991071081004501999999KA1999M+01501MA1101801999999MD1110021+9999MW1031REMSYN01770015 82815 86623EQDQ01+000000PRSWM2
0069601010999991980011919004+35717-005900FM-15+0015GMTT V0202401N00411006901CN0112001N1+01201+00901999999ADDGA1021+004509089GA2061+006909059MA1101901999999EQDQ01+000000PRSWM2
0069601010999991980011920004+35717-005900FM-15+0015GMTT V0202401N00511006901CN0112001N1+01201+01001999999ADDGA1021+004509089GA2061+006909059MA1101901999999EQDQ01+000000PRSWM2
0155601010999991980011921004+35717-005900SY-MT+0015GMTT V0201801N00151006901CN0112001N1+01201+01001101951ADDAY121999GA1021+004509089GA2061+006909059GF107991071081004501999999MA1101901999999MD1110111+9999MW1021REMSYN01182815 86623MET006NOSIG?EQDQ01+000000PRSWM2
0084601010999991980011922004+35717-005900FM-15+0015GMTT V0201801N00151006901CN0112001N1+01101+00901999999ADDGA1021+004509089GA2041+006909059MA1102001999999REMMET006NOSIG?EQDQ01+000000PRSWM2
0084601010999991980011923004+35717-005900FM-15+0015GMTT V0201801N00201006901CN0112001N1+01101+00901999999ADDGA1021+004509089GA2041+006909059MA1102001999999REMMET006NOSIG?EQDQ01+000000PRSWM2
0188601010999991980012000004+35717-005900SY-MT+0015GMTT V0201801N00201006001CN0112001N1+01101+00901102041ADDAA106000091AY121999GA1031+004509089GA2041+006009059GF106991061081004501001001MA1102001999999MD1110091+9999MW1031REMSYN017700// 83815 84620MET006NOSIG?EQDQ01+000000PRSWM2Q02  00003PRCP99
0084601010999991980012001004+35717-005900FM-15+0015GMTT V0201801N00201006001CN0112001N1+01101+00801999999ADDGA1031+004509089GA2061+006009059MA1102001999999REMMET006NOSIG?EQDQ01+000000PRSWM2
0084601010999991980012002004+35717-005900FM-15+0015GMTT V0201801N00201006001CN0112001N1+01101+00801999999ADDGA1031+004509089GA2061+006009059MA1102001999999REMMET006NOSIG?EQDQ01+000000PRSWM2
0155601010999991980012003004+35717-005900SY-MT+0015GMTT V0201801N00251006001CN0112001N1+01001+00801102041ADDAY121999GA1031+004509089GA2061+006009059GF107991071081004501999999MA1102001999999MD1410001+9999MW1021REMSYN01183815 86620MET006NOSIG?EQDQ01+000000PRSWM2
0084601010999991980012005004+35717-005900FM-15+0015GMTT V0201801N00411006001CN0112001N1+00901+00701999999ADDGA1021+004509089GA2031+006009059MA1102001999999REMMET006NOSIG?EQDQ01+000000PRSWM2
0215601010999991980012006004+35717-005900SY-MT+0015GMTT V0202001N00461220001CN0112001N1+01001+00801102031ADDAA124000091AY111999GA1011+004809089GA2031+006009059GF103991031081004501001001KA1999N+99999MA1102001999999MD1610011+9999MW1011REMSYN01770011 81816 83620MET004NSG?EQDQ01+000000PRSWM2Q02  00003PRCP99Q03 +01102ATMN  
0082601010999991980012007084+35717-005900FM-15+0015GMTT V0201801N00511006001CN0112001N1+01001+00801999999ADDGA1021+004809089GA2031+006009059MA1102001999999REMMET004NSG?EQDQ01+000000PRSWM2
0143601010999991980012009004+35717-005900SY-MT+0015GMTT V0202001N00511006001CN0112001N1+01101+00901102191ADDAY161999GA1031+004509089GA2061+006009059GF108991081081004501999999MA1102101999999MD1310161+9999MW1031REMSYN01183815 86620EQDQ01+000000PRSWM2
0084601010999991980012010004+35717-005900FM-15+0015GMTT V0202001N00511006001CN0112001N1+01101+00901999999ADDGA1031+004509089GA2061+006009059MA1102101999999REMMET006NOSIG?EQDQ01+000000PRSWM2
0084601010999991980012011004+35717-005900FM-15+0015GMTT V0202001N00611006001CN0112001N1+01201+00901999999ADDGA1031+004509059GA2061+006009059MA1102201999999REMMET006NOSIG?EQDQ01+000000PRSWM2
0183601010999991980012012004+35717-005900SY-MT+0015GMTT V0202001N00611006001CN0112001N1+01401+01101102341ADDAA106000591AA299000491AY161999GA1021+004809089GA2041+006009059GF105991051081004501001001MA1102301999999MD1110151+9999MW1011REMSYN017794// 82816 84620MET006NOSIG?EQDQ01+000000PRSWM2
0055601010999991980012013004+35717-005900FM-15+0015GMTT V0202001N00721220001CN0112001N1+01401+01101999999ADDGA1041+006009059MA1102301999999MW1801REMMET006NOSIG?
0082601010999991980012014004+35717-005900FM-15+0015GMTT V0202201N00561006001CN0112001N1+01401+01201999999ADDGA1031+004809089GA2071+006009059MA1102201999999REMMET004NSG?EQDQ01+000000PRSWM2
0134601010999991980012015004+35717-005900SY-MT+0015GMTT V0202201N00561006001CN0112001N1+01401+01201102271ADDAY161999GA1031+004809089GA2071+006009059GF107991071081004501999999MA1102201999999MD1510071+9999MW1251REMSYN01183816 87620MET004NSG?
0082601010999991980012016004+35717-005900FM-15+0015GMTT V0202201N00511006001CN0112001N1+01401+01101999999ADDGA1031+004809089GA2031+006009059MA1102201999999REMMET004NSG?EQDQ01+000000PRSWM2
0082601010999991980012017004+35717-005900FM-15+0015GMTT V0202201N00561006001CN0112001N1+01401+01101999999ADDGA1031+004809089GA2051+006009059MA1102301999999REMMET004NSG?EQDQ01+000000PRSWM2
0183601010999991980012018004+35717-005900SY-MT+0015GMTT V0202201N00511006001CN0112001N1+01301+01201102341ADDAA199001091AY181999GA1031+004809089GA2041+006009059GF107991061081004501001021KA1999M+01401MA1102301999999MD1210071+9999MW1011REMSYN01770114 83816 84620MET004NSG?EQDQ01+000000PRSWM2
0082601010999991980012019004+35717-005900FM-15+0015GMTT V0202201N00361006001CN0112001N1+01301+01201999999ADDGA1031+004809089GA2041+006009059MA1102301999999REMMET004NSG?EQDQ01+000000PRSWM2
0082601010999991980012020004+35717-005900FM-15+0015GMTT V0202201N00251006001CN0112001N1+01201+01001999999ADDGA1021+004809089GA2031+006009059MA1102401999999REMMET004NSG?EQDQ01+000000PRSWM2
0109601010999991980012021004+35717-005900FM-12+0015GMTT V0209991C00001220001CN0100001N9+01101+01001102461ADDAY111999GA1021+004809089GA2031+006009059GF104991041081004501001001MD1110121+9999MW1011REMSYN01182816 83620
0084601010999991980012022004+35717-005900FM-15+0015GMTT V0209991C00001006001CN0112001N1+01101+01001999999ADDGA1021+004809089GA2031+006009059MA1102401999999REMMET006NOSIG?EQDQ01+000000PRSWM2
0084601010999991980012023004+35717-005900FM-15+0015GMTT V0209991C00001006001CN0112001N1+01101+01001999999ADDGA1021+004809089GA2031+006009059MA1102401999999REMMET006NOSIG?EQDQ01+000000PRSWM2
0150601010999991980012100004+35717-005900SY-MT+0015GMTT V0209991C00001220001CN0150001N1+01001+00801102461ADDAA106000091AY111999GF100991001001999999001001MA1102401999999MD1410001+9999MW1011REMSYN005700//MET012CAVOK NOSIG?EQDQ01+000000PRSWM2Q02  00003PRCP99
0058601010999991980012101004+35717-005900FM-15+0015GMTT V0209991C00001999991CY0099001N1+00801+00701999999ADDMA1102401999999REMMET012CAVOK NOSIG?EQDQ01+000000PRSWM2
0058601010999991980012102004+35717-005900FM-15+0015GMTT V0209991C00001999991CY0099001N1+00801+00701999999ADDMA1102401999999REMMET012CAVOK NOSIG?EQDQ01+000000PRSWM2
0112601010999991980012103004+35717-005900SY-MT+0015GMTT V0209991C00001220001CN0099001N1+00701+00601102461ADDAY101999GF100991001001999999001001MA1102401999999MD1410001+9999MW1021REMMET012CAVOK NOSIG?EQDQ01+000000PRSWM2
0058601010999991980012105004+35717-005900FM-15+0015GMTT V0201601N00251999991CY0099001N1+00701+00601999999ADDMA1102401999999REMMET012CAVOK NOSIG?EQDQ01+000000PRSWM2
0163601010999991980012106004+35717-005900SY-MT+0015GMTT V0201601N00311220001CN0150001N1+00601+00601102471ADDAA124001091AY101999GF100991001001999999001001KA1999N+00601MA1102401999999MD1410001+9999MW1021REMSYN00570106MET012CAVOK NOSIG?EQDQ01+000000PRSWM2Q02  00103PRCP99
0058601010999991980012107004+35717-005900FM-15+0015GMTT V0201601N00301999991CY0099001N1+00701+00601999999ADDMA1102401999999REMMET012CAVOK NOSIG?EQDQ01+000000PRSWM2
0147601010999991980012109004+35717-005900SY-MT+0015GMTT V0201201N00211220001CN0150001N1+00801+00701102591ADDAY101999GA1021+004809089GF102991021081004501001001MA1102511999999MD1310121+9999MW1021WG199370999999REMSYN00582816MET006NOSIG?EQDQ01+000000PRSWM2
0066601010999991980012110004+35717-005900FM-15+0015GMTT V0201201N00201220001CN0112001N1+01201+01001999999ADDGA1021+004809089MA1102611999999REMMET004NSG?EQDQ01+000000PRSWM2
0066601010999991980012111004+35717-005900FM-15+0015GMTT V0201801N00201220001CN0112001N1+01501+01201999999ADDGA1031+004809089MA1102611999999REMMET004NSG?EQDQ01+000000PRSWM2
0164601010999991980012112004+35717-005900SY-MT+0015GMTT V0202401N00151220001CN0112001N1+01501+01101102601ADDAA106000091AY101999GA1041+004809089GF104991041081004501001001MA1102611999999MD1010021+9999MW1031REMSYN011700// 84816MET004NSG?EQDQ01+000000PRSWM2Q02  00003PRCP99
0066601010999991980012113004+35717-005900FM-15+0015GMTT V0202401N00361220001CN0112001N1+01601+01101999999ADDGA1031+004809089MA1102511999999REMMET004NSG?EQDQ01+000000PRSWM2
0053601010999991980012114004+35717-005900FM-15+0015GMTT V0202401N00361220001CN0112001N1+01501+01101999999ADDGA1041+004809059MA1102511999999EQDQ01+000000PRSWM2
0121601010999991980012115004+35717-005900SY-MT+0015GMTT V0202401N00261220001CN0150001N1+01501+01101102471ADDAY101999GA1041+004809059GF104991041061008001001001MA1102401999999MD1810131+9999MW1021REMSYN00584616EQDQ01+000000PRSWM2
0068601010999991980012117004+35717-005900FM-15+0015GMTT V0202401N00411220001CN0112001N1+01501+01201999999ADDGA1041+004809059MA1102401999999REMMET006NOSIG?EQDQ01+000000PRSWM2
0163601010999991980012118004+35717-005900SY-MT+0015GMTT V0203201N00201220001CN0112001N1+01401+01201102541ADDAA199000091AY101999GA1041+004809059GF104991041051008001001001KA1999M+01601MA1102511999999MD1310071+9999MW1021REMSYN01170016 84616MET006NOSIG?EQDQ01+000000PRSWM2
0068601010999991980012120004+35717-005900FM-15+0015GMTT V0209991C00001220001CN0112001N1+01301+01201999999ADDGA1041+004809059MA1102511999999REMMET006NOSIG?EQDQ01+000000PRSWM2
0131601010999991980012121004+35717-005900SY-MT+0015GMTT V0209991C00001220001CN0100001N1+00701+00701102511ADDAY101999GA1011+004809059GF101991011051004501001001MA1102511999999MD1810041+9999MW1011REMSYN00581616MET004NSG?EQDQ01+000000PRSWM2
0066601010999991980012122004+35717-005900FM-15+0015GMTT V0200801N00251220001CN0112001N1+00701+00701999999ADDGA1011+004809059MA1102511999999REMMET004NSG?EQDQ01+000000PRSWM2
0066601010999991980012123004+35717-005900FM-15+0015GMTT V0201001N00151220001CN0112001N1+00701+00601999999ADDGA1011+004809059MA1102511999999REMMET004NSG?EQDQ01+000000PRSWM2
0164601010999991980012200004+35717-005900SY-MT+0015GMTT V0200801N00251220001CN0080001N1+00701+00601102481ADDAA106000091AY101999GA1011+004809059GF101991011051004501001001MA1102401999999MD1810031+9999MW1021REMSYN011700// 81616MET004NSG?EQDQ01+000000PRSWM2Q02  00003PRCP99
0066601010999991980012201004+35717-005900FM-15+0015GMTT V0200601N00151220001CN0080001N1+00701+00601999999ADDGA1011+004809059MA1102401999999REMMET004NSG?EQDQ01+000000PRSWM2
0068601010999991980012202004+35717-005900FM-15+0015GMTT V0200601N00151220001CN0080001N1+00701+00601999999ADDGA1011+004809059MA1102401999999REMMET006NOSIG?EQDQ01+000000PRSWM2
0087601010999991980012203004+35717-005900FM-12+0015GMTT V0201001N00151220001CN0080001N9+00601+00501102371ADDAY101999GA1011+004809059GF101991011051004501001001MD1710111+9999MW1021REMSYN00581616
0061601010999991980012204004+35717-005900FM-15+0015GMTT V0201001N00151220001CN0080001N1+99999+99999999999ADDGA1011+004809059REMMET01405 1023 NOSIG?EQDQ01+000000PRSWM2
0068601010999991980012205004+35717-005900FM-15+0015GMTT V0201001N00361220001CN0080001N1+00601+00501999999ADDGA1011+004809059MA1102301999999REMMET006NOSIG?EQDQ01+000000PRSWM2
0179601010999991980012206004+35717-005900SY-MT+0015GMTT V0201201N00251220001CN0080001N1+00501+00501102251ADDAA124000091AY101999GA1011+004809059GF101991011051004501001001KA1999N+00501MA1102201999999MD1810121+9999MW1021REMSYN01170005 81816MET006NOSIG?EQDQ01+000000PRSWM2Q02  00003PRCP99
0084601010999991980012207004+35717-005900FM-15+0015GMTT V0201201N00301220001CN0112001N1+00501+00501999999ADDGA1011+004809059GA2031+069009009MA1102201999999REMMET006NOSIG?EQDQ01+000000PRSWM2
0084601010999991980012208004+35717-005900FM-15+0015GMTT V0200601N00511220001CN0112001N1+00601+00501999999ADDGA1021+006009059GA2031+009909009MA1102201999999REMMET006NOSIG?EQDQ01+000000PRSWM2
0155601010999991980012209004+35717-005900SY-MT+0015GMTT V0200601N00411069001CN0112001N1+00701+00501102251ADDAY111999GA1031+006009059GA2031+069009009GF105991031051008001001021MA1102201999999MD1810011+9999MW1031REMSYN01183620 83073MET006NOSIG?EQDQ01+000000PRSWM2
0084601010999991980012210004+35717-005900FM-15+0015GMTT V0200601N00411220001CN0112001N1+00901+00801999999ADDGA1011+006009059GA2031+069009009MA1102201999999REMMET006NOSIG?EQDQ01+000000PRSWM2
0069601010999991980012211004+35717-005900FM-15+0015GMTT V0200601N00411220001CN0112001N1+01101+00901999999ADDGA1011+006009059GA2031+069009009MA1102201999999EQDQ01+000000PRSWM2
0188601010999991980012212004+35717-005900SY-MT+0015GMTT V0202001N00251220001CN0112001N1+01501+01101102381ADDAA106000091AY101999GA1011+006009059GA2031+069009009GF103991011051008001001021MA1102301999999MD1310151+9999MW1021REMSYN017700// 81620 83073MET006NOSIG?EQDQ01+000000PRSWM2Q02  00003PRCP99
0084601010999991980012213004+35717-005900FM-15+0015GMTT V0202001N00411220001CN0112001N1+01601+01201999999ADDGA1011+006009059GA2031+069009009MA1102301999999REMMET006NOSIG?EQDQ01+000000PRSWM2
0084601010999991980012214004+35717-005900FM-15+0015GMTT V0202601N00461220001CN0112001N1+01601+01201999999ADDGA1011+004809089GA2031+007809059MA1102201999999REMMET006NOSIG?EQDQ01+000000PRSWM2
0133601010999991980012215004+35717-005900SY-MT+0015GMTT V0202601N00201220001CN0112001N1+01601+01101102141ADDAY101999GA1011+004809089GF102991021081004501001001MA1102101999999MD1810241+9999MW1011REMSYN00581816MET006NOSIG?EQDQ01+000000PRSWM2
0053601010999991980012216004+35717-005900FM-15+0015GMTT V0202601N00201220001CN0112001N1+01701+00701999999ADDGA1011+004809089MA1102101999999EQDQ01+000000PRSWM2
0139601010999991980012218004+35717-005900FM-12+0015GMTT V0203201N00211220001CN0150001N9+01401+01101102191ADDAA199000091AY101999GA1011+004809089GA2031+069009009GF103991011021004501001021KA1999M+01601MD1310051+9999MW1021REMSYN01770016 81816 83073
0179601010999991980012219004+35717-005900SY-MT+0015GMTT V0203201N00201220001CN0112001N1+01401+01101102141ADDAY101999GA1011+004809089GA2031+069009009GF199999021081004501001999MA1102101999999MD1810241+9999MW1011REMSYN00581816MET004NSG?EQDQ01+000022SCOTCVQ02+000002SCOHCGQ03+000000PRSWM2
0069601010999991980012220004+35717-005900FM-15+0015GMTT V0200601N00201220001CN0112001N1+01001+00901999999ADDGA1011+004809089GA2031+069009009MA1102201999999EQDQ01+000000PRSWM2
0068601010999991980012221004+35717-005900FM-15+0015GMTT V0201201N00151220001CN0112001N1+00801+00801999999ADDGA1011+004809089MA1102201999999REMMET006NOSIG?EQDQ01+000000PRSWM2
0068601010999991980012222004+35717-005900FM-15+0015GMTT V0201201N00151220001CN0112001N1+00801+00801999999ADDGA1011+004809089MA1102201999999REMMET006NOSIG?EQDQ01+000000PRSWM2
0068601010999991980012223004+35717-005900FM-15+0015GMTT V0200601N00361220001CN0112001N1+00801+00701999999ADDGA1011+004809089MA1102201999999REMMET006NOSIG?EQDQ01+000000PRSWM2
0166601010999991980012300004+35717-005900SY-MT+0015GMTT V0201001N00251220001CN0112001N1+00801+00701102091ADDAA106000091AY101999GA1011+004809089GF102991011021004501001021MA1102001999999MD1810111+9999MW1021REMSYN011700// 81616MET006NOSIG?EQDQ01+000000PRSWM2Q02  00003PRCP99
0068601010999991980012301004+35717-005900FM-15+0015GMTT V0201001N00251220001CN0112001N1+00801+00701999999ADDGA1011+004809089MA1102001999999REMMET006NOSIG?EQDQ01+000000PRSWM2
0068601010999991980012302004+35717-005900FM-15+0015GMTT V0200801N00361220001CN0112001N1+00701+00701999999ADDGA1011+004809089MA1102001999999REMMET006NOSIG?EQDQ01+000000PRSWM2
0068601010999991980012303004+35717-005900FM-15+0015GMTT V0200801N00361220001CN0112001N1+00601+00601999999ADDGA1011+004809089MA1102001999999REMMET006NOSIG?EQDQ01+000000PRSWM2
0053601010999991980012304004+35717-005900FM-15+0015GMTT V0200801N00361220001CN0112001N1+00601+00501999999ADDGA1011+004809089MA1102001999999EQDQ01+000000PRSWM2
0053601010999991980012305004+35717-005900FM-15+0015GMTT V0200801N00361220001CN0112001N1+00601+00501999999ADDGA1011+004809089MA1102001999999EQDQ01+000000PRSWM2
0179601010999991980012306004+35717-005900SY-MT+0015GMTT V0201001N00301220001CN0112001N1+00601+00601101911ADDAA124000091AY101999GA1011+004809089GF102991011021004501001021KA1999N+00601MA1101901999999MD1810131+9999MW1021REMSYN01170006 81816MET006NOSIG?EQDQ01+000000PRSWM2Q02  00003PRCP99
0069601010999991980012307004+35717-005900FM-15+0015GMTT V0201001N00301220001CN0112001N1+00601+00601999999ADDGA1011+004809089REMMET006NOSIG?EQDQ01+030393APOA  Q02+000000PRSWM2
0054601010999991980012308004+35717-005900FM-15+0015GMTT V0201001N00361220001CN0112001N1+00601+99999999999ADDGA1011+004809089REMMET007061019?EQDQ01+000000PRSWM2
