0183601010999992007010100004+35733-005900SY-MT+0021GMTT V0200901N005119999999Y0100001N1+01331+00991103661ADDGF100991001001999999001001MA1103591999999MD1210061+9999REMSYN054AAXX  01004 60101 35960 00910 10133 20099 40366 52006;MET056METAR GMTT 010000Z AUTO 09010KT CAVOK 13/10 Q1036 NOSIG;
0071601010999992007010100304+35733-005900FM-15+0021GMTT V0200901N004612200019N9999999N1+01301+01001999999ADDMA1103591999999REMMET044METAR GMTT 010030Z AUTO 09009KT 13/10 Q1036;
0071601010999992007010101004+35733-005900FM-15+0021GMTT V0200801N006712200019N9999999N1+01301+01001999999ADDMA1103591999999REMMET044METAR GMTT 010100Z AUTO 08013KT 13/10 Q1036;
0071601010999992007010101304+35733-005900FM-15+0021GMTT V0200801N004612200019N9999999N1+01301+01001999999ADDMA1103591999999REMMET044METAR GMTT 010130Z AUTO 08009KT 13/10 Q1036;
0083601010999992007010102004+35733-005900FM-15+0021GMTT V0200801N00511999999CY0099001N1+01301+01001999999ADDMA1103591999999REMMET056METAR GMTT 010200Z AUTO 08010KT CAVOK 13/10 Q1036 NOSIG;
0083601010999992007010102304+35733-005900FM-15+0021GMTT V0200901N00571999999CY0099001N1+01301+01001999999ADDMA1103591999999REMMET056METAR GMTT 010230Z AUTO 09011KT CAVOK 13/10 Q1036 NOSIG;
0157601010999992007010103004+35733-005900SY-MT+0021GMTT V0201001N005119999999Y0099001N1+01251+01001103661ADDMA1103591999999MD1510021+9999REMSYN054AAXX  01034 60101 36/// /1010 10125 20100 40366 55002;MET056METAR GMTT 010300Z AUTO 10010KT CAVOK 13/10 Q1036 NOSIG;
0071601010999992007010103304+35733-005900FM-15+0021GMTT V0201001N005712200019N9999999N1+01201+01001999999ADDMA1103591999999REMMET044METAR GMTT 010330Z AUTO 10011KT 12/10 Q1036;
0071601010999992007010104004+35733-005900FM-15+0021GMTT V0200901N004612200019N9999999N1+01201+01001999999ADDMA1103591999999REMMET044METAR GMTT 010400Z AUTO 09009KT 12/10 Q1036;
0083601010999992007010104304+35733-005900FM-15+0021GMTT V0200901N00411999999CY0099001N1+01201+01001999999ADDMA1103591999999REMMET056METAR GMTT 010430Z AUTO 09008KT CAVOK 12/10 Q1036 NOSIG;
0083601010999992007010105004+35733-005900FM-15+0021GMTT V0200801N00261999999CY0099001N1+01201+01001999999ADDMA1103591999999REMMET056METAR GMTT 010500Z AUTO 08005KT CAVOK 12/10 Q1036 NOSIG;
0083601010999992007010105304+35733-005900FM-15+0021GMTT V0200901N00311999999CY0099001N1+01101+01001999999ADDMA1103591999999REMMET056METAR GMTT 010530Z AUTO 09006KT CAVOK 11/10 Q1036 NOSIG;
0201601010999992007010106004+35733-005900SY-MT+0021GMTT V0200801N002619999999Y0100001N1+01091+00951103631ADDGF100991001001999999001001KA1999N+00811MA1103591999999MD1510051+9999REMSYN064AAXX  01064 60101 32960 00805 10109 20095 40363 55005 333 20081;MET051METAR GMTT 010600Z 08005KT CAVOK 11/10 Q1036 NOSIG;
0083601010999992007010106304+35733-005900FM-15+0021GMTT V0200501N00261999999CY0099001N1+01001+00801999999ADDMA1103591999999REMMET056METAR GMTT 010630Z AUTO 05005KT CAVOK 10/08 Q1036 NOSIG;
0083601010999992007010107004+35733-005900FM-15+0021GMTT V0201101N00261999999CY0099001N1+00901+00801999999ADDMA1103591999999REMMET056METAR GMTT 010700Z AUTO 11005KT CAVOK 09/08 Q1036 NOSIG;
0071601010999992007010107304+35733-005900FM-15+0021GMTT V0201101N003112200019N9999999N1+00901+00701999999ADDMA1103591999999REMMET044METAR GMTT 010730Z AUTO 11006KT 09/07 Q1036;
0078601010999992007010108004+35733-005900FM-15+0021GMTT V0200801N00411999999CY0099001N1+01101+01001999999ADDMA1103591999999REMMET051METAR GMTT 010800Z 08008KT CAVOK 11/10 Q1036 NOSIG;
0086601010999992007010108304+35733-005900FM-15+0021GMTT V0201201N00211999999CY0099001N1+01201+01001999999ADDMA1103591999999REMMET059METAR GMTT 010830Z 12004KT 090V170 CAVOK 12/10 Q1036 NOSIG;
0210601010999992007010109004+35733-005900SY-MT+0021GMTT V0200701N003619999999Y0100001N1+01331+01061103721ADDGA1031+060001001GF103991001001999999001021MA1103691999999MD1010031+9999REMSYN070AAXX  01094 60101 32960 30707 10133 20106 40372 50003 80002 333 83070;MET051METAR GMTT 010900Z 08007KT CAVOK 13/11 Q1037 NOSIG;
0091601010999992007010109304+35733-005900FM-15+0021GMTT V0200901N00311999999CY0099001N1+01501+01201999999ADDMA1103691999999REMMET064METAR GMTT 010930Z AUTO 09006KT 060V120 CAVOK 15/12 Q1037 NOSIG;
0091601010999992007010110004+35733-005900FM-15+0021GMTT V0200701N00461999999CY0099001N1+01601+01201999999ADDMA1103691999999REMMET064METAR GMTT 011000Z AUTO 07009KT 030V090 CAVOK 16/12 Q1037 NOSIG;
0083601010999992007010110304+35733-005900FM-15+0021GMTT V0200701N00511999999CY0099001N1+01701+01301999999ADDMA1103691999999REMMET056METAR GMTT 011030Z AUTO 07010KT CAVOK 17/13 Q1037 NOSIG;
0071601010999992007010111004+35733-005900FM-15+0021GMTT V0200601N006712200019N9999999N1+01701+01301999999ADDMA1103691999999REMMET044METAR GMTT 011100Z AUTO 06013KT 17/13 Q1037;
0071601010999992007010111304+35733-005900FM-15+0021GMTT V0200701N006212200019N9999999N1+01801+01301999999ADDMA1103691999999REMMET044METAR GMTT 011130Z AUTO 07012KT 18/13 Q1037;
0153601010999992007010112004+35733-005900SY-MT+0021GMTT V0200601N005719999999N9999999N1+01851+01361103681ADDMA1103591999999MD1010101+9999REMSYN054AAXX  01124 60101 36/// /0611 10185 20136 40368 50010;MET052METAR GMTT 011200Z AUTO 06011KT 030V090 19/13 Q1036;
0071601010999992007010112304+35733-005900FM-15+0021GMTT V0200701N005112200019N9999999N1+01901+01401999999ADDMA1103591999999REMMET044METAR GMTT 011230Z AUTO 07010KT 19/14 Q1036;
0096601010999992007010113004+35733-005900AUTO +0021GMTT V0200701N004212200019N9999999N1+01901+01301999999ADDED128U20009MA1103501999999REMMET058METAR GMTT 011300Z AUTO 07008KT R28/P2000 SKC 19/13 Q1035;
0104601010999992007010113304+35733-005900AUTO +0021GMTT V0200601N003712200019N9999999N1+02001+01401999999ADDED128U20009MA1103501999999REMMET066METAR GMTT 011330Z AUTO 06007KT 030V090 R28/P2000 SKC 20/14 Q1035;
0079601010999992007010114004+35733-005900FM-15+0021GMTT V0200601N003112200019N9999999N1+02101+01401999999ADDMA1103491999999REMMET052METAR GMTT 011400Z AUTO 06006KT 030V100 21/14 Q1035;
0071601010999992007010114304+35733-005900FM-15+0021GMTT V0200501N004112200019N9999999N1+02001+01401999999ADDMA1103491999999REMMET044METAR GMTT 011430Z AUTO 05008KT 20/14 Q1035;
0145601010999992007010115004+35733-005900SY-MT+0021GMTT V0200501N003119999999N9999999N1+01991+01351103511ADDMA1103491999999MD1610251+9999REMSYN054AAXX  01154 60101 36/// /0506 10199 20135 40351 56025;MET044METAR GMTT 011500Z AUTO 05007KT 20/13 Q1035;
0071601010999992007010115304+35733-005900FM-15+0021GMTT V0200301N005712200019N9999999N1+01901+01201999999ADDMA1103491999999REMMET044METAR GMTT 011530Z AUTO 03011KT 19/12 Q1035;
0071601010999992007010116004+35733-005900FM-15+0021GMTT V0200301N004112200019N9999999N1+01801+01201999999ADDMA1103491999999REMMET044METAR GMTT 011600Z AUTO 03008KT 18/12 Q1035;
0071601010999992007010116304+35733-005900FM-15+0021GMTT V0200401N004612200019N9999999N1+01701+01201999999ADDMA1103491999999REMMET044METAR GMTT 011630Z AUTO 04009KT 17/12 Q1035;
0071601010999992007010117004+35733-005900FM-15+0021GMTT V0200401N004112200019N9999999N1+01601+01201999999ADDMA1103491999999REMMET044METAR GMTT 011700Z AUTO 04008KT 16/12 Q1035;
0071601010999992007010117304+35733-005900FM-15+0021GMTT V0200501N001512200019N9999999N1+01501+01101999999ADDMA1103491999999REMMET044METAR GMTT 011730Z AUTO 05003KT 15/11 Q1035;
0176601010999992007010118004+35733-005900SY-MT+0021GMTT V0200101N002119999999N9999999N1+01341+00981103591ADDKA1999M+02051MA1103491999999MD1310071+9999REMSYN064AAXX  01184 60101 36/// /0104 10134 20098 40359 53007 333 10205;MET052METAR GMTT 011800Z AUTO 01004KT 340V070 14/10 Q1035;
0071601010999992007010118304+35733-005900FM-15+0021GMTT V0200401N001012200019N9999999N1+01201+00901999999ADDMA1103491999999REMMET044METAR GMTT 011830Z AUTO 04002KT 12/09 Q1035;
0071601010999992007010119004+35733-005900FM-15+0021GMTT V0201301N000512200019N9999999N1+01201+01001999999ADDMA1103591999999REMMET044METAR GMTT 011900Z AUTO 13001KT 12/10 Q1036;
0071601010999992007010119304+35733-005900FM-15+0021GMTT V0201401N001012200019N9999999N1+01001+00701999999ADDMA1103591999999REMMET044METAR GMTT 011930Z AUTO 14002KT 10/07 Q1036;
0071601010999992007010120004+35733-005900FM-15+0021GMTT V0200901N001012200019N9999999N1+00901+00801999999ADDMA1103591999999REMMET044METAR GMTT 012000Z AUTO 09002KT 09/08 Q1036;
0071601010999992007010120304+35733-005900FM-15+0021GMTT V0200701N001512200019N9999999N1+00801+00701999999ADDMA1103591999999REMMET044METAR GMTT 012030Z AUTO 07003KT 08/07 Q1036;
0145601010999992007010121004+35733-005900SY-MT+0021GMTT V0200701N001519999999N9999999N1+00831+00711103641ADDMA1103591999999MD1110031+9999REMSYN054AAXX  01214 60101 36/// /0703 10083 20071 40364 51003;MET044METAR GMTT 012100Z AUTO 08003KT 08/07 Q1036;
0071601010999992007010121304+35733-005900FM-15+0021GMTT V0200501N001012200019N9999999N1+00801+00701999999ADDMA1103591999999REMMET044METAR GMTT 012130Z AUTO 05002KT 08/07 Q1036;
0071601010999992007010122004+35733-005900FM-15+0021GMTT V0201101N001512200019N9999999N1+00801+00701999999ADDMA1103591999999REMMET044METAR GMTT 012200Z AUTO 11003KT 08/07 Q1036;
0071601010999992007010122304+35733-005900FM-15+0021GMTT V0200601N001512200019N9999999N1+00801+00701999999ADDMA1103591999999REMMET044METAR GMTT 012230Z AUTO 06003KT 08/07 Q1036;
0071601010999992007010123004+35733-005900FM-15+0021GMTT V0200801N000512200019N9999999N1+00801+00701999999ADDMA1103591999999REMMET044METAR GMTT 012300Z AUTO 08001KT 08/07 Q1036;
0071601010999992007010123304+35733-005900FM-15+0021GMTT V0200501N001012200019N9999999N1+00701+00601999999ADDMA1103591999999REMMET044METAR GMTT 012330Z AUTO 05002KT 07/06 Q1036;
0151601010999992007010200004+35733-005900SY-MT+0021GMTT V0201101N001519999999N9999999N1+00701+00611103611ADDMA1103591999999MD1110031+9999REMSYN060AAXX  02004 60101 36/// /1103 10070 20061 40361 51003 92354;MET044METAR GMTT 020000Z AUTO VRB03KT 07/06 Q1036;
0071601010999992007010200304+35733-005900FM-15+0021GMTT V0200901N001012200019N9999999N1+00701+00601999999ADDMA1103491999999REMMET044METAR GMTT 020030Z AUTO 09002KT 07/06 Q1035;
0071601010999992007010201004+35733-005900FM-15+0021GMTT V0200401N001012200019N9999999N1+00601+00501999999ADDMA1103491999999REMMET044METAR GMTT 020100Z AUTO 04002KT 06/05 Q1035;
0071601010999992007010201304+35733-005900FM-15+0021GMTT V0201001N001512200019N9999999N1+00601+00501999999ADDMA1103491999999REMMET044METAR GMTT 020130Z AUTO 10003KT 06/05 Q1035;
0071601010999992007010202004+35733-005900FM-15+0021GMTT V0200901N001512200019N9999999N1+00601+00601999999ADDMA1103491999999REMMET044METAR GMTT 020200Z AUTO 09003KT 06/06 Q1035;
0071601010999992007010202304+35733-005900FM-15+0021GMTT V0200801N001012200019N9999999N1+00601+00501999999ADDMA1103491999999REMMET044METAR GMTT 020230Z AUTO 08002KT 06/05 Q1035;
0145601010999992007010203004+35733-005900SY-MT+0021GMTT V0200801N001519999999N9999999N1+00581+00501103541ADDMA1103491999999MD1610081+9999REMSYN054AAXX  02034 60101 36/// /0803 10058 20050 40354 56008;MET044METAR GMTT 020300Z AUTO 08003KT 06/05 Q1035;
0071601010999992007010203304+35733-005900FM-15+0021GMTT V0200801N001512200019N9999999N1+00601+00501999999ADDMA1103491999999REMMET044METAR GMTT 020330Z AUTO 08003KT 06/05 Q1035;
0079601010999992007010204004+35733-005900FM-15+0021GMTT V0200901N002112200019N9999999N1+00601+00501999999ADDMA1103491999999REMMET052METAR GMTT 020400Z AUTO 09004KT 040V110 06/05 Q1035;
0071601010999992007010204304+35733-005900FM-15+0021GMTT V0200801N001512200019N9999999N1+00601+00501999999ADDMA1103491999999REMMET044METAR GMTT 020430Z AUTO 08003KT 06/05 Q1035;
0071601010999992007010205004+35733-005900FM-15+0021GMTT V0201101N003112200019N9999999N1+00601+00501999999ADDMA1103491999999REMMET044METAR GMTT 020500Z AUTO 11006KT 06/05 Q1035;
0071601010999992007010205304+35733-005900FM-15+0021GMTT V0200601N002112200019N9999999N1+00601+00501999999ADDMA1103391999999REMMET044METAR GMTT 020530Z AUTO 06004KT 06/05 Q1034;
0168601010999992007010206004+35733-005900SY-MT+0021GMTT V0200801N000519999999N9999999N1+00551+00471103501ADDKA1999N+00571MA1103391999999MD1810071+9999REMSYN064AAXX  02064 60101 36/// /0801 10055 20047 40350 58007 333 20057;MET044METAR GMTT 020600Z AUTO 08001KT 06/05 Q1034;
0071601010999992007010206304+35733-005900FM-15+0021GMTT V0200401N001512200019N9999999N1+00601+00501999999ADDMA1103491999999REMMET044METAR GMTT 020630Z AUTO 04003KT 06/05 Q1035;
0071601010999992007010207004+35733-005900FM-15+0021GMTT V0200501N001512200019N9999999N1+00601+00501999999ADDMA1103491999999REMMET044METAR GMTT 020700Z AUTO 05003KT 06/05 Q1035;
0071601010999992007010207304+35733-005900FM-15+0021GMTT V0201001N000512200019N9999999N1+00801+00701999999ADDMA1103491999999REMMET044METAR GMTT 020730Z AUTO 10001KT 08/07 Q1035;
0079601010999992007010208004+35733-005900FM-15+0021GMTT V0201001N002112200019N9999999N1+00701+00601999999ADDMA1103491999999REMMET052METAR GMTT 020800Z AUTO 10004KT 060V130 07/06 Q1035;
0071601010999992007010208304+35733-005900FM-15+0021GMTT V0200901N001512200019N9999999N1+00901+00801999999ADDMA1103491999999REMMET044METAR GMTT 020830Z AUTO 09003KT 09/08 Q1035;
0183601010999992007010209004+35733-005900SY-MT+0021GMTT V0201101N002619999999Y0150001N1+01011+00951103641ADDGF100991001001999999001001MA1103591999999MD1310071+9999REMSYN054AAXX  02094 60101 46965 01105 10101 20095 40364 53007;MET056METAR GMTT 020900Z AUTO 11005KT CAVOK 10/09 Q1036 NOSIG;
0083601010999992007010209304+35733-005900FM-15+0021GMTT V0201101N00311999999CY0099001N1+01101+01001999999ADDMA1103591999999REMMET056METAR GMTT 020930Z AUTO 11006KT CAVOK 11/10 Q1036 NOSIG;
0071601010999992007010210004+35733-005900FM-15+0021GMTT V0201101N004112200019N9999999N1+01201+01101999999ADDMA1103691999999REMMET044METAR GMTT 021000Z AUTO 11008KT 12/11 Q1037;
0071601010999992007010210304+35733-005900FM-15+0021GMTT V0201101N003112200019N9999999N1+01401+01201999999ADDMA1103691999999REMMET044METAR GMTT 021030Z AUTO 11006KT 14/12 Q1037;
0079601010999992007010211004+35733-005900FM-15+0021GMTT V0201201N002112200019N9999999N1+01701+01301999999ADDMA1103591999999REMMET052METAR GMTT 021100Z AUTO 12004KT 090V150 17/13 Q1036;
0085601010999992007010211304+35733-005900AUTO +0021GMTT V0200601N002612200019N9999999N1+01801+01301999999ADDMA1103601999999REMMET058METAR GMTT 021130Z AUTO 06005KT 010V100 R28/N 18/13 Q1036;
0189601010999992007010212004+35733-005900SY-MT+0021GMTT V0200601N003119999999N9999999N1+01831+01311103601ADDAA106000091MA1103591999999MD1010121+9999REMSYN060AAXX  02124 60101 16/// /0606 10183 20131 40360 50012 69921;MET052METAR GMTT 021200Z AUTO 06006KT 030V090 18/13 Q1036;EQDQ01  00002PRCP06
0079601010999992007010212304+35733-005900FM-15+0021GMTT V0200501N003112200019N9999999N1+01901+01401999999ADDMA1103491999999REMMET052METAR GMTT 021230Z AUTO 05006KT 010V100 19/14 Q1035;
0071601010999992007010213004+35733-005900FM-15+0021GMTT V0200501N004112200019N9999999N1+01901+01401999999ADDMA1103491999999REMMET044METAR GMTT 021300Z AUTO 05008KT 19/14 Q1035;
0090601010999992007010213304+35733-005900FM-15+0021GMTT V0201001N002112200019N9999999N1+01901+01401999999ADDMA1103391999999OC100721REMMET055METAR GMTT 021330Z AUTO 10004G14KT 030V240 19/14 Q1034;
0082601010999992007010214004+35733-005900FM-15+0021GMTT V0201101N001512200019N9999999N1+01901+01401999999ADDMA1103391999999OC100721REMMET047METAR GMTT 021400Z AUTO 11003G14KT 19/14 Q1034;
0083601010999992007010214304+35733-005900FM-15+0021GMTT V0200401N00511999999CY0099001N1+01901+01401999999ADDMA1103391999999REMMET056METAR GMTT 021430Z AUTO 04010KT CAVOK 19/14 Q1034 NOSIG;
0157601010999992007010215004+35733-005900SY-MT+0021GMTT V0200401N005119999999Y0100001N1+01961+01311103411ADDMA1103391999999MD1610241+9999REMSYN054AAXX  02154 60101 36960 /0410 10196 20131 40341 56024;MET056METAR GMTT 021500Z AUTO 04010KT CAVOK 20/13 Q1034 NOSIG;
0071601010999992007010215304+35733-005900FM-15+0021GMTT V0200401N004112200019N9999999N1+01901+01301999999ADDMA1103391999999REMMET044METAR GMTT 021530Z AUTO 04008KT 19/13 Q1034;
0071601010999992007010216004+35733-005900FM-15+0021GMTT V0200501N005712200019N9999999N1+01801+01201999999ADDMA1103391999999REMMET044METAR GMTT 021600Z AUTO 05011KT 18/12 Q1034;
0071601010999992007010216304+35733-005900FM-15+0021GMTT V0200501N006212200019N9999999N1+01701+01201999999ADDMA1103391999999REMMET044METAR GMTT 021630Z AUTO 05012KT 17/12 Q1034;
0071601010999992007010217004+35733-005900FM-15+0021GMTT V0200601N007712200019N9999999N1+01601+01101999999ADDMA1103391999999REMMET044METAR GMTT 021700Z AUTO 06015KT 16/11 Q1034;
0071601010999992007010217304+35733-005900FM-15+0021GMTT V0200501N004612200019N9999999N1+01501+01101999999ADDMA1103391999999REMMET044METAR GMTT 021730Z AUTO 05009KT 15/11 Q1034;
0204601010999992007010218004+35733-005900SY-MT+0021GMTT V0200701N006219999999N9999999N1+01511+00961103461ADDAA112000091KA1999M+01961MA1103391999999MD1510001+9999REMSYN070AAXX  02184 60101 16/// /0712 10151 20096 40346 55000 69922 333 10196;MET044METAR GMTT 021800Z AUTO 07012KT 15/10 Q1034;EQDQ01  00002PRCP12
0071601010999992007010218304+35733-005900FM-15+0021GMTT V0200701N005112200019N9999999N1+01501+00901999999ADDMA1103491999999REMMET044METAR GMTT 021830Z AUTO 07010KT 15/09 Q1035;
0071601010999992007010219004+35733-005900FM-15+0021GMTT V0200701N004112200019N9999999N1+01401+01001999999ADDMA1103491999999REMMET044METAR GMTT 021900Z AUTO 07008KT 14/10 Q1035;
0071601010999992007010219304+35733-005900FM-15+0021GMTT V0200801N004612200019N9999999N1+01401+01001999999ADDMA1103491999999REMMET044METAR GMTT 021930Z AUTO 08009KT 14/10 Q1035;
0071601010999992007010220004+35733-005900FM-15+0021GMTT V0200701N005112200019N9999999N1+01401+01001999999ADDMA1103491999999REMMET044METAR GMTT 022000Z AUTO 07010KT 14/10 Q1035;
0071601010999992007010220304+35733-005900FM-15+0021GMTT V0200801N005712200019N9999999N1+01401+01001999999ADDMA1103491999999REMMET044METAR GMTT 022030Z AUTO 08011KT 14/10 Q1035;
0145601010999992007010221004+35733-005900SY-MT+0021GMTT V0200801N004619999999N9999999N1+01311+00931103511ADDMA1103491999999MD1010071+9999REMSYN054AAXX  02214 60101 36/// /0809 10131 20093 40351 50007;MET044METAR GMTT 022100Z AUTO 08010KT 13/09 Q1035;
0071601010999992007010221304+35733-005900FM-15+0021GMTT V0200801N006212200019N9999999N1+01401+00901999999ADDMA1103491999999REMMET044METAR GMTT 022130Z AUTO 08012KT 14/09 Q1035;
0071601010999992007010222004+35733-005900FM-15+0021GMTT V0200801N006712200019N9999999N1+01501+00801999999ADDMA1103491999999REMMET044METAR GMTT 022200Z AUTO 08013KT 15/08 Q1035;
0071601010999992007010222304+35733-005900FM-15+0021GMTT V0200701N006212200019N9999999N1+01501+00801999999ADDMA1103491999999REMMET044METAR GMTT 022230Z AUTO 07012KT 15/08 Q1035;
0071601010999992007010223004+35733-005900FM-15+0021GMTT V0200801N005712200019N9999999N1+01401+00901999999ADDMA1103491999999REMMET044METAR GMTT 022300Z AUTO 08011KT 14/09 Q1035;
0071601010999992007010223304+35733-005900FM-15+0021GMTT V0200901N004612200019N9999999N1+01301+00901999999ADDMA1103491999999REMMET044METAR GMTT 022330Z AUTO 09009KT 13/09 Q1035;
0151601010999992007010300004+35733-005900SY-MT+0021GMTT V0201201N005119999999N9999999N1+01191+00851103501ADDMA1103491999999MD1310011+9999REMSYN060AAXX  03004 60101 36/// /1210 10119 20085 40350 53001 92354;MET044METAR GMTT 030000Z AUTO 12009KT 12/09 Q1035;
0071601010999992007010300304+35733-005900FM-15+0021GMTT V0201001N006212200019N9999999N1+01201+00901999999ADDMA1103391999999REMMET044METAR GMTT 030030Z AUTO 10012KT 12/09 Q1034;
0071601010999992007010301004+35733-005900FM-15+0021GMTT V0200901N006212200019N9999999N1+01201+01001999999ADDMA1103391999999REMMET044METAR GMTT 030100Z AUTO 09012KT 12/10 Q1034;
0071601010999992007010301304+35733-005900FM-15+0021GMTT V0200901N006212200019N9999999N1+01201+01001999999ADDMA1103391999999REMMET044METAR GMTT 030130Z AUTO 09012KT 12/10 Q1034;
0071601010999992007010302004+35733-005900FM-15+0021GMTT V0200901N005112200019N9999999N1+01201+01001999999ADDMA1103391999999REMMET044METAR GMTT 030200Z AUTO 09010KT 12/10 Q1034;
0071601010999992007010302304+35733-005900FM-15+0021GMTT V0200901N006212200019N9999999N1+01201+01001999999ADDMA1103391999999REMMET044METAR GMTT 030230Z AUTO 09012KT 12/10 Q1034;
0145601010999992007010303004+35733-005900SY-MT+0021GMTT V0200901N004619999999N9999999N1+01191+00931103451ADDMA1103391999999MD1510071+9999REMSYN054AAXX  03034 60101 36/// /0909 10119 20093 40345 55007;MET044METAR GMTT 030300Z AUTO 09009KT 12/09 Q1034;
0071601010999992007010303304+35733-005900FM-15+0021GMTT V0200801N005112200019N9999999N1+01101+00901999999ADDMA1103391999999REMMET044METAR GMTT 030330Z AUTO 08010KT 11/09 Q1034;
0071601010999992007010304004+35733-005900FM-15+0021GMTT V0200801N005112200019N9999999N1+01201+00901999999ADDMA1103391999999REMMET044METAR GMTT 030400Z AUTO 08010KT 12/09 Q1034;
0071601010999992007010304304+35733-005900FM-15+0021GMTT V0200801N004612200019N9999999N1+01101+00901999999ADDMA1103391999999REMMET044METAR GMTT 030430Z AUTO 08009KT 11/09 Q1034;
0071601010999992007010305004+35733-005900FM-15+0021GMTT V0200801N005112200019N9999999N1+01201+01001999999ADDMA1103391999999REMMET044METAR GMTT 030500Z AUTO 08010KT 12/10 Q1034;
0071601010999992007010305304+35733-005900FM-15+0021GMTT V0200801N004612200019N9999999N1+01101+01001999999ADDMA1103391999999REMMET044METAR GMTT 030530Z AUTO 08009KT 11/10 Q1034;
0204601010999992007010306004+35733-005900SY-MT+0021GMTT V0200801N005719999999N9999999N1+01171+01001103421ADDAA124000091KA1999N+01131MA1103391999999MD1510031+9999REMSYN070AAXX  03064 60101 16/// /0811 10117 20100 40342 55003 69924 333 20113;MET044METAR GMTT 030600Z AUTO 08011KT 12/10 Q1034;EQDQ01  00002PRCP24
0071601010999992007010306304+35733-005900FM-15+0021GMTT V0201001N004112200019N9999999N1+01101+00901999999ADDMA1103391999999REMMET044METAR GMTT 030630Z AUTO 10008KT 11/09 Q1034;
0071601010999992007010307004+35733-005900FM-15+0021GMTT V0200801N004112200019N9999999N1+01001+00901999999ADDMA1103391999999REMMET044METAR GMTT 030700Z AUTO 08008KT 10/09 Q1034;
0071601010999992007010307304+35733-005900FM-15+0021GMTT V0200601N004112200019N9999999N1+01101+00901999999ADDMA1103391999999REMMET044METAR GMTT 030730Z AUTO 06008KT 11/09 Q1034;
0071601010999992007010308004+35733-005900FM-15+0021GMTT V0200901N004112200019N9999999N1+01101+00901999999ADDMA1103391999999REMMET044METAR GMTT 030800Z AUTO 09008KT 11/09 Q1034;
0071601010999992007010308304+35733-005900FM-15+0021GMTT V0200801N004112200019N9999999N1+01201+00901999999ADDMA1103391999999REMMET044METAR GMTT 030830Z AUTO 08008KT 12/09 Q1034;
0145601010999992007010309004+35733-005900SY-MT+0021GMTT V0200901N004119999999N9999999N1+01331+01051103471ADDMA1103391999999MD1010001+9999REMSYN054AAXX  03094 60101 36/// /0908 10133 20105 40347 50000;MET044METAR GMTT 030900Z AUTO 09008KT 13/11 Q1034;
0071601010999992007010309304+35733-005900FM-15+0021GMTT V0200801N004112200019N9999999N1+01501+01101999999ADDMA1103391999999REMMET044METAR GMTT 030930Z AUTO 08008KT 15/11 Q1034;
0077601010999992007010310004+35733-005900FM-15+0021GMTT V0200901N00411999999CY0099001N1+01601+01201999999ADDMA1103491999999REMMET050METAR GMTT 031000Z AUTO 09008KT CAVOK 16/12 Q1035;
0077601010999992007010310304+35733-005900FM-15+0021GMTT V0201001N00411999999CY0099001N1+01701+01201999999ADDMA1103491999999REMMET050METAR GMTT 031030Z AUTO 10008KT CAVOK 17/12 Q1035;
0077601010999992007010311004+35733-005900FM-15+0021GMTT V0201101N00511999999CY0099001N1+01801+01201999999ADDMA1103391999999REMMET050METAR GMTT 031100Z AUTO 11010KT CAVOK 18/12 Q1034;
0077601010999992007010311304+35733-005900FM-15+0021GMTT V0201101N00461999999CY0099001N1+02001+01201999999ADDMA1103391999999REMMET050METAR GMTT 031130Z AUTO 11009KT CAVOK 20/12 Q1034;
0151601010999992007010312004+35733-005900SY-MT+0021GMTT V0201101N004619999999Y0100001N1+02051+01131103391ADDMA1103291999999MD1010061+9999REMSYN054AAXX  03124 60101 36960 /1109 10205 20113 40339 50006;MET050METAR GMTT 031200Z AUTO 11009KT CAVOK 21/12 Q1033;
0085601010999992007010312304+35733-005900FM-15+0021GMTT V0201301N00361999999CY0099001N1+02101+01101999999ADDMA1103291999999REMMET058METAR GMTT 031230Z AUTO 13007KT 100V160 CAVOK 21/11 Q1033;
0079601010999992007010313004+35733-005900FM-15+0021GMTT V0201201N004112200019N9999999N1+02201+01101999999ADDMA1103291999999REMMET052METAR GMTT 031300Z AUTO 12008KT 100V170 22/11 Q1033;
0079601010999992007010313304+35733-005900FM-15+0021GMTT V0202701N003612200019N9999999N1+02001+01301999999ADDMA1103291999999REMMET052METAR GMTT 031330Z AUTO 27007KT 230V310 20/13 Q1033;
0071601010999992007010314004+35733-005900FM-15+0021GMTT V0202601N003112200019N9999999N1+01901+01201999999ADDMA1103181999999REMMET044METAR GMTT 031400Z AUTO 26006KT 19/12 Q1032;
0071601010999992007010314304+35733-005900FM-15+0021GMTT V0202601N002612200019N9999999N1+01901+01201999999ADDMA1103181999999REMMET044METAR GMTT 031430Z AUTO 26005KT 19/12 Q1032;
0145601010999992007010315004+35733-005900SY-MT+0021GMTT V0202301N002619999999N9999999N1+01961+01171103271ADDMA1103181999999MD1610201+9999REMSYN054AAXX  03154 60101 36/// /2305 10196 20117 40327 56020;MET044METAR GMTT 031500Z AUTO 23005KT 20/12 Q1032;
0071601010999992007010315304+35733-005900FM-15+0021GMTT V0202501N002112200019N9999999N1+02001+01301999999ADDMA1103181999999REMMET044METAR GMTT 031530Z AUTO 25004KT 20/13 Q1032;
0071601010999992007010316004+35733-005900FM-15+0021GMTT V0202701N002612200019N9999999N1+01801+01201999999ADDMA1103181999999REMMET044METAR GMTT 031600Z AUTO 27005KT 18/12 Q1032;
0071601010999992007010316304+35733-005900FM-15+0021GMTT V0202701N001512200019N9999999N1+01801+01201999999ADDMA1103181999999REMMET044METAR GMTT 031630Z AUTO 27003KT 18/12 Q1032;
0071601010999992007010317004+35733-005900FM-15+0021GMTT V0209999C000012200019N9999999N1+01801+01201999999ADDMA1103181999999REMMET044METAR GMTT 031700Z AUTO 00000KT 18/12 Q1032;
0071601010999992007010317304+35733-005900FM-15+0021GMTT V0209999C000012200019N9999999N1+01501+01101999999ADDMA1103181999999REMMET044METAR GMTT 031730Z AUTO 00000KT 15/11 Q1032;
0176601010999992007010318004+35733-005900SY-MT+0021GMTT V0200801N001519999999N9999999N1+01231+00981103291ADDKA1999M+02221MA1103181999999MD1610011+9999REMSYN064AAXX  03184 60101 36/// /0803 10123 20098 40329 56001 333 10222;MET052METAR GMTT 031800Z AUTO 07004KT 040V110 12/10 Q1032;
0071601010999992007010318304+35733-005900FM-15+0021GMTT V0209999C000012200019N9999999N1+01101+00901999999ADDMA1103291999999REMMET044METAR GMTT 031830Z AUTO 00000KT 11/09 Q1033;
0071601010999992007010319004+35733-005900FM-15+0021GMTT V0200701N001512200019N9999999N1+01001+00801999999ADDMA1103291999999REMMET044METAR GMTT 031900Z AUTO 07003KT 10/08 Q1033;
0071601010999992007010319304+35733-005900FM-15+0021GMTT V0201101N001512200019N9999999N1+01001+00801999999ADDMA1103291999999REMMET044METAR GMTT 031930Z AUTO 11003KT 10/08 Q1033;
0071601010999992007010320004+35733-005900FM-15+0021GMTT V0201001N002612200019N9999999N1+01001+00901999999ADDMA1103291999999REMMET044METAR GMTT 032000Z AUTO 10005KT 10/09 Q1033;
0071601010999992007010320304+35733-005900FM-15+0021GMTT V0200801N002612200019N9999999N1+01001+00901999999ADDMA1103291999999REMMET044METAR GMTT 032030Z AUTO 08005KT 10/09 Q1033;
0145601010999992007010321004+35733-005900SY-MT+0021GMTT V0200701N002619999999N9999999N1+01041+00921103311ADDMA1103291999999MD1010051+9999REMSYN054AAXX  03214 60101 36/// /0705 10104 20092 40331 50005;MET044METAR GMTT 032100Z AUTO 07005KT 10/09 Q1033;
0071601010999992007010321304+35733-005900FM-15+0021GMTT V0200901N002612200019N9999999N1+01001+00801999999ADDMA1103291999999REMMET044METAR GMTT 032130Z AUTO 09005KT 10/08 Q1033;
0071601010999992007010322004+35733-005900FM-15+0021GMTT V0200701N002612200019N9999999N1+01001+00901999999ADDMA1103291999999REMMET044METAR GMTT 032200Z AUTO 07005KT 10/09 Q1033;
0071601010999992007010322304+35733-005900FM-15+0021GMTT V0200701N002612200019N9999999N1+01001+00801999999ADDMA1103291999999REMMET044METAR GMTT 032230Z AUTO 07005KT 10/08 Q1033;
0071601010999992007010323004+35733-005900FM-15+0021GMTT V0200701N003112200019N9999999N1+01001+00801999999ADDMA1103291999999REMMET044METAR GMTT 032300Z AUTO 07006KT 10/08 Q1033;
0071601010999992007010323304+35733-005900FM-15+0021GMTT V0200701N002612200019N9999999N1+00901+00701999999ADDMA1103291999999REMMET044METAR GMTT 032330Z AUTO 07005KT 09/07 Q1033;
0151601010999992007010400004+35733-005900SY-MT+0021GMTT V0200701N001019999999N9999999N1+00741+00581103331ADDMA1103291999999MD1310021+9999REMSYN060AAXX  04004 60101 36/// /0702 10074 20058 40333 53002 92354;MET044METAR GMTT 040000Z AUTO 06002KT 08/06 Q1033;
0071601010999992007010400304+35733-005900FM-15+0021GMTT V0201401N001512200019N9999999N1+00701+00601999999ADDMA1103181999999REMMET044METAR GMTT 040030Z AUTO 14003KT 07/06 Q1032;
0071601010999992007010401004+35733-005900FM-15+0021GMTT V0200701N001012200019N9999999N1+00601+00501999999ADDMA1103181999999REMMET044METAR GMTT 040100Z AUTO 07002KT 06/05 Q1032;
0071601010999992007010401304+35733-005900FM-15+0021GMTT V0200301N001512200019N9999999N1+00501+00401999999ADDMA1103181999999REMMET044METAR GMTT 040130Z AUTO 03003KT 05/04 Q1032;
0071601010999992007010402004+35733-005900FM-15+0021GMTT V0201101N001512200019N9999999N1+00601+00501999999ADDMA1103181999999REMMET044METAR GMTT 040200Z AUTO 11003KT 06/05 Q1032;
0071601010999992007010402304+35733-005900FM-15+0021GMTT V0200701N001012200019N9999999N1+00601+00501999999ADDMA1103181999999REMMET044METAR GMTT 040230Z AUTO 07002KT 06/05 Q1032;
0145601010999992007010403004+35733-005900SY-MT+0021GMTT V0200701N000519999999N9999999N1+00511+00421103311ADDMA1103181999999MD1510081+9999REMSYN054AAXX  04034 60101 36/// /0701 10051 20042 40331 55008;MET044METAR GMTT 040300Z AUTO 08001KT 05/04 Q1032;
0071601010999992007010403304+35733-005900FM-15+0021GMTT V0202301N000512200019N9999999N1+00501+00401999999ADDMA1103291999999REMMET044METAR GMTT 040330Z AUTO 23001KT 05/04 Q1033;
0071601010999992007010404004+35733-005900FM-15+0021GMTT V0201801N001512200019N9999999N1+00601+00601999999ADDMA1103291999999REMMET044METAR GMTT 040400Z AUTO 18003KT 06/06 Q1033;
0097601010999992007010404304+35733-005900AUTO +0021GMTT V0200701N001112200019N9999999N1+00801+00801999999ADDED128U09009MA1103301999999REMMET059METAR GMTT 040430Z AUTO 07002KT R28/0900V1300D 08/08 Q1033;
0071601010999992007010405004+35733-005900FM-15+0021GMTT V0201201N001012200019N9999999N1+01001+00901999999ADDMA1103291999999REMMET044METAR GMTT 040500Z AUTO 12002KT 10/09 Q1033;
0071601010999992007010405304+35733-005900FM-15+0021GMTT V0201101N002112200019N9999999N1+01001+00901999999ADDMA1103291999999REMMET044METAR GMTT 040530Z AUTO 11004KT 10/09 Q1033;
0204601010999992007010406004+35733-005900SY-MT+0021GMTT V0201401N001019999999N9999999N1+01081+01031103301ADDAA124000091KA1999N+00431MA1103291999999MD1110061+9999REMSYN070AAXX  04064 60101 16/// /1402 10108 20103 40330 51006 69924 333 20043;MET044METAR GMTT 040600Z AUTO 14002KT 11/10 Q1033;EQDQ01  00002PRCP24
0079601010999992007010406304+35733-005900FM-15+0021GMTT V0201001N002612200019N9999999N1+01001+00901999999ADDMA1103291999999REMMET052METAR GMTT 040630Z AUTO 10005KT 060V120 10/09 Q1033;
0071601010999992007010407004+35733-005900FM-15+0021GMTT V0201001N002612200019N9999999N1+00901+00801999999ADDMA1103291999999REMMET044METAR GMTT 040700Z AUTO 10005KT 09/08 Q1033;
0097601010999992007010407304+35733-005900AUTO +0021GMTT V0200701N001112200019N9999999N1+00901+00901999999ADDED128U12009MA1103301999999REMMET059METAR GMTT 040730Z AUTO 07002KT R28/1200V1400D 09/09 Q1033;
0097601010999992007010408004+35733-005900AUTO +0021GMTT V0200601N000612200019N9999999N1+01001+00901999999ADDED128U02509MA1103301999999REMMET059METAR GMTT 040800Z AUTO 06001KT R28/0250V0300U 10/09 Q1033;
0097601010999992007010408304+35733-005900AUTO +0021GMTT V0201701N001612200019N9999999N1+00901+00901999999ADDED128U02509MA1103301999999REMMET059METAR GMTT 040830Z AUTO 17003KT R28/0250V0350D 09/09 Q1033;
0171601010999992007010409004+35733-005900SY-MT+0021GMTT V0200901N001019999999N9999999N1+00911+00861103421ADDED128U05009MA1103401999999MD1310051+9999REMSYN054AAXX  04094 60101 36/// /0902 10091 20086 40342 53005;MET059METAR GMTT 040900Z AUTO 09002KT R28/0500V0800D 09/09 Q1034;
0137601010999992007010409304+35733-005900AUTO +0021GMTT V0201001N002119999999N9999999N1+00901+00901999999ADDED128U11009KA1999M+99999MA1103401999999REMMET067METAR GMTT 040930Z AUTO 10004KT 060V130 R28/1100VP2000 09/09 Q1034;EQDQ01 +00042ATMX  
0071601010999992007010410004+35733-005900FM-15+0021GMTT V0201101N001012200019N9999999N1+01101+01001999999ADDMA1103391999999REMMET044METAR GMTT 041000Z AUTO 11002KT 11/10 Q1034;
0125601010999992007010410304+35733-005900FM-15+0021GMTT V0202401N00051003001CN0030001N1+01201+01201999999ADDGA1075+003001999GF107991999999999999999999MA1103391999999REMMET056METAR GMTT 041030Z AUTO 24001KT 3000 BKN010 12/12 Q1034;
0125601010999992007010411004+35733-005900FM-15+0021GMTT V0202301N001512200019N0112651N1+01301+01301999999ADDGA1045+004801999GF104991999999999999999999MA1103391999999REMMET056METAR GMTT 041100Z AUTO 23003KT 9999 SCT016 13/13 Q1034;
0125601010999992007010411304+35733-005900FM-15+0021GMTT V0202501N001512200019N0112651N1+01501+01401999999ADDGA1045+004801999GF104991999999999999999999MA1103391999999REMMET056METAR GMTT 041130Z AUTO 25003KT 9999 SCT016 15/14 Q1034;
0153601010999992007010412004+35733-005900SY-MT+0021GMTT V0202601N002119999999N9999999N1+01611+01331103381ADDMA1103291999999MD1110081+9999REMSYN054AAXX  04124 60101 36/// /2604 10161 20133 40338 51008;MET052METAR GMTT 041200Z AUTO 25004KT 210V300 16/13 Q1033;
0128601010999992007010412304+35733-005900FM-15+0021GMTT V0202401N002612200019N0112651N1+01701+01401999999ADDGA1025+004801999GF102991999999999999999999MA1103291999999REMMET059METAR GMTT 041230Z 24005KT 160V260 9999 FEW016 17/14 Q1033;
0125601010999992007010412354+35733-005900AUTO +0021GMTT V0202601N003112200019N0112651N1+01701+01301999999ADDGA1021+004801999GF102991999999999999999999MA1103291999999REMMET056METAR GMTT 041235Z AUTO 26006KT 9999 FEW016 17/13 Q1033;
0125601010999992007010413004+35733-005900FM-15+0021GMTT V0202601N003612200019N0112651N1+01701+01301999999ADDGA1025+006901999GF102991999999999999999999MA1103291999999REMMET056METAR GMTT 041300Z AUTO 26007KT 9999 FEW023 17/13 Q1033;
0077601010999992007010413304+35733-005900FM-15+0021GMTT V0202601N00261999999CY0099001N1+01701+01301999999ADDMA1103181999999REMMET050METAR GMTT 041330Z AUTO 26005KT CAVOK 17/13 Q1032;
0077601010999992007010414004+35733-005900FM-15+0021GMTT V0202601N00311999999CY0099001N1+01801+01301999999ADDMA1103181999999REMMET050METAR GMTT 041400Z AUTO 26006KT CAVOK 18/13 Q1032;
0077601010999992007010414304+35733-005900FM-15+0021GMTT V0202701N00361999999CY0099001N1+01701+01301999999ADDMA1103181999999REMMET050METAR GMTT 041430Z AUTO 27007KT CAVOK 17/13 Q1032;
0159601010999992007010415004+35733-005900SY-MT+0021GMTT V0202601N003119999999N9999999N1+01731+01361103261ADDMA1103181999999MD1610201+9999REMSYN054AAXX  04154 60101 36/// /2606 10173 20136 40326 56020;MET058METAR GMTT 041500Z AUTO 26006KT 230V290 R28/N 17/13 Q1032;
0077601010999992007010415304+35733-005900AUTO +0021GMTT V0202601N002612200019N9999999N1+01701+01301999999ADDMA1103201999999REMMET050METAR GMTT 041530Z AUTO 26005KT R28/N 17/13 Q1032;
0071601010999992007010415304+35733-005900FM-15+0021GMTT V0202601N002612200019N9999999N1+01701+01301999999ADDMA1103181999999REMMET044METAR GMTT 041530Z AUTO 26005KT 17/13 Q1032;
0071601010999992007010416004+35733-005900FM-15+0021GMTT V0202401N002612200019N9999999N1+01701+01401999999ADDMA1103181999999REMMET044METAR GMTT 041600Z AUTO 24005KT 17/14 Q1032;
0079601010999992007010416304+35733-005900FM-15+0021GMTT V0202501N002112200019N9999999N1+01601+01301999999ADDMA1103181999999REMMET052METAR GMTT 041630Z AUTO 25004KT 220V310 16/13 Q1032;
0085601010999992007010417004+35733-005900AUTO +0021GMTT V0202501N002112200019N9999999N1+01601+01301999999ADDMA1103201999999REMMET058METAR GMTT 041700Z AUTO 25004KT 220V310 R28/N 16/13 Q1032;
0077601010999992007010417304+35733-005900AUTO +0021GMTT V0202801N000612200019N9999999N1+01401+01201999999ADDMA1103201999999REMMET050METAR GMTT 041730Z AUTO 28001KT R28/N 14/12 Q1032;
0174601010999992007010418004+35733-005900SY-MT+0021GMTT V0202701N001519999999N9999999N1+01211+01011103271ADDKA1999M+01761MA1103201999999MD1410001+9999REMSYN064AAXX  04184 60101 36/// /2703 10121 20101 40327 54000 333 10176;MET050METAR GMTT 041800Z AUTO 27003KT R28/N 12/10 Q1032;
0077601010999992007010418304+35733-005900AUTO +0021GMTT V0209999C000052200019N9999999N1+01001+00801999999ADDMA1103201999999REMMET050METAR GMTT 041830Z AUTO 00000KT R28/N 10/08 Q1032;
0077601010999992007010419004+35733-005900AUTO +0021GMTT V0200201N000612200019N9999999N1+00901+00801999999ADDMA1103301999999REMMET050METAR GMTT 041900Z AUTO 02001KT R28/N 09/08 Q1033;
0077601010999992007010419304+35733-005900AUTO +0021GMTT V0209999C000052200019N9999999N1+00801+00701999999ADDMA1103301999999REMMET050METAR GMTT 041930Z AUTO 00000KT R28/N 08/07 Q1033;
0077601010999992007010420004+35733-005900AUTO +0021GMTT V0209999C000052200019N9999999N1+00801+00701999999ADDMA1103301999999REMMET050METAR GMTT 042000Z AUTO 00000KT R28/N 08/07 Q1033;
0077601010999992007010420304+35733-005900AUTO +0021GMTT V0200901N000612200019N9999999N1+00701+00601999999ADDMA1103301999999REMMET050METAR GMTT 042030Z AUTO 09001KT R28/N 07/06 Q1033;
0151601010999992007010421004+35733-005900SY-MT+0021GMTT V0200401N001019999999N9999999N1+00851+00801103311ADDMA1103301999999MD1110051+9999REMSYN054AAXX  04214 60101 36/// /0402 10085 20080 40331 51005;MET050METAR GMTT 042100Z AUTO 03002KT R28/N 09/08 Q1033;
0077601010999992007010421304+35733-005900AUTO +0021GMTT V0209999C000052200019N9999999N1+00801+00701999999ADDMA1103301999999REMMET050METAR GMTT 042130Z AUTO 00000KT R28/N 08/07 Q1033;
0077601010999992007010422004+35733-005900AUTO +0021GMTT V0200901N002112200019N9999999N1+00801+00801999999ADDMA1103301999999REMMET050METAR GMTT 042200Z AUTO 09004KT R28/N 08/08 Q1033;
0077601010999992007010422304+35733-005900AUTO +0021GMTT V0200701N001612200019N9999999N1+00901+00801999999ADDMA1103301999999REMMET050METAR GMTT 042230Z AUTO 07003KT R28/N 09/08 Q1033;
0120601010999992007010423004+35733-005900FM-15+0021GMTT V0200801N000512200019N0030001N1+00901+00901999999ADDGA1045+004801999GF104991999999999999999999MA1103291999999REMMET051METAR GMTT 042300Z 08001KT 3000 SCT016 09/09 Q1033;
0129601010999992007010423304+35733-005900FM-15+0021GMTT V0200901N001012200019N0030001N1+00901+00801999999ADDGA1045+004801999GF104991999999999999999999MA1103291999999MW1101REMMET054METAR GMTT 042330Z 09002KT 3000 BR SCT016 09/08 Q1033;
0225601010999992007010500004+35733-005900SY-MT+0021GMTT V0200801N001012200019N0030001N1+00981+00941103281ADDGA1045+004801999GF199999031001004501001001MA1103181999999MD1010011+9999MW1101REMSYN076AAXX  05004 60101 33430 20802 10098 20094 40328 50001 83000 92350 333 83716;MET054METAR GMTT 050000Z 09002KT 3000 BR SCT016 10/09 Q1032;
0147601010999992007010500304+35733-005900FM-15+0021GMTT V0200901N001012200019N0020001N1+01101+01001999999ADDAW1101GA1025+003001999GF102991999999999999999999MA1103181999999REMMET072METAR GMTT 050030Z AUTO 09002KT 2000 BR FEW010 11/10 Q1032 TEMPO 500 FG;
0147601010999992007010501004+35733-005900FM-15+0021GMTT V0201101N001012200019N0020001N1+01101+01001999999ADDAW1101GA1025+003001999GF102991999999999999999999MA1103181999999REMMET072METAR GMTT 050100Z AUTO 11002KT 2000 BR FEW010 11/10 Q1032 TEMPO 500 FG;
0147601010999992007010501304+35733-005900FM-15+0021GMTT V0200901N002612200019N0020001N1+01001+01001999999ADDAW1101GA1025+003001999GF102991999999999999999999MA1103181999999REMMET072METAR GMTT 050130Z AUTO 09005KT 2000 BR FEW010 10/10 Q1032 TEMPO 500 FG;
0147601010999992007010502004+35733-005900FM-15+0021GMTT V0201101N002612200019N0020001N1+01001+01001999999ADDAW1101GA1025+003001999GF102991999999999999999999MA1103181999999REMMET072METAR GMTT 050200Z AUTO 11005KT 2000 BR FEW010 10/10 Q1032 TEMPO 500 FG;
0071601010999992007010502304+35733-005900FM-15+0021GMTT V0201001N002112200019N9999999N1+01001+00901999999ADDMA1103181999999REMMET044METAR GMTT 050230Z AUTO 10004KT 10/09 Q1032;
0145601010999992007010503004+35733-005900SY-MT+0021GMTT V0201101N003119999999N9999999N1+00911+00851103221ADDMA1103181999999MD1610091+9999REMSYN054AAXX  05034 60101 36/// /1106 10091 20085 40322 56009;MET044METAR GMTT 050300Z AUTO 11006KT 09/09 Q1032;
0071601010999992007010503304+35733-005900FM-15+0021GMTT V0201101N002612200019N9999999N1+00901+00801999999ADDMA1103181999999REMMET044METAR GMTT 050330Z AUTO 11005KT 09/08 Q1032;
0071601010999992007010504004+35733-005900FM-15+0021GMTT V0201201N002112200019N9999999N1+00701+00701999999ADDMA1103121999999REMMET044METAR GMTT 050400Z AUTO 12004KT 07/07 Q1031;
0071601010999992007010504304+35733-005900FM-15+0021GMTT V0201101N000512200019N9999999N1+00701+00701999999ADDMA1103121999999REMMET044METAR GMTT 050430Z AUTO 11001KT 07/07 Q1031;
0071601010999992007010505004+35733-005900FM-15+0021GMTT V0200701N000512200019N9999999N1+00701+00701999999ADDMA1103121999999REMMET044METAR GMTT 050500Z AUTO 07001KT 07/07 Q1031;
0071601010999992007010505304+35733-005900FM-15+0021GMTT V0201001N002112200019N9999999N1+00801+00801999999ADDMA1103121999999REMMET044METAR GMTT 050530Z AUTO 10004KT 08/08 Q1031;
0168601010999992007010506004+35733-005900SY-MT+0021GMTT V0201001N001519999999N9999999N1+00861+00811103181ADDKA1999N+00691MA1103121999999MD1810061+9999REMSYN064AAXX  05064 60101 36/// /1003 10086 20081 40318 58006 333 20069;MET044METAR GMTT 050600Z AUTO 10003KT 09/08 Q1031;
0071601010999992007010506304+35733-005900FM-15+0021GMTT V0200801N001512200019N9999999N1+00901+00901999999ADDMA1103121999999REMMET044METAR GMTT 050630Z AUTO 08003KT 09/09 Q1031;
0071601010999992007010507004+35733-005900FM-15+0021GMTT V0200101N000512200019N9999999N1+01001+01001999999ADDMA1103121999999REMMET044METAR GMTT 050700Z AUTO 01001KT 10/10 Q1031;
0077601010999992007010507304+35733-005900FM-15+0021GMTT V0209999C000012200019N9999999N1+01101+01101999999ADDMA1103201999999REMMET050METAR GMTT 050730Z 00000KT 800 FG VV0 11/11 Q1032;
0109601010999992007010508004+35733-005900FM-15+0021GMTT V0201801N001510018059N9999999N1+01101+01101999999ADDGA1085+001805999MA1103201999999REMMET066METAR GMTT 050800Z 18003KT 800 FG OVC006 11/11 Q1032 TEMPO 500 FG;
0096601010999992007010508304+35733-005900FM-15+0021GMTT V0202101N001510018059N9999999N1+01101+01101999999ADDGA1085+001805999MA1103201999999REMMET053METAR GMTT 050830Z 21003KT 500 FG OVC006 11/11 Q1032;
0261601010999992007010509004+35733-005900SY-MT+0021GMTT V0201901N00311003001CN0006001N1+01131+01091103241ADDGA1045+001801999GA2075+003001999GF107991071061002501999999MA1103181999999MD1210061+9999MW1441REMSYN076AAXX  05094 60101 33306 71906 10113 20109 40324 52006 876// 333 84706 85610;MET074METAR GMTT 050900Z 19006KT 600 FG SCT006 BKN010 11/11 Q1032 TEMPO 1200 BR;
0133601010999992007010509304+35733-005900FM-15+0021GMTT V0201801N002610027059N9999999N1+01201+01201999999ADDGA1045+001805999GA2075+002705999MA1103201999999REMMET074METAR GMTT 050930Z 18005KT 600 FG SCT006 BKN009 12/12 Q1032 TEMPO 1200 BR;
0133601010999992007010510004+35733-005900FM-15+0021GMTT V0201801N002610030059N9999999N1+01301+01201999999ADDGA1045+002405999GA2075+003005999MA1103201999999REMMET074METAR GMTT 051000Z 18005KT 600 FG SCT008 BKN010 13/12 Q1032 TEMPO 1200 BR;
0133601010999992007010511004+35733-005900FM-15+0021GMTT V0201901N001510030059N9999999N1+01301+01201999999ADDGA1045+001205999GA2075+003005999MA1103301999999REMMET074METAR GMTT 051100Z 19003KT 700 FG SCT004 BKN010 13/12 Q1033 TEMPO 1200 BR;
0133601010999992007010511304+35733-005900FM-15+0021GMTT V0202201N001510030059N9999999N1+01301+01201999999ADDGA1045+001205999GA2075+003005999MA1103201999999REMMET074METAR GMTT 051130Z 22003KT 700 FG SCT004 BKN010 13/12 Q1032 TEMPO 1200 BR;
0283601010999992007010512004+35733-005900SY-MT+0021GMTT V0201901N00151003001CN0007001N1+01341+01261103211ADDAY141061AY241061GA1045+001501999GA2075+003001999GF107991071061001501999999MA1103181999999MD1810011+9999MW1461REMSYN082AAXX  05124 60101 31207 71903 10134 20126 40321 58001 74644 876// 333 84705 86610;MET074METAR GMTT 051200Z 18003KT 700 FG SCT005 BKN010 14/13 Q1032 TEMPO 1200 BR;
0134601010999992007010512304+35733-005900FM-15+0021GMTT V0201801N001510030059N9999999N1+01401+01301999999ADDGA1045+001505999GA2075+003005999MA1103101999999REMMET075METAR GMTT 051230Z 18003KT0 700 FG SCT005 BKN010 14/13 Q1031 TEMPO 1200 BR;
0163601010999992007010512404+35733-005900FM-16+0021GMTT V02099999999990033059N0019041N1+01501+01401999999ADDGA1045+002405999GA2045+003305999GA3075+069905999MA1103101999999REMMET088METAR GMTT 051240Z 1904KT 130V230 1200 BR SCT008 SCT011 BKN233 15/14 Q1031 TEMPO 2500BR;
0173601010999992007010513004+35733-005900FM-15+0021GMTT V0201901N00211003301CN0012001N1+01601+01401999999ADDGA1045+002401999GA2075+003301999GF107991999999999999999999MA1103121999999MW1101REMMET082METAR GMTT 051300Z 19004KT 150V220 1200 BR SCT008 BKN011 16/14 Q1031 TEMPO 2500BR;
0192601010999992007010513304+35733-005900FM-15+0021GMTT V0201901N00211999999CN0012001N1+01601+01401999999ADDGA1045+002401999GA2045+003301999GF104991999999999999999999MA1103011999999MW1101REMMET082METAR GMTT 051330Z 19004KT 160V220 1200 BR SCT008 SCT011 16/14 Q1030 TEMPO 2500BR;EQDP01 003303SCOCIG
0165601010999992007010514004+35733-005900FM-15+0021GMTT V0202401N00311003901CN0012001N1+01601+01301999999ADDGA1045+002401999GA2075+003901999GF107991999999999999999999MA1103011999999MW1101REMMET074METAR GMTT 051400Z 24006KT 1200 BR SCT008 BKN013 16/13 Q1030 TEMPO 2500BR;
0129601010999992007010514124+35733-005900FM-15+0021GMTT V0202501N00311004801CN0080001N1+01601+01301999999ADDGA1075+004801999GF107991999999999999999999MA1103011999999REMMET060METAR GMTT 051412Z 25006KT 8000 BKN016 16/13 Q1030 NOSIG B2;
0126601010999992007010514304+35733-005900FM-15+0021GMTT V0202601N00261004801CN0080001N1+01701+01301999999ADDGA1075+004801999GF107991999999999999999999MA1103011999999REMMET057METAR GMTT 051430Z 26005KT 8000 BKN016 17/13 Q1030 NOSIG;
0216601010999992007010515004+35733-005900SY-MT+0021GMTT V0202701N00151004801CN0080001N1+01601+01321103041ADDGA1075+004801999GF199999061051004501001021MA1103011999999MD1610181+9999REMSYN070AAXX  05154 60101 32458 62703 10160 20132 40304 56018 86502 333 86616;MET057METAR GMTT 051500Z 27003KT 8000 BKN016 16/13 Q1030 NOSIG;
0126601010999992007010515304+35733-005900FM-15+0021GMTT V0202601N00151004801CN0080001N1+01601+01301999999ADDGA1075+004801999GF107991999999999999999999MA1103011999999REMMET057METAR GMTT 051530Z 26003KT 8000 BKN016 16/13 Q1030 NOSIG;
0126601010999992007010516004+35733-005900FM-15+0021GMTT V0202501N00211004801CN0080001N1+01601+01301999999ADDGA1075+004801999GF107991999999999999999999MA1103011999999REMMET057METAR GMTT 051600Z 25004KT 8000 BKN016 16/13 Q1030 NOSIG;
0126601010999992007010516304+35733-005900FM-15+0021GMTT V0202401N001512200019N0080001N1+01501+01301999999ADDGA1045+004801999GF104991999999999999999999MA1103011999999REMMET057METAR GMTT 051630Z 24003KT 8000 SCT016 15/13 Q1030 NOSIG;
0126601010999992007010517004+35733-005900FM-15+0021GMTT V0202101N000512200019N0080001N1+01501+01301999999ADDGA1045+004801999GF104991999999999999999999MA1103011999999REMMET057METAR GMTT 051700Z 21001KT 8000 SCT016 15/13 Q1030 NOSIG;
0126601010999992007010517304+35733-005900FM-15+0021GMTT V0209999C000012200019N0080001N1+01401+01201999999ADDGA1045+004801999GF104991999999999999999999MA1103011999999REMMET057METAR GMTT 051730Z 00000KT 8000 SCT016 14/12 Q1030 NOSIG;
0235601010999992007010518004+35733-005900SY-MT+0021GMTT V0209999C000012200019N0080001N1+01091+00911103061ADDGA1045+004801999GF104991041051004501001021KA1120M+01651MA1103011999999MD1310021+9999REMSYN076AAXX  05184 60101 32458 40000 10109 20091 40306 53002 84502 333 10165 84616;MET057METAR GMTT 051800Z 00000KT 8000 SCT016 11/09 Q1030 NOSIG;
0126601010999992007010518304+35733-005900FM-15+0021GMTT V0203101N001012200019N0080001N1+01001+00801999999ADDGA1045+004801999GF104991999999999999999999MA1103011999999REMMET057METAR GMTT 051830Z 31002KT 8000 SCT016 10/08 Q1030 NOSIG;
0126601010999992007010519004+35733-005900FM-15+0021GMTT V0203201N000512200019N0080001N1+00901+00801999999ADDGA1045+004801999GF104991999999999999999999MA1103011999999REMMET057METAR GMTT 051900Z 32001KT 8000 SCT016 09/08 Q1030 NOSIG;
0168601010999992007010519304+35733-005900FM-15+0021GMTT V0201001N00211999999CN0060001N1+00901+00801999999ADDGA1025+001801999GA2045+004801999GF104991999999999999999999MA1103121999999REMMET064METAR GMTT 051930Z 10004KT 6000 FEW006 SCT016 09/08 Q1031 NOSIG;EQDP01 004803SCOCIG
0168601010999992007010520004+35733-005900FM-15+0021GMTT V0200801N00211999999CN0060001N1+00901+00801999999ADDGA1025+001801999GA2045+004801999GF104991999999999999999999MA1103011999999REMMET064METAR GMTT 052000Z 08004KT 6000 FEW006 SCT016 09/08 Q1030 NOSIG;EQDP01 004803SCOCIG
0168601010999992007010520304+35733-005900FM-15+0021GMTT V0200401N00211999999CN0060001N1+00901+00801999999ADDGA1025+001801999GA2045+004801999GF104991999999999999999999MA1103121999999REMMET064METAR GMTT 052030Z 04004KT 6000 FEW006 SCT016 09/08 Q1031 NOSIG;EQDP01 004803SCOCIG
0245601010999992007010521004+35733-005900SY-MT+0021GMTT V0201001N00101004801CN0060001N1+00861+00791103111ADDGA1025+001801999GA2045+004801999GF105991051061002501001001MA1103121999999MD1210051+9999REMSYN076AAXX  05214 60101 32356 51002 10086 20079 40311 52005 85600 333 82706 84616;MET064METAR GMTT 052100Z 10002KT 6000 FEW006 SCT016 09/08 Q1031 NOSIG;
0185601010999992007010521034+35733-005900FM-15+0021GMTT V0201001N00151999999CN0030001N1+00801+00801999999ADDGA1025+001801999GA2045+004801999GF104991999999999999999999MA1103121999999MW1101REMMET075METAR GMTT 052103Z 10003KT 3000 BR FEW006 SCT016 08/08 Q1031 TEMPO 0600 FG;EQDP01 004803SCOCIG
0177601010999992007010521304+35733-005900FM-15+0021GMTT V0200501N00151999999CN0030001N1+00801+00801999999ADDGA1025+001801999GA2045+004801999GF104991999999999999999999MA1103121999999MW1101REMMET067METAR GMTT 052130Z 05003KT 3000 BR FEW006 SCT016 08/08 Q1031 NOSIG;EQDP01 004803SCOCIG
0177601010999992007010521464+35733-005900FM-15+0021GMTT V0200501N00151999999CN0001501N1+00801+00801999999ADDGA1045+000901999GA2045+004801999GF104991999999999999999999MA1103121999999MW1441REMMET067METAR GMTT 052146Z 05003KT 0150 FG SCT003 SCT016 08/08 Q1031 NOSIG;EQDP01 004803SCOCIG
0177601010999992007010522004+35733-005900FM-15+0021GMTT V0200601N00101999999CN0001501N1+00901+00801999999ADDGA1045+000901999GA2045+004801999GF104991999999999999999999MA1103121999999MW1441REMMET067METAR GMTT 052200Z 06002KT 0150 FG SCT003 SCT016 09/08 Q1031 NOSIG;EQDP01 004803SCOCIG
0177601010999992007010522304+35733-005900FM-15+0021GMTT V0200901N00151999999CN0001501N1+00801+00701999999ADDGA1045+000901999GA2045+004801999GF104991999999999999999999MA1103121999999MW1441REMMET067METAR GMTT 052230Z 09003KT 0150 FG SCT003 SCT016 08/07 Q1031 NOSIG;EQDP01 004803SCOCIG
0177601010999992007010522464+35733-005900FM-15+0021GMTT V0200701N00051999999CN0020001N1+00801+00701999999ADDGA1045+002401999GA2045+004801999GF104991999999999999999999MA1103121999999MW1101REMMET067METAR GMTT 052246Z 07001KT 2000 BR SCT008 SCT016 08/07 Q1031 NOSIG;EQDP01 004803SCOCIG
0185601010999992007010523004+35733-005900FM-15+0021GMTT V0200701N00101999999CN0020001N1+00801+00701999999ADDGA1045+002401999GA2045+004801999GF104991999999999999999999MA1103121999999MW1101REMMET075METAR GMTT 052300Z 07002KT 2000 BR SCT008 SCT016 08/07 Q1031 TEMPO 0600 FG;EQDP01 004803SCOCIG
0185601010999992007010523304+35733-005900FM-15+0021GMTT V0200701N00101999999CN0030001N1+00701+00701999999ADDGA1045+002401999GA2045+004801999GF104991999999999999999999MA1103121999999MW1101REMMET075METAR GMTT 052330Z 07002KT 3000 BR SCT008 SCT016 07/07 Q1031 TEMPO 0400 FG;EQDP01 004803SCOCIG
0284601010999992007010600004+35733-005900SY-MT+0021GMTT V0201001N00211004801CN0030001N1+00751+00701103081ADDAY141061AY241061GA1045+002401999GA2045+004801999GF106991061051002501001001MA1103011999999MD1810031+9999MW1101REMSYN082AAXX  06004 60101 31330 61004 10075 20070 40308 58003 71044 86500 333 83708 84616;MET075METAR GMTT 060000Z 10004KT 3000 BR SCT008 SCT016 08/07 Q1030 TEMPO 0400 FG;
0185601010999992007010600304+35733-005900FM-15+0021GMTT V0201001N00311999999CN0030001N1+00801+00801999999ADDGA1045+002401999GA2045+004801999GF104991999999999999999999MA1103011999999MW1101REMMET075METAR GMTT 060030Z 10006KT 3000 BR SCT008 SCT016 08/08 Q1030 TEMPO 0400 FG;EQDP01 004803SCOCIG
0125601010999992007010600444+35733-005900FM-16+0021GMTT V0201001N002610048059N9999999N1+00801+00801999999ADDGA1045+002405999GA2045+004805999MA1103001999999REMMET066METAR GMTT 060044Z 10005KT 400 FG SCT008 SCT016 08/08 Q1030 NOSIG;
0125601010999992007010601004+35733-005900FM-15+0021GMTT V0200901N002110048059N9999999N1+00801+00801999999ADDGA1045+002405999GA2045+004805999MA1103001999999REMMET066METAR GMTT 060100Z 09004KT 400 FG SCT008 SCT016 08/08 Q1030 NOSIG;
0182601010999992007010601304+35733-005900FM-15+0021GMTT V0200801N00101999999CN0004001N1+00701+00701999999ADDAW1301GA1045+002401999GA2045+004801999GF104991999999999999999999MA1103011999999REMMET072METAR GMTT 060130Z AUTO 08002KT 0400 FG SCT008 SCT016 07/07 Q1030 NOSIG;EQDP01 004803SCOCIG
0104601010999992007010602004+35733-005900AUTO +0021GMTT V0200401N001012200019N9999999N1+00701+00601999999ADDAW1301MA1103001999999REMMET071METAR GMTT 060200Z AUTO 04002KT 400 FG SCT008 SCT016 07/06 Q1030 NOSIG;
0104601010999992007010602304+35733-005900AUTO +0021GMTT V0200801N001512200019N9999999N1+00701+00601999999ADDAW1301MA1103001999999REMMET071METAR GMTT 060230Z AUTO 08003KT 400 FG SCT008 SCT016 07/06 Q1030 NOSIG;
0278601010999992007010603004+35733-005900SY-MT+0021GMTT V0201001N00361004801CN0004001N1+00751+00711103041ADDAW1301AZ121031GA1045+002401071GA2045+004801061GF106991061051002501001001MA1103001999999MD1610091+9999MW1461REMSYN082AAXX  06034 60101 34304 61007 10075 20071 40304 56009 74622 86500 333 83708 84616;MET071METAR GMTT 060300Z AUTO 10007KT 400 FG SCT008 SCT016 08/07 Q1030 NOSIG;
0071601010999992007010603304+35733-005900FM-15+0021GMTT V0200901N002112200019N9999999N1+00801+00701999999ADDMA1103011999999REMMET044METAR GMTT 060330Z AUTO 09004KT 08/07 Q1030;
0182601010999992007010604004+35733-005900FM-15+0021GMTT V0200801N00101999999CN0004001N1+00701+00701999999ADDAW1301GA1045+002401999GA2045+004801999GF104991999999999999999999MA1103011999999REMMET072METAR GMTT 060400Z AUTO 08002KT 0400 FG SCT008 SCT016 07/07 Q1030 NOSIG;EQDP01 004803SCOCIG
0182601010999992007010604304+35733-005900FM-15+0021GMTT V0200701N00101999999CN0004001N1+00701+00701999999ADDAW1301GA1045+002401999GA2045+004801999GF104991999999999999999999MA1103011999999REMMET072METAR GMTT 060430Z AUTO 07002KT 0400 FG SCT008 SCT016 07/07 Q1030 NOSIG;EQDP01 004803SCOCIG
0177601010999992007010605004+35733-005900FM-15+0021GMTT V0200901N00101999999CN0004001N1+00701+00601999999ADDGA1045+002401999GA2045+004801999GF104991999999999999999999MA1103011999999MW1441REMMET067METAR GMTT 060500Z 09002KT 0400 FG SCT008 SCT016 07/06 Q1030 NOSIG;EQDP01 004803SCOCIG
0177601010999992007010605304+35733-005900FM-15+0021GMTT V0200901N00151999999CN0004001N1+00701+00601999999ADDGA1045+002401999GA2045+004801999GF104991999999999999999999MA1103011999999MW1441REMMET067METAR GMTT 060530Z 09003KT 0400 FG SCT008 SCT016 07/06 Q1030 NOSIG;EQDP01 004803SCOCIG
0192601010999992007010606004+35733-005900FM-15+0021GMTT V0200701N00151999999CN0030001N1+00601+00501999999ADDGA1025+003001999GA2045+004801999GF104991999999999999999999MA1103011999999MW1101REMMET082METAR GMTT 060600Z 07003KT 3000 BR FEW010 SCT016 06/05 Q1030 NOSIGOMMTAR GMAD NIL;EQDP01 004803SCOCIG
0177601010999992007010606304+35733-005900FM-15+0021GMTT V0200901N00051999999CN0030001N1+00601+00501999999ADDGA1025+003001999GA2045+004801999GF104991999999999999999999MA1103011999999MW1101REMMET067METAR GMTT 060630Z 09001KT 3000 BR FEW010 SCT016 06/05 Q1030 NOSIG;EQDP01 004803SCOCIG
0177601010999992007010607004+35733-005900FM-15+0021GMTT V0209999C00001999999CN0030001N1+00501+00401999999ADDGA1025+003001999GA2045+004801999GF104991999999999999999999MA1103011999999MW1101REMMET067METAR GMTT 060700Z 00000KT 3000 BR FEW010 SCT016 05/04 Q1030 NOSIG;EQDP01 004803SCOCIG
0158601010999992007010607304+35733-005900FM-15+0021GMTT V0201001N00101004801CN0030001N1+00601+00601999999ADDGA1045+001201999GA2075+004801999GF107991999999999999999999MA1103121999999MW1101REMMET067METAR GMTT 060730Z 10002KT 3000 BR SCT004 BKN016 06/06 Q1031 NOSIG;
0158601010999992007010608004+35733-005900FM-15+0021GMTT V0200801N00101004801CN0020001N1+00801+00801999999ADDGA1045+001201999GA2075+004801999GF107991999999999999999999MA1103121999999MW1101REMMET067METAR GMTT 060800Z 08002KT 2000 BR SCT004 BKN016 08/08 Q1031 NOSIG;
0158601010999992007010608304+35733-005900FM-15+0021GMTT V0203501N00101004801CN0020001N1+01001+00901999999ADDGA1045+001201999GA2075+004801999GF107991999999999999999999MA1103121999999MW1101REMMET067METAR GMTT 060830Z 35002KT 2000 BR SCT004 BKN016 10/09 Q1031 NOSIG;
0295601010999992007010609004+35733-005900SY-MT+0021GMTT V0201801N00101999999CN0020001N1+01061+01031103171ADDAY121031AY221031GA1045+003001999GA2045+004801999GF104991041061004501999999MA1103121999999MD1310141+9999MW1101REMSYN082AAXX  06094 60101 41420 41802 10106 20103 40317 53014 71022 846// 333 83710 84616;MET067METAR GMTT 060900Z 18002KT 2000 BR SCT010 SCT016 11/10 Q1031 NOSIG;EQDP01 004803SCOCIG
0128601010999992007010609274+35733-005900FM-16+0021GMTT V0201001N001010048059N9999999N1+01101+01101999999ADDGA1045+003005999GA2045+004805999MA1103201999999REMMET069METAR GMTT 060927Z 10002KT 300 FG SCT010 SCT016 11/11 Q1032 NOSIG M2;
0125601010999992007010609304+35733-005900FM-15+0021GMTT V0201001N001510048059N9999999N1+01101+01101999999ADDGA1045+003005999GA2045+004805999MA1103101999999REMMET066METAR GMTT 060930Z 10003KT 300 FG SCT010 SCT016 11/11 Q1031 NOSIG;
0177601010999992007010610004+35733-005900FM-15+0021GMTT V0201001N00151999999CN0003001N1+01101+01101999999ADDGA1045+003001999GA2045+004801999GF104991999999999999999999MA1103181999999MW1441REMMET067METAR GMTT 061000Z 10003KT 0300 FG SCT010 SCT016 11/11 Q1032 NOSIG;EQDP01 004803SCOCIG
0177601010999992007010610304+35733-005900FM-15+0021GMTT V0201101N00211999999CN0003001N1+01201+01101999999ADDGA1045+003001999GA2045+004801999GF104991999999999999999999MA1103181999999MW1441REMMET067METAR GMTT 061030Z 11004KT 0300 FG SCT010 SCT016 12/11 Q1032 NOSIG;EQDP01 004803SCOCIG
0127601010999992007010611004+35733-005900FM-15+0021GMTT V0201001N001510048059N9999999N1+01301+01201999999ADDGA1045+003005999GA2045+004805999MA1103101999999REMMET068METAR GMTT 061100Z 10003KT 0 300 FG SCT010 SCT016 13/12 Q1031 NOSIG;
0138601010999992007010611154+35733-005900FM-15+0021GMTT V0201701N001012200019N0040001N1+01401+01301999999ADDGA1045+003001999GF104991999999999999999999MA1103121999999MW1101REMMET063METAR GMTT 061115Z 17002KT 4000 BR SCT010 14/13 Q1031 NOSIG B2;
0150601010999992007010611304+35733-005900FM-15+0021GMTT V0209999V001012200019N0040001N1+01401+01401999999ADDGA1045+003001999GF104991999999999999999999MA1103121999999MW1101REMMET075METAR GMTT 061130Z VRB02KT 4000 BR SCT010 14/14 Q1031 NOSIG METAR GMFF NIL;
0247601010999992007010612004+35733-005900SY-MT+0021GMTT V0202801N001512200019N0040001N1+01461+01391103141ADDAY121061AY221061GA1045+003001999GF104991041061004501001001MA1103121999999MD1810031+9999MW1101REMSYN076AAXX  06124 60101 21440 42803 10146 20139 40314 58003 71022 84600 333 84710;MET060METAR GMTT 061200Z 28002KT 4000 BR SCT010 15/14 Q1031 NOSIG;
0135601010999992007010612304+35733-005900FM-15+0021GMTT V0202801N003612200019N0040001N1+01401+01301999999ADDGA1045+003001999GF104991999999999999999999MA1103121999999MW1101REMMET060METAR GMTT 061230Z 28007KT 4000 BR SCT010 14/13 Q1031 NOSIG;
0177601010999992007010613004+35733-005900FM-15+0021GMTT V0203001N00151999999CN0040001N1+01401+01301999999ADDGA1045+003001999GA2045+004801999GF104991999999999999999999MA1103011999999MW1101REMMET067METAR GMTT 061300Z 30003KT 4000 BR SCT010 SCT016 14/13 Q1030 NOSIG;EQDP01 004803SCOCIG
0177601010999992007010613304+35733-005900FM-15+0021GMTT V0202501N00311999999CN0040001N1+01501+01301999999ADDGA1045+003001999GA2045+004801999GF104991999999999999999999MA1103011999999MW1101REMMET067METAR GMTT 061330Z 25006KT 4000 BR SCT010 SCT016 15/13 Q1030 NOSIG;EQDP01 004803SCOCIG
0185601010999992007010614004+35733-005900FM-15+0021GMTT V0202601N00211999999CN0030001N1+01401+01301999999ADDGA1045+001501999GA2045+004801999GF104991999999999999999999MA1103011999999MW1101REMMET075METAR GMTT 061400Z 26004KT 210V290 3000 BR SCT005 SCT016 14/13 Q1030 NOSIG;EQDP01 004803SCOCIG
0177601010999992007010614304+35733-005900FM-15+0021GMTT V0202401N00101999999CN0030001N1+01501+01401999999ADDGA1045+001501999GA2045+004801999GF104991999999999999999999MA1103011999999MW1101REMMET067METAR GMTT 061430Z 24002KT 3000 BR SCT005 SCT016 15/14 Q1030 NOSIG;EQDP01 004803SCOCIG
0168601010999992007010614484+35733-005900FM-15+0021GMTT V0202301N00101999999CN0050001N1+01601+01301999999ADDGA1045+003001999GA2045+004801999GF104991999999999999999999MA1102911999999REMMET064METAR GMTT 061448Z 23002KT 5000 SCT010 SCT016 16/13 Q1029 NOSIG;EQDP01 004803SCOCIG
0245601010999992007010615004+35733-005900SY-MT+0021GMTT V0202501N00051004801CN0050001N1+01591+01321103001ADDGA1025+003001999GA2045+004801999GF105991051051004501001001MA1103011999999MD1610141+9999REMSYN076AAXX  06154 60101 32450 52501 10159 20132 40300 56014 85500 333 82710 84616;MET064METAR GMTT 061500Z 25001KT 5000 FEW010 SCT016 16/13 Q1030 NOSIG;
0176601010999992007010615304+35733-005900FM-15+0021GMTT V0202401N00211999999CN0050001N1+01601+01301999999ADDGA1025+003001999GA2045+004801999GF104991999999999999999999MA1102911999999REMMET072METAR GMTT 061530Z 24004KT 220V280 5000 FEW010 SCT016 16/13 Q1029 NOSIG;EQDP01 004803SCOCIG
0168601010999992007010616004+35733-005900FM-15+0021GMTT V0202501N00151999999CN0050001N1+01601+01301999999ADDGA1025+003001999GA2045+004801999GF104991999999999999999999MA1102911999999REMMET064METAR GMTT 061600Z 25003KT 5000 FEW010 SCT016 16/13 Q1029 NOSIG;EQDP01 004803SCOCIG
0173601010999992007010616304+35733-005900FM-15+0021GMTT V0202201N00101999999CN0050001N1+01601+01301999999ADDGA1025+003001999GA2045+004801999GF104991999999999999999999MA1102911999999REMMET069METAR GMTT 061630Z AUTO 22002KT 5000 FEW010 SCT016 16/13 Q1029 NOSIG;EQDP01 004803SCOCIG
0168601010999992007010617004+35733-005900FM-15+0021GMTT V0202101N00101999999CN0050001N1+01501+01301999999ADDGA1025+003001999GA2045+004801999GF104991999999999999999999MA1103011999999REMMET064METAR GMTT 061700Z 21002KT 5000 FEW010 SCT016 15/13 Q1030 NOSIG;EQDP01 004803SCOCIG
0168601010999992007010617304+35733-005900FM-15+0021GMTT V0202501N00101999999CN0050001N1+01501+01301999999ADDGA1025+003001999GA2045+004801999GF104991999999999999999999MA1103011999999REMMET064METAR GMTT 061730Z 25002KT 5000 FEW010 SCT016 15/13 Q1030 NOSIG;EQDP01 004803SCOCIG
0264601010999992007010618004+35733-005900SY-MT+0021GMTT V0209999C00001004801CN0050001N1+01391+01231103021ADDGA1045+003001999GA2075+004801999GF199999061051004501001001KA1120M+01641MA1103011999999MD1310021+9999REMSYN082AAXX  06184 60101 32450 60000 10139 20123 40302 53002 86500 333 10164 83710 86616;MET064METAR GMTT 061800Z 00000KT 5000 SCT010 BKN016 14/12 Q1030 NOSIG;
0149601010999992007010618304+35733-005900FM-15+0021GMTT V0209999C00001004801CN0050001N1+01201+01001999999ADDGA1045+003001999GA2075+004801999GF107991999999999999999999MA1103011999999REMMET064METAR GMTT 061830Z 00000KT 5000 SCT010 BKN016 12/10 Q1030 NOSIG;
0149601010999992007010619004+35733-005900FM-15+0021GMTT V0200501N00051004801CN0050001N1+01001+00801999999ADDGA1045+003001999GA2075+004801999GF107991999999999999999999MA1103011999999REMMET064METAR GMTT 061900Z 05001KT 5000 SCT010 BKN016 10/08 Q1030 NOSIG;
0149601010999992007010619304+35733-005900FM-15+0021GMTT V0200601N00101004801CN0050001N1+00901+00801999999ADDGA1025+003001999GA2075+004801999GF107991999999999999999999MA1103011999999REMMET064METAR GMTT 061930Z 06002KT 5000 FEW010 BKN016 09/08 Q1030 NOSIG;
0149601010999992007010619324+35733-005900FM-15+0021GMTT V0200501N00151004801CN0050001N1+00901+00801999999ADDGA1025+003001999GA2075+004801999GF107991999999999999999999MA1103011999999REMMET064METAR GMTT 061932Z 05003KT 5000 FEW010 BKN016 09/08 Q1030 NOSIG;
0158601010999992007010619454+35733-005900FM-15+0021GMTT V0200601N00101004801CN0030001N1+00901+00801999999ADDGA1045+003001999GA2075+004801999GF107991999999999999999999MA1103011999999MW1101REMMET067METAR GMTT 061945Z 06002KT 3000 BR SCT010 BKN016 09/08 Q1030 NOSIG;
0166601010999992007010620004+35733-005900FM-15+0021GMTT V0200501N00101004801CN0030001N1+00901+00801999999ADDGA1045+003001999GA2075+004801999GF107991999999999999999999MA1103011999999MW1101REMMET075METAR GMTT 062000Z 05002KT 3000 BR SCT010 BKN016 09/08 Q1030 TEMPO 0400 FG;
0166601010999992007010620304+35733-005900FM-15+0021GMTT V0200401N00151004801CN0030001N1+00801+00701999999ADDGA1045+003001999GA2075+004801999GF107991999999999999999999MA1103011999999MW1101REMMET075METAR GMTT 062030Z 04003KT 3000 BR SCT010 BKN016 08/07 Q1030 TEMPO 0400 FG;
0276601010999992007010621004+35733-005900SY-MT+0021GMTT V0200601N00151004801CN0030001N1+00791+00711103041ADDAY121031AY221031GA1045+003001999GA2075+004801999GF199999061051004501001001MA1103011999999MD1010061+9999MW1101REMSYN082AAXX  06214 60101 31430 60603 10079 20071 40304 50006 71022 86500 333 83710 86616;MET067METAR GMTT 062100Z 06003KT 3000 BR SCT010 BKN016 08/07 Q1030 NOSIG;
0157601010999992007010621304+35733-005900FM-15+0021GMTT V0200601N00101004801CN0030001N1+00801+00701999999ADDGA1045+003001999GA2075+004801999GF107991999999999999999999MA1103011999999REMMET072METAR GMTT 062130Z 06002KT 3000 SCT010 BKN016 08/07 Q1030 TEMPO 0400 FG;
0166601010999992007010622004+35733-005900FM-15+0021GMTT V0200701N00151004801CN0030001N1+00801+00801999999ADDGA1045+003001999GA2075+004801999GF107991999999999999999999MA1103011999999MW1101REMMET075METAR GMTT 062200Z 07003KT 3000 BR SCT010 BKN016 08/08 Q1030 TEMPO 0400 FG;
0166601010999992007010622304+35733-005900FM-15+0021GMTT V0200601N00051004801CN0030001N1+00801+00701999999ADDGA1045+003001999GA2075+004801999GF107991999999999999999999MA1103011999999MW1101REMMET075METAR GMTT 062230Z 06001KT 3000 BR SCT010 BKN016 08/07 Q1030 TEMPO 0400 FG;
0166601010999992007010623004+35733-005900FM-15+0021GMTT V0200501N00101004801CN0030001N1+00701+00701999999ADDGA1045+003001999GA2075+004801999GF107991999999999999999999MA1103011999999MW1101REMMET075METAR GMTT 062300Z 05002KT 3000 BR SCT010 BKN016 07/07 Q1030 TEMPO 0400 FG;
0166601010999992007010623304+35733-005900FM-15+0021GMTT V0200701N00051004801CN0030001N1+00701+00601999999ADDGA1045+003001999GA2075+004801999GF107991999999999999999999MA1103011999999MW1101REMMET075METAR GMTT 062330Z 07001KT 3000 BR SCT010 BKN016 07/06 Q1030 TEMPO 0400 FG;
0290601010999992007010700004+35733-005900SY-MT+0021GMTT V0200901N00151004801CN0030001N1+00731+00681103001ADDAY121061AY221061GA1045+003001999GA2075+004801999GF199999061061004501001001MA1103011999999MD1710041+9999MW1101REMSYN088AAXX  07004 60101 31430 60903 10073 20068 40300 57004 71022 86600 92352 333 83710 86616;MET075METAR GMTT 070000Z 09003KT 3000 BR SCT010 BKN016 08/07 Q1030 TEMPO 0400 FG;
0161601010999992007010700054+35733-005900FM-15+0021GMTT V0200801N00151004801CN0004001N1+00701+00601999999ADDGA1045+003001999GA2075+004801999GF107991999999999999999999MA1102911999999MW1441REMMET070METAR GMTT 070005Z 08003KT 0400 FG SCT010 BKN016 07/06 Q1029 NOSIGVWV;
0158601010999992007010700304+35733-005900FM-15+0021GMTT V0200401N00051004801CN0004001N1+00601+00601999999ADDGA1045+003001999GA2075+004801999GF107991999999999999999999MA1102911999999MW1441REMMET067METAR GMTT 070030Z 04001KT 0400 FG SCT010 BKN016 06/06 Q1029 NOSIG;
0163601010999992007010701004+35733-005900FM-15+0021GMTT V0200601N00101004801CN0004001N1+00701+00601999999ADDAW1301GA1045+003001999GA2075+004801999GF107991999999999999999999MA1102911999999REMMET072METAR GMTT 070100Z AUTO 06002KT 0400 FG SCT010 BKN016 07/06 Q1029 NOSIG;
0071601010999992007010701304+35733-005900FM-15+0021GMTT V0201101N003112200019N9999999N1+00601+00601999999ADDMA1102911999999REMMET044METAR GMTT 070130Z AUTO 11006KT 06/06 Q1029;
0071601010999992007010702004+35733-005900FM-15+0021GMTT V0200901N002612200019N9999999N1+00701+00601999999ADDMA1102911999999REMMET044METAR GMTT 070200Z AUTO 09005KT 07/06 Q1029;
0071601010999992007010702304+35733-005900FM-15+0021GMTT V0200701N000512200019N9999999N1+00701+00601999999ADDMA1102911999999REMMET044METAR GMTT 070230Z AUTO 07001KT 07/06 Q1029;
0145601010999992007010703004+35733-005900SY-MT+0021GMTT V0200901N001519999999N9999999N1+00611+00561102971ADDMA1102911999999MD1610051+9999REMSYN054AAXX  07034 60101 36/// /0903 10061 20056 40297 56005;MET044METAR GMTT 070300Z AUTO 09002KT 06/06 Q1029;
0071601010999992007010703304+35733-005900FM-15+0021GMTT V0200801N001012200019N9999999N1+00601+00501999999ADDMA1102911999999REMMET044METAR GMTT 070330Z AUTO 08002KT 06/05 Q1029;
0071601010999992007010704004+35733-005900FM-15+0021GMTT V0200701N001012200019N9999999N1+00601+00501999999ADDMA1102911999999REMMET044METAR GMTT 070400Z AUTO 07002KT 06/05 Q1029;
0071601010999992007010704304+35733-005900FM-15+0021GMTT V0200901N000512200019N9999999N1+00601+00601999999ADDMA1102911999999REMMET044METAR GMTT 070430Z AUTO 09001KT 06/06 Q1029;
0163601010999992007010705004+35733-005900FM-15+0021GMTT V0200701N00151004801CN0030001N1+00601+00501999999ADDAW1101GA1045+003001999GA2075+004801999GF107991999999999999999999MA1102911999999REMMET072METAR GMTT 070500Z AUTO 07003KT 3000 BR SCT010 BKN016 06/05 Q1029 NOSIG;
0163601010999992007010705304+35733-005900FM-15+0021GMTT V0200801N00101004801CN0030001N1+00601+00501999999ADDAW1101GA1045+003001999GA2075+004801999GF107991999999999999999999MA1102911999999REMMET072METAR GMTT 070530Z AUTO 08002KT 3000 BR SCT010 BKN016 06/05 Q1029 NOSIG;
0161601010999992007010705404+35733-005900FM-15+0021GMTT V0209999C00001004801CN0030001N1+00601+00501999999ADDGA1045+003001999GA2075+004801999GF107991999999999999999999MA1102911999999MW1101REMMET070METAR GMTT 070540Z 00000KT 3000 BR SCT010 BKN016 06/05 Q1029 NOSIG B2;
0295601010999992007010706004+35733-005900SY-MT+0021GMTT V0200901N00051004801CN0030001N1+00561+00511102971ADDAY121061AY221061GA1045+003001999GA2075+004801999GF199999061061004501001001KA1120N+00561MA1102911999999MD1710051+9999MW1101REMSYN088AAXX  07064 60101 31430 60901 10056 20051 40297 57005 71022 86600 333 20056 83710 86616;MET067METAR GMTT 070600Z 09001KT 3000 BR SCT010 BKN016 06/05 Q1029 NOSIG;
0158601010999992007010706304+35733-005900FM-15+0021GMTT V0200901N00151004801CN0030001N1+00601+00601999999ADDGA1045+003001999GA2075+004801999GF107991999999999999999999MA1102911999999MW1101REMMET067METAR GMTT 070630Z 09003KT 3000 BR SCT010 BKN016 06/06 Q1029 NOSIG;
0158601010999992007010707004+35733-005900FM-15+0021GMTT V0200701N00101004801CN0030001N1+00601+00501999999ADDGA1045+003001999GA2075+004801999GF107991999999999999999999MA1102911999999MW1101REMMET067METAR GMTT 070700Z 07002KT 3000 BR SCT010 BKN016 06/05 Q1029 NOSIG;
0158601010999992007010707304+35733-005900FM-15+0021GMTT V0201101N00151004801CN0030001N1+00601+00601999999ADDGA1045+003001999GA2075+004801999GF107991999999999999999999MA1102911999999MW1101REMMET067METAR GMTT 070730Z 11003KT 3000 BR SCT010 BKN016 06/06 Q1029 NOSIG;
0158601010999992007010708004+35733-005900FM-15+0021GMTT V0200701N00101004801CN0030001N1+00601+00601999999ADDGA1045+003001999GA2075+004801999GF107991999999999999999999MA1103011999999MW1101REMMET067METAR GMTT 070800Z 07002KT 3000 BR SCT010 BKN016 06/06 Q1030 NOSIG;
0177601010999992007010708304+35733-005900FM-15+0021GMTT V0201101N00051999999CN0030001N1+00601+00601999999ADDGA1045+003001999GA2045+004801999GF104991999999999999999999MA1103011999999MW1101REMMET067METAR GMTT 070830Z 11001KT 3000 BR SCT010 SCT016 06/06 Q1030 NOSIG;EQDP01 004803SCOCIG
0284601010999992007010709004+35733-005900SY-MT+0021GMTT V0209999C00001004801CN0030001N1+00801+00771103051ADDAY121031AY221031GA1045+003001999GA2075+004801999GF107991071051004501999999MA1103011999999MD1310091+9999MW1101REMSYN082AAXX  07094 60101 31430 70000 10080 20077 40305 53009 71022 875// 333 83710 87616;MET075METAR GMTT 070900Z 00000KT 3000 BR SCT010 BKN016 08/08 Q1030 TEMPO 0300 FG;
0158601010999992007010709304+35733-005900FM-15+0021GMTT V0201201N00051004801CN0030001N1+01001+00901999999ADDGA1045+003001999GA2075+004801999GF107991999999999999999999MA1103121999999MW1101REMMET067METAR GMTT 070930Z 12001KT 3000 BR SCT010 BKN016 10/09 Q1031 NOSIG;
0158601010999992007010710004+35733-005900FM-15+0021GMTT V0209999C00001004801CN0030001N1+01001+01001999999ADDGA1045+003001999GA2075+004801999GF107991999999999999999999MA1103121999999MW1101REMMET067METAR GMTT 071000Z 00000KT 3000 BR SCT010 BKN016 10/10 Q1031 NOSIG;
0155601010999992007010710304+35733-005900AUTO +0021GMTT V0202001N002112200019N0030001N1+01201+01201999999ADDAW1101GA1041+006301999GF104991999999999999999999MA1103101999999REMMET080METAR GMTT 071030Z AUTO 20004KT 160V280 3000 BR SCT021 ///016 12/12 Q1031 NOSIG;
0166601010999992007010711004+35733-005900FM-15+0021GMTT V0201901N00311004801CN0030001N1+01201+01201999999ADDGA1045+003001999GA2075+004801999GF107991999999999999999999MA1103121999999MW1101REMMET075METAR GMTT 071100Z 19006KT 160V230 3000 BR SCT010 BKN016 12/12 Q1031 NOSIG;
0165601010999992007010711304+35733-005900FM-15+0021GMTT V0201901N00361004801CN0030001N1+01301+01201999999ADDGA1045+003001999GA2075+004801999GF107991999999999999999999MA1103121999999REMMET080METAR GMTT 071130Z 19007KT 160V230 3000 SCT010 BKN016 13/12 Q1031 TEMPO 0300 FG;
0276601010999992007010712004+35733-005900SY-MT+0021GMTT V0201801N00461004801CN0020001N1+01301+01241103051ADDAY121061AY221061GA1045+003001999GA2075+004801999GF107991071051004501999999MA1103011999999MD1010001+9999MW1101REMSYN082AAXX  07124 60101 31420 71809 10130 20124 40305 50000 71022 875// 333 83710 87616;MET067METAR GMTT 071200Z 18009KT 2000 BR SCT010 BKN016 13/13 Q1030 NOSIG;
0158601010999992007010712304+35733-005900FM-15+0021GMTT V0201801N00411004801CN0030001N1+01401+01301999999ADDGA1045+003001999GA2075+004801999GF107991999999999999999999MA1102911999999MW1101REMMET067METAR GMTT 071230Z 18008KT 3000 BR SCT010 BKN016 14/13 Q1029 NOSIG;
0166601010999992007010713004+35733-005900FM-15+0021GMTT V0202001N00311004801CN0030001N1+01501+01301999999ADDGA1045+003001999GA2075+004801999GF107991999999999999999999MA1102911999999MW1101REMMET075METAR GMTT 071300Z 20006KT 170V230 3000 BR SCT010 BKN016 15/13 Q1029 NOSIG;
0166601010999992007010713304+35733-005900FM-15+0021GMTT V0202201N00361004801CN0040001N1+01501+01301999999ADDGA1045+003001999GA2075+004801999GF107991999999999999999999MA1102911999999MW1101REMMET075METAR GMTT 071330Z 22007KT 190V250 4000 BR SCT010 BKN016 15/13 Q1029 NOSIG;
0157601010999992007010713434+35733-005900FM-15+0021GMTT V0202301N00311004801CN0050001N1+01501+01301999999ADDGA1025+003001999GA2075+004801999GF107991999999999999999999MA1102811999999REMMET072METAR GMTT 071343Z 23006KT 190V270 5000 FEW010 BKN016 15/13 Q1028 NOSIG;
0157601010999992007010714004+35733-005900FM-15+0021GMTT V0202301N00261004801CN0050001N1+01601+01301999999ADDGA1025+003001999GA2075+004801999GF107991999999999999999999MA1102811999999REMMET072METAR GMTT 071400Z 23005KT 200V260 5000 FEW010 BKN016 16/13 Q1028 NOSIG;
0157601010999992007010714304+35733-005900FM-15+0021GMTT V0202401N00261004801CN0050001N1+01601+01301999999ADDGA1025+003001999GA2075+004801999GF107991999999999999999999MA1102811999999REMMET072METAR GMTT 071430Z 24005KT 200V280 5000 FEW010 BKN016 16/13 Q1028 NOSIG;
0253601010999992007010715004+35733-005900SY-MT+0021GMTT V0202701N00211004801CN0050001N1+01571+01261102891ADDGA1025+003001999GA2075+004801999GF107991071051004501999999MA1102811999999MD1610251+9999REMSYN076AAXX  07154 60101 32450 72704 10157 20126 40289 56025 875// 333 82710 87616;MET072METAR GMTT 071500Z 27004KT 220V310 5000 FEW010 BKN016 16/13 Q1028 NOSIG;
0149601010999992007010715304+35733-005900FM-15+0021GMTT V0202301N00261004801CN0050001N1+01501+01201999999ADDGA1025+003001999GA2075+004801999GF107991999999999999999999MA1102911999999REMMET064METAR GMTT 071530Z 23005KT 5000 FEW010 BKN016 15/12 Q1029 NOSIG;
0157601010999992007010716004+35733-005900FM-15+0021GMTT V0202401N00311004801CN0050001N1+01601+01301999999ADDGA1025+003001999GA2075+004801999GF107991999999999999999999MA1102911999999REMMET072METAR GMTT 071600Z 24006KT 220V280 5000 FEW010 BKN016 16/13 Q1029 NOSIG;
0157601010999992007010716304+35733-005900FM-15+0021GMTT V0202401N00261004801CN0050001N1+01501+01201999999ADDGA1025+003001999GA2075+004801999GF107991999999999999999999MA1102911999999REMMET072METAR GMTT 071630Z 24005KT 210V270 5000 FEW010 BKN016 15/12 Q1029 NOSIG;
0149601010999992007010717004+35733-005900FM-15+0021GMTT V0202201N00211004801CN0050001N1+01501+01201999999ADDGA1025+003001999GA2075+004801999GF107991999999999999999999MA1102911999999REMMET064METAR GMTT 071700Z 22004KT 5000 FEW010 BKN016 15/12 Q1029 NOSIG;
0154601010999992007010717304+35733-005900FM-15+0021GMTT V0202501N00151004801CN0050001N1+01401+01201999999ADDGA1025+003001999GA2075+004801999GF107991999999999999999999MA1102911999999REMMET069METAR GMTT 071730Z AUTO 25003KT 5000 FEW010 BKN016 14/12 Q1029 NOSIG;
0264601010999992007010718004+35733-005900SY-MT+0021GMTT V0202201N00151004801CN0050001N1+01341+01161102951ADDGA1025+003001999GA2075+004801999GF107991071051004501999999KA1120M+01641MA1102911999999MD1310061+9999REMSYN082AAXX  07184 60101 32450 72203 10134 20116 40295 53006 875// 333 10164 82710 87616;MET064METAR GMTT 071800Z 22003KT 5000 FEW010 BKN016 13/12 Q1029 NOSIG;
0149601010999992007010718304+35733-005900FM-15+0021GMTT V0201901N00151004801CN0050001N1+01301+01101999999ADDGA1025+003001999GA2075+004801999GF107991999999999999999999MA1102911999999REMMET064METAR GMTT 071830Z 19003KT 5000 FEW010 BKN016 13/11 Q1029 NOSIG;
0165601010999992007010719004+35733-005900FM-15+0021GMTT V0202201N00101004801CN0050001N1+01301+01101999999ADDGA1025+003001999GA2075+004801999GF107991999999999999999999MA1103011999999REMMET080METAR GMTT 071900Z 22002KT 5000 FEW010 BKN016 13/11 Q1030 NOSIGV METAR GMME NIL;
0154601010999992007010719304+35733-005900FM-15+0021GMTT V0202101N00051004801CN0050001N1+01201+01101999999ADDGA1025+003001999GA2075+004801999GF107991999999999999999999MA1103011999999REMMET069METAR GMTT 071930Z AUTO 21001KT 5000 FEW010 BKN016 12/11 Q1030 NOSIG;
0149601010999992007010720004+35733-005900FM-15+0021GMTT V0209999C00001004801CN0050001N1+01101+01001999999ADDGA1025+003001999GA2075+004801999GF107991999999999999999999MA1103011999999REMMET064METAR GMTT 072000Z 00000KT 5000 FEW010 BKN016 11/10 Q1030 NOSIG;
0149601010999992007010720304+35733-005900FM-15+0021GMTT V0202601N00101004801CN0050001N1+01201+01101999999ADDGA1025+003001999GA2075+004801999GF107991999999999999999999MA1103011999999REMMET064METAR GMTT 072030Z 26002KT 5000 FEW010 BKN016 12/11 Q1030 NOSIG;
0245601010999992007010721004+35733-005900SY-MT+0021GMTT V0209999C00001004801CN0050001N1+01041+00911103071ADDGA1025+003001999GA2075+004801999GF107991071051004501999999MA1103011999999MD1310121+9999REMSYN076AAXX  07214 60101 32450 70000 10104 20091 40307 53012 875// 333 82710 87616;MET064METAR GMTT 072100Z 00000KT 5000 FEW010 BKN016 10/09 Q1030 NOSIG;
0157601010999992007010721304+35733-005900FM-15+0021GMTT V0200301N00051004801CN0050001N1+01001+00901999999ADDGA1025+003001999GA2075+004801999GF107991999999999999999999MA1103011999999REMMET072METAR GMTT 072130Z 03001KT 5000 FEW010 BKN016 10/09 Q1030 TEMPO 3000 BR;
0157601010999992007010722004+35733-005900FM-15+0021GMTT V0200501N00101004801CN0050001N1+01001+00901999999ADDGA1025+003001999GA2075+004801999GF107991999999999999999999MA1103121999999REMMET072METAR GMTT 072200Z 05002KT 5000 FEW010 BKN016 10/09 Q1031 TEMPO 3000 BR;
0149601010999992007010722304+35733-005900FM-15+0021GMTT V0201001N00151004801CN0050001N1+01001+00901999999ADDGA1045+003001999GA2075+004801999GF107991999999999999999999MA1103121999999REMMET064METAR GMTT 072230Z 10003KT 5000 SCT010 BKN016 10/09 Q1031 NOSIG;
0177601010999992007010723004+35733-005900FM-15+0021GMTT V0201001N00151999999CN0030001N1+00901+00801999999ADDGA1045+003001999GA2045+004801999GF104991999999999999999999MA1103121999999MW1101REMMET067METAR GMTT 072300Z 10003KT 3000 BR SCT010 SCT016 09/08 Q1031 NOSIG;EQDP01 004803SCOCIG
0158601010999992007010723304+35733-005900FM-15+0021GMTT V0201001N00151004801CN0030001N1+00801+00701999999ADDGA1045+003001999GA2075+004801999GF107991999999999999999999MA1103121999999MW1101REMMET067METAR GMTT 072330Z 10003KT 3000 BR SCT010 BKN016 08/07 Q1031 NOSIG;
0276601010999992007010800004+35733-005900SY-MT+0021GMTT V0200601N00101004801CN0030001N1+00751+00671103071ADDAY121061AY221061GA1045+003001999GA2075+004801999GF199999061051004501001001MA1103011999999MD1010001+9999MW1101REMSYN082AAXX  08004 60101 31430 60602 10075 20067 40307 50000 71022 86500 333 83710 86616;MET067METAR GMTT 080000Z 06002KT 3000 BR SCT010 BKN016 08/07 Q1030 NOSIG;
0166601010999992007010800304+35733-005900FM-15+0021GMTT V0209999C00001004801CN0030001N1+00701+00701999999ADDGA1045+003001999GA2075+004801999GF107991999999999999999999MA1103011999999MW1101REMMET075METAR GMTT 080030Z 00000KT 3000 BR SCT010 BKN016 07/07 Q1030 TEMPO 0300 FG;
0128601010999992007010800454+35733-005900FM-15+0021GMTT V0200601N001010048059N9999999N1+00701+00601999999ADDGA1045+003005999GA2075+004805999MA1103001999999REMMET069METAR GMTT 080045Z 06002KT 600 FG SCT010 BKN016 07/06 Q1030 NOSIG M2;
0125601010999992007010801004+35733-005900FM-15+0021GMTT V0200601N001010048059N9999999N1+00701+00601999999ADDGA1045+001805999GA2075+004805999MA1103001999999REMMET066METAR GMTT 080100Z 06002KT 600 FG SCT006 BKN016 07/06 Q1030 NOSIG;
0104601010999992007010801304+35733-005900AUTO +0021GMTT V0200601N001012200019N9999999N1+00701+00601999999ADDAW1301MA1103001999999REMMET071METAR GMTT 080130Z AUTO 06002KT 600 FG SCT006 BKN016 07/06 Q1030 NOSIG;
0104601010999992007010802004+35733-005900AUTO +0021GMTT V0200901N001012200019N9999999N1+00701+00601999999ADDAW1301MA1103001999999REMMET071METAR GMTT 080200Z AUTO 09002KT 600 FG SCT006 BKN016 07/06 Q1030 NOSIG;
0104601010999992007010802304+35733-005900AUTO +0021GMTT V0200601N000512200019N9999999N1+00601+00601999999ADDAW1301MA1103001999999REMMET071METAR GMTT 080230Z AUTO 06001KT 600 FG SCT006 BKN016 06/06 Q1030 NOSIG;
0278601010999992007010803004+35733-005900SY-MT+0021GMTT V0200401N00151004801CN0006001N1+00661+00611103021ADDAW1301AZ121031GA1045+001801071GA2075+004801061GF106991061051002501001001MA1103001999999MD1610111+9999MW1441REMSYN082AAXX  08034 60101 34306 60403 10066 20061 40302 56011 74422 86500 333 83706 86616;MET071METAR GMTT 080300Z AUTO 04003KT 600 FG SCT006 BKN016 07/06 Q1030 NOSIG;
0104601010999992007010803304+35733-005900AUTO +0021GMTT V0201001N001512200019N9999999N1+00701+00601999999ADDAW1301MA1103001999999REMMET071METAR GMTT 080330Z AUTO 10003KT 600 FG SCT006 BKN016 07/06 Q1030 NOSIG;
0071601010999992007010804004+35733-005900FM-15+0021GMTT V0200301N001512200019N9999999N1+00601+00601999999ADDMA1102911999999REMMET044METAR GMTT 080400Z AUTO 03003KT 06/06 Q1029;
0071601010999992007010804304+35733-005900FM-15+0021GMTT V0200101N001012200019N9999999N1+00601+00601999999ADDMA1102911999999REMMET044METAR GMTT 080430Z AUTO 01002KT 06/06 Q1029;
0158601010999992007010804494+35733-005900FM-15+0021GMTT V0200801N00051004801CN0015001N1+00601+00501999999ADDGA1045+001801999GA2075+004801999GF107991999999999999999999MA1102911999999MW1101REMMET067METAR GMTT 080449Z 08001KT 1500 BR SCT006 BKN016 06/05 Q1029 NOSIG;
0158601010999992007010805004+35733-005900FM-15+0021GMTT V0200801N00051004801CN0015001N1+00601+00501999999ADDGA1045+001801999GA2075+004801999GF107991999999999999999999MA1102911999999MW1101REMMET067METAR GMTT 080500Z 08001KT 1500 BR SCT006 BKN016 06/05 Q1029 NOSIG;
0158601010999992007010805304+35733-005900FM-15+0021GMTT V0200501N00101004801CN0020001N1+00501+00501999999ADDGA1045+001801999GA2075+004801999GF107991999999999999999999MA1102911999999MW1101REMMET067METAR GMTT 080530Z 05002KT 2000 BR SCT006 BKN016 05/05 Q1029 NOSIG;
0301601010999992007010806004+35733-005900SY-MT+0021GMTT V0201001N00151004801CN0020001N1+00581+00531102991ADDAY141061AY241061GA1045+001801999GA2075+004801999GF199999061051002501001001KA1120N+00511MA1102911999999MD1510031+9999MW1101REMSYN094AAXX  08064 60101 31320 61003 10058 20053 40299 55003 71044 86500 333 20051 31/// 83706 86616;MET067METAR GMTT 080600Z 10003KT 2000 BR SCT006 BKN016 06/05 Q1029 NOSIG;
0177601010999992007010806304+35733-005900FM-15+0021GMTT V0200501N00151999999CN0020001N1+00601+00501999999ADDGA1025+001801999GA2045+004801999GF104991999999999999999999MA1102911999999MW1101REMMET067METAR GMTT 080630Z 05003KT 2000 BR FEW006 SCT016 06/05 Q1029 NOSIG;EQDP01 004803SCOCIG
0177601010999992007010807004+35733-005900FM-15+0021GMTT V0201001N00151999999CN0030001N1+00501+00501999999ADDGA1025+001801999GA2045+004801999GF104991999999999999999999MA1103011999999MW1101REMMET067METAR GMTT 080700Z 10003KT 3000 BR FEW006 SCT016 05/05 Q1030 NOSIG;EQDP01 004803SCOCIG
0177601010999992007010807304+35733-005900FM-15+0021GMTT V0200901N00101999999CN0040001N1+00501+00501999999ADDGA1045+004801999GA2045+060001999GF104991999999999999999999MA1103011999999MW1101REMMET067METAR GMTT 080730Z 09002KT 4000 BR SCT016 SCT200 05/05 Q1030 NOSIG;EQDP01 060003SCOCIG
0177601010999992007010808004+35733-005900FM-15+0021GMTT V0200801N00151999999CN0040001N1+00601+00501999999ADDGA1045+004801999GA2045+060001999GF104991999999999999999999MA1103011999999MW1101REMMET067METAR GMTT 080800Z 08003KT 4000 BR SCT016 SCT200 06/05 Q1030 NOSIG;EQDP01 060003SCOCIG
0177601010999992007010808304+35733-005900FM-15+0021GMTT V0200401N00151999999CN0040001N1+00701+00701999999ADDGA1045+004801999GA2045+060001999GF104991999999999999999999MA1103011999999MW1101REMMET067METAR GMTT 080830Z 04003KT 4000 BR SCT016 SCT200 07/07 Q1030 NOSIG;EQDP01 060003SCOCIG
0295601010999992007010809004+35733-005900SY-MT+0021GMTT V0200901N00151999999CN0040001N1+00901+00861103081ADDAY121031AY221031GA1045+004801999GA2045+060001999GF104991041051004501001001MA1103011999999MD1310071+9999MW1101REMSYN082AAXX  08094 60101 31440 40903 10090 20086 40308 53007 71022 84500 333 83616 83070;MET067METAR GMTT 080900Z 09003KT 4000 BR SCT016 SCT200 09/09 Q1030 NOSIG;EQDP01 060003SCOCIG
0177601010999992007010809304+35733-005900FM-15+0021GMTT V0200301N00101999999CN0040001N1+01101+01101999999ADDGA1045+004801999GA2045+060001999GF104991999999999999999999MA1103121999999MW1101REMMET067METAR GMTT 080930Z 03002KT 4000 BR SCT016 SCT200 11/11 Q1031 NOSIG;EQDP01 060003SCOCIG
0193601010999992007010810004+35733-005900FM-15+0021GMTT V0202301N00151999999CN0040001N1+01301+01201999999ADDGA1045+004801999GA2045+060001999GF104991999999999999999999MA1103121999999MW1101REMMET083METAR GMTT 081000Z 23003KT 4000 BR SCT016 SCT200 13/12 Q1031 NOSIGV METAR GMME NIL;EQDP01 060003SCOCIG
0177601010999992007010810304+35733-005900FM-15+0021GMTT V0201901N00261999999CN0040001N1+01301+01301999999ADDGA1045+004801999GA2045+060001999GF104991999999999999999999MA1103121999999MW1101REMMET067METAR GMTT 081030Z 19005KT 4000 BR SCT016 SCT200 13/13 Q1031 NOSIG;EQDP01 060003SCOCIG
0185601010999992007010811004+35733-005900FM-15+0021GMTT V0202001N00361999999CN0040001N1+01501+01301999999ADDGA1045+004801999GA2045+060001999GF104991999999999999999999MA1103121999999MW1101REMMET075METAR GMTT 081100Z 20007KT 170V230 4000 BR SCT016 SCT200 15/13 Q1031 NOSIG;EQDP01 060003SCOCIG
0176601010999992007010811214+35733-005900FM-15+0021GMTT V0202201N00311999999CN0050001N1+01601+01301999999ADDGA1045+004801999GA2045+060001999GF104991999999999999999999MA1103011999999REMMET072METAR GMTT 081121Z 22006KT 170V260 5000 SCT016 SCT200 16/13 Q1030 NOSIG;EQDP01 060003SCOCIG
0185601010999992007010811304+35733-005900FM-15+0021GMTT V0202101N00261999999CN0040001N1+01601+01301999999ADDGA1045+004801999GA2045+060001999GF104991999999999999999999MA1103011999999MW1101REMMET075METAR GMTT 081130Z 21005KT 170V260 4000 BR SCT016 SCT200 16/13 Q1030 NOSIG;EQDP01 060003SCOCIG
0247601010999992007010812004+35733-005900SY-MT+0021GMTT V0202501N00311060001CN0050001N1+01661+01271103011ADDGA1045+003901999GA2025+060001999GF105991041021004501001021MA1103011999999MD1010051+9999REMSYN070AAXX  08124 60101 32450 52506 10166 20127 40301 50005 84202 333 84813;MET072METAR GMTT 081200Z 25006KT 220V280 5000 SCT013 FEW200 17/13 Q1030 NOSIG;
0131601010999992007010812304+35733-005900FM-15+0021GMTT V0202601N00311060005CN0050001N1+01701+01301999999ADDGA1045+003901999GA2025+060001999MA1102911999999REMMET072METAR GMTT 081230Z 26006KT 230V290 5000 SCT013 FEW200 17/13 Q1029 NOSIG;
0131601010999992007010813004+35733-005900FM-15+0021GMTT V0202701N00311060005CN0050001N1+01701+01301999999ADDGA1045+003901999GA2025+060001999MA1102911999999REMMET072METAR GMTT 081300Z 27006KT 230V320 5000 SCT013 FEW200 17/13 Q1029 NOSIG;
0131601010999992007010813304+35733-005900FM-15+0021GMTT V0203001N00311060005CN0050001N1+01601+01201999999ADDGA1045+003901999GA2025+060001999MA1102811999999REMMET072METAR GMTT 081330Z 30006KT 260V320 5000 SCT013 FEW200 16/12 Q1028 NOSIG;
0131601010999992007010814004+35733-005900FM-15+0021GMTT V0202901N00211060005CN0050001N1+01701+01201999999ADDGA1045+003901999GA2025+060001999MA1102811999999REMMET072METAR GMTT 081400Z 29004KT 190V350 5000 SCT013 FEW200 17/12 Q1028 NOSIG;
0134601010999992007010814304+35733-005900FM-15+0021GMTT V0203001N003112200019N0112651N1+01701+01201999999ADDGA1045+003901999GF104991999999999999999999MA1102711999999REMMET065METAR GMTT 081430Z 30006KT 260V350 9999 SCT013 17/12 Q1027 NOSIG;
0216601010999992007010815004+35733-005900SY-MT+0021GMTT V0203001N003612200019N0100001N1+01711+01121102751ADDGA1045+004801999GF199999031021004501001001MA1102711999999MD1610251+9999REMSYN070AAXX  08154 60101 32460 33007 10171 20112 40275 56025 83200 333 83816;MET057METAR GMTT 081500Z 30007KT 9999 SCT016 17/11 Q1027 NOSIG;
0134601010999992007010815304+35733-005900FM-15+0021GMTT V0203201N003112200019N0112651N1+01701+01101999999ADDGA1045+004801999GF104991999999999999999999MA1102711999999REMMET065METAR GMTT 081530Z 32006KT 300V360 9999 SCT016 17/11 Q1027 NOSIG;
0126601010999992007010816004+35733-005900FM-15+0021GMTT V0203101N003112200019N0112651N1+01701+01101999999ADDGA1045+004801999GF104991999999999999999999MA1102711999999REMMET057METAR GMTT 081600Z 31006KT 9999 SCT016 17/11 Q1027 NOSIG;
0131601010999992007010816304+35733-005900FM-15+0021GMTT V0203201N003112200019N0112651N1+01601+01101999999ADDGA1045+004801999GF104991999999999999999999MA1102711999999REMMET062METAR GMTT 081630Z AUTO 32006KT 9999 SCT016 16/11 Q1027 NOSIG;
0126601010999992007010817004+35733-005900FM-15+0021GMTT V0203101N002112200019N0112651N1+01501+01001999999ADDGA1045+004801999GF104991999999999999999999MA1102711999999REMMET057METAR GMTT 081700Z 31004KT 9999 SCT016 15/10 Q1027 NOSIG;
0126601010999992007010817304+35733-005900FM-15+0021GMTT V0203201N002112200019N0112651N1+01301+00901999999ADDGA1025+004801999GF102991999999999999999999MA1102711999999REMMET057METAR GMTT 081730Z 32004KT 9999 FEW016 13/09 Q1027 NOSIG;
0235601010999992007010818004+35733-005900SY-MT+0021GMTT V0203301N002112200019N0100001N1+00991+00711102751ADDGA1025+004801999GF102991021051004501001001KA1120M+01741MA1102711999999MD1410001+9999REMSYN076AAXX  08184 60101 32460 23304 10099 20071 40275 54000 82500 333 10174 82616;MET057METAR GMTT 081800Z 33004KT 9999 FEW016 10/07 Q1027 NOSIG;
0126601010999992007010818304+35733-005900FM-15+0021GMTT V0203501N001512200019N0112651N1+00801+00601999999ADDGA1025+004801999GF102991999999999999999999MA1102711999999REMMET057METAR GMTT 081830Z 35003KT 9999 FEW016 08/06 Q1027 NOSIG;
0126601010999992007010819004+35733-005900FM-15+0021GMTT V0201001N001512200019N0112651N1+00801+00601999999ADDGA1025+004801999GF102991999999999999999999MA1102711999999REMMET057METAR GMTT 081900Z 10003KT 9999 FEW016 08/06 Q1027 NOSIG;
0126601010999992007010819304+35733-005900FM-15+0021GMTT V0200901N001012200019N0112651N1+00701+00601999999ADDGA1025+004801999GF102991999999999999999999MA1102711999999REMMET057METAR GMTT 081930Z 09002KT 9999 FEW016 07/06 Q1027 NOSIG;
0126601010999992007010820004+35733-005900FM-15+0021GMTT V0200901N001012200019N0080001N1+00701+00601999999ADDGA1025+004801999GF102991999999999999999999MA1102711999999REMMET057METAR GMTT 082000Z 09002KT 8000 FEW016 07/06 Q1027 NOSIG;
0126601010999992007010820304+35733-005900FM-15+0021GMTT V0200901N001012200019N0080001N1+00701+00601999999ADDGA1025+004801999GF102991999999999999999999MA1102711999999REMMET057METAR GMTT 082030Z 09002KT 8000 FEW016 07/06 Q1027 NOSIG;
0216601010999992007010821004+35733-005900SY-MT+0021GMTT V0200801N001012200019N0080001N1+00641+00541102741ADDGA1025+004801999GF102991021051004501001001MA1102711999999MD1010001+9999REMSYN070AAXX  08214 60101 32458 20802 10064 20054 40274 50000 82500 333 82616;MET057METAR GMTT 082100Z 08002KT 8000 FEW016 06/05 Q1027 NOSIG;
0126601010999992007010821304+35733-005900FM-15+0021GMTT V0200601N001512200019N0080001N1+00601+00501999999ADDGA1025+004801999GF102991999999999999999999MA1102711999999REMMET057METAR GMTT 082130Z 06003KT 8000 FEW016 06/05 Q1027 NOSIG;
0126601010999992007010822004+35733-005900FM-15+0021GMTT V0200901N001512200019N0080001N1+00601+00501999999ADDGA1025+004801999GF102991999999999999999999MA1102711999999REMMET057METAR GMTT 082200Z 09003KT 8000 FEW016 06/05 Q1027 NOSIG;
0139601010999992007010822304+35733-005900FM-15+0021GMTT V0200901N002112200019N0080001N1+00601+00601999999ADDGA1025+004801999GF102991999999999999999999MA1102711999999REMMET070METAR GMTT 082230Z AUTO 09004KT 070V130 8000 FEW016 06/06 Q1027 NOSIG;
0131601010999992007010823004+35733-005900FM-15+0021GMTT V0200501N001012200019N0080001N1+00601+00601999999ADDGA1025+004801999GF102991999999999999999999MA1102711999999REMMET062METAR GMTT 082300Z AUTO 05002KT 8000 FEW016 06/06 Q1027 NOSIG;
0126601010999992007010823304+35733-005900FM-15+0021GMTT V0200701N001512200019N0080001N1+00601+00501999999ADDGA1025+004801999GF102991999999999999999999MA1102611999999REMMET057METAR GMTT 082330Z 07003KT 8000 FEW016 06/05 Q1026 NOSIG;
0222601010999992007010900004+35733-005900SY-MT+0021GMTT V0200801N002112200019N0080001N1+00641+00581102661ADDGA1025+004801999GF102991021051004501001001MA1102611999999MD1810051+9999REMSYN076AAXX  09004 60101 32458 20804 10064 20058 40266 58005 82500 92350 333 82616;MET057METAR GMTT 090000Z 08004KT 8000 FEW016 06/06 Q1026 NOSIG;
0131601010999992007010900304+35733-005900FM-15+0021GMTT V0200801N002112200019N0080001N1+00601+00501999999ADDGA1025+004801999GF102991999999999999999999MA1102611999999REMMET062METAR GMTT 090030Z AUTO 08004KT 8000 FEW016 06/05 Q1026 NOSIG;
0131601010999992007010901004+35733-005900FM-15+0021GMTT V0200801N001512200019N0080001N1+00501+00401999999ADDGA1025+004801999GF102991999999999999999999MA1102611999999REMMET062METAR GMTT 090100Z AUTO 08003KT 8000 FEW016 05/04 Q1026 NOSIG;
0071601010999992007010901304+35733-005900FM-15+0021GMTT V0200801N001512200019N9999999N1+00601+00501999999ADDMA1102611999999REMMET044METAR GMTT 090130Z AUTO 08003KT 06/05 Q1026;
0131601010999992007010902004+35733-005900FM-15+0021GMTT V0200801N002112200019N0080001N1+00601+00601999999ADDGA1025+004801999GF102991999999999999999999MA1102511999999REMMET062METAR GMTT 090200Z AUTO 08004KT 8000 FEW016 06/06 Q1025 NOSIG;
0131601010999992007010902304+35733-005900FM-15+0021GMTT V0200701N001512200019N0080001N1+00601+00501999999ADDGA1025+004801999GF102991999999999999999999MA1102511999999REMMET062METAR GMTT 090230Z AUTO 07003KT 8000 FEW016 06/05 Q1025 NOSIG;
0221601010999992007010903004+35733-005900SY-MT+0021GMTT V0200901N004112200019N0080001N1+00771+00721102551ADDGA1025+004801999GF102991021051004501001001MA1102511999999MD1610121+9999REMSYN070AAXX  09034 60101 35458 20908 10077 20072 40255 56012 82500 333 82616;MET062METAR GMTT 090300Z AUTO 09008KT 8000 FEW016 08/07 Q1025 NOSIG;
0071601010999992007010903304+35733-005900FM-15+0021GMTT V0200901N003612200019N9999999N1+00801+00701999999ADDMA1102511999999REMMET044METAR GMTT 090330Z AUTO 09007KT 08/07 Q1025;
0071601010999992007010904004+35733-005900FM-15+0021GMTT V0201001N003112200019N9999999N1+00701+00601999999ADDMA1102511999999REMMET044METAR GMTT 090400Z AUTO 10006KT 07/06 Q1025;
0131601010999992007010904304+35733-005900FM-15+0021GMTT V0201001N002112200019N0080001N1+00701+00601999999ADDGA1025+004801999GF102991999999999999999999MA1102511999999REMMET062METAR GMTT 090430Z AUTO 10004KT 8000 FEW016 07/06 Q1025 NOSIG;
0131601010999992007010905004+35733-005900FM-15+0021GMTT V0200901N001512200019N0080001N1+00701+00601999999ADDGA1025+004801999GF102991999999999999999999MA1102511999999REMMET062METAR GMTT 090500Z AUTO 09003KT 8000 FEW016 07/06 Q1025 NOSIG;
0071601010999992007010905304+35733-005900FM-15+0021GMTT V0201001N003112200019N9999999N1+00601+00601999999ADDMA1102511999999REMMET044METAR GMTT 090530Z AUTO 10006KT 06/06 Q1025;
0235601010999992007010906004+35733-005900SY-MT+0021GMTT V0200901N001512200019N0080001N1+00631+00551102511ADDGA1025+004801999GF102991021051004501001001KA1120N+00511MA1102511999999MD1810081+9999REMSYN076AAXX  09064 60101 32458 20903 10063 20055 40251 58008 82500 333 20051 82616;MET057METAR GMTT 090600Z 09003KT 8000 FEW016 06/06 Q1025 NOSIG;
0126601010999992007010906304+35733-005900FM-15+0021GMTT V0200901N002612200019N0080001N1+00501+00401999999ADDGA1025+004801999GF102991999999999999999999MA1102511999999REMMET057METAR GMTT 090630Z 09005KT 8000 FEW016 05/04 Q1025 NOSIG;
0126601010999992007010907004+35733-005900FM-15+0021GMTT V0200801N001512200019N0080001N1+00501+00401999999ADDGA1025+004801999GF102991999999999999999999MA1102511999999REMMET057METAR GMTT 090700Z 08003KT 8000 FEW016 05/04 Q1025 NOSIG;
0168601010999992007010907304+35733-005900FM-15+0021GMTT V0200901N00211999999CN0080001N1+00601+00501999999ADDGA1025+004801999GA2045+060001999GF104991999999999999999999MA1102511999999REMMET064METAR GMTT 090730Z 09004KT 8000 FEW016 SCT200 06/05 Q1025 NOSIG;EQDP01 060003SCOCIG
0168601010999992007010908004+35733-005900FM-15+0021GMTT V0200801N00151999999CN0080001N1+00601+00501999999ADDGA1025+004801999GA2045+060001999GF104991999999999999999999MA1102511999999REMMET064METAR GMTT 090800Z 08003KT 8000 FEW016 SCT200 06/05 Q1025 NOSIG;EQDP01 060003SCOCIG
0149601010999992007010908304+35733-005900FM-15+0021GMTT V0201001N00311060001CN0080001N1+00601+00601999999ADDGA1025+004801999GA2075+060001999GF107991999999999999999999MA1102511999999REMMET064METAR GMTT 090830Z 10006KT 8000 FEW016 BKN200 06/06 Q1025 NOSIG;
0245601010999992007010909004+35733-005900SY-MT+0021GMTT V0201001N00261060001CN0070001N1+00791+00731102591ADDGA1025+004801999GA2075+060001999GF199999021051004501001021MA1102511999999MD1210051+9999REMSYN076AAXX  09094 60101 32457 61005 10079 20073 40259 52005 82502 333 82616 85070;MET064METAR GMTT 090900Z 10005KT 7000 FEW016 BKN200 07/07 Q1025 NOSIG;
0149601010999992007010910004+35733-005900FM-15+0021GMTT V0200901N00151060001CN0070001N1+01101+01001999999ADDGA1025+004801999GA2075+060001999GF107991999999999999999999MA1102611999999REMMET064METAR GMTT 091000Z 09003KT 7000 FEW016 BKN200 11/10 Q1026 NOSIG;
0149601010999992007010910304+35733-005900FM-15+0021GMTT V0201001N00211060001CN0070001N1+01201+01101999999ADDGA1025+004801999GA2075+060001999GF107991999999999999999999MA1102611999999REMMET064METAR GMTT 091030Z 10004KT 7000 FEW016 BKN200 12/11 Q1026 NOSIG;
0149601010999992007010911004+35733-005900FM-15+0021GMTT V0201001N00151060001CN0070001N1+01301+01101999999ADDGA1025+004801999GA2075+060001999GF107991999999999999999999MA1102611999999REMMET064METAR GMTT 091100Z 10003KT 7000 FEW016 BKN200 13/11 Q1026 NOSIG;
0149601010999992007010911304+35733-005900FM-15+0021GMTT V0201001N00101060001CN0070001N1+01401+01101999999ADDGA1025+004801999GA2075+060001999GF107991999999999999999999MA1102611999999REMMET064METAR GMTT 091130Z 10002KT 7000 FEW016 BKN200 14/11 Q1026 NOSIG;
