0147601010999991990010100004+35733-005900SY-MT+0021GMTT V0209991C00001220001CN0100001N1+01461+01291102231ADDAA106000091AG14000GA1031+004809089GF103991031021004501001001MA1102201999999MD1110031+9999MW1001REMSYN011333   83816MET004NSG?EQDQ01+000000PRSWM2
0073601010999991990010100304+35733-005900FM-15+0021GMTT V0201801N00211220001CN0112001N1+01501+01301999999ADDAG11999GA1031+004809089MA1102201999999REMMET004NSG?EQDQ01+000000PRSWM2
0073601010999991990010101004+35733-005900FM-15+0021GMTT V0201801N00101220001CN0112001N1+01501+01301999999ADDAG11999GA1031+004809089MA1102201999999REMMET004NSG?EQDQ01+000000PRSWM2
0073601010999991990010101304+35733-005900FM-15+0021GMTT V0201801N00151220001CN0112001N1+01501+01301999999ADDAG11999GA1041+004809089MA1102201999999REMMET004NSG?EQDQ01+000000PRSWM2
0073601010999991990010102004+35733-005900FM-15+0021GMTT V0209991C00001220001CN0112001N1+01401+01301999999ADDAG11999GA1031+004809089MA1102201999999REMMET004NSG?EQDQ01+000000PRSWM2
0089601010999991990010102304+35733-005900FM-15+0021GMTT V0209991V99999220001CN0112001N1+01401+01301999999ADDAG12000GA1031+004809089MA1102201999999REMMET004NSG?EQDQ01+005103WOSPD Q02+000000PRSWM2
0147601010999991990010103004+35733-005900SY-MT+0021GMTT V0209991C00001220001CN0100001N1+01401+01221102231ADDAA106000091AG14000GA1021+004809089GF102991021021004501001001MA1102201999999MD1410001+9999MW1001REMSYN011333   82816MET004NSG?EQDQ01+000000PRSWM2
0073601010999991990010103304+35733-005900FM-15+0021GMTT V0209991C00001220001CN0112001N1+01401+01201999999ADDAG12999GA1031+004809089MA1102201999999REMMET004NSG?EQDQ01+000000PRSWM2
0075601010999991990010104004+35733-005900FM-15+0021GMTT V0209991C00001220001CN0112001N1+99999+99999999999ADDAG12999GA1021+004809089REMMET021114EEE 114/112 11021?EQDQ01+000000PRSWM2
0073601010999991990010104304+35733-005900FM-15+0021GMTT V0209991C00001220001CN0112001N1+01401+01201999999ADDAG12999GA1021+004809089MA1102101999999REMMET004NSG?EQDQ01+000000PRSWM2
0073601010999991990010105004+35733-005900FM-15+0021GMTT V0201801N00261220001CN0112001N1+01401+01301999999ADDAG12999GA1021+004809089MA1102101999999REMMET004NSG?EQDQ01+000000PRSWM2
0073601010999991990010105304+35733-005900FM-15+0021GMTT V0201801N00411220001CN0112001N1+01301+01101999999ADDAG12000GA1021+004809089MA1102101999999REMMET004NSG?EQDQ01+000000PRSWM2
0166601010999991990010106004+35733-005900SY-MT+0021GMTT V0201801N00411220001CN0100001N1+01321+01091102141ADDAA106000091AG14000GA1021+004809089GF102991021021004501001001KA1120N+01251MA1102101999999MD1610091+9999MW1001REMSYN017333   20125 82816MET004NSG?EQDQ01+000000PRSWM2
0073601010999991990010106304+35733-005900FM-15+0021GMTT V0201801N00361220001CN0112001N1+01301+01101999999ADDAG12999GA1021+004809089MA1102101999999REMMET004NSG?EQDQ01+000000PRSWM2
0073601010999991990010107004+35733-005900FM-15+0021GMTT V0201801N00411220001CN0112001N1+01301+01101999999ADDAG12999GA1021+004809089MA1102101999999REMMET004NSG?EQDQ01+000000PRSWM2
0073601010999991990010107304+35733-005900FM-15+0021GMTT V0201601N00411220001CN0112001N1+01301+01101999999ADDAG12999GA1031+004809089MA1102101999999REMMET004NSG?EQDQ01+000000PRSWM2
0060601010999991990010108004+35733-005900FM-15+0021GMTT V0201801N00621220001CN0112001N1+01201+99999999999ADDAG12999GA1031+004809089MA1102201999999EQDQ01+000000PRSWM2
0060601010999991990010108304+35733-005900FM-15+0021GMTT V0201601N00721220001CN0112001N1+01201+01101999999ADDAG12000GA1031+004809089MA1102201999999EQDQ01+000000PRSWM2
0137601010999991990010109004+35733-005900SY-MT+0021GMTT V0201601N00821220001CN0080001N1+01241+01011102221ADDAA106000091AG14000GA1041+004809089GF104991041021004501001001MA1102201999999MD1310081+9999MW1001REMSYN011333   84816EQDQ01+000000PRSWM2
0060601010999991990010109304+35733-005900FM-15+0021GMTT V0201601N00931220001CN0080001N1+01301+01001999999ADDAG12999GA1041+004809089MA1102201999999EQDQ01+000000PRSWM2
0060601010999991990010110304+35733-005900FM-15+0021GMTT V0201601N00821004801CN0080001N1+01501+01101999999ADDAG12999GA1051+004809089MA1102201999999EQDQ01+000000PRSWM2
0060601010999991990010111004+35733-005900FM-15+0021GMTT V0201601N00931004801CN0080001N1+01601+01201999999ADDAG12999GA1051+004809089MA1102201999999EQDQ01+000000PRSWM2
0060601010999991990010111304+35733-005900FM-15+0021GMTT V0201601N00931004801CN0080001N1+01601+01201999999ADDAG12000GA1051+004809089MA1102201999999EQDQ01+000000PRSWM2
0137601010999991990010112004+35733-005900SY-MT+0021GMTT V0201601N00931220001CN0080001N1+01661+01191102241ADDAA106000091AG14000GA1041+004809089GF104991041021004501001001MA1102201999999MD1010021+9999MW1001REMSYN011333   84816EQDQ01+000000PRSWM2
0060601010999991990010112304+35733-005900FM-15+0021GMTT V0202001N00931004801CN0080001N1+01701+01201999999ADDAG12999GA1051+004809089MA1102201999999EQDQ01+000000PRSWM2
0076601010999991990010113004+35733-005900FM-15+0021GMTT V0202001N01031004801CN0080001N1+01701+01201999999ADDAG12999GA1051+004809089GA2031+024009039MA1102101999999EQDQ01+000000PRSWM2
0063601010999991990010113304+35733-005900FM-15+0021GMTT V0201601N01031004501CN0080001N1+01701+01201999999ADDAG12999GA1051+004509089GA2071+024009039MW1801REMMET00610021?
0095601010999991990010114004+35733-005900FM-15+0021GMTT V0201601N01031006001CN0080001N1+01701+01201999999ADDAG12999GA1031+004509089GA2041+006009059GA3061+024009039GA4031+999999009MA1102001999999MW1251
0079601010999991990010114304+35733-005900FM-15+0021GMTT V0201601N00821006001CN0070001N1+01601+01301999999ADDAG12005GA1031+004509089GA2041+006009059GA3071+024009039MA1102001999999MW1801
0153601010999991990010115004+35733-005900SY-MT+0021GMTT V0201601N00821006001CN0070001N1+01581+01331102061ADDAG12001AY181031AY221031GA1031+004509089GA2041+006009059GA3071+024009039GF107991061081004501071999MA1102001999999MW1251REMSYN023333   83815 84620 87458
0098601010999991990010115304+35733-005900FM-15+0021GMTT V0201601N01031006001CN9999999N9+01601+01301999999ADDAG12999GA1031+004509089GA2041+006009059GA3071+024009039MA1102001999999MW1251EQDQ01+000002VOVAR 
0079601010999991990010116004+35733-005900FM-15+0021GMTT V0201601N00821006001CN0080001N1+01601+01301999999ADDAG12999GA1031+004509089GA2041+006009059GA3071+024009039MA1102001999999MW1251
0076601010999991990010116304+35733-005900FM-15+0021GMTT V0201601N00411004501CN0080001N1+01601+01301999999ADDAG12999GA1061+004509089GA2071+024009039MA1102101999999EQDQ01+000000PRSWM2
0076601010999991990010117004+35733-005900FM-15+0021GMTT V0201601N00721004501CN0112001N1+01601+01301999999ADDAG12999GA1061+004509089GA2041+024009039MA1102101999999EQDQ01+000000PRSWM2
0076601010999991990010117304+35733-005900FM-15+0021GMTT V0201601N00621004501CN0112001N1+01601+01301999999ADDAG12000GA1061+004509089GA2041+024009039MA1102101999999EQDQ01+000000PRSWM2
0194601010999991990010118004+35733-005900SY-MT+0021GMTT V0201601N00511004501CN0100001N1+01581+01331102161ADDAA199003091AG10001AY181061AY281061GA1061+004509089GA2041+024009039GF107991061021004501071999KA1120M+01741MA1102101999999MD1110101+9999MW1021REMSYN023333   10174 86815 84458EQDQ01+000000PRSWM2
0076601010999991990010118304+35733-005900FM-15+0021GMTT V0201601N00621004501CN0112001N1+01601+01301999999ADDAG12999GA1061+004509089GA2041+030009039MA1102101999999EQDQ01+000000PRSWM2
0089601010999991990010119004+35733-005900FM-15+0021GMTT V0201801N00411030001CN0112001N1+01501+01301999999ADDAG12999GA1041+004509089GA2041+030009039MA1102101999999REMMET004NSG?EQDQ01+000000PRSWM2
0089601010999991990010119304+35733-005900FM-15+0021GMTT V0201801N00411030001CN0080001N1+01501+01301999999ADDAG12999GA1041+004809089GA2041+030009039MA1102101999999REMMET004NSG?EQDQ01+000000PRSWM2
0089601010999991990010120304+35733-005900FM-15+0021GMTT V0201801N00311030001CN0080001N1+01501+01301999999ADDAG12000GA1031+004809089GA2041+030009039MA1102201999999REMMET004NSG?EQDQ01+000000PRSWM2
0091601010999991990010121004+35733-005900FM-15+0021GMTT V0209991C00001030001CN0112001N1+01501+01301999999ADDAG12000GA1041+004809089GA2031+030009039MA1102201999999REMMET006NOSIG?EQDQ01+000000PRSWM2
0075601010999991990010121304+35733-005900FM-15+0021GMTT V0209991C00001220001CN0112001N1+01501+01301999999ADDAG12999GA1041+999999089MA1102201999999REMMET006NOSIG?EQDQ01+000000PRSWM2
0091601010999991990010122004+35733-005900FM-15+0021GMTT V0209991C00001030001CN0112001N1+01501+01301999999ADDAG12999GA1041+004809089GA2031+030009039MA1102201999999REMMET006NOSIG?EQDQ01+000000PRSWM2
0091601010999991990010122304+35733-005900FM-15+0021GMTT V0209991C00001030001CN0112001N1+01501+01301999999ADDAG12999GA1041+004809089GA2031+030009039MA1102301999999REMMET006NOSIG?EQDQ01+000000PRSWM2
0091601010999991990010123304+35733-005900FM-15+0021GMTT V0209991C00001030001CN0112001N1+01501+01301999999ADDAG12000GA1041+004809089GA2031+030009039MA1102301999999REMMET006NOSIG?EQDQ01+000000PRSWM2
0119601010999991990010200004+35733-005900FM-12+0021GMTT V0209991C00001030001CN0100001N9+01301+01211102311ADDAA106000091AG14000GA1031+004809089GA2031+030009039GF105991031021004501071001MD1110011+9999REMSYN017333   83816 83360
0091601010999991990010200304+35733-005900FM-15+0021GMTT V0209991C00001030001CN0112001N1+01301+01201999999ADDAG11999GA1031+004809089GA2031+030009039MA1102301999999REMMET006NOSIG?EQDQ01+000000PRSWM2
0091601010999991990010201004+35733-005900FM-15+0021GMTT V0209991C00001030001CN0112001N1+01301+01201999999ADDAG11999GA1031+004809089GA2031+030009039MA1102301999999REMMET006NOSIG?EQDQ01+000000PRSWM2
0091601010999991990010201304+35733-005900FM-15+0021GMTT V0209991C00001030001CN0112001N1+01301+01201999999ADDAG11999GA1031+004809089GA2031+030009039MA1102301999999REMMET006NOSIG?EQDQ01+000000PRSWM2
0091601010999991990010202004+35733-005900FM-15+0021GMTT V0209991C00001030001CN0112001N1+01301+01201999999ADDAG11999GA1031+004809089GA2031+030009039MA1102301999999REMMET006NOSIG?EQDQ01+000000PRSWM2
0091601010999991990010202304+35733-005900FM-15+0021GMTT V0209991C00001030001CN0112001N1+01301+01201999999ADDAG12000GA1031+004809089GA2031+030009039MA1102301999999REMMET006NOSIG?EQDQ01+000000PRSWM2
0171601010999991990010203004+35733-005900SY-MT+0021GMTT V0209991C00001030001CN0100001N1+01281+01171102271ADDAA106000091AG14000GA1031+004809089GA2031+030009039GF105991031021004501071001MA1102201999999MD1810041+9999MW1001REMSYN017333   83816 83360MET006NOSIG?EQDQ01+000000PRSWM2
0091601010999991990010203304+35733-005900FM-15+0021GMTT V0209991C00001030001CN0112001N1+01301+01201999999ADDAG12999GA1031+004809089GA2031+030009039MA1102201999999REMMET006NOSIG?EQDQ01+000000PRSWM2
0091601010999991990010204004+35733-005900FM-15+0021GMTT V0209991C00001030001CN0112001N1+99999+99999999999ADDAG12999GA1031+004809089GA2031+030009039MA1102201999999REMMET006NOSIG?EQDQ01+000000PRSWM2
0091601010999991990010205004+35733-005900FM-15+0021GMTT V0209991C00001030001CN0112001N1+01301+01201999999ADDAG12999GA1031+004809089GA2031+030009039MA1102101999999REMMET006NOSIG?EQDQ01+000000PRSWM2
0091601010999991990010205304+35733-005900FM-15+0021GMTT V0209991C00001030001CN0112001N1+01301+01201999999ADDAG12000GA1031+004809089GA2031+030009039MA1102101999999REMMET006NOSIG?EQDQ01+000000PRSWM2
0160601010999991990010206004+35733-005900FM-12+0021GMTT V0201801N00311030001CN0100001N9+01401+01271102161ADDAA124003091AG10000AY121061AY221061GA1031+004809089GA2031+030009039GF105991031021004501071001KA1120N+01241MD1810121+9999MW1251REMSYN023333   20124 83816 83360
0091601010999991990010206304+35733-005900FM-15+0021GMTT V0201801N00511030001CN0112001N1+01401+01301999999ADDAG12999GA1031+004809089GA2031+030009039MA1102101999999REMMET006NOSIG?EQDQ01+000000PRSWM2
0091601010999991990010207004+35733-005900FM-15+0021GMTT V0201601N00311030001CN0112001N1+01401+01301999999ADDAG12999GA1031+004809089GA2031+030009039MA1102101999999REMMET006NOSIG?EQDQ01+000000PRSWM2
0091601010999991990010207304+35733-005900FM-15+0021GMTT V0201801N00311030001CN0112001N1+01401+01301999999ADDAG12999GA1031+004809089GA2031+030009039MA1102101999999REMMET006NOSIG?EQDQ01+000000PRSWM2
0060601010999991990010208004+35733-005900FM-15+0021GMTT V0201401N00621220001CN0112001N1+01401+01301999999ADDAG12999GA1031+004509089MA1102101999999EQDQ01+000000PRSWM2
0060601010999991990010208304+35733-005900FM-15+0021GMTT V0201401N00411220001CN0112001N1+01401+01301999999ADDAG12000GA1031+004509089MA1102101999999EQDQ01+000000PRSWM2
0131601010999991990010209004+35733-005900SY-MT+0021GMTT V0200801N00511220001CN0100001N1+01441+01221102191ADDAA106000091AG14000GA1041+004509089GF104991041021004501081001MA1102101999999MD1310031+9999REMSYN011333   84815EQDQ01+000000PRSWM2
0060601010999991990010209304+35733-005900FM-15+0021GMTT V0200801N00411004501CN0080001N1+01401+01201999999ADDAG12999GA1051+004509089MA1102101999999EQDQ01+000000PRSWM2
0076601010999991990010210004+35733-005900FM-15+0021GMTT V0201001N00411004501CN0080001N1+01501+01201999999ADDAG12999GA1051+004509089GA2041+030009039MA1102201999999EQDQ01+000000PRSWM2
0076601010999991990010211004+35733-005900FM-15+0021GMTT V0201001N00511004501CN0080001N1+01501+01201999999ADDAG12999GA1051+004509089GA2041+030009039MA1102201999999EQDQ01+000000PRSWM2
0076601010999991990010211304+35733-005900FM-15+0021GMTT V0201201N00511004501CN0080001N1+01501+01201999999ADDAG12000GA1051+004509089GA2041+030009039MA1102201999999EQDQ01+000000PRSWM2
0119601010999991990010212004+35733-005900FM-12+0021GMTT V0201201N00511004501CN0080001N9+01641+01241102231ADDAA106000091AG14000GA1051+004509089GA2041+030009039GF107991051021004501081001MD1810041+9999REMSYN017333   85815 84360
0089601010999991990010212304+35733-005900FM-15+0021GMTT V0201201N00721004801CN0080001N1+01701+01201999999ADDAG12999GA1051+004809089GA2031+030009039MA1102201999999REMMET004NSG?EQDQ01+000000PRSWM2
0089601010999991990010213004+35733-005900FM-15+0021GMTT V0201201N00511004801CN0080001N1+01701+01201999999ADDAG12999GA1051+004809089GA2031+030009039MA1102201999999REMMET004NSG?EQDQ01+000000PRSWM2
0076601010999991990010213304+35733-005900FM-15+0021GMTT V0201201N00511004801CN0112001N1+01701+01201999999ADDAG12999GA1051+004809059GA2031+030009039MA1102201999999EQDQ01+000000PRSWM2
0076601010999991990010214004+35733-005900FM-15+0021GMTT V0201801N00411004801CN0112001N1+01801+01401999999ADDAG12999GA1051+004809059GA2031+030009039MA1102001999999EQDQ01+000000PRSWM2
0076601010999991990010214304+35733-005900FM-15+0021GMTT V0201801N00511004801CN0112001N1+01801+01401999999ADDAG12000GA1051+004809059GA2031+030009039MA1102001999999EQDQ01+000000PRSWM2
0089601010999991990010215304+35733-005900FM-15+0021GMTT V0201801N00621069001CN0112001N1+01801+01301999999ADDAG12999GA1041+004809089GA2041+069009009MA1101901999999REMMET004NSG?EQDQ01+000000PRSWM2
0105601010999991990010216004+35733-005900FM-15+0021GMTT V0201801N00621004801CN0112001N1+01801+01201999999ADDAG12999GA1021+003909089GA2031+004809059GA3051+069009009MA1101901999999REMMET004NSG?EQDQ01+000000PRSWM2
0105601010999991990010216304+35733-005900FM-15+0021GMTT V0201801N00411004801CN0112001N1+01301+01201999999ADDAG12999GA1021+003909089GA2031+004809059GA3051+069009009MA1101801999999REMMET004NSG?EQDQ01+000000PRSWM2
0105601010999991990010217004+35733-005900FM-15+0021GMTT V0201801N00211004801CN0112001N1+01701+01401999999ADDAG12999GA1021+003909089GA2041+004809059GA3051+030009039MA1101801999999REMMET004NSG?EQDQ01+000000PRSWM2
0105601010999991990010217304+35733-005900FM-15+0021GMTT V0202001N00771004801CN0112001N1+01701+01401999999ADDAG12000GA1021+003909089GA2041+004809059GA3051+030009039MA1101801999999REMMET004NSG?EQDQ01+000000PRSWM2
0182601010999991990010218004+35733-005900SY-MT+0021GMTT V0202001N00411030001CN0100001N1+01701+01261101821ADDAA106000091AG14000GA1031+004809059GA2051+030009039GF107991031051004501071021KA1120M+01841MA1101801999999MD1610131+9999REMSYN023333   10184 83616 85360MET004NSG?EQDQ01+000000PRSWM2
0076601010999991990010218304+35733-005900FM-15+0021GMTT V0201801N00211030001CN0112001N1+01701+01301999999ADDAG12999GA1031+004809059GA2051+030009039MA1101801999999EQDQ01+000000PRSWM2
0076601010999991990010219004+35733-005900FM-15+0021GMTT V0209991C00001030001CN0112001N1+01701+01301999999ADDAG12999GA1031+004809059GA2051+030009039MA1101801999999EQDQ01+000000PRSWM2
0076601010999991990010219304+35733-005900FM-15+0021GMTT V0201801N00211030001CN0112001N1+01701+01301999999ADDAG12999GA1031+004809059GA2051+030009039MA1101801999999EQDQ01+000000PRSWM2
0063601010999991990010220004+35733-005900FM-15+0021GMTT V0201801N00211004801CN0112001N1+01601+01301999999ADDAG12999GA1061+004809059GA2051+030009039MA1101801999999MW1251
0076601010999991990010220304+35733-005900FM-15+0021GMTT V0201801N00211004801CN0112001N1+01601+01301999999ADDAG12000GA1051+004809059GA2051+030009039MA1101801999999EQDQ01+000000PRSWM2
0162601010999991990010221004+35733-005900SY-MT+0021GMTT V0201201N00721036001CN0100001N1+01551+01281101791ADDAA106000091AG14000GA1041+004509089GA2031+999999039GF106991041021004501071001MD1610231+9999MW1001REMSYN017333   84815 83460MET01213 1017 NSG?EQDQ01+000000PRSWM2
0089601010999991990010221304+35733-005900FM-15+0021GMTT V0201201N00511030001CN0080001N1+01601+01301999999ADDAG12999GA1041+004509089GA2031+030009039MA1101691999999REMMET004NSG?EQDQ01+000000PRSWM2
0076601010999991990010221534+35733-005900FM-16+0021GMTT V0201201N00931004501CN0060001N1+99999+99999999999ADDAG12011GA1031+003009089GA2051+004509089GA3031+006909099MW1951REMMET003M8?
0079601010999991990010222004+35733-005900FM-15+0021GMTT V0201201N00931004501CN0060001N1+01501+01401999999ADDAG12999GA1031+003009089GA2051+004509089GA3031+006909099MA1101691999999MW1951
0092601010999991990010222304+35733-005900FM-15+0021GMTT V0201201N00511004501CN0060001N1+01401+01301999999ADDAG12999GA1031+003009089GA2051+004509089GA3031+006909099MA1101691999999MW1951REMMET004NSG?
0092601010999991990010223004+35733-005900FM-15+0021GMTT V0201201N00721004501CN0060001N1+99999+99999999999ADDAG12999GA1031+003009089GA2051+004509089GA3031+006909099MA1101691999999MW1951REMMET004NSG?
0092601010999991990010223304+35733-005900FM-15+0021GMTT V0201201N00621004501CN0060001N1+01401+01301999999ADDAG12003GA1031+003009089GA2051+004509089GA3021+006909099MA1101691999999MW1171REMMET004NSG?
0188601010999991990010300004+35733-005900SY-MT+0021GMTT V0201601N00721004501CN0060001N1+01351+01171101631ADDAA106007091AG10001AY181061AY291061GA1031+003009089GA2051+004509089GA3021+006909099GF107991071091004501999999MA1101591999999MD1810161+9999MW1171REMSYN023333   83810 85815 82923MET004NSG?
0092601010999991990010300304+35733-005900FM-15+0021GMTT V0201801N00721004801CN0060001N1+01301+01201999999ADDAG11999GA1031+003009089GA2051+004809089GA3021+006909099MA1101591999999MW1951REMMET004NSG?
0092601010999991990010301004+35733-005900FM-15+0021GMTT V0201601N00721004801CN0060001N1+01301+01201999999ADDAG11999GA1031+003009089GA2051+004809089GA3021+006909099MA1101591999999MW1171REMMET004NSG?
0105601010999991990010302004+35733-005900FM-15+0021GMTT V0201801N00721004801CN0070001N1+01301+01201999999ADDAG11999GA1031+003009089GA2051+004809089GA3021+006909099MA1101391999999REMMET004NSG?EQDQ01+000000PRSWM2
0105601010999991990010302304+35733-005900FM-15+0021GMTT V0201601N00621004801CN0080001N1+01301+01201999999ADDAG12000GA1031+003009089GA2051+004809089GA3021+006909099MA1101391999999REMMET004NSG?EQDQ01+000000PRSWM2
0160601010999991990010303004+35733-005900SY-MT+0021GMTT V0201801N00931004801CN0080001N1+01321+01231101431ADDAG12001AY181031AY281031GA1031+003009089GA2051+004809089GF107991071021004501999999MA1101391999999MW1011REMSYN017333   83810 85816MET004NSG?EQDQ01+000000PRSWM2
0089601010999991990010304004+35733-005900FM-15+0021GMTT V0201801N00721004501CN0080001N1+01301+01201999999ADDAG12999GA1031+003009089GA2051+004509089MA1101391999999REMMET004NSG?EQDQ01+000000PRSWM2
0105601010999991990010304304+35733-005900FM-15+0021GMTT V0201801N00311004801CN0060001N1+01301+01201999999ADDAG12999GA1031+003009089GA2051+004809089GA3021+006909099MA1101391999999REMMET004NSG?EQDQ01+000000PRSWM2
0105601010999991990010305004+35733-005900FM-15+0021GMTT V0201801N00411004801CN0060001N1+01401+01201999999ADDAG12999GA1031+003009089GA2051+004809089GA3021+006909099MA1101291999999REMMET004NSG?EQDQ01+000000PRSWM2
0103601010999991990010305304+35733-005900FM-15+0021GMTT V0201801N00411004801CN0070001N1+01401+01301999999ADDAG12000GA1031+003009089GA2051+004809089GA3011+006909099MA1101291999999REMMET002G?EQDQ01+000000PRSWM2
0226601010999991990010306004+35733-005900SY-MT+0021GMTT V0201801N00411004801CN0060001N1+01401+01221101391ADDAA124012091AG19004AY191061AY281061GA1031+003009089GA2051+004809089GA3011+006909099GF107991071091004501999999KA1120N+01231MA1101291999999MD1610041+9999MW1021REMSYN029333   20123 83810 85816 81923MET004NSG?EQDQ01+000000PRSWM2
0105601010999991990010306304+35733-005900FM-15+0021GMTT V0201801N00411004801CN0080001N1+01401+01201999999ADDAG12999GA1031+003009089GA2051+004809089GA3011+006909099MA1101291999999REMMET004NSG?EQDQ01+000000PRSWM2
0089601010999991990010307004+35733-005900FM-15+0021GMTT V0201801N00211004801CN0080001N1+01301+01201999999ADDAG12999GA1061+004809089GA2011+006909099MA1101291999999REMMET004NSG?EQDQ01+000000PRSWM2
0089601010999991990010307304+35733-005900FM-15+0021GMTT V0201801N00211004801CN0080001N1+01401+01201999999ADDAG12999GA1061+004809089GA2011+006909099MA1101291999999REMMET004NSG?EQDQ01+000000PRSWM2
0079601010999991990010308004+35733-005900FM-15+0021GMTT V0201801N00211004801CN0080001N1+01301+00901999999ADDAG12999GA1031+003909089GA2041+004809059GA3071+030009039MA1101291999999MW1801
0079601010999991990010308304+35733-005900FM-15+0021GMTT V0201801N00511004801CN0080001N1+01301+00901999999ADDAG12002GA1031+003909089GA2041+004809059GA3071+030009039MA1101291999999MW1251
0161601010999991990010309004+35733-005900SY-MT+0021GMTT V0201801N01031004801CN0080001N1+01371+00951101321ADDAG12003AY181031AY221031GA1031+003909089GA2041+004809059GA3071+030009039GF108991051081002501071999MA1101291999999MW1801OC101441REMSYN023333   83813 84616 87460
0079601010999991990010310004+35733-005900FM-15+0021GMTT V0201801N00411004801CN0080001N1+01301+01001999999ADDAG12999GA1021+003909089GA2041+004809059GA3081+030009039MA1101291999999MW1211
0079601010999991990010310304+35733-005900FM-15+0021GMTT V0201801N00931004801CN0060001N1+01301+01001999999ADDAG12999GA1031+003909089GA2061+004809059GA3081+030009039MA1101291999999MW1211
0079601010999991990010311004+35733-005900FM-15+0021GMTT V0202801N00931004801CN0060001N1+01201+00901999999ADDAG12999GA1031+003909089GA2041+004809059GA3081+030009039MA1101291999999MW1601
0079601010999991990010311304+35733-005900FM-15+0021GMTT V0202801N01031004801CN0060001N1+01201+00901999999ADDAG12009GA1031+003909089GA2051+004809059GA3081+030009039MA1101291999999MW1611
0178601010999991990010312004+35733-005900SY-MT+0021GMTT V0202801N00931004801CN0060001N1+01091+00741101381ADDAA106003091AG19003AY161061AY281061GA1031+003009089GA2061+004809059GA3051+030009039GF108991061081002501071999MA1101291999999MD1210061+9999MW1621REMSYN023333   83810 86816 85460
0079601010999991990010313004+35733-005900FM-15+0021GMTT V0202401N00411004801CN0060001N1+01101+00701999999ADDAG12999GA1031+003009089GA2061+004809059GA3071+027009039MA1101291999999MW1611
0079601010999991990010313304+35733-005900FM-15+0021GMTT V0203201N00411004801CN0060001N1+01101+00801999999ADDAG12999GA1031+003909089GA2041+004809089GA3071+030009039MA1101291999999MW1611
0079601010999991990010314004+35733-005900FM-15+0021GMTT V0203201N00311004801CN0070001N1+01101+00801999999ADDAG12999GA1031+003909089GA2041+004809089GA3071+030009039MA1101291999999MW1611
0164601010999991990010315004+35733-005900SY-MT+0021GMTT V0203201N00311004801CN0100001N1+01161+00831101281ADDAG12003AY161031AY261031GA1031+003909089GA2041+004809089GA3071+030009039GF107991051081004501071999MD1710101+9999MW1611REMSYN023333   83813 84816 87460MET00611012?
0092601010999991990010316004+35733-005900FM-15+0021GMTT V0203201N00101004801CN0112001N1+01001+00701999999ADDAG12999GA1031+003909089GA2041+004809089GA3061+030009039MA1101291999999EQDQ01+000000PRSWM2
0092601010999991990010316304+35733-005900FM-15+0021GMTT V0203201N00311004801CN0112001N1+01001+00701999999ADDAG12999GA1031+003909089GA2051+004809089GA3011+006909099MA1101291999999EQDQ01+000000PRSWM2
0079601010999991990010317304+35733-005900FM-15+0021GMTT V0202401N00101004801CN0112001N1+01001+00701999999ADDAG12003GA1031+003909089GA2051+004809089GA3011+006909099MA1101291999999MW1211
0197601010999991990010318004+35733-005900SY-MT+0021GMTT V0202401N00821004801CN0100001N1+01021+00771101361ADDAA199010091AG19001AY161061AY261061GA1031+003909089GA2051+004809089GA3011+006909099GF107991061091004501071999KA1120M+01401MA1101291999999MD1210081+9999MW1211REMSYN029333   10140 83813 85816 81923
0092601010999991990010318304+35733-005900FM-15+0021GMTT V0202401N00821004801CN0112001N1+01001+00801999999ADDAG12999GA1031+003909089GA2051+004809089GA3011+006909099MA1101291999999EQDQ01+000000PRSWM2
0076601010999991990010319004+35733-005900FM-15+0021GMTT V0202601N00621220001CN0112001N1+01001+00801999999ADDAG12999GA1031+004809089GA2011+006909099MA1101291999999EQDQ01+000000PRSWM2
0076601010999991990010319304+35733-005900FM-15+0021GMTT V0202601N00621220001CN0112001N1+01001+00801999999ADDAG12999GA1031+004809089GA2011+006909099MA1101291999999EQDQ01+000000PRSWM2
0063601010999991990010320004+35733-005900FM-15+0021GMTT V0203001N00721004801CN0080001N1+01201+00601999999ADDAG12999GA1061+004809089GA2011+006909099MA1101491999999MW1801
0047601010999991990010320304+35733-005900FM-15+0021GMTT V0203001N00721220001CN0080001N1+01201+00601999999ADDAG12002GA1011+006909099MA1101491999999MW1251
0148601010999991990010321004+35733-005900SY-MT+0021GMTT V0203001N00721004801CN0060001N1+01081+00661101661ADDAG12000GA1061+004809089GA2011+006909099GF107991071091002501999999MA1101591999999MD1310301+9999MW1811REMSYN017333   86816 81923EQDQ01+000003PRSWM1
0048601010999991990010321304+35733-005900FM-15+0021GMTT V0209991C00001004801CN0080001N1+99999+99999999999ADDAG12999GA1051+004809059GA2011+006909099MW1251
0063601010999991990010322004+35733-005900FM-15+0021GMTT V0203401N00411004801CN0080001N1+01001+00701999999ADDAG12999GA1061+004809089GA2011+006909099MA1101591999999MW1251
0076601010999991990010322304+35733-005900FM-15+0021GMTT V0203401N00411004801CN0080001N1+99999+99999999999ADDAG12999GA1061+004809059GA2011+006909099MA1101591999999EQDQ01+000000PRSWM2
0076601010999991990010323004+35733-005900FM-15+0021GMTT V0203201N00311004801CN0080001N1+01101+00701999999ADDAG12999GA1061+004809089GA2011+006909099MA1101691999999EQDQ01+000000PRSWM2
0076601010999991990010323304+35733-005900FM-15+0021GMTT V0203001N00721004801CN0080001N1+01101+00701999999ADDAG12000GA1061+004809059GA2011+006909099MA1101691999999EQDQ01+000000PRSWM2
0141601010999991990010400004+35733-005900FM-12+0021GMTT V0203001N00821003901CN0100001N9+01231+00601101901ADDAA106003091AG10000AY121061AY281061GA1051+003909089GA2011+006909099GF106991061091004501001001MD1310241+9999MW1011REMSYN017333   85813 81923
0060601010999991990010405004+35733-005900FM-15+0021GMTT V0203001N00821220001CN0112001N1+01301+00701999999ADDAG12999GA1031+004809059MA1102001999999EQDQ01+000000PRSWM2
0060601010999991990010405304+35733-005900FM-15+0021GMTT V0203001N00821220001CN0112001N1+99999+99999999999ADDAG12000GA1031+004809089MA1102001999999EQDQ01+000000PRSWM2
0156601010999991990010406004+35733-005900SY-MT+0021GMTT V0203001N00621220001CN0100001N1+01231+00661102111ADDAA124013091AG10000GA1031+004809089GF103991031021004501001001KA1120N+01101MA1102101999999MD1210081+9999MW1001REMSYN017333   20110 83816EQDQ01+000000PRSWM2
0060601010999991990010406304+35733-005900FM-15+0021GMTT V0203001N00621220001CN0112001N1+99999+99999999999ADDAG12999GA1031+004809059MA1102101999999EQDQ01+000000PRSWM2
0060601010999991990010407004+35733-005900FM-15+0021GMTT V0203001N00621220001CN0112001N1+01301+00701999999ADDAG12999GA1031+004809089MA1102101999999EQDQ01+000000PRSWM2
0060601010999991990010407304+35733-005900FM-15+0021GMTT V0209999999999004801CN0112001N1+99999+99999999999ADDAG12999GA1061+004809059MA1102101999999EQDQ01+000000PRSWM2
0076601010999991990010408304+35733-005900FM-15+0021GMTT V0203201N00721004801CN0112001N1+01201+00701999999ADDAG12000GA1061+004809089GA2011+006909099MA1102201999999EQDQ01+000000PRSWM2
0159601010999991990010409004+35733-005900SY-MT+0021GMTT V0203201N00411004801CN0150001N1+01221+00731102301ADDAA106000091AG14000GA1051+004809089GA2011+006909099GF106991061031004501001001MA1102301999999MD1210191+9999MW1001REMSYN017333   85816 81923EQDQ01+000000PRSWM2
0076601010999991990010409304+35733-005900FM-15+0021GMTT V0203201N00411004801CN0112001N1+01201+00701999999ADDAG12999GA1061+004809089GA2011+006909099MA1102301999999EQDQ01+000000PRSWM2
0076601010999991990010410004+35733-005900FM-15+0021GMTT V0203201N00411220001CN9999999N9+01201+00701999999ADDAG12999GA1011+006909099MA1102301999999EQDQ01+000002VOVAR Q02+000000PRSWM2
0076601010999991990010410304+35733-005900FM-15+0021GMTT V0203201N00311004801CN0112001N1+01201+00701999999ADDAG12999GA1061+004809089GA2011+006909099MA1102301999999EQDQ01+000000PRSWM2
0076601010999991990010411004+35733-005900FM-15+0021GMTT V0203201N00311004801CN0112001N1+01301+00901999999ADDAG12999GA1061+004809089GA2011+006909099MA1102401999999EQDQ01+000000PRSWM2
0060601010999991990010411304+35733-005900FM-15+0021GMTT V0203201N00311004801CN0112001N1+01301+00901999999ADDAG12000GA1061+004809089MA1102401999999EQDQ01+000000PRSWM2
0137601010999991990010412004+35733-005900SY-MT+0021GMTT V0203201N00311004801CN0150001N1+01381+00871102501ADDAA106000091AG14000GA1061+004809089GF106991061021004501001001MA1102511999999MD1210201+9999MW1001REMSYN011333   86816EQDQ01+000000PRSWM2
0060601010999991990010412304+35733-005900FM-15+0021GMTT V0203201N00211004801CN0112001N1+01401+00901999999ADDAG12999GA1061+004809089MA1102511999999EQDQ01+000000PRSWM2
0060601010999991990010413004+35733-005900FM-15+0021GMTT V0203201N00311004801CN0112001N1+01401+00901999999ADDAG12999GA1051+004809089MA1102511999999EQDQ01+000000PRSWM2
0060601010999991990010414004+35733-005900FM-15+0021GMTT V0203201N00511220001CN0112001N1+01401+00901999999ADDAG12999GA1041+004809089MA1102401999999EQDQ01+000000PRSWM2
0060601010999991990010414304+35733-005900FM-15+0021GMTT V0203201N00511004801CN0112001N1+01401+00901999999ADDAG12000GA1051+004809089MA1102401999999EQDQ01+000000PRSWM2
0137601010999991990010415004+35733-005900SY-MT+0021GMTT V0203201N00411004801CN0150001N1+01451+00781102431ADDAA106000091AG14000GA1051+004809089GF106991051021004501031001MA1102401999999MD1710071+9999MW1001REMSYN011333   85816EQDQ01+000000PRSWM2
0076601010999991990010415304+35733-005900FM-15+0021GMTT V0203201N00411004801CN0112001N1+01501+00801999999ADDAG12999GA1051+004809089GA2031+030009039MA1102401999999EQDQ01+000000PRSWM2
0076601010999991990010416004+35733-005900FM-15+0021GMTT V0203001N00311004801CN0112001N1+01401+00601999999ADDAG12999GA1051+004809089GA2031+030009039MA1102401999999EQDQ01+000000PRSWM2
0076601010999991990010416304+35733-005900FM-15+0021GMTT V0203001N00411004801CN0112001N1+01401+00601999999ADDAG12999GA1051+004809089GA2031+030009039MA1102401999999EQDQ01+000000PRSWM2
0076601010999991990010417004+35733-005900FM-15+0021GMTT V0203001N00511004801CN0112001N1+01301+00701999999ADDAG12999GA1051+004809089GA2031+030009039MA1102511999999EQDQ01+000000PRSWM2
0060601010999991990010417304+35733-005900FM-15+0021GMTT V0203001N00511004801CN0112001N1+01301+00701999999ADDAG12000GA1051+004809089MA1102511999999EQDQ01+000000PRSWM2
0156601010999991990010418004+35733-005900SY-MT+0021GMTT V0203201N00411004801CN0100001N1+01321+00651102551ADDAA106000091AG14000GA1051+004809089GF106991051021004501031001KA1120M+01491MA1102511999999MD1310091+9999MW1001REMSYN017333   10149 85816EQDQ01+000000PRSWM2
0060601010999991990010418304+35733-005900FM-15+0021GMTT V0203001N00311004801CN0112001N1+99999+99999999999ADDAG12999GA1051+004809089MA1102511999999EQDQ01+000000PRSWM2
0060601010999991990010419004+35733-005900FM-15+0021GMTT V0203201N00211004801CN0112001N1+01301+00701999999ADDAG12999GA1051+004809089MA1102611999999EQDQ01+000000PRSWM2
0060601010999991990010419304+35733-005900FM-15+0021GMTT V0203201N00311004801CN0112001N1+01301+00701999999ADDAG12999GA1051+004809089MA1102611999999EQDQ01+000000PRSWM2
0060601010999991990010420004+35733-005900FM-15+0021GMTT V0203201N00211004801CN0112001N1+01301+00701999999ADDAG12999GA1051+004809089MA1102611999999EQDQ01+000000PRSWM2
0060601010999991990010420304+35733-005900FM-15+0021GMTT V0203201N00211220001CN0112001N1+99999+99999999999ADDAG12000GA1041+004809089MA1102611999999EQDQ01+000000PRSWM2
0119601010999991990010421004+35733-005900FM-12+0021GMTT V0203001N00211030001CN0100001N9+01231+00831102641ADDAA106000091AG14000GA1031+004809089GA2031+030009039GF105991031021004501031001MD1210091+9999REMSYN017333   83816 83360
0076601010999991990010421304+35733-005900FM-15+0021GMTT V0203001N00211030001CN0112001N1+01201+00801999999ADDAG12999GA1031+004809089GA2031+030009039MA1102611999999EQDQ01+000000PRSWM2
0076601010999991990010422004+35733-005900FM-15+0021GMTT V0203001N00211030001CN0112001N1+01201+00801999999ADDAG12999GA1031+004809089GA2031+030009039MA1102611999999EQDQ01+000000PRSWM2
0060601010999991990010422304+35733-005900FM-15+0021GMTT V0203001N00211220001CN0112001N1+01201+00801999999ADDAG12999GA1031+004809089MA1102611999999EQDQ01+000000PRSWM2
0076601010999991990010423004+35733-005900FM-15+0021GMTT V0209991C00001030001CN0112001N1+01201+99999999999ADDAG12999GA1031+004809089GA2031+030009039MA1102611999999EQDQ01+000000PRSWM2
0076601010999991990010423304+35733-005900FM-15+0021GMTT V0209991C00001030001CN0112001N1+01201+00801999999ADDAG12000GA1031+004809089GA2031+030009039MA1102611999999EQDQ01+000000PRSWM2
0159601010999991990010500004+35733-005900SY-MT+0021GMTT V0209991C00001030001CN0100001N1+01151+00811102721ADDAA106000091AG14000GA1031+004809089GA2031+030009039GF105991031021004501031001MA1102711999999MD1310081+9999MW1001REMSYN017333   83816 83360EQDQ01+000000PRSWM2
0165601010999991990010506004+35733-005900SY-MT+0021GMTT V0209991C00001220001CN0100001N1+01101+00821102721ADDAA106000091AG14000GA1021+004809059GF102991021051004501001001KA1120N+00931MD1410001+9999MW1001REMSYN017333   20093 82616MET0182SC016 11/08 1027?EQDQ01+000000PRSWM2
0060601010999991990010506304+35733-005900FM-15+0021GMTT V0209991C00001220001CN0112001N1+01101+00801999999ADDAG12999GA1021+004809059MA1102711999999EQDQ01+000000PRSWM2
0076601010999991990010508004+35733-005900FM-15+0021GMTT V0202401N00151004801CN0080001N1+99999+99999999999ADDAG12999GA1031+003009079GA2051+004809089MA1102711999999EQDQ01+000000PRSWM2
0076601010999991990010508304+35733-005900FM-15+0021GMTT V0202401N00151004801CN0080001N1+99999+99999999999ADDAG12000GA1031+003009079GA2051+004809089MA1102711999999EQDQ01+000000PRSWM2
0159601010999991990010509004+35733-005900SY-MT+0021GMTT V0209991C00001004801CN0100001N1+01151+00931102801ADDAA106000091AG14000GA1021+003009079GA2051+004809089GF106991061061004501001001MA1102811999999MD1310081+9999MW1001REMSYN017333   82710 85816EQDQ01+000000PRSWM2
0060601010999991990010509304+35733-005900FM-15+0021GMTT V0209991C00001004801CN0112001N1+01201+99999999999ADDAG12999GA1051+004809089MA1102811999999EQDQ01+000000PRSWM2
0060601010999991990010510004+35733-005900FM-15+0021GMTT V0209991C00001220001CN0112001N1+01501+00901999999ADDAG12999GA1041+004809089MA1102811999999EQDQ01+000000PRSWM2
0060601010999991990010510304+35733-005900FM-15+0021GMTT V0209991C00001220001CN0112001N1+01501+00901999999ADDAG12999GA1041+004809089MA1102811999999EQDQ01+000000PRSWM2
0060601010999991990010511004+35733-005900FM-15+0021GMTT V0209991C00001220001CN0112001N1+01501+00901999999ADDAG12999GA1021+004809089MA1102811999999EQDQ01+000000PRSWM2
0060601010999991990010511304+35733-005900FM-15+0021GMTT V0209991C00001220001CN0112001N1+01501+00901999999ADDAG12000GA1021+004809089MA1102811999999EQDQ01+000000PRSWM2
0137601010999991990010512004+35733-005900SY-MT+0021GMTT V0209991C00001220001CN0100001N1+01551+00931102841ADDAA106000091AG14000GA1021+004809089GF102991021021004501001001MA1102811999999MD1010041+9999MW1001REMSYN011333   82816EQDQ01+000000PRSWM2
0060601010999991990010512304+35733-005900FM-15+0021GMTT V0203201N00101220001CN0112001N1+01601+00901999999ADDAG12999GA1041+004809089MA1102811999999EQDQ01+000000PRSWM2
0060601010999991990010513004+35733-005900FM-15+0021GMTT V0203201N00101220001CN0112001N1+01601+01001999999ADDAG12999GA1021+004809089MA1102811999999EQDQ01+000000PRSWM2
0060601010999991990010513304+35733-005900FM-15+0021GMTT V0203201N00101220001CN0112001N1+01601+01001999999ADDAG12999GA1021+004809089MA1102811999999EQDQ01+000000PRSWM2
0060601010999991990010514004+35733-005900FM-15+0021GMTT V0203401N00101220001CN0112001N1+01601+01001999999ADDAG12999GA1041+004509089MA1102711999999EQDQ01+000000PRSWM2
0060601010999991990010514304+35733-005900FM-15+0021GMTT V0203401N00101220001CN0112001N1+01601+01001999999ADDAG12000GA1041+004509089MA1102711999999EQDQ01+000000PRSWM2
0137601010999991990010515004+35733-005900SY-MT+0021GMTT V0203401N00101220001CN0100001N1+01641+00981102671ADDAA106000091AG14000GA1041+004809089GF104991041021004501001001MA1102611999999MD1710171+9999MW1001REMSYN011333   84816EQDQ01+000000PRSWM2
0073601010999991990010515304+35733-005900FM-15+0021GMTT V0209991C00001220001CN0112001N1+01601+01001999999ADDAG12999GA1041+004809089MA1102611999999REMMET004NSG?EQDQ01+000000PRSWM2
0060601010999991990010516004+35733-005900FM-15+0021GMTT V0203401N00211220001CN0112001N1+01601+01001999999ADDAG12999GA1041+004809089MA1102611999999EQDQ01+000000PRSWM2
0060601010999991990010516304+35733-005900FM-15+0021GMTT V0202401N00311220001CN0112001N1+01501+00801999999ADDAG12999GA1041+004509089MA1102611999999EQDQ01+000000PRSWM2
0060601010999991990010517004+35733-005900FM-15+0021GMTT V0202401N00311220001CN0112001N1+01501+00801999999ADDAG12999GA1041+004509089MA1102611999999EQDQ01+000000PRSWM2
0060601010999991990010517304+35733-005900FM-15+0021GMTT V0202401N00211220001CN0112001N1+01501+00801999999ADDAG12000GA1031+004509089MA1102611999999EQDQ01+000000PRSWM2
0156601010999991990010518004+35733-005900SY-MT+0021GMTT V0202401N00311220001CN0150001N1+01481+00881102641ADDAA106000091AG14000GA1021+004509089GF102991021021004501001001KA1120M+01641MA1102611999999MD1310011+9999MW1001REMSYN017333   10164 82815EQDQ01+000000PRSWM2
0060601010999991990010518304+35733-005900FM-15+0021GMTT V0202401N00211220001CN0112001N1+01501+00901999999ADDAG12999GA1021+004509089MA1102611999999EQDQ01+000000PRSWM2
0060601010999991990010519004+35733-005900FM-15+0021GMTT V0200401N00311220001CN0112001N1+01401+00901999999ADDAG12999GA1021+004509089MA1102611999999EQDQ01+000000PRSWM2
0060601010999991990010519304+35733-005900FM-15+0021GMTT V0200401N00211220001CN0112001N1+99999+99999999999ADDAG12999GA1021+004509089MA1102611999999EQDQ01+000000PRSWM2
0073601010999991990010520004+35733-005900FM-15+0021GMTT V0200601N00311220001CN0112001N1+01301+00801999999ADDAG12999GA1021+004809089MA1102611999999REMMET004NSG?EQDQ01+000000PRSWM2
0073601010999991990010520304+35733-005900FM-15+0021GMTT V0200801N00511220001CN0112001N1+01301+00801999999ADDAG12000GA1021+004809089MA1102611999999REMMET004NSG?EQDQ01+000000PRSWM2
0115601010999991990010521004+35733-005900SY-MT+0021GMTT V0201001N00621220001CN0100001N1+01231+00831102661ADDAA106000091AG14000GF100991001001999999001001MA1102611999999MD1010021+9999MW1001REMMET005CAVOKEQDQ01+000000PRSWM2
0058601010999991990010521304+35733-005900FM-15+0021GMTT V0200801N00721999991CY0099001N1+99999+99999999999ADDAG12999MA1102611999999REMMET005CAVOKEQDQ01+000000PRSWM2
0058601010999991990010522304+35733-005900FM-15+0021GMTT V0200801N00621999991CY0099001N1+99999+99999999999ADDAG12999MA1102611999999REMMET005CAVOKEQDQ01+000000PRSWM2
0058601010999991990010523004+35733-005900FM-15+0021GMTT V0200801N00151999991CY0099001N1+01201+00801999999ADDAG12999MA1102611999999REMMET005CAVOKEQDQ01+000000PRSWM2
0058601010999991990010523304+35733-005900FM-15+0021GMTT V0209991C00001999991CY0099001N1+01201+00801999999ADDAG12000MA1102611999999REMMET005CAVOKEQDQ01+000000PRSWM2
0109601010999991990010600004+35733-005900SY-MT+0021GMTT V0200801N00511220001CN0100001N1+01221+00841102641ADDAA106000091AG10000GF100991001001999999001001MA1102611999999MD1810021+9999REMMET005CAVOKEQDQ01+000000PRSWM2
0061601010999991990010603004+35733-005900FM-12+0021GMTT V0200801N00621220001CN0100001N9+01161+00881102591ADDAA106000091AG14000GF100991001001999999001001MD1610051+9999
0058601010999991990010604304+35733-005900FM-15+0021GMTT V0200801N00511999991CY0099001N1+01201+00901999999ADDAG12999MA1102511999999REMMET005CAVOKEQDQ01+000000PRSWM2
0058601010999991990010605004+35733-005900FM-15+0021GMTT V0200801N00411999991CY0099001N1+01101+00901999999ADDAG12999MA1102511999999REMMET005CAVOKEQDQ01+000000PRSWM2
0058601010999991990010605304+35733-005900FM-15+0021GMTT V0200801N00311999991CY0099001N1+01101+00901999999ADDAG12000MA1102511999999REMMET005CAVOKEQDQ01+000000PRSWM2
0145601010999991990010606004+35733-005900SY-MT+0021GMTT V0201201N00311220001CN0100001N1+01091+00871102581ADDAA106000091AG14000GF100991001001999999001001KA1120N+01071MA1102511999999MD1810011+9999MW1001REMSYN011333   20107MET005CAVOKEQDQ01+000000PRSWM2
0058601010999991990010606304+35733-005900FM-15+0021GMTT V0201201N00311999991CY0099001N1+99999+99999999999ADDAG12999MA1102511999999REMMET005CAVOKEQDQ01+000000PRSWM2
0060601010999991990010607004+35733-005900FM-15+0021GMTT V0200801N00311220001CN0112001N1+01101+00801999999ADDAG12999GA1021+004809059MA1102511999999EQDQ01+000000PRSWM2
0060601010999991990010607304+35733-005900FM-15+0021GMTT V0200801N00311220001CN0112001N1+99999+99999999999ADDAG12999GA1021+004809059MA1102511999999EQDQ01+000000PRSWM2
0073601010999991990010608004+35733-005900FM-15+0021GMTT V0200801N00411220001CN0112001N1+99999+99999999999ADDAG12999GA1021+006009059MA1102511999999REMMET004NSG?EQDQ01+000000PRSWM2
0073601010999991990010608304+35733-005900FM-15+0021GMTT V0200801N00311220001CN0112001N1+99999+99999999999ADDAG12000GA1021+006009059MA1102511999999REMMET004NSG?EQDQ01+000000PRSWM2
0147601010999991990010609004+35733-005900SY-MT+0021GMTT V0201601N00411220001CN0100001N1+01231+00981102631ADDAA106000091AG14000GA1031+006009059GF104991031051008001001021MA1102611999999MD1310051+9999MW1001REMSYN011333   83620MET004NSG?EQDQ01+000000PRSWM2
0073601010999991990010609304+35733-005900FM-15+0021GMTT V0201201N00311220001CN0112001N1+01201+01001999999ADDAG12999GA1021+006009059MA1102611999999REMMET004NSG?EQDQ01+000000PRSWM2
0073601010999991990010610004+35733-005900FM-15+0021GMTT V0201201N00721220001CN0112001N1+01501+01001999999ADDAG12999GA1031+006009059MA1102711999999REMMET004NSG?EQDQ01+000000PRSWM2
0073601010999991990010610304+35733-005900FM-15+0021GMTT V0201201N00511220001CN0112001N1+01501+01101999999ADDAG12999GA1031+006009059MA1102711999999REMMET004NSG?EQDQ01+000000PRSWM2
0073601010999991990010611004+35733-005900FM-15+0021GMTT V0201201N00931220001CN0112001N1+01801+01301999999ADDAG12999GA1031+006009059MA1102711999999REMMET004NSG?EQDQ01+000000PRSWM2
0073601010999991990010611304+35733-005900FM-15+0021GMTT V0209999999999220001CN0112001N1+01801+01301999999ADDAG12000GA1031+006009059MA1102711999999REMMET004NSG?EQDQ01+000000PRSWM2
0147601010999991990010612004+35733-005900SY-MT+0021GMTT V0201201N00931006001CN0100001N1+01681+00881102701ADDAA106000091AG14000GA1051+006009059GF105991051051008001001021MA1102711999999MD1110071+9999MW1001REMSYN011333   85620MET004NSG?EQDQ01+000000PRSWM2
0073601010999991990010612304+35733-005900FM-15+0021GMTT V0201201N00931220001CN0112001N1+01701+00901999999ADDAG12999GA1041+006009059MA1102711999999REMMET004NSG?EQDQ01+000000PRSWM2
0073601010999991990010613004+35733-005900FM-15+0021GMTT V0201001N00771220001CN0112001N1+99999+99999999999ADDAG12999GA1041+006009059MA1102611999999REMMET004NSG?EQDQ01+000000PRSWM2
0073601010999991990010614004+35733-005900FM-15+0021GMTT V0200801N00931220001CN0112001N1+01701+00901999999ADDAG12999GA1021+000609059MA1102511999999REMMET004NSG?EQDQ01+000000PRSWM2
0073601010999991990010614304+35733-005900FM-15+0021GMTT V0200801N00931220001CN0112001N1+01701+00901999999ADDAG12000GA1021+006009059MA1102511999999REMMET004NSG?EQDQ01+000000PRSWM2
0147601010999991990010615004+35733-005900SY-MT+0021GMTT V0201001N00621220001CN0100001N1+01691+00871102591ADDAA106000091AG14000GA1021+006009089GF104991021051008001001021MA1102511999999MD1610111+9999MW1001REMSYN011333   82820MET004NSG?EQDQ01+000000PRSWM2
0073601010999991990010615304+35733-005900FM-15+0021GMTT V0201001N00621220001CN0112001N1+01701+00901999999ADDAG12999GA1021+006009059MA1102511999999REMMET004NSG?EQDQ01+000000PRSWM2
0073601010999991990010616004+35733-005900FM-15+0021GMTT V0201001N00931220001CN0112001N1+01701+00901999999ADDAG12999GA1021+006009059MA1102511999999REMMET004NSG?EQDQ01+000000PRSWM2
0073601010999991990010616304+35733-005900FM-15+0021GMTT V0201001N00931220001CN0112001N1+01701+00901999999ADDAG12999GA1021+006009059MA1102511999999REMMET004NSG?EQDQ01+000000PRSWM2
0060601010999991990010617004+35733-005900FM-15+0021GMTT V0200601N00881220001CN0112001N1+01501+99999999999ADDAG12999GA1021+006009059REMMET006M09EE?EQDQ01+000000PRSWM2
0073601010999991990010617304+35733-005900FM-15+0021GMTT V0200601N00881220001CN0112001N1+01501+00901999999ADDAG12000GA1021+006009059MA1102511999999REMMET004NSG?EQDQ01+000000PRSWM2
0188601010999991990010618004+35733-005900SY-MT+0021GMTT V0200601N00721220001CN0100001N1+01401+00881102641ADDAA106000091AG14000GA1011+006009059GA2041+069009009GF104991011051008001001021KA1120M+01771MA1102611999999MD1210081+9999MW1001REMSYN023333   10177 81620 84073MET004NSG?EQDQ01+000000PRSWM2
0089601010999991990010620004+35733-005900FM-15+0021GMTT V0209991C00001069001CN0112001N1+01201+00801999999ADDAG12999GA1021+006009059GA2041+069009009MA1102711999999REMMET004NSG?EQDQ01+000000PRSWM2
0161601010999991990010621004+35733-005900SY-MT+0021GMTT V0200601N00211220001CN0100001N1+01051+00891102761ADDAA106000091AG14000GA1031+069009009GF103991001001999999001021MD1110121+9999MW1001REMSYN011333   83073MET033CAVOK EEE CAVOK  11/09 1027 NSG ?EQDQ01+000000PRSWM2
0063601010999991990010622004+35733-005900FM-15+0021GMTT V0200601N00211999991CY0099001N1+99999+99999999999ADDAG12999MA1102711999999REMMET010CAVOK NSG?EQDQ01+000000PRSWM2
0148601010999991990010700004+35733-005900SY-MT+0021GMTT V0209991C00001220001CN0100001N1+00971+00761102761ADDAA106000091AG14000GA1031+069009009GF103991001001999999001021MA1102711999999MD1410001+9999MW1001REMSYN011333   83073MET005CAVOKEQDQ01+000000PRSWM2
0058601010999991990010702004+35733-005900FM-15+0021GMTT V0209991C00001999991CY0099001N1+01001+00801999999ADDAG11999MA1102711999999REMMET005CAVOKEQDQ01+000000PRSWM2
0153601010999991990010703004+35733-005900SY-MT+0021GMTT V0201001N00211220001CN0100001N1+00951+00741102761ADDAA106000091AG14000GA1031+069009009GF103991001001999999001021MA1102711999999MD1410001+9999MW1001REMSYN011333   83073MET010CAVOK NSG?EQDQ01+000000PRSWM2
0063601010999991990010704004+35733-005900FM-15+0021GMTT V0201001N00211999991CY0099001N1+01001+00701999999ADDAG12999MA1102711999999REMMET010CAVOK NSG?EQDQ01+000000PRSWM2
0063601010999991990010705004+35733-005900FM-15+0021GMTT V0201001N00211999991CY0099001N1+01001+00701999999ADDAG12999MA1102711999999REMMET010CAVOK NSG?EQDQ01+000000PRSWM2
0166601010999991990010706004+35733-005900SY-MT+0021GMTT V0201001N00311220001CN0100001N1+00871+00721102801ADDAA106000091AG14000GA1031+060009009GF103991001001999999001021KA1120N+00801MA1102811999999MD1310041+9999REMSYN017333   20080 83070MET010CAVOK NSG?EQDQ01+000000PRSWM2
0175601010999991990010709004+35733-005900SY-MT+0021GMTT V0209991C00001220001CN0150001N1+00971+00831102961ADDAA106000091AG14000AY101031AY221031GA1011+004809089GA2041+069009009GF104991999999004501999999MA1102911999999MD1210161+9999MW1121REMSYN017333   81816 84073EQDQ01+000000PRSWM2
0063601010999991990010711004+35733-005900FM-15+0021GMTT V0201001N00211999991CY0099001N1+01501+00901999999ADDAG12999MA1103011999999REMMET010CAVOK NSG?EQDQ01+000000PRSWM2
0063601010999991990010711304+35733-005900FM-15+0021GMTT V0201401N00151999991CY0099001N1+01501+00901999999ADDAG12000MA1103011999999REMMET010CAVOK NSG?EQDQ01+000000PRSWM2
0089601010999991990010712004+35733-005900FM-15+0021GMTT V0201001N00151220001CN0112001N1+01601+00901999999ADDAG12000GA1011+004809089GA2041+069009009MA1103011999999REMMET004NSG?EQDQ01+000000PRSWM2
0089601010999991990010712304+35733-005900FM-15+0021GMTT V0201001N00151220001CN0112001N1+01601+00901999999ADDAG12999GA1011+004809089GA2041+069009009MA1103011999999REMMET004NSG?EQDQ01+000000PRSWM2
0089601010999991990010713004+35733-005900FM-15+0021GMTT V0209991C00001220001CN0112001N1+01601+00901999999ADDAG12999GA1011+004809089GA2041+069009009MA1103011999999REMMET004NSG?EQDQ01+000000PRSWM2
0076601010999991990010713304+35733-005900FM-15+0021GMTT V0200201N00411220001CN0112001N1+01601+00901999999ADDAG12999GA1011+004809089GA2031+069009009MA1103011999999EQDQ01+000000PRSWM2
0089601010999991990010714004+35733-005900FM-15+0021GMTT V0200201N00511220001CN0112001N1+01601+01001999999ADDAG12999GA1011+004809089GA2031+069009009MA1102811999999REMMET004NSG?EQDQ01+000000PRSWM2
0089601010999991990010714304+35733-005900FM-15+0021GMTT V0200201N00511220001CN0112001N1+01601+01001999999ADDAG12000GA1021+004809089GA2031+069009009MA1102811999999REMMET004NSG?EQDQ01+000000PRSWM2
0169601010999991990010715004+35733-005900SY-MT+0021GMTT V0200201N00311220001CN0150001N1+01641+00941102841ADDAA106000091AG14000GA1021+004809089GA2031+069009009GF104991021021004501001021MA1102811999999MD1610181+9999MW1001REMSYN017333   82816 83073MET004NSG?EQDQ01+000000PRSWM2
0089601010999991990010715304+35733-005900FM-15+0021GMTT V0200201N00411220001CN0112001N1+01601+00901999999ADDAG12999GA1011+004809059GA2031+069009009MA1102811999999REMMET004NSG?EQDQ01+000000PRSWM2
0089601010999991990010716004+35733-005900FM-15+0021GMTT V0200201N00511220001CN0112001N1+01601+00901999999ADDAG12999GA1021+004809089GA2031+069009009MA1102811999999REMMET004NSG?EQDQ01+000000PRSWM2
0089601010999991990010716304+35733-005900FM-15+0021GMTT V0200201N00511069001CN0112001N1+01601+00901999999ADDAG12999GA1021+004809089GA2041+069009009MA1102811999999REMMET004NSG?EQDQ01+000000PRSWM2
0089601010999991990010717004+35733-005900FM-15+0021GMTT V0200401N00211220001CN0112001N1+01601+00901999999ADDAG12999GA1011+004809089GA2031+069009009MA1102811999999REMMET004NSG?EQDQ01+000000PRSWM2
0060601010999991990010717304+35733-005900FM-15+0021GMTT V0209991C00001999991CY0099001N1+99999+99999999999ADDAG12000REMMET022CAVOK 116/09 1028 NSG?EQDQ01+000000PRSWM2
0172601010999991990010718004+35733-005900SY-MT+0021GMTT V0200401N00101220001CN0150001N1+01421+00911102841ADDAA106000091AG14000GA1031+069009009GF103991001001999999001021KA1120M+01651MA1102811999999MD1510061+9999MW1001REMSYN017333   10165 83073MET010CAVOK NSG?EQDQ01+000000PRSWM2
0063601010999991990010718304+35733-005900FM-15+0021GMTT V0209991C00001999991CY0099001N1+99999+99999999999ADDAG12999MA1102811999999REMMET010CAVOK NSG?EQDQ01+000000PRSWM2
0063601010999991990010719004+35733-005900FM-15+0021GMTT V0209991C00001999991CY0099001N1+01401+01001999999ADDAG12999MA1102811999999REMMET010CAVOK NSG?EQDQ01+000000PRSWM2
0063601010999991990010719304+35733-005900FM-15+0021GMTT V0200201N00361999991CY0099001N1+99999+99999999999ADDAG12999MA1102811999999REMMET010CAVOK NSG?EQDQ01+000000PRSWM2
0063601010999991990010720004+35733-005900FM-15+0021GMTT V0200201N00101999991CY0099001N1+01101+00901999999ADDAG12999MA1102811999999REMMET010CAVOK NSG?EQDQ01+000000PRSWM2
0063601010999991990010720304+35733-005900FM-15+0021GMTT V0209991C00001999991CY0099001N1+01101+00901999999ADDAG12000MA1102811999999REMMET010CAVOK NSG?EQDQ01+000000PRSWM2
0153601010999991990010721004+35733-005900SY-MT+0021GMTT V0209991C00001220001CN0150001N1+01081+00921102901ADDAA106000091AG14000GA1021+069009009GF102991001001999999001021MA1102911999999MD1110061+9999MW1001REMSYN011333   82073MET010CAVOK NSG?EQDQ01+000000PRSWM2
0063601010999991990010721304+35733-005900FM-15+0021GMTT V0209991C00001999991CY0099001N1+01101+00901999999ADDAG12999MA1102911999999REMMET010CAVOK NSG?EQDQ01+000000PRSWM2
0063601010999991990010722004+35733-005900FM-15+0021GMTT V0209991C00001999991CY0099001N1+01001+00801999999ADDAG12999MA1102911999999REMMET010CAVOK NSG?EQDQ01+000000PRSWM2
0063601010999991990010722304+35733-005900FM-15+0021GMTT V0209991C00001999991CY0099001N1+01001+00801999999ADDAG12999MA1102911999999REMMET010CAVOK NSG?EQDQ01+000000PRSWM2
0063601010999991990010723004+35733-005900FM-15+0021GMTT V0209991C00001999991CY0099001N1+00901+00801999999ADDAG12999MA1102911999999REMMET010CAVOK NSG?EQDQ01+000000PRSWM2
0063601010999991990010723304+35733-005900FM-15+0021GMTT V0209991C00001999991CY0099001N1+00901+00801999999ADDAG12000MA1102911999999REMMET010CAVOK NSG?EQDQ01+000000PRSWM2
0114601010999991990010800004+35733-005900SY-MT+0021GMTT V0209991C00001220001CN0100001N1+00841+00761102911ADDAA106000091AG10000GF100991001001999999001001MA1102911999999MD1410001+9999REMMET010CAVOK NSG?EQDQ01+000000PRSWM2
0061601010999991990010803004+35733-005900FM-12+0021GMTT V0209991C00001220001CN0100001N9+00781+00701102851ADDAA106000091AG14000GF100991001001999999001001MD1610061+9999
0063601010999991990010804004+35733-005900FM-15+0021GMTT V0209991C00001999991CY0099001N1+00801+00701999999ADDAG12999MA1102811999999REMMET010CAVOK NSG?EQDQ01+000000PRSWM2
0063601010999991990010804304+35733-005900FM-15+0021GMTT V0209991C00001999991CY0099001N1+00801+00701999999ADDAG12999MA1102811999999REMMET010CAVOK NSG?EQDQ01+000000PRSWM2
0063601010999991990010805004+35733-005900FM-15+0021GMTT V0209991C00001999991CY0099001N1+00801+00701999999ADDAG12999MA1102811999999REMMET010CAVOK NSG?EQDQ01+000000PRSWM2
0063601010999991990010805304+35733-005900FM-15+0021GMTT V0209991C00001999991CY0099001N1+00801+00701999999ADDAG12000MA1102811999999REMMET010CAVOK NSG?EQDQ01+000000PRSWM2
0150601010999991990010806004+35733-005900SY-MT+0021GMTT V0209991C00001220001CN0100001N1+00751+00661102791ADDAA106000091AG14000GF100991001001999999001001KA1120N+00651MA1102711999999MD1710061+9999MW1001REMSYN011333   20065MET010CAVOK NSG?EQDQ01+000000PRSWM2
0063601010999991990010806304+35733-005900FM-15+0021GMTT V0209991C00001999991CY0099001N1+00801+00701999999ADDAG12999MA1102711999999REMMET010CAVOK NSG?EQDQ01+000000PRSWM2
0063601010999991990010807004+35733-005900FM-15+0021GMTT V0209991C00001999991CY0099001N1+00801+00701999999ADDAG12999MA1102711999999REMMET010CAVOK NSG?EQDQ01+000000PRSWM2
0058601010999991990010808004+35733-005900FM-15+0021GMTT V0203601N00101999991CY0099001N1+00801+00701999999ADDAG12999MA1102811999999REMMET005CAVOKEQDQ01+000000PRSWM2
0058601010999991990010808304+35733-005900FM-15+0021GMTT V0209991C00001999991CY0099001N1+00801+00701999999ADDAG12000MA1102811999999REMMET005CAVOKEQDQ01+000000PRSWM2
0115601010999991990010809004+35733-005900SY-MT+0021GMTT V0209991C00001220001CN0100001N1+00951+00771102791ADDAA106000091AG14000GF100991001001999999001001MA1102711999999MD1310011+9999MW1001REMMET005CAVOKEQDQ01+000000PRSWM2
0092601010999991990010809304+35733-005900FM-15+0021GMTT V0209991C00001220001CN9999999N9+99999+99999999999ADDAG12999GA1011+004509089GA2011+004509089MA1102711999999EQDQ01+000002VOVAR Q02+000000PRSWM2
0060601010999991990010810004+35733-005900FM-15+0021GMTT V0200201N00211220001CN0112001N1+01401+01101999999ADDAG12999GA1011+004809089MA1102811999999EQDQ01+000000PRSWM2
0060601010999991990010810304+35733-005900FM-15+0021GMTT V0200201N00311220001CN0112001N1+01401+01101999999ADDAG12999GA1021+004809089MA1102811999999EQDQ01+000000PRSWM2
0060601010999991990010811004+35733-005900FM-15+0021GMTT V0200201N00411220001CN0112001N1+01401+01101999999ADDAG12999GA1021+004809089MA1102811999999EQDQ01+000000PRSWM2
0060601010999991990010811304+35733-005900FM-15+0021GMTT V0201401N00511220001CN0112001N1+01501+01001999999ADDAG12000GA1031+004809089MA1102811999999EQDQ01+000000PRSWM2
0137601010999991990010812004+35733-005900SY-MT+0021GMTT V0201401N00721220001CN0150001N1+01621+00971102861ADDAA106000091AG14000GA1031+004809089GF103991031021004501001001MA1102811999999MD1110071+9999MW1001REMSYN011333   83816EQDQ01+000000PRSWM2
0060601010999991990010812304+35733-005900FM-15+0021GMTT V0200201N00721220001CN0112001N1+01601+01001999999ADDAG12999GA1031+004809089MA1102811999999EQDQ01+000000PRSWM2
0060601010999991990010813004+35733-005900FM-15+0021GMTT V0200201N00721220001CN0112001N1+99999+99999999999ADDAG12999GA1031+004809089MA1102811999999EQDQ01+000000PRSWM2
0060601010999991990010813304+35733-005900FM-15+0021GMTT V0200201N00311220001CN0112001N1+99999+99999999999ADDAG12999GA1031+999999089MA1102811999999EQDQ01+000000PRSWM2
0060601010999991990010814004+35733-005900FM-15+0021GMTT V0200801N00621220001CN0112001N1+01701+01201999999ADDAG12999GA1031+004809089MA1102711999999EQDQ01+000000PRSWM2
0060601010999991990010814304+35733-005900FM-15+0021GMTT V0200801N00621220001CN0112001N1+01701+01201999999ADDAG12000GA1031+004809089MA1102711999999EQDQ01+000000PRSWM2
0143601010999991990010815004+35733-005900SY-MT+0021GMTT V0201001N00821220001CN0150001N1+01651+00771102661ADDAA106000091AG14000GA1031+004809089GF103991031021004501001001MA1102611999999MD1610201+9999REMSYN011333   83816MET006NOSIG?EQDQ01+000000PRSWM2
0075601010999991990010815304+35733-005900FM-15+0021GMTT V0201001N00931220001CN0112001N1+99999+99999999999ADDAG12999GA1031+004809089MA1102611999999REMMET006NOSIG?EQDQ01+000000PRSWM2
0075601010999991990010816004+35733-005900FM-15+0021GMTT V0201001N00931220001CN0112001N1+01701+00801999999ADDAG12999GA1031+004809089MA1102611999999REMMET006NOSIG?EQDQ01+000000PRSWM2
0075601010999991990010816304+35733-005900FM-15+0021GMTT V0201001N00881220001CN0112001N1+01701+00801999999ADDAG12999GA1031+004809089MA1102611999999REMMET006NOSIG?EQDQ01+000000PRSWM2
0075601010999991990010817004+35733-005900FM-15+0021GMTT V0201001N00721220001CN0112001N1+01601+00801999999ADDAG12999GA1021+004809089MA1102611999999REMMET006NOSIG?EQDQ01+000000PRSWM2
0156601010999991990010818004+35733-005900SY-MT+0021GMTT V0201001N00721220001CN0150001N1+01361+00841102751ADDAA106000091AG14000GA1031+004809089GF103991031021004501001001KA1120M+01751MA1102711999999MD1310091+9999MW1001REMSYN017333   10175 83816EQDQ01+000000PRSWM2
0075601010999991990010819004+35733-005900FM-15+0021GMTT V0209999999999220001CN0112001N1+99999+99999999999ADDAG12999GA1031+004809089MA1102711999999REMMET006NOSIG?EQDQ01+000000PRSWM2
0075601010999991990010819304+35733-005900FM-15+0021GMTT V0201001N00211220001CN0112001N1+01301+00901999999ADDAG12999GA1031+004809089MA1102711999999REMMET006NOSIG?EQDQ01+000000PRSWM2
0075601010999991990010820004+35733-005900FM-15+0021GMTT V0201001N00211220001CN0112001N1+99999+99999999999ADDAG12999GA1031+004809089MA1102811999999REMMET006NOSIG?EQDQ01+000000PRSWM2
0075601010999991990010820304+35733-005900FM-15+0021GMTT V0201001N00621220001CN0112001N1+99999+99999999999ADDAG12000GA1031+004809089MA1102811999999REMMET006NOSIG?EQDQ01+000000PRSWM2
0147601010999991990010821004+35733-005900SY-MT+0021GMTT V0201001N00931220001CN0100001N1+01221+00841102831ADDAA106000091AG14000GA1021+004809089GF102991021021004501001001MA1102811999999MD1210061+9999MW1001REMSYN011333   82816MET004NSG?EQDQ01+000000PRSWM2
0073601010999991990010821304+35733-005900FM-15+0021GMTT V0200201N00931220001CN0112001N1+01201+00801999999ADDAG12999GA1021+004809089REMMET01910228 EEE 1028 NSG?EQDQ01+000000PRSWM2
0073601010999991990010822004+35733-005900FM-15+0021GMTT V0200201N00931220001CN0112001N1+01201+00701999999ADDAG12999GA1021+004809089MA1102811999999REMMET004NSG?EQDQ01+000000PRSWM2
0073601010999991990010822304+35733-005900FM-15+0021GMTT V0200201N00931220001CN0112001N1+99999+99999999999ADDAG12999GA1021+004809089MA1102811999999REMMET004NSG?EQDQ01+000000PRSWM2
0073601010999991990010823004+35733-005900FM-15+0021GMTT V0200201N00931220001CN0112001N1+99999+99999999999ADDAG12999GA1021+004809089MA1102811999999REMMET004NSG?EQDQ01+000000PRSWM2
0089601010999991990010823304+35733-005900FM-15+0021GMTT V0200201N00821220001CN0112001N1+01301+01001999999ADDAG12000GA1011+004809089GA2031+069009009MA1102811999999REMMET004NSH?EQDQ01+000000PRSWM2
0163601010999991990010900004+35733-005900SY-MT+0021GMTT V0200401N01031220001CN0150001N1+01301+00791102911ADDAA106000091AG10000GA1011+004809089GA2031+069009009GF104991011021004501001021MA1102911999999MD1210051+9999REMSYN017333   81816 83073MET004NSG?EQDQ01+000000PRSWM2
0119601010999991990010903004+35733-005900FM-12+0021GMTT V0200401N00621220001CN0150001N9+01231+00851102911ADDAA106000091AG14000GA1011+004809089GA2031+069009009GF103991011021004501001021MD1410001+9999REMSYN017333   81816 83073
0089601010999991990010903304+35733-005900FM-15+0021GMTT V0200301N00621220001CN0112001N1+01301+00701999999ADDAG12999GA1011+004809089GA2031+069009009MA1102911999999REMMET004NSG?EQDQ01+000000PRSWM2
0089601010999991990010904004+35733-005900FM-15+0021GMTT V0200801N00511220001CN0112001N1+99999+99999999999ADDAG12999GA1011+004809089GA2031+069009009MA1102811999999REMMET004NSG?EQDQ01+000000PRSWM2
0089601010999991990010904304+35733-005900FM-15+0021GMTT V0200401N00511220001CN0112001N1+01201+00801999999ADDAG12999GA1011+004809089GA2031+069009009MA1102811999999REMMET004NSG?EQDQ01+000000PRSWM2
0089601010999991990010905004+35733-005900FM-15+0021GMTT V0200401N00511220001CN0112001N1+01201+00801999999ADDAG12999GA1011+004809089GA2031+069009009MA1102811999999REMMET004NSG?EQDQ01+000000PRSWM2
0089601010999991990010905304+35733-005900FM-15+0021GMTT V0200201N00511069001CN0112001N1+01201+00801999999ADDAG12000GA1031+004809089GA2031+069009009MA1102811999999REMMET004NSG?EQDQ01+000000PRSWM2
0182601010999991990010906004+35733-005900SY-MT+0021GMTT V0200201N00511069001CN0150001N1+01141+00731102781ADDAA106000091AG14000GA1021+004809089GA2031+069009009GF105991021021004501001021KA1120N+01011MA1102711999999MD1710131+9999REMSYN023333   20101 82816 83073MET004NSG?EQDQ01+000000PRSWM2
0089601010999991990010907004+35733-005900FM-15+0021GMTT V0200201N00571069001CN0112001N1+01101+00801999999ADDAG12999GA1031+004809089GA2031+069009009MA1102711999999REMMET004NSG?EQDQ01+000000PRSWM2
0060601010999991990010908004+35733-005900FM-15+0021GMTT V0200801N00721220001CN0112001N1+01101+00701999999ADDAG12999GA1041+004809089MA1102811999999EQDQ01+000000PRSWM2
0060601010999991990010908304+35733-005900FM-15+0021GMTT V0200801N00721220001CN0112001N1+99999+99999999999ADDAG12000GA1041+004809089MA1102811999999EQDQ01+000000PRSWM2
0149601010999991990010909004+35733-005900SY-MT+0021GMTT V0201001N00211004801CN0100001N1+01221+00891102801ADDAA106000091AG14000GA1051+004809089GF105991051021004501001001MA1102811999999MD1210021+9999MW1001REMSYN011333   85816MET006NOSIG?EQDQ01+000000PRSWM2
0060601010999991990010909304+35733-005900FM-15+0021GMTT V0201001N00311004801CN0112001N1+01201+00901999999ADDAG12999GA1051+004809089MA1102811999999EQDQ01+000000PRSWM2
0067601010999991990010910004+35733-005900FM-15+0021GMTT V0201001N00821004801CN0112001N1+01501+99999999999ADDAG12999GA1051+004809089REMMET013101028 NOSIG?EQDQ01+000000PRSWM2
0075601010999991990010910304+35733-005900FM-15+0021GMTT V0201001N01031004801CN0112001N1+01501+01001999999ADDAG12999GA1051+004809089MA1102811999999REMMET006NOSIG?EQDQ01+000000PRSWM2
0060601010999991990010911004+35733-005900FM-15+0021GMTT V0201001N00821220001CN0112001N1+01501+00801999999ADDAG12999GA1041+004809089MA1102911999999EQDQ01+000000PRSWM2
0060601010999991990010911304+35733-005900FM-15+0021GMTT V0201001N00821220001CN0112001N1+01601+00901999999ADDAG12000GA1041+004809089MA1102911999999EQDQ01+000000PRSWM2
0149601010999991990010912004+35733-005900SY-MT+0021GMTT V0201001N00511090001CN0100001N1+01551+00861102911ADDAA106000091AG14000GA1041+004809089GF105991041021004501001021MA1102911999999MD1210111+9999MW1001REMSYN011333   84816MET006NOSIG?EQDQ01+000000PRSWM2
0075601010999991990010913004+35733-005900FM-15+0021GMTT V0201401N01031220001CN0112001N1+99999+99999999999ADDAG12999GA1041+004809089MA1102911999999REMMET006NOSIG?EQDQ01+000000PRSWM2
0060601010999991990010913304+35733-005900FM-15+0021GMTT V0201001N00511004801CN0112001N1+01601+00901999999ADDAG12999GA1051+004809089MA1102911999999EQDQ01+000000PRSWM2
0060601010999991990010914004+35733-005900FM-15+0021GMTT V0200201N00721004801CN0112001N1+01601+00901999999ADDAG12999GA1061+004809089MA1102811999999EQDQ01+000000PRSWM2
0097601010999991990010915004+35733-005900FM-12+0021GMTT V0200201N01031004801CN0100001N9+01581+00881102751ADDAA106000091AG14000GA1061+004809089GF106991061021004501001001MD1710161+9999REMSYN011333   86816
0060601010999991990010915304+35733-005900FM-15+0021GMTT V0200201N01241004801CN0112001N1+01601+00901999999ADDAG12999GA1061+004809089MA1102711999999EQDQ01+000000PRSWM2
0060601010999991990010916004+35733-005900FM-15+0021GMTT V0200601N01241004801CN0112001N1+01501+01001999999ADDAG12999GA1051+004809089MA1102611999999EQDQ01+000000PRSWM2
0060601010999991990010917004+35733-005900FM-15+0021GMTT V0200201N01241004801CN0112001N1+01501+01001999999ADDAG12999GA1051+004809089MA1102611999999EQDQ01+000000PRSWM2
0156601010999991990010918004+35733-005900SY-MT+0021GMTT V0200801N00821004801CN0150001N1+01321+00841102751ADDAA106000091AG14000GA1051+004809089GF105991051021004501001021KA1120M+01601MA1102711999999MD1510001+9999MW1001REMSYN017333   10160 85816EQDQ01+000000PRSWM2
0073601010999991990010918304+35733-005900FM-15+0021GMTT V0201201N00511004801CN0112001N1+01301+00801999999ADDAG12999GA1051+004809089MA1102711999999REMMET004NSG?EQDQ01+000000PRSWM2
0073601010999991990010919004+35733-005900FM-15+0021GMTT V0201001N00411004501CN0112001N1+01301+00801999999ADDAG12999GA1051+004509089MA1102711999999REMMET004NSG?EQDQ01+000000PRSWM2
0073601010999991990010919304+35733-005900FM-15+0021GMTT V0201001N00931004501CN0112001N1+99999+99999999999ADDAG12999GA1051+004509089MA1102711999999REMMET004NSG?EQDQ01+000000PRSWM2
0073601010999991990010920004+35733-005900FM-15+0021GMTT V0200801N00821004501CN0112001N1+01301+00801999999ADDAG12999GA1051+004509089MA1102911999999REMMET004NSG?EQDQ01+000000PRSWM2
0073601010999991990010920304+35733-005900FM-15+0021GMTT V0201001N00511004501CN0112001N1+99999+99999999999ADDAG12000GA1051+004509089MA1102911999999REMMET004NSG?EQDQ01+000000PRSWM2
0137601010999991990010921004+35733-005900SY-MT+0021GMTT V0200601N00511004801CN0100001N1+01241+00871102831ADDAA106000091AG14000GA1051+004809089GF105991051021004501001001MA1102811999999MD1210081+9999MW1001REMSYN011333   85816EQDQ01+000000PRSWM2
0060601010999991990010921304+35733-005900FM-15+0021GMTT V0200801N00511004801CN0112001N1+01201+00901999999ADDAG12999GA1051+004809089MA1102811999999EQDQ01+000000PRSWM2
0060601010999991990010922004+35733-005900FM-15+0021GMTT V0201001N00511004801CN0112001N1+01201+00901999999ADDAG12999GA1051+004809089MA1102811999999EQDQ01+000000PRSWM2
0060601010999991990010922304+35733-005900FM-15+0021GMTT V0201001N00621220001CN0112001N1+01201+00901999999ADDAG12999GA1031+004809089MA1102811999999EQDQ01+000000PRSWM2
0044601010999991990010923004+35733-005900FM-15+0021GMTT V0201001N007219999999N0112001N1+01201+00701999999ADDAG12999MA1102811999999EQDQ01+000000PRSWM2
0060601010999991990010923304+35733-005900FM-15+0021GMTT V0201201N00931220001CN0112001N1+01201+00701999999ADDAG12000GA1031+004809089MA1102811999999EQDQ01+000000PRSWM2
0131601010999991990011000004+35733-005900SY-MT+0021GMTT V0201001N00931220001CN0100001N1+01181+00131102801ADDAA106000091AG10000GA1031+004809089GF103991031021004501001001MA1102811999999MD1810031+9999REMSYN011333   83816EQDQ01+000000PRSWM2
0097601010999991990011003004+35733-005900FM-12+0021GMTT V0201001N00821220001CN0100001N9+01101+00861102741ADDAA106000091AG14000GA1011+004809089GF101991011021004501001001MD1710061+9999REMSYN011333   81816
0060601010999991990011005004+35733-005900FM-15+0021GMTT V0201201N00721220001CN0112001N1+01101+00801999999ADDAG12999GA1011+004809089MA1102611999999EQDQ01+000000PRSWM2
0156601010999991990011006004+35733-005900SY-MT+0021GMTT V0201201N00931220001CN0100001N1+01111+00741102631ADDAA106000091AG14000GA1021+004809089GF102991021021004501001001KA1120N+01001MA1102611999999MD1710111+9999MW1001REMSYN017333   20100 82816EQDQ01+000000PRSWM2
0076601010999991990011006304+35733-005900FM-15+0021GMTT V0201001N00821220001CN0112001N1+01101+00701999999ADDAG12999GA1021+004809089MA1102711999999REMMET007E 1026?EQDQ01+000000PRSWM2
0060601010999991990011008004+35733-005900FM-15+0021GMTT V0201201N00821220001CN0112001N1+99999+99999999999ADDAG12999GA1041+004809089MA1102611999999EQDQ01+000000PRSWM2
0060601010999991990011008304+35733-005900FM-15+0021GMTT V0201201N00821220001CN0112001N1+99999+99999999999ADDAG12000GA1031+004809089MA1102611999999EQDQ01+000000PRSWM2
0147601010999991990011009004+35733-005900SY-MT+0021GMTT V0200801N00621004801CN0100001N1+01201+00911102721ADDAA106000091AG14000GA1051+004809089GF105991051021004501001001MA1102711999999MD1210091+9999MW1001REMSYN011333   85816MET004NSG?EQDQ01+000000PRSWM2
0060601010999991990011009304+35733-005900FM-15+0021GMTT V0200801N00621004801CN0112001N1+99999+99999999999ADDAG12999GA1051+004809089MA1102711999999EQDQ01+000000PRSWM2
0073601010999991990011010304+35733-005900FM-15+0021GMTT V0201201N00511004801CN0112001N1+99999+99999999999ADDAG12999GA1051+004809089MA1102711999999REMMET004NSG?EQDQ01+000000PRSWM2
0060601010999991990011011004+35733-005900FM-15+0021GMTT V0200801N00821004801CN0112001N1+01401+00901999999ADDAG12999GA1051+004809089MA1102711999999EQDQ01+000000PRSWM2
0060601010999991990011011304+35733-005900FM-15+0021GMTT V0200601N00931220001CN0112001N1+01401+00901999999ADDAG12000GA1041+004809089REMMET00610227?EQDQ01+000000PRSWM2
0097601010999991990011012004+35733-005900FM-12+0021GMTT V0201001N01031220001CN0100001N9+01521+00801102711ADDAA106000091AG14000GA1021+004809089GF103991031021004501001001MD1810011+9999REMSYN011333   82816
0060601010999991990011013304+35733-005900FM-15+0021GMTT V0201001N00821220001CN0112001N1+01501+00901999999ADDAG12999GA1031+004809059MA1102611999999EQDQ01+000000PRSWM2
0060601010999991990011014004+35733-005900FM-15+0021GMTT V0201401N00821220001CN0112001N1+99999+99999999999ADDAG12999GA1031+004809059MA1102511999999EQDQ01+000000PRSWM2
0073601010999991990011014304+35733-005900FM-15+0021GMTT V0201401N00821220001CN0112001N1+01701+00901999999ADDAG12000GA1031+004809089MA1102511999999REMMET004NSG?EQDQ01+000000PRSWM2
0147601010999991990011015004+35733-005900SY-MT+0021GMTT V0201001N00621220001CN0150001N1+01651+00871102571ADDAA106000091AG14000GA1031+004809089GF103991031021004501001001MA1102511999999MD1610241+9999MW1001REMSYN011333   83816MET004NSG?EQDQ01+000000PRSWM2
0073601010999991990011015304+35733-005900FM-15+0021GMTT V0201001N00771220001CN0112001N1+01701+00901999999ADDAG12999GA1031+004809089MA1102511999999REMMET004NSG?EQDQ01+000000PRSWM2
0060601010999991990011016004+35733-005900FM-15+0021GMTT V0201001N00721220001CN0112001N1+99999+99999999999ADDAG12999GA1031+004809089MA1102511999999EQDQ01+000000PRSWM2
0073601010999991990011017004+35733-005900FM-15+0021GMTT V0201001N00621220001CN0112001N1+01501+00801999999ADDAG12999GA1031+004809089MA1102401999999REMMET004NSG?EQDQ01+000000PRSWM2
0073601010999991990011017304+35733-005900FM-15+0021GMTT V0201001N00621220001CN0112001N1+01501+00801999999ADDAG12000GA1031+004809089MA1102401999999REMMET004NSG?EQDQ01+000000PRSWM2
0156601010999991990011018004+35733-005900SY-MT+0021GMTT V0201001N00621220001CN0150001N1+01341+00861102441ADDAA106000091AG14000GA1031+004809089GF103991031021004501001001KA1120M+01601MA1102401999999MD1510031+9999MW1001REMSYN017333   10160 83816EQDQ01+000000PRSWM2
0073601010999991990011018304+35733-005900FM-15+0021GMTT V0201001N00621220001CN0112001N1+99999+99999999999ADDAG12999GA1031+004809089MA1102401999999REMMET004NSG?EQDQ01+000000PRSWM2
0073601010999991990011019004+35733-005900FM-15+0021GMTT V0200601N00461220001CN0112001N1+01301+00901999999ADDAG12999GA1031+004809089MA1102401999999REMMET004NSG?EQDQ01+000000PRSWM2
0073601010999991990011020004+35733-005900FM-15+0021GMTT V0200801N00261220001CN0112001N1+01201+01001999999ADDAG12999GA1031+004809089MA1102401999999REMMET004NSG?EQDQ01+000000PRSWM2
0073601010999991990011020304+35733-005900FM-15+0021GMTT V0200801N00261220001CN0112001N1+99999+99999999999ADDAG12000GA1031+004809089MA1102401999999REMMET004NSG?EQDQ01+000000PRSWM2
0137601010999991990011021004+35733-005900SY-MT+0021GMTT V0209991C00001220001CN0100001N1+01001+00781102501ADDAA106000091AG14000GA1021+004809089GF102991021021004501001001MD1310061+9999MW1001REMSYN011333   82816MET009102T NSG?EQDQ01+000000PRSWM2
0073601010999991990011021304+35733-005900FM-15+0021GMTT V0209991C00001220001CN0112001N1+01001+00101999999ADDAG12999GA1021+004809089REMMET019EEE 10/08 1025 NSG?EQDQ01+000000PRSWM2
0057601010999991990011022004+35733-005900FM-15+0021GMTT V0209991C000019999999N0112001N1+01001+00902999999ADDAG12999MA1102511999999REMMET004NSG?EQDQ01+000000PRSWM2
0073601010999991990011022304+35733-005900FM-15+0021GMTT V0209991C00001220001CN0112001N1+01001+00901999999ADDAG12999GA1021+004809089MA1102511999999REMMET004NSG?EQDQ01+000000PRSWM2
0073601010999991990011023004+35733-005900FM-15+0021GMTT V0200801N00511220001CN0112001N1+99999+99999999999ADDAG12999GA1021+004809089MA1102511999999REMMET004NSG?EQDQ01+000000PRSWM2
0073601010999991990011023304+35733-005900FM-15+0021GMTT V0200801N00511220001CN0112001N1+01001+00801999999ADDAG12000GA1021+999999089MA1102511999999REMMET004NSG?EQDQ01+000000PRSWM2
0147601010999991990011100004+35733-005900SY-MT+0021GMTT V0200801N00821220001CN0100001N1+01071+00831102471ADDAA106000091AG14000GA1021+004809089GF102991021021004501001001MA1102401999999MD1810031+9999MW1001REMSYN011333   82816MET004NSG?EQDQ01+000000PRSWM2
0061601010999991990011101004+35733-005900FM-12+0021GMTT V0200801N00821220001CN0100001N9+01071+00831102471ADDAA106000091AG14999GF102991021021004501001001MD1810031+9999
0097601010999991990011103004+35733-005900FM-12+0021GMTT V0200801N00621220001CN0100001N9+01021+00911102401ADDAA106000091AG14000GA1031+004809089GF103991031021004501001001MD1610071+9999REMSYN011333   83816
0116601010999991990011106004+35733-005900FM-12+0021GMTT V0201001N01031004801CN0100001N9+01021+00921102311ADDAA106000091AG14000GA1061+004809089GF106991061021004501001001KA1120N+00801MD1610091+9999REMSYN017333   20080 86816
0073601010999991990011107004+35733-005900FM-15+0021GMTT V0200801N00721004801CN0112001N1+99999+99999999999ADDAG12999GA1061+004809089MA1102301999999REMMET004NSG?EQDQ01+000000PRSWM2
0073601010999991990011107304+35733-005900FM-15+0021GMTT V0201201N00721004801CN0112001N1+99999+99999999999ADDAG12999GA1061+004809089MA1102301999999REMMET004NSG?EQDQ01+000000PRSWM2
0089601010999991990011108004+35733-005900FM-15+0021GMTT V0200801N00771006001CN0112001N1+01001+00801999999ADDAG12999GA1031+004509089GA2051+006009089MA1102301999999REMMET004NSG?EQDQ01+000000PRSWM2
0153601010999991990011109004+35733-005900SY-MT+0021GMTT V0200801N00671006001CN0100001N1+01021+00641102381ADDAA106000091AG14000GA1031+004509089GA2051+006009089GF106991061081004501001001MA1102301999999MD1310071+9999REMSYN017333   83815 85820EQDQ01+000000PRSWM2
0089601010999991990011109304+35733-005900FM-15+0021GMTT V0200601N00461006001CN0112001N1+01001+00601999999ADDAG12999GA1031+004509089GA2051+006009089MA1102301999999REMMET004NSG?EQDQ01+000000PRSWM2
0089601010999991990011110004+35733-005900FM-15+0021GMTT V0200601N00311006001CN0112001N1+01101+00601999999ADDAG12999GA1031+004509089GA2051+006009089MA1102401999999REMMET004NSG?EQDQ01+000000PRSWM2
0089601010999991990011110304+35733-005900FM-15+0021GMTT V0201001N00311006001CN0112001N1+01101+00601999999ADDAG12999GA1031+004509089GA2051+006009059MA1102401999999REMMET004NSG?EQDQ01+000000PRSWM2
0089601010999991990011111004+35733-005900FM-15+0021GMTT V0200601N00931006001CN0112001N1+01201+00801999999ADDAG12999GA1041+004509089GA2051+006009089MA1102511999999REMMET004NSG?EQDQ01+000000PRSWM2
0089601010999991990011111304+35733-005900FM-15+0021GMTT V0200801N01031006001CN0112001N1+01201+00801999999ADDAG12000GA1041+004509089GA2051+006009089MA1102511999999REMMET004NSG?EQDQ01+000000PRSWM2
0159601010999991990011112004+35733-005900SY-MT+0021GMTT V0200801N00871006001CN0100001N1+01221+00691102481ADDAA106000091AG14000GA1041+004509089GA2051+006009059GF106991061081004501001001MA1102401999999MD1110101+9999MW1001REMSYN017333   84815 85820EQDQ01+000000PRSWM2
0076601010999991990011112304+35733-005900FM-15+0021GMTT V0200801N00821006001CN0112001N1+99999+99999999999ADDAG12999GA1031+004509089GA2051+006009059MA1102401999999EQDQ01+000000PRSWM2
0076601010999991990011113004+35733-005900FM-15+0021GMTT V0200801N00821006001CN0112001N1+99999+99999999999ADDAG12999GA1031+004509089GA2051+006009059MA1102401999999EQDQ01+000000PRSWM2
0089601010999991990011113304+35733-005900FM-15+0021GMTT V0200801N00621006001CN0112001N1+01201+99999999999ADDAG12999GA1031+004509089GA2051+006009059MA1102401999999REMMET004NSG?EQDQ01+000000PRSWM2
0076601010999991990011114004+35733-005900FM-15+0021GMTT V0200801N01031006001CN0112001N1+01301+00701999999ADDAG12999GA1041+004509089GA2051+006009089MA1102301999999EQDQ01+000000PRSWM2
0082601010999991990011114304+35733-005900FM-15+0021GMTT V0200801N010319999999N0112001N1+99999+99999999999ADDAG12000GA1041+004509089GA2051+999999089REMMET012QEXPU QPWEV?EQDQ01+000000PRSWM2
0145601010999991990011115004+35733-005900SY-MT+0021GMTT V0200801N00821004801CN0150001N1+01261+00731102301ADDAG12001AY181031AY221031GA1051+004809089GA2041+030009039GF106991051021004501081001MA1102301999999MD1710181+9999MW1251REMSYN017333   85816 84360
0076601010999991990011116004+35733-005900FM-15+0021GMTT V0200201N00821006001CN0112001N1+01301+00701999999ADDAG12999GA1041+004509089GA2051+006009089MA1102301999999EQDQ01+000000PRSWM2
0076601010999991990011116304+35733-005900FM-15+0021GMTT V0209999999999006001CN0112001N1+01301+00701999999ADDAG12999GA1041+004509089GA2051+006009089MA1102301999999EQDQ01+000000PRSWM2
0076601010999991990011117004+35733-005900FM-15+0021GMTT V0200201N00311006001CN0112001N1+01201+00901999999ADDAG12999GA1041+004509089GA2051+006009089REMMET00611023?EQDQ01+000000PRSWM2
0076601010999991990011117304+35733-005900FM-15+0021GMTT V0200201N00411006001CN0112001N1+01201+00901999999ADDAG12000GA1041+004509089GA2051+006009089MA1102301999999EQDQ01+000000PRSWM2
0194601010999991990011118004+35733-005900SY-MT+0021GMTT V0201001N00511006001CN0150001N1+01221+00911102281ADDAA199999929AG19000AY121061AY281061GA1041+004509089GA2051+006009089GF107991061081004501081999KA1120M+01341MA1102201999999MD1810021+9999MW1021REMSYN023333   10134 84815 85820EQDQ01+000000PRSWM2
0089601010999991990011118304+35733-005900FM-15+0021GMTT V0200801N00411006001CN0112001N1+01201+00901999999ADDAG12999GA1041+004509089GA2051+006009089MA1102201999999REMMET004NSG?EQDQ01+000000PRSWM2
0073601010999991990011119004+35733-005900FM-15+0021GMTT V0209991C00001006001CN0112001N1+99999+99999999999ADDAG12999GA1061+006009089MA1102301999999REMMET004NSG?EQDQ01+000000PRSWM2
0073601010999991990011120304+35733-005900FM-15+0021GMTT V0209991C00001006001CN0112001N1+99999+99999999999ADDAG12000GA1061+006009089MA1102301999999REMMET004NSG?EQDQ01+000000PRSWM2
0147601010999991990011121004+35733-005900SY-MT+0021GMTT V0209991C00001220001CN0100001N1+01021+00781102341ADDAA106000091AG14000GA1021+006009089GF102991021021008001001001MA1102301999999MD1210061+9999MW1001REMSYN011333   82820MET004NSG?EQDQ01+000000PRSWM2
0073601010999991990011121304+35733-005900FM-15+0021GMTT V0209991C00001220001CN0112001N1+01001+00801999999ADDAG12999GA1021+006009089MA1102301999999REMMET004NSG?EQDQ01+000000PRSWM2
0060601010999991990011122304+35733-005900FM-15+0021GMTT V0209991C00001220001CN0112001N1+01001+00801999999ADDAG12999GA1021+004809089MA1102511999999EQDQ01+000000PRSWM2
0073601010999991990011123004+35733-005900FM-15+0021GMTT V0209991C00001220001CN0112001N1+00901+00701999999ADDAG12999GA1021+004809089MA1102301999999REMMET004NSG?EQDQ01+000000PRSWM2
0073601010999991990011123304+35733-005900FM-15+0021GMTT V0209991C00001220001CN0112001N1+00901+00701999999ADDAG12000GA1021+004809089MA1102301999999REMMET004NSG?EQDQ01+000000PRSWM2
0175601010999991990011200004+35733-005900SY-MT+0021GMTT V0209991C00001220001CN0100001N1+00671+00601102531ADDAA106000091AG14000GA1021+004809089GF199999999999999999001001MD1410001+9999REMMET006W NSG?EQDQ01+000002SCOTCVQ02+000002SCOTLCQ03+000002SCOLCGQ04+000992SCOLCBQ05+000000PRSWM2
0061601010999991990011203004+35733-005900FM-12+0021GMTT V0209991C00001220001CN0100001N9+00671+00601102531ADDAA106000091AG14000GF100991001001999999001001MD1410001+9999
0063601010999991990011205004+35733-005900FM-15+0021GMTT V0209991C00001999991CY0099001N1+00701+00601999999ADDAG12999MA1102511999999REMMET010CAVOK NSG?EQDQ01+000000PRSWM2
0063601010999991990011205304+35733-005900FM-15+0021GMTT V0209991C00001999991CY0099001N1+00701+00601999999ADDAG12000MA1102511999999REMMET010CAVOK NSG?EQDQ01+000000PRSWM2
0145601010999991990011206004+35733-005900SY-MT+0021GMTT V0209991C00001220001CN0100001N1+00471+00401102561ADDAA124999929AG10000GF100991001001999999001001KA1120N+00431MA1102511999999MD1310031+9999MW1001REMSYN011333   20043MET005CAVOKEQDQ01+000000PRSWM2
0063601010999991990011206304+35733-005900FM-15+0021GMTT V0209991C00001999991CY0099001N1+99999+99999999999ADDAG12999MA1102511999999REMMET010CAVOK NSG?EQDQ01+000000PRSWM2
0063601010999991990011207004+35733-005900FM-15+0021GMTT V0209991C00001999991CY0099001N1+00501+00401999999ADDAG12999MA1102511999999REMMET010CAVOK NSG?EQDQ01+000000PRSWM2
0060601010999991990011208004+35733-005900FM-15+0021GMTT V0209991C00001220001CN0112001N1+99999+99999999999ADDAG12999GA1031+004509089MA1102511999999EQDQ01+000000PRSWM2
0060601010999991990011208304+35733-005900FM-15+0021GMTT V0209991C00001220001CN0112001N1+00601+00501999999ADDAG12000GA1031+004509089MA1102511999999EQDQ01+000000PRSWM2
0131601010999991990011209004+35733-005900SY-MT+0021GMTT V0209991C00001220001CN0100001N1+00681+00571102601ADDAA106000091AG14000GA1031+004509089GF103991031021004501001001MA1102611999999MD1210041+9999REMSYN011333   83815EQDQ01+000000PRSWM2
0060601010999991990011209304+35733-005900FM-15+0021GMTT V0209991C00001220001CN0112001N1+00701+00601999999ADDAG12999GA1031+004809089MA1102611999999EQDQ01+000000PRSWM2
0060601010999991990011210004+35733-005900FM-15+0021GMTT V0209991C00001220001CN0112001N1+00901+00701999999ADDAG12999GA1021+004509089MA1102611999999EQDQ01+000000PRSWM2
0060601010999991990011210304+35733-005900FM-15+0021GMTT V0209991C00001220001CN0112001N1+00901+00701999999ADDAG12999GA1021+004509089MA1102611999999EQDQ01+000000PRSWM2
0060601010999991990011211004+35733-005900FM-15+0021GMTT V0209991C00001220001CN0112001N1+01001+00801999999ADDAG12999GA1021+004509089MA1102611999999EQDQ01+000000PRSWM2
0060601010999991990011211304+35733-005900FM-15+0021GMTT V0209991C00001220001CN0112001N1+01101+00701999999ADDAG12000GA1021+004509089MA1102611999999EQDQ01+000000PRSWM2
0147601010999991990011212004+35733-005900SY-MT+0021GMTT V0209991C00001220001CN0150001N1+01381+00721102661ADDAA106000091AG14000GA1021+004509089GF102991021081004501001021MA1102611999999MD1010071+9999MW1001REMSYN011333   82815MET004NSG?EQDQ01+000000PRSWM2
0073601010999991990011212304+35733-005900FM-15+0021GMTT V0209991C00001220001CN0112001N1+01401+00701999999ADDAG12999GA1021+004509089MA1102611999999REMMET004NSG?EQDQ01+000000PRSWM2
0089601010999991990011213004+35733-005900FM-15+0021GMTT V0209991C00001220001CN0112001N1+01401+00701999999ADDAG12999GA1021+004809059GA2031+060009009MA1102611999999REMMET004NSG?EQDQ01+000000PRSWM2
0089601010999991990011213304+35733-005900FM-15+0021GMTT V0203601N00261220001CN0112001N1+01401+00701999999ADDAG12999GA1021+004809059GA2031+069009009MA1102611999999REMMET004NSG?EQDQ01+000000PRSWM2
0089601010999991990011214004+35733-005900FM-15+0021GMTT V0203601N00411069001CN0112001N1+99999+99999999999ADDAG12999GA1041+004809089GA2031+069009009MA1102401999999REMMET004NSG?EQDQ01+000000PRSWM2
0089601010999991990011214304+35733-005900FM-15+0021GMTT V0203601N00411220001CN0112001N1+01401+01001999999ADDAG12000GA1021+004809089GA2031+069009009MA1102401999999REMMET004NSG?EQDQ01+000000PRSWM2
0169601010999991990011215004+35733-005900SY-MT+0021GMTT V0200201N00511069001CN0100001N1+01451+00861102461ADDAA106000091AG14000GA1031+004809089GA2041+069009009GF106991031021004501001021MA1102401999999MD1610181+9999MW1001REMSYN017333   83816 84073MET004NSG?EQDQ01+000000PRSWM2
0076601010999991990011215304+35733-005900FM-15+0021GMTT V0200801N00621069001CN0112001N1+01501+00901999999ADDAG12999GA1041+004809089GA2041+069009009MA1102401999999EQDQ01+000000PRSWM2
0076601010999991990011216004+35733-005900FM-15+0021GMTT V0200801N00931069001CN0112001N1+01501+00901999999ADDAG12999GA1031+004809089GA2051+069009009REMMET00611024?EQDQ01+000000PRSWM2
0076601010999991990011216304+35733-005900FM-15+0021GMTT V0200801N00931069001CN0112001N1+01501+00901999999ADDAG12999GA1031+004809089GA2051+069009009MA1102401999999EQDQ01+000000PRSWM2
0076601010999991990011217004+35733-005900FM-15+0021GMTT V0200801N00931069001CN0112001N1+01501+00901999999ADDAG12999GA1031+004809089GA2051+069009009MA1102401999999EQDQ01+000000PRSWM2
0076601010999991990011217304+35733-005900FM-15+0021GMTT V0200801N00511069001CN0112001N1+01401+00901999999ADDAG12000GA1031+004809089GA2051+069009009MA1102401999999EQDQ01+000000PRSWM2
0178601010999991990011218004+35733-005900SY-MT+0021GMTT V0200801N00411069001CN0100001N1+01341+00721102401ADDAA106000091AG14000GA1031+004809089GA2051+069009009GF106991031021004501001021KA1120M+01571MA1102401999999MD1610041+9999MW1001REMSYN023333   10157 83816 85073EQDQ01+000000PRSWM2
0076601010999991990011218304+35733-005900FM-15+0021GMTT V0200801N00411069001CN0112001N1+01301+00701999999ADDAG12999GA1031+004809089GA2051+069009009MA1102401999999EQDQ01+000000PRSWM2
0076601010999991990011219004+35733-005900FM-15+0021GMTT V0200801N00211069001CN0112001N1+01101+00701999999ADDAG12999GA1031+004809089GA2051+069009009MA1102401999999EQDQ01+000000PRSWM2
0076601010999991990011219304+35733-005900FM-15+0021GMTT V0200801N00311069001CN0112001N1+01101+00701999999ADDAG12999GA1031+004809089GA2051+069009009MA1102401999999EQDQ01+000000PRSWM2
0076601010999991990011220004+35733-005900FM-15+0021GMTT V0200801N00311069001CN0112001N1+01001+00701999999ADDAG12999GA1031+004809089GA2051+069009009MA1102401999999EQDQ01+000000PRSWM2
0076601010999991990011220304+35733-005900FM-15+0021GMTT V0200801N00311069001CN0112001N1+01001+00701999999ADDAG12000GA1031+004809089GA2051+069009009MA1102401999999EQDQ01+000000PRSWM2
0169601010999991990011221004+35733-005900SY-MT+0021GMTT V0209991C00001069001CN0100001N1+01201+00681102481ADDAA106000091AG14000GA1031+006009089GA2041+069009009GF105991031021008001001021MA1102401999999MD1310081+9999MW1001REMSYN017333   83820 84070MET004NSG?EQDQ01+000000PRSWM2
0089601010999991990011221304+35733-005900FM-15+0021GMTT V0200801N00311069001CN0112001N1+01201+00701999999ADDAG12999GA1031+006009089GA2041+069009009MA1102401999999REMMET004NSG?EQDQ01+000000PRSWM2
0089601010999991990011222004+35733-005900FM-15+0021GMTT V0209991C00001220001CN0112001N1+01101+00901999999ADDAG12999GA1021+006009089GA2031+060009009MA1102401999999REMMET004NSG?EQDQ01+000000PRSWM2
0077601010999991990011222304+35733-005900FM-15+0021GMTT V0209991C00001220001CN0112001N1+01101+99999999999ADDAG12999GA1021+006009089GA2031+060009009REMMET007(9 NSG?EQDQ01+000000PRSWM2
0089601010999991990011223004+35733-005900FM-15+0021GMTT V0209991C00001220001CN0112001N1+01101+00901999999ADDAG12999GA1021+006009089GA2031+060009009MA1102401999999REMMET004NSG?EQDQ01+000000PRSWM2
0089601010999991990011223304+35733-005900FM-15+0021GMTT V0200401N00211060001CN0112001N1+01101+00901999999ADDAG12000GA1021+006009089GA2041+060009009MA1102401999999REMMET004NSG?EQDQ01+000000PRSWM2
0163601010999991990011300004+35733-005900SY-MT+0021GMTT V0209991C00001060001CN0100001N1+00931+00771102541ADDAA106000091AG10000GA1021+006009089GA2041+060009009GF105991021021008001001021MA1102511999999MD1310071+9999REMSYN017333   82820 84070MET004NSG?EQDQ01+000000PRSWM2
0119601010999991990011303004+35733-005900FM-12+0021GMTT V0209991C00001220001CN0100001N9+00911+00741102511ADDAA106000091AG14000GA1021+006009089GA2041+060009009GF104991021021008001001021MD1810031+9999REMSYN017333   82820 84070
0080601010999991990011303304+35733-005900FM-15+0021GMTT V0200201N00211060001CN0112001N1+00901+00701999999ADDAG12999GA1021+006009089GA2041+060009009REMMET01010225 NSG?EQDQ01+000000PRSWM2
0105601010999991990011304004+35733-005900FM-15+0021GMTT V0200401N00151060001CN0112001N1+00801+00701999999ADDAG12999GA1021+006009089GA2041+060009009GA3021+999999089MA1102511999999REMMET004NSG?EQDQ01+000000PRSWM2
0089601010999991990011304304+35733-005900FM-15+0021GMTT V0200801N00211060001CN0112001N1+00801+00701999999ADDAG12999GA1021+006009089GA2041+060009009MA1102511999999REMMET004NSG?EQDQ01+000000PRSWM2
0073601010999991990011305004+35733-005900FM-15+0021GMTT V0200201N00211220001CN0112001N1+00901+00801999999ADDAG12999GA1031+004809089MA1102401999999REMMET004NSG?EQDQ01+000000PRSWM2
0089601010999991990011305304+35733-005900FM-15+0021GMTT V0200401N00211069001CN0112001N1+00901+00801999999ADDAG12000GA1031+004809089GA2041+069009009MA1102401999999REMMET004NSG?EQDQ01+000000PRSWM2
0188601010999991990011306004+35733-005900SY-MT+0021GMTT V0200401N00311060001CN0100001N1+00751+00641102441ADDAA106000091AG14000GA1031+004809089GA2041+060009009GF106991031021004501001021KA1120N+00681MA1102401999999MD1810081+9999MW1001REMSYN023333   20068 83816 84070MET004NSG?EQDQ01+000000PRSWM2
0089601010999991990011306304+35733-005900FM-15+0021GMTT V0209991C00001069001CN0112001N1+00801+00601999999ADDAG12999GA1031+004809089GA2041+069009009MA1102401999999REMMET004NSG?EQDQ01+000000PRSWM2
0089601010999991990011307004+35733-005900FM-15+0021GMTT V0200201N00101060001CN0112001N1+00901+00701999999ADDAG12999GA1031+004809089GA2041+060009009MA1102401999999REMMET004NSG?EQDQ01+000000PRSWM2
0089601010999991990011307304+35733-005900FM-15+0021GMTT V0209991C00001069001CN0112001N1+00901+00701999999ADDAG12999GA1031+004809089GA2041+069009009MA1102401999999REMMET004NSG?EQDQ01+000000PRSWM2
0085601010999991990011308004+35733-005900FM-15+0021GMTT V0201401N00411069001CN0112001N1+00701+00701999999ADDAG12999GA1031+004809089GA2041+069009009REMMET015EEE 07/06 1025?EQDQ01+000000PRSWM2
0060601010999991990011308304+35733-005900FM-15+0021GMTT V0201401N00211220001CN0112001N1+00701+00601999999ADDAG12000GA1031+004809089MA1102511999999EQDQ01+000000PRSWM2
0137601010999991990011309004+35733-005900SY-MT+0021GMTT V0201401N00151220001CN0100001N1+01001+00771102561ADDAA106000091AG14000GA1031+004809089GF104991031021004501001021MA1102511999999MD1110131+9999MW1001REMSYN011333   83816EQDQ01+000000PRSWM2
0060601010999991990011309304+35733-005900FM-15+0021GMTT V0201401N00211220001CN0112001N1+99999+99999999999ADDAG12999GA1031+004809089MA1102511999999EQDQ01+000000PRSWM2
0060601010999991990011310004+35733-005900FM-15+0021GMTT V0201401N00101220001CN0112001N1+99999+99999999999ADDAG12999GA1031+004809089MA1102611999999EQDQ01+000000PRSWM2
0060601010999991990011311304+35733-005900FM-15+0021GMTT V0209991C00001220001CN0112001N1+01601+01201999999ADDAG12000GA1021+004809089MA1102611999999EQDQ01+000000PRSWM2
0137601010999991990011312004+35733-005900SY-MT+0021GMTT V0201401N00311220001CN0150001N1+01651+00911102631ADDAA106000091AG14000GA1021+004809089GF103991021081004501001021MA1102611999999MD1010071+9999MW1001REMSYN011333   82816EQDQ01+000000PRSWM2
0060601010999991990011312304+35733-005900FM-15+0021GMTT V0201201N00411220001CN0112001N1+99999+99999999999ADDAG12999GA1021+004809089MA1102611999999EQDQ01+000000PRSWM2
0060601010999991990011313304+35733-005900FM-15+0021GMTT V0201201N00411220001CN0112001N1+01701+00901999999ADDAG12999GA1041+004809089MA1102611999999EQDQ01+000000PRSWM2
0060601010999991990011314004+35733-005900FM-15+0021GMTT V0201201N00511220001CN0112001N1+01701+00901999999ADDAG12999GA1041+004809089MA1102511999999EQDQ01+000000PRSWM2
0081601010999991990011314304+35733-005900FM-15+0021GMTT V0209999999999220001CN0112001N1+01701+00901999999ADDAG12000GA1041+004809089MA1102511999999REMMET012RJCT42  0210EQDQ01+000000PRSWM2
0159601010999991990011315004+35733-005900SY-MT+0021GMTT V0201201N00411006001CN0150001N1+01661+00951102471ADDAA106000091AG14000GA1041+004809089GA2011+006009099GF105991041091004501001021MA1102401999999MD1810161+9999MW1001REMSYN017333   84816 81920EQDQ01+000000PRSWM2
0076601010999991990011315304+35733-005900FM-15+0021GMTT V0201201N00411006001CN0112001N1+01701+01001999999ADDAG12999GA1041+004809089GA2011+006009099MA1102401999999EQDQ01+000000PRSWM2
0076601010999991990011316004+35733-005900FM-15+0021GMTT V0201201N00511220001CN0112001N1+01701+01001999999ADDAG12999GA1031+004809089GA2011+006009999MA1102401999999EQDQ01+000000PRSWM2
0060601010999991990011316304+35733-005900FM-15+0021GMTT V0201201N00511220001CN0112001N1+99999+99999999999ADDAG12999GA1011+006009099MA1102401999999EQDQ01+000000PRSWM2
0076601010999991990011317004+35733-005900FM-15+0021GMTT V0201001N00511006001CN0112001N1+99999+99999999999ADDAG12999GA1041+004809089GA2011+006009099MA1102401999999EQDQ01+000000PRSWM2
0076601010999991990011317304+35733-005900FM-15+0021GMTT V0201001N00721006001CN0112001N1+01601+01001999999ADDAG12000GA1041+004809089GA2011+006009099MA1102401999999EQDQ01+000000PRSWM2
0178601010999991990011318004+35733-005900SY-MT+0021GMTT V0201001N00511006001CN0150001N1+01441+00881102541ADDAA106000091AG14000GA1041+004809089GA2011+006009099GF105991041091004501001021KA1120M+01811MA1102511999999MD1310071+9999MW1001REMSYN023333   10181 84816 81920EQDQ01+000000PRSWM2
0060601010999991990011318304+35733-005900FM-15+0021GMTT V0201001N00511220001CN0112001N1+01401+00901999999ADDAG12999GA1041+004809089MA1102511999999EQDQ01+000000PRSWM2
0044601010999991990011319004+35733-005900FM-15+0021GMTT V0201001N003119999999N0112001N1+01401+01001999999ADDAG12999MA1102511999999EQDQ01+000000PRSWM2
0060601010999991990011320004+35733-005900FM-15+0021GMTT V0201001N00311220001CN0112001N1+01101+00901999999ADDAG12999GA1021+004809089MA1102611999999EQDQ01+000000PRSWM2
0060601010999991990011320304+35733-005900FM-15+0021GMTT V0201001N00311220001CN0112001N1+01101+00901999999ADDAG12000GA1021+004809089MA1102611999999EQDQ01+000000PRSWM2
0147601010999991990011321004+35733-005900SY-MT+0021GMTT V0209991C00001220001CN0150001N1+01051+00851102681ADDAA106000091AG14000GA1021+004809089GF102991021021004501001001MA1102611999999MD1310141+9999MW1001REMSYN011333   82816MET004NSG?EQDQ01+000000PRSWM2
0073601010999991990011321304+35733-005900FM-15+0021GMTT V0209991C00001220001CN0112001N1+99999+99999999999ADDAG12999GA1021+004809089MA1102611999999REMMET004NSG?EQDQ01+000000PRSWM2
0073601010999991990011322004+35733-005900FM-15+0021GMTT V0209991C00001220001CN0112001N1+01001+00801999999ADDAG12999GA1021+004809089MA1102611999999REMMET004NSG?EQDQ01+000000PRSWM2
0073601010999991990011322304+35733-005900FM-15+0021GMTT V0209991C00001220001CN0112001N1+99999+99999999999ADDAG12999GA1021+004809089MA1102611999999REMMET004NSG?EQDQ01+000000PRSWM2
0073601010999991990011323004+35733-005900FM-15+0021GMTT V0209991C00001220001CN0112001N1+00901+00701999999ADDAG12999GA1021+004809089MA1102711999999REMMET004NSG?EQDQ01+000000PRSWM2
0097601010999991990011400004+35733-005900FM-12+0021GMTT V0209991C00001220001CN0100001N9+00871+00721102751ADDAA106000091AG14000GA1021+004809089GF102991021021004501001001MD1110071+9999REMSYN011333   82816
0073601010999991990011400304+35733-005900FM-15+0021GMTT V0209991C00001220001CN0112001N1+00901+00701999999ADDAG11999GA1021+004809089MA1102711999999REMMET004NSG?EQDQ01+000000PRSWM2
0073601010999991990011401004+35733-005900FM-15+0021GMTT V0209991C00001220001CN0112001N1+99999+99999999999ADDAG11999GA1021+004809089MA1102711999999REMMET004NSG?EQDQ01+000000PRSWM2
0073601010999991990011401304+35733-005900FM-15+0021GMTT V0209991C00001220001CN0112001N1+00901+00801999999ADDAG11999GA1021+004809089MA1102711999999REMMET004NSG?EQDQ01+000000PRSWM2
0073601010999991990011402304+35733-005900FM-15+0021GMTT V0201001N00211220001CN0112001N1+01001+00901999999ADDAG12000GA1031+004809089MA1102711999999REMMET004NSG?EQDQ01+000000PRSWM2
0147601010999991990011403004+35733-005900SY-MT+0021GMTT V0200601N00151220001CN0100001N1+00951+00851102701ADDAA106000091AG14000GA1031+004809089GF103991031021004501001001MA1102711999999MD1610051+9999MW1001REMSYN011333   83816MET004NSG?EQDQ01+000000PRSWM2
0073601010999991990011403304+35733-005900FM-15+0021GMTT V0209991C00001220001CN0112001N1+01001+00901999999ADDAG12999GA1031+004809089MA1102711999999REMMET004NSG?EQDQ01+000000PRSWM2
0073601010999991990011404004+35733-005900FM-15+0021GMTT V0209991C00001220001CN0112001N1+99999+99999999999ADDAG12999GA1031+004809089MA1102711999999REMMET004NSG?EQDQ01+000000PRSWM2
0073601010999991990011404304+35733-005900FM-15+0021GMTT V0209991C00001220001CN0112001N1+00901+00801999999ADDAG12999GA1031+004809089MA1102711999999REMMET004NSG?EQDQ01+000000PRSWM2
0073601010999991990011405004+35733-005900FM-15+0021GMTT V0209991C00001220001CN0112001N1+00901+00801999999ADDAG12999GA1031+004809089MA1102711999999REMMET004NSG?EQDQ01+000000PRSWM2
0073601010999991990011405304+35733-005900FM-15+0021GMTT V0209991C00001220001CN0112001N1+00901+00801999999ADDAG12000GA1031+004809089MA1102711999999REMMET004NSG?EQDQ01+000000PRSWM2
0166601010999991990011406004+35733-005900SY-MT+0021GMTT V0209991C00001220001CN0100001N1+00801+00691102731ADDAA106000091AG14000GA1031+004809089GF103991031021004501001001KA1120N+00721MA1102711999999MD1310011+9999MW1001REMSYN017333   20072 83816MET004NSG?EQDQ01+000000PRSWM2
0073601010999991990011406304+35733-005900FM-15+0021GMTT V0209991C00001220001CN0112001N1+00801+00701999999ADDAG12999GA1031+004809089MA1102711999999REMMET004NSG?EQDQ01+000000PRSWM2
0073601010999991990011407004+35733-005900FM-15+0021GMTT V0209991C00001220001CN0080001N1+00801+00601999999ADDAG12999GA1031+004809089MA1102711999999REMMET004NSG?EQDQ01+000000PRSWM2
0073601010999991990011407304+35733-005900FM-15+0021GMTT V0209991C00001220001CN0080001N1+99999+99999999999ADDAG12999GA1031+004809089MA1102711999999REMMET004NSG?EQDQ01+000000PRSWM2
0072601010999991990011408004+35733-005900FM-15+0021GMTT V0209991C00001220001CN0080001N1+00901+00701999999ADDAG12999GA1031+004809089MA1102711999999REMMET003NG?EQDQ01+000000PRSWM2
0072601010999991990011408304+35733-005900FM-15+0021GMTT V0209991C00001220001CN0080001N1+99999+99999999999ADDAG12000GA1031+004809089MA1102711999999REMMET003NG?EQDQ01+000000PRSWM2
0137601010999991990011409004+35733-005900SY-MT+0021GMTT V0200401N00211220001CN0100001N1+00881+00821102831ADDAA106000091AG14000GA1031+007809089GF103991031021004501001001MA1102811999999MD1310101+9999MW1001REMSYN011333   83826EQDQ01+000000PRSWM2
0060601010999991990011410004+35733-005900FM-15+0021GMTT V0200401N00211220001CN0112001N1+00901+00801999999ADDAG12999GA1031+004809089MA1102811999999EQDQ01+000000PRSWM2
0060601010999991990011410304+35733-005900FM-15+0021GMTT V0200501N00211220001CN0112001N1+01301+01101999999ADDAG12999GA1031+004809089MA1102811999999EQDQ01+000000PRSWM2
0072601010999991990011411004+35733-005900FM-15+0021GMTT V0200401N00211220001CN0112001N1+01501+01101999999ADDAG12999GA1031+004809089MA1102911999999REMMET003NG?EQDQ01+000000PRSWM2
0072601010999991990011411304+35733-005900FM-15+0021GMTT V0200401N00211220001CN0112001N1+01501+01101999999ADDAG12000GA1031+004809089MA1102911999999REMMET003NG?EQDQ01+000000PRSWM2
0146601010999991990011412004+35733-005900SY-MT+0021GMTT V0209991C00001220001CN0150001N1+01601+01031102951ADDAA106000091AG14000GA1031+004809089GF103991031021004501001001MA1102911999999MD1110131+9999MW1001REMSYN011333   83816MET003NG?EQDQ01+000000PRSWM2
0072601010999991990011412304+35733-005900FM-15+0021GMTT V0209991C00001220001CN0112001N1+99999+99999999999ADDAG12999GA1031+004809089MA1102911999999REMMET003NG?EQDQ01+000000PRSWM2
0072601010999991990011413004+35733-005900FM-15+0021GMTT V0209991C00001220001CN0112001N1+01601+01001999999ADDAG12999GA1031+004809089MA1102911999999REMMET003NG?EQDQ01+000000PRSWM2
0073601010999991990011413304+35733-005900FM-15+0021GMTT V0209991C00001220001CN0112001N1+01601+01001999999ADDAG12999GA1031+004809089MA1102911999999REMMET004NSG?EQDQ01+000000PRSWM2
0147601010999991990011415004+35733-005900SY-MT+0021GMTT V0203001N00361220001CN0150001N1+01501+01131102781ADDAA106000091AG14000GA1031+004809089GF103991031021004501001001MA1102711999999MD1810171+9999MW1001REMSYN011333   83816MET004NSG?EQDQ01+000000PRSWM2
0060601010999991990011415304+35733-005900FM-15+0021GMTT V0209991C00001220001CN0112001N1+99999+99999999999ADDAG12999GA1031+004809059MA1102711999999EQDQ01+000000PRSWM2
