0144601010999992008010200004+35733-005900FM-12+0021GMTT V0201801N004112200019N0080001N1+01221+00921102211ADDGA1031+004801081GF104991031021004501001021MD1610061+9999REMSYN076AAXX  02004 60101 32458 41808 10122 20092 40221 56006 83202 333 83816 83070;
0080601010999992008010203004+35733-005900FM-12+0021GMTT V0201801N005119999999N9999999N1+01201+00911102061ADDMD1810181+9999REMSYN054AAXX  02034 60101 36/// /1810 10120 20091 40206 58018;
0264601010999992008010206004+35733-005900SY-MT+0021GMTT V0201901N00871004801CN0080001N1+01281+00861101931ADDGA1075+004801999GA2075+027001999GF107991051021004501071999KA1120N+01041MA1101901999999MD1810101+9999REMSYN082AAXX  02064 60101 32458 71917 10128 20086 40193 58010 8527/ 333 20104 85816 86359;MET064METAR GMTT 020600Z 19017KT 8000 BKN016 BKN090 13/09 Q1019 NOSIG;
0154601010999992008010206304+35733-005900AUTO +0021GMTT V0201901N007710048019N0080001N1+01301+00801999999ADDGA1071+004801999GA2071+027001999GF107991999999999999999999MA1101901999999REMMET069METAR GMTT 020630Z AUTO 19015KT 8000 BKN016 BKN090 13/08 Q1019 NOSIG;
0154601010999992008010207004+35733-005900AUTO +0021GMTT V0201901N007210048019N0080001N1+01301+00801999999ADDGA1071+004801999GA2071+027001999GF107991999999999999999999MA1101901999999REMMET069METAR GMTT 020700Z AUTO 19014KT 8000 BKN016 BKN090 13/08 Q1019 NOSIG;
0165601010999992008010207304+35733-005900AUTO +0021GMTT V0201901N008710048019N0080001N1+01301+00801999999ADDGA1071+004801999GA2071+027001999GF107991999999999999999999MA1101901999999OC101391REMMET072METAR GMTT 020730Z AUTO 19017G27KT 8000 BKN016 BKN090 13/08 Q1019 NOSIG;
0157601010999992008010207504+35733-005900FM-15+0021GMTT V0201901N00981004801CN0080001N1+01301+00801999999ADDGA1075+004801999GA2075+027001999GF107991999999999999999999MA1101901999999OC101491REMMET064METAR GMTT 020750Z 19019G29KT 8000 BKN016 BKN090 13/08 Q1019 M0;
0160601010999992008010208004+35733-005900FM-15+0021GMTT V0201901N00981004801CN0080001N1+01301+00801999999ADDGA1075+004801999GA2075+027001999GF107991999999999999999999MA1101901999999OC101491REMMET067METAR GMTT 020800Z 19019G29KT 8000 BKN016 BKN090 13/08 Q1019 NOSIG;
0168601010999992008010208304+35733-005900FM-15+0021GMTT V0201901N01031004801CN0080001N1+01201+00801999999ADDGA1075+004801999GA2075+027001999GF107991999999999999999999MA1101901999999MW1631OC101541REMMET069METAR GMTT 020830Z 19020G30KT 8000 RA BKN016 BKN090 12/08 Q1019 SHRA;
0277601010999992008010209004+35733-005900SY-MT+0021GMTT V0201901N00871004801CN0080001N1+01191+00801101931ADDAY161031AY221031GA1075+004801999GA2075+027001999GF107991051021004501071999MA1101901999999MD1610031+9999MW1211REMSYN082AAXX  02094 60101 31458 71917 10119 20080 40193 56003 72162 8527/ 333 85816 86359;MET068METAR GMTT 020900Z 19017KT 8000 BKN016 BKN090 12/08 Q1019 RERA SHRA;
0159601010999992008010209304+35733-005900FM-15+0021GMTT V0201901N00981004801CN0080001N1+01201+00801999999ADDGA1075+004801999GA2075+027001999GF107991999999999999999999MA1101901999999OC101651REMMET066METAR GMTT 020930Z 19019G32KT 8000 BKN016 BKN090 12/08 Q1019 SHRA;
0159601010999992008010210004+35733-005900FM-15+0021GMTT V0201901N01031004801CN0080001N1+01201+00801999999ADDGA1075+004801999GA2075+027001999GF107991999999999999999999MA1101901999999OC101591REMMET066METAR GMTT 021000Z 19020G31KT 8000 BKN016 BKN090 12/08 Q1019 SHRA;
0159601010999992008010210304+35733-005900FM-15+0021GMTT V0201901N01031004801CN0080001N1+01201+00901999999ADDGA1075+004801999GA2075+027001999GF107991999999999999999999MA1101901999999OC101651REMMET066METAR GMTT 021030Z 19020G32KT 8000 BKN016 BKN090 12/09 Q1019 SHRA;
0159601010999992008010211004+35733-005900FM-15+0021GMTT V0201901N01031004801CN0080001N1+01201+00901999999ADDGA1075+004801999GA2075+027001999GF107991999999999999999999MA1101801999999OC101591REMMET066METAR GMTT 021100Z 19020G31KT 8000 BKN016 BKN090 12/09 Q1018 SHRA;
0148601010999992008010211304+35733-005900FM-15+0021GMTT V0201901N01081004801CN0080001N1+01201+00901999999ADDGA1075+004801999GA2075+027001999GF107991999999999999999999MA1101801999999REMMET063METAR GMTT 021130Z 19021KT 8000 BKN016 BKN090 12/09 Q1018 SHRA;
0300601010999992008010212004+35733-005900SY-MT+0021GMTT V0201901N01031004801CN0080001N1+01211+00911101791ADDAA106000891AY161061AY261061GA1075+004801999GA2075+027001999GF107991051021004501071999MA1101691999999MD1810061+9999MW1611OC101541REMSYN088AAXX  02124 60101 11458 71920 10121 20091 40179 58006 69981 76166 8527/ 333 85816 86359;MET066METAR GMTT 021200Z 19020G30KT 8000 BKN016 BKN090 12/09 Q1017 SHRA;
0159601010999992008010212304+35733-005900FM-15+0021GMTT V0201901N00981004801CN0080001N1+01201+01001999999ADDGA1075+004801999GA2075+027001999GF107991999999999999999999MA1101691999999OC101541REMMET066METAR GMTT 021230Z 19019G30KT 8000 BKN016 BKN090 12/10 Q1017 SHRA;
0165601010999992008010213004+35733-005900FM-15+0021GMTT V0202001N00871004801CN0060001N1+01201+01001999999ADDGA1075+004801999GA2075+027001999GF107991999999999999999999MA1101801999999MW1631REMMET074METAR GMTT 021300Z 20017KT 170V230 6000 RA BKN016 BKN090 12/10 Q1018 SHRA;
0182601010999992008010214004+35733-005900FM-15+0021GMTT V0201901N00721004801CN0060001N1+01301+01101999999ADDGA1045+003001999GA2075+004801999GA3075+027001999GF107991999999999999999999MA1101691999999MW1811REMMET075METAR GMTT 021400Z 19014KT 6000 SHRA SCT010 BKN016 BKN090 13/11 Q1017 SHRA;
0184601010999992008010214164+35733-005900FM-15+0021GMTT V0201901N00621003001CN0030001N1+01301+01201999999ADDGA1025+001201999GA2045+003001999GA3075+004801999GF107991999999999999999999MA1101691999999MW1631REMMET077METAR GMTT 021416Z 19012KT 3000 RA FEW004 SCT010 BKN016 13/12 Q1017 M2 NOSIG;
0181601010999992008010214304+35733-005900FM-15+0021GMTT V0201901N00621003001CN0030001N1+01301+01201999999ADDGA1025+001201999GA2045+003001999GA3075+004801999GF107991999999999999999999MA1101691999999MW1631REMMET074METAR GMTT 021430Z 19012KT 3000 RA FEW004 SCT010 BKN016 13/12 Q1017 NOSIG;
0300601010999992008010215004+35733-005900SY-MT+0021GMTT V0201901N00411003001CN0030001N1+01351+01211101701ADDAY181031AY261031GA1025+001201999GA2045+003001999GA3075+004801999GF108991081021001501999999MA1101691999999MD1810091+9999MW1611REMSYN088AAXX  02154 60101 41230 81908 10135 20121 40170 58009 76186 882// 333 82704 83710 86816;MET069METAR GMTT 021500Z 19008KT 3000 -RA FEW004 SCT010 BKN016 14/12 Q1017;
0182601010999992008010215304+35733-005900FM-15+0021GMTT V0202301N00511003001CN0020001N1+01401+01301999999ADDGA1025+001201999GA2045+003001999GA3075+004801999GF107991999999999999999999MA1101691999999MW1611REMMET075METAR GMTT 021530Z 23010KT 2000 -RA FEW004 SCT010 BKN016 14/13 Q1017 NOSIG;
0189601010999992008010216004+35733-005900FM-15+0021GMTT V0202701N00411003001CN0020001N1+01301+01101999999ADDGA1025+001201999GA2045+003001999GA3075+004801999GF107991999999999999999999MA1101691999999MW1631REMMET082METAR GMTT 021600Z 27008KT 240V300 2000 RA FEW004 SCT010 BKN016 13/11 Q1017 NOSIG;
0181601010999992008010216304+35733-005900FM-15+0021GMTT V0202501N00671003001CN0020001N1+01401+01301999999ADDGA1025+001201999GA2045+003001999GA3075+004801999GF107991999999999999999999MA1101691999999MW1631REMMET074METAR GMTT 021630Z 25013KT 2000 RA FEW004 SCT010 BKN016 14/13 Q1017 NOSIG;
0182601010999992008010217004+35733-005900FM-15+0021GMTT V0202501N00721003001CN0030001N1+01301+01201999999ADDGA1025+001501999GA2045+003001999GA3075+004801999GF107991999999999999999999MA1101691999999MW1611REMMET075METAR GMTT 021700Z 25014KT 3000 -RA FEW005 SCT010 BKN016 13/12 Q1017 NOSIG;
0182601010999992008010217304+35733-005900FM-15+0021GMTT V0202401N00621003001CN0040001N1+01401+01201999999ADDGA1025+001501999GA2045+003001999GA3075+004801999GF107991999999999999999999MA1101691999999MW1611REMMET075METAR GMTT 021730Z 24012KT 4000 -RA FEW005 SCT010 BKN016 14/12 Q1017 NOSIG;
0230601010999992008010218004+35733-005900FM-12+0021GMTT V0202301N006210030019N0040001N1+01501+01321101721ADDAA112015091AY181061AY261061GA1021+001501071GA2041+003001071GF108991081021001501999999KA1120M+01491MD1110021+9999MW1601REMSYN100AAXX  02184 60101 11240 82312 10150 20132 40172 51002 60152 76086 882// 333 10149 82705 84710 87816;
0182601010999992008010218304+35733-005900FM-15+0021GMTT V0202401N00621003001CN0040001N1+01501+01301999999ADDGA1025+001501999GA2045+003001999GA3075+004801999GF107991999999999999999999MA1101691999999MW1611REMMET075METAR GMTT 021830Z 24012KT 4000 -RA FEW005 SCT010 BKN016 15/13 Q1017 NOSIG;
0182601010999992008010218364+35733-005900FM-15+0021GMTT V0202301N00671003001CN0050001N1+01501+01301999999ADDGA1025+002401999GA2045+003001999GA3075+004801999GF107991999999999999999999MA1101591999999REMMET081METAR GMTT 021836Z 23013KT 5000 FEW008 SCT010 BKN016 15/13 Q1016 TEMPO 4000 SHRA;
0182601010999992008010218364+35733-005900FM-16+0021GMTT V0202301N00671003001CN0050001N1+01501+01301999999ADDGA1025+002401999GA2045+003001999GA3075+004801999GF107991999999999999999999MA1101591999999REMMET081SPECI GMTT 021836Z 23013KT 5000 FEW008 SCT010 BKN016 15/13 Q1016 TEMPO 4000 SHRA;
0184601010999992008010218384+35733-005900FM-15+0021GMTT V0202301N00671003001CN0050001N1+01501+01301999999ADDGA1025+002401999GA2045+003001999GA3075+004801999GF107991999999999999999999MA1101591999999REMMET083METAR GMTT 021838Z 23013KT 5000 FEW008 SCT010 BKN016 15/13 Q1016 B2TEMPO 4000 SHRA;
0172601010999992008010219004+35733-005900FM-15+0021GMTT V0202301N00671003001CN0050001N1+01501+01301999999ADDGA1025+002401999GA2045+003001999GA3075+004801999GF107991999999999999999999MA1101591999999REMMET071METAR GMTT 021900Z 23013KT 5000 FEW008 SCT010 BKN016 15/13 Q1016 NOSIS;
0172601010999992008010219304+35733-005900FM-15+0021GMTT V0202401N00671003001CN0050001N1+01601+01301999999ADDGA1025+002401999GA2045+003001999GA3075+004801999GF107991999999999999999999MA1101691999999REMMET071METAR GMTT 021930Z 24013KT 5000 FEW008 SCT010 BKN016 16/13 Q1017 NOSIS;
0149601010999992008010220004+35733-005900FM-15+0021GMTT V0202301N00721004801CN0060001N1+01501+01301999999ADDGA1045+003901999GA2075+004801999GF107991999999999999999999MA1101591999999REMMET064METAR GMTT 022000Z 23014KT 6000 SCT013 BKN016 15/13 Q1016 NOSIS;
0149601010999992008010220304+35733-005900FM-15+0021GMTT V0202301N00771004801CN0060001N1+01501+01301999999ADDGA1045+003001999GA2075+004801999GF107991999999999999999999MA1101591999999REMMET064METAR GMTT 022030Z 23015KT 6000 SCT010 BKN016 15/13 Q1016 NOSIS;
0273601010999992008010221004+35733-005900SY-MT+0021GMTT V0202301N00671004801CN0060001N1+01521+01271101631ADDAY161031AY221031GA1045+003001999GA2075+004801999GF107991071081004501999999MA1101591999999MD1810051+9999MW1011REMSYN082AAXX  02214 60101 31456 72313 10152 20127 40163 58005 70162 878// 333 83810 86816;MET064METAR GMTT 022100Z 23013KT 6000 SCT010 BKN016 15/13 Q1016 NOSIS;
0149601010999992008010221304+35733-005900FM-15+0021GMTT V0202301N00771004801CN0060001N1+01501+01301999999ADDGA1045+003001999GA2075+004801999GF107991999999999999999999MA1101491999999REMMET064METAR GMTT 022130Z 23015KT 6000 SCT010 BKN016 15/13 Q1015 NOSIS;
0149601010999992008010222004+35733-005900FM-15+0021GMTT V0202101N00621004801CN0060001N1+01501+01301999999ADDGA1045+003001999GA2075+004801999GF107991999999999999999999MA1101491999999REMMET064METAR GMTT 022200Z 21012KT 6000 SCT010 BKN016 15/13 Q1015 NOSIS;
0167601010999992008010222304+35733-005900FM-15+0021GMTT V0202501N00771004801CN0060001N1+01401+01301999999ADDGA1045+003001999GA2075+004801999GF107991999999999999999999MA1101491999999MW1811REMMET076METAR GMTT 022230Z 25015KT 210V280 6000 SHRA SCT010 BKN016 14/13 Q1015 SHRA;
0167601010999992008010223004+35733-005900FM-15+0021GMTT V0202401N00511004801CN0050001N1+01501+01401999999ADDGA1045+003001999GA2075+004801999GF107991999999999999999999MA1101491999999MW1811REMMET076METAR GMTT 022300Z 24010KT 190V280 5000 SHRA SCT010 BKN016 15/14 Q1015 SHRA;
0159601010999992008010223304+35733-005900FM-15+0021GMTT V0202601N00931004801CN0050001N1+01501+01301999999ADDGA1045+003001999GA2075+004801999GF107991999999999999999999MA1101491999999MW1811REMMET068METAR GMTT 022330Z 26018KT 5000 SHRA SCT010 BKN016 15/13 Q1015 SHRA;
0300601010999992008010300004+35733-005900SY-MT+0021GMTT V0202601N00721004801CN0050001N1+01421+01231101471ADDAA106008991AY181061AY281061GA1045+003001999GA2075+004801999GF107991071081004501999999MA1101391999999MD1610131+9999MW1801REMSYN094AAXX  03004 60101 11450 72614 10142 20123 40147 56013 60091 78088 878// 92352 333 83810 86816;MET068METAR GMTT 030000Z 26015KT 5000 SHRA SCT010 BKN016 14/12 Q1014 SHRA;
0164601010999992008010300304+35733-005900AUTO +0021GMTT V0202401N008210048019N0050001N1+01401+01201999999ADDAW1821GA1041+003001999GA2071+004801999GF107991999999999999999999MA1101391999999REMMET073METAR GMTT 030030Z AUTO 24016KT 5000 SHRA SCT010 BKN016 14/12 Q1014 SHRA;
0175601010999992008010301004+35733-005900AUTO +0021GMTT V0202501N010310048019N0050001N1+01401+01201999999ADDAW1821GA1041+003001999GA2071+004801999GF107991999999999999999999MA1101291999999OC101591REMMET076METAR GMTT 030100Z AUTO 25020G31KT 5000 SHRA SCT010 BKN016 14/12 Q1013 SHRA;
0164601010999992008010301304+35733-005900AUTO +0021GMTT V0202301N008210048019N0050001N1+01501+01301999999ADDAW1821GA1041+003001999GA2071+004801999GF107991999999999999999999MA1101291999999REMMET073METAR GMTT 030130Z AUTO 23016KT 5000 SHRA SCT010 BKN016 15/13 Q1013 SHRA;
0071601010999992008010302004+35733-005900AUTO +0021GMTT V0202301N008212200019N9999999N1+01501+01201999999ADDMA1101291999999REMMET044METAR GMTT 030200Z AUTO 23016KT 15/12 Q1013;
0071601010999992008010302304+35733-005900AUTO +0021GMTT V0202301N008212200019N9999999N1+01501+01201999999ADDMA1101191999999REMMET044METAR GMTT 030230Z AUTO 23016KT 15/12 Q1012;
0145601010999992008010303004+35733-005900SY-MT+0021GMTT V0202201N007719999999N9999999N1+01551+01291101151ADDMA1101081999999MD1610241+9999REMSYN054AAXX  03034 60101 46/// /2215 10155 20129 40115 56024;MET044METAR GMTT 030300Z AUTO 22015KT 16/13 Q1011;
0071601010999992008010303304+35733-005900AUTO +0021GMTT V0202201N008212200019N9999999N1+01601+01301999999ADDMA1101021999999REMMET044METAR GMTT 030330Z AUTO 22016KT 16/13 Q1010;
0071601010999992008010304004+35733-005900AUTO +0021GMTT V0202101N008212200019N9999999N1+01601+01301999999ADDMA1100911999999REMMET044METAR GMTT 030400Z AUTO 21016KT 16/13 Q1009;
0160601010999992008010304304+35733-005900FM-15+0021GMTT V0202301N00871004801CN0070001N1+01601+01301999999ADDGA1045+003001999GA2075+004801999GF107991999999999999999999MA1101021999999OC101441REMMET067METAR GMTT 030430Z 23017G28KT 7000 SCT010 BKN016 16/13 Q1010 NOSIG;
0154601010999992008010305004+35733-005900AUTO +0021GMTT V0202201N009810048019N0070001N1+01601+01301999999ADDGA1041+003001999GA2071+004801999GF107991999999999999999999MA1100911999999REMMET069METAR GMTT 030500Z AUTO 22019KT 7000 SCT010 BKN016 16/13 Q1009 NOSIG;
0165601010999992008010305304+35733-005900AUTO +0021GMTT V0202201N009310048019N0070001N1+01601+01301999999ADDGA1041+003001999GA2071+004801999GF107991999999999999999999MA1100911999999OC101541REMMET072METAR GMTT 030530Z AUTO 22018G30KT 7000 SCT010 BKN016 16/13 Q1009 NOSIG;
0289601010999992008010306004+35733-005900SY-MT+0021GMTT V0202201N010310048019N0070001N1+01601+01331100871ADDAA124024991AY181061AY281061GA1031+003001081GA2061+004801081GF107991071081004501999999KA1120N+01391MA1100811999999MD1610331+9999MW1021REMSYN094AAXX  03064 60101 11457 72220 10160 20133 40087 56033 60254 70288 878// 333 20139 83810 86816;MET044METAR GMTT 030600Z AUTO 22020KT 16/13 Q1008;
0165601010999992008010306304+35733-005900AUTO +0021GMTT V0202301N011310048019N0070001N1+01601+01301999999ADDGA1041+003001999GA2071+004801999GF107991999999999999999999MA1100811999999OC101751REMMET072METAR GMTT 030630Z AUTO 23022G34KT 7000 SCT010 BKN016 16/13 Q1008 NOSIG;
0165601010999992008010307004+35733-005900AUTO +0021GMTT V0202301N011810048019N0070001N1+01701+01301999999ADDGA1041+003001999GA2071+004801999GF107991999999999999999999MA1100711999999OC101801REMMET072METAR GMTT 030700Z AUTO 23023G35KT 7000 SCT010 BKN016 17/13 Q1007 NOSIG;
0154601010999992008010307304+35733-005900AUTO +0021GMTT V0202201N011310048019N0070001N1+01701+01301999999ADDGA1041+003001999GA2071+004801999GF107991999999999999999999MA1100611999999REMMET069METAR GMTT 030730Z AUTO 22022KT 7000 SCT010 BKN016 17/13 Q1006 NOSIG;
0168601010999992008010308004+35733-005900FM-15+0021GMTT V0202201N01181004801CN0050001N1+01601+01301999999ADDGA1045+003001999GA2075+004801999GF107991999999999999999999MA1100611999999MW1631OC101701REMMET069METAR GMTT 030800Z 22023G33KT 5000 RA SCT010 BKN016 16/13 Q1006 SHRA;
0202601010999992008010308064+35733-005900FM-15+0021GMTT V0202401N01341003001CN0020001N1+01501+01201999999ADDGA1045+001201999GA2045+003001999GA3075+004801999GF107991999999999999999999MA1100711999999MW1811OC102371REMMET087METAR GMTT 030806Z 24026G46KT 210V290 2000 SHRA SCT004 SCT010 BKN016 15/12 Q1007 M0 M2;
0365601010999992008010309004+35733-005900SY-MT+0021GMTT V0202601N01131003001CN0020001N1+01381+01211100701ADDAY181031AY221031ED128U07509GA1025+001501999GA2045+003001999GA3075+004801999GF107991999081001501999999MA1100711999999MD1810181+9999MW1801OC101651REMSYN088AAXX  03094 60101 41220 72622 10138 20121 40070 58018 78082 888// 333 82705 83810 86816;MET096METAR GMTT 030900Z 26022G32KT 2000 R28/0750V1200U -SHRA FEW005 SCT010 BKN016 14/12 Q1007 NOISIG;EQDQ01+000082SCOTLC
0184601010999992008010309304+35733-005900FM-15+0021GMTT V0202501N01131003001CN0020001N1+01501+01301999999ADDGA1025+001501999GA2045+003001999GA3075+004801999GF107991999999999999999999MA1100611999999MW1801REMMET077METAR GMTT 030930Z 25022KT 2000 -SHRA FEW005 SCT010 BKN016 15/13 Q1006 NOSIG;
0180601010999992008010309424+35733-005900FM-15+0021GMTT V0202501N01081003901CN0060001N1+01501+01301999999ADDGA1045+003001999GA2045+003901999GA3075+004801999GF107991999999999999999999MA1100611999999REMMET079METAR GMTT 030942Z 25021KT 6000 SCT010 SCT013 BKN016 15/13 Q1006 RERA B2 NOSIG;
0177601010999992008010310004+35733-005900FM-15+0021GMTT V0202401N01081003901CN0060001N1+01501+01301999999ADDGA1045+003001999GA2045+003901999GA3075+004801999GF107991999999999999999999MA1100611999999REMMET076METAR GMTT 031000Z 24021KT 6000 SCT010 SCT013 BKN016 15/13 Q1006 RERA NOSIG;
0236601010999992008010310304+35733-005900FM-15+0021GMTT V0202901N01391003901CN0020001N1+01401+01001999999ADDED128U06509GA1025+001201999GA2045+003901025GA3075+004801999GF107991999999999999999999MA1100711999999MW1811OC102161REMMET110METAR GMTT 031030Z 29027G42KT 250V320 2000 R28/0650VP2000 SHRA FEW004 SCT013TCU BKN016 14/10 Q1007 TEMPO TSRA;
0192601010999992008010311004+35733-005900FM-15+0021GMTT V0202801N01231003901CN0020001N1+01401+01101999999ADDGA1025+001201999GA2045+003901025GA3075+004801999GF107991999999999999999999MA1100711999999MW1801REMMET085METAR GMTT 031100Z 28024KT 2000 -SHRA FEW004 SCT013TCU BKN016 14/11 Q1007 TEMPO TSRA;
0221601010999992008010311304+35733-005900FM-15+0021GMTT V0202801N01231004801CN0040001N1+01401+00901999999ADDGA1045+003001999GA2045+003901025GA3075+004801999GA4025+006901095MA1100711999999MW1801OC101901REMMET097METAR GMTT 031130Z 28024G37KT 4000 -SHRA SCT010 SCT013TCU BKN016 FEW023CB 14/09 Q1007 TEMPO TSRA;EQDQ01+000022SCOTCV
0330601010999992008010312004+35733-005900SY-MT+0021GMTT V0202701N01231004801CN0030001N1+01421+00961100701ADDAA106006191AY181061AY261061GA1045+003001999GA2075+004801999GA3025+006901095GF108991081091004501999999MA1100711999999MD1310011+9999MW1601REMSYN094AAXX  03124 60101 11430 82724 10142 20096 40070 53001 60061 76086 889// 333 83810 86816 81923;MET082METAR GMTT 031200Z 27024KT 3000 -RA SCT010 BKN016 FEW023CB 14/10 Q1007 TEMPO TSRA;
0219601010999992008010312304+35733-005900FM-15+0021GMTT V0202801N01441004801CN0020001N1+01301+01001999999ADDED128U08009GA1045+003001999GA2075+004801999GA3025+006901095MA1100711999999MW1611OC102061REMMET100METAR GMTT 031230Z 28028G40KT 2000 R28/0800V1700U -RA SCT010 BKN016 FEW023CB 13/10 Q1007 TEMPO TSRA;EQDQ01+000022SCOTCV
0182601010999992008010313004+35733-005900FM-15+0021GMTT V0202801N01131004801CN0040001N1+01301+00801999999ADDGA1045+003001999GA2075+004801999GA3025+006901095MA1100611999999MW1611REMMET082METAR GMTT 031300Z 28022KT 4000 -RA SCT010 BKN016 FEW023CB 13/08 Q1006 TEMPO TSRA;EQDQ01+000022SCOTCV
0175601010999992008010313274+35733-005900FM-15+0021GMTT V0202701N01131004801CN0050001N1+01401+00901999999ADDGA1045+003001999GA2075+004801999GA3025+006901095MA1100611999999REMMET081METAR GMTT 031327Z 27022KT 5000 SCT010 BKN016 FEW023CB 14/09 Q1006 B2 TEMPO TSRA;EQDQ01+000022SCOTCV
0182601010999992008010313304+35733-005900FM-15+0021GMTT V0202701N01081004801CN0040001N1+01401+00801999999ADDGA1045+003001999GA2075+004801999GA3025+006901095MA1100611999999MW1611REMMET082METAR GMTT 031330Z 27021KT 4000 -RA SCT010 BKN016 FEW023CB 14/08 Q1006 TEMPO TSRA;EQDQ01+000022SCOTCV
0222601010999992008010313364+35733-005900FM-15+0021GMTT V0202801N01291004801CN0020001N1+01301+00801999999ADDED128U06009GA1045+003001999GA2075+004801999GA3025+006901095MA1100611999999MW1811OC102211REMMET103METAR GMTT 031336Z 28025G43KT 2000 R28/0600VP2000 SHRA SCT010 BKN016 FEW023CB 13/08 Q1006 M2TEMPO TSRA;EQDQ01+000022SCOTCV
0221601010999992008010314004+35733-005900FM-15+0021GMTT V0203001N01181004801CN0020001N1+01101+00901999999ADDED128U06009GA1045+003001999GA2075+004801999GA3025+006901095MA1100611999999MW1801OC101951REMMET102METAR GMTT 031400Z 30023G38KT 2000 R28/0600V1000U -SHRA SCT010 BKN016 FEW023CB 11/09 Q1006 TEMPO TSRA;EQDQ01+000022SCOTCV
0149601010999992008010314164+35733-005900FM-15+0021GMTT V0202801N00671004801CN0060001N1+01201+00901999999ADDGA1075+004801999GA2025+006901095MA1100611999999REMMET071METAR GMTT 031416Z 28013KT 6000 BKN016 FEW023CB 12/09 Q1006 TEMPO TSRA;EQDQ01+000022SCOTCV
0149601010999992008010314304+35733-005900FM-15+0021GMTT V0202801N00671004801CN0060001N1+01201+01001999999ADDGA1075+004801999GA2025+006901095MA1100611999999REMMET071METAR GMTT 031430Z 28013KT 6000 BKN016 FEW023CB 12/10 Q1006 TEMPO TSRA;EQDQ01+000022SCOTCV
0280601010999992008010315004+35733-005900SY-MT+0021GMTT V0202801N01131004801CN0060001N1+01351+00781100601ADDAY181031AY281031GA1075+004801999GA2025+006901095GF107991071091004501999999MA1100611999999MD1510121+9999MW1011REMSYN082AAXX  03154 60101 41456 72822 10135 20078 40060 55012 70188 879// 333 87816 81923;MET071METAR GMTT 031500Z 28023KT 6000 BKN016 FEW023CB 14/08 Q1006 TEMPO TSRA;
0149601010999992008010315304+35733-005900FM-15+0021GMTT V0202801N00981004801CN0060001N1+01401+00701999999ADDGA1075+004801999GA2025+006901095MA1100511999999REMMET071METAR GMTT 031530Z 28019KT 6000 BKN016 FEW023CB 14/07 Q1005 TEMPO TSRA;EQDQ01+000022SCOTCV
0149601010999992008010316004+35733-005900FM-15+0021GMTT V0202801N01131004801CN0060001N1+01401+00801999999ADDGA1075+004801999GA2025+006901095MA1100511999999REMMET071METAR GMTT 031600Z 28022KT 6000 BKN016 FEW023CB 14/08 Q1005 TEMPO TSRA;EQDQ01+000022SCOTCV
0149601010999992008010316304+35733-005900FM-15+0021GMTT V0202901N01291004801CN0060001N1+01401+00701999999ADDGA1075+004801999GA2025+006901095MA1100511999999REMMET071METAR GMTT 031630Z 29025KT 6000 BKN016 FEW023CB 14/07 Q1005 TEMPO TSRA;EQDQ01+000022SCOTCV
0149601010999992008010317004+35733-005900FM-15+0021GMTT V0202801N00871004801CN0060001N1+01301+00701999999ADDGA1075+004801999GA2025+006901095MA1100511999999REMMET071METAR GMTT 031700Z 28017KT 6000 BKN016 FEW023CB 13/07 Q1005 TEMPO TSRA;EQDQ01+000022SCOTCV
0149601010999992008010317304+35733-005900FM-15+0021GMTT V0202701N00871004801CN0060001N1+01301+00701999999ADDGA1075+004801999GA2025+006901095MA1100611999999REMMET071METAR GMTT 031730Z 27017KT 6000 BKN016 FEW023CB 13/07 Q1006 TEMPO TSRA;EQDQ01+000022SCOTCV
0316601010999992008010318004+35733-005900SY-MT+0021GMTT V0202801N01031004801CN0060001N1+01361+00711100611ADDAA112007191AY181061AY281061GA1085+004801999GA2025+006901095GF108991081091004501999999KA1120M+01671MA1100611999999MD1510001+9999MW1031REMSYN094AAXX  03184 60101 11456 82820 10136 20071 40061 55000 60072 70388 889// 333 10167 88816 81923;MET071METAR GMTT 031800Z 28020KT 6000 OVC016 FEW023CB 14/07 Q1006 TEMPO TSRA;
0186601010999992008010318304+35733-005900FM-15+0021GMTT V0202801N00871004801CN0040001N1+01301+00801999999ADDED128U09009GA1085+004801999GA2025+006901095MA1100611999999OC101491REMMET089METAR GMTT 031830Z 28017G29KT 4000 R28/0900V1600U OVC016 FEW023CB 13/08 Q1006 TEMPO TSRA;EQDQ01+000022SCOTCV
0159601010999992008010319004+35733-005900FM-15+0021GMTT V0202801N01231004801CN0040001N1+01301+00701999999ADDGA1085+004801999GA2025+006901095MA1100611999999MW1611REMMET075METAR GMTT 031900Z 28024KT 4000 -RA OVC016 FEW023CB 13/07 Q1006 TEMPO TSRA;EQDQ01+000022SCOTCV
0149601010999992008010319304+35733-005900FM-15+0021GMTT V0202701N01081004801CN0060001N1+01401+00801999999ADDGA1085+004801999GA2025+006901095MA1100611999999REMMET071METAR GMTT 031930Z 27021KT 6000 OVC016 FEW023CB 14/08 Q1006 TEMPO TSRA;EQDQ01+000022SCOTCV
0149601010999992008010320004+35733-005900FM-15+0021GMTT V0202701N00931004801CN0060001N1+01301+00801999999ADDGA1085+004801999GA2025+006901095MA1100611999999REMMET071METAR GMTT 032000Z 27018KT 6000 OVC016 FEW023CB 13/08 Q1006 TEMPO TSRA;EQDQ01+000022SCOTCV
0149601010999992008010320304+35733-005900FM-15+0021GMTT V0202701N01081004801CN0060001N1+01301+00701999999ADDGA1085+004801999GA2025+006901095MA1100711999999REMMET071METAR GMTT 032030Z 27021KT 6000 OVC016 FEW023CB 13/07 Q1007 TEMPO TSRA;EQDQ01+000022SCOTCV
0280601010999992008010321004+35733-005900SY-MT+0021GMTT V0202801N00931004801CN0060001N1+01321+00661100731ADDAY181031AY281031GA1085+004801999GA2025+006901095GF108991081091004501999999MA1100711999999MD1110111+9999MW1131REMSYN082AAXX  03214 60101 41456 82818 10132 20066 40073 51011 71388 889// 333 88816 82923;MET071METAR GMTT 032100Z 28018KT 6000 OVC016 FEW023CB 13/07 Q1007 TEMPO TSRA;
0149601010999992008010321304+35733-005900FM-15+0021GMTT V0202801N00871004801CN0060001N1+01301+00701999999ADDGA1075+004801999GA2025+006901095MA1100711999999REMMET071METAR GMTT 032130Z 28017KT 6000 BKN016 FEW023CB 13/07 Q1007 TEMPO TSRA;EQDQ01+000022SCOTCV
0223601010999992008010321424+35733-005900FM-15+0021GMTT V0202801N01291004801CN0020001N1+01201+00601999999ADDED128U14009GA1045+003001999GA2075+004801999GA3025+006901095MA1100711999999MW1811OC101951REMMET104METAR GMTT 032142Z 28025G38KT 2000 R28/1400VP2000 SHRA SCT010 BKN016 FEW023CB 12/06 Q1007 M2 TEMPO TSRA;EQDQ01+000022SCOTCV
0220601010999992008010322004+35733-005900FM-15+0021GMTT V0202701N01131004801CN0020001N1+01101+00701999999ADDED128U10009GA1045+003001999GA2075+004801999GA3025+006901095MA1100711999999MW1811OC101951REMMET101METAR GMTT 032200Z 27022G38KT 2000 R28/1000VP2000 SHRA SCT010 BKN016 FEW023CB 11/07 Q1007 TEMPO TSRA;EQDQ01+000022SCOTCV
0184601010999992008010322304+35733-005900FM-15+0021GMTT V0202701N00511004801CN0040001N1+01101+00701999999ADDGA1045+003001999GA2075+004801999GA3025+006901095MA1100711999999MW1801REMMET084METAR GMTT 032230Z 27010KT 4000 -SHRA SCT010 BKN016 FEW023CB 11/07 Q1007 TEMPO TSRA;EQDQ01+000022SCOTCV
0195601010999992008010323004+35733-005900FM-15+0021GMTT V0202701N01181004801CN0030001N1+01101+00701999999ADDGA1045+003001999GA2075+004801999GA3025+006901095MA1100711999999MW1801OC101701REMMET087METAR GMTT 032300Z 27023G33KT 3000 -SHRA SCT010 BKN016 FEW023CB 11/07 Q1007 TEMPO TSRA;EQDQ01+000022SCOTCV
0184601010999992008010323304+35733-005900FM-15+0021GMTT V0202801N00981004801CN0030001N1+01101+00701999999ADDGA1045+003001999GA2075+004801999GA3025+006901095MA1100711999999MW1801REMMET084METAR GMTT 032330Z 28019KT 3000 -SHRA SCT010 BKN016 FEW023CB 11/07 Q1007 TEMPO TSRA;EQDQ01+000022SCOTCV
0338601010999992008010400004+35733-005900SY-MT+0021GMTT V0203101N00411004801CN0030001N1+01091+00761100731ADDAA106002091AY181061AY221061GA1045+003001999GA2075+004801999GA3045+006901095GF108991081091004501999999MA1100711999999MD1510011+9999MW1801REMSYN100AAXX  04004 60101 11430 83108 10109 20076 40073 55001 60021 78082 889// 92351 333 83810 85816 83923;MET084METAR GMTT 040000Z 31009KT 3000 -SHRA SCT010 BKN016 SCT023CB 11/08 Q1007 TEMPO TSRA;
0172601010999992008010401004+35733-005900FM-15+0021GMTT V0202601N00361004801CN0050001N1+01101+00801999999ADDGA1045+003001999GA2075+004801999GA3045+006901095MA1100611999999REMMET078METAR GMTT 040100Z 26007KT 5000 SCT010 BKN016 SCT023CB 11/08 Q1006 TEMPO TSRA;EQDQ01+000042SCOTCV
0172601010999992008010401304+35733-005900FM-15+0021GMTT V0202501N00311004801CN0050001N1+01101+00801999999ADDGA1045+003001999GA2075+004801999GA3045+006901095MA1100611999999REMMET078METAR GMTT 040130Z 25006KT 5000 SCT010 BKN016 SCT023CB 11/08 Q1006 TEMPO TSRA;EQDQ01+000042SCOTCV
0177601010999992008010402004+35733-005900AUTO +0021GMTT V0202701N00571004801CN0050001N1+01201+00901999999ADDGA1041+003001999GA2071+004801999GA3041+006901091MA1100611999999REMMET083METAR GMTT 040200Z AUTO 27011KT 5000 SCT010 BKN016 SCT023CB 12/09 Q1006 TEMPO TSRA;EQDQ01+000042SCOTCV
0177601010999992008010402304+35733-005900AUTO +0021GMTT V0202801N00461004801CN0050001N1+01201+00801999999ADDGA1041+003001999GA2071+004801999GA3041+006901091MA1100611999999REMMET083METAR GMTT 040230Z AUTO 28009KT 5000 SCT010 BKN016 SCT023CB 12/08 Q1006 TEMPO TSRA;EQDQ01+000042SCOTCV
0317601010999992008010403004+35733-005900SY-MT+0021GMTT V0203301N00721004801CN0050001N1+01231+00711100621ADDAZ181031GA1045+003001999GA2075+004801999GA3045+006901095GF108991081091004501999999MA1100611999999MD1510091+9999MW1251OC101231REMSYN088AAXX  04034 60101 44450 83314 10123 20071 40062 55009 72582 889// 333 83810 85816 83923;MET086METAR GMTT 040300Z AUTO 32014G24KT 5000 SCT010 BKN016 SCT023CB 12/07 Q1006 TEMPO TSRA;
0177601010999992008010403304+35733-005900AUTO +0021GMTT V0203201N00671004801CN0050001N1+01201+00801999999ADDGA1041+003001999GA2071+004801999GA3041+006901091MA1100611999999REMMET083METAR GMTT 040330Z AUTO 32013KT 5000 SCT010 BKN016 SCT023CB 12/08 Q1006 TEMPO TSRA;EQDQ01+000042SCOTCV
0177601010999992008010404004+35733-005900AUTO +0021GMTT V0203201N00721004801CN0050001N1+01201+00701999999ADDGA1041+003001999GA2071+004801999GA3041+006901091MA1100611999999REMMET083METAR GMTT 040400Z AUTO 32014KT 5000 SCT010 BKN016 SCT023CB 12/07 Q1006 TEMPO TSRA;EQDQ01+000042SCOTCV
0071601010999992008010404304+35733-005900AUTO +0021GMTT V0203301N006212200019N9999999N1+01201+00701999999ADDMA1100611999999REMMET044METAR GMTT 040430Z AUTO 33012KT 12/07 Q1006;
0071601010999992008010405004+35733-005900AUTO +0021GMTT V0203201N005712200019N9999999N1+01201+00701999999ADDMA1100711999999REMMET044METAR GMTT 040500Z AUTO 32011KT 12/07 Q1007;
0175601010999992008010405304+35733-005900FM-15+0021GMTT V0203201N00511004801CN0060001N1+01201+00701999999ADDGA1045+003001999GA2075+004801999GA3025+006901095MA1100711999999REMMET081METAR GMTT 040530Z 32010KT 280V340 6000 SCT010 BKN016 FEW023CB 12/07 Q1007 NOSIG;EQDQ01+000022SCOTCV
0311601010999992008010406004+35733-005900SY-MT+0021GMTT V0203201N00511004801CN0060001N1+01241+00661100831ADDAA124008991AY181061AY221061GA1075+004801999GA2025+006901095GF107991071091004501999999KA1120N+01061MA1100811999999MD1010211+9999MW1011REMSYN094AAXX  04064 60101 11456 73210 10124 20066 40083 50021 60094 70182 879// 333 20106 86816 81923;MET066METAR GMTT 040600Z 32010KT 6000 BKN016 FEW023CB 12/07 Q1008 NOSIG;
0149601010999992008010406304+35733-005900AUTO +0021GMTT V0203201N00411004801CN0060001N1+01301+00701999999ADDGA1071+004801999GA2021+006901091MA1100811999999REMMET071METAR GMTT 040630Z AUTO 32008KT 6000 BKN016 FEW023CB 13/07 Q1008 NOSIG;EQDQ01+000022SCOTCV
0149601010999992008010407004+35733-005900AUTO +0021GMTT V0203101N00511004801CN0060001N1+01301+00701999999ADDGA1071+004801999GA2021+006901091MA1100911999999REMMET071METAR GMTT 040700Z AUTO 31010KT 6000 BKN016 FEW023CB 13/07 Q1009 NOSIG;EQDQ01+000022SCOTCV
0175601010999992008010407304+35733-005900FM-15+0021GMTT V0203101N00511004801CN0060001N1+01301+00801999999ADDGA1025+003001999GA2075+004801999GA3025+006901095MA1100911999999REMMET081METAR GMTT 040730Z 31010KT 280V340 6000 FEW010 BKN016 FEW023CB 13/08 Q1009 NOSIG;EQDQ01+000022SCOTCV
0167601010999992008010408004+35733-005900FM-15+0021GMTT V0203601N00361004801CN0060001N1+01201+00801999999ADDGA1025+003001999GA2075+004801999GA3025+006901095MA1101021999999REMMET073METAR GMTT 040800Z 36007KT 6000 FEW010 BKN016 FEW023CB 12/08 Q1010 NOSIG;EQDQ01+000022SCOTCV
0159601010999992008010408304+35733-005900FM-15+0021GMTT V0200201N00311004801CN0060001N1+01201+00901999999ADDGA1075+004801999GA2025+006901095MA1101021999999MW1611REMMET075METAR GMTT 040830Z 02006KT 6000 -RA BKN016 FEW023CB 12/09 Q1010 TEMPO SHRA;EQDQ01+000022SCOTCV
0292601010999992008010409004+35733-005900SY-MT+0021GMTT V0203401N00261004801CN0060001N1+01151+00861101111ADDAY121031AY281031GA1075+004801999GA2025+006901095GF108991081091004501999999MA1101081999999MD1110301+9999MW1601REMSYN082AAXX  04094 60101 31456 83405 10115 20086 40111 51030 76028 889// 333 87816 82923;MET083METAR GMTT 040900Z 35004KT 290V010 6000 -RA BKN016 FEW023CB 12/09 Q1011 TEMPO SHRA;
0177601010999992008010409304+35733-005900FM-15+0021GMTT V0203301N00461999999CN0060001N1+01201+00801999999ADDGA1045+003901999GA2075+006005999GF104991999999999999999999MA1101101999999REMMET073METAR GMTT 040930Z 33009KT 6000 SCT013 TCU BKN020 12/08 Q1011 TEMPO SHRA;EQDP01 006003SCOCIG
0149601010999992008010410004+35733-005900FM-15+0021GMTT V0203401N00621006001CN0060001N1+01201+00701999999ADDGA1045+003901999GA2075+006001999GF107991999999999999999999MA1101191999999REMMET064METAR GMTT 041000Z 34012KT 6000 SCT013 BKN020 12/07 Q1012 NOSIG;
0156601010999992008010410304+35733-005900FM-15+0021GMTT V0203501N00461006001CN0060001N1+01301+00901999999ADDGA1045+003901021GA2075+006001999GF107991999999999999999999MA1101191999999REMMET071METAR GMTT 041030Z 35009KT 6000 SCT013TCU BKN020 13/09 Q1012 TEMPO -RA;
0156601010999992008010411004+35733-005900FM-15+0021GMTT V0203501N00411006001CN0060001N1+01201+00801999999ADDGA1045+003901021GA2075+006001999GF107991999999999999999999MA1101191999999REMMET071METAR GMTT 041100Z 35008KT 6000 SCT013TCU BKN020 12/08 Q1012 TEMPO -RA;
0293601010999992008010412004+35733-005900SY-MT+0021GMTT V0203501N00311006001CN0060001N1+01341+00871101311ADDAA106000591AY161061AY221061GA1045+003901021GA2045+006001999GF105991051081004501001001MA1101291999999MD1110191+9999MW1011REMSYN088AAXX  04124 60101 11456 53506 10134 20087 40131 51019 69941 70162 85800 333 83813 84620;MET067METAR GMTT 041200Z 35006KT 6000 SCT013TCU SCT020 13/08 Q1013 NOSIG;
0137601010999992008010412304+35733-005900FM-15+0021GMTT V0203401N003112200019N0112651N1+01401+00901999999ADDGA1045+003901021GF104991999999999999999999MA1101291999999REMMET068METAR GMTT 041230Z 34006KT 300V010 9999 SCT013TCU 14/09 Q1013 NOSIG;
0129601010999992008010413004+35733-005900FM-15+0021GMTT V0203301N004112200019N0112651N1+01401+00801999999ADDGA1045+003901021GF104991999999999999999999MA1101291999999REMMET060METAR GMTT 041300Z 33008KT 9999 SCT013TCU 14/08 Q1013 NOSIG;
0137601010999992008010413304+35733-005900FM-15+0021GMTT V0203401N004112200019N0112651N1+01401+00801999999ADDGA1045+003901021GF104991999999999999999999MA1101291999999REMMET068METAR GMTT 041330Z 34008KT 310V010 9999 SCT013TCU 14/08 Q1013 NOSIG;
0137601010999992008010414004+35733-005900FM-15+0021GMTT V0203401N004112200019N0112651N1+01401+00801999999ADDGA1045+003901021GF104991999999999999999999MA1101291999999REMMET068METAR GMTT 041400Z 34008KT 300V020 9999 SCT013TCU 14/08 Q1013 NOSIG;
0137601010999992008010414304+35733-005900FM-15+0021GMTT V0203301N004112200019N0112651N1+01401+00801999999ADDGA1045+003901021GF104991999999999999999999MA1101391999999REMMET068METAR GMTT 041430Z 33008KT 300V020 9999 SCT013TCU 14/08 Q1014 NOSIG;
0235601010999992008010415004+35733-005900SY-MT+0021GMTT V0203301N004612200019N0100001N1+01441+00761101421ADDGA1045+004801999GF199999031021004501001001MA1101391999999MD1310111+9999REMSYN070AAXX  04154 60101 42460 33309 10144 20076 40142 53011 83200 333 83816;MET057METAR GMTT 041500Z 33009KT 9999 SCT016 14/07 Q1014 NOSIG;EQDQ01+000032SCOTCV
0134601010999992008010415304+35733-005900FM-15+0021GMTT V0203301N005112200019N0112651N1+01401+00701999999ADDGA1045+004801999GF104991999999999999999999MA1101391999999REMMET065METAR GMTT 041530Z 33010KT 290V360 9999 SCT016 14/07 Q1014 NOSIG;
0126601010999992008010416004+35733-005900FM-15+0021GMTT V0203301N004612200019N0112651N1+01401+00701999999ADDGA1045+004801999GF104991999999999999999999MA1101491999999REMMET057METAR GMTT 041600Z 33009KT 9999 SCT016 14/07 Q1015 NOSIG;
0126601010999992008010416304+35733-005900FM-15+0021GMTT V0203301N004112200019N0112651N1+01401+00701999999ADDGA1045+004801999GF104991999999999999999999MA1101491999999REMMET057METAR GMTT 041630Z 33008KT 9999 SCT016 14/07 Q1015 NOSIG;
0134601010999992008010417004+35733-005900FM-15+0021GMTT V0203501N003112200019N0112651N1+01301+00701999999ADDGA1045+004801999GF104991999999999999999999MA1101591999999REMMET065METAR GMTT 041700Z 35006KT 310V020 9999 SCT016 13/07 Q1016 NOSIG;
0168601010999992008010417304+35733-005900FM-15+0021GMTT V0203501N00311999999CN0112651N1+01201+00701999999ADDGA1045+003901999GA2045+004801999GF104991999999999999999999MA1101591999999REMMET064METAR GMTT 041730Z 35006KT 9999 SCT013 SCT016 12/07 Q1016 NOSIG;EQDP01 004803SCOCIG
0289601010999992008010418004+35733-005900SY-MT+0021GMTT V0200101N00211004801CN0100001N1+01161+00611101771ADDAA112000591GA1045+003901999GA2045+004801999GF105991051081004501001001KA1120M+01471MA1101691999999MD1210351+9999REMSYN088AAXX  04184 60101 12460 50104 10116 20061 40177 52035 69942 85800 333 10147 83813 83616;MET072METAR GMTT 041800Z 01004KT 340V050 9999 SCT013 SCT016 12/06 Q1017 NOSIG;
0168601010999992008010418304+35733-005900FM-15+0021GMTT V0203301N00151999999CN0080001N1+01101+00601999999ADDGA1045+003901999GA2045+004801999GF104991999999999999999999MA1101801999999REMMET064METAR GMTT 041830Z 33003KT 8000 SCT013 SCT016 11/06 Q1018 NOSIG;EQDP01 004803SCOCIG
0176601010999992008010419004+35733-005900FM-15+0021GMTT V0203401N00261999999CN0080001N1+01101+00601999999ADDGA1045+003901999GA2045+004801999GF104991999999999999999999MA1101801999999REMMET072METAR GMTT 041900Z 34005KT 310V010 8000 SCT013 SCT016 11/06 Q1018 NOSIG;EQDP01 004803SCOCIG
0126601010999992008010419304+35733-005900FM-15+0021GMTT V0202801N001512200019N0080001N1+01101+00501999999ADDGA1045+004801999GF104991999999999999999999MA1101901999999REMMET057METAR GMTT 041930Z 28003KT 8000 SCT016 11/05 Q1019 NOSIG;
0126601010999992008010420004+35733-005900FM-15+0021GMTT V0200101N001512200019N0080001N1+01001+00601999999ADDGA1045+004801999GF104991999999999999999999MA1101901999999REMMET057METAR GMTT 042000Z 01003KT 8000 SCT016 10/06 Q1019 NOSIG;
0126601010999992008010420304+35733-005900FM-15+0021GMTT V0203401N003112200019N0080001N1+01001+00601999999ADDGA1045+004801999GF104991999999999999999999MA1101901999999REMMET057METAR GMTT 042030Z 34006KT 8000 SCT016 10/06 Q1019 NOSIG;
0216601010999992008010421004+35733-005900SY-MT+0021GMTT V0209999C000012200019N0080001N1+01031+00571102011ADDGA1045+004801999GF199999031051004501001001MA1102001999999MD1110241+9999REMSYN070AAXX  04214 60101 32458 30000 10103 20057 40201 51024 83500 333 83616;MET057METAR GMTT 042100Z 17001KT 8000 SCT016 10/06 Q1020 NOSIG;
0126601010999992008010421304+35733-005900FM-15+0021GMTT V0203301N002112200019N0080001N1+01001+00601999999ADDGA1045+004801999GF104991999999999999999999MA1102001999999REMMET057METAR GMTT 042130Z 33004KT 8000 SCT016 10/06 Q1020 NOSIG;
0126601010999992008010422004+35733-005900FM-15+0021GMTT V0200101N000512200019N0080001N1+00901+00501999999ADDGA1045+004801999GF104991999999999999999999MA1102001999999REMMET057METAR GMTT 042200Z 01001KT 8000 SCT016 09/05 Q1020 NOSIG;
0126601010999992008010422304+35733-005900FM-15+0021GMTT V0200401N001012200019N0080001N1+00801+00501999999ADDGA1045+004801999GF104991999999999999999999MA1102101999999REMMET057METAR GMTT 042230Z 04002KT 8000 SCT016 08/05 Q1021 NOSIG;
0126601010999992008010423004+35733-005900FM-15+0021GMTT V0200401N001012200019N0080001N1+00901+00501999999ADDGA1045+004801999GF104991999999999999999999MA1102101999999REMMET057METAR GMTT 042300Z 04002KT 8000 SCT016 09/05 Q1021 NOSIG;
0126601010999992008010423304+35733-005900FM-15+0021GMTT V0201101N000512200019N0080001N1+00901+00601999999ADDGA1045+004801999GF104991999999999999999999MA1102201999999REMMET057METAR GMTT 042330Z 11001KT 8000 SCT016 09/06 Q1022 NOSIG;
0235601010999992008010500004+35733-005900SY-MT+0021GMTT V0202201N001012200019N0080001N1+01021+00631102251ADDGA1045+004801999GF199999031051004501001001MA1102201999999MD1110241+9999REMSYN070AAXX  05004 60101 32458 32202 10102 20063 40225 51024 83500 333 83616;MET057METAR GMTT 050000Z 19003KT 8000 SCT016 10/06 Q1022 NOSIG;EQDQ01+000032SCOTCV
0131601010999992008010500304+35733-005900AUTO +0021GMTT V0201001N001012200019N0080001N1+01001+00601999999ADDGA1041+004801999GF104991999999999999999999MA1102201999999REMMET062METAR GMTT 050030Z AUTO 10002KT 8000 SCT016 10/06 Q1022 NOSIG;
0139601010999992008010501004+35733-005900AUTO +0021GMTT V0201801N002112200019N0080001N1+00901+00601999999ADDGA1041+004801999GF104991999999999999999999MA1102201999999REMMET070METAR GMTT 050100Z AUTO 18004KT 120V250 8000 SCT016 09/06 Q1022 NOSIG;
0071601010999992008010501304+35733-005900AUTO +0021GMTT V0203201N001012200019N9999999N1+00801+00501999999ADDMA1102201999999REMMET044METAR GMTT 050130Z AUTO 32002KT 08/05 Q1022;
0131601010999992008010502004+35733-005900AUTO +0021GMTT V0200301N001512200019N0080001N1+00701+00401999999ADDGA1041+004801999GF104991999999999999999999MA1102201999999REMMET062METAR GMTT 050200Z AUTO 03003KT 8000 SCT016 07/04 Q1022 NOSIG;
0131601010999992008010502304+35733-005900AUTO +0021GMTT V0200101N001512200019N0080001N1+00601+00401999999ADDGA1041+004801999GF104991999999999999999999MA1102301999999REMMET062METAR GMTT 050230Z AUTO 01003KT 8000 SCT016 06/04 Q1023 NOSIG;
0205601010999992008010503004+35733-005900SY-MT+0021GMTT V0200301N001512200019N0080001N1+00581+00391102311ADDGA1045+004801999GF104991999999999999999999MA1102301999999MD1210071+9999REMSYN054AAXX  05034 60101 36/// /0303 10058 20039 40231 52007;MET062METAR GMTT 050300Z AUTO 03003KT 8000 SCT016 06/04 Q1023 NOSIG;
0071601010999992008010503304+35733-005900AUTO +0021GMTT V0203501N001512200019N9999999N1+00701+00501999999ADDMA1102301999999REMMET044METAR GMTT 050330Z AUTO 35003KT 07/05 Q1023;
0071601010999992008010504004+35733-005900AUTO +0021GMTT V0209999C000012200019N9999999N1+00701+00501999999ADDMA1102301999999REMMET044METAR GMTT 050400Z AUTO 00000KT 07/05 Q1023;
0071601010999992008010504304+35733-005900AUTO +0021GMTT V0200601N001512200019N9999999N1+00701+00401999999ADDMA1102301999999REMMET044METAR GMTT 050430Z AUTO 06003KT 07/04 Q1023;
0132601010999992008010505074+35733-005900FM-15+0021GMTT V0201901N003112200019N0080001N1+01001+00601999999ADDGA1045+004801999GF104991999999999999999999MA1102511999999REMMET063METAR GMTT 0507Z 19006KT 150V220 8000 SCT016 10/06 Q1025 NOSIG;
0126601010999992008010505304+35733-005900FM-15+0021GMTT V0203401N001012200019N0080001N1+00701+00501999999ADDGA1045+004801999GF104991999999999999999999MA1102401999999REMMET057METAR GMTT 050530Z 34002KT 8000 SCT016 07/05 Q1024 NOSIG;
0254601010999992008010506004+35733-005900SY-MT+0021GMTT V0202501N001012200019N0080001N1+00821+00591102461ADDGA1045+004801999GF199999031051004501001001KA1120N+00581MA1102401999999MD1110081+9999REMSYN076AAXX  05064 60101 32458 32502 10082 20059 40246 51008 83500 333 20058 83616;MET057METAR GMTT 050600Z 24002KT 8000 SCT016 08/06 Q1024 NOSIG;EQDQ01+000032SCOTCV
0134601010999992008010506304+35733-005900FM-15+0021GMTT V0202101N002112200019N0080001N1+00901+00601999999ADDGA1045+004801999GF104991999999999999999999MA1102401999999REMMET065METAR GMTT 050630Z 21004KT 080V310 8000 SCT016 09/06 Q1024 NOSIG;
0134601010999992008010507004+35733-005900FM-15+0021GMTT V0201901N003112200019N0080001N1+01001+00601999999ADDGA1045+004801999GF104991999999999999999999MA1102511999999REMMET065METAR GMTT 050700Z 19006KT 150V220 8000 SCT016 10/06 Q1025 NOSIG;
0134601010999992008010507304+35733-005900FM-15+0021GMTT V0202001N002112200019N0080001N1+01001+00601999999ADDGA1045+004801999GF104991999999999999999999MA1102511999999REMMET065METAR GMTT 050730Z 20004KT 130V280 8000 SCT016 10/06 Q1025 NOSIG;
0126601010999992008010508004+35733-005900FM-15+0021GMTT V0201801N00361004801CN0080001N1+01101+00601999999ADDGA1075+004801999GF107991999999999999999999MA1102511999999REMMET057METAR GMTT 050800Z 18007KT 8000 BKN016 11/06 Q1025 NOSIG;
0245601010999992008010509004+35733-005900SY-MT+0021GMTT V0201901N00511030001CN0080001N1+01201+00681102631ADDGA1045+004801999GA2045+030001999GF105991031051004501031001MA1102611999999MD1310171+9999REMSYN076AAXX  05094 60101 32458 51910 10120 20068 40263 53017 83530 333 83616 83360;MET064METAR GMTT 050900Z 19010KT 8000 SCT016 SCT100 12/07 Q1026 NOSIG;
0168601010999992008010510004+35733-005900FM-15+0021GMTT V0201901N00461999999CN0112651N1+01301+00801999999ADDGA1025+004801999GA2045+030001999GF104991999999999999999999MA1102711999999REMMET064METAR GMTT 051000Z 19009KT 9999 FEW016 SCT100 13/08 Q1027 NOSIG;EQDP01 030003SCOCIG
0168601010999992008010510304+35733-005900FM-15+0021GMTT V0201801N00571999999CN0112651N1+01301+00801999999ADDGA1045+004801999GA2045+030001999GF104991999999999999999999MA1102711999999REMMET064METAR GMTT 051030Z 18011KT 9999 SCT016 SCT100 13/08 Q1027 NOSIG;EQDP01 030003SCOCIG
0168601010999992008010511004+35733-005900FM-15+0021GMTT V0201901N00571999999CN0112651N1+01401+00801999999ADDGA1045+004801999GA2045+030001999GF104991999999999999999999MA1102711999999REMMET064METAR GMTT 051100Z 19011KT 9999 SCT016 SCT100 14/08 Q1027 NOSIG;EQDP01 030003SCOCIG
0168601010999992008010511304+35733-005900FM-15+0021GMTT V0202101N00621999999CN0112651N1+01501+00901999999ADDGA1045+004801999GA2045+030001999GF104991999999999999999999MA1102711999999REMMET064METAR GMTT 051130Z 21012KT 9999 SCT016 SCT100 15/09 Q1027 NOSIG;EQDP01 030003SCOCIG
0253601010999992008010512004+35733-005900SY-MT+0021GMTT V0202101N00571030001CN0100001N1+01551+00961102741ADDGA1045+004801999GA2045+030001999GF105991031051004501031001MA1102711999999MD1110101+9999REMSYN076AAXX  05124 60101 32460 52111 10155 20096 40274 51010 83530 333 83616 83360;MET072METAR GMTT 051200Z 21011KT 180V240 9999 SCT016 SCT100 15/09 Q1027 NOSIG;
0142601010999992008010512304+35733-005900FM-15+0021GMTT V0202301N00571004801CN0112651N1+01501+01001999999ADDGA1075+004801999GA2045+030001999MA1102711999999REMMET064METAR GMTT 051230Z 23011KT 9999 BKN016 SCT100 15/10 Q1027 NOSIG;EQDQ01+000042SCOTCV
0134601010999992008010513004+35733-005900FM-15+0021GMTT V0202301N00571004801CN0080001N1+01501+01001999999ADDGA1075+004801999GF107991999999999999999999MA1102611999999REMMET065METAR GMTT 051300Z 23011KT 200V260 8000 BKN016 15/10 Q1026 NOSIG;
0126601010999992008010513304+35733-005900FM-15+0021GMTT V0202201N00511004801CN0080001N1+01501+01001999999ADDGA1075+004801999GF107991999999999999999999MA1102611999999REMMET057METAR GMTT 051330Z 22010KT 8000 BKN016 15/10 Q1026 NOSIG;
0126601010999992008010514004+35733-005900FM-15+0021GMTT V0202201N00571004801CN0080001N1+01501+01001999999ADDGA1075+004801999GF107991999999999999999999MA1102611999999REMMET057METAR GMTT 051400Z 22011KT 8000 BKN016 15/10 Q1026 NOSIG;
0126601010999992008010514304+35733-005900FM-15+0021GMTT V0202301N00511004801CN0080001N1+01601+01101999999ADDGA1075+004801999GF107991999999999999999999MA1102611999999REMMET057METAR GMTT 051430Z 23010KT 8000 BKN016 16/11 Q1026 NOSIG;
0216601010999992008010515004+35733-005900SY-MT+0021GMTT V0202301N00511004801CN0080001N1+01581+01051102661ADDGA1075+004801999GF107991071021004501999999MA1102611999999MD1810081+9999REMSYN070AAXX  05154 60101 32458 72310 10158 20105 40266 58008 872// 333 87816;MET057METAR GMTT 051500Z 23010KT 8000 BKN016 16/11 Q1026 NOSIG;
0131601010999992008010515304+35733-005900AUTO +0021GMTT V0202301N005110048019N0080001N1+01501+01101999999ADDGA1071+004801999GF107991999999999999999999MA1102611999999REMMET062METAR GMTT 051530Z AUTO 23010KT 8000 BKN016 15/11 Q1026 NOSIG;
0126601010999992008010516004+35733-005900FM-15+0021GMTT V0202401N00511004801CN0080001N1+01601+01101999999ADDGA1075+004801999GF107991999999999999999999MA1102611999999REMMET057METAR GMTT 051600Z 24010KT 8000 BKN016 16/11 Q1026 NOSIG;
0131601010999992008010516304+35733-005900AUTO +0021GMTT V0202301N005110048019N0080001N1+01501+01101999999ADDGA1071+004801999GF107991999999999999999999MA1102611999999REMMET062METAR GMTT 051630Z AUTO 23010KT 8000 BKN016 15/11 Q1026 NOSIG;
0131601010999992008010517004+35733-005900AUTO +0021GMTT V0202301N004110048019N0080001N1+01501+01101999999ADDGA1071+004801999GF107991999999999999999999MA1102611999999REMMET062METAR GMTT 051700Z AUTO 23008KT 8000 BKN016 15/11 Q1026 NOSIG;
0131601010999992008010517304+35733-005900AUTO +0021GMTT V0202201N004110048019N0080001N1+01501+01101999999ADDGA1071+004801999GF107991999999999999999999MA1102611999999REMMET062METAR GMTT 051730Z AUTO 22008KT 8000 BKN016 15/11 Q1026 NOSIG;
0254601010999992008010518004+35733-005900SY-MT+0021GMTT V0202801N00151004801CN0080001N1+01321+00951102731ADDGA1075+004801999GF199999051021004501001001KA1120M+01621MA1102711999999MD1310071+9999REMSYN076AAXX  05184 60101 32458 52803 10132 20095 40273 53007 85200 333 10162 85816;MET057METAR GMTT 051800Z 28003KT 8000 BKN016 13/10 Q1027 NOSIG;EQDQ01+000052SCOTCV
0126601010999992008010518304+35733-005900FM-15+0021GMTT V0203001N00211004801CN0080001N1+01201+00901999999ADDGA1075+004801999GF107991999999999999999999MA1102711999999REMMET057METAR GMTT 051830Z 30004KT 8000 BKN016 12/09 Q1027 NOSIG;
0131601010999992008010519004+35733-005900AUTO +0021GMTT V0202801N001010048019N0080001N1+01201+00901999999ADDGA1071+004801999GF107991999999999999999999MA1102811999999REMMET062METAR GMTT 051900Z AUTO 28002KT 8000 BKN016 12/09 Q1028 NOSIG;
0131601010999992008010519304+35733-005900AUTO +0021GMTT V0203101N003110048019N0080001N1+01301+00901999999ADDGA1071+004801999GF107991999999999999999999MA1102811999999REMMET062METAR GMTT 051930Z AUTO 31006KT 8000 BKN016 13/09 Q1028 NOSIG;
0131601010999992008010520004+35733-005900AUTO +0021GMTT V0200301N001010048019N0080001N1+01201+00901999999ADDGA1071+004801999GF107991999999999999999999MA1102811999999REMMET062METAR GMTT 052000Z AUTO 03002KT 8000 BKN016 12/09 Q1028 NOSIG;
0126601010999992008010520304+35733-005900FM-15+0021GMTT V0201101N00211004801CN0080001N1+01201+00901999999ADDGA1075+004801999GF107991999999999999999999MA1102811999999REMMET057METAR GMTT 052030Z 11004KT 8000 BKN016 12/09 Q1028 NOSIG;
0216601010999992008010521004+35733-005900SY-MT+0021GMTT V0201101N00051004801CN0080001N1+01111+00891102871ADDGA1075+004801999GF199999051021004501001001MA1102811999999MD1310141+9999REMSYN070AAXX  05214 60101 32458 51101 10111 20089 40287 53014 85200 333 85816;MET057METAR GMTT 052100Z 11001KT 8000 BKN016 11/09 Q1028 NOSIG;
0126601010999992008010521304+35733-005900FM-15+0021GMTT V0200401N00101004801CN0080001N1+01101+00901999999ADDGA1075+004801999GF107991999999999999999999MA1102911999999REMMET057METAR GMTT 052130Z 04002KT 8000 BKN016 11/09 Q1029 NOSIG;
0126601010999992008010522004+35733-005900FM-15+0021GMTT V0209999C00001004801CN0080001N1+01201+01001999999ADDGA1075+004801999GF107991999999999999999999MA1102911999999REMMET057METAR GMTT 052200Z 00000KT 8000 BKN016 12/10 Q1029 NOSIG;
0126601010999992008010522304+35733-005900FM-15+0021GMTT V0200301N00151004801CN0080001N1+01201+01001999999ADDGA1075+004801999GF107991999999999999999999MA1102911999999REMMET057METAR GMTT 052230Z 03003KT 8000 BKN016 12/10 Q1029 NOSIG;
0126601010999992008010523004+35733-005900FM-15+0021GMTT V0203401N00101004801CN0080001N1+01201+01001999999ADDGA1075+004801999GF107991999999999999999999MA1102911999999REMMET057METAR GMTT 052300Z 34002KT 8000 BKN016 12/10 Q1029 NOSIG;
0235601010999992008010600004+35733-005900SY-MT+0021GMTT V0203401N00101004801CN0080001N1+01201+01011102951ADDGA1075+004801999GF199999051021004501001001MA1102911999999MD1210081+9999REMSYN070AAXX  06004 60101 32458 53402 10120 20101 40295 52008 85200 333 85816;MET057METAR GMTT 060000Z 34002KT 8000 BKN016 12/10 Q1029 NOSIG;EQDQ01+000052SCOTCV
0131601010999992008010600304+35733-005900AUTO +0021GMTT V0209999C000010048019N0080001N1+01201+01001999999ADDGA1071+004801999GF107991999999999999999999MA1102911999999REMMET062METAR GMTT 060030Z AUTO 00000KT 8000 BKN016 12/10 Q1029 NOSIG;
0131601010999992008010601004+35733-005900AUTO +0021GMTT V0202101N001010048019N0080001N1+01301+01001999999ADDGA1071+004801999GF107991999999999999999999MA1102911999999REMMET062METAR GMTT 060100Z AUTO 21002KT 8000 BKN016 13/10 Q1029 NOSIG;
0131601010999992008010601304+35733-005900AUTO +0021GMTT V0209999C000010048019N0080001N1+01301+01001999999ADDGA1071+004801999GF107991999999999999999999MA1102911999999REMMET062METAR GMTT 060130Z AUTO 00000KT 8000 BKN016 13/10 Q1029 NOSIG;
0131601010999992008010602004+35733-005900AUTO +0021GMTT V0200301N001010048019N0080001N1+01301+01101999999ADDGA1071+004801999GF107991999999999999999999MA1102911999999REMMET062METAR GMTT 060200Z AUTO 03002KT 8000 BKN016 13/11 Q1029 NOSIG;
0071601010999992008010602304+35733-005900AUTO +0021GMTT V0209999C000012200019N9999999N1+01301+01101999999ADDMA1102911999999REMMET044METAR GMTT 060230Z AUTO 00000KT 13/11 Q1029;
0145601010999992008010603004+35733-005900SY-MT+0021GMTT V0209999C000019999999N9999999N1+01301+01061102891ADDMA1102911999999MD1810031+9999REMSYN054AAXX  06034 60101 36/// /0000 10130 20106 40289 58003;MET044METAR GMTT 060300Z AUTO 00000KT 13/11 Q1029;
0071601010999992008010603304+35733-005900AUTO +0021GMTT V0209999C000012200019N9999999N1+01301+01101999999ADDMA1102811999999REMMET044METAR GMTT 060330Z AUTO 00000KT 13/11 Q1028;
0071601010999992008010604004+35733-005900AUTO +0021GMTT V0203601N000512200019N9999999N1+01301+01101999999ADDMA1102811999999REMMET044METAR GMTT 060400Z AUTO 36001KT 13/11 Q1028;
0131601010999992008010604304+35733-005900AUTO +0021GMTT V0209999C000010048019N0080001N1+01301+01101999999ADDGA1071+004801999GF107991999999999999999999MA1102811999999REMMET062METAR GMTT 060430Z AUTO 00000KT 8000 BKN016 13/11 Q1028 NOSIG;
0131601010999992008010605004+35733-005900AUTO +0021GMTT V0209999C000010048019N0080001N1+01301+01101999999ADDGA1071+004801999GF107991999999999999999999MA1102811999999REMMET062METAR GMTT 060500Z AUTO 00000KT 8000 BKN016 13/11 Q1028 NOSIG;
0126601010999992008010605304+35733-005900FM-15+0021GMTT V0209999C00001004801CN0080001N1+01301+01101999999ADDGA1075+004801999GF107991999999999999999999MA1102811999999REMMET057METAR GMTT 060530Z 00000KT 8000 BKN016 13/11 Q1028 NOSIG;
0254601010999992008010606004+35733-005900SY-MT+0021GMTT V0201101N00101004801CN0080001N1+01301+01091102821ADDGA1075+004801999GF199999051021004501001001KA1120N+01081MA1102811999999MD1610071+9999REMSYN076AAXX  06064 60101 32458 51102 10130 20109 40282 56007 85200 333 20108 85816;MET057METAR GMTT 060600Z 11002KT 8000 BKN016 13/11 Q1028 NOSIG;EQDQ01+000052SCOTCV
0126601010999992008010607004+35733-005900FM-15+0021GMTT V0209999C00001004801CN0080001N1+01301+01101999999ADDGA1075+004801999GF107991999999999999999999MA1102811999999REMMET057METAR GMTT 060700Z 00000KT 8000 BKN016 13/11 Q1028 NOSIG;
0149601010999992008010607304+35733-005900FM-15+0021GMTT V0209999C00001004801CN0080001N1+01301+01101999999ADDGA1045+003901999GA2075+004801999GF107991999999999999999999MA1102811999999REMMET064METAR GMTT 060730Z 00000KT 8000 SCT013 BKN016 13/11 Q1028 NOSIG;
0149601010999992008010608004+35733-005900FM-15+0021GMTT V0209999C00001004801CN0080001N1+01301+01101999999ADDGA1045+003901999GA2075+004801999GF107991999999999999999999MA1102811999999REMMET064METAR GMTT 060800Z 00000KT 8000 SCT013 BKN016 13/11 Q1028 NOSIG;
0149601010999992008010608304+35733-005900FM-15+0021GMTT V0209999C00001004801CN0080001N1+01301+01101999999ADDGA1045+003001999GA2075+004801999GF107991999999999999999999MA1102911999999REMMET064METAR GMTT 060830Z 00000KT 8000 SCT010 BKN016 13/11 Q1029 NOSIG;
0245601010999992008010609004+35733-005900SY-MT+0021GMTT V0202601N00051004801CN0080001N1+01321+01091102921ADDGA1045+003001999GA2075+004801999GF108991081021004501999999MA1102911999999MD1310101+9999REMSYN076AAXX  06094 60101 32458 82601 10132 20109 40292 53010 882// 333 84710 86816;MET064METAR GMTT 060900Z 26001KT 8000 SCT010 BKN016 13/11 Q1029 NOSIG;
0149601010999992008010609304+35733-005900FM-15+0021GMTT V0202101N00101004801CN0080001N1+01301+01101999999ADDGA1045+003001999GA2075+004801999GF107991999999999999999999MA1102911999999REMMET064METAR GMTT 060930Z 21002KT 8000 SCT010 BKN016 13/11 Q1029 NOSIG;
0149601010999992008010610004+35733-005900FM-15+0021GMTT V0201801N00101004801CN0060001N1+01401+01101999999ADDGA1045+002401999GA2075+004801999GF107991999999999999999999MA1102911999999REMMET064METAR GMTT 061000Z 18002KT 6000 SCT008 BKN016 14/11 Q1029 NOSIG;
0154601010999992008010610304+35733-005900AUTO +0021GMTT V0202001N001010048019N0060001N1+01401+01101999999ADDGA1041+002401999GA2071+004801999GF107991999999999999999999MA1102911999999REMMET069METAR GMTT 061030Z AUTO 20002KT 6000 SCT008 BKN016 14/11 Q1029 NOSIG;
0154601010999992008010611004+35733-005900AUTO +0021GMTT V0202101N001510048019N0060001N1+01401+01101999999ADDGA1041+002401999GA2071+004801999GF107991999999999999999999MA1102911999999REMMET069METAR GMTT 061100Z AUTO 21003KT 6000 SCT008 BKN016 14/11 Q1029 NOSIG;
0159601010999992008010611224+35733-005900FM-15+0021GMTT V0209999C00001001501CN0030001N1+01401+01201999999ADDGA1075+001501999GA2075+004801999GF107991999999999999999999MA1102911999999MW1511REMMET068METAR GMTT 061122Z 00000KT 3000 -DZ BKN005 BKN016 14/12 Q1029 M2/M3;
0159601010999992008010611304+35733-005900FM-15+0021GMTT V0209999C00001001501CN0030001N1+01401+01201999999ADDGA1075+001501999GA2075+004801999GF107991999999999999999999MA1102911999999MW1511REMMET068METAR GMTT 061130Z 00000KT 3000 -DZ BKN005 BKN016 14/12 Q1029 NOSIG;
0294601010999992008010612004+35733-005900SY-MT+0021GMTT V0202301N00051001501CN0030001N1+01381+01181102931ADDAA106000021AY151061AY221061GA1075+001501999GA2075+004801999GF108991081051001501999999MA1102911999999MD1110011+9999MW1501REMSYN088AAXX  06124 60101 11230 82301 10138 20118 40293 51001 69901 75052 885// 333 85705 86616;MET068METAR GMTT 061200Z 24001KT 3000 -DZ BKN005 BKN016 14/12 Q1029 NOSIG;
0159601010999992008010612304+35733-005900FM-15+0021GMTT V0202001N00311001501CN0030001N1+01401+01201999999ADDGA1075+001501999GA2075+004801999GF107991999999999999999999MA1102911999999MW1511REMMET068METAR GMTT 061230Z 20006KT 3000 -DZ BKN005 BKN016 14/12 Q1029 NOSIG;
0164601010999992008010613004+35733-005900AUTO +0021GMTT V0202001N001510015019N0030001N1+01401+01201999999ADDAW1511GA1071+001501999GA2071+004801999GF107991999999999999999999MA1102811999999REMMET073METAR GMTT 061300Z AUTO 20003KT 3000 -DZ BKN005 BKN016 14/12 Q1028 NOSIG;
0164601010999992008010613304+35733-005900AUTO +0021GMTT V0202001N003110015019N0030001N1+01401+01301999999ADDAW1511GA1071+001501999GA2071+004801999GF107991999999999999999999MA1102811999999REMMET073METAR GMTT 061330Z AUTO 20006KT 3000 -DZ BKN005 BKN016 14/13 Q1028 NOSIG;
0149601010999992008010614004+35733-005900FM-15+0021GMTT V0202101N00411004801CN0050001N1+01501+01301999999ADDGA1045+002401999GA2075+004801999GF107991999999999999999999MA1102811999999REMMET064METAR GMTT 061400Z 21008KT 5000 SCT008 BKN016 15/13 Q1028 NOSIG;
0157601010999992008010614304+35733-005900FM-15+0021GMTT V0202201N00311004801CN0050001N1+01501+01301999999ADDGA1045+002401999GA2075+004801999GF107991999999999999999999MA1102711999999REMMET072METAR GMTT 061430Z 22006KT 190V250 5000 SCT008 BKN016 15/13 Q1027 NOSIG;
0273601010999992008010615004+35733-005900SY-MT+0021GMTT V0202101N00311004801CN0050001N1+01471+01291102781ADDAY151031AY221031GA1045+002401999GA2075+004801999GF108991081051002501999999MA1102711999999MD1810201+9999MW1201REMSYN082AAXX  06154 60101 31350 82106 10147 20129 40278 58020 72052 885// 333 84708 86616;MET064METAR GMTT 061500Z 21006KT 5000 SCT008 BKN016 15/13 Q1027 NOSIG;
0149601010999992008010615304+35733-005900FM-15+0021GMTT V0202101N00311004801CN0050001N1+01501+01301999999ADDGA1045+002401999GA2075+004801999GF107991999999999999999999MA1102711999999REMMET064METAR GMTT 061530Z 21006KT 5000 SCT008 BKN016 15/13 Q1027 NOSIG;
0149601010999992008010616004+35733-005900FM-15+0021GMTT V0202101N00261004801CN0050001N1+01501+01301999999ADDGA1045+002401999GA2075+004801999GF107991999999999999999999MA1102711999999REMMET064METAR GMTT 061600Z 21005KT 5000 SCT008 BKN016 15/13 Q1027 NOSIG;
0149601010999992008010616304+35733-005900FM-15+0021GMTT V0202001N00261004801CN0050001N1+01501+01301999999ADDGA1045+002401999GA2075+004801999GF107991999999999999999999MA1102711999999REMMET064METAR GMTT 061630Z 20005KT 5000 SCT008 BKN016 15/13 Q1027 NOSIG;
0149601010999992008010617004+35733-005900FM-15+0021GMTT V0202001N00261004801CN0050001N1+01501+01301999999ADDGA1045+002401999GA2075+004801999GF107991999999999999999999MA1102711999999REMMET064METAR GMTT 061700Z 20005KT 5000 SCT008 BKN016 15/13 Q1027 NOSIG;
0155601010999992008010617214+35733-005900FM-15+0021GMTT V0201901N00261004801CN0030001N1+01401+01301999999ADDGA1045+002401999GA2075+004801999GF107991999999999999999999MA1102711999999MW1101REMMET064METAR GMTT 061721Z 19005KT 3000 BR SCT008 BKN016 14/13 Q1027 M2;
0158601010999992008010617304+35733-005900FM-15+0021GMTT V0201901N00261004801CN0030001N1+01401+01301999999ADDGA1045+002401999GA2075+004801999GF107991999999999999999999MA1102711999999MW1101REMMET067METAR GMTT 061730Z 19005KT 3000 BR SCT008 BKN016 14/13 Q1027 NOSIG;
0312601010999992008010618004+35733-005900SY-MT+0021GMTT V0201901N00211004801CN0030001N1+01441+01271102811ADDAA112000021AY151061AY221061GA1045+002401999GA2075+004801999GF108991081051002501999999KA1120M+01481MA1102811999999MD1510011+9999MW1101REMSYN094AAXX  06184 60101 11330 81904 10144 20127 40281 55001 69902 71052 885// 333 10148 84708 86616;MET067METAR GMTT 061800Z 19003KT 3000 BR SCT008 BKN016 14/13 Q1028 NOSIG;
0158601010999992008010618304+35733-005900FM-15+0021GMTT V0201901N00261004801CN0030001N1+01401+01301999999ADDGA1045+002401999GA2075+004801999GF107991999999999999999999MA1102811999999MW1101REMMET067METAR GMTT 061830Z 19005KT 3000 BR SCT008 BKN016 14/13 Q1028 NOSIG;
0158601010999992008010619004+35733-005900FM-15+0021GMTT V0202801N00051004801CN0030001N1+01401+01301999999ADDGA1045+002401999GA2075+004801999GF107991999999999999999999MA1102811999999MW1101REMMET067METAR GMTT 061900Z 28001KT 3000 BR SCT008 BKN016 14/13 Q1028 NOSIG;
0158601010999992008010619304+35733-005900FM-15+0021GMTT V0202001N00261004801CN0030001N1+01501+01301999999ADDGA1045+002401999GA2075+004801999GF107991999999999999999999MA1102811999999MW1101REMMET067METAR GMTT 061930Z 20005KT 3000 BR SCT008 BKN016 15/13 Q1028 NOSIG;
0158601010999992008010620004+35733-005900FM-15+0021GMTT V0202501N00151004801CN0030001N1+01501+01301999999ADDGA1045+002401999GA2075+004801999GF107991999999999999999999MA1102811999999MW1101REMMET067METAR GMTT 062000Z 25003KT 3000 BR SCT008 BKN016 15/13 Q1028 NOSIG;
0158601010999992008010620304+35733-005900FM-15+0021GMTT V0203201N00361004801CN0030001N1+01501+01201999999ADDGA1045+002401999GA2075+004801999GF107991999999999999999999MA1102811999999MW1101REMMET067METAR GMTT 062030Z 32007KT 3000 BR SCT008 BKN016 15/12 Q1028 NOSIG;
0172601010999992008010621004+35733-005900FM-12+0021GMTT V0203101N00311002101CN0030001N1+01511+01201102871ADDAY121031AY221031GA1041+002401071GF108991081051002501999999MD1110071+9999MW1101REMSYN082AAXX  06214 60101 31330 83106 10151 20120 40287 51007 71022 885// 333 84708 86616;
0158601010999992008010621304+35733-005900FM-15+0021GMTT V0203101N00261004801CN0030001N1+01501+01201999999ADDGA1045+002401999GA2075+004801999GF107991999999999999999999MA1102811999999MW1101REMMET067METAR GMTT 062130Z 31005KT 3000 BR SCT008 BKN016 15/12 Q1028 NOSIG;
0146601010999992008010621404+35733-005900FM-15+0021GMTT V0203101N00261004801CN0070001N1+01501+01201999999ADDGA1025+002401999GA2075+004801999GF107991999999999999999999MA1102811999999REMMET061METAR GMTT 062140Z 31005KT 7000 FEW008 BKN016 15/12 Q1028 B2;
0149601010999992008010622004+35733-005900FM-15+0021GMTT V0203101N00211004801CN0070001N1+01401+01101999999ADDGA1025+002401999GA2075+004801999GF107991999999999999999999MA1102811999999REMMET064METAR GMTT 062200Z 31004KT 7000 FEW008 BKN016 14/11 Q1028 NOSIG;
0126601010999992008010623004+35733-005900FM-15+0021GMTT V0209999C000012200019N0070001N1+01101+00901999999ADDGA1045+004801999GF104991999999999999999999MA1102811999999REMMET057METAR GMTT 062300Z 00000KT 7000 SCT016 11/09 Q1028 NOSIG;
0131601010999992008010623304+35733-005900AUTO +0021GMTT V0200701N001012200019N0070001N1+01101+01001999999ADDGA1041+004801999GF104991999999999999999999MA1102811999999REMMET062METAR GMTT 062330Z AUTO 07002KT 7000 SCT016 11/10 Q1028 NOSIG;
0216601010999992008010700004+35733-005900SY-MT+0021GMTT V0200501N001012200019N0070001N1+01061+00881102851ADDGA1045+004801999GF104991041051004501001001MA1102811999999MD1010021+9999REMSYN070AAXX  07004 60101 32457 40502 10106 20088 40285 50002 84500 333 84616;MET057METAR GMTT 070000Z 05002KT 7000 SCT016 11/09 Q1028 NOSIG;
0131601010999992008010700304+35733-005900AUTO +0021GMTT V0209999C000012200019N0070001N1+01001+00801999999ADDGA1041+004801999GF104991999999999999999999MA1102811999999REMMET062METAR GMTT 070030Z AUTO 00000KT 7000 SCT016 10/08 Q1028 NOSIG;
0131601010999992008010701004+35733-005900AUTO +0021GMTT V0200801N000512200019N0070001N1+01001+00801999999ADDGA1041+004801999GF104991999999999999999999MA1102811999999REMMET062METAR GMTT 070100Z AUTO 08001KT 7000 SCT016 10/08 Q1028 NOSIG;
0131601010999992008010701304+35733-005900AUTO +0021GMTT V0209999C000012200019N0070001N1+00901+00801999999ADDGA1041+004801999GF104991999999999999999999MA1102811999999REMMET062METAR GMTT 070130Z AUTO 00000KT 7000 SCT016 09/08 Q1028 NOSIG;
0071601010999992008010702004+35733-005900AUTO +0021GMTT V0209999C000012200019N9999999N1+00901+00801999999ADDMA1102811999999REMMET044METAR GMTT 070200Z AUTO 00000KT 09/08 Q1028;
0071601010999992008010702304+35733-005900AUTO +0021GMTT V0209999C000012200019N9999999N1+01001+00901999999ADDMA1102811999999REMMET044METAR GMTT 070230Z AUTO 00000KT 10/09 Q1028;
0145601010999992008010703004+35733-005900SY-MT+0021GMTT V0201101N001019999999N9999999N1+00921+00791102781ADDMA1102711999999MD1810051+9999REMSYN054AAXX  07034 60101 36/// /1102 10092 20079 40278 58005;MET044METAR GMTT 070300Z AUTO 11001KT 09/08 Q1027;
0071601010999992008010703304+35733-005900AUTO +0021GMTT V0209999C000012200019N9999999N1+00901+00801999999ADDMA1102711999999REMMET044METAR GMTT 070330Z AUTO 00000KT 09/08 Q1027;
0071601010999992008010704004+35733-005900AUTO +0021GMTT V0209999C000012200019N9999999N1+00901+00801999999ADDMA1102711999999REMMET044METAR GMTT 070400Z AUTO 00000KT 09/08 Q1027;
0071601010999992008010704304+35733-005900AUTO +0021GMTT V0203101N004112200019N9999999N1+01301+01101999999ADDMA1102711999999REMMET044METAR GMTT 070430Z AUTO 31008KT 13/11 Q1027;
0126601010999992008010705004+35733-005900FM-15+0021GMTT V0203101N004112200019N0070001N1+01401+01101999999ADDGA1045+004801999GF104991999999999999999999MA1102711999999REMMET057METAR GMTT 070500Z 31008KT 7000 SCT016 14/11 Q1027 NOSIG;
0131601010999992008010705304+35733-005900AUTO +0021GMTT V0203101N004112200019N0070001N1+01401+01101999999ADDGA1041+004801999GF104991999999999999999999MA1102711999999REMMET062METAR GMTT 070530Z AUTO 31008KT 7000 SCT016 14/11 Q1027 NOSIG;
0235601010999992008010706004+35733-005900SY-MT+0021GMTT V0203101N004612200019N0080001N1+01401+01061102791ADDGA1025+004801999GF102991021051004501001001KA1120N+00871MA1102711999999MD1610051+9999REMSYN076AAXX  07064 60101 32458 23109 10140 20106 40279 56005 82500 333 20087 82616;MET057METAR GMTT 070600Z 31009KT 8000 FEW016 14/11 Q1027 NOSIG;
0131601010999992008010706304+35733-005900AUTO +0021GMTT V0203301N003112200019N0080001N1+01401+01001999999ADDGA1021+004801999GF102991999999999999999999MA1102811999999REMMET062METAR GMTT 070630Z AUTO 33006KT 8000 FEW016 14/10 Q1028 NOSIG;
0139601010999992008010707004+35733-005900AUTO +0021GMTT V0203301N003612200019N0080001N1+01301+01001999999ADDGA1021+004801999GF102991999999999999999999MA1102811999999REMMET070METAR GMTT 070700Z AUTO 33007KT 310V010 8000 FEW016 13/10 Q1028 NOSIG;
0131601010999992008010707304+35733-005900AUTO +0021GMTT V0203501N003110048019N0080001N1+01401+01001999999ADDGA1071+004801999GF107991999999999999999999MA1102811999999REMMET062METAR GMTT 070730Z AUTO 35006KT 8000 BKN016 14/10 Q1028 NOSIG;
0126601010999992008010708004+35733-005900FM-15+0021GMTT V0203501N00361004801CN0080001N1+01401+01001999999ADDGA1075+004801999GF107991999999999999999999MA1102811999999REMMET057METAR GMTT 070800Z 35007KT 8000 BKN016 14/10 Q1028 NOSIG;
0126601010999992008010708304+35733-005900FM-15+0021GMTT V0200301N00101004801CN0080001N1+01301+01001999999ADDGA1075+004801999GF107991999999999999999999MA1102811999999REMMET057METAR GMTT 070830Z 03002KT 8000 BKN016 13/10 Q1028 NOSIG;
0216601010999992008010709004+35733-005900SY-MT+0021GMTT V0203501N00151004801CN0080001N1+01341+01051102871ADDGA1075+004801999GF107991071051004501999999MA1102811999999MD1110081+9999REMSYN070AAXX  07094 60101 32458 73503 10134 20105 40287 51008 875// 333 85616;MET057METAR GMTT 070900Z 35003KT 8000 BKN016 13/11 Q1028 NOSIG;
0131601010999992008010709304+35733-005900AUTO +0021GMTT V0203501N002110048019N0080001N1+01501+01101999999ADDGA1071+004801999GF107991999999999999999999MA1102911999999REMMET062METAR GMTT 070930Z AUTO 35004KT 8000 BKN016 15/11 Q1029 NOSIG;
0139601010999992008010710004+35733-005900AUTO +0021GMTT V0203401N002610048019N0080001N1+01601+01201999999ADDGA1071+004801999GF107991999999999999999999MA1102911999999REMMET070METAR GMTT 071000Z AUTO 34005KT 310V010 8000 BKN016 16/12 Q1029 NOSIG;
0134601010999992008010711004+35733-005900FM-15+0021GMTT V0203501N00211004801CN0080001N1+01601+01101999999ADDGA1075+004801999GF107991999999999999999999MA1102911999999REMMET065METAR GMTT 071100Z 35004KT 310V010 8000 BKN016 16/11 Q1029 NOSIG;
0139601010999992008010711304+35733-005900AUTO +0021GMTT V0203301N003110048019N0080001N1+01701+01101999999ADDGA1071+004801999GF107991999999999999999999MA1102911999999REMMET070METAR GMTT 071130Z AUTO 33006KT 290V360 8000 BKN016 17/11 Q1029 NOSIG;
0245601010999992008010712004+35733-005900SY-MT+0021GMTT V0203201N00311060001CN0080001N1+01691+01161102871ADDGA1045+004801999GA2045+060001999GF106991031051004501001021MA1102811999999MD1110101+9999REMSYN076AAXX  07124 60101 32458 63206 10169 20116 40287 51010 83502 333 83616 83070;MET064METAR GMTT 071200Z 32006KT 8000 SCT016 SCT200 17/12 Q1028 NOSIG;
0176601010999992008010712304+35733-005900FM-15+0021GMTT V0203201N00361999999CN0080001N1+01701+01101999999ADDGA1045+004801999GA2045+060001999GF104991999999999999999999MA1102811999999REMMET072METAR GMTT 071230Z 32007KT 270V350 8000 SCT016 SCT200 17/11 Q1028 NOSIG;EQDP01 060003SCOCIG
0176601010999992008010713004+35733-005900FM-15+0021GMTT V0203001N00311999999CN0080001N1+01701+01101999999ADDGA1045+004801999GA2045+060001999GF104991999999999999999999MA1102711999999REMMET072METAR GMTT 071300Z 30006KT 270V330 8000 SCT016 SCT200 17/11 Q1027 NOSIG;EQDP01 060003SCOCIG
0176601010999992008010713304+35733-005900FM-15+0021GMTT V0203001N00411999999CN0080001N1+01701+01101999999ADDGA1045+004801999GA2045+060001999GF104991999999999999999999MA1102711999999REMMET072METAR GMTT 071330Z 30008KT 270V350 8000 SCT016 SCT200 17/11 Q1027 NOSIG;EQDP01 060003SCOCIG
0176601010999992008010714304+35733-005900FM-15+0021GMTT V0203001N00461999999CN0080001N1+01701+01101999999ADDGA1045+004801999GA2045+060001999GF104991999999999999999999MA1102611999999REMMET072METAR GMTT 071430Z 30009KT 270V330 8000 SCT016 SCT200 17/11 Q1026 NOSIG;EQDP01 060003SCOCIG
0264601010999992008010715004+35733-005900SY-MT+0021GMTT V0203001N00461004801CN0080001N1+01601+01061102661ADDGA1075+004801999GA2045+060001999GF199999051021004501001021MA1102611999999MD1810211+9999REMSYN076AAXX  07154 60101 32458 63009 10160 20106 40266 58021 85202 333 85816 83070;MET064METAR GMTT 071500Z 30009KT 8000 BKN016 SCT200 16/11 Q1026 NOSIG;EQDQ01+000062SCOTCV
0142601010999992008010716004+35733-005900FM-15+0021GMTT V0203101N00361004801CN0080001N1+01601+01101999999ADDGA1075+004801999GA2045+060001999MA1102611999999REMMET064METAR GMTT 071600Z 31007KT 8000 BKN016 SCT200 16/11 Q1026 NOSIG;EQDQ01+000042SCOTCV
0150601010999992008010717004+35733-005900FM-15+0021GMTT V0203201N00261004801CN0080001N1+01501+01101999999ADDGA1075+004801999GA2045+060001999MA1102611999999REMMET072METAR GMTT 071700Z 32005KT 280V340 8000 BKN016 SCT200 15/11 Q1026 NOSIG;EQDQ01+000042SCOTCV
0142601010999992008010717304+35733-005900FM-15+0021GMTT V0203101N00211004801CN0080001N1+01501+01001999999ADDGA1075+004801999GA2045+060001999MA1102611999999REMMET064METAR GMTT 071730Z 31004KT 8000 BKN016 SCT200 15/10 Q1026 NOSIG;EQDQ01+000042SCOTCV
0283601010999992008010718004+35733-005900SY-MT+0021GMTT V0203201N00151004801CN0080001N1+01431+01021102631ADDGA1075+004801999GA2045+060001999GF199999051021004501001021KA1120M+01711MA1102611999999MD1510031+9999REMSYN082AAXX  07184 60101 32458 63203 10143 20102 40263 55003 85202 333 10171 85816 83070;MET064METAR GMTT 071800Z 32003KT 8000 BKN016 SCT200 14/10 Q1026 NOSIG;EQDQ01+000062SCOTCV
0142601010999992008010718304+35733-005900FM-15+0021GMTT V0203201N00151004801CN0080001N1+01401+01001999999ADDGA1075+004801999GA2045+060001999MA1102611999999REMMET064METAR GMTT 071830Z 32003KT 8000 BKN016 SCT200 14/10 Q1026 NOSIG;EQDQ01+000042SCOTCV
0142601010999992008010719004+35733-005900FM-15+0021GMTT V0203301N00101004801CN0080001N1+01301+01001999999ADDGA1075+004801999GA2045+060001999MA1102611999999REMMET064METAR GMTT 071900Z 33002KT 8000 BKN016 SCT200 13/10 Q1026 NOSIG;EQDQ01+000042SCOTCV
0126601010999992008010720004+35733-005900FM-15+0021GMTT V0200501N001012200019N0080001N1+01101+00901999999ADDGA1045+004801999GF104991999999999999999999MA1102611999999REMMET057METAR GMTT 072000Z 05002KT 8000 SCT016 11/09 Q1026 NOSIG;
0126601010999992008010720304+35733-005900FM-15+0021GMTT V0200901N001012200019N0080001N1+01001+00801999999ADDGA1045+004801999GF104991999999999999999999MA1102611999999REMMET057METAR GMTT 072030Z 09002KT 8000 SCT016 10/08 Q1026 NOSIG;
0235601010999992008010721004+35733-005900SY-MT+0021GMTT V0200901N001512200019N0080001N1+00981+00761102621ADDGA1045+004801999GF199999031051004501001001MA1102611999999MD1810011+9999REMSYN070AAXX  07214 60101 32458 30903 10098 20076 40262 58001 83500 333 83816;MET057METAR GMTT 072100Z 09003KT 8000 SCT016 10/08 Q1026 NOSIG;EQDQ01+000032SCOTCV
0126601010999992008010721304+35733-005900FM-15+0021GMTT V0200701N001012200019N0080001N1+01001+00801999999ADDGA1045+004801999GF104991999999999999999999MA1102611999999REMMET057METAR GMTT 072130Z 07002KT 8000 SCT016 10/08 Q1026 NOSIG;
0126601010999992008010722004+35733-005900FM-15+0021GMTT V0200401N000512200019N0080001N1+00901+00701999999ADDGA1045+004801999GF104991999999999999999999MA1102611999999REMMET057METAR GMTT 072200Z 04001KT 8000 SCT016 09/07 Q1026 NOSIG;
0126601010999992008010723004+35733-005900FM-15+0021GMTT V0200501N001512200019N0080001N1+00901+00801999999ADDGA1045+004801999GF104991999999999999999999MA1102511999999REMMET057METAR GMTT 072300Z 05003KT 8000 SCT016 09/08 Q1025 NOSIG;
0131601010999992008010723304+35733-005900AUTO +0021GMTT V0200701N001012200019N0080001N1+01001+00801999999ADDGA1041+004801999GF104991999999999999999999MA1102511999999REMMET062METAR GMTT 072330Z AUTO 07002KT 8000 SCT016 10/08 Q1025 NOSIG;
0246601010999992008010800004+35733-005900SY-MT+0021GMTT V0200901N001512200019N0080001N1+01081+00931102571ADDGA1045+004801999GF199999031051004501001001MA1102511999999MD1610061+9999REMSYN076AAXX  08004 60101 32458 30903 10108 20093 40257 56006 83500 92353 333 83816;MET062METAR GMTT 080000Z AUTO 09003KT 8000 SCT016 11/09 Q1025 NOSIG;EQDQ01+000032SCOTCV
0131601010999992008010800304+35733-005900AUTO +0021GMTT V0200701N001012200019N0080001N1+01101+01001999999ADDGA1041+004801999GF104991999999999999999999MA1102511999999REMMET062METAR GMTT 080030Z AUTO 07002KT 8000 SCT016 11/10 Q1025 NOSIG;
0131601010999992008010801004+35733-005900AUTO +0021GMTT V0200801N001012200019N0080001N1+01101+01001999999ADDGA1041+004801999GF104991999999999999999999MA1102511999999REMMET062METAR GMTT 080100Z AUTO 08002KT 8000 SCT016 11/10 Q1025 NOSIG;
0071601010999992008010801304+35733-005900AUTO +0021GMTT V0201001N002112200019N9999999N1+01201+01001999999ADDMA1102401999999REMMET044METAR GMTT 080130Z AUTO 10004KT 12/10 Q1024;
0071601010999992008010802004+35733-005900AUTO +0021GMTT V0200701N001012200019N9999999N1+01101+01001999999ADDMA1102401999999REMMET044METAR GMTT 080200Z AUTO 07002KT 11/10 Q1024;
0071601010999992008010802304+35733-005900AUTO +0021GMTT V0200901N003112200019N9999999N1+01101+00901999999ADDMA1102401999999REMMET044METAR GMTT 080230Z AUTO 09006KT 11/09 Q1024;
0145601010999992008010803004+35733-005900SY-MT+0021GMTT V0209999C000019999999N9999999N1+01021+00841102431ADDMA1102401999999MD1810121+9999REMSYN054AAXX  08034 60101 36/// /0000 10102 20084 40243 58012;MET044METAR GMTT 080300Z AUTO 00000KT 10/08 Q1024;
0071601010999992008010803304+35733-005900AUTO +0021GMTT V0200901N001512200019N9999999N1+00901+00801999999ADDMA1102401999999REMMET044METAR GMTT 080330Z AUTO 09003KT 09/08 Q1024;
0131601010999992008010804004+35733-005900AUTO +0021GMTT V0201101N002112200019N0080001N1+00901+00801999999ADDGA1041+004801999GF104991999999999999999999MA1102301999999REMMET062METAR GMTT 080400Z AUTO 11004KT 8000 SCT016 09/08 Q1023 NOSIG;
0131601010999992008010804304+35733-005900AUTO +0021GMTT V0200701N001012200019N0080001N1+01001+00801999999ADDGA1041+004801999GF104991999999999999999999MA1102301999999REMMET062METAR GMTT 080430Z AUTO 07002KT 8000 SCT016 10/08 Q1023 NOSIG;
0131601010999992008010805004+35733-005900AUTO +0021GMTT V0209999C000012200019N0080001N1+00901+00701999999ADDGA1041+004801999GF104991999999999999999999MA1102301999999REMMET062METAR GMTT 080500Z AUTO 00000KT 8000 SCT016 09/07 Q1023 NOSIG;
0131601010999992008010805304+35733-005900AUTO +0021GMTT V0209999C000012200019N0080001N1+00901+00801999999ADDGA1041+004801999GF104991999999999999999999MA1102301999999REMMET062METAR GMTT 080530Z AUTO 00000KT 8000 SCT016 09/08 Q1023 NOSIG;
0168601010999992008010806004+35733-005900SY-MT+0021GMTT V0201101N001019999999N9999999N1+00871+00721102381ADDKA1999N+00881MA1102301999999MD1610111+9999REMSYN064AAXX  08064 60101 36/// /1102 10087 20072 40238 56011 333 20088;MET044METAR GMTT 080600Z AUTO 11002KT 09/07 Q1023;
0071601010999992008010806304+35733-005900AUTO +0021GMTT V0209999C000012200019N9999999N1+00901+00701999999ADDMA1102301999999REMMET044METAR GMTT 080630Z AUTO 00000KT 09/07 Q1023;
0126601010999992008010807004+35733-005900FM-15+0021GMTT V0200801N001512200019N0080001N1+00901+00701999999ADDGA1045+004801999GF104991999999999999999999MA1102401999999REMMET057METAR GMTT 080700Z 08003KT 8000 SCT016 09/07 Q1024 NOSIG;
0131601010999992008010807304+35733-005900AUTO +0021GMTT V0200601N001512200019N0080001N1+00901+00701999999ADDGA1041+004801999GF104991999999999999999999MA1102401999999REMMET062METAR GMTT 080730Z AUTO 06003KT 8000 SCT016 09/07 Q1024 NOSIG;
0131601010999992008010808004+35733-005900AUTO +0021GMTT V0201001N003112200019N0080001N1+00901+00801999999ADDGA1041+004801999GF104991999999999999999999MA1102401999999REMMET062METAR GMTT 080800Z AUTO 10006KT 8000 SCT016 09/08 Q1024 NOSIG;
0149601010999992008010808304+35733-005900FM-15+0021GMTT V0200901N00261060001CN0080001N1+01001+00801999999ADDGA1045+004801999GA2075+060001999GF107991999999999999999999MA1102401999999REMMET064METAR GMTT 080830Z 09005KT 8000 SCT016 BKN200 10/08 Q1024 NOSIG;
0245601010999992008010809004+35733-005900SY-MT+0021GMTT V0200901N00261060001CN0080001N1+01091+00891102451ADDGA1045+004801999GA2075+060001999GF107991031021004501001021MA1102401999999MD1210071+9999REMSYN076AAXX  08094 60101 32458 70905 10109 20089 40245 52007 83202 333 83816 86070;MET064METAR GMTT 080900Z 09005KT 8000 SCT016 BKN200 11/09 Q1024 NOSIG;
0149601010999992008010809304+35733-005900FM-15+0021GMTT V0200901N00261060001CN0080001N1+01201+01001999999ADDGA1045+004801999GA2075+060001999GF107991999999999999999999MA1102401999999REMMET064METAR GMTT 080930Z 09005KT 8000 SCT016 BKN200 12/10 Q1024 NOSIG;
0149601010999992008010810004+35733-005900FM-15+0021GMTT V0201001N00211060001CN0080001N1+01301+01001999999ADDGA1045+004801999GA2075+060001999GF107991999999999999999999MA1102511999999REMMET064METAR GMTT 081000Z 10004KT 8000 SCT016 BKN200 13/10 Q1025 NOSIG;
0149601010999992008010810304+35733-005900FM-15+0021GMTT V0201701N00101060001CN0080001N1+01401+01001999999ADDGA1045+004801999GA2075+060001999GF107991999999999999999999MA1102511999999REMMET064METAR GMTT 081030Z 17002KT 8000 SCT016 BKN200 14/10 Q1025 NOSIG;
0157601010999992008010811004+35733-005900FM-15+0021GMTT V0201901N00211060001CN0080001N1+01601+01101999999ADDGA1045+004801999GA2075+060001999GF107991999999999999999999MA1102511999999REMMET072METAR GMTT 081100Z 19004KT 150V240 8000 SCT016 BKN200 16/11 Q1025 NOSIG;
0149601010999992008010811304+35733-005900FM-15+0021GMTT V0201901N00261004801CN0080001N1+01601+01101999999ADDGA1075+004801999GA2075+060001999GF107991999999999999999999MA1102401999999REMMET064METAR GMTT 081130Z 19005KT 8000 BKN016 BKN200 16/11 Q1024 NOSIG;
0224601010999992008010812004+35733-005900SY-MT+0021GMTT V0202101N00311004801CN0080001N1+01561+01081102441ADDGA1075+004801999GF107991071021004501999999MA1102401999999MD1810011+9999REMSYN070AAXX  08124 60101 32458 72106 10156 20108 40244 58001 872// 333 87816;MET065METAR GMTT 081200Z 21006KT 180V240 8000 BKN016 16/11 Q1024 NOSIG;
0134601010999992008010812304+35733-005900FM-15+0021GMTT V0202301N00211004801CN0080001N1+01601+01001999999ADDGA1075+004801999GF107991999999999999999999MA1102301999999REMMET065METAR GMTT 081230Z 23004KT 200V280 8000 BKN016 16/10 Q1023 NOSIG;
0126601010999992008010813004+35733-005900FM-15+0021GMTT V0202301N00151004801CN0080001N1+01601+01101999999ADDGA1075+004801999GF107991999999999999999999MA1102301999999REMMET057METAR GMTT 081300Z 23003KT 8000 BKN016 16/11 Q1023 NOSIG;
0126601010999992008010813304+35733-005900FM-15+0021GMTT V0202701N00261004801CN0080001N1+01501+01101999999ADDGA1075+004801999GF107991999999999999999999MA1102301999999REMMET057METAR GMTT 081330Z 27005KT 8000 BKN016 15/11 Q1023 NOSIG;
0126601010999992008010814004+35733-005900FM-15+0021GMTT V0202601N00211004801CN0080001N1+01501+01101999999ADDGA1075+004801999GF107991999999999999999999MA1102301999999REMMET057METAR GMTT 081400Z 26004KT 8000 BKN016 15/11 Q1023 NOSIG;
0126601010999992008010814304+35733-005900FM-15+0021GMTT V0202601N00261004801CN0080001N1+01501+01101999999ADDGA1075+004801999GF107991999999999999999999MA1102201999999REMMET057METAR GMTT 081430Z 26005KT 8000 BKN016 15/11 Q1022 NOSIG;
0216601010999992008010815004+35733-005900SY-MT+0021GMTT V0202501N00261004801CN0080001N1+01511+01101102281ADDGA1075+004801999GF107991071021004501999999MA1102201999999MD1610161+9999REMSYN070AAXX  08154 60101 32458 72505 10151 20110 40228 56016 872// 333 87816;MET057METAR GMTT 081500Z 25005KT 8000 BKN016 15/11 Q1022 NOSIG;
0126601010999992008010815304+35733-005900FM-15+0021GMTT V0202601N00261004801CN0080001N1+01501+01101999999ADDGA1075+004801999GF107991999999999999999999MA1102201999999REMMET057METAR GMTT 081530Z 26005KT 8000 BKN016 15/11 Q1022 NOSIG;
0126601010999992008010816004+35733-005900FM-15+0021GMTT V0202501N00211004801CN0080001N1+01501+01101999999ADDGA1075+004801999GF107991999999999999999999MA1102201999999REMMET057METAR GMTT 081600Z 25004KT 8000 BKN016 15/11 Q1022 NOSIG;
0126601010999992008010816304+35733-005900FM-15+0021GMTT V0202401N00151004801CN0080001N1+01501+01101999999ADDGA1075+004801999GF107991999999999999999999MA1102201999999REMMET057METAR GMTT 081630Z 24003KT 8000 BKN016 15/11 Q1022 NOSIG;
0126601010999992008010817004+35733-005900FM-15+0021GMTT V0202501N00151004801CN0080001N1+01501+01101999999ADDGA1075+004801999GF107991999999999999999999MA1102201999999REMMET057METAR GMTT 081700Z 25003KT 8000 BKN016 15/11 Q1022 NOSIG;
0126601010999992008010817304+35733-005900FM-15+0021GMTT V0202301N00101004801CN0080001N1+01401+01101999999ADDGA1075+004801999GF107991999999999999999999MA1102201999999REMMET057METAR GMTT 081730Z 23002KT 8000 BKN016 14/11 Q1022 NOSIG;
0235601010999992008010818004+35733-005900SY-MT+0021GMTT V0202101N00151004801CN0080001N1+01401+01101102311ADDGA1075+004801999GF107991071021004501999999KA1120M+01571MA1102301999999MD1310031+9999REMSYN076AAXX  08184 60101 32458 72103 10140 20110 40231 53003 872// 333 10157 87816;MET057METAR GMTT 081800Z 21003KT 8000 BKN016 14/11 Q1023 NOSIG;
0126601010999992008010818304+35733-005900FM-15+0021GMTT V0201901N00101004801CN0080001N1+01401+01101999999ADDGA1075+004801999GF107991999999999999999999MA1102301999999REMMET057METAR GMTT 081830Z 19002KT 8000 BKN016 14/11 Q1023 NOSIG;
0126601010999992008010819004+35733-005900FM-15+0021GMTT V0200401N00051004801CN0080001N1+01401+01101999999ADDGA1075+004801999GF107991999999999999999999MA1102301999999REMMET057METAR GMTT 081900Z 04001KT 8000 BKN016 14/11 Q1023 NOSIG;
0126601010999992008010819304+35733-005900FM-15+0021GMTT V0209999C00001004801CN0080001N1+01301+01101999999ADDGA1075+004801999GF107991999999999999999999MA1102301999999REMMET057METAR GMTT 081930Z 00000KT 8000 BKN016 13/11 Q1023 NOSIG;
0126601010999992008010820004+35733-005900FM-15+0021GMTT V0209999C00001004801CN0080001N1+01301+01101999999ADDGA1075+004801999GF107991999999999999999999MA1102301999999REMMET057METAR GMTT 082000Z 00000KT 8000 BKN016 13/11 Q1023 NOSIG;
0126601010999992008010820304+35733-005900FM-15+0021GMTT V0201601N00051004801CN0080001N1+01301+01101999999ADDGA1075+004801999GF107991999999999999999999MA1102301999999REMMET057METAR GMTT 082030Z 16001KT 8000 BKN016 13/11 Q1023 NOSIG;
0216601010999992008010821004+35733-005900SY-MT+0021GMTT V0201001N00101004801CN0080001N1+01291+01061102381ADDGA1075+004801999GF107991071021004501999999MA1102301999999MD1110071+9999REMSYN070AAXX  08214 60101 32458 71002 10129 20106 40238 51007 872// 333 87816;MET057METAR GMTT 082100Z 10002KT 8000 BKN016 13/11 Q1023 NOSIG;
0126601010999992008010821304+35733-005900FM-15+0021GMTT V0201001N00101004801CN0080001N1+01301+01001999999ADDGA1075+004801999GF107991999999999999999999MA1102301999999REMMET057METAR GMTT 082130Z 10002KT 8000 BKN016 13/10 Q1023 NOSIG;
0126601010999992008010822004+35733-005900FM-15+0021GMTT V0201201N00151004801CN0080001N1+01301+01001999999ADDGA1075+004801999GF107991999999999999999999MA1102301999999REMMET057METAR GMTT 082200Z 12003KT 8000 BKN016 13/10 Q1023 NOSIG;
0126601010999992008010822304+35733-005900FM-15+0021GMTT V0201101N00101004801CN0080001N1+01301+01001999999ADDGA1075+004801999GF107991999999999999999999MA1102301999999REMMET057METAR GMTT 082230Z 11002KT 8000 BKN016 13/10 Q1023 NOSIG;
0126601010999992008010823004+35733-005900FM-15+0021GMTT V0200901N00051004801CN0080001N1+01301+01001999999ADDGA1075+004801999GF107991999999999999999999MA1102301999999REMMET057METAR GMTT 082300Z 09001KT 8000 BKN016 13/10 Q1023 NOSIG;
0126601010999992008010823304+35733-005900FM-15+0021GMTT V0201201N00101004801CN0080001N1+01301+01001999999ADDGA1075+004801999GF107991999999999999999999MA1102301999999REMMET057METAR GMTT 082330Z 12002KT 8000 BKN016 13/10 Q1023 NOSIG;
0235601010999992008010900004+35733-005900SY-MT+0021GMTT V0200701N00101004801CN0080001N1+01271+01011102381ADDGA1075+004801999GF199999051021004501001001MA1102301999999MD1510001+9999REMSYN070AAXX  09004 60101 32458 50702 10127 20101 40238 55000 85200 333 85816;MET057METAR GMTT 090000Z 07002KT 8000 BKN016 13/10 Q1023 NOSIG;EQDQ01+000052SCOTCV
0131601010999992008010900304+35733-005900AUTO +0021GMTT V0209999C000010048019N0080001N1+01301+01001999999ADDGA1071+004801999GF107991999999999999999999MA1102301999999REMMET062METAR GMTT 090030Z AUTO 00000KT 8000 BKN016 13/10 Q1023 NOSIG;
0131601010999992008010901004+35733-005900AUTO +0021GMTT V0201401N001010048019N0080001N1+01301+01001999999ADDGA1071+004801999GF107991999999999999999999MA1102301999999REMMET062METAR GMTT 090100Z AUTO 14002KT 8000 BKN016 13/10 Q1023 NOSIG;
0071601010999992008010901304+35733-005900AUTO +0021GMTT V0201801N002112200019N9999999N1+01301+01001999999ADDMA1102301999999REMMET044METAR GMTT 090130Z AUTO 18004KT 13/10 Q1023;
0079601010999992008010902004+35733-005900AUTO +0021GMTT V0201701N002112200019N9999999N1+01401+01001999999ADDMA1102301999999REMMET052METAR GMTT 090200Z AUTO 17004KT 140V200 14/10 Q1023;
0071601010999992008010902304+35733-005900AUTO +0021GMTT V0201801N002112200019N9999999N1+01401+01001999999ADDMA1102301999999REMMET044METAR GMTT 090230Z AUTO 18004KT 14/10 Q1023;
0153601010999992008010903004+35733-005900SY-MT+0021GMTT V0201701N002119999999N9999999N1+01321+00931102301ADDMA1102301999999MD1810061+9999REMSYN054AAXX  09034 60101 36/// /1704 10132 20093 40230 58006;MET052METAR GMTT 090300Z AUTO 17004KT 140V200 13/09 Q1023;
0071601010999992008010903304+35733-005900AUTO +0021GMTT V0201701N001012200019N9999999N1+01201+00901999999ADDMA1102201999999REMMET044METAR GMTT 090330Z AUTO 17002KT 12/09 Q1022;
0131601010999992008010904004+35733-005900AUTO +0021GMTT V0200701N001010048019N0080001N1+01101+00801999999ADDGA1071+004801999GF107991999999999999999999MA1102201999999REMMET062METAR GMTT 090400Z AUTO 07002KT 8000 BKN016 11/08 Q1022 NOSIG;
0131601010999992008010904304+35733-005900AUTO +0021GMTT V0201201N001010048019N0080001N1+01101+00801999999ADDGA1071+004801999GF107991999999999999999999MA1102201999999REMMET062METAR GMTT 090430Z AUTO 12002KT 8000 BKN016 11/08 Q1022 NOSIG;
0071601010999992008010905004+35733-005900AUTO +0021GMTT V0200801N000512200019N9999999N1+01101+00901999999ADDMA1102201999999REMMET044METAR GMTT 090500Z AUTO 08001KT 11/09 Q1022;
0126601010999992008010905304+35733-005900FM-15+0021GMTT V0201001N00151004801CN0080001N1+01201+00901999999ADDGA1075+004801999GF107991999999999999999999MA1102201999999REMMET057METAR GMTT 090530Z 10003KT 8000 BKN016 12/09 Q1022 NOSIG;
0254601010999992008010906004+35733-005900SY-MT+0021GMTT V0201201N00101004801CN0080001N1+01261+00931102291ADDGA1075+004801999GF199999051021004501001001KA1120N+01031MA1102201999999MD1510011+9999REMSYN076AAXX  09064 60101 32458 51202 10126 20093 40229 55001 85200 333 20103 85816;MET057METAR GMTT 090600Z 12002KT 8000 BKN016 13/09 Q1022 NOSIG;EQDQ01+000052SCOTCV
0126601010999992008010906304+35733-005900FM-15+0021GMTT V0209999C00001004801CN0080001N1+01301+00901999999ADDGA1075+004801999GF107991999999999999999999MA1102301999999REMMET057METAR GMTT 090630Z 00000KT 8000 BKN016 13/09 Q1023 NOSIG;
0126601010999992008010907004+35733-005900FM-15+0021GMTT V0201001N00151004801CN0080001N1+01301+00901999999ADDGA1075+004801999GF107991999999999999999999MA1102301999999REMMET057METAR GMTT 090700Z 10003KT 8000 BKN016 13/09 Q1023 NOSIG;
0142601010999992008010907304+35733-005900FM-15+0021GMTT V0201101N00051004801CN0080001N1+01301+00901999999ADDGA1075+004801999GA2045+030001999MA1102301999999REMMET064METAR GMTT 090730Z 11001KT 8000 BKN016 SCT100 13/09 Q1023 NOSIG;EQDQ01+000042SCOTCV
0142601010999992008010908004+35733-005900FM-15+0021GMTT V0201201N00101004801CN0080001N1+01201+00901999999ADDGA1075+004801999GA2045+030001999MA1102301999999REMMET064METAR GMTT 090800Z 12002KT 8000 BKN016 SCT100 12/09 Q1023 NOSIG;EQDQ01+000042SCOTCV
0142601010999992008010908304+35733-005900FM-15+0021GMTT V0201401N00101004801CN0080001N1+01301+01001999999ADDGA1075+004801999GA2045+030001999MA1102301999999REMMET064METAR GMTT 090830Z 14002KT 8000 BKN016 SCT100 13/10 Q1023 NOSIG;EQDQ01+000042SCOTCV
0216601010999992008010909004+35733-005900SY-MT+0021GMTT V0201401N00151004801CN0080001N1+01381+00981102401ADDGA1075+004801999GF107991071021004501999999MA1102401999999MD1310101+9999REMSYN070AAXX  09094 60101 32458 71403 10138 20098 40240 53010 872// 333 87816;MET057METAR GMTT 090900Z 14003KT 8000 BKN016 14/10 Q1024 NOSIG;
0126601010999992008010909304+35733-005900FM-15+0021GMTT V0201601N00211004801CN0080001N1+01401+01001999999ADDGA1075+004801999GF107991999999999999999999MA1102401999999REMMET057METAR GMTT 090930Z 16004KT 8000 BKN016 14/10 Q1024 NOSIG;
0126601010999992008010910004+35733-005900FM-15+0021GMTT V0202001N00311004801CN0080001N1+01501+01001999999ADDGA1075+004801999GF107991999999999999999999MA1102401999999REMMET057METAR GMTT 091000Z 20006KT 8000 BKN016 15/10 Q1024 NOSIG;
0134601010999992008010910304+35733-005900FM-15+0021GMTT V0202001N00361004801CN0080001N1+01501+01001999999ADDGA1075+004801999GF107991999999999999999999MA1102401999999REMMET065METAR GMTT 091030Z 20007KT 160V230 8000 BKN016 15/10 Q1024 NOSIG;
0126601010999992008010911004+35733-005900FM-15+0021GMTT V0202001N00511004801CN0080001N1+01601+01001999999ADDGA1075+004801999GF107991999999999999999999MA1102401999999REMMET057METAR GMTT 091100Z 20010KT 8000 BKN016 16/10 Q1024 NOSIG;
0126601010999992008010911304+35733-005900FM-15+0021GMTT V0202001N005112200019N0112651N1+01601+01101999999ADDGA1045+004801999GF104991999999999999999999MA1102401999999REMMET057METAR GMTT 091130Z 20010KT 9999 SCT016 16/11 Q1024 NOSIG;
0216601010999992008010912004+35733-005900SY-MT+0021GMTT V0201901N005112200019N0100001N1+01631+01131102421ADDGA1045+004801999GF104991041021004501001001MA1102401999999MD1010031+9999REMSYN070AAXX  09124 60101 32460 41910 10163 20113 40242 50003 84200 333 84816;MET057METAR GMTT 091200Z 19010KT 9999 SCT016 16/11 Q1024 NOSIG;
0126601010999992008010912304+35733-005900FM-15+0021GMTT V0202001N005112200019N0112651N1+01701+01201999999ADDGA1045+004801999GF104991999999999999999999MA1102301999999REMMET057METAR GMTT 091230Z 20010KT 9999 SCT016 17/12 Q1023 NOSIG;
0160601010999992008010913004+35733-005900FM-15+0021GMTT V0202101N00461006001CN0112651N1+01701+01201999999ADDGA1045+004801021GA2075+006001999GF107991999999999999999999MA1102301999999REMMET075METAR GMTT 091300Z 21009KT 170V230 9999 SCT016TCU BKN020 17/12 Q1023 NOSIG;
0160601010999992008010913304+35733-005900FM-15+0021GMTT V0202101N00411006001CN0112651N1+01701+01201999999ADDGA1045+004801021GA2075+006001999GF107991999999999999999999MA1102301999999REMMET075METAR GMTT 091330Z 21008KT 180V240 9999 SCT016TCU BKN020 17/12 Q1023 NOSIG;
0160601010999992008010914004+35733-005900FM-15+0021GMTT V0202101N00311006001CN0112651N1+01601+01101999999ADDGA1045+004801021GA2075+006001999GF107991999999999999999999MA1102301999999REMMET075METAR GMTT 091400Z 21006KT 180V240 9999 SCT016TCU BKN020 16/11 Q1023 NOSIG;
0126601010999992008010914304+35733-005900FM-15+0021GMTT V0202101N00361004801CN0112651N1+01701+01201999999ADDGA1075+004801999GF107991999999999999999999MA1102201999999REMMET057METAR GMTT 091430Z 21007KT 9999 BKN016 17/12 Q1022 NOSIG;
0235601010999992008010915004+35733-005900SY-MT+0021GMTT V0202001N00361004801CN0100001N1+01651+01151102261ADDGA1075+004801999GF199999061021004501001001MA1102201999999MD1610161+9999REMSYN070AAXX  09154 60101 32460 62007 10165 20115 40226 56016 86200 333 86816;MET057METAR GMTT 091500Z 21007KT 9999 BKN016 17/12 Q1022 NOSIG;EQDQ01+000062SCOTCV
0126601010999992008010915304+35733-005900FM-15+0021GMTT V0202001N00361004801CN0112651N1+01601+01201999999ADDGA1075+004801999GF107991999999999999999999MA1102201999999REMMET057METAR GMTT 091530Z 20007KT 9999 BKN016 16/12 Q1022 NOSIG;
0142601010999992008010916004+35733-005900FM-15+0021GMTT V0202101N00311004801CN0112651N1+01601+01201999999ADDGA1075+004801999GA2045+030001999MA1102201999999REMMET064METAR GMTT 091600Z 21006KT 9999 BKN016 SCT100 16/12 Q1022 NOSIG;EQDQ01+000042SCOTCV
0142601010999992008010916304+35733-005900FM-15+0021GMTT V0202101N00311004801CN0112651N1+01601+01101999999ADDGA1075+004801999GA2045+030001999MA1102201999999REMMET064METAR GMTT 091630Z 21006KT 9999 BKN016 SCT100 16/11 Q1022 NOSIG;EQDQ01+000042SCOTCV
0147601010999992008010917004+35733-005900AUTO +0021GMTT V0202301N00261004801CN0112651N1+01601+01101999999ADDGA1071+004801999GA2041+030001999MA1102201999999REMMET069METAR GMTT 091700Z AUTO 23005KT 9999 BKN016 SCT100 16/11 Q1022 NOSIG;EQDQ01+000042SCOTCV
0142601010999992008010917304+35733-005900FM-15+0021GMTT V0202401N00211004801CN0112651N1+01501+01101999999ADDGA1075+004801999GA2045+030001999MA1102301999999REMMET064METAR GMTT 091730Z 24004KT 9999 BKN016 SCT100 15/11 Q1023 NOSIG;EQDQ01+000042SCOTCV
0264601010999992008010918004+35733-005900SY-MT+0021GMTT V0202101N00151004801CN0100001N1+01481+01091102331ADDGA1075+004801999GA2045+030001999GF107991051021004501081999KA1120M+01741MA1102301999999MD1610011+9999REMSYN082AAXX  09184 60101 32460 72103 10148 20109 40233 56001 8528/ 333 10174 85816 84360;MET064METAR GMTT 091800Z 21003KT 9999 BKN016 SCT100 15/11 Q1023 NOSIG;
0147601010999992008010918304+35733-005900AUTO +0021GMTT V0202301N00151004801CN0112651N1+01501+01101999999ADDGA1071+004801999GA2041+030001999MA1102301999999REMMET069METAR GMTT 091830Z AUTO 23003KT 9999 BKN016 SCT100 15/11 Q1023 NOSIG;EQDQ01+000042SCOTCV
0147601010999992008010919004+35733-005900AUTO +0021GMTT V0202201N00101004801CN0112651N1+01501+01101999999ADDGA1071+004801999GA2041+030001999MA1102301999999REMMET069METAR GMTT 091900Z AUTO 22002KT 9999 BKN016 SCT100 15/11 Q1023 NOSIG;EQDQ01+000042SCOTCV
0164601010999992008010919304+35733-005900AUTO +0021GMTT V0201501N000510048019N0080001N1+01401+01201999999ADDAW1611GA1071+004801999GA2071+030001999GF107991999999999999999999MA1102401999999REMMET073METAR GMTT 091930Z AUTO 15001KT 8000 -RA BKN016 BKN100 14/12 Q1024 NOSIG;
0159601010999992008010920004+35733-005900FM-15+0021GMTT V0201201N00151004801CN0080001N1+01401+01201999999ADDGA1075+004801999GA2075+027001999GF107991999999999999999999MA1102401999999MW1611REMMET068METAR GMTT 092000Z 12003KT 8000 -RA BKN016 BKN090 14/12 Q1024 NOSIG;
0149601010999992008010920304+35733-005900FM-15+0021GMTT V0200701N00101004801CN0080001N1+01401+01201999999ADDGA1075+004801999GA2075+027001999GF107991999999999999999999MA1102401999999REMMET064METAR GMTT 092030Z 07002KT 8000 BKN016 BKN090 14/12 Q1024 NOSIG;
0273601010999992008010921004+35733-005900SY-MT+0021GMTT V0209999C00001004801CN0080001N1+01371+01161102421ADDAY161031AY221031GA1075+004801999GA2075+027001999GF108991061021004501071999MA1102401999999MD1110081+9999MW1211REMSYN082AAXX  09214 60101 41458 80000 10137 20116 40242 51008 72162 8627/ 333 86816 85359;MET064METAR GMTT 092100Z 00000KT 8000 BKN016 BKN090 14/12 Q1024 NOSIG;
0126601010999992008010921304+35733-005900FM-15+0021GMTT V0200401N00101004801CN0080001N1+01301+01101999999ADDGA1075+004801999GF107991999999999999999999MA1102401999999REMMET057METAR GMTT 092130Z 04002KT 8000 BKN016 13/11 Q1024 NOSIG;
0126601010999992008010922004+35733-005900FM-15+0021GMTT V0202001N00051004801CN0080001N1+01301+01101999999ADDGA1075+004801999GF107991999999999999999999MA1102401999999REMMET057METAR GMTT 092200Z 20001KT 8000 BKN016 13/11 Q1024 NOSIG;
0126601010999992008010922304+35733-005900FM-15+0021GMTT V0200601N00101004801CN0080001N1+01301+01101999999ADDGA1075+004801999GF107991999999999999999999MA1102401999999REMMET057METAR GMTT 092230Z 06002KT 8000 BKN016 13/11 Q1024 NOSIG;
0126601010999992008010923004+35733-005900FM-15+0021GMTT V0200901N00101004801CN0080001N1+01201+01001999999ADDGA1075+004801999GF107991999999999999999999MA1102401999999REMMET057METAR GMTT 092300Z 09002KT 8000 BKN016 12/10 Q1024 NOSIG;
0126601010999992008010923304+35733-005900FM-15+0021GMTT V0200501N00151004801CN0080001N1+01101+01001999999ADDGA1075+004801999GF107991999999999999999999MA1102401999999REMMET057METAR GMTT 092330Z 05003KT 8000 BKN016 11/10 Q1024 NOSIG;
0261601010999992008011000004+35733-005900SY-MT+0021GMTT V0200701N00151004801CN0080001N1+01081+00921102391ADDAA106000021AY161061AY261061GA1075+004801999GF107991071021004501999999MA1102301999999MD1710021+9999MW1021REMSYN082AAXX  10004 60101 11458 70703 10108 20092 40239 57002 69921 70266 872// 333 87816;MET057METAR GMTT 100000Z 06003KT 8000 BKN016 11/09 Q1023 NOSIG;
0131601010999992008011000304+35733-005900AUTO +0021GMTT V0200701N000510048019N0080001N1+01101+00901999999ADDGA1071+004801999GF107991999999999999999999MA1102301999999REMMET062METAR GMTT 100030Z AUTO 07001KT 8000 BKN016 11/09 Q1023 NOSIG;
0131601010999992008011001004+35733-005900AUTO +0021GMTT V0201001N002610048019N0080001N1+01101+01001999999ADDGA1071+004801999GF107991999999999999999999MA1102301999999REMMET062METAR GMTT 100100Z AUTO 10005KT 8000 BKN016 11/10 Q1023 NOSIG;
0071601010999992008011001304+35733-005900AUTO +0021GMTT V0200301N001012200019N9999999N1+01201+01001999999ADDMA1102301999999REMMET044METAR GMTT 100130Z AUTO 03002KT 12/10 Q1023;
