0109601010999991996010101004+35733-005900FM-15+0021GMTT V0202401N01231004801CN0060001N1+01901+01701999999ADDAG10999GA1021+003009999GA2071+004809999GA3071+027009999MA1101291999999REMMET008NEW NOSIEQDQ01+000000PRSWM2
0096601010999991996010102004+35733-005900FM-15+0021GMTT V0202401N01231004801CN0060001N1+01901+01701999999ADDAG10999GA1021+003009999GA2071+004809999GA3071+027009999MA1101291999999MW1801REMMET008NEW NOSI
0156601010999991996010103004+35733-005900SY-MT+0021GMTT V0202201N01031004801CN0050001N1+01851+01691101351ADDAG10002AY181031AY221031GA1021+002409999GA2071+004809999GF108991081021004501999999MA1101291999999MD1810031+9999MW1811REMSYN017 333 84708 87816;MET005NEW ;
0093601010999991996010104004+35733-005900FM-15+0021GMTT V0202201N01131004801CN0050001N1+01801+01701999999ADDAG10999GA1021+002409999GA2071+004809999MA1101291999999REMMET008NEW RERAEQDQ01+000000PRSWM2
0077601010999991996010104304+35733-005900FM-15+0021GMTT V0202201N01231004801CN0050001N1+01801+01701999999ADDAG10999GA1021+002409999GA2071+004809999MA1101291999999MW1811REMMET005NEW ;
0208601010999991996010106004+35733-005900SY-MT+0021GMTT V0202401N01231004801CN0050001N1+01851+01771101291ADDAA124007091AG10001AY161061AY261061GA1021+002409999GA2071+004809999GF108991081021002501999999KA1120N+01801MA1101191999999MD1610061+9999MW1601REMSYN023 333 20180 84708 87816;MET008NEW RERAEQDQ01+000000PRSWM2
0101601010999991996010106304+35733-005900FM-15+0021GMTT V0202401N01131004801CN0050001N1+01901+01801999999ADDAG10999GA1021+002409999GA2071+004809999MA1101191999999OC101651REMMET008NEW RERAEQDQ01+000000PRSWM2
0101601010999991996010107304+35733-005900FM-15+0021GMTT V0202401N01231004801CN0050001N1+01801+01701999999ADDAG10999GA1021+002409999GA2071+004809999MA1101191999999OC101751REMMET008NEW RERAEQDQ01+000000PRSWM2
0080601010999991996010108454+35733-005900FM-15+0021GMTT V0202801N01291002401CN0020001N1+01901+01801999999ADDAG10999GA1021+000909999GA2071+002409999MA1101191999999MW1811REMMET008NEW NSG;
0168601010999991996010109004+35733-005900SY-MT+0021GMTT V0202801N01291004801CN0020001N1+01861+01771101271ADDAG10001AY181031AY261031GA1071+004809999GF108991081081000751999999MA1101191999999MD1510021+9999MW1801REMSYN023 333 84703 85808 85816;MET008NEW NSG;EQDQ01+000000PRSWM2
0096601010999991996010110004+35733-005900FM-15+0021GMTT V0202601N00931002401CN0020001N1+01801+01801999999ADDAG10999GA1021+000909999GA2071+002409999GA3071+004809999MA1101391999999MW1811REMMET008NEW NSG;
0096601010999991996010110304+35733-005900FM-15+0021GMTT V0202601N00771002401CN0020001N1+01801+01801999999ADDAG10999GA1021+000909999GA2071+002409999GA3071+004809999MA1101391999999MW1811REMMET008NEW NSG;
0217601010999991996010112004+35733-005900SY-MT+0021GMTT V0202401N00771002401CN0020001N1+01651+01551101621ADDAA106047091AG10003AY181061AY261061GA1021+000909999GA2071+002409999GA3071+004809999GF108991081081000751999999MA1101491999999MD1110351+9999MW1601MW2631REMSYN023 333 84703 85808 85816;MET008NEW NSG;EQDQ01+009327APC3  
0096601010999991996010113004+35733-005900FM-15+0021GMTT V0202601N00621002401CN0020001N1+01701+01601999999ADDAG10999GA1021+000909999GA2071+002409999GA3071+004809999MA1101591999999MW1611REMMET008NEW NSG;
0109601010999991996010114304+35733-005900FM-15+0021GMTT V0202401N00571004801CN0050001N1+01701+01601999999ADDAG10000GA1021+002409999GA2021+003609999GA3071+004809999MA1101491999999REMMET008NEW RERAEQDQ01+000000PRSWM2
0149601010999991996010115004+35733-005900FM-12+0021GMTT V0202001N00511002401CN0060001N1+01671+01591101501ADDAG10000AY151031AY261031GA1031+000909079GA2041+002409079GF108991051081001501071999MD1810131+9999REMSYN023 333 83703 84708 88458;EQDQ01+000222PRSWM1
0109601010999991996010115304+35733-005900FM-15+0021GMTT V0202201N00721024001CN0060001N1+01701+01301999999ADDAG10999GA1021+000909999GA2021+002409999GA3081+024009999MA1101491999999REMMET008NEW RERAEQDQ01+000000PRSWM2
0214601010999991996010118004+35733-005900SY-MT+0021GMTT V0201601N00621024001CN0050001N1+01631+01551101661ADDAA199053091AG10003AY161061AY261061GA1021+001809999GA2021+003309999GA3081+024009999GF108991061071002501071999KA1120M+01871MA1101591999999MD1210161+9999MW1621MW2631REMSYN029 333 10187 83706 83811 88458;MET005NEW ;
0098601010999991996010119004+35733-005900FM-15+0021GMTT V0202201N00621024001CN0060001N1+01701+01201999999ADDAG10999GA1021+006009999GA2071+024009999MA1101691999999OC101231REMMET005NEW ;EQDQ01+000000PRSWM2
0105601010999991996010120004+35733-005900FM-15+0021GMTT V0209991C00001999999CN9999999N9+99999+99999999999ADDAG10999REMMET051NEW 0KT 5000 SCT006 SC011 OVC080 17/15 Q1018 NOSIG;EQDQ01+000002VOVAR Q02+000000PRSWM2
0162601010999991996010121004+35733-005900SY-MT+0021GMTT V0202201N00621003301CN0040001N1+01601+01561101831ADDAG10003AY161031AY261031GA1021+001809999GA2071+003309999GF108991081021001501999999MA1101801999999MD1110171+9999MW1621MW2631REMSYN017 333 84706 87811;MET005NEW ;
0077601010999991996010122004+35733-005900FM-15+0021GMTT V0203001N00361003301CN0050001N1+01601+01601999999ADDAG10999GA1021+001809999GA2071+003309999MA1101901999999MW1611REMMET005NEW ;
0106601010999991996010123004+35733-005900FM-15+0021GMTT V0209991C00001024001CN0070001N1+01601+01501999999ADDAG10999GA1021+001809999GA2021+003309999GA3071+024009999MA1101901999999REMMET005NEW ;EQDQ01+000000PRSWM2
0189601010999991996010200004+35733-005900SY-MT+0021GMTT V0201401N00211004801CN0070001N1+01601+01521101941ADDAA106023091AG10001AY181061AY221061GA1021+003009999GA2071+004809999GF107991071021004501999999MA1101901999999MD1310081+9999MW1011REMSYN017 333 83710 86816;MET008NEW NSG;EQDQ01+000000PRSWM2
0093601010999991996010201004+35733-005900FM-15+0021GMTT V0201401N00261004801CN0070001N1+01601+01501999999ADDAG10999GA1021+003009999GA2071+004809999MA1101901999999REMMET008NEW NSG;EQDQ01+000000PRSWM2
0077601010999991996010202004+35733-005900FM-15+0021GMTT V0209991C00001004801CN0070001N1+01501+01501999999ADDAG10999GA1021+002409999GA2071+004809999MA1101901999999MW1611REMMET005NEW ;
0175601010999991996010203004+35733-005900SY-MT+0021GMTT V0203201N00211004801CN0070001N1+01511+01451101881ADDAG10001AY161031AY221031GA1021+002409999GA2071+004809999GF108991081021004501999999MA1101801999999MD1810061+9999MW1211REMSYN017 333 84708 86816;MET005NEW ;EQDQ01+000000PRSWM2
0090601010999991996010204004+35733-005900FM-15+0021GMTT V0203201N00261004801CN0070001N1+01401+01301999999ADDAG10999GA1021+002409999GA2071+004809999MA1101901999999REMMET005NEW ;EQDQ01+000000PRSWM2
0090601010999991996010205004+35733-005900FM-15+0021GMTT V0203201N00261220001CN0080001N1+01401+01301999999ADDAG10999GA1021+003009999GA2021+004809999MA1101901999999REMMET005NEW ;EQDQ01+000000PRSWM2
0224601010999991996010206004+35733-005900SY-MT+0021GMTT V0209991C00001004801CN0080001N1+01551+01461101951ADDAA124074091AG10001AY161061AY221061GA1021+002409999GA2071+004809999GF107991999021004501999999KA1120N+01441MA1101901999999MD1310071+9999MW1021REMSYN023 333 20144 83708 86816;MET008NEW NSG;EQDQ01+000082SCOTLCQ02+000000PRSWM2
0106601010999991996010207004+35733-005900FM-15+0021GMTT V0209991C00001024001CN0080001N1+01601+01501999999ADDAG10999GA1021+002409999GA2021+004809999GA3071+024009999MA1101901999999REMMET005NEW ;EQDQ01+000000PRSWM2
0109601010999991996010208004+35733-005900FM-15+0021GMTT V0209991C00001220001CN9999999N9+01501+01401999999ADDAG10999GA1021+003609999GA2021+004809999MA1102001999999REMMET008NEW NOSIEQDQ01+000002VOVAR Q02+000000PRSWM2
0189601010999991996010209004+35733-005900SY-MT+0021GMTT V0209991C00001069001CN0016001N1+01481+01361102051ADDAA106000091AG10000GA1021+003909999GA2021+004809089GA3071+069009999GF107991031021004501031001MA1102001999999MD1210091+9999REMSYN023 333 81613 83816 85070;MET008NEW NOSIEQDQ01+000000PRSWM2
0109601010999991996010210004+35733-005900FM-15+0021GMTT V0209991C00001069001CN0112651N1+01701+01601999999ADDAG10999GA1021+003909999GA2021+004809999GA3071+069009999MA1102001999999REMMET008NEW NOSIEQDQ01+000000PRSWM2
0167601010999991996010212004+35733-005900SY-MT+0021GMTT V0209991C00001069001CN0100001N1+01851+01671102071ADDAA106000091AG10000GA1021+004809999GA2071+069009999GF107991031021004501001021MA1102001999999MD1110041+9999REMSYN017 333 84816 85073;MET008NEW NOSIEQDQ01+000000PRSWM2
0093601010999991996010214004+35733-005900FM-15+0021GMTT V0200201N00211069001CN0112651N1+01901+01601999999ADDAG10999GA1021+004809999GA2071+069009999MA1101901999999REMMET008NEW NOSIEQDQ01+000000PRSWM2
0167601010999991996010215004+35733-005900SY-MT+0021GMTT V0200601N00211069001CN0100001N1+01801+01581101791ADDAA106000091AG10000GA1021+004809999GA2071+069009999GF107991041021004501001021MA1101691999999MD1710291+9999REMSYN017 333 84816 86073;MET008NEW NOSIEQDQ01+000000PRSWM2
0093601010999991996010216004+35733-005900FM-15+0021GMTT V0200601N00411069001CN0112651N1+01801+01501999999ADDAG10999GA1021+004809999GA2071+069009999MA1101691999999REMMET008NEW NOSIEQDQ01+000000PRSWM2
0093601010999991996010217004+35733-005900FM-15+0021GMTT V0200601N00211069001CN0112651N1+01801+01601999999ADDAG10999GA1021+004809999GA2071+069009999MA1101691999999REMMET008NEW NSG;EQDQ01+000000PRSWM2
0202601010999991996010218004+35733-005900SY-MT+0021GMTT V0209991C00001069001CN0100001N1+01721+01581101761ADDAA106000091AG10000GA1021+004809999GA2071+069009999GF199999031021004501001021KA1120M+01861MA1101691999999MD1510031+9999REMSYN023 333 10186 83816 85073;MET008NEW NSG;EQDQ01+000062SCOTCVQ02+000000PRSWM2
0093601010999991996010218304+35733-005900FM-15+0021GMTT V0209991C00001069001CN0112651N1+01701+01601999999ADDAG10999GA1021+004809999GA2071+069009999MA1101691999999REMMET008NEW NSG;EQDQ01+000000PRSWM2
0093601010999991996010219304+35733-005900FM-15+0021GMTT V0201001N00211069001CN0112651N1+01701+01601999999ADDAG10999GA1021+004809999GA2071+069009999MA1101691999999REMMET008NEW NSG;EQDQ01+000000PRSWM2
0183601010999991996010221004+35733-005900SY-MT+0021GMTT V0201001N00411069001CN0100001N1+01561+01461101821ADDAA106000091AG10000GA1021+004809999GA2071+069009999GF199999031021004501001021MA1101691999999MD1310061+9999REMSYN017 333 83816 85073;MET008NEW NSG;EQDQ01+000062SCOTCVQ02+000000PRSWM2
0093601010999991996010221304+35733-005900FM-15+0021GMTT V0209991C00001069001CN0112651N1+01601+01501999999ADDAG10999GA1021+004809999GA2071+069009999MA1101801999999REMMET008NEW NSG;EQDQ01+000000PRSWM2
0058601010999991996010222304+35733-005900FM-15+0021GMTT V0201201N00311999991CY0099001N1+01601+01501999999ADDAG10999REMMET020NEW CAVOK Q1(18 NSG;EQDQ01+000000PRSWM2
0135601010999991996010300004+35733-005900SY-MT+0021GMTT V0200801N00411220001CN0100001N1+01471+01351101871ADDAA106000091AG10000GF102991021091008001001021MA1101801999999MD1210051+9999REMSYN011 333 81923;MET014NEW CAVOK NSG;EQDQ01+000000PRSWM2
0077601010999991996010300304+35733-005900FM-15+0021GMTT V0200801N00311220001CN0112651N1+01501+01401999999ADDAG10999GA1021+006909099MA1101801999999REMMET008NEW NSG;EQDQ01+000000PRSWM2
0096601010999991996010301304+35733-005900FM-16+0021GMTT V0203001N00411220001CN0112651N1+99999+99999999999ADDAG10999GA1021+006009999GA2021+006909099REMMET026NEW 155/14EE 15/14 Q11019;EQDQ01+000000PRSWM2
0093601010999991996010302004+35733-005900FM-15+0021GMTT V0201001N00411220001CN0112651N1+01501+01401999999ADDAG10999GA1021+006009999GA2021+006909099MA1101901999999REMMET008NEW NSG;EQDQ01+000000PRSWM2
0145601010999991996010303004+35733-005900SY-MT+0021GMTT V0201801N00311220001CN0100001N1+01641+01491101881ADDAA106000091AG10000GA1021+006009999GF104991031051008001001021MA1101801999999MD1010011+9999REMSYN011 333 83620;MET008NEW NSG;EQDQ01+000000PRSWM2
0077601010999991996010303304+35733-005900FM-15+0021GMTT V0201801N00311220001CN0112651N1+01601+01501999999ADDAG10999GA1021+006009999MA1101801999999REMMET008NEW NSG;EQDQ01+000000PRSWM2
0077601010999991996010305004+35733-005900FM-15+0021GMTT V0202001N00411220001CN0112651N1+01601+01401999999ADDAG10999GA1021+006009999MA1101901999999REMMET008NEW NSG;EQDQ01+000000PRSWM2
0170601010999991996010306004+35733-005900SY-MT+0021GMTT V0202401N00511220001CN0100001N1+01491+01351102001ADDAA106000091AG10000GA1021+006009999GF103991011051004501001021KA1120N+01441MA1101901999999MD1210121+9999REMSYN023 333 20144 81620 83073;MET008NEW NSG;EQDQ01+000000PRSWM2
0077601010999991996010306304+35733-005900FM-15+0021GMTT V0202201N00511220001CN0112651N1+01501+01401999999ADDAG10999GA1021+006009999MA1102001999999REMMET008NEW NSG;EQDQ01+000000PRSWM2
0093601010999991996010308004+35733-005900FM-15+0021GMTT V0202001N00411220001CN0080001N1+01401+01301999999ADDAG10999GA1021+004809999GA2021+069009999MA1102101999999REMMET008NEW NSG;EQDQ01+000000PRSWM2
0151601010999991996010309004+35733-005900SY-MT+0021GMTT V0202001N00211004801CN0070001N1+01601+01461102151ADDAA106000091AG10000GA1071+004809999GF108991081021004501999999MA1102101999999MD1210151+9999REMSYN017 333 83710 86816;MET008NEW NSG;EQDQ01+000000PRSWM2
0093601010999991996010309304+35733-005900FM-15+0021GMTT V0202001N00211004801CN0050001N1+01601+01501999999ADDAG10999GA1021+002409999GA2071+004809999MA1102101999999REMMET008NEW NSG;EQDQ01+000000PRSWM2
0093601010999991996010311004+35733-005900FM-15+0021GMTT V0202001N00311004801CN0050001N1+01701+01501999999ADDAG10999GA1021+002409999GA2071+004809999MA1102101999999REMMET008NEW NSG;EQDQ01+000000PRSWM2
0145601010999991996010312004+35733-005900SY-MT+0021GMTT V0202201N00211090001CN0080001N1+01681+01541102161ADDAA106000091AG10000GA1021+003909999GF105991031021004501001021MA1102101999999MD1310011+9999REMSYN011 333 83813;MET008NEW NSG;EQDQ01+000000PRSWM2
0077601010999991996010312304+35733-005900FM-15+0021GMTT V0202401N00211220001CN0080001N1+01701+01501999999ADDAG10999GA1021+003909999MA1102101999999REMMET008NEW NSG;EQDQ01+000000PRSWM2
0078601010999991996010313304+35733-005900FM-15+0021GMTT V0202801N00211220001CN0112651N1+01801+01501999999ADDAG10999GA1021+003909999GA2021+069009999REMMET008NEW 1021EQDQ01+000000PRSWM2
0161601010999991996010315004+35733-005900SY-MT+0021GMTT V0200801N00311220001CN0100001N1+01921+01551101801ADDAA106000091AG10000GA1021+006009999GA2021+060009999GF104991031021008001001021MA1102001999999MD1810361+9999REMSYN011 333 83820;MET008NEW NSG;EQDQ01+000000PRSWM2
0093601010999991996010315304+35733-005900FM-15+0021GMTT V0200801N00311220001CN0112651N1+01901+01601999999ADDAG10999GA1021+006009999GA2021+060009999MA1101801999999REMMET008NEW NSG;EQDQ01+000000PRSWM2
0093601010999991996010317004+35733-005900FM-15+0021GMTT V0200601N00211060001CN0112651N1+01801+01401999999ADDAG10999GA1021+006009999GA2071+060009999MA1101801999999REMMET008NEW NSG;EQDQ01+000000PRSWM2
0093601010999991996010317304+35733-005900FM-15+0021GMTT V0200601N00211060001CN0112651N1+01801+01401999999ADDAG10000GA1021+006009999GA2071+060009999MA1101801999999REMMET008NEW NSG;EQDQ01+000000PRSWM2
0202601010999991996010318004+35733-005900SY-MT+0021GMTT V0200601N00311060001CN0100001N1+01701+01391101761ADDAA106000091AG10000GA1021+006009999GA2071+060009999GF199999021021008001001021KA1120M+01921MA1101691999999MD1710041+9999REMSYN023 333 10192 82820 86070;MET008NEW NSG;EQDQ01+000062SCOTCVQ02+000000PRSWM2
0093601010999991996010318304+35733-005900FM-15+0021GMTT V0201001N00511060001CN0112651N1+01701+01401999999ADDAG10999GA1021+006009999GA2071+060009999MA1101691999999REMMET008NEW NSH;EQDQ01+000000PRSWM2
0093601010999991996010319304+35733-005900FM-15+0021GMTT V0201201N00411060001CN0112651N1+01701+01401999999ADDAG10999GA1021+006009999GA2071+060009999MA1101691999999REMMET008NEW NSG;EQDQ01+000000PRSWM2
0183601010999991996010321004+35733-005900SY-MT+0021GMTT V0200801N00361060001CN0100001N1+01581+01371101831ADDAA106000091AG10000GA1021+006009999GA2071+060009999GF199999021021004501001021MA1101691999999MD1310071+9999REMSYN017 333 82820 86070;MET008NEW NSG;EQDQ01+000062SCOTCVQ02+000000PRSWM2
0093601010999991996010321304+35733-005900FM-15+0021GMTT V0200801N00361060001CN0112651N1+01601+01401999999ADDAG10999GA1021+006009999GA2071+060009999MA1101801999999REMMET008NEW NSG;EQDQ01+000000PRSWM2
0093601010999991996010322304+35733-005900FM-15+0021GMTT V0200801N00361060001CN0112651N1+01601+01401999999ADDAG10999GA1021+006009999GA2071+060009999MA1101801999999REMMET008NEW NSG;EQDQ01+000000PRSWM2
0183601010999991996010400004+35733-005900SY-MT+0021GMTT V0201001N00361060001CN0100001N1+01501+01271101791ADDAA106000091AG10000GA1021+006009999GA2071+060009999GF199999021021004501001021MA1101691999999MD1810041+9999REMSYN017 333 82820 86070;MET008NEW NSG;EQDQ01+000062SCOTCVQ02+000000PRSWM2
0093601010999991996010400304+35733-005900FM-15+0021GMTT V0201001N00361060001CN0112651N1+01501+01301999999ADDAG10999GA1021+006009999GA2071+060009999MA1101691999999REMMET008NEW NSG;EQDQ01+000000PRSWM2
0093601010999991996010401304+35733-005900FM-15+0021GMTT V0200801N00311060001CN0112651N1+01501+01301999999ADDAG10999GA1021+006009999GA2071+060009999MA1101691999999REMMET008NEW NSG;EQDQ01+000000PRSWM2
0167601010999991996010403004+35733-005900SY-MT+0021GMTT V0201001N00261060001CN0100001N1+01451+01271101751ADDAA106000091AG10000GA1021+006009999GA2071+060009999GF107991021021008001081021MA1101691999999MD1710041+9999REMSYN017 333 82820 86070;MET008NEW NSG;EQDQ01+000000PRSWM2
0093601010999991996010403304+35733-005900FM-15+0021GMTT V0200801N00311060001CN0112651N1+01501+01301999999ADDAG10999GA1021+006009999GA2071+060009999MA1101691999999REMMET008NEW NSG;EQDQ01+000000PRSWM2
0093601010999991996010404304+35733-005900FM-15+0021GMTT V0200801N00261060001CN0112651N1+01501+01301999999ADDAG10999GA1021+006009999GA2071+060009999MA1101691999999REMMET008NEW NSG;EQDQ01+000000PRSWM2
0186601010999991996010406004+35733-005900SY-MT+0021GMTT V0201201N00101060001CN0100001N1+01421+01241101661ADDAA106000091AG10000GA1021+006009999GA2071+060009999GF107991021021004501081021KA1120N+01421MA1101591999999MD1710091+9999REMSYN023 333 20142 82820 86070;MET008NEW NSG;EQDQ01+000000PRSWM2
0093601010999991996010406304+35733-005900FM-15+0021GMTT V0201201N00101060001CN0112651N1+01401+01201999999ADDAG10999GA1021+006009999GA2071+060009999MA1101591999999REMMET008NEW NQG;EQDQ01+000000PRSWM2
0093601010999991996010407304+35733-005900FM-15+0021GMTT V0202201N00261060001CN0112651N1+01401+01201999999ADDAG10999GA1021+006009999GA2071+060009999MA1101591999999REMMET008NEW NSG;EQDQ01+000000PRSWM2
0167601010999991996010409004+35733-005900SY-MT+0021GMTT V0202001N00411060001CN0100001N1+01651+01271101641ADDAA106000091AG10000GA1021+006009999GA2071+060009999GF107991031051008001001021MA1101591999999MD1710021+9999REMSYN017 333 83620 86070;MET008NEW NSG;EQDQ01+000000PRSWM2
0093601010999991996010409304+35733-005900FM-15+0021GMTT V0202001N00411060001CN0112651N1+01701+01301999999ADDAG10999GA1021+006009999GA2071+060009999MA1101591999999REMMET008NEW NSG;EQDQ01+000000PRSWM2
0093601010999991996010411004+35733-005900FM-15+0021GMTT V0201601N00211060001CN0112651N1+01801+01001999999ADDAG10999GA1021+006009999GA2071+060009999MA1101491999999REMMET008NEW NSG;EQDQ01+000000PRSWM2
0167601010999991996010412004+35733-005900SY-MT+0021GMTT V0202201N00211060001CN0100001N1+01951+01241101611ADDAA106000091AG10000GA1021+006009999GA2071+060009999GF107991031051008001001021MA1101491999999MD1710021+9999REMSYN017 333 83620 85070;MET008NEW NSG;EQDQ01+000000PRSWM2
0093601010999991996010413004+35733-005900FM-15+0021GMTT V0202401N00511060001CN0112651N1+02001+01201999999ADDAG10999GA1021+006009999GA2071+060009999MA1101591999999REMMET008NEW NSG;EQDQ01+000000PRSWM2
0093601010999991996010413304+35733-005900FM-15+0021GMTT V0202201N00151060001CN0112651N1+02001+01201999999ADDAG10999GA1021+006009999GA2071+060009999MA1101591999999REMMET008NEW NSG;EQDQ01+000000PRSWM2
0167601010999991996010415004+35733-005900SY-MT+0021GMTT V0202401N00311060001CN0060001N1+01861+01511101411ADDAA106000091AG10000GA1021+006009999GA2071+060009999GF108991031081008001001021MA1101391999999MD1710201+9999REMSYN017 333 83620 86070;MET008NEW NSG;EQDQ01+000000PRSWM2
0093601010999991996010415304+35733-005900FM-15+0021GMTT V0202401N00311060001CN0060001N1+01901+01501999999ADDAG10999GA1021+006009999GA2071+060009999MA1101391999999REMMET008NEW NSG;EQDQ01+000000PRSWM2
0093601010999991996010416304+35733-005900FM-15+0021GMTT V0202401N00311006001CN0060001N1+01801+01501999999ADDAG10999GA1071+006009999GA2071+060009999MA1101391999999REMMET008NEW NSG;EQDQ01+000000PRSWM2
0122601010999991996010418004+35733-005900FM-12+0021GMTT V0201801N00211006001CN0060001N1+01701+01381101421ADDAA106000091AG10000GA1051+006009059GF108991051051008001001021KA1120M+01991MD1410001+9999REMSYN023 333 10199 85620 86070;
0186601010999991996010418004+35733-005900SY-MT+0021GMTT V0201801N00211006001CN0060001N1+01701+01381101421ADDAA106000091AG10000GA1071+006009999GA2071+060009999GF108991051051008001001021KA1120M+01991MA1101391999999MD1410001+9999REMSYN023 333 10199 85620 86070;MET008NEW NSG;EQDQ01+000000PRSWM2
0093601010999991996010418304+35733-005900FM-15+0021GMTT V0203001N00101006001CN0060001N1+01701+01501999999ADDAG10999GA1071+006009999GA2071+060009999MA1101291999999REMMET008NEW NSG;EQDQ01+000000PRSWM2
0093601010999991996010419304+35733-005900FM-15+0021GMTT V0202401N00211006001CN0060001N1+01701+01401999999ADDAG10999GA1071+006009999GA2071+060009999MA1101391999999REMMET008NEW NSG;EQDQ01+000000PRSWM2
0167601010999991996010421004+35733-005900SY-MT+0021GMTT V0202001N00511006001CN0060001N1+01701+01531101741ADDAA106000091AG10000GA1071+006009999GA2071+060009999GF108991051051008001001021MA1101391999999MD1210021+9999REMSYN017 333 85620 86070;MET008NEW NSG;EQDQ01+000000PRSWM2
0093601010999991996010421304+35733-005900FM-15+0021GMTT V0202001N00411006001CN0060001N1+01701+01501999999ADDAG10999GA1071+006009999GA2071+060009999MA1101391999999REMMET008NEW NSG;EQDQ01+000000PRSWM2
0099601010999991996010422304+35733-005900FM-15+0021GMTT V0202001N00411004801CN0060001N1+01701+01501999999ADDAG10999GA1071+004809999GA2021+009009099GA3071+060009999MA1101391999999MW1801MW2951REMMET005NEW ;
0205601010999991996010500004+35733-005900SY-MT+0021GMTT V0201401N00311004801CN0080001N1+01701+01531101181ADDAA106001091AG10001AY181061AY221061GA1071+004809999GA2071+060009999GF199999051021004501001021MA1101291999999MD1810221+9999MW1291REMSYN017 333 85816 84070;MET008NEW RETSEQDQ01+000062SCOTCVQ02+000000PRSWM2
0084601010999991996010501004+35733-005900FM-15+0021GMTT V0202001N00411004801CN0080001N1+01601+01501999999ADDAG10999GA1071+004809999GA2021+030009999REMMET014NEW Q7011 NSG;EQDQ01+000000PRSWM2
0093601010999991996010501304+35733-005900FM-15+0021GMTT V0202001N00511004801CN0080001N1+01601+01501999999ADDAG10999GA1071+004809999GA2021+030009999MA1101081999999REMMET008NEW NSG;EQDQ01+000000PRSWM2
0077601010999991996010502304+35733-005900FM-15+0021GMTT V0201601N00511004801CN0080001N1+01501+01401999999ADDAG10001GA1071+004809999GA2071+030009999MA1101081999999MW1611REMMET005NEW ;
0080601010999991996010503304+35733-005900FM-15+0021GMTT V0201201N00621004801CN0080001N1+01701+01501999999ADDAG10999GA1071+004809999GA2071+030009999MA1101021999999MW1611REMMET008NEW NSG;
0093601010999991996010504304+35733-005900FM-15+0021GMTT V0202601N00721004801CN0080001N1+01701+01501999999ADDAG10999GA1071+004809999GA2071+027009999MA1101021999999REMMET008NEW NSG;EQDQ01+000000PRSWM2
0208601010999991996010506004+35733-005900SY-MT+0021GMTT V0202601N00621004801CN0100001N1+01631+01441101041ADDAA124004091AG10001AY181061AY221061GA1071+004809999GA2071+027009999GF107991051021004501071999KA1120N+01511MA1101021999999MD1410001+9999MW1021REMSYN023 333 20151 85816 85459;MET008NEW NSG;EQDQ01+000000PRSWM2
0093601010999991996010507004+35733-005900FM-15+0021GMTT V0202601N00621004801CN0112651N1+01601+01401999999ADDAG10999GA1021+003909999GA2071+004809999MA1101021999999REMMET008NEW NSG;EQDQ01+000000PRSWM2
0093601010999991996010507304+35733-005900FM-15+0021GMTT V0202601N00621004801CN0112651N1+01601+01401999999ADDAG10999GA1021+003909999GA2071+004809999MA1101021999999REMMET008NEW NSG;EQDQ01+000000PRSWM2
0167601010999991996010509004+35733-005900SY-MT+0021GMTT V0202401N00981004801CN0080001N1+01701+01441101101ADDAA106000091AG10000GA1071+004809999GA2071+030009999GF107991061081004501081999MA1101021999999MD1210071+9999REMSYN017 333 83810 85816;MET008NEW NSG;EQDQ01+000000PRSWM2
0093601010999991996010509304+35733-005900FM-15+0021GMTT V0202401N01031004801CN0080001N1+01701+01401999999ADDAG10999GA1021+003009999GA2071+004809999MA1101081999999REMMET008NEW NSH;EQDQ01+000000PRSWM2
0093601010999991996010510304+35733-005900FM-15+0021GMTT V0202401N01131004801CN0060001N1+01701+01401999999ADDAG10999GA1021+003009999GA2081+004809999MA1101081999999REMMET008NEW NSG;EQDQ01+000000PRSWM2
0173601010999991996010512004+35733-005900SY-MT+0021GMTT V0202401N01031004801CN0050001N1+01731+01511101171ADDAA106002091AG10003AY181061AY281061GA1021+003009999GA2081+004809999GF108991081081004501999999MA1101081999999MD1110071+9999MW1631MW2801REMSYN017 333 83810 88816;MET005NEW ;
0093601010999991996010513004+35733-005900FM-15+0021GMTT V0202401N01231004801CN0050001N1+01701+01501999999ADDAG10999GA1021+003009999GA2071+004809999GA3021+006909099MA1101021999999MW1811REMMET005NEW ;
0109601010999991996010514004+35733-005900FM-15+0021GMTT V0202401N01131004801CN0050001N1+01701+01501999999ADDAG10999GA1021+003009999GA2071+004809999GA3021+006909099MA1101191999999REMMET008NEW RERAEQDQ01+000000PRSWM2
0181601010999991996010515004+35733-005900SY-MT+0021GMTT V0202401N01231004801CN0050001N1+01701+01581101011ADDAG10002AY181031AY221031GA1021+003009999GA2071+004809999GA3021+006909099GF108991081091004501999999MA1101021999999MD1610161+9999MW1811REMSYN023 333 83710 87816 83923;MET008NEW NSG;
0060601010999991996010515304+35733-005900FM-16+0021GMTT V0202401N01131220001CN0050001N1+99999+99999999999ADDAG10000GA1021+003009999REMMET006NEW O;EQDQ01+000000PRSWM2
0109601010999991996010516004+35733-005900FM-15+0021GMTT V0202401N01231004801CN0080001N1+01801+01601999999ADDAG10999GA1021+003009999GA2071+004809999GA3021+006909099MA1100911999999REMMET008NEW RERAEQDQ01+000000PRSWM2
0109601010999991996010516304+35733-005900FM-15+0021GMTT V0202401N01231004801CN0080001N1+01801+01601999999ADDAG10999GA1021+003009999GA2071+004809999GA3021+006909099MA1100911999999REMMET008NEW NSG;EQDQ01+000000PRSWM2
0230601010999991996010518004+35733-005900SY-MT+0021GMTT V0202401N00821004801CN0080001N1+01771+01571101031ADDAA199014091AG10001AY181061AY221061GA1021+003009999GA2071+004809999GA3021+006909099GF108991081091004501999999KA1120M+01821MA1100911999999MD1310021+9999MW1021REMSYN029 333 10182 83710 87816 81923;MET008NEW RERAEQDQ01+000000PRSWM2
0109601010999991996010518304+35733-005900FM-15+0021GMTT V0202401N00821004801CN0080001N1+01801+01601999999ADDAG10999GA1021+003009999GA2071+004809999GA3021+006909099MA1101021999999REMMET008NEW NSG;EQDQ01+000000PRSWM2
0109601010999991996010519304+35733-005900FM-15+0021GMTT V0202401N00721004801CN0080001N1+01701+01501999999ADDAG10999GA1021+003009999GA2071+004809999GA3021+006909099MA1101021999999REMMET008NEW RERAEQDQ01+000000PRSWM2
0178601010999991996010521004+35733-005900SY-MT+0021GMTT V0202401N00721004801CN0080001N1+01701+01581101101ADDAG10001AY161031AY261031GA1021+003009999GA2071+004809999GF108991081081004501999999MA1101021999999MD1210071+9999MW1211REMSYN017 333 83810 87816;MET008NEW RERAEQDQ01+000000PRSWM2
0093601010999991996010521304+35733-005900FM-15+0021GMTT V0202401N00721004801CN0080001N1+01701+01601999999ADDAG10999GA1021+003009999GA2071+004809999MA1101081999999REMMET008NEW NSG;EQDQ01+000000PRSWM2
0093601010999991996010522304+35733-005900FM-15+0021GMTT V0202401N00721004801CN0080001N1+01701+01601999999ADDAG10999GA1021+003009999GA2071+004809999MA1101081999999REMMET008NEW 1 NSEQDQ01+000000PRSWM2
0189601010999991996010600004+35733-005900SY-MT+0021GMTT V0202401N00821004801CN0080001N1+01751+01621101111ADDAA106000591AG10001AY161061AY261061GA1021+003009999GA2071+004809999GF108991081081004501999999MA1101081999999MD1210011+9999MW1211REMSYN017 333 83810 87816;MET008NEW NSG;EQDQ01+000000PRSWM2
0093601010999991996010600304+35733-005900FM-15+0021GMTT V0202401N00721003601CN0080001N1+01701+01601999999ADDAG10999GA1021+003009999GA2071+003609999MA1101081999999REMMET008NEW NSG;EQDQ01+000000PRSWM2
0109601010999991996010602004+35733-005900FM-15+0021GMTT V0202001N00621004801CN0060001N1+01701+01601999999ADDAG10999GA1021+003009999GA2071+004809999GA3021+006909099MA1101021999999REMMET008NEW RERAEQDQ01+000000PRSWM2
0168601010999991996010603004+35733-005900SY-MT+0021GMTT V0202401N00721004801CN0080001N1+01761+01591101051ADDAG10001AY181031AY281031GA1071+004809999GF108991081091004501999999MA1101021999999MD1810061+9999MW1251REMSYN023 333 83810 87816 81923;MET008NEW NSG;EQDQ01+000000PRSWM2
0116601010999991996010603304+35733-005900FM-15+0021GMTT V0202201N00721004801CN0080001N1+01801+01601999999ADDAG10999GA1021+003009999GA2071+004809999GA3021+006909099MA1101021999999REMMET015NEW TEMPO SHRA;EQDQ01+000000PRSWM2
0116601010999991996010604304+35733-005900FM-15+0021GMTT V0201801N00621004801CN0080001N1+01701+01501999999ADDAG10999GA1021+003009999GA2071+004809999GA3021+006909099MA1101021999999REMMET015NEW TEMPO SHRA;EQDQ01+000000PRSWM2
0231601010999991996010606004+35733-005900SY-MT+0021GMTT V0200801N00411004801CN0060001N1+01601+01441100981ADDAA124016091AG10001AY181061AY261061GA1021+003009999GA2071+004809999GA3021+006909099GF108991081021002501999999KA1120N+01551MA1101021999999MD1810071+9999MW1211REMSYN023 333 20155 83708 88816;MET015NEW TEMPO SHRA;EQDQ01+000000PRSWM2
0098601010999991996010606304+35733-005900FM-15+0021GMTT V0202001N00721004801CN0060001N1+01601+01401999999ADDAG10999GA1021+002409999GA2081+004809999MA1100911999999REMMET013NEW TEMPO RA;EQDQ01+000000PRSWM2
0098601010999991996010607304+35733-005900FM-15+0021GMTT V0201801N01131004801CN0060001N1+01601+01401999999ADDAG10999GA1021+002409999GA2081+004809999MA1100911999999REMMET013NEW TEMPO RA;EQDQ01+000000PRSWM2
0185601010999991996010609004+35733-005900SY-MT+0021GMTT V0201801N01031004801CN0080001N1+01651+01351100981ADDAG10001AY161031AY221031GA1021+002409999GA2081+004809999GF199999071021004501999999MD1410001+9999MW1011REMSYN017 333 82710 87816;MET014NEW Q10// NSG;EQDQ01+000072SCOTCVQ02+000000PRSWM2
0093601010999991996010610004+35733-005900FM-15+0021GMTT V0202201N01131004801CN0080001N1+01701+01401999999ADDAG10999GA1021+002409999GA2071+004809999MA1100911999999REMMET008NEW NSG;EQDQ01+000000PRSWM2
0093601010999991996010610304+35733-005900FM-15+0021GMTT V0202001N01131004801CN0080001N1+01701+01401999999ADDAG10999GA1021+002409999GA2071+004809999MA1100911999999REMMET008NEW NSG;EQDQ01+000000PRSWM2
0189601010999991996010612004+35733-005900SY-MT+0021GMTT V0201801N01031004801CN0080001N1+01811+01451100981ADDAA106000391AG10000AY121061AY261061GA1021+003009999GA2071+004809999GF108991081021004501999999MA1100911999999MD1410001+9999MW1021REMSYN017 333 81710 88816;MET008NEW NSG;EQDQ01+000000PRSWM2
0093601010999991996010612304+35733-005900FM-15+0021GMTT V0202201N01441004801CN0080001N1+01801+01501999999ADDAG10999GA1021+003009999GA2081+004809999MA1100911999999REMMET008NEW NSG;EQDQ01+000000PRSWM2
0101601010999991996010613304+35733-005900FM-15+0021GMTT V0202201N00931004801CN0080001N1+01801+01501999999ADDAG10999GA1021+003009999GA2081+004809999MA1100911999999OC101441REMMET008NEW NSG;EQDQ01+000000PRSWM2
0175601010999991996010615004+35733-005900SY-MT+0021GMTT V0202201N00931004801CN0080001N1+01831+01511100741ADDAA106000091AG10000GA1021+003009999GA2081+004809999GF108991081021004501999999MA1100811999999MD1710241+9999OC101441REMSYN017 333 83710 88816;MET008NEW NSG;EQDQ01+000000PRSWM2
0101601010999991996010615304+35733-005900FM-15+0021GMTT V0202201N00931004801CN0080001N1+01801+01501999999ADDAG10999GA1021+003009999GA2081+004809999MA1100711999999OC101441REMMET008NEW NSG;EQDQ01+000000PRSWM2
0101601010999991996010616304+35733-005900FM-15+0021GMTT V0202201N00931004801CN0080001N1+01801+01501999999ADDAG10999GA1021+003009999GA2081+004809999MA1100711999999OC101441REMMET008NEW NSG;EQDQ01+000000PRSWM2
0245601010999991996010618004+35733-005900SY-MT+0021GMTT V0202001N013410042019N0060001N1+01821+01621999999ADDAA199000391AG10001AY181061AY221061GA1031+003009079GF108991081021004501999999KA1120M+01871MD1710071+9999MW1251REMSYN023 333 10187 83710 88816;MET044NEW 6G36KT 5000 SHRA SCT010 OVC016 18/16 Q10EQDQ01+090673APOSLPQ02+000000PRSWM2Q03 090673APOSLP
0101601010999991996010619004+35733-005900FM-15+0021GMTT V0202001N01341004801CN0050001N1+01801+01601999999ADDAG10999GA1021+003009999GA2071+004809999GA3021+006909099MA1100611999999MW1811OC101851REMMET005NEW ;
0117601010999991996010620004+35733-005900FM-15+0021GMTT V0202201N01341004801CN0050001N1+01901+01701999999ADDAG10999GA1021+003009999GA2071+004809999GA3021+006909099MA1100611999999OC101851REMMET008NEW RERAEQDQ01+000000PRSWM2
0199601010999991996010621004+35733-005900SY-MT+0021GMTT V0202201N01031004801CN0050001N1+01821+01721100701ADDAG10000AY121031AY281031GA1021+003009999GA2071+004809999GA3021+006909099GF108991081021004501999999MA1100611999999MD1310031+9999MW1621OC101851REMSYN017 333 83710 88815;MET005NEW ;EQDQ01+000000PRSWM2
0080601010999991996010621304+35733-005900FM-15+0021GMTT V0202201N01031003901CN0050001N1+01801+01701999999ADDAG10999GA1021+003009999GA2081+003909999MA1100711999999MW1631REMMET008NEW NSG;
0093601010999991996010623004+35733-005900FM-15+0021GMTT V0202201N00821003901CN0080001N1+01801+01701999999ADDAG10999GA1021+003009999GA2081+003909999MA1100711999999REMMET008NEW RERAEQDQ01+000000PRSWM2
0189601010999991996010700004+35733-005900SY-MT+0021GMTT V0202401N00621003901CN0060001N1+01751+01621100901ADDAA106003091AG10001AY161061AY261061GA1021+003009999GA2081+003909999GF108991081021004501999999MA1100711999999MD1310201+9999MW1211REMSYN017 333 83710 87816;MET008NEW NSG;EQDQ01+000000PRSWM2
0081601010999991996010700304+35733-005900FM-15+0021GMTT V0209999999999999999CN0024011N1+99999+99999999999ADDAG10999REMMET043NEW 4KT 8000 SCT010 BKN013 18/16 Q1009 NSG;EQDQ01+000000PRSWM2
0080601010999991996010701304+35733-005900FM-15+0021GMTT V0202201N00931003901CN0080001N1+01701+01601999999ADDAG10999GA1021+003009999GA2071+003909999MA1100911999999MW1631REMMET008NEW NSG;
0178601010999991996010703004+35733-005900SY-MT+0021GMTT V0202401N00721003901CN0080001N1+01701+01461100901ADDAG10001AY161031AY221031GA1021+003009999GA2071+003909999GF108991081021004501999999MA1100911999999MD1410001+9999MW1211REMSYN017 333 83710 87816;MET008NEW NSG;EQDQ01+000000PRSWM2
0093601010999991996010703304+35733-005900FM-15+0021GMTT V0202401N00771003901CN0080001N1+01701+01501999999ADDAG10999GA1021+003009999GA2071+003909999MA1100911999999REMMET008NEW NSG;EQDQ01+000000PRSWM2
0093601010999991996010704304+35733-005900FM-15+0021GMTT V0202801N00621004801CN0080001N1+01701+01501999999ADDAG10999GA1021+003009999GA2071+004809999MA1101021999999REMMET008NEW NSG;EQDQ01+000000PRSWM2
0224601010999991996010706004+35733-005900SY-MT+0021GMTT V0202601N00621004501CN0080001N1+01701+01351101251ADDAA124004091AG10001AY161061AY221061GA1021+003009999GA2071+004509999GF199999061021004501001001KA1120N+01561MA1101021999999MD1310251+9999MW1011REMSYN023 333 20156 82710 84816;MET008NEW NSG;EQDQ01+000052SCOTCVQ02+000000PRSWM2
0093601010999991996010706304+35733-005900FM-15+0021GMTT V0202601N00621220001CN0080001N1+01701+01401999999ADDAG10999GA1021+003009999GA2021+004809999MA1101191999999REMMET008NEW NSG;EQDQ01+000000PRSWM2
0084601010999991996010707304+35733-005900FM-15+0021GMTT V0202801N00931220001CN0080001N1+99999+99999999999ADDAG10999GA1021+003009999REMMET030NEW C SCT016 17/14 Q1012 NSG+;EQDQ01+000000PRSWM2
0145601010999991996010709004+35733-005900SY-MT+0021GMTT V0202801N00721220001CN0080001N1+01651+01161101561ADDAA106000091AG10000GA1021+004809999GF104991041021004501001001MA1101491999999MD1210301+9999REMSYN011 333 84816;MET008NEW NSG;EQDQ01+000000PRSWM2
0077601010999991996010710004+35733-005900FM-15+0021GMTT V0202801N00721220001CN0080001N1+01701+01201999999ADDAG10999GA1021+004809999MA1101491999999REMMET008NEW NSG;EQDQ01+000000PRSWM2
0077601010999991996010710304+35733-005900FM-15+0021GMTT V0202801N00511220001CN0080001N1+01701+01201999999ADDAG10999GA1021+004809999MA1101491999999REMMET008NEW NSG;EQDQ01+000000PRSWM2
0145601010999991996010712004+35733-005900SY-MT+0021GMTT V0202801N00511220001CN0080001N1+01901+01241101751ADDAA106000091AG10000GA1021+004809999GF102991021021004501001001MA1101691999999MD1310191+9999REMSYN011 333 82816;MET008NEW NSG;EQDQ01+000000PRSWM2
0077601010999991996010713004+35733-005900FM-15+0021GMTT V0202201N00511220001CN0080001N1+01901+01201999999ADDAG10999GA1021+004809999MA1101691999999REMMET008NEW NSG;EQDQ01+000000PRSWM2
0077601010999991996010713304+35733-005900FM-15+0021GMTT V0202801N00311220001CN0080001N1+01901+01201999999ADDAG10999GA1021+004809999MA1101691999999REMMET008NEW NSG;EQDQ01+000000PRSWM2
0145601010999991996010715004+35733-005900SY-MT+0021GMTT V0202801N00311220001CN0100001N1+01981+01221101691ADDAA106000091AG10000GA1021+004809999GF102991021021004501001001MA1101691999999MD1810061+9999REMSYN011 333 82816;MET008NEW NSG;EQDQ01+000000PRSWM2
0077601010999991996010715304+35733-005900FM-15+0021GMTT V0202801N00311220001CN0112651N1+02001+01201999999ADDAG10999GA1021+004809999MA1101591999999REMMET008NEW NSG;EQDQ01+000000PRSWM2
0077601010999991996010716304+35733-005900FM-15+0021GMTT V0202801N00261220001CN0112651N1+01901+01301999999ADDAG10999GA1021+004809999MA1101691999999REMMET008NEW NSG;EQDQ01+000000PRSWM2
0164601010999991996010718004+35733-005900SY-MT+0021GMTT V0209991C00001220001CN0080001N1+01701+01531101711ADDAA106000091AG10000GA1021+004809999GF103991021021004501081001KA1120M+01951MA1101691999999MD1210011+9999REMSYN017 333 10195 82816;MET008NEW NSG;EQDQ01+000000PRSWM2
0093601010999991996010719004+35733-005900FM-15+0021GMTT V0209991C00001220001CN0080001N1+01701+01501999999ADDAG10999GA1021+004809999GA2021+030009999MA1101691999999REMMET008NEW NSG;EQDQ01+000000PRSWM2
0093601010999991996010719304+35733-005900FM-15+0021GMTT V0201201N00211220001CN0080001N1+01701+01501999999ADDAG10999GA1021+004809999GA2021+030009999MA1101691999999REMMET008NEW NSG;EQDQ01+000000PRSWM2
0161601010999991996010721004+35733-005900SY-MT+0021GMTT V0201001N00101220001CN0100001N1+01521+01341101741ADDAA106000091AG10000GA1021+004809999GA2021+030009999GF103991021021004501081001MA1101691999999MD1210031+9999REMSYN011 333 82816;MET008NEW NSG;EQDQ01+000000PRSWM2
0077601010999991996010722004+35733-005900FM-15+0021GMTT V0201201N00311220001CN0080001N1+01401+01201999999ADDAG10999GA1021+004809999MA1101691999999REMMET008NEW NSG;EQDQ01+000000PRSWM2
0077601010999991996010722304+35733-005900FM-15+0021GMTT V0201201N00311220001CN0080001N1+01401+01201999999ADDAG10999GA1021+004809999MA1101691999999REMMET008NEW NSG;EQDQ01+000000PRSWM2
0145601010999991996010800004+35733-005900SY-MT+0021GMTT V0202001N00211036001CN0100001N1+01621+01321101801ADDAA106000091AG10000GA1021+030009999GF105991051001999999081001MA1101691999999MD1310051+9999REMSYN011 333 85360;MET008NEW NSG;EQDQ01+000000PRSWM2
0077601010999991996010801304+35733-005900FM-15+0021GMTT V0202001N00511220001CN0112651N1+01501+01401999999ADDAG10999GA1021+006009999MA1101691999999REMMET008NEW NSG;EQDQ01+000000PRSWM2
0097601010999991996010803004+35733-005900FM-12+0021GMTT V0201401N00311006001CN0100001N1+01551+01381101701ADDAA106000091AG10000GA1061+006009059GF106991061051008001001001MD1810101+9999REMSYN011 333 86620;
0077601010999991996010803304+35733-005900FM-15+0021GMTT V0201401N00311006001CN0112651N1+01601+01401999999ADDAG10999GA1071+006009999MA1101691999999REMMET008NEW NSG;EQDQ01+000000PRSWM2
0077601010999991996010804304+35733-005900FM-15+0021GMTT V0201801N00211006001CN0112651N1+01501+01401999999ADDAG10999GA1071+006009999MA1101591999999REMMET008NEW NSG;EQDQ01+000000PRSWM2
0180601010999991996010806004+35733-005900SY-MT+0021GMTT V0201201N00261004801CN0100001N1+01441+01321101591ADDAA106000091AG10000GA1071+004809999GF199999061051004501001001KA1120N+01441MA1101591999999MD1710111+9999REMSYN017 333 20144 86620;MET008NEW NSG;EQDQ01+000062SCOTCVQ02+000000PRSWM2
0093601010999991996010807004+35733-005900FM-15+0021GMTT V0201201N00261220001CN0112651N1+01501+01301999999ADDAG10999GA1021+006009999GA2021+030009999MA1101491999999REMMET008NEW NSG;EQDQ01+000000PRSWM2
0093601010999991996010807304+35733-005900FM-15+0021GMTT V0201201N00261220001CN0112651N1+01501+01301999999ADDAG10999GA1021+006009999GA2021+030009999MA1101491999999REMMET008NEW NSG;EQDQ01+000000PRSWM2
0142601010999991996010809004+35733-005900SY-MT+0021GMTT V0201801N00721006001CN0100001N1+01761+01211101531ADDAA106000091AG10000GA1071+006009999GF107991071051004501999999MA1101491999999MD1510051+9999REMSYN011 333 87620;MET005NEW ;EQDQ01+000000PRSWM2
0074601010999991996010810004+35733-005900FM-15+0021GMTT V0201801N00511006001CN0112651N1+01801+01401999999ADDAG10999GA1071+006009999MA1101491999999REMMET005NEW ;EQDQ01+000000PRSWM2
0158601010999991996010811004+35733-005900SY-MT+0021GMTT V0202001N00931006001CN0100001N1+02031+01491101541ADDAA106000091AG10999GA1071+006009999GF199999061051004501001001MA1101491999999MD1010011+9999REMSYN011 333 86620;MET005NEW ;EQDQ01+000062SCOTCVQ02+000000PRSWM2
0158601010999991996010812004+35733-005900SY-MT+0021GMTT V0202001N00931006001CN0100001N1+02031+01491101541ADDAA106000091AG10000GA1071+006009999GF199999061051004501001001MA1101491999999MD1010011+9999REMSYN011 333 86620;MET005NEW ;EQDQ01+000062SCOTCVQ02+000000PRSWM2
0074601010999991996010812304+35733-005900FM-15+0021GMTT V0202001N01031006001CN0112651N1+02001+01501999999ADDAG10999GA1071+006009999MA1101491999999REMMET005NEW ;EQDQ01+000000PRSWM2
0077601010999991996010813304+35733-005900FM-15+0021GMTT V0202001N00931006001CN0080001N1+02001+01501999999ADDAG10999GA1071+006009999MA1101491999999REMMET008NEW NSG;EQDQ01+000000PRSWM2
0077601010999991996010814304+35733-005900FM-15+0021GMTT V0202201N00671006001CN0080001N1+02001+01501999999ADDAG10000GA1071+006009999MA1101191999999REMMET008NEW NSG;EQDQ01+000000PRSWM2
0093601010999991996010815304+35733-005900FM-15+0021GMTT V0202201N00871069001CN0080001N1+02101+01601999999ADDAG10999GA1021+006009999GA2071+069009999MA1101191999999REMMET008NEW NSG;EQDQ01+000000PRSWM2
0106601010999991996010816324+35733-005900FM-16+0021GMTT V0209999999999999999CN9999999N9+99999+99999999999ADDAG10999REMMET052NEW 1632ZL081(5 8000 SCT020 BKN233 20/15 Q1012 MEKO;EQDQ01+000002VOVAR Q02+000000PRSWM2
0170601010999991996010818004+35733-005900SY-MT+0021GMTT V0202001N00721006001CN0080001N1+01921+01441101171ADDAA106000091AG10000GA1071+006009999GF107991061021008001081999KA1120M+02151MA1101191999999MD1810051+9999REMSYN023 333 10215 86820 83358;MET008NEW NSG;EQDQ01+000000PRSWM2
0077601010999991996010818304+35733-005900FM-15+0021GMTT V0202001N00721006001CN0080001N1+01901+01401999999ADDAG10999GA1071+006009999MA1101081999999REMMET008NEW NSG;EQDQ01+000000PRSWM2
0077601010999991996010819304+35733-005900FM-15+0021GMTT V0202001N00721006001CN0080001N1+01801+01501999999ADDAG10999GA1071+006009999MA1101081999999REMMET008NEW NSG;EQDQ01+000000PRSWM2
0151601010999991996010821004+35733-005900SY-MT+0021GMTT V0202001N00411004801CN0080001N1+01851+01521101091ADDAA106000091AG10000GA1071+004809999GF107991061021008001081999MA1101081999999MD1710081+9999REMSYN017 333 86820 83380;MET008NEW NSG;EQDQ01+000000PRSWM2
0090601010999991996010821304+35733-005900FM-15+0021GMTT V0201801N00721006001CN0080001N1+01901+01001999999ADDAG10999GA1071+006009999GA2021+024009999MA1101021999999REMMET005NEW ;EQDQ01+000000PRSWM2
0090601010999991996010822304+35733-005900FM-15+0021GMTT V0202001N00931004801CN0080001N1+01801+01501999999ADDAG10999GA1071+004809999GA2021+024009999MA1101021999999REMMET005NEW ;EQDQ01+000000PRSWM2
0198601010999991996010900004+35733-005900SY-MT+0021GMTT V0202001N00721004801CN0070001N1+01801+01491100851ADDAA106002091AG10000AY121061AY221061GA1071+004809999GA2071+024009999GF108991051091002501071999MA1100911999999MD1810241+9999MW1811REMSYN029 333 83813 84616 81925 85358;MET005NEW ;EQDQ01+000000PRSWM2
0122601010999991996010900304+35733-005900FM-15+0021GMTT V0201201N00411007501CN0070001N1+01801+01501999999ADDAG10999GA1021+003909999GA2021+004809999GA3021+007509099GA4071+024009999MA1100811999999REMMET005NEW ;EQDQ01+000000PRSWM2
0110601010999991996010902004+35733-005900FM-15+0021GMTT V0201401N00311007501CN0070001N1+01801+01501999999ADDAG10999GA1021+003909999GA2021+004509999GA3021+007509099GA4071+024009999REMMET008NEW 1007EQDQ01+000000PRSWM2
0214601010999991996010903004+35733-005900SY-MT+0021GMTT V0201401N00411003901CN0060001N1+01521+01431100751ADDAA106999999AG10002AY181031AY281031GA1071+003909999GA2021+007509099GA3081+024009999GF108991061091002501071999MA1100711999999MD1610111+9999MW1801MW2811REMSYN023 333 85813 82923 86458;MET005NEW ;EQDQ01  00002PRCP06
0093601010999991996010903304+35733-005900FM-15+0021GMTT V0201201N00311003901CN0060001N1+01501+01401999999ADDAG10999GA1071+003909999GA2021+006909099GA3081+024009999MA1100711999999MW1811REMMET005NEW ;
0093601010999991996010904304+35733-005900FM-15+0021GMTT V0201001N00411003901CN0060001N1+01501+01401999999ADDAG10999GA1071+003909999GA2021+006909099GA3081+024009999MA1100711999999MW1651REMMET005NEW ;
0214601010999991996010906004+35733-005900SY-MT+0021GMTT V0201201N00311003901CN0060001N1+01461+01351100581ADDAA124015091AG10004AY181061AY281061GA1071+003909999GA2021+006909099GA3081+024009999GF108991061091004501071999KA1120N+01461MA1100511999999MD1610171+9999MW1631MW2651REMSYN029 333 20146 85813 82923 86458;MET005NEW ;
0093601010999991996010906304+35733-005900FM-15+0021GMTT V0202001N00411003901CN0060001N1+01501+01401999999ADDAG10999GA1071+003909999GA2021+006909099GA3081+024009999MA1100511999999MW1611REMMET005NEW ;
0109601010999991996010908004+35733-005900FM-15+0021GMTT V0201801N00721003901CN0060001N1+01301+01101999999ADDAG10999GA1071+003909999GA2021+006909099GA3071+024009999MA1100411999999REMMET008NEW RERAEQDQ01+000000PRSWM2
0109601010999991996010908304+35733-005900FM-15+0021GMTT V0201801N00721003901CN0060001N1+01301+01101999999ADDAG10000GA1071+003909999GA2021+006909099GA3071+024009999MA1100411999999REMMET008NEW NSG;EQDQ01+000000PRSWM2
0184601010999991996010909004+35733-005900SY-MT+0021GMTT V0202401N00361024001CN0080001N1+01301+01061100601ADDAG10001AY181031AY221031GA1021+003909999GA2071+024009999GF108991051081004501071999MA1100611999999MD1310021+9999MW1011REMSYN023 333 83813 85623 85458;MET008NEW NSG;EQDQ01+000000PRSWM2
0080601010999991996010909304+35733-005900FM-15+0021GMTT V0202401N00721024001CN0080001N1+01301+01101999999ADDAG10999GA1021+003909999GA2071+024009999MA1100611999999MW1631REMMET008NEW NSG;
0080601010999991996010910304+35733-005900FM-15+0021GMTT V0202001N01031004801CN0060001N1+01301+01101999999ADDAG10999GA1021+003009999GA2071+004809999MA1100611999999MW1811REMMET008NEW NSG;
0211601010999991996010912004+35733-005900SY-MT+0021GMTT V0202401N00981004801CN0060001N1+01381+00961100721ADDAA106006091AG10001AY181061AY221061GA1021+003009999GA2071+004809999GA3071+024009999GF108991051081004501071999MA1100711999999MD1110121+9999MW1801REMSYN023 333 82810 85816 85458;MET008NEW NSG;EQDQ01+000000PRSWM2
0109601010999991996010912304+35733-005900FM-15+0021GMTT V0202401N00931004801CN0060001N1+01401+01001999999ADDAG10999GA1021+003009999GA2071+004809999GA3071+024009999MA1100711999999REMMET008NEW RESHEQDQ01+000000PRSWM2
0109601010999991996010914004+35733-005900FM-15+0021GMTT V0202401N01031004801CN0050001N1+01401+01201999999ADDAG10999GA1021+003609999GA2071+004809999GA3021+007509099GA4071+024009999MA1100611999999MW1801REMMET005NEW ;
0194601010999991996010915004+35733-005900SY-MT+0021GMTT V0202801N00621004801CN0060001N1+01301+01191100741ADDAG10001AY181031AY221031GA1021+003609999GA2071+004809999GA3021+007509099GA4071+024009999GF108991051081004501071999MA1100611999999MD1310021+9999MW1801REMSYN023 333 82710 85816 85458;MET005NEW ;
0109601010999991996010915304+35733-005900FM-15+0021GMTT V0202801N00571004801CN0080001N1+01301+01201999999ADDAG10999GA1021+003009999GA2071+004809999GA3071+027009999MA1100711999999REMMET008NEW NSG;EQDQ01+000000PRSWM2
0122601010999991996010917004+35733-005900FM-15+0021GMTT V0202801N00511004801CN0080001N1+01301+01001999999ADDAG10999GA1021+003609999GA2071+004809999GA3021+007509099GA4071+027009999MA1100711999999REMMET005NEW ;EQDQ01+000000PRSWM2
0249601010999991996010918004+35733-005900SY-MT+0021GMTT V0202001N00721004801CN0080001N1+01221+01031100851ADDAA199009091AG10001AY181061AY221061GA1021+003609999GA2071+004809999GA3021+007509099GA4071+027009999GF108991051031002501071999KA1120M+01561MA1100711999999MD1210121+9999MW1801REMSYN035 333 10156 82712 85816 81925 85458;MET005NEW ;EQDQ01+000000PRSWM2
0115601010999991996010918304+35733-005900FM-15+0021GMTT V0202601N00621004801CN0080001N1+99999+99999999999ADDAG10999GA1021+003609999GA2071+004809999GA3021+007509099REMMET029NEW 0 BKN090 12/10 Q1008 NSG;EQDQ01+000000PRSWM2
0125601010999991996010920004+35733-005900FM-15+0021GMTT V0202401N01031004801CN0080001N1+01201+01001999999ADDAG10999GA1021+003009999GA2071+004809999GA3021+007509099GA4071+027009999MA1100811999999REMMET008NEW NSG;EQDQ01+000000PRSWM2
0187601010999991996010921004+35733-005900SY-MT+0021GMTT V0203001N00621004801CN0080001N1+01271+01021100951ADDAG10001AY181031AY221031GA1021+003009999GA2071+004809999GA3071+027009999GF108991051031004501041999MA1100811999999MD1310101+9999MW1801REMSYN029 333 82710 85816 81925 85458;MET008NEW NSG;
0125601010999991996010921304+35733-005900FM-15+0021GMTT V0202801N00411004801CN0080001N1+01201+01001999999ADDAG10999GA1021+003009999GA2071+004809999GA3021+007509099GA4071+027009999MA1100911999999REMMET008NEW NSG;EQDQ01+000000PRSWM2
0125601010999991996010922304+35733-005900FM-15+0021GMTT V0202601N00461004801CN0080001N1+01201+01001999999ADDAG10999GA1021+003009999GA2071+004809999GA3021+007509099GA4071+027009999MA1100911999999REMMET008NEW NSG;EQDQ01+000000PRSWM2
0198601010999991996011000004+35733-005900SY-MT+0021GMTT V0201401N00361004801CN0060001N1+01221+01021101021ADDAA106005091AG10002AY181061AY221061GA1021+002409999GA2071+004809999GA3021+006909099GF108991081091004501999999MA1101021999999MD1310101+9999MW1801MW2811REMSYN023 333 83708 86816 82923;MET008NEW NSG;
0109601010999991996011000304+35733-005900FM-15+0021GMTT V0203001N00411004801CN0060001N1+01201+01001999999ADDAG10999GA1021+002409999GA2071+004809999GA3021+006909099MA1101021999999REMMET008NEW NSG;EQDQ01+000000PRSWM2
0109601010999991996011001304+35733-005900FM-15+0021GMTT V0203001N00411004801CN0080001N1+01201+01001999999ADDAG10999GA1021+002409999GA2071+004809999GA3021+006909099MA1101021999999REMMET008NEW NSG;EQDQ01+000000PRSWM2
0121601010999991996011002304+35733-005900FM-16+0021GMTT V0203201N00511004801CN0060001N1+99999+99999999999ADDAG10999GA1021+002409999GA2071+004809999GA3021+006909099MA1101081999999REMMET020NEW 112/10 Q101111 NEQDQ01+000000PRSWM2
0202601010999991996011003004+35733-005900SY-MT+0021GMTT V0202001N003110048019N0060001N1+01321+00971101181ADDAG10002AY191031AY281031GA1031+002409079GA2061+004809089GF108991081091002501999999MD1210161+9999MW1951REMSYN023 333 83708 86816 82923;MET041NEW 0 SCT008 BKN0116 SCT023CB 12/110 Q10;EQDQ01+000000PRSWM2
0102601010999991996011003304+35733-005900FM-15+0021GMTT V0201601N00261004801CN0060001N1+01301+01001999999ADDAG10999GA1021+002409999GA2071+004809999GA3021+006909099MA1101081999999MW1811MW2951REMMET008NEW NSG;
0102601010999991996011004304+35733-005900FM-15+0021GMTT V0201601N00211004801CN0060001N1+01301+01101999999ADDAG10999GA1021+002409999GA2071+004809999GA3021+006909099MA1101191999999MW1811MW2951REMMET008NEW NSG;
0217601010999991996011006004+35733-005900SY-MT+0021GMTT V0201801N00361004801CN0060001N1+01071+00971101301ADDAA124027091AG10003AY191061AY281061GA1021+002409999GA2071+004809999GA3021+006909099GF108991081091002501999999KA1120N+01041MA1101291999999MD1210121+9999MW1801MW2811REMSYN029 333 20104 83708 86816 82923;MET008NEW NSG;
0096601010999991996011006304+35733-005900FM-15+0021GMTT V0202401N00361004801CN0060001N1+01101+01001999999ADDAG10999GA1021+002409999GA2071+004809999GA3021+006909099MA1101291999999MW1811REMMET008NEW NSG;
0109601010999991996011008004+35733-005900FM-15+0021GMTT V0203201N00771004801CN0080001N1+01401+01001999999ADDAG10999GA1021+003609999GA2071+004809999GA3021+006909099MA1101391999999REMMET008NEW NSG;EQDQ01+000000PRSWM2
0109601010999991996011008304+35733-005900FM-15+0021GMTT V0203201N00621004801CN0080001N1+01401+01001999999ADDAG10000GA1021+003609999GA2071+004809999GA3021+006909099MA1101391999999REMMET008NEW NSG;EQDQ01+000000PRSWM2
0109601010999991996011009304+35733-005900FM-15+0021GMTT V0203401N00621004801CN0080001N1+01401+00801999999ADDAG10999GA1021+003909999GA2071+004809999GA3021+006909099MA1101491999999REMMET008NEW NSG;EQDQ01+000000PRSWM2
0109601010999991996011010304+35733-005900FM-15+0021GMTT V0203201N01031004801CN0112651N1+01501+00801999999ADDAG10999GA1071+004809999GA2021+006909099GA3071+027009999MA1101591999999REMMET008NEW NSG;EQDQ01+000000PRSWM2
0211601010999991996011012004+35733-005900SY-MT+0021GMTT V0203001N00721004801CN0100001N1+01521+00921101761ADDAA106001091AG10001AY181061AY221061GA1071+004809999GA2021+006909099GA3071+024009999GF108991051031004501081999MA1101691999999MD1110241+9999MW1021REMSYN023 333 85816 81923 85358;MET008NEW NSG;EQDQ01+000000PRSWM2
0109601010999991996011012304+35733-005900FM-15+0021GMTT V0203001N00771004801CN0112651N1+01501+00901999999ADDAG10999GA1071+004809999GA2021+006909099GA3071+024009999MA1101691999999REMMET008NEW NSG;EQDQ01+000000PRSWM2
0109601010999991996011013304+35733-005900FM-15+0021GMTT V0203201N01031004801CN0112651N1+01501+00901999999ADDAG10999GA1071+004809999GA2071+027009999GA3021+220009099MA1101691999999REMMET008NEW NSG;EQDQ01+000000PRSWM2
0109601010999991996011014004+35733-005900FM-15+0021GMTT V0203201N00931004801CN0112651N1+01501+00901999999ADDAG10999GA1071+004809999GA2021+006909099GA3071+027009999MA1101691999999REMMET008NEW NSG;EQDQ01+000000PRSWM2
0183601010999991996011015004+35733-005900SY-MT+0021GMTT V0203001N00621004801CN0100001N1+01551+00771101701ADDAA106000091AG10000GA1071+004809999GA2021+006909099GA3071+027009999GF107991041021004501071999MA1101691999999MD1710061+9999REMSYN017 333 84813 88358;MET008NEW NSG;EQDQ01+000000PRSWM2
0093601010999991996011015304+35733-005900FM-15+0021GMTT V0203001N00621024001CN0112651N1+01601+00801999999ADDAG10999GA1021+003909999GA2081+024009999MA1101691999999REMMET008NEW NSG;EQDQ01+000000PRSWM2
0093601010999991996011016304+35733-005900FM-15+0021GMTT V0203001N00511004801CN0050001N1+01501+01101999999ADDAG10999GA1021+003009999GA2071+004809999GA3071+024009999MA1101591999999MW1631REMMET005NEW ;
0208601010999991996011018004+35733-005900SY-MT+0021GMTT V0202401N00721004801CN0050001N1+01351+01161101711ADDAA199006091AG10003AY161061AY221061GA1021+003009999GA2071+004809999GA3071+024009999GF108991061021004501071999KA1120M+01601MA1101691999999MD1310011+9999MW1631REMSYN029 333 10160 84710 85816 85458;MET005NEW ;
0096601010999991996011019004+35733-005900FM-15+0021GMTT V0202401N01031004801CN0050001N1+01401+01301999999ADDAG10999GA1021+003009999GA2071+004809999GA3071+024009999MA1101691999999MW1631REMMET008NEW NSG;
0096601010999991996011019304+35733-005900FM-15+0021GMTT V0202201N01031004801CN0050001N1+01401+01301999999ADDAG10999GA1021+003009999GA2071+004809999GA3071+024009999MA1101691999999MW1631REMMET008NEW NSG;
0187601010999991996011021004+35733-005900SY-MT+0021GMTT V0202201N00931004801CN0050001N1+01351+01261101621ADDAG10003AY181031AY261031GA1021+003009999GA2071+004809999GA3071+024009999GF108991061021004501071999MA1101691999999MD1610091+9999MW1631MW2811REMSYN023 333 84708 85815 85458;MET008NEW NSG;
0096601010999991996011021304+35733-005900FM-15+0021GMTT V0202201N00931004501CN0050001N1+01401+01301999999ADDAG10999GA1021+002409999GA2071+004509999GA3071+024009999MA1101591999999MW1821REMMET008NEW NSG;
0096601010999991996011022304+35733-005900FM-15+0021GMTT V0202401N00931004501CN0050001N1+01401+01301999999ADDAG10999GA1021+002409999GA2071+004509999GA3071+024009999MA1101491999999MW1801REMMET008NEW NSG;
0211601010999991996011100004+35733-005900SY-MT+0021GMTT V0202801N00821004501CN0050001N1+01691+01611101521ADDAA106030091AG10001AY181061AY221061GA1021+002409999GA2071+004509999GA3071+024009999GF108991061021002501071999MA1101491999999MD1610101+9999MW1801REMSYN023 333 84708 85815 86458;MET008NEW RERAEQDQ01+000000PRSWM2
0109601010999991996011101004+35733-005900FM-15+0021GMTT V0202801N01031004501CN0050001N1+01701+01601999999ADDAG10999GA1021+002409999GA2071+004509999GA3071+024009999MA1101491999999REMMET008NEW RERAEQDQ01+000000PRSWM2
0109601010999991996011102004+35733-005900FM-15+0021GMTT V0202801N01031004501CN0050001N1+01601+01501999999ADDAG10999GA1021+002409999GA2071+004509999GA3071+024009999MA1101491999999REMMET008NEW NSG;EQDQ01+000000PRSWM2
0211601010999991996011103004+35733-005900SY-MT+0021GMTT V0203001N00411004501CN0050001N1+01711+01571101561ADDAA106000091AG10001AY181031AY221031GA1021+002409999GA2071+004509999GA3071+024009999GF108991061021002501071999MA1101491999999MD1310041+9999MW1021REMSYN023 333 84708 85815 86458;MET008NEW NSG;EQDQ01+000000PRSWM2
0109601010999991996011104004+35733-005900FM-15+0021GMTT V0202801N00721004501CN0070001N1+01701+01601999999ADDAG10999GA1021+003009999GA2071+004509999GA3071+024009999MA1101491999999REMMET008NEW NSG;EQDQ01+000000PRSWM2
0109601010999991996011104304+35733-005900FM-15+0021GMTT V0202801N00721004501CN0070001N1+01701+01601999999ADDAG10999GA1021+003009999GA2071+004509999GA3071+024009999MA1101491999999REMMET008NEW NSG;EQDQ01+000000PRSWM2
0220601010999991996011106004+35733-005900SY-MT+0021GMTT V0202801N00771004501CN0050001N1+01651+01571101631ADDAA124039091AG10001AY181061AY221061GA1021+002409999GA2071+004509999GA3071+024009999GF108991071021002501999999KA1120N+01311MA1101491999999MD1310071+9999MW1511MW2581MW3611REMSYN029 333 20131 84710 83712 87815;MET005NEW ;
0109601010999991996011106304+35733-005900FM-15+0021GMTT V0202601N00721004501CN0050001N1+01701+01601999999ADDAG10999GA1021+002409999GA2021+003609999GA3071+004509999MA1101591999999REMMET008NEW RERAEQDQ01+000000PRSWM2
0109601010999991996011107304+35733-005900FM-15+0021GMTT V0202401N00771004501CN0050001N1+01701+01501999999ADDAG10999GA1021+002409999GA2021+003609999GA3071+004509999MA1101591999999REMMET008NEW RERAEQDQ01+000000PRSWM2
0178601010999991996011109004+35733-005900SY-MT+0021GMTT V0202801N00511004801CN0070001N1+01601+01521101751ADDAG10001AY161031AY221031GA1021+002409999GA2071+004809999GF108991081021002501999999MA1101691999999MD1110121+9999MW1211REMSYN017 333 84708 87816;MET008NEW RERAEQDQ01+000000PRSWM2
0077601010999991996011109304+35733-005900FM-15+0021GMTT V0202801N00511004801CN0050001N1+01601+01501999999ADDAG10999GA1021+002409999GA2071+004809999MA1101691999999MW1631REMMET005NEW ;
0093601010999991996011110304+35733-005900FM-15+0021GMTT V0202601N00821004801CN0070001N1+01601+01501999999ADDAG10999GA1021+002409999GA2071+004809999MA1101691999999REMMET008NEW RERAEQDQ01+000000PRSWM2
0189601010999991996011112004+35733-005900SY-MT+0021GMTT V0202601N00931004801CN0070001N1+01701+01441101781ADDAA106001091AG10001AY181061AY261061GA1021+002409999GA2071+004809999GF107991071021002501999999MA1101691999999MD1010031+9999MW1251REMSYN017 333 84710 86816;MET008NEW RERAEQDQ01+000000PRSWM2
0098601010999991996011112304+35733-005900FM-15+0021GMTT V0202201N00931004801CN0070001N1+01701+01401999999ADDAG10999GA1021+002409999GA2071+004809999MA1101691999999REMMET013NEW RERA NSG;EQDQ01+000000PRSWM2
0077601010999991996011113304+35733-005900FM-15+0021GMTT V0202401N00931999999CN0000001N1+99999+99999999999ADDAG10999REMMET039NEW 0 RA SCT008 BKN016 17/14 Q1016 NSG;EQDQ01+000000PRSWM2
0178601010999991996011115004+35733-005900SY-MT+0021GMTT V0202401N01031004801CN0080001N1+01731+01331101531ADDAG10001AY181031AY221031GA1021+002409999GA2071+004809999GF107991071021004501999999MA1101591999999MD1710241+9999MW1031REMSYN017 333 83810 86816;MET008NEW NSG;EQDQ01+000000PRSWM2
0093601010999991996011115304+35733-005900FM-15+0021GMTT V0202401N01031004801CN0080001N1+01701+01301999999ADDAG10999GA1021+003009999GA2071+004809999MA1101491999999REMMET008NEW NSG;EQDQ01+000000PRSWM2
0093601010999991996011116304+35733-005900FM-15+0021GMTT V0202401N01031004801CN0080001N1+01801+01401999999ADDAG10999GA1021+003909999GA2071+004809999MA1101391999999REMMET008NEW NSG;EQDQ01+000000PRSWM2
0208601010999991996011118004+35733-005900SY-MT+0021GMTT V0202401N00821004801CN0070001N1+01751+01231101421ADDAA199002091AG10001AY181061AY221061GA1021+003909999GA2071+004809999GF107991071021004501999999KA1120M+01811MA1101391999999MD1710111+9999MW1021REMSYN023 333 10181 83813 86816;MET008NEW NQG;EQDQ01+000000PRSWM2
0093601010999991996011118304+35733-005900FM-15+0021GMTT V0202401N00821004801CN0070001N1+01801+01201999999ADDAG10999GA1021+003909999GA2071+004809999MA1101391999999REMMET008NEW NSG;EQDQ01+000000PRSWM2
0093601010999991996011119304+35733-005900FM-15+0021GMTT V0201001N00511004801CN0070001N1+01601+01301999999ADDAG10999GA1021+003909999GA2071+004809999MA1101391999999REMMET008NEW NSG;EQDQ01+000000PRSWM2
0195601010999991996011121004+35733-005900SY-MT+0021GMTT V0202601N01231004801CN0060001N1+01601+01461101281ADDAA106999999AG10002AY181031AY261031GA1021+003909999GA2071+004809999GF108991081021002501999999MA1101291999999MD1810151+9999MW1251MW2811REMSYN017 333 84710 87816;MET008NEW NSG;EQDQ01  00002PRCP06
0077601010999991996011121304+35733-005900FM-16+0021GMTT V0202801N01231004801CN0030001N1+99999+99999999999ADDAG10001GA1021+003009999GA2071+004809999MW1811REMMET020NEW 16=15 Q1012 NSG;
0077601010999991996011122004+35733-005900FM-15+0021GMTT V0202401N01031004801CN0060001N1+01601+01501999999ADDAG10999GA1021+003009999GA2071+004809999MA1101191999999MW1801REMMET005NEW ;
0093601010999991996011122304+35733-005900FM-15+0021GMTT V0202401N01031004801CN0070001N1+01601+01501999999ADDAG10999GA1021+003009999GA2071+004809999MA1101191999999REMMET008NEW RERAEQDQ01+000000PRSWM2
0205601010999991996011200004+35733-005900SY-MT+0021GMTT V0202801N00721004801CN0080001N1+01601+01431101241ADDAA106010091AG10001AY181061AY281061GA1021+003009999GA2071+004809999GF199999061021004501001001MA1101191999999MD1710041+9999MW1011REMSYN017 333 82710 86816;MET008NEW RERAEQDQ01+000062SCOTCVQ02+000000PRSWM2
0093601010999991996011201004+35733-005900FM-15+0021GMTT V0202601N01231004801CN0060001N1+01601+01501999999ADDAG10999GA1021+003009999GA2071+004809999GA3021+006909099MA1101081999999MW1801REMMET005NEW ;
0109601010999991996011201304+35733-005900FM-15+0021GMTT V0202601N01131004801CN0060001N1+01601+01501999999ADDAG10999GA1021+003009999GA2071+004809999GA3021+006909099MA1101081999999REMMET008NEW RERAEQDQ01+000000PRSWM2
0205601010999991996011203004+35733-005900SY-MT+0021GMTT V0202601N01231004801CN0060001N1+01551+01461101161ADDAG10001AY181031AY221031GA1021+003009999GA2071+004809999GA3021+006909099GF108991081091004501999999MA1101081999999MD1610081+9999MW1251OC101541REMSYN023 333 83710 86816 82923;MET005NEW ;EQDQ01+000000PRSWM2
0117601010999991996011203304+35733-005900FM-15+0021GMTT V0202601N01441004801CN0060001N1+01601+01501999999ADDAG10999GA1021+003009999GA2071+004809999GA3021+006909099MA1101081999999OC101951REMMET008NEW NSG;EQDQ01+000000PRSWM2
0114601010999991996011205004+35733-005900FM-15+0021GMTT V0202801N00981004801CN0080001N1+01401+01101999999ADDAG10999GA1021+003009999GA2071+004809999GA3021+006909099MA1101081999999REMMET013NEW RERA NSG;EQDQ01+000000PRSWM2
0238601010999991996011206004+35733-005900SY-MT+0021GMTT V0202601N00931004801CN0080001N1+01481+00901101101ADDAA124013091AG10001AY181061AY281061GA1021+003009999GA2071+004809999GA3021+006909099GF107991071091004501999999KA1120N+01361MA1101081999999MD1810061+9999MW1011OC101441REMSYN029 333 20136 83710 86816 81923;MET008NEW NSG;EQDQ01+000000PRSWM2
0110601010999991996011206304+35733-005900FM-15+0021GMTT V0202801N00931004801CN0060001N1+01501+00901999999ADDAG10999GA1021+003009999GA2071+004809999GA3021+006909099MA1101081999999MW1811MW2951OC101951REMMET008NEW NSG;
0109601010999991996011208004+35733-005900FM-15+0021GMTT V0203001N01031006901CN0080001N1+01201+01001999999ADDAG10999GA1021+003909999GA2021+004809999GA3021+006909099MA1101191999999REMMET008NEW RETSEQDQ01+000000PRSWM2
0200601010999991996011209004+35733-005900SY-MT+0021GMTT V0203001N01441006901CN0080001N1+01371+00761101321ADDAG10002AY191031AY281031GA1021+003909999GA2021+004809999GA3021+006909099GF106991061091004501001001MA1101191999999MD1110221+9999MW1011REMSYN023 333 82813 84816 81923;MET008NEW NSG;EQDQ01+000000PRSWM2
0109601010999991996011209304+35733-005900FM-15+0021GMTT V0203201N01231006901CN0080001N1+01401+00801999999ADDAG10999GA1021+003909999GA2021+004809999GA3021+006909099MA1101291999999REMMET008NEW NSG;EQDQ01+000000PRSWM2
0109601010999991996011210304+35733-005900FM-15+0021GMTT V0203001N01031006901CN0112651N1+01501+00801999999ADDAG10999GA1021+003909999GA2021+004809999GA3021+006909099MA1101391999999REMMET008NEW NSG;EQDQ01+000000PRSWM2
0211601010999991996011212004+35733-005900SY-MT+0021GMTT V0203001N01231006901CN0080001N1+01531+00701101481ADDAA106006091AG10002AY191061AY281061GA1021+003909999GA2021+004809999GA3021+006909099GF107991071091004501999999MA1101391999999MD1110161+9999MW1251REMSYN023 333 82813 86816 82923;MET008NEW NSG;EQDQ01+000000PRSWM2
0093601010999991996011212304+35733-005900FM-15+0021GMTT V0203001N00931004801CN0080001N1+01501+00701999999ADDAG10999GA1071+004809999GA2021+006909099MA1101391999999REMMET008NEW NSG;EQDQ01+000000PRSWM2
0093601010999991996011213304+35733-005900FM-15+0021GMTT V0202801N00721004801CN0080001N1+01401+00901999999ADDAG10999GA1071+004809999GA2021+006909099MA1101391999999REMMET008NEW NSG;EQDQ01+000000PRSWM2
0205601010999991996011215004+35733-005900SY-MT+0021GMTT V0203001N00821004801CN0080001N1+01461+00951101411ADDAA106999999AG10001AY181031AY281031GA1071+004809999GA2021+006909099GF107991071091004501999999MA1101391999999MD1610031+9999MW1251REMSYN017 333 86816 83923;MET008NEW RESHEQDQ01+000000PRSWM2Q02  00002PRCP06
0093601010999991996011215304+35733-005900FM-15+0021GMTT V0203001N00821004801CN0080001N1+01501+00901999999ADDAG10999GA1071+004809999GA2021+007809999MA1101391999999REMMET008NEW NSG;EQDQ01+000000PRSWM2
0109601010999991996011216304+35733-005900FM-15+0021GMTT V0203001N01031004801CN0112651N1+01401+00901999999ADDAG10999GA1021+003009999GA2071+004809999GA3021+006909099MA1101391999999REMMET008NEW NSG;EQDQ01+000000PRSWM2
0109601010999991996011217004+35733-005900FM-15+0021GMTT V0203001N00931004801CN0080001N1+01401+00801999999ADDAG10999GA1021+003009999GA2071+004809999GA3021+006909099MA1101391999999REMMET008NEW NSG;EQDQ01+000000PRSWM2
0208601010999991996011218004+35733-005900SY-MT+0021GMTT V0203001N00931004801CN0080001N1+01381+00711101511ADDAA199007091AG10001AY181061AY281061GA1021+003009999GA2071+004809999GF107991071081004501999999KA1120M+01571MA1101491999999MD1210081+9999MW1011REMSYN023 333 10157 83810 86816;MET008NEW NSG;EQDQ01+000000PRSWM2
0080601010999991996011218304+35733-005900FM-15+0021GMTT V0203001N01031004801CN0080001N1+01401+00901999999ADDAG10999GA1021+003009999GA2071+004809999MA1101491999999MW1631REMMET008NEW NSG;
0093601010999991996011219304+35733-005900FM-15+0021GMTT V0203201N00931220001CN0080001N1+01401+00901999999ADDAG10999GA1021+003009999GA2021+004809999MA1101491999999REMMET008NEW NSG;EQDQ01+000000PRSWM2
0164601010999991996011221004+35733-005900SY-MT+0021GMTT V0203001N00821009001CN0080001N1+01451+00351101681ADDAA106000091AG10000GA1021+003009999GA2021+004809999GF106991061081004501001001MA1101591999999MD1210171+9999REMSYN017 333 83810 84616;MET005NEW ;EQDQ01+000000PRSWM2
0093601010999991996011221304+35733-005900FM-15+0021GMTT V0203201N00931220001CN0112651N1+01501+00401999999ADDAG10999GA1021+003009999GA2021+004809999MA1101591999999REMMET008NEW NSG;EQDQ01+000000PRSWM2
0093601010999991996011222304+35733-005900FM-15+0021GMTT V0203001N00931220001CN0112651N1+01401+00401999999ADDAG10999GA1021+003009999GA2021+004809999MA1101691999999REMMET008NEW NSG;EQDQ01+000000PRSWM2
0164601010999991996011300004+35733-005900SY-MT+0021GMTT V0203201N00931009001CN0100001N1+01361+00611101821ADDAA106000091AG10000GA1021+003009999GA2021+004809999GF106991061081004501001001MA1101691999999MD1210141+9999REMSYN017 333 83810 84616;MET005NEW ;EQDQ01+000000PRSWM2
0093601010999991996011300304+35733-005900FM-15+0021GMTT V0203201N00931220001CN0112651N1+01401+00601999999ADDAG10999GA1021+003009999GA2021+004809999MA1101801999999REMMET008NEW NSG;EQDQ01+000000PRSWM2
0093601010999991996011302004+35733-005900FM-15+0021GMTT V0203201N00821220001CN0112651N1+01401+00701999999ADDAG10999GA1021+003009999GA2021+004809999MA1101801999999REMMET008NEW NSG;EQDQ01+000000PRSWM2
0167601010999991996011303004+35733-005900SY-MT+0021GMTT V0203201N00821220001CN0100001N1+01251+00741101871ADDAA106000091AG10000GA1021+003009999GA2021+004809999GF104991041081004501001001MA1101801999999MD1310051+9999REMSYN017 333 82810 82616;MET008NEW NSG;EQDQ01+000000PRSWM2
0093601010999991996011303304+35733-005900FM-15+0021GMTT V0203201N00511220001CN0112651N1+01301+00701999999ADDAG10999GA1021+003009999GA2021+004809999MA1101801999999REMMET008NEW NSG;EQDQ01+000000PRSWM2
0077601010999991996011304304+35733-005900FM-15+0021GMTT V0203601N00211220001CN0112651N1+01301+00701999999ADDAG10999GA1021+003009999MA1101801999999REMMET008NEW NSG;EQDQ01+000000PRSWM2
0139601010999991996011306004+35733-005900SY-MT+0021GMTT V0203601N00101220001CN0100001N1+00841+00651101861ADDAG10000GA1021+003009999GF104991999999004501999999KA1120N+00821MA1101801999999REMSYN017 333 20082 82810;MET008NEW NSG;EQDQ01+000000PRSWM2
0077601010999991996011306304+35733-005900FM-15+0021GMTT V0203201N00411220001CN0112651N1+00801+00701999999ADDAG10999GA1021+003009999MA1101801999999REMMET008NEW NSG;EQDQ01+000000PRSWM2
0077601010999991996011307304+35733-005900FM-15+0021GMTT V0201201N00101220001CN0112651N1+00801+00601999999ADDAG10999GA1021+003009999MA1101801999999REMMET008NEW NSG;EQDQ01+000000PRSWM2
0145601010999991996011309004+35733-005900SY-MT+0021GMTT V0201001N00211036001CN0100001N1+00951+00741102021ADDAA106000091AG10000GA1021+004809999GF105991041021004501081001MA1102001999999MD1110161+9999REMSYN011 333 84816;MET008NEW NSG;EQDQ01+000000PRSWM2
0077601010999991996011309304+35733-005900FM-15+0021GMTT V0201201N00151220001CN0112651N1+01101+00801999999ADDAG10999GA1021+004809999MA1102001999999REMMET008NEW NSG;EQDQ01+000000PRSWM2
0093601010999991996011311004+35733-005900FM-15+0021GMTT V0202001N00311220001CN0112651N1+01501+00801999999ADDAG10999GA1021+004809999GA2021+069009999MA1102001999999REMMET008NEW NSG;EQDQ01+000000PRSWM2
0161601010999991996011312004+35733-005900SY-MT+0021GMTT V0202201N00411220001CN0100001N1+01521+00851102071ADDAA106000091AG10000GA1021+004809999GA2021+069009999GF104991031021004501001021MA1102001999999MD1010051+9999REMSYN011 333 83816;MET008NEW NSG;EQDQ01+000000PRSWM2
0077601010999991996011313004+35733-005900FM-15+0021GMTT V0202201N00411220001CN0112651N1+01501+00801999999ADDAG10999GA1021+004809999MA1101901999999REMMET008NEW NSG;EQDQ01+000000PRSWM2
0077601010999991996011313304+35733-005900FM-15+0021GMTT V0202201N00411220001CN0112651N1+01501+00801999999ADDAG10999GA1021+004809999MA1101901999999REMMET008NEW NSG;EQDQ01+000000PRSWM2
0167601010999991996011315004+35733-005900SY-MT+0021GMTT V0202401N00411004801CN0100001N1+01511+00831101831ADDAA106000091AG10000GA1071+004809999GF199999051021004501001021MA1101801999999MD1610241+9999REMSYN017 333 85816 83073;MET008NEW NSG;EQDQ01+000062SCOTCVQ02+000000PRSWM2
0093601010999991996011315304+35733-005900FM-15+0021GMTT V0202401N00411004801CN0112651N1+01501+00801999999ADDAG10999GA1071+004809999GA2021+069009999MA1101801999999REMMET008NEW NSG;EQDQ01+000000PRSWM2
0093601010999991996011316304+35733-005900FM-15+0021GMTT V0202201N00411004801CN0112651N1+01501+00901999999ADDAG10999GA1071+004809999GA2021+069009999MA1101691999999REMMET008NEW NSG;EQDQ01+000000PRSWM2
0202601010999991996011318004+35733-005900SY-MT+0021GMTT V0202001N00261069001CN0100001N1+01341+00931101821ADDAA106000091AG10000GA1021+004809999GA2071+069009999GF199999031021004501001021KA1120M+01591MA1101801999999MD1610011+9999REMSYN023 333 10159 83816 86073;MET008NEW NSG;EQDQ01+000062SCOTCVQ02+000000PRSWM2
0093601010999991996011318304+35733-005900FM-15+0021GMTT V0202001N00261069001CN0112651N1+01301+00901999999ADDAG10999GA1021+004809999GA2071+069009999MA1101801999999REMMET008NEW NSG;EQDQ01+000000PRSWM2
0093601010999991996011319304+35733-005900FM-15+0021GMTT V0209991C00001069001CN0112651N1+01301+00901999999ADDAG10999GA1021+004809999GA2071+069009999MA1101801999999REMMET008NEW NSG;EQDQ01+000000PRSWM2
0167601010999991996011321004+35733-005900SY-MT+0021GMTT V0201001N00311220001CN0100001N1+01231+00901101801ADDAA106000091AG10000GA1021+004809999GA2021+069009999GF104991031021004501001021MA1101801999999MD1810021+9999REMSYN017 333 83816 83073;MET008NEW NSG;EQDQ01+000000PRSWM2
0077601010999991996011321304+35733-005900FM-15+0021GMTT V0201601N00211220001CN0080001N1+01201+00901999999ADDAG10999GA1021+004809999MA1101801999999REMMET008NEW NSG;EQDQ01+000000PRSWM2
0077601010999991996011322304+35733-005900FM-15+0021GMTT V0200801N00311220001CN0112651N1+01301+00901999999ADDAG10999GA1021+004809999MA1101801999999REMMET008NEW NSG;EQDQ01+000000PRSWM2
0145601010999991996011400004+35733-005900SY-MT+0021GMTT V0200801N00311220001CN0100001N1+01051+00871101671ADDAA106000091AG10000GA1021+004809999GF103991031021004501001001MA1101691999999MD1810131+9999REMSYN011 333 83816;MET008NEW NSG;EQDQ01+000000PRSWM2
0077601010999991996011401004+35733-005900FM-15+0021GMTT V0200801N00411220001CN0112651N1+01001+00801999999ADDAG10999GA1021+004809999MA1101591999999REMMET008NEW NSG;EQDQ01+000000PRSWM2
0077601010999991996011401304+35733-005900FM-15+0021GMTT V0200801N00311220001CN0112651N1+01001+00801999999ADDAG10999GA1021+004809999MA1101591999999REMMET008NEW NSG;EQDQ01+000000PRSWM2
0145601010999991996011403004+35733-005900SY-MT+0021GMTT V0200801N00311220001CN0100001N1+00981+00821101511ADDAA106000091AG10000GA1021+004809999GF103991031021004501001001MA1101491999999MD1710161+9999REMSYN011 333 83816;MET008NEW NSG;EQDQ01+000000PRSWM2
0077601010999991996011403304+35733-005900FM-15+0021GMTT V0200801N00411220001CN0112651N1+01001+00801999999ADDAG10999GA1021+004809999MA1101491999999REMMET008NEW NSG;EQDQ01+000000PRSWM2
0077601010999991996011404304+35733-005900FM-15+0021GMTT V0201001N00311220001CN0112651N1+01001+00801999999ADDAG10999GA1021+004809999MA1101391999999REMMET008NEW NSG;EQDQ01+000000PRSWM2
0170601010999991996011406004+35733-005900SY-MT+0021GMTT V0200601N00211220001CN0100001N1+00841+00691101381ADDAA106000091AG10000GA1021+004809999GF103991011021004501001021KA1120N+00781MA1101391999999MD1810131+9999REMSYN023 333 20078 81816 83070;MET008NEW NSG;EQDQ01+000000PRSWM2
0093601010999991996011406304+35733-005900FM-15+0021GMTT V0200801N00311220001CN0112651N1+00801+00701999999ADDAG10999GA1021+004809999GA2021+060009999MA1101291999999REMMET008NEW NSG;EQDQ01+000000PRSWM2
0109601010999991996011408004+35733-005900FM-15+0021GMTT V0200801N00311024001CN0112651N1+01101+00801999999ADDAG10999GA1021+004809999GA2021+006909999GA3071+024009999MA1101291999999REMMET008NEW NSG;EQDQ01+000000PRSWM2
0189601010999991996011409004+35733-005900SY-MT+0021GMTT V0200801N00411024001CN0100001N1+01131+01011101311ADDAA106000091AG10000GA1021+004809999GA2021+006909999GA3071+024009999GF107991021081008001081021MA1101291999999MD1710071+9999REMSYN023 333 82620 84358 86073;MET008NEW NSG;EQDQ01+000000PRSWM2
0109601010999991996011409304+35733-005900FM-15+0021GMTT V0200801N00411069001CN0112651N1+01101+01001999999ADDAG10999GA1021+006009999GA2021+024009999GA3071+069009999MA1101291999999REMMET008NEW NSG;EQDQ01+000000PRSWM2
0093601010999991996011410304+35733-005900FM-15+0021GMTT V0200801N00411024001CN0112651N1+01201+01001999999ADDAG10999GA1021+006009999GA2071+024009999MA1101291999999REMMET008NEW NSG;EQDQ01+000000PRSWM2
0167601010999991996011412004+35733-005900SY-MT+0021GMTT V0201201N00411069001CN0100001N1+01651+00971101311ADDAA106000091AG10000GA1021+006009999GA2071+069009999GF107991031051008001001021MA1101291999999MD1410001+9999REMSYN017 333 83620 86073;MET008NEW NSG;EQDQ01+000000PRSWM2
0109601010999991996011413004+35733-005900FM-15+0021GMTT V0201401N00571024001CN0112651N1+01601+00901999999ADDAG10999GA1021+006009999GA2071+024009999GA3071+069009999MA1101191999999REMMET008NEW NSG;EQDQ01+000000PRSWM2
0109601010999991996011413304+35733-005900FM-15+0021GMTT V0201601N00621024001CN0112651N1+01601+00901999999ADDAG10999GA1021+006009999GA2071+024009999GA3071+069009999MA1101191999999REMMET008NEW NSG;EQDQ01+000000PRSWM2
0189601010999991996011415004+35733-005900SY-MT+0021GMTT V0201601N00411024001CN0100001N1+01661+00911101081ADDAA106000091AG10000GA1021+006009999GA2071+024009999GA3071+069009999GF107991021051004501081021MA1101081999999MD1710231+9999REMSYN023 333 82620 85358 85073;MET008NEW NSG;EQDQ01+000000PRSWM2
0109601010999991996011416004+35733-005900FM-15+0021GMTT V0201601N00461060001CN0112651N1+01601+00901999999ADDAG10999GA1021+006009999GA2021+030009999GA3071+060009999MA1100911999999REMMET008NEW NSG;EQDQ01+000000PRSWM2
0109601010999991996011416304+35733-005900FM-15+0021GMTT V0201601N00461030001CN0112651N1+01601+00901999999ADDAG10999GA1021+006009999GA2071+030009999GA3071+060009999MA1100911999999REMMET008NEW NSG;EQDQ01+000000PRSWM2
0186601010999991996011418004+35733-005900SY-MT+0021GMTT V0201401N00411004801CN0100001N1+01381+01041101061ADDAA106000091AG10000GA1071+004809999GA2071+030009999GF107991051051004501081999KA1120M+01661MA1100911999999MD1510021+9999REMSYN023 333 10166 85616 86360;MET008NEW NSG;EQDQ01+000000PRSWM2
0093601010999991996011418304+35733-005900FM-15+0021GMTT V0201401N00411004801CN0112651N1+01601+01001999999ADDAG10999GA1071+004809999GA2071+030009999MA1101021999999REMMET008NEW NSG;EQDQ01+000000PRSWM2
0093601010999991996011419304+35733-005900FM-15+0021GMTT V0201801N00411004801CN0112651N1+01301+01101999999ADDAG10999GA1071+004809999GA2071+030009999MA1101021999999REMMET008NEW NSG;EQDQ01+000000PRSWM2
0167601010999991996011421004+35733-005900SY-MT+0021GMTT V0201001N00411004801CN0100001N1+01231+00981101111ADDAA106000091AG10000GA1071+004809999GA2071+030009999GF107991051051004501081999MA1101021999999MD1310051+9999REMSYN017 333 85616 86360;MET008NEW NSG;EQDQ01+000000PRSWM2
0093601010999991996011421304+35733-005900FM-15+0021GMTT V0201001N00411030001CN0112651N1+01201+01001999999ADDAG10999GA1021+004809999GA2071+030009999MA1101081999999REMMET008NEW NSG;EQDQ01+000000PRSWM2
0093601010999991996011422304+35733-005900FM-15+0021GMTT V0200801N00511030001CN0112651N1+01201+01001999999ADDAG10999GA1021+004809999GA2071+030009999MA1101081999999REMMET008NEW NSG;EQDQ01+000000PRSWM2
0189601010999991996011500004+35733-005900SY-MT+0021GMTT V0200801N00461030001CN0100001N1+01331+01021101141ADDAA106000091AG10000GA1021+003909999GA2021+006909999GA3071+030009999GF108991051051004501071999MA1101081999999MD1310031+9999REMSYN023 333 83613 85623 86359;MET008NEW NSG;EQDQ01+000000PRSWM2
0109601010999991996011501004+35733-005900FM-15+0021GMTT V0200801N00511027001CN0080001N1+01301+01101999999ADDAG10999GA1021+003909999GA2021+006909999GA3071+027009999MA1101081999999REMMET008NEW RERAEQDQ01+000000PRSWM2
0109601010999991996011501304+35733-005900FM-15+0021GMTT V0200801N00461027001CN0080001N1+01301+01101999999ADDAG10999GA1021+003909999GA2021+006909999GA3071+027009999MA1101081999999REMMET008NEW NSG;EQDQ01+000000PRSWM2
0210601010999991996011503004+35733-005900SY-MT+0021GMTT V0201001N00461027001CN0100001N1+01221+01031101111ADDAG10001AY161031AY221031GA1021+003909999GA2021+006909999GA3071+027009999GF199999031051004501031001MA1101081999999MD1710031+9999MW1011REMSYN017 333 83620 83359;MET008NEW NSG;EQDQ01+000052SCOTCVQ02+000000PRSWM2
0093601010999991996011503304+35733-005900FM-15+0021GMTT V0201001N00461220001CN0112651N1+01201+01001999999ADDAG10999GA1021+006009999GA2021+027009999MA1101081999999REMMET008NEW NSG;EQDQ01+000000PRSWM2
0093601010999991996011504304+35733-005900FM-15+0021GMTT V0201001N00411220001CN0112651N1+01201+01001999999ADDAG10999GA1021+006009999GA2021+027009999MA1101081999999REMMET008NEW NSG;EQDQ01+000000PRSWM2
0202601010999991996011506004+35733-005900SY-MT+0021GMTT V0201001N00411220001CN0100001N1+01101+00901101101ADDAA124000191AG10000AY121061AY261061GA1021+006009999GA2021+027009999GF102991021051008001001001KA1120N+01001MA1101081999999MD1410001+9999MW1021REMSYN017 333 20100 82620;MET008NEW NSG;EQDQ01+000000PRSWM2
0077601010999991996011506304+35733-005900FM-15+0021GMTT V0201001N00411220001CN0112651N1+01101+00901999999ADDAG10999GA1021+006009999MA1101081999999REMMET008NEW NSG;EQDQ01+000000PRSWM2
0093601010999991996011508004+35733-005900FM-15+0021GMTT V0201001N00311220001CN0112651N1+01101+00901999999ADDAG10999GA1021+006009999GA2021+030009999MA1101191999999REMMET008NEW NSG;EQDQ01+000000PRSWM2
0183601010999991996011509004+35733-005900SY-MT+0021GMTT V0200801N004110360019N0100001N1+01341+01041101351ADDAA106000091AG10000GA1021+006009059GF105991021051004501081001MD1210241+9999REMSYN017 333 82620 84360;MET055NEW 0830Z XPIEPZ 10006KT 9999 SCT020 SCT100 11/09 Q1012EQDQ01+000000PRSWM2
0093601010999991996011509304+35733-005900FM-15+0021GMTT V0200801N00411220001CN0112651N1+01301+01001999999ADDAG10999GA1021+006009999GA2021+030009999MA1101291999999REMMET008NEW NSG;EQDQ01+000000PRSWM2
0093601010999991996011510304+35733-005900FM-15+0021GMTT V0200801N00411220001CN0112651N1+01401+01001999999ADDAG10999GA1021+006009999GA2021+030009999MA1101291999999REMMET008NEW NSG;EQDQ01+000000PRSWM2
0167601010999991996011512004+35733-005900SY-MT+0021GMTT V0201001N00311220001CN0100001N1+01771+01051101461ADDAA106000091AG10000GA1021+006009999GA2021+030009999GF104991021051008001081001MA1101291999999MD1210121+9999REMSYN017 333 82620 83360;MET008NEW NSG;EQDQ01+000000PRSWM2
0093601010999991996011512304+35733-005900FM-15+0021GMTT V0201001N00311220001CN0112651N1+01801+01101999999ADDAG10999GA1021+006009999GA2021+030009999MA1101391999999REMMET008NEW NSG;EQDQ01+000000PRSWM2
0093601010999991996011513304+35733-005900FM-15+0021GMTT V0201001N00311220001CN0112651N1+01801+01101999999ADDAG10999GA1021+006009999GA2021+030009999MA1101391999999REMMET008NEW NSG;EQDQ01+000000PRSWM2
0167601010999991996011515004+35733-005900SY-MT+0021GMTT V0200801N00721090001CN0100001N1+01841+01121101381ADDAA106000091AG10000GA1021+006009999GA2021+030009999GF105991021051004501001021MA1101291999999MD1610081+9999REMSYN017 333 82620 85073;MET008NEW NSG;EQDQ01+000000PRSWM2
0093601010999991996011515304+35733-005900FM-15+0021GMTT V0200801N00821069001CN0112651N1+01801+01101999999ADDAG10999GA1021+006009999GA2071+069009999MA1101291999999REMMET008NEW NSG;EQDQ01+000000PRSWM2
0093601010999991996011516304+35733-005900FM-15+0021GMTT V0200801N00821069001CN0112651N1+01801+01201999999ADDAG10999GA1021+006009999GA2071+069009999MA1101291999999REMMET008NEW NSG;EQDQ01+000000PRSWM2
0196601010999991996011518004+35733-005900SY-MT+0021GMTT V0201001N00721069001CN0100001N1+01581+01221101461ADDAA106000091AG10000GA1021+006009999GA2071+069009999GF199999021051004501001021KA1120M+01941MD1310071+9999REMSYN023 333 10194 82620 85073;MET017NEW QA Q1014 NSG;EQDQ01+000062SCOTCVQ02+000000PRSWM2
0093601010999991996011518304+35733-005900FM-15+0021GMTT V0201001N00621069001CN0112651N1+01601+01201999999ADDAG10999GA1021+006009999GA2071+069009999MA1101391999999REMMET008NEW NSG;EQDQ01+000000PRSWM2
0106601010999991996011520004+35733-005900FM-15+0021GMTT V0201001N00411069001CN0112651N1+01501+01201999999ADDAG10999GA1021+004809999GA2021+030009999GA3071+069009999MA1101391999999REMMET005NEW ;EQDQ01+000000PRSWM2
0196601010999991996011521004+35733-005900SY-MT+0021GMTT V0200801N00721220001CN0100001N1+01471+01061101511ADDAA106000091AG10000GA1021+004809999GA2021+030009999GA3071+069009999GF199999021051008001001021MA1101391999999MD1310051+9999REMSYN017 333 82620 83073;MET005NEW ;EQDQ01+000042SCOTCVQ02+000000PRSWM2
0093601010999991996011522004+35733-005900FM-15+0021GMTT V0209999999999220001CN0112651N1+01501+01101999999ADDAG10999GA1021+006009999GA2021+069009999MA1101491999999REMMET008NEW NSG;EQDQ01+000000PRSWM2
0093601010999991996011522304+35733-005900FM-15+0021GMTT V0200801N00821220001CN0112651N1+01501+01101999999ADDAG10999GA1021+006009999GA2021+069009999MA1101491999999REMMET008NEW NSG;EQDQ01+000000PRSWM2
0161601010999991996011600004+35733-005900SY-MT+0021GMTT V0200801N00821220001CN0100001N1+01431+00931101581ADDAA106000091AG10000GA1021+006009999GA2021+069009999GF104991021051008001001021MA1101491999999MD1310071+9999REMSYN011 333 82502;MET008NEW NSG;EQDQ01+000000PRSWM2
0093601010999991996011600304+35733-005900FM-15+0021GMTT V0200801N00931220001CN0112651N1+01401+00901999999ADDAG10999GA1021+006009999GA2021+069009999MA1101491999999REMMET008NEW NSG;EQDQ01+000000PRSWM2
0093601010999991996011602004+35733-005900FM-15+0021GMTT V0200801N00931069001CN0112651N1+01401+01001999999ADDAG10999GA1021+006009999GA2071+069009999MA1101491999999REMMET008NEW NSG;EQDQ01+000000PRSWM2
0183601010999991996011603004+35733-005900SY-MT+0021GMTT V0200801N01031069001CN0100001N1+01411+00951101551ADDAA106000091AG10000GA1021+006009999GA2071+069009999GF199999041051008001001021MA1101491999999MD1810031+9999REMSYN017 333 84620 85073;MET008NEW NSG;EQDQ01+000062SCOTCVQ02+000000PRSWM2
0093601010999991996011603304+35733-005900FM-15+0021GMTT V0200801N01031069001CN0112651N1+01401+01001999999ADDAG10999GA1021+006009999GA2071+069009999MA1101491999999REMMET008NEW NSG;EQDQ01+000000PRSWM2
0093601010999991996011604304+35733-005900FM-15+0021GMTT V0200801N01031069001CN0112651N1+01401+00901999999ADDAG10999GA1021+006009999GA2071+069009999MA1101491999999REMMET008NEW NSG;EQDQ01+000000PRSWM2
0202601010999991996011606004+35733-005900SY-MT+0021GMTT V0200801N00931069001CN0100001N1+01501+01071101511ADDAA106000091AG10000GA1021+006009999GA2071+069009999GF199999041051008001001021KA1120N+01401MA1101491999999MD1810041+9999REMSYN023 333 20140 84620 85073;MET008NEW NSG;EQDQ01+000062SCOTCVQ02+000000PRSWM2
0093601010999991996011606304+35733-005900FM-15+0021GMTT V0200801N00931060001CN0112651N1+01501+01101999999ADDAG10999GA1021+006009999GA2071+060009999MA1101491999999REMMET008NEW NSG;EQDQ01+000000PRSWM2
0093601010999991996011607304+35733-005900FM-15+0021GMTT V0200801N00931069001CN0112651N1+01501+01101999999ADDAG10999GA1021+006009999GA2071+069009999MA1101491999999REMMET008NEW NSG;EQDQ01+000000PRSWM2
0183601010999991996011609004+35733-005900SY-MT+0021GMTT V0201001N00101069001CN0100001N1+01451+01081101541ADDAA106000091AG10000GA1021+006009999GA2071+069009999GF199999041051004501001021MA1101491999999MD1310031+9999REMSYN017 333 84620 85073;MET008NEW NSG;EQDQ01+000062SCOTCVQ02+000000PRSWM2
0093601010999991996011609304+35733-005900FM-15+0021GMTT V0200801N00621069001CN0112651N1+01501+01101999999ADDAG10999GA1021+006009999GA2071+069009999MA1101491999999REMMET008NEW NSG;EQDQ01+000000PRSWM2
0093601010999991996011610304+35733-005900FM-15+0021GMTT V0200801N00621069001CN0112651N1+01601+01101999999ADDAG10999GA1021+006009999GA2071+069009999MA1101491999999REMMET008NEW NSG;EQDQ01+000000PRSWM2
0161601010999991996011612004+35733-005900SY-MT+0021GMTT V0200801N01031069001CN0100001N1+01641+01001101441ADDAA106000091AG10000GA1021+006009999GA2071+069009999GF108991041051004501001021MD1810101+9999REMSYN017 333 84620 86073;MET017NEW Q0 Q1015 NSG;EQDQ01+000000PRSWM2
0093601010999991996011612304+35733-005900FM-15+0021GMTT V0200801N01031069001CN0112651N1+01601+01001999999ADDAG10999GA1021+006009999GA2071+069009999MA1101391999999REMMET008NEW NSG;EQDQ01+000000PRSWM2
0093601010999991996011614004+35733-005900FM-15+0021GMTT V0200801N01131069001CN0112651N1+01701+01101999999ADDAG10999GA1021+006009999GA2071+069009999MA1101191999999REMMET008NEW NSG;EQDQ01+000000PRSWM2
0175601010999991996011615004+35733-005900SY-MT+0021GMTT V0200801N01031069001CN0100001N1+01681+01061101161ADDAA106000091AG10000GA1021+006009999GA2081+069009999GF108991021051008001001021MA1101081999999MD1710281+9999OC101651REMSYN017 333 82620 88073;MET008NEW NSG;EQDQ01+000000PRSWM2
0101601010999991996011615304+35733-005900FM-15+0021GMTT V0200801N01031069001CN0112651N1+01701+01101999999ADDAG10999GA1021+006009999GA2081+069009999MA1101081999999OC101651REMMET008NEW NSG;EQDQ01+000000PRSWM2
0082601010999991996011616304+35733-005900FM-16+0021GMTT V0201001N01031220001CN0112651N1+99999+99999999999ADDAG10999GA1021+006009999REMMET028NEW OVC 233 16/07 Q1010 NSG;EQDQ01+000000PRSWM2
0117601010999991996011617004+35733-005900FM-15+0021GMTT V0201001N01031069001CN0112651N1+01601+00901999999ADDAG10999GA1021+006009999GA2021+030009999GA3071+069009999MA1101081999999OC101541REMMET008NEW NSG;EQDQ01+000000PRSWM2
0216601010999991996011618004+35733-005900SY-MT+0021GMTT V0201001N01131069001CN0100001N1+01551+01071101151ADDAA106000091AG10000GA1021+006009999GA2021+030009999GA3071+069009999GF108991021051008001081021KA1120M+01721MA1101081999999MD1510011+9999OC101441REMSYN029 333 10172 82620 84360 86073;MET008NEW NSG;EQDQ01+000000PRSWM2
0117601010999991996011618304+35733-005900FM-15+0021GMTT V0201001N00931069001CN0112651N1+01601+01101999999ADDAG10999GA1021+006009999GA2021+030009999GA3071+069009999MA1101081999999OC101441REMMET008NEW NSG;EQDQ01+000000PRSWM2
0109601010999991996011619304+35733-005900FM-15+0021GMTT V0200801N00771069001CN0112651N1+01501+01101999999ADDAG10999GA1021+006009999GA2021+027009999GA3071+069009999MA1101081999999REMMET008NEW NSG;EQDQ01+000000PRSWM2
0189601010999991996011621004+35733-005900SY-MT+0021GMTT V0200801N00821069001CN0100001N1+01451+01071101221ADDAA106000091AG10000GA1021+006009999GA2021+030009999GA3071+069009999GF108991021051004501081021MA1101081999999MD1310071+9999REMSYN023 333 82620 84360 86073;MET008NEW NSG;EQDQ01+000000PRSWM2
0109601010999991996011621304+35733-005900FM-15+0021GMTT V0200801N00621069001CN0112651N1+01501+01101999999ADDAG10999GA1021+006009999GA2021+030009999GA3071+069009999MA1101191999999REMMET008NEW NSG;EQDQ01+000000PRSWM2
0093601010999991996011622304+35733-005900FM-15+0021GMTT V0200801N00931030001CN0112651N1+01401+01101999999ADDAG10999GA1021+004809999GA2071+030009999MA1101191999999REMMET008NEW NSG;EQDQ01+000000PRSWM2
0183601010999991996011700004+35733-005900SY-MT+0021GMTT V0200801N00621030001CN0100001N1+01531+00961101301ADDAA106000091AG10000GA1021+004809999GA2071+030009999GF199999041051004501081001MA1101191999999MD1410001+9999REMSYN017 333 84620 85073;MET008NEW NSG;EQDQ01+000062SCOTCVQ02+000000PRSWM2
0093601010999991996011700304+35733-005900FM-15+0021GMTT V0200801N00721030001CN0112651N1+01501+01001999999ADDAG10999GA1021+004809999GA2071+030009999MA1101291999999REMMET008NEW NSG;EQDQ01+000000PRSWM2
0093601010999991996011701304+35733-005900FM-15+0021GMTT V0200801N00621030001CN0112651N1+01501+01001999999ADDAG10999GA1021+004809999GA2071+030009999MA1101191999999REMMET008NEW NSG;EQDQ01+000000PRSWM2
0167601010999991996011703004+35733-005900SY-MT+0021GMTT V0200801N00621030001CN0100001N1+01491+00971101201ADDAA106000091AG10000GA1021+004809999GA2071+030009999GF108991051051004501081999MA1101191999999MD1710101+9999REMSYN017 333 85620 86360;MET008NEW NSG;EQDQ01+000000PRSWM2
0093601010999991996011703304+35733-005900FM-15+0021GMTT V0200801N00621004801CN0112651N1+01501+01001999999ADDAG10999GA1071+004809999GA2071+030009999MA1101191999999REMMET008NEW NSG;EQDQ01+000000PRSWM2
0093601010999991996011704304+35733-005900FM-15+0021GMTT V0200801N00721004801CN0112651N1+01501+00901999999ADDAG10999GA1071+004809999GA2071+030009999MA1101081999999REMMET008NEW NSG;EQDQ01+000000PRSWM2
0183601010999991996011706004+35733-005900SY-MT+0021GMTT V0200801N00621004801CN0100001N1+01441+01061101141ADDAA106000091AG10000GA1071+004809999GA2071+027009999GF108991051051008001071999KA1120N+01461MA1101081999999MD1710061+9999REMSYN023 333 20146 85616 86459;MET005NEW ;EQDQ01+000000PRSWM2
0090601010999991996011706304+35733-005900FM-15+0021GMTT V0200801N00871004801CN0112651N1+01401+01101999999ADDAG10999GA1071+004809999GA2071+027009999MA1101081999999REMMET005NEW ;EQDQ01+000000PRSWM2
0101601010999991996011708004+35733-005900FM-15+0021GMTT V0200801N00871220001CN0112651N1+01401+01101999999ADDAG10999GA1021+004809999GA2021+027009999MA1101081999999OC101441REMMET008NEW NSG;EQDQ01+000000PRSWM2
0173601010999991996011709004+35733-005900SY-MT+0021GMTT V0200801N00621036001CN0100001N1+01501+01131101191ADDAA106000091AG10000GA1021+004809999GA2021+027009999GF107991021021004501081021MA1101081999999MD1310051+9999REMSYN023 333 82816 84359 86073;MET008NEW NSG;EQDQ01+000000PRSWM2
0109601010999991996011709304+35733-005900FM-15+0021GMTT V0201001N00721069001CN0112651N1+01501+01101999999ADDAG10999GA1021+004809999GA2021+027009999GA3071+069009999MA1101081999999REMMET008NEW NSG;EQDQ01+000000PRSWM2
0109601010999991996011710304+35733-005900FM-15+0021GMTT V0200801N00671069001CN0112651N1+01501+01101999999ADDAG10999GA1021+004809999GA2021+027009999GA3071+069009999MA1101191999999REMMET008NEW NSG;EQDQ01+000000PRSWM2
0189601010999991996011712004+35733-005900SY-MT+0021GMTT V0200801N00871069001CN0100001N1+01591+01111101281ADDAA106000091AG10000GA1021+004809999GA2021+027009999GA3071+069009999GF107991021021004501081021MA1101191999999MD1110091+9999REMSYN023 333 82816 84359 86073;MET008NEW NSG;EQDQ01+000000PRSWM2
0109601010999991996011712304+35733-005900FM-15+0021GMTT V0200801N00871069001CN0112651N1+01601+01101999999ADDAG10999GA1021+004809999GA2021+027009999GA3071+069009999MA1101191999999REMMET008NEW NSG;EQDQ01+000000PRSWM2
0109601010999991996011713304+35733-005900FM-15+0021GMTT V0201001N00821069001CN0112651N1+01601+01101999999ADDAG10999GA1021+004809999GA2021+015009999GA3071+069009999MA1101191999999REMMET008NEW NSG;EQDQ01+000000PRSWM2
0189601010999991996011715004+35733-005900SY-MT+0021GMTT V0200801N00621069001CN0100001N1+01601+01081101111ADDAA106000091AG10000GA1021+004809999GA2021+015009999GA3071+069009999GF107991031021004501081021MA1101191999999MD1610171+9999REMSYN023 333 83816 84359 86070;MET008NEW NSG;EQDQ01+000000PRSWM2
0109601010999991996011715304+35733-005900FM-15+0021GMTT V0200801N00621069001CN0112651N1+01601+01101999999ADDAG10999GA1021+004809999GA2021+015009999GA3071+069009999MA1101081999999REMMET008NEW NSG;EQDQ01+000000PRSWM2
0109601010999991996011716304+35733-005900FM-15+0021GMTT V0200801N00621069001CN0112651N1+01601+01101999999ADDAG10999GA1021+004809999GA2021+015009999GA3071+069009999MA1101081999999REMMET008NEW NSG;EQDQ01+000000PRSWM2
0208601010999991996011718004+35733-005900SY-MT+0021GMTT V0200801N00721069001CN0100001N1+01521+01011101141ADDAA106000091AG10000GA1021+004809999GA2021+015009999GA3071+069009999GF107991031021004501081021KA1120M+01601MA1101081999999MD1310031+9999REMSYN029 333 10160 83816 84359 86070;MET008NEW NSG;EQDQ01+000000PRSWM2
0109601010999991996011718304+35733-005900FM-15+0021GMTT V0200801N00511069001CN0112651N1+01501+01001999999ADDAG10999GA1021+004809999GA2021+015009999GA3071+069009999MA1101081999999REMMET008NEW NSG;EQDQ01+000000PRSWM2
0109601010999991996011719304+35733-005900FM-15+0021GMTT V0200801N00511069001CN0112651N1+01501+01001999999ADDAG10999GA1021+004809999GA2021+015009999GA3071+069009999MA1101081999999REMMET008NEW NSG;EQDQ01+000000PRSWM2
0189601010999991996011721004+35733-005900SY-MT+0021GMTT V0200801N00361069001CN0100001N1+01401+00961101281ADDAA106000091AG10000GA1021+004809999GA2021+015009999GA3071+069009999GF107991031021004501081021MA1101081999999MD1310141+9999REMSYN023 333 83816 84359 86073;MET008NEW NSG;EQDQ01+000000PRSWM2
0109601010999991996011721304+35733-005900FM-15+0021GMTT V0200801N00411069001CN0112651N1+01401+01001999999ADDAG10999GA1021+004809999GA2021+027009999GA3071+069009999MA1101191999999REMMET008NEW NSG;EQDQ01+000000PRSWM2
0109601010999991996011722304+35733-005900FM-15+0021GMTT V0201201N00261069001CN0112651N1+01401+01001999999ADDAG10999GA1021+004809999GA2021+027009999GA3071+069009999MA1101291999999REMMET008NEW NSG;EQDQ01+000000PRSWM2
0189601010999991996011800004+35733-005900SY-MT+0021GMTT V0200801N00311069001CN0100001N1+01241+01011101361ADDAA106000091AG10000GA1021+004809999GA2021+027009999GA3071+069009999GF107991031021004501081021MA1101291999999MD1110071+9999REMSYN023 333 83816 84359 86073;MET008NEW NSG;EQDQ01+000000PRSWM2
0109601010999991996011800304+35733-005900FM-15+0021GMTT V0200801N00311069001CN0112651N1+01201+01001999999ADDAG10999GA1021+004809999GA2021+027009999GA3071+069009999MA1101291999999REMMET008NEW NSG;EQDQ01+000000PRSWM2
0093601010999991996011801304+35733-005900FM-15+0021GMTT V0200801N00311027001CN0080001N1+01301+01001999999ADDAG10999GA1021+004809999GA2071+027009999MA1101291999999REMMET008NEW NSG;EQDQ01+000000PRSWM2
0178601010999991996011803004+35733-005900SY-MT+0021GMTT V0200601N00311027001CN0100001N1+01171+00871101361ADDAG10001AY181031AY221031GA1021+004809999GA2071+027009999GF108991041021004501081999MA1101291999999MD1410001+9999MW1021REMSYN017 333 84816 86359;MET008NEW NSG;EQDQ01+000000PRSWM2
0093601010999991996011803304+35733-005900FM-15+0021GMTT V0200801N00411027001CN0112651N1+01201+00901999999ADDAG10999GA1021+004809999GA2071+027009999MA1101291999999REMMET008NEW NSG;EQDQ01+000000PRSWM2
0093601010999991996011804304+35733-005900FM-15+0021GMTT V0200801N00211027001CN0112651N1+01201+00901999999ADDAG10999GA1021+004809999GA2071+027009999MA1101291999999REMMET008NEW NSG;EQDQ01+000000PRSWM2
0193601010999991996011806004+35733-005900SY-MT+0021GMTT V0200401N00361027001CN0100001N1+01131+00871101281ADDAA124999929AG10001AY181061AY221061GA1071+027009999GF199999031021004501081001KA1120N+01031MD1810081+9999MW1011REMSYN023 333 20103 83816 84359;MET008NEW SNG;EQDQ01+000062SCOTCVQ02+000000PRSWM2
0093601010999991996011806304+35733-005900FM-15+0021GMTT V0200601N00311220001CN0112651N1+01101+00901999999ADDAG10999GA1021+004809999GA2021+027009999MA1101191999999REMMET008NEW NSG;EQDQ01+000000PRSWM2
0093601010999991996011808004+35733-005900FM-15+0021GMTT V0200601N00211220001CN0112651N1+01201+00901999999ADDAG10999GA1021+004809089GA2021+006909999MA1101291999999REMMET008NEW NSG;EQDQ01+000000PRSWM2
0151601010999991996011809004+35733-005900SY-MT+0021GMTT V0201001N00101009001CN0100001N1+01261+00951101401ADDAA106000091AG10000GA1021+006909999GF106991061081004501001001MA1101291999999MD1310121+9999REMSYN017 333 83816 84623;MET008NEW NSG;EQDQ01+000000PRSWM2
0093601010999991996011810004+35733-005900FM-15+0021GMTT V0201001N00211220001CN0112651N1+01301+01101999999ADDAG10999GA1021+004809089GA2021+006909999MA1101391999999REMMET008NEW RERAEQDQ01+000000PRSWM2
0093601010999991996011811004+35733-005900FM-15+0021GMTT V0200801N00311220001CN0112651N1+01501+01101999999ADDAG10999GA1021+004809089GA2021+006909999MA1101391999999REMMET008NEW NSG;EQDQ01+000000PRSWM2
0189601010999991996011812004+35733-005900SY-MT+0021GMTT V0200801N00311220001CN0100001N1+01651+01081101461ADDAA106999929AG10000AY121061AY221061GA1021+004809089GA2021+006909999GF104991041081004501001001MA1101391999999MD1010061+9999MW1211REMSYN017 333 83816 83623;MET008NEW NSG;EQDQ01+000000PRSWM2
0085601010999991996011812304+35733-005900FM-15+0021GMTT V0200801N00511220001CN0112651N1+99999+99999999999ADDAG10999GA1021+004809999REMMET031NEW TCU SCT023 17/11 Q1014 NSG;EQDQ01+000000PRSWM2
0093601010999991996011813304+35733-005900FM-15+0021GMTT V0200801N00511220001CN0112651N1+01701+01101999999ADDAG10999GA1021+004809089GA2021+006909999MA1101391999999REMMET008NEW NSG;EQDQ01+000000PRSWM2
0167601010999991996011815004+35733-005900SY-MT+0021GMTT V0200801N00511220001CN0100001N1+01581+01061101391ADDAA106000091AG10000GA1021+004809089GA2021+006909999GF104991041081004501041001MA1101391999999MD1810071+9999REMSYN017 333 83816 83623;MET008NEW NSG;EQDQ01+000000PRSWM2
0093601010999991996011815304+35733-005900FM-15+0021GMTT V0200801N00511220001CN0112651N1+01601+01101999999ADDAG10999GA1021+004809999GA2021+006909999MA1101291999999REMMET008NEW NSG;EQDQ01+000000PRSWM2
0093601010999991996011816304+35733-005900FM-15+0021GMTT V0200801N00511220001CN0112651N1+01601+01001999999ADDAG10999GA1021+004809999GA2021+006909999MA1101291999999REMMET008NEW NSG;EQDQ01+000000PRSWM2
0202601010999991996011818004+35733-005900SY-MT+0021GMTT V0200601N00621006901CN0100001N1+01451+01081101391ADDAA199999929AG10000GA1021+004809089GA2071+006909999GF199999061081004501001001KA1120M+01681MA1101291999999MD1410001+9999REMSYN023 333 10168 82816 85623;MET008NEW NSG;EQDQ01+000062SCOTCVQ02+000000PRSWM2
0093601010999991996011818304+35733-005900FM-15+0021GMTT V0200601N00411220001CN0112651N1+01401+01101999999ADDAG10999GA1021+004809999GA2021+006909999MA1101291999999REMMET008NEW NSG;EQDQ01+000000PRSWM2
0093601010999991996011819304+35733-005900FM-15+0021GMTT V0200601N00411006901CN0112651N1+01401+01101999999ADDAG10999GA1021+004809999GA2071+006909999MA1101391999999REMMET008NEW NSG;EQDQ01+000000PRSWM2
0093601010999991996011820004+35733-005900FM-15+0021GMTT V0200801N00411999999CN0112651N1+01301+01101999999ADDAG10999GA1021+006909999GA2021+220009999MA1101391999999REMMET008NEW NSG;EQDQ01+000000PRSWM2
