0296601010999992001010100004+35730-005890SY-MT+0021GMTT V0200901N002112200019N0100001N1+01061+00931101851ADDAA199000091GA1021+004809999GA2021+069009999GF104991021051004501001021MA1101801999999MD1610081+9999MW1001REMSYN076AAXX  01004 60101 32460 40904 10106 20093 40185 56008 82502 333 82616 84073;MET063GMTT 010000Z AUTO 09004KT 9999 FEW016 SCT233 11/09 Q1018 NOSIG;EQDQ01+000000PRSWM2Q02  00002PRCP99
0168601010999992001010101004+35730-005890FM-15+0021GMTT V0200901N002112200019N0112651N1+01001+00901999999ADDGA1021+004809999GA2021+069009999GF104991999999999999999999MA1101801999999MW1001REMMET058GMTT 010100Z 09004KT 9999 FEW016 SCT233 10/09 Q1018 NOSIG;EQDQ01+000000PRSWM2
0168601010999992001010102004+35730-005890FM-15+0021GMTT V0200901N001012200019N0112651N1+01001+00901999999ADDGA1021+004809999GA2021+069009999GF104991999999999999999999MA1101801999999MW1001REMMET058GMTT 010200Z 09002KT 9999 FEW016 SCT233 10/09 Q1018 NOSIG;EQDQ01+000000PRSWM2
0279601010999992001010103004+35730-005890SY-MT+0021GMTT V0200601N000512200019N0100001N1+00921+00801101821ADDAA199000091GA1021+004809999GA2021+069009999GF104991999999999999999999MA1101801999999MD1810041+9999MW1001REMSYN070AAXX  01034 60101 32460 /0601 10092 20080 40182 58004 333 83616 84073;MET052GMTT 010300Z 06001KT 9999 SCT016 SCT233 09/08 Q1018;EQDQ01+000000PRSWM2Q02  00002PRCP99
0162601010999992001010104004+35730-005890FM-15+0021GMTT V0200901N003112200019N0112651N1+01001+00901999999ADDGA1021+004809999GA2021+069009999GF104991999999999999999999MA1101691999999MW1001REMMET052GMTT 010400Z 09006KT 9999 SCT016 SCT233 10/09 Q1017;EQDQ01+000000PRSWM2
0167601010999992001010105004+35730-005890FM-15+0021GMTT V0200601N001012200019N0112651N1+00901+00801999999ADDGA1021+004809999GA2021+069009999GF104991999999999999999999MA1101691999999MW1001REMMET057GMTT 010500Z AUTO 06002KT 9999 SCT016 SCT233 09/08 Q1017;EQDQ01+000000PRSWM2
0304601010999992001010106004+35730-005890SY-MT+0021GMTT V0200801N003112200019N0100001N1+00921+00801101691ADDAA199000091GA1021+004809999GA2021+069009999GF103991021051004501001021KA1120N+00861MA1101591999999MD1810131+9999MW1001REMSYN082AAXX  01064 60101 32460 30806 10092 20080 40169 58013 82502 333 20086 82616 83073;MET052GMTT 010600Z 08006KT 9999 FEW016 SCT233 09/08 Q1016;EQDQ01+000000PRSWM2Q02  00002PRCP99
0162601010999992001010107004+35730-005890FM-15+0021GMTT V0200201N001012200019N0112651N1+00801+00701999999ADDGA1021+004809999GA2021+069009999GF104991999999999999999999MA1101691999999MW1001REMMET052GMTT 010700Z 02002KT 9999 FEW016 SCT233 08/07 Q1017;EQDQ01+000000PRSWM2
0168601010999992001010108004+35730-005890FM-15+0021GMTT V0203301N001010690019N0112651N1+00901+00701999999ADDGA1021+004809999GA2071+069009999GF107991999999999999999999MA1101691999999MW1001REMMET058GMTT 010800Z 33002KT 9999 FEW016 BKN233 09/07 Q1017 NOSIG;EQDQ01+000000PRSWM2
0307601010999992001010109004+35730-005890SY-MT+0021GMTT V0201901N002110690019N0100001N1+01131+00911101781ADDAA199000091GA1021+004809999GA2071+069009999GF199999021051004501001021MA1101691999999MD1310081+9999MW1001REMSYN076AAXX  01094 60101 32460 61904 10113 20091 40178 53008 82502 333 82616 86073;MET058GMTT 010900Z 19003KT 9999 FEW016 BKN233 11/09 Q1017 NOSIG;EQDQ01+000062SCOTCVQ02+000000PRSWM2Q03  00002PRCP99
0168601010999992001010110004+35730-005890FM-15+0021GMTT V0201901N005110690019N0112651N1+01501+01001999999ADDGA1021+004809999GA2071+069009999GF107991999999999999999999MA1101691999999MW1001REMMET058GMTT 011000Z 19010KT 9999 FEW016 BKN233 15/10 Q1017 NOSIG;EQDQ01+000000PRSWM2
0168601010999992001010111004+35730-005890FM-15+0021GMTT V0201801N007710690019N0112651N1+01701+01101999999ADDGA1021+004809999GA2071+069009999GF107991999999999999999999MA1101491999999MW1001REMMET058GMTT 011100Z 18015KT 9999 FEW016 BKN233 17/11 Q1015 NOSIG;EQDQ01+000000PRSWM2
0307601010999992001010112004+35730-005890SY-MT+0021GMTT V0201901N008210690019N0100001N1+01881+01141101631ADDAA199000091GA1021+004809999GA2071+069009999GF199999021051004501001021MA1101591999999MD1510141+9999MW1001REMSYN076AAXX  01124 60101 32460 61916 10188 20114 40163 55014 82502 333 82616 86073;MET058GMTT 011200Z 19016KT 9999 FEW016 BKN233 19/11 Q1016 NOSIG;EQDQ01+000062SCOTCVQ02+000000PRSWM2Q03  00002PRCP99
0168601010999992001010113004+35730-005890FM-15+0021GMTT V0202001N007710690019N0112651N1+01901+01001999999ADDGA1021+004809999GA2071+069009999GF107991999999999999999999MA1101591999999MW1001REMMET058GMTT 011300Z 20015KT 9999 FEW016 BKN233 19/10 Q1016 NOSIG;EQDQ01+000000PRSWM2
0168601010999992001010114004+35730-005890FM-15+0021GMTT V0202201N007712200019N0112651N1+01801+01201999999ADDGA1021+004809999GA2021+030009999GF104991999999999999999999MA1101591999999MW1001REMMET058GMTT 011400Z 22015KT 9999 FEW016 SCT100 18/12 Q1016 NOSIG;EQDQ01+000000PRSWM2
0291601010999992001010115004+35730-005890SY-MT+0021GMTT V0202001N00771036001CN0100001N1+01711+01191101531ADDAA199000091GA1021+004809999GA2021+030009999GF106991021051004501031021MA1101491999999MD1810101+9999MW1001REMSYN076AAXX  01154 60101 32460 62015 10171 20119 40153 58010 82532 333 82616 84360;MET058GMTT 011500Z 20015KT 9999 FEW016 SCT100 17/12 Q1015 NOSIG;EQDQ01+000000PRSWM2Q02  00002PRCP99
0168601010999992001010116004+35730-005890FM-15+0021GMTT V0202001N007212200019N0112651N1+01701+01301999999ADDGA1021+004809999GA2021+030009999GF104991999999999999999999MA1101491999999MW1001REMMET058GMTT 011600Z 20014KT 9999 FEW016 SCT100 17/13 Q1015 NOSIG;EQDQ01+000000PRSWM2
0191601010999992001010117004+35730-005890FM-15+0021GMTT V0202001N005710690019N0112651N1+01601+01201999999ADDGA1021+004809999GA2021+030009999GA3071+069009999GF107991999999999999999999MA1101491999999MW1001REMMET065GMTT 011700Z 20011KT 9999 FEW016 SCT100 BKN233 16/12 Q1015 NOSIG;EQDQ01+000000PRSWM2
0339601010999992001010118004+35730-005890SY-MT+0021GMTT V0201901N00571069001CN0100001N1+01571+01281101551ADDAA199000091GA1021+004809999GA2021+030009999GA3071+069009999GF107991021051004501031021KA1120M+01931MA1101491999999MD1310011+9999MW1001REMSYN088AAXX  01184 60101 32460 71911 10157 20128 40155 53001 82532 333 10193 84616 84360 85073;MET065GMTT 011800Z 19010KT 9999 SCT016 SCT100 BKN233 16/13 Q1015 NOSIG;EQDQ01+000000PRSWM2Q02  00002PRCP99
0191601010999992001010119004+35730-005890FM-15+0021GMTT V0201901N007210690019N0112651N1+01601+01301999999ADDGA1021+004809999GA2021+030009999GA3071+069009999GF107991999999999999999999MA1101491999999MW1001REMMET065GMTT 011900Z 19014KT 9999 SCT016 SCT100 BKN233 16/13 Q1015 NOSIG;EQDQ01+000000PRSWM2
0168601010999992001010120004+35730-005890FM-15+0021GMTT V0201901N007710048019N0112651N1+01601+01301999999ADDGA1071+004809999GA2071+030009999GF107991999999999999999999MA1101491999999MW1001REMMET058GMTT 012000Z 19015KT 9999 BKN016 BKN100 16/13 Q1015 NOSIG;EQDQ01+000000PRSWM2
0295601010999992001010121004+35730-005890SY-MT+0021GMTT V0202001N008710048019N0080001N1+01551+01321101591ADDAY161031AY221031GA1071+004809999GA2071+030009999GF107991051051004501031999MA1101491999999MD1310041+9999MW1611MW2631REMSYN082AAXX  01214 60101 41458 72017 10155 20132 40159 53004 76162 8553/ 333 85616 85360;MET061GMTT 012100Z 20017KT 8000 RA BKN016 BKN100 16/13 Q1015 NOSIG;EQDQ01    003PRSWM1
0195601010999992001010122004+35730-005890FM-15+0021GMTT V0202501N007210048019N0060001N1+01501+01401999999ADDGA1071+004809999GA2071+030009999GF107991999999999999999999MA1101591999999MW1631REMMET069GMTT 012200Z 25014KT 150V310 6000 RA BKN016 BKN100 15/14 Q1016 NOSIG;EQDQ01+000003PRSWM1Q02    003PRSWM1
0173601010999992001010123004+35730-005890FM-15+0021GMTT V0202201N004110048019N0080001N1+01401+01301999999ADDGA1071+004809999GA2071+030009999GF107991999999999999999999MA1101591999999MW1001REMMET063GMTT 012300Z 22008KT 8000 BKN016 BKN100 14/13 Q1016 RERA NOSIG;EQDQ01+000000PRSWM2
0307601010999992001010200004+35730-005890SY-MT+0021GMTT V0201901N004610048019N0060001N1+01431+01321101691ADDAA106006191AY161061AY261061GA1071+004809999GA2071+030009999GF108991051051004501031999MA1101591999999MD1010101+9999MW1611REMSYN088AAXX  02004 60101 11456 81909 10143 20132 40169 50010 60061 76166 8553/ 333 85616 85460;MET062GMTT 020000Z 19009KT 6000 -RA BKN016 BKN100 14/13 Q1016 NOSIG;EQDQ01    003PRSWM1
0188601010999992001010201004+35730-005890FM-15+0021GMTT V0201901N005710048019N0060001N1+01401+01301999999ADDGA1071+004809999GA2071+030009999GF107991999999999999999999MA1101591999999MW1611REMMET062GMTT 020100Z 19011KT 6000 -RA BKN016 BKN100 14/13 Q1016 NOSIG;EQDQ01+000003PRSWM1Q02    003PRSWM1
0188601010999992001010202004+35730-005890FM-15+0021GMTT V0201901N005110048019N0060001N1+01401+01301999999ADDGA1071+004809999GA2071+030009999GF107991999999999999999999MA1101591999999MW1611REMMET062GMTT 020200Z 19010KT 6000 -RA BKN016 BKN100 14/13 Q1016 NOSIG;EQDQ01+000003PRSWM1Q02    003PRSWM1
0330601010999992001010203004+35730-005890SY-MT+0021GMTT V0201901N00621030001CN0080001N1+01391+01281101661ADDAY161031AY261031GA1021+003009999GA2021+004809999GA3021+030009999GF106991041051004501071001MA1101591999999MD1810021+9999MW1211REMSYN082AAXX  02034 60101 41458 61912 10139 20128 40166 58002 72166 84570 333 82710 83616;MET070GMTT 020300Z 19012KT 8000 FEW010 SCT016 SCT100 14/13 Q1016 RERA NOSIG;EQDQ01+000000PRSWM2Q02    003PRSWM1
0168601010999992001010204004+35730-005890FM-15+0021GMTT V0201901N007212200019N0080001N1+01401+01301999999ADDGA1021+003009999GA2021+004809999GF104991999999999999999999MA1101591999999MW1001REMMET058GMTT 020400Z 19014KT 8000 FEW010 SCT016 14/13 Q1016 NOSIG;EQDQ01+000000PRSWM2
0186601010999992001010205004+35730-005890FM-15+0021GMTT V0202301N005712200019N0080001N1+01501+01301999999ADDGA1021+003009999GA2021+004809999GF104991999999999999999999MA1101691999999MW1001OC101131REMMET068GMTT 020500Z 23011G22KT 190V280 8000 FEW010 SCT016 15/13 Q1017 RERA;EQDQ01+000000PRSWM2
0344601010999992001010206004+35730-005890SY-MT+0021GMTT V0202501N00771004201CN0080001N1+01561+01231101781ADDAA124009991AY161061AY221061GA1021+003009999GA2021+004809999GF108991061051004501071001KA1120N+01391MA1101691999999MD1310071+9999MW1021REMSYN100AAXX  02064 60101 11458 82515 10156 20123 40178 53007 60104 70262 86570 90549 333 20139 82710 84616;MET058GMTT 020600Z 25015KT 8000 FEW010 SCT016 16/13 Q1017 NOSIG;EQDQ01+000000PRSWM2Q02    003PRSWM1
0168601010999992001010207004+35730-005890FM-15+0021GMTT V0202401N006712200019N0080001N1+01601+01301999999ADDGA1021+003009999GA2021+004809999GF104991999999999999999999MA1101801999999MW1001REMMET058GMTT 020700Z 24013KT 8000 FEW010 SCT016 16/13 Q1018 NOSIG;EQDQ01+000000PRSWM2
0171601010999992001010208004+35730-005890FM-15+0021GMTT V0202501N007210060019N0080001N1+01601+01201999999ADDGA1021+003009999GA2071+006009029GF107991999999999999999999MA1101901999999MW1001REMMET061GMTT 020800Z 25014KT 8000 FEW010 BKN020TCU 16/12 Q1019 NOSIG;EQDQ01+000000PRSWM2
0307601010999992001010209004+35730-005890SY-MT+0021GMTT V0202401N00721006901CN0080001N1+01611+01211102041ADDAA199000021GA1021+003009999GA2021+004809999GA3071+006909029GF107991071081004501999999MA1102001999999MD1210251+9999MW1001REMSYN082AAXX  02094 60101 32458 72414 10161 20121 40204 52025 878// 333 82710 84616 85823;MET068GMTT 020900Z 24014KT 8000 FEW010 SCT016 BKN023TCU 16/12 Q1020 NOSIG;EQDQ01+000000PRSWM2
0145601010999992001010210004+35730-005890FM-15+0021GMTT V0202501N007210048019N0112651N1+01701+01201999999ADDGA1071+004809999GF107991999999999999999999MA1102101999999MW1001REMMET051GMTT 021000Z 25014KT 9999 BKN016 17/12 Q1021 NOSIG;EQDQ01+000000PRSWM2
0145601010999992001010211004+35730-005890FM-15+0021GMTT V0202401N007710048019N0112651N1+01801+01301999999ADDGA1071+004809999GF107991999999999999999999MA1102101999999MW1001REMMET051GMTT 021100Z 24015KT 9999 BKN016 18/13 Q1021 NOSIG;EQDQ01+000000PRSWM2
0278601010999992001010212004+35730-005890SY-MT+0021GMTT V0202501N00721009001CN0100001N1+01801+01301102121ADDAA199000021GA1021+004809029GA2021+006909999GF107991071081004501999999MA1102101999999MD1010081+9999MW1001REMSYN076AAXX  02124 60101 32460 72514 10180 20130 40212 50008 878// 333 83816 84623;MET061GMTT 021200Z 26014KT 9999 SCT016TCU SCT023 18/13 Q1021 NOSIG;EQDQ01+000000PRSWM2
0171601010999992001010213004+35730-005890FM-15+0021GMTT V0202601N008212200019N0112651N1+01801+01201999999ADDGA1021+004809029GA2021+006909999GF104991999999999999999999MA1102101999999MW1001REMMET061GMTT 021300Z 26016KT 9999 SCT016TCU SCT023 18/12 Q1021 NOSIG;EQDQ01+000000PRSWM2
0171601010999992001010214004+35730-005890FM-15+0021GMTT V0202501N006212200019N0112651N1+01801+01201999999ADDGA1021+004809029GA2021+006909999GF104991999999999999999999MA1102101999999MW1001REMMET061GMTT 021400Z 25012KT 9999 SCT016TCU SCT023 18/12 Q1021 NOSIG;EQDQ01+000000PRSWM2
0307601010999992001010215004+35730-005890SY-MT+0021GMTT V0202501N006210690019N0100001N1+01781+01191102051ADDAA199000021GA1021+004809029GA2021+006909999GA3071+069009999GF107991031081004501001021MA1102001999999MD1810071+9999MW1001REMSYN082AAXX  02154 60101 32460 72512 10178 20119 40205 58007 83802 333 82816 83623 87073;MET068GMTT 021500Z 25012KT 9999 FEW016TCU SCT023 BKN233 18/12 Q1020 NOSIG;EQDQ01+000000PRSWM2
0194601010999992001010216004+35730-005890FM-15+0021GMTT V0202501N005110690019N0112651N1+01701+01301999999ADDGA1021+004809029GA2021+006909999GA3071+069009999GF107991999999999999999999MA1102001999999MW1001REMMET068GMTT 021600Z 25010KT 9999 FEW016TCU SCT023 BKN233 17/13 Q1020 NOSIG;EQDQ01+000000PRSWM2
0194601010999992001010217004+35730-005890FM-15+0021GMTT V0202601N004610690019N0112651N1+01601+01301999999ADDGA1021+004809029GA2021+006909999GA3071+069009999GF107991999999999999999999MA1102001999999MW1001REMMET068GMTT 021700Z 26009KT 9999 FEW016TCU SCT023 BKN233 16/13 Q1020 NOSIG;EQDQ01+000000PRSWM2
0333601010999992001010218004+35730-005890SY-MT+0021GMTT V0202801N004610300019N0100001N1+01531+01201102121ADDAA199000091GA1021+004809999GA2021+006009999GA3071+030009999GF107991031081004501001021KA1120M+01831MA1102101999999MD1310011+9999MW1001REMSYN088AAXX  02184 60101 32460 72809 10153 20120 40212 53001 83802 333 10183 83816 83620 85360;MET059GMTT 021800Z 28009KT 9999 SCT016 SCT020 BKN100 15/12 Q1021;EQDQ01+000000PRSWM2Q02  00002PRCP99
0185601010999992001010219004+35730-005890FM-15+0021GMTT V0202801N004110300019N0112651N1+01401+01201999999ADDGA1021+004809999GA2021+006009999GA3071+030009999GF107991999999999999999999MA1102101999999MW1001REMMET059GMTT 021900Z 28008KT 9999 SCT016 SCT020 BKN100 14/12 Q1021;EQDQ01+000000PRSWM2
0162601010999992001010220004+35730-005890FM-15+0021GMTT V0202801N003112200019N0112651N1+01401+01101999999ADDGA1021+004809999GA2021+006009999GF104991999999999999999999MA1102201999999MW1001REMMET052GMTT 022000Z 28006KT 9999 SCT016 SCT020 14/11 Q1022;EQDQ01+000000PRSWM2
0262601010999992001010221004+35730-005890SY-MT+0021GMTT V0201201N001012200019N0100001N1+01301+01101102271ADDAA199000091GA1021+004809999GF103991031021004501001001MA1102201999999MD1310151+9999MW1001REMSYN070AAXX  02214 60101 32460 31202 10130 20110 40227 53015 83200 333 83816;MET051GMTT 022100Z 12001KT 9999 SCT016 13/11 Q1022 NOSIG;EQDQ01+000000PRSWM2Q02  00002PRCP99
0168601010999992001010222004+35730-005890FM-15+0021GMTT V0201001N001512200019N0112651N1+01201+01101999999ADDGA1021+004809999GA2021+006909999GF104991999999999999999999MA1102301999999MW1001REMMET058GMTT 022200Z 10003KT 9999 FEW016 SCT023 12/11 Q1023 NOSIG;EQDQ01+000000PRSWM2
0168601010999992001010223004+35730-005890FM-15+0021GMTT V0201101N000512200019N0112651N1+01201+01001999999ADDGA1021+004809999GA2021+006909999GF104991999999999999999999MA1102301999999MW1001REMMET058GMTT 022300Z 11001KT 9999 FEW016 SCT023 12/10 Q1023 NOSIG;EQDQ01+000000PRSWM2
0291601010999992001010300004+35730-005890SY-MT+0021GMTT V0200601N001012200019N0100001N1+01061+00931102291ADDAA199000091GA1021+004809999GA2021+006909999GF104991041081004501001001MA1102201999999MD1010021+9999MW1001REMSYN076AAXX  03004 60101 32460 40602 10106 20093 40229 50002 84800 333 82816 84623;MET058GMTT 030000Z 07002KT 9999 FEW016 SCT023 11/09 Q1022 NOSIG;EQDQ01+000000PRSWM2Q02  00002PRCP99
0145601010999992001010301004+35730-005890FM-15+0021GMTT V0209999C000012200019N0112651N1+01001+00901999999ADDGA1021+006009999GF104991999999999999999999MA1102201999999MW1001REMMET051GMTT 030100Z 00000KT 9999 SCT020 10/09 Q1022 NOSIG;EQDQ01+000000PRSWM2
0145601010999992001010302004+35730-005890FM-15+0021GMTT V0200601N000512200019N0112651N1+01001+00901999999ADDGA1021+006009999GF104991999999999999999999MA1102201999999MW1001REMMET051GMTT 030200Z 06001KT 9999 SCT020 10/09 Q1022 NOSIG;EQDQ01+000000PRSWM2
0262601010999992001010303004+35730-005890SY-MT+0021GMTT V0203401N000512200019N0100001N1+01001+00881102301ADDAA199000091GA1021+006009999GF103991031051008001001001MA1102301999999MD1310011+9999MW1001REMSYN070AAXX  03034 60101 32560 33401 10100 20088 40230 53001 83500 333 83620;MET051GMTT 030300Z 00000KT 9999 SCT020 10/09 Q1023 NOSIG;EQDQ01+000000PRSWM2Q02  00002PRCP99
0145601010999992001010304004+35730-005890FM-15+0021GMTT V0209999C000010048019N0112651N1+01201+01101999999ADDGA1071+004809999GF107991999999999999999999MA1102301999999MW1001REMMET051GMTT 030400Z 00000KT 9999 BKN016 12/11 Q1023 NOSIG;EQDQ01+000000PRSWM2
0168601010999992001010305004+35730-005890FM-15+0021GMTT V0202001N001010048019N0080001N1+01301+01201999999ADDGA1021+003009999GA2071+004809999GF107991999999999999999999MA1102201999999MW1001REMMET058GMTT 030500Z 20002KT 8000 FEW010 BKN016 13/12 Q1022 NOSIG;EQDQ01+000000PRSWM2
0348601010999992001010306004+35730-005890SY-MT+0021GMTT V0202301N001010048019N0060001N1+01281+01161102311ADDAA124000191AY161061AY221061GA1021+003009999GA2071+004809999GF199999061051004501001001KA1120N+00951MA1102301999999MD1010011+9999MW1601MW2611REMSYN094AAXX  03064 60101 11456 62302 10128 20116 40231 50001 69924 76062 86500 333 20095 83710 86616;MET062GMTT 030600Z 23003KT 6000 -RA SCT010 BKN016 13/12 Q1023 NOSIG;EQDQ01+000062SCOTCVQ02    003PRSWM1
0168601010999992001010307004+35730-005890FM-15+0021GMTT V0202701N001510048019N0060001N1+01301+01201999999ADDGA1021+002409999GA2071+004809999GF107991999999999999999999MA1102301999999MW1001REMMET058GMTT 030700Z 27003KT 6000 SCT008 BKN016 13/12 Q1023 NOSIG;EQDQ01+000000PRSWM2
0168601010999992001010308004+35730-005890FM-15+0021GMTT V0201801N001010048019N0080001N1+01301+01201999999ADDGA1021+002409999GA2071+004809999GF107991999999999999999999MA1102301999999MW1001REMMET058GMTT 030800Z 18002KT 8000 SCT008 BKN016 13/12 Q1023 NOSIG;EQDQ01+000000PRSWM2
0302601010999992001010309004+35730-005890SY-MT+0021GMTT V0201801N005110048019N0080001N1+01311+01191102391ADDAY161031AY221031GA1021+002409999GA2071+004809999GF107991071051002501999999MA1102301999999MD1310071+9999MW1021REMSYN082AAXX  03094 60101 41358 71810 10131 20119 40239 53007 70262 875// 333 83708 86616;MET058GMTT 030900Z 18010KT 8000 SCT008 BKN016 13/12 Q1023 NOSIG;EQDQ01+000000PRSWM2Q02    003PRSWM1
0145601010999992001010310004+35730-005890FM-15+0021GMTT V0201901N004110060019N0112651N1+01501+01301999999ADDGA1071+006009999GF107991999999999999999999MA1102401999999MW1001REMMET051GMTT 031000Z 19008KT 9999 BKN020 15/13 Q1024 NOSIG;EQDQ01+000000PRSWM2
0145601010999992001010311004+35730-005890FM-15+0021GMTT V0201901N004110060019N0112651N1+01601+01301999999ADDGA1071+006009999GF107991999999999999999999MA1102401999999MW1001REMMET051GMTT 031100Z 19008KT 9999 BKN020 16/13 Q1024 NOSIG;EQDQ01+000000PRSWM2
0290601010999992001010312004+35730-005890SY-MT+0021GMTT V0202001N005112200019N0100001N1+01791+01361102421ADDAA106000591AY161061AY221061GA1021+006009999GF103991031021008001001001MA1102401999999MD1010031+9999MW1021REMSYN082AAXX  03124 60101 11560 32010 10179 20136 40242 50003 69961 70262 83200 333 83820;MET051GMTT 031200Z 20009KT 9999 SCT020 18/13 Q1024 NOSIG;EQDQ01+000000PRSWM2Q02    003PRSWM1
0148601010999992001010313004+35730-005890FM-15+0021GMTT V0202401N005112200019N0112651N1+01801+01301999999ADDGA1021+006009029GF104991999999999999999999MA1102301999999MW1001REMMET054GMTT 031300Z 24010KT 9999 SCT020TCU 18/13 Q1023 NOSIG;EQDQ01+000000PRSWM2
0171601010999992001010314004+35730-005890FM-15+0021GMTT V0202501N005712200019N0112651N1+01701+01401999999ADDGA1021+004809999GA2021+006009029GF102991999999999999999999MA1102301999999MW1001REMMET061GMTT 031400Z 25011KT 9999 SCT016 FEW020TCU 17/14 Q1023 NOSIG;EQDQ01+000000PRSWM2
0278601010999992001010315004+35730-005890SY-MT+0021GMTT V0202401N005110360019N0100001N1+01721+01351102281ADDAA199000021GA1021+004809999GA2021+006009029GF106991041021004501081021MA1102201999999MD1710141+9999MW1001REMSYN076AAXX  03154 60101 32460 62410 10172 20135 40228 57014 84282 333 83816 82820;MET061GMTT 031500Z 24010KT 9999 SCT016 FEW020TCU 17/14 Q1022 NOSIG;EQDQ01+000000PRSWM2
0171601010999992001010316004+35730-005890FM-15+0021GMTT V0202301N004612200019N0112651N1+01701+01301999999ADDGA1021+004809999GA2021+006009029GF102991999999999999999999MA1102201999999MW1001REMMET061GMTT 031600Z 23009KT 9999 SCT016 FEW020TCU 17/13 Q1022 NOSIG;EQDQ01+000000PRSWM2
0191601010999992001010317004+35730-005890FM-15+0021GMTT V0202401N004110690019N0112651N1+01601+01301999999ADDGA1021+004809999GA2021+027009999GA3071+069009999GF107991999999999999999999MA1102301999999MW1001REMMET065GMTT 031700Z 24008KT 9999 SCT016 SCT090 BKN233 16/13 Q1023 NOSIG;EQDQ01+000000PRSWM2
0180601010999992001010318004+35730-005890FM-12+0021GMTT V0202401N00411036001CN0100001N1+01521+01261102331ADDAA112000191GA1041+004809069GF107991041051004501081021KA1120M+01801MD1510011+9999REMSYN088AAXX  03184 60101 13460 72408 10152 20126 40233 55001 69922 84582 333 10180 84616 85359;
0168601010999992001010318304+35730-005890FM-15+0021GMTT V0202301N004110270019N0112651N1+01501+01201999999ADDGA1021+004809999GA2071+027009999GF107991999999999999999999MA1102301999999MW1001REMMET058GMTT 031830Z 23008KT 9999 SCT016 BKN090 15/12 Q1023 NOSIG;EQDQ01+000000PRSWM2
0168601010999992001010319004+35730-005890FM-15+0021GMTT V0202201N003610270019N0112651N1+01501+01201999999ADDGA1021+004809999GA2071+027009999GF107991999999999999999999MA1102301999999MW1001REMMET058GMTT 031900Z 22007KT 9999 SCT016 BKN090 15/12 Q1023 NOSIG;EQDQ01+000000PRSWM2
0168601010999992001010320004+35730-005890FM-15+0021GMTT V0202301N003610270019N0112651N1+01501+01201999999ADDGA1021+004809999GA2071+027009999GF107991999999999999999999MA1102401999999MW1001REMMET058GMTT 032000Z 23007KT 9999 SCT016 BKN090 15/12 Q1024 NOSIG;EQDQ01+000000PRSWM2
0291601010999992001010321004+35730-005890SY-MT+0021GMTT V0202201N004610090019N0100001N1+01551+01291102481ADDAA199000091GA1021+004809999GA2071+009009999GF107991071081004501999999MA1102401999999MD1310151+9999MW1001REMSYN076AAXX  03214 60101 32460 72209 10155 20129 40248 53015 878// 333 84816 85630;MET058GMTT 032100Z 22009KT 9999 SCT016 BKN030 16/13 Q1024 NOSIG;EQDQ01+000000PRSWM2Q02  00002PRCP99
0168601010999992001010322004+35730-005890FM-15+0021GMTT V0202201N004110090019N0112651N1+01501+01201999999ADDGA1021+004809999GA2071+009009999GF107991999999999999999999MA1102401999999MW1001REMMET058GMTT 032200Z 22008KT 9999 SCT016 BKN030 15/12 Q1024 NOSIG;EQDQ01+000000PRSWM2
0168601010999992001010323004+35730-005890FM-15+0021GMTT V0201901N003610090019N0112651N1+01401+01201999999ADDGA1021+004809999GA2071+009009999GF107991999999999999999999MA1102401999999MW1001REMMET058GMTT 032300Z 19007KT 9999 SCT016 BKN030 14/12 Q1024 NOSIG;EQDQ01+000000PRSWM2
0291601010999992001010400004+35730-005890SY-MT+0021GMTT V0202001N004610075019N0100001N1+01401+01191102511ADDAA199000091GA1021+004809999GA2071+007509999GF107991071081004501999999MA1102511999999MD1010031+9999MW1001REMSYN076AAXX  04004 60101 32460 72009 10140 20119 40251 50003 878// 333 84816 85625;MET058GMTT 040000Z 20009KT 9999 SCT016 BKN025 14/12 Q1025 NOSIG;EQDQ01+000000PRSWM2Q02  00002PRCP99
0168601010999992001010401004+35730-005890FM-15+0021GMTT V0201901N005710075019N0112651N1+01401+01201999999ADDGA1021+004809999GA2071+007509999GF107991999999999999999999MA1102401999999MW1001REMMET058GMTT 040100Z 19011KT 9999 SCT016 BKN025 14/12 Q1024 NOSIG;EQDQ01+000000PRSWM2
0168601010999992001010402004+35730-005890FM-15+0021GMTT V0201901N005110075019N0112651N1+01401+01201999999ADDGA1021+004809999GA2071+007509999GF107991999999999999999999MA1102511999999MW1001REMMET058GMTT 040200Z 19010KT 9999 SCT016 BKN025 14/12 Q1025 NOSIG;EQDQ01+000000PRSWM2
0291601010999992001010403004+35730-005890SY-MT+0021GMTT V0201901N005110075019N0100001N1+01421+01211102511ADDAA199000091GA1021+004809999GA2071+007509999GF107991071081004501999999MA1102511999999MD1510001+9999MW1001REMSYN076AAXX  04034 60101 32460 71910 10142 20121 40251 55000 878// 333 84816 85625;MET058GMTT 040300Z 19010KT 9999 SCT016 BKN025 14/12 Q1025 NOSIG;EQDQ01+000000PRSWM2Q02  00002PRCP99
0168601010999992001010404004+35730-005890FM-15+0021GMTT V0201901N005710075019N0112651N1+01401+01201999999ADDGA1021+004809999GA2071+007509999GF107991999999999999999999MA1102401999999MW1001REMMET058GMTT 040400Z 19011KT 9999 SCT016 BKN025 14/12 Q1024 NOSIG;EQDQ01+000000PRSWM2
0168601010999992001010405004+35730-005890FM-15+0021GMTT V0201901N006710075019N0112651N1+01401+01201999999ADDGA1021+004809999GA2071+007509999GF107991999999999999999999MA1102401999999MW1001REMMET058GMTT 040500Z 19013KT 9999 SCT016 BKN025 14/12 Q1024 NOSIG;EQDQ01+000000PRSWM2
0300601010999992001010406004+35730-005890SY-MT+0021GMTT V0201901N006710075019N0100001N1+01441+01171102491ADDAA124000591GA1021+004809999GA2071+007509999GF107991071081004501999999KA1120N+01351MA1102401999999MD1510051+9999MW1001REMSYN088AAXX  04064 60101 12460 71913 10144 20117 40249 55005 69964 878// 333 20135 84816 85625;MET058GMTT 040600Z 19013KT 9999 SCT016 BKN025 14/12 Q1024 NOSIG;EQDQ01+000000PRSWM2
0168601010999992001010407004+35730-005890FM-15+0021GMTT V0201901N006210075019N0112651N1+01401+01201999999ADDGA1021+004809999GA2071+007509999GF107991999999999999999999MA1102511999999MW1001REMMET058GMTT 040700Z 19012KT 9999 SCT016 BKN025 14/12 Q1025 NOSIG;EQDQ01+000000PRSWM2
0191601010999992001010408004+35730-005890FM-15+0021GMTT V0201901N005110300019N0112651N1+01501+01201999999ADDGA1021+003909999GA2021+006909999GA3071+030009999GF107991999999999999999999MA1102511999999MW1001REMMET065GMTT 040800Z 19010KT 9999 FEW013 SCT023 BKN100 15/12 Q1025 NOSIG;EQDQ01+000000PRSWM2
0331601010999992001010409004+35730-005890SY-MT+0021GMTT V0201901N005710300019N0100001N1+01491+01111102561ADDAY161031AY221031GA1021+003909999GA2021+006909999GA3071+030009999GF107991041081004501071999MA1102511999999MD1110071+9999MW1021REMSYN088AAXX  04094 60101 41460 71911 10149 20111 40256 51007 70262 8487/ 333 82813 83623 86360;MET065GMTT 040900Z 19011KT 9999 FEW013 SCT023 BKN100 15/11 Q1025 NOSIG;EQDQ01+000000PRSWM2Q02    003PRSWM1
0191601010999992001010410004+35730-005890FM-15+0021GMTT V0201901N005710069019N0112651N1+01601+01101999999ADDGA1021+003909999GA2071+006909999GA3071+030009999GF107991999999999999999999MA1102611999999MW1001REMMET065GMTT 041000Z 19011KT 9999 FEW013 BKN023 BKN100 16/11 Q1026 NOSIG;EQDQ01+000000PRSWM2
0191601010999992001010411004+35730-005890FM-15+0021GMTT V0202001N005110069019N0112651N1+01601+01101999999ADDGA1021+003909999GA2071+006909999GA3071+030009999GF107991999999999999999999MA1102611999999MW1001REMMET065GMTT 041100Z 20010KT 9999 FEW013 BKN023 BKN100 16/11 Q1026 NOSIG;EQDQ01+000000PRSWM2
0348601010999992001010412004+35730-005890SY-MT+0021GMTT V0202001N004110069019N0100001N1+01621+01111102571ADDAA106000191AY161061AY221061GA1021+003909999GA2071+006909999GA3071+030009999GF107991051081004501071999MA1102511999999MD1810011+9999MW1021REMSYN094AAXX  04124 60101 11460 72008 10162 20111 40257 58001 69921 70262 8587/ 333 82813 85623 85360;MET065GMTT 041200Z 20008KT 9999 FEW013 BKN023 BKN100 16/11 Q1025 NOSIG;EQDQ01+000000PRSWM2Q02    003PRSWM1
0191601010999992001010413004+35730-005890FM-15+0021GMTT V0202201N004610069019N0112651N1+01801+01201999999ADDGA1021+003909999GA2071+006909999GA3071+030009999GF107991999999999999999999MA1102511999999MW1001REMMET065GMTT 041300Z 22009KT 9999 FEW013 BKN023 BKN100 18/12 Q1025 NOSIG;EQDQ01+000000PRSWM2
0191601010999992001010414004+35730-005890FM-15+0021GMTT V0202301N005110069019N0112651N1+01701+01201999999ADDGA1021+003909999GA2071+006909999GA3071+030009999GF107991999999999999999999MA1102401999999MW1001REMMET065GMTT 041400Z 23010KT 9999 FEW013 BKN023 BKN100 17/12 Q1024 NOSIG;EQDQ01+000000PRSWM2
0320601010999992001010415004+35730-005890SY-MT+0021GMTT V0202101N004110069019N0100001N1+01651+01221102451ADDAA199000091GA1021+003909999GA2071+006909999GA3071+030009999GF107991051081004501071999MA1102401999999MD1610181+9999MW1001REMSYN082AAXX  04154 60101 32460 72108 10165 20122 40245 56018 8587/ 333 82813 85623 85360;MET065GMTT 041500Z 21008KT 9999 FEW013 BKN023 BKN100 17/12 Q1024 NOSIG;EQDQ01+000000PRSWM2Q02  00002PRCP99
0168601010999992001010416004+35730-005890FM-15+0021GMTT V0202101N004110300019N0112651N1+01701+01101999999ADDGA1021+006909999GA2071+030009999GF107991999999999999999999MA1102401999999MW1001REMMET058GMTT 041600Z 21008KT 9999 SCT023 BKN100 17/11 Q1024 NOSIG;EQDQ01+000000PRSWM2
0168601010999992001010417004+35730-005890FM-15+0021GMTT V0202501N002110300019N0112651N1+01601+01201999999ADDGA1021+006909999GA2071+030009999GF107991999999999999999999MA1102401999999MW1001REMMET058GMTT 041700Z 25004KT 9999 SCT023 BKN100 16/12 Q1024 NOSIG;EQDQ01+000000PRSWM2
0300601010999992001010418004+35730-005890SY-MT+0021GMTT V0202501N001010300019N0100001N1+01421+01171102471ADDAA112000191GA1021+006909999GA2071+030009999GF107991041051008001071999KA1120M+01831MA1102401999999MD1510021+9999MW1001REMSYN088AAXX  04184 60101 12560 72502 10142 20117 40247 55002 69922 8457/ 333 10183 84623 85360;MET058GMTT 041800Z 25002KT 9999 SCT023 BKN100 14/12 Q1024 NOSIG;EQDQ01+000000PRSWM2
0168601010999992001010419004+35730-005890FM-15+0021GMTT V0201801N000512200019N0112651N1+01401+01201999999ADDGA1021+006909999GA2021+030009999GF104991999999999999999999MA1102401999999MW1001REMMET058GMTT 041900Z 18001KT 9999 FEW023 SCT100 14/12 Q1024 NOSIG;EQDQ01+000000PRSWM2
0168601010999992001010420004+35730-005890FM-15+0021GMTT V0201801N002110300019N0112651N1+01401+01301999999ADDGA1021+006909999GA2071+030009999GF107991999999999999999999MA1102401999999MW1001REMMET058GMTT 042000Z 18004KT 9999 FEW023 BKN100 14/13 Q1024 NOSIG;EQDQ01+000000PRSWM2
0291601010999992001010421004+35730-005890SY-MT+0021GMTT V0202901N000510300019N0100001N1+01381+01201102451ADDAA199000091GA1021+006909999GA2071+030009999GF107991041051008001071999MA1102401999999MD1010021+9999MW1001REMSYN076AAXX  04214 60101 32560 72901 10138 20120 40245 50002 8457/ 333 84623 86360;MET058GMTT 042100Z 29001KT 9999 SCT023 BKN100 14/12 Q1024 NOSIG;EQDQ01+000000PRSWM2Q02  00002PRCP99
0145601010999992001010422004+35730-005890FM-15+0021GMTT V0201801N002612200019N0080001N1+01401+01101999999ADDGA1021+006009999GF104991999999999999999999MA1102401999999MW1001REMMET051GMTT 042200Z 18005KT 8000 SCT020 14/11 Q1024 NOSIG;EQDQ01+000000PRSWM2
0176601010999992001010423004+35730-005890FM-15+0021GMTT V0201801N002112200019N0080001N1+01301+01101999999ADDGA1021+006009999GA2021+030009999GF104991999999999999999999MA1102401999999MW1001REMMET066GMTT 042300Z 18004KT 160V220 8000 SCT020 SCT100 13/11 Q1024 NOSIG;EQDQ01+000000PRSWM2
0297601010999992001010500004+35730-005890SY-MT+0021GMTT V0202001N001512200019N0080001N1+01321+01091102381ADDAA199000091GA1021+006009999GA2021+030009999GF103991011051008001081001MA1102301999999MD1810031+9999MW1001REMSYN082AAXX  05004 60101 32558 32003 10132 20109 40238 58003 81580 92350 333 81620 83360;MET058GMTT 050000Z 20003KT 8000 FEW020 SCT100 13/11 Q1023 NOSIG;EQDQ01+000000PRSWM2Q02  00002PRCP99
0168601010999992001010501004+35730-005890FM-15+0021GMTT V0202101N000512200019N0080001N1+01301+01101999999ADDGA1021+006009999GA2021+030009999GF104991999999999999999999MA1102201999999MW1001REMMET058GMTT 050100Z 21001KT 8000 FEW020 SCT100 13/11 Q1022 NOSIG;EQDQ01+000000PRSWM2
0168601010999992001010502004+35730-005890FM-15+0021GMTT V0201901N001512200019N0080001N1+01301+01101999999ADDGA1021+006009999GA2021+030009999GF104991999999999999999999MA1102201999999MW1001REMMET058GMTT 050200Z 19003KT 8000 FEW020 SCT100 13/11 Q1022 NOSIG;EQDQ01+000000PRSWM2
0291601010999992001010503004+35730-005890SY-MT+0021GMTT V0203101N000512200019N0080001N1+01291+01111102161ADDAA199000091GA1021+006009999GA2021+030009999GF103991011051008001081001MA1102101999999MD1810241+9999MW1001REMSYN076AAXX  05034 60101 32558 33101 10129 20111 40216 58024 81580 333 81620 83360;MET058GMTT 050300Z 28001KT 8000 FEW020 SCT100 13/11 Q1021 NOSIG;EQDQ01+000000PRSWM2Q02  00002PRCP99
0168601010999992001010504004+35730-005890FM-15+0021GMTT V0202601N001012200019N0080001N1+01301+01101999999ADDGA1021+006009999GA2021+030009999GF104991999999999999999999MA1102101999999MW1001REMMET058GMTT 050400Z 26002KT 8000 FEW020 SCT100 13/11 Q1021 NOSIG;EQDQ01+000000PRSWM2
0168601010999992001010505004+35730-005890FM-15+0021GMTT V0202701N001512200019N0080001N1+01201+01001999999ADDGA1021+006009999GA2021+030009999GF104991999999999999999999MA1102001999999MW1001REMMET058GMTT 050500Z 27003KT 8000 FEW020 SCT100 12/10 Q1020 NOSIG;EQDQ01+000000PRSWM2
0300601010999992001010506004+35730-005890SY-MT+0021GMTT V0209999C000012200019N0080001N1+01061+00901102051ADDAA124000191GA1021+006009999GA2021+030009999GF103991011051008001081001KA1120N+01061MA1102001999999MD1610111+9999MW1001REMSYN088AAXX  05064 60101 12558 30000 10106 20090 40205 56011 69924 81580 333 20106 81620 83360;MET058GMTT 050600Z 00000KT 8000 FEW020 SCT100 11/09 Q1020 NOSIG;EQDQ01+000000PRSWM2
0168601010999992001010507004+35730-005890FM-15+0021GMTT V0201701N001012200019N0080001N1+01201+01101999999ADDGA1021+006009999GA2021+030009999GF104991999999999999999999MA1102001999999MW1001REMMET058GMTT 050700Z 17002KT 8000 FEW020 SCT100 12/11 Q1020 NOSIG;EQDQ01+000000PRSWM2
0168601010999992001010508004+35730-005890FM-15+0021GMTT V0209999C000012200019N0060001N1+01101+00901999999ADDGA1021+006009999GA2021+069009999GF104991999999999999999999MA1102001999999MW1001REMMET058GMTT 050800Z 00000KT 6000 FEW020 SCT233 11/09 Q1020 NOSIG;EQDQ01+000000PRSWM2
0291601010999992001010509004+35730-005890SY-MT+0021GMTT V0201801N001512200019N0080001N1+01311+01201102061ADDAA199000091GA1021+006009999GA2021+069009999GF104991011051008001001021MA1102001999999MD1510001+9999MW1001REMSYN076AAXX  05094 60101 32558 41803 10131 20120 40206 55000 81502 333 81620 84073;MET058GMTT 050900Z 18003KT 8000 FEW020 SCT233 13/12 Q1020 NOSIG;EQDQ01+000000PRSWM2Q02  00002PRCP99
0168601010999992001010510004+35730-005890FM-15+0021GMTT V0202001N003112200019N0112651N1+01501+01201999999ADDGA1021+006009999GA2021+069009999GF104991999999999999999999MA1102001999999MW1001REMMET058GMTT 051000Z 20006KT 9999 FEW020 SCT233 15/12 Q1020 NOSIG;EQDQ01+000000PRSWM2
0168601010999992001010511004+35730-005890FM-15+0021GMTT V0202101N005112200019N0112651N1+01601+01201999999ADDGA1021+006009999GA2021+069009999GF104991999999999999999999MA1102001999999MW1001REMMET058GMTT 051100Z 21010KT 9999 FEW020 SCT233 16/12 Q1020 NOSIG;EQDQ01+000000PRSWM2
0291601010999992001010512004+35730-005890SY-MT+0021GMTT V0202301N007712200019N0100001N1+01741+01281102031ADDAA199000091GA1021+006009999GA2021+069009999GF104991011051008001001021MA1102001999999MD1810031+9999MW1001REMSYN076AAXX  05124 60101 32560 42315 10174 20128 40203 58003 81502 333 81620 84073;MET058GMTT 051200Z 23015KT 9999 FEW020 SCT233 17/13 Q1020 NOSIG;EQDQ01+000000PRSWM2Q02  00002PRCP99
0168601010999992001010513004+35730-005890FM-15+0021GMTT V0202101N006712200019N0112651N1+01701+01401999999ADDGA1021+006009999GA2021+069009999GF104991999999999999999999MA1101901999999MW1001REMMET058GMTT 051300Z 21013KT 9999 FEW020 SCT233 17/14 Q1019 NOSIG;EQDQ01+000000PRSWM2
0168601010999992001010514004+35730-005890FM-15+0021GMTT V0202201N007210690019N0080001N1+01701+01401999999ADDGA1021+006009999GA2071+069009999GF107991999999999999999999MA1101801999999MW1001REMMET058GMTT 051400Z 22014KT 8000 FEW020 BKN233 17/14 Q1018 NOSIG;EQDQ01+000000PRSWM2
0307601010999992001010515004+35730-005890SY-MT+0021GMTT V0202301N007710690019N0080001N1+01761+01391101801ADDAA199000091GA1021+006009999GA2071+069009999GF199999011051008001001021MA1101801999999MD1810221+9999MW1001REMSYN076AAXX  05154 60101 32558 62315 10176 20139 40180 58022 81502 333 81620 86073;MET058GMTT 051500Z 24015KT 8000 FEW020 BKN233 18/14 Q1018 NOSIG;EQDQ01+000062SCOTCVQ02+000000PRSWM2Q03  00002PRCP99
0168601010999992001010516004+35730-005890FM-15+0021GMTT V0202101N007210690019N0080001N1+01801+01401999999ADDGA1021+006009999GA2071+069009999GF107991999999999999999999MA1101691999999MW1001REMMET058GMTT 051600Z 21014KT 8000 FEW020 BKN233 18/14 Q1017 NOSIG;EQDQ01+000000PRSWM2
0199601010999992001010517004+35730-005890FM-15+0021GMTT V0202001N007210600019N0080001N1+01601+01301999999ADDGA1021+006009999GA2021+030009999GA3071+060009999GF107991999999999999999999MA1101591999999MW1001REMMET073GMTT 051700Z 20014KT 180V240 8000 FEW020 SCT100 BKN200 16/13 Q1016 NOSIG;EQDQ01+000000PRSWM2
0339601010999992001010518004+35730-005890SY-MT+0021GMTT V0202201N00571060001CN0080001N1+01581+01291101681ADDAA199000091GA1021+006009999GA2021+030009999GA3071+060009999GF107991021051008001001021KA1120M+01771MA1101591999999MD1610131+9999MW1001REMSYN088AAXX  05184 60101 32558 72211 10158 20129 40168 56013 82502 333 10177 82620 83360 85070;MET065GMTT 051800Z 22011KT 8000 FEW020 SCT100 BKN200 16/13 Q1016 NOSIG;EQDQ01+000000PRSWM2Q02  00002PRCP99
0191601010999992001010519004+35730-005890FM-15+0021GMTT V0201901N005110600019N0080001N1+01501+01301999999ADDGA1021+006009999GA2021+030009999GA3071+060009999GF107991999999999999999999MA1101591999999MW1001REMMET065GMTT 051900Z 19010KT 8000 FEW020 SCT100 BKN200 15/13 Q1016 NOSIG;EQDQ01+000000PRSWM2
0191601010999992001010520004+35730-005890FM-15+0021GMTT V0201901N004610600019N0080001N1+01501+01301999999ADDGA1021+006009999GA2021+030009999GA3071+060009999GF107991999999999999999999MA1101591999999MW1001REMMET065GMTT 052000Z 19009KT 8000 FEW020 SCT100 BKN200 15/13 Q1016 NOSIG;EQDQ01+000000PRSWM2
0291601010999992001010521004+35730-005890SY-MT+0021GMTT V0202001N006210048019N0080001N1+01521+01311101641ADDAA199000091GA1021+003009999GA2071+004809999GF107991071051004501999999MA1101591999999MD1610051+9999MW1001REMSYN076AAXX  05214 60101 32458 72012 10152 20131 40164 56005 875// 333 83710 87616;MET058GMTT 052100Z 20012KT 8000 SCT010 BKN016 15/13 Q1016 NOSIG;EQDQ01+000000PRSWM2Q02  00002PRCP99
0145601010999992001010522004+35730-005890FM-15+0021GMTT V0201901N005712200019N0080001N1+01501+01301999999ADDGA1021+004809999GF104991999999999999999999MA1101591999999MW1001REMMET051GMTT 052200Z 19011KT 8000 SCT016 15/13 Q1016 NOSIG;EQDQ01+000000PRSWM2
0145601010999992001010523004+35730-005890FM-15+0021GMTT V0201901N006212200019N0080001N1+01501+01301999999ADDGA1021+004809999GF104991999999999999999999MA1101491999999MW1001REMMET051GMTT 052300Z 19012KT 8000 SCT016 15/13 Q1015 NOSIG;EQDQ01+000000PRSWM2
0262601010999992001010600004+35730-005890SY-MT+0021GMTT V0201901N006212200019N0080001N1+01481+01271101481ADDAA199000091GA1021+004809999GF104991041051004501001001MA1101391999999MD1710151+9999MW1001REMSYN070AAXX  06004 60101 32458 41912 10148 20127 40148 57015 84500 333 84616;MET051GMTT 060000Z 19012KT 8000 SCT016 15/13 Q1014 NOSIG;EQDQ01+000000PRSWM2Q02  00002PRCP99
0168601010999992001010601004+35730-005890FM-15+0021GMTT V0202001N008710048019N0080001N1+01601+01301999999ADDGA1021+003009999GA2071+004809999GF107991999999999999999999MA1101291999999MW1001REMMET058GMTT 060100Z 20017KT 8000 SCT010 BKN016 16/13 Q1013 NOSIG;EQDQ01+000000PRSWM2
0168601010999992001010602004+35730-005890FM-15+0021GMTT V0202001N008210048019N0080001N1+01601+01201999999ADDGA1021+003009999GA2071+004809999GF107991999999999999999999MA1101291999999MW1001REMMET058GMTT 060200Z 20016KT 8000 SCT010 BKN016 16/12 Q1013 NOSIG;EQDQ01+000000PRSWM2
0179601010999992001010602044+35730-005890FM-16+0021GMTT V0201901N008710048019N0080001N1+01601+01201999999ADDGA1021+003009999GA2071+004809999GF107991999999999999999999MA1101291999999MW1001OC101391REMMET061GMTT 060204Z 19017G27KT 8000 SCT010 BKN016 16/12 Q1013 NOSIG;EQDQ01+000000PRSWM2
0296601010999992001010603004+35730-005890SY-MT+0021GMTT V0202001N009310048019N0080001N1+01541+01281101291ADDAY121031AY221031GA1021+003009999GA2071+004809999GF107991071051004501999999MA1101191999999MD1610181+9999MW1601MW2611REMSYN082AAXX  06034 60101 41458 72018 10154 20128 40129 56018 76022 875// 333 83710 87616;MET062GMTT 060300Z 20017KT 8000 -RA SCT010 BKN016 16/13 Q1012 NOSIG;EQDQ01    003PRSWM1
0185601010999992001010603594+35730-005890FM-16+0021GMTT V0202801N005710048019N0060001N1+01401+01201999999ADDGA1021+003009999GA2071+004809999GF107991999999999999999999MA1101291999999MW1611REMMET059GMTT 060359Z 28011KT 6000 -RA SCT010 BKN016 14/12 Q1013 B0;EQDQ01+000003PRSWM1Q02    003PRSWM1
0188601010999992001010604004+35730-005890FM-15+0021GMTT V0202001N007710048019N0060001N1+01501+01301999999ADDGA1021+003009999GA2071+004809999GF107991999999999999999999MA1101191999999MW1611REMMET062GMTT 060400Z 20015KT 6000 -RA SCT010 BKN016 15/13 Q1012 NOSIG;EQDQ01+000003PRSWM1Q02    003PRSWM1
0188601010999992001010605004+35730-005890FM-15+0021GMTT V0202601N003610048019N0060001N1+01301+01201999999ADDGA1021+003009999GA2071+004809999GF107991999999999999999999MA1101191999999MW1611REMMET062GMTT 060500Z 26007KT 6000 -RA SCT010 BKN016 13/12 Q1012 NOSIG;EQDQ01+000003PRSWM1Q02    003PRSWM1
0326601010999992001010606004+35730-005890SY-MT+0021GMTT V0202201N004110048019N0060001N1+01341+01221101281ADDAA124005191AY161061AY261061GA1021+003009999GA2071+004809999GF107991071051004501999999KA1120N+01311MA1101191999999MD1410001+9999MW1611REMSYN094AAXX  06064 60101 11456 72208 10134 20122 40128 54000 60054 76166 875// 333 20131 83710 87616;MET062GMTT 060600Z 19008KT 6000 -RA SCT010 BKN016 13/12 Q1012 NOSIG;EQDQ01    003PRSWM1
0193601010999992001010607004+35730-005890FM-15+0021GMTT V0201901N005110048019N0060001N1+01401+01301999999ADDGA1021+003009999GA2071+004809999GF107991999999999999999999MA1101191999999MW1611REMMET067GMTT 060700Z AUTO 19010KT 6000 -RA SCT010 BKN016 14/13 Q1012 NOSIG;EQDQ01+000003PRSWM1Q02    003PRSWM1
0188601010999992001010608004+35730-005890FM-15+0021GMTT V0202001N005710048019N0050001N1+01401+01301999999ADDGA1021+002409999GA2071+004809999GF107991999999999999999999MA1101291999999MW1611REMMET062GMTT 060800Z 20011KT 5000 -RA SCT008 BKN016 14/13 Q1013 NOSIG;EQDQ01+000003PRSWM1Q02    003PRSWM1
0290601010999992001010609004+35730-005890SY-MT+0021GMTT V0202701N005110048019N0050001N1+01301+01171101381ADDAY161031AY221031GA1021+002409999GA2071+004809999GF108991081051002501999999MA1101291999999MD1110091+9999MW1611REMSYN082AAXX  06094 60101 41350 82710 10130 20117 40138 51009 76162 885// 333 84708 86616;MET062GMTT 060900Z 27010KT 5000 -RA SCT008 BKN016 13/12 Q1013 NOSIG;EQDQ01    003PRSWM1
0176601010999992001010610004+35730-005890FM-15+0021GMTT V0203101N007210048019N0070001N1+01401+01201999999ADDGA1021+002409999GA2071+004809999GF107991999999999999999999MA1101391999999MW1001REMMET066GMTT 061000Z 31014KT 260V330 7000 SCT008 BKN016 14/12 Q1014 NOSIG;EQDQ01+000000PRSWM2
0168601010999992001010611004+35730-005890FM-15+0021GMTT V0203101N005710048019N0070001N1+01401+01101999999ADDGA1021+002409999GA2071+004809999GF107991999999999999999999MA1101491999999MW1001REMMET058GMTT 061100Z 31011KT 7000 SCT008 BKN016 14/11 Q1015 NOSIG;EQDQ01+000000PRSWM2
0348601010999992001010612004+35730-005890SY-MT+0021GMTT V0203201N00621030001CN0080001N1+01481+01021101591ADDAA106005191AY161061AY221061GA1021+003909999GA2021+004809999GA3071+030009999GF107991051051004501071999MA1101491999999MD1310211+9999MW1011REMSYN094AAXX  06124 60101 11458 73212 10148 20102 40159 53021 60051 70162 8557/ 333 82813 84616 85360;MET065GMTT 061200Z 32012KT 8000 FEW013 SCT016 BKN100 15/10 Q1015 NOSIG;EQDQ01+000000PRSWM2Q02    003PRSWM1
0191601010999992001010613004+35730-005890FM-15+0021GMTT V0203101N005110300019N0080001N1+01501+01001999999ADDGA1021+003909999GA2021+004809999GA3071+030009999GF107991999999999999999999MA1101491999999MW1001REMMET065GMTT 061300Z 31010KT 8000 FEW013 SCT016 BKN100 15/10 Q1015 NOSIG;EQDQ01+000000PRSWM2
0191601010999992001010614004+35730-005890FM-15+0021GMTT V0202901N004610300019N0112651N1+01501+01001999999ADDGA1021+003909999GA2021+004809999GA3071+030009999GF107991999999999999999999MA1101491999999MW1001REMMET065GMTT 061400Z 29009KT 9999 FEW013 SCT016 BKN100 15/10 Q1015 NOSIG;EQDQ01+000000PRSWM2
0306601010999992001010615004+35730-005890SY-MT+0021GMTT V0202901N005110048019N0100001N1+01451+00981101591ADDAA199000021GA1021+003909999GA2071+004809999GA3021+007809099GF107991071091004501999999MA1101491999999MD1510001+9999MW1001REMSYN082AAXX  06154 60101 31460 72910 10145 20098 40159 55000 879// 333 83813 85616 82926;MET067GMTT 061500Z 29010KT 9999 SCT013 BKN016 FEW026CB 14/10 Q1015 NOSIG;EQDQ01+000000PRSWM2
0183601010999992001010616004+35730-005890FM-15+0021GMTT V0202601N00461220001CN0112651N1+01401+00901999999ADDGA1021+003909999GA2071+004809999GA3021+007809099MA1101591999999MW1001REMMET067GMTT 061600Z 26009KT 9999 SCT013 BKN016 FEW026CB 14/09 Q1016 NOSIG;EQDQ01+000022SCOTCVQ02+000000PRSWM2
0193601010999992001010617004+35730-005890FM-15+0021GMTT V0202901N004612200019N0112651N1+01401+00901999999ADDGA1021+003909999GA2021+006909999GA3021+007809099GF102991999999999999999999MA1101691999999MW1001REMMET067GMTT 061700Z 29009KT 9999 FEW013 SCT023 FEW026CB 14/09 Q1017 NOSIG;EQDQ01+000000PRSWM2
0388601010999992001010618004+35730-005890SY-MT+0021GMTT V0202901N005110069019N0100001N1+01331+00841101771ADDAA112005191AY161061AY221061GA1021+003909999GA2071+006909029GA3021+007809099GF199999051091004501001001KA1120M+01601MA1101691999999MD1210181+9999MW1031REMSYN100AAXX  06184 60101 11460 52910 10133 20084 40177 52018 60052 70362 85900 333 10160 82813 85823 81926;MET070GMTT 061800Z 29010KT 9999 FEW013 BKN023TCU FEW026CB 13/08 Q1017 NOSIG;EQDQ01+000052SCOTCVQ02+000000PRSWM2Q03    003PRSWM1
0186601010999992001010619004+35730-005890FM-15+0021GMTT V0202901N00511220001CN0112651N1+01401+00901999999ADDGA1021+003909999GA2071+006909029GA3021+007809099MA1101801999999MW1001REMMET070GMTT 061900Z 29010KT 9999 FEW013 BKN023TCU FEW026CB 14/09 Q1018 NOSIG;EQDQ01+000022SCOTCVQ02+000000PRSWM2
0186601010999992001010620004+35730-005890FM-15+0021GMTT V0203001N00571220001CN0112651N1+01401+00801999999ADDGA1021+003909999GA2071+006909029GA3021+007809099MA1101901999999MW1001REMMET070GMTT 062000Z 30011KT 9999 FEW013 BKN023TCU FEW026CB 14/08 Q1019 NOSIG;EQDQ01+000022SCOTCVQ02+000000PRSWM2
0325601010999992001010621004+35730-005890SY-MT+0021GMTT V0203001N005110069019N0100001N1+01341+00771101991ADDAA199000021GA1021+003909999GA2071+006909029GA3021+007809099GF199999051091004501001001MA1101901999999MD1210221+9999MW1001REMSYN082AAXX  06214 60101 32460 53010 10134 20077 40199 52022 85900 333 82813 85823 81926;MET070GMTT 062100Z 30010KT 9999 FEW013 BKN023TCU FEW026CB 13/08 Q1019 NOSIG;EQDQ01+000052SCOTCVQ02+000000PRSWM2
0171601010999992001010622004+35730-005890FM-15+0021GMTT V0203001N004612200019N0112651N1+01301+00801999999ADDGA1021+004809029GA2021+006909999GF104991999999999999999999MA1102001999999MW1001REMMET061GMTT 062200Z 30009KT 9999 FEW016TCU SCT023 13/08 Q1020 NOSIG;EQDQ01+000000PRSWM2
0186601010999992001010623004+35730-005890FM-15+0021GMTT V0203301N00211220001CN0080001N1+01101+00801999999ADDGA1021+004809029GA2071+006009999GA3021+007809099MA1102001999999MW1001REMMET070GMTT 062300Z 33004KT 8000 FEW016TCU BKN020 FEW026CB 11/08 Q1020 NOSIG;EQDQ01+000022SCOTCVQ02+000000PRSWM2
0333601010999992001010700004+35730-005890SY-MT+0021GMTT V0203301N003610060019N0080001N1+01161+00691102091ADDAA199000091GA1021+004809029GA2071+006009999GA3021+007809099GF107991071091004501999999MA1102001999999MD1210101+9999MW1001REMSYN082AAXX  07004 60101 32458 73307 10116 20069 40209 52010 879// 333 82816 85620 82926;MET078GMTT 070000Z 33007KT 300V360 8000 FEW016TCU BKN020 FEW026CB 12/07 Q1020 NOSIG;EQDQ01+000000PRSWM2Q02  00002PRCP99
0186601010999992001010701004+35730-005890FM-15+0021GMTT V0203401N00211220001CN0080001N1+01201+00801999999ADDGA1021+004809029GA2071+006009999GA3021+007809099MA1102001999999MW1001REMMET070GMTT 070100Z 34004KT 8000 FEW016TCU BKN020 FEW026CB 12/08 Q1020 NOSIG;EQDQ01+000022SCOTCVQ02+000000PRSWM2
0194601010999992001010702004+35730-005890FM-15+0021GMTT V0203301N00261220001CN0080001N1+01201+00801999999ADDGA1021+004809029GA2071+006009999GA3021+007809099MA1102001999999MW1001REMMET078GMTT 070200Z 33005KT 300V360 8000 FEW016TCU BKN020 FEW026CB 12/08 Q1020 NOSIG;EQDQ01+000022SCOTCVQ02+000000PRSWM2
0325601010999992001010703004+35730-005890SY-MT+0021GMTT V0201201N00151007801CN0080001N1+01011+00771102111ADDAA199000091GA1021+004809029GA2021+006009999GA3021+007809099GF105991051091004501001001MA1102101999999MD1210021+9999MW1001REMSYN082AAXX  07034 60101 32458 51203 10101 20077 40211 52002 85900 333 82816 83620 81926;MET070GMTT 070300Z 12002KT 8000 FEW016TCU SCT020 FEW026CB 10/08 Q1021 NOSIG;EQDQ01+000000PRSWM2Q02  00002PRCP99
0204601010999992001010704004+35730-005890FM-15+0021GMTT V0200801N002612200019N0080001N1+01001+00801999999ADDGA1021+004809029GA2021+006009999GA3021+007809099GF102991999999999999999999MA1102101999999MW1001REMMET078GMTT 070400Z 08005KT 010V130 8000 FEW016TCU SCT020 FEW026CB 10/08 Q1021 NOSIG;EQDQ01+000000PRSWM2
0196601010999992001010705004+35730-005890FM-15+0021GMTT V0200601N001512200019N0080001N1+01001+00801999999ADDGA1021+004809029GA2021+006009999GA3021+007809099GF102991999999999999999999MA1102101999999MW1001REMMET070GMTT 070500Z 06003KT 8000 FEW016TCU SCT020 FEW026CB 10/08 Q1021 NOSIG;EQDQ01+000000PRSWM2
0372601010999992001010706004+35730-005890SY-MT+0021GMTT V0200401N00151007801CN0080001N1+00851+00641102121ADDAA124005191AY181061AY221061GA1021+004809029GA2021+006009999GA3021+007809099GF105991051091004501001001KA1120N+00851MA1102101999999MD1310021+9999MW1021REMSYN100AAXX  07064 60101 11458 50403 10085 20064 40212 53002 60054 70282 85900 333 20085 82816 83620 81926;MET070GMTT 070600Z 04003KT 8000 FEW016TCU SCT020 FEW026CB 09/07 Q1021 NOSIG;EQDQ01+000000PRSWM2Q02    003PRSWM1
0170601010999992001010707004+35730-005890FM-15+0021GMTT V0200301N001512200019N0080001N1+00701+00601999999ADDGA1021+004809999GA2021+007809099GF102991999999999999999999MA1102101999999MW1001REMMET060GMTT 070700Z 03003KT 8000 SCT016 FEW026CB 07/06 Q1021 NOSIG;EQDQ01+000000PRSWM2
0178601010999992001010708004+35730-005890FM-15+0021GMTT V0203501N002112200019N0112651N1+00801+00701999999ADDGA1021+004809999GA2021+007809099GF102991999999999999999999MA1102201999999MW1001REMMET068GMTT 070800Z 35004KT 310V010 9999 SCT016 FEW026CB 08/07 Q1022 NOSIG;EQDQ01+000000PRSWM2
0293601010999992001010709004+35730-005890SY-MT+0021GMTT V0203601N002612200019N0100001N1+01171+00771102271ADDAA199000091GA1021+004809999GA2021+007809099GF103991031091004501001001MA1102201999999MD1310121+9999MW1001REMSYN076AAXX  07094 60101 32460 33605 10117 20077 40227 53012 83900 333 83816 81926;MET060GMTT 070900Z 36005KT 9999 SCT016 FEW026CB 12/08 Q1022 NOSIG;EQDQ01+000000PRSWM2Q02  00002PRCP99
0193601010999992001010710004+35730-005890FM-15+0021GMTT V0203601N002612200019N0112651N1+01201+00701999999ADDGA1021+004809999GA2021+007809099GA3021+030009999GF104991999999999999999999MA1102301999999MW1001REMMET067GMTT 071000Z 36005KT 9999 SCT016 FEW026CB SCT100 12/07 Q1023 NOSIG;EQDQ01+000000PRSWM2
0176601010999992001010711004+35730-005890FM-15+0021GMTT V0203301N003112200019N0112651N1+01301+00701999999ADDGA1021+004809999GA2021+006909999GF104991999999999999999999MA1102301999999MW1001REMMET066GMTT 071100Z 33006KT 300V010 9999 SCT016 SCT023 13/07 Q1023 NOSIG;EQDQ01+000000PRSWM2
0299601010999992001010712004+35730-005890SY-MT+0021GMTT V0203201N00361009001CN0100001N1+01391+00701102341ADDAA199000091GA1021+004809999GA2021+006909999GF105991051081004501001001MA1102301999999MD1010071+9999MW1001REMSYN076AAXX  07124 60101 32460 53207 10139 20070 40234 50007 85800 333 83816 83623;MET066GMTT 071200Z 32008KT 280V360 9999 SCT016 SCT023 14/07 Q1023 NOSIG;EQDQ01+000000PRSWM2Q02  00002PRCP99
0153601010999992001010713004+35730-005890FM-15+0021GMTT V0203201N004612200019N0112651N1+01401+00601999999ADDGA1021+006909999GF104991999999999999999999MA1102201999999MW1001REMMET059GMTT 071300Z 32009KT 290V350 9999 SCT023 14/06 Q1022 NOSIG;EQDQ01+000000PRSWM2
0171601010999992001010714004+35730-005890FM-15+0021GMTT V0203401N005112200019N0112651N1+01401+00701999999ADDGA1021+004809999GA2021+006909029GF104991999999999999999999MA1102201999999MW1001REMMET061GMTT 071400Z 34010KT 9999 SCT016 SCT023TCU 14/07 Q1022 NOSIG;EQDQ01+000000PRSWM2
0302601010999992001010715004+35730-005890SY-MT+0021GMTT V0203201N00461004201CN0200001N1+01391+00671102251ADDAA199000091GA1021+004809999GA2021+006909029GF105991051021004501001001MA1102201999999MD1810101+9999MW1001REMSYN076AAXX  07154 60101 32470 53209 10139 20067 40225 58010 85200 333 83816 83823;MET069GMTT 071500Z 32008KT 280V350 9999 SCT016 SCT023TCU 14/07 Q1022 NOSIG;EQDQ01+000000PRSWM2Q02  00002PRCP99
0153601010999992001010716004+35730-005890FM-15+0021GMTT V0203101N003612200019N0112651N1+01401+00601999999ADDGA1021+004809999GF104991999999999999999999MA1102201999999MW1001REMMET059GMTT 071600Z 31007KT 270V340 9999 SCT016 14/06 Q1022 NOSIG;EQDQ01+000000PRSWM2
0153601010999992001010717004+35730-005890FM-15+0021GMTT V0203201N003112200019N0112651N1+01301+00601999999ADDGA1021+004809999GF104991999999999999999999MA1102301999999MW1001REMMET059GMTT 071700Z 32006KT 280V340 9999 SCT016 13/06 Q1023 NOSIG;EQDQ01+000000PRSWM2
0281601010999992001010718004+35730-005890SY-MT+0021GMTT V0203201N002112200019N0200001N1+00971+00551102371ADDAA199000091GA1021+004809999GF104991041021004501001001KA1120M+01431MA1102301999999MD1310071+9999MW1001REMSYN076AAXX  07184 60101 32470 43204 10097 20055 40237 53007 84200 333 10143 84816;MET051GMTT 071800Z 32004KT 9999 SCT016 10/06 Q1023 NOSIG;EQDQ01+000000PRSWM2Q02  00002PRCP99
0145601010999992001010719004+35730-005890FM-15+0021GMTT V0203001N002612200019N0112651N1+01001+00501999999ADDGA1021+004809999GF104991999999999999999999MA1102401999999MW1001REMMET051GMTT 071900Z 30005KT 9999 SCT016 10/05 Q1024 NOSIG;EQDQ01+000000PRSWM2
0145601010999992001010720004+35730-005890FM-15+0021GMTT V02099999999992200019N0112651N1+00801+00501999999ADDGA1021+004809999GF104991999999999999999999MA1102511999999MW1001REMMET051GMTT 072000Z VRB02KT 9999 SCT016 08/05 Q1025 NOSIG;EQDQ01+000000PRSWM2
0262601010999992001010721004+35730-005890SY-MT+0021GMTT V0201101N000512200019N0150001N1+00671+00441102581ADDAA199000091GA1021+004809999GF104991041021004501001001MA1102511999999MD1110211+9999MW1001REMSYN070AAXX  07214 60101 32465 41101 10067 20044 40258 51021 84200 333 84816;MET051GMTT 072100Z 11001KT 9999 SCT016 07/04 Q1025 NOSIG;EQDQ01+000000PRSWM2Q02  00002PRCP99
0145601010999992001010722004+35730-005890FM-15+0021GMTT V0200601N001512200019N0112651N1+00701+00501999999ADDGA1021+004809999GF104991999999999999999999MA1102511999999MW1001REMMET051GMTT 072200Z 06003KT 9999 SCT016 07/05 Q1025 NOSIG;EQDQ01+000000PRSWM2
0145601010999992001010723004+35730-005890FM-15+0021GMTT V0200501N001510048019N0112651N1+00701+00601999999ADDGA1071+004809999GF107991999999999999999999MA1102611999999MW1001REMMET051GMTT 072300Z 05003KT 9999 BKN016 07/06 Q1026 NOSIG;EQDQ01+000000PRSWM2
0278601010999992001010800004+35730-005890SY-MT+0021GMTT V0200501N000510048019N0150001N1+00611+00451102581ADDAA199000091GA1071+004809999GF199999051021004501001001MA1102511999999MD1010001+9999MW1001REMSYN070AAXX  08004 60101 32465 50501 10061 20045 40258 50000 85200 333 85816;MET051GMTT 080000Z 05001KT 9999 BKN016 06/05 Q1025 NOSIG;EQDQ01+000052SCOTCVQ02+000000PRSWM2Q03  00002PRCP99
0145601010999992001010801004+35730-005890FM-15+0021GMTT V0200801N000512200019N0112651N1+00601+00401999999ADDGA1021+004809999GF104991999999999999999999MA1102511999999MW1001REMMET051GMTT 080100Z 08001KT 9999 SCT016 06/04 Q1025 NOSIG;EQDQ01+000000PRSWM2
0145601010999992001010802004+35730-005890FM-15+0021GMTT V0200601N001512200019N0112651N1+00501+00401999999ADDGA1021+004809999GF102991999999999999999999MA1102511999999MW1001REMMET051GMTT 080200Z 06003KT 9999 FEW016 05/04 Q1025 NOSIG;EQDQ01+000000PRSWM2
0267601010999992001010803004+35730-005890SY-MT+0021GMTT V0200801N000512200019N0150001N1+00551+00421102521ADDAA199000091GA1021+004809999GF102991021021004501001001MA1102511999999MD1610091+9999MW1001REMSYN070AAXX  08034 60101 35465 20801 10055 20042 40252 56009 82200 333 82816;MET056GMTT 080300Z AUTO 08001KT 9999 FEW016 06/04 Q1025 NOSIG;EQDQ01+000000PRSWM2Q02  00002PRCP99
0153601010999992001010804004+35730-005890FM-15+0021GMTT V0200901N002112200019N0112651N1+00501+00401999999ADDGA1021+004809999GF102991999999999999999999MA1102401999999MW1001REMMET059GMTT 080400Z 09004KT 030V110 9999 FEW016 05/04 Q1024 NOSIG;EQDQ01+000000PRSWM2
0145601010999992001010805004+35730-005890FM-15+0021GMTT V0200601N000512200019N0112651N1+00401+00301999999ADDGA1021+004809999GF102991999999999999999999MA1102401999999MW1001REMMET051GMTT 080500Z 06001KT 9999 FEW016 04/03 Q1024 NOSIG;EQDQ01+000000PRSWM2
0289601010999992001010806004+35730-005890SY-MT+0021GMTT V0201001N002612200019N0150001N1+00481+00361102431ADDAA199000091GA1021+004809999GF102991021021004501001001KA1120N+00421MA1102401999999MD1810101+9999MW1001REMSYN076AAXX  08064 60101 32465 21005 10048 20036 40243 58010 82200 333 20042 82816;MET059GMTT 080600Z 10004KT 050V150 9999 FEW016 05/04 Q1024 NOSIG;EQDQ01+000000PRSWM2Q02  00002PRCP99
0145601010999992001010807004+35730-005890FM-15+0021GMTT V0200801N003612200019N0112651N1+00601+00401999999ADDGA1021+004809999GF102991999999999999999999MA1102401999999MW1001REMMET051GMTT 080700Z 08007KT 9999 FEW016 06/04 Q1024 NOSIG;EQDQ01+000000PRSWM2
0168601010999992001010808004+35730-005890FM-15+0021GMTT V0200901N003612200019N0112651N1+00601+00401999999ADDGA1021+004809999GA2021+069009999GF104991999999999999999999MA1102401999999MW1001REMMET058GMTT 080800Z 09007KT 9999 FEW016 SCT233 06/04 Q1024 NOSIG;EQDQ01+000000PRSWM2
0264601010999992001010809004+35730-005890SY-MT+0021GMTT V0200901N003112200019N0150001N1+00711+00471102441ADDGA1021+004809999GA2021+069009999GF104991021021004501001021MA1102401999999MD1010001+9999MW1001REMSYN076AAXX  08094 60101 42465 40906 10071 20047 40244 50000 82202 333 82816 84073;MET058GMTT 080900Z 09006KT 9999 FEW016 SCT233 07/05 Q1024 NOSIG;EQDQ01+000000PRSWM2
0168601010999992001010810004+35730-005890FM-15+0021GMTT V0200901N003110690019N0112651N1+01001+00601999999ADDGA1021+004809999GA2071+069009999GF107991999999999999999999MA1102401999999MW1001REMMET058GMTT 081000Z 09006KT 9999 FEW016 BKN233 10/06 Q1024 NOSIG;EQDQ01+000000PRSWM2
0176601010999992001010811004+35730-005890FM-15+0021GMTT V0200901N002110690019N0112651N1+01201+00701999999ADDGA1021+004809999GA2071+069009999GF107991999999999999999999MA1102301999999MW1001REMMET066GMTT 081100Z 09004KT 060V120 9999 FEW016 BKN233 12/07 Q1023 NOSIG;EQDQ01+000000PRSWM2
0174601010999992001010812004+35730-005890FM-12+0021GMTT V0201201N00261090001CN0150001N1+01431+00661102321ADDAA199000091GA1021+004809089GF107991021021004501001021MD1810071+9999REMSYN076AAXX  08124 60101 32465 71205 10143 20066 40232 58007 82202 333 82816 87073;EQDQ01  00002PRCP99
0166601010999992001010812304+35730-005890FM-15+0021GMTT V0201201N003110690019N0112651N1+01401+00701999999ADDGA1021+006009999GA2071+069009999GF107991999999999999999999MA1102301999999MW1001REMMET056GMTT 081230Z 12006KT 9999 SCT020 BKN233 14/07 Q1023 NSG;EQDQ01+000000PRSWM2
0168601010999992001010813004+35730-005890FM-15+0021GMTT V0200801N005110690019N0112651N1+01501+00501999999ADDGA1021+004809999GA2071+069009999GF107991999999999999999999MA1102101999999MW1001REMMET058GMTT 081300Z 08010KT 9999 FEW016 BKN233 15/05 Q1021 NOSIG;EQDQ01+000000PRSWM2
0168601010999992001010814004+35730-005890FM-15+0021GMTT V0201001N003610690019N0112651N1+01601+00501999999ADDGA1021+004809999GA2071+069009999GF107991999999999999999999MA1102001999999MW1001REMMET058GMTT 081400Z 10007KT 9999 FEW016 BKN233 16/05 Q1020 NOSIG;EQDQ01+000000PRSWM2
0291601010999992001010815004+35730-005890SY-MT+0021GMTT V0201301N003610690019N0150001N1+01581+00281102031ADDAA199000091GA1021+004809999GA2071+069009999GF107991021021004501001021MA1102001999999MD1810311+9999MW1001REMSYN076AAXX  08154 60101 32465 61307 10158 20028 40203 58031 82202 333 82816 86073;MET058GMTT 081500Z 13007KT 9999 FEW016 BKN233 16/02 Q1020 NOSIG;EQDQ01+000000PRSWM2Q02  00002PRCP99
0097601010999992001010816304+35730-005890FM-15+0021GMTT V0200701N00311220001CN0099001N1+01501+00501999999ADDMA1102001999999MW1001REMMET045GMTT 081630Z 07006KT CAVOK 15/05 Q1020 NOSIG;EQDQ01+000000PRSWM2
0097601010999992001010817004+35730-005890FM-15+0021GMTT V0200601N00311220001CN0099001N1+01301+00501999999ADDMA1102001999999MW1001REMMET045GMTT 081700Z 06006KT CAVOK 13/05 Q1020 NOSIG;EQDQ01+000000PRSWM2
0256601010999992001010818004+35730-005890SY-MT+0021GMTT V0201201N002112200019N0100001N1+00931+00411102011ADDAA199000091GA1041+060009019GF104991001001999999001021KA1120M+01641MD1610041+9999MW1001REMSYN076AAXX  08184 60101 32960 41204 10093 20041 40201 56004 80002 333 10164 84070;MET041GMTT 081800Z 12004KT 060V140 09/04 Q1020;EQDQ01+000000PRSWM2Q02  00002PRCP99
0097601010999992001010819004+35730-005890FM-15+0021GMTT V0201101N00261220001CN0099001N1+00701+00401999999ADDMA1102001999999MW1001REMMET045GMTT 081900Z 11005KT CAVOK 07/04 Q1020 NOSIG;EQDQ01+000000PRSWM2
0097601010999992001010820004+35730-005890FM-15+0021GMTT V0201001N00361220001CN0099001N1+00701+00501999999ADDMA1102001999999MW1001REMMET045GMTT 082000Z 10007KT CAVOK 07/05 Q1020 NOSIG;EQDQ01+000000PRSWM2
0256601010999992001010821004+35730-005890SY-MT+0021GMTT V0200601N003112200019N0100001N1+00801+00441102081ADDAA199000091GA1031+060009019GF103991001001999999001021MA1102001999999MD1310071+9999MW1001REMSYN070AAXX  08214 60101 32960 30606 10080 20044 40208 53007 80002 333 83070;MET045GMTT 082100Z 06006KT CAVOK 08/04 Q1020 NOSIG;EQDQ01+000000PRSWM2Q02  00002PRCP99
0097601010999992001010822004+35730-005890FM-15+0021GMTT V0200801N00361220001CN0099001N1+00801+00501999999ADDMA1102001999999MW1001REMMET045GMTT 082200Z 08007KT CAVOK 08/05 Q1020 NOSIG;EQDQ01+000000PRSWM2
0097601010999992001010823004+35730-005890FM-15+0021GMTT V0200901N00211220001CN0099001N1+00801+00501999999ADDMA1102001999999MW1001REMMET045GMTT 082300Z 09004KT CAVOK 08/05 Q1020 NOSIG;EQDQ01+000000PRSWM2
0262601010999992001010900004+35730-005890SY-MT+0021GMTT V0200901N002612200019N0100001N1+00611+00391102041ADDAA199000091GA1021+060009019GF102991001001999999001021MA1102001999999MD1810021+9999MW1001REMSYN076AAXX  09004 60101 32960 20905 10061 20039 40204 58002 80002 92351 333 82070;MET045GMTT 090000Z 09005KT CAVOK 06/04 Q1020 NOSIG;EQDQ01+000000PRSWM2Q02  00002PRCP99
0097601010999992001010901004+35730-005890FM-15+0021GMTT V0200801N00261220001CN0099001N1+00601+00401999999ADDMA1102001999999MW1001REMMET045GMTT 090100Z 08005KT CAVOK 06/04 Q1020 NOSIG;EQDQ01+000000PRSWM2
0097601010999992001010902004+35730-005890FM-15+0021GMTT V0200801N00311220001CN0099001N1+00601+00301999999ADDMA1101901999999MW1001REMMET045GMTT 090200Z 08006KT CAVOK 06/03 Q1019 NOSIG;EQDQ01+000000PRSWM2
0256601010999992001010903004+35730-005890SY-MT+0021GMTT V0200901N003112200019N0100001N1+00611+00391101921ADDAA199000091GA1021+060009019GF102991001001999999001021MA1101901999999MD1810101+9999MW1001REMSYN070AAXX  09034 60101 32960 20906 10061 20039 40192 58010 80002 333 82070;MET045GMTT 090300Z 09006KT CAVOK 06/04 Q1019 NOSIG;EQDQ01+000000PRSWM2Q02  00002PRCP99
0150601010999992001010904304+35730-005890FM-15+0021GMTT V0200801N002612200019N0112651N1+00701+00401999999ADDGA1021+060009999GF104991999999999999999999MA1101801999999MW1001REMMET056GMTT 090430Z 08005KT R28/P2000 SCT200 07/04 Q1018 NOSIG;EQDQ01+000000PRSWM2
0095601010999992001010905004+35730-005890FM-15+0021GMTT V0200801N00361220001CN0099001N1+00701+00401999999ADDMA1101801999999MW1001REMMET043GMTT 090500Z 08007KT CAVOK 07/04 Q1018 NSG;EQDQ01+000000PRSWM2
0275601010999992001010906004+35730-005890SY-MT+0021GMTT V0200901N001510600019N0100001N1+00791+00381101861ADDAA199000091GA1051+060009019GF105991001001999999001021KA1120N+00491MA1101801999999MD1810121+9999MW1001REMSYN076AAXX  09064 60101 32960 50903 10079 20038 40186 58012 80002 333 20049 85070;MET045GMTT 090600Z 09003KT CAVOK 08/04 Q1018 NOSIG;EQDQ01+000000PRSWM2Q02  00002PRCP99
0168601010999992001010907004+35730-005890FM-15+0021GMTT V0201701N004110600019N0112651N1+01101+00501999999ADDGA1021+004509999GA2071+060009999GF107991999999999999999999MA1101901999999MW1001REMMET058GMTT 090700Z 17008KT 9999 FEW015 BKN200 11/05 Q1019 NOSIG;EQDQ01+000000PRSWM2
0168601010999992001010908004+35730-005890FM-15+0021GMTT V0201701N003610600019N0112651N1+01201+00601999999ADDGA1021+006009999GA2071+060009999GF107991999999999999999999MA1101901999999MW1001REMMET058GMTT 090800Z 17007KT 9999 FEW020 BKN200 12/06 Q1019 NOSIG;EQDQ01+000000PRSWM2
0321601010999992001010909004+35730-005890SY-MT+0021GMTT V0201801N003110600019N0200001N1+01241+00681101891ADDAA199000091GA1021+006009999GA2071+060009999GF107991041001999999081021MA1101901999999MD1310141+9999MW1001UG1990100409REMSYN094AAXX  09094 60101 32970 71806 10124 20068 40189 53014 84082 222// 304// 4//02 333 84362 85070;MET058GMTT 090900Z 17007KT 9999 FEW020 BKN200 13/07 Q1019 NOSIG;EQDQ01+000000PRSWM2Q02  00002PRCP99
0168601010999992001010910004+35730-005890FM-15+0021GMTT V0201801N004610600019N0112651N1+01401+00701999999ADDGA1021+006009999GA2071+060009999GF107991999999999999999999MA1102001999999MW1001REMMET058GMTT 091000Z 18009KT 9999 SCT020 BKN200 14/07 Q1020 NOSIG;EQDQ01+000000PRSWM2
0168601010999992001010911004+35730-005890FM-15+0021GMTT V0201801N007710600019N0112651N1+01601+00801999999ADDGA1021+006009999GA2071+060009999GF107991999999999999999999MA1102001999999MW1001REMMET058GMTT 091100Z 18015KT 9999 SCT020 BKN200 16/08 Q1020 NOSIG;EQDQ01+000000PRSWM2
0291601010999992001010912004+35730-005890SY-MT+0021GMTT V0201801N006210600019N0100001N1+01561+00961101981ADDAA199000091GA1021+006009999GA2071+060009999GF107991041051008001001021MA1101901999999MD1110111+9999MW1001REMSYN076AAXX  09124 60101 32560 71812 10156 20096 40198 51011 84502 333 84620 86070;MET058GMTT 091200Z 18012KT 9999 SCT020 BKN200 16/10 Q1019 NOSIG;EQDQ01+000000PRSWM2Q02  00002PRCP99
0168601010999992001010913004+35730-005890FM-15+0021GMTT V0202001N006710600019N0112651N1+01501+00801999999ADDGA1021+006009999GA2071+060009999GF107991999999999999999999MA1101901999999MW1001REMMET058GMTT 091300Z 20013KT 9999 SCT020 BKN200 15/08 Q1019 NOSIG;EQDQ01+000000PRSWM2
0185601010999992001010914004+35730-005890FM-15+0021GMTT V0201901N006710240019N0112651N1+01601+00801999999ADDGA1021+003909999GA2021+007809999GA3071+024009999GF107991999999999999999999MA1101801999999MW1001REMMET059GMTT 091400Z 19013KT 9999 SCT013 SCT026 BKN080 16/08 Q1018;EQDQ01+000000PRSWM2
0314601010999992001010915004+35730-005890SY-MT+0021GMTT V0201901N00671024001CN0100001N1+01531+00861101841ADDAA199000091GA1021+003909999GA2021+007809999GA3071+024009999GF108991051081004501071999MA1101801999999MD1610141+9999MW1001REMSYN082AAXX  09154 60101 32460 81913 10153 20086 40184 56014 8587/ 333 83813 84626 87358;MET059GMTT 091500Z 19013KT 9999 SCT013 SCT026 BKN080 15/09 Q1018;EQDQ01+000000PRSWM2Q02  00002PRCP99
0185601010999992001010916004+35730-005890FM-15+0021GMTT V0201901N005710240019N0112651N1+01601+00901999999ADDGA1021+003909999GA2021+007809999GA3071+024009999GF107991999999999999999999MA1101801999999MW1001REMMET059GMTT 091600Z 19011KT 9999 SCT013 SCT026 BKN080 16/09 Q1018;EQDQ01+000000PRSWM2
0185601010999992001010917004+35730-005890FM-15+0021GMTT V0201901N004110240019N0112651N1+01501+00901999999ADDGA1021+003909999GA2021+007809999GA3071+024009999GF107991999999999999999999MA1101801999999MW1001REMMET059GMTT 091700Z 19008KT 9999 SCT013 SCT026 BKN080 15/09 Q1018;EQDQ01+000000PRSWM2
0333601010999992001010918004+35730-005890SY-MT+0021GMTT V0201901N00461024001CN0100001N1+01521+00981101831ADDAA199000091GA1021+003909999GA2021+007809999GA3071+024009999GF108991051081004501071999KA1120M+01661MA1101801999999MD1410001+9999MW1001REMSYN088AAXX  09184 60101 32460 81909 10152 20098 40183 54001 8587/ 333 10166 83813 84626 87358;MET059GMTT 091800Z 19009KT 9999 SCT013 SCT026 BKN080 15/10 Q1018;EQDQ01+000000PRSWM2Q02  00002PRCP99
0185601010999992001010919004+35730-005890FM-15+0021GMTT V0201901N005110240019N0112651N1+01601+01001999999ADDGA1021+003909999GA2021+007809999GA3071+024009999GF107991999999999999999999MA1101801999999MW1001REMMET059GMTT 091900Z 19010KT 9999 SCT013 SCT026 BKN080 16/10 Q1018;EQDQ01+000000PRSWM2
0185601010999992001010920004+35730-005890FM-15+0021GMTT V0201901N006210240019N0112651N1+01501+01001999999ADDGA1021+003909999GA2021+007809999GA3071+024009999GF107991999999999999999999MA1101901999999MW1001REMMET059GMTT 092000Z 19012KT 9999 SCT013 SCT026 BKN080 15/10 Q1019;EQDQ01+000000PRSWM2
0349601010999992001010921004+35730-005890SY-MT+0021GMTT V0201701N00411024001CN0080001N1+01351+01021101921ADDAA199000021AY121031AY261031GA1021+003909999GA2021+007809999GA3071+024009999GF108991051081004501071999MA1101901999999MD1310111+9999MW1211REMSYN088AAXX  09214 60101 31458 81708 10135 20102 40192 53011 72126 8587/ 333 83813 84626 87358;MET072GMTT 092100Z 17008KT 150V210 8000 SCT013 SCT026 BKN080 14/10 Q1019 RERA;EQDQ01+000000PRSWM2Q02    003PRSWM1
0212601010999992001010922304+35730-005890FM-15+0021GMTT V0201701N004110240019N0080001N1+01301+01101999999ADDGA1021+003909999GA2021+006009999GA3071+024009999GF107991999999999999999999MA1101901999999MW1631REMMET070GMTT 092230Z 17008KT 8000 ? RA SCT013 SCT020 BKN080 13/11 Q1019 NOSIG;EQDQ01+000003PRSWM1Q02    003PRSWM1
0208601010999992001010923004+35730-005890FM-15+0021GMTT V02099999999990240019N0080001N1+01301+01101999999ADDGA1021+003909999GA2021+006009999GA3081+024009999GF108991999999999999999999MA1101901999999MW1631REMMET066GMTT 092300Z 19010 8000 RA SCT013 SCT020 OVC080 13/11 Q1019 NOSIG;EQDQ01+000003PRSWM1Q02    003PRSWM1
0348601010999992001011000004+35730-005890SY-MT+0021GMTT V0201901N00511024001CN0080001N1+01381+01131101961ADDAA106007191AY121061AY261061GA1021+003909999GA2021+006009999GA3081+024009999GF108991051081004501071999MA1101901999999MD1510001+9999MW1601MW2611REMSYN100AAXX  10004 60101 11458 81910 10138 20113 40196 55000 60071 76026 8587/ 92353 333 83813 84620 88358;MET069GMTT 100000Z 17012KT 8000 -RA SCT013 SCT020 OVC080 14/12 Q1019 NOSIG;EQDQ01    003PRSWM1
0211601010999992001011001004+35730-005890FM-15+0021GMTT V0201901N004110240019N0080001N1+01401+01101999999ADDGA1021+003909999GA2021+006009999GA3081+024009999GF108991999999999999999999MA1101901999999MW1611REMMET069GMTT 100100Z 19008KT 8000 -RA SCT013 SCT020 OVC080 14/11 Q1019 NOSIG;EQDQ01+000003PRSWM1Q02    003PRSWM1
0199601010999992001011002004+35730-005890FM-15+0021GMTT V0201901N007210240019N0080001N1+01401+01101999999ADDGA1021+003909999GA2021+006009999GA3081+024009999GF108991999999999999999999MA1101901999999MW1001REMMET073GMTT 100200Z 19014KT 150V210 8000 SCT013 SCT020 OVC080 14/11 Q1019 NOSIG;EQDQ01+000000PRSWM2
0335601010999992001011003004+35730-005890SY-MT+0021GMTT V0201901N00821024001CN0080001N1+01341+01031101911ADDAY121031AY261031GA1021+003909999GA2021+006009999GA3081+024009999GF108991051081004501071999MA1101801999999MD1710051+9999MW1611MW2631OC101391REMSYN088AAXX  10034 60101 41458 81916 10134 20103 40191 57005 76126 8587/ 333 83813 84620 88358;MET071GMTT 100300Z 18016G27KT 8000 RA SCT013 SCT020 OVC080 14/10 Q1018 NOSIG;EQDQ01    003PRSWM1
0190601010999992001011004004+35730-005890FM-15+0021GMTT V0201801N008210240019N0080001N1+01301+01101999999ADDGA1021+003909999GA2021+006009999GA3081+024009999GF108991999999999999999999MA1101901999999MW1001REMMET064GMTT 100400Z 18016KT 8000 SCT013 SCT020 OVC080 13/11 Q1019 RERA;EQDQ01+000000PRSWM2
0202601010999992001011005004+35730-005890FM-15+0021GMTT V0201801N008210240019N0080001N1+01401+00901999999ADDGA1021+003909999GA2021+006009999GA3081+024009999GF108991999999999999999999MA1101801999999MW1001OC101341REMMET068GMTT 100500Z 18016G26KT 8000 SCT013 SCT020 OVC080 14/09 Q1018 NOSIG;EQDQ01+000000PRSWM2
0378601010999992001011006004+35730-005890SY-MT+0021GMTT V0201801N00771024001CN0080001N1+01341+00991101831ADDAA124007991AY161061AY261061GA1021+003909999GA2021+006009999GA3081+024009999GF108991051081004501071999KA1120N+01261MA1101801999999MD1810081+9999MW1021OC101441REMSYN100AAXX  10064 60101 11458 81815 10134 20099 40183 58008 60084 70266 8587/ 333 20126 83813 84620 88358;MET068GMTT 100600Z 18016G28KT 8000 SCT013 SCT020 OVC080 13/10 Q1018 NOSIG;EQDQ01+000000PRSWM2Q02    003PRSWM1
0191601010999992001011007004+35730-005890FM-15+0021GMTT V0201801N006210240019N0080001N1+01401+01001999999ADDGA1021+003909999GA2021+006009999GA3081+024009999GF108991999999999999999999MA1101801999999MW1001REMMET065GMTT 100700Z 18012KT 8000 SCT013 SCT020 OVC080 14/10 Q1018 NOSIG;EQDQ01+000000PRSWM2
0188601010999992001011007054+35730-005890FM-16+0021GMTT V0201801N004610240019N0080001N1+01401+00901999999ADDGA1021+003909999GA2021+006009999GA3081+024009999GF108991999999999999999999MA1101801999999MW1001REMMET062GMTT 100705Z 18009KT 8000 SCT013 SCT020 OVC080 14/09 Q1018 B0;EQDQ01+000000PRSWM2
0211601010999992001011008004+35730-005890FM-15+0021GMTT V0201801N004610240019N0050001N1+01301+01001999999ADDGA1021+003009999GA2021+006009999GA3081+024009999GF108991999999999999999999MA1101901999999MW1611REMMET069GMTT 100800Z 18009KT 5000 -RA SCT010 SCT020 OVC080 13/10 Q1019 NOSIG;EQDQ01+000003PRSWM1Q02    003PRSWM1
0335601010999992001011009004+35730-005890SY-MT+0021GMTT V0201601N00311024001CN0100001N1+01421+01021101891ADDAY161031AY261031GA1021+003909999GA2021+006009999GA3071+024009999GF107991051081004501071999MA1101801999999MD1010051+9999MW1011REMSYN088AAXX  10094 60101 41460 71606 10142 20102 40189 50005 70166 8587/ 333 83813 84620 85358;MET069GMTT 100900Z 16006KT 9999 SCT013 SCT020 BKN080 14/10 Q1018 REA NOSIG;EQDQ01+000000PRSWM2Q02    003PRSWM1
0195601010999992001011010004+35730-005890FM-15+0021GMTT V0201701N004610240019N0112651N1+01601+00901999999ADDGA1021+003909999GA2021+006009999GA3071+024009999GF107991999999999999999999MA1101901999999MW1001REMMET069GMTT 101000Z 17009KT 9999 SCT013 SCT020 BKN080 16/09 Q1019 REA NOSIG;EQDQ01+000000PRSWM2
0191601010999992001011011004+35730-005890FM-15+0021GMTT V0201801N006710690019N0112651N1+01801+00901999999ADDGA1021+003909999GA2021+006009999GA3071+069009999GF107991999999999999999999MA1101901999999MW1001REMMET065GMTT 101100Z 18013KT 9999 FEW013 SCT020 BKN233 18/09 Q1019 NOSIG;EQDQ01+000000PRSWM2
0348601010999992001011012004+35730-005890SY-MT+0021GMTT V0202001N00671069001CN0100001N1+01861+00871101911ADDAA106002091AY161061AY221061GA1021+004809999GA2021+024009999GA3071+069009999GF107991031021004501071021MA1101901999999MD1010031+9999MW1021REMSYN094AAXX  10124 60101 12460 72013 10186 20087 40191 50003 60021 70262 83272 333 83816 83358 85073;MET065GMTT 101200Z 20013KT 9999 SCT016 SCT080 BKN233 19/09 Q1019 NOSIG;EQDQ01+000000PRSWM2Q02    003PRSWM1
0191601010999992001011013004+35730-005890FM-15+0021GMTT V0201901N005110690019N0112651N1+01901+01001999999ADDGA1021+004809999GA2021+024009999GA3071+069009999GF107991999999999999999999MA1101801999999MW1001REMMET065GMTT 101300Z 19010KT 9999 SCT016 SCT080 BKN233 19/10 Q1018 NOSIG;EQDQ01+000000PRSWM2
0191601010999992001011014004+35730-005890FM-15+0021GMTT V0202001N006710690019N0112651N1+02001+00901999999ADDGA1021+004809999GA2021+024009999GA3071+069009999GF107991999999999999999999MA1101691999999MW1001REMMET065GMTT 101400Z 20013KT 9999 SCT016 SCT080 BKN233 20/09 Q1017 NOSIG;EQDQ01+000000PRSWM2
0304601010999992001011015004+35730-005890SY-MT+0021GMTT V0202001N00571069001CN0100001N1+01971+01101101731ADDAA199000021GA1021+004809999GA2021+024009999GA3071+069009999GF107991031021004501071021MA1101691999999MD1710211+9999MW1001REMSYN082AAXX  10154 60101 32460 72011 10197 20110 40173 57021 83272 333 83816 83358 85073;MET065GMTT 101500Z 20011KT 9999 SCT016 SCT080 BKN233 20/11 Q1017 NOSIG;EQDQ01+000000PRSWM2
0191601010999992001011016004+35730-005890FM-15+0021GMTT V0202001N006710690019N0112651N1+01901+00801999999ADDGA1021+004809999GA2021+024009999GA3071+069009999GF107991999999999999999999MA1101691999999MW1001REMMET065GMTT 101600Z 20013KT 9999 SCT016 SCT080 BKN233 19/08 Q1017 NOSIG;EQDQ01+000000PRSWM2
0168601010999992001011017004+35730-005890FM-15+0021GMTT V0201901N004110690019N0112651N1+01801+00801999999ADDGA1021+004809999GA2071+069009999GF107991999999999999999999MA1101691999999MW1001REMMET058GMTT 101700Z 19008KT 9999 FEW016 BKN233 18/08 Q1017 NOSIG;EQDQ01+000000PRSWM2
0316601010999992001011018004+35730-005890SY-MT+0021GMTT V0201801N002610690019N0100001N1+01591+00701101691ADDAA112002091GA1021+004809999GA2071+069009999GF199999011051004501001021KA1120M+01991MA1101591999999MD1610051+9999MW1001REMSYN088AAXX  10184 60101 12460 61805 10159 20070 40169 56005 60022 81502 333 10199 81816 86073;MET058GMTT 101800Z 18005KT 9999 FEW016 BKN233 16/07 Q1016 NOSIG;EQDQ01+000062SCOTCVQ02+000000PRSWM2
0168601010999992001011019004+35730-005890FM-15+0021GMTT V0201501N002110690019N0112651N1+01501+00901999999ADDGA1021+004809999GA2071+069009999GF107991999999999999999999MA1101591999999MW1001REMMET058GMTT 101900Z 15004KT 9999 FEW016 BKN233 15/09 Q1016 NOSIG;EQDQ01+000000PRSWM2
0176601010999992001011020004+35730-005890FM-15+0021GMTT V0201801N002112200019N0112651N1+01601+00701999999ADDGA1021+004809999GA2021+030009999GF104991999999999999999999MA1101591999999MW1001REMMET066GMTT 102000Z 18004KT 150V210 9999 FEW016 SCT100 16/07 Q1016 NOSIG;EQDQ01+000000PRSWM2
0291601010999992001011021004+35730-005890SY-MT+0021GMTT V0201901N003612200019N0100001N1+01581+00681101701ADDAA199000091GA1021+004809999GA2021+030009999GF103991011051004501031001MA1101691999999MD1310011+9999MW1001REMSYN076AAXX  10214 60101 32460 31907 10158 20068 40170 53001 81530 333 81816 83360;MET058GMTT 102100Z 19006KT 9999 FEW016 SCT100 16/07 Q1017 NOSIG;EQDQ01+000000PRSWM2Q02  00002PRCP99
0176601010999992001011022004+35730-005890FM-15+0021GMTT V0201901N005110300019N0112651N1+01601+00701999999ADDGA1021+004809999GA2071+030009999GF107991999999999999999999MA1101691999999MW1001REMMET066GMTT 102200Z 19010KT 160V220 9999 SCT016 BKN100 16/07 Q1017 NOSIG;EQDQ01+000000PRSWM2
0168601010999992001011023004+35730-005890FM-15+0021GMTT V0202001N004610300019N0112651N1+01601+00801999999ADDGA1021+004809999GA2071+030009999GF107991999999999999999999MA1101691999999MW1001REMMET058GMTT 102300Z 20009KT 9999 SCT016 BKN100 16/08 Q1017 NOSIG;EQDQ01+000000PRSWM2
0348601010999992001011100004+35730-005890SY-MT+0021GMTT V0201901N002610090019N0080001N1+01511+00891101661ADDAA124000791AY121061AY261061GA1021+003909999GA2071+009009999GA3071+030009999GF108991051081004501071999MA1101591999999MD1810041+9999MW1601MW2611REMSYN100AAXX  11004 60101 11458 81905 10151 20089 40166 58004 69904 76026 8587/ 92351 333 83813 85630 86360;MET069GMTT 110000Z 19005KT 8000 -RA SCT013 BKN030 BKN100 15/09 Q1016 NOSIG;EQDQ01    003PRSWM1
0196601010999992001011101004+35730-005890FM-15+0021GMTT V0201801N003110090019N0080001N1+01501+00901999999ADDGA1021+003909999GA2071+009009999GA3071+030009999GF107991999999999999999999MA1101491999999MW1001REMMET070GMTT 110100Z 18006KT 8000 SCT013 BKN030 BKN100 15/09 Q1015 RERA NOSIG;EQDQ01+000000PRSWM2
0191601010999992001011102004+35730-005890FM-15+0021GMTT V0201501N002610090019N0080001N1+01501+01001999999ADDGA1021+003909999GA2071+009009999GA3071+030009999GF107991999999999999999999MA1101491999999MW1001REMMET065GMTT 110200Z 15005KT 8000 SCT013 BKN030 BKN100 15/10 Q1015 NOSIG;EQDQ01+000000PRSWM2
0339601010999992001011103004+35730-005890SY-MT+0021GMTT V0201801N002110090019N0080001N1+01531+00901101511ADDAY121031AY261031GA1021+003909999GA2071+009009999GA3071+030009999GF108991051081004501071999MA1101391999999MD1610161+9999MW1021REMSYN088AAXX  11034 60101 41458 81804 10153 20090 40151 56016 70226 8587/ 333 83813 85630 86360;MET073GMTT 110300Z 21004KT 140V260 8000 SCT013 BKN030 BKN100 15/09 Q1014 NOSIG;EQDQ01+000000PRSWM2Q02    003PRSWM1
0191601010999992001011104004+35730-005890FM-15+0021GMTT V0201801N005110090019N0080001N1+01601+00901999999ADDGA1021+003909999GA2071+009009999GA3071+030009999GF107991999999999999999999MA1101291999999MW1001REMMET065GMTT 110400Z 18010KT 8000 SCT013 BKN030 BKN100 16/09 Q1013 NOSIG;EQDQ01+000000PRSWM2
0199601010999992001011105004+35730-005890FM-15+0021GMTT V0201801N006210090019N0080001N1+01601+00801999999ADDGA1021+003909999GA2071+009009999GA3071+030009999GF107991999999999999999999MA1101291999999MW1001REMMET073GMTT 110500Z 18012KT 160V220 8000 SCT013 BKN030 BKN100 16/08 Q1013 NOSIG;EQDQ01+000000PRSWM2
0367601010999992001011106004+35730-005890SY-MT+0021GMTT V0201901N006710090019N0080001N1+01531+00821101261ADDAA124002091AY121061AY261061GA1021+003909999GA2071+009009999GA3071+030009999GF108991051081004501071999KA1120N+01431MA1101191999999MD1710241+9999MW1021REMSYN100AAXX  11064 60101 11458 81913 10153 20082 40126 57024 60024 70226 8587/ 333 20143 83813 85630 86360;MET065GMTT 110600Z 19013KT 8000 SCT013 BKN030 BKN100 15/08 Q1012 NOSIG;EQDQ01+000000PRSWM2Q02    003PRSWM1
0191601010999992001011107004+35730-005890FM-15+0021GMTT V0201801N009310090019N0080001N1+01601+00801999999ADDGA1021+003909999GA2071+009009999GA3071+030009999GF107991999999999999999999MA1101191999999MW1001REMMET065GMTT 110700Z 18018KT 8000 SCT013 BKN030 BKN100 16/08 Q1012 NOSIG;EQDQ01+000000PRSWM2
0202601010999992001011108004+35730-005890FM-15+0021GMTT V0202001N00821220001CN0060001N1+01301+01201999999ADDGA1021+003909999GA2071+004509999GA3021+006909099MA1101391999999MW1631REMMET070GMTT 110800Z 20016KT 6000 RA SCT013 BKN015 SCT023CB 13/12 Q1014 NOSIG;EQDQ01+000042SCOTCVQ02+000003PRSWM1Q03    003PRSWM1
0326601010999992001011109004+35730-005890SY-MT+0021GMTT V0201901N006210045019N0060001N1+01341+01201101471ADDAY161031AY221031GA1021+003909999GA2071+004509999GA3021+006909099GF108991081091004501999999MA1101391999999MD1310181+9999MW1621MW2631REMSYN088AAXX  11094 60101 41456 81912 10134 20120 40147 53018 76262 889// 333 83813 85615 82923;MET070GMTT 110900Z 19014KT 6000 RA SCT013 BKN015 FEW023CB 13/12 Q1014 NOSIG;EQDQ01    003PRSWM1
0202601010999992001011110004+35730-005890FM-15+0021GMTT V0201901N00721220001CN0060001N1+01401+01201999999ADDGA1021+003909999GA2071+004509999GA3021+006909099MA1101491999999MW1631REMMET070GMTT 111000Z 19014KT 6000 RA SCT013 BKN015 FEW023CB 14/12 Q1015 NOSIG;EQDQ01+000022SCOTCVQ02+000003PRSWM1Q03    003PRSWM1
0225601010999992001011111004+35730-005890FM-15+0021GMTT V0202001N00671220001CN0060001N1+01401+01201999999ADDGA1021+003909999GA2071+004509999GA3021+006909099MA1101491999999MW1631REMMET093GMTT 111100Z 20013KT 180V240 6000 R28/1400V1500D RA SCT013 BKN015 FEW023CB 14/12 Q1015 NOSIG;EQDQ01+000022SCOTCVQ02+000003PRSWM1Q03    003PRSWM1
0323601010999992001011112004+35730-005890SY-MT+0021GMTT V0202201N008710045019N0060001N1+01581+01251101511ADDAA106008991AY161061AY221061GA1021+003909999GA2071+004509999GF107991071081004501999999MA1101491999999MD1210091+9999MW1621MW2631OC101391REMSYN088AAXX  11124 60101 11456 72217 10158 20125 40151 52009 60091 76262 878// 333 83813 86615;MET064GMTT 111200Z 22017G27KT 6000 RA SCT013 BKN015 16/13 Q1015 NOSIG;EQDQ01    003PRSWM1
0183601010999992001011113004+35730-005890FM-15+0021GMTT V0202101N01031220001CN0080001N1+01701+01101999999ADDGA1021+003909999GA2071+004509999GA3021+006909099MA1101391999999MW1001REMMET067GMTT 111300Z 21020KT 8000 SCT013 BKN015 FEW023CB 17/11 Q1014 NOSIG;EQDQ01+000022SCOTCVQ02+000000PRSWM2
0217601010999992001011114004+35730-005890FM-15+0021GMTT V0202201N007712200019N0060001N1+01501+01301999999ADDGA1021+003909999GA2021+004809029GA3021+006909099GF102991999999999999999999MA1101291999999MW1811REMMET075GMTT 111400Z 22015KT 6000 SHRA SCT013 SCT016TCU FEW023CB 15/13 Q1013 NOSIG;EQDQ01+000003PRSWM1Q02    003PRSWM1
0323601010999992001011115004+35730-005890SY-MT+0021GMTT V0202201N00671006901CN0060001N1+01481+01191101251ADDAY191031AY281031GA1021+003909999GA2021+004809029GA3021+006909099GF107991071091004501999999MA1101191999999MD1810261+9999MW1171REMSYN088AAXX  11154 60101 41456 72213 10148 20119 40125 58026 71798 879// 333 83813 84816 83923;MET073GMTT 111500Z 22013KT 6000 TS SCT013 SCT016TCU SCT023CB 15/12 Q1012 NOSIG;EQDQ01    003PRSWM1
0215601010999992001011116004+35730-005890FM-15+0021GMTT V0202101N007212200019N0060001N1+01601+01201999999ADDGA1021+003909999GA2021+004809029GA3021+006909099GF104991999999999999999999MA1101081999999MW1171REMMET073GMTT 111600Z 21014KT 6000 TS SCT013 SCT016TCU SCT023CB 16/12 Q1011 NOSIG;EQDQ01+000003PRSWM1Q02    003PRSWM1
0231601010999992001011117004+35730-005890FM-15+0021GMTT V0202201N007212200019N0060001N1+01501+01301999999ADDGA1021+003909999GA2021+004809029GA3021+006909099GF104991999999999999999999MA1101081999999MW1811MW2951REMMET083GMTT 111700Z 22014KT 200V270 6000 TSRA SCT013 SCT016TCU SCT023CB 15/13 Q1011 NOSIG;EQDQ01+000003PRSWM1Q02    003PRSWM1
0359601010999992001011118004+35730-005890SY-MT+0021GMTT V0202001N00821006901CN0060001N1+01481+01231101111ADDAA112018091AY191061AY281061GA1021+003909999GA2021+004809029GA3021+006909099GF107991071091004501999999KA1120M+01711MA1101081999999MD1610141+9999MW1171REMSYN100AAXX  11184 60101 11456 72016 10148 20123 40111 56014 60182 71798 879// 333 10171 83813 84816 83923;MET073GMTT 111800Z 20016KT 6000 TS SCT013 SCT016TCU SCT023CB 15/12 Q1011 NOSIG;EQDQ01    003PRSWM1
0196601010999992001011119004+35730-005890FM-15+0021GMTT V0201901N007712200019N0060001N1+01401+01001999999ADDGA1021+003909999GA2021+004809029GA3021+006909099GF104991999999999999999999MA1101021999999MW1001REMMET070GMTT 111900Z 19015KT 6000 SCT013 SCT016TCU SCT023CB 14/10 Q1010 NOSIG;EQDQ01+000000PRSWM2
0215601010999992001011120004+35730-005890FM-15+0021GMTT V0201801N006212200019N0060001N1+01401+01101999999ADDGA1021+003909999GA2021+004809029GA3021+006909099GF104991999999999999999999MA1101021999999MW1171REMMET073GMTT 112000Z 18012KT 6000 TS SCT013 SCT016TCU SCT023CB 14/11 Q1010 NOSIG;EQDQ01+000003PRSWM1Q02    003PRSWM1
0333601010999992001011121004+35730-005890SY-MT+0021GMTT V0202101N00411006901CN0060001N1+01201+01071101051ADDAY191031AY221031GA1021+003909999GA2021+004809029GA3021+006909099GF107991071091004501999999MA1101021999999MD1510071+9999MW1951REMSYN088AAXX  11214 60101 41456 72108 10120 20107 40105 55007 79592 879// 333 83813 84816 83923;MET083GMTT 112100Z 19007KT 170V240 6000 TSRA SCT013 SCT016TCU SCT023CB 12/10 Q1010 NOSIG;EQDQ01    003PRSWM1
0223601010999992001011122004+35730-005890FM-15+0021GMTT V0202501N006212200019N0060001N1+01201+01001999999ADDGA1021+003909999GA2021+004809029GA3021+006909099GF104991999999999999999999MA1100911999999MW1811MW2951REMMET075GMTT 112200Z 25012KT 6000 TSRA SCT013 SCT016TCU SCT023CB 12/10 Q1009 NOSIG;EQDQ01+000003PRSWM1Q02    003PRSWM1
0223601010999992001011123004+35730-005890FM-15+0021GMTT V0201601N005112200019N0060001N1+01201+01001999999ADDGA1021+003909999GA2021+004809029GA3021+006909099GF104991999999999999999999MA1100911999999MW1811MW2951REMMET075GMTT 112300Z 16010KT 6000 TSRA SCT013 SCT016TCU SCT023CB 12/10 Q1009 NOSIG;EQDQ01+000003PRSWM1Q02    003PRSWM1
0356601010999992001011200004+35730-005890SY-MT+0021GMTT V0201701N005110048019N0060001N1+01151+01021100851ADDAA106015091AY191061AY221061GA1021+003909999GA2071+004809029GA3021+006909099GF107991071091004501999999MA1100811999999MD1610141+9999MW1951REMSYN100AAXX  12004 60101 11456 71710 10115 20102 40085 56014 60151 79592 879// 92350 333 83813 85816 83923;MET083GMTT 120000Z 17010KT 140V200 6000 TSRA SCT013 BKN016TCU SCT023CB 12/10 Q1008 NOSIG;EQDQ01    003PRSWM1
0205601010999992001011201004+35730-005890FM-15+0021GMTT V0201901N00671220001CN0060001N1+01201+01001999999ADDGA1021+003909999GA2071+004809029GA3021+006909099MA1100811999999MW1171REMMET073GMTT 120100Z 19013KT 6000 TS SCT013 BKN016TCU SCT023CB 12/10 Q1008 NOSIG;EQDQ01+000042SCOTCVQ02+000003PRSWM1Q03    003PRSWM1
0154601010999992001011201504+35730-005890FM-16+0021GMTT V0202001N005110048019N0080001N1+99999+99999999999ADDGA1021+003909999GA2071+004809999GF107991999999999999999999MW1001REMMET059GMTT 120150Z 20010KT 8000 SCT013 BKN016 VU 11/10 Q1008 B8 ;EQDQ01+000000PRSWM2
0186601010999992001011202004+35730-005890FM-15+0021GMTT V0202001N00511220001CN0060001N1+01101+00901999999ADDGA1021+003909999GA2071+004809029GA3021+006909099MA1100811999999MW1001REMMET070GMTT 120200Z 20010KT 6000 SCT013 BKN016TCU SCT023CB 11/09 Q1008 NOSIG;EQDQ01+000042SCOTCVQ02+000000PRSWM2
0336601010999992001011203004+35730-005890SY-MT+0021GMTT V0202401N001510048019N0060001N1+01071+00941100831ADDAY181031AY281031GA1021+003909999GA2071+004809029GA3021+006909099GF107991071091004501999999MA1100811999999MD1610181+9999MW1021REMSYN088AAXX  12034 60101 41456 72403 10107 20094 40083 56018 70288 879// 333 83813 85816 83923;MET070GMTT 120300Z 24003KT 6000 SCT013 BKN016TCU SCT023CB 11/09 Q1008 NOSIG;EQDQ01+000000PRSWM2Q02    003PRSWM1
0186601010999992001011204004+35730-005890FM-15+0021GMTT V0202701N00721220001CN0060001N1+01301+00901999999ADDGA1021+003909999GA2071+004809029GA3021+006909099MA1100811999999MW1001REMMET070GMTT 120400Z 27014KT 6000 SCT013 BKN016TCU SCT023CB 13/09 Q1008 NOSIG;EQDQ01+000042SCOTCVQ02+000000PRSWM2
0171601010999992001011205004+35730-005890FM-15+0021GMTT V0202601N005710048019N0060001N1+01301+00901999999ADDGA1021+003909999GA2071+004809029GF107991999999999999999999MA1100811999999MW1001REMMET061GMTT 120500Z 26011KT 6000 SCT013 BKN016TCU 13/09 Q1008 NOSIG;EQDQ01+000000PRSWM2
0372601010999992001011206004+35730-005890SY-MT+0021GMTT V0202601N005110048019N0060001N1+01311+00891100851ADDAA124046091AY181061AY281061GA1021+003909999GA2071+004809029GA3021+006909099GF107991071091004501999999KA1120N+01041MA1100811999999MD1110051+9999MW1011REMSYN100AAXX  12064 60101 11456 72610 10131 20089 40085 51005 60464 70188 879// 333 20104 83813 85816 81923;MET070GMTT 120600Z 26010KT 6000 SCT013 BKN016TCU FEW023CB 13/09 Q1008 NOSIG;EQDQ01+000000PRSWM2Q02    003PRSWM1
0202601010999992001011207004+35730-005890FM-15+0021GMTT V0202501N00871220001CN9999999N1+01401+00801999999ADDGA1021+003909999GA2071+004809029GA3021+006909099MA1100811999999MW1001REMMET070GMTT 120700Z 25017KT 6000 SCT013 BKN016TCU FEW023CB 14/08 Q1008 NOSIG;EQDQ01+000022SCOTCVQ02+060002VODIS Q03+000000PRSWM2
0215601010999992001011207594+35730-005890FM-16+0021GMTT V0202701N00931220001CN0060001N1+01401+00901999999ADDGA1021+003909999GA2071+004809029GA3021+006909099MA1100911999999MW1801OC101591REMMET075GMTT 120759Z 27018G31KT 6000 -SHRA SCT013 BKN016TCU FEW023CB 14/09 Q1009M0;EQDQ01+000022SCOTCVQ02+000003PRSWM1Q03    003PRSWM1
0186601010999992001011208004+35730-005890FM-15+0021GMTT V0202501N00821220001CN0060001N1+01401+00901999999ADDGA1021+003909999GA2071+004809029GA3021+006909099MA1100811999999MW1001REMMET070GMTT 120800Z 25016KT 6000 SCT013 BKN016TCU FEW023CB 14/09 Q1008 NOSIG;EQDQ01+000022SCOTCVQ02+000000PRSWM2
0230601010999992001011208114+35730-005890FM-16+0021GMTT V0202801N010812200019N0030001N1+01101+00901999999ADDGA1021+003909999GA2021+004809029GA3021+006909099GF104991999999999999999999MA1100911999999MW1811MW2951OC101591REMMET074GMTT 120811Z 28021G31KT 3000 TSRA SCT013 SCT016TCU SCT023CB 11/09 Q1009M8;EQDQ01+000003PRSWM1Q02    003PRSWM1
0325601010999992001011209004+35730-005890SY-MT+0021GMTT V0202701N00931006901CN0030001N1+01181+00981100951ADDAY191031AY281031GA1021+003909999GA2021+004809029GA3021+006909099GF107991071091004501999999MA1100911999999MD1310101+9999MW1951REMSYN088AAXX  12094 60101 41430 72718 10118 20098 40095 53010 79598 879// 333 84813 84816 83923;MET075GMTT 120900Z 27018KT 3000 TSRA SCT013 SCT016TCU SCT023CB 12/10 Q1009 NOSIG;EQDQ01    003PRSWM1
0223601010999992001011210004+35730-005890FM-15+0021GMTT V0202401N008712200019N0040001N1+01201+01001999999ADDGA1021+003909999GA2021+004809029GA3021+006909099GF104991999999999999999999MA1101021999999MW1811MW2951REMMET075GMTT 121000Z 24017KT 4000 TSRA SCT013 SCT016TCU SCT023CB 12/10 Q1010 NOSIG;EQDQ01+000003PRSWM1Q02    003PRSWM1
0223601010999992001011211004+35730-005890FM-15+0021GMTT V0202501N008212200019N0040001N1+01301+01101999999ADDGA1021+003909999GA2021+004809029GA3021+006909099GF104991999999999999999999MA1100911999999MW1811MW2951REMMET075GMTT 121100Z 25016KT 4000 TSRA SCT013 SCT016TCU SCT023CB 13/11 Q1009 NOSIG;EQDQ01+000003PRSWM1Q02    003PRSWM1
0358601010999992001011212004+35730-005890SY-MT+0021GMTT V0202201N00871006901CN0060001N1+01381+01111100941ADDAA106009991AY191061AY281061GA1021+003909999GA2021+004809029GA3021+006909099GF107991071091004501999999MA1100911999999MD1010011+9999MW1291REMSYN094AAXX  12124 60101 11456 72217 10138 20111 40094 50001 60101 72998 879// 333 83813 84816 83923;MET075GMTT 121200Z 23018KT 6000 SCT013 SCT016TCU SCT023CB 14/11 Q1009 RETS NOSIG;EQDQ01+000000PRSWM2Q02    003PRSWM1
0196601010999992001011213004+35730-005890FM-15+0021GMTT V0202201N007712200019N0060001N1+01401+01001999999ADDGA1021+003909999GA2021+004809029GA3021+006909099GF102991999999999999999999MA1100811999999MW1001REMMET070GMTT 121300Z 22015KT 6000 SCT013 SCT016TCU FEW023CB 14/10 Q1008 NOSIG;EQDQ01+000000PRSWM2
0201601010999992001011214004+35730-005890FM-15+0021GMTT V0202101N006712200019N0060001N1+01401+01101999999ADDGA1021+003909999GA2021+004809029GA3021+006909099GF102991999999999999999999MA1100711999999MW1001REMMET075GMTT 121400Z 21013KT 6000 SCT013 SCT016TCU FEW023CB 14/11 Q1007 RERA NOSIG;EQDQ01+000000PRSWM2
0223601010999992001011214574+35730-005890FM-16+0021GMTT V0202501N008712200019N0060001N1+01301+01101999999ADDGA1021+003909999GA2021+004809029GA3021+006909099GF102991999999999999999999MA1100611999999MW1811MW2951REMMET075GMTT 121457Z 25017KT 6000 TSRA SCT013 SCT016TCU FEW023CB 13/11 Q1006 NOSIG;EQDQ01+000003PRSWM1Q02    003PRSWM1
0342601010999992001011215004+35730-005890SY-MT+0021GMTT V0202401N01031006901CN0060001N1+01301+01061100691ADDAY181031AY261031GA1021+003909999GA2021+004809029GA3021+006909099GF108991081091004501999999MA1100611999999MD1810251+9999MW1801MW2811OC101591REMSYN088AAXX  12154 60101 41456 82420 10130 20106 40069 58025 78086 889// 333 83813 84816 82923;MET078GMTT 121500Z 25020G31KT 6000 SHRA SCT013 SCT016TCU FEW023CB 13/11 Q1006 NOSIG;EQDQ01    003PRSWM1
0181601010999992001011216304+35730-005890FM-15+0021GMTT V0202701N00931220001CN0050001N1+01401+01101999999ADDGA1071+004809029GA2021+006909099MA1100711999999MW1001OC101491REMMET073GMTT 121630Z 27018G29KT SCT010 BKN016TCU FEW023CB 14/11 Q1007 RERA NOSIG;EQDQ01+000022SCOTCVQ02+000000PRSWM2
0212601010999992001011217004+35730-005890FM-15+0021GMTT V0202801N01031220001CN0060001N1+01401+01001999999ADDED199U13009GA1021+003009999GA2071+004809029GA3021+006909099MA1100711999999MW1001REMMET085GMTT 121700Z 28020KT 6000 R28/1300U SCT010 BKN016TCU FEW023CB 14/10 Q1007 RERA NOSIG;EQDQ01+000022SCOTCVQ02+000000PRSWM2
0430601010999992001011218004+35730-005890SY-MT+0021GMTT V0203001N010312200019N0060001N1+01311+00941100901ADDAA112014091AY181061AY261061GA1021+003009999GA2071+004809029GA3021+006909099GF199999999999999999001001KA1120M+01431MA1100811999999MD1310211+9999MW1801MW2811REMSYN100AAXX  12184 60101 11456 03020 10131 20094 40090 53021 60142 78086 889// 333 10143 83813 86316 82923;MET090GMTT 121800Z 30020KT 6000 R28/1400V1700D SHRA SCT010 BKN016TCU FEW023CB 14/10 Q1008 NOSIG;EQDQ01+000002SCOTCVQ02+000002SCOTLCQ03+000002SCOLCGQ04    003PRSWM1
0207601010999992001011219004+35730-005890FM-15+0021GMTT V0203101N00771220001CN0060001N1+01301+01001999999ADDGA1021+003009999GA2071+004809029GA3021+006909099MA1101021999999MW1811REMMET075GMTT 121900Z 31015KT 6000 SHRA SCT010 BKN016TCU FEW023CB 13/10 Q1010 NOSIG;EQDQ01+000022SCOTCVQ02+000003PRSWM1Q03    003PRSWM1
0193601010999992001011220004+35730-005890FM-15+0021GMTT V0203301N007212200019N0060001N1+01301+01001999999ADDGA1021+003909999GA2021+004809999GA3021+006909099GF102991999999999999999999MA1101191999999MW1001REMMET067GMTT 122000Z 33014KT 6000 SCT013 SCT016 FEW023CB 13/10 Q1012 NOSIG;EQDQ01+000000PRSWM2
0336601010999992001011221004+35730-005890SY-MT+0021GMTT V0203301N00671006901CN0080001N1+01291+00911101331ADDAY181031AY221031GA1021+003909999GA2021+004809029GA3021+006909099GF105991051091004501001001MA1101291999999MD1310431+9999MW1011REMSYN088AAXX  12214 60101 41458 53313 10129 20091 40133 53043 70182 85900 333 82613 83816 81923;MET070GMTT 122100Z 33013KT 8000 FEW013 SCT016TCU FEW023CB 13/09 Q1013 NOSIG;EQDQ01+000000PRSWM2Q02    003PRSWM1
0196601010999992001011222004+35730-005890FM-15+0021GMTT V0203401N005712200019N0080001N1+01401+01001999999ADDGA1021+003909999GA2021+004809029GA3021+006909099GF102991999999999999999999MA1101291999999MW1001REMMET070GMTT 122200Z 34011KT 8000 SCT013 SCT016TCU FEW023CB 14/10 Q1013 NOSIG;EQDQ01+000000PRSWM2
0204601010999992001011223004+35730-005890FM-15+0021GMTT V0203401N006212200019N0080001N1+01401+01001999999ADDGA1021+003909029GA2021+004809999GA3021+006909099GF102991999999999999999999MA1101391999999MW1001REMMET078GMTT 122300Z 34012KT 310V010 8000 SCT013TCU SCT016 FEW023CB 14/10 Q1014 NOSIG;EQDQ01+000000PRSWM2
0189601010999992001011300004+35730-005890FM-12+0021GMTT V0203301N003110048019N0080001N1+01221+00871101541ADDAA106000791GA1031+003909089GA2041+004809069GF106991061091004501001001MD1310211+9999REMSYN094AAXX  13004 60101 12458 63306 10122 20087 40154 53021 69901 86900 92355 333 83813 84616 82923;
0196601010999992001011300304+35730-005890FM-15+0021GMTT V0203201N004612200019N0080001N1+01301+01001999999ADDGA1021+003909029GA2021+004809999GA3021+006909099GF102991999999999999999999MA1101491999999MW1001REMMET070GMTT 130030Z 32009KT 8000 SCT013TCU SCT016 FEW023CB 13/10 Q1015 NOSIG;EQDQ01+000000PRSWM2
0196601010999992001011301004+35730-005890FM-15+0021GMTT V0203101N006712200019N0080001N1+01401+01001999999ADDGA1021+003909029GA2021+004809999GA3021+006909099GF102991999999999999999999MA1101491999999MW1001REMMET070GMTT 130100Z 31013KT 8000 FEW013TCU SCT016 FEW023CB 14/10 Q1015 NOSIG;EQDQ01+000000PRSWM2
0196601010999992001011302004+35730-005890FM-15+0021GMTT V0203201N005112200019N0080001N1+01401+01001999999ADDGA1021+003909029GA2021+004809999GA3021+006909099GF102991999999999999999999MA1101591999999MW1001REMMET070GMTT 130200Z 32010KT 8000 FEW013TCU SCT016 FEW023CB 14/10 Q1016 NOSIG;EQDQ01+000000PRSWM2
0315601010999992001011303004+35730-005890SY-MT+0021GMTT V0203101N00461006901CN0080001N1+01391+01001101681ADDAA199000021GA1021+003909029GA2021+004809999GA3021+006909099GF105991051091004501001001MA1101591999999MD1110161+9999MW1001REMSYN088AAXX  13034 60101 32458 53109 10139 20100 40168 51016 85900 90249 333 82813 84616 81923;MET070GMTT 130300Z 31009KT 8000 FEW013TCU SCT016 FEW023CB 14/10 Q1016 NOSIG;EQDQ01+000000PRSWM2
0196601010999992001011304004+35730-005890FM-15+0021GMTT V0203101N005712200019N0080001N1+01401+01001999999ADDGA1021+003909029GA2021+004809999GA3021+006909099GF102991999999999999999999MA1101691999999MW1001REMMET070GMTT 130400Z 31011KT 8000 FEW013TCU SCT016 FEW023CB 14/10 Q1017 NOSIG;EQDQ01+000000PRSWM2
0196601010999992001011305004+35730-005890FM-15+0021GMTT V0203101N005712200019N0080001N1+01401+01001999999ADDGA1021+003909029GA2021+004809999GA3021+006909099GF102991999999999999999999MA1101691999999MW1001REMMET070GMTT 130500Z 31011KT 8000 FEW013TCU SCT016 FEW023CB 14/10 Q1017 NOSIG;EQDQ01+000000PRSWM2
0334601010999992001011306004+35730-005890SY-MT+0021GMTT V0203001N00621006901CN0080001N1+01391+01011101811ADDAA124016091GA1021+003909029GA2021+004809999GA3021+006909099GF107991071091004501999999KA1120N+01211MA1101801999999MD1010121+9999MW1001REMSYN094AAXX  13064 60101 12458 73012 10139 20101 40181 50012 60164 879// 333 20121 84813 84616 81923;MET070GMTT 130600Z 30012KT 8000 SCT013TCU SCT016 FEW023CB 14/10 Q1018 NOSJG;EQDQ01+000000PRSWM2
0196601010999992001011307004+35730-005890FM-15+0021GMTT V0203101N005712200019N0080001N1+01301+01001999999ADDGA1021+003909029GA2021+004809999GA3021+006909099GF102991999999999999999999MA1101801999999MW1001REMMET070GMTT 130700Z 31011KT 8000 SCT013TCU SCT016 FEW023CB 13/10 Q1018 NOSJG;EQDQ01+000000PRSWM2
0168601010999992001011308004+35730-005890FM-15+0021GMTT V0203101N003610048019N0080001N1+01301+01001999999ADDGA1021+003909999GA2071+004809999GF107991999999999999999999MA1102001999999MW1001REMMET058GMTT 130800Z 31007KT 8000 SCT013 BKN016 13/10 Q1020 NOSJG;EQDQ01+000000PRSWM2
