0167601010999991991010100004+35733-005900SY-MT+0021GMTT V0209991C00001003301CN0005001N1+00941+00941102671ADDAG12000AY141061AY221061GA1041+001509079GA2041+003309059GA3051+069009009GF108991051051001501001021MA1102611999999MD1810011+9999MW1461REMSYN023333   84705 85611 85070
0079601010999991991010100304+35733-005900FM-15+0021GMTT V0209991C00001003301CN0006001N1+01001+00901999999ADDAG11999GA1041+001509079GA2041+003309059GA3051+060009009MA1102611999999MW1421
0079601010999991991010101004+35733-005900FM-15+0021GMTT V0209991C00001003901CN0007001N1+01001+00901999999ADDAG11999GA1041+001809079GA2041+003909059GA3051+060009009MA1102611999999MW1421
0079601010999991991010101304+35733-005900FM-15+0021GMTT V0209991C00001003901CN0007001N1+01001+00901999999ADDAG12999GA1041+001809079GA2041+003909059GA3051+060009009MA1102611999999MW1421
0064601010999991991010101454+35733-005900FM-16+0021GMTT V0209991C00001003901CN0018001N1+99999+99999999999ADDAG11999GA1021+001809079GA2031+003909059GA3051+060009009MW1101
0079601010999991991010102004+35733-005900FM-15+0021GMTT V0209991C00001003901CN0018001N1+01001+00901999999ADDAG11999GA1021+001809079GA2031+003909059GA3051+060009009MA1102611999999MW1101
0079601010999991991010102304+35733-005900FM-15+0021GMTT V0203401N00101004501CN0018001N1+01001+00901999999ADDAG12000GA1021+001809079GA2031+004509059GA3051+069009009MA1102611999999MW1101
0186601010999991991010103004+35733-005900SY-MT+0021GMTT V0201201N00261060001CN0060001N1+01211+01131102641ADDAG12000AY141031AY221031GA1011+001809079GA2031+003909059GA3051+060009009GF105991031051002501001021MA1102611999999MD1710031+9999MW1011REMSYN023333   81706 83613 85070EQDQ01+000000PRSWM2
0092601010999991991010103304+35733-005900FM-15+0021GMTT V0201001N00261060001CN0060001N1+01201+01101999999ADDAG12999GA1011+001809079GA2021+003909059GA3051+060009009MA1102611999999EQDQ01+000000PRSWM2
0076601010999991991010104004+35733-005900FM-15+0021GMTT V0200401N00411060001CN0060001N1+01201+01201999999ADDAG12999GA1031+003909059GA2051+060009009MA1102611999999EQDQ01+000000PRSWM2
0076601010999991991010104304+35733-005900FM-15+0021GMTT V0200401N00411060001CN0060001N1+01201+01201999999ADDAG12999GA1031+004509059GA2061+060009009MA1102611999999EQDQ01+000000PRSWM2
0076601010999991991010105004+35733-005900FM-15+0021GMTT V0200201N00411060001CN0060001N1+01301+01201999999ADDAG12999GA1031+004509059GA2061+060009009MA1102611999999EQDQ01+000000PRSWM2
0076601010999991991010105304+35733-005900FM-15+0021GMTT V0200201N00411060001CN0060001N1+01301+01201999999ADDAG12000GA1031+004509059GA2061+060009009MA1102611999999EQDQ01+000000PRSWM2
0178601010999991991010106004+35733-005900SY-MT+0021GMTT V0200401N00411060001CN0060001N1+01241+01091102641ADDAA106000091AG14000GA1031+004509059GA2061+060009009GF106991031051004501001021KA1120N+00961MA1102611999999MD1510001+9999MW1001REMSYN023333   20096 83615 86070EQDQ01+000000PRSWM2
0076601010999991991010106304+35733-005900FM-15+0021GMTT V0209999999999060001CN0060001N1+01201+01101999999ADDAG12999GA1031+004509059GA2061+060009009MA1102611999999EQDQ01+000000PRSWM2
0076601010999991991010107004+35733-005900FM-15+0021GMTT V0200401N00311060001CN0060001N1+01201+01101999999ADDAG12999GA1031+004509059GA2051+060009009MA1102611999999EQDQ01+000000PRSWM2
0076601010999991991010107304+35733-005900FM-15+0021GMTT V0200401N00311060001CN0060001N1+01201+01101999999ADDAG12999GA1031+004509059GA2051+060009009MA1102611999999EQDQ01+000000PRSWM2
0088601010999991991010108004+35733-005900FM-15+0021GMTT V0201001N00101060001CN0050001N1+01301+01201999999ADDAG12999GA1021+004509059GA2051+060009009MA1102711999999REMMET003NSGEQDQ01+000000PRSWM2
0088601010999991991010108304+35733-005900FM-15+0021GMTT V0201201N00101069001CN0050001N1+01301+01201999999ADDAG12000GA1021+004509059GA2051+069009009MA1102711999999REMMET003NSGEQDQ01+000000PRSWM2
0168601010999991991010109004+35733-005900SY-MT+0021GMTT V0201201N00211060001CN0050001N1+01151+00951102761ADDAA106000091AG14000GA1021+004509059GA2051+060009009GF107991021051004501031021MA1102711999999MD1210121+9999MW1001REMSYN017333   82615 85070MET003NSGEQDQ01+000000PRSWM2
0088601010999991991010109304+35733-005900FM-15+0021GMTT V0201201N00211069001CN0060001N1+01201+01001999999ADDAG12999GA1021+004509059GA2051+069009009MA1102711999999REMMET003NSGEQDQ01+000000PRSWM2
0088601010999991991010110004+35733-005900FM-15+0021GMTT V0209991C00001069001CN0060001N1+01601+01401999999ADDAG12999GA1021+004809059GA2051+069009009MA1102711999999REMMET003NSGEQDQ01+000000PRSWM2
0088601010999991991010110304+35733-005900FM-15+0021GMTT V0209991C00001069001CN0060001N1+01601+01401999999ADDAG12999GA1021+004809059GA2051+069009009MA1102711999999REMMET003NSGEQDQ01+000000PRSWM2
0088601010999991991010111004+35733-005900FM-15+0021GMTT V0203201N00101069001CN0060001N1+01601+01301999999ADDAG12999GA1021+004809059GA2051+069009009MA1102811999999REMMET003NSGEQDQ01+000000PRSWM2
0088601010999991991010111304+35733-005900FM-15+0021GMTT V0203201N00101069001CN0060001N1+01701+01301999999ADDAG12000GA1021+004809059GA2051+069009009MA1102811999999REMMET003NSGEQDQ01+000000PRSWM2
0159601010999991991010112004+35733-005900SY-MT+0021GMTT V0203201N00151069001CN0070001N1+01671+01411102831ADDAA106000091AG14000GA1021+004809059GA2041+069009009GF106991021051004501031021MA1102811999999MD1010071+9999MW1001REMSYN017333   82616 84070EQDQ01+000000PRSWM2
0076601010999991991010112304+35733-005900FM-15+0021GMTT V0200201N00151069001CN0070001N1+01701+01401999999ADDAG12999GA1021+004809059GA2041+069009009MA1102811999999EQDQ01+000000PRSWM2
0078601010999991991010113004+35733-005900FM-15+0021GMTT V0203201N00211069001CN0070001N1+01701+01401999999ADDAG12999GA1021+004809059GA2051+069009009REMMET00810028 NSEQDQ01+000000PRSWM2
0076601010999991991010113304+35733-005900FM-15+0021GMTT V0203601N00311069001CN0080001N1+01701+01401999999ADDAG12999GA1021+004809059GA2041+069009009MA1102611999999EQDQ01+000000PRSWM2
0076601010999991991010114004+35733-005900FM-15+0021GMTT V0203201N00261220001CN0080001N1+01701+01401999999ADDAG12999GA1021+004809059GA2031+060009009MA1102611999999EQDQ01+000000PRSWM2
0076601010999991991010114304+35733-005900FM-15+0021GMTT V0203601N00211060001CN0080001N1+01701+01401999999ADDAG12000GA1031+004809059GA2031+060009009MA1102611999999EQDQ01+000000PRSWM2
0137601010999991991010115004+35733-005900SY-MT+0021GMTT V0203401N00211220001CN0070001N1+01751+01411102621ADDAA106000091AG14000GA1031+004809059GF104991031051004501001021MA1102611999999MD1610211+9999MW1001REMSYN011333   83616EQDQ01+000000PRSWM2
0060601010999991991010115304+35733-005900FM-15+0021GMTT V0203601N00261220001CN0070001N1+01801+01401999999ADDAG12999GA1031+004809059MA1102611999999EQDQ01+000000PRSWM2
0060601010999991991010116004+35733-005900FM-15+0021GMTT V0203601N00211220001CN0080001N1+01701+01401999999ADDAG12999GA1031+004809059MA1102611999999EQDQ01+000000PRSWM2
0060601010999991991010116304+35733-005900FM-15+0021GMTT V0203401N00151220001CN0080001N1+01701+01401999999ADDAG12999GA1031+004809059MA1102611999999EQDQ01+000000PRSWM2
0060601010999991991010117304+35733-005900FM-15+0021GMTT V0203401N00211220001CN0070001N1+01701+01401999999ADDAG12000GA1021+004809059MA1102611999999EQDQ01+000000PRSWM2
0156601010999991991010118004+35733-005900SY-MT+0021GMTT V0203401N00261220001CN0040001N1+01451+01271102661ADDAA106000091AG14000GA1021+001809079GF103991031061002501001001KA1120M+01801MA1102611999999MD1310041+9999MW1101REMSYN017333   10180 82706EQDQ01+000003PRSWM1
0059601010999991991010118304+35733-005900FM-15+0021GMTT V0200201N00211220001CN0040001N1+01501+01301999999ADDAG12999GA1021+001809079MA1102611999999MW1101REMMET003NSG
0059601010999991991010119004+35733-005900FM-15+0021GMTT V0200801N00151220001CN0040001N1+01401+01301999999ADDAG12999GA1031+001809079MA1102611999999MW1101REMMET003NSG
0059601010999991991010119304+35733-005900FM-15+0021GMTT V0200201N00211220001CN0040001N1+01401+01301999999ADDAG12999GA1031+001809079MA1102611999999MW1101REMMET003NSG
0047601010999991991010120004+35733-005900FM-15+0021GMTT V0200201N00261220001CN0040001N1+01201+01101999999ADDAG12999GA1031+001809079MA1102611999999MW1101
0072601010999991991010120304+35733-005900FM-15+0021GMTT V0209991C00001220001CN0040001N1+01201+01101999999ADDAG12000GA1031+001809079MA1102611999999REMMET003NSGEQDQ01+000000PRSWM2
0137601010999991991010121004+35733-005900SY-MT+0021GMTT V0209991C00001220001CN0040001N1+01281+01201102681ADDAA106000091AG14000GA1021+001809079GF103991031061002501001001MA1102611999999MD1210021+9999MW1101REMSYN011333   82706EQDQ01+000003PRSWM1
0047601010999991991010121304+35733-005900FM-15+0021GMTT V0200801N00211220001CN0040001N1+01301+01201999999ADDAG12999GA1021+001809079MA1102611999999MW1101
0076601010999991991010122004+35733-005900FM-15+0021GMTT V0200801N00211069001CN0060001N1+01301+01201999999ADDAG12999GA1021+002409079GA2041+069009009MA1102611999999EQDQ01+000000PRSWM2
0076601010999991991010122304+35733-005900FM-15+0021GMTT V0200801N00311069001CN0060001N1+01301+01201999999ADDAG12999GA1021+002409079GA2041+069009009MA1102611999999EQDQ01+000000PRSWM2
0076601010999991991010123004+35733-005900FM-15+0021GMTT V0200801N00511069001CN0070001N1+01301+01101999999ADDAG12999GA1021+002409079GA2041+069009009MA1102711999999EQDQ01+000000PRSWM2
0076601010999991991010123304+35733-005900FM-15+0021GMTT V0200801N00621069001CN0070001N1+01301+01101999999ADDAG12000GA1021+002409079GA2041+069009009MA1102711999999EQDQ01+000000PRSWM2
0159601010999991991010200004+35733-005900SY-MT+0021GMTT V0201001N00511220001CN0080001N1+01261+01071102761ADDAA106000091AG14000GA1021+004809059GA2031+069009009GF104991021051004501001021MA1102711999999MD1210021+9999MW1001REMSYN017333   82616 83070EQDQ01+000000PRSWM2
0076601010999991991010200304+35733-005900FM-15+0021GMTT V0200801N00411220001CN0080001N1+01301+01101999999ADDAG11999GA1021+004809059GA2031+069009009MA1102711999999EQDQ01+000000PRSWM2
0076601010999991991010201004+35733-005900FM-15+0021GMTT V0200801N00411220001CN0080001N1+01301+01101999999ADDAG11999GA1021+004809059GA2031+069009009MA1102711999999EQDQ01+000000PRSWM2
0076601010999991991010201304+35733-005900FM-15+0021GMTT V0200801N00311220001CN0080001N1+01301+01101999999ADDAG11999GA1021+004809059GA2031+069009009MA1102711999999EQDQ01+000000PRSWM2
0076601010999991991010202004+35733-005900FM-15+0021GMTT V0201001N00411069001CN0080001N1+01301+01101999999ADDAG11999GA1021+004809059GA2041+069009009MA1102711999999EQDQ01+000000PRSWM2
0076601010999991991010202304+35733-005900FM-15+0021GMTT V0200801N00411220001CN0080001N1+01301+01101999999ADDAG12000GA1021+004809059GA2031+069009009MA1102711999999EQDQ01+000000PRSWM2
0137601010999991991010203004+35733-005900SY-MT+0021GMTT V0200801N00411220001CN0080001N1+01231+01141102731ADDAA106000091AG14000GA1021+004809059GF103991021051004501001021MA1102711999999MD1610031+9999MW1001REMSYN011333   82616EQDQ01+000000PRSWM2
0060601010999991991010203304+35733-005900FM-15+0021GMTT V0201001N00311220001CN0080001N1+01201+01101999999ADDAG12999GA1021+004809059MA1102711999999EQDQ01+000000PRSWM2
0060601010999991991010204004+35733-005900FM-15+0021GMTT V0201001N00411220001CN0080001N1+01201+01101999999ADDAG12999GA1021+004809059MA1102711999999EQDQ01+000000PRSWM2
0060601010999991991010204304+35733-005900FM-15+0021GMTT V0200801N00311220001CN0080001N1+01201+01101999999ADDAG12999GA1021+004809059MA1102711999999EQDQ01+000000PRSWM2
0060601010999991991010205004+35733-005900FM-15+0021GMTT V0201001N00621220001CN0080001N1+01201+01001999999ADDAG12999GA1021+004809059MA1102611999999EQDQ01+000000PRSWM2
0058601010999991991010205304+35733-005900FM-15+0021GMTT V0200801N00621999991CY0099001N1+01201+01001999999ADDAG12000MA1102611999999REMMET005CAVOKEQDQ01+000000PRSWM2
0134601010999991991010206004+35733-005900SY-MT+0021GMTT V0200801N00621220001CN0080001N1+01141+00991102621ADDAA106000091AG14000GF100991001001999999001001KA1120N+01001MA1102611999999MD1810081+9999MW1001REMSYN011333   20100EQDQ01+000000PRSWM2
0044601010999991991010206304+35733-005900FM-15+0021GMTT V0200801N00511220001CN0080001N1+01101+01001999999ADDAG12999MA1102611999999EQDQ01+000000PRSWM2
0058601010999991991010207004+35733-005900FM-15+0021GMTT V0201001N00621999991CY0099001N1+01101+01001999999ADDAG12999MA1102611999999REMMET005CAVOKEQDQ01+000000PRSWM2
0058601010999991991010207304+35733-005900FM-15+0021GMTT V0201001N00621999991CY0099001N1+01101+01001999999ADDAG12999MA1102611999999REMMET005CAVOKEQDQ01+000000PRSWM2
0076601010999991991010208004+35733-005900FM-15+0021GMTT V0201201N00411069001CN0080001N1+01201+01001999999ADDAG11999GA1021+004809059GA2041+069009009MA1102611999999EQDQ01+000000PRSWM2
0076601010999991991010208304+35733-005900FM-15+0021GMTT V0201001N00461069001CN0080001N1+01201+01001999999ADDAG12000GA1021+004809059GA2041+069009009MA1102611999999EQDQ01+000000PRSWM2
0159601010999991991010209004+35733-005900SY-MT+0021GMTT V0201001N00621220001CN0080001N1+01321+01131102701ADDAA106000091AG14000GA1021+004809059GA2031+069009009GF104991021051004501001021MA1102711999999MD1310081+9999MW1001REMSYN017333   82616 83073EQDQ01+000000PRSWM2
0076601010999991991010209304+35733-005900FM-15+0021GMTT V0201001N00721220001CN0112001N1+01301+01101999999ADDAG12999GA1021+004809059GA2031+069009009MA1102711999999EQDQ01+000000PRSWM2
0060601010999991991010210004+35733-005900FM-15+0021GMTT V0201001N00821004801CN0112001N1+01401+01201999999ADDAG12999GA1051+004809059MA1102711999999EQDQ01+000000PRSWM2
0060601010999991991010211004+35733-005900FM-15+0021GMTT V0201001N00931004801CN0112001N1+01601+01101999999ADDAG12999GA1051+004809059MA1102711999999EQDQ01+000000PRSWM2
0060601010999991991010211304+35733-005900FM-15+0021GMTT V0201001N00931220001CN0112001N1+01601+01101999999ADDAG12000GA1031+004809089MA1102711999999EQDQ01+000000PRSWM2
0137601010999991991010212004+35733-005900SY-MT+0021GMTT V0201001N01131220001CN0150001N1+01741+01151102641ADDAA106000091AG14000GA1031+004809089GF103991031021004501001021MA1102611999999MD1810061+9999MW1001REMSYN011333   83816EQDQ01+000000PRSWM2
0060601010999991991010212304+35733-005900FM-15+0021GMTT V0201001N01031220001CN0112001N1+01701+01201999999ADDAG12999GA1031+004809089MA1102611999999EQDQ01+000000PRSWM2
0060601010999991991010213004+35733-005900FM-15+0021GMTT V0201001N01031220001CN0112001N1+01701+01201999999ADDAG12999GA1031+999999089MA1102611999999EQDQ01+000000PRSWM2
0072601010999991991010213304+35733-005900FM-15+0021GMTT V0201001N01031220001CN0112001N1+01701+01201999999ADDAG12999GA1031+004809089MA1102611999999REMMET003NSGEQDQ01+000000PRSWM2
0060601010999991991010214004+35733-005900FM-15+0021GMTT V0201001N01031220001CN0112001N1+01801+01201999999ADDAG12999GA1031+004809089MA1102511999999EQDQ01+000000PRSWM2
0072601010999991991010214304+35733-005900FM-15+0021GMTT V0201001N01031220001CN0112001N1+01801+01201999999ADDAG12000GA1031+004809089MA1102511999999REMMET003NSGEQDQ01+000000PRSWM2
0162601010999991991010215004+35733-005900SY-MT+0021GMTT V0200801N01131220001CN0150001N1+01741+01151102471ADDAA106000091AG14000GA1021+004809089GF103991021051999999001021MA1102401999999MD1810171+9999MW1001REMSYN011333   82816MET003NSGEQDQ01+000992SCOLCBQ02+000000PRSWM2
0060601010999991991010215304+35733-005900FM-15+0021GMTT V0200801N01131220001CN0112001N1+01701+01201999999ADDAG12999GA1021+004809089MA1102401999999EQDQ01+000000PRSWM2
0072601010999991991010216004+35733-005900FM-15+0021GMTT V0201001N01031220001CN0112001N1+01701+01201999999ADDAG12999GA1021+004809089MA1102301999999REMMET003NSGEQDQ01+000000PRSWM2
0072601010999991991010216304+35733-005900FM-15+0021GMTT V0200801N01131220001CN0112001N1+01701+01201999999ADDAG12999GA1021+004809089MA1102301999999REMMET003NSGEQDQ01+000000PRSWM2
0071601010999991991010217004+35733-005900FM-15+0021GMTT V0201001N01031220001CN0112001N1+01701+01201999999ADDAG12999GA1021+004809089MA1102301999999REMMET002NGEQDQ01+000000PRSWM2
0071601010999991991010217304+35733-005900FM-15+0021GMTT V0201001N01031220001CN0112001N1+01701+01201999999ADDAG12000GA1021+004809089MA1102301999999REMMET002NGEQDQ01+000000PRSWM2
0116601010999991991010218004+35733-005900FM-12+0021GMTT V0201001N01031220001CN0100001N9+01461+01091102421ADDAA106000091AG14000GA1021+004809089GF103991021081004501001021KA1120M+01781MD1510051+9999REMSYN017333   10178 82816
0071601010999991991010219004+35733-005900FM-15+0021GMTT V0201001N00821220001CN0112001N1+01401+01101999999ADDAG12999GA1021+004809089MA1102401999999REMMET002NGEQDQ01+000000PRSWM2
0071601010999991991010219304+35733-005900FM-15+0021GMTT V0201001N00821220001CN0112001N1+01401+01101999999ADDAG12999GA1021+004809089MA1102401999999REMMET002NGEQDQ01+000000PRSWM2
0071601010999991991010220304+35733-005900FM-15+0021GMTT V0201001N00821220001CN0112001N1+01401+01101999999ADDAG12000GA1021+004809089MA1102401999999REMMET002NGEQDQ01+000000PRSWM2
0137601010999991991010221004+35733-005900SY-MT+0021GMTT V0201001N00931220001CN0100001N1+01301+01021102421ADDAA106000091AG14000GA1021+004809089GF102991021021004501001021MA1102401999999MD1410001+9999MW1001REMSYN011333   82816EQDQ01+000000PRSWM2
0060601010999991991010221304+35733-005900FM-15+0021GMTT V0201001N00931220001CN0112001N1+01301+01001999999ADDAG12999GA1021+004809089MA1102401999999EQDQ01+000000PRSWM2
0060601010999991991010222004+35733-005900FM-15+0021GMTT V0201001N00931220001CN0112001N1+01301+01001999999ADDAG12999GA1021+004809089MA1102401999999EQDQ01+000000PRSWM2
0060601010999991991010222304+35733-005900FM-15+0021GMTT V0201001N00721220001CN0112001N1+01301+01001999999ADDAG12999GA1021+004809089MA1102401999999EQDQ01+000000PRSWM2
0060601010999991991010223004+35733-005900FM-15+0021GMTT V0201001N00721220001CN0112001N1+01301+01101999999ADDAG12999GA1021+004809089MA1102401999999EQDQ01+000000PRSWM2
0137601010999991991010300004+35733-005900SY-MT+0021GMTT V0201001N00621220001CN0100001N1+01151+00981102421ADDAA106000091AG14000GA1021+004809059GF102991021021004501001001MA1102401999999MD1410001+9999MW1001REMSYN011333   82616EQDQ01+000000PRSWM2
0060601010999991991010300304+35733-005900FM-15+0021GMTT V0201001N00621220001CN0112001N1+01201+01001999999ADDAG11999GA1021+004809089MA1102401999999EQDQ01+000000PRSWM2
0060601010999991991010301004+35733-005900FM-15+0021GMTT V0201001N00621220001CN0112001N1+01101+01001999999ADDAG11999GA1021+004809089MA1102401999999EQDQ01+000000PRSWM2
0060601010999991991010301304+35733-005900FM-15+0021GMTT V0201001N00621220001CN0112001N1+01101+01001999999ADDAG11999GA1021+999999089MA1102301999999EQDQ01+000000PRSWM2
0060601010999991991010302004+35733-005900FM-15+0021GMTT V0201001N00721220001CN0112001N1+01101+01001999999ADDAG11999GA1021+004809089MA1102301999999EQDQ01+000000PRSWM2
0060601010999991991010302304+35733-005900FM-15+0021GMTT V0201001N00721220001CN0112001N1+01101+01001999999ADDAG12000GA1021+004809089MA1102301999999EQDQ01+000000PRSWM2
0137601010999991991010303004+35733-005900SY-MT+0021GMTT V0201001N00721220001CN0100001N1+01121+00951102311ADDAA106000091AG14000GA1021+004809089GF102991021021004501001001MA1102301999999MD1710111+9999MW1001REMSYN011333   82816EQDQ01+000000PRSWM2
0072601010999991991010303304+35733-005900FM-15+0021GMTT V0201001N00721220001CN0112001N1+01101+01001999999ADDAG12999GA1021+004809089MA1102301999999REMMET003NSGEQDQ01+000000PRSWM2
0072601010999991991010304004+35733-005900FM-15+0021GMTT V0201001N00621220001CN0112001N1+01101+01001999999ADDAG12999GA1021+004809059MA1102301999999REMMET003NSGEQDQ01+000000PRSWM2
0072601010999991991010304304+35733-005900FM-15+0021GMTT V0201001N00621220001CN0112001N1+01101+01001999999ADDAG12999GA1021+004809089MA1102301999999REMMET003NSGEQDQ01+000000PRSWM2
0146601010999991991010305004+35733-005900SY-MT+0021GMTT V0201001N00621220001CN0100001N1+01101+01001102381ADDAA106000091AG14999GA1031+004809089GF104991021021004501001021MA1102201999999MD1310151+9999REMSYN017333   83816 83073MET003NSGEQDQ01+000000PRSWM2
0072601010999991991010305304+35733-005900FM-15+0021GMTT V0201001N00621220001CN0112001N1+01101+01001999999ADDAG12000GA1021+004809089MA1102201999999REMMET003NSGEQDQ01+000000PRSWM2
0187601010999991991010306004+35733-005900SY-MT+0021GMTT V0201001N00621220001CN0100001N1+00951+00851102241ADDAA106000091AG14000GA1021+004809089GA2031+069009009GF104991021021004501001021KA1120N+00941MA1102201999999MD1810081+9999MW1001REMSYN023333   20094 82816 83073MET003NSGEQDQ01+000000PRSWM2
0088601010999991991010306304+35733-005900FM-15+0021GMTT V0200801N00621220001CN0112001N1+01001+00901999999ADDAG12999GA1021+004809089GA2031+069009009MA1102201999999REMMET003NSGEQDQ01+000000PRSWM2
0088601010999991991010307004+35733-005900FM-15+0021GMTT V0201001N00621220001CN0112001N1+01001+00901999999ADDAG12999GA1021+004809089GA2031+069009009MA1102201999999REMMET003NSGEQDQ01+000000PRSWM2
0072601010999991991010307304+35733-005900FM-15+0021GMTT V0201001N00621220001CN0112001N1+01001+00901999999ADDAG12999GA1031+069009009MA1102201999999REMMET003NSGEQDQ01+000000PRSWM2
0087601010999991991010308004+35733-005900FM-15+0021GMTT V0201001N00511220001CN0112001N1+01001+00901999999ADDAG12999GA1021+004809089GA2031+069009009MA1102301999999REMMET002NGEQDQ01+000000PRSWM2
0088601010999991991010308304+35733-005900FM-15+0021GMTT V0201001N00511220001CN0112001N1+01001+00901999999ADDAG12000GA1021+004809089GA2031+069009009MA1102301999999REMMET003NSGEQDQ01+000000PRSWM2
0167601010999991991010309004+35733-005900SY-MT+0021GMTT V0201001N00621220001CN0100001N1+01141+00941102381ADDAA106000091AG14000GA1031+004809089GA2031+069009009GF104991021021004501001021MA1102301999999MD1310151+9999MW1001REMSYN017333   83816 83073MET002NGEQDQ01+000000PRSWM2
0088601010999991991010310004+35733-005900FM-15+0021GMTT V0201001N00621220001CN0112001N1+01201+00901999999ADDAG12999GA1021+004809089GA2031+069009009MA1102301999999REMMET003NSGEQDQ01+000000PRSWM2
0168601010999991991010312004+35733-005900SY-MT+0021GMTT V0201001N00311030001CN0100001N1+01601+01201102391ADDAA106000091AG14000GA1021+004809089GA2031+030009039GF106991021021004501081021MA1102301999999MD1010011+9999MW1001REMSYN017333   82816 83360MET003NSGEQDQ01+000000PRSWM2
0088601010999991991010312304+35733-005900FM-15+0021GMTT V0201001N00311220001CN0112001N1+01601+01201999999ADDAG12999GA1021+004809089GA2031+030009039MA1102301999999REMMET003NSGEQDQ01+000000PRSWM2
0088601010999991991010313004+35733-005900FM-15+0021GMTT V0201001N00311220001CN0112001N1+01601+01201999999ADDAG12999GA1021+004809089GA2031+030009039MA1102301999999REMMET003NSGEQDQ01+000000PRSWM2
0104601010999991991010313304+35733-005900FM-15+0021GMTT V0201201N00311030001CN0112001N1+01601+01301999999ADDAG12999GA1021+004809089GA2051+030009039GA3051+069009009MA1102301999999REMMET003NSGEQDQ01+000000PRSWM2
0104601010999991991010314004+35733-005900FM-15+0021GMTT V0201201N00311030001CN0112001N1+01601+01301999999ADDAG12999GA1021+004809089GA2051+030009039GA3051+069009009MA1102301999999REMMET003NSGEQDQ01+000000PRSWM2
0179601010999991991010315004+35733-005900SY-MT+0021GMTT V0201001N00311069001CN0100001N1+01781+01201102241ADDAA106000091AG14000GA1021+004809089GA2031+030009039GA3051+069009009GF107991021021004501081021MD1810151+9999MW1001REMSYN023333   82816 83360 85073MET007102 RPTEQDQ01+000000PRSWM2
0104601010999991991010315304+35733-005900FM-15+0021GMTT V0201001N00311069001CN0112001N1+01801+01201999999ADDAG12999GA1021+004809089GA2031+030009039GA3051+069009009MA1102201999999REMMET003NSXEQDQ01+000000PRSWM2
0092601010999991991010316304+35733-005900FM-15+0021GMTT V0201001N00211069001CN0112001N1+01701+01301999999ADDAG12999GA1021+004809089GA2031+030009039GA3051+069009009MA1102201999999EQDQ01+000000PRSWM2
0092601010999991991010317004+35733-005900FM-15+0021GMTT V0201001N00151069001CN0112001N1+01601+01301999999ADDAG12999GA1021+004809089GA2031+030009039GA3051+069009009MA1102201999999EQDQ01+000000PRSWM2
0076601010999991991010317304+35733-005900FM-15+0021GMTT V0203201N00151030001CN0112001N1+01401+01201999999ADDAG12000GA1021+004809089GA2051+030009039MA1102301999999EQDQ01+000000PRSWM2
0178601010999991991010318004+35733-005900SY-MT+0021GMTT V0201201N00151030001CN0100001N1+01231+01231102301ADDAA106000091AG14000GA1021+004809089GA2051+030009039GF107991021021004501071021KA1120M+01801MA1102301999999MD1210061+9999MW1001REMSYN023333   10180 82816 85360EQDQ01+000000PRSWM2
0076601010999991991010318304+35733-005900FM-15+0021GMTT V0201201N00151030001CN0112001N1+01401+01201999999ADDAG12999GA1021+004809089GA2041+030009039MA1102301999999EQDQ01+000000PRSWM2
0076601010999991991010319004+35733-005900FM-15+0021GMTT V0201201N00151030001CN0112001N1+01301+01101999999ADDAG12999GA1021+004809089GA2041+030009039MA1102301999999EQDQ01+000000PRSWM2
0076601010999991991010319304+35733-005900FM-15+0021GMTT V0209999999999030001CN0112001N1+01301+01101999999ADDAG12999GA1021+004809089GA2041+030009039MA1102301999999EQDQ01+000000PRSWM2
0076601010999991991010320004+35733-005900FM-15+0021GMTT V0201201N00151220001CN0112001N1+01201+01101999999ADDAG12999GA1021+004809089GA2031+030009039MA1102301999999EQDQ01+000000PRSWM2
0076601010999991991010320304+35733-005900FM-15+0021GMTT V0201201N00211220001CN0112001N1+01201+01101999999ADDAG12000GA1021+004809089GA2031+030009039MA1102301999999EQDQ01+000000PRSWM2
0145601010999991991010321004+35733-005900SY-MT+0021GMTT V0209991C00001030001CN0100001N1+01061+01001102381ADDAA106000091AG14000GA1021+004809089GA2031+030009039GF106991021081004501071021MA1102301999999MW1001REMSYN017333   82816 83360EQDQ01+000000PRSWM2
0087601010999991991010321304+35733-005900FM-15+0021GMTT V0209991C00001220001CN0112001N1+01201+01101999999ADDAG12999GA1021+004809089GA2031+030009039MA1102301999999REMMET002NGEQDQ01+000000PRSWM2
0088601010999991991010322004+35733-005900FM-15+0021GMTT V0209991C00001220001CN0112001N1+01001+01001999999ADDAG12999GA1021+004809089GA2031+030009039MA1102401999999REMMET003NSGEQDQ01+000000PRSWM2
0087601010999991991010322304+35733-005900FM-15+0021GMTT V0209991C00001220001CN0112001N1+01001+01001999999ADDAG12999GA1021+004809089GA2031+030009039MA1102401999999REMMET002NGEQDQ01+000000PRSWM2
0088601010999991991010323004+35733-005900FM-15+0021GMTT V0209991C00001220001CN0112001N1+01001+00901999999ADDAG12999GA1021+004809089GA2031+030009039MA1102401999999REMMET003NSGEQDQ01+000000PRSWM2
0140601010999991991010400004+35733-005900SY-MT+0021GMTT V0209991C00001220001CN0100001N1+00921+00841102501ADDAA106000091AG14000GA1021+004809089GF104991021021004501001021MA1102511999999MD1310121+9999REMSYN011333   8281/MET003NSGEQDQ01+000000PRSWM2
0072601010999991991010400304+35733-005900FM-15+0021GMTT V0209991C00001220001CN0080001N1+00901+00801999999ADDAG11999GA1021+004809089MA1102511999999REMMET003NSGEQDQ01+000000PRSWM2
0072601010999991991010401004+35733-005900FM-15+0021GMTT V0209991C00001220001CN0060001N1+00901+00801999999ADDAG11999GA1021+004809089MA1102401999999REMMET003NSGEQDQ01+000000PRSWM2
0072601010999991991010402004+35733-005900FM-15+0021GMTT V0209991C00001220001CN0060001N1+00901+00801999999ADDAG11999GA1021+004809059MA1102401999999REMMET003NSGEQDQ01+000000PRSWM2
0072601010999991991010402114+35733-005900FM-15+0021GMTT V0209991C00001220001CN0060001N1+00901+00801999999ADDAG11999GA1021+004809059MA1102401999999REMMET003NSGEQDQ01+000000PRSWM2
0072601010999991991010402304+35733-005900FM-15+0021GMTT V0209991C00001220001CN0060001N1+00901+00801999999ADDAG12000GA1021+004809059MA1102401999999REMMET003NSGEQDQ01+000000PRSWM2
0146601010999991991010403004+35733-005900SY-MT+0021GMTT V0209991C00001220001CN0060001N1+00801+00711102471ADDAA106000091AG14000GA1021+004809059GF104991021051004501001021MA1102401999999MD1710031+9999MW1001REMSYN011333   82616MET003NSGEQDQ01+000000PRSWM2
0072601010999991991010403304+35733-005900FM-15+0021GMTT V0209991C00001220001CN0060001N1+00801+00701999999ADDAG12999GA1021+004809059MA1102401999999REMMET003NSGEQDQ01+000000PRSWM2
0072601010999991991010404004+35733-005900FM-15+0021GMTT V0209991C00001220001CN0060001N1+00801+00701999999ADDAG12999GA1021+004809059MA1102401999999REMMET003NSGEQDQ01+000000PRSWM2
0072601010999991991010404304+35733-005900FM-15+0021GMTT V0209991C00001220001CN0060001N1+00801+00701999999ADDAG12999GA1021+004809059MA1102401999999REMMET003NSGEQDQ01+000000PRSWM2
0060601010999991991010405004+35733-005900FM-15+0021GMTT V0209991C00001220001CN0060001N1+00801+00701999999ADDAG12999GA1021+004809059MA1102401999999EQDQ01+000000PRSWM2
0071601010999991991010405304+35733-005900FM-15+0021GMTT V0209991C00001220001CN0060001N1+00801+00701999999ADDAG12000GA1021+004809059MA1102401999999REMMET002NGEQDQ01+000000PRSWM2
0164601010999991991010406004+35733-005900SY-MT+0021GMTT V0209991C00001220001CN0060001N1+00721+00631102551ADDAA106000091AG14000GA1021+004809059GF104991021051004501001021KA1120N+00721MA1102511999999MD1310081+9999MW1001REMSYN017333   20072 82616MET002NGEQDQ01+000000PRSWM2
0072601010999991991010406304+35733-005900FM-15+0021GMTT V0209991C00001220001CN0060001N1+00701+00601999999ADDAG12999GA1021+004809059MA1102511999999REMMET003NSGEQDQ01+000000PRSWM2
0071601010999991991010407004+35733-005900FM-15+0021GMTT V0209991C00001220001CN0060001N1+00701+00601999999ADDAG12999GA1021+004809059MA1102511999999REMMET002NGEQDQ01+000000PRSWM2
0072601010999991991010407304+35733-005900FM-15+0021GMTT V0209991C00001220001CN0060001N1+00701+00601999999ADDAG12999GA1031+004809059MA1102511999999REMMET003NSGEQDQ01+000000PRSWM2
0088601010999991991010408004+35733-005900FM-15+0021GMTT V0201401N00151220001CN0060001N1+00701+00601999999ADDAG12999GA1021+004809059GA2031+060009009MA1102611999999REMMET003NSGEQDQ01+000000PRSWM2
0076601010999991991010408304+35733-005900FM-15+0021GMTT V0201401N00211220001CN0050001N1+00701+00601999999ADDAG12000GA1021+004809059GA2031+069009009MA1102611999999EQDQ01+000000PRSWM2
0168601010999991991010409004+35733-005900SY-MT+0021GMTT V0203401N00511220001CN0060001N1+00681+00611102761ADDAA106000091AG14000GA1021+004809059GA2031+069009009GF104991021051004501001021MA1102711999999MD1110201+9999MW1001REMSYN017333   82616 83073MET003NSGEQDQ01+000000PRSWM2
0088601010999991991010409304+35733-005900FM-15+0021GMTT V0203401N00411006001CN0060001N1+00701+00601999999ADDAG12999GA1051+006009059GA2031+030009039MA1102711999999REMMET003NSGEQDQ01+000000PRSWM2
0076601010999991991010410304+35733-005900FM-15+0021GMTT V0203401N00511004801CN0080001N1+01301+00901999999ADDAG12999GA1051+004809059GA2031+030009039MA1102811999999EQDQ01+000000PRSWM2
0076601010999991991010411004+35733-005900FM-15+0021GMTT V0203401N00411004801CN0080001N1+01401+01001999999ADDAG12999GA1051+004809059GA2031+030009039MA1102911999999EQDQ01+000000PRSWM2
0088601010999991991010411304+35733-005900FM-15+0021GMTT V0203401N00411004801CN0080001N1+01401+01001999999ADDAG12000GA1051+004809059GA2031+030009039MA1102911999999REMMET003NSGEQDQ01+000000PRSWM2
0168601010999991991010412004+35733-005900SY-MT+0021GMTT V0203401N00671004801CN0080001N1+01441+01131102881ADDAA106000091AG14000GA1071+004809089GA2031+030009039GF107991051021004501031021MA1102811999999MD1010131+9999MW1001REMSYN017333   87816 83360MET003NSGEQDQ01+000000PRSWM2
0088601010999991991010412304+35733-005900FM-15+0021GMTT V0203401N00511004801CN0080001N1+01401+01101999999ADDAG12999GA1071+004809089GA2031+030009039MA1102811999999REMMET003NSGEQDQ01+000000PRSWM2
0088601010999991991010413004+35733-005900FM-15+0021GMTT V0203601N00511030001CN0090001N1+01401+01001999999ADDAG12999GA1041+004809089GA2031+030009039MA1102811999999REMMET003NSGEQDQ01+000000PRSWM2
0076601010999991991010413304+35733-005900FM-15+0021GMTT V0203601N00621030001CN0090001N1+01401+01001999999ADDAG12999GA1041+004809089GA2041+030009039MA1102811999999EQDQ01+000000PRSWM2
0104601010999991991010414004+35733-005900FM-15+0021GMTT V0203601N00621004801CN9999999N9+01401+01001999999ADDAG12999GA1071+004809059GA2031+030009039MA1102811999999REMMET003NSGEQDQ01+000002VOVAR Q02+000000PRSWM2
0076601010999991991010414304+35733-005900FM-15+0021GMTT V0203401N00621030001CN0112001N1+01401+01001999999ADDAG12000GA1041+004809089GA2031+030009039MA1102811999999EQDQ01+000000PRSWM2
0137601010999991991010415004+35733-005900SY-MT+0021GMTT V0203601N00721220001CN0100001N1+01441+00861102821ADDAA106000091AG14000GA1031+004809089GF103991031051004501001001MA1102811999999MD1710061+9999MW1001REMSYN011333   83816EQDQ01+000000PRSWM2
0060601010999991991010415304+35733-005900FM-15+0021GMTT V0203401N00771220001CN0112001N1+01401+00901999999ADDAG12999GA1031+004809059MA1102811999999EQDQ01+000000PRSWM2
0060601010999991991010416004+35733-005900FM-15+0021GMTT V0203401N00821220001CN0112001N1+01401+00901999999ADDAG12999GA1031+004809059MA1102811999999EQDQ01+000000PRSWM2
0060601010999991991010416304+35733-005900FM-15+0021GMTT V0203401N00721220001CN0112001N1+01401+00901999999ADDAG12999GA1031+004809059MA1102811999999EQDQ01+000000PRSWM2
0044601010999991991010417004+35733-005900FM-15+0021GMTT V0203401N007719999999N0112001N1+01301+00801999999ADDAG12999MA1102811999999EQDQ01+000000PRSWM2
0181601010999991991010418004+35733-005900SY-MT+0021GMTT V0203601N00821220001CN0100001N1+01251+00711102871ADDAA106000091AG14000GA1031+004809089GF103991031021008001001001KA1120M+01421MA1102811999999MD1310051+9999MW1001REMSYN017333   10142 83816MET003NSGEQDQ01+000002APC3  Q02+000000PRSWM2
0072601010999991991010419004+35733-005900FM-15+0021GMTT V0203401N00621220001CN0112001N1+01301+00701999999ADDAG12999GA1031+999999019MA1102811999999REMMET003NSGEQDQ01+000000PRSWM2
0072601010999991991010419304+35733-005900FM-15+0021GMTT V0203601N00621220001CN0112001N1+01301+00701999999ADDAG12999GA1031+004809089MA1102811999999REMMET003NSGEQDQ01+000000PRSWM2
0072601010999991991010420004+35733-005900FM-15+0021GMTT V0203601N00821220001CN0112001N1+01301-00102999999ADDAG12999GA1031+004809089MA1103121999999REMMET003NSGEQDQ01+000000PRSWM2
0072601010999991991010420304+35733-005900FM-15+0021GMTT V0203601N00621220001CN0112001N1+01301-00101999999ADDAG12000GA1031+004809089MA1103121999999REMMET003NSGEQDQ01+000000PRSWM2
0115601010999991991010421004+35733-005900SY-MT+0021GMTT V0200201N00931220001CN0100001N1+01141+00081103161ADDAA106000091AG14000GF100991001001999999001001MA1103121999999MD1110291+9999MW1001REMMET005CAVOKEQDQ01+000000PRSWM2
0058601010999991991010421304+35733-005900FM-15+0021GMTT V0200201N00931999991CY0099001N1+01101+00101999999ADDAG12999MA1103121999999REMMET005CAVOKEQDQ01+000000PRSWM2
0058601010999991991010422004+35733-005900FM-15+0021GMTT V0200201N00721999991CY0099001N1+00901+00301999999ADDAG12999MA1103181999999REMMET005CAVOKEQDQ01+000000PRSWM2
0058601010999991991010422304+35733-005900FM-15+0021GMTT V0200201N00511999991CY0099001N1+00901+00301999999ADDAG12999MA1103181999999REMMET005CAVOKEQDQ01+000000PRSWM2
0058601010999991991010423004+35733-005900FM-15+0021GMTT V0200201N00931999991CY0099001N1+01001+00301999999ADDAG12999MA1103181999999REMMET005CAVOKEQDQ01+000000PRSWM2
0058601010999991991010423304+35733-005900FM-15+0021GMTT V0203601N00931999991CY0099001N1+00901+00201999999ADDAG12000MA1103181999999REMMET005CAVOKEQDQ01+000000PRSWM2
0115601010999991991010500004+35733-005900SY-MT+0021GMTT V0200201N00821220001CN0100001N1+00881+00261103261ADDAA106000091AG14000GF100991001001999999001001MA1103181999999MD1210101+9999MW1001REMMET005CAVOKEQDQ01+000000PRSWM2
0058601010999991991010500304+35733-005900FM-15+0021GMTT V0200201N00821999991CY0099001N1+99999+99999999999ADDAG11999MA1103181999999REMMET005CAVOKEQDQ01+000000PRSWM2
0044601010999991991010501004+35733-005900FM-15+0021GMTT V0200201N009319999999N0112001N1+99999+99999999999ADDAG11999MA1103181999999EQDQ01+000000PRSWM2
0044601010999991991010501304+35733-005900FM-15+0021GMTT V0200201N00931220001CN0112001N1+99999+99999999999ADDAG11999MA1103181999999EQDQ01+000000PRSWM2
0044601010999991991010502004+35733-005900FM-15+0021GMTT V0200201N009319999999N0112001N1+01001+00301999999ADDAG11999MA1103181999999EQDQ01+000000PRSWM2
0044601010999991991010502304+35733-005900FM-15+0021GMTT V0200201N00931220001CN0112001N1+01001+00301999999ADDAG12000MA1103181999999EQDQ01+000000PRSWM2
0061601010999991991010503004+35733-005900FM-12+0021GMTT V0200201N00821220001CN0100001N9+00881+00201103241ADDAA106000091AG14000GF100991001001999999001001MD1810011+9999
0058601010999991991010503304+35733-005900FM-15+0021GMTT V0200201N00821999991CY0099001N1+00901+00301999999ADDAG12999MA1103181999999REMMET005CAVOKEQDQ01+000000PRSWM2
0062601010999991991010504304+35733-005900FM-15+0021GMTT V0200401N00261999991CY0099001N1+00901+00401999999ADDAG12999MA1103181999999REMMET009CAVOK NSGEQDQ01+000000PRSWM2
0062601010999991991010505004+35733-005900FM-15+0021GMTT V0200401N00261999991CY0099001N1+00601+00301999999ADDAG12999MA1103181999999REMMET009CAVOK NSGEQDQ01+000000PRSWM2
0062601010999991991010505304+35733-005900FM-15+0021GMTT V0200401N00211999991CY0099001N1+00601+00301999999ADDAG12000MA1103181999999REMMET009CAVOK NSGEQDQ01+000000PRSWM2
0149601010999991991010506004+35733-005900SY-MT+0021GMTT V0201201N00411220001CN0100001N1+00401+00221103271ADDAA106000091AG14000GF100991001001999999001001KA1120M+00361MA1103181999999MD1310021+9999MW1001REMSYN011333   10036MET009CAVOK NSGEQDQ01+000000PRSWM2
0061601010999991991010506304+35733-005900FM-15+0021GMTT V0200401N00361999991CY0099001N1+00601+99999999999ADDAG12999MA1103181999999REMMET008CAVOK NSEQDQ01+000000PRSWM2
0062601010999991991010507304+35733-005900FM-15+0021GMTT V0200401N00211999991CY0099001N1+00401+00301999999ADDAG12999MA1103181999999REMMET009CAVOK NSGEQDQ01+000000PRSWM2
0058601010999991991010508004+35733-005900FM-15+0021GMTT V0201201N00261999991CY0099001N1+00501+00201999999ADDAG12999MA1103291999999REMMET005CAVOKEQDQ01+000000PRSWM2
0058601010999991991010508304+35733-005900FM-15+0021GMTT V0201401N00311999991CY0099001N1+00501+00201999999ADDAG12000MA1103291999999REMMET005CAVOKEQDQ01+000000PRSWM2
0115601010999991991010509004+35733-005900SY-MT+0021GMTT V0201201N00151220001CN0150001N1+00461+00221103321ADDAA106000091AG14000GF100991001001999999001001MA1103291999999MD1110051+9999MW1001REMMET005CAVOKEQDQ01+000000PRSWM2
0058601010999991991010509304+35733-005900FM-15+0021GMTT V0201201N00151999991CY0099001N1+00601+00301999999ADDAG12999MA1103181999999REMMET005CAVOKEQDQ01+000000PRSWM2
0062601010999991991010510004+35733-005900FM-15+0021GMTT V0201201N00151999991CY0099001N1+00901+00401999999ADDAG12999MA1103391999999REMMET009CAVOK NSGEQDQ01+000000PRSWM2
0058601010999991991010510304+35733-005900FM-15+0021GMTT V0202001N00261999991CY0099001N1+00901+00401999999ADDAG12999MA1103391999999REMMET005CAVOKEQDQ01+000000PRSWM2
0058601010999991991010511004+35733-005900FM-15+0021GMTT V0202001N00211999991CY0099001N1+01201+00501999999ADDAG12999MA1103391999999REMMET005CAVOKEQDQ01+000000PRSWM2
0159601010999991991010512004+35733-005900SY-MT+0021GMTT V0202201N00211090001CN0150001N1+01291+00431103461ADDAA106000091AG14000GA1011+006009059GA2031+030009039GF105991011051008001081021MA1103391999999MD1110151+9999MW1001REMSYN017333   81620 83360EQDQ01+000000PRSWM2
0060601010999991991010512304+35733-005900FM-15+0021GMTT V0202201N00211220001CN0112001N1+01301+00401999999ADDAG12999GA1011+006009059MA1103391999999EQDQ01+000000PRSWM2
0076601010999991991010513004+35733-005900FM-15+0021GMTT V0202401N00411220001CN0112001N1+99999+99999999999ADDAG12999GA1011+006009059GA2041+030009039MA1103391999999EQDQ01+000000PRSWM2
0076601010999991991010513304+35733-005900FM-15+0021GMTT V0202401N00411220001CN0112001N1+01401+00501999999ADDAG12999GA1011+006009059GA2041+030009039MA1103391999999EQDQ01+000000PRSWM2
0076601010999991991010514004+35733-005900FM-15+0021GMTT V0202601N00621220001CN0112001N1+01401+00601999999ADDAG12999GA1011+006009059GA2041+030009039MA1103291999999EQDQ01+000000PRSWM2
0058601010999991991010514304+35733-005900FM-15+0021GMTT V0202501N00621999991CY0099001N1+01401+00601999999ADDAG12000MA1103291999999REMMET005CAVOKEQDQ01+000000PRSWM2
0159601010999991991010515004+35733-005900SY-MT+0021GMTT V0202401N00511090001CN0150001N1+01451+00611103141ADDAA106000091AG14000GA1011+006009059GA2031+030009999GF105991011051004501081021MA1103121999999MD1710321+9999MW1001REMSYN017333   81620 83360EQDQ01+000000PRSWM2
0076601010999991991010515304+35733-005900FM-15+0021GMTT V0202601N00411030001CN0112001N1+01501+00601999999ADDAG12999GA1031+004809059GA2031+030009039MA1103121999999EQDQ01+000000PRSWM2
0076601010999991991010516004+35733-005900FM-15+0021GMTT V0202801N00311030001CN0112001N1+01501+00601999999ADDAG12999GA1031+004809059GA2031+030009039MA1103121999999EQDQ01+000000PRSWM2
0060601010999991991010517004+35733-005900FM-15+0021GMTT V0202801N00211220001CN0112001N1+01301+00501999999ADDAG12999GA1021+004809059MA1103011999999EQDQ01+000000PRSWM2
0060601010999991991010517304+35733-005900FM-15+0021GMTT V0203201N00101220001CN0112001N1+01301+00501999999ADDAG12000GA1021+004809059MA1103011999999EQDQ01+000000PRSWM2
0156601010999991991010518004+35733-005900SY-MT+0021GMTT V0203401N00101220001CN0150001N1+01181+00621103121ADDAA106000091AG14000GA1021+004809059GF102991021051004501081001KA1120M+01481MA1103121999999MD1510021+9999MW1001REMSYN017333   10148 82616EQDQ01+000000PRSWM2
0076601010999991991010518304+35733-005900FM-15+0021GMTT V0201201N00211220001CN0112001N1+01201+00601999999ADDAG12999GA1021+004809059GA2031+069009009MA1103121999999EQDQ01+000000PRSWM2
0076601010999991991010519004+35733-005900FM-15+0021GMTT V0201001N00211220001CN0112001N1+01201+00601999999ADDAG12999GA1021+004809059GA2031+069009009MA1103121999999EQDQ01+000000PRSWM2
0075601010999991991010519304+35733-005900FM-15+0021GMTT V0209999999999220001CN0112001N1+01201+00601999999ADDAG12999GA1021+004809059GA2031+069009009REMMET00511031EQDQ01+000000PRSWM2
0076601010999991991010520004+35733-005900FM-15+0021GMTT V0201201N00411220001CN0112001N1+00901+00501999999ADDAG12999GA1021+004809059GA2031+069009009MA1103121999999EQDQ01+000000PRSWM2
0076601010999991991010520304+35733-005900FM-15+0021GMTT V0201001N00411220001CN0112001N1+00901+00501999999ADDAG12000GA1021+004809059GA2031+069009009MA1103121999999EQDQ01+000000PRSWM2
0159601010999991991010521004+35733-005900SY-MT+0021GMTT V0201001N00411220001CN0100001N1+00551+00391103111ADDAA106000091AG14000GA1021+004809059GA2031+069009009GF104991021051004501001021MA1103121999999MD1510011+9999MW1001REMSYN017333   82616 83073EQDQ01+000000PRSWM2
0076601010999991991010521304+35733-005900FM-15+0021GMTT V0201001N00411220001CN0112001N1+00601+00401999999ADDAG12999GA1021+004809059GA2031+069009009MA1103121999999EQDQ01+000000PRSWM2
0062601010999991991010522004+35733-005900FM-15+0021GMTT V0201201N00311999991CY0099001N1+00601+00401999999ADDAG12999MA1103121999999REMMET009CAVOK NSGEQDQ01+000000PRSWM2
0062601010999991991010522304+35733-005900FM-15+0021GMTT V0201201N00311999991CY0099001N1+00601+00401999999ADDAG12999MA1103121999999REMMET009CAVOK NSGEQDQ01+000000PRSWM2
0062601010999991991010523004+35733-005900FM-15+0021GMTT V0201201N00211999991CY0099001N1+00601+00401999999ADDAG12999MA1103121999999REMMET009CAVOK NSGEQDQ01+000000PRSWM2
0117601010999991991010600004+35733-005900SY-MT+0021GMTT V0201001N00211220001CN0100001N1+00461+00311103081ADDAA106000091AG14000GF100991001001999999001001MA1103011999999MD1610031+9999MW1001REMMET007CAVOK GEQDQ01+000000PRSWM2
0062601010999991991010600304+35733-005900FM-15+0021GMTT V0201201N00211999991CY0099001N1+00501+00401999999ADDAG11999MA1103011999999REMMET009CAVOK NSGEQDQ01+000000PRSWM2
0085601010999991991010601004+35733-005900FM-15+0021GMTT V0201201N00211999991CY0099001N1+00501+00401999999ADDAG11999MA1103011999999REMMET032CAVOK NSG         7@@@@@*@@@@@@@EQDQ01+000000PRSWM2
0061601010999991991010601304+35733-005900FM-15+0021GMTT V0201201N00211999991CY0099001N1+00601+00401999999ADDAG11999MA1103011999999REMMET008CAVOK NSEQDQ01+000000PRSWM2
0061601010999991991010602004+35733-005900FM-15+0021GMTT V0201201N00211999991CY0099001N1+00601+00401999999ADDAG11999MA1103011999999REMMET008CAVOK NSEQDQ01+000000PRSWM2
0062601010999991991010602304+35733-005900FM-15+0021GMTT V0201001N00211999991CY0099001N1+00601+00401999999ADDAG12000MA1103011999999REMMET009CAVOK NSGEQDQ01+000000PRSWM2
0137601010999991991010603004+35733-005900SY-MT+0021GMTT V0201001N00101220001CN0100001N1+00451+00341103001ADDAA106000091AG14000GF100991001001999999001001MA1103011999999MD1410001+9999MW1001REMSYN012RJCT40  2749MET009CAVOK NSGEQDQ01+000000PRSWM2
0056601010999991991010604004+35733-005900FM-15+0021GMTT V0201001N00211220001CN0080001N1+00501+00401999999ADDAG12999MA1102911999999REMMET003NSGEQDQ01+000000PRSWM2
0056601010999991991010604304+35733-005900FM-15+0021GMTT V0201001N00211220001CN0080001N1+00501+00401999999ADDAG12999MA1102911999999REMMET003NSGEQDQ01+000000PRSWM2
0085601010999991991010605004+35733-005900FM-15+0021GMTT V0201001N00211999991CY0099001N1+00301+00201999999ADDAG12999MA1102911999999REMMET032CAVOK NSG         7@@@@@*@@@@@@@EQDQ01+000000PRSWM2
0062601010999991991010605304+35733-005900FM-15+0021GMTT V0201001N00211999991CY0099001N1+00301+00201999999ADDAG12000MA1102911999999REMMET009CAVOK NSGEQDQ01+000000PRSWM2
0152601010999991991010606004+35733-005900SY-MT+0021GMTT V0201201N00311220001CN0100001N1+00301+00171102901ADDAA106000091AG14000GF100991001001999999001001KA1120N+00201MA1102911999999MD1610121+9999MW1001REMSYN011333   20020SYN012RJCT40  2793EQDQ01+000000PRSWM2
0062601010999991991010606304+35733-005900FM-15+0021GMTT V0201201N00211999991CY0099001N1+00301+00201999999ADDAG12999MA1102811999999REMMET009CAVOK NSGEQDQ01+000000PRSWM2
0060601010999991991010607004+35733-005900FM-15+0021GMTT V0201201N00311999991CY0099001N1+00301+00201999999ADDAG12999MA1102811999999REMMET007CAVOK GEQDQ01+000000PRSWM2
0062601010999991991010607304+35733-005900FM-15+0021GMTT V0201201N00311999991CY0099001N1+00301+00201999999ADDAG12999MA1102811999999REMMET009CAVOK NSGEQDQ01+000000PRSWM2
0058601010999991991010608004+35733-005900FM-15+0021GMTT V0209991C00001999991CY0099001N1+00401+00301999999ADDAG12999MA1102911999999REMMET005CAVOKEQDQ01+000000PRSWM2
0058601010999991991010608304+35733-005900FM-15+0021GMTT V0209991C00001999991CY0099001N1+00501+00301999999ADDAG12000MA1102911999999REMMET005CAVOKEQDQ01+000000PRSWM2
0148601010999991991010609004+35733-005900SY-MT+0021GMTT V0201201N00311220001CN0150001N1+00621+00361102881ADDAA106000091AG14000GA1021+069009009GF102991001001999999001021MA1102811999999MD1810021+9999MW1001REMSYN011333   82073MET005CAVOKEQDQ01+000000PRSWM2
0058601010999991991010609304+35733-005900FM-15+0021GMTT V0201201N00311999991CY0099001N1+00601+00401999999ADDAG12999MA1102811999999REMMET005CAVOKEQDQ01+000000PRSWM2
0058601010999991991010610004+35733-005900FM-15+0021GMTT V0201201N00261999991CY0099001N1+00901+00501999999ADDAG12999MA1102911999999REMMET005CAVOKEQDQ01+000000PRSWM2
0058601010999991991010610304+35733-005900FM-15+0021GMTT V0201201N00151999991CY0099001N1+00901+00501999999ADDAG12999MA1102911999999REMMET005CAVOKEQDQ01+000000PRSWM2
0058601010999991991010611004+35733-005900FM-15+0021GMTT V0202401N00101999991CY0099001N1+01301+00801999999ADDAG12999MA1102911999999REMMET005CAVOKEQDQ01+000000PRSWM2
0148601010999991991010612004+35733-005900SY-MT+0021GMTT V0202401N00101220001CN0150001N1+01401+00681102941ADDAA106000091AG14000GA1021+069009009GF102991001001999999001021MA1102911999999MD1210061+9999MW1001REMSYN011333   82073MET005CAVOKEQDQ01+000000PRSWM2
0058601010999991991010612304+35733-005900FM-15+0021GMTT V0202601N00311999991CY0099001N1+01401+00701999999ADDAG12999MA1102911999999REMMET005CAVOKEQDQ01+000000PRSWM2
0058601010999991991010613004+35733-005900FM-15+0021GMTT V0202401N00311999991CY0099001N1+01501+00701999999ADDAG12999MA1102911999999REMMET005CAVOKEQDQ01+000000PRSWM2
0058601010999991991010613304+35733-005900FM-15+0021GMTT V0202401N00311999991CY0099001N1+01501+00701999999ADDAG12999MA1102911999999REMMET005CAVOKEQDQ01+000000PRSWM2
0058601010999991991010614004+35733-005900FM-15+0021GMTT V0202801N00411999991CY0099001N1+01501+00701999999ADDAG12999MA1102811999999REMMET005CAVOKEQDQ01+000000PRSWM2
0058601010999991991010614304+35733-005900FM-15+0021GMTT V0202801N00411999991CY0099001N1+01501+00701999999ADDAG12000MA1102811999999REMMET005CAVOKEQDQ01+000000PRSWM2
0151601010999991991010615004+35733-005900SY-MT+0021GMTT V0202801N00211220001CN0150001N1+01471+00761102701ADDAA106000091AG14000GA1021+069009009GF102991001001999999001021MA1102711999999MD1710241+9999MW1001REMSYN011333   82073MET008CAVOK NGEQDQ01+000000PRSWM2
0058601010999991991010616004+35733-005900FM-15+0021GMTT V0202801N00261999991CY0099001N1+01501+00901999999ADDAG12999MA1102711999999REMMET005CAVOKEQDQ01+000000PRSWM2
0058601010999991991010616304+35733-005900FM-15+0021GMTT V0202801N00311999991CY0099001N1+01501+00901999999ADDAG12999MA1102711999999REMMET005CAVOKEQDQ01+000000PRSWM2
0061601010999991991010617004+35733-005900FM-15+0021GMTT V0202801N00211999991CY0099001N1+01301+00801999999ADDAG12999MA1102711999999REMMET008CAVOK NGEQDQ01+000000PRSWM2
0061601010999991991010617304+35733-005900FM-15+0021GMTT V0202801N00211999991CY0099001N1+01301+00801999999ADDAG12000MA1102711999999REMMET008CAVOK NGEQDQ01+000000PRSWM2
0170601010999991991010618004+35733-005900SY-MT+0021GMTT V0203201N00211220001CN0150001N1+01221+00721102711ADDAA106000091AG14000GA1021+069009009GF102991001001999999001021KA1120M+01481MA1102711999999MD1310011+9999MW1001REMSYN017333   10148 82073MET008CAVOK NGEQDQ01+000000PRSWM2
0061601010999991991010618304+35733-005900FM-15+0021GMTT V0203201N00211999991CY0099001N1+01201+00701999999ADDAG12999MA1102711999999REMMET008CAVOK NGEQDQ01+000000PRSWM2
0061601010999991991010619004+35733-005900FM-15+0021GMTT V0203201N00211999991CY0099001N1+01101+00701999999ADDAG12999MA1102711999999REMMET008CAVOK NGEQDQ01+000000PRSWM2
0061601010999991991010619304+35733-005900FM-15+0021GMTT V0203201N00211999991CY0099001N1+01101+00701999999ADDAG12999MA1102711999999REMMET008CAVOK NGEQDQ01+000000PRSWM2
0058601010999991991010620004+35733-005900FM-15+0021GMTT V0209991C00001999991CY0099001N1+01101+00701999999ADDAG12999MA1102711999999REMMET005CAVOKEQDQ01+000000PRSWM2
0058601010999991991010620304+35733-005900FM-15+0021GMTT V0209991C00001999991CY0099001N1+01101+00701999999ADDAG12000MA1102711999999REMMET005CAVOKEQDQ01+000000PRSWM2
0148601010999991991010621004+35733-005900SY-MT+0021GMTT V0209991C00001220001CN0100001N1+00541+00451102761ADDAA106000091AG14000GA1021+069009009GF102991001001999999001021MA1102711999999MD1310041+9999MW1001REMSYN011333   82073MET005CAVOKEQDQ01+000000PRSWM2
0058601010999991991010621304+35733-005900FM-15+0021GMTT V0209991C00001999991CY0099001N1+00501+00401999999ADDAG12999MA1102711999999REMMET005CAVOKEQDQ01+000000PRSWM2
0058601010999991991010622004+35733-005900FM-15+0021GMTT V0201201N00211999991CY0099001N1+00501+00401999999ADDAG12999MA1102711999999REMMET005CAVOKEQDQ01+000000PRSWM2
0058601010999991991010622304+35733-005900FM-15+0021GMTT V0201201N00211999991CY0099001N1+00501+00401999999ADDAG12999MA1102711999999REMMET005CAVOKEQDQ01+000000PRSWM2
0058601010999991991010623004+35733-005900FM-15+0021GMTT V0201001N00311999991CY0099001N1+00501+00401999999ADDAG12999MA1102711999999REMMET005CAVOKEQDQ01+000000PRSWM2
0058601010999991991010623304+35733-005900FM-15+0021GMTT V0201001N00311999991CY0099001N1+00501+00401999999ADDAG12000MA1102711999999REMMET005CAVOKEQDQ01+000000PRSWM2
0097601010999991991010700004+35733-005900FM-12+0021GMTT V0201001N00311220001CN0100001N9+00471+00401102751ADDAA106000091AG14000GA1021+069009009GF102991001001999999001021MD1810011+9999REMSYN011333   82073
0058601010999991991010701004+35733-005900FM-15+0021GMTT V0201201N00311999991CY0099001N1+00501+00401999999ADDAG11999MA1102711999999REMMET005CAVOKEQDQ01+000000PRSWM2
0058601010999991991010702004+35733-005900FM-15+0021GMTT V0201201N00211999991CY0099001N1+00501+00401999999ADDAG11999MA1102611999999REMMET005CAVOKEQDQ01+000000PRSWM2
0058601010999991991010702304+35733-005900FM-15+0021GMTT V0201201N00311999991CY0099001N1+00501+00401999999ADDAG12000MA1102611999999REMMET005CAVOKEQDQ01+000000PRSWM2
0148601010999991991010703004+35733-005900SY-MT+0021GMTT V0201001N00311220001CN0100001N1+00421+00321102671ADDAA106000091AG14000GA1021+069009009GF102991001001999999001021MA1102611999999MD1510081+9999MW1001REMSYN011333   82073MET005CAVOKEQDQ01+000000PRSWM2
0058601010999991991010703304+35733-005900FM-15+0021GMTT V0209991C00001999991CY0099001N1+00401+00401999999ADDAG12999MA1102611999999REMMET005CAVOKEQDQ01+000000PRSWM2
0058601010999991991010704004+35733-005900FM-15+0021GMTT V0209991C00001999991CY0099001N1+00501+00401999999ADDAG12999MA1102611999999REMMET005CAVOKEQDQ01+000000PRSWM2
0046601010999991991010704304+35733-005900FM-15+0021GMTT V0209991C00001999991CY0099001N1+00501+00401999999ADDAG12999REMMET008CAVOK 1(EQDQ01+000000PRSWM2
0058601010999991991010705004+35733-005900FM-15+0021GMTT V0200801N00101999991CY0099001N1+00401+00301999999ADDAG12999MA1102611999999REMMET005CAVOKEQDQ01+000000PRSWM2
0058601010999991991010705304+35733-005900FM-15+0021GMTT V0200801N00211999991CY0099001N1+00401+00301999999ADDAG12000MA1102611999999REMMET005CAVOKEQDQ01+000000PRSWM2
0167601010999991991010706004+35733-005900SY-MT+0021GMTT V0201001N00101220001CN0100001N1+00381+00311102611ADDAA106000091AG14000GA1021+069009009GF102991001001999999001021KA1120N+00261MA1102611999999MD1810061+9999MW1001REMSYN017333   20026 82073MET005CAVOKEQDQ01+000000PRSWM2
0058601010999991991010706304+35733-005900FM-15+0021GMTT V0200801N00101999991CY0099001N1+00401+00301999999ADDAG12999MA1102611999999REMMET005CAVOKEQDQ01+000000PRSWM2
0058601010999991991010707004+35733-005900FM-15+0021GMTT V0200801N00101999991CY0099001N1+00401+00301999999ADDAG12999MA1102611999999REMMET005CAVOKEQDQ01+000000PRSWM2
0058601010999991991010707304+35733-005900FM-15+0021GMTT V0200801N00211999991CY0099001N1+00401+00301999999ADDAG12999MA1102611999999REMMET005CAVOKEQDQ01+000000PRSWM2
0058601010999991991010708004+35733-005900FM-15+0021GMTT V0209991C00001999991CY0099001N1+00501+00301999999ADDAG12999MA1102611999999REMMET005CAVOKEQDQ01+000000PRSWM2
0058601010999991991010708304+35733-005900FM-15+0021GMTT V0209991C00001999991CY0099001N1+00501+00301999999ADDAG12000MA1102611999999REMMET005CAVOKEQDQ01+000000PRSWM2
0190601010999991991010709004+35733-005900SY-MT+0021GMTT V0201201N00211069001CN0100001N1+00571+00531102631ADDAA106000091AG14000GA1011+006909059GA2031+030009039GA3051+069009009GF106991011051008001031021MA1102611999999MD1310021+9999MW1001REMSYN023333   81623 83360 85073MET003NSGEQDQ01+000000PRSWM2
0104601010999991991010709304+35733-005900FM-15+0021GMTT V0201201N00211069001CN0112001N1+00601+00501999999ADDAG12999GA1011+006909059GA2031+030009039GA3051+069009009MA1102611999999REMMET003NSGEQDQ01+000000PRSWM2
0104601010999991991010710004+35733-005900FM-15+0021GMTT V0201801N00211069001CN0112001N1+01101+00901999999ADDAG12999GA1011+006909059GA2031+030009039GA3051+069009009MA1102611999999REMMET003NSGEQDQ01+000000PRSWM2
0108601010999991991010710304+35733-005900FM-15+0021GMTT V0201801N00211069001CN9999999N9+01101+00901999999ADDAG12999GA1011+006909059GA2031+030009039GA3051+069009009MA1102611999999EQDQ01+000002VOVAR Q02+000000PRSWM2
0092601010999991991010711004+35733-005900FM-15+0021GMTT V0201801N00211069001CN0112001N1+01101+00901999999ADDAG12999GA1011+006909059GA2031+030009039GA3051+069009009MA1102611999999EQDQ01+000000PRSWM2
0104601010999991991010711304+35733-005900FM-15+0021GMTT V0201801N00211069001CN0112001N1+01101+00901999999ADDAG12000GA1011+006909059GA2031+030009039GA3051+069009009MA1102611999999REMMET003NSGEQDQ01+000000PRSWM2
0190601010999991991010712004+35733-005900SY-MT+0021GMTT V0202201N00411069001CN0100001N1+01401+00911102661ADDAA106000091AG14000GA1011+006909059GA2031+030009039GA3051+069009009GF106991011051008001031021MA1102611999999MD1110041+9999MW1001REMSYN023333   81623 83360 85073MET003NSGEQDQ01+000000PRSWM2
0092601010999991991010712304+35733-005900FM-15+0021GMTT V0202201N00411069001CN0112001N1+01101+00901999999ADDAG12999GA1011+006909059GA2031+030009039GA3051+069009009MA1102611999999EQDQ01+000000PRSWM2
0104601010999991991010713004+35733-005900FM-15+0021GMTT V0209999999999069001CN0112001N1+01401+00901999999ADDAG12999GA1011+006909059GA2031+030009039GA3051+069009009MA1102611999999REMMET003NSGEQDQ01+000000PRSWM2
0092601010999991991010713304+35733-005900FM-15+0021GMTT V0202201N00411069001CN0112001N1+01401+00901999999ADDAG12999GA1011+006909059GA2031+030009039GA3051+069009009MA1102611999999EQDQ01+000000PRSWM2
0092601010999991991010714004+35733-005900FM-15+0021GMTT V0202201N00411069001CN0112001N1+01401+01201999999ADDAG12999GA1011+006009059GA2031+030009039GA3051+069009009MA1102611999999EQDQ01+000000PRSWM2
0092601010999991991010714304+35733-005900FM-15+0021GMTT V0202201N00411069001CN0112001N1+01401+01201999999ADDAG12000GA1011+006009059GA2031+030009039GA3051+069009009MA1102611999999EQDQ01+000000PRSWM2
0159601010999991991010715004+35733-005900SY-MT+0021GMTT V0202201N00511069001CN0100001N1+01521+00971102541ADDAA106000091AG14000GA1021+006009089GA2051+069009009GF106991021021008001031021MA1102511999999MD1710121+9999MW1001REMSYN017333   82820 85073EQDQ01+000000PRSWM2
0060601010999991991010716004+35733-005900FM-15+0021GMTT V0202401N00511220001CN0112001N1+01501+01001999999ADDAG12999GA1021+006009089MA1102511999999EQDQ01+000000PRSWM2
0076601010999991991010716304+35733-005900FM-15+0021GMTT V0202401N00511069001CN0112001N1+01501+01001999999ADDAG12999GA1021+006009089GA2051+069009009MA1102511999999EQDQ01+000000PRSWM2
0076601010999991991010717004+35733-005900FM-15+0021GMTT V0202601N00621030001CN0112001N1+01301+01001999999ADDAG12999GA1031+006009059GA2031+030009039MA1102511999999EQDQ01+000000PRSWM2
0076601010999991991010717304+35733-005900FM-15+0021GMTT V0202401N00511030001CN0112001N1+01301+01001999999ADDAG12000GA1031+006009059GA2031+030009039MA1102511999999EQDQ01+000000PRSWM2
0117601010999991991010718004+35733-005900SY-MT+0021GMTT V0202601N00511036001CN0100001N1+01151+00851102621ADDAA106000091AG14000GA1031+006009089GF105991031021008001031021MA1102611999999MD1310081+9999MW1001EQDQ01+000000PRSWM2
0097601010999991991010721004+35733-005900FM-12+0021GMTT V0209991C00001220001CN0100001N9+00671+00601102631ADDAA106000091AG14000GA1021+069009009GF102991001001999999001021MD1310011+9999REMSYN011333   82073
0058601010999991991010723004+35733-005900FM-15+0021GMTT V0209991C00001999991CY0099001N1+00701+00601999999ADDAG12999MA1102611999999REMMET005CAVOKEQDQ01+000000PRSWM2
0109601010999991991010800004+35733-005900SY-MT+0021GMTT V0201201N00311220001CN0100001N1+00651+00541102631ADDAA106000091AG14000GF100991001001999999001001MA1102611999999MD1410001+9999REMMET005CAVOKEQDQ01+000000PRSWM2
0058601010999991991010802004+35733-005900FM-15+0021GMTT V0202801N00311999991CY0099001N1+00901+00701999999ADDAG11999MA1102611999999REMMET005CAVOKEQDQ01+000000PRSWM2
0109601010999991991010803004+35733-005900SY-MT+0021GMTT V0201801N00511220001CN0100001N1+00901+00431102631ADDAA106000091AG14000GF100991001001999999001001MA1102611999999MD1410001+9999REMMET005CAVOKEQDQ01+000000PRSWM2
0058601010999991991010804004+35733-005900FM-15+0021GMTT V0201801N00511999991CY0099001N1+00901+00401999999ADDAG12999MA1102611999999REMMET005CAVOKEQDQ01+000000PRSWM2
0094601010999991991010806004+35733-005900FM-12+0021GMTT V0201801N00411220001CN0100001N9+00931+00271102581ADDAA106000091AG14000GF100991001001999999001001KA1120N+00531MD1810051+9999REMSYN011333   20053
0058601010999991991010808004+35733-005900FM-15+0021GMTT V0202001N00621999991CY0099001N1+01001+00301999999ADDAG12999MA1102611999999REMMET005CAVOKEQDQ01+000000PRSWM2
0137601010999991991010809004+35733-005900SY-MT+0021GMTT V0202001N00511220001CN0100001N1+01031+00321102661ADDAA106000091AG14000GA1031+006009059GF104991031051008001001021MA1102611999999MD1210081+9999MW1001REMSYN011333   83620EQDQ01+000000PRSWM2
0060601010999991991010811004+35733-005900FM-15+0021GMTT V0202001N00311006001CN0112001N1+01401+00901999999ADDAG12999GA1061+006009059MA1102711999999EQDQ01+000000PRSWM2
0137601010999991991010812004+35733-005900SY-MT+0021GMTT V0202001N00511006001CN0100001N1+01501+00801102741ADDAA106000091AG14000GA1061+006009059GF106991061051008001001001MA1102711999999MD1010081+9999MW1001REMSYN011333   86620EQDQ01+000000PRSWM2
0060601010999991991010813004+35733-005900FM-15+0021GMTT V0202201N00721006001CN0112001N1+01601+00801999999ADDAG12999GA1061+006009059MA1102711999999EQDQ01+000000PRSWM2
0060601010999991991010814004+35733-005900FM-15+0021GMTT V0202201N00621006001CN0112001N1+01601+01001999999ADDAG12999GA1061+006009059MA1102611999999EQDQ01+000000PRSWM2
0097601010999991991010815004+35733-005900FM-12+0021GMTT V0202201N00721006001CN0100001N9+01611+00931102591ADDAA106000091AG14000GA1061+006009059GF106991061051008001001001MD1610151+9999REMSYN011333   86620
0156601010999991991010818004+35733-005900SY-MT+0021GMTT V0202201N00621009001CN0100001N1+01501+01061102631ADDAA106000091AG14000GA1021+004509089GF107991071081004501999999KA1120M+01661MA1102611999999MD1310041+9999REMSYN023333   10166 82815 86620EQDQ01+000000PRSWM2
0119601010999991991010821004+35733-005900FM-12+0021GMTT V0202001N00621006001CN0100001N9+01431+01071102641ADDAA106000091AG14000GA1021+004509089GA2061+006009059GF107991071081004501999999MD1410001+9999REMSYN017333   82815 86620
0076601010999991991010822004+35733-005900FM-15+0021GMTT V0202001N00511006001CN0112001N1+01401+01101999999ADDAG12999GA1021+004509089GA2061+006009059MA1102611999999EQDQ01+000000PRSWM2
0119601010999991991010900004+35733-005900FM-12+0021GMTT V0202001N00621006001CN0100001N9+01301+01041102781ADDAA106000091AG14000GA1021+004509089GA2061+006009059GF107991071081004501999999MD1310131+9999REMSYN017333   82815 86620
0070601010999991991010901004+35733-005900FM-15+0021GMTT V0201801N00671220001CN0112001N1+99999+99999999999ADDAG11999GA1021+004509089REMMET0166SC8 0 14+8)888,EQDQ01+000000PRSWM2
0076601010999991991010902004+35733-005900FM-15+0021GMTT V0201801N00671006001CN0112001N1+01401+01001999999ADDAG11999GA1021+004509089GA2061+006009059MA1102811999999EQDQ01+000000PRSWM2
0119601010999991991010903004+35733-005900FM-12+0021GMTT V0201801N00821006001CN0100001N9+01281+00711102721ADDAA106000091AG14000GA1021+004509089GA2031+006009059GF106991041081004501001021MD1810061+9999REMSYN017333   82815 83620
0156601010999991991010906004+35733-005900SY-MT+0021GMTT V0201801N00511220001CN0100001N1+01251+00841102761ADDAA106000091AG14000GA1021+006009059GF102991021051008001001001KA1120N+01201MA1102711999999MD1010041+9999MW1001REMSYN017333   20120 82620EQDQ01+000000PRSWM2
0153601010999991991010909004+35733-005900SY-MT+0021GMTT V0201801N00511220001CN0100001N1+01311+00851102881ADDAA106000091AG14000GA1041+006009059GF104991999051008001001001MA1102811999999MD1310121+9999MW1001REMSYN011333   84620EQDQ01+000032SCOTLCQ02+000000PRSWM2
0060601010999991991010910004+35733-005900FM-15+0021GMTT V0201801N00511220001CN0112001N1+01501+00901999999ADDAG12999GA1031+006009059MA1102911999999EQDQ01+000000PRSWM2
0060601010999991991010911004+35733-005900FM-15+0021GMTT V0202001N00621220001CN0112001N1+01601+00701999999ADDAG12999GA1021+006009059MA1102911999999EQDQ01+000000PRSWM2
0137601010999991991010912004+35733-005900SY-MT+0021GMTT V0202201N00511220001CN0150001N1+01711+00811102951ADDAA106000091AG14000GA1021+006009059GF102991021051008001001001MA1102911999999MD1010071+9999MW1001REMSYN011333   82620EQDQ01+000000PRSWM2
0072601010999991991010913004+35733-005900FM-15+0021GMTT V0202201N00511220001CN0112001N1+01701+00801999999ADDAG12999GA1021+006009059MA1102911999999REMMET003NSGEQDQ01+000000PRSWM2
0074601010999991991010914004+35733-005900FM-15+0021GMTT V0202601N00511220001CN0112001N1+01701+01001999999ADDAG12999GA1021+004809059MA1102811999999REMMET005NOSIGEQDQ01+000000PRSWM2
0061601010999991991010915004+35733-005900FM-12+0021GMTT V0202601N00511220001CN0100001N9+01671+01021102801ADDAA106000091AG14000GF100991001001999999001001MD1610111+9999
0064601010999991991010916004+35733-005900FM-15+0021GMTT V0202601N00311999991CY0099001N1+01701+01001999999ADDAG12999MA1102811999999REMMET011CAVOK NOSIGEQDQ01+000000PRSWM2
0074601010999991991010917004+35733-005900FM-15+0021GMTT V0209991C00001999991CY0099001N1+01701+99999999999ADDAG12999MA1102711999999REMMET005CAVOKEQDQ01+027423ATOD  Q02+000000PRSWM2
0151601010999991991010918004+35733-005900SY-MT+0021GMTT V0203001N00101220001CN0100001N1+01461+01031102791ADDAA106000091AG14000GF100991001001999999001001KA1120M+01811MA1102711999999MD1510011+9999MW1001REMSYN011333   10181MET011CAVOK NOSIGEQDQ01+000000PRSWM2
0064601010999991991010919004+35733-005900FM-15+0021GMTT V0209991C00001999991CY0099001N1+01201+01001999999ADDAG12999MA1102811999999REMMET011CAVOK NOSIGEQDQ01+000000PRSWM2
0131601010999991991010921004+35733-005900SY-MT+0021GMTT V0201001N00211220001CN0100001N1+01001+00691102861ADDAA106000091AG14000GF100991001001999999001001MA1102811999999MD1310071+9999REMSYN012RJCT40  2561MET009CAVOK NSGEQDQ01+000000PRSWM2
0061601010999991991011000004+35733-005900FM-12+0021GMTT V0201001N00211220001CN0100001N9+00861+00751102891ADDAA106000091AG14000GF100991001001999999001001MD1310021+9999
0061601010999991991011003004+35733-005900FM-12+0021GMTT V0201201N00211220001CN0100001N9+00801+00621102871ADDAA106000091AG14000GF100991001001999999001001MD1610021+9999
0094601010999991991011006004+35733-005900FM-12+0021GMTT V0201201N00311220001CN0100001N9+00541+00451102841ADDAA106000091AG14000GF100991001001999999001001KA1120N+00511MD1810031+9999REMSYN011333   20051
0058601010999991991011009004+35733-005900FM-15+0021GMTT V0201001N00311999991CY0099001N1+00701+00601999999ADDAG12000MA1102911999999REMMET005CAVOKEQDQ01+000000PRSWM2
0058601010999991991011011004+35733-005900FM-15+0021GMTT V0201001N00151999991CY0099001N1+01401+01101999999ADDAG12999MA1102911999999REMMET005CAVOKEQDQ01+000000PRSWM2
0061601010999991991011012004+35733-005900FM-12+0021GMTT V0202401N00101220001CN0100001N9+99999+99999102951ADDAA106000091AG14000GF100991001001999999001001MD1010051+9999
0064601010999991991011013004+35733-005900FM-15+0021GMTT V0209991C00001999991CY0099001N1+01701+00901999999ADDAG12999MA1102911999999REMMET011CAVOK NOSIGEQDQ01+000000PRSWM2
0062601010999991991011014004+35733-005900FM-15+0021GMTT V0202601N00211999991CY0099001N1+01701+00901999999ADDAG12999MA1102811999999REMMET009CAVOK NSGEQDQ01+000000PRSWM2
0061601010999991991011015004+35733-005900FM-12+0021GMTT V0202601N00211220001CN0100001N9+01721+00891102801ADDAA106000091AG14000GF100991001001999999001001MD1810151+9999
0094601010999991991011018004+35733-005900FM-12+0021GMTT V0209991C00001220001CN0100001N9+01511+01111102831ADDAA106000091AG14000GF100991001001999999001001KA1120M+01721MD1310011+9999REMSYN011333   10172
0115601010999991991011021004+35733-005900SY-MT+0021GMTT V0209991C00001220001CN0100001N1+00981+00911102851ADDAA106000091AG14000GF100991001001999999001001MA1102811999999MD1310021+9999REMMET011CAVOK NOSIGEQDQ01+000000PRSWM2
0064601010999991991011022004+35733-005900FM-15+0021GMTT V0209991C00001999991CY0099001N1+01001+00901999999ADDAG12999MA1102811999999REMMET011CAVOK NOSIGEQDQ01+000000PRSWM2
0061601010999991991011100004+35733-005900FM-12+0021GMTT V0209991C00001220001CN0100001N9+00571+00451102881ADDAA106000091AG14000GF100991001001999999001001MD1110031+9999
0064601010999991991011101004+35733-005900FM-15+0021GMTT V0209991C00001999991CY0099001N1+00601+00501999999ADDAG11999MA1102811999999REMMET011CAVOK NOSIGEQDQ01+000000PRSWM2
0061601010999991991011103004+35733-005900FM-12+0021GMTT V0209991C00001220001CN0100001N9+00631+00531102841ADDAA106000091AG14000GF100991001001999999001001MD1710041+9999
0145601010999991991011106004+35733-005900SY-MT+0021GMTT V0201401N00311220001CN0026001N1+00501+00381102831ADDAA106000091AG14000GF100991001001999999001001KA1120N+00501MA1102811999999MD1810011+9999MW1001REMSYN011333   20050MET005CAVOKEQDQ01+000000PRSWM2
0063601010999991991011108004+35733-005900FM-15+0021GMTT V0201201N00311999991CY0099001N1+00501+00301999999ADDAG12999MA1102811999999REMMET010CAVOK NSGCEQDQ01+000000PRSWM2
0097601010999991991011109004+35733-005900FM-12+0021GMTT V0201201N00151220001CN0100001N9+00661+00521102881ADDAA106000091AG14000GA1021+069009009GF102991001001999999001021MD1310051+9999REMSYN011333   82073
0061601010999991991011110004+35733-005900FM-15+0021GMTT V0201201N00151999991CY0099001N1+01101+00901999999ADDAG12999MA1102911999999REMMET008CAVOK NSEQDQ01+000000PRSWM2
0152601010999991991011112004+35733-005900SY-MT+0021GMTT V0203401N00211220001CN0100001N1+01571+00731102871ADDAA106000091AG14000GA1021+069009009GF102991001001999999001021MA1102811999999MD1010001+9999MW1001REMSYN011333   82073MET009CAVOK NSGEQDQ01+000000PRSWM2
0061601010999991991011114004+35733-005900FM-15+0021GMTT V0202801N00151999991CY0099001N1+01701+00801999999ADDAG12999MA1102711999999REMMET008CAVOK NSEQDQ01+000000PRSWM2
0148601010999991991011115004+35733-005900SY-MT+0021GMTT V0203201N00151220001CN0150001N1+01751+00691102711ADDAA106000091AG14000GA1021+069009009GF102991001001999999001021MA1102711999999MD1710161+9999MW1001REMSYN011333   82073MET005CAVOKEQDQ01+000000PRSWM2
0062601010999991991011116004+35733-005900FM-15+0021GMTT V0203001N00101999991CY0099001N1+01701+00701999999ADDAG12999MA1102611999999REMMET009CAVOK NSGEQDQ01+000000PRSWM2
0062601010999991991011117004+35733-005900FM-15+0021GMTT V0202801N00101999991CY0099001N1+01701+00801999999ADDAG12999MA1102611999999REMMET009CAVOK NSGEQDQ01+000000PRSWM2
0171601010999991991011118004+35733-005900SY-MT+0021GMTT V0209991C00001220001CN0150001N1+01501+00821102671ADDAA106000091AG14000GA1021+069009009GF102991001001999999001021KA1120M+01801MA1102611999999MD1610041+9999MW1001REMSYN017333   10180 82073MET009CAVOK NSGEQDQ01+000000PRSWM2
0062601010999991991011119004+35733-005900FM-15+0021GMTT V0209991C00001999991CY0099001N1+01401+01001999999ADDAG12999MA1102611999999REMMET009CAVOK NSGEQDQ01+000000PRSWM2
0097601010999991991011121004+35733-005900FM-12+0021GMTT V0201201N00211220001CN0100001N9+01031+00761102671ADDAA106000091AG14000GA1021+069009009GF102991001001999999001021MD1510001+9999REMSYN011333   82073
0061601010999991991011200004+35733-005900FM-12+0021GMTT V0201601N00101220001CN0100001N9+00561+00301102631ADDAA106000091AG14000GF100991001001999999001001MD1810011+9999
0072601010999991991011202004+35733-005900FM-15+0021GMTT V0203001N00821220001CN0112001N1+01001+00801999999ADDAG11999GA1041+004809089MA1102611999999REMMET003NSGEQDQ01+000000PRSWM2
0163601010999991991011203004+35733-005900SY-MT+0021GMTT V0202801N00621004801CN0080001N1+01121+00931102671ADDAG12001AY161031AY221031GA1021+003009079GA2051+004809089GF107991061021004501071999MA1102611999999MD1310041+9999MW1601REMSYN017333   82710 85816SYN012RJCT40  2899
0182601010999991991011206004+35733-005900FM-12+0021GMTT V0201801N00311004801CN0080001N9+01171+00981102621ADDAA124000391AG10001AY161061AY221061GA1021+003009079GA2061+004809089GA3051+030009039GF108991061021002501071999KA1120N+00451MD1710021+9999MW1211REMSYN029333   20045 82710 86816 85360
0145601010999991991011209004+35733-005900SY-MT+0021GMTT V0203401N00621004801CN0100001N1+01211+01021102831ADDAG12003AY181031AY281031GA1031+003909089GA2051+004809089GF107991071081004501999999MA1102811999999MD1310211+9999MW1611REMSYN017333   83813 85816
0047601010999991991011209124+35733-005900FM-15+0021GMTT V0203401N00621220001CN0112001N1+01201+01001999999ADDAG12009GA1031+999999089MA1102811999999MW1611
0063601010999991991011210004+35733-005900FM-15+0021GMTT V0203601N00721004801CN0112001N1+01301+01001999999ADDAG12999GA1021+003909089GA2041+004809089MA1102811999999MW1211
0175601010999991991011212004+35733-005900SY-MT+0021GMTT V0203401N00411004801CN0100001N1+01371+00941102941ADDAA106004091AG19001AY181061AY221061GA1021+004509089GA2051+004809059GF106991061081004501001001MA1102911999999MD1110111+9999MW1021REMSYN017333   82815 85616EQDQ01+000000PRSWM2
0060601010999991991011213004+35733-005900FM-15+0021GMTT V0203601N00671220001CN0112001N1+01401+00901999999ADDAG12999GA1041+004809089MA1102911999999EQDQ01+000000PRSWM2
0119601010999991991011215004+35733-005900FM-12+0021GMTT V0203201N00721004801CN0150001N9+01431+00611102801ADDAA106000091AG14000GA1021+004509089GA2041+004809059GF105991051081004501001001MD1710141+9999REMSYN017333   82815 84616
0076601010999991991011216004+35733-005900FM-15+0021GMTT V0203201N00721004801CN0112001N1+01401+00501999999ADDAG12999GA1021+004509089GA2041+004809059MA1102811999999EQDQ01+000000PRSWM2
0116601010999991991011218004+35733-005900FM-12+0021GMTT V0203201N00721220001CN0100001N9+01191+00461102881ADDAA199004091AG10000GA1031+004809089GF103991031021004501001001KA1120M+01451MD1110081+9999REMSYN017333   10145 83816
0097601010999991991011221004+35733-005900FM-12+0021GMTT V0203601N00511220001CN0100001N9+01021+00611102931ADDAA106000091AG14000GA1031+004809089GF103991031021004501001001MD1110051+9999REMSYN011333   83816
0060601010999991991011222004+35733-005900FM-15+0021GMTT V0203601N00411220001CN0112001N1+01001+00601999999ADDAG12999GA1031+004809089MA1102911999999EQDQ01+000000PRSWM2
0072601010999991991011223004+35733-005900FM-15+0021GMTT V0201001N00151220001CN0112001N1+00901+00501999999ADDAG12999GA1031+004809089MA1102911999999REMMET003NSGEQDQ01+000000PRSWM2
0146601010999991991011300004+35733-005900SY-MT+0021GMTT V0201201N00311220001CN0100001N1+00661+00431103001ADDAA106000091AG14000GA1021+006009059GF102991021051008001001001MA1103011999999MD1310041+9999MW1001REMSYN011333   82620MET003NSGEQDQ01+000000PRSWM2
0060601010999991991011301004+35733-005900FM-15+0021GMTT V0201201N00101220001CN0112001N1+00601+00401999999ADDAG11999GA1021+006009059MA1103011999999EQDQ01+000000PRSWM2
0060601010999991991011302004+35733-005900FM-15+0021GMTT V0201401N00101220001CN0112001N1+00601+00401999999ADDAG11999GA1021+006009059MA1102911999999EQDQ01+000000PRSWM2
0115601010999991991011303004+35733-005900SY-MT+0021GMTT V0201201N00211220001CN0100001N1+00381+00201102961ADDAA106000091AG14000GF100991001001999999001001MA1102911999999MD1810041+9999MW1001REMMET005CAVOKEQDQ01+000000PRSWM2
0058601010999991991011305004+35733-005900FM-15+0021GMTT V0201401N00311999991CY0099001N1+00401+00201999999ADDAG12999MA1102911999999REMMET005CAVOKEQDQ01+000000PRSWM2
0145601010999991991011306004+35733-005900SY-MT+0021GMTT V0201001N00311220001CN0100001N1+00311+00181102881ADDAA124004091AG10000GF100991001001999999001001KA1120N+00231MA1102811999999MD1810081+9999MW1001REMSYN011333   20023MET005CAVOKEQDQ01+000000PRSWM2
0058601010999991991011307004+35733-005900FM-15+0021GMTT V0201001N00211999991CY0099001N1+00301+00201999999ADDAG12999MA1102811999999REMMET005CAVOKEQDQ01+000000PRSWM2
0146601010999991991011309004+35733-005900SY-MT+0021GMTT V0201201N00211220001CN0100001N1+00491+00341102841ADDAA106000091AG14000GA1021+004809089GF102991021021004501001001MA1102811999999MD1610041+9999MW1001REMSYN011333   82816MET003NSGEQDQ01+000000PRSWM2
0097601010999991991011312004+35733-005900FM-12+0021GMTT V0202401N00151220001CN0150001N9+01311+00801102781ADDAA106000091AG14000GA1031+004809059GF103991031051004501001001MD1810051+9999REMSYN011333   83616
0083601010999991991011315004+35733-005900FM-12+0021GMTT V0200201N00411220001CN0150001N9+01451+00431102501ADDAA106000091AG14000GA1031+004809059GF103991031051004501001021REMSYN011333   83616
0060601010999991991011317004+35733-005900FM-15+0021GMTT V0200201N00211220001CN0112001N1+01401+00401999999ADDAG12999GA1031+004809059MA1102401999999EQDQ01+000000PRSWM2
0138601010999991991011318004+35733-005900FM-12+0021GMTT V0200401N00261220001CN0150001N9+01051+00381102391ADDAA106000091AG14000GA1011+004809059GA2031+069009009GF103991011051004501001021KA1120M+01451MD1610111+9999REMSYN023333   10145 81616 83073
0076601010999991991011319004+35733-005900FM-15+0021GMTT V0200801N00101220001CN0112001N1+01001+00501999999ADDAG12999GA1011+004809059GA2031+069009009MA1102301999999EQDQ01+000000PRSWM2
0097601010999991991011321004+35733-005900FM-12+0021GMTT V0209991C00001220001CN0100001N9+00621+00381102341ADDAA106000091AG14000GA1021+069009009GF102991001001999999001021MD1610081+9999REMSYN011333   82073
0061601010999991991011400004+35733-005900FM-12+0021GMTT V0201201N00261220001CN0100001N9+00311+00211102281ADDAA106000091AG14000GF100991001001999999001001MD1810041+9999
0061601010999991991011403004+35733-005900FM-12+0021GMTT V0209991C00001220001CN0100001N9+00271+00201102221ADDAA106000091AG14000GF100991001001999999001001MD1610061+9999
0094601010999991991011406004+35733-005900FM-12+0021GMTT V0201001N00211220001CN0100001N9+00181+00021101961ADDAA106000091AG14000GF100991001001999999001001KA1120N+00121MD1610151+9999REMSYN011333   20012
0058601010999991991011407004+35733-005900FM-15+0021GMTT V0201001N00211999991CY0099001N1+00201+00001999999ADDAG12999MA1101901999999REMMET005CAVOKEQDQ01+000000PRSWM2
0058601010999991991011408004+35733-005900FM-15+0021GMTT V0209999999999999991CY0099001N1+00201+00001999999ADDAG12999MA1101901999999REMMET005CAVOKEQDQ01+000000PRSWM2
0177601010999991991011409004+35733-005900SY-MT+0021GMTT V0201401N00261069001CN0150001N1+00521+00281101911ADDAA106000091AG14000GA1021+004809059GA2041+069009009GF105991021051004501001021MA1101901999999MD1710051+9999MW1001REMSYN017333   82616 84073SYN012RJCT40  2782EQDQ01+000000PRSWM2
0060601010999991991011411304+35733-005900FM-15+0021GMTT V0202201N00511004801CN0112001N1+01001+00601999999ADDAG12000GA1051+004809059MA1101801999999EQDQ01+000000PRSWM2
0159601010999991991011412004+35733-005900SY-MT+0021GMTT V0202201N00511069001CN0150001N1+01321+00531101821ADDAA106000091AG14000GA1031+004809089GA2041+069009009GF106991031021004501001021MA1101801999999MD1610081+9999MW1001REMSYN017333   83816 84073EQDQ01+000000PRSWM2
0076601010999991991011412304+35733-005900FM-15+0021GMTT V0202201N00621069001CN0112001N1+01301+00501999999ADDAG12999GA1031+004809089GA2041+069009009MA1101801999999EQDQ01+000000PRSWM2
0087601010999991991011413304+35733-005900FM-15+0021GMTT V0202201N00511069001CN0112001N1+01301+00601999999ADDAG12999GA1031+004809089GA2041+069009009MA1101801999999REMMET002NGEQDQ01+000000PRSWM2
0087601010999991991011414004+35733-005900FM-15+0021GMTT V0202201N00511069001CN0112001N1+01401+00601999999ADDAG12999GA1031+004809089GA2041+069009009MA1101691999999REMMET002NGEQDQ01+000000PRSWM2
0087601010999991991011414304+35733-005900FM-15+0021GMTT V0202201N00511069001CN0112001N1+01401+00601999999ADDAG12000GA1031+004809089GA2041+069009009MA1101691999999REMMET002NGEQDQ01+000000PRSWM2
0159601010999991991011415004+35733-005900SY-MT+0021GMTT V0202201N00411069001CN0150001N1+01461+00721101621ADDAA106000091AG14000GA1031+004809089GA2061+069009009GF107991031021004501001021MA1101591999999MD1810201+9999MW1001REMSYN017333   83816 86073EQDQ01+000000PRSWM2
0074601010999991991011415304+35733-005900FM-15+0021GMTT V0202201N00411069001CN0112001N1+01501+00701999999ADDAG12999GA1031+004809089GA2061+069009009REMMET0041(16EQDQ01+000000PRSWM2
0087601010999991991011416004+35733-005900FM-15+0021GMTT V0202201N00511220001CN9999999N9+01501+00701999999ADDAG12999GA1031+004809089MA1101591999999REMMET002NGEQDQ01+000002VOVAR Q02+000000PRSWM2
0076601010999991991011416304+35733-005900FM-15+0021GMTT V0202201N00511069001CN0112001N1+01501+00701999999ADDAG12999GA1031+004809089GA2061+069009009MA1101591999999EQDQ01+000000PRSWM2
0087601010999991991011417004+35733-005900FM-15+0021GMTT V0202201N00411069001CN0112001N1+01201+00801999999ADDAG12999GA1031+004809089GA2061+069009009MA1101591999999REMMET002NGEQDQ01+000000PRSWM2
0087601010999991991011417304+35733-005900FM-15+0021GMTT V0202201N00411069001CN0112001N1+01201+00801999999ADDAG12000GA1031+004809089GA2061+069009009MA1101591999999REMMET002NGEQDQ01+000000PRSWM2
0186601010999991991011418004+35733-005900SY-MT+0021GMTT V0202001N00211069001CN0150001N1+01141+00781101601ADDAA106000091AG14000GA1031+004809089GA2051+069009009GF107991031021004501001021KA1120M+01481MA1101591999999MD1810021+9999MW1001REMSYN023333   10148 83816 85073MET002NGEQDQ01+000000PRSWM2
0076601010999991991011418304+35733-005900FM-15+0021GMTT V0202001N00211069001CN0112001N1+01101+00801999999ADDAG12999GA1031+004809089GA2051+069009009MA1101591999999EQDQ01+000000PRSWM2
0060601010999991991011419004+35733-005900FM-15+0021GMTT V0202001N00211069001CN0112001N1+01001+00801999999ADDAG12999GA1051+069009009MA1101591999999EQDQ01+000000PRSWM2
0076601010999991991011420304+35733-005900FM-15+0021GMTT V0202001N00311069001CN0112001N1+00701+00401999999ADDAG12000GA1031+004809089GA2061+069009009MA1101591999999EQDQ01+000000PRSWM2
0153601010999991991011421004+35733-005900SY-MT+0021GMTT V0201001N00361069001CN0100001N1+00641+00441101651ADDAA106000091AG14000GA1031+004809089GA2051+069009009GF106991031021004501001021MA1101591999999MD1310041+9999MW1001REMSYN011333   83816EQDQ01+000000PRSWM2
0092601010999991991011421304+35733-005900FM-15+0021GMTT V0201001N00511069001CN9999999N9+00601+00401999999ADDAG12999GA1031+004809089GA2051+069009009MA1101591999999EQDQ01+000002VOVAR Q02+000000PRSWM2
0076601010999991991011422004+35733-005900FM-15+0021GMTT V0209999999999069001CN0112001N1+00601+00401999999ADDAG12999GA1031+004809089GA2051+069009009MA1101591999999EQDQ01+000000PRSWM2
0076601010999991991011422304+35733-005900FM-15+0021GMTT V0201001N00411069001CN0112001N1+00601+00401999999ADDAG12999GA1031+004809089GA2051+069009009MA1101591999999EQDQ01+000000PRSWM2
0076601010999991991011423004+35733-005900FM-15+0021GMTT V0201001N00411069001CN0112001N1+00601+00401999999ADDAG12999GA1031+004809089GA2051+069009009MA1101591999999EQDQ01+000000PRSWM2
0076601010999991991011423304+35733-005900FM-15+0021GMTT V0201001N00411069001CN0112001N1+00601+00401999999ADDAG12000GA1031+004809089GA2051+069009009MA1101591999999EQDQ01+000000PRSWM2
0159601010999991991011500004+35733-005900SY-MT+0021GMTT V0201001N00411069001CN0100001N1+00651+00511101711ADDAA106000091AG14000GA1031+004809089GA2051+069009009GF107991031021004501001021MA1101691999999MD1310061+9999MW1001REMSYN017333   83816 85073EQDQ01+000000PRSWM2
0075601010999991991011500304+35733-005900FM-15+0021GMTT V0209999999999069001CN0112001N1+00701+00501999999ADDAG11999GA1031+004809089GA2051+069009009REMMET00510117EQDQ01+000000PRSWM2
0076601010999991991011501004+35733-005900FM-15+0021GMTT V0201001N00411069001CN0112001N1+00701+00601999999ADDAG11999GA1051+069009009GA2031+999999089MA1101591999999EQDQ01+000000PRSWM2
0076601010999991991011501304+35733-005900FM-15+0021GMTT V0201001N00311069001CN0112001N1+00701+00601999999ADDAG11999GA1031+004809089GA2051+069009009MA1101591999999EQDQ01+000000PRSWM2
0076601010999991991011502004+35733-005900FM-15+0021GMTT V0201001N00311069001CN0112001N1+00701+00601999999ADDAG11999GA1031+004809089GA2051+069009009MA1101591999999EQDQ01+000000PRSWM2
0076601010999991991011502304+35733-005900FM-15+0021GMTT V0201001N00311069001CN0112001N1+00701+00601999999ADDAG12000GA1051+069009009GA2031+999999089MA1101591999999EQDQ01+000000PRSWM2
0159601010999991991011503004+35733-005900SY-MT+0021GMTT V0201001N00411069001CN0100001N1+00701+00561101641ADDAA106000091AG14000GA1031+004809089GA2051+069009009GF107991031021004501001021MA1101591999999MD1610071+9999MW1001REMSYN017333   83816 85073EQDQ01+000000PRSWM2
0076601010999991991011503304+35733-005900FM-15+0021GMTT V0200801N00211069001CN0112001N1+00701+00601999999ADDAG12999GA1031+004809089GA2051+069009009MA1101591999999EQDQ01+000000PRSWM2
0076601010999991991011504004+35733-005900FM-15+0021GMTT V0201001N00311220001CN0112001N1+00601+00501999999ADDAG12999GA1021+004809089GA2031+069009009MA1101591999999EQDQ01+000000PRSWM2
0060601010999991991011504304+35733-005900FM-15+0021GMTT V0201001N00411220001CN0112001N1+00601+00501999999ADDAG12999GA1031+069009009MA1101591999999EQDQ01+000000PRSWM2
0060601010999991991011505004+35733-005900FM-15+0021GMTT V0201001N00211220001CN0112001N1+00601+00401999999ADDAG12999GA1021+004809089MA1101591999999EQDQ01+000000PRSWM2
0060601010999991991011505304+35733-005900FM-15+0021GMTT V0201001N00311220001CN0112001N1+00601+00401999999ADDAG12000GA1021+004809089MA1101591999999EQDQ01+000000PRSWM2
0116601010999991991011506004+35733-005900FM-12+0021GMTT V0201201N00311220001CN0100001N9+00551+00411101611ADDAA106000091AG14000GA1021+004809089GF103991021021004501001021KA1120N+00491MD1710031+9999REMSYN017333   20049 82816
0060601010999991991011507004+35733-005900FM-15+0021GMTT V0201001N00311004801CN0112001N1+00601+00401999999ADDAG12999GA1051+004809089MA1101591999999EQDQ01+000000PRSWM2
0060601010999991991011507304+35733-005900FM-15+0021GMTT V0200801N00311004801CN0112001N1+00601+00501999999ADDAG12999GA1051+004809089MA1101591999999EQDQ01+000000PRSWM2
0087601010999991991011508004+35733-005900FM-15+0021GMTT V0200801N00411069001CN0112001N1+00701+00501999999ADDAG12999GA1021+004809089GA2041+069009009MA1101591999999REMMET002NGEQDQ01+000000PRSWM2
0167601010999991991011509004+35733-005900SY-MT+0021GMTT V0201001N00311069001CN0100001N1+00681+00451101721ADDAA106000091AG14000GA1021+004809089GA2041+069009009GF105991021021004501001021MA1101691999999MD1310111+9999MW1001REMSYN017333   82816 84073MET002NGEQDQ01+000000PRSWM2
0087601010999991991011509304+35733-005900FM-15+0021GMTT V0201001N00311069001CN0112001N1+00701+00501999999ADDAG12999GA1021+004809089GA2041+069009009MA1101691999999REMMET002NGEQDQ01+000000PRSWM2
0076601010999991991011510004+35733-005900FM-15+0021GMTT V0201001N00311090001CN0112001N1+00801+00501999999ADDAG12999GA1041+069009009GA2021+999999019MA1101691999999EQDQ01+000000PRSWM2
0076601010999991991011511304+35733-005900FM-15+0021GMTT V0201001N00311004801CN0112001N1+01001+00701999999ADDAG12000GA1051+004809089GA2051+069009009MA1101801999999EQDQ01+000000PRSWM2
0167601010999991991011512004+35733-005900SY-MT+0021GMTT V0201001N00261004801CN0100001N1+01151+00761101861ADDAA106000091AG14000GA1051+004809089GA2051+069009009GF107991051021004501001021MA1101801999999MD1110051+9999MW1001REMSYN017333   85816 85073MET002NGEQDQ01+000000PRSWM2
0076601010999991991011512304+35733-005900FM-15+0021GMTT V0201001N00261003001CN0112001N1+01201+00801999999ADDAG12999GA1051+003009089GA2051+069009009MA1101801999999EQDQ01+000000PRSWM2
0076601010999991991011513304+35733-005900FM-15+0021GMTT V0201401N00511027001CN0112001N1+01301+00801999999ADDAG12999GA1041+004809089GA2031+027009039MA1101801999999EQDQ01+000000PRSWM2
0060601010999991991011514004+35733-005900FM-15+0021GMTT V0201401N00411220001CN0112001N1+01301+00801999999ADDAG12999GA1041+004809089MA1101801999999EQDQ01+000000PRSWM2
0060601010999991991011514304+35733-005900FM-15+0021GMTT V0201001N00311220001CN0112001N1+01301+00801999999ADDAG12000GA1041+004809089MA1101801999999EQDQ01+000000PRSWM2
0137601010999991991011515004+35733-005900SY-MT+0021GMTT V0201201N00511004801CN0100001N1+01401+00841101721ADDAA106000091AG14000GA1051+004809089GF106991051021004501031021MA1101691999999MD1710141+9999MW1001REMSYN011333   85816EQDQ01+000000PRSWM2
0060601010999991991011515304+35733-005900FM-15+0021GMTT V0201001N00411004801CN0112001N1+01401+00801999999ADDAG12999GA1051+004809089MA1101691999999EQDQ01+000000PRSWM2
0076601010999991991011517004+35733-005900FM-15+0021GMTT V0201001N00311004801CN9999999N9+01301+00701999999ADDAG12999GA1071+004809059MA1101691999999EQDQ01+000002VOVAR Q02+000000PRSWM2
0155601010999991991011518004+35733-005900SY-MT+0021GMTT V0201001N00311220001CN0100001N1+01201+00801101781ADDAA106000091AG14000GA1031+004809089GF104991031021004501001021KA1120M+01501MD1110141+9999MW1001REMSYN017333   10150 83816MET00812081017EQDQ01+000000PRSWM2
0060601010999991991011518304+35733-005900FM-15+0021GMTT V0201001N00411220001CN0112001N1+01201+00801999999ADDAG12999GA1031+004809059MA1101691999999EQDQ01+000000PRSWM2
0060601010999991991011519004+35733-005900FM-15+0021GMTT V0201001N00411220001CN0112001N1+01001+00601999999ADDAG12999GA1031+004809059MA1101801999999EQDQ01+000000PRSWM2
0060601010999991991011520004+35733-005900FM-15+0021GMTT V0201001N00411220001CN0112001N1+00901+00601999999ADDAG12999GA1031+004809059MA1101801999999EQDQ01+000000PRSWM2
0139601010999991991011521004+35733-005900SY-MT+0021GMTT V0201001N00411220001CN0100001N1+00781+00491101881ADDAA106000091AG14000GA1021+004809089GF103991021021004501001021MA1101801999999MD1110101+9999REMSYN011333   82816MET002NGEQDQ01+000000PRSWM2
0060601010999991991011521304+35733-005900FM-15+0021GMTT V0201001N00411220001CN0112001N1+00801+00501999999ADDAG12999GA1021+004809089MA1101801999999EQDQ01+000000PRSWM2
0071601010999991991011522004+35733-005900FM-15+0021GMTT V0201001N00411220001CN0112001N1+00701+00501999999ADDAG12999GA1021+999999089MA1101901999999REMMET002NGEQDQ01+000000PRSWM2
0060601010999991991011522304+35733-005900FM-15+0021GMTT V0201001N00411220001CN0112001N1+99999+99999999999ADDAG12999GA1021+004809089MA1101901999999EQDQ01+000000PRSWM2
0071601010999991991011523004+35733-005900FM-15+0021GMTT V0201001N00411220001CN0112001N1+00601+00401999999ADDAG12999GA1021+004809089MA1101901999999REMMET002NGEQDQ01+000000PRSWM2
0071601010999991991011523304+35733-005900FM-15+0021GMTT V0201001N00411220001CN0112001N1+00601+00401999999ADDAG12000GA1021+004809089MA1101901999999REMMET002NGEQDQ01+000000PRSWM2
0139601010999991991011600004+35733-005900SY-MT+0021GMTT V0201001N00411220001CN0100001N1+00771+00511102021ADDAA106000091AG14000GA1021+004809089GF103991021021004501001021MA1102001999999MD1310141+9999REMSYN011333   82816MET002NGEQDQ01+000000PRSWM2
0071601010999991991011600304+35733-005900FM-15+0021GMTT V0201001N00411220001CN0112001N1+00801+00501999999ADDAG11999GA1021+004809089MA1102001999999REMMET002NGEQDQ01+000000PRSWM2
0071601010999991991011601004+35733-005900FM-15+0021GMTT V0201001N00411220001CN0112001N1+00701+00401999999ADDAG11999GA1021+004809089MA1102001999999REMMET002NGEQDQ01+000000PRSWM2
0071601010999991991011602004+35733-005900FM-15+0021GMTT V0201001N00411220001CN0112001N1+00801+00501999999ADDAG11999GA1021+004809089MA1102001999999REMMET002NGEQDQ01+000000PRSWM2
0145601010999991991011603004+35733-005900SY-MT+0021GMTT V0201201N00311220001CN0100001N1+00641+00401102041ADDAA106000091AG14000GA1021+004809089GF103991021021004501001021MA1102001999999MD1310011+9999MW1001REMSYN011333   82816MET002NGEQDQ01+000000PRSWM2
0060601010999991991011603304+35733-005900FM-15+0021GMTT V0201201N00311220001CN0112001N1+00601+00401999999ADDAG12999GA1021+004809089MA1102001999999EQDQ01+000000PRSWM2
0060601010999991991011604004+35733-005900FM-15+0021GMTT V0201201N00211220001CN0112001N1+00601+00401999999ADDAG12999GA1021+004809089MA1102001999999EQDQ01+000000PRSWM2
0060601010999991991011604304+35733-005900FM-15+0021GMTT V0201201N00211220001CN0112001N1+00601+00401999999ADDAG12999GA1021+004809089MA1102001999999EQDQ01+000000PRSWM2
0060601010999991991011605004+35733-005900FM-15+0021GMTT V0201201N00211220001CN0112001N1+00601+00401999999ADDAG12999GA1021+999999089MA1102001999999EQDQ01+000000PRSWM2
0060601010999991991011605304+35733-005900FM-15+0021GMTT V0202201N00211220001CN0112001N1+00601+00401999999ADDAG12000GA1021+004809089MA1102001999999EQDQ01+000000PRSWM2
0116601010999991991011606004+35733-005900FM-12+0021GMTT V0201001N00411220001CN0100001N9+00571+00331102041ADDAA106000091AG14000GA1021+004809089GF103991021021004501001021KA1120N+00571MD1410001+9999REMSYN017333   20057 82816
0060601010999991991011606304+35733-005900FM-15+0021GMTT V0201001N00411220001CN0112001N1+00601+00301999999ADDAG12999GA1021+999999089MA1102001999999EQDQ01+000000PRSWM2
0060601010999991991011607004+35733-005900FM-15+0021GMTT V0201001N00411220001CN0112001N1+00601+00301999999ADDAG12999GA1021+004809089MA1102001999999EQDQ01+000000PRSWM2
0060601010999991991011608004+35733-005900FM-15+0021GMTT V0201201N00511220001CN0112001N1+00701+00301999999ADDAG12999GA1021+004809089MA1102001999999EQDQ01+000000PRSWM2
0137601010999991991011609004+35733-005900SY-MT+0021GMTT V0201001N00311220001CN0100001N1+00801+00301102211ADDAA106000091AG14000GA1021+004809089GF103991021021004501031001MA1102201999999MD1210171+9999MW1001REMSYN011333   82816EQDQ01+000000PRSWM2
0060601010999991991011609304+35733-005900FM-15+0021GMTT V0201001N00311220001CN0112001N1+00801+00301999999ADDAG12999GA1021+004809059MA1102201999999EQDQ01+000000PRSWM2
0060601010999991991011610004+35733-005900FM-15+0021GMTT V0201001N00311220001CN0112001N1+00901+00601999999ADDAG12999GA1021+004809059MA1102201999999EQDQ01+000000PRSWM2
0060601010999991991011610304+35733-005900FM-15+0021GMTT V0201201N00211220001CN0112001N1+00901+00601999999ADDAG12999GA1021+004809059MA1102201999999EQDQ01+000000PRSWM2
0147601010999991991011611004+35733-005900SY-MT+0021GMTT V0202001N00211069001CN0100001N1+01481+00671999999ADDAA106000091AG10999GA1031+005409089GA2041+069009009GF105991031021004501001021MA1102301999999MD1110211+9999REMSYN011333   83818EQDQ01+000000PRSWM2
0119601010999991991011612004+35733-005900FM-12+0021GMTT V0202001N00211069001CN0100001N9+01481+00611102431ADDAA106000091AG14000GA1031+004809089GA2041+069009009GF105991031021004501001021MD1110211+9999REMSYN017333   83816 84073
0076601010999991991011612304+35733-005900FM-15+0021GMTT V0202001N00151069001CN0112001N1+01501+00601999999ADDAG12999GA1031+004809059GA2041+069009009MA1102401999999EQDQ01+000000PRSWM2
0060601010999991991011613004+35733-005900FM-15+0021GMTT V0202001N00311220001CN0112001N1+01501+00601999999ADDAG12999GA1031+004809059MA1102401999999EQDQ01+000000PRSWM2
0088601010999991991011613304+35733-005900FM-15+0021GMTT V0202801N00311069001CN0112001N1+01501+00601999999ADDAG12999GA1031+004809089GA2051+069009009MA1102301999999REMMET003NSGEQDQ01+000000PRSWM2
0088601010999991991011614004+35733-005900FM-15+0021GMTT V0202601N00311069001CN0112001N1+01601+00601999999ADDAG12999GA1041+004809089GA2051+069009009MA1102301999999REMMET003NSGEQDQ01+000000PRSWM2
0088601010999991991011614304+35733-005900FM-15+0021GMTT V0202601N00411069001CN0112001N1+01601+00601999999ADDAG12000GA1031+004809089GA2051+069009009MA1102301999999REMMET003NSGEQDQ01+000000PRSWM2
0119601010999991991011615004+35733-005900FM-12+0021GMTT V0202801N00311004801CN0100001N9+01521+00731102281ADDAA106000091AG14000GA1051+004809089GA2041+069009009GF107991051021004501001021MD1610151+9999REMSYN017333   85816 84073
0088601010999991991011615304+35733-005900FM-15+0021GMTT V0203001N00211004801CN0112001N1+01501+00701999999ADDAG12999GA1051+004809089GA2041+069009009MA1102201999999REMMET003NSGEQDQ01+000000PRSWM2
0088601010999991991011616004+35733-005900FM-15+0021GMTT V0203401N00211004801CN0112001N1+01401+00701999999ADDAG12999GA1051+004809089GA2041+069009009MA1102301999999REMMET003NSGEQDQ01+000000PRSWM2
0088601010999991991011616304+35733-005900FM-15+0021GMTT V0203601N00211004801CN0112001N1+01401+00701999999ADDAG12999GA1051+004809089GA2041+069009009MA1102301999999REMMET003NSGEQDQ01+000000PRSWM2
0088601010999991991011617304+35733-005900FM-15+0021GMTT V0200201N00101004801CN0112001N1+01401+00701999999ADDAG12000GA1051+004809089GA2041+069009009MA1102301999999REMMET003NSGEQDQ01+000000PRSWM2
0138601010999991991011618004+35733-005900FM-12+0021GMTT V0209991C00001004801CN0080001N9+01281+00811102441ADDAA106000091AG14000GA1051+004809089GA2041+069009009GF107991051021004501001021KA1120M+01611MD1210161+9999REMSYN023333   10161 85816 84073
0072601010999991991011618304+35733-005900FM-15+0021GMTT V0202601N00211220001CN0112001N1+01301+00801999999ADDAG12999GA1041+069009009MA1102401999999REMMET003NSGEQDQ01+000000PRSWM2
0088601010999991991011619004+35733-005900FM-15+0021GMTT V0202001N00211069001CN0112001N1+01101+01001999999ADDAG12999GA1031+004509089GA2041+069009009MA1102401999999REMMET003NSGEQDQ01+000000PRSWM2
0083601010999991991011619304+35733-005900FM-15+0021GMTT V0202001N00211069001CN0112001N1+01101+99999999999ADDAG12999GA1031+004809089GA2031+069009009REMMET013100 10024 NSGEQDQ01+000000PRSWM2
0087601010999991991011620004+35733-005900FM-15+0021GMTT V0201601N00211069001CN0112001N1+01101+01001999999ADDAG12999GA1031+004509089GA2031+069009009MA1102401999999REMMET002NSEQDQ01+000000PRSWM2
0159601010999991991011621004+35733-005900SY-MT+0021GMTT V0201001N00261069001CN0080001N1+01001+00791102551ADDAA106000091AG14000GA1031+004809089GA2031+069009009GF105991031021004501001021MA1102511999999MD1210111+9999MW1001REMSYN017333   83816 83073EQDQ01+000000PRSWM2
0076601010999991991011622004+35733-005900FM-15+0021GMTT V0201001N00261069001CN0080001N1+01001+00801999999ADDAG12999GA1031+004809059GA2031+069009009MA1102511999999EQDQ01+000000PRSWM2
0076601010999991991011622304+35733-005900FM-15+0021GMTT V0209999999999069001CN0080001N1+01001+00801999999ADDAG12999GA1031+004809059GA2031+069009009MA1102511999999EQDQ01+000000PRSWM2
0119601010999991991011700004+35733-005900FM-12+0021GMTT V0201001N00411004801CN0080001N9+01031+00761102581ADDAA106000091AG14000GA1051+004809089GA2031+069009009GF106991051021004501001021MD1310031+9999REMSYN017333   85816 83073
0076601010999991991011701304+35733-005900FM-15+0021GMTT V0201001N00261069001CN0080001N1+00901+00701999999ADDAG11999GA1031+004809059GA2031+069009009MA1102511999999EQDQ01+000000PRSWM2
0076601010999991991011702004+35733-005900FM-15+0021GMTT V0201001N00261069001CN0080001N1+00801+00601999999ADDAG11999GA1031+004809059GA2031+069009009MA1102511999999EQDQ01+000000PRSWM2
0076601010999991991011702304+35733-005900FM-15+0021GMTT V0201001N00261069001CN0080001N1+00801+00601999999ADDAG12000GA1031+004809059GA2031+069009009MA1102511999999EQDQ01+000000PRSWM2
0159601010999991991011703004+35733-005900SY-MT+0021GMTT V0201001N00311220001CN0080001N1+00621+00431102601ADDAA106000091AG14000GA1021+004809089GA2031+069009009GF104991021081004501001021MA1102611999999MD1310021+9999MW1001REMSYN017333   82816 83073EQDQ01+000000PRSWM2
0076601010999991991011703304+35733-005900FM-15+0021GMTT V0201001N00311220001CN0080001N1+00601+00401999999ADDAG12999GA1021+004809059GA2031+069009009MA1102611999999EQDQ01+000000PRSWM2
0060601010999991991011704304+35733-005900FM-15+0021GMTT V0201201N00311220001CN0080001N1+00701+00501999999ADDAG12999GA1021+004809089MA1102611999999EQDQ01+000000PRSWM2
0060601010999991991011705304+35733-005900FM-15+0021GMTT V0201001N00311220001CN0080001N1+00701+00501999999ADDAG12000GA1021+004809089MA1102611999999EQDQ01+000000PRSWM2
0156601010999991991011706004+35733-005900SY-MT+0021GMTT V0201201N00311220001CN0080001N1+00731+00581102651ADDAA106000091AG14000GA1021+004809089GF103991021021004501001021KA1120N+00551MA1102611999999MD1310041+9999MW1001REMSYN017333   20055 82816EQDQ01+000000PRSWM2
0060601010999991991011706304+35733-005900FM-15+0021GMTT V0201201N00311220001CN0080001N1+00701+00601999999ADDAG12999GA1021+004809089MA1102611999999EQDQ01+000000PRSWM2
0060601010999991991011707004+35733-005900FM-15+0021GMTT V0201201N00311220001CN0080001N1+00601+00401999999ADDAG12999GA1021+004809089MA1102611999999EQDQ01+000000PRSWM2
0076601010999991991011707304+35733-005900FM-15+0021GMTT V0201201N00311220001CN0080001N1+00601+00401999999ADDAG12999GA1021+004809089GA2031+069009009MA1102611999999EQDQ01+000000PRSWM2
0088601010999991991011708004+35733-005900FM-15+0021GMTT V0201001N00411069001CN0112001N1+00501+00401999999ADDAG12999GA1021+004809089GA2051+069009009MA1102711999999REMMET003NSGEQDQ01+000000PRSWM2
0088601010999991991011708304+35733-005900FM-15+0021GMTT V0201001N00411069001CN0112001N1+00501+00401999999ADDAG12000GA1021+004809089GA2051+069009009MA1102711999999REMMET003NSGEQDQ01+000000PRSWM2
0168601010999991991011709004+35733-005900SY-MT+0021GMTT V0201001N00361069001CN0100001N1+00771+00571102761ADDAA106000091AG14000GA1011+004809059GA2061+069009009GF106991011051004501001021MA1102711999999MD1210111+9999MW1001REMSYN017333   81616 86073MET003NSGEQDQ01+000000PRSWM2
0088601010999991991011709304+35733-005900FM-15+0021GMTT V0201001N00311069001CN0112001N1+00801+00601999999ADDAG12999GA1011+004809059GA2061+069009009MA1102711999999REMMET003NSGEQDQ01+000000PRSWM2
0104601010999991991011710004+35733-005900FM-15+0021GMTT V0201001N00311069001CN9999999N9+01101+00801999999ADDAG12999GA1011+004809059GA2061+069009009MA1102711999999REMMET003NSGEQDQ01+000002VOVAR Q02+000000PRSWM2
0088601010999991991011710304+35733-005900FM-15+0021GMTT V0201001N00411069001CN0112001N1+01101+00801999999ADDAG12999GA1011+004809059GA2061+069009009MA1102711999999REMMET003NSGEQDQ01+000000PRSWM2
0088601010999991991011711004+35733-005900FM-15+0021GMTT V0201001N00411069001CN0112001N1+01301+00801999999ADDAG12999GA1011+004809059GA2061+069009009MA1102811999999REMMET003NSGEQDQ01+000000PRSWM2
0088601010999991991011711304+35733-005900FM-15+0021GMTT V0201001N00311069001CN0112001N1+01301+99999999999ADDAG12000GA1011+004809059GA2061+069009009MA1102811999999REMMET003NSGEQDQ01+000000PRSWM2
0168601010999991991011712004+35733-005900SY-MT+0021GMTT V0201001N00311069001CN0100001N1+01481+00781102781ADDAA106000091AG14000GA1011+004809059GA2061+069009009GF106991011051004501001021MA1102711999999MD1010031+9999MW1001REMSYN017333   81616 86073MET003NSGEQDQ01+000000PRSWM2
0088601010999991991011712304+35733-005900FM-15+0021GMTT V0201001N00361069001CN0112001N1+01501+00801999999ADDAG12999GA1011+004809059GA2061+069009009MA1102711999999REMMET003NSGEQDQ01+000000PRSWM2
0062601010999991991011713004+35733-005900FM-15+0021GMTT V0201001N00411999991CY0099001N1+01501+00801999999ADDAG12999MA1102711999999REMMET009CAVOK NSGEQDQ01+000000PRSWM2
