0115601010999991987010100004+35733-005900SY-MT+0021GMTT V0209991C00001220001CN0100001N1+00551+00431102911ADDAA106000091AG10000GF100991001001999999001001MA1102911999999MD1310061+9999MW1001REMMET005CAVOKEQDQ01+000000PRSWM2
0058601010999991987010100304+35733-005900FM-15+0021GMTT V0209991C00001999991CY0099001N1+00601+00401999999ADDAG11999MA1102911999999REMMET005CAVOKEQDQ01+000000PRSWM2
0058601010999991987010101004+35733-005900FM-15+0021GMTT V0209991C00001999991CY0099001N1+00601+00401999999ADDAG11999MA1102911999999REMMET005CAVOKEQDQ01+000000PRSWM2
0058601010999991987010101304+35733-005900FM-15+0021GMTT V0209991C00001999991CY0099001N1+00601+00401999999ADDAG11999MA1102911999999REMMET005CAVOKEQDQ01+000000PRSWM2
0058601010999991987010102004+35733-005900FM-15+0021GMTT V0209991C00001999991CY0099001N1+00601+00401999999ADDAG11999MA1102911999999REMMET005CAVOKEQDQ01+000000PRSWM2
0058601010999991987010102304+35733-005900FM-15+0021GMTT V0209991C00001999991CY0099001N1+00601+00401999999ADDAG12000MA1102911999999REMMET005CAVOKEQDQ01+000000PRSWM2
0115601010999991987010103004+35733-005900SY-MT+0021GMTT V0201001N00311220001CN0100001N1+00601+00531102911ADDAA106000091AG14000GF100991001001999999001001MA1102911999999MD1410001+9999MW1001REMMET005CAVOKEQDQ01+000000PRSWM2
0058601010999991987010103304+35733-005900FM-15+0021GMTT V0201001N00311999991CY0099001N1+00601+00501999999ADDAG12999MA1102911999999REMMET005CAVOKEQDQ01+000000PRSWM2
0058601010999991987010104004+35733-005900FM-15+0021GMTT V0201001N00211999991CY0099001N1+00601+00501999999ADDAG12999MA1102911999999REMMET005CAVOKEQDQ01+000000PRSWM2
0145601010999991987010106004+35733-005900SY-MT+0021GMTT V0209991C00001220001CN0100001N1+00421+00371102881ADDAA106000091AG14000GF100991001001999999001001KA1120N+00421MA1102811999999MD1610031+9999MW1001REMSYN011333   20042MET005CAVOKEQDQ01+000000PRSWM2
0058601010999991987010107004+35733-005900FM-15+0021GMTT V0201201N00211999991CY0099001N1+00501+00401999999ADDAG12999MA1102811999999REMMET005CAVOKEQDQ01+000000PRSWM2
0076601010999991987010107304+35733-005900FM-15+0021GMTT V0201201N00211003901CN0060001N1+00501+00401999999ADDAG12999GA1021+002409079GA2031+003909059MA1102811999999EQDQ01+000000PRSWM2
0153601010999991987010109004+35733-005900SY-MT+0021GMTT V0201201N00211002101CN0080001N1+00621+00531103031ADDAA106000091AG14000GA1021+002409079GF107991071051002501999999MA1103011999999MD1310151+9999MW1001REMSYN017333   82708 87615MET004NSG?EQDQ01+000000PRSWM2
0089601010999991987010109304+35733-005900FM-15+0021GMTT V0209991C00001004501CN0080001N1+00601+00501999999ADDAG12999GA1021+001809079GA2061+004509059MA1103011999999REMMET004NSG?EQDQ01+000000PRSWM2
0089601010999991987010110004+35733-005900FM-15+0021GMTT V0209991C00001004501CN0080001N1+01001+00801999999ADDAG12999GA1011+002409079GA2061+004509059MA1103121999999REMMET004NSG?EQDQ01+000000PRSWM2
0091601010999991987010110304+35733-005900FM-15+0021GMTT V0209991C00001004501CN0080001N1+01001+00801999999ADDAG12999GA1011+002409079GA2061+004509059MA1103121999999REMMET006NOSIG?EQDQ01+000000PRSWM2
0091601010999991987010111004+35733-005900FM-15+0021GMTT V0209991C00001004501CN0080001N1+01301+01001999999ADDAG12999GA1011+002409079GA2061+004509059MA1103121999999REMMET006NOSIG?EQDQ01+000000PRSWM2
0089601010999991987010111304+35733-005900FM-15+0021GMTT V0209991C00001004501CN0080001N1+01301+01001999999ADDAG12000GA1011+002409079GA2061+004509059MA1103121999999REMMET004NSG?EQDQ01+000000PRSWM2
0163601010999991987010112004+35733-005900SY-MT+0021GMTT V0209991C00001004801CN0080001N1+01501+01021999999ADDAA106000091AG14000GA1051+004809059GF105991051051004501001021MA1103011999999MD1010051+9999MW1001REMSYN011333   85616MET004NSG?EQDQ01+102073APOSLPQ02+000000PRSWM2
0073601010999991987010112304+35733-005900FM-15+0021GMTT V0209991C00001004801CN0080001N1+01501+01001999999ADDAG12999GA1051+004809059MA1103011999999REMMET004NSG?EQDQ01+000000PRSWM2
0073601010999991987010113004+35733-005900FM-15+0021GMTT V0202601N00411004801CN0080001N1+01501+01001999999ADDAG12999GA1051+004809059MA1103011999999REMMET004NSG?EQDQ01+000000PRSWM2
0073601010999991987010113304+35733-005900FM-15+0021GMTT V0202601N00411004801CN0080001N1+01501+01001999999ADDAG12999GA1051+004809059MA1103011999999REMMET004NSG?EQDQ01+000000PRSWM2
0073601010999991987010114004+35733-005900FM-15+0021GMTT V0202601N00311004801CN0080001N1+01501+01001999999ADDAG12999GA1051+004809059MA1102911999999REMMET004NSG?EQDQ01+000000PRSWM2
0147601010999991987010115004+35733-005900SY-MT+0021GMTT V0202601N00311004801CN0080001N1+01501+01101102941ADDAA106000091AG14000GA1051+004809059GF106991051051004501001021MA1102911999999MD1610131+9999MW1001REMSYN011333   85616MET004NSG?EQDQ01+000000PRSWM2
0073601010999991987010116304+35733-005900FM-15+0021GMTT V0202401N00311004801CN0080001N1+01501+01101999999ADDAG12999GA1051+004809059MA1102911999999REMMET004NSG?EQDQ01+000000PRSWM2
0076601010999991987010117004+35733-005900FM-15+0021GMTT V0202201N00261004801CN0080001N1+01401+01101999999ADDAG12999GA1051+004809059GA2051+004809059MA1102911999999EQDQ01+000000PRSWM2
0073601010999991987010117304+35733-005900FM-15+0021GMTT V0202401N00151220001CN0080001N1+01401+01101999999ADDAG12000GA1031+004809059MA1102911999999REMMET004NSG?EQDQ01+000000PRSWM2
0156601010999991987010118004+35733-005900SY-MT+0021GMTT V0202801N00101004801CN0080001N1+01171+01021102901ADDAA106000091AG14000GA1051+004809059GF108991051051004501001021KA1120M+01551MA1102911999999MD1610041+9999MW1001REMSYN017333   10155 85616EQDQ01+000000PRSWM2
0060601010999991987010118304+35733-005900FM-15+0021GMTT V0203001N00151004801CN0080001N1+01201+01001999999ADDAG12999GA1051+004809059MA1102911999999EQDQ01+000000PRSWM2
0060601010999991987010119004+35733-005900FM-15+0021GMTT V0203201N00311004801CN0080001N1+01201+01001999999ADDAG12999GA1051+004809059MA1102911999999EQDQ01+000000PRSWM2
0060601010999991987010119304+35733-005900FM-15+0021GMTT V0203001N00101004801CN0080001N1+01201+01001999999ADDAG12999GA1051+004809059MA1102911999999EQDQ01+000000PRSWM2
0060601010999991987010120004+35733-005900FM-15+0021GMTT V0203001N00101004801CN0080001N1+01201+01001999999ADDAG12999GA1051+004809059MA1102911999999EQDQ01+000000PRSWM2
0076601010999991987010120304+35733-005900FM-15+0021GMTT V0203001N00101004801CN0080001N1+01201+01001999999ADDAG12000GA1031+001809079GA2051+004809059MA1102911999999EQDQ01+000000PRSWM2
0169601010999991987010121004+35733-005900SY-MT+0021GMTT V0209991C00001004801CN0080001N1+01251+00961102941ADDAA106000091AG14000GA1031+003009079GA2051+004809059GF107991071051004501999999MA1102911999999MD1310041+9999MW1001REMSYN017333   83710 85616MET004NSG?EQDQ01+000000PRSWM2
0089601010999991987010122004+35733-005900FM-15+0021GMTT V0209991C00001004801CN0080001N1+01301+00901999999ADDAG12999GA1031+003009079GA2051+004809059MA1102911999999REMMET004NSG?EQDQ01+000000PRSWM2
0089601010999991987010123004+35733-005900FM-15+0021GMTT V0209991C00001004801CN0080001N1+01301+01001999999ADDAG12999GA1021+003009079GA2041+004809059MA1102911999999REMMET004NSG?EQDQ01+000000PRSWM2
0169601010999991987010200004+35733-005900SY-MT+0021GMTT V0209991C00001004801CN0080001N1+01231+00941102911ADDAA106000091AG10000GA1031+003009079GA2051+004809059GF107991071051004501999999MA1102911999999MD1810031+9999MW1001REMSYN017333   83710 85616MET004NSG?EQDQ01+000000PRSWM2
0089601010999991987010200304+35733-005900FM-15+0021GMTT V0209991C00001004801CN0080001N1+01201+00901999999ADDAG11999GA1031+003009079GA2051+004809059MA1102911999999REMMET004NSG?EQDQ01+000000PRSWM2
0089601010999991987010201004+35733-005900FM-15+0021GMTT V0209991C00001004801CN0080001N1+01201+00901999999ADDAG11999GA1031+003009079GA2051+004809059MA1102911999999REMMET004NSG?EQDQ01+000000PRSWM2
0109601010999991987010201304+35733-005900FM-15+0021GMTT V0209999999999004801CN0080001N1+01201+00901999999ADDAG11999GA1031+003009079GA2051+004809059MA1102911999999REMMET024NSG?          = 42  0000EQDQ01+000000PRSWM2
0089601010999991987010202004+35733-005900FM-15+0021GMTT V0209991C00001220001CN0080001N1+01101+00901999999ADDAG11999GA1011+003009079GA2041+004809059MA1102811999999REMMET004NSG?EQDQ01+000000PRSWM2
0089601010999991987010202304+35733-005900FM-15+0021GMTT V0209991C00001220001CN0080001N1+01101+00901999999ADDAG12000GA1011+003009079GA2041+004809059MA1102811999999REMMET004NSG?EQDQ01+000000PRSWM2
0097601010999991987010203004+35733-005900FM-12+0021GMTT V0209991C00001220001CN0080001N9+01051+00821102841ADDAA106000091AG14000GA1011+003009079GF103991031051004501001001MD1810071+9999REMSYN011333   81710
0061601010999991987010204004+35733-005900FM-15+0021GMTT V0209991C00001220001CN0080001N1+01101+99999999999ADDAG12999GA1011+003009079REMMET007081028?EQDQ01+000000PRSWM2
0053601010999991987010204304+35733-005900FM-15+0021GMTT V0209991C00001220001CN0080001N1+99999+99999999999ADDAG12999REMMET0151STAITLPIQPWIV?EQDQ01+000000PRSWM2
0057601010999991987010205004+35733-005900FM-15+0021GMTT V0209991C000019999999N0080001N1+00901+00701999999ADDAG12999MA1102711999999REMMET004NSG?EQDQ01+000000PRSWM2
0073601010999991987010205304+35733-005900FM-15+0021GMTT V0209991C00001220001CN0080001N1+00901+00701999999ADDAG12000GA1021+004809059MA1102711999999REMMET004NSG?EQDQ01+000000PRSWM2
0166601010999991987010206004+35733-005900SY-MT+0021GMTT V0209991C00001220001CN0080001N1+00821+00671102751ADDAA106000091AG14000GA1021+004809059GF102991021051004501001001KA1120N+00761MA1102711999999MD1810091+9999MW1001REMSYN017333   20076 82616MET004NSG?EQDQ01+000000PRSWM2
0073601010999991987010207004+35733-005900FM-15+0021GMTT V0202201N00411220001CN0080001N1+00901+00701999999ADDAG12001GA1021+004809059MA1102711999999REMMET004NSG?EQDQ01+000000PRSWM2
0073601010999991987010207304+35733-005900FM-15+0021GMTT V0202001N00411220001CN0080001N1+00901+00701999999ADDAG12999GA1021+004809059MA1102711999999REMMET004NSG?EQDQ01+000000PRSWM2
0073601010999991987010208004+35733-005900FM-15+0021GMTT V0209991C00001220001CN0080001N1+00901+00701999999ADDAG12999GA1041+004809059MA1102711999999REMMET004NSG?EQDQ01+000000PRSWM2
0073601010999991987010208304+35733-005900FM-15+0021GMTT V0202001N00211220001CN0080001N1+00901+00701999999ADDAG12000GA1041+004809059MA1102711999999REMMET004NSG?EQDQ01+000000PRSWM2
0147601010999991987010209004+35733-005900SY-MT+0021GMTT V0202001N00311004801CN0080001N1+01101+00771102751ADDAA106000091AG14000GA1061+004809059GF106991061051004501001021MA1102711999999MD1410001+9999MW1001REMSYN011333   86616MET004NSG?EQDQ01+000000PRSWM2
0073601010999991987010210004+35733-005900FM-15+0021GMTT V0202001N00511004801CN0112001N1+01301+00801999999ADDAG12999GA1061+004809059MA1102711999999REMMET004NSG?EQDQ01+000000PRSWM2
0073601010999991987010211004+35733-005900FM-15+0021GMTT V0202201N00721004801CN0112001N1+01501+00901999999ADDAG12999GA1061+004809059MA1102711999999REMMET004NSG?EQDQ01+000000PRSWM2
0073601010999991987010211304+35733-005900FM-15+0021GMTT V0202201N00721004801CN0112001N1+01501+00901999999ADDAG12000GA1061+004809059MA1102711999999REMMET004NSG?EQDQ01+000000PRSWM2
0169601010999991987010212004+35733-005900SY-MT+0021GMTT V0202201N00931004801CN0100001N1+01421+00911102761ADDAA106000091AG14000GA1021+003909089GA2061+004809059GF107991061081004501001021MA1102711999999MD1010011+9999MW1001REMSYN017333   82813 86616MET004NSG?EQDQ01+000000PRSWM2
0089601010999991987010213004+35733-005900FM-15+0021GMTT V0202401N00931004801CN0112001N1+01601+01001999999ADDAG12999GA1021+003909089GA2061+004809059MA1102611999999REMMET004NSG?EQDQ01+000000PRSWM2
0091601010999991987010214004+35733-005900FM-15+0021GMTT V0202401N00931004801CN0112001N1+01501+01101999999ADDAG12999GA1031+003909089GA2061+004809059MA1102611999999REMMET006NOSIG?EQDQ01+000000PRSWM2
0091601010999991987010214304+35733-005900FM-15+0021GMTT V0202401N00931004801CN0112001N1+01501+01101999999ADDAG12000GA1031+003909089GA2071+004809059MA1102611999999REMMET006NOSIG?EQDQ01+000000PRSWM2
0091601010999991987010215004+35733-005900FM-15+0021GMTT V0202401N00931004801CN0112001N1+01401+01101999999ADDAG12000GA1031+003909089GA2071+004809059MA1102511999999REMMET006NOSIG?EQDQ01+000000PRSWM2
0089601010999991987010216004+35733-005900FM-15+0021GMTT V0202801N00621004801CN0112001N1+01401+01101999999ADDAG12999GA1031+003909089GA2071+004809059MA1102511999999REMMET004NSG?EQDQ01+000000PRSWM2
0089601010999991987010216304+35733-005900FM-15+0021GMTT V0202801N00721004801CN0112001N1+01401+01101999999ADDAG12999GA1031+003909089GA2071+004809059MA1102511999999REMMET004NSG?EQDQ01+000000PRSWM2
0089601010999991987010217004+35733-005900FM-15+0021GMTT V0202801N00621004801CN0112001N1+01401+01201999999ADDAG12999GA1031+003909089GA2061+004809059MA1102401999999REMMET004NSG?EQDQ01+000000PRSWM2
0089601010999991987010217304+35733-005900FM-15+0021GMTT V0202801N00511004801CN0112001N1+01401+01201999999ADDAG12000GA1031+003909089GA2061+004809059MA1102401999999REMMET004NSG?EQDQ01+000000PRSWM2
0190601010999991987010218004+35733-005900SY-MT+0021GMTT V0202801N00621004801CN0100001N1+01251+00961102471ADDAA106000091AG14000GA1021+003909089GA2041+004809059GF105991051081004501001001KA1120M+01581MA1102401999999MD1610051+9999MW1001REMSYN023333   10158 82813 84616MET006NOSIG?EQDQ01+000000PRSWM2
0091601010999991987010218304+35733-005900FM-15+0021GMTT V0202801N00511004801CN0112001N1+01301+01001999999ADDAG12999GA1021+003909089GA2041+004809059MA1102401999999REMMET006NOSIG?EQDQ01+000000PRSWM2
0091601010999991987010219004+35733-005900FM-15+0021GMTT V0202801N00411004801CN0112001N1+01201+01001999999ADDAG12999GA1021+003909089GA2041+004809059MA1102401999999REMMET006NOSIG?EQDQ01+000000PRSWM2
0091601010999991987010219304+35733-005900FM-15+0021GMTT V0202801N00411004801CN0112001N1+01201+01001999999ADDAG12999GA1021+003909089GA2041+004809059MA1102401999999REMMET006NOSIG?EQDQ01+000000PRSWM2
0091601010999991987010220004+35733-005900FM-15+0021GMTT V0202601N00211004801CN0112001N1+01201+01001999999ADDAG12999GA1021+003909089GA2041+004809059MA1102401999999REMMET006NOSIG?EQDQ01+000000PRSWM2
0119601010999991987010221004+35733-005900FM-12+0021GMTT V0202801N00101004801CN0100001N9+01041+00881102481ADDAA106000091AG14000GA1021+003909089GA2041+004809059GF106991061081004501001001MD1310011+9999REMSYN017333   82813 84616
0076601010999991987010222004+35733-005900FM-15+0021GMTT V0202001N00311004801CN0080001N1+01101+00901999999ADDAG12999GA1031+001809079GA2051+004809059MA1102401999999EQDQ01+000000PRSWM2
0091601010999991987010222304+35733-005900FM-15+0021GMTT V0202601N00211004801CN0112001N1+01201+01001999999ADDAG12999GA1021+003909089GA2041+004809059MA1102401999999REMMET006NOSIG?EQDQ01+000000PRSWM2
0076601010999991987010223004+35733-005900FM-15+0021GMTT V0202001N00311004801CN0080001N1+01101+00901999999ADDAG12999GA1031+001809079GA2051+004809059MA1101392999999EQDQ01+000000PRSWM2
0076601010999991987010223304+35733-005900FM-15+0021GMTT V0202001N00311004801CN0080001N1+01101+00901999999ADDAG12000GA1031+001809079GA2051+004809059MA1101391999999EQDQ01+000000PRSWM2
0159601010999991987010300004+35733-005900SY-MT+0021GMTT V0202201N00511004801CN0080001N1+01181+00971102441ADDAA106000091AG14000GA1031+001809079GA2051+004809059GF107991071051002501999999MA1102402999999MD1810041+9999MW1001REMSYN017333   83706 85616EQDQ01+000000PRSWM2
0076601010999991987010300304+35733-005900FM-15+0021GMTT V0202201N00511004801CN0080001N1+01201+01001999999ADDAG11999GA1031+001809079GA2051+004809059MA1102401999999EQDQ01+000000PRSWM2
0076601010999991987010301004+35733-005900FM-15+0021GMTT V0202201N00621004801CN0080001N1+01201+00901999999ADDAG11999GA1031+001809079GA2051+004809059MA1102401999999EQDQ01+000000PRSWM2
0076601010999991987010301304+35733-005900FM-15+0021GMTT V0202001N00411004801CN0080001N1+01201+00901999999ADDAG11999GA1031+001809079GA2051+004809059MA1102401999999EQDQ01+000000PRSWM2
0076601010999991987010302004+35733-005900FM-15+0021GMTT V0202201N00511004801CN0080001N1+01201+01001999999ADDAG11999GA1031+001809079GA2051+004809059MA1102401999999EQDQ01+000000PRSWM2
0076601010999991987010302304+35733-005900FM-15+0021GMTT V0202401N00311004801CN0080001N1+01201+01001999999ADDAG12000GA1031+001809079GA2051+004809059MA1102401999999EQDQ01+000000PRSWM2
0159601010999991987010303004+35733-005900SY-MT+0021GMTT V0202201N00311004801CN0060001N1+01231+00971102381ADDAA106000091AG14000GA1031+001809079GA2051+004809059GF107991071051002501999999MA1102301999999MD1710061+9999MW1001REMSYN017333   83706 85616EQDQ01+000000PRSWM2
0076601010999991987010303304+35733-005900FM-15+0021GMTT V0202201N00411004801CN0060001N1+01201+01001999999ADDAG12999GA1031+001809079GA2051+004809059MA1102301999999EQDQ01+000000PRSWM2
0076601010999991987010304004+35733-005900FM-15+0021GMTT V0202201N00411004801CN0060001N1+01201+01001999999ADDAG12999GA1031+001809079GA2051+004809059MA1102301999999EQDQ01+000000PRSWM2
0076601010999991987010304304+35733-005900FM-15+0021GMTT V0202201N00411004801CN0060001N1+01201+01001999999ADDAG12999GA1031+001809079GA2051+004809059MA1102301999999EQDQ01+000000PRSWM2
0076601010999991987010305004+35733-005900FM-15+0021GMTT V0202201N00411004801CN0060001N1+01201+01001999999ADDAG12999GA1031+001809079GA2051+004809059MA1102301999999EQDQ01+000000PRSWM2
0076601010999991987010305304+35733-005900FM-15+0021GMTT V0202001N00311004801CN0060001N1+01201+01001999999ADDAG12000GA1031+001809079GA2051+004809059MA1102301999999EQDQ01+000000PRSWM2
0172601010999991987010306004+35733-005900SY-MT+0021GMTT V0202001N00311003001CN0060001N1+01221+00971102271ADDAA106000091AG14000GA1031+001809079GA2051+003009059GF107991071051002501999999KA1120N+01021MA1102201999999MD1710111+9999MW1001REMSYN017333   20102 83706EQDQ01+000000PRSWM2
0076601010999991987010307004+35733-005900FM-15+0021GMTT V0202001N00411004801CN0060001N1+01201+01001999999ADDAG12999GA1031+001809079GA2051+004809059MA1102201999999EQDQ01+000000PRSWM2
0076601010999991987010307304+35733-005900FM-15+0021GMTT V0202001N00311004801CN0060001N1+01201+01001999999ADDAG12999GA1031+001809079GA2051+004809059MA1102201999999EQDQ01+000000PRSWM2
0091601010999991987010308004+35733-005900FM-15+0021GMTT V0202001N00411004801CN0070001N1+01201+01001999999ADDAG12999GA1031+001809079GA2061+004809059MA1102201999999REMMET006NOSIG?EQDQ01+000000PRSWM2
0091601010999991987010308304+35733-005900FM-15+0021GMTT V0202001N00311004801CN0070001N1+01201+00901999999ADDAG12000GA1021+001809079GA2061+004809059MA1102201999999REMMET006NOSIG?EQDQ01+000000PRSWM2
0171601010999991987010309004+35733-005900SY-MT+0021GMTT V0202001N00311004801CN0080001N1+01301+00931102341ADDAA106000091AG14000GA1021+002409079GA2071+004809059GF107991071051002501999999MA1102301999999MD1310071+9999MW1001REMSYN017333   82708 87616MET006NOSIG?EQDQ01+000000PRSWM2
0044601010999991987010310004+35733-005900FM-15+0021GMTT V0202001N004119999999N0112001N1+01401+01001999999ADDAG12999MA1102301999999EQDQ01+000000PRSWM2
0060601010999991987010310304+35733-005900FM-15+0021GMTT V0202001N00411004801CN0112001N1+01401+01001999999ADDAG12999GA1071+004809059MA1102301999999EQDQ01+000000PRSWM2
0076601010999991987010311004+35733-005900FM-15+0021GMTT V0202201N00411004801CN0112001N1+01601+01101999999ADDAG12999GA1021+004509089GA2061+004809059MA1102301999999EQDQ01+000000PRSWM2
0076601010999991987010311304+35733-005900FM-15+0021GMTT V0202201N00411004801CN0112001N1+01601+01101999999ADDAG12000GA1021+004509089GA2061+004809059MA1102301999999EQDQ01+000000PRSWM2
0171601010999991987010312004+35733-005900SY-MT+0021GMTT V0202201N00621004801CN0100001N1+01631+01071102321ADDAA106000091AG14000GA1021+004509089GA2061+004809059GF106991061081004501001001MA1102301999999MD1810021+9999MW1001REMSYN017333   82815 86616MET006NOSIG?EQDQ01+000000PRSWM2
0091601010999991987010312304+35733-005900FM-15+0021GMTT V0202401N00621004801CN0112001N1+01601+01101999999ADDAG12999GA1021+004509089GA2061+004809059MA1102301999999REMMET006NOSIG?EQDQ01+000000PRSWM2
0091601010999991987010313004+35733-005900FM-15+0021GMTT V0202401N00621004801CN0112001N1+01601+01101999999ADDAG12999GA1021+004509089GA2061+004809059MA1102201999999REMMET006NOSIG?EQDQ01+000000PRSWM2
0091601010999991987010313304+35733-005900FM-15+0021GMTT V0202401N00621004801CN0112001N1+01601+01101999999ADDAG12999GA1021+004509089GA2061+004809059MA1102201999999REMMET006NOSIG?EQDQ01+000000PRSWM2
0089601010999991987010314004+35733-005900FM-15+0021GMTT V0202401N00621004801CN0112001N1+01601+01101999999ADDAG12999GA1031+003909089GA2061+004809059MA1102101999999REMMET004NSG?EQDQ01+000000PRSWM2
0089601010999991987010315004+35733-005900FM-15+0021GMTT V0202401N00511004801CN0112001N1+01601+01101999999ADDAG12000GA1031+003909089GA2031+004809059MA1102101999999REMMET004NSG?EQDQ01+000000PRSWM2
0089601010999991987010315304+35733-005900FM-15+0021GMTT V0202401N00511004801CN0112001N1+01601+01101999999ADDAG12999GA1031+003909089GA2031+004809059MA1102101999999REMMET004NSG?EQDQ01+000000PRSWM2
0089601010999991987010316004+35733-005900FM-15+0021GMTT V0203001N00621004501CN0112001N1+01601+01101999999ADDAG12999GA1021+002409079GA2031+004509089MA1102101999999REMMET004NSG?EQDQ01+000000PRSWM2
0089601010999991987010316304+35733-005900FM-15+0021GMTT V0203201N00671004801CN0080001N1+01601+01101999999ADDAG12999GA1031+002409079GA2061+004809059MA1102101999999REMMET004NSG?EQDQ01+000000PRSWM2
0089601010999991987010317004+35733-005900FM-15+0021GMTT V0203201N00671004801CN0080001N1+01401+01101999999ADDAG12999GA1031+002409079GA2051+004809059MA1102101999999REMMET004NSG?EQDQ01+000000PRSWM2
0138601010999991987010318004+35733-005900FM-12+0021GMTT V0203201N00411004801CN0080001N9+01321+01061102191ADDAA106000091AG14000GA1031+002409079GA2051+004809059GF106991061051004501001001KA1120M+01661MD1310041+9999REMSYN023333   10166 83708 85616
0089601010999991987010318304+35733-005900FM-15+0021GMTT V0203201N00411004801CN0080001N1+01301+01101999999ADDAG12999GA1031+002409079GA2051+004809059MA1102101999999REMMET004NSG?EQDQ01+000000PRSWM2
0089601010999991987010320004+35733-005900FM-15+0021GMTT V0209991C00001004801CN0080001N1+01301+01101999999ADDAG12999GA1031+002409079GA2051+004809059MA1102201999999REMMET004NSG?EQDQ01+000000PRSWM2
0089601010999991987010320304+35733-005900FM-15+0021GMTT V0209991C00001004801CN0080001N1+01301+01101999999ADDAG12000GA1031+002409079GA2051+004809059MA1102201999999REMMET004NSG?EQDQ01+000000PRSWM2
0169601010999991987010321004+35733-005900SY-MT+0021GMTT V0203001N00211004801CN0080001N1+01281+01131102261ADDAA106000091AG14000GA1031+002409079GA2071+004809059GF107991071051002501999999MA1102201999999MD1110071+9999MW1001REMSYN017333   83708 87616MET004NSG?EQDQ01+000000PRSWM2
0089601010999991987010322004+35733-005900FM-15+0021GMTT V0202801N00211004801CN0080001N1+01301+01101999999ADDAG12999GA1031+002409079GA2071+004809059MA1102201999999REMMET004NSG?EQDQ01+000000PRSWM2
0169601010999991987010400004+35733-005900SY-MT+0021GMTT V0202601N00211004801CN0080001N1+01111+00951102321ADDAA106000091AG10000GA1031+002409079GA2051+004809059GF106991061051002501001001MA1102301999999MD1310061+9999MW1001REMSYN017333   83708 85616MET004NSG?EQDQ01+000000PRSWM2
0089601010999991987010400304+35733-005900FM-15+0021GMTT V0202601N00211004801CN0080001N1+01101+01001999999ADDAG11999GA1031+002409079GA2051+004809059MA1102301999999REMMET004NSG?EQDQ01+000000PRSWM2
0089601010999991987010401004+35733-005900FM-15+0021GMTT V0202601N00211004801CN0080001N1+01001+00801999999ADDAG11999GA1031+002409079GA2051+004809059MA1102301999999REMMET004NSG?EQDQ01+000000PRSWM2
0089601010999991987010401304+35733-005900FM-15+0021GMTT V0201601N00261004801CN0080001N1+01001+00801999999ADDAG11999GA1031+002409079GA2051+004809059MA1102301999999REMMET004NSG?EQDQ01+000000PRSWM2
0091601010999991987010402004+35733-005900FM-15+0021GMTT V0202601N00211004801CN0080001N1+01001+00901999999ADDAG11999GA1031+002409079GA2061+004809059MA1102301999999REMMET006NOSIG?EQDQ01+000000PRSWM2
0091601010999991987010402304+35733-005900FM-15+0021GMTT V0202201N00261004801CN0080001N1+01001+00901999999ADDAG12000GA1031+002409079GA2061+004809059MA1102301999999REMMET006NOSIG?EQDQ01+000000PRSWM2
0171601010999991987010403004+35733-005900SY-MT+0021GMTT V0202001N00411004801CN0080001N1+00961+00841102281ADDAA106000091AG14000GA1031+002409079GA2061+004809059GF107991071051002501999999MA1102201999999MD1810061+9999MW1001REMSYN017333   83708 86616MET006NOSIG?EQDQ01+000000PRSWM2
0091601010999991987010403304+35733-005900FM-15+0021GMTT V0202001N00261004801CN0080001N1+01001+00801999999ADDAG12999GA1031+002409079GA2061+004809059MA1102201999999REMMET006NOSIG?EQDQ01+000000PRSWM2
0091601010999991987010404304+35733-005900FM-15+0021GMTT V0202001N00361004801CN0080001N1+00901+00701999999ADDAG12999GA1021+002409079GA2051+004809059MA1102201999999REMMET006NOSIG?EQDQ01+000000PRSWM2
0091601010999991987010405304+35733-005900FM-15+0021GMTT V0201601N00411220001CN0080001N1+01101+01001999999ADDAG12000GA1011+002409079GA2041+004809059MA1102201999999REMMET006NOSIG?EQDQ01+000000PRSWM2
0190601010999991987010406004+35733-005900SY-MT+0021GMTT V0201001N00311220001CN0080001N1+00941+00841102221ADDAA106000091AG14000GA1011+002409079GA2041+004809059GF104991041051002501001001KA1120N+00941MA1102201999999MD1610051+9999MW1001REMSYN023333   20094 81708 84616MET006NOSIG?EQDQ01+000000PRSWM2
0089601010999991987010407304+35733-005900FM-15+0021GMTT V0201201N00261220001CN0080001N1+00901+00801999999ADDAG12999GA1011+002409079GA2021+004809059MA1102201999999REMMET004NSG?EQDQ01+000000PRSWM2
0073601010999991987010408004+35733-005900FM-15+0021GMTT V0200801N00511220001CN0112001N1+00901+00701999999ADDAG12999GA1031+006909059MA1102301999999REMMET004NSG?EQDQ01+000000PRSWM2
0147601010999991987010409004+35733-005900SY-MT+0021GMTT V0201001N00411220001CN0100001N1+00951+00691102421ADDAA106000091AG14000GA1031+007809059GF103991031051008001001001MA1102401999999MD1310201+9999MW1001REMSYN011333   83626MET004NSG?EQDQ01+000000PRSWM2
0073601010999991987010410004+35733-005900FM-15+0021GMTT V0201201N00411220001CN0112001N1+01301+01001999999ADDAG12999GA1021+007809059MA1102511999999REMMET004NSG?EQDQ01+000000PRSWM2
0089601010999991987010410304+35733-005900FM-15+0021GMTT V0201201N00411006001CN0112001N1+01301+01001999999ADDAG12999GA1021+004509089GA2031+006009059MA1102511999999REMMET004NSG?EQDQ01+000000PRSWM2
0089601010999991987010411004+35733-005900FM-15+0021GMTT V0201201N00621004801CN0112001N1+01501+01001999999ADDAG12999GA1021+004509089GA2031+004809059MA1102511999999REMMET004NSG?EQDQ01+000000PRSWM2
0073601010999991987010411304+35733-005900FM-15+0021GMTT V0201201N00621220001CN0112001N1+01501+01001999999ADDAG12000GA1031+004509089MA1102511999999REMMET004NSG?EQDQ01+000000PRSWM2
0149601010999991987010412004+35733-005900SY-MT+0021GMTT V0201201N00671009001CN0150001N1+01651+01021102501ADDAA106000091AG14000GA1031+004509089GF105991051081004501001001MA1102511999999MD1010061+9999MW1001REMSYN011333   83815MET006NOSIG?EQDQ01+000000PRSWM2
0075601010999991987010412304+35733-005900FM-15+0021GMTT V0201201N00771220001CN0112001N1+01701+01101999999ADDAG12999GA1041+004509089MA1102511999999REMMET006NOSIG?EQDQ01+000000PRSWM2
0075601010999991987010413004+35733-005900FM-15+0021GMTT V0200601N00771220001CN0112001N1+01801+01001999999ADDAG12999GA1031+004509089MA1102401999999REMMET006NOSIG?EQDQ01+000000PRSWM2
0060601010999991987010414004+35733-005900FM-15+0021GMTT V0200801N01031220001CN0112001N1+01801+01001999999ADDAG12999GA1031+004509089MA1102401999999EQDQ01+000000PRSWM2
0097601010999991987010415004+35733-005900FM-12+0021GMTT V0201001N01231009001CN0060001N9+01681+00901102341ADDAA106000091AG14000GA1031+004509089GF105991051081004501001001MD1810161+9999REMSYN011333   83815
0061601010999991987010416004+35733-005900FM-15+0021GMTT V0200801N01341220001CN0112001N1+01601+99999999999ADDAG12999GA1021+004809059REMMET007081023?EQDQ01+000000PRSWM2
0061601010999991987010417004+35733-005900FM-15+0021GMTT V0200801N01341220001CN0112001N1+01501+99999999999ADDAG12999GA1021+004809059REMMET007081023?EQDQ01+000000PRSWM2
0156601010999991987010418004+35733-005900SY-MT+0021GMTT V0201001N01341220001CN0150001N1+01461+00731102401ADDAA106000091AG14000GA1021+004809059GF102991021051004501001001KA1120M+01841MA1102401999999MD1310061+9999MW1001REMSYN017333   10184 82616EQDQ01+000000PRSWM2
0073601010999991987010418304+35733-005900FM-15+0021GMTT V0200801N01291220001CN0112001N1+01501+00701999999ADDAG12999GA1021+004809059MA1102401999999REMMET004NSG?EQDQ01+000000PRSWM2
0073601010999991987010419004+35733-005900FM-15+0021GMTT V0200801N01291220001CN0112001N1+01301+00801999999ADDAG12999GA1021+004809059MA1102401999999REMMET004NSG?EQDQ01+000000PRSWM2
0073601010999991987010419304+35733-005900FM-15+0021GMTT V0200801N01241220001CN0112001N1+01301+00801999999ADDAG12999GA1021+004809059MA1102401999999REMMET004NSG?EQDQ01+000000PRSWM2
0073601010999991987010420004+35733-005900FM-15+0021GMTT V0200801N01131220001CN0112001N1+01201+00801999999ADDAG12999GA1021+004809059MA1102401999999REMMET004NSG?EQDQ01+000000PRSWM2
0075601010999991987010420304+35733-005900FM-15+0021GMTT V0201001N01031220001CN0112001N1+01201+00801999999ADDAG12000GA1021+004809059MA1102401999999REMMET006NOSIG?EQDQ01+000000PRSWM2
0122601010999991987010421004+35733-005900SY-MT+0021GMTT V0201001N00931220001CN0100001N1+01281+00891102501ADDAA106000091AG14000GF100991001001999999001001MA1102511999999MD1310101+9999MW1001REMMET012CAVOK NOSIG?EQDQ01+000000PRSWM2
0065601010999991987010421304+35733-005900FM-15+0021GMTT V0201001N00821999991CY0099001N1+01301+00901999999ADDAG12999MA1102511999999REMMET012CAVOK NOSIG?EQDQ01+000000PRSWM2
0065601010999991987010422004+35733-005900FM-15+0021GMTT V0201001N00821999991CY0099001N1+01301+00901999999ADDAG12999MA1102511999999REMMET012CAVOK NOSIG?EQDQ01+000000PRSWM2
0065601010999991987010422304+35733-005900FM-15+0021GMTT V0201001N00821999991CY0099001N1+01301+00901999999ADDAG12999MA1102511999999REMMET012CAVOK NOSIG?EQDQ01+000000PRSWM2
0122601010999991987010500004+35733-005900SY-MT+0021GMTT V0201001N01031220001CN0100001N1+01301+00911102621ADDAA106000091AG14000GF100991001001999999001001MA1102611999999MD1110121+9999MW1001REMMET012CAVOK NOSIG?EQDQ01+000000PRSWM2
0065601010999991987010501004+35733-005900FM-15+0021GMTT V0201001N01031999991CY0099001N1+01301+00901999999ADDAG11999MA1102611999999REMMET012CAVOK NOSIG?EQDQ01+000000PRSWM2
0065601010999991987010501304+35733-005900FM-15+0021GMTT V0201001N00931999991CY0099001N1+01301+00901999999ADDAG12999MA1102611999999REMMET012CAVOK NOSIG?EQDQ01+000000PRSWM2
0063601010999991987010502004+35733-005900FM-15+0021GMTT V0201001N01031999991CY0099001N1+01301+00901999999ADDAG11999MA1102511999999REMMET010CAVOK NSG?EQDQ01+000000PRSWM2
0063601010999991987010502304+35733-005900FM-15+0021GMTT V0201001N01031999991CY0099001N1+01301+00901999999ADDAG12000MA1102511999999REMMET010CAVOK NSG?EQDQ01+000000PRSWM2
0120601010999991987010503004+35733-005900SY-MT+0021GMTT V0201001N01031220001CN0100001N1+01261+00871102581ADDAA106000091AG14000GF100991001001999999001001MA1102511999999MD1610041+9999MW1001REMMET010CAVOK NSG?EQDQ01+000000PRSWM2
0063601010999991987010504004+35733-005900FM-15+0021GMTT V0201001N01031999991CY0099001N1+01301+00901999999ADDAG12999MA1102511999999REMMET010CAVOK NSG?EQDQ01+000000PRSWM2
0063601010999991987010504304+35733-005900FM-15+0021GMTT V0201001N01031999991CY0099001N1+01301+00901999999ADDAG12999MA1102511999999REMMET010CAVOK NSG?EQDQ01+000000PRSWM2
0152601010999991987010506004+35733-005900SY-MT+0021GMTT V0200801N00721220001CN0100001N1+01251+00861102551ADDAA106000091AG14000GF100991001001999999001001KA1120N+00701MA1102511999999MD1810031+9999MW1001REMSYN011333   20070MET012CAVOK NOSIG?EQDQ01+000000PRSWM2
0063601010999991987010507004+35733-005900FM-15+0021GMTT V0200801N00721999991CY0099001N1+01201+00901999999ADDAG12999MA1102511999999REMMET010CAVOK NSG?EQDQ01+000000PRSWM2
0063601010999991987010508004+35733-005900FM-15+0021GMTT V0201001N00931999991CY0099001N1+01201+01001999999ADDAG12999MA1102511999999REMMET010CAVOK NSG?EQDQ01+000000PRSWM2
0061601010999991987010509004+35733-005900FM-12+0021GMTT V0201001N01031220001CN0100001N9+02282+00891102601ADDAA106000091AG14000GF100991001001999999001001MD1310031+9999
0065601010999991987010510004+35733-005900FM-15+0021GMTT V0201001N01131999991CY0099001N1+01501+00901999999ADDAG12999MA1102611999999REMMET012CAVOK NOSIG?EQDQ01+000000PRSWM2
0058601010999991987010511004+35733-005900FM-15+0021GMTT V0201201N01391999991CY0099001N1+01601+00901999999ADDAG12999MA1102611999999REMMET005CAVOKEQDQ01+000000PRSWM2
0115601010999991987010512004+35733-005900SY-MT+0021GMTT V0201001N01391220001CN0100001N1+01681+00861102631ADDAA106000091AG14000GF100991001001999999001001MA1102611999999MD1010031+9999MW1001REMMET005CAVOKEQDQ01+000000PRSWM2
0058601010999991987010513004+35733-005900FM-15+0021GMTT V0201001N01341999991CY0099001N1+01701+00901999999ADDAG12999MA1102611999999REMMET005CAVOKEQDQ01+000000PRSWM2
0063601010999991987010514004+35733-005900FM-15+0021GMTT V0201001N01241999991CY0099001N1+01801+00801999999ADDAG12999MA1102511999999REMMET010CAVOK NSG?EQDQ01+000000PRSWM2
0061601010999991987010515004+35733-005900FM-12+0021GMTT V0201001N01231220001CN0150001N9+01771+00761102471ADDAA106000091AG14000GF100991001001999999001001MD1710161+9999
0063601010999991987010515304+35733-005900FM-15+0021GMTT V0201001N01131999991CY0099001N1+01801+00801999999ADDAG12999MA1102401999999REMMET010CAVOK NSG?EQDQ01+000000PRSWM2
0065601010999991987010517004+35733-005900FM-15+0021GMTT V0201001N01031999991CY0099001N1+01601+00801999999ADDAG12999MA1102511999999REMMET012CAVOK NOSIG?EQDQ01+000000PRSWM2
0116601010999991987010518004+35733-005900FM-12+0021GMTT V0201001N00721220001CN0150001N9+01341+00721102561ADDAA106000091AG14000GA1011+069009009GF101991001001999999001021KA1120M+01811MD1310091+9999REMSYN017333   10181 81073
0106601010999991987010521004+35733-005900SY-MT+0021GMTT V0201001N00771220001CN0150001N1+01181+00521102661ADDAA106000091AG14000GF100991001001999999001001MA1102611999999MW1001REMMET010CAVOK NSG?EQDQ01+000000PRSWM2
0063601010999991987010521304+35733-005900FM-15+0021GMTT V0201001N00771999991CY0099001N1+01201+00501999999ADDAG12999MA1102611999999REMMET010CAVOK NSG?EQDQ01+000000PRSWM2
0063601010999991987010522304+35733-005900FM-15+0021GMTT V0201001N00821999991CY0099001N1+01101+00601999999ADDAG12999MA1102611999999REMMET010CAVOK NSG?EQDQ01+000000PRSWM2
0063601010999991987010523004+35733-005900FM-15+0021GMTT V0201001N00771999991CY0099001N1+01101+00701999999ADDAG12999MA1102611999999REMMET010CAVOK NSG?EQDQ01+000000PRSWM2
0063601010999991987010523304+35733-005900FM-15+0021GMTT V0201001N00821999991CY0099001N1+01101+00701999999ADDAG11000MA1102611999999REMMET010CAVOK NSG?EQDQ01+000000PRSWM2
0061601010999991987010600004+35733-005900FM-12+0021GMTT V0200801N00821220001CN0150001N9+01051+00571102681ADDAA106000091AG14000GF100991001001999999001001MD1110021+9999
0063601010999991987010600304+35733-005900FM-15+0021GMTT V0201001N00671999991CY0099001N1+01101+00601999999ADDAG11999MA1102611999999REMMET010CAVOK NSG?EQDQ01+000000PRSWM2
0063601010999991987010601004+35733-005900FM-15+0021GMTT V0201001N00621999991CY0099001N1+01101+00601999999ADDAG11999MA1102611999999REMMET010CAVOK NSG?EQDQ01+000000PRSWM2
0063601010999991987010601304+35733-005900FM-15+0021GMTT V0201201N00621999991CY0099001N1+01101+00601999999ADDAG11999MA1102611999999REMMET010CAVOK NSG?EQDQ01+000000PRSWM2
0063601010999991987010602004+35733-005900FM-15+0021GMTT V0201201N00411999991CY0099001N1+01001+00601999999ADDAG11999MA1102611999999REMMET010CAVOK NSG?EQDQ01+000000PRSWM2
0063601010999991987010602304+35733-005900FM-15+0021GMTT V0201201N00411999991CY0099001N1+01001+00601999999ADDAG12000MA1102611999999REMMET010CAVOK NSG?EQDQ01+000000PRSWM2
0120601010999991987010603004+35733-005900SY-MT+0021GMTT V0202101N00311220001CN0100001N1+00921+00591102661ADDAA106000091AG14000GF100991001001999999001001MA1102611999999MD1610011+9999MW1001REMMET010CAVOK NSG?EQDQ01+000000PRSWM2
0058601010999991987010603304+35733-005900FM-15+0021GMTT V0201001N00311999991CY0099001N1+00901+00601999999ADDAG12999MA1102611999999REMMET005CAVOKEQDQ01+000000PRSWM2
0058601010999991987010604004+35733-005900FM-15+0021GMTT V0201001N00261999991CY0099001N1+00901+00601999999ADDAG12999MA1102611999999REMMET005CAVOKEQDQ01+000000PRSWM2
0058601010999991987010604304+35733-005900FM-15+0021GMTT V0201001N00261999991CY0099001N1+00901+00601999999ADDAG12999MA1102611999999REMMET005CAVOKEQDQ01+000000PRSWM2
0058601010999991987010605004+35733-005900FM-15+0021GMTT V0201001N00211999991CY0099001N1+00901+00601999999ADDAG12999MA1102611999999REMMET005CAVOKEQDQ01+000000PRSWM2
0058601010999991987010605304+35733-005900FM-15+0021GMTT V0201001N00211999991CY0099001N1+00901+00601999999ADDAG12000MA1102611999999REMMET005CAVOKEQDQ01+000000PRSWM2
0145601010999991987010606004+35733-005900SY-MT+0021GMTT V0201201N00151220001CN0100001N1+00651+00341102601ADDAA106000091AG14000GF100991001001999999001001KA1120N+00601MA1102611999999MD1710071+9999MW1001REMSYN011333   20060MET005CAVOKEQDQ01+000000PRSWM2
0058601010999991987010606304+35733-005900FM-15+0021GMTT V0201201N00151999991CY0099001N1+00701+00301999999ADDAG12999MA1102611999999REMMET005CAVOKEQDQ01+000000PRSWM2
0063601010999991987010607004+35733-005900FM-15+0021GMTT V0209991C00001999991CY0099001N1+00601+00301999999ADDAG12999MA1102611999999REMMET010CAVOK NSG?EQDQ01+000000PRSWM2
0063601010999991987010608004+35733-005900FM-15+0021GMTT V0201201N00151999991CY0099001N1+00601+00501999999ADDAG12001MA1102611999999REMMET010CAVOK NSG?EQDQ01+000000PRSWM2
0169601010999991987010609004+35733-005900SY-MT+0021GMTT V0201201N00211220001CN0100001N1+00841+00521102651ADDAA106000091AG14000GA1011+003909059GA2041+069009009GF104991011051004501001021MA1102611999999MD1210051+9999MW1001REMSYN017333   81613 84073MET004NSG?EQDQ01+000000PRSWM2
0089601010999991987010611004+35733-005900FM-15+0021GMTT V0209991C00001220001CN0112001N1+01101+00801999999ADDAG12999GA1011+004809059GA2041+069009009MA1102611999999REMMET004NSG?EQDQ01+000000PRSWM2
0171601010999991987010612004+35733-005900SY-MT+0021GMTT V0202401N00621069001CN0100001N1+01651+00501102641ADDAA106000091AG14000GA1011+004809089GA2051+069009009GF105991011051004501001021MA1102611999999MD1810031+9999MW1001REMSYN017333   81816 85073MET006NOSIG?EQDQ01+000000PRSWM2
0091601010999991987010613004+35733-005900FM-15+0021GMTT V0202401N00671220001CN0112001N1+01701+00501999999ADDAG12999GA1011+004809059GA2041+069009009MA1102511999999REMMET006NOSIG?EQDQ01+000000PRSWM2
0091601010999991987010614004+35733-005900FM-15+0021GMTT V0202401N00721220001CN0112001N1+01701+00601999999ADDAG12999GA1011+004809059GA2041+069009009MA1102511999999REMMET006NOSIG?EQDQ01+000000PRSWM2
0119601010999991987010615004+35733-005900FM-12+0021GMTT V0202401N00621220001CN0100001N9+01661+01011102441ADDAA106000091AG14000GA1011+005409059GA2031+069009009GF104991011051004501001021MD1610201+9999REMSYN017333   81618 83073
0091601010999991987010616004+35733-005900FM-15+0021GMTT V0202601N00261069001CN0112001N1+01601+01101999999ADDAG12999GA1031+004809059GA2031+069009009MA1102401999999REMMET006NOSIG?EQDQ01+000000PRSWM2
0091601010999991987010617004+35733-005900FM-15+0021GMTT V0202601N00821069001CN0112001N1+01701+01001999999ADDAG12999GA1031+004809059GA2031+069009009MA1102401999999REMMET006NOSIG?EQDQ01+000000PRSWM2
0091601010999991987010617304+35733-005900FM-15+0021GMTT V0202601N00771069001CN0112001N1+01601+01001999999ADDAG12000GA1031+004809059GA2031+069009009MA1102401999999REMMET006NOSIG?EQDQ01+000000PRSWM2
0190601010999991987010618004+35733-005900SY-MT+0021GMTT V0202601N00721069001CN0100001N1+01401+01021102471ADDAA106000091AG14000GA1031+004809059GA2031+069009009GF105991031051004501031021KA1120M+01741MA1102401999999MD1310031+9999MW1001REMSYN023333   10174 83616 83073MET006NOSIG?EQDQ01+000000PRSWM2
0091601010999991987010618304+35733-005900FM-15+0021GMTT V0202601N00621069001CN0112001N1+01401+01001999999ADDAG12999GA1031+003009059GA2031+069009009MA1102401999999REMMET006NOSIG?EQDQ01+000000PRSWM2
0091601010999991987010619004+35733-005900FM-15+0021GMTT V0202601N00511069001CN0112001N1+01201+01001999999ADDAG12999GA1031+004809059GA2031+069009009MA1102401999999REMMET006NOSIG?EQDQ01+000000PRSWM2
0091601010999991987010619304+35733-005900FM-15+0021GMTT V0202601N00311069001CN0112001N1+01201+01001999999ADDAG12999GA1031+004809059GA2031+069009009MA1102401999999REMMET006NOSIG?EQDQ01+000000PRSWM2
0076601010999991987010620004+35733-005900FM-15+0021GMTT V0202601N00151069001CN0112001N1+01201+01001999999ADDAG12999GA1031+004809059GA2031+069009009MA1102401999999EQDQ01+000000PRSWM2
0089601010999991987010620304+35733-005900FM-15+0021GMTT V0202601N00411069001CN0112001N1+01201+01001999999ADDAG12000GA1031+004809059GA2031+069009009MA1102401999999REMMET004NSG?EQDQ01+000000PRSWM2
0147601010999991987010621004+35733-005900SY-MT+0021GMTT V0202001N00211220001CN0100001N1+01201+01011102471ADDAA106000091AG14000GA1031+004809059GF104991031051004501001021MA1102401999999MD1410001+9999MW1001REMSYN011333   83616MET004NSG?EQDQ01+000000PRSWM2
0073601010999991987010621304+35733-005900FM-15+0021GMTT V0202001N00151220001CN0112001N1+01201+01001999999ADDAG12999GA1041+004809059MA1102401999999REMMET004NSG?EQDQ01+000000PRSWM2
0073601010999991987010622004+35733-005900FM-15+0021GMTT V0209991C00001220001CN0112001N1+01201+01001999999ADDAG12999GA1041+004809059MA1102401999999REMMET004NSG?EQDQ01+000000PRSWM2
0073601010999991987010622304+35733-005900FM-15+0021GMTT V0209991C00001220001CN0112001N1+01201+01001999999ADDAG12999GA1041+004809059MA1102401999999REMMET004NSG?EQDQ01+000000PRSWM2
0073601010999991987010623004+35733-005900FM-15+0021GMTT V0209991C00001220001CN0112001N1+01201+01001999999ADDAG12001GA1031+004809059MA1102401999999REMMET004NSG?EQDQ01+000000PRSWM2
0089601010999991987010623304+35733-005900FM-15+0021GMTT V0201801N00151220001CN0112001N1+01201+01001999999ADDAG12000GA1021+004809059GA2031+069009009MA1102401999999REMMET004NSG?EQDQ01+000000PRSWM2
0169601010999991987010700004+35733-005900SY-MT+0021GMTT V0201801N00101069001CN0100001N1+01121+00921102441ADDAA106000091AG14000GA1021+004809059GA2041+069009009GF105991021051004501031021MA1102401999999MD1810031+9999MW1001REMSYN017333   82616 84083MET004NSG?EQDQ01+000000PRSWM2
0089601010999991987010700304+35733-005900FM-15+0021GMTT V0201801N00101069001CN0112001N1+01101+00901999999ADDAG11999GA1021+004809059GA2041+069009009MA1102401999999REMMET004NSG?EQDQ01+000000PRSWM2
0089601010999991987010701004+35733-005900FM-15+0021GMTT V0209991C00001220001CN0112001N1+01101+00901999999ADDAG11999GA1021+004809059GA2031+069009009MA1102301999999REMMET004NSG?EQDQ01+000000PRSWM2
0089601010999991987010701304+35733-005900FM-15+0021GMTT V0209991C00001220001CN0112001N1+01101+00901999999ADDAG11999GA1021+004809059GA2031+069009009MA1102301999999REMMET004NSG?EQDQ01+000000PRSWM2
0073601010999991987010702304+35733-005900FM-15+0021GMTT V0209991C00001220001CN0112001N1+01001+00901999999ADDAG12000GA1021+004809059MA1102401999999REMMET004NSG?EQDQ01+000000PRSWM2
0147601010999991987010703004+35733-005900SY-MT+0021GMTT V0209991C00001220001CN0100001N1+01001+00881102381ADDAA106000091AG10000GA1021+004809059GF104991021051004501031021MA1102301999999MD1710061+9999MW1001REMSYN011333   82616MET004NSG?EQDQ01+000000PRSWM2
0073601010999991987010703304+35733-005900FM-15+0021GMTT V0209991C00001220001CN0112001N1+01001+00901999999ADDAG12999GA1021+004809059MA1102301999999REMMET004NSG?EQDQ01+000000PRSWM2
0089601010999991987010705004+35733-005900FM-15+0021GMTT V0209991C00001220001CN0112001N1+00901+00801999999ADDAG12999GA1021+004809059GA2031+069009009MA1102201999999REMMET004NSG?EQDQ01+000000PRSWM2
0089601010999991987010705304+35733-005900FM-15+0021GMTT V0209991C00001220001CN0112001N1+00901+00801999999ADDAG12000GA1021+004809059GA2031+069009009MA1102201999999REMMET004NSG?EQDQ01+000000PRSWM2
0188601010999991987010706004+35733-005900SY-MT+0021GMTT V0209991C00001220001CN0100001N1+00601+00491102281ADDAA106000091AG14000GA1011+004809059GA2031+069009009GF103991011051004501001021KA1120N+00551MA1102201999999MD1610101+9999MW1001REMSYN023333   20055 81616 83073MET004NSG?EQDQ01+000000PRSWM2
0091601010999991987010710304+35733-005900FM-15+0021GMTT V0209991C00001069001CN0112001N1+01001+00601999999ADDAG12999GA1011+004809059GA2061+069009009MA1102201999999REMMET006NOSIG?EQDQ01+000000PRSWM2
0089601010999991987010711004+35733-005900FM-15+0021GMTT V0209991C00001069001CN0112001N1+01401+00501999999ADDAG12999GA1011+004809059GA2061+069009009MA1102201999999REMMET004NSG?EQDQ01+000000PRSWM2
0171601010999991987010712004+35733-005900SY-MT+0021GMTT V0209991C00001069001CN0100001N1+01431+00401102301ADDAA106000091AG14000GA1011+004809059GA2071+069009009GF107991011051004501001021MA1102301999999MD1210031+9999MW1001REMSYN017333   81616 87073MET006NOSIG?EQDQ01+000000PRSWM2
0076601010999991987010713004+35733-005900FM-15+0021GMTT V0203001N00511069001CN0112001N1+01401+00401999999ADDAG12001GA1011+004809059GA2071+069009009MA1102201999999EQDQ01+000000PRSWM2
0105601010999991987010714004+35733-005900FM-15+0021GMTT V0203001N00511069001CN0112001N1+01701+00701999999ADDAG12999GA1011+004809059GA2041+030009039GA3051+069009009MA1102101999999REMMET004NSG?EQDQ01+000000PRSWM2
0159601010999991987010715004+35733-005900SY-MT+0021GMTT V0209991C00001030001CN0100001N1+01701+00821102041ADDAA106000091AG14000GA1031+004809059GA2061+030009039GF107991031051004501071999MA1102001999999MD1810261+9999MW1001REMSYN017333   83616 86460EQDQ01+000000PRSWM2
0076601010999991987010716004+35733-005900FM-15+0021GMTT V0209991C00001030001CN0112001N1+01701+00901999999ADDAG12999GA1031+004809059GA2061+030009039MA1102001999999EQDQ01+000000PRSWM2
0076601010999991987010717004+35733-005900FM-15+0021GMTT V0203401N00261004801CN0112001N1+01601+00901999999ADDAG12999GA1051+004809059GA2061+030009039MA1102001999999EQDQ01+000000PRSWM2
0091601010999991987010717304+35733-005900FM-15+0021GMTT V0203401N00151030001CN0112001N1+01601+00901999999ADDAG12000GA1041+004809059GA2051+030009039MA1102001999999REMMET006NOSIG?EQDQ01+000000PRSWM2
0212601010999991987010718004+35733-005900SY-MT+0021GMTT V0209991C00001030001CN0100001N1+01551+00931102101ADDAA106000091AG14000GA1031+006909059GA2041+030009039GA3061+069009009GF107991031051008001081021KA1120M+01761MA1102101999999MD1310061+9999MW1001REMSYN029333   10176 83623 84360 86070MET006NOSIG?EQDQ01+000000PRSWM2
0107601010999991987010718304+35733-005900FM-15+0021GMTT V0209991C00001030001CN0112001N1+01601+00901999999ADDAG12999GA1031+006909059GA2041+030009039GA3061+069009009MA1102101999999REMMET006NOSIG?EQDQ01+000000PRSWM2
0092601010999991987010719004+35733-005900FM-15+0021GMTT V0209991C00001030001CN0112001N1+01301+01001999999ADDAG12999GA1041+006909059GA2041+030009039GA3051+060009009MA1102101999999EQDQ01+000000PRSWM2
0092601010999991987010719304+35733-005900FM-15+0021GMTT V0209991C00001030001CN0112001N1+01301+01001999999ADDAG12999GA1041+006909059GA2041+030009039GA3051+060009009MA1102101999999EQDQ01+000000PRSWM2
0092601010999991987010720004+35733-005900FM-15+0021GMTT V0209991C00001030001CN0112001N1+01201+00901999999ADDAG12999GA1031+006909059GA2041+030009039GA3051+060009009MA1102101999999EQDQ01+000000PRSWM2
0092601010999991987010720304+35733-005900FM-15+0021GMTT V0209991C00001030001CN0112001N1+01201+00901999999ADDAG12000GA1031+004809059GA2041+030009039GA3051+060009009MA1102101999999EQDQ01+000000PRSWM2
0191601010999991987010721004+35733-005900SY-MT+0021GMTT V0209991C00001030001CN0100001N1+01211+00931102081ADDAA106000091AG14000GA1031+004809059GA2031+030009039GA3051+069009009GF107991031051004501071021MA1102001999999MD1710021+9999MW1001REMSYN023333   83616 83360 85073MET004NSG?EQDQ01+000000PRSWM2
0105601010999991987010721304+35733-005900FM-15+0021GMTT V0209991C00001030001CN0112001N1+01201+00901999999ADDAG12999GA1031+004809059GA2031+030009039GA3051+069009009MA1102001999999REMMET004NSG?EQDQ01+000000PRSWM2
0105601010999991987010723304+35733-005900FM-15+0021GMTT V0209991C00001030001CN0112001N1+01101+00601999999ADDAG12000GA1031+004809059GA2031+030009039GA3051+069009009MA1102101999999REMMET004NSG?EQDQ01+000000PRSWM2
0191601010999991987010800004+35733-005900SY-MT+0021GMTT V0209991C00001024001CN0100001N1+01031+00801102141ADDAA106000091AG14000GA1041+004809059GA2041+024009039GA3061+069009009GF108991041051004501081021MA1102101999999MD1210021+9999MW1001REMSYN023333   84616 84359 86070MET004NSG?EQDQ01+000000PRSWM2
0105601010999991987010801004+35733-005900FM-15+0021GMTT V0209991C00001027001CN0112001N1+01101+00801999999ADDAG11999GA1041+004809059GA2041+027009039GA3061+069009009MA1102101999999REMMET004NSG?EQDQ01+000000PRSWM2
0193601010999991987010803004+35733-005900SY-MT+0021GMTT V0209991C00001027001CN0100001N1+01021+00691102101ADDAA106000091AG10000GA1041+004809059GA2041+027009039GA3061+069009009GF108991041051008001081021MA1102101999999MD1610041+9999MW1001REMSYN023333   84616 84359 86070MET006NOSIG?EQDQ01+000000PRSWM2
0107601010999991987010804004+35733-005900FM-15+0021GMTT V0209991C00001027001CN0112001N1+01201+00601999999ADDAG11999GA1041+004809059GA2041+027009039GA3061+069009009MA1102001999999REMMET006NOSIG?EQDQ01+000000PRSWM2
0092601010999991987010804304+35733-005900FM-15+0021GMTT V0209991C00001027001CN0112001N1+01201+00601999999ADDAG12999GA1041+004809059GA2041+027009039GA3061+069009009MA1102001999999EQDQ01+000000PRSWM2
0107601010999991987010805004+35733-005900FM-15+0021GMTT V0202201N00511027001CN0112001N1+01201+00601999999ADDAG11999GA1041+004809059GA2041+027009039GA3061+069009009MA1102001999999REMMET006NOSIG?EQDQ01+000000PRSWM2
0107601010999991987010805304+35733-005900FM-15+0021GMTT V0202201N00511027001CN0112001N1+01201+00601999999ADDAG12000GA1041+004809059GA2041+027009039GA3061+060009009MA1102001999999REMMET006NOSIG?EQDQ01+000000PRSWM2
0094601010999991987010806004+35733-005900FM-12+0021GMTT V0202201N00411036001CN0100001N9+01161+00641102061ADDAA106000091AG14000GF108991041051008001081021KA1120N+01011MD1610041+9999REMSYN011333   20101
0177601010999991987010809004+35733-005900SY-MT+0021GMTT V0201801N00211004501CN0060001N1+01401+00281102181ADDAG12000AY121031AY221031GA1031+002409079GA2051+004509059GA3051+027009039GF108991061051002501071999MA1102101999999MD1310121+9999MW1601REMSYN023333   83708 85615 85459MET004NSG?
0092601010999991987010809304+35733-005900FM-15+0021GMTT V0201801N00211004501CN0060001N1+01401+00301999999ADDAG12999GA1031+002409079GA2051+004509059GA3051+027009039MA1102101999999MW1601REMMET004NSG?
0107601010999991987010810004+35733-005900FM-15+0021GMTT V0201801N00311004501CN0080001N1+01301+00601999999ADDAG12999GA1021+002409079GA2051+004509059GA3051+027009039MA1102201999999REMMET006NOSIG?EQDQ01+000000PRSWM2
0094601010999991987010811004+35733-005900FM-15+0021GMTT V0201801N00211004501CN0080001N1+01301+00601999999ADDAG12999GA1031+002409079GA2061+004509059GA3051+027009039MA1102201999999MW1601REMMET006NOSIG?
0187601010999991987010812004+35733-005900SY-MT+0021GMTT V0201801N00311004501CN0100001N1+01711+00611102221ADDAA106000591AG10001AY161061AY221061GA1061+004509089GA2051+027009039GF107991061021004501081999MA1102201999999MD1010041+9999MW1211REMSYN017333   86815 85359MET006NOSIG?EQDQ01+000000PRSWM2
0091601010999991987010812304+35733-005900FM-15+0021GMTT V0201801N00511004501CN0112001N1+01701+00601999999ADDAG12999GA1061+004509089GA2051+027009039MA1102201999999REMMET006NOSIG?EQDQ01+000000PRSWM2
0091601010999991987010813004+35733-005900FM-15+0021GMTT V0202001N00411004501CN0112001N1+01701+00601999999ADDAG12999GA1061+004509089GA2051+027009039MA1102201999999REMMET006NOSIG?EQDQ01+000000PRSWM2
0076601010999991987010814004+35733-005900FM-15+0021GMTT V0202601N00151004501CN0112001N1+01801+00801999999ADDAG12999GA1061+004509089GA2051+027009039MA1102101999999MW1211REMMET004NSG?
0157601010999991987010815004+35733-005900SY-MT+0021GMTT V0209991C00001004501CN0100001N1+01611+01021102101ADDAG12001AY161031AY221031GA1061+004509089GA2051+027009039GF107991061021004501081999MA1102101999999MD1610121+9999MW1211REMSYN017333   86815 85359MET006NOSIG?
0091601010999991987010816304+35733-005900FM-15+0021GMTT V0209991C00001004501CN0112001N1+01601+01201999999ADDAG12999GA1061+004509059GA2051+027009039MA1102001999999REMMET006NOSIG?EQDQ01+000000PRSWM2
0091601010999991987010817004+35733-005900FM-15+0021GMTT V0209991C00001004801CN0112001N1+01601+01101999999ADDAG12999GA1051+004809059GA2051+027009039MA1102001999999REMMET006NOSIG?EQDQ01+000000PRSWM2
0204601010999991987010818004+35733-005900SY-MT+0021GMTT V0209991C00001004801CN0100001N1+01451+01081102081ADDAA199001091AG10001AY161061AY221061GA1051+004809059GA2051+027009039GF107991051051004501081999KA1120M+01831MA1102001999999MD1510021+9999MW1021REMSYN023333   10183 85616 85359MET004NSG?EQDQ01+000000PRSWM2
0089601010999991987010818304+35733-005900FM-15+0021GMTT V0209991C00001004801CN0112001N1+01501+01101999999ADDAG12999GA1051+004809059GA2051+027009039MA1102001999999REMMET004NSG?EQDQ01+000000PRSWM2
0076601010999991987010819004+35733-005900FM-15+0021GMTT V0209991C00001004801CN0112001N1+01401+01101999999ADDAG12999GA1051+004809059GA2051+024009039MA1102001999999EQDQ01+000000PRSWM2
0076601010999991987010819304+35733-005900FM-15+0021GMTT V0209991C00001004801CN0112001N1+01401+01101999999ADDAG12999GA1051+004809059GA2051+024009039MA1102001999999EQDQ01+000000PRSWM2
0076601010999991987010820004+35733-005900FM-15+0021GMTT V0209991C00001004801CN0112001N1+01401+01101999999ADDAG12999GA1051+004809059GA2051+027009039MA1102001999999EQDQ01+000000PRSWM2
0076601010999991987010820304+35733-005900FM-15+0021GMTT V0209991C00001004801CN0112001N1+01401+01101999999ADDAG12000GA1051+004809059GA2051+027009039MA1102001999999EQDQ01+000000PRSWM2
0169601010999991987010821004+35733-005900SY-MT+0021GMTT V0209991C00001030001CN0090001N1+01161+00971102151ADDAA106000091AG14000GA1041+004809059GA2051+030009039GF107991041051004501081999MA1102101999999MD1210071+9999MW1001REMSYN017333   84616 85360MET004NSG?EQDQ01+000000PRSWM2
0089601010999991987010822004+35733-005900FM-15+0021GMTT V0209991C00001004801CN0080001N1+01201+01001999999ADDAG12999GA1051+004809059GA2051+030009039MA1102101999999REMMET004NSG?EQDQ01+000000PRSWM2
0089601010999991987010823004+35733-005900FM-15+0021GMTT V0201401N00211030001CN0080001N1+01201+00901999999ADDAG12999GA1031+004809059GA2051+030009039MA1102101999999REMMET004NSG?EQDQ01+000000PRSWM2
0089601010999991987010823304+35733-005900FM-15+0021GMTT V0201401N00211030001CN0080001N1+01201+00901999999ADDAG12000GA1031+004809059GA2051+030009039MA1102101999999REMMET004NSG?EQDQ01+000000PRSWM2
0169601010999991987010900004+35733-005900SY-MT+0021GMTT V0201401N00151030001CN0080001N1+01151+00851102141ADDAA106000091AG14000GA1041+006009059GA2061+030009039GF107991041051008001071999MA1102101999999MD1810011+9999MW1001REMSYN017333   84620 86460MET004NSG?EQDQ01+000000PRSWM2
0089601010999991987010900304+35733-005900FM-15+0021GMTT V0201401N00151030001CN0080001N1+01201+00901999999ADDAG11999GA1041+006009059GA2061+030009039MA1102101999999REMMET004NSG?EQDQ01+000000PRSWM2
0089601010999991987010901004+35733-005900FM-15+0021GMTT V0209991C00001004801CN0080001N1+01201+00901999999ADDAG11999GA1051+004809059GA2061+030009039MA1102101999999REMMET004NSG?EQDQ01+000000PRSWM2
0089601010999991987010901304+35733-005900FM-15+0021GMTT V0209991C00001004801CN0080001N1+01201+00901999999ADDAG11999GA1051+004809059GA2061+030009039MA1102101999999REMMET004NSG?EQDQ01+000000PRSWM2
0078601010999991987010902004+35733-005900FM-15+0021GMTT V0209991C00001004801CN0080001N1+01301+01101999999ADDAG11999GA1031+002409079GA2071+004809059MA1102101999999MW1211REMMET006NOSIG?
0143601010999991987010903004+35733-005900SY-MT+0021GMTT V0201801N00151004801CN0060001N1+01221+01031102141ADDAG12002AY161031AY221031GA1041+002409079GA2081+004809059GF108991081051002501999999MA1102101999999MW1581REMSYN017333   84708 88616MET006NOSIG?
0078601010999991987010903304+35733-005900FM-15+0021GMTT V0201801N00151004801CN0060001N1+01201+01001999999ADDAG12999GA1041+002409079GA2081+004809059MA1102101999999MW1581REMMET006NOSIG?
0078601010999991987010904004+35733-005900FM-15+0021GMTT V0201801N00151004801CN0060001N1+01201+01001999999ADDAG12999GA1041+002409079GA2081+004809059MA1102101999999MW1211REMMET006NOSIG?
0091601010999991987010904304+35733-005900FM-15+0021GMTT V0201801N00671004801CN0060001N1+01201+01001999999ADDAG12999GA1041+002409079GA2081+004809059MA1102101999999REMMET006NOSIG?EQDQ01+000000PRSWM2
0089601010999991987010905004+35733-005900FM-15+0021GMTT V0201801N00511004801CN0060001N1+01201+01101999999ADDAG12999GA1041+002409079GA2081+004809059MA1102001999999REMMET004NSG?EQDQ01+000000PRSWM2
0089601010999991987010905304+35733-005900FM-15+0021GMTT V0201801N00311004801CN0060001N1+01201+01101999999ADDAG12000GA1041+002409079GA2081+004809059MA1102001999999REMMET004NSG?EQDQ01+000000PRSWM2
0207601010999991987010906004+35733-005900SY-MT+0021GMTT V0201201N00151004801CN0060001N1+01221+01031102031ADDAA124003091AG10002AY161061AY261061GA1031+002409079GA2051+004809059GA3071+030009039GF108991051061002501071999KA1120N+01061MA1102001999999MD1610111+9999MW1581REMSYN029333   20106 83708 85616 87460MET004NSG?
0105601010999991987010907304+35733-005900FM-15+0021GMTT V0201201N00151004801CN0070001N1+01201+01001999999ADDAG12999GA1031+002409079GA2041+004809059GA3071+030009039MA1102001999999REMMET004NSG?EQDQ01+000000PRSWM2
0076601010999991987010908004+35733-005900FM-15+0021GMTT V0201001N00311004801CN0050001N1+01101+01101999999ADDAG12999GA1031+001809079GA2051+004809059MA1102001999999MW1611REMMET004NSG?
0060601010999991987010908304+35733-005900FM-15+0021GMTT V0201001N00151220001CN0070001N1+01101+01101999999ADDAG12003GA1031+004809079MA1102001999999MW1211REMMET004NSG?
0164601010999991987010909004+35733-005900SY-MT+0021GMTT V0201001N00211004801CN0070001N1+01161+01081102121ADDAG12001AY161031AY221031GA1031+001809079GA2041+004809059GF108991061051001501071999MA1102101999999MD1310091+9999MW1011REMSYN017333   83706 84616EQDQ01+000000PRSWM2
0076601010999991987010910004+35733-005900FM-15+0021GMTT V0201401N00151004801CN0080001N1+01401+01301999999ADDAG12999GA1021+001809079GA2041+004809059MA1102101999999EQDQ01+000000PRSWM2
0105601010999991987010911304+35733-005900FM-15+0021GMTT V0201801N00511069001CN0080001N1+01501+01301999999ADDAG12000GA1011+002409079GA2041+004809059GA3051+069009009MA1102101999999REMMET004NSG?EQDQ01+000000PRSWM2
0163601010999991987010912004+35733-005900FM-12+0021GMTT V0201801N00511069001CN0080001N9+01611+01351102081ADDAA106000391AG10001AY161061AY261061GA1021+002409079GA2041+004809059GA3061+069009009GF107991041051001501001021MD1110061+9999MW1011REMSYN023333   82708 84616 86073
0092601010999991987010913004+35733-005900FM-15+0021GMTT V0202201N00411069001CN0080001N1+01601+01401999999ADDAG12999GA1011+002409079GA2041+004809059GA3061+069009009MA1102001999999EQDQ01+000000PRSWM2
0105601010999991987010914004+35733-005900FM-15+0021GMTT V0202201N00621003901CN0080001N1+01601+01401999999ADDAG12999GA1031+002409079GA2031+003909089GA3061+004809059MA1101801999999REMMET004NSG?EQDQ01+000000PRSWM2
0169601010999991987010915004+35733-005900SY-MT+0021GMTT V0202201N00721004501CN0080001N1+01651+01321101791ADDAA106000091AG14000GA1021+002409079GA2061+004509089GF107991061021002501001021MA1101691999999MD1810281+9999MW1001REMSYN017333   82708 86185MET004NSG?EQDQ01+000000PRSWM2
0089601010999991987010915304+35733-005900FM-15+0021GMTT V0202201N00721004501CN0080001N1+01701+01301999999ADDAG12999GA1021+002409079GA2061+004509089MA1101691999999REMMET004NSG?EQDQ01+000000PRSWM2
0091601010999991987010916004+35733-005900FM-15+0021GMTT V0202201N00621004501CN0080001N1+01601+01301999999ADDAG12999GA1021+002409079GA2061+004509089MA1101691999999REMMET006NOSIG?EQDQ01+000000PRSWM2
0091601010999991987010916304+35733-005900FM-15+0021GMTT V0202201N00721004501CN0080001N1+01601+01301999999ADDAG12999GA1031+002409079GA2061+004509089MA1101691999999REMMET006NOSIG?EQDQ01+000000PRSWM2
0078601010999991987010917304+35733-005900FM-15+0021GMTT V0202001N00721004501CN0060001N1+01501+01301999999ADDAG12003GA1041+002409079GA2071+004509089MA1101591999999MW1601REMMET006NOSIG?
0076601010999991987010918004+35733-005900FM-15+0021GMTT V0202001N00721004501CN0060001N1+01501+01401999999ADDAG12003GA1041+002409079GA2071+004509089MA1101591999999MW1601REMMET004NSG?
0076601010999991987010919004+35733-005900FM-15+0021GMTT V0202401N00721003901CN0060001N1+01501+01301999999ADDAG12999GA1041+002409079GA2071+003909089MA1101491999999MW1601REMMET004NSG?
0076601010999991987010919304+35733-005900FM-15+0021GMTT V0202201N00671003901CN0060001N1+01501+01301999999ADDAG12999GA1041+002409079GA2071+003909089MA1101491999999MW1211REMMET004NSG?
0076601010999991987010920004+35733-005900FM-15+0021GMTT V0202201N00621003901CN0060001N1+01401+01301999999ADDAG12999GA1041+002409079GA2061+003909089MA1101491999999MW1211REMMET004NSG?
0089601010999991987010920304+35733-005900FM-15+0021GMTT V0202201N00721003901CN0060001N1+01401+01301999999ADDAG12000GA1031+002409079GA2051+003909089MA1101491999999REMMET004NSG?EQDQ01+000000PRSWM2
0145601010999991987010921004+35733-005900SY-MT+0021GMTT V0202001N00721004501CN0060001N1+01421+01341101441ADDAG12001AY161031AY261031GA1041+002409079GA2061+004509089GF108991081021001501999999MA1101391999999MD1710201+9999MW1601REMSYN017333   84708 86815
0063601010999991987010921304+35733-005900FM-15+0021GMTT V0202001N00721004501CN0060001N1+01401+01301999999ADDAG12999GA1041+002409079GA2061+004509089MA1101391999999MW1601
0063601010999991987010922004+35733-005900FM-15+0021GMTT V0202001N01241004501CN0060001N1+01401+01301999999ADDAG12999GA1041+002409079GA2061+004509089MA1101291999999MW1601
0063601010999991987010922304+35733-005900FM-15+0021GMTT V0202001N01241004501CN0060001N1+01401+01301999999ADDAG12999GA1041+002409079GA2061+004509089MA1101291999999MW1601
0063601010999991987010923004+35733-005900FM-15+0021GMTT V0202001N01031004501CN0060001N1+01401+01401999999ADDAG12999GA1041+002409079GA2061+004509089MA1101191999999MW1211
0063601010999991987010923304+35733-005900FM-15+0021GMTT V0202001N01031004501CN0060001N1+01401+01401999999ADDAG12003GA1041+002409079GA2061+004509089MA1101191999999MW1211
0165601010999991987011000004+35733-005900SY-MT+0021GMTT V0202001N01341002401CN0050001N1+01451+01361101071ADDAA106010091AG10003AY181061AY261061GA1051+002409079GA2021+003909099GA3061+004809089GF108991999999002501999999MA1101021999999MD1710271+9999MW1621EQDQ01+000000PRSWM2
0092601010999991987011000304+35733-005900FM-15+0021GMTT V0202001N01341002401CN0050001N1+01501+01401999999ADDAG11999GA1051+002409079GA2021+003909099GA3061+004809089MA1101021999999EQDQ01+000000PRSWM2
0087601010999991987011001004+35733-005900FM-15+0021GMTT V0202001N01341002401CN0060001N1+01501+01401999999ADDAG11999GA1051+002409079GA2021+003909099GA3061+004809089MA1100911999999MW1211OC101851
0087601010999991987011002004+35733-005900FM-15+0021GMTT V0202001N01341002401CN0060001N1+01501+01401999999ADDAG11999GA1051+002409079GA2021+003909099GA3061+004809089MA1100911999999MW1601OC101851
0087601010999991987011002304+35733-005900FM-15+0021GMTT V0202001N01961002401CN0060001N1+01501+01401999999ADDAG12003GA1051+002409079GA2021+003909099GA3061+004809089MA1100811999999MW1601OC102571
0175601010999991987011003004+35733-005900SY-MT+0021GMTT V0202001N01951003901CN0060001N1+01501+01431100801ADDAG12001AY161031AY221031GA1031+002409079GA2021+003909099GA3061+004809089GF108991999999002501999999MA1100811999999MD1710271+9999MW1601OC102571REMSYN023333   83708 82913 86816
0087601010999991987011003304+35733-005900FM-15+0021GMTT V0202001N01751003901CN0060001N1+01501+01401999999ADDAG12999GA1031+002409079GA2021+003909099GA3061+004809089MA1100811999999MW1211OC102271
0087601010999991987011004004+35733-005900FM-15+0021GMTT V0202001N01851004801CN0060001N1+01401+01301999999ADDAG12999GA1021+002409079GA2011+003909099GA3061+004809089MA1100911999999MW1211OC102371
0100601010999991987011004304+35733-005900FM-15+0021GMTT V0202001N01751004801CN0060001N1+01401+01301999999ADDAG12999GA1021+002409079GA2011+003909099GA3061+004809089MA1100911999999OC102271EQDQ01+000000PRSWM2
0084601010999991987011005004+35733-005900FM-15+0021GMTT V0202001N01751004801CN0060001N1+01401+01201999999ADDAG12999GA1021+002409079GA2061+004809089MA1101021999999OC102271EQDQ01+000000PRSWM2
0084601010999991987011005304+35733-005900FM-15+0021GMTT V0202001N01751004801CN0060001N1+01401+01201999999ADDAG12000GA1021+002409079GA2061+004809089MA1101021999999OC102271EQDQ01+000000PRSWM2
0180601010999991987011006004+35733-005900SY-MT+0021GMTT V0202801N01851220001CN0080001N1+01401+00801101071ADDAA124020091AG10001AY161061AY261061GA1041+004809089GF104991041021004501001001KA1120N+01381MA1101021999999MD1210071+9999MW1011OC102371REMSYN017333   20138 84816EQDQ01+000000PRSWM2
0068601010999991987011007004+35733-005900FM-15+0021GMTT V0202801N01751220001CN0080001N1+01401+00801999999ADDAG12999GA1041+004809089MA1101081999999OC102061EQDQ01+000000PRSWM2
0060601010999991987011007304+35733-005900FM-15+0021GMTT V0202801N01751220001CN0080001N1+01401+00801999999ADDAG12999GA1041+004809089MA1101081999999EQDQ01+000000PRSWM2
0081601010999991987011008004+35733-005900FM-15+0021GMTT V0202801N01541004801CN0080001N1+01401+00901999999ADDAG12999GA1061+004809089MA1101291999999OC102211REMMET004NSG?EQDQ01+000000PRSWM2
0075601010999991987011008304+35733-005900FM-15+0021GMTT V0202801N01441004801CN0080001N1+99999+99999999999ADDAG12000GA1061+004809089MA1101291999999REMMET006NOSIG?EQDQ01+000000PRSWM2
0155601010999991987011009004+35733-005900SY-MT+0021GMTT V0202801N00311004801CN0100001N1+01371+00821101401ADDAA106000091AG14000GA1061+004809089GF106991061021004501001001MA1101391999999MD1210331+9999MW1001OC101701REMSYN011333   86816MET004NSG?EQDQ01+000000PRSWM2
0073601010999991987011009304+35733-005900FM-15+0021GMTT V0202801N01241004801CN0112001N1+01401+00801999999ADDAG12999GA1061+004809089MA1101391999999REMMET004NSG?EQDQ01+000000PRSWM2
0075601010999991987011010004+35733-005900FM-15+0021GMTT V0202601N01241006001CN0112001N1+01401+00801999999ADDAG12999GA1061+006009089MA1101491999999REMMET006NOSIG?EQDQ01+000000PRSWM2
0091601010999991987011010304+35733-005900FM-15+0021GMTT V0202601N01241009001CN0112001N1+01401+00801999999ADDAG12999GA1021+006009089GA2041+009009089MA1101491999999REMMET006NOSIG?EQDQ01+000000PRSWM2
0091601010999991987011011004+35733-005900FM-15+0021GMTT V0202601N01241220001CN0112001N1+01501+00801999999ADDAG12999GA1011+006009089GA2041+009009089MA1101591999999REMMET006NOSIG?EQDQ01+000000PRSWM2
0089601010999991987011011304+35733-005900FM-15+0021GMTT V0202601N01241220001CN0112001N1+01501+00801999999ADDAG12000GA1011+006009089GA2041+009009089MA1101591999999REMMET004NSG?EQDQ01+000000PRSWM2
0191601010999991987011012004+35733-005900SY-MT+0021GMTT V0202601N01231069001CN0100001N1+01541+00761101601ADDAA106000091AG14000GA1011+006009089GA2031+009009089GA3051+069009009GF106991041021008001001021MA1101591999999MD1010201+9999MW1001REMSYN023333   81820 83830 85073MET004NSG?EQDQ01+000000PRSWM2
0089601010999991987011012304+35733-005900FM-15+0021GMTT V0202801N01241069001CN0112001N1+01501+00801999999ADDAG12999GA1011+006009089GA2051+069009009MA1101491999999REMMET004NSG?EQDQ01+000000PRSWM2
0089601010999991987011013004+35733-005900FM-15+0021GMTT V0202801N01031069001CN0112001N1+01501+00701999999ADDAG12999GA1011+006009089GA2051+069009009MA1101491999999REMMET004NSG?EQDQ01+000000PRSWM2
0089601010999991987011013304+35733-005900FM-15+0021GMTT V0202601N00931069001CN0112001N1+01501+00701999999ADDAG12999GA1031+004809089GA2051+069009009MA1101491999999REMMET004NSG?EQDQ01+000000PRSWM2
0089601010999991987011014004+35733-005900FM-15+0021GMTT V0202801N00821069001CN0112001N1+01501+00701999999ADDAG12999GA1031+004809089GA2051+069009009MA1101491999999REMMET004NSG?EQDQ01+000000PRSWM2
0169601010999991987011015004+35733-005900SY-MT+0021GMTT V0202801N01031069001CN0150001N1+01481+00741101561ADDAA106000091AG14000GA1041+004809059GA2051+069009009GF106991051021004501001021MA1101491999999MD1610041+9999MW1001REMSYN017333   84616 85073MET004NSG?EQDQ01+000000PRSWM2
0089601010999991987011015304+35733-005900FM-15+0021GMTT V0202801N01031004801CN0112001N1+01501+00701999999ADDAG12999GA1051+004809999GA2051+069009009MA1101491999999REMMET004NSG?EQDQ01+000000PRSWM2
0076601010999991987011016004+35733-005900FM-15+0021GMTT V0202801N00931004501CN0112001N1+01501+00701999999ADDAG12999GA1061+004509089GA2031+069009009MA1101491999999EQDQ01+000000PRSWM2
0076601010999991987011016304+35733-005900FM-15+0021GMTT V0202801N00931004501CN0112001N1+01501+00701999999ADDAG12999GA1061+004509089GA2031+069009009MA1101491999999EQDQ01+000000PRSWM2
0060601010999991987011017004+35733-005900FM-15+0021GMTT V0202801N00931004501CN0112001N1+01401+00701999999ADDAG12999GA1061+004509089MA1101491999999EQDQ01+000000PRSWM2
0060601010999991987011017304+35733-005900FM-15+0021GMTT V0202801N00931004501CN0112001N1+01401+00701999999ADDAG12000GA1061+004509089MA1101491999999EQDQ01+000000PRSWM2
0156601010999991987011018004+35733-005900SY-MT+0021GMTT V0202801N01031004501CN0100001N1+01351+00741101581ADDAA106000091AG14000GA1061+004509089GF107991061021004501031021KA1120M+01541MA1101491999999MD1310021+9999MW1001REMSYN017333   10154 86815EQDQ01+000000PRSWM2
0060601010999991987011018304+35733-005900FM-15+0021GMTT V0202801N01031004501CN0112001N1+01401+00701999999ADDAG12999GA1061+004509089MA1101491999999EQDQ01+000000PRSWM2
0060601010999991987011019004+35733-005900FM-15+0021GMTT V0202801N00821004501CN0112001N1+01401+00701999999ADDAG12999GA1061+004509089MA1101591999999EQDQ01+000000PRSWM2
0060601010999991987011019304+35733-005900FM-15+0021GMTT V0202801N00821004501CN0112001N1+01401+00701999999ADDAG12999GA1061+004509089MA1101591999999EQDQ01+000000PRSWM2
0137601010999991987011020004+35733-005900SY-MT+0021GMTT V0202801N00931004501CN0100001N1+01301+00801101681ADDAA106000091AG14001GA1051+004509089GF106991051021004501031001MA1101591999999MD1210101+9999MW1001REMSYN011333   85815EQDQ01+000000PRSWM2
0073601010999991987011020304+35733-005900FM-15+0021GMTT V0202801N00931004501CN0112001N1+01301+00801999999ADDAG12000GA1061+004509089MA1101591999999REMMET004NSG?EQDQ01+000000PRSWM2
0147601010999991987011021004+35733-005900SY-MT+0021GMTT V0202801N00931004501CN0100001N1+01361+00751101681ADDAA106000091AG14000GA1051+004509089GF106991051021004501031001MA1101591999999MD1210101+9999MW1001REMSYN011333   85815MET004NSG?EQDQ01+000000PRSWM2
0073601010999991987011021304+35733-005900FM-15+0021GMTT V0202801N00881004501CN0112001N1+01401+00801999999ADDAG12999GA1051+004509089MA1101591999999REMMET004NSG?EQDQ01+000000PRSWM2
0073601010999991987011023004+35733-005900FM-15+0021GMTT V0202601N00821004501CN0112001N1+01401+00801999999ADDAG12999GA1061+004509089MA1101691999999REMMET004NSG?EQDQ01+000000PRSWM2
0169601010999991987011100004+35733-005900SY-MT+0021GMTT V0203201N00361006901CN0100001N1+01251+00901101681ADDAA106000091AG14000GA1021+004809089GA2051+006909059GF105991051081004501001001MA1101591999999MD1010001+9999MW1001REMSYN017333   82816 85623MET004NSG?EQDQ01+000000PRSWM2
0089601010999991987011100304+35733-005900FM-15+0021GMTT V0203201N00261006901CN0112001N1+01301+00901999999ADDAG11999GA1021+004809089GA2051+006909059MA1101591999999REMMET004NSG?EQDQ01+000000PRSWM2
0073601010999991987011101304+35733-005900FM-15+0021GMTT V0203201N00261006901CN0112001N1+01101+00801999999ADDAG12999GA1051+006909059MA1101591999999REMMET004NSG?EQDQ01+000000PRSWM2
0073601010999991987011102004+35733-005900FM-15+0021GMTT V0203201N00311006901CN0112001N1+01101+00801999999ADDAG12999GA1051+006909059MA1101591999999REMMET004NSG?EQDQ01+000000PRSWM2
0073601010999991987011102304+35733-005900FM-15+0021GMTT V0203201N00261006901CN0112001N1+01101+00801999999ADDAG12000GA1051+006909059MA1101591999999REMMET004NSG?EQDQ01+000000PRSWM2
0147601010999991987011103004+35733-005900SY-MT+0021GMTT V0203001N00511220001CN0100001N1+00941+00681101621ADDAA106000091AG14000GA1031+006909059GF104991031051008001031001MA1101591999999MD1610061+9999MW1001REMSYN011333   83623MET004NSG?EQDQ01+000000PRSWM2
0073601010999991987011103304+35733-005900FM-15+0021GMTT V0203201N00261220001CN0112001N1+00901+00701999999ADDAG12999GA1031+006909059MA1101591999999REMMET004NSG?EQDQ01+000000PRSWM2
0060601010999991987011104004+35733-005900FM-15+0021GMTT V0203001N00311220001CN0112001N1+00901+00701999999ADDAG12999GA1021+006909059MA1101591999999EQDQ01+000000PRSWM2
0060601010999991987011104304+35733-005900FM-15+0021GMTT V0203201N00261220001CN0112001N1+00901+00701999999ADDAG12999GA1021+006909059MA1101591999999EQDQ01+000000PRSWM2
0089601010999991987011105004+35733-005900FM-15+0021GMTT V0209991C00001006901CN0112001N1+00901+00701999999ADDAG12999GA1051+006909059GA2031+030009039MA1101591999999REMMET004NSG?EQDQ01+000000PRSWM2
0188601010999991987011106004+35733-005900SY-MT+0021GMTT V0209991C00001006901CN0100001N1+01001+00881101621ADDAA106000091AG14000GA1051+006909059GA2031+030009039GF107991051051008001031999KA1120N+00931MA1101591999999MD1010001+9999MW1001REMSYN023333   20093 85623 83360MET004NSG?EQDQ01+000000PRSWM2
0089601010999991987011107304+35733-005900FM-15+0021GMTT V0209991C00001007501CN0112001N1+01001+00901999999ADDAG12999GA1051+007509059GA2061+030009039MA1101591999999REMMET004NSG?EQDQ01+000000PRSWM2
0089601010999991987011108004+35733-005900FM-15+0021GMTT V0209991C00001004801CN0112001N1+01001+00801999999ADDAG12999GA1051+004809059GA2061+030009039MA1101591999999REMMET004NSG?EQDQ01+000000PRSWM2
0089601010999991987011108304+35733-005900FM-15+0021GMTT V0209991C00001007801CN0112001N1+01001+00801999999ADDAG12000GA1051+007809059GA2061+030009039MA1101591999999REMMET004NSG?EQDQ01+000000PRSWM2
0169601010999991987011109004+35733-005900SY-MT+0021GMTT V0209991C00001007801CN0100001N1+01091+00911101721ADDAA106000091AG14000GA1051+007809059GA2061+030009039GF108991051051008001081999MA1101691999999MD1310101+9999MW1001REMSYN017333   85626 86360MET004NSG?EQDQ01+000000PRSWM2
0089601010999991987011109304+35733-005900FM-15+0021GMTT V0209991C00001007801CN0112001N1+01101+00901999999ADDAG12999GA1051+007809059GA2061+030009039MA1101691999999REMMET004NSG?EQDQ01+000000PRSWM2
0091601010999991987011110004+35733-005900FM-15+0021GMTT V0203401N00211007801CN0112001N1+01201+00801999999ADDAG12999GA1051+007809059GA2061+030009039MA1101691999999REMMET006NOSIG?EQDQ01+000000PRSWM2
0091601010999991987011111004+35733-005900FM-15+0021GMTT V0203401N00211030001CN0112001N1+01301+00901999999ADDAG12999GA1041+007809059GA2041+030009039MA1101691999999REMMET006NOSIG?EQDQ01+000000PRSWM2
0091601010999991987011111304+35733-005900FM-15+0021GMTT V0203401N00211030001CN0112001N1+01301+00901999999ADDAG12000GA1041+007809059GA2041+030009039MA1101691999999REMMET006NOSIG?EQDQ01+000000PRSWM2
0171601010999991987011112004+35733-005900SY-MT+0021GMTT V0203201N00311220001CN0100001N1+01411+00811101761ADDAA106000091AG14000GA1021+007809059GA2031+030009039GF104991021051008001031001MA1101691999999MD1110041+9999MW1001REMSYN017333   82626 83360MET006NOSIG?EQDQ01+000000PRSWM2
0075601010999991987011113004+35733-005900FM-15+0021GMTT V0203201N00311220001CN0112001N1+01501+00901999999ADDAG12999GA1021+006909059MA1101691999999REMMET006NOSIG?EQDQ01+000000PRSWM2
0075601010999991987011113304+35733-005900FM-15+0021GMTT V0203201N00311220001CN0112001N1+01501+00901999999ADDAG12999GA1021+006909059MA1101691999999REMMET006NOSIG?EQDQ01+000000PRSWM2
0060601010999991987011114004+35733-005900FM-15+0021GMTT V0203201N00211220001CN0112001N1+01501+00901999999ADDAG12999GA1021+006909059MA1101591999999EQDQ01+000000PRSWM2
0060601010999991987011114304+35733-005900FM-15+0021GMTT V0203201N00211220001CN0112001N1+01501+00901999999ADDAG12000GA1021+006909059MA1101591999999EQDQ01+000000PRSWM2
0137601010999991987011115004+35733-005900SY-MT+0021GMTT V0203201N00211220001CN0200001N1+01531+00961101631ADDAA106000091AG14000GA1021+006909059GF102991021051008001001001MA1101591999999MD1810131+9999MW1001REMSYN011333   82623EQDQ01+000000PRSWM2
0060601010999991987011115304+35733-005900FM-15+0021GMTT V0203201N00211220001CN0112001N1+01501+01001999999ADDAG12999GA1021+006909059MA1101591999999EQDQ01+000000PRSWM2
0060601010999991987011116004+35733-005900FM-15+0021GMTT V0209991C00001220001CN0112001N1+01501+00901999999ADDAG12999GA1021+006909059MA1101591999999EQDQ01+000000PRSWM2
0060601010999991987011116304+35733-005900FM-15+0021GMTT V0209991C00001220001CN0112001N1+01501+00901999999ADDAG12999GA1021+006909059MA1101591999999EQDQ01+000000PRSWM2
0060601010999991987011117004+35733-005900FM-15+0021GMTT V0209991C00001220001CN0112001N1+01501+01001999999ADDAG12999GA1021+006909059MA1101591999999EQDQ01+000000PRSWM2
0060601010999991987011117304+35733-005900FM-15+0021GMTT V0209991C00001220001CN0112001N1+01501+01001999999ADDAG12000GA1021+006909059MA1101591999999EQDQ01+000000PRSWM2
0156601010999991987011118004+35733-005900SY-MT+0021GMTT V0209991C00001220001CN0200001N1+01271+00941101671ADDAA106000091AG14000GA1011+006909059GF102991011051008001001021KA1120M+01541MA1101591999999MD1310041+9999MW1001REMSYN017333   10154 81623EQDQ01+000000PRSWM2
0058601010999991987011119004+35733-005900FM-15+0021GMTT V0209991C00001999991CY0099001N1+01001+00901999999ADDAG12999MA1101591999999REMMET005CAVOKEQDQ01+000000PRSWM2
0058601010999991987011119304+35733-005900FM-15+0021GMTT V0209991C00001999991CY0099001N1+01001+00901999999ADDAG12999MA1101591999999REMMET005CAVOKEQDQ01+000000PRSWM2
0058601010999991987011120004+35733-005900FM-15+0021GMTT V0209991C00001999991CY0099001N1+01001+00801999999ADDAG12999MA1101591999999REMMET005CAVOKEQDQ01+000000PRSWM2
0058601010999991987011120304+35733-005900FM-15+0021GMTT V0209991C00001999991CY0099001N1+01001+00801999999ADDAG12000MA1101591999999REMMET005CAVOKEQDQ01+000000PRSWM2
0153601010999991987011121004+35733-005900SY-MT+0021GMTT V0201401N00311220001CN0150001N1+01051+00951101631ADDAA106000091AG14000GA1021+069009009GF102991001001999999001021MA1101591999999MD1810041+9999MW1001REMSYN011333   82073MET010CAVOK NSG?EQDQ01+000000PRSWM2
0063601010999991987011121304+35733-005900FM-15+0021GMTT V0209991C00001999991CY0099001N1+01101+01001999999ADDAG12999MA1101591999999REMMET010CAVOK NSG?EQDQ01+000000PRSWM2
0063601010999991987011122004+35733-005900FM-15+0021GMTT V0209991C00001999991CY0099001N1+01101+01001999999ADDAG12999MA1101591999999REMMET010CAVOK NSG?EQDQ01+000000PRSWM2
0063601010999991987011122304+35733-005900FM-15+0021GMTT V0209991C00001999991CY0099001N1+01101+01001999999ADDAG12999MA1101591999999REMMET010CAVOK NSG?EQDQ01+000000PRSWM2
0063601010999991987011123004+35733-005900FM-15+0021GMTT V0209991C00001999991CY0099001N1+01201+01001999999ADDAG12999MA1101591999999REMMET010CAVOK NSG?EQDQ01+000000PRSWM2
0063601010999991987011123304+35733-005900FM-15+0021GMTT V0209991C00001999991CY0099001N1+01201+01001999999ADDAG12000MA1101591999999REMMET010CAVOK NSG?EQDQ01+000000PRSWM2
0159601010999991987011200004+35733-005900SY-MT+0021GMTT V0209991C00001090001CN0100001N1+01201+00911101511ADDAA106000091AG14000GA1031+030009039GF105991031001999999031021MA1101491999999MD1810121+9999MW1001REMSYN017333   83360 83073MET010CAVOK NSG?EQDQ01+000000PRSWM2
0105601010999991987011201004+35733-005900FM-15+0021GMTT V0202201N00311069001CN0112001N1+01201+00801999999ADDAG11999GA1021+004809059GA2031+030009039GA3051+069009009MA1101391999999REMMET004NSG?EQDQ01+000000PRSWM2
0089601010999991987011201304+35733-005900FM-15+0021GMTT V0202201N00621030001CN0112001N1+01201+00801999999ADDAG11999GA1031+004809059GA2051+030009039MA1101391999999REMMET004NSG?EQDQ01+000000PRSWM2
0076601010999991987011202004+35733-005900FM-15+0021GMTT V0202201N00621030001CN0112001N1+01401+01001999999ADDAG11999GA1031+004809059GA2051+030009039MA1101291999999EQDQ01+000000PRSWM2
0076601010999991987011202304+35733-005900FM-15+0021GMTT V0202201N00621030001CN0112001N1+01401+01001999999ADDAG12000GA1031+004809059GA2051+030009039MA1101291999999EQDQ01+000000PRSWM2
0160601010999991987011203004+35733-005900FM-12+0021GMTT V0202001N00721004801CN0080001N9+01301+01191101311ADDAA106999999AG14000AY121031AY221031GA1051+004809059GA2051+030009039GF108991051051004501071999MD1610201+9999MW1211REMSYN017333   85616 85360EQDQ01  00002PRCP06
0063601010999991987011204004+35733-005900FM-15+0021GMTT V0202201N01031004801CN0080001N1+01401+01301999999ADDAG12999GA1051+004809059GA2061+030009039MA1101191999999MW1611
0063601010999991987011204304+35733-005900FM-15+0021GMTT V0202201N01031004801CN0080001N1+01401+01301999999ADDAG12999GA1051+004809059GA2061+030009039MA1101191999999MW1611
0063601010999991987011205004+35733-005900FM-15+0021GMTT V0202201N01031004801CN0080001N1+01401+01301999999ADDAG12999GA1051+004809059GA2061+030009039MA1101081999999MW1611
0063601010999991987011205304+35733-005900FM-15+0021GMTT V0202201N01031004801CN0080001N1+01401+01301999999ADDAG12009GA1051+004809059GA2061+030009039MA1101081999999MW1611
0177601010999991987011206004+35733-005900SY-MT+0021GMTT V0202001N01031004801CN0080001N1+01471+01401101081ADDAA124004091AG10000GA1051+004809059GF108991051061004501071999KA1120N+00881MD1810231+9999MW1601REMSYN023333   20088 85616 86360MET024SC016 6AC100 15/14 1010?EQDQ01+000003PRSWM1
0063601010999991987011207004+35733-005900FM-15+0021GMTT V0202001N00821004801CN0070001N1+01501+01401999999ADDAG12999GA1051+004809089GA2061+220009039MA1101021999999MW1211
0063601010999991987011207304+35733-005900FM-15+0021GMTT V0202001N00821004801CN0070001N1+01501+01401999999ADDAG12999GA1051+004809089GA2061+030009039MA1101021999999MW1211
0076601010999991987011208004+35733-005900FM-15+0021GMTT V0202201N01031004501CN0050001N1+01601+01601999999ADDAG12999GA1041+002409079GA2071+004509089MA1101021999999MW1601REMMET004NSG?
0155601010999991987011209004+35733-005900SY-MT+0021GMTT V0202201N01131002401CN0030001N1+01641+01611101071ADDAG12003AY161031AY221031GA1051+002409079GA2061+004509089GF108991081021001501999999MA1101021999999MD1810011+9999MW1611REMSYN017333   85708 86815MET004NSG?
0076601010999991987011210004+35733-005900FM-15+0021GMTT V0202201N01031001801CN0030001N1+01601+01601999999ADDAG12999GA1051+001809079GA2061+004509089MA1101081999999MW1611REMMET004NSG?
0076601010999991987011211004+35733-005900FM-15+0021GMTT V0202201N01131001801CN0060001N1+01601+01601999999ADDAG12999GA1051+001809079GA2061+004509089MA1101081999999MW1611REMMET004NSG?
0141601010999991987011212004+35733-005900FM-12+0021GMTT V0202201N01441001801CN0040001N9+01731+01601101031ADDAA106012091AG10001AY161061AY221061GA1051+001809079GA2061+004509089GF108991081021001501999999MD1810041+9999MW1601REMSYN017333   85706 86815
0063601010999991987011212304+35733-005900FM-15+0021GMTT V0202201N01441001801CN0040001N1+01701+01601999999ADDAG12999GA1051+001809079GA2061+004509089MA1101021999999MW1601
0078601010999991987011213004+35733-005900FM-15+0021GMTT V0202201N01441001801CN0040001N1+01701+01601999999ADDAG12999GA1051+001809079GA2061+004809089MA1100911999999MW1211REMMET006NOSIG?
0084601010999991987011214004+35733-005900FM-15+0021GMTT V0202201N01341001801CN0040001N1+01701+01501999999ADDAG12999GA1051+001809079GA2061+004509089MA1100811999999MW1211OC101801REMMET004NSG?
0182601010999991987011215004+35733-005900SY-MT+0021GMTT V0202201N01341001801CN0040001N1+01701+01511100831ADDAG12001AY161031AY221031GA1051+001809079GA2061+004509089GF108991081021001501999999MA1100811999999MD1710191+9999MW1021OC101801REMSYN017333   85706 86815MET004NSG?EQDQ01+000000PRSWM2
0084601010999991987011216004+35733-005900FM-15+0021GMTT V0202201N01441001801CN0040001N1+01701+01501999999ADDAG12999GA1051+001809079GA2061+004509089MA1100811999999OC102011EQDQ01+000000PRSWM2
0084601010999991987011217304+35733-005900FM-15+0021GMTT V0202201N01541001801CN0040001N1+01701+01501999999ADDAG12009GA1051+001809079GA2061+004509089MA1100811999999MW1611OC102211REMMET004NSG?
0160601010999991987011218004+35733-005900FM-12+0021GMTT V0202601N01031001801CN0020001N9+01451+01361100871ADDAA199015091AG10003AY161061AY221061GA1051+001809079GA2061+004509089GF108991081021001501999999KA1120M+01731MD1310031+9999MW1611REMSYN023333   10173 85706 86815
0084601010999991987011218304+35733-005900FM-15+0021GMTT V0202601N01541001501CN0030001N1+01501+01401999999ADDAG12999GA1051+001509079GA2061+004509089MA1100811999999MW1611OC102061REMMET004NSG?
0084601010999991987011219004+35733-005900FM-15+0021GMTT V0202801N01241001501CN0030001N1+01401+01301999999ADDAG12999GA1051+001509079GA2061+004509089MA1100811999999MW1611OC101751REMMET004NSG?
0076601010999991987011219304+35733-005900FM-15+0021GMTT V0202601N01031001501CN0030001N1+01401+01301999999ADDAG12999GA1051+001509079GA2061+004509089MA1100811999999MW1611REMMET004NSG?
0076601010999991987011220004+35733-005900FM-15+0021GMTT V0202601N01031001501CN0030001N1+01401+01301999999ADDAG12999GA1051+001509079GA2061+004509089MA1100911999999MW1611REMMET004NSG?
0063601010999991987011220304+35733-005900FM-15+0021GMTT V0202601N01031001501CN0030001N1+01401+01301999999ADDAG12009GA1051+001509079GA2061+004509089MA1100911999999MW1611
0183601010999991987011221004+35733-005900SY-MT+0021GMTT V0202401N01031001501CN0015001N1+01331+01161101021ADDAA106999999AG14003AY161031AY261031GA1051+001509079GA2071+004509089GF108991081021001501999999MA1101021999999MD1310151+9999MW1611OC101541REMSYN017333   85705 87815EQDQ01  00002PRCP06
0071601010999991987011221304+35733-005900FM-15+0021GMTT V0202401N00931001501CN0015001N1+01301+01201999999ADDAG12999GA1051+001509079GA2071+004509089MA1101021999999MW1611OC101441
0063601010999991987011222304+35733-005900FM-15+0021GMTT V0202201N00721001501CN0015001N1+01401+01301999999ADDAG12999GA1051+001509079GA2071+004809089MA1100911999999MW1611
0063601010999991987011223304+35733-005900FM-15+0021GMTT V0202201N01131001501CN0015001N1+01401+01301999999ADDAG12009GA1051+001509079GA2071+004509089MA1100911999999MW1611
0156601010999991987011300004+35733-005900SY-MT+0021GMTT V0202401N01031001501CN0015001N1+01351+01281100921ADDAA106013091AG10003AY161061AY261061GA1051+001509079GA2071+004509089GF108991081021001501999999MA1100911999999MD1710101+9999MW1611REMSYN017333   85705 87835
0063601010999991987011300304+35733-005900FM-15+0021GMTT V0202401N01031001501CN0015001N1+01401+01301999999ADDAG11999GA1051+001509079GA2071+004509089MA1100911999999MW1611
0063601010999991987011301004+35733-005900FM-15+0021GMTT V0202401N01031001501CN0020001N1+01301+01201999999ADDAG11999GA1051+001509079GA2071+004509089MA1100911999999MW1211
0076601010999991987011301304+35733-005900FM-15+0021GMTT V0202401N01131001501CN0020001N1+01301+01201999999ADDAG11999GA1051+001509079GA2071+004509089MA1100911999999EQDQ01+000000PRSWM2
0063601010999991987011302004+35733-005900FM-15+0021GMTT V0202401N00931001501CN0020001N1+01301+01301999999ADDAG11999GA1051+001509079GA2071+004509089MA1100811999999MW1611
0063601010999991987011302304+35733-005900FM-15+0021GMTT V0202401N00931001501CN0020001N1+01301+01301999999ADDAG12009GA1051+001509079GA2071+004509089MA1100811999999MW1611
0171601010999991987011303004+35733-005900SY-MT+0021GMTT V0209991C00001006001CN0100001N1+01401+01311100861ADDAA106000091AG14000GA1031+004809089GA2071+006009089GF108991071081008001071999MA1100811999999MD1710101+9999MW1001REMSYN029333   83816 85626 86360 95300EQDQ01+000000PRSWM2
0084601010999991987011304004+35733-005900FM-15+0021GMTT V0202401N01131004501CN0050001N1+01401+01201999999ADDAG12999GA1041+001509079GA2061+004509089MA1100811999999OC101751EQDQ01+000000PRSWM2
0076601010999991987011304304+35733-005900FM-15+0021GMTT V0202401N00721004501CN0050001N1+01401+01201999999ADDAG12999GA1041+001509079GA2061+004509089MA1100811999999EQDQ01+000000PRSWM2
0076601010999991987011305004+35733-005900FM-15+0021GMTT V0202401N00931004501CN0050001N1+01401+01301999999ADDAG12999GA1041+001509079GA2061+004509089MA1100711999999EQDQ01+000000PRSWM2
0076601010999991987011305304+35733-005900FM-15+0021GMTT V0202401N00931004501CN0050001N1+01401+01301999999ADDAG12000GA1041+001509079GA2061+004509089MA1100711999999EQDQ01+000000PRSWM2
0224601010999991987011306004+35733-005900SY-MT+0021GMTT V0202201N01031004501CN0050001N1+01381+01201100641ADDAA124034091AG10000AY121061AY261061GA1041+001509079GA2061+004509089GA3011+009009099GF107991071091001501999999KA1120N+01291MA1100611999999MD1810401+9999MW1131OC101651REMSYN029333   20129 84705 86815 81930EQDQ01+000000PRSWM2
0100601010999991987011306304+35733-005900FM-15+0021GMTT V0202201N01031004501CN0050001N1+01401+01201999999ADDAG12999GA1041+001509079GA2061+004509089GA3011+009009099MA1100611999999OC101651EQDQ01+000000PRSWM2
0100601010999991987011308004+35733-005900FM-15+0021GMTT V0201801N00931004501CN0050001N1+01401+01201999999ADDAG12999GA1031+001509079GA2051+004509089GA3021+009009099MA1100611999999OC101541EQDQ01+000000PRSWM2
0100601010999991987011308304+35733-005900FM-15+0021GMTT V0201801N00931004501CN0050001N1+01401+01201999999ADDAG12000GA1031+001509079GA2051+004509089GA3021+009009099MA1100611999999OC101541EQDQ01+000000PRSWM2
0167601010999991987011309004+35733-005900SY-MT+0021GMTT V0201801N00931004501CN0050001N1+01361+01181100591ADDAG12003AY181031AY221031GA1031+001509079GA2051+004509089GA3021+009009099GF107991071091001501999999MA1100511999999MD1610051+9999MW1801REMSYN023333   83705 85815 82930
0196601010999991987011312004+35733-005900SY-MT+0021GMTT V0202401N01541004501CN0040001N1+01471+01141100431ADDAA106014091AG10002AY191061AY281061GA1021+001509079GA2051+004509089GA3031+009009099GF108991081091001501999999MA1100411999999MD1810151+9999MW1171OC102061REMSYN023333   82705 85815 83930MET004NSG?
0100601010999991987011313004+35733-005900FM-15+0021GMTT V0202401N02061004501CN0060001N1+01501+01101999999ADDAG12999GA1021+001509079GA2061+004509089GA3021+009009099MA1100311999999MW1291OC102521REMMET004NSG?
0100601010999991987011314004+35733-005900FM-15+0021GMTT V0202401N01801004501CN0050001N1+01501+01201999999ADDAG12001GA1021+001509079GA2061+004509089GA3021+009009099MA1100201999999MW1171OC102321REMMET004NSG?
0177601010999991987011315004+35733-005900SY-MT+0021GMTT V0202201N01541004501CN0060001N1+01441+01101100101ADDAG12005AY191031AY281031GA1041+001509079GA2051+004509089GA3021+009009099GF108991081091001501999999MA1100101999999MD1710331+9999MW1951REMSYN023333   84705 85815 82930MET004NSG?
0100601010999991987011317004+35733-005900FM-15+0021GMTT V0202201N01751004501CN0050001N1+01301+01201999999ADDAG12999GA1031+001509079GA2051+004509089GA3031+009009099MA1099701999999MW1951OC102471REMMET004NSG?
0234601010999991987011318004+35733-005900SY-MT+0021GMTT V0202601N02061004501CN0070001N1+01531+01231099941ADDAA199022091AG10004AY191061AY281061GA1021+001509079GA2051+004509089GA3021+009009099GF107991071091001501999999KA1120M+01581MA1099901999999MD1510161+9999MW1291OC102571REMSYN029333   10158 82705 85815 82930MET004NSG?EQDQ01+000000PRSWM2
0100601010999991987011319304+35733-005900FM-15+0021GMTT V0202601N01801004501CN0050001N1+01501+01301999999ADDAG12999GA1031+001509079GA2051+004509089GA3021+009009099MA1100201999999MW1251OC102321REMMET004NSG?
0166601010999991987011321004+35733-005900SY-MT+0021GMTT V0202801N01801009001CN0100001N1+01501+01031100661ADDAG12000GA1041+004509089GA2021+009009099GF105991051091004501001001MA1100611999999MD1210721+9999MW1001OC102471REMSYN017333   84815 82930MET004NSG?EQDQ01+000000PRSWM2
0097601010999991987011321304+35733-005900FM-15+0021GMTT V0202601N01651009001CN0112001N1+01501+01001999999ADDAG12999GA1041+004509089GA2021+009009099MA1100611999999OC102321REMMET004NSG?EQDQ01+000000PRSWM2
0097601010999991987011322304+35733-005900FM-15+0021GMTT V0202801N01541004501CN0112001N1+01501+01101999999ADDAG12999GA1061+004509089GA2011+009009099MA1100711999999OC102061REMMET004NSG?EQDQ01+000000PRSWM2
0097601010999991987011323004+35733-005900FM-15+0021GMTT V0202801N01801004501CN0112001N1+01401+01001999999ADDAG12999GA1061+004509089GA2011+009009099MA1101021999999OC102321REMMET004NSG?EQDQ01+000000PRSWM2
0097601010999991987011323304+35733-005900FM-15+0021GMTT V0202801N01801004501CN0112001N1+01401+01001999999ADDAG12000GA1061+004509089GA2011+009009099MA1101021999999OC102471REMMET004NSG?EQDQ01+000000PRSWM2
0199601010999991987011400004+35733-005900SY-MT+0021GMTT V0203001N01951009001CN0080001N1+01361+00691101071ADDAA106002091AG10003AY181061AY221061GA1021+002409079GA2061+009009089GF107991999071002501999999MA1101021999999MD1110401+9999MW1801OC102571REMSYN023333   82708 86815 81930MET004NSG?EQDQ01+000000PRSWM2
0100601010999991987011401304+35733-005900FM-15+0021GMTT V0203001N01901004501CN0080001N1+01301+00701999999ADDAG11999GA1021+002409079GA2061+004509089GA3011+009009099MA1101081999999MW1251OC102571REMMET004NSG?
0100601010999991987011402004+35733-005900FM-15+0021GMTT V0203001N01961004501CN0080001N1+01201+00601999999ADDAG11999GA1021+002409079GA2061+004509089GA3011+009009099MA1101391999999OC102681EQDQ01+000000PRSWM2
0189601010999991987011403004+35733-005900SY-MT+0021GMTT V0203001N01951004501CN0080001N1+01121+00421101551ADDAA106000091AG14000GA1021+002409079GA2061+004509089GA3011+009009099GF107991071091002501999999MA1101491999999MD1110481+9999MW1001OC102681REMSYN023333   82708 86815 81930EQDQ01+000000PRSWM2
0100601010999991987011403304+35733-005900FM-15+0021GMTT V0203001N01961004501CN0080001N1+01201+00601999999ADDAG12001GA1021+002409079GA2061+004509089GA3011+009009099MA1101391999999OC102681EQDQ01+000000PRSWM2
0100601010999991987011404004+35733-005900FM-15+0021GMTT V0203201N01851004501CN0080001N1+01101+00401999999ADDAG12999GA1021+002409079GA2061+004509089GA3011+009009099MA1101021999999OC102471EQDQ01+000000PRSWM2
0100601010999991987011404304+35733-005900FM-15+0021GMTT V0203201N01851004501CN0080001N1+01101+00401999999ADDAG12999GA1021+002409079GA2061+004509089GA3011+009009099MA1101021999999OC102471EQDQ01+000000PRSWM2
0084601010999991987011405004+35733-005900FM-15+0021GMTT V0203201N01801004501CN0112001N1+00801-00402999999ADDAG12999GA1061+004509089GA2011+009009099MA1101802999999OC102571EQDQ01+000000PRSWM2
0186601010999991987011406004+35733-005900SY-MT+0021GMTT V0203201N01641004501CN0100001N1+00841-00261101881ADDAA124027091AG10000GA1061+004509089GA2011+009009099GF107991071091004501999999KA1120N+00821MA1101801999999MD1110451+9999MW1001OC102371REMSYN023333   20082 86815 81930EQDQ01+000000PRSWM2
0084601010999991987011406304+35733-005900FM-15+0021GMTT V0203201N01651004501CN0112001N1+00801-00301999999ADDAG12999GA1061+004509089GA2011+009009099MA1101801999999OC102371EQDQ01+000000PRSWM2
0089601010999991987011408004+35733-005900FM-15+0021GMTT V0203401N01031004501CN0112001N1+00801+00301999999ADDAG12999GA1061+004509089GA2011+009009099MA1101901999999REMMET004NSG?EQDQ01+000000PRSWM2
0089601010999991987011408304+35733-005900FM-15+0021GMTT V0203401N01031004501CN0112001N1+00801+00301999999ADDAG12000GA1061+004509089GA2011+009009099MA1101901999999REMMET004NSG?EQDQ01+000000PRSWM2
0181601010999991987011409004+35733-005900SY-MT+0021GMTT V0203601N00511027001CN0150001N1+00751-00201102061ADDAA106000091AG14000GA1041+004809089GA2021+009009099GA3071+027009039GF107991041091004501071999MA1102001999999MD1110181+9999MW1001REMSYN023333   84816 82930 87460EQDQ01+000000PRSWM2
0089601010999991987011410004+35733-005900FM-15+0021GMTT V0203201N00821030001CN0112001N1+00901-00201999999ADDAG12999GA1041+004809089GA2061+030009039MA1102101999999REMMET004NSG?EQDQ01+000000PRSWM2
0089601010999991987011410304+35733-005900FM-15+0021GMTT V0203401N00721030001CN0112001N1+00901-00201999999ADDAG12999GA1041+004809089GA2061+030009039MA1102101999999REMMET004NSG?EQDQ01+000000PRSWM2
0089601010999991987011411004+35733-005900FM-15+0021GMTT V0203201N00771220001CN0112001N1+01001-00101999999ADDAG12999GA1011+004809089GA2031+030009039MA1102201999999REMMET004NSG?EQDQ01+000000PRSWM2
0089601010999991987011411304+35733-005900FM-15+0021GMTT V0203201N00771220001CN0112001N1+01001-00101999999ADDAG12000GA1011+004809089GA2031+030009039MA1102201999999REMMET004NSG?EQDQ01+000000PRSWM2
0147601010999991987011412004+35733-005900SY-MT+0021GMTT V0203001N00931220001CN0150001N1+00991-00141102231ADDAA106000091AG14000GA1021+004809089GF103991021021004501031001MA1102201999999MD1010171+9999MW1001REMSYN011333   82816MET004NSG?EQDQ01+000000PRSWM2
0073601010999991987011413004+35733-005900FM-15+0021GMTT V0203201N00771220001CN0112001N1+01001+00001999999ADDAG12999GA1011+004809089MA1102201999999REMMET004NSG?EQDQ01+000000PRSWM2
0075601010999991987011413304+35733-005900FM-15+0021GMTT V0203201N00931220001CN0112001N1+01001+00001999999ADDAG12999GA1031+004809089MA1102201999999REMMET006NOSIG?EQDQ01+000000PRSWM2
0075601010999991987011414004+35733-005900FM-15+0021GMTT V0203201N00931220001CN0112001N1+01001-00101999999ADDAG12999GA1031+004809089MA1102101999999REMMET006NOSIG?EQDQ01+000000PRSWM2
0075601010999991987011414304+35733-005900FM-15+0021GMTT V0203201N00931220001CN0112001N1+01001-00101999999ADDAG12000GA1031+004809089MA1102101999999REMMET006NOSIG?EQDQ01+000000PRSWM2
0135601010999991987011415004+35733-005900SY-MT+0021GMTT V0203001N01031220001CN0200001N1+01001-00131102201ADDAA106000091AG14000GA1031+004809089GF103991031021004501001001MA1102201999999MW1001REMSYN011333   83816MET006NOSIG?EQDQ01+000000PRSWM2
0091601010999991987011416004+35733-005900FM-15+0021GMTT V0203001N01031004801CN0112001N1+00901-00301999999ADDAG12999GA1051+004809089GA2031+030009039MA1102101999999REMMET006NOSIG?EQDQ01+000000PRSWM2
0091601010999991987011416304+35733-005900FM-15+0021GMTT V0203001N00931004801CN0112001N1+00901-00301999999ADDAG12999GA1051+004809089GA2031+030009039MA1102101999999REMMET006NOSIG?EQDQ01+000000PRSWM2
0075601010999991987011417004+35733-005900FM-15+0021GMTT V0203001N00821004801CN0112001N1+00901-00201999999ADDAG12999GA1051+004809089MA1102101999999REMMET006NOSIG?EQDQ01+000000PRSWM2
0075601010999991987011417304+35733-005900FM-15+0021GMTT V0203001N00821004801CN0112001N1+00901-00201999999ADDAG12000GA1051+004809089MA1102101999999REMMET006NOSIG?EQDQ01+000000PRSWM2
0166601010999991987011418004+35733-005900SY-MT+0021GMTT V0203001N00821004801CN0150001N1+00841-00101102231ADDAA106000091AG14000GA1051+004809089GF107991061021004501081021KA1120M+01031MA1102201999999MD1310031+9999MW1001REMSYN017333   10103 85816MET004NSG?EQDQ01+000000PRSWM2
0073601010999991987011418304+35733-005900FM-15+0021GMTT V0203001N00821004801CN0112001N1+00801-00101999999ADDAG12999GA1051+004809089MA1102201999999REMMET004NSG?EQDQ01+000000PRSWM2
0073601010999991987011419004+35733-005900FM-15+0021GMTT V0203001N00821004801CN0112001N1+00801-00101999999ADDAG12999GA1051+004809089MA1102201999999REMMET004NSG?EQDQ01+000000PRSWM2
0073601010999991987011420004+35733-005900FM-15+0021GMTT V0203001N00621004801CN0112001N1+00801-00101999999ADDAG12999GA1051+004809089MA1102201999999REMMET004NSG?EQDQ01+000000PRSWM2
0083601010999991987011421004+35733-005900FM-12+0021GMTT V0202801N00411220001CN0100001N9+00721+00191102271ADDAA106000091AG14000GA1021+004809089GF103991021021008001031001REMSYN011333   82816
0060601010999991987011421304+35733-005900FM-15+0021GMTT V0202801N00411220001CN0112001N1+00701+00201999999ADDAG12999GA1021+004809089MA1102201999999EQDQ01+000000PRSWM2
0076601010999991987011422004+35733-005900FM-15+0021GMTT V0202601N00311009001CN0112001N1+00801+00601999999ADDAG12999GA1021+004809089GA2061+009009059MA1102301999999EQDQ01+000000PRSWM2
0076601010999991987011422304+35733-005900FM-15+0021GMTT V0202601N00311009001CN0112001N1+00801+00601999999ADDAG12999GA1021+004809089GA2061+009009059MA1102301999999EQDQ01+000000PRSWM2
0076601010999991987011423004+35733-005900FM-15+0021GMTT V0202201N00621007801CN0112001N1+00801+00301999999ADDAG12999GA1031+004809089GA2051+007809059MA1102201999999EQDQ01+000000PRSWM2
0076601010999991987011423304+35733-005900FM-15+0021GMTT V0202201N00621007801CN0112001N1+00801+00301999999ADDAG12000GA1031+004809089GA2051+007809059MA1102201999999EQDQ01+000000PRSWM2
0159601010999991987011500004+35733-005900SY-MT+0021GMTT V0202001N00621006901CN0100001N1+00791+00241102221ADDAA106000091AG14000GA1041+004809089GA2061+006909059GF107991071081008001999999MA1102201999999MD1810051+9999MW1001REMSYN017333   84816 86623EQDQ01+000000PRSWM2
0089601010999991987011501004+35733-005900FM-15+0021GMTT V0202001N00621006901CN0112001N1+00801+00301999999ADDAG11999GA1041+004809089GA2061+006909059MA1102201999999REMMET004NSG?EQDQ01+000000PRSWM2
0076601010999991987011501304+35733-005900FM-15+0021GMTT V0202001N00621006901CN0112001N1+00801+00301999999ADDAG11999GA1041+004809089GA2061+006909059MA1102201999999EQDQ01+000000PRSWM2
0076601010999991987011502004+35733-005900FM-15+0021GMTT V0202001N00311006001CN0112001N1+00801+00301999999ADDAG11999GA1041+004809089GA2061+006009059MA1102101999999MW1211REMMET004NSG?
0076601010999991987011502304+35733-005900FM-15+0021GMTT V0202001N00311006001CN0112001N1+00801+00301999999ADDAG12000GA1041+004809089GA2061+006009059MA1102101999999EQDQ01+000000PRSWM2
0119601010999991987011503004+35733-005900FM-12+0021GMTT V0202001N00261006001CN0100001N9+00821+00261102101ADDAA106000091AG14000GA1041+004809089GA2061+006009059GF107991071081008001999999MD1610121+9999REMSYN017333   84816 86620
0076601010999991987011503304+35733-005900FM-15+0021GMTT V0202001N00311006001CN0112001N1+00801+00301999999ADDAG12999GA1041+004809089GA2061+006009059MA1102101999999EQDQ01+000000PRSWM2
