0100601010999991989010100004+35733-005900SY-MT+0021GMTT V0200801N00721220001CN0100001N1+01241+00871102991ADDAA106000091AG14000GF100991001001999999001001MD1010081+9999REMMET011CAVOK 10)9?EQDQ01+000000PRSWM2
0058601010999991989010100304+35733-005900FM-15+0021GMTT V0200801N00621999991CY0099001N1+01201+00901999999ADDAG11999MA1102911999999REMMET005CAVOKEQDQ01+000000PRSWM2
0058601010999991989010101004+35733-005900FM-15+0021GMTT V0201001N00821999991CY0099001N1+01201+00701999999ADDAG11999MA1102911999999REMMET005CAVOKEQDQ01+000000PRSWM2
0061601010999991989010103004+35733-005900FM-12+0021GMTT V0201001N00821220001CN0100001N9+01121+00781102921ADDAA106000091AG14000GF100991001001999999001001MD1810071+9999
0094601010999991989010106004+35733-005900FM-12+0021GMTT V0201001N00621220001CN0100001N9+00921+00781102841ADDAA106000091AG14000GF100991001001999999001001KA1120N+00901MD1710081+9999REMSYN011333   20090
0061601010999991989010109004+35733-005900FM-12+0021GMTT V0201001N00311220001CN0100001N9+01071+00871102911ADDAA106000091AG14000GF100991001001999999001001MD1310071+9999
0058601010999991989010110004+35733-005900FM-15+0021GMTT V0209999999999999991CY0099001N1+01701+00801999999ADDAG12999MA1103011999999REMMET005CAVOKEQDQ01+000000PRSWM2
0061601010999991989010112004+35733-005900FM-12+0021GMTT V0201001N00411220001CN0100001N9+01721+00841103001ADDAA106000091AG14000GF100991001001999999001001MD1210091+9999
0058601010999991989010113004+35733-005900FM-15+0021GMTT V0201001N00411999991CY0099001N1+01801+00801999999ADDAG12999MA1103011999999REMMET005CAVOKEQDQ01+000000PRSWM2
0063601010999991989010114004+35733-005900FM-15+0021GMTT V0202601N00311999991CY0099001N1+01801+00801999999ADDAG12999MA1102811999999REMMET010CAVOK NSG?EQDQ01+000000PRSWM2
0124601010999991989010115004+35733-005900SY-MT+0021GMTT V0202601N00261220001CN0150001N1+01701+00971102841ADDAA106000091AG14000GA1011+004809059GF101991999999004501999999MA1102811999999MD1610161+9999REMMET004NSG?EQDQ01+000000PRSWM2
0073601010999991989010116004+35733-005900FM-15+0021GMTT V0202601N00151220001CN0112001N1+01701+01001999999ADDAG12999GA1011+004809059MA1102811999999REMMET004NSG?EQDQ01+000000PRSWM2
0073601010999991989010116304+35733-005900FM-15+0021GMTT V0200801N00511220001CN0112001N1+01701+01001999999ADDAG12999GA1011+004809059MA1102811999999REMMET004NSG?EQDQ01+000000PRSWM2
0073601010999991989010117004+35733-005900FM-15+0021GMTT V0200801N00361220001CN0112001N1+01601+01001999999ADDAG12999GA1011+004809059MA1102811999999REMMET004NSG?EQDQ01+000000PRSWM2
0200601010999991989010118004+35733-005900SY-MT+0021GMTT V0201001N00461220001CN0150001N1+01211+01071102831ADDAA106000091AG14000GA1011+004809059GF101991011051004501001001KA1120M+01881KA2999N+99999MD1510011+9999REMSYN017333   10188 81616MET03020107 40283 55000 QTA QTA QTA?EQDQ01+000000PRSWM2Q02 -04602ATMN  
0073601010999991989010118304+35733-005900FM-15+0021GMTT V0201001N00361220001CN0112001N1+01201+01101999999ADDAG12999GA1011+004809059MA1102811999999REMMET004NSG?EQDQ01+000000PRSWM2
0073601010999991989010119304+35733-005900FM-15+0021GMTT V0201001N00311220001CN0112001N1+01101+01001999999ADDAG12999GA1011+004809059MA1102811999999REMMET004NSG?EQDQ01+000000PRSWM2
0073601010999991989010120004+35733-005900FM-15+0021GMTT V0201001N00311220001CN0112001N1+01001+00901999999ADDAG12999GA1011+004809059MA1102911999999REMMET004NSG?EQDQ01+000000PRSWM2
0073601010999991989010120304+35733-005900FM-15+0021GMTT V0201001N00311220001CN0112001N1+01001+00901999999ADDAG12000GA1011+004809059MA1102911999999REMMET004NSG?EQDQ01+000000PRSWM2
0109601010999991989010121004+35733-005900SY-MT+0021GMTT V0201001N00311220001CN0150001N1+00731+00601102871ADDAA106000091AG14000GF100991001001999999001001MA1102811999999MD1110031+9999REMMET005CAVOKEQDQ01+000000PRSWM2
0058601010999991989010121304+35733-005900FM-15+0021GMTT V0201001N00311999991CY0099001N1+00701+00601999999ADDAG12999MA1102811999999REMMET005CAVOKEQDQ01+000000PRSWM2
0058601010999991989010122004+35733-005900FM-15+0021GMTT V0209991C00001999991CY0099001N1+00701+00601999999ADDAG12999MA1102811999999REMMET005CAVOKEQDQ01+000000PRSWM2
0058601010999991989010122304+35733-005900FM-15+0021GMTT V0209991C00001999991CY0099001N1+00701+00601999999ADDAG12999MA1102811999999REMMET005CAVOKEQDQ01+000000PRSWM2
0058601010999991989010123004+35733-005900FM-15+0021GMTT V0209991C00001999991CY0099001N1+00801+00701999999ADDAG12999MA1102811999999REMMET005CAVOKEQDQ01+000000PRSWM2
0058601010999991989010123304+35733-005900FM-15+0021GMTT V0209991C00001999991CY0099001N1+00801+00701999999ADDAG12000MA1102811999999REMMET005CAVOKEQDQ01+000000PRSWM2
0115601010999991989010200004+35733-005900SY-MT+0021GMTT V0201001N00311220001CN0150001N1+00621+00481102871ADDAA106000091AG14000GF100991001001999999001001MA1102811999999MD1410001+9999MW1001REMMET005CAVOKEQDQ01+000000PRSWM2
0058601010999991989010201004+35733-005900FM-15+0021GMTT V0201001N00311999991CY0099001N1+00601+00501999999ADDAG11999MA1102811999999REMMET005CAVOKEQDQ01+000000PRSWM2
0058601010999991989010202004+35733-005900FM-15+0021GMTT V0201001N00411999991CY0099001N1+00601+00501999999ADDAG11999MA1102811999999REMMET005CAVOKEQDQ01+000000PRSWM2
0058601010999991989010202304+35733-005900FM-15+0021GMTT V0201001N00411999991CY0099001N1+00601+00501999999ADDAG12000MA1102811999999REMMET005CAVOKEQDQ01+000000PRSWM2
0061601010999991989010203004+35733-005900FM-12+0021GMTT V0201001N00411220001CN0150001N9+00661+00571102761ADDAA106000091AG14000GF100991001001999999001001MD1810111+9999
0051601010999991989010203304+35733-005900FM-15+0021GMTT V0201001N00411999991CY0099001N1+00701+99999999999ADDAG12999REMMET013CAVOK 061027?EQDQ01+000000PRSWM2
0058601010999991989010204304+35733-005900FM-15+0021GMTT V0201001N00411999991CY0099001N1+00701+00601999999ADDAG12999MA1102711999999REMMET005CAVOKEQDQ01+000000PRSWM2
0058601010999991989010205004+35733-005900FM-15+0021GMTT V0201001N00411999991CY0099001N1+00701+00601999999ADDAG12999MA1102711999999REMMET005CAVOKEQDQ01+000000PRSWM2
0094601010999991989010206004+35733-005900FM-12+0021GMTT V0201001N00411220001CN0150001N9+00801+00671102681ADDAA106000091AG14000GF100991001001999999001001KA1120N+00621MD1810081+9999REMSYN011333   20062
0058601010999991989010206304+35733-005900FM-15+0021GMTT V0201001N00411999991CY0099001N1+00801+00701999999ADDAG12999MA1102611999999REMMET005CAVOKEQDQ01+000000PRSWM2
0063601010999991989010208004+35733-005900FM-15+0021GMTT V0200801N00411999991CY0099001N1+00701+00501999999ADDAG12999MA1102711999999REMMET010CAVOK NSG?EQDQ01+000000PRSWM2
0163601010999991989010209004+35733-005900SY-MT+0021GMTT V0200801N00411220001CN0100001N1+00921+00731102831ADDAA106000091AG14000GA1021+069009009GF102991001001999999001021MA1102811999999MD1310151+9999REMSYN011333   82073MET010CAVOK NSG?EQDQ01+000942SCOLCBQ02+000000PRSWM2
0124601010999991989010210004+35733-005900FM-12+0021GMTT V0209991C00001069001CN0150001N9+01401+00971102711ADDAA106000091AG14999GA1021+006009059GA2051+069009009GF105991021051008001001021KA1120M+01821REMSYN023333   10182 82620 85073
0097601010999991989010212004+35733-005900FM-12+0021GMTT V0201001N00511220001CN0150001N9+01631+00771102841ADDAA106000091AG14000GA1011+004809059GF102991011051004501001021MD1010021+9999REMSYN011333   81616
0097601010999991989010215004+35733-005900FM-12+0021GMTT V0202401N00411220001CN0150001N9+01821+00921102841ADDAA106000091AG14000GA1021+999999059GF102991021051008001001021MD1610041+9999REMSYN011333   8261/
0089601010999991989010216004+35733-005900FM-15+0021GMTT V0202401N00411069001CN0112001N1+01601+00901999999ADDAG12999GA1021+006009059GA2041+069009009MA1102711999999REMMET004NSG?EQDQ01+000000PRSWM2
0089601010999991989010216304+35733-005900FM-15+0021GMTT V0202401N00511069001CN0112001N1+01601+00901999999ADDAG12999GA1021+006009059GA2041+069009009MA1102711999999REMMET004NSG?EQDQ01+000000PRSWM2
0089601010999991989010217004+35733-005900FM-15+0021GMTT V0209991C00001069001CN0112001N1+01501+01001999999ADDAG12999GA1021+006009059GA2041+069009009MA1102711999999REMMET004NSG?EQDQ01+000000PRSWM2
0182601010999991989010218004+35733-005900SY-MT+0021GMTT V0209991C00001069001CN0150001N1+01401+00971102711ADDAA106000091AG14000GA1021+006009059GA2051+069009009GF105991021051008001001021KA1120M+01821MA1102711999999MD1310011+9999REMSYN023333   10182 82620 85073MET004NSG?EQDQ01+000000PRSWM2
0089601010999991989010218304+35733-005900FM-15+0021GMTT V0209991C00001069001CN0112001N1+01401+01001999999ADDAG12999GA1021+006009059GA2051+069009009MA1102711999999REMMET004NSG?EQDQ01+000000PRSWM2
0073601010999991989010219004+35733-005900FM-15+0021GMTT V0209991C00001220001CN0112001N1+99999+99999999999ADDAG12999GA1021+006009059MA1102711999999REMMET004NBK?EQDQ01+000000PRSWM2
0073601010999991989010219304+35733-005900FM-15+0021GMTT V0201201N00311220001CN0112001N1+01301+00901999999ADDAG12999GA1021+006009059MA1102711999999REMMET004NSG?EQDQ01+000000PRSWM2
0089601010999991989010220304+35733-005900FM-15+0021GMTT V0201201N00311069001CN0112001N1+01301+01001999999ADDAG12000GA1021+006009059GA2051+069009009MA1102711999999REMMET004NSG?EQDQ01+000000PRSWM2
0147601010999991989010221004+35733-005900SY-MT+0021GMTT V0201001N00411220001CN0100001N1+00901+00691102781ADDAA106000091AG14000GA1041+069009009GF104991001001999999001021MA1102711999999MD1310071+9999REMSYN011333   84073MET010CAVOK NSG?EQDQ01+000000PRSWM2
0063601010999991989010221304+35733-005900FM-15+0021GMTT V0201001N00311999991CY0099001N1+00901+00701999999ADDAG12999MA1102711999999REMMET010CAVOK NSG?EQDQ01+000000PRSWM2
0063601010999991989010222004+35733-005900FM-15+0021GMTT V0201001N00411999991CY0099001N1+00901+00601999999ADDAG12999MA1102811999999REMMET010CAVOK NSG?EQDQ01+000000PRSWM2
0063601010999991989010222304+35733-005900FM-15+0021GMTT V0201001N00361999991CY0099001N1+00901+00601999999ADDAG12999MA1102811999999REMMET010CAVOK NSG?EQDQ01+000000PRSWM2
0063601010999991989010223004+35733-005900FM-15+0021GMTT V0201001N00411999991CY0099001N1+00801+00601999999ADDAG12999MA1102811999999REMMET010CAVOK NSG?EQDQ01+000000PRSWM2
0063601010999991989010223304+35733-005900FM-15+0021GMTT V0201001N00411999991CY0099001N1+00701+00401999999ADDAG12000MA1102811999999REMMET010CAVOK NSG?EQDQ01+000000PRSWM2
0147601010999991989010300004+35733-005900SY-MT+0021GMTT V0200801N00511220001CN0100001N1+00631+00491102911ADDAA106000091AG14000GA1031+069009009GF103991001001999999001021MA1102911999999MD1110101+9999REMSYN011333   83073MET010CAVOK NSG?EQDQ01+000000PRSWM2
0063601010999991989010300304+35733-005900FM-15+0021GMTT V0201001N00411999991CY0099001N1+00601+00501999999ADDAG11999MA1102911999999REMMET010CAVOK NSG?EQDQ01+000000PRSWM2
0063601010999991989010301004+35733-005900FM-15+0021GMTT V0201001N00411999991CY0099001N1+00601+00501999999ADDAG11999MA1102811999999REMMET010CAVOK NSG?EQDQ01+000000PRSWM2
0063601010999991989010302004+35733-005900FM-15+0021GMTT V0201001N00411999991CY0099001N1+00601+00501999999ADDAG11999MA1102811999999REMMET010CAVOK NSG?EQDQ01+000000PRSWM2
0063601010999991989010302304+35733-005900FM-15+0021GMTT V0201001N00411999991CY0099001N1+00601+00501999999ADDAG12000MA1102811999999REMMET010CAVOK NSG?EQDQ01+000000PRSWM2
0147601010999991989010303004+35733-005900SY-MT+0021GMTT V0201001N00511220001CN0100001N1+00561+00471102891ADDAA106000091AG14000GA1031+069009009GF103991001001999999001021MA1102811999999MD1610021+9999REMSYN011333   83073MET010CAVOK NSG?EQDQ01+000000PRSWM2
0063601010999991989010303304+35733-005900FM-15+0021GMTT V0201001N00511999991CY0099001N1+00601+00501999999ADDAG12999MA1102811999999REMMET010CAVOK NSG?EQDQ01+000000PRSWM2
0063601010999991989010304004+35733-005900FM-15+0021GMTT V0201001N00511999991CY0099001N1+00601+00501999999ADDAG12999MA1102811999999REMMET010CAVOK NSG?EQDQ01+000000PRSWM2
0063601010999991989010304304+35733-005900FM-15+0021GMTT V0201001N00511999991CY0099001N1+00601+00501999999ADDAG12999MA1102811999999REMMET010CAVOK NSG?EQDQ01+000000PRSWM2
0063601010999991989010305004+35733-005900FM-15+0021GMTT V0201001N00511999991CY0099001N1+00701+00601999999ADDAG12999MA1102811999999REMMET010CAVOK NSG?EQDQ01+000000PRSWM2
0166601010999991989010306004+35733-005900SY-MT+0021GMTT V0201001N00511220001CN0100001N1+00841+00621102931ADDAA106000091AG14000GA1031+069009009GF103991001001999999001021KA1120N+00541MA1102911999999MD1310041+9999REMSYN017333   20054 83073MET010CAVOK NSG?EQDQ01+000000PRSWM2
0063601010999991989010307004+35733-005900FM-15+0021GMTT V0201001N00511999991CY0099001N1+00901+00701999999ADDAG12999MA1102911999999REMMET010CAVOK NSG?EQDQ01+000000PRSWM2
0063601010999991989010307304+35733-005900FM-15+0021GMTT V0201001N00511999991CY0099001N1+00901+00701999999ADDAG12999MA1102911999999REMMET010CAVOK NSG?EQDQ01+000000PRSWM2
0155601010999991989010309004+35733-005900SY-MT+0021GMTT V0201001N00511220001CN0100001N1+01001+00791103011ADDAA106000091AG14000GA1031+069009009GF103991001001999999001021MA1103011999999MD1110081+9999MW1001REMSYN011333   83073MET012CAVOK NOSIG?EQDQ01+000000PRSWM2
0116601010999991989010310004+35733-005900FM-12+0021GMTT V0201001N00511220001CN0100001N9+00841+00621102931ADDAA106000091AG14999GA1031+069009009GF103991001001999999001021KA1120N+00541MD1310041+9999REMSYN017333   20054 83073
0065601010999991989010311004+35733-005900FM-15+0021GMTT V0201001N00621999991CY0099001N1+01301+00801999999ADDAG12999MA1103011999999REMMET012CAVOK NOSIG?EQDQ01+000000PRSWM2
0153601010999991989010312004+35733-005900SY-MT+0021GMTT V0200801N00621220001CN0150001N1+01601+00761103021ADDAA106000091AG14000GA1031+069009009GF103991001001999999001021MA1103011999999MD1310021+9999MW1001REMSYN011333   83073MET010CAVOK NSG?EQDQ01+000000PRSWM2
0065601010999991989010313004+35733-005900FM-15+0021GMTT V0201001N00721999991CY0099001N1+01601+00801999999ADDAG12999MA1102911999999REMMET012CAVOK NOSIG?EQDQ01+000000PRSWM2
0061601010999991989010314004+35733-005900FM-15+0021GMTT V0201201N00511999991CY0099001N1+01701+00401999999ADDAG12999MA1103011999999REMMET008CAVOK G?EQDQ01+000000PRSWM2
0147601010999991989010315004+35733-005900SY-MT+0021GMTT V0200801N00621220001CN0150001N1+01731+00461102961ADDAA106000091AG14000GA1041+069009009GF104991001001999999001021MA1102911999999MD1810061+9999REMSYN011333   84073MET010CAVOK NSG?EQDQ01+000000PRSWM2
0089601010999991989010316004+35733-005900FM-15+0021GMTT V0200801N00721220001CN0112001N1+01601+00601999999ADDAG12999GA1011+006009089GA2041+069009009MA1102911999999REMMET004NSG?EQDQ01+000000PRSWM2
0089601010999991989010317004+35733-005900FM-15+0021GMTT V0200801N00511069001CN0112001N1+01601+00601999999ADDAG12999GA1021+006009089GA2041+069009009MA1102911999999REMMET004NSG?EQDQ01+000000PRSWM2
0188601010999991989010318004+35733-005900SY-MT+0021GMTT V0200601N00511069001CN0100001N1+01201+00671103111ADDAA106000091AG14000GA1021+006009089GA2041+069009009GF105991021021008001001021KA1120M+01771MA1103121999999MD1310151+9999MW1001REMSYN023333   10177 82820 84073MET004NSG?EQDQ01+000000PRSWM2
0089601010999991989010319004+35733-005900FM-15+0021GMTT V0201201N00211069001CN0112001N1+01101+00701999999ADDAG12999GA1021+006009089GA2041+069009009MA1103121999999REMMET004NSG?EQDQ01+000000PRSWM2
0089601010999991989010320004+35733-005900FM-15+0021GMTT V0200901N00211069001CN0080001N1+01001+00801999999ADDAG12999GA1021+006009089GA2041+069009009MA1103181999999REMMET004NSG?EQDQ01+000000PRSWM2
0105601010999991989010320304+35733-005900FM-15+0021GMTT V0201201N00411063001CN0080001N1+01001+00801999999ADDAG12000GA1021+006009089GA2041+063009009GA3041+069009009MA1103181999999REMMET004NSG?EQDQ01+000000PRSWM2
0165601010999991989010321004+35733-005900SY-MT+0021GMTT V0201001N00411220001CN0100001N1+01001+00801103241ADDAA106000091AG14000GA1011+006009059GA2031+069009009GF103991011051008001001021MA1103181999999MD1110131+9999REMSYN017333   81620 83073MET006NOSIG?EQDQ01+000000PRSWM2
0065601010999991989010322004+35733-005900FM-15+0021GMTT V0201001N00621999991CY0099001N1+00901+00501999999ADDAG12999MA1103181999999REMMET012CAVOK NOSIG?EQDQ01+000000PRSWM2
0065601010999991989010322304+35733-005900FM-15+0021GMTT V0201001N00621999991CY0099001N1+00901+00501999999ADDAG12999MA1103181999999REMMET012CAVOK NOSIG?EQDQ01+000000PRSWM2
0065601010999991989010323004+35733-005900FM-15+0021GMTT V0201001N00411999991CY0099001N1+01001+00701999999ADDAG12999MA1103181999999REMMET012CAVOK NOSIG?EQDQ01+000000PRSWM2
0151601010999991989010400004+35733-005900SY-MT+0021GMTT V0201001N00411220001CN0100001N1+00751+00531103361ADDAA106000091AC1299AG14000GF103991001001999999001021IA2240+00009MA1103291999999MD1310091+9999REMSYN011333   00086MET012CAVOK NOSIG?EQDQ01+000000PRSWM2
0065601010999991989010400304+35733-005900FM-15+0021GMTT V0201001N00411999991CY0099001N1+00801+00501999999ADDAG11999MA1103291999999REMMET012CAVOK NOSIG?EQDQ01+000000PRSWM2
0065601010999991989010401004+35733-005900FM-15+0021GMTT V0201001N00511999991CY0099001N1+00801+00501999999ADDAG11999MA1103291999999REMMET012CAVOK NOSIG?EQDQ01+000000PRSWM2
0065601010999991989010401304+35733-005900FM-15+0021GMTT V0201001N00511999991CY0099001N1+00801+00501999999ADDAG11999MA1103291999999REMMET012CAVOK NOSIG?EQDQ01+000000PRSWM2
0065601010999991989010402004+35733-005900FM-15+0021GMTT V0201001N00511999991CY0099001N1+00801+00501999999ADDAG11999MA1103291999999REMMET012CAVOK NOSIG?EQDQ01+000000PRSWM2
0065601010999991989010402304+35733-005900FM-15+0021GMTT V0201001N00511999991CY0099001N1+00801+00501999999ADDAG12000MA1103291999999REMMET012CAVOK NOSIG?EQDQ01+000000PRSWM2
0149601010999991989010403004+35733-005900SY-MT+0021GMTT V0201001N00411220001CN0100001N1+00851+00541103361ADDAA106000091AG14000GA1031+069009009GF103991001001999999001021MA1103291999999MD1410001+9999REMSYN011333   83073MET012CAVOK NOSIG?EQDQ01+000000PRSWM2
0065601010999991989010403304+35733-005900FM-15+0021GMTT V0201001N00411999991CY0099001N1+00901+00501999999ADDAG12999MA1103291999999REMMET012CAVOK NOSIG?EQDQ01+000000PRSWM2
0065601010999991989010404004+35733-005900FM-15+0021GMTT V0201001N00411999991CY0099001N1+00901+00501999999ADDAG12999MA1103291999999REMMET012CAVOK NOSIG?EQDQ01+000000PRSWM2
0065601010999991989010404304+35733-005900FM-15+0021GMTT V0201001N00411999991CY0099001N1+00901+00501999999ADDAG12999MA1103291999999REMMET012CAVOK NOSIG?EQDQ01+000000PRSWM2
0065601010999991989010405004+35733-005900FM-15+0021GMTT V0201001N00411999991CY0099001N1+00901+00501999999ADDAG12999MA1103291999999REMMET012CAVOK NOSIG?EQDQ01+000000PRSWM2
0168601010999991989010406004+35733-005900SY-MT+0021GMTT V0201001N00511220001CN0100001N1+00801+00471103371ADDAA106000091AG14000GA1031+069009009GF103991001001999999001021KA1120N+00691MA1103291999999MD1310011+9999REMSYN017333   20069 83073MET012CAVOK NOSIG?EQDQ01+000000PRSWM2
0063601010999991989010408004+35733-005900FM-15+0021GMTT V0200801N00211999991CY0099001N1+00701+00401999999ADDAG12999MA1103491999999REMMET010CAVOK NSG?EQDQ01+000000PRSWM2
0147601010999991989010409004+35733-005900SY-MT+0021GMTT V0200801N00261220001CN0100001N1+00931+00651103571ADDAA106000091AG14000GA1031+069009009GF103991001001999999001021MA1103491999999MD1110201+9999REMSYN011333   83073MET010CAVOK NSG?EQDQ01+000000PRSWM2
0063601010999991989010410004+35733-005900FM-15+0021GMTT V0200601N00511999991CY0099001N1+01301+00701999999ADDAG12999MA1103591999999REMMET010CAVOK NSG?EQDQ01+000000PRSWM2
0063601010999991989010411004+35733-005900FM-15+0021GMTT V0200601N00511999991CY0099001N1+01601+00601999999ADDAG12999MA1103691999999REMMET010CAVOK NSG?EQDQ01+000000PRSWM2
0153601010999991989010412004+35733-005900SY-MT+0021GMTT V0200801N00621220001CN0150001N1+01651+00541103681ADDAA106000091AG14000GA1021+069009009GF102991001001999999001021MA1103591999999MD1010121+9999MW1001REMSYN011333   82073MET010CAVOK NSG?EQDQ01+000000PRSWM2
0063601010999991989010413004+35733-005900FM-15+0021GMTT V0201001N00821999991CY0099001N1+01701+00501999999ADDAG12999MA1103591999999REMMET010CAVOK NSG?EQDQ01+000000PRSWM2
0063601010999991989010414004+35733-005900FM-15+0021GMTT V0201001N00931999991CY0099001N1+01701+00501999999ADDAG12999MA1103491999999REMMET010CAVOK NSG?EQDQ01+000000PRSWM2
0141601010999991989010415004+35733-005900SY-MT+0021GMTT V0200801N00721220001CN0150001N1+01711+00431103461ADDAA106000091AG14000GA1021+006009059GF103991021051008001001021MA1103391999999MD1710221+9999REMSYN011333   82620MET004NSG?EQDQ01+000000PRSWM2
0073601010999991989010416004+35733-005900FM-15+0021GMTT V0200601N00821220001CN0112001N1+01601+00501999999ADDAG12999GA1021+006009059MA1103491999999REMMET004NSG?EQDQ01+000000PRSWM2
0160601010999991989010418004+35733-005900SY-MT+0021GMTT V0200601N00771220001CN0100001N1+01341+00501103601ADDAA106000091AG14000GA1011+006009059GF101991011051008001001001KA1120M+01711MA1103591999999MD1310141+9999REMSYN017333   10171 81620MET004NSG?EQDQ01+000000PRSWM2
0072601010999991989010419004+35733-005900FM-15+0021GMTT V0200601N00771220001CN0112001N1+01301+00501999999ADDAG12999GA1021+006009059MA1103591999999REMMET003NG?EQDQ01+000000PRSWM2
0072601010999991989010419304+35733-005900FM-15+0021GMTT V0200601N00771220001CN0112001N1+01301+00501999999ADDAG12999GA1021+006009059MA1103591999999REMMET003NG?EQDQ01+000000PRSWM2
0072601010999991989010420004+35733-005900FM-15+0021GMTT V0200601N00511220001CN0112001N1+01201+00501999999ADDAG12999GA1021+006009059MA1103591999999REMMET003NG?EQDQ01+000000PRSWM2
0072601010999991989010420304+35733-005900FM-15+0021GMTT V0200601N00511220001CN0112001N1+01201+00501999999ADDAG12000GA1021+006009059MA1103591999999REMMET003NG?EQDQ01+000000PRSWM2
0114601010999991989010421004+35733-005900SY-MT+0021GMTT V0201201N00211220001CN0100001N1+00851+00521103731ADDAA106000091AG14000GF100991001001999999001001MA1103691999999MD1310091+9999REMMET010CAVOK NSG?EQDQ01+000000PRSWM2
0063601010999991989010421304+35733-005900FM-15+0021GMTT V0201201N00311999991CY0099001N1+00801+00601999999ADDAG12035MA1103691999999REMMET010CAVOK NSG?EQDQ01+000000PRSWM2
0063601010999991989010422004+35733-005900FM-15+0021GMTT V0201201N00311999991CY0099001N1+00801+00601999999ADDAG12999MA1103691999999REMMET010CAVOK NSG?EQDQ01+000000PRSWM2
0063601010999991989010422304+35733-005900FM-15+0021GMTT V0200801N00211999991CY0099001N1+00801+00601999999ADDAG12999MA1103691999999REMMET010CAVOK NSG?EQDQ01+000000PRSWM2
0063601010999991989010423004+35733-005900FM-15+0021GMTT V0200601N00211999991CY0099001N1+00801+00701999999ADDAG12999MA1103791999999REMMET010CAVOK NSG?EQDQ01+000000PRSWM2
0063601010999991989010423304+35733-005900FM-15+0021GMTT V0201401N00211999991CY0099001N1+00701+00601999999ADDAG12000MA1103791999999REMMET010CAVOK NSG?EQDQ01+000000PRSWM2
0114601010999991989010500004+35733-005900SY-MT+0021GMTT V0200901N00211220001CN0100001N1+00651+00421103851ADDAA106000091AG14000GF100991001001999999001001MA1103791999999MD1110121+9999REMMET010CAVOK NSG?EQDQ01+000000PRSWM2
0057601010999991989010501004+35733-005900FM-15+0021GMTT V0209991C00001220001CN0080001N1+00601+00401999999ADDAG11999MA1103791999999REMMET004NSG?EQDQ01+000000PRSWM2
0057601010999991989010501304+35733-005900FM-15+0021GMTT V0209991C00001220001CN0000001N1+00601+00401999999ADDAG11999MA1103791999999REMMET004MSG?EQDQ01+000000PRSWM2
0057601010999991989010502004+35733-005900FM-15+0021GMTT V0200801N00211220001CN0080001N1+00601+00401999999ADDAG11999MA1103791999999REMMET004NSG?EQDQ01+000000PRSWM2
0057601010999991989010502304+35733-005900FM-15+0021GMTT V0200801N00511220001CN0080001N1+00601+00401999999ADDAG12000MA1103891999999REMMET004NSG?EQDQ01+000000PRSWM2
0139601010999991989010503004+35733-005900SY-MT+0021GMTT V0200901N00511220001CN0080001N1+00831+00591103931ADDAA106000091AG14000GA1031+006009059GF103991031051008001001001MA1103891999999MD1110081+9999REMSYN011333   83620MET002G?EQDQ01+000000PRSWM2
0073601010999991989010503304+35733-005900FM-15+0021GMTT V0201001N00411220001CN0080001N1+00801+00601999999ADDAG12999GA1031+006009059MA1103891999999REMMET004NSG?EQDQ01+000000PRSWM2
0071601010999991989010504004+35733-005900FM-15+0021GMTT V0200801N00211220001CN0000001N1+00901+00601999999ADDAG12999GA1031+006009999MA1103791999999REMMET002G?EQDQ01+000000PRSWM2
0073601010999991989010505004+35733-005900FM-15+0021GMTT V0209991C00001220001CN0080001N1+00801+00601999999ADDAG12999GA1031+006009059MA1103891999999REMMET004NSG?EQDQ01+000000PRSWM2
0160601010999991989010506004+35733-005900SY-MT+0021GMTT V0201201N00211220001CN0080001N1+00701+00591103801ADDAA106000091AG14000GA1031+006009059GF103991031051008001001001KA1120N+00501MA1103791999999MD1810131+9999REMSYN017333   20050 83620MET004NSG?EQDQ01+000000PRSWM2
0071601010999991989010507004+35733-005900FM-15+0021GMTT V0209991C00001220001CN0080001N1+00701+00501999999ADDAG12999GA1031+006009059MA1103791999999REMMET002G?EQDQ01+000000PRSWM2
0072601010999991989010508004+35733-005900FM-15+0021GMTT V0209991C00001220001CN0070001N1+00601+00501999999ADDAG12999GA1021+006009059MA1103791999999REMMET003NG?EQDQ01+000000PRSWM2
0141601010999991989010509004+35733-005900SY-MT+0021GMTT V0201201N00261220001CN0080001N1+00751+00641103841ADDAA106000091AG14000GA1021+006009059GF103991021051008001001021MA1103791999999MD1310041+9999REMSYN011333   82620MET004NSG?EQDQ01+000000PRSWM2
0089601010999991989010510004+35733-005900FM-15+0021GMTT V0201201N00211220001CN0080001N1+01201+00901999999ADDAG12999GA1021+006009059GA2031+069009009MA1103791999999REMMET004NSG?EQDQ01+000000PRSWM2
0089601010999991989010511004+35733-005900FM-15+0021GMTT V0200801N00311220001CN0112001N1+01501+00901999999ADDAG12999GA1021+006009059GA2031+069009009MA1103891999999REMMET004NSG?EQDQ01+000000PRSWM2
0097601010999991989010512004+35733-005900FM-12+0021GMTT V0200801N00261220001CN0100001N9+01541+00871103881ADDAA106000091AG14000GA1021+006009059GF103991021051008001001021MD1010051+9999REMSYN011333   82620
0072601010999991989010513004+35733-005900FM-15+0021GMTT V0200801N00261220001CN0112001N1+01601+00901999999ADDAG12999GA1021+006009059MA1103791999999REMMET003NG?EQDQ01+000000PRSWM2
0073601010999991989010514004+35733-005900FM-15+0021GMTT V0200401N00311220001CN0112001N1+01701+00901999999ADDAG12999GA1021+006009059MA1103791999999REMMET004NSG?EQDQ01+000000PRSWM2
0141601010999991989010515004+35733-005900SY-MT+0021GMTT V0200401N00511220001CN0100001N1+01621+00901103681ADDAA106000091AG14000GA1021+006009059GF103991021051004501001021MA1103591999999MD1810201+9999REMSYN011333   82620MET004NSG?EQDQ01+000000PRSWM2
0045601010999991989010517004+35733-005900FM-15+0021GMTT V0200401N00311220001CN0112001N1+01601+00801999999ADDAG12999GA1011+006009059EQDQ01+000000PRSWM2
0182601010999991989010518004+35733-005900SY-MT+0021GMTT V0200401N00311220001CN0080001N1+01341+00861103711ADDAA106000091AG14000GA1011+006009059GA2041+069009009GF104991011051004501001021KA1120M+01661MA1103691999999MD1310031+9999REMSYN023333   10166 81620 84073MET004NSG?EQDQ01+000000PRSWM2
0089601010999991989010518304+35733-005900FM-15+0021GMTT V0200401N00311220001CN0080001N1+01301+00901999999ADDAG12999GA1011+006009059GA2041+069009009MA1103691999999REMMET004NSG?EQDQ01+000000PRSWM2
0089601010999991989010519004+35733-005900FM-15+0021GMTT V0200601N00261220001CN0080001N1+01001+00801999999ADDAG12999GA1011+006009059GA2041+069009009MA1103691999999REMMET004NSG?EQDQ01+000000PRSWM2
0073601010999991989010519304+35733-005900FM-15+0021GMTT V0200601N00261220001CN0080001N1+01001+00801999999ADDAG12999GA1021+006009059MA1103691999999REMMET004NSG?EQDQ01+000000PRSWM2
0089601010999991989010520004+35733-005900FM-15+0021GMTT V0201001N00211220001CN0080001N1+00901+00701999999ADDAG12999GA1011+006009059GA2031+069009009MA1103591999999REMMET004NSG?EQDQ01+000000PRSWM2
0140601010999991989010521004+35733-005900SY-MT+0021GMTT V0201001N00211220001CN0080001N1+00741+00511103711ADDAA106000091AG14000GA1031+069009009GF103991001001999999001021MA1103691999999MD1410001+9999REMSYN011333   83073MET003NG?EQDQ01+000000PRSWM2
0045601010999991989010521304+35733-005900FM-15+0021GMTT V0201001N00211220001CN0080001N1+00701+00701999999ADDAG12999GA1031+069009009EQDQ01+000000PRSWM2
0072601010999991989010522004+35733-005900FM-15+0021GMTT V0209991C00001220001CN0080001N1+00701+00501999999ADDAG12999GA1031+069009009MA1103691999999REMMET003NG?EQDQ01+000000PRSWM2
0072601010999991989010522304+35733-005900FM-15+0021GMTT V0209991C00001220001CN0080001N1+00701+00501999999ADDAG12999GA1031+069009009MA1103691999999REMMET003NG?EQDQ01+000000PRSWM2
0072601010999991989010523004+35733-005900FM-15+0021GMTT V0209991C00001220001CN0080001N1+00701+00501999999ADDAG12999GA1031+069009009MA1103691999999REMMET003NG?EQDQ01+000000PRSWM2
0072601010999991989010523304+35733-005900FM-15+0021GMTT V0209991C00001220001CN0080001N1+00701+00501999999ADDAG12000GA1031+069009009MA1103691999999REMMET003NG?EQDQ01+000000PRSWM2
0140601010999991989010600004+35733-005900SY-MT+0021GMTT V0209991C00001220001CN0080001N1+00551+00431103641ADDAA106000091AG14000GA1031+069009009GF103991001001999999001021MA1103591999999MD1810081+9999REMSYN011333   83073MET003NG?EQDQ01+000000PRSWM2
0072601010999991989010600304+35733-005900FM-15+0021GMTT V0209991C00001220001CN0080001N1+00601+00401999999ADDAG11999GA1031+069009009MA1103591999999REMMET003NG?EQDQ01+000000PRSWM2
0072601010999991989010601004+35733-005900FM-15+0021GMTT V0209991C00001220001CN0080001N1+00601+00501999999ADDAG11999GA1031+069009009MA1103591999999REMMET003NG?EQDQ01+000000PRSWM2
0072601010999991989010601304+35733-005900FM-15+0021GMTT V0209991C00001220001CN0080001N1+00601+00401999999ADDAG11999GA1031+069009009MA1103591999999REMMET003NG?EQDQ01+000000PRSWM2
0057601010999991989010602004+35733-005900FM-15+0021GMTT V0209991C00001220001CN0080001N1+99999+99999999999ADDAG11999GA1031+069009009REMMET00307?EQDQ01+000000PRSWM2
0072601010999991989010602304+35733-005900FM-15+0021GMTT V0209991C00001220001CN0080001N1+00601+00501999999ADDAG12000GA1031+069009009MA1103591999999REMMET003NG?EQDQ01+000000PRSWM2
0140601010999991989010603004+35733-005900SY-MT+0021GMTT V0209991C00001220001CN0080001N1+00551+00431103561ADDAA106000091AG14000GA1031+069009009GF103991001001999999001021MA1103491999999MD1810081+9999REMSYN011333   83073MET003NG?EQDQ01+000000PRSWM2
0072601010999991989010604004+35733-005900FM-15+0021GMTT V0209991C00001220001CN0080001N1+00401+00301999999ADDAG12999GA1031+069009009MA1103491999999REMMET003NG?EQDQ01+000000PRSWM2
0072601010999991989010605004+35733-005900FM-15+0021GMTT V0209991C00001220001CN0080001N1+00501+00301999999ADDAG12999GA1031+069009009MA1103391999999REMMET003NG?EQDQ01+000000PRSWM2
0159601010999991989010606004+35733-005900SY-MT+0021GMTT V0201001N00211220001CN0080001N1+00421+00271103391ADDAA106000091AG14000GA1031+069009009GF103991001001999999001021KA1120N+00421MA1103291999999MD1710171+9999REMSYN017333   20042 83073MET003NG?EQDQ01+000000PRSWM2
0063601010999991989010608004+35733-005900FM-15+0021GMTT V0201001N00211999991CY0099001N1+00601+00401999999ADDAG12999MA1103291999999REMMET010CAVOK NSG?EQDQ01+000000PRSWM2
0131601010999991989010609004+35733-005900SY-MT+0021GMTT V0201201N00151220001CN0100001N1+00721+00401103291ADDAA106000091AG14000GA1031+069009009GF103991001001999999001021MA1103181999999MD1810101+9999REMSYN011333   83073EQDQ01+000000PRSWM2
0076601010999991989010610004+35733-005900FM-15+0021GMTT V0202001N00511004801CN0080001N1+01201+00701999999ADDAG12999GA1031+003009079GA2041+004809059MA1103291999999EQDQ01+000000PRSWM2
0076601010999991989010611004+35733-005900FM-15+0021GMTT V0202401N00721004801CN0080001N1+01301+00801999999ADDAG12999GA1021+003009079GA2031+004809059MA1103181999999EQDQ01+000000PRSWM2
0153601010999991989010612004+35733-005900SY-MT+0021GMTT V0202001N00721090001CN0080001N1+01431+00761103181ADDAA106000091AG14000GA1011+003009079GA2031+004809059GF105991041051004501001021MA1103121999999MD1810101+9999REMSYN017333   81710 83616EQDQ01+000000PRSWM2
0076601010999991989010613004+35733-005900FM-15+0021GMTT V0202401N00931004801CN0080001N1+01401+00901999999ADDAG12999GA1021+003009079GA2051+004809089MA1103011999999EQDQ01+000000PRSWM2
0089601010999991989010614004+35733-005900FM-15+0021GMTT V0202201N00821004801CN0080001N1+01501+01101999999ADDAG12999GA1031+003909089GA2041+004809059MA1102911999999REMMET004NSG?EQDQ01+000000PRSWM2
0163601010999991989010615004+35733-005900SY-MT+0021GMTT V0202801N00721004801CN0080001N1+01491+00991102871ADDAA106000091AG14000GA1021+003909089GA2061+004809059GF108991071081004501021999MA1102811999999MD1810311+9999REMSYN017333   82813 86616MET004NSG?EQDQ01+000000PRSWM2
0089601010999991989010616004+35733-005900FM-15+0021GMTT V0202601N00721004801CN0080001N1+01501+00901999999ADDAG12999GA1021+003909089GA2061+004809059MA1102711999999REMMET004NSG?EQDQ01+000000PRSWM2
0073601010999991989010617004+35733-005900FM-15+0021GMTT V0202401N00821004501CN0080001N1+01401+00901999999ADDAG12999GA1061+004509089MA1102711999999REMMET004NSG?EQDQ01+000000PRSWM2
0166601010999991989010618004+35733-005900SY-MT+0021GMTT V0202401N00821004501CN0080001N1+01411+00961102641ADDAA106000091AG14000GA1071+004509089GF108991071021004501081999KA1120M+01581MA1102611999999MD1810231+9999MW1001REMSYN017333   10158 87815MET004NSG?EQDQ01+000000PRSWM2
0060601010999991989010619004+35733-005900FM-15+0021GMTT V0202401N00931004501CN0080001N1+01401+01001999999ADDAG12999GA1071+004509089MA1102611999999EQDQ01+000000PRSWM2
0060601010999991989010620004+35733-005900FM-15+0021GMTT V0202401N00931004501CN0080001N1+01301+00901999999ADDAG12999GA1071+004509089MA1102511999999EQDQ01+000000PRSWM2
0060601010999991989010620304+35733-005900FM-15+0021GMTT V0202401N01131004501CN0080001N1+01301+00901999999ADDAG12000GA1071+004509089MA1102511999999EQDQ01+000000PRSWM2
0155601010999991989010621004+35733-005900SY-MT+0021GMTT V0202401N01231004501CN0080001N1+01501+01251102221ADDAG12001AY121031AY221031GA1061+004509059GA2071+024009039GF108991061051004501071999MA1102201999999MD1710371+9999MW1611REMSYN017333   86615 87458MET004NSG?
0076601010999991989010621304+35733-005900FM-15+0021GMTT V0202401N01241004501CN0060001N1+01501+01301999999ADDAG12999GA1061+004509059GA2071+024009039MA1102201999999MW1611REMMET004NSG?
0091601010999991989010622004+35733-005900FM-15+0021GMTT V0202401N01241004501CN0060001N1+01501+01301999999ADDAG12999GA1061+004509059GA2071+024009039MA1102201999999MW1611REMMET019NSG E E E 1020 NSG?
0084601010999991989010622304+35733-005900FM-15+0021GMTT V0202401N01241004501CN0060001N1+01501+01301999999ADDAG12999GA1061+004509059GA2071+024009039MA1102001999999MW1611OC101851REMMET004NSG?
0084601010999991989010623004+35733-005900FM-15+0021GMTT V0202401N01341004501CN0060001N1+01501+01301999999ADDAG12999GA1061+004509059GA2071+024009039MA1101901999999MW1611OC101851REMMET004NSG?
0166601010999991989010700004+35733-005900SY-MT+0021GMTT V0202401N01441004501CN0060001N1+01501+01391101631ADDAA106008091AG10003AY161061AY221061GA1061+004509089GA2081+024009039GF108991061021004501071999MA1101591999999MD1810591+9999MW1611REMSYN017333   86815 88458MET004NSG?
0084601010999991989010700304+35733-005900FM-15+0021GMTT V0203001N01341004801CN0060001N1+01501+01401999999ADDAG11999GA1061+004809089GA2081+024009039MA1101591999999MW1811OC101851REMMET004NSG?
0076601010999991989010701004+35733-005900FM-15+0021GMTT V0203001N01081004801CN0080001N1+01301+01101999999ADDAG11999GA1041+003909089GA2071+004809059MA1101491999999MW1251REMMET004NSG?
0089601010999991989010701304+35733-005900FM-15+0021GMTT V0203001N01081004801CN0080001N1+01301+01101999999ADDAG11999GA1041+003909089GA2071+004809059MA1101491999999REMMET004NSG?EQDQ01+000000PRSWM2
0089601010999991989010702004+35733-005900FM-15+0021GMTT V0203201N01341004801CN0080001N1+01301+01101999999ADDAG11999GA1041+003909089GA2061+004809059MA1101491999999REMMET004NSG?EQDQ01+000000PRSWM2
0089601010999991989010702304+35733-005900FM-15+0021GMTT V0203201N01291004801CN0080001N1+01301+01101999999ADDAG12000GA1041+003909089GA2071+004809059MA1101491999999REMMET004NSG?EQDQ01+000000PRSWM2
0174601010999991989010703004+35733-005900SY-MT+0021GMTT V0203401N01231004801CN0100001N1+01181+00991101501ADDAG12001AY181031AY261031GA1031+003909089GA2051+004809059GF106991061081004501001001MA1101491999999MD1610131+9999MW1011REMSYN017333   83813 85616MET004NSG?EQDQ01+000000PRSWM2
0089601010999991989010703304+35733-005900FM-15+0021GMTT V0203401N01241004801CN0112001N1+01201+01001999999ADDAG12999GA1031+003909089GA2051+004809059MA1101491999999REMMET004NSG?EQDQ01+000000PRSWM2
0089601010999991989010704004+35733-005900FM-15+0021GMTT V0203401N01031004801CN0112001N1+01201+01001999999ADDAG12999GA1031+003909089GA2051+004809059MA1101391999999REMMET004NSG?EQDQ01+000000PRSWM2
0089601010999991989010704304+35733-005900FM-15+0021GMTT V0203401N00931004801CN0112001N1+01201+01001999999ADDAG12999GA1031+003909089GA2051+004809059MA1101391999999REMMET004NSG?EQDQ01+000000PRSWM2
0089601010999991989010705004+35733-005900FM-15+0021GMTT V0203601N00931004801CN0112001N1+01101+00901999999ADDAG12999GA1021+003909089GA2041+004809059MA1101391999999REMMET004NSG?EQDQ01+000000PRSWM2
0073601010999991989010705304+35733-005900FM-15+0021GMTT V0203601N00511220001CN0112001N1+01101+00901999999ADDAG12000GA1021+003909089MA1101391999999REMMET004NSG?EQDQ01+000000PRSWM2
0204601010999991989010706004+35733-005900SY-MT+0021GMTT V0200201N00621220001CN0100001N1+01011+00631101441ADDAA124011091AG14000AY111061AY281061GA1021+003909089GA2031+004809059GF104991041081004501001001KA1120N+00961MA1101391999999MD1610061+9999MW1011REMSYN023333   20096 82813 83616MET004NSG?EQDQ01+000000PRSWM2
0089601010999991989010707004+35733-005900FM-15+0021GMTT V0200201N00511004801CN0112001N1+00901+00601999999ADDAG12999GA1021+003909089GA2041+004809059MA1101391999999REMMET004NSG?EQDQ01+000000PRSWM2
0089601010999991989010708004+35733-005900FM-15+0021GMTT V0201001N00101004801CN0112001N1+00701+00501999999ADDAG12999GA1021+003909089GA2031+004809059MA1101491999999REMMET004NSG?EQDQ01+000000PRSWM2
0140601010999991989010709004+35733-005900SY-MT+0021GMTT V0201001N00211220001CN0150001N1+00761+00561101581ADDAA106000091AG14000GA1021+003909089GA2031+004809059GF104991041081004501001001REMSYN017333   82813 83616MET01010015 NSG?EQDQ01+000000PRSWM2
0073601010999991989010710004+35733-005900FM-15+0021GMTT V0201601N00311220001CN0112001N1+01201+00601999999ADDAG12999GA1031+004509089MA1101591999999REMMET004NSG?EQDQ01+000000PRSWM2
0073601010999991989010711004+35733-005900FM-15+0021GMTT V0202001N00151220001CN0112001N1+01401+00601999999ADDAG12999GA1031+004509089MA1101691999999REMMET004NSG?EQDQ01+000000PRSWM2
0141601010999991989010712004+35733-005900SY-MT+0021GMTT V0201601N00411220001CN0150001N1+01501+00791101681ADDAA106000091AG14000GA1031+004509089GF104991031021004501001021MA1101591999999MD1010101+9999REMSYN011333   83815MET004NSG?EQDQ01+000000PRSWM2
0073601010999991989010713004+35733-005900FM-15+0021GMTT V0201801N00311220001CN0112001N1+01601+00801999999ADDAG12999GA1041+004509089MA1101591999999REMMET004NSG?EQDQ01+000000PRSWM2
0073601010999991989010714004+35733-005900FM-15+0021GMTT V0202401N00211220001CN0112001N1+01601+00901999999ADDAG12999GA1031+004809089MA1101591999999REMMET004NSG?EQDQ01+000000PRSWM2
0141601010999991989010715004+35733-005900SY-MT+0021GMTT V0200801N00931004501CN0100001N1+01401+00801101541ADDAA106000091AG14000GA1051+004509089GF105991051021004501001021MA1101491999999MD1710141+9999REMSYN011333   85815MET004NSG?EQDQ01+000000PRSWM2
0089601010999991989010716004+35733-005900FM-15+0021GMTT V0200801N00821004801CN0112001N1+01401+00701999999ADDAG12999GA1051+004809089GA2031+069009009MA1101491999999REMMET004NSG?EQDQ01+000000PRSWM2
0089601010999991989010717004+35733-005900FM-15+0021GMTT V0200801N00771004801CN0112001N1+01401+00801999999ADDAG12999GA1051+004809089GA2031+069009009MA1101491999999REMMET004NSG?EQDQ01+000000PRSWM2
0182601010999991989010718004+35733-005900SY-MT+0021GMTT V0201201N00931004801CN0100001N1+01201+00901101641ADDAA106000091AG14000GA1051+004809089GA2031+069009009GF106991051021004501031021KA1120M+01691MA1101591999999MD1310101+9999REMSYN023333   10169 85816 83073MET004NSG?EQDQ01+000000PRSWM2
0089601010999991989010719004+35733-005900FM-15+0021GMTT V0201001N00931069001CN0112001N1+01201+01001999999ADDAG12999GA1041+004809089GA2031+069009009MA1101591999999REMMET004NSG?EQDQ01+000000PRSWM2
0089601010999991989010719304+35733-005900FM-15+0021GMTT V0201001N00881069001CN0112001N1+01201+01001999999ADDAG12999GA1041+004809089GA2031+069009009MA1101591999999REMMET004NSG?EQDQ01+000000PRSWM2
0089601010999991989010720004+35733-005900FM-15+0021GMTT V0201001N00821069001CN0112001N1+01201+01001999999ADDAG12999GA1041+004809089GA2031+069009009MA1101591999999REMMET004NSG?EQDQ01+000000PRSWM2
0089601010999991989010720304+35733-005900FM-15+0021GMTT V0201001N00981069001CN0112001N1+01201+01001999999ADDAG12000GA1041+004809089GA2031+069009009MA1101591999999REMMET004NSG?EQDQ01+000000PRSWM2
0076601010999991989010721004+35733-005900FM-15+0021GMTT V0201201N00821004801CN0112001N1+01201+99999999999ADDAG12000GA1051+004809089GA2031+069009009MA1101591999999EQDQ01+000000PRSWM2
0076601010999991989010721304+35733-005900FM-15+0021GMTT V0201401N00821004801CN0112001N1+01201+01001999999ADDAG12999GA1051+004809089GA2031+069009009MA1101591999999EQDQ01+000000PRSWM2
0076601010999991989010722004+35733-005900FM-15+0021GMTT V0201401N00881004801CN0112001N1+01201+01001999999ADDAG12999GA1051+004809089GA2031+069009009MA1101591999999EQDQ01+000000PRSWM2
0076601010999991989010722304+35733-005900FM-15+0021GMTT V0201401N00771004801CN0112001N1+01201+01001999999ADDAG12999GA1051+004809089GA2031+069009009MA1101591999999EQDQ01+000000PRSWM2
0092601010999991989010723004+35733-005900FM-15+0021GMTT V0201401N00721004801CN9999999N9+01201+01001999999ADDAG12999GA1051+004809089GA2031+069009009MA1101591999999EQDQ01+000002VOVAR Q02+000000PRSWM2
0076601010999991989010723304+35733-005900FM-15+0021GMTT V0201201N00931069001CN0112001N1+01201+01001999999ADDAG12000GA1041+004809089GA2031+069009009MA1101591999999EQDQ01+000000PRSWM2
0153601010999991989010800004+35733-005900SY-MT+0021GMTT V0201201N00821006001CN0100001N1+01201+00911101781ADDAA106000091AG14000GA1031+004809089GA2041+006009059GF105991051081008001001001MA1101691999999MD1210081+9999REMSYN017333   83816 84620EQDQ01+000000PRSWM2
0076601010999991989010800304+35733-005900FM-15+0021GMTT V0201201N00821006001CN0112001N1+01201+00901999999ADDAG11999GA1031+004809089GA2041+006009059MA1101691999999EQDQ01+000000PRSWM2
0076601010999991989010801004+35733-005900FM-15+0021GMTT V0201201N00931006001CN0112001N1+01201+00901999999ADDAG11999GA1031+004809089GA2041+006009059MA1101691999999EQDQ01+000000PRSWM2
0076601010999991989010801304+35733-005900FM-15+0021GMTT V0201401N00931006001CN0112001N1+01201+00901999999ADDAG11999GA1031+004809089GA2041+006009059MA1101691999999EQDQ01+000000PRSWM2
0076601010999991989010802004+35733-005900FM-15+0021GMTT V0201201N00621006001CN0112001N1+01201+00901999999ADDAG11999GA1031+004809089GA2041+006009059MA1101691999999EQDQ01+000000PRSWM2
0076601010999991989010802304+35733-005900FM-15+0021GMTT V0201201N00621006001CN0112001N1+01201+00901999999ADDAG12000GA1031+003909089GA2041+006009059MA1101691999999EQDQ01+000000PRSWM2
0193601010999991989010803004+35733-005900SY-MT+0021GMTT V0200201N00621006001CN0100001N1+01181+00881101761ADDAA106000091AG14000GA1031+004509089GA2041+006009059GF105991051081008001001001MA1101691999999MD1610031+9999REMSYN017333   83815 84620MET03412M09 333 12/09        ?     1017?EQDQ01+000000PRSWM2
0060601010999991989010803304+35733-005900FM-15+0021GMTT V0201201N00721220001CN0112001N1+01201+00901999999ADDAG12999GA1031+004509089MA1101691999999EQDQ01+000000PRSWM2
0076601010999991989010804004+35733-005900FM-15+0021GMTT V0201201N00721006001CN0112001N1+01201+00901999999ADDAG12999GA1031+004509089GA2041+006009059MA1101691999999EQDQ01+000000PRSWM2
0076601010999991989010804304+35733-005900FM-15+0021GMTT V0201401N00621006001CN0112001N1+01201+00901999999ADDAG12999GA1031+004209089GA2041+006009059MA1101691999999EQDQ01+000000PRSWM2
0075601010999991989010805004+35733-005900FM-15+0021GMTT V0201401N00621006001CN0112001N1+01201+00801999999ADDAG12999GA1031+004509089GA2041+006009059REMMET0051(17?EQDQ01+000000PRSWM2
0076601010999991989010805304+35733-005900FM-15+0021GMTT V0201401N00721006001CN0112001N1+01201+00901999999ADDAG12000GA1031+004509089GA2041+006009059MA1101691999999EQDQ01+000000PRSWM2
0172601010999991989010806004+35733-005900SY-MT+0021GMTT V0200401N00621220001CN0100001N1+01031+00821101741ADDAA106000091AG14000GA1021+004509089GA2041+006009059GF104991041081008001001001KA1120N+01031MA1101691999999MD1610021+9999REMSYN023333   20103 82815 84620EQDQ01+000000PRSWM2
0076601010999991989010807004+35733-005900FM-15+0021GMTT V0200801N00621006001CN0112001N1+01001+00801999999ADDAG12999GA1021+004509089GA2041+006009059MA1101691999999EQDQ01+000000PRSWM2
0076601010999991989010808004+35733-005900FM-15+0021GMTT V0201201N00261220001CN0112001N1+01001+00801999999ADDAG12999GA1011+004809089GA2031+006009059MA1101691999999EQDQ01+000000PRSWM2
0163601010999991989010809004+35733-005900SY-MT+0021GMTT V0201001N00511220001CN0100001N1+01121+00961101801ADDAA106000091AG14000GA1011+004809089GA2031+069009009GF104991021081004501001021MA1101801999999MD1110061+9999REMSYN017333   81816 83073MET004NSG?EQDQ01+000000PRSWM2
0089601010999991989010810004+35733-005900FM-15+0021GMTT V0201001N00771220001CN0112001N1+01201+00901999999ADDAG12999GA1011+004809089GA2041+006009059MA1101801999999REMMET004NSG?EQDQ01+000000PRSWM2
0089601010999991989010811004+35733-005900FM-15+0021GMTT V0201001N01181006001CN0112001N1+01501+01001999999ADDAG12999GA1011+004809089GA2051+006009059MA1101901999999REMMET004NSG?EQDQ01+000000PRSWM2
0169601010999991989010812004+35733-005900SY-MT+0021GMTT V0201201N01131220001CN0100001N1+01741+00981101961ADDAA106000091AG14000GA1011+004809089GA2031+069009009GF104991031081004501001021MA1101901999999MD1110161+9999MW1001REMSYN017333   81816 83073MET004NSG?EQDQ01+000000PRSWM2
0089601010999991989010812304+35733-005900FM-15+0021GMTT V0201001N01131220001CN0112001N1+01701+01001999999ADDAG12999GA1011+004809089GA2031+069009009MA1101901999999REMMET004NSG?EQDQ01+000000PRSWM2
0089601010999991989010813004+35733-005900FM-15+0021GMTT V0201201N01181220001CN0112001N1+01701+00901999999ADDAG12999GA1011+004809089GA2031+069009009MA1101901999999REMMET004NSG?EQDQ01+000000PRSWM2
0060601010999991989010814004+35733-005900FM-15+0021GMTT V0201001N01181220001CN0112001N1+01701+00901999999ADDAG12999GA1011+004809089MA1101901999999EQDQ01+000000PRSWM2
0161601010999991989010815004+35733-005900SY-MT+0021GMTT V0201201N01131220001CN0100001N1+01771+01081101831ADDAA106000091AG14000GA1011+004809089GA2031+069009009GF103991011021004501001021MA1101801999999MD1610131+9999OC101541REMSYN017333   81816 83073EQDQ01+000000PRSWM2
0076601010999991989010816004+35733-005900FM-15+0021GMTT V0201201N01131220001CN0112001N1+01801+01101999999ADDAG12999GA1011+004809089GA2031+069009009MA1101801999999EQDQ01+000000PRSWM2
0058601010999991989010817004+35733-005900FM-15+0021GMTT V0201201N01131999991CY0099001N1+01601+00801999999ADDAG12999MA1101801999999REMMET005CAVOKEQDQ01+000000PRSWM2
0166601010999991989010818004+35733-005900SY-MT+0021GMTT V0201001N01031220001CN0100001N1+01381+00831101781ADDAA106000091AG14000GA1011+069009009GF101991001001999999001021KA1120M+01831MA1101691999999MD1810051+9999REMSYN017333   10183 81073MET010CAVOK NSG?EQDQ01+000000PRSWM2
0063601010999991989010819004+35733-005900FM-15+0021GMTT V0201001N00931999991CY0099001N1+01301+00701999999ADDAG12999MA1101801999999REMMET010CAVOK NSG?EQDQ01+000000PRSWM2
0063601010999991989010819304+35733-005900FM-15+0021GMTT V0201001N00821999991CY0099001N1+01301+00701999999ADDAG12999MA1101801999999REMMET010CAVOK NSG?EQDQ01+000000PRSWM2
0063601010999991989010820004+35733-005900FM-15+0021GMTT V0200801N00821999991CY0099001N1+01201+00801999999ADDAG12999MA1101801999999REMMET010CAVOK NSG?EQDQ01+000000PRSWM2
0163601010999991989010821004+35733-005900SY-MT+0021GMTT V0200601N00721220001CN0100001N1+01231+00691101841ADDAA106000091AG14000GA1021+069009009GF102991001001999999001021MA1101801999999MD1110061+9999REMSYN011333   82073MET010CAVOK NSG?EQDQ01+000942SCOLCBQ02+000000PRSWM2
0089601010999991989010821304+35733-005900FM-15+0021GMTT V0200801N00721220001CN0112001N1+01201+00701999999ADDAG12999GA1011+004809089GA2031+069009009MA1101801999999REMMET004NSG?EQDQ01+000000PRSWM2
0063601010999991989010822004+35733-005900FM-15+0021GMTT V0201001N00721999991CY0099001N1+01201+00701999999ADDAG12999MA1101801999999REMMET010CAVOK NSG?EQDQ01+000000PRSWM2
0063601010999991989010822304+35733-005900FM-15+0021GMTT V0200801N01031999991CY0099001N1+01201+01001999999ADDAG12999MA1101801999999REMMET010CAVOK NSG?EQDQ01+000000PRSWM2
0063601010999991989010823004+35733-005900FM-15+0021GMTT V0201001N00771999991CY0099001N1+01201+00801999999ADDAG12999MA1101801999999REMMET010CAVOK NSG?EQDQ01+000000PRSWM2
0063601010999991989010823304+35733-005900FM-15+0021GMTT V0201001N01131999991CY0099001N1+01201+00801999999ADDAG12000MA1101801999999REMMET010CAVOK NSG?EQDQ01+000000PRSWM2
0114601010999991989010900004+35733-005900SY-MT+0021GMTT V0200601N00931220001CN0100001N1+01231+00831101881ADDAA106000091AG14000GF100991001001999999001001MA1101801999999MD1310041+9999REMMET010CAVOK NSG?EQDQ01+000000PRSWM2
0063601010999991989010900304+35733-005900FM-15+0021GMTT V0200601N00981999991CY0099001N1+01201+00801999999ADDAG11999MA1101801999999REMMET010CAVOK NSG?EQDQ01+000000PRSWM2
0061601010999991989010901004+35733-005900FM-15+0021GMTT V0200601N00931999991CY0099001N1+01201+00901999999ADDAG11999MA1101801999999REMMET008CAVOK G?EQDQ01+000000PRSWM2
0063601010999991989010901304+35733-005900FM-15+0021GMTT V0200601N00821999991CY0099001N1+01201+00901999999ADDAG11999MA1101801999999REMMET010CAVOK NSG?EQDQ01+000000PRSWM2
0063601010999991989010902004+35733-005900FM-15+0021GMTT V0200601N00771999991CY0099001N1+01101+00801999999ADDAG11999MA1101801999999REMMET010CAVOK NSG?EQDQ01+000000PRSWM2
0063601010999991989010902304+35733-005900FM-15+0021GMTT V0201001N00771999991CY0099001N1+01101+00801999999ADDAG12000MA1101801999999REMMET010CAVOK NSG?EQDQ01+000000PRSWM2
0114601010999991989010903004+35733-005900SY-MT+0021GMTT V0200601N00721220001CN0100001N1+01101+00801101841ADDAA106000091AG14000GF100991001001999999001001MA1101801999999MD1510041+9999REMMET010CAVOK NSG?EQDQ01+000000PRSWM2
0058601010999991989010904004+35733-005900FM-15+0021GMTT V0200601N00721999991CY0099001N1+01101+00901999999ADDAG12999MA1101801999999REMMET005CAVOKEQDQ01+000000PRSWM2
0063601010999991989010905004+35733-005900FM-15+0021GMTT V0200601N00821999991CY0099001N1+01101+00901999999ADDAG12999MA1101801999999REMMET010CAVOK NSG?EQDQ01+000000PRSWM2
0160601010999991989010906004+35733-005900SY-MT+0021GMTT V0200601N00771220001CN0100001N1+01181+00951101831ADDAA106000091AG14000GA1031+006009059GF104991031051008001001021KA1120N+00961MA1101801999999MD1810011+9999REMSYN017333   20096 83620MET004NSG?EQDQ01+000000PRSWM2
0073601010999991989010907004+35733-005900FM-15+0021GMTT V0209991C00001220001CN0112001N1+01201+00901999999ADDAG12999GA1031+006009059MA1101801999999REMMET004NSG?EQDQ01+000000PRSWM2
0087601010999991989010908004+35733-005900FM-15+0021GMTT V0200401N00511069001CN0112001N1+01001+00801999999ADDAG12999GA1031+006009059GA2041+069009009MA1101901999999REMMET002G?EQDQ01+000000PRSWM2
0161601010999991989010909004+35733-005900SY-MT+0021GMTT V0200401N00411069001CN0100001N1+01131+00931102061ADDAA106000091AG14000GA1031+006009059GA2041+069009009GF106991031051008001001021MA1102001999999MD1210231+9999REMSYN017333   83620 85073MET002G?EQDQ01+000000PRSWM2
0073601010999991989010910004+35733-005900FM-15+0021GMTT V0200801N00211220001CN0112001N1+01301+01001999999ADDAG12999GA1031+006009059MA1102101999999REMMET004NSG?EQDQ01+000000PRSWM2
0089601010999991989010911004+35733-005900FM-15+0021GMTT V0200801N00101069001CN0112001N1+01401+01001999999ADDAG12999GA1031+006009059GA2041+069009009MA1102101999999REMMET004NSG?EQDQ01+000000PRSWM2
0163601010999991989010912004+35733-005900SY-MT+0021GMTT V0202001N00211030001CN0100001N1+01731+00741102151ADDAA106000091AG14000GA1041+006009059GA2031+030009039GF106991041051008001031021MA1102101999999MD1110091+9999REMSYN017333   84620 83360MET004NSG?EQDQ01+000000PRSWM2
0089601010999991989010913004+35733-005900FM-15+0021GMTT V0202001N00101030001CN0112001N1+01701+00701999999ADDAG12999GA1041+006009059GA2031+030009039MA1102101999999REMMET004NSG?EQDQ01+000000PRSWM2
0076601010999991989010914004+35733-005900FM-15+0021GMTT V0202801N00211006001CN0112001N1+01701+00901999999ADDAG12999GA1021+004809089GA2041+006009059MA1102001999999EQDQ01+000000PRSWM2
0141601010999991989010915004+35733-005900FM-12+0021GMTT V0202601N00211006001CN0100001N9+01681+01031102021ADDAA106000091AG14000GA1021+004809089GA2041+006009059GA3051+027009039GF107991051081004501031999MD1610131+9999REMSYN023333   82816 84620 85359
0092601010999991989010917004+35733-005900FM-15+0021GMTT V0203401N00311006001CN0112001N1+01501+01101999999ADDAG12999GA1021+004809089GA2041+006009059GA3051+027009039MA1101901999999EQDQ01+000000PRSWM2
0204601010999991989010918004+35733-005900SY-MT+0021GMTT V0200601N00311004801CN0100001N1+01501+01231101941ADDAA106000091AG14000GA1021+003009079GA2041+004809089GA3051+027009039GF107991051021004501071999KA1120M+01931MA1101901999999MD1710081+9999REMSYN029333   10193 82710 84816 85459MET004NSG?EQDQ01+000000PRSWM2
0105601010999991989010918304+35733-005900FM-15+0021GMTT V0200801N00211004801CN0080001N1+01501+01201999999ADDAG12999GA1021+003009079GA2041+004809089GA3051+027009039MA1101901999999REMMET004NSG?EQDQ01+000000PRSWM2
0105601010999991989010919004+35733-005900FM-15+0021GMTT V0200401N00311004801CN0080001N1+01401+01101999999ADDAG12999GA1021+003009079GA2041+004809089GA3041+027009039MA1102001999999REMMET004NSG?EQDQ01+000000PRSWM2
0089601010999991989010919304+35733-005900FM-15+0021GMTT V0200801N00211004801CN0080001N1+01401+01101999999ADDAG12999GA1021+003009079GA2031+004809089MA1102001999999REMMET004NSG?EQDQ01+000000PRSWM2
0076601010999991989010920004+35733-005900FM-15+0021GMTT V0200401N00211004801CN0080001N1+01301+00801999999ADDAG12999GA1021+003009079GA2031+004809089MA1102001999999EQDQ01+000000PRSWM2
0089601010999991989010920304+35733-005900FM-15+0021GMTT V0200801N00411004801CN0080001N1+01301+00801999999ADDAG12000GA1021+003009079GA2031+004809089MA1102001999999REMMET004NSG?EQDQ01+000000PRSWM2
0163601010999991989010921004+35733-005900SY-MT+0021GMTT V0200401N00461004801CN0080001N1+01121+00991102041ADDAA106000091AG14000GA1021+003009079GA2031+004809089GF106991041021004501071001MA1102001999999MD1210101+9999REMSYN017333   82710 83816MET004NSG?EQDQ01+000000PRSWM2
0089601010999991989010921304+35733-005900FM-15+0021GMTT V0200401N00461004801CN0080001N1+01101+01001999999ADDAG12999GA1021+003009079GA2031+004809089MA1102001999999REMMET004NSG?EQDQ01+000000PRSWM2
0089601010999991989010922004+35733-005900FM-15+0021GMTT V0201001N00411004801CN0080001N1+01101+01001999999ADDAG12999GA1021+003009079GA2031+004809089MA1102001999999REMMET004NSG?EQDQ01+000000PRSWM2
0089601010999991989010922304+35733-005900FM-15+0021GMTT V0201001N00411004801CN0080001N1+01101+01001999999ADDAG12999GA1021+003009079GA2031+004809089MA1102001999999REMMET004NSG?EQDQ01+000000PRSWM2
0089601010999991989010923004+35733-005900FM-15+0021GMTT V0200601N00511004801CN0080001N1+01201+01001999999ADDAG12999GA1021+003009079GA2031+004809089MA1101901999999REMMET004NSG?EQDQ01+000000PRSWM2
0163601010999991989011000004+35733-005900SY-MT+0021GMTT V0200401N00511027001CN0080001N1+01171+01041102041ADDAA106000091AG14000GA1041+004509089GA2061+027009039GF107991041021004501071999MA1102001999999MD1410001+9999REMSYN017333   84815 86459MET004NSG?EQDQ01+000000PRSWM2
0089601010999991989011000304+35733-005900FM-15+0021GMTT V0200401N00511027001CN0080001N1+01201+01001999999ADDAG11999GA1041+004509089GA2061+027009039MA1102001999999REMMET004NSG?EQDQ01+000000PRSWM2
0076601010999991989011001004+35733-005900FM-15+0021GMTT V0200401N00511027001CN0080001N1+01201+01001999999ADDAG11999GA1041+004509089GA2061+027009039MA1102001999999EQDQ01+000000PRSWM2
0087601010999991989011001304+35733-005900FM-15+0021GMTT V0200401N00511027001CN0080001N1+01201+01001999999ADDAG11999GA1041+004509089GA2061+027009039MA1102001999999REMMET002G?EQDQ01+000000PRSWM2
0089601010999991989011002004+35733-005900FM-15+0021GMTT V0200401N00261027001CN0080001N1+01201+01101999999ADDAG11999GA1041+004509089GA2061+027009039MA1102001999999REMMET004NSG?EQDQ01+000000PRSWM2
0163601010999991989011003004+35733-005900SY-MT+0021GMTT V0201001N00511027001CN0080001N1+01501+01031102021ADDAA106000091AG14000GA1041+004509089GA2061+027009039GF107991041021004501071999MA1102001999999MD1810021+9999REMSYN017333   84815 86459MET004NSG?EQDQ01+000000PRSWM2
0089601010999991989011003304+35733-005900FM-15+0021GMTT V0201001N00511027001CN0080001N1+01501+01001999999ADDAG12999GA1041+004509089GA2061+027009039MA1102001999999REMMET004NSG?EQDQ01+000000PRSWM2
0089601010999991989011004004+35733-005900FM-15+0021GMTT V0201201N00511027001CN0080001N1+01501+00801999999ADDAG12999GA1041+004509089GA2061+027009039MA1101901999999REMMET004NSG?EQDQ01+000000PRSWM2
0089601010999991989011005004+35733-005900FM-15+0021GMTT V0201201N00721027001CN0080001N1+01601+00401999999ADDAG12999GA1041+004509089GA2061+027009039MA1101901999999REMMET004NSG?EQDQ01+000000PRSWM2
0182601010999991989011006004+35733-005900SY-MT+0021GMTT V0201401N00771027001CN0080001N1+01621+00251101871ADDAA106000091AG14000GA1041+004509089GA2061+027009039GF107991041021004501071999KA1120N+01111MA1101801999999MD1810171+9999REMSYN023333   20111 84815 86459MET004NSG?EQDQ01+000000PRSWM2
0105601010999991989011007004+35733-005900FM-15+0021GMTT V0201401N00931027001CN0080001N1+01601+99999999999ADDAG12999GA1041+004509089GA2061+027009039MA1101801999999REMMET004NSG?EQDQ01+028623ATOD  Q02+000000PRSWM2
0089601010999991989011008004+35733-005900FM-15+0021GMTT V0201401N00931027001CN0080001N1+01701+00301999999ADDAG12999GA1041+004509089GA2061+027009039MA1101801999999REMMET004NSG?EQDQ01+000000PRSWM2
0130601010999991989011009004+35733-005900FM-12+0021GMTT V0201801N01231004501CN0080001N9+01551+00471101861ADDAG12003AY161031AY221031GA1061+004509089GA2041+027009049GF108991061021004501071999MD1510021+9999MW1611REMSYN017333   86815 84459
0084601010999991989011010004+35733-005900FM-15+0021GMTT V0201801N01241004501CN0080001N1+01401+00801999999ADDAG12999GA1051+004509089GA2041+027009039MA1101801999999MW1211OC101751REMMET004NSG?
0084601010999991989011011004+35733-005900FM-15+0021GMTT V0202001N01441004501CN0080001N1+01601+00801999999ADDAG12999GA1051+004509089GA2011+006009099MA1101801999999MW1211OC102111REMMET004NSG?
0180601010999991989011012004+35733-005900SY-MT+0021GMTT V0201801N01341004501CN0080001N1+01541+00871101861ADDAA106000591AG10001AY181061AY261061GA1051+004509089GA2011+006009099GF107991061091004501071999MA1101801999999MD1010001+9999MW1251MW2801OC101961REMSYN017333   85815 81920MET004NSG?
0084601010999991989011013004+35733-005900FM-15+0021GMTT V0202001N01441004501CN0080001N1+01501+00901999999ADDAG12999GA1051+004509089GA2011+006009099MA1101691999999MW1801OC101961REMMET004NSG?
0078601010999991989011014004+35733-005900FM-15+0021GMTT V0201801N01291004501CN0070001N1+01501+01101999999ADDAG12999GA1051+004509089GA2021+006009099MA1101591999999MW1601REMMET006NOSIG?
0072601010999991989011014454+35733-005900FM-16+0021GMTT V0202401N01031004501CN0050001N1+99999+99999999999ADDAG12999GA1031+002409089GA2051+004509089GA3021+006009099MW1951OC102061
0175601010999991989011015004+35733-005900SY-MT+0021GMTT V0202401N01031004501CN0050001N1+01441+01361101671ADDAG12005AY191031AY281031GA1031+002409089GA2051+004509089GA3021+006009099GF108991081091002501999999MA1101591999999MD1610191+9999MW1951OC102061REMSYN023333   83808 85815 82920
0100601010999991989011016004+35733-005900FM-15+0021GMTT V0202001N01131004501CN0050001N1+01501+01401999999ADDAG12999GA1031+002409089GA2051+004509089GA3021+006009099MA1101691999999MW1951OC101961REMMET004NSG?
0064601010999991989011016304+35733-005900FM-16+0021GMTT V0202001N00821004501CN0050001N1+99999+99999999999ADDAG12999GA1031+002409089GA2051+004509089GA3021+006009099MW1291
0092601010999991989011017004+35733-005900FM-15+0021GMTT V0202001N00931004501CN0050001N1+01501+01401999999ADDAG12999GA1031+002409089GA2051+004509089GA3011+006009099MA1101691999999MW1911REMMET004NSG?
0215601010999991989011018004+35733-005900SY-MT+0021GMTT V0202001N01031004501CN0050001N1+01451+01291101841ADDAA124014091AG19006AY191061AY291061GA1031+002409089GA2051+004509089GA3021+006009099GF108991081091002501999999KA1120M+01651MA1101801999999MD1210171+9999MW1801OC101801REMSYN029333   10165 83808 85815 82920MET004NSG?
0092601010999991989011019004+35733-005900FM-15+0021GMTT V0202001N00931004501CN0050001N1+01401+01301999999ADDAG12999GA1031+002409089GA2051+004509089GA3021+006009099MA1101801999999MW1801REMMET004NSG?
0064601010999991989011019054+35733-005900FM-16+0021GMTT V0202001N00931004501CN0050001N1+99999+99999999999ADDAG12999GA1031+002409089GA2051+004509089GA3021+006009099MW1951
0092601010999991989011019304+35733-005900FM-15+0021GMTT V0202001N00671004501CN0050001N1+01401+01301999999ADDAG12999GA1031+002409089GA2051+004509089GA3021+006009099MA1101801999999MW1951REMMET004NSG?
0092601010999991989011020004+35733-005900FM-15+0021GMTT V0202001N00931004501CN0050001N1+01401+01301999999ADDAG12999GA1031+002409089GA2051+004509089GA3021+006009099MA1101801999999MW1951REMMET004NSG?
0092601010999991989011020304+35733-005900FM-15+0021GMTT V0202001N00931004501CN0050001N1+01401+01301999999ADDAG12011GA1031+002409089GA2051+004509089GA3021+006009099MA1101801999999MW1951REMMET004NSG?
0170601010999991989011021004+35733-005900SY-MT+0021GMTT V0201601N00621018001CN0050001N1+01331+01281101981ADDAG12005AY191031AY291031GA1041+001509089GA2031+018009099GF108991081091001501999999MA1101901999999MD1110141+9999MW1951REMSYN023333   84805 86815 83920EQDQ01+000000PRSWM2
0079601010999991989011021304+35733-005900FM-15+0021GMTT V0201801N00411004501CN0050001N1+01301+01301999999ADDAG12999GA1041+001509089GA2061+004509089GA3031+006009099MA1101901999999MW1951
0079601010999991989011022004+35733-005900FM-15+0021GMTT V0201801N00821004501CN0112001N1+01301+01301999999ADDAG12999GA1041+001509089GA2061+004509089GA3031+006009099MA1102001999999MW1951
0079601010999991989011022304+35733-005900FM-15+0021GMTT V0202001N00721004501CN0112001N1+01301+01301999999ADDAG12999GA1041+001509089GA2061+004509089GA3031+006009099MA1102001999999MW1951
0079601010999991989011023004+35733-005900FM-15+0021GMTT V0201801N00721004501CN0050001N1+01301+01201999999ADDAG12999GA1041+001509089GA2061+004509089GA3031+006009099MA1102001999999MW1951
0079601010999991989011023304+35733-005900FM-15+0021GMTT V0201801N00821004501CN0112001N1+01301+01201999999ADDAG12011GA1041+001509089GA2061+004509089GA3031+006009099MA1102001999999MW1951
0197601010999991989011100004+35733-005900SY-MT+0021GMTT V0202001N00511004501CN0050001N1+01291+01241102021ADDAA106031091AG10005AY191061AY291061GA1041+001509089GA2061+004509089GA3031+006009099GF108991081091001501999999MA1102001999999MD1110041+9999MW1951REMSYN023333   84805 86815 83920EQDQ01+000000PRSWM2
0079601010999991989011100304+35733-005900FM-15+0021GMTT V0202001N00621004501CN0050001N1+01301+01201999999ADDAG11999GA1041+001509089GA2061+004509089GA3031+006009099MA1102001999999MW1951
0092601010999991989011101304+35733-005900FM-15+0021GMTT V0201801N00511004501CN0060001N1+01301+01201999999ADDAG11999GA1031+001509089GA2061+004509089GA3021+006009099MA1101901999999EQDQ01+000000PRSWM2
0079601010999991989011102004+35733-005900FM-15+0021GMTT V0201601N00621004501CN0060001N1+01301+01201999999ADDAG11999GA1031+001509089GA2061+004509089GA3021+006009099MA1101901999999MW1801
0079601010999991989011102304+35733-005900FM-15+0021GMTT V0201801N00511004501CN0050001N1+01301+01201999999ADDAG12014GA1031+001509089GA2061+004509089GA3021+006009099MA1101901999999MW1811
0145601010999991989011103004+35733-005900SY-MT+0021GMTT V0202201N00621004501CN0050001N1+01221+01061102021ADDAG12004GA1041+001509089GA2061+004509089GA3021+006009099GF108991081091001501999999MA1102001999999MD1510001+9999REMSYN023333   84805 86815 82920
0079601010999991989011104004+35733-005900FM-15+0021GMTT V0202201N00211004501CN0050001N1+01201+01101999999ADDAG12999GA1041+001509089GA2061+004509089GA3021+006009099MA1102001999999MW1811
0079601010999991989011104304+35733-005900FM-15+0021GMTT V0209991C00001004501CN0050001N1+01201+01101999999ADDAG12999GA1041+001509089GA2061+004509089GA3021+006009099MA1102001999999MW1811
0079601010999991989011105004+35733-005900FM-15+0021GMTT V0209991C00001004501CN0050001N1+01201+01201999999ADDAG12999GA1041+001509089GA2061+004509089GA3021+006009099MA1101901999999MW1801
0197601010999991989011106004+35733-005900SY-MT+0021GMTT V0201801N00411004501CN0050001N1+01221+01161101961ADDAA124079091AG19001AY181061AY291061GA1031+001509089GA2061+004509089GA3021+006009099GF108991081091001501999999KA1120N+01151MA1101901999999MD1810061+9999MW1251REMSYN029333   20115 83805 86815 82920
0092601010999991989011107004+35733-005900FM-15+0021GMTT V0201601N00411004501CN9999999N9+01201+01201999999ADDAG12999GA1031+001509089GA2071+004509089MA1101901999999EQDQ01+000002VOVAR Q02+000000PRSWM2
0076601010999991989011109004+35733-005900FM-15+0021GMTT V0202001N00511004501CN0060001N1+01301+01101999999ADDAG12009GA1031+001509089GA2071+004509089MA1102001999999MW1611REMMET004NSG?
0076601010999991989011110004+35733-005900FM-15+0021GMTT V0201801N00511004801CN0080001N1+01301+01101999999ADDAG12999GA1021+001509089GA2061+004809089MA1102001999999MW1211REMMET004NSG?
0089601010999991989011111004+35733-005900FM-15+0021GMTT V0201801N00821004501CN0112001N1+01401+01201999999ADDAG12999GA1021+001509089GA2061+004509089MA1102001999999REMMET004NSG?EQDQ01+000000PRSWM2
0185601010999991989011112004+35733-005900SY-MT+0021GMTT V0201801N00931004501CN0150001N1+01531+01181102021ADDAA106001091AG10001AY161061AY221061GA1021+003009089GA2051+004509089GF106991061081004501001001MA1102001999999MD1010021+9999MW1011REMSYN017333   82810 85815MET004NSG?EQDQ01+000000PRSWM2
0091601010999991989011113004+35733-005900FM-15+0021GMTT V0202001N00771004501CN0112001N1+01501+01201999999ADDAG12999GA1021+003009089GA2051+004509089MA1102001999999REMMET006NOSIG?EQDQ01+000000PRSWM2
0094601010999991989011114004+35733-005900FM-15+0021GMTT V0202001N00881004801CN0112001N1+99999+99999999999ADDAG12999GA1021+003909089GA2051+004809059GA3061+004809999REMMET00812 1019?EQDQ01+000000PRSWM2
0153601010999991989011115004+35733-005900SY-MT+0021GMTT V0201801N00771004801CN0150001N1+01551+00981101951ADDAA106000091AG14000GA1021+003909089GA2041+004809059GF107991051081004501031021MA1101901999999MD1710071+9999REMSYN017333   82813 84816EQDQ01+000000PRSWM2
0089601010999991989011116004+35733-005900FM-15+0021GMTT V0202001N00821004801CN0112001N1+01601+01101999999ADDAG12999GA1021+003009089GA2051+004809089MA1101901999999REMMET004NSG?EQDQ01+000000PRSWM2
0089601010999991989011116304+35733-005900FM-15+0021GMTT V0202001N00721004801CN0112001N1+01601+01101999999ADDAG12999GA1021+003909089GA2051+004809089MA1101901999999REMMET004NSG?EQDQ01+000000PRSWM2
0089601010999991989011117004+35733-005900FM-15+0021GMTT V0202001N00671004801CN0112001N1+01501+01101999999ADDAG12999GA1021+003909089GA2051+004809059MA1101901999999REMMET004NSG?EQDQ01+000000PRSWM2
0089601010999991989011117304+35733-005900FM-15+0021GMTT V0202001N00721004801CN0112001N1+01501+01101999999ADDAG12000GA1021+003909089GA2051+004809089MA1101901999999REMMET004NSG?EQDQ01+000000PRSWM2
0073601010999991989011118004+35733-005900FM-15+0021GMTT V0201801N00621220001CN0112001N1+01501+01001999999ADDAG12000GA1041+004809089MA1101901999999REMMET004NSG?EQDQ01+000000PRSWM2
0063601010999991989011119304+35733-005900FM-15+0021GMTT V0201801N00311220001CN0112001N1+99999+99999999999ADDAG12999GA1041+999999089REMMET00910 1020 ?EQDQ01+000000PRSWM2
0073601010999991989011120004+35733-005900FM-15+0021GMTT V0201801N00511220001CN0112001N1+01401+01101999999ADDAG12999GA1041+004809089MA1102001999999REMMET004NSG?EQDQ01+000000PRSWM2
0073601010999991989011120304+35733-005900FM-15+0021GMTT V0201801N00511220001CN0112001N1+01401+01101999999ADDAG12000GA1031+004809089MA1102001999999REMMET004NSG?EQDQ01+000000PRSWM2
0067601010999991989011123004+35733-005900FM-15+0021GMTT V0202001N00411220001CN0112001N1+01301+99999999999ADDAG12999GA1041+004809089REMMET013101020 NOSIG?EQDQ01+000000PRSWM2
0075601010999991989011123304+35733-005900FM-15+0021GMTT V0202001N00411220001CN0112001N1+01301+01001999999ADDAG12000GA1041+004809089MA1102001999999REMMET006NOSIG?EQDQ01+000000PRSWM2
0143601010999991989011200004+35733-005900SY-MT+0021GMTT V0202001N00621004801CN0100001N1+01371+00881102151ADDAA106000091AG14000GA1051+004809089GF106991051021004501031001MA1102101999999MD1310091+9999REMSYN011333   85816MET006NOSIG?EQDQ01+000000PRSWM2
0075601010999991989011200304+35733-005900FM-15+0021GMTT V0202001N00621004801CN0112001N1+01401+00901999999ADDAG11999GA1051+004809089MA1102101999999REMMET006NOSIG?EQDQ01+000000PRSWM2
0075601010999991989011201004+35733-005900FM-15+0021GMTT V0201801N00721004801CN0112001N1+01401+00901999999ADDAG11999GA1051+004809089MA1102101999999REMMET006NOSIG?EQDQ01+000000PRSWM2
0097601010999991989011203004+35733-005900FM-12+0021GMTT V0202001N00721004801CN0100001N9+01321+00881102171ADDAA106000091AG14000GA1051+004809089GF106991051081004501031001MD1310021+9999REMSYN011333   85816
0138601010999991989011206004+35733-005900FM-12+0021GMTT V0201801N00361004801CN0100001N9+01151+00761102231ADDAA124001091AG10001AY181061AY221061GA1061+004809089GF106991061021004501031999KA1120N+01121MD1310071+9999MW1031REMSYN017333   20112 86816
0130601010999991989011209004+35733-005900FM-12+0021GMTT V0200601N00461006001CN0100001N9+01051+00891102471ADDAG12001AY161031AY261031GA1021+003909089GA2051+006009059GF108991051081004501031999MD1110241+9999MW1211REMSYN017333   82813 85620
0160601010999991989011212004+35733-005900SY-MT+0021GMTT V0201201N00211006001CN0150001N1+01451+00851102631ADDAA106001091AG19000AY121061AY261061GA1011+004809089GA2051+006009059GF106991051081004501031001MD1110161+9999MW1021REMSYN017333   81816 85620EQDQ01+000000PRSWM2
0092601010999991989011213004+35733-005900FM-15+0021GMTT V0200801N00461006001CN0112001N1+01501+00901999999ADDAG12999GA1011+004809089GA2051+006009059GA3011+006909099MA1102511999999EQDQ01+000000PRSWM2
0105601010999991989011214004+35733-005900FM-15+0021GMTT V0201201N00411006001CN0112001N1+01501+00901999999ADDAG12999GA1011+004809089GA2051+006009059GA3011+006909099MA1102511999999REMMET004NSG?EQDQ01+000000PRSWM2
0163601010999991989011215004+35733-005900SY-MT+0021GMTT V0209991C00001006001CN0150001N1+01441+00931102591ADDAA106000091AG14000GA1011+004809089GA2051+006009059GF106991051081004501031001MA1102511999999MD1510041+9999REMSYN017333   81816 85620MET004NSG?EQDQ01+000000PRSWM2
0089601010999991989011216004+35733-005900FM-15+0021GMTT V0201001N00211006001CN0112001N1+01501+00901999999ADDAG12999GA1011+004809089GA2051+006009059MA1102511999999REMMET004NSG?EQDQ01+000000PRSWM2
0089601010999991989011217004+35733-005900FM-15+0021GMTT V0200601N00511220001CN0112001N1+01401+01001999999ADDAG12999GA1011+004809089GA2041+006009059MA1102511999999REMMET004NSG?EQDQ01+000000PRSWM2
0089601010999991989011217304+35733-005900FM-15+0021GMTT V0200601N00621220001CN0112001N1+01401+01001999999ADDAG12000GA1011+004809089GA2041+006009059MA1102511999999REMMET004NSG?EQDQ01+000000PRSWM2
0087601010999991989011219004+35733-005900FM-15+0021GMTT V0201001N00261220001CN0112001N1+01201+01001999999ADDAG12999GA1011+004809089GA2031+006009059MA1102711999999REMMET002G?EQDQ01+000000PRSWM2
0089601010999991989011219304+35733-005900FM-15+0021GMTT V0201001N00261220001CN0112001N1+01201+01001999999ADDAG12999GA1011+004809089GA2031+006009059MA1102711999999REMMET004NSG?EQDQ01+000000PRSWM2
0089601010999991989011220004+35733-005900FM-15+0021GMTT V0201001N00411220001CN0112001N1+01201+01001999999ADDAG12999GA1011+004809089GA2031+006009059MA1102711999999REMMET004NSG?EQDQ01+000000PRSWM2
0089601010999991989011220304+35733-005900FM-15+0021GMTT V0201001N00671220001CN0112001N1+01201+01001999999ADDAG12000GA1011+004809089GA2031+006009059MA1102711999999REMMET004NSG?EQDQ01+000000PRSWM2
0131601010999991989011221004+35733-005900SY-MT+0021GMTT V0201001N00931220001CN0100001N1+01241+00851102781ADDAA106000091AG14000GA1021+006009059GF103991021051008001031001MA1102711999999MD1210121+9999REMSYN011333   82620EQDQ01+000000PRSWM2
0060601010999991989011221304+35733-005900FM-15+0021GMTT V0201001N00511220001CN0112001N1+01201+00901999999ADDAG12999GA1021+006009059MA1102711999999EQDQ01+000000PRSWM2
0060601010999991989011222004+35733-005900FM-15+0021GMTT V0201001N00511220001CN0112001N1+01201+00901999999ADDAG12999GA1021+006009059MA1102811999999EQDQ01+000000PRSWM2
0060601010999991989011222304+35733-005900FM-15+0021GMTT V0201001N00621220001CN0112001N1+01201+00901999999ADDAG12999GA1021+006009059MA1102811999999EQDQ01+000000PRSWM2
0060601010999991989011223004+35733-005900FM-15+0021GMTT V0201001N00721220001CN0112001N1+01201+00901999999ADDAG12999GA1021+006009059MA1102811999999EQDQ01+000000PRSWM2
0060601010999991989011223304+35733-005900FM-15+0021GMTT V0201001N00931220001CN0112001N1+01201+00901999999ADDAG12000GA1021+006009059MA1102811999999EQDQ01+000000PRSWM2
0147601010999991989011300004+35733-005900SY-MT+0021GMTT V0200801N00821220001CN0100001N1+01201+00911102871ADDAA106000091AG14000GA1021+006009089GF103991999051008001001001MA1102811999999MD1110091+9999REMSYN011333   82820EQDQ01+000022SCOTLCQ02+000000PRSWM2
0060601010999991989011300304+35733-005900FM-15+0021GMTT V0200801N00621220001CN0112001N1+01201+00901999999ADDAG11999GA1021+006009059MA1102811999999EQDQ01+000000PRSWM2
0060601010999991989011301004+35733-005900FM-15+0021GMTT V0200801N00621220001CN0112001N1+01201+00901999999ADDAG11999GA1021+006009059MA1102811999999EQDQ01+000000PRSWM2
0048601010999991989011301304+35733-005900FM-15+0021GMTT V0201001N00511220001CN0112001N1+01201+00901999999ADDAG11999REMMET0101(0EE1028?EQDQ01+000000PRSWM2
0060601010999991989011302004+35733-005900FM-15+0021GMTT V0209999999999220001CN0112001N1+01201+00901999999ADDAG11999GA1021+006009059MA1102811999999EQDQ01+000000PRSWM2
0060601010999991989011302304+35733-005900FM-15+0021GMTT V0201001N00721220001CN0112001N1+01201+00901999999ADDAG12000GA1021+006009059MA1102811999999EQDQ01+000000PRSWM2
0135601010999991989011303004+35733-005900SY-MT+0021GMTT V0201001N00511220001CN0100001N1+01151+00851102881ADDAA106000091AG14000GA1021+006009059GF102991021051008001001001MD1310011+9999REMSYN011333   82620MET013EE12/09 1028?EQDQ01+000000PRSWM2
0060601010999991989011303304+35733-005900FM-15+0021GMTT V0201001N00721220001CN0112001N1+01201+00901999999ADDAG12999GA1021+006009059MA1102811999999EQDQ01+000000PRSWM2
0060601010999991989011304004+35733-005900FM-15+0021GMTT V0201001N00721220001CN0112001N1+01101+00801999999ADDAG12999GA1021+006009059MA1102911999999EQDQ01+000000PRSWM2
0156601010999991989011306004+35733-005900SY-MT+0021GMTT V0200601N00721220001CN0100001N1+01151+00961102881ADDAA124001091AG10000GA1021+006009059GF102991021051008001001001KA1120N+01101MA1102811999999MD1010001+9999MW1001REMSYN017333   20110 82620EQDQ01+000000PRSWM2
0060601010999991989011306304+35733-005900FM-15+0021GMTT V0201001N00721220001CN0112001N1+01201+01001999999ADDAG12999GA1021+006009059MA1102811999999EQDQ01+000000PRSWM2
0060601010999991989011307004+35733-005900FM-15+0021GMTT V0201001N00931220001CN0112001N1+01201+00901999999ADDAG12999GA1021+006009059MA1102811999999EQDQ01+000000PRSWM2
0089601010999991989011308004+35733-005900FM-15+0021GMTT V0201001N00621220001CN0112001N1+01301+00901999999ADDAG12999GA1021+006009089GA2031+069009009MA1102911999999REMMET004NSG?EQDQ01+000000PRSWM2
0163601010999991989011309004+35733-005900SY-MT+0021GMTT V0201001N00621220001CN0150001N1+01271+00941102961ADDAA106000091AG14000GA1021+006009089GA2031+069009009GF103991021021008001001021MA1102911999999MD1310081+9999REMSYN017333   82820 83073MET004NSG?EQDQ01+000000PRSWM2
0097601010999991989011310004+35733-005900FM-15+0021GMTT V0201001N01131220001CN0112001N1+01401+01001999999ADDAG12999GA1021+006009089GA2031+069009009MA1102911999999OC101651REMMET004NSG?EQDQ01+000000PRSWM2
0097601010999991989011311004+35733-005900FM-15+0021GMTT V0201201N01131220001CN0112001N1+01701+00901999999ADDAG12999GA1021+006009089GA2031+069009009MA1103011999999OC101651REMMET004NSG?EQDQ01+000000PRSWM2
0171601010999991989011312004+35733-005900SY-MT+0021GMTT V0201201N01131220001CN0150001N1+01681+00951103071ADDAA106000091AG14000GA1021+006009089GA2031+069009009GF103991021021008001001021MA1103011999999MD1110111+9999OC101651REMSYN017333   82820 83073MET004NSG?EQDQ01+000000PRSWM2
0097601010999991989011313004+35733-005900FM-15+0021GMTT V0201201N01131220001CN0112001N1+01701+01001999999ADDAG12999GA1021+006009089GA2031+069009009MA1103011999999OC101651REMMET004NSG?EQDQ01+000000PRSWM2
0097601010999991989011313304+35733-005900FM-15+0021GMTT V0201001N01131220001CN0112001N1+01701+01001999999ADDAG12999GA1021+006009089GA2031+069009009MA1103011999999OC101651REMMET004NSG?EQDQ01+000000PRSWM2
0097601010999991989011314004+35733-005900FM-15+0021GMTT V0201201N01131069001CN0112001N1+01701+01001999999ADDAG12999GA1021+006009089GA2041+069009009MA1102911999999OC101651REMMET004NSG?EQDQ01+000000PRSWM2
0163601010999991989011315004+35733-005900SY-MT+0021GMTT V0201001N01031220001CN0150001N1+01701+00891102921ADDAA106000091AG14000GA1021+006009089GA2031+069009009GF104991021021008001001021MA1102911999999MD1810151+9999REMSYN017333   82820 83073MET004NSG?EQDQ01+000000PRSWM2
0097601010999991989011316004+35733-005900FM-15+0021GMTT V0201201N00821069001CN0112001N1+01601+00901999999ADDAG12999GA1031+006009089GA2031+069009009MA1102911999999OC101341REMMET004NSG?EQDQ01+000000PRSWM2
0089601010999991989011317004+35733-005900FM-15+0021GMTT V0200601N00721069001CN0112001N1+01601+00901999999ADDAG12999GA1031+006009089GA2031+069009009MA1103011999999REMMET004NSG?EQDQ01+000000PRSWM2
0089601010999991989011317304+35733-005900FM-15+0021GMTT V0200601N00721069001CN0112001N1+01601+00901999999ADDAG12000GA1031+006009089GA2031+069009009MA1103011999999REMMET004NSG?EQDQ01+000000PRSWM2
0160601010999991989011318004+35733-005900SY-MT+0021GMTT V0200601N00621220001CN0100001N1+01411+00941103031ADDAA106000091AG14000GA1031+006009089GF104991031021008001001021KA1120M+01751MA1103011999999MD1210111+9999REMSYN017333   10175 83820MET004NSG?EQDQ01+000000PRSWM2
0073601010999991989011319004+35733-005900FM-15+0021GMTT V0200801N00621220001CN0112001N1+01401+00901999999ADDAG12999GA1021+006009089MA1103011999999REMMET004NSG?EQDQ01+000000PRSWM2
0073601010999991989011319304+35733-005900FM-15+0021GMTT V0200801N00261220001CN0112001N1+01401+00901999999ADDAG12999GA1021+006009089MA1103011999999REMMET004NSG?EQDQ01+000000PRSWM2
0073601010999991989011320004+35733-005900FM-15+0021GMTT V0200801N00311220001CN0112001N1+01301+00901999999ADDAG12999GA1021+006009089MA1103011999999REMMET004NSG?EQDQ01+000000PRSWM2
0141601010999991989011321004+35733-005900SY-MT+0021GMTT V0201201N00311220001CN0100001N1+01301+00881103201ADDAA106000091AG14000GA1021+006009089GF103991021021008001001021MA1103181999999MD1210171+9999REMSYN011333   82820MET004NSG?EQDQ01+000000PRSWM2
0073601010999991989011321304+35733-005900FM-15+0021GMTT V0201201N00151220001CN0112001N1+01301+00901999999ADDAG12999GA1021+006009089MA1103181999999REMMET004NSG?EQDQ01+000000PRSWM2
0073601010999991989011322004+35733-005900FM-15+0021GMTT V0201201N00621220001CN0112001N1+01201+00801999999ADDAG12999GA1021+006009089MA1103181999999REMMET004NSG?EQDQ01+000000PRSWM2
0073601010999991989011322304+35733-005900FM-15+0021GMTT V0201201N00771220001CN0112001N1+01201+00801999999ADDAG12999GA1021+006009089MA1103181999999REMMET004NSG?EQDQ01+000000PRSWM2
0073601010999991989011323004+35733-005900FM-15+0021GMTT V0201201N00571220001CN0112001N1+01301+00801999999ADDAG12999GA1021+006009089MA1103181999999REMMET004NSG?EQDQ01+000000PRSWM2
0074601010999991989011323304+35733-005900FM-15+0021GMTT V0200801N00621220001CN0112001N1+01301+00901999999ADDAG12000GA1021+006009089MA1103181999999REMMET005NSG+?EQDQ01+000000PRSWM2
0141601010999991989011400004+35733-005900SY-MT+0021GMTT V0201001N00621220001CN0100001N1+01271+00931103241ADDAA106000091AG14000GA1011+006009089GF102991011021008001001021MA1103181999999MD1310041+9999REMSYN011333   81820MET004NSG?EQDQ01+000000PRSWM2
0073601010999991989011400304+35733-005900FM-15+0021GMTT V0201001N00671220001CN0112001N1+01301+00901999999ADDAG11999GA1011+006009089MA1103181999999REMMET004NSG?EQDQ01+000000PRSWM2
0073601010999991989011401004+35733-005900FM-15+0021GMTT V0200801N00771220001CN0112001N1+01301+00901999999ADDAG11999GA1011+006009089MA1103181999999REMMET004NSG?EQDQ01+000000PRSWM2
0073601010999991989011401304+35733-005900FM-15+0021GMTT V0201201N00461220001CN0112001N1+01301+00901999999ADDAG11999GA1011+006009089MA1103181999999REMMET004NSG?EQDQ01+000000PRSWM2
0064601010999991989011402004+35733-005900FM-15+0021GMTT V0209999999999220001CN0112001N1+01201+00801999999ADDAG11999GA1011+006009089REMMET01010132 NSG?EQDQ01+000000PRSWM2
0073601010999991989011402304+35733-005900FM-15+0021GMTT V0201001N00931220001CN0112001N1+01201+00801999999ADDAG12000GA1011+006009089MA1103181999999REMMET004NSG?EQDQ01+000000PRSWM2
0141601010999991989011403004+35733-005900SY-MT+0021GMTT V0201001N00931220001CN0100001N1+01211+00871103191ADDAA106000091AG14000GA1011+006009089GF102991011021008001001021MA1103121999999MD1810051+9999REMSYN011333   81820MET004NSG?EQDQ01+000000PRSWM2
0060601010999991989011404304+35733-005900FM-15+0021GMTT V0201001N00771220001CN0112001N1+01201+00901999999ADDAG12999GA1011+006009089MA1103121999999EQDQ01+000000PRSWM2
0073601010999991989011405004+35733-005900FM-15+0021GMTT V0201001N00511220001CN0112001N1+01201+00901999999ADDAG12999GA1011+006009089MA1103121999999REMMET004NSG?EQDQ01+000000PRSWM2
0073601010999991989011405304+35733-005900FM-15+0021GMTT V0200801N00511220001CN0112001N1+01201+00901999999ADDAG12000GA1011+006009089MA1103121999999REMMET004NSG?EQDQ01+000000PRSWM2
0160601010999991989011406004+35733-005900SY-MT+0021GMTT V0200801N00771220001CN0100001N1+01191+00871103161ADDAA106000091AG14000GA1011+006009089GF101991011021008001001001KA1120N+01141MA1103121999999MD1710031+9999REMSYN017333   20114 81820MET004NSG?EQDQ01+000000PRSWM2
0073601010999991989011407004+35733-005900FM-15+0021GMTT V0201001N00821220001CN0112001N1+01201+00901999999ADDAG12999GA1011+006009089MA1103121999999REMMET004NSG?EQDQ01+000000PRSWM2
0073601010999991989011408004+35733-005900FM-15+0021GMTT V0200801N01031220001CN0112001N1+01301+00901999999ADDAG12999GA1021+004509089MA1103181999999REMMET004NSG?EQDQ01+000000PRSWM2
0163601010999991989011409004+35733-005900SY-MT+0021GMTT V0200801N00821006001CN0150001N1+01221+00931103311ADDAA106000091AG14000GA1021+004509089GA2031+006009059GF105991041081004501001021MA1103291999999MD1310151+9999REMSYN017333   82815 83620MET004NSG?EQDQ01+000000PRSWM2
0089601010999991989011409304+35733-005900FM-15+0021GMTT V0200801N00771006001CN0112001N1+01201+00901999999ADDAG12999GA1021+004509089GA2031+006009059MA1103291999999REMMET004NSG?EQDQ01+000000PRSWM2
0089601010999991989011410004+35733-005900FM-15+0021GMTT V0209999999999006001CN0112001N1+01501+01001999999ADDAG12999GA1021+004509089GA2031+006009059MA1103291999999REMMET004NSG?EQDQ01+000000PRSWM2
0109601010999991989011411004+35733-005900FM-15+0021GMTT V0200801N01131006001CN0112001N1+01501+01001999999ADDAG12999GA1021+004509089GA2031+006009059MA1103291999999REMMET024NSG?  7@@@@@*@@@@@@@@@%AEQDQ01+000000PRSWM2
0163601010999991989011412004+35733-005900SY-MT+0021GMTT V0201001N01291006001CN0150001N1+01641+00971103391ADDAA106000091AG14000GA1021+004509089GA2031+006009059GF105991051081004501001021MA1103291999999MD1110081+9999REMSYN017333   82815 83620MET004NSG?EQDQ01+000000PRSWM2
0089601010999991989011413004+35733-005900FM-15+0021GMTT V0201001N01291006001CN0112001N1+01701+01001999999ADDAG12999GA1021+004509089GA2031+006009059MA1103291999999REMMET004NSG?EQDQ01+000000PRSWM2
0075601010999991989011414004+35733-005900FM-15+0021GMTT V0201001N01131220001CN0112001N1+01701+01001999999ADDAG12999GA1031+004509089MA1103291999999REMMET006NOSIG?EQDQ01+000000PRSWM2
0129601010999991989011415004+35733-005900SY-MT+0021GMTT V0201001N01131220001CN0150001N1+01661+01001103251ADDAA106000091AG14000GA1031+004509089GF103991031021004501001021MA1103181999999REMSYN011333   83815MET006NOSIG?EQDQ01+000000PRSWM2
0075601010999991989011415304+35733-005900FM-15+0021GMTT V0201001N01131220001CN0112001N1+01701+01001999999ADDAG12999GA1031+004509089MA1103181999999REMMET006NOSIG?EQDQ01+000000PRSWM2
0075601010999991989011416004+35733-005900FM-15+0021GMTT V0201001N01031220001CN0112001N1+01601+00901999999ADDAG12999GA1031+004509089MA1103181999999REMMET006NOSIG?EQDQ01+000000PRSWM2
0075601010999991989011417004+35733-005900FM-15+0021GMTT V0201001N00821220001CN0112001N1+01501+01001999999ADDAG12999GA1031+004509089MA1103181999999REMMET006NOSIG?EQDQ01+000000PRSWM2
0162601010999991989011418004+35733-005900SY-MT+0021GMTT V0201001N00511220001CN0150001N1+01341+00861103341ADDAA106000091AG14000GA1021+004509089GF103991021021004501001021KA1120M+01711MA1103291999999MD1310081+9999REMSYN017333   10171 82815MET006NOSIG?EQDQ01+000000PRSWM2
0073601010999991989011418304+35733-005900FM-15+0021GMTT V0200601N00721220001CN0112001N1+01301+00901999999ADDAG12999GA1021+004509089MA1103291999999REMMET004NSG?EQDQ01+000000PRSWM2
0073601010999991989011419004+35733-005900FM-15+0021GMTT V0201201N01031220001CN0112001N1+01301+00701999999ADDAG12999GA1031+004509089MA1103291999999REMMET004NSG?EQDQ01+000000PRSWM2
0073601010999991989011419304+35733-005900FM-15+0021GMTT V0200801N00821220001CN0112001N1+01301+00701999999ADDAG12999GA1031+004509089MA1103291999999REMMET004NSG?EQDQ01+000000PRSWM2
0073601010999991989011420004+35733-005900FM-15+0021GMTT V0200601N00721220001CN0112001N1+01201+00701999999ADDAG12999GA1031+004509089MA1103291999999REMMET004NSG?EQDQ01+000000PRSWM2
0073601010999991989011420304+35733-005900FM-15+0021GMTT V0200801N00621220001CN0112001N1+01201+00701999999ADDAG12000GA1031+004509089MA1103291999999REMMET004NSG?EQDQ01+000000PRSWM2
0141601010999991989011421004+35733-005900SY-MT+0021GMTT V0200801N00621220001CN0100001N1+01181+00841103371ADDAA106000091AG14000GA1021+004509089GF103991021021004501001021MA1103291999999MD1310041+9999REMSYN011333   82815MET004NSG?EQDQ01+000000PRSWM2
0073601010999991989011421304+35733-005900FM-15+0021GMTT V0200801N00621220001CN0112001N1+01201+00801999999ADDAG12999GA1021+004509089MA1103291999999REMMET004NSG?EQDQ01+000000PRSWM2
0073601010999991989011422004+35733-005900FM-15+0021GMTT V0200801N00931220001CN0112001N1+01301+00901999999ADDAG12999GA1021+004509089MA1103291999999REMMET004NSG?EQDQ01+000000PRSWM2
0073601010999991989011422304+35733-005900FM-15+0021GMTT V0200801N00621220001CN0112001N1+01301+00901999999ADDAG12999GA1021+004509089MA1103291999999REMMET004NSG?EQDQ01+000000PRSWM2
0063601010999991989011423004+35733-005900FM-15+0021GMTT V0200801N00721999991CY0099001N1+01201+00801999999ADDAG12999MA1103291999999REMMET010CAVOK NSG?EQDQ01+000000PRSWM2
0063601010999991989011423304+35733-005900FM-15+0021GMTT V0200801N00621999991CY0099001N1+01201+00801999999ADDAG12000MA1103291999999REMMET010CAVOK NSG?EQDQ01+000000PRSWM2
0114601010999991989011500004+35733-005900SY-MT+0021GMTT V0201001N00511220001CN0100001N1+01301+00791103321ADDAA106000091AG14000GF100991001001999999001001MA1103291999999MD1810101+9999REMMET010CAVOK NSG?EQDQ01+000000PRSWM2
0063601010999991989011500304+35733-005900FM-15+0021GMTT V0201001N00621999991CY0099001N1+01301+00801999999ADDAG11999MA1103291999999REMMET010CAVOK NSG?EQDQ01+000000PRSWM2
0063601010999991989011501004+35733-005900FM-15+0021GMTT V0201001N00511999991CY0099001N1+01201+00801999999ADDAG11999MA1103291999999REMMET010CAVOK NSG?EQDQ01+000000PRSWM2
0063601010999991989011501304+35733-005900FM-15+0021GMTT V0201001N00771999991CY0099001N1+01201+00801999999ADDAG11999MA1103291999999REMMET010CAVOK NSG?EQDQ01+000000PRSWM2
0063601010999991989011502004+35733-005900FM-15+0021GMTT V0201001N00721999991CY0099001N1+01201+00801999999ADDAG11999MA1103291999999REMMET010CAVOK NSG?EQDQ01+000000PRSWM2
0063601010999991989011502304+35733-005900FM-15+0021GMTT V0201001N00721999991CY0099001N1+01201+00801999999ADDAG12000MA1103291999999REMMET010CAVOK NSG?EQDQ01+000000PRSWM2
0114601010999991989011503004+35733-005900SY-MT+0021GMTT V0201001N00511220001CN0100001N1+01231+00821103281ADDAA106000091AG14000GF100991001001999999001001MA1103181999999MD1810041+9999REMMET010CAVOK NSG?EQDQ01+000000PRSWM2
0063601010999991989011503304+35733-005900FM-15+0021GMTT V0201001N00511999991CY0099001N1+01201+00801999999ADDAG12999MA1103181999999REMMET010CAVOK NSG?EQDQ01+000000PRSWM2
0063601010999991989011504004+35733-005900FM-15+0021GMTT V0201001N00411999991CY0099001N1+01201+00801999999ADDAG12999MA1103181999999REMMET010CAVOK NSG?EQDQ01+000000PRSWM2
0063601010999991989011504304+35733-005900FM-15+0021GMTT V0201001N00101999991CY0099001N1+01201+00801999999ADDAG12999MA1103181999999REMMET010CAVOK NSG?EQDQ01+000000PRSWM2
0063601010999991989011505004+35733-005900FM-15+0021GMTT V0201001N00101999991CY0099001N1+01101+00801999999ADDAG12999MA1103181999999REMMET010CAVOK NSG?EQDQ01+000000PRSWM2
0063601010999991989011505304+35733-005900FM-15+0021GMTT V0201001N00411999991CY0099001N1+01101+00801999999ADDAG12000MA1103181999999REMMET010CAVOK NSG?EQDQ01+000000PRSWM2
0144601010999991989011506004+35733-005900SY-MT+0021GMTT V0201001N00621220001CN0100001N1+01151+00801103181ADDAA106000091AG14000GF100991001001999999001001KA1120N+00981MA1103121999999MD1810101+9999REMSYN011333   20098MET010CAVOK NSG?EQDQ01+000000PRSWM2
0063601010999991989011506304+35733-005900FM-15+0021GMTT V0201001N00511999991CY0099001N1+01201+00801999999ADDAG12999MA1103121999999REMMET010CAVOK NSG?EQDQ01+000000PRSWM2
0073601010999991989011507004+35733-005900FM-15+0021GMTT V0201001N00511220001CN0112001N1+01201+00801999999ADDAG12999GA1021+004509089MA1103121999999REMMET004NSG?EQDQ01+000000PRSWM2
0073601010999991989011507304+35733-005900FM-15+0021GMTT V0201001N00101220001CN0112001N1+01201+00801999999ADDAG12999GA1021+004509089MA1103121999999REMMET004NSG?EQDQ01+000000PRSWM2
0073601010999991989011508004+35733-005900FM-15+0021GMTT V0202201N00311220001CN0112001N1+01101+00801999999ADDAG12999GA1041+004509089MA1103121999999REMMET004NSG?EQDQ01+000000PRSWM2
0147601010999991989011509004+35733-005900SY-MT+0021GMTT V0201001N00621220001CN0100001N1+01151+00851103241ADDAA106000091AG14000GA1031+004509089GF104991031021004501031001MA1103181999999MD1310061+9999MW1001REMSYN011333   83815MET004NSG?EQDQ01+000000PRSWM2
0194601010999991989011510004+35733-005900SY-MT+0021GMTT V0200801N01231004201CN0100001N1+01251+00841999999ADDAA199999929AG13999GA1021+004509089GA2011+006009099GF105991051031004501001001KA1120M+01551MA1103291999999MD1410001+9999MW1021REMSYN029333   10155 82815 8362/ 81923MET004NSG?EQDQ01+000000PRSWM2
0089601010999991989011511004+35733-005900FM-15+0021GMTT V0201201N00511004501CN0112001N1+01401+01001999999ADDAG12999GA1051+004509089GA2011+006009099MA1103291999999REMMET004NSG?EQDQ01+000000PRSWM2
0119601010999991989011512004+35733-005900FM-12+0021GMTT V0201201N01341004501CN0100001N9+01511+00991103231ADDAA106000091AG14000GA1051+004509089GA2011+006009099GF105991051031004501001001MD1010011+9999REMSYN017333   85815 81920
0097601010999991989011513004+35733-005900FM-15+0021GMTT V0201001N01491006001CN0112001N1+01501+00901999999ADDAG12999GA1041+004509089GA2011+006009099MA1103121999999OC102011REMMET004NSG?EQDQ01+000000PRSWM2
0097601010999991989011514004+35733-005900FM-15+0021GMTT V0201001N01441006001CN0112001N1+01501+00901999999ADDAG12999GA1021+004509089GA2031+006009059MA1103011999999OC101961REMMET004NSG?EQDQ01+000000PRSWM2
0171601010999991989011515004+35733-005900SY-MT+0021GMTT V0201001N01291220001CN0100001N1+01501+00951103041ADDAA106000091AG14000GA1021+004809089GA2031+006009059GF104991041081004501001001MA1103011999999MD1710191+9999OC101851REMSYN017333   82816 83620MET004NSG?EQDQ01+000000PRSWM2
0097601010999991989011515304+35733-005900FM-15+0021GMTT V0201001N01241006001CN0112001N1+01501+01001999999ADDAG12999GA1021+004509089GA2031+006009059MA1103011999999OC101851REMMET004NSG?EQDQ01+000000PRSWM2
0087601010999991989011516004+35733-005900FM-15+0021GMTT V0201201N01441006001CN0090001N1+01401+01001999999ADDAG12999GA1021+004509089GA2031+006009059GA3021+006909099MA1103011999999MW1801OC101701
0113601010999991989011517004+35733-005900FM-15+0021GMTT V0201001N01441006001CN0112001N1+01301+00901999999ADDAG12999GA1021+004509089GA2031+006009059GA3011+006909099MA1103011999999OC101961REMMET004NSG?EQDQ01+000000PRSWM2
0113601010999991989011517304+35733-005900FM-15+0021GMTT V0201001N01341006001CN0112001N1+01301+00901999999ADDAG12000GA1021+004509089GA2031+006009059GA3011+006909099MA1103011999999OC101851REMMET004NSG?EQDQ01+000000PRSWM2
0226601010999991989011518004+35733-005900SY-MT+0021GMTT V0200801N01231006001CN0100001N1+01251+00841103001ADDAA199999929AG19001AY181061AY221061GA1021+004509089GA2031+006009059GA3011+006909099GF105991051031004501001001KA1120M+01551MA1103011999999MD1410001+9999MW1011REMSYN029333   10155 82815 83620 81923MET004NSG?EQDQ01+000000PRSWM2
0073601010999991989011518304+35733-005900FM-15+0021GMTT V0201201N00511220001CN0112001N1+01301+00801999999ADDAG12999GA1021+004809089MA1103011999999REMMET004NSG?EQDQ01+000000PRSWM2
0089601010999991989011519004+35733-005900FM-15+0021GMTT V0201001N00621220001CN0112001N1+01201+00901999999ADDAG12999GA1011+004809089GA2031+006009059MA1103011999999REMMET004NSG?EQDQ01+000000PRSWM2
0089601010999991989011519304+35733-005900FM-15+0021GMTT V0201001N00511220001CN0112001N1+01201+00901999999ADDAG12999GA1011+004809089GA2031+006009059MA1103011999999REMMET004NSG?EQDQ01+000000PRSWM2
0089601010999991989011520004+35733-005900FM-15+0021GMTT V0201001N00621006001CN0112001N1+01101+00901999999ADDAG12999GA1021+004809089GA2031+006009059MA1103011999999REMMET004NSG?EQDQ01+000000PRSWM2
0073601010999991989011520304+35733-005900FM-15+0021GMTT V0201001N00981220001CN0112001N1+01101+00901999999ADDAG12000GA1021+004509089MA1103011999999REMMET004NSG?EQDQ01+000000PRSWM2
0175601010999991989011521004+35733-005900SY-MT+0021GMTT V0201201N01131006001CN0100001N1+01271+00961103081ADDAA106000091AG14000GA1021+004509089GA2031+006009059GA3011+006909099GF105991051081004501001001MD1110081+9999REMSYN023333   82815 83620 81923MET00910(30NSG?EQDQ01+000000PRSWM2
0105601010999991989011521304+35733-005900FM-15+0021GMTT V0201201N01241006001CN0112001N1+01301+01001999999ADDAG12999GA1021+004509089GA2031+006009059GA3011+006909099MA1103011999999REMMET004NSG?EQDQ01+000000PRSWM2
0087601010999991989011522004+35733-005900FM-15+0021GMTT V0201201N00211006001CN0112001N1+01301+01001999999ADDAG12999GA1021+004509089GA2041+006009059MA1103011999999REMMET002G?EQDQ01+000000PRSWM2
0089601010999991989011522304+35733-005900FM-15+0021GMTT V0201201N00621006001CN0112001N1+01301+01001999999ADDAG12999GA1021+004509089GA2041+006009059MA1103011999999REMMET004NSG?EQDQ01+000000PRSWM2
0089601010999991989011523004+35733-005900FM-15+0021GMTT V0201201N00931006001CN0112001N1+01201+00801999999ADDAG12999GA1021+003909089GA2041+006009059MA1103011999999REMMET004NSG?EQDQ01+000000PRSWM2
0089601010999991989011523304+35733-005900FM-15+0021GMTT V0201201N00931004801CN0112001N1+01201+01001999999ADDAG12000GA1021+003909089GA2041+004809059MA1103011999999REMMET004NSG?EQDQ01+000000PRSWM2
0163601010999991989011600004+35733-005900SY-MT+0021GMTT V0201201N00931006001CN0100001N1+01201+00781102951ADDAA106000091AG14000GA1031+003909089GA2041+006009059GF105991051081004501001001MA1102911999999MD1810131+9999REMSYN017333   83813 84620MET004NSG?EQDQ01+000000PRSWM2
0089601010999991989011600304+35733-005900FM-15+0021GMTT V0201201N00821006001CN0112001N1+01201+00801999999ADDAG11999GA1031+003909089GA2031+006009059MA1102911999999REMMET004NSG?EQDQ01+000000PRSWM2
0087601010999991989011601304+35733-005900FM-15+0021GMTT V0201201N00821006001CN0112001N1+01201+00801999999ADDAG11999GA1031+003909089GA2041+006009059MA1102911999999REMMET002G?EQDQ01+000000PRSWM2
0089601010999991989011602004+35733-005900FM-15+0021GMTT V0201201N00821006001CN0112001N1+01201+00901999999ADDAG11999GA1031+004809089GA2031+006009059MA1102911999999REMMET004NSG?EQDQ01+000000PRSWM2
0089601010999991989011602304+35733-005900FM-15+0021GMTT V0201201N00931006001CN0112001N1+01201+00801999999ADDAG12000GA1031+003909089GA2031+006009059MA1102911999999REMMET004NSG?EQDQ01+000000PRSWM2
0161601010999991989011603004+35733-005900SY-MT+0021GMTT V0201201N01031006001CN0100001N1+01251+00801102841ADDAA106000091AG14000GA1031+003909089GA2031+006009059GF105991051081004501001001MA1102811999999MD1810111+9999REMSYN017333   83813 83620MET002G?EQDQ01+000000PRSWM2
0089601010999991989011603304+35733-005900FM-15+0021GMTT V0201001N00931006001CN0112001N1+01301+00801999999ADDAG12999GA1031+003909089GA2031+006009059MA1102811999999REMMET004NSG?EQDQ01+000000PRSWM2
0087601010999991989011604004+35733-005900FM-15+0021GMTT V0201201N00821006001CN0112001N1+01201+00901999999ADDAG12999GA1031+003909089GA2031+006009059MA1102811999999REMMET002G?EQDQ01+000000PRSWM2
0087601010999991989011604304+35733-005900FM-15+0021GMTT V0201201N00721006001CN0112001N1+01201+00901999999ADDAG12999GA1021+003909089GA2031+006009059MA1102811999999REMMET002G?EQDQ01+000000PRSWM2
0087601010999991989011605004+35733-005900FM-15+0021GMTT V0201201N00931006001CN0112001N1+01201+00801999999ADDAG12999GA1021+003909089GA2031+006009059MA1102811999999REMMET002G?EQDQ01+000000PRSWM2
0182601010999991989011606004+35733-005900SY-MT+0021GMTT V0201201N00821006001CN0100001N1+01161+00841102801ADDAA124999929AG10000GA1021+003909089GA2031+006009059GF105991051081004501001001KA1120N+01021MA1102811999999MD1810041+9999REMSYN023333   20102 82813 83620MET004NSG?EQDQ01+000000PRSWM2
0089601010999991989011607004+35733-005900FM-15+0021GMTT V0201201N00821006001CN0112001N1+01201+00801999999ADDAG12999GA1021+003909089GA2031+006009059MA1102811999999REMMET004NSG?EQDQ01+000000PRSWM2
0071601010999991989011608004+35733-005900FM-15+0021GMTT V0201201N00621220001CN0112001N1+01201+00801999999ADDAG12999GA1041+006009089MA1102811999999REMMET002G?EQDQ01+000000PRSWM2
0139601010999991989011609004+35733-005900SY-MT+0021GMTT V0201001N00721090001CN0100001N1+01161+00861102901ADDAA106000091AG14000GA1041+004809089GF105991041021004501001021MA1102911999999MD1110101+9999REMSYN011333   84816MET002G?EQDQ01+000000PRSWM2
0073601010999991989011609304+35733-005900FM-15+0021GMTT V0201201N00621220001CN0112001N1+01201+00901999999ADDAG12999GA1041+004809089MA1102911999999REMMET004NSG?EQDQ01+000000PRSWM2
0073601010999991989011610004+35733-005900FM-15+0021GMTT V0201201N00721220001CN0112001N1+01401+00901999999ADDAG12999GA1041+004809089MA1102911999999REMMET004NSG?EQDQ01+000000PRSWM2
0074601010999991989011610304+35733-005900FM-15+0021GMTT V0201001N00931220001CN0112001N1+01401+00901999999ADDAG12999GA1031+004809089MA1102911999999REMMET005NSG+?EQDQ01+000000PRSWM2
0073601010999991989011611004+35733-005900FM-15+0021GMTT V0201001N01031220001CN0112001N1+01501+00801999999ADDAG12999GA1031+004809089MA1102911999999REMMET004NSG?EQDQ01+000000PRSWM2
0073601010999991989011611304+35733-005900FM-15+0021GMTT V0201201N01131220001CN0112001N1+01501+00801999999ADDAG12000GA1031+004809089MA1102911999999REMMET004NSG?EQDQ01+000000PRSWM2
0141601010999991989011612004+35733-005900SY-MT+0021GMTT V0201201N01291220001CN0100001N1+01571+00951102981ADDAA106000091AG14000GA1031+004809089GF104991031021004501001021MA1102911999999MD1110081+9999REMSYN011333   83816MET004NSG?EQDQ01+000000PRSWM2
0073601010999991989011612304+35733-005900FM-15+0021GMTT V0201001N01291220001CN0112001N1+01601+01001999999ADDAG12999GA1031+004809089MA1102911999999REMMET004NSG?EQDQ01+000000PRSWM2
0073601010999991989011613004+35733-005900FM-15+0021GMTT V0201001N01291220001CN0112001N1+01601+01001999999ADDAG12999GA1031+004809089MA1102911999999REMMET004NSG?EQDQ01+000000PRSWM2
0073601010999991989011613304+35733-005900FM-15+0021GMTT V0201001N01291220001CN0112001N1+01601+01001999999ADDAG12999GA1031+004809089MA1102911999999REMMET004NDG?EQDQ01+000000PRSWM2
0073601010999991989011614004+35733-005900FM-15+0021GMTT V0201001N01031220001CN0112001N1+01701+01001999999ADDAG12999GA1041+004809089MA1102911999999REMMET004NSG?EQDQ01+000000PRSWM2
0163601010999991989011615004+35733-005900SY-MT+0021GMTT V0201001N01131069001CN0100001N1+01561+01071102841ADDAA106000091AG14000GA1041+004809089GA2031+069009009GF106991041021004501081021MA1102811999999MD1610141+9999REMSYN017333   84816 83073MET004NSG?EQDQ01+000000PRSWM2
0089601010999991989011616004+35733-005900FM-15+0021GMTT V0200801N01131069001CN0112001N1+01601+00801999999ADDAG12999GA1041+004809089GA2031+069009009MA1102811999999REMMET004NSG?EQDQ01+000000PRSWM2
0089601010999991989011617004+35733-005900FM-15+0021GMTT V0200801N00931069001CN0112001N1+01501+00801999999ADDAG12999GA1041+004809089GA2031+069009009MA1102811999999REMMET004NSG?EQDQ01+000000PRSWM2
