0065601010999991983010100004+35717-005900FM-15+0015GMTT V0201001N00661999991CY0099001N1+00901+00701999999ADDAG12000MA1102911999999REMMET012CAVOK NOSIG?EQDQ01+000000PRSWM2
0065601010999991983010100304+35717-005900FM-15+0015GMTT V0201001N00611999991CY0099001N1+00901+00701999999ADDAG11999MA1102911999999REMMET012CAVOK NOSIG?EQDQ01+000000PRSWM2
0065601010999991983010101004+35717-005900FM-15+0015GMTT V0201001N00611999991CY0099001N1+00901+00701999999ADDAG11999MA1102911999999REMMET012CAVOK NOSIG?EQDQ01+000000PRSWM2
0065601010999991983010101304+35717-005900FM-15+0015GMTT V0201001N00661999991CY0099001N1+00901+00701999999ADDAG11999MA1102911999999REMMET012CAVOK NOSIG?EQDQ01+000000PRSWM2
0065601010999991983010102004+35717-005900FM-15+0015GMTT V0201001N00411999991CY0099001N1+00901+00701999999ADDAG11999MA1102911999999REMMET012CAVOK NOSIG?EQDQ01+000000PRSWM2
0065601010999991983010102304+35717-005900FM-15+0015GMTT V0201001N00411999991CY0099001N1+00901+00701999999ADDAG12000MA1102911999999REMMET012CAVOK NOSIG?EQDQ01+000000PRSWM2
0130601010999991983010103004+35717-005900SY-MT+0015GMTT V0201001N00411220001CN0150001N1+00901+00771102961ADDAA106000091AG14000AY101031GF100991001001999999001001MA1102911999999MD1310031+9999MW1021REMMET012CAVOK NOSIG?EQDQ01+000000PRSWM2
0065601010999991983010103304+35717-005900FM-15+0015GMTT V0201001N00411999991CY0099001N1+00901+00801999999ADDAG12999MA1102911999999REMMET012CAVOK NOSIG?EQDQ01+000000PRSWM2
0065601010999991983010104004+35717-005900FM-15+0015GMTT V0201001N00511999991CY0099001N1+00901+00801999999ADDAG11999MA1102911999999REMMET012CAVOK NOSIG?EQDQ01+000000PRSWM2
0065601010999991983010104304+35717-005900FM-15+0015GMTT V0201001N00511999991CY0099001N1+00901+00801999999ADDAG12999MA1102911999999REMMET012CAVOK NOSIG?EQDQ01+000000PRSWM2
0063601010999991983010105004+35717-005900FM-15+0015GMTT V0201001N00511999991CY0099001N1+00801+00601999999ADDAG12999MA1102911999999REMMET010CAVOK NSG?EQDQ01+000000PRSWM2
0063601010999991983010105304+35717-005900FM-15+0015GMTT V0201001N00511999991CY0099001N1+00801+00601999999ADDAG12000MA1102911999999REMMET010CAVOK NSG?EQDQ01+000000PRSWM2
0158601010999991983010106004+35717-005900SY-MT+0015GMTT V0201201N00311220001CN0150001N1+00781+00631102911ADDAA106000091AG14000AY101061GF100991001001999999001001KA1120N+00651MA1102911999999MD1810021+9999MW1021REMSYN011333   20065MET010CAVOK NSG?EQDQ01+000000PRSWM2
0063601010999991983010106304+35717-005900FM-15+0015GMTT V0201201N00301999991CY0099001N1+00801+00601999999ADDAG12999MA1102911999999REMMET010CAVOK NSG?EQDQ01+000000PRSWM2
0063601010999991983010107004+35717-005900FM-15+0015GMTT V0201001N00301999991CY0099001N1+00801+00601999999ADDAG12999MA1102911999999REMMET010CAVOK NSG?EQDQ01+000000PRSWM2
0065601010999991983010107304+35717-005900FM-15+0015GMTT V0201001N00201999991CY0099001N1+00801+00601999999ADDAG11999MA1102911999999REMMET012CAVOK NOSIG?EQDQ01+000000PRSWM2
0075601010999991983010108004+35717-005900FM-15+0015GMTT V0201001N00411220001CN0112001N1+00701+00601999999ADDAG12999GA1011+004809059MA1102911999999REMMET006NOSIG?EQDQ01+000000PRSWM2
0157601010999991983010109004+35717-005900SY-MT+0015GMTT V0201001N00301220001CN0112001N1+00801+00701102991ADDAA106000091AG14000AY101031GA1011+004809059GF102991011051004501001021MA1102911999999MD1310081+9999MW1021REMSYN011333   81616MET006NOSIG?EQDQ01+000000PRSWM2
0075601010999991983010109304+35717-005900FM-15+0015GMTT V0201001N00301220001CN0112001N1+00801+00701999999ADDAG11999GA1011+004809059MA1102911999999REMMET006NOSIG?EQDQ01+000000PRSWM2
0076601010999991983010110004+35717-005900FM-15+0015GMTT V0201001N00411220001CN0112001N1+01201+00801999999ADDAG12999GA1011+004809059MA1103011999999REMMET007NOSIGV?EQDQ01+000000PRSWM2
0075601010999991983010110304+35717-005900FM-15+0015GMTT V0201001N00411220001CN0112001N1+01201+00801999999ADDAG12999GA1011+004809059MA1103011999999REMMET006NOSIG?EQDQ01+000000PRSWM2
0075601010999991983010111004+35717-005900FM-15+0015GMTT V0201001N00511220001CN0112001N1+01401+00901999999ADDAG12999GA1011+004809059MA1103011999999REMMET006NOSIG?EQDQ01+000000PRSWM2
0060601010999991983010111304+35717-005900FM-15+0015GMTT V0201001N00511220001CN0112001N1+01401+00901999999ADDAG12000GA1011+004809059MA1103011999999EQDQ01+000000PRSWM2
0157601010999991983010112004+35717-005900SY-MT+0015GMTT V0200601N00511220001CN0112001N1+01501+00801103031ADDAA106000091AG14000AY101061GA1021+004809089GF103991021021004501001021MA1103011999999MD1110051+9999MW1021REMSYN011333   82816MET006NOSIG?EQDQ01+000000PRSWM2
0075601010999991983010112304+35717-005900FM-15+0015GMTT V0200601N00511220001CN0112001N1+01501+00801999999ADDAG12999GA1021+004809089MA1103011999999REMMET006NOSIG?EQDQ01+000000PRSWM2
0075601010999991983010113004+35717-005900FM-15+0015GMTT V0200601N00511220001CN0112001N1+01501+00801999999ADDAG12999GA1021+004809089MA1103011999999REMMET006NOSIG?EQDQ01+000000PRSWM2
0073601010999991983010113304+35717-005900FM-15+0015GMTT V0200601N00511220001CN0112001N1+01501+00801999999ADDAG12999GA1021+004809089MA1103011999999REMMET004NSG?EQDQ01+000000PRSWM2
0073601010999991983010114004+35717-005900FM-15+0015GMTT V0200601N00511220001CN0112001N1+01601+00801999999ADDAG12999GA1021+004809089MA1103011999999REMMET004NSG?EQDQ01+000000PRSWM2
0075601010999991983010114304+35717-005900FM-15+0015GMTT V0200801N00411220001CN0112001N1+01601+00801999999ADDAG12000GA1021+004809089MA1103011999999REMMET006NOSIG?EQDQ01+000000PRSWM2
0167601010999991983010115004+35717-005900SY-MT+0015GMTT V0200601N00931220001CN0150001N1+01481+00891102911ADDAA106000091AG14000AY101031GA1021+004809089GA2031+030009039GF104991021021004501081001MA1102911999999MD1810121+9999MW1021REMSYN017333   82816 83360EQDQ01+000000PRSWM2
0089601010999991983010115304+35717-005900FM-15+0015GMTT V0200601N00821030001CN0112001N1+01501+00901999999ADDAG12999GA1031+004809089GA2031+030009039MA1102911999999REMMET004NSG?EQDQ01+000000PRSWM2
0076601010999991983010116304+35717-005900FM-15+0015GMTT V0200601N00821030001CN0112001N1+01501+00901999999ADDAG12999GA1031+004809089GA2041+030009039MA1102911999999EQDQ01+000000PRSWM2
0076601010999991983010117004+35717-005900FM-15+0015GMTT V0200601N00721220001CN0112001N1+01401+00801999999ADDAG12999GA1021+004809059GA2031+030009039MA1102911999999EQDQ01+000000PRSWM2
0060601010999991983010117304+35717-005900FM-15+0015GMTT V0200601N00511220001CN0112001N1+01401+00801999999ADDAG12000GA1021+004809089MA1102911999999EQDQ01+000000PRSWM2
0164601010999991983010118004+35717-005900SY-MT+0015GMTT V0200601N00721220001CN0150001N1+01271+00891102961ADDAA106000091AG14000AY101061GA1011+004809089GF103991011021004501081001KA1120M+01621MA1102911999999MD1310051+9999MW1021REMSYN017333   10162 81816EQDQ01+000000PRSWM2
0060601010999991983010119004+35717-005900FM-15+0015GMTT V0200601N00511220001CN0112001N1+01101+00601999999ADDAG12999GA1011+004809089MA1103011999999EQDQ01+000000PRSWM2
0060601010999991983010119304+35717-005900FM-15+0015GMTT V0200601N00511220001CN0112001N1+01101+00601999999ADDAG12999GA1011+004809089MA1103011999999EQDQ01+000000PRSWM2
0060601010999991983010120004+35717-005900FM-15+0015GMTT V0200601N00511220001CN0112001N1+01101+00601999999ADDAG12999GA1011+004809089MA1103011999999EQDQ01+000000PRSWM2
0075601010999991983010120304+35717-005900FM-15+0015GMTT V0200601N00251220001CN0112001N1+01101+00601999999ADDAG12000GA1011+004809059MA1103011999999REMMET006NOSIG?EQDQ01+000000PRSWM2
0130601010999991983010121004+35717-005900SY-MT+0015GMTT V0200601N00511220001CN0099001N1+01101+00601103061ADDAA106000091AG14000AY101031GF100991001001999999001001MA1103011999999MD1310101+9999MW1021REMMET012CAVOK NOSIG?EQDQ01+000000PRSWM2
0065601010999991983010121304+35717-005900FM-15+0015GMTT V0200601N00511999991CY0099001N1+01101+00601999999ADDAG12999MA1103011999999REMMET012CAVOK NOSIG?EQDQ01+000000PRSWM2
0065601010999991983010122004+35717-005900FM-15+0015GMTT V0200601N00511999991CY0099001N1+01001+00801999999ADDAG12999MA1103011999999REMMET012CAVOK NOSIG?EQDQ01+000000PRSWM2
0065601010999991983010122304+35717-005900FM-15+0015GMTT V0200601N00511999991CY0099001N1+01001+00801999999ADDAG12999MA1103011999999REMMET012CAVOK NOSIG?EQDQ01+000000PRSWM2
0065601010999991983010123004+35717-005900FM-15+0015GMTT V0201001N00201999991CY0099001N1+00901+00801999999ADDAG12999MA1103011999999REMMET012CAVOK NOSIG?EQDQ01+000000PRSWM2
0075601010999991983010200004+35717-005900FM-12+0015GMTT V0200801N00511220001CN0150001N9+00761+00611103031ADDAA106000091AG14000AY101061GF100991001001999999001001MD1410001+9999MW1021
0058601010999991983010200304+35717-005900FM-15+0015GMTT V0200801N00511999991CY0099001N1+00801+00601999999ADDAG11999MA1103011999999REMMET005CAVOKEQDQ01+000000PRSWM2
0065601010999991983010201004+35717-005900FM-15+0015GMTT V0200801N00511999991CY0099001N1+00801+00601999999ADDAG11999MA1103011999999REMMET012CAVOK NOSIG?EQDQ01+000000PRSWM2
0065601010999991983010201304+35717-005900FM-15+0015GMTT V0200801N00511999991CY0099001N1+00801+00601999999ADDAG11999MA1103011999999REMMET012CAVOK NOSIG?EQDQ01+000000PRSWM2
0065601010999991983010202004+35717-005900FM-15+0015GMTT V0201001N00301999991CY0099001N1+00701+00601999999ADDAG11999MA1103011999999REMMET012CAVOK NOSIG?EQDQ01+000000PRSWM2
0065601010999991983010202304+35717-005900FM-15+0015GMTT V0201001N00411999991CY0099001N1+00701+00601999999ADDAG12000MA1103011999999REMMET012CAVOK NOSIG?EQDQ01+000000PRSWM2
0130601010999991983010203004+35717-005900SY-MT+0015GMTT V0201001N00411220001CN0150001N1+00941+00781103001ADDAA106000091AG14000AY101031GF100991001001999999001001MA1103011999999MD1710031+9999MW1021REMMET012CAVOK NOSIG?EQDQ01+000000PRSWM2
0065601010999991983010203304+35717-005900FM-15+0015GMTT V0201001N00511999991CY0099001N1+00901+00801999999ADDAG11999MA1103011999999REMMET012CAVOK NOSIG?EQDQ01+000000PRSWM2
0065601010999991983010204004+35717-005900FM-15+0015GMTT V0201001N00511999991CY0099001N1+00801+00701999999ADDAG11999MA1103011999999REMMET012CAVOK NOSIG?EQDQ01+000000PRSWM2
0065601010999991983010204304+35717-005900FM-15+0015GMTT V0201001N00411999991CY0099001N1+00801+00701999999ADDAG12999MA1103011999999REMMET012CAVOK NOSIG?EQDQ01+000000PRSWM2
0065601010999991983010205004+35717-005900FM-15+0015GMTT V0201201N00411999991CY0099001N1+00901+00701999999ADDAG12999MA1103011999999REMMET012CAVOK NOSIG?EQDQ01+000000PRSWM2
0065601010999991983010205304+35717-005900FM-15+0015GMTT V0201001N00411999991CY0099001N1+00901+00701999999ADDAG12000MA1103011999999REMMET012CAVOK NOSIG?EQDQ01+000000PRSWM2
0182601010999991983010206004+35717-005900SY-MT+0015GMTT V0201001N00511220001CN0150001N1+00901+00691103001ADDAA106000091AG14000AY101061GA1041+027009039GF104991041001999999081001KA1120N+00741MA1103011999999MD1410001+9999MW1021REMSYN017333   20074 84359MET012CAVOK NOSIG?EQDQ01+000000PRSWM2
0065601010999991983010206304+35717-005900FM-15+0015GMTT V0201001N00511999991CY0099001N1+00901+00701999999ADDAG12999MA1103011999999REMMET012CAVOK NOSIG?EQDQ01+000000PRSWM2
0065601010999991983010207004+35717-005900FM-15+0015GMTT V0201001N00301999991CY0099001N1+00901+00701999999ADDAG12999MA1103011999999REMMET012CAVOK NOSIG?EQDQ01+000000PRSWM2
0091601010999991983010207304+35717-005900FM-15+0015GMTT V0200801N00411027001CN0112001N1+00901+00701999999ADDAG12999GA1021+004809089GA2051+027009039MA1103011999999REMMET006NOSIG?EQDQ01+000000PRSWM2
0091601010999991983010208004+35717-005900FM-15+0015GMTT V0201001N00411220001CN0112001N1+00701+00701999999ADDAG12999GA1011+004809089GA2031+006909059MA1103011999999REMMET006NOSIG?EQDQ01+000000PRSWM2
0091601010999991983010208304+35717-005900FM-15+0015GMTT V0201001N00251220001CN0112001N1+00701+00701999999ADDAG12000GA1011+004809089GA2031+006909059MA1103011999999REMMET006NOSIG?EQDQ01+000000PRSWM2
0179601010999991983010209004+35717-005900SY-MT+0015GMTT V0201001N00211220001CN0150001N1+01001+00711103081ADDAA106000091AG14000AY101031GA1011+004809089GA2031+006909059GF104991031081004501081001MA1103011999999MD1310081+9999MW1021REMSYN017333   81816 83623MET006NOSIG?EQDQ01+000000PRSWM2
0091601010999991983010209304+35717-005900FM-15+0015GMTT V0201201N00201006901CN0112001N1+01001+00701999999ADDAG12999GA1021+004809089GA2051+006909059MA1103011999999REMMET006NOSIG?EQDQ01+000000PRSWM2
0076601010999991983010210004+35717-005900FM-15+0015GMTT V0201001N00301006901CN0112001N1+01201+01001999999ADDAG12999GA1021+004809089GA2051+006909059MA1103121999999EQDQ01+000000PRSWM2
0076601010999991983010210304+35717-005900FM-15+0015GMTT V0200801N00721006901CN0112001N1+01201+01001999999ADDAG12999GA1021+004809089GA2051+006909059MA1103121999999EQDQ01+000000PRSWM2
0076601010999991983010211004+35717-005900FM-15+0015GMTT V0200601N00611006901CN0112001N1+01301+01001999999ADDAG12999GA1021+004809089GA2051+006909059MA1103181999999EQDQ01+000000PRSWM2
0076601010999991983010211304+35717-005900FM-15+0015GMTT V0200601N00611006901CN0112001N1+01301+01001999999ADDAG12000GA1021+004809089GA2051+006909059MA1103181999999EQDQ01+000000PRSWM2
0167601010999991983010212004+35717-005900SY-MT+0015GMTT V0200601N00621006901CN0100001N1+01281+01011103231ADDAA106000091AG14000AY101061GA1021+004809089GA2051+006909059GF106991061081004501001001MA1103181999999MD1210161+9999MW1021REMSYN017333   82816 85623EQDQ01+000000PRSWM2
0076601010999991983010212304+35717-005900FM-15+0015GMTT V0200601N00611006901CN0112001N1+01301+01001999999ADDAG12999GA1021+004809089GA2051+006909059MA1103181999999EQDQ01+000000PRSWM2
0076601010999991983010213004+35717-005900FM-15+0015GMTT V0200601N00611006901CN0112001N1+01401+01001999999ADDAG12999GA1021+004809089GA2051+006909059MA1103181999999EQDQ01+000000PRSWM2
0089601010999991983010213304+35717-005900FM-15+0015GMTT V0200601N00611006901CN0112001N1+01401+01001999999ADDAG12999GA1021+004809089GA2051+006909059MA1103011999999REMMET004NSG?EQDQ01+000000PRSWM2
0089601010999991983010214004+35717-005900FM-15+0015GMTT V0200601N00721006901CN0112001N1+01501+00901999999ADDAG12999GA1021+004809089GA2041+006909059MA1103011999999REMMET004NSG?EQDQ01+000000PRSWM2
0089601010999991983010214304+35717-005900FM-15+0015GMTT V0200801N00721006901CN0112001N1+01501+00901999999ADDAG12000GA1021+004809089GA2041+006909059MA1103011999999REMMET004NSG?EQDQ01+000000PRSWM2
0177601010999991983010215004+35717-005900SY-MT+0015GMTT V0200801N00771220001CN0150001N1+01521+00531102981ADDAA106000091AG14000AY101031GA1011+004809089GA2031+006909059GF103991031081004501001001MA1102911999999MD1610251+9999MW1021REMSYN017333   81816 83623MET004NSG?EQDQ01+000000PRSWM2
0089601010999991983010215304+35717-005900FM-15+0015GMTT V0201001N00771220001CN0112001N1+01501+00501999999ADDAG12999GA1011+004809089GA2031+006909059MA1102911999999REMMET004NSG?EQDQ01+000000PRSWM2
0075601010999991983010216004+35717-005900FM-15+0015GMTT V0201001N00821220001CN0112001N1+01501+00501999999ADDAG12999GA1011+004809089MA1102911999999REMMET006NOSIG?EQDQ01+000000PRSWM2
0075601010999991983010216304+35717-005900FM-15+0015GMTT V0201001N00821220001CN0112001N1+01501+00501999999ADDAG12999GA1011+004809089MA1102911999999REMMET006NOSIG?EQDQ01+000000PRSWM2
0075601010999991983010217004+35717-005900FM-15+0015GMTT V0201001N00721220001CN0112001N1+01401+00501999999ADDAG12999GA1011+004809089MA1103011999999REMMET006NOSIG?EQDQ01+000000PRSWM2
0075601010999991983010217304+35717-005900FM-15+0015GMTT V0200801N00611220001CN0112001N1+01401+00501999999ADDAG12000GA1011+004809089MA1103011999999REMMET006NOSIG?EQDQ01+000000PRSWM2
0182601010999991983010218004+35717-005900SY-MT+0015GMTT V0201001N00511220001CN0112001N1+01201+00501103041ADDAA106000091AG14000AY101061GA1011+004809089GF101991011021004501001001KA1120M+01551MA1103011999999MD1310061+9999MW1021REMSYN035333   10155 81816 555   00062 20072EQDQ01+000000PRSWM2
0060601010999991983010218304+35717-005900FM-15+0015GMTT V0201001N00511220001CN0112001N1+01201+00501999999ADDAG12999GA1011+004809089MA1103011999999EQDQ01+000000PRSWM2
0060601010999991983010219004+35717-005900FM-15+0015GMTT V0201001N00511220001CN0112001N1+01101+00501999999ADDAG12999GA1011+004809089MA1103011999999EQDQ01+000000PRSWM2
0060601010999991983010219304+35717-005900FM-15+0015GMTT V0201001N00511220001CN0112001N1+01101+00501999999ADDAG12999GA1011+004809089MA1103011999999EQDQ01+000000PRSWM2
0060601010999991983010220004+35717-005900FM-15+0015GMTT V0201001N00611220001CN0112001N1+01001+00801999999ADDAG12999GA1011+004809089MA1103121999999EQDQ01+000000PRSWM2
0075601010999991983010220304+35717-005900FM-15+0015GMTT V0201001N00611220001CN0112001N1+01001+00801999999ADDAG12000GA1011+004809089MA1103121999999REMMET006NOSIG?EQDQ01+000000PRSWM2
0145601010999991983010221004+35717-005900SY-MT+0015GMTT V0200801N00621220001CN0100001N1+01021+00851103181ADDAA106000091AG14000AY101031GA1011+004809089GF101991011021004501001001MA1103121999999MD1210181+9999MW1021REMSYN011333   81816EQDQ01+000000PRSWM2
0060601010999991983010221304+35717-005900FM-15+0015GMTT V0200801N00611220001CN0112001N1+01001+00901999999ADDAG12999GA1011+004809089MA1103121999999EQDQ01+000000PRSWM2
0060601010999991983010222004+35717-005900FM-15+0015GMTT V0200801N00611220001CN0112001N1+01001+00801999999ADDAG11999GA1011+004809089MA1103121999999EQDQ01+000000PRSWM2
0060601010999991983010222304+35717-005900FM-15+0015GMTT V0200801N00611220001CN0112001N1+01001+00801999999ADDAG12999GA1011+004809089MA1103121999999EQDQ01+000000PRSWM2
0060601010999991983010223004+35717-005900FM-15+0015GMTT V0201001N00611220001CN0112001N1+01001+00801999999ADDAG12999GA1011+004809089MA1103121999999EQDQ01+000000PRSWM2
0060601010999991983010223304+35717-005900FM-15+0015GMTT V0201001N00611220001CN0112001N1+01001+00801999999ADDAG12000GA1011+004809089MA1103121999999EQDQ01+000000PRSWM2
0145601010999991983010300004+35717-005900SY-MT+0015GMTT V0201201N00101220001CN0112001N1+00801+00601103231ADDAA106000091AG14000AY101061GA1011+004809089GF101991011021004501001001MA1103181999999MD1310031+9999MW1021REMSYN011333   81816EQDQ01+000000PRSWM2
0060601010999991983010300304+35717-005900FM-15+0015GMTT V0201201N00101220001CN0112001N1+00801+00601999999ADDAG11999GA1011+004809089MA1103181999999EQDQ01+000000PRSWM2
0060601010999991983010301004+35717-005900FM-15+0015GMTT V0201201N00101220001CN0112001N1+00801+00601999999ADDAG11999GA1011+004809089MA1103181999999EQDQ01+000000PRSWM2
0060601010999991983010301304+35717-005900FM-15+0015GMTT V0201201N00101220001CN0112001N1+00801+00601999999ADDAG11999GA1011+004809089MA1103181999999EQDQ01+000000PRSWM2
0060601010999991983010302004+35717-005900FM-15+0015GMTT V0201201N00301220001CN0112001N1+00901+00701999999ADDAG11999GA1011+004809089MA1103181999999EQDQ01+000000PRSWM2
0060601010999991983010302304+35717-005900FM-15+0015GMTT V0201201N00301220001CN0112001N1+00901+00701999999ADDAG12000GA1011+004809089MA1103181999999EQDQ01+000000PRSWM2
0145601010999991983010303004+35717-005900SY-MT+0015GMTT V0201201N00301220001CN0112001N1+00801+00601103251ADDAA106000091AG14000AY101031GA1011+004809089GF101991011021004501001001MA1102202999999MD1310021+9999MW1021REMSYN011333   81816EQDQ01+000000PRSWM2
0060601010999991983010303304+35717-005900FM-15+0015GMTT V0201201N00301220001CN0112001N1+00801+00601999999ADDAG11999GA1011+004809089MA1102201999999EQDQ01+000000PRSWM2
0060601010999991983010304004+35717-005900FM-15+0015GMTT V0201201N00721220001CN0112001N1+00901+00701999999ADDAG12999GA1011+004809089MA1101192999999EQDQ01+000000PRSWM2
0060601010999991983010304304+35717-005900FM-15+0015GMTT V0201201N00721220001CN0112001N1+00901+00701999999ADDAG12999GA1011+004809089MA1101191999999EQDQ01+000000PRSWM2
0076601010999991983010305004+35717-005900FM-15+0015GMTT V0201201N00301220001CN0112001N1+00901+00701999999ADDAG12999GA1011+004809089MA1103122999999EQDQ01+030453APOA  Q02+000000PRSWM2
0060601010999991983010305304+35717-005900FM-15+0015GMTT V0201201N00301220001CN0112001N1+00901+00701999999ADDAG12000GA1011+004809089MA1103121999999EQDQ01+000000PRSWM2
0149601010999991983010306004+35717-005900FM-12+0015GMTT V0202401N00101220001CN0100001N9+00891+00611103131ADDAA106000091AG14000AY101061GA1011+004809089GF101991011021004501001001KA1120M+99999MD1710121+9999MW1021REMSYN017333   10076 81816EQDQ01 +00762ATMX  
0058601010999991983010307004+35717-005900FM-15+0015GMTT V0202401N00101220001CN0112001N1+00901+00701999999ADDAG12999GA1011+004809089REMMET004131?EQDQ01+000000PRSWM2
0073601010999991983010308004+35717-005900FM-15+0015GMTT V0201001N00611220001CN0112001N1+00901+00701999999ADDAG12999GA1021+004809089MA1103011999999REMMET004NSG?EQDQ01+000000PRSWM2
0145601010999991983010309004+35717-005900SY-MT+0015GMTT V0201201N00721220001CN0150001N1+01151+00661103141ADDAA106000091AG14000AY101031GA1011+004809089GF101991011021004501001001MA1103121999999MD1310021+9999MW1021REMSYN011333   81816EQDQ01+000000PRSWM2
0060601010999991983010309304+35717-005900FM-15+0015GMTT V0201201N00721220001CN0112001N1+01201+00701999999ADDAG12999GA1011+004809089MA1103121999999EQDQ01+000000PRSWM2
0068601010999991983010310004+35717-005900FM-15+0015GMTT V0201001N01021220001CN0112001N1+01301+00701999999ADDAG12999GA1011+004809089MA1103181999999OC101541EQDQ01+000000PRSWM2
0060601010999991983010311004+35717-005900FM-15+0015GMTT V0201001N01231220001CN0112001N1+01401+00601999999ADDAG12999GA1011+004809089MA1103181999999EQDQ01+000000PRSWM2
0060601010999991983010311304+35717-005900FM-15+0015GMTT V0201001N01231220001CN0112001N1+01401+00601999999ADDAG12000GA1011+004809089MA1103181999999EQDQ01+000000PRSWM2
0157601010999991983010312004+35717-005900SY-MT+0015GMTT V0201001N01021220001CN0112001N1+01501+00601103231ADDAA106000091AG14000AY101061GA1011+004809089GF101991011021004501001001MA1103181999999MD1010091+9999MW1021REMSYN011333   81816MET006NOSIG?EQDQ01+000000PRSWM2
0075601010999991983010312304+35717-005900FM-15+0015GMTT V0201001N01131220001CN0112001N1+01501+00601999999ADDAG12999GA1011+004809089MA1103181999999REMMET006NOSIG?EQDQ01+000000PRSWM2
0075601010999991983010313004+35717-005900FM-15+0015GMTT V0201001N01021220001CN0112001N1+01501+00601999999ADDAG12999GA1011+004809089MA1103181999999REMMET006NOSIG?EQDQ01+000000PRSWM2
0073601010999991983010313304+35717-005900FM-15+0015GMTT V0201001N01131220001CN0112001N1+01501+00601999999ADDAG12999GA1011+000309089MA1103181999999REMMET004NSG?EQDQ01+000000PRSWM2
0073601010999991983010314004+35717-005900FM-15+0015GMTT V0201001N01131220001CN0112001N1+01501+00601999999ADDAG12999GA1011+004809089MA1103121999999REMMET004NSG?EQDQ01+000000PRSWM2
0130601010999991983010315004+35717-005900FM-12+0015GMTT V0201001N01181220001CN0150001N9+01521+00661103081ADDAA106000091AG14000AY101031GA1021+004809089GF199999011021004501001001MD1610151+9999MW1021REMSYN011333   82816EQDQ01+000012SCOTCV
0073601010999991983010316004+35717-005900FM-15+0015GMTT V0201001N01181220001CN0112001N1+01501+00701999999ADDAG12999GA1011+004809089MA1103011999999REMMET004NSG?EQDQ01+000000PRSWM2
0130601010999991983010318004+35717-005900FM-12+0015GMTT V0201001N00771220001CN0150001N9+01221+00521103201ADDAA106000091AG14000AY101061GA1011+004809089GF102991011021004501001021KA1120M+01541MD1310121+9999MW1021REMSYN017333   10154 81816
0075601010999991983010318304+35717-005900FM-15+0015GMTT V0201001N00771220001CN0112001N1+01201+00501999999ADDAG12999GA1011+004809089MA1103181999999REMMET006NOSIG?EQDQ01+000000PRSWM2
0075601010999991983010319004+35717-005900FM-15+0015GMTT V0201001N00771220001CN0112001N1+01201+00501999999ADDAG12999GA1011+004809089MA1103181999999REMMET006NOSIG?EQDQ01+000000PRSWM2
0075601010999991983010319304+35717-005900FM-15+0015GMTT V0201001N00511220001CN0112001N1+01201+00501999999ADDAG12999GA1011+004809089MA1103181999999REMMET006NOSIG?EQDQ01+000000PRSWM2
0075601010999991983010320004+35717-005900FM-15+0015GMTT V0201001N00511220001CN0112001N1+01101+00401999999ADDAG12999GA1011+004809089MA1103181999999REMMET006NOSIG?EQDQ01+000000PRSWM2
0075601010999991983010320304+35717-005900FM-15+0015GMTT V0201001N00511220001CN0112001N1+01101+00401999999ADDAG12000GA1011+004809089MA1103181999999REMMET006NOSIG?EQDQ01+000000PRSWM2
0128601010999991983010321004+35717-005900SY-MT+0015GMTT V0201201N00101220001CN0150001N1+00991+00651103341ADDAA106000091AG14000AY101031GF100991001001999999001001MA1103291999999MD1310101+9999MW1021REMMET010CAVOK NSG?EQDQ01+000000PRSWM2
0063601010999991983010321304+35717-005900FM-15+0015GMTT V0201201N00201999991CY0099001N1+01001+00701999999ADDAG12999MA1103291999999REMMET010CAVOK NSG?EQDQ01+000000PRSWM2
0063601010999991983010322004+35717-005900FM-15+0015GMTT V0201201N00411999991CY0099001N1+00901+00601999999ADDAG12999MA1103291999999REMMET010CAVOK NSG?EQDQ01+000000PRSWM2
0063601010999991983010322304+35717-005900FM-15+0015GMTT V0201201N00511999991CY0099001N1+00901+00601999999ADDAG12999MA1103291999999REMMET010CAVOK NSG?EQDQ01+000000PRSWM2
0063601010999991983010323004+35717-005900FM-15+0015GMTT V0201001N00611999991CY0099001N1+00901+00601999999ADDAG12999MA1103291999999REMMET010CAVOK NSG?EQDQ01+000000PRSWM2
0063601010999991983010323304+35717-005900FM-15+0015GMTT V0201001N00771999991CY0099001N1+00901+00601999999ADDAG12000MA1103291999999REMMET010CAVOK NSG?EQDQ01+000000PRSWM2
0128601010999991983010400004+35717-005900SY-MT+0015GMTT V0201201N00661220001CN0099001N1+01001+00601103371ADDAA106000091AG14000AY101061GF100991001001999999001001MA1103291999999MD1110081+9999MW1021REMMET010CAVOK NSG?EQDQ01+000000PRSWM2
0063601010999991983010400304+35717-005900FM-15+0015GMTT V0201201N00611999991CY0099001N1+01001+00601999999ADDAG11999MA1103291999999REMMET010CAVOK NSG?EQDQ01+000000PRSWM2
0063601010999991983010401004+35717-005900FM-15+0015GMTT V0201001N00611999991CY0099001N1+00801+00601999999ADDAG11999MA1103391999999REMMET010CAVOK NSG?EQDQ01+000000PRSWM2
0063601010999991983010401304+35717-005900FM-15+0015GMTT V0201001N00611999991CY0099001N1+00801+00601999999ADDAG11999MA1103391999999REMMET010CAVOK NSG?EQDQ01+000000PRSWM2
0058601010999991983010402004+35717-005900FM-15+0015GMTT V0201001N00101999991CY0099001N1+00801+00601999999ADDAG11999MA1103291999999REMMET005CAVOKEQDQ01+000000PRSWM2
0058601010999991983010402304+35717-005900FM-15+0015GMTT V0201001N00101999991CY0099001N1+00801+00601999999ADDAG12000MA1103291999999REMMET005CAVOKEQDQ01+000000PRSWM2
0058601010999991983010403304+35717-005900FM-15+0015GMTT V0201001N00511999991CY0099001N1+00901+00601999999ADDAG12999MA1103291999999REMMET005CAVOKEQDQ01+000000PRSWM2
0058601010999991983010404004+35717-005900FM-15+0015GMTT V0201001N00721999991CY0099001N1+00901+00601999999ADDAG12999MA1103291999999REMMET005CAVOKEQDQ01+000000PRSWM2
0058601010999991983010404304+35717-005900FM-15+0015GMTT V0201001N00721999991CY0099001N1+00901+00601999999ADDAG12999MA1103291999999REMMET005CAVOKEQDQ01+000000PRSWM2
0058601010999991983010405004+35717-005900FM-15+0015GMTT V0201201N00411999991CY0099001N1+00901+00601999999ADDAG12999MA1103291999999REMMET005CAVOKEQDQ01+000000PRSWM2
0058601010999991983010405304+35717-005900FM-15+0015GMTT V0201201N00411999991CY0099001N1+00901+00601999999ADDAG12000MA1103291999999REMMET005CAVOKEQDQ01+000000PRSWM2
0153601010999991983010406004+35717-005900SY-MT+0015GMTT V0201001N00511220001CN0150001N1+00701+00501103371ADDAA106000091AG14000AY101061GF100991001001999999001001KA1120N+00611MA1103291999999MD1810021+9999MW1021REMSYN011333   20061MET005CAVOKEQDQ01+000000PRSWM2
0058601010999991983010406304+35717-005900FM-15+0015GMTT V0201001N00511999991CY0099001N1+00701+00501999999ADDAG12999MA1103291999999REMMET005CAVOKEQDQ01+000000PRSWM2
0055601010999991983010407304+35717-005900FM-15+0015GMTT V0201201N00101999991CY0099001N1+00701+00001999999ADDAG12999REMMET017CAVOK 5 1033 NSG?EQDQ01+000000PRSWM2
0063601010999991983010408004+35717-005900FM-15+0015GMTT V0201201N00151999991CY0099001N1+00601+00501999999ADDAG12999MA1103291999999REMMET010CAVOK NSG?EQDQ01+000000PRSWM2
0111601010999991983010409004+35717-005900FM-12+0015GMTT V0201201N00311220001CN0150001N9+00821+00671103431ADDAA106000091AG14000AY101031GA1041+069009009GF104991001001999999001021MD1310061+9999MW1021REMSYN011333   84073
0063601010999991983010410004+35717-005900FM-15+0015GMTT V0201401N00151999991CY0099001N1+01101+00901999999ADDAG11999MA1103491999999REMMET010CAVOK NSG?EQDQ01+000000PRSWM2
0065601010999991983010411004+35717-005900FM-15+0015GMTT V0201001N00611999991CY0099001N1+01401+01001999999ADDAG12999MA1103491999999REMMET012CAVOK NOSIG?EQDQ01+000000PRSWM2
0065601010999991983010411304+35717-005900FM-15+0015GMTT V0201001N00611999991CY0099001N1+01401+01001999999ADDAG12000MA1103491999999REMMET012CAVOK NOSIG?EQDQ01+000000PRSWM2
0163601010999991983010412004+35717-005900SY-MT+0015GMTT V0201001N00611220001CN0099001N1+01501+00801103461ADDAA106000091AG14000AY101061GA1041+069009009GF104991001001999999001021MA1103391999999MD1010041+9999MW1021REMSYN011333   84073MET012CAVOK NOSIG?EQDQ01+000000PRSWM2
0065601010999991983010412304+35717-005900FM-15+0015GMTT V0201001N00661999991CY0099001N1+01501+00801999999ADDAG12999MA1103391999999REMMET012CAVOK NOSIG?EQDQ01+000000PRSWM2
0065601010999991983010413004+35717-005900FM-15+0015GMTT V0201201N00721999991CY0099001N1+01601+00801999999ADDAG12999MA1103391999999REMMET012CAVOK NOSIG?EQDQ01+000000PRSWM2
0065601010999991983010413304+35717-005900FM-15+0015GMTT V0200801N00511999991CY0099001N1+01601+00801999999ADDAG12999MA1103391999999REMMET012CAVOK NOSIG?EQDQ01+000000PRSWM2
0091601010999991983010414004+35717-005900FM-15+0015GMTT V0201001N00611220001CN0112001N1+01601+00801999999ADDAG11999GA1011+004809089GA2041+069009009MA1103291999999REMMET006NOSIG?EQDQ01+000000PRSWM2
0091601010999991983010414304+35717-005900FM-15+0015GMTT V0201401N00461220001CN0112001N1+01601+00801999999ADDAG12000GA1011+004809089GA2041+069009009MA1103291999999REMMET006NOSIG?EQDQ01+000000PRSWM2
0179601010999991983010415004+35717-005900SY-MT+0015GMTT V0201001N00411069001CN0112001N1+01701+00901103261ADDAA106000091AG14000AY101031GA1011+004809089GA2051+069009009GF106991011021004501001021MA1103181999999MD1810211+9999MW1021REMSYN017333   81816 85073MET006NOSIG?EQDQ01+000000PRSWM2
0091601010999991983010415304+35717-005900FM-15+0015GMTT V0201401N00411069001CN0112001N1+01701+00901999999ADDAG12999GA1011+004809089GA2051+069009009MA1103181999999REMMET006NOSIG?EQDQ01+000000PRSWM2
0065601010999991983010416004+35717-005900FM-15+0015GMTT V0201401N00411999991CY0099001N1+01601+00801999999ADDAG12999MA1103181999999REMMET012CAVOK NOSIG?EQDQ01+000000PRSWM2
0065601010999991983010416304+35717-005900FM-15+0015GMTT V0201201N00201999991CY0099001N1+01601+00801999999ADDAG12999MA1103181999999REMMET012CAVOK NOSIG?EQDQ01+000000PRSWM2
0065601010999991983010417004+35717-005900FM-15+0015GMTT V0201001N00201999991CY0099001N1+01401+00901999999ADDAG12999MA1103291999999REMMET012CAVOK NOSIG?EQDQ01+000000PRSWM2
0065601010999991983010417304+35717-005900FM-15+0015GMTT V0201001N00151999991CY0099001N1+01401+00901999999ADDAG11000MA1103291999999REMMET012CAVOK NOSIG?EQDQ01+000000PRSWM2
0182601010999991983010418004+35717-005900SY-MT+0015GMTT V0201201N00201220001CN0099001N1+01301+00801103391ADDAA106000091AG14000AY101061GA1021+069009009GF102991001001999999001021KA1120M+01681MA1103291999999MD1310131+9999MW1021REMSYN017333   10168 82073MET012CAVOK NOSIG?EQDQ01+000000PRSWM2
0065601010999991983010419304+35717-005900FM-15+0015GMTT V0201001N00201999991CY0099001N1+01201+00801999999ADDAG12999MA1103391999999REMMET012CAVOK NOSIG?EQDQ01+000000PRSWM2
0065601010999991983010420004+35717-005900FM-15+0015GMTT V0201001N00251999991CY0099001N1+00901+00801999999ADDAG11999MA1103491999999REMMET012CAVOK NOSIG?EQDQ01+000000PRSWM2
0065601010999991983010420304+35717-005900FM-15+0015GMTT V0201001N00251999991CY0099001N1+01001+00801999999ADDAG11000MA1103491999999REMMET012CAVOK NOSIG?EQDQ01+000000PRSWM2
0130601010999991983010421004+35717-005900SY-MT+0015GMTT V0200801N00201220001CN0099001N1+00701+00501103631ADDAA106000091AG14000AY101031GF100991001001999999001001MA1103591999999MD1110131+9999MW1021REMMET012CAVOK NOSIG?EQDQ01+000000PRSWM2
0065601010999991983010421304+35717-005900FM-15+0015GMTT V0200801N00151999991CY0099001N1+00501+00501999999ADDAG12999MA1103591999999REMMET012CAVOK NOSIG?EQDQ01+000000PRSWM2
0065601010999991983010422004+35717-005900FM-15+0015GMTT V0201001N00151999991CY0099001N1+00701+00501999999ADDAG12999MA1103591999999REMMET012CAVOK NOSIG?EQDQ01+000000PRSWM2
0065601010999991983010422304+35717-005900FM-15+0015GMTT V0200801N00151999991CY0099001N1+00701+00501999999ADDAG12999MA1103591999999REMMET012CAVOK NOSIG?EQDQ01+000000PRSWM2
0065601010999991983010423004+35717-005900FM-15+0015GMTT V0200801N00151999991CY0099001N1+00601+00501999999ADDAG12999MA1103591999999REMMET012CAVOK NOSIG?EQDQ01+000000PRSWM2
0065601010999991983010423304+35717-005900FM-15+0015GMTT V0200801N00201999991CY0099001N1+00601+00501999999ADDAG12000MA1103591999999REMMET012CAVOK NOSIG?EQDQ01+000000PRSWM2
0130601010999991983010500004+35717-005900SY-MT+0015GMTT V0200601N00251220001CN0099001N1+00501+00401103591ADDAA106000091AG14000AY101061GF100991001001999999001001MA1103491999999MD1810021+9999MW1021REMMET012CAVOK NOSIG?EQDQ01+000000PRSWM2
0065601010999991983010500304+35717-005900FM-15+0015GMTT V0200601N00201999991CY0099001N1+00501+00401999999ADDAG11999MA1103491999999REMMET012CAVOK NOSIG?EQDQ01+000000PRSWM2
0065601010999991983010501004+35717-005900FM-15+0015GMTT V0200801N00151999991CY0099001N1+00401+00401999999ADDAG11999MA1103491999999REMMET012CAVOK NOSIG?EQDQ01+000000PRSWM2
0065601010999991983010501304+35717-005900FM-15+0015GMTT V0200601N00201999991CY0099001N1+00501+00401999999ADDAG11999MA1103491999999REMMET012CAVOK NOSIG?EQDQ01+000000PRSWM2
0065601010999991983010502004+35717-005900FM-15+0015GMTT V0200801N00251999991CY0099001N1+00501+00401999999ADDAG11999MA1103491999999REMMET012CAVOK NOSIG?EQDQ01+000000PRSWM2
0065601010999991983010502304+35717-005900FM-15+0015GMTT V0200801N00251999991CY0099001N1+00501+00401999999ADDAG12000MA1103491999999REMMET012CAVOK NOSIG?EQDQ01+000000PRSWM2
0130601010999991983010503004+35717-005900SY-MT+0015GMTT V0201001N00151220001CN0150001N1+00481+00441103561ADDAA106000091AG14000AY101031GF100991001001999999001001MA1103491999999MD1610031+9999MW1021REMMET012CAVOK NOSIG?EQDQ01+000000PRSWM2
0065601010999991983010503304+35717-005900FM-15+0015GMTT V0200801N00201999991CY0099001N1+00501+00401999999ADDAG12999MA1103491999999REMMET012CAVOK NOSIG?EQDQ01+000000PRSWM2
0065601010999991983010504004+35717-005900FM-15+0015GMTT V0201001N00251999991CY0099001N1+00501+00401999999ADDAG12999MA1103491999999REMMET012CAVOK NOSIG?EQDQ01+000000PRSWM2
0065601010999991983010504304+35717-005900FM-15+0015GMTT V0200801N00201999991CY0099001N1+00501+00401999999ADDAG11999MA1103491999999REMMET012CAVOK NOSIG?EQDQ01+000000PRSWM2
0065601010999991983010505004+35717-005900FM-15+0015GMTT V0209999999999999991CY0099001N1+00501+00401999999ADDAG11999MA1103491999999REMMET012CAVOK NOSIG?EQDQ01+000000PRSWM2
0066601010999991983010505304+35717-005900FM-15+0015GMTT V0200801N00251999991CY0099001N1+00501+00401999999ADDAG12000MA1103491999999REMMET013CAVOK NOSIG5?EQDQ01+000000PRSWM2
0108601010999991983010506004+35717-005900FM-12+0015GMTT V0201001N00311220001CN0150001N9+00501+00381103441ADDAA106000091AG14000AY101061GF100991001001999999001001KA1120N+00421MD1610011+9999MW1021REMSYN011333   20042
0065601010999991983010506304+35717-005900FM-15+0015GMTT V0201001N00301999991CY0099001N1+00501+00401999999ADDAG12999MA1103391999999REMMET012CAVOK NOSIG?EQDQ01+000000PRSWM2
0065601010999991983010507004+35717-005900FM-15+0015GMTT V0200801N00301999991CY0099001N1+00501+00401999999ADDAG12999MA1103391999999REMMET012CAVOK NOSIG?EQDQ01+000000PRSWM2
0065601010999991983010507304+35717-005900FM-15+0015GMTT V0200801N00301999991CY0099001N1+00501+00401999999ADDAG12999MA1103391999999REMMET012CAVOK NOSIG?EQDQ01+000000PRSWM2
0065601010999991983010508004+35717-005900FM-15+0015GMTT V0201001N00361999991CY0099001N1+00501+00301999999ADDAG12999MA1103391999999REMMET012CAVOK NOSIG?EQDQ01+000000PRSWM2
0065601010999991983010508304+35717-005900FM-15+0015GMTT V0201001N00301999991CY0099001N1+00501+00301999999ADDAG12000MA1103391999999REMMET012CAVOK NOSIG?EQDQ01+000000PRSWM2
0130601010999991983010509004+35717-005900SY-MT+0015GMTT V0201001N00411220001CN0150001N1+00601+00441103401ADDAA106000091AG14000AY101031GF100991001001999999001001MA1103391999999MD1810041+9999MW1021REMMET012CAVOK NOSIG?EQDQ01+000000PRSWM2
0065601010999991983010511004+35717-005900FM-15+0015GMTT V0201201N00301999991CY0099001N1+01301+00501999999ADDAG12999MA1103391999999REMMET012CAVOK NOSIG?EQDQ01+000000PRSWM2
0065601010999991983010511304+35717-005900FM-15+0015GMTT V0201001N00411999991CY0099001N1+01301+00501999999ADDAG12000MA1103391999999REMMET012CAVOK NOSIG?EQDQ01+000000PRSWM2
0130601010999991983010512004+35717-005900SY-MT+0015GMTT V0209991C00001220001CN0150001N1+01491+00921103381ADDAA106000091AG14000AY101061GF100991001001999999001001MA1103291999999MD1810011+9999MW1021REMMET012CAVOK NOSIG?EQDQ01+000000PRSWM2
0065601010999991983010512304+35717-005900FM-15+0015GMTT V0201001N00301999991CY0099001N1+01501+00901999999ADDAG12999MA1103291999999REMMET012CAVOK NOSIG?EQDQ01+000000PRSWM2
0065601010999991983010514004+35717-005900FM-15+0015GMTT V0202401N00461999991CY0099001N1+01501+00901999999ADDAG12999MA1103181999999REMMET012CAVOK NOSIG?EQDQ01+000000PRSWM2
0075601010999991983010514304+35717-005900FM-15+0015GMTT V0209999999999220001CN0112001N1+01501+00901999999ADDAG12000GA1021+006009089MA1103181999999REMMET006NOSIG?EQDQ01+000000PRSWM2
0157601010999991983010515004+35717-005900SY-MT+0015GMTT V0202401N00511220001CN0150001N1+01501+00951103231ADDAA106000091AG14000AY101031GA1011+006009089GF101991011021008001001001MA1103181999999MD1710151+9999MW1021REMSYN011333   81820MET006NOSIG?EQDQ01+000000PRSWM2
0091601010999991983010516004+35717-005900FM-15+0015GMTT V0202401N00151220001CN0112001N1+01501+00901999999ADDAG12999GA1011+006009089GA2031+030009039MA1103181999999REMMET006NOSIG?EQDQ01+000000PRSWM2
0090601010999991983010516304+35717-005900FM-15+0015GMTT V0209991C00001220001CN0112001N1+01501+00901999999ADDAG12999GA1011+006009089GA2031+030009039MA1103181999999REMMET005,98??EQDQ01+000000PRSWM2
0091601010999991983010517004+35717-005900FM-15+0015GMTT V0209991C00001220001CN0112001N1+01401+00801999999ADDAG12999GA1011+006009089GA2031+030009039MA1103181999999REMMET006NOSIG?EQDQ01+000000PRSWM2
0091601010999991983010517304+35717-005900FM-15+0015GMTT V0202401N00411220001CN0112001N1+01401+00801999999ADDAG12000GA1011+006009059GA2031+030009039MA1103181999999REMMET006NOSIG?EQDQ01+000000PRSWM2
0186601010999991983010518004+35717-005900SY-MT+0015GMTT V0202601N00411220001CN0112001N1+01201+00901103261ADDAA106000091AG14000AY101061GA1011+006009059GA2031+030009039GF103991011051008001031021KA1120M+01661MA1103181999999MD1310031+9999MW1021REMSYN023333   10166 81620 83360EQDQ01+000000PRSWM2
0076601010999991983010518304+35717-005900FM-15+0015GMTT V0202601N00411220001CN0112001N1+01201+00901999999ADDAG12999GA1011+006009059GA2031+030009039MA1103181999999EQDQ01+000000PRSWM2
0076601010999991983010519004+35717-005900FM-15+0015GMTT V0209991C00001220001CN0112001N1+01001+00601999999ADDAG12999GA1011+006009059GA2031+030009039MA1103291999999EQDQ01+000000PRSWM2
0058601010999991983010520004+35717-005900FM-15+0015GMTT V0209991C00001999991CY0099001N1+00901+00601999999ADDAG12999MA1103291999999REMMET005CAVOKEQDQ01+000000PRSWM2
0130601010999991983010521004+35717-005900SY-MT+0015GMTT V0201001N00251220001CN0099001N1+00701+00701103331ADDAA106000091AG14000AY101031GF100991001001999999001001MA1103291999999MD1110061+9999MW1021REMMET012CAVOK NOSIG?EQDQ01+000000PRSWM2
0065601010999991983010521304+35717-005900FM-15+0015GMTT V0201001N00251999991CY0099001N1+00701+00701999999ADDAG12999MA1103291999999REMMET012CAVOK NOSIG?EQDQ01+000000PRSWM2
0065601010999991983010522004+35717-005900FM-15+0015GMTT V0201401N00201999991CY0099001N1+00801+00701999999ADDAG12999MA1103291999999REMMET012CAVOK NOSIG?EQDQ01+000000PRSWM2
0065601010999991983010522304+35717-005900FM-15+0015GMTT V0201401N00201999991CY0099001N1+00801+00701999999ADDAG12999MA1103291999999REMMET012CAVOK NOSIG?EQDQ01+000000PRSWM2
0065601010999991983010523004+35717-005900FM-15+0015GMTT V0201401N00301999991CY0099001N1+00801+00701999999ADDAG12999MA1103291999999REMMET012CAVOK NOSIG?EQDQ01+000000PRSWM2
0065601010999991983010523304+35717-005900FM-15+0015GMTT V0201201N00201999991CY0099001N1+00801+00701999999ADDAG12000MA1103291999999REMMET012CAVOK NOSIG?EQDQ01+000000PRSWM2
0130601010999991983010600004+35717-005900SY-MT+0015GMTT V0201401N00151220001CN0099001N1+00801+00801103321ADDAA106000091AG14000AY101061GF100991001001999999001001MA1103291999999MD1810011+9999MW1021REMMET012CAVOK NOSIG?EQDQ01+000000PRSWM2
0065601010999991983010600304+35717-005900FM-15+0015GMTT V0201801N00201999991CY0099001N1+00801+00801999999ADDAG11999MA1103291999999REMMET012CAVOK NOSIG?EQDQ01+000000PRSWM2
0065601010999991983010601004+35717-005900FM-15+0015GMTT V0201801N00251999991CY0099001N1+00901+00701999999ADDAG11999MA1103291999999REMMET012CAVOK NOSIG?EQDQ01+000000PRSWM2
0065601010999991983010601304+35717-005900FM-15+0015GMTT V0202001N00411999991CY0099001N1+00901+00701999999ADDAG11999MA1103291999999REMMET012CAVOK NOSIG?EQDQ01+000000PRSWM2
0065601010999991983010602004+35717-005900FM-15+0015GMTT V0201801N00301999991CY0099001N1+00901+00701999999ADDAG11999MA1103291999999REMMET012CAVOK NOSIG?EQDQ01+000000PRSWM2
0163601010999991983010603004+35717-005900SY-MT+0015GMTT V0209991C00001220001CN0099001N1+00901+00701103341ADDAA106000091AG14000AY101031GA1031+069009009GF103991001001999999001021MA1103291999999MD1310021+9999MW1021REMSYN011333   83073MET012CAVOK NOSIG?EQDQ01+000000PRSWM2
0065601010999991983010603304+35717-005900FM-15+0015GMTT V0209991C00001999991CY0099001N1+00901+00701999999ADDAG12999MA1103291999999REMMET012CAVOK NOSIG?EQDQ01+000000PRSWM2
0065601010999991983010604004+35717-005900FM-15+0015GMTT V0201801N00251999991CY0099001N1+00901+00701999999ADDAG12999MA1103291999999REMMET012CAVOK NOSIG?EQDQ01+000000PRSWM2
0065601010999991983010604304+35717-005900FM-15+0015GMTT V0201801N00201999991CY0099001N1+00901+00701999999ADDAG12999MA1103291999999REMMET012CAVOK NOSIG?EQDQ01+000000PRSWM2
0065601010999991983010605004+35717-005900FM-15+0015GMTT V0209991C00001999991CY0099001N1+01001+00701999999ADDAG12999MA1103291999999REMMET012CAVOK NOSIG?EQDQ01+000000PRSWM2
0065601010999991983010605304+35717-005900FM-15+0015GMTT V0209991C00001999991CY0099001N1+01001+00801999999ADDAG12000MA1103291999999REMMET012CAVOK NOSIG?EQDQ01+000000PRSWM2
0152601010999991983010606004+35717-005900FM-12+0015GMTT V0209991C00001069001CN0150001N9+00971+00721103321ADDAA106000091AG14000AY101061GA1021+030009039GA2051+069009009GF106991021001999999031021KA1120N+00701MD1810011+9999MW1021REMSYN023333   20070 82360 85073
0065601010999991983010607004+35717-005900FM-15+0015GMTT V0209991C00001999991CY0099001N1+01001+00701999999ADDAG12999MA1103291999999REMMET012CAVOK NOSIG?EQDQ01+000000PRSWM2
0076601010999991983010608004+35717-005900FM-15+0015GMTT V0202001N00301030001CN0090001N1+01101+00601999999ADDAG12999GA1031+006009059GA2061+030009039MA1103391999999EQDQ01+000000PRSWM2
0076601010999991983010608304+35717-005900FM-15+0015GMTT V0201801N00151030001CN0112001N1+01101+00601999999ADDAG12000GA1031+006009059GA2071+030009039MA1103391999999EQDQ01+000000PRSWM2
0157601010999991983010609004+35717-005900SY-MT+0015GMTT V0201801N00361036001CN0112001N1+01101+00701103431ADDAA106000091AG14000AY101031GA1021+006009059GF108991021051008001081021MA1103391999999MD1210121+9999MW1021REMSYN023333   82620 85360 85073EQDQ01+000000PRSWM2
0107601010999991983010610004+35717-005900FM-15+0015GMTT V0202201N00301030001CN0112001N1+01201+00601999999ADDAG12999GA1021+006909059GA2051+030009039GA3051+069009009MA1103491999999REMMET006NOSIG?EQDQ01+000000PRSWM2
0107601010999991983010611004+35717-005900FM-15+0015GMTT V0202001N00411030001CN0112001N1+01301+00701999999ADDAG12999GA1021+006909059GA2051+030009039GA3051+069009009MA1103491999999REMMET006NOSIG?EQDQ01+000000PRSWM2
0107601010999991983010611304+35717-005900FM-15+0015GMTT V0202401N00511030001CN0112001N1+01301+00701999999ADDAG12000GA1021+006009089GA2051+030009039GA3051+069009009MA1103491999999REMMET006NOSIG?EQDQ01+000000PRSWM2
0155601010999991983010612004+35717-005900FM-12+0015GMTT V0202201N00511069001CN0150001N9+01471+00831103521ADDAA106000091AG14000AY101061GA1011+006909059GA2031+030009039GA3061+069009009GF107991011051008001081021MD1010091+9999MW1021REMSYN023333   81623 83360 86073
0107601010999991983010613004+35717-005900FM-15+0015GMTT V0202401N00411069001CN0112001N1+01501+00801999999ADDAG12999GA1011+006909059GA2031+030009039GA3061+069009009MA1103391999999REMMET006NOSIG?EQDQ01+000000PRSWM2
0092601010999991983010614004+35717-005900FM-15+0015GMTT V0202601N00411069001CN0112001N1+01501+00801999999ADDAG12999GA1011+006909059GA2031+030009039GA3061+069009009MA1103391999999EQDQ01+000000PRSWM2
0189601010999991983010615004+35717-005900SY-MT+0015GMTT V0202601N00411069001CN0112001N1+01501+01101103391ADDAA106000091AG14000AY101031GA1011+006909059GA2041+030009039GA3071+069009009GF108991011051008001081021MA1103291999999MD1710131+9999MW1021REMSYN023333   81623 84360 87073EQDQ01+000000PRSWM2
0092601010999991983010615304+35717-005900FM-15+0015GMTT V0202601N00411069001CN0112001N1+01501+01101999999ADDAG12999GA1011+006909059GA2041+030009039GA3071+069009009MA1103291999999EQDQ01+000000PRSWM2
0105601010999991983010616004+35717-005900FM-15+0015GMTT V0202601N00411030001CN0112001N1+01501+01201999999ADDAG12999GA1021+006909059GA2041+030009039GA3071+069009009MA1103291999999REMMET004NSG?EQDQ01+000000PRSWM2
0105601010999991983010616304+35717-005900FM-15+0015GMTT V0202801N00411030001CN0112001N1+01501+01201999999ADDAG12999GA1021+006909059GA2041+030009039GA3071+069009009MA1103291999999REMMET004NSG?EQDQ01+000000PRSWM2
0105601010999991983010617004+35717-005900FM-15+0015GMTT V0202801N00301030001CN0112001N1+01501+01201999999ADDAG12999GA1031+006909059GA2031+030009039GA3061+069009009MA1103291999999REMMET004NSG?EQDQ01+000000PRSWM2
0092601010999991983010617304+35717-005900FM-15+0015GMTT V0203401N00301030001CN0112001N1+01501+01201999999ADDAG12000GA1031+006009059GA2031+030009039GA3061+069009009MA1103291999999EQDQ01+000000PRSWM2
0218601010999991983010618004+35717-005900SY-MT+0015GMTT V0203401N00411030001CN0112001N1+01401+01201103391ADDAA106000091AG14000AY101061GA1041+006009059GA2031+030009039GA3051+069009009GF108991041051008001081021KA1120M+01531MA1103291999999MD1510001+9999MW1021REMSYN029333   10153 84620 83360 85073MET004NSG?EQDQ01+000000PRSWM2
0092601010999991983010618304+35717-005900FM-15+0015GMTT V0203401N00411030001CN0112001N1+01401+01201999999ADDAG12999GA1041+006009059GA2031+030009039GA3051+069009009MA1103291999999EQDQ01+000000PRSWM2
0092601010999991983010619004+35717-005900FM-15+0015GMTT V0203401N00201030001CN0112001N1+01301+01201999999ADDAG12999GA1041+004509059GA2031+030009039GA3051+069009009MA1103291999999EQDQ01+000000PRSWM2
0092601010999991983010619304+35717-005900FM-15+0015GMTT V0203401N00201030001CN0112001N1+01301+01201999999ADDAG12999GA1041+004509059GA2031+030009039GA3051+069009009MA1103291999999EQDQ01+000000PRSWM2
0105601010999991983010620004+35717-005900FM-15+0015GMTT V0203401N00301030001CN0112001N1+01301+01201999999ADDAG12999GA1041+004509089GA2031+030009039GA3051+069009009MA1103391999999REMMET004NSG?EQDQ01+000000PRSWM2
0092601010999991983010620304+35717-005900FM-15+0015GMTT V0203401N00301030001CN0112001N1+01301+01201999999ADDAG12000GA1041+004509089GA2031+030009039GA3051+069009009MA1103391999999EQDQ01+000000PRSWM2
0179601010999991983010621004+35717-005900SY-MT+0015GMTT V0203401N00511220001CN0112001N1+00901+00801103511ADDAA106000091AG14000AY101031GA1021+006009059GA2031+069009009GF104991021051008001001021MA1103491999999MD1210111+9999MW1021REMSYN017333   82620 83073MET006NOSIG?EQDQ01+000000PRSWM2
0091601010999991983010621304+35717-005900FM-15+0015GMTT V0203401N00411220001CN0112001N1+00901+00801999999ADDAG12999GA1021+006009059GA2031+069009009MA1103491999999REMMET006NOSIG?EQDQ01+000000PRSWM2
0075601010999991983010622004+35717-005900FM-15+0015GMTT V0203401N00511220001CN0112001N1+00901+00801999999ADDAG12999GA1041+069009009MA1103491999999REMMET006NOSIG?EQDQ01+000000PRSWM2
0091601010999991983010622304+35717-005900FM-15+0015GMTT V0203401N00611069001CN0112001N1+00901+00801999999ADDAG12999GA1021+006009059GA2041+069009009MA1103491999999REMMET006NOSIG?EQDQ01+000000PRSWM2
0091601010999991983010623004+35717-005900FM-15+0015GMTT V0203401N00721030001CN0112001N1+01301+01101999999ADDAG12999GA1021+006009059GA2041+030009039MA1103491999999REMMET006NOSIG?EQDQ01+000000PRSWM2
0091601010999991983010623304+35717-005900FM-15+0015GMTT V0203401N00721030001CN0112001N1+01301+01101999999ADDAG12000GA1021+006009059GA2041+030009039MA1103491999999REMMET006NOSIG?EQDQ01+000000PRSWM2
0179601010999991983010700004+35717-005900SY-MT+0015GMTT V0203601N00721060001CN0112001N1+01301+01001103471ADDAA106000091AG14000AY101061GA1021+006009059GA2051+060009009GF106991021051008001081021MA1103391999999MD1810041+9999MW1021REMSYN017333   82620 86070MET006NOSIG?EQDQ01+000000PRSWM2
0091601010999991983010700304+35717-005900FM-15+0015GMTT V0203601N00721060001CN0112001N1+01301+01001999999ADDAG11999GA1021+006009059GA2051+060009009MA1103391999999REMMET006NOSIG?EQDQ01+000000PRSWM2
0091601010999991983010701004+35717-005900FM-15+0015GMTT V0203401N00721060001CN0112001N1+01301+00901999999ADDAG11999GA1021+006009059GA2051+060009009MA1103391999999REMMET006NOSIG?EQDQ01+000000PRSWM2
0089601010999991983010701304+35717-005900FM-15+0015GMTT V0203401N00721030001CN0080001N1+01301+99999999999ADDAG11999GA1041+006009059GA2051+030009039MW1601REMMET0139 1034 NOSIG?EQDQ01+027323ATOD  
0063601010999991983010702004+35717-005900FM-15+0015GMTT V0203601N00511006001CN0080001N1+01201+01001999999ADDAG11999GA1051+006009059GA2051+030009039MA1103391999999MW1211
0076601010999991983010702304+35717-005900FM-15+0015GMTT V0203601N00771006001CN0112001N1+01201+01001999999ADDAG12000GA1051+006009059GA2051+030009039MA1103391999999EQDQ01+000000PRSWM2
0167601010999991983010703004+35717-005900SY-MT+0015GMTT V0203601N00771006001CN0112001N1+01201+01001103371ADDAA106000091AG14002AY161031GA1061+006009059GA2051+030009039GF108991061051008001081999MA1103291999999MD1810101+9999MW1031REMSYN017333   86620 85360EQDQ01+000000PRSWM2
0063601010999991983010703304+35717-005900FM-15+0015GMTT V0203601N00611006001CN0112001N1+01201+01001999999ADDAG12999GA1061+006009059GA2051+030009039MA1103391999999MW1211
0063601010999991983010704004+35717-005900FM-15+0015GMTT V0200601N00151006001CN0112001N1+01201+01001999999ADDAG12999GA1061+006009059GA2051+030009039MA1103291999999MW1211
0076601010999991983010704304+35717-005900FM-15+0015GMTT V0203601N00721006001CN0112001N1+01201+01001999999ADDAG12999GA1061+006009059GA2051+030009039MA1103391999999EQDQ01+000000PRSWM2
0076601010999991983010705004+35717-005900FM-15+0015GMTT V0203601N00771006001CN0112001N1+01301+00901999999ADDAG12999GA1061+006009059GA2051+030009039MA1103291999999EQDQ01+000000PRSWM2
0076601010999991983010705304+35717-005900FM-15+0015GMTT V0203601N00721006001CN0112001N1+01301+00901999999ADDAG12000GA1061+006009059GA2051+030009039MA1103291999999EQDQ01+000000PRSWM2
0197601010999991983010706004+35717-005900SY-MT+0015GMTT V0203601N00721006001CN0112001N1+01201+00801103311ADDAA124000291AA299000391AG12002AY161061GA1061+006009059GA2031+030009039GF107991061051008001081999KA1120N+01191MA1103291999999MD1810061+9999MW1011REMSYN023333   20119 86620 83360EQDQ01+000000PRSWM2
0076601010999991983010707004+35717-005900FM-15+0015GMTT V0203601N00611006001CN0112001N1+01201+00801999999ADDAG12999GA1061+006009059GA2031+030009039MA1103291999999EQDQ01+000000PRSWM2
0076601010999991983010707304+35717-005900FM-15+0015GMTT V0203601N00611006001CN0112001N1+01201+00801999999ADDAG12999GA1061+006009059GA2031+030009039MA1103291999999EQDQ01+000000PRSWM2
0076601010999991983010708004+35717-005900FM-15+0015GMTT V0201201N00101006001CN0080001N1+00801+00701999999ADDAG12999GA1051+006009059GA2031+030009039MA1103291999999EQDQ01+000000PRSWM2
0076601010999991983010708304+35717-005900FM-15+0015GMTT V0201201N00101006001CN0080001N1+00801+00701999999ADDAG12000GA1051+006009059GA2031+030009039MA1103291999999EQDQ01+000000PRSWM2
0167601010999991983010709004+35717-005900SY-MT+0015GMTT V0201001N00301030001CN0080001N1+01001+00901103351ADDAA106000091AG14000AY101031GA1041+006009059GA2031+030009039GF106991041051008001081001MA1103291999999MD1310041+9999MW1021REMSYN017333   84620 83360EQDQ01+000000PRSWM2
0076601010999991983010709304+35717-005900FM-15+0015GMTT V0209999999999030001CN0080001N1+01001+00901999999ADDAG12999GA1041+006009059GA2031+030009039MA1103291999999EQDQ01+000000PRSWM2
0091601010999991983010710004+35717-005900FM-15+0015GMTT V0201201N00151030001CN0112001N1+01101+01001999999ADDAG12999GA1031+006009059GA2041+030009039MA1103291999999REMMET006NOSIG?EQDQ01+000000PRSWM2
0089601010999991983010710304+35717-005900FM-15+0015GMTT V0201001N00101030001CN0112001N1+01101+01001999999ADDAG12999GA1031+006009059GA2041+030009039MA1103291999999REMMET004NSG?EQDQ01+000000PRSWM2
0073601010999991983010711004+35717-005900FM-15+0015GMTT V0201601N00101220001CN0112001N1+01301+01001999999ADDAG12999GA1021+006009059MA1103391999999REMMET004NGG?EQDQ01+000000PRSWM2
0073601010999991983010711304+35717-005900FM-15+0015GMTT V0202801N00101220001CN0112001N1+01301+01001999999ADDAG12000GA1021+006009059MA1103391999999REMMET004NSG?EQDQ01+000000PRSWM2
0155601010999991983010712004+35717-005900SY-MT+0015GMTT V0203001N00201220001CN0112001N1+01501+01001103391ADDAA106000091AG14000AY101061GA1021+006009059GF103991021051008001081021MA1103291999999MD1010051+9999MW1021REMSYN011333   82620MET004NSG?EQDQ01+000000PRSWM2
0073601010999991983010712304+35717-005900FM-15+0015GMTT V0203401N00101220001CN0112001N1+01501+01001999999ADDAG12999GA1011+006009059MA1103291999999REMMET004NSG?EQDQ01+000000PRSWM2
0072601010999991983010713004+35717-005900FM-15+0015GMTT V0203401N00201220001CN0112001N1+01501+01001999999ADDAG12999GA1011+006009059MA1103181999999REMMET003,:?EQDQ01+000000PRSWM2
0075601010999991983010714004+35717-005900FM-15+0015GMTT V0203401N00301220001CN0112001N1+01601+01001999999ADDAG12999GA1011+006009059MA1103181999999REMMET006NOSIG?EQDQ01+000000PRSWM2
0155601010999991983010715004+35717-005900SY-MT+0015GMTT V0203601N00301220001CN0112001N1+01701+01001103181ADDAA106000091AG14000AY101031GA1021+006009059GF104991021051008001081021MA1103121999999MD1610211+9999MW1021REMSYN011333   82620MET004NSG?EQDQ01+000000PRSWM2
0073601010999991983010715304+35717-005900FM-15+0015GMTT V0200601N00301220001CN0112001N1+01701+01001999999ADDAG12999GA1021+006009059MA1103121999999REMMET004NSG?EQDQ01+000000PRSWM2
0073601010999991983010716004+35717-005900FM-15+0015GMTT V0200601N00611220001CN0112001N1+01601+00801999999ADDAG12999GA1011+006009059MA1103121999999REMMET004NSG?EQDQ01+000000PRSWM2
0073601010999991983010716304+35717-005900FM-15+0015GMTT V0200601N00611220001CN0112001N1+01601+00801999999ADDAG12999GA1011+006009059MA1103121999999REMMET004NSG?EQDQ01+000000PRSWM2
0089601010999991983010717004+35717-005900FM-15+0015GMTT V0200601N00611220001CN0112001N1+01501+00901999999ADDAG12999GA1011+006009059GA2041+069009009MA1103121999999REMMET004NSG?EQDQ01+000000PRSWM2
0089601010999991983010717304+35717-005900FM-15+0015GMTT V0200601N00411220001CN0112001N1+01501+00901999999ADDAG12000GA1011+006009059GA2041+069009009MA1103121999999REMMET004NSG?EQDQ01+000000PRSWM2
0192601010999991983010718004+35717-005900SY-MT+0015GMTT V0200401N00411220001CN0112001N1+01401+01001103191ADDAA106000091AG14000AY101061GA1011+006009059GA2041+069009009GF104991011051008001001021KA1120M+01731MA1103121999999MD1310011+9999MW1021REMSYN017333   10173 81620MET006NOSIG?EQDQ01+000000PRSWM2
0091601010999991983010718304+35717-005900FM-15+0015GMTT V0200401N00301220001CN0112001N1+01401+01001999999ADDAG12999GA1011+006009059GA2041+069009009MA1103121999999REMMET006NOSIG?EQDQ01+000000PRSWM2
0091601010999991983010719004+35717-005900FM-15+0015GMTT V0200601N00411220001CN0112001N1+01301+01001999999ADDAG12999GA1011+006009059GA2041+069009009MA1103181999999REMMET006NOSIG?EQDQ01+000000PRSWM2
0091601010999991983010719304+35717-005900FM-15+0015GMTT V0200601N00411220001CN0112001N1+01301+01001999999ADDAG12999GA1011+006009059GA2041+069009009MA1103181999999REMMET006NOSIG?EQDQ01+000000PRSWM2
0076601010999991983010720004+35717-005900FM-15+0015GMTT V0200601N00411220001CN0112001N1+01301+01001999999ADDAG12999GA1011+006009059GA2041+069009009MA1103181999999EQDQ01+000000PRSWM2
0088601010999991983010720304+35717-005900FM-15+0015GMTT V0209999999999220001CN0112001N1+01301+01001999999ADDAG12000GA1011+006009059GA2041+069009009MA1103181999999REMMET003,:?EQDQ01+000000PRSWM2
0123601010999991983010721004+35717-005900SY-MT+0015GMTT V0200401N00511220001CN0099001N1+01301+00601103261ADDAA106000091AG14000AY101031GF100991001001999999001001MA1103181999999MD1110071+9999MW1021REMMET005CAVOKEQDQ01+000000PRSWM2
0058601010999991983010721304+35717-005900FM-15+0015GMTT V0200401N00511999991CY0099001N1+01301+00601999999ADDAG12999MA1103181999999REMMET005CAVOKEQDQ01+000000PRSWM2
0063601010999991983010722004+35717-005900FM-15+0015GMTT V0200401N00511999991CY0099001N1+01301+00601999999ADDAG12999MA1103181999999REMMET010CAVOK NSG?EQDQ01+000000PRSWM2
0058601010999991983010722304+35717-005900FM-15+0015GMTT V0200401N00511999991CY0099001N1+01301+00601999999ADDAG12999MA1103181999999REMMET005CAVOKEQDQ01+000000PRSWM2
0063601010999991983010723004+35717-005900FM-15+0015GMTT V0200401N00511999991CY0099001N1+01301+00701999999ADDAG12999MA1103181999999REMMET010CAVOK NSG?EQDQ01+000000PRSWM2
0058601010999991983010723304+35717-005900FM-15+0015GMTT V0200401N00511999991CY0099001N1+01301+00701999999ADDAG12000MA1103181999999REMMET005CAVOKEQDQ01+000000PRSWM2
0128601010999991983010800004+35717-005900SY-MT+0015GMTT V0200601N00611220001CN0099001N1+01101+00901103261ADDAA106000091AG14000AY101061GF100991001001999999001001MA1103181999999MD1410001+9999MW1021REMMET010CAVOK NSG?EQDQ01+000000PRSWM2
0063601010999991983010800304+35717-005900FM-15+0015GMTT V0200601N00611999991CY0099001N1+01101+00901999999ADDAG11999MA1103181999999REMMET010CAVOK NSG?EQDQ01+000000PRSWM2
0063601010999991983010801004+35717-005900FM-15+0015GMTT V0200601N00611999991CY0099001N1+01101+00901999999ADDAG11999MA1103181999999REMMET010CAVOK NSG?EQDQ01+000000PRSWM2
0058601010999991983010801304+35717-005900FM-15+0015GMTT V0200601N00611999991CY0099001N1+01101+00901999999ADDAG11999MA1103181999999REMMET005CAVOKEQDQ01+000000PRSWM2
0063601010999991983010802004+35717-005900FM-15+0015GMTT V0209991C00001999991CY0099001N1+01101+00901999999ADDAG11999MA1103181999999REMMET010CAVOK NSG?EQDQ01+000000PRSWM2
0058601010999991983010802304+35717-005900FM-15+0015GMTT V0209991C00001999991CY0099001N1+01101+00901999999ADDAG12000MA1103181999999REMMET005CAVOKEQDQ01+000000PRSWM2
0123601010999991983010803004+35717-005900SY-MT+0015GMTT V0200801N00301220001CN0099001N1+00901+00801103261ADDAA106000091AG14000AY101031GF100991001001999999001001MA1103181999999MD1410001+9999MW1021REMMET005CAVOKEQDQ01+000000PRSWM2
0058601010999991983010803304+35717-005900FM-15+0015GMTT V0200801N00301999991CY0099001N1+00901+00801999999ADDAG12999MA1103181999999REMMET005CAVOKEQDQ01+000000PRSWM2
0058601010999991983010804304+35717-005900FM-15+0015GMTT V0200801N00301999991CY0099001N1+00901+00801999999ADDAG12999MA1103181999999REMMET005CAVOKEQDQ01+000000PRSWM2
0058601010999991983010805004+35717-005900FM-15+0015GMTT V0201201N00101999991CY0099001N1+01001+00901999999ADDAG12999MA1103181999999REMMET005CAVOKEQDQ01+000000PRSWM2
0058601010999991983010805304+35717-005900FM-15+0015GMTT V0201201N00101999991CY0099001N1+01001+00901999999ADDAG12000MA1103181999999REMMET005CAVOKEQDQ01+000000PRSWM2
0158601010999991983010806004+35717-005900SY-MT+0015GMTT V0200801N00511220001CN0099001N1+01201+01001103261ADDAA106000091AG14000AY101061GF100991001001999999001001KA1120N+00821MA1103181999999MD1410001+9999MW1021REMSYN011333   20082MET010CAVOK NSG?EQDQ01+000000PRSWM2
0058601010999991983010806304+35717-005900FM-15+0015GMTT V0200801N00511999991CY0099001N1+01201+01001999999ADDAG12999MA1103181999999REMMET005CAVOKEQDQ01+000000PRSWM2
0063601010999991983010807004+35717-005900FM-15+0015GMTT V0201001N00301999991CY0099001N1+01101+00901999999ADDAG12999MA1103181999999REMMET010CAVOK NSG?EQDQ01+000000PRSWM2
0075601010999991983010808004+35717-005900FM-15+0015GMTT V0201401N00151220001CN0112001N1+01001+00801999999ADDAG12999GA1021+006009059MA1103181999999REMMET006NOSIG?EQDQ01+000000PRSWM2
0075601010999991983010808304+35717-005900FM-15+0015GMTT V0201401N00151220001CN0112001N1+01001+00801999999ADDAG12000GA1021+006009059MA1103181999999REMMET006NOSIG?EQDQ01+000000PRSWM2
0179601010999991983010809004+35717-005900SY-MT+0015GMTT V0201201N00511220001CN0112001N1+01201+00901103241ADDAA106000091AG14000AY101031GA1021+006009059GA2041+069009009GF104991021051008001001021MA1103181999999MD1510021+9999MW1021REMSYN017333   82620 84073MET006NOSIG?EQDQ01+000000PRSWM2
0091601010999991983010809304+35717-005900FM-15+0015GMTT V0201201N00611069001CN0112001N1+01201+00901999999ADDAG12999GA1021+006009059GA2041+069009009MA1103181999999REMMET006NOSIG?EQDQ01+000000PRSWM2
0091601010999991983010810004+35717-005900FM-15+0015GMTT V0201001N00721069001CN0112001N1+01401+01001999999ADDAG12999GA1021+006009059GA2041+069009009MA1103181999999REMMET006NOSIG?EQDQ01+000000PRSWM2
0065601010999991983010811004+35717-005900FM-15+0015GMTT V0201001N00921999991CY0099001N1+01501+00901999999ADDAG12999MA1103291999999REMMET012CAVOK NOSIG?EQDQ01+000000PRSWM2
0063601010999991983010811304+35717-005900FM-15+0015GMTT V0201001N00921999991CY0099001N1+01501+00901999999ADDAG12000MA1103291999999REMMET010CAVOK NSG?EQDQ01+000000PRSWM2
0161601010999991983010812004+35717-005900SY-MT+0015GMTT V0201001N01031220001CN0150001N1+01621+00831103271ADDAA106000091AG14000AY101061GA1041+069009009GF104991001001999999001021MA1103181999999MD1010031+9999MW1021REMSYN011333   84073MET010CAVOK NSG?EQDQ01+000000PRSWM2
0063601010999991983010813004+35717-005900FM-15+0015GMTT V0201001N01021999991CY0099001N1+01601+00801999999ADDAG12999MA1103181999999REMMET010CAVOK NSG?EQDQ01+000000PRSWM2
0065601010999991983010813304+35717-005900FM-15+0015GMTT V0201001N01021999991CY0099001N1+01601+00801999999ADDAG12999MA1103121999999REMMET012CAVOK NOSIG?EQDQ01+000000PRSWM2
0065601010999991983010814004+35717-005900FM-15+0015GMTT V0201001N00921999991CY0099001N1+01601+00801999999ADDAG12999MA1103121999999REMMET012CAVOK NOSIG?EQDQ01+000000PRSWM2
0179601010999991983010815004+35717-005900SY-MT+0015GMTT V0201001N01281220001CN0112001N1+01601+00801103071ADDAA106000091AG14000AY101031GA1011+004809089GA2041+069009009GF104991011021004501001021MA1103011999999MD1810201+9999MW1021REMSYN017333   81816 84073MET006NOSIG?EQDQ01+000000PRSWM2
0091601010999991983010815304+35717-005900FM-15+0015GMTT V0201001N01131220001CN0112001N1+01601+00801999999ADDAG12999GA1011+004809089GA2041+069009009MA1103011999999REMMET006NOSIG?EQDQ01+000000PRSWM2
0091601010999991983010816004+35717-005900FM-15+0015GMTT V0201001N01131220001CN0112001N1+99999+99999999999ADDAG12999GA1011+004809089GA2041+069009009MA1103011999999REMMET006NOSIG?EQDQ01+000000PRSWM2
0091601010999991983010816304+35717-005900FM-15+0015GMTT V0201001N01131220001CN0112001N1+99999+99999999999ADDAG12999GA1011+004809089GA2041+069009009MA1103011999999REMMET006NOSIG?EQDQ01+000000PRSWM2
0091601010999991983010817004+35717-005900FM-15+0015GMTT V0201001N01231220001CN0112001N1+01501+00801999999ADDAG12999GA1011+004809089GA2031+069009009MA1103011999999REMMET006NOSIG?EQDQ01+000000PRSWM2
0091601010999991983010817304+35717-005900FM-15+0015GMTT V0201001N01331220001CN0112001N1+01501+00801999999ADDAG12000GA1011+004809089GA2031+069009009MA1103011999999REMMET006NOSIG?EQDQ01+000000PRSWM2
0184601010999991983010818004+35717-005900SY-MT+0015GMTT V0201001N01331220001CN0112001N1+01401+00801103111ADDAA106000091AG14000AY101061GA1011+004809089GF103991011021004501001021KA1120M+01681MA1103121999999MD1310041+9999MW1021OC101751REMSYN017333   10168 81816MET006NOSIG?EQDQ01+000000PRSWM2
0075601010999991983010818304+35717-005900FM-15+0015GMTT V0201001N01021220001CN0112001N1+01401+00801999999ADDAG12999GA1011+004809089MA1103121999999REMMET006NOSIG?EQDQ01+000000PRSWM2
0068601010999991983010819004+35717-005900FM-15+0015GMTT V0201001N01231220001CN0112001N1+01401+00801999999ADDAG12999GA1011+004809089MA1103121999999OC101541EQDQ01+000000PRSWM2
0099601010999991983010819304+35717-005900FM-15+0015GMTT V0201001N01021220001CN0112001N1+01401+00801999999ADDAG12999GA1011+004809089GA2041+069009009MA1103121999999OC101331REMMET006NOSIG?EQDQ01+000000PRSWM2
0099601010999991983010820004+35717-005900FM-15+0015GMTT V0201001N01021220001CN0112001N1+01301+00801999999ADDAG12999GA1011+004809089GA2041+069009009MA1103011999999OC101281REMMET006NOSIG?EQDQ01+000000PRSWM2
0156601010999991983010821004+35717-005900SY-MT+0015GMTT V0201001N00921220001CN0099001N1+01501+01001103121ADDAA106000091AG14000AY101031GA1041+069009009GF104991001001999999001021MA1103121999999MD1310011+9999MW1021REMSYN011333   84073MET005CAVOKEQDQ01+000000PRSWM2
0073601010999991983010822004+35717-005900FM-15+0015GMTT V0201001N01021999991CY0099001N1+01401+01001999999ADDAG12999MA1103121999999OC101541REMMET012CAVOK NOSIG?EQDQ01+000000PRSWM2
0073601010999991983010822304+35717-005900FM-15+0015GMTT V0201001N01021999991CY0099001N1+01401+01001999999ADDAG12999MA1103121999999OC101541REMMET012CAVOK NOSIG?EQDQ01+000000PRSWM2
0073601010999991983010823004+35717-005900FM-15+0015GMTT V0201001N01021999991CY0099001N1+01301+00901999999ADDAG12999MA1103121999999OC101541REMMET012CAVOK NOSIG?EQDQ01+000000PRSWM2
0065601010999991983010823304+35717-005900FM-15+0015GMTT V0201001N01021999991CY0099001N1+01301+00901999999ADDAG12000MA1103121999999REMMET012CAVOK NOSIG?EQDQ01+000000PRSWM2
0138601010999991983010900004+35717-005900SY-MT+0015GMTT V0201001N01131220001CN0099001N1+01301+00801103151ADDAA106000091AG14000AY101061GF100991001001999999001001MA1103121999999MD1110011+9999MW1021OC101641REMMET012CAVOK NOSIG?EQDQ01+000000PRSWM2
0073601010999991983010900304+35717-005900FM-15+0015GMTT V0201001N01131999991CY0099001N1+01301+00801999999ADDAG11999MA1103121999999OC101541REMMET012CAVOK NOSIG?EQDQ01+000000PRSWM2
0073601010999991983010901004+35717-005900FM-15+0015GMTT V0201001N01131999991CY0099001N1+01301+00801999999ADDAG11999MA1103121999999OC101641REMMET012CAVOK NOSIG?EQDQ01+000000PRSWM2
0073601010999991983010901304+35717-005900FM-15+0015GMTT V0201001N01131999991CY0099001N1+01301+00801999999ADDAG11999MA1103121999999OC101641REMMET012CAVOK NOSIG?EQDQ01+000000PRSWM2
0073601010999991983010902004+35717-005900FM-15+0015GMTT V0201001N01131999991CY0099001N1+01401+00901999999ADDAG11999MA1103121999999OC101751REMMET012CAVOK NOSIG?EQDQ01+000000PRSWM2
0073601010999991983010902304+35717-005900FM-15+0015GMTT V0201001N01021999991CY0099001N1+01401+00901999999ADDAG12000MA1103121999999OC101641REMMET012CAVOK NOSIG?EQDQ01+000000PRSWM2
0138601010999991983010903004+35717-005900SY-MT+0015GMTT V0201001N01021220001CN0099001N1+01301+01001103111ADDAA106000091AG14000AY101031GF100991001001999999001001MA1103121999999MD1810041+9999MW1021OC101641REMMET012CAVOK NOSIG?EQDQ01+000000PRSWM2
0073601010999991983010903304+35717-005900FM-15+0015GMTT V0201001N01021999991CY0099001N1+01301+01001999999ADDAG12999MA1103121999999OC101641REMMET012CAVOK NOSIG?EQDQ01+000000PRSWM2
0073601010999991983010904004+35717-005900FM-15+0015GMTT V0201001N01021999991CY0099001N1+01301+01001999999ADDAG12999MA1103121999999OC101641REMMET012CAVOK NOSIG?EQDQ01+000000PRSWM2
0073601010999991983010905004+35717-005900FM-15+0015GMTT V0201201N01231999991CY0099001N1+01401+00801999999ADDAG12999MA1103011999999OC101751REMMET012CAVOK NOSIG?EQDQ01+000000PRSWM2
0073601010999991983010905304+35717-005900FM-15+0015GMTT V0201001N01231999991CY0099001N1+01401+00801999999ADDAG12000MA1103011999999OC101751REMMET012CAVOK NOSIG?EQDQ01+000000PRSWM2
0206601010999991983010906004+35717-005900SY-MT+0015GMTT V0201001N01021220001CN0099001N1+01301+00901103041ADDAA106000091AG14000AY101061GA1021+069009009GF199999001001999999001021KA1120N+01231MA1103011999999MD1610081+9999MW1021OC101691REMSYN017333   20123 82073MET012CAVOK NOSIG?EQDQ01+000002SCOTCVQ02+000000PRSWM2
0073601010999991983010906304+35717-005900FM-15+0015GMTT V0201001N01131999991CY0099001N1+01301+00901999999ADDAG12999MA1103011999999OC101641REMMET012CAVOK NOSIG?EQDQ01+000000PRSWM2
0073601010999991983010907004+35717-005900FM-15+0015GMTT V0201001N01181999991CY0099001N1+01301+00901999999ADDAG12999MA1103011999999OC101751REMMET012CAVOK NOSIG?EQDQ01+000000PRSWM2
0083601010999991983010908004+35717-005900FM-15+0015GMTT V0201001N01231220001CN0112001N1+01301+00901999999ADDAG12999GA1021+004809089MA1103011999999OC101751REMMET006NOSIG?EQDQ01+000000PRSWM2
0075601010999991983010908304+35717-005900FM-15+0015GMTT V0201001N01231220001CN0112001N1+01301+00901999999ADDAG12000GA1021+004809089MA1103011999999REMMET006NOSIG?EQDQ01+000000PRSWM2
0165601010999991983010909004+35717-005900SY-MT+0015GMTT V0201001N01231220001CN0112001N1+01401+00901103071ADDAA106000091AG14000AY101031GA1021+004809089GF102991021021004501001001MA1103011999999MD1310031+9999MW1021OC101751REMSYN011333   82816MET006NOSIG?EQDQ01+000000PRSWM2
0083601010999991983010909304+35717-005900FM-15+0015GMTT V0201001N01231220001CN0112001N1+01401+00901999999ADDAG12999GA1021+004809089MA1103011999999OC101751REMMET006NOSIG?EQDQ01+000000PRSWM2
0075601010999991983010910004+35717-005900FM-15+0015GMTT V0201001N01331220001CN0112001N1+01501+00901999999ADDAG12999GA1021+004809089MA1103121999999REMMET006NOSIG?EQDQ01+000000PRSWM2
0076601010999991983010911004+35717-005900FM-15+0015GMTT V0201001N01541220001CN0112001N1+99999+99999999999ADDAG12999GA1011+999999089OC101951REMMET01410 1031 NOSIG?EQDQ01+000000PRSWM2
0083601010999991983010911304+35717-005900FM-15+0015GMTT V0201001N01541220001CN0112001N1+01601+01001999999ADDAG12000GA1011+004809089MA1103121999999OC102051REMMET006NOSGV?EQDQ01+000000PRSWM2
0165601010999991983010912004+35717-005900SY-MT+0015GMTT V0201001N01541220001CN0112001N1+01701+00901103151ADDAA106000091AG14000AY101061GA1011+004809089GF101991011021004501001001MA1103121999999MD1010081+9999MW1021OC102051REMSYN011333   81816MET006NOSIG?EQDQ01+000000PRSWM2
0083601010999991983010912304+35717-005900FM-15+0015GMTT V0201001N01541220001CN0112001N1+01701+00901999999ADDAG12999GA1011+004809089MA1103121999999OC102051REMMET006NOSIG?EQDQ01+000000PRSWM2
0083601010999991983010913004+35717-005900FM-15+0015GMTT V0201001N01541220001CN0112001N1+01701+00901999999ADDAG12999GA1011+004809089MA1103121999999OC102051REMMET006NOSIG?EQDQ01+000000PRSWM2
0068601010999991983010913304+35717-005900FM-15+0015GMTT V0201001N01541220001CN0112001N1+01701+00901999999ADDAG12999GA1011+004809089MA1103121999999OC102051EQDQ01+000000PRSWM2
0068601010999991983010914004+35717-005900FM-15+0015GMTT V0201001N01641220001CN0112001N1+01701+00801999999ADDAG12999GA1011+004809089MA1103011999999OC102051EQDQ01+000000PRSWM2
0068601010999991983010914304+35717-005900FM-15+0015GMTT V0201001N01641220001CN0112001N1+01701+00801999999ADDAG12000GA1011+004809089MA1103011999999OC102051EQDQ01+000000PRSWM2
0145601010999991983010915004+35717-005900SY-MT+0015GMTT V0201001N01641220001CN0112001N1+01701+00901102951ADDAA106000091AG14000AY101031GA1011+004809089GF101991011021004501001001MA1102911999999MD1710201+9999MW1021REMSYN011333   81816EQDQ01+000000PRSWM2
0060601010999991983010915304+35717-005900FM-15+0015GMTT V0201001N01641220001CN0112001N1+01701+00901999999ADDAG12999GA1011+004809089MA1102911999999EQDQ01+000000PRSWM2
0060601010999991983010916004+35717-005900FM-15+0015GMTT V0201001N01541220001CN0112001N1+01601+00901999999ADDAG12999GA1011+004809089MA1102911999999EQDQ01+000000PRSWM2
0060601010999991983010916304+35717-005900FM-15+0015GMTT V0201001N01541220001CN0112001N1+01601+00901999999ADDAG12999GA1011+004809089MA1102911999999EQDQ01+000000PRSWM2
0060601010999991983010917304+35717-005900FM-15+0015GMTT V0201001N01641220001CN0112001N1+01501+00801999999ADDAG12000GA1011+004809089MA1102911999999EQDQ01+000000PRSWM2
0172601010999991983010918004+35717-005900SY-MT+0015GMTT V0201001N01641220001CN0112001N1+01401+00901103021ADDAA106000091AG14000AY101061GA1011+004809089GF101991011021004501001001KA1120M+01721MA1103011999999MD1310071+9999MW1021OC102051REMSYN017333   10172 81816EQDQ01+000000PRSWM2
0068601010999991983010918304+35717-005900FM-15+0015GMTT V0201001N01541220001CN0112001N1+01401+00901999999ADDAG12999GA1011+004809089MA1103011999999OC101951EQDQ01+000000PRSWM2
0068601010999991983010919004+35717-005900FM-15+0015GMTT V0201201N01541220001CN0112001N1+01401+00901999999ADDAG12999GA1011+004809089MA1103011999999OC101951EQDQ01+000000PRSWM2
0068601010999991983010919304+35717-005900FM-15+0015GMTT V0201001N01541220001CN0112001N1+01401+00901999999ADDAG12999GA1011+004809089MA1103011999999OC101951EQDQ01+000000PRSWM2
0068601010999991983010920004+35717-005900FM-15+0015GMTT V0201001N01441220001CN0112001N1+01401+01001999999ADDAG12999GA1011+004809089MA1103011999999OC101801EQDQ01+000000PRSWM2
0130601010999991983010921004+35717-005900SY-MT+0015GMTT V0201001N01131220001CN0099001N1+01301+01001103081ADDAA106000091AG14000AY101031GF100991001001999999001001MA1103011999999MD1210061+9999MW1021REMMET012CAVOK NOSIG?EQDQ01+000000PRSWM2
0073601010999991983010921304+35717-005900FM-15+0015GMTT V0201001N01131999991CY0099001N1+01301+01001999999ADDAG12999MA1103011999999OC101441REMMET012CAVOK NOSIG?EQDQ01+000000PRSWM2
0073601010999991983010922004+35717-005900FM-15+0015GMTT V0201001N01131999991CY0099001N1+01301+00901999999ADDAG12999MA1103121999999OC101281REMMET012CAVOK NOSIG?EQDQ01+000000PRSWM2
0066601010999991983010923004+35717-005900FM-15+0015GMTT V0201001N01021999991CY0099001N1+01301+00901999999ADDAG12999MA1103121999999OC101281REMMET005CAVOKEQDQ01+000000PRSWM2
0138601010999991983011000004+35717-005900SY-MT+0015GMTT V0201001N01231220001CN0099001N1+01301+00901103111ADDAA106000091AG14000AY101061GF100991001001999999001001MA1103121999999MD1110011+9999MW1021OC101851REMMET012CAVOK NOSIG?EQDQ01+000000PRSWM2
0073601010999991983011001004+35717-005900FM-15+0015GMTT V0201001N01231999991CY0099001N1+01101+00901999999ADDAG11999MA1103121999999OC101441REMMET012CAVOK NOSIG?EQDQ01+000000PRSWM2
0073601010999991983011001304+35717-005900FM-15+0015GMTT V0201001N01131999991CY0099001N1+01301+00901999999ADDAG11999MA1103011999999OC101441REMMET012CAVOK NOSIG?EQDQ01+000000PRSWM2
0073601010999991983011002004+35717-005900FM-15+0015GMTT V0201001N01131999991CY0099001N1+01301+00901999999ADDAG11999MA1103011999999OC101441REMMET012CAVOK NOSIG?EQDQ01+000000PRSWM2
0073601010999991983011002304+35717-005900FM-15+0015GMTT V0201001N01131999991CY0099001N1+01301+00901999999ADDAG12000MA1103011999999OC101331REMMET012CAVOK NOSIG?EQDQ01+000000PRSWM2
0123601010999991983011003004+35717-005900SY-MT+0015GMTT V0201001N01131220001CN0099001N1+01301+00901103081ADDAA106000091AG14000AY101031GF100991001001999999001001MA1103011999999MD1810031+9999MW1021REMMET005CAVOKEQDQ01+000000PRSWM2
0065601010999991983011003304+35717-005900FM-15+0015GMTT V0201001N01021999991CY0099001N1+01301+00901999999ADDAG12999MA1103011999999REMMET012CAVOK NOSIG?EQDQ01+000000PRSWM2
0073601010999991983011005004+35717-005900FM-15+0015GMTT V0201201N01331999991CY0099001N1+01301+00901999999ADDAG12999MA1103011999999OC101541REMMET012CAVOK NOSIG?EQDQ01+000000PRSWM2
0108601010999991983011006004+35717-005900FM-12+0015GMTT V0201001N01131220001CN0150001N9+01271+00851103061ADDAA106000091AG14000AY101061GF100991001001999999001001KA1120N+01261MD1810021+9999MW1021REMSYN011333   20126
0073601010999991983011006304+35717-005900FM-15+0015GMTT V0201001N01131999991CY0099001N1+01301+00901999999ADDAG12999MA1103011999999OC101441REMMET012CAVOK NOSIG?EQDQ01+000000PRSWM2
0073601010999991983011007004+35717-005900FM-15+0015GMTT V0201001N01131999991CY0099001N1+01201+00901999999ADDAG12999MA1103011999999OC101441REMMET012CAVOK NOSIG?EQDQ01+000000PRSWM2
0066601010999991983011008004+35717-005900FM-15+0015GMTT V0201001N01231999991CY0099001N1+01201+00801999999ADDAG12999MA1103011999999OC101851REMMET005CAVOKEQDQ01+000000PRSWM2
0066601010999991983011008304+35717-005900FM-15+0015GMTT V0201001N01231999991CY0099001N1+01201+00801999999ADDAG12000MA1103011999999OC101851REMMET005CAVOKEQDQ01+000000PRSWM2
0164601010999991983011009004+35717-005900SY-MT+0015GMTT V0201001N01231220001CN0099001N1+01301+00701103121ADDAA106000091AG14000AY101031GA1021+069009009GF102991001001999999001021MA1103121999999MD1310061+9999MW1021OC101851REMSYN011333   82073MET005CAVOKEQDQ01+000000PRSWM2
0071601010999991983011010004+35717-005900FM-15+0015GMTT V0201001N01231999991CY0099001N1+01401+00701999999ADDAG12999MA1103181999999OC101851REMMET010CAVOK NSG?EQDQ01+000000PRSWM2
0071601010999991983011011004+35717-005900FM-15+0015GMTT V0201001N01331999991CY0099001N1+01501+00701999999ADDAG12999MA1103181999999OC101851REMMET010CAVOK NSG?EQDQ01+000000PRSWM2
0169601010999991983011012004+35717-005900SY-MT+0015GMTT V0201001N01331220001CN0099001N1+01601+00601103181ADDAA106000091AG14000AY101061GA1021+069009009GF102991001001999999001021MA1103121999999MD1010061+9999MW1021OC101851REMSYN011333   82073MET010CAVOK NSG?EQDQ01+000000PRSWM2
0071601010999991983011012304+35717-005900FM-15+0015GMTT V0201001N01331999991CY0099001N1+01601+00601999999ADDAG12999MA1103121999999OC101851REMMET010CAVOK NSG?EQDQ01+000000PRSWM2
0097601010999991983011013004+35717-005900FM-15+0015GMTT V0201001N01441220001CN0112001N1+01601+00601999999ADDAG12999GA1011+004809089GA2031+069009009MA1103121999999OC101851REMMET004NSG?EQDQ01+000000PRSWM2
0084601010999991983011014004+35717-005900FM-15+0015GMTT V0201001N01541220001CN0112001N1+01601+00601999999ADDAG12999GA1011+004809089GA2031+069009009MA1103011999999OC102051EQDQ01+000000PRSWM2
0084601010999991983011014304+35717-005900FM-15+0015GMTT V0201001N01541220001CN0112001N1+01601+00601999999ADDAG12000GA1011+004809089GA2031+069009009MA1103011999999OC102051EQDQ01+000000PRSWM2
0167601010999991983011015004+35717-005900SY-MT+0015GMTT V0201001N01541220001CN0112001N1+01601+00501103001ADDAA106000091AG14000AY101031GA1011+004809089GA2031+069009009GF104991011021004501001021MA1103011999999MD1810181+9999MW1021REMSYN017333   81816 83073EQDQ01+000000PRSWM2
0076601010999991983011015304+35717-005900FM-15+0015GMTT V0209999999999220001CN0112001N1+01601+00501999999ADDAG12999GA1011+004809089GA2031+069009009MA1103011999999EQDQ01+000000PRSWM2
0089601010999991983011016004+35717-005900FM-15+0015GMTT V0201001N01541220001CN0112001N1+01501+00601999999ADDAG12999GA1011+004809089GA2041+069009009MA1102911999999REMMET004NSG?EQDQ01+000000PRSWM2
0057601010999991983011016304+35717-005900FM-15+0015GMTT V0201001N01441220001CN0112001N1+01501+00601999999ADDAG12999MA1102911999999REMMET004NSG?EQDQ01+000000PRSWM2
0099601010999991983011017004+35717-005900FM-15+0015GMTT V0201001N01331220001CN0112001N1+01401+00901999999ADDAG12999GA1011+004809089GA2041+069009009MA1103011999999OC101851REMMET006NOSIG?EQDQ01+000000PRSWM2
0089601010999991983011017304+35717-005900FM-15+0015GMTT V0201001N01231220001CN0112001N1+01401+00901999999ADDAG12000GA1011+004809089GA2041+069009009MA1103011999999REMMET004NSG?EQDQ01+000000PRSWM2
0097601010999991983011018004+35717-005900FM-15+0015GMTT V0201001N01231220001CN0112001N1+01301+00601999999ADDAG12000GA1011+004809089GA2031+069009009MA1103011999999OC101641REMMET004NSG?EQDQ01+000000PRSWM2
0097601010999991983011018304+35717-005900FM-15+0015GMTT V0201001N01231220001CN0112001N1+01301+00601999999ADDAG12999GA1011+004809089GA2031+069009009MA1103011999999OC101641REMMET004NSG?EQDQ01+000000PRSWM2
0089601010999991983011019004+35717-005900FM-15+0015GMTT V0201001N01231220001CN0112001N1+01201+00601999999ADDAG12999GA1011+004809089GA2031+069009009MA1103011999999REMMET004NSG?EQDQ01+000000PRSWM2
0111601010999991983011021004+35717-005900FM-12+0015GMTT V0201001N01231220001CN0100001N9+01231+00591103081ADDAA106000091AG14000AY101031GA1021+069009009GF102991001001999999001021MD1110021+9999MW1021REMSYN011333   82073
0073601010999991983011023304+35717-005900FM-15+0015GMTT V0201201N01131999991CY0099001N1+01201+00601999999ADDAG12000MA1103011999999OC101541REMMET012CAVOK NOSIG?EQDQ01+000000PRSWM2
0138601010999991983011100004+35717-005900SY-MT+0015GMTT V0201001N01231220001CN0099001N1+01201+00701103111ADDAA106000091AG14000AY101061GF100991001001999999001001MA1103121999999MD1210031+9999MW1021OC101541REMMET012CAVOK NOSIG?EQDQ01+000000PRSWM2
0073601010999991983011100304+35717-005900FM-15+0015GMTT V0201001N01231999991CY0099001N1+01201+00701999999ADDAG11999MA1103121999999OC101541REMMET012CAVOK NOSIG?EQDQ01+000000PRSWM2
0073601010999991983011101004+35717-005900FM-15+0015GMTT V0201001N01021999991CY0099001N1+01201+00601999999ADDAG11999MA1103121999999OC101541REMMET012CAVOK NOSIG?EQDQ01+000000PRSWM2
0073601010999991983011101304+35717-005900FM-15+0015GMTT V0201001N01021999991CY0099001N1+01201+00601999999ADDAG11999MA1103121999999OC101541REMMET012CAVOK NOSIG?EQDQ01+000000PRSWM2
0073601010999991983011102304+35717-005900FM-15+0015GMTT V0201201N01021999991CY0099001N1+01201+00601999999ADDAG12000MA1103121999999OC101541REMMET012CAVOK NOSIG?EQDQ01+000000PRSWM2
0138601010999991983011103004+35717-005900SY-MT+0015GMTT V0201201N01021220001CN0099001N1+01201+00701103101ADDAA106000091AG14000AY101031GF100991001001999999001001MA1103121999999MD1710021+9999MW1021OC101541REMMET012CAVOK NOSIG?EQDQ01+000000PRSWM2
0073601010999991983011103304+35717-005900FM-15+0015GMTT V0201201N01021999991CY0099001N1+01201+00701999999ADDAG12999MA1103121999999OC101541REMMET012CAVOK NOSIG?EQDQ01+000000PRSWM2
0065601010999991983011104004+35717-005900FM-15+0015GMTT V0201201N01021999991CY0099001N1+01201+00601999999ADDAG12999MA1103121999999REMMET012CAVOK NOSIG?EQDQ01+000000PRSWM2
0073601010999991983011105004+35717-005900FM-15+0015GMTT V0201201N01021999991CY0099001N1+01201+00701999999ADDAG12999MA1103011999999OC101541REMMET012CAVOK NOSIG?EQDQ01+000000PRSWM2
0073601010999991983011105304+35717-005900FM-15+0015GMTT V0201201N01021999991CY0099001N1+01201+00701999999ADDAG12000MA1103011999999OC101541REMMET012CAVOK NOSIG?EQDQ01+000000PRSWM2
0043601010999991983011105404+35717-005900FM-16+0015GMTT V0201001N00921999991CY0099001N1+99999+99999999999ADDAG12999REMMET005CAVOKEQDQ01+000000PRSWM2
0152601010999991983011106004+35717-005900SY-MT+0015GMTT V0201001N00921220001CN0099001N1+01001+00671103061ADDAA106000091AG14000AY101061GF100991001001999999001001KA1120N+01041MD1610041+9999MW1021REMSYN011333   20104MET019CAVOK 071030 NOSIG?EQDQ01+000000PRSWM2
0065601010999991983011106304+35717-005900FM-15+0015GMTT V0201001N00921999991CY0099001N1+01001+00701999999ADDAG12999MA1103011999999REMMET012CAVOK NOSIG?EQDQ01+000000PRSWM2
0058601010999991983011107004+35717-005900FM-15+0015GMTT V0201001N00921999991CY0099001N1+01001+00701999999ADDAG12999MA1103011999999REMMET005CAVOKEQDQ01+000000PRSWM2
0089601010999991983011108004+35717-005900FM-15+0015GMTT V0201001N00921220001CN0112001N1+01101+00601999999ADDAG12999GA1011+004809089GA2031+069009009MA1103011999999REMMET004NSG?EQDQ01+000000PRSWM2
0177601010999991983011109004+35717-005900SY-MT+0015GMTT V0201001N00821220001CN0112001N1+01201+00701103111ADDAA106000091AG14000AY101031GA1011+004809089GA2031+069009009GF103991011021004501001021MA1103121999999MD1310051+9999MW1021REMSYN017333   81816 83073MET004NSG?EQDQ01+000000PRSWM2
0076601010999991983011110004+35717-005900FM-15+0015GMTT V0201001N00821220001CN0112001N1+01401+00701999999ADDAG12999GA1011+004809089GA2031+069009009MA1103121999999EQDQ01+000000PRSWM2
0076601010999991983011110304+35717-005900FM-15+0015GMTT V0201001N00821220001CN0112001N1+01401+00701999999ADDAG12999GA1011+004809089GA2031+069009009MA1103121999999EQDQ01+000000PRSWM2
0076601010999991983011111004+35717-005900FM-15+0015GMTT V0201001N01231220001CN0112001N1+01501+00801999999ADDAG12999GA1011+004809089GA2041+069009009MA1103121999999EQDQ01+000000PRSWM2
0089601010999991983011111304+35717-005900FM-15+0015GMTT V0201001N01131220001CN0112001N1+01501+00801999999ADDAG12000GA1011+004809089GA2041+069009009MA1103121999999REMMET004NSG?EQDQ01+000000PRSWM2
0185601010999991983011112004+35717-005900SY-MT+0015GMTT V0201001N01131220001CN0112001N1+01601+00701103111ADDAA106000091AG14000AY101061GA1011+004809089GA2041+069009009GF104991011021004501001021MA1103121999999MD1010001+9999MW1021OC101541REMSYN017333   81816 84073MET004NSG?EQDQ01+000000PRSWM2
0089601010999991983011112304+35717-005900FM-15+0015GMTT V0201201N01131220001CN0112001N1+01601+00701999999ADDAG12999GA1011+004809089GA2041+069009009MA1103121999999REMMET004NSG?EQDQ01+000000PRSWM2
0097601010999991983011113004+35717-005900FM-15+0015GMTT V0201001N01021220001CN0112001N1+01701+00701999999ADDAG12999GA1011+004809089GA2041+069009009MA1103121999999OC101331REMMET004NSG?EQDQ01+000000PRSWM2
0099601010999991983011114004+35717-005900FM-15+0015GMTT V0201001N01021220001CN0112001N1+01701+00701999999ADDAG12999GA1011+004809079GA2041+069009009MA1103121999999OC101331REMMET006NOSIG?EQDQ01+000000PRSWM2
0099601010999991983011114304+35717-005900FM-15+0015GMTT V0201001N01021220001CN0112001N1+01701+00701999999ADDAG12000GA1011+004809059GA2041+069009009MA1103121999999OC101331REMMET006NOSIG?EQDQ01+000000PRSWM2
0187601010999991983011115004+35717-005900SY-MT+0015GMTT V0201001N01021220001CN0112001N1+01601+00801102911ADDAA106000091AG14000AY101031GA1011+004809059GA2041+069009009GF104991011051004501001021MA1102911999999MD1610201+9999MW1021OC101331REMSYN017333   81616 84073MET006NOSIG?EQDQ01+000000PRSWM2
0097601010999991983011115304+35717-005900FM-15+0015GMTT V0201001N01131220001CN0112001N1+01601+00801999999ADDAG12999GA1011+004809059GA2041+069009009MA1102911999999OC101441REMMET004NSG?EQDQ01+000000PRSWM2
0073601010999991983011116004+35717-005900FM-15+0015GMTT V0201001N01131999991CY0099001N1+01501+00801999999ADDAG12999MA1102911999999OC101441REMMET012CAVOK NOSIG?EQDQ01+000000PRSWM2
0071601010999991983011116304+35717-005900FM-15+0015GMTT V0201001N01131999991CY0099001N1+99999+99999999999ADDAG12999OC101441REMMET025CAVOK K 15/08 1029 NOSIG?EQDQ01+000000PRSWM2
0073601010999991983011117004+35717-005900FM-15+0015GMTT V0201001N01131999991CY0099001N1+01401+00701999999ADDAG12999MA1102911999999OC101441REMMET012CAVOK NOSIG?EQDQ01+000000PRSWM2
0065601010999991983011117304+35717-005900FM-15+0015GMTT V0201001N01021999991CY0099001N1+01401+00701999999ADDAG12000MA1102911999999REMMET012CAVOK NOSIG?EQDQ01+000000PRSWM2
0204601010999991983011118004+35717-005900SY-MT+0015GMTT V0201001N00921069001CN0099001N1+01301+00701102941ADDAA106000091AG14000AY101061GA1021+030009039GA2041+069009009GF105991021001999999031021KA1120M+01661MA1102911999999MD1310031+9999MW1021REMSYN023333   10166 82360 84073MET012CAVOK NOSIG?EQDQ01+000000PRSWM2
0058601010999991983011118304+35717-005900FM-15+0015GMTT V0201001N00921999991CY0099001N1+01301+00001999999ADDAG12999REMMET020CAVOK 7 1029, NOSIG?EQDQ01+000000PRSWM2
0065601010999991983011119004+35717-005900FM-15+0015GMTT V0201001N00921999991CY0099001N1+01301+00701999999ADDAG12999MA1102911999999REMMET012CAVOK NOSIG?EQDQ01+000000PRSWM2
0063601010999991983011119304+35717-005900FM-15+0015GMTT V0201001N00921999991CY0099001N1+99999+99999999999ADDAG12999REMMET025CAVOK K 13/07 1029 NOSIG?EQDQ01+000000PRSWM2
0063601010999991983011120304+35717-005900FM-15+0015GMTT V0201001N00921999991CY0099001N1+01301+00701999999ADDAG12000MA1102911999999REMMET010CAVOK NSG?EQDQ01+000000PRSWM2
0161601010999991983011121004+35717-005900SY-MT+0015GMTT V0201001N00921220001CN0099001N1+01101+00801103041ADDAA106000091AG14000AY101031GA1031+069009009GF103991001001999999001021MA1103011999999MD1310101+9999MW1021REMSYN011333   83073MET010CAVOK NSG?EQDQ01+000000PRSWM2
0063601010999991983011121304+35717-005900FM-15+0015GMTT V0201001N00921999991CY0099001N1+01101+00801999999ADDAG12999MA1103011999999REMMET010CAVOK NSG?EQDQ01+000000PRSWM2
0063601010999991983011122004+35717-005900FM-15+0015GMTT V0201001N00921999991CY0099001N1+01101+00801999999ADDAG12999MA1103011999999REMMET010CAVOK NSG?EQDQ01+000000PRSWM2
0063601010999991983011122304+35717-005900FM-15+0015GMTT V0201001N00921999991CY0099001N1+01101+00801999999ADDAG12999MA1103011999999REMMET010CAVOK NSG?EQDQ01+000000PRSWM2
0063601010999991983011123004+35717-005900FM-15+0015GMTT V0201001N00821999991CY0099001N1+01101+00801999999ADDAG12999MA1103121999999REMMET010CAVOK NSG?EQDQ01+000000PRSWM2
0063601010999991983011123304+35717-005900FM-15+0015GMTT V0201001N00821999991CY0099001N1+01101+00801999999ADDAG12000MA1103121999999REMMET010CAVOK NSG?EQDQ01+000000PRSWM2
0161601010999991983011200004+35717-005900SY-MT+0015GMTT V0201001N00771220001CN0099001N1+01101+00701103101ADDAA106000091AG14000AY101061GA1031+069009009GF103991001001999999001021MA1103121999999MD1110061+9999MW1021REMSYN011333   83073MET010CAVOK NSG?EQDQ01+000000PRSWM2
0063601010999991983011200304+35717-005900FM-15+0015GMTT V0201001N00821999991CY0099001N1+01101+00701999999ADDAG11999MA1103121999999REMMET010CAVOK NSG?EQDQ01+000000PRSWM2
0063601010999991983011201004+35717-005900FM-15+0015GMTT V0201001N00661999991CY0099001N1+01001+00701999999ADDAG11999MA1103121999999REMMET010CAVOK NSG?EQDQ01+000000PRSWM2
0063601010999991983011201304+35717-005900FM-15+0015GMTT V0201001N00871999991CY0099001N1+01001+00701999999ADDAG11999MA1103121999999REMMET010CAVOK NSG?EQDQ01+000000PRSWM2
0058601010999991983011202004+35717-005900FM-15+0015GMTT V0201001N00661999991CY0099001N1+01001+00601999999ADDAG11999MA1103011999999REMMET005CAVOKEQDQ01+000000PRSWM2
0058601010999991983011202304+35717-005900FM-15+0015GMTT V0201001N00661999991CY0099001N1+01001+00601999999ADDAG12000MA1103011999999REMMET005CAVOKEQDQ01+000000PRSWM2
0156601010999991983011203004+35717-005900SY-MT+0015GMTT V0201001N00661220001CN0099001N1+01001+00701103081ADDAA106000091AG14000AY101031GA1031+069009009GF103991001001999999001021MA1103011999999MD1810031+9999MW1021REMSYN011333   83073MET005CAVOKEQDQ01+000000PRSWM2
0058601010999991983011203304+35717-005900FM-15+0015GMTT V0201001N00661999991CY0099001N1+01001+00701999999ADDAG12999MA1103011999999REMMET005CAVOKEQDQ01+000000PRSWM2
0058601010999991983011204004+35717-005900FM-15+0015GMTT V0201001N00661999991CY0099001N1+01001+00701999999ADDAG12999MA1103011999999REMMET005CAVOKEQDQ01+000000PRSWM2
0058601010999991983011204304+35717-005900FM-15+0015GMTT V0201001N00661999991CY0099001N1+01001+00701999999ADDAG12999MA1103011999999REMMET005CAVOKEQDQ01+000000PRSWM2
0058601010999991983011205004+35717-005900FM-15+0015GMTT V0201001N00661999991CY0099001N1+01001+00701999999ADDAG12999MA1103011999999REMMET005CAVOKEQDQ01+000000PRSWM2
0058601010999991983011205304+35717-005900FM-15+0015GMTT V0201001N00661999991CY0099001N1+01001+00701999999ADDAG12000MA1103011999999REMMET005CAVOKEQDQ01+000000PRSWM2
0175601010999991983011206004+35717-005900SY-MT+0015GMTT V0201001N00721220001CN0099001N1+01001+00701103121ADDAA106000091AG14000AY101061GA1031+069009009GF103991001001999999001021KA1120N+00931MA1103121999999MD1310041+9999MW1021REMSYN017333   20093 83073MET005CAVOKEQDQ01+000000PRSWM2
0058601010999991983011207004+35717-005900FM-15+0015GMTT V0201001N00721999991CY0099001N1+01001+00701999999ADDAG12999MA1103121999999REMMET005CAVOKEQDQ01+000000PRSWM2
0061601010999991983011208004+35717-005900FM-15+0015GMTT V0201001N00721999991CY0099001N1+99999+99999999999ADDAG12999REMMET023CAVOK 09X07 1031 NOSIG?EQDQ01+000000PRSWM2
0065601010999991983011208304+35717-005900FM-15+0015GMTT V0201001N00721999991CY0099001N1+00901+00701999999ADDAG12000MA1103121999999REMMET012CAVOK NOSIG?EQDQ01+000000PRSWM2
0185601010999991983011209004+35717-005900SY-MT+0015GMTT V0201001N00721069001CN0099001N1+01001+00701103191ADDAA106000091AG14000AY101031GA1021+030009039GA2041+069009009GF105991021001999999031021MA1103121999999MD1310071+9999MW1021REMSYN017333   82360 84073MET012CAVOK NOSIG?EQDQ01+000000PRSWM2
0065601010999991983011209304+35717-005900FM-15+0015GMTT V0201201N00721999991CY0099001N1+01001+00701999999ADDAG12999MA1103121999999REMMET012CAVOK NOSIG?EQDQ01+000000PRSWM2
0061601010999991983011210004+35717-005900FM-15+0015GMTT V0201201N00721999991CY0099001N1+99999+99999999999ADDAG12999REMMET023CAVOK 13X08 1032 NOSIG?EQDQ01+000000PRSWM2
0065601010999991983011211004+35717-005900FM-15+0015GMTT V0201001N00821999991CY0099001N1+01501+00901999999ADDAG12999MA1103291999999REMMET012CAVOK NOSIG?EQDQ01+000000PRSWM2
0163601010999991983011212004+35717-005900SY-MT+0015GMTT V0201001N00821220001CN0150001N1+01651+00981103311ADDAA106000091AG14000AY101061GA1041+069009009GF104991001001999999001021MA1103291999999MD1110131+9999MW1021REMSYN011333   84073MET012CAVOK NOSIG?EQDQ01+000000PRSWM2
0065601010999991983011212304+35717-005900FM-15+0015GMTT V0201001N00821999991CY0099001N1+01701+01001999999ADDAG12999MA1103291999999REMMET012CAVOK NOSIG?EQDQ01+000000PRSWM2
0177601010999991983011215004+35717-005900SY-MT+0015GMTT V0200801N00821220001CN0112001N1+01701+00901103121ADDAA106000091AG14000AY101031GA1011+004809089GA2041+069009009GF104991011021004501001021MA1103121999999MD1810191+9999MW1021REMSYN017333   81816 84073MET004NSG?EQDQ01+000000PRSWM2
0091601010999991983011216004+35717-005900FM-15+0015GMTT V0200601N00921220001CN0112001N1+01601+01101999999ADDAG12999GA1011+004809089GA2031+069009009MA1103121999999REMMET006NOSIG?EQDQ01+000000PRSWM2
0091601010999991983011216304+35717-005900FM-15+0015GMTT V0200601N00921220001CN0112001N1+01601+01101999999ADDAG12999GA1011+004809089GA2031+069009009MA1103121999999REMMET006NOSIG?EQDQ01+000000PRSWM2
0091601010999991983011217004+35717-005900FM-15+0015GMTT V0200601N00821220001CN0112001N1+01401+01101999999ADDAG12999GA1011+004809089GA2031+069009009MA1103121999999REMMET006NOSIG?EQDQ01+000000PRSWM2
0204601010999991983011218004+35717-005900SY-MT+0015GMTT V0200801N00611069001CN0099001N1+01401+01001103201ADDAA106000091AG14000AY101061GA1011+030009039GA2041+069009009GF105991011001999999031021KA1120M+01751MA1103181999999MD1310081+9999MW1021REMSYN023333   10175 81360 84073MET012CAVOK NOSIG?EQDQ01+000000PRSWM2
0065601010999991983011219004+35717-005900FM-15+0015GMTT V0201001N00411999991CY0099001N1+01301+01001999999ADDAG12999MA1103181999999REMMET012CAVOK NOSIG?EQDQ01+000000PRSWM2
0065601010999991983011219304+35717-005900FM-15+0015GMTT V0201001N00301999991CY0099001N1+01301+01001999999ADDAG12999MA1103181999999REMMET012CAVOK NOSIG?EQDQ01+000000PRSWM2
0065601010999991983011220004+35717-005900FM-15+0015GMTT V0201001N00301999991CY0099001N1+01301+01001999999ADDAG12999MA1103181999999REMMET012CAVOK NOSIG?EQDQ01+000000PRSWM2
0065601010999991983011220304+35717-005900FM-15+0015GMTT V0201001N00511999991CY0099001N1+01301+01001999999ADDAG12000MA1103181999999REMMET012CAVOK NOSIG?EQDQ01+000000PRSWM2
0185601010999991983011221004+35717-005900SY-MT+0015GMTT V0201001N00411220001CN0100001N1+01221+01021103281ADDAA106000091AG14000AY101031GA1011+030009039GA2031+069009009GF104991011001999999031021MA1103181999999MD1310081+9999MW1021REMSYN017333   81360 83073MET012CAVOK NOSIG?EQDQ01+000000PRSWM2
0065601010999991983011221304+35717-005900FM-15+0015GMTT V0201201N00301999991CY0099001N1+01201+01001999999ADDAG12999MA1103181999999REMMET012CAVOK NOSIG?EQDQ01+000000PRSWM2
0065601010999991983011222004+35717-005900FM-15+0015GMTT V0201201N00201999991CY0099001N1+01101+00901999999ADDAG12999MA1103181999999REMMET012CAVOK NOSIG?EQDQ01+000000PRSWM2
0065601010999991983011222304+35717-005900FM-15+0015GMTT V0201001N00411999991CY0099001N1+01101+00901999999ADDAG12999MA1103181999999REMMET012CAVOK NOSIG?EQDQ01+000000PRSWM2
0065601010999991983011223004+35717-005900FM-15+0015GMTT V0201001N00251999991CY0099001N1+01101+00901999999ADDAG12999MA1103181999999REMMET012CAVOK NOSIG?EQDQ01+000000PRSWM2
0065601010999991983011223304+35717-005900FM-15+0015GMTT V0201001N00301999991CY0099001N1+01101+00901999999ADDAG12000MA1103181999999REMMET012CAVOK NOSIG?EQDQ01+000000PRSWM2
0163601010999991983011300004+35717-005900SY-MT+0015GMTT V0201001N00201220001CN0099001N1+00901+00701103331ADDAA106000091AG14000AY101061GA1031+069009009GF103991001001999999001021MA1103291999999MD1110041+9999MW1021REMSYN011333   83073MET012CAVOK NOSIG?EQDQ01+000000PRSWM2
0065601010999991983011300304+35717-005900FM-15+0015GMTT V0201001N00411999991CY0099001N1+00901+00701999999ADDAG11999MA1103291999999REMMET012CAVOK NOSIG?EQDQ01+000000PRSWM2
0065601010999991983011301004+35717-005900FM-15+0015GMTT V0201001N00411999991CY0099001N1+00901+00701999999ADDAG11999MA1103291999999REMMET012CAVOK NOSIG?EQDQ01+000000PRSWM2
0065601010999991983011301304+35717-005900FM-15+0015GMTT V0201001N00511999991CY0099001N1+00901+00701999999ADDAG11999MA1103291999999REMMET012CAVOK NOSIG?EQDQ01+000000PRSWM2
0065601010999991983011302004+35717-005900FM-15+0015GMTT V0201201N00511999991CY0099001N1+00901+00701999999ADDAG11999MA1103291999999REMMET012CAVOK NOSIG?EQDQ01+000000PRSWM2
0065601010999991983011302304+35717-005900FM-15+0015GMTT V0201201N00511999991CY0099001N1+00901+00701999999ADDAG12000MA1103291999999REMMET012CAVOK NOSIG?EQDQ01+000000PRSWM2
0163601010999991983011303004+35717-005900SY-MT+0015GMTT V0201201N00611220001CN0099001N1+00901+00801103301ADDAA106000091AG12000AY101031GA1031+069009009GF103991001001999999001021MA1103291999999MD1610021+9999MW1021REMSYN011333   83073MET012CAVOK NOSIG?EQDQ01+000000PRSWM2
0065601010999991983011303304+35717-005900FM-15+0015GMTT V0201001N00511999991CY0099001N1+00901+00801999999ADDAG11999MA1103291999999REMMET012CAVOK NOSIG?EQDQ01+000000PRSWM2
0065601010999991983011304004+35717-005900FM-15+0015GMTT V0201201N00411999991CY0099001N1+00901+00801999999ADDAG11999MA1103291999999REMMET012CAVOK NOSIG?EQDQ01+000000PRSWM2
0065601010999991983011304304+35717-005900FM-15+0015GMTT V0201001N00511999991CY0099001N1+00901+00801999999ADDAG11999MA1103291999999REMMET012CAVOK NOSIG?EQDQ01+000000PRSWM2
0065601010999991983011305304+35717-005900FM-15+0015GMTT V0201001N00511999991CY0099001N1+00901+00801999999ADDAG12000MA1103181999999REMMET012CAVOK NOSIG?EQDQ01+000000PRSWM2
0147601010999991983011306004+35717-005900SY-MT+0015GMTT V0201001N00301220001CN0099001N1+00801+00701103251ADDAA106000091AG10000AY101061GF100991001001999999001001MA1103181999999MD1810031+9999MW1021REMSYN011333   22080MET012CAVOK NOSIG?EQDQ01+000000PRSWM2
0065601010999991983011306304+35717-005900FM-15+0015GMTT V0201001N00301999991CY0099001N1+00801+00701999999ADDAG11999MA1103181999999REMMET012CAVOK NOSIG?EQDQ01+000000PRSWM2
0065601010999991983011307004+35717-005900FM-15+0015GMTT V0201201N00301999991CY0099001N1+00801+00701999999ADDAG11999MA1103181999999REMMET012CAVOK NOSIG?EQDQ01+000000PRSWM2
0063601010999991983011307304+35717-005900FM-15+0015GMTT V0201001N00611999991CY0099001N1+00801+00701999999ADDAG11999MA1103181999999REMMET010CAVOK NSG?EQDQ01+000000PRSWM2
0063601010999991983011308004+35717-005900FM-15+0015GMTT V0201201N00511999991CY0099001N1+00901+00701999999ADDAG11999MA1103181999999REMMET010CAVOK NSG?EQDQ01+000000PRSWM2
0183601010999991983011309004+35717-005900SY-MT+0015GMTT V0201201N00201069001CN0099001N1+00901+00801103311ADDAA106000091AG14000AY101031GA1021+030009039GA2041+069009009GF105991021001999999031021MA1103291999999MD1310061+9999MW1021REMSYN017333   82360 84073MET010CAVOK NSG?EQDQ01+000000PRSWM2
0063601010999991983011309304+35717-005900FM-15+0015GMTT V0201001N00201999991CY0099001N1+00901+00801999999ADDAG12999MA1103291999999REMMET010CAVOK NSG?EQDQ01+000000PRSWM2
0063601010999991983011310004+35717-005900FM-15+0015GMTT V0201001N00151999991CY0099001N1+01101+00901999999ADDAG12999MA1103291999999REMMET010CAVOK NSG?EQDQ01+000000PRSWM2
0063601010999991983011310304+35717-005900FM-15+0015GMTT V0201001N00151999991CY0099001N1+01101+00901999999ADDAG12999MA1103291999999REMMET010CAVOK NSG?EQDQ01+000000PRSWM2
0063601010999991983011311004+35717-005900FM-15+0015GMTT V0201601N00101999991CY0099001N1+01301+01001999999ADDAG12999MA1103291999999REMMET010CAVOK NSG?EQDQ01+000000PRSWM2
0065601010999991983011311304+35717-005900FM-15+0015GMTT V0202401N00301999991CY0099001N1+01301+01001999999ADDAG12000MA1103291999999REMMET012CAVOK NOSIG?EQDQ01+000000PRSWM2
0179601010999991983011312004+35717-005900SY-MT+0015GMTT V0202201N00301030001CN0112001N1+01501+01101103341ADDAA106000091AG14000AY101061GA1011+004809089GA2041+030009039GF106991011021004501081021MA1103291999999MD1010041+9999MW1021REMSYN017333   81826 84360MET006NOSIG?EQDQ01+000000PRSWM2
0091601010999991983011313004+35717-005900FM-15+0015GMTT V0202601N00201030001CN0112001N1+01501+01101999999ADDAG12999GA1011+004809089GA2051+030009039MA1103291999999REMMET006NOSIG?EQDQ01+000000PRSWM2
0091601010999991983011313304+35717-005900FM-15+0015GMTT V0202601N00201030001CN0112001N1+01501+01101999999ADDAG12999GA1011+004809089GA2051+030009039MA1103291999999REMMET006NOSIG?EQDQ01+000000PRSWM2
0091601010999991983011314004+35717-005900FM-15+0015GMTT V0202401N00301030001CN0112001N1+01501+01101999999ADDAG12999GA1021+004809089GA2051+030009039MA1103181999999REMMET006NOSIG?EQDQ01+000000PRSWM2
