0135601010999991992010100004+35733-005900SY-MT+0021GMTT V0200401N00511220001CN0100001N1+01001+00691103051ADDAA106000091AG14000GA1011+004809089GF101991011021004501001001MD1710021+9999MW1001REMSYN011333   81816MET00730 NSG/EQDQ01+000000PRSWM2
0060601010999991992010100304+35733-005900FM-15+0021GMTT V0200401N00511220001CN0112001N1+01001+00701999999ADDAG11999GA1011+004809089MA1103011999999EQDQ01+000000PRSWM2
0060601010999991992010101004+35733-005900FM-15+0021GMTT V0200601N00411220001CN0112001N1+01001+00701999999ADDAG11999GA1011+004809089MA1103011999999EQDQ01+000000PRSWM2
0060601010999991992010101304+35733-005900FM-15+0021GMTT V0200601N00411220001CN0112001N1+01001+00701999999ADDAG11999GA1011+004809089MA1103011999999EQDQ01+000000PRSWM2
0060601010999991992010102004+35733-005900FM-15+0021GMTT V0200601N00411220001CN0112001N1+01001+00701999999ADDAG11999GA1011+004809089MA1103011999999EQDQ01+000000PRSWM2
0060601010999991992010102304+35733-005900FM-15+0021GMTT V0200601N00411220001CN0112001N1+01001+00701999999ADDAG11000GA1011+004809089MA1103011999999EQDQ01+000000PRSWM2
0137601010999991992010103004+35733-005900SY-MT+0021GMTT V0200601N00411220001CN0100001N1+00951+00671103011ADDAA106000091AG14000GA1011+004809089GF101991011021004501001001MA1103011999999MD1710041+9999MW1001REMSYN011333   81816EQDQ01+000000PRSWM2
0060601010999991992010103304+35733-005900FM-15+0021GMTT V0200601N00411220001CN0112001N1+01001+00701999999ADDAG12999GA1011+004809089MA1103011999999EQDQ01+000000PRSWM2
0060601010999991992010104004+35733-005900FM-15+0021GMTT V0200601N00411220001CN0112001N1+01001+00701999999ADDAG12999GA1011+004809089MA1102911999999EQDQ01+000000PRSWM2
0060601010999991992010105004+35733-005900FM-15+0021GMTT V0200601N00511220001CN0112001N1+01001+00701999999ADDAG12999GA1011+004809089MA1102911999999EQDQ01+000000PRSWM2
0060601010999991992010105304+35733-005900FM-15+0021GMTT V0200601N00511220001CN0112001N1+01001+00701999999ADDAG12000GA1011+004809089MA1102911999999EQDQ01+000000PRSWM2
0165601010999991992010106004+35733-005900SY-MT+0021GMTT V0200401N00511220001CN0100001N1+00911+00681102891ADDAA106000091AG10000GA1011+004809089GF101991011021004501001001KA1120N+00701MA1102811999999MD1810111+9999MW1001REMSYN017333   20070 81816MET003NSGEQDQ01+000000PRSWM2
0060601010999991992010106304+35733-005900FM-15+0021GMTT V0200401N00511220001CN0112001N1+00901+00701999999ADDAG11999GA1011+004809089MA1102811999999EQDQ01+000000PRSWM2
0060601010999991992010107004+35733-005900FM-15+0021GMTT V0209999999999220001CN0112001N1+00901+00701999999ADDAG12999GA1011+004809089MA1102811999999EQDQ01+000000PRSWM2
0060601010999991992010107304+35733-005900FM-15+0021GMTT V0200601N00411220001CN0112001N1+00901+00701999999ADDAG12999GA1011+004809089MA1102811999999EQDQ01+000000PRSWM2
0060601010999991992010108004+35733-005900FM-15+0021GMTT V0200801N00511220001CN0112001N1+01001+00601999999ADDAG12999GA1021+004809089MA1102911999999EQDQ01+000000PRSWM2
0060601010999991992010108304+35733-005900FM-15+0021GMTT V0200801N00511220001CN0112001N1+01101+00601999999ADDAG12000GA1021+004809089MA1102911999999EQDQ01+000000PRSWM2
0131601010999991992010109004+35733-005900SY-MT+0021GMTT V0200601N00721220001CN0100001N1+01141+00521103001ADDAA106000091AG10000GA1021+004809089GF103991021021004501001011MA1103011999999MD1310121+9999REMSYN011333   82816EQDQ01+000000PRSWM2
0060601010999991992010109304+35733-005900FM-15+0021GMTT V0200801N00821220001CN0112001N1+01201+00501999999ADDAG11999GA1021+004809089MA1103011999999EQDQ01+000000PRSWM2
0060601010999991992010110004+35733-005900FM-15+0021GMTT V0200801N01031220001CN0112001N1+01401+00501999999ADDAG12999GA1021+004809089MA1103011999999EQDQ01+000000PRSWM2
0060601010999991992010110304+35733-005900FM-15+0021GMTT V0200601N01131220001CN0112001N1+01401+00501999999ADDAG12999GA1021+004809089MA1103011999999EQDQ01+000000PRSWM2
0060601010999991992010111004+35733-005900FM-15+0021GMTT V0200601N01241220001CN0112001N1+01501+00601999999ADDAG12999GA1021+004809089MA1103011999999EQDQ01+000000PRSWM2
0060601010999991992010111304+35733-005900FM-15+0021GMTT V0200601N01341220001CN0112001N1+01501+00601999999ADDAG11000GA1021+004809089MA1103011999999EQDQ01+000000PRSWM2
0131601010999991992010112004+35733-005900SY-MT+0021GMTT V0200601N01231220001CN0100001N1+01531+00771999999ADDAA106000091AG10000GA1021+004809089GF102991021021004501001001MA1103011999999MD1310021+9999REMSYN011333   82816EQDQ01+000000PRSWM2
0068601010999991992010112304+35733-005900FM-15+0021GMTT V0200801N01131220001CN0112001N1+01501+00801999999ADDAG11999GA1021+004809089MA1103011999999OC101541EQDQ01+000000PRSWM2
0068601010999991992010113004+35733-005900FM-15+0021GMTT V0200601N01131220001CN0112001N1+01601+00801999999ADDAG11999GA1021+004809089MA1103011999999OC101541EQDQ01+000000PRSWM2
0080601010999991992010113304+35733-005900FM-15+0021GMTT V0200601N01131220001CN0112001N1+01601+00801999999ADDAG11999GA1021+004809089MA1103011999999OC101651REMMET003NSGEQDQ01+000000PRSWM2
0072601010999991992010114004+35733-005900FM-15+0021GMTT V0200801N01241220001CN0112001N1+01601+00701999999ADDAG11999GA1021+004809089MA1102811999999REMMET003NSGEQDQ01+000000PRSWM2
0072601010999991992010114304+35733-005900FM-15+0021GMTT V0200601N01131220001CN0112001N1+01601+00701999999ADDAG11000GA1021+004809089MA1102811999999REMMET003NSGEQDQ01+000000PRSWM2
0132601010999991992010115004+35733-005900SY-MT+0021GMTT V0200801N01031220001CN0100001N1+01551+00621102781ADDAA106000091AG14000GA1021+004809089GF102991021021004501001001MA1102711999999MW1001REMSYN011333   82816MET003NSGEQDQ01+000000PRSWM2
0072601010999991992010115304+35733-005900FM-15+0021GMTT V0200801N01241220001CN0112001N1+01601+00601999999ADDAG12999GA1021+004809089MA1102711999999REMMET003NSGEQDQ01+000000PRSWM2
0072601010999991992010116004+35733-005900FM-15+0021GMTT V0200601N01131220001CN0112001N1+01501+00601999999ADDAG12999GA1021+004809089MA1102811999999REMMET003NSGEQDQ01+000000PRSWM2
0116601010999991992010118004+35733-005900FM-12+0021GMTT V0200801N00931220001CN0100001N9+01301+00671102831ADDAA106000091AG14000GA1011+004809089GF101991011021004501001001KA1120M+01641MD1110051+9999REMSYN017333   10164 81816
0072601010999991992010118304+35733-005900FM-15+0021GMTT V0200801N01031220001CN0112001N1+01301+00701999999ADDAG12999GA1011+004809089MA1102811999999REMMET003NSGEQDQ01+000000PRSWM2
0072601010999991992010119004+35733-005900FM-15+0021GMTT V0200801N01031220001CN0112001N1+01301+00601999999ADDAG12999GA1021+004809089MA1102811999999REMMET003NSGEQDQ01+000000PRSWM2
0072601010999991992010119304+35733-005900FM-15+0021GMTT V0200801N01031220001CN0112001N1+01301+00601999999ADDAG12999GA1021+004809089MA1102811999999REMMET003NSGEQDQ01+000000PRSWM2
0072601010999991992010120304+35733-005900FM-15+0021GMTT V0200801N01031220001CN0112001N1+01201+00601999999ADDAG11000GA1011+004809089MA1102811999999REMMET003NZGEQDQ01+000000PRSWM2
0137601010999991992010121004+35733-005900SY-MT+0021GMTT V0200801N01131220001CN0100001N1+01201+00671102931ADDAA106000091AG10000GA1011+004809089GF101991011021004501001001MA1102911999999MD1310091+9999MW1001REMSYN011333   81816EQDQ01+000000PRSWM2
0059601010999991992010121304+35733-005900FM-15+0021GMTT V0200801N01241220001CN0112001N1+01201+00701999999ADDAG11999GA1011+004809089REMMET00511029EQDQ01+000000PRSWM2
0060601010999991992010122004+35733-005900FM-15+0021GMTT V0200801N01341220001CN0112001N1+01201+00601999999ADDAG11999GA1011+004809089MA1102911999999EQDQ01+000000PRSWM2
0060601010999991992010122304+35733-005900FM-15+0021GMTT V0200801N01241220001CN0112001N1+99999+99999999999ADDAG11999GA1011+004809089MA1102911999999EQDQ01+000000PRSWM2
0060601010999991992010123004+35733-005900FM-15+0021GMTT V0200601N01131220001CN0112001N1+01201+00601999999ADDAG11999GA1011+004809089MA1103011999999EQDQ01+000000PRSWM2
0155601010999991992010200004+35733-005900SY-MT+0021GMTT V0200601N01131220001CN0100001N1+01231+00711103021ADDAA106000091AG10000GA1011+004809089GF101991011021004501001001MA1103011999999MD1110091+9999MW1001REMSYN011333   81816SYN012RJCT40  2752EQDQ01+000000PRSWM2
0060601010999991992010200304+35733-005900FM-15+0021GMTT V0209999999999220001CN0112001N1+01201+00701999999ADDAG11999GA1011+004809089MA1103011999999EQDQ01+000000PRSWM2
0060601010999991992010201004+35733-005900FM-15+0021GMTT V0200601N01031220001CN0112001N1+01201+00701999999ADDAG11999GA1011+004809089MA1103011999999EQDQ01+000000PRSWM2
0060601010999991992010201304+35733-005900FM-15+0021GMTT V0200601N01131220001CN0112001N1+01201+00701999999ADDAG11999GA1011+004809089MA1103011999999EQDQ01+000000PRSWM2
0060601010999991992010202004+35733-005900FM-15+0021GMTT V0200801N01241220001CN0112001N1+01201+00701999999ADDAG11999GA1011+004809089MA1102911999999EQDQ01+000000PRSWM2
0060601010999991992010202304+35733-005900FM-15+0021GMTT V0200601N01241220001CN0112001N1+01201+00701999999ADDAG11000GA1011+004809089MA1102911999999EQDQ01+000000PRSWM2
0137601010999991992010203004+35733-005900SY-MT+0021GMTT V0200801N01231220001CN0100001N1+01221+00671102981ADDAA106000091AG14000GA1011+004809089GF101991011021004501001001MA1102911999999MD1810041+9999MW1001REMSYN011333   81816EQDQ01+000000PRSWM2
0060601010999991992010203304+35733-005900FM-15+0021GMTT V0200801N01241220001CN0112001N1+01201+00701999999ADDAG12999GA1011+004809089MA1102911999999EQDQ01+000000PRSWM2
0060601010999991992010204004+35733-005900FM-15+0021GMTT V0200601N01241220001CN0112001N1+01201+00701999999ADDAG11999GA1011+004809089MA1102911999999EQDQ01+000000PRSWM2
0060601010999991992010204304+35733-005900FM-15+0021GMTT V0200601N01241220001CN0112001N1+01201+00701999999ADDAG11999GA1011+004809089MA1102911999999EQDQ01+000000PRSWM2
0060601010999991992010205304+35733-005900FM-15+0021GMTT V0200601N01031220001CN0112001N1+01201+00701999999ADDAG11000GA1011+004809089MA1102911999999EQDQ01+000000PRSWM2
0174601010999991992010206004+35733-005900SY-MT+0021GMTT V0200601N01031220001CN0100001N1+01131+00691102921ADDAA106000091AG14000GA1011+004809089GF101991011021004501001001KA1120N+01051MA1102911999999MD1610061+9999MW1001REMSYN017333   20105 81816SYN012RJCT40  2561EQDQ01+000000PRSWM2
0060601010999991992010206304+35733-005900FM-15+0021GMTT V0200601N01131220001CN0112001N1+01101+00701999999ADDAG12999GA1011+004809089MA1102911999999EQDQ01+000000PRSWM2
0060601010999991992010207004+35733-005900FM-15+0021GMTT V0200801N01031220001CN0112001N1+01201+00701999999ADDAG11999GA1011+004809089MA1102911999999EQDQ01+000000PRSWM2
0076601010999991992010207304+35733-005900FM-15+0021GMTT V0200801N01131220001CN0112001N1+01201+00701999999ADDAG11999GA1021+004809089GA2031+060009009MA1102911999999EQDQ01+000000PRSWM2
0072601010999991992010208004+35733-005900FM-15+0021GMTT V0200801N00931220001CN0112001N1+01201+00701999999ADDAG11999GA1011+004809089MA1102911999999REMMET003NSGEQDQ01+000000PRSWM2
0072601010999991992010208304+35733-005900FM-15+0021GMTT V0200801N01031220001CN0112001N1+99999+99999999999ADDAG11000GA1011+004809089MA1102911999999REMMET003NSGEQDQ01+000000PRSWM2
0132601010999991992010209004+35733-005900SY-MT+0021GMTT V0200801N00931220001CN0100001N1+01301+00691103021ADDAA106000091AG14000GA1011+004809089GF101991011021004501001001MA1103011999999MW1001REMSYN011333   81816MET003NSGEQDQ01+000000PRSWM2
0072601010999991992010209304+35733-005900FM-15+0021GMTT V0200801N01031220001CN0112001N1+01301+00701999999ADDAG12999GA1011+004809089MA1103011999999REMMET003NSGEQDQ01+000000PRSWM2
0072601010999991992010210004+35733-005900FM-15+0021GMTT V0200801N01031220001CN0112001N1+01401+00801999999ADDAG12999GA1011+004809089MA1103011999999REMMET003NSGEQDQ01+000000PRSWM2
0072601010999991992010210304+35733-005900FM-15+0021GMTT V0200801N01031220001CN0112001N1+01401+00801999999ADDAG12999GA1011+004809089MA1103011999999REMMET003NSGEQDQ01+000000PRSWM2
0072601010999991992010211004+35733-005900FM-15+0021GMTT V0200801N01031220001CN0112001N1+01601+00801999999ADDAG12999GA1011+004809089MA1103121999999REMMET003NSGEQDQ01+000000PRSWM2
0072601010999991992010211304+35733-005900FM-15+0021GMTT V0200601N01031220001CN0112001N1+01601+00801999999ADDAG11000GA1011+004809089MA1103121999999REMMET003NSGEQDQ01+000000PRSWM2
0146601010999991992010212004+35733-005900SY-MT+0021GMTT V0200801N00931220001CN0100001N1+01641+00841103111ADDAA106000091AG10000GA1011+004809089GF101991011021004501001001MA1103121999999MD1110091+9999MW1001REMSYN011333   81816MET003NSGEQDQ01+000000PRSWM2
0063601010999991992010212304+35733-005900FM-15+0021GMTT V0200801N01031220001CN0112001N1+01601+00801999999ADDAG11999GA1011+004809089REMMET00911031 NSGEQDQ01+000000PRSWM2
0072601010999991992010213004+35733-005900FM-15+0021GMTT V0200801N01031220001CN0112001N1+01701+00801999999ADDAG12999GA1011+999999089MA1103011999999REMMET003NSGEQDQ01+000000PRSWM2
0060601010999991992010213304+35733-005900FM-15+0021GMTT V0200801N01031220001CN0112001N1+01701+00801999999ADDAG11999GA1011+004809089MA1103011999999EQDQ01+000000PRSWM2
0072601010999991992010214004+35733-005900FM-15+0021GMTT V0200801N01341220001CN0112001N1+01601+00801999999ADDAG11999GA1011+004809089MA1103011999999REMMET003NSGEQDQ01+000000PRSWM2
0072601010999991992010214304+35733-005900FM-15+0021GMTT V0200801N01341220001CN0112001N1+01601+00801999999ADDAG11000GA1011+004809089MA1103011999999REMMET003NSGEQDQ01+000000PRSWM2
0137601010999991992010215004+35733-005900SY-MT+0021GMTT V0200801N01441220001CN0150001N1+01591+00411102961ADDAA106000091AG10000GA1011+004809089GF102991011021004501001021MA1102911999999MD1710151+9999MW1001REMSYN011333   81816EQDQ01+000000PRSWM2
0060601010999991992010215304+35733-005900FM-15+0021GMTT V0200801N01441220001CN0112001N1+01601+00401999999ADDAG11999GA1011+004809089MA1102911999999EQDQ01+000000PRSWM2
0060601010999991992010216004+35733-005900FM-15+0021GMTT V0200801N01341220001CN0112001N1+01601+00801999999ADDAG11999GA1011+004809089MA1102911999999EQDQ01+000000PRSWM2
0060601010999991992010216304+35733-005900FM-15+0021GMTT V0200801N01341220001CN0112001N1+01601+00801999999ADDAG11999GA1011+004809089MA1102911999999EQDQ01+000000PRSWM2
0090601010999991992010217004+35733-005900FM-15+0021GMTT V0200801N01031220001CN0112001N1+01401+00701999999ADDAG11999GA1011+004809089MA1102911999999REMMET003NSGMET012RJCT00  0000EQDQ01+000000PRSWM2
0072601010999991992010217304+35733-005900FM-15+0021GMTT V0200801N01031220001CN0112001N1+01401+00701999999ADDAG11000GA1011+004809089MA1102911999999REMMET003NSGEQDQ01+000000PRSWM2
0159601010999991992010218004+35733-005900SY-MT+0021GMTT V0200801N00821220001CN0150001N1+01251+00611102951ADDAA106000091AG10000GA1011+004809089GF102991011021004501001021KA1120M+01661MA1102911999999MD1610011+9999REMSYN017333   10166 81816MET003NSGEQDQ01+000000PRSWM2
0060601010999991992010218304+35733-005900FM-15+0021GMTT V0200801N01081220001CN0112001N1+01301+00601999999ADDAG11999GA1011+004809089MA1103011999999EQDQ01+000000PRSWM2
0060601010999991992010219004+35733-005900FM-15+0021GMTT V0200801N00821220001CN0112001N1+01201+00701999999ADDAG11999GA1011+004809089MA1103011999999EQDQ01+000000PRSWM2
0060601010999991992010219304+35733-005900FM-15+0021GMTT V0200801N00621220001CN0112001N1+01201+00701999999ADDAG11999GA1011+004809089MA1103011999999EQDQ01+000000PRSWM2
0060601010999991992010220004+35733-005900FM-15+0021GMTT V0200801N00511220001CN0112001N1+00901+00601999999ADDAG11999GA1011+004809089MA1103121999999EQDQ01+000000PRSWM2
0058601010999991992010220304+35733-005900FM-15+0021GMTT V0200801N00511999991CY0099001N1+00901+00601999999ADDAG11000MA1103121999999REMMET005CAVOKEQDQ01+000000PRSWM2
0118601010999991992010221004+35733-005900SY-MT+0021GMTT V0200801N00621220001CN0100001N1+00881+00561103111ADDAA106000091AG10000GF100991001001999999001001MA1103121999999MD1110161+9999MW1001REMMET008CAVOK NSEQDQ01+000000PRSWM2
0062601010999991992010221304+35733-005900FM-15+0021GMTT V0200801N00621999991CY0099001N1+00901+00601999999ADDAG11999MA1103121999999REMMET009CAVOK NSGEQDQ01+000000PRSWM2
0062601010999991992010222004+35733-005900FM-15+0021GMTT V0200801N00621999991CY0099001N1+00901+00601999999ADDAG11999MA1103121999999REMMET009CAVOK NSGEQDQ01+000000PRSWM2
0062601010999991992010222304+35733-005900FM-15+0021GMTT V0200801N00771999991CY0099001N1+00901+00601999999ADDAG11999MA1103121999999REMMET009CAVOK NSGEQDQ01+000000PRSWM2
0062601010999991992010223004+35733-005900FM-15+0021GMTT V0200801N00621999991CY0099001N1+00901+00601999999ADDAG11999MA1103121999999REMMET009CAVOK NSGEQDQ01+000000PRSWM2
0062601010999991992010223304+35733-005900FM-15+0021GMTT V0201001N00461999991CY0099001N1+00901+00601999999ADDAG11000MA1103121999999REMMET009CAVOK NSGEQDQ01+000000PRSWM2
0119601010999991992010300004+35733-005900SY-MT+0021GMTT V0200801N00511220001CN0100001N1+00981+00701103141ADDAA106000091AG14000GF100991001001999999001001MA1103121999999MD1310041+9999MW1001REMMET009CAVOK NSGEQDQ01+000000PRSWM2
0062601010999991992010301004+35733-005900FM-15+0021GMTT V0200801N00571999991CY0099001N1+00901+00701999999ADDAG11999MA1103121999999REMMET009CAVOK NSGEQDQ01+000000PRSWM2
0062601010999991992010301304+35733-005900FM-15+0021GMTT V0200801N00511999991CY0099001N1+00901+00701999999ADDAG11999MA1103121999999REMMET009CAVOK NSGEQDQ01+000000PRSWM2
0062601010999991992010302004+35733-005900FM-15+0021GMTT V0200801N00511999991CY0099001N1+00901+00701999999ADDAG11999MA1103121999999REMMET009CAVOK NSGEQDQ01+000000PRSWM2
0146601010999991992010303004+35733-005900SY-MT+0021GMTT V0200801N00461220001CN0100001N1+00951+00691103101ADDAA106000091AG10000GA1011+004809059GF101991011051004501001001MA1103121999999MD1310051+9999MW1001REMSYN011333   81616MET003NSGEQDQ01+000000PRSWM2
0072601010999991992010303304+35733-005900FM-15+0021GMTT V0200801N00461220001CN0112001N1+01001+00701999999ADDAG11999GA1011+004809059MA1103121999999REMMET003NSGEQDQ01+000000PRSWM2
0072601010999991992010304004+35733-005900FM-15+0021GMTT V0209999999999220001CN0112001N1+01001+00701999999ADDAG11999GA1011+004809059MA1103121999999REMMET003NSGEQDQ01+000000PRSWM2
0072601010999991992010304304+35733-005900FM-15+0021GMTT V0200801N00621220001CN0112001N1+01001+00701999999ADDAG11999GA1011+004809059MA1103121999999REMMET003NSGEQDQ01+000000PRSWM2
0072601010999991992010305004+35733-005900FM-15+0021GMTT V0200801N00511220001CN0112001N1+00901+00601999999ADDAG11999GA1011+004809059MA1103011999999REMMET003NSGEQDQ01+000000PRSWM2
0072601010999991992010305304+35733-005900FM-15+0021GMTT V0200801N00511220001CN0112001N1+00901+00601999999ADDAG12000GA1011+004809059MA1103011999999REMMET003NSGEQDQ01+000000PRSWM2
0165601010999991992010306004+35733-005900SY-MT+0021GMTT V0200801N00671220001CN0100001N1+01051+00821103021ADDAA106000091AG14000GA1011+004809059GF101991011051004501001001KA1120N+00781MA1103011999999MD1810081+9999MW1001REMSYN017333   20078 81616MET003NSGEQDQ01+000000PRSWM2
0072601010999991992010306304+35733-005900FM-15+0021GMTT V0200801N00621220001CN0112001N1+01101+00801999999ADDAG12999GA1011+004809059MA1103011999999REMMET003NSGEQDQ01+000000PRSWM2
0072601010999991992010307004+35733-005900FM-15+0021GMTT V0200801N00461220001CN0112001N1+01101+00801999999ADDAG12999GA1011+004809059MA1103011999999REMMET003NSGEQDQ01+000000PRSWM2
0056601010999991992010307304+35733-005900FM-15+0021GMTT V0200801N00411220001CN0112001N1+01101+00801999999ADDAG12999MA1103011999999REMMET003NSGEQDQ01+000000PRSWM2
0072601010999991992010308004+35733-005900FM-15+0021GMTT V0201001N00621220001CN0112001N1+00901+00801999999ADDAG12999GA1011+004809059MA1103121999999REMMET003NSGEQDQ01+000000PRSWM2
0146601010999991992010309004+35733-005900SY-MT+0021GMTT V0200801N00151220001CN0150001N1+01051+00851103171ADDAA106000091AG14000GA1011+004809059GF101991011051004501001001MA1103121999999MD1310141+9999MW1001REMSYN011333   81616MET003NSGEQDQ01+000000PRSWM2
0060601010999991992010309304+35733-005900FM-15+0021GMTT V0200801N00261220001CN0112001N1+01101+00901999999ADDAG12999GA1011+004809059MA1103121999999EQDQ01+000000PRSWM2
0058601010999991992010310004+35733-005900FM-15+0021GMTT V0200801N00361999991CY0099001N1+01401+01001999999ADDAG12999MA1103121999999REMMET005CAVOKEQDQ01+000000PRSWM2
0053601010999991992010310304+35733-005900FM-15+0021GMTT V0200801N00361999991CY0099001N1+01401+99999999999ADDAG12999REMMET015CAVOK 110 11031EQDQ01+000000PRSWM2
0058601010999991992010311004+35733-005900FM-15+0021GMTT V0200801N00821999991CY0099001N1+01501+00801999999ADDAG12999MA1103121999999REMMET005CAVOKEQDQ01+000000PRSWM2
0058601010999991992010311304+35733-005900FM-15+0021GMTT V0200801N00881999991CY0099001N1+01501+00801999999ADDAG12000MA1103121999999REMMET005CAVOKEQDQ01+000000PRSWM2
0119601010999991992010312004+35733-005900SY-MT+0021GMTT V0200801N00821220001CN0150001N1+01591+00721103221ADDAA106000091AG14000GF100991001001999999001001MA1103181999999MD1210061+9999MW1001REMMET009CAVOK NSGEQDQ01+000000PRSWM2
0062601010999991992010312304+35733-005900FM-15+0021GMTT V0200801N00771999991CY0099001N1+01601+00701999999ADDAG12999MA1103181999999REMMET009CAVOK NSGEQDQ01+000000PRSWM2
0062601010999991992010313004+35733-005900FM-15+0021GMTT V0200801N00821999991CY0099001N1+01601+00701999999ADDAG12999MA1103121999999REMMET009CAVOK NSGEQDQ01+000000PRSWM2
0058601010999991992010313304+35733-005900FM-15+0021GMTT V0200801N00821999991CY0099001N1+01601+00701999999ADDAG12999MA1103121999999REMMET005CAVOKEQDQ01+000000PRSWM2
0058601010999991992010314004+35733-005900FM-15+0021GMTT V0200801N00721999991CY0099001N1+01701+00701999999ADDAG12999MA1103011999999REMMET005CAVOKEQDQ01+000000PRSWM2
0058601010999991992010314304+35733-005900FM-15+0021GMTT V0209999999999999991CY0099001N1+01701+00701999999ADDAG12000MA1103011999999REMMET005CAVOKEQDQ01+000000PRSWM2
0061601010999991992010315004+35733-005900FM-12+0021GMTT V0200801N00931220001CN0150001N9+01681+00281102951ADDAA106000091AG14000GF100991001001999999001001MD1710271+9999
0058601010999991992010316004+35733-005900FM-15+0021GMTT V0200801N00771999991CY0099001N1+01601+00301999999ADDAG12999MA1102911999999REMMET005CAVOKEQDQ01+000000PRSWM2
0058601010999991992010316304+35733-005900FM-15+0021GMTT V0200601N00721999991CY0099001N1+01601+00301999999ADDAG12999MA1102911999999REMMET005CAVOKEQDQ01+000000PRSWM2
0058601010999991992010317004+35733-005900FM-15+0021GMTT V0200601N00821999991CY0099001N1+01501+00501999999ADDAG11999MA1102911999999REMMET005CAVOKEQDQ01+000000PRSWM2
0058601010999991992010317304+35733-005900FM-15+0021GMTT V0200601N00821999991CY0099001N1+01501+00501999999ADDAG11000MA1102911999999REMMET005CAVOKEQDQ01+000000PRSWM2
0145601010999991992010318004+35733-005900SY-MT+0021GMTT V0200801N00621220001CN0150001N1+01241+00501103081ADDAA106000091AG14000GF100991001001999999001001KA1120M+01721MA1103011999999MD1310131+9999MW1001REMSYN011333   10172MET005CAVOKEQDQ01+000000PRSWM2
0058601010999991992010318304+35733-005900FM-15+0021GMTT V0200601N00511999991CY0099001N1+01201+00501999999ADDAG12999MA1103011999999REMMET005CAVOKEQDQ01+000000PRSWM2
0058601010999991992010319004+35733-005900FM-15+0021GMTT V0200601N00411999991CY0099001N1+01101+00401999999ADDAG12999MA1103121999999REMMET005CAVOKEQDQ01+000000PRSWM2
0056601010999991992010319304+35733-005900FM-15+0021GMTT V0200601N00411999991CY0099001N1+99999+99999999999ADDAG12999REMMET018CAVOK 111/04 10311EQDQ01+000000PRSWM2
0058601010999991992010320004+35733-005900FM-15+0021GMTT V0200601N00511999991CY0099001N1+01001+00401999999ADDAG12999MA1103121999999REMMET005CAVOKEQDQ01+000000PRSWM2
0046601010999991992010320304+35733-005900FM-15+0021GMTT V0200601N00511999991CY0099001N1+01001+00401999999ADDAG12000REMMET008CAVOK 10EQDQ01+000000PRSWM2
0119601010999991992010321004+35733-005900SY-MT+0021GMTT V0200601N00511220001CN0100001N1+00721+00451103131ADDAA106000091AG14000GF100991001001999999001001MA1103121999999MD1310041+9999MW1001REMMET009CAVOK NSGEQDQ01+000000PRSWM2
0062601010999991992010321304+35733-005900FM-15+0021GMTT V0200601N00671999991CY0099001N1+00701+00501999999ADDAG12999MA1103121999999REMMET009CAVOK NSGEQDQ01+000000PRSWM2
0062601010999991992010322004+35733-005900FM-15+0021GMTT V0200801N00721999991CY0099001N1+00901+00701999999ADDAG12999MA1103121999999REMMET009CAVOK NSGEQDQ01+000000PRSWM2
0058601010999991992010322304+35733-005900FM-15+0021GMTT V0200801N00721999991CY0099001N1+00901+00701999999ADDAG12999MA1103121999999REMMET005CAVOKEQDQ01+000000PRSWM2
0062601010999991992010323004+35733-005900FM-15+0021GMTT V0200601N00771999991CY0099001N1+01001+00801999999ADDAG12999MA1103121999999REMMET009CAVOK NSGEQDQ01+000000PRSWM2
0062601010999991992010323304+35733-005900FM-15+0021GMTT V0200601N00721999991CY0099001N1+01001+00801999999ADDAG12000MA1103121999999REMMET009CAVOK NSGEQDQ01+000000PRSWM2
0119601010999991992010400004+35733-005900SY-MT+0021GMTT V0200601N00621220001CN0100001N1+01051+00511103131ADDAA106000091AG14000GF100991001001999999001001MA1103121999999MD1410001+9999MW1001REMMET009CAVOK NSGEQDQ01+000000PRSWM2
0062601010999991992010400304+35733-005900FM-15+0021GMTT V0200601N00621999991CY0099001N1+01101+00501999999ADDAG11999MA1103121999999REMMET009CAVOK NSGEQDQ01+000000PRSWM2
0062601010999991992010401004+35733-005900FM-15+0021GMTT V0200601N00621999991CY0099001N1+01001+00501999999ADDAG11999MA1103121999999REMMET009CAVOK NSGEQDQ01+000000PRSWM2
0062601010999991992010401304+35733-005900FM-15+0021GMTT V0200601N00571999991CY0099001N1+01001+00501999999ADDAG11999MA1103121999999REMMET009CAVOK NSGEQDQ01+000000PRSWM2
0062601010999991992010402004+35733-005900FM-15+0021GMTT V0200601N00621999991CY0099001N1+01001+00501999999ADDAG11999MA1103121999999REMMET009CAVOK NSGEQDQ01+000000PRSWM2
0069601010999991992010402304+35733-005900FM-15+0021GMTT V0200601N00511999991CY0099001N1+01001+00501999999ADDAG11000MA1103121999999OC101031REMMET008CAVOK NSEQDQ01+000000PRSWM2
0119601010999991992010403004+35733-005900SY-MT+0021GMTT V0200601N00671220001CN0100001N1+00921+00661103111ADDAA106000091AG10000GF100991001001999999001001MA1103121999999MD1610021+9999MW1001REMMET009CAVOK NSGEQDQ01+000000PRSWM2
0058601010999991992010403304+35733-005900FM-15+0021GMTT V0200601N00671999991CY0099001N1+00901+00701999999ADDAG12999MA1103121999999REMMET005CAVOKEQDQ01+000000PRSWM2
0058601010999991992010404004+35733-005900FM-15+0021GMTT V0200801N00621999991CY0099001N1+00901+00801999999ADDAG11999MA1103011999999REMMET005CAVOKEQDQ01+000000PRSWM2
0058601010999991992010404304+35733-005900FM-15+0021GMTT V0200601N00511999991CY0099001N1+00901+00801999999ADDAG11999MA1103011999999REMMET005CAVOKEQDQ01+000000PRSWM2
0058601010999991992010405004+35733-005900FM-15+0021GMTT V0200601N00511999991CY0099001N1+00901+00701999999ADDAG11999MA1103011999999REMMET005CAVOKEQDQ01+000000PRSWM2
0058601010999991992010405304+35733-005900FM-15+0021GMTT V0200601N00511999991CY0099001N1+00901+00701999999ADDAG12000MA1103011999999REMMET005CAVOKEQDQ01+000000PRSWM2
0145601010999991992010406004+35733-005900SY-MT+0021GMTT V0200601N00511220001CN0100001N1+00821+00601103081ADDAA106000091AG14000GF100991001001999999001001KA1120N+00671MA1103011999999MD1710031+9999MW1001REMSYN011333   20067MET005CAVOKEQDQ01+000000PRSWM2
0058601010999991992010406304+35733-005900FM-15+0021GMTT V0200601N00411999991CY0099001N1+00801+00601999999ADDAG12999MA1103011999999REMMET005CAVOKEQDQ01+000000PRSWM2
0058601010999991992010407004+35733-005900FM-15+0021GMTT V0200601N00411999991CY0099001N1+00801+00701999999ADDAG12999MA1103121999999REMMET005CAVOKEQDQ01+000000PRSWM2
0058601010999991992010407304+35733-005900FM-15+0021GMTT V0200601N00411999991CY0099001N1+00901+00701999999ADDAG12999MA1103121999999REMMET005CAVOKEQDQ01+000000PRSWM2
0058601010999991992010408004+35733-005900FM-15+0021GMTT V0201001N00311999991CY0099001N1+00801+00601999999ADDAG11999MA1103121999999REMMET005CAVOKEQDQ01+000000PRSWM2
0058601010999991992010408304+35733-005900FM-15+0021GMTT V0200601N00511999991CY0099001N1+00801+00601999999ADDAG12000MA1103121999999REMMET005CAVOKEQDQ01+000000PRSWM2
0115601010999991992010409004+35733-005900SY-MT+0021GMTT V0200601N00411220001CN0100001N1+00781+00651103131ADDAA106000091AG14000GF100991001001999999001001MA1103121999999MD1310051+9999MW1001REMMET005CAVOKEQDQ01+000000PRSWM2
0058601010999991992010409304+35733-005900FM-15+0021GMTT V0200601N00411999991CY0099001N1+00801+00701999999ADDAG12999MA1103121999999REMMET005CAVOKEQDQ01+000000PRSWM2
0058601010999991992010410004+35733-005900FM-15+0021GMTT V0200601N00411999991CY0099001N1+00901+00701999999ADDAG12999MA1103121999999REMMET005CAVOKEQDQ01+000000PRSWM2
0058601010999991992010410304+35733-005900FM-15+0021GMTT V0200601N00411999991CY0099001N1+00901+00701999999ADDAG12999MA1103121999999REMMET005CAVOKEQDQ01+000000PRSWM2
0058601010999991992010411004+35733-005900FM-15+0021GMTT V0200601N00721999991CY0099001N1+01401+00701999999ADDAG12999MA1103121999999REMMET005CAVOKEQDQ01+000000PRSWM2
0058601010999991992010411304+35733-005900FM-15+0021GMTT V0200601N00721999991CY0099001N1+01401+00701999999ADDAG12000MA1103121999999REMMET005CAVOKEQDQ01+000000PRSWM2
0115601010999991992010412004+35733-005900SY-MT+0021GMTT V0200601N00721220001CN0100001N1+01471+00641103151ADDAA106000091AG14000GF100991001001999999001001MA1103121999999MD1010031+9999MW1001REMMET005CAVOKEQDQ01+000000PRSWM2
0058601010999991992010412304+35733-005900FM-15+0021GMTT V0200601N00721999991CY0099001N1+01501+00601999999ADDAG12999MA1103121999999REMMET005CAVOKEQDQ01+000000PRSWM2
0058601010999991992010413004+35733-005900FM-15+0021GMTT V0200801N00931999991CY0099001N1+01601+00401999999ADDAG12999MA1103011999999REMMET005CAVOKEQDQ01+000000PRSWM2
0058601010999991992010413304+35733-005900FM-15+0021GMTT V0200601N00721999991CY0099001N1+01701+00501999999ADDAG12999MA1103011999999REMMET005CAVOKEQDQ01+000000PRSWM2
0060601010999991992010414004+35733-005900FM-15+0021GMTT V0200601N00821220001CN0112001N1+01701+00601999999ADDAG12999GA1021+006009089MA1102911999999EQDQ01+000000PRSWM2
0060601010999991992010414304+35733-005900FM-15+0021GMTT V0200801N00821220001CN0112001N1+01701+00601999999ADDAG12000GA1021+006009089MA1102911999999EQDQ01+000000PRSWM2
0116601010999991992010418004+35733-005900FM-12+0021GMTT V0200401N00621220001CN0100001N9+01221+00761102961ADDAA106000091AG14000GA1021+006009089GF102991021021008001001001KA1120M+01701MD1610021+9999REMSYN017333   10170 82820
0060601010999991992010418304+35733-005900FM-15+0021GMTT V0200801N00511220001CN0112001N1+01201+00801999999ADDAG12999GA1021+006009089MA1102911999999EQDQ01+000000PRSWM2
0060601010999991992010419004+35733-005900FM-15+0021GMTT V0201001N00411220001CN0112001N1+01101+00801999999ADDAG12999GA1021+006009089MA1102911999999EQDQ01+000000PRSWM2
0060601010999991992010419304+35733-005900FM-15+0021GMTT V0200801N00411220001CN0112001N1+01101+00801999999ADDAG12999GA1021+006009089MA1102911999999EQDQ01+000000PRSWM2
0060601010999991992010420004+35733-005900FM-15+0021GMTT V0200401N00211220001CN0112001N1+01001+00701999999ADDAG12999GA1021+004809089MA1102911999999EQDQ01+000000PRSWM2
0060601010999991992010420304+35733-005900FM-15+0021GMTT V0200601N00151220001CN0112001N1+01001+00701999999ADDAG12000GA1021+004809089MA1102911999999EQDQ01+000000PRSWM2
0115601010999991992010421004+35733-005900SY-MT+0021GMTT V0200601N00411220001CN0100001N1+00861+00731103031ADDAA106000091AG14000GF100991001001999999001001MA1103011999999MD1310061+9999MW1001REMMET005CAVOKEQDQ01+000000PRSWM2
0058601010999991992010421304+35733-005900FM-15+0021GMTT V0200601N00411999991CY0099001N1+00901+00701999999ADDAG12999MA1103011999999REMMET005CAVOKEQDQ01+000000PRSWM2
0058601010999991992010422004+35733-005900FM-15+0021GMTT V0200601N00411999991CY0099001N1+01001+00801999999ADDAG12999MA1103011999999REMMET005CAVOKEQDQ01+000000PRSWM2
0058601010999991992010423304+35733-005900FM-15+0021GMTT V0200601N00411999991CY0099001N1+01001+00801999999ADDAG12000MA1103011999999REMMET005CAVOKEQDQ01+000000PRSWM2
0061601010999991992010500004+35733-005900FM-12+0021GMTT V0200401N00511220001CN0100001N9+00921+00711102961ADDAA106000091AG14000GF100991001001999999001001MD1710071+9999
0058601010999991992010501004+35733-005900FM-15+0021GMTT V0200401N00771999991CY0099001N1+00901+00701999999ADDAG11999MA1102911999999REMMET005CAVOKEQDQ01+000000PRSWM2
0058601010999991992010502004+35733-005900FM-15+0021GMTT V0200401N00621999991CY0099001N1+01101+00601999999ADDAG11999MA1102911999999REMMET005CAVOKEQDQ01+000000PRSWM2
0115601010999991992010503004+35733-005900SY-MT+0021GMTT V0200401N00621220001CN0100001N1+00901+00581102921ADDAA106000091AG14000GF100991001001999999001001MA1102911999999MD1510041+9999MW1001REMMET005CAVOKEQDQ01+000000PRSWM2
0058601010999991992010503304+35733-005900FM-15+0021GMTT V0200401N00511999991CY0099001N1+00901+00601999999ADDAG12999MA1102911999999REMMET005CAVOKEQDQ01+000000PRSWM2
0058601010999991992010504004+35733-005900FM-15+0021GMTT V0200401N00511999991CY0099001N1+00901+00601999999ADDAG12999MA1102911999999REMMET005CAVOKEQDQ01+000000PRSWM2
0058601010999991992010504304+35733-005900FM-15+0021GMTT V0200401N00511999991CY0099001N1+00901+00601999999ADDAG12999MA1102911999999REMMET005CAVOKEQDQ01+000000PRSWM2
0058601010999991992010505004+35733-005900FM-15+0021GMTT V0200401N00511999991CY0099001N1+00901+00601999999ADDAG12999MA1102811999999REMMET005CAVOKEQDQ01+000000PRSWM2
0058601010999991992010505304+35733-005900FM-15+0021GMTT V0200401N00511999991CY0099001N1+00901+00601999999ADDAG12000MA1102811999999REMMET005CAVOKEQDQ01+000000PRSWM2
0145601010999991992010506004+35733-005900SY-MT+0021GMTT V0200401N00511220001CN0100001N1+00831+00681102831ADDAA106000091AG14000GF100991001001999999001001KA1120N+00811MA1102811999999MD1810091+9999MW1001REMSYN011333   20081MET005CAVOKEQDQ01+000000PRSWM2
0058601010999991992010506304+35733-005900FM-15+0021GMTT V0200401N00511999991CY0099001N1+00801+00701999999ADDAG12999MA1102811999999REMMET005CAVOKEQDQ01+000000PRSWM2
0058601010999991992010507004+35733-005900FM-15+0021GMTT V0200401N00511999991CY0099001N1+00801+00701999999ADDAG12999MA1102811999999REMMET005CAVOKEQDQ01+000000PRSWM2
0058601010999991992010507304+35733-005900FM-15+0021GMTT V0200401N00511999991CY0099001N1+00801+00701999999ADDAG12999MA1102811999999REMMET005CAVOKEQDQ01+000000PRSWM2
0060601010999991992010508004+35733-005900FM-15+0021GMTT V0200601N00621220001CN0112001N1+00901+00601999999ADDAG12999GA1021+004809089MA1102811999999EQDQ01+000000PRSWM2
0060601010999991992010508304+35733-005900FM-15+0021GMTT V0200601N00721220001CN0112001N1+01001+00601999999ADDAG12000GA1021+004809089MA1102811999999EQDQ01+000000PRSWM2
0137601010999991992010509004+35733-005900SY-MT+0021GMTT V0200801N00931220001CN0100001N1+01171+00711102841ADDAA106000091AG14000GA1021+004809089GF102991021021004501001001MA1102811999999MD1310021+9999MW1001REMSYN011333   82816EQDQ01+000000PRSWM2
0060601010999991992010509304+35733-005900FM-15+0021GMTT V0200601N01031220001CN0112001N1+01301+00701999999ADDAG12999GA1021+004809089MA1102811999999EQDQ01+000000PRSWM2
0060601010999991992010510004+35733-005900FM-15+0021GMTT V0200601N01031220001CN0112001N1+01401+00701999999ADDAG12999GA1021+004809089MA1102811999999EQDQ01+000000PRSWM2
0060601010999991992010510304+35733-005900FM-15+0021GMTT V0200401N01031220001CN0112001N1+01401+00701999999ADDAG11999GA1021+004809089MA1102811999999EQDQ01+000000PRSWM2
0060601010999991992010511004+35733-005900FM-15+0021GMTT V0200601N01131220001CN0112001N1+01501+99999999999ADDAG12999GA1021+004809089MA1102911999999EQDQ01+000000PRSWM2
0060601010999991992010511304+35733-005900FM-15+0021GMTT V0200801N01241220001CN0112001N1+01501+00701999999ADDAG12000GA1021+006009089MA1102911999999EQDQ01+000000PRSWM2
0137601010999991992010512004+35733-005900SY-MT+0021GMTT V0200601N01231220001CN0100001N1+01591+00801102901ADDAA106000091AG14000GA1021+004809089GF102991021021004501001001MA1102911999999MD1110061+9999MW1001REMSYN011333   82816EQDQ01+000000PRSWM2
0072601010999991992010512304+35733-005900FM-15+0021GMTT V0200601N00931220001CN0112001N1+01601+00801999999ADDAG12999GA1021+004809089OC101291REMMET01011 EE 1029EQDQ01+000000PRSWM2
0060601010999991992010513004+35733-005900FM-15+0021GMTT V0200801N01031220001CN0112001N1+01601+00801999999ADDAG12999GA1021+004809089REMMET0061029//EQDQ01+000000PRSWM2
0072601010999991992010513304+35733-005900FM-15+0021GMTT V0200801N00621220001CN0112001N1+01701+00801999999ADDAG12999GA1021+999999089MA1102711999999REMMET003NSGEQDQ01+000000PRSWM2
0072601010999991992010514004+35733-005900FM-15+0021GMTT V0200801N00721220001CN0112001N1+01601+00901999999ADDAG12999GA1021+004809089MA1102711999999REMMET003NSGEQDQ01+000000PRSWM2
0072601010999991992010514304+35733-005900FM-15+0021GMTT V0200801N00821220001CN0112001N1+01601+00901999999ADDAG12000GA1021+004809089MA1102711999999REMMET003NSGEQDQ01+000000PRSWM2
0115601010999991992010515004+35733-005900SY-MT+0021GMTT V0200801N00721220001CN0100001N1+01661+00861102661ADDAA106000091AG14000GA1021+004809089GF102991999999004501999999MA1102611999999MW1001REMMET003NSGEQDQ01+000000PRSWM2
0072601010999991992010515304+35733-005900FM-15+0021GMTT V0200801N00821220001CN0112001N1+01701+00901999999ADDAG12999GA1021+004809089MA1102611999999REMMET003NSGEQDQ01+000000PRSWM2
0072601010999991992010516004+35733-005900FM-15+0021GMTT V0200801N00821220001CN0112001N1+01501+00801999999ADDAG12999GA1011+004809089MA1102611999999REMMET003NSGEQDQ01+000000PRSWM2
0072601010999991992010516304+35733-005900FM-15+0021GMTT V0200801N00931220001CN0112001N1+01501+00801999999ADDAG12999GA1011+999999089MA1102611999999REMMET003NSGEQDQ01+000000PRSWM2
0072601010999991992010517004+35733-005900FM-15+0021GMTT V0200801N00721220001CN0112001N1+01901+00801999999ADDAG12999GA1011+004809089MA1102611999999REMMET003NSGEQDQ01+000000PRSWM2
0072601010999991992010517304+35733-005900FM-15+0021GMTT V0200801N00821220001CN0112001N1+01501+00801999999ADDAG11000GA1011+004809089MA1102611999999REMMET003NSGEQDQ01+000000PRSWM2
0165601010999991992010518004+35733-005900SY-MT+0021GMTT V0200801N00721220001CN0100001N1+01281+00791102711ADDAA106000091AG14000GA1011+004809089GF101991011021004501001001KA1120M+01711MA1102711999999MD1310051+9999MW1001REMSYN017333   10171 81816MET003NSGEQDQ01+000000PRSWM2
0072601010999991992010518304+35733-005900FM-15+0021GMTT V0200801N00821220001CN0112001N1+01301+00801999999ADDAG12999GA1011+004809089MA1102711999999REMMET003NSGEQDQ01+000000PRSWM2
0072601010999991992010519004+35733-005900FM-15+0021GMTT V0200801N00821220001CN0112001N1+01301+00801999999ADDAG12999GA1011+004809089MA1102711999999REMMET003NSGEQDQ01+000000PRSWM2
0072601010999991992010519304+35733-005900FM-15+0021GMTT V0200601N00931220001CN0112001N1+01301+00801999999ADDAG12999GA1011+004809089MA1102711999999REMMET003NSGEQDQ01+000000PRSWM2
0072601010999991992010520004+35733-005900FM-15+0021GMTT V0200601N00721220001CN0112001N1+01201+00801999999ADDAG12999GA1011+004809089MA1102711999999REMMET003NSGEQDQ01+000000PRSWM2
0072601010999991992010520304+35733-005900FM-15+0021GMTT V0200601N00821220001CN0112001N1+01201+00801999999ADDAG11000GA1011+999999089MA1102711999999REMMET003NSGEQDQ01+000000PRSWM2
0146601010999991992010521004+35733-005900SY-MT+0021GMTT V0200601N01031220001CN0100001N1+01201+00721102801ADDAA106000091AG14000GA1011+004809089GF101991011021004501001001MA1102711999999MD1210091+9999MW1001REMSYN011333   81816MET003NSGEQDQ01+000000PRSWM2
0058601010999991992010522004+35733-005900FM-15+0021GMTT V0200801N00931999991CY0099001N1+01201+00701999999ADDAG11999MA1102811999999REMMET005CAVOKEQDQ01+000000PRSWM2
0058601010999991992010522304+35733-005900FM-15+0021GMTT V0200601N01131999991CY0099001N1+01201+00701999999ADDAG11999MA1102811999999REMMET005CAVOKEQDQ01+000000PRSWM2
0058601010999991992010523004+35733-005900FM-15+0021GMTT V0200601N00931999991CY0099001N1+01201+00701999999ADDAG11999MA1102811999999REMMET005CAVOKEQDQ01+000000PRSWM2
0058601010999991992010523304+35733-005900FM-15+0021GMTT V0200601N00821999991CY0099001N1+99999+99999999999ADDAG12000MA1102811999999REMMET005CAVOKEQDQ01+000000PRSWM2
0046601010999991992010523504+35733-005900FM-15+0021GMTT V0200601N00821999991CY0099001N1+99999+99999999999ADDAG12000REMMET008CAVOK IVEQDQ01+000000PRSWM2
0115601010999991992010600004+35733-005900SY-MT+0021GMTT V0200601N00931220001CN0100001N1+01161+00601102801ADDAA106000091AG14000GF100991001001999999001001MA1102811999999MD1410001+9999MW1001REMMET005CAVOKEQDQ01+000000PRSWM2
0058601010999991992010600304+35733-005900FM-15+0021GMTT V0200601N00931999991CY0099001N1+01201+00601999999ADDAG11999MA1102811999999REMMET005CAVOKEQDQ01+000000PRSWM2
0058601010999991992010601004+35733-005900FM-15+0021GMTT V0200601N00821999991CY0099001N1+01101+00701999999ADDAG11999MA1102711999999REMMET005CAVOKEQDQ01+000000PRSWM2
0058601010999991992010601304+35733-005900FM-15+0021GMTT V0200601N00721999991CY0099001N1+01101+00701999999ADDAG11999MA1102711999999REMMET005CAVOKEQDQ01+000000PRSWM2
0058601010999991992010602004+35733-005900FM-15+0021GMTT V0200801N00621999991CY0099001N1+01001+00701999999ADDAG11999MA1102711999999REMMET005CAVOKEQDQ01+000000PRSWM2
0058601010999991992010602304+35733-005900FM-15+0021GMTT V0200801N00721999991CY0099001N1+01001+00701999999ADDAG12000MA1102711999999REMMET005CAVOKEQDQ01+000000PRSWM2
0101601010999991992010603004+35733-005900SY-MT+0021GMTT V0200801N00621220001CN0100001N1+00981+00641102781ADDAA106000091AG14000GF100991001001999999001001MA1102711999999MW1001REMMET005CAVOKEQDQ01+000000PRSWM2
0058601010999991992010603304+35733-005900FM-15+0021GMTT V0200801N00511999991CY0099001N1+01001+00601999999ADDAG12999MA1102711999999REMMET005CAVOKEQDQ01+000000PRSWM2
0058601010999991992010604004+35733-005900FM-15+0021GMTT V0200601N00721999991CY0099001N1+00901+00601999999ADDAG12999MA1102711999999REMMET005CAVOKEQDQ01+000000PRSWM2
0058601010999991992010604304+35733-005900FM-15+0021GMTT V0200601N00621999991CY0099001N1+00901+00601999999ADDAG12999MA1102711999999REMMET005CAVOKEQDQ01+000000PRSWM2
0058601010999991992010605004+35733-005900FM-15+0021GMTT V0200601N00721999991CY0099001N1+00901+00601999999ADDAG12999MA1102711999999REMMET005CAVOKEQDQ01+000000PRSWM2
0152601010999991992010606004+35733-005900SY-MT+0021GMTT V0200601N00621220001CN0100001N1+00881+00651102671ADDAA106000091AG10000GF100991001001999999001001KA1120N+00701MA1102611999999MD1710121+9999MW1001REMSYN011333   20070SYN012RJCT40  2561EQDQ01+000000PRSWM2
0058601010999991992010606304+35733-005900FM-15+0021GMTT V0200601N00621999991CY0099001N1+00901+00701999999ADDAG11999MA1102611999999REMMET005CAVOKEQDQ01+000000PRSWM2
0058601010999991992010607004+35733-005900FM-15+0021GMTT V0200601N00621999991CY0099001N1+00901+00701999999ADDAG11999MA1102611999999REMMET005CAVOKEQDQ01+000000PRSWM2
0072601010999991992010608004+35733-005900FM-15+0021GMTT V0200601N00721220001CN0112001N1+00901+00601999999ADDAG11999GA1011+004809059MA1102611999999REMMET003NSGEQDQ01+000000PRSWM2
0058601010999991992010608304+35733-005900FM-15+0021GMTT V0200601N00621220001CN0112001N1+99999+99999999999ADDAG11000REMMET00401EEEQDQ01+029223ATOT  Q02+000000PRSWM2
0210601010999991992010609004+35733-005900SY-MT+0021GMTT V0200801N00721220001CN0100001N1+01071+00641102711ADDAA106000091AG10000GA1011+004809059GF199999999999999999001001MA1102711999999MD1310051+9999MW1001REMSYN011333   81616MET003NSGEQDQ01+000002SCOTCVQ02+000002SCOTLCQ03+000002SCOLCGQ04+000992SCOLCBQ05+000000PRSWM2
0062601010999991992010610004+35733-005900FM-15+0021GMTT V0200601N00721999991CY0099001N1+01401+00601999999ADDAG11999MA1102711999999REMMET009CAVOK NSGEQDQ01+000000PRSWM2
0072601010999991992010610304+35733-005900FM-15+0021GMTT V0200801N01031220001CN0112001N1+01401+00601999999ADDAG11999GA1011+004809059MA1102711999999REMMET003NSGEQDQ01+000000PRSWM2
0061601010999991992010611004+35733-005900FM-15+0021GMTT V0200801N01031999991CY0099001N1+01401+00601999999ADDAG11999MA1102711999999REMMET008CAVOK NSEQDQ01+000000PRSWM2
0116601010999991992010612004+35733-005900FM-12+0021GMTT V0200801N01031220001CN0100001N9+01551+00721102721ADDAA106000091AG14000GA1021+069009009GF102991001001999999001021MD1010011+9999REMSYN011333   82073EQDQ01+000022SCOTLC
0062601010999991992010612304+35733-005900FM-15+0021GMTT V0200801N01031999991CY0099001N1+01601+00701999999ADDAG11999MA1102711999999REMMET009CAVOK NSGEQDQ01+000000PRSWM2
0062601010999991992010613004+35733-005900FM-15+0021GMTT V0200801N00931999991CY0099001N1+01701+00701999999ADDAG11999MA1102611999999REMMET009CAVOK NSGEQDQ01+000000PRSWM2
0058601010999991992010613304+35733-005900FM-15+0021GMTT V0200601N00881999991CY0099001N1+01601+00701999999ADDAG11999MA1102611999999REMMET005CAVOKEQDQ01+000000PRSWM2
0058601010999991992010614004+35733-005900FM-15+0021GMTT V0200601N01031999991CY0099001N1+01601+00601999999ADDAG11999MA1102611999999REMMET005CAVOKEQDQ01+000000PRSWM2
0058601010999991992010614304+35733-005900FM-15+0021GMTT V0200601N00931999991CY0099001N1+01601+00601999999ADDAG11000MA1102611999999REMMET005CAVOKEQDQ01+000000PRSWM2
0148601010999991992010615004+35733-005900SY-MT+0021GMTT V0200601N01131069001CN0150001N1+01581+00741102581ADDAA106000091AG10000GA1061+069009009GF106991001001999999001021MA1102511999999MD1710141+9999MW1001REMSYN011333   86073MET005CAVOKEQDQ01+000000PRSWM2
0058601010999991992010615304+35733-005900FM-15+0021GMTT V0200601N01131999991CY0099001N1+01601+00701999999ADDAG11999MA1102511999999REMMET005CAVOKEQDQ01+000000PRSWM2
0058601010999991992010616004+35733-005900FM-15+0021GMTT V0200601N01241999991CY0099001N1+01601+00701999999ADDAG11999MA1102511999999REMMET005CAVOKEQDQ01+000000PRSWM2
0058601010999991992010616304+35733-005900FM-15+0021GMTT V0200601N01031999991CY0099001N1+01601+00701999999ADDAG11999MA1102511999999REMMET005CAVOKEQDQ01+000000PRSWM2
0076601010999991992010617004+35733-005900FM-15+0021GMTT V0200601N01031069001CN0112001N1+01501+00801999999ADDAG11999GA1011+004509059GA2051+069009009MA1102511999999EQDQ01+000000PRSWM2
0076601010999991992010617304+35733-005900FM-15+0021GMTT V0200601N01031069001CN0112001N1+01501+00801999999ADDAG11000GA1011+004509059GA2051+069009009MA1102511999999EQDQ01+000000PRSWM2
0159601010999991992010618004+35733-005900SY-MT+0021GMTT V0200601N00931069001CN0100001N1+01241+00751102581ADDAA106000091AG14000GA1021+004809059GA2051+069009009GF106991021051004501001021MA1102511999999MD1510001+9999MW1001REMSYN017333   82616 85073EQDQ01+000000PRSWM2
0076601010999991992010618304+35733-005900FM-15+0021GMTT V0200601N00981069001CN0112001N1+99999+99999999999ADDAG11999GA1031+004809059GA2051+069009009MA1102511999999EQDQ01+000000PRSWM2
0076601010999991992010619004+35733-005900FM-15+0021GMTT V0200601N00931069001CN0112001N1+01201+00801999999ADDAG11999GA1031+004809059GA2041+069009009MA1102511999999EQDQ01+000000PRSWM2
0076601010999991992010619304+35733-005900FM-15+0021GMTT V0200801N00931069001CN0112001N1+01201+00801999999ADDAG11999GA1031+004809059GA2041+069009009MA1102511999999EQDQ01+000000PRSWM2
0075601010999991992010620004+35733-005900FM-15+0021GMTT V0200801N00821069001CN0112001N1+01201+00801999999ADDAG11999GA1031+004809059GA2041+069009009REMMET00511025EQDQ01+000000PRSWM2
0076601010999991992010620304+35733-005900FM-15+0021GMTT V0200801N01031069001CN0112001N1+01201+00801999999ADDAG12000GA1031+004809059GA2041+069009009MA1102511999999EQDQ01+000000PRSWM2
0103601010999991992010621004+35733-005900SY-MT+0021GMTT V0200601N00931220001CN0100001N1+01211+00741102441ADDAA106000091AG14000GF100991001001999999001001MD1810041+9999MW1001REMMET008CAVOK 2EEQDQ01+000000PRSWM2
0062601010999991992010621304+35733-005900FM-15+0021GMTT V0200601N00931999991CY0099001N1+01201+00701999999ADDAG12999MA1102401999999REMMET009CAVOK NSGEQDQ01+000000PRSWM2
0062601010999991992010622004+35733-005900FM-15+0021GMTT V0200601N01031999991CY0099001N1+01201+00701999999ADDAG12999MA1102401999999REMMET009CAVOK NSGEQDQ01+000000PRSWM2
0062601010999991992010622304+35733-005900FM-15+0021GMTT V0200801N01031999991CY0099001N1+01201+00701999999ADDAG12999MA1102401999999REMMET009CAVOK NSGEQDQ01+000000PRSWM2
0046601010999991992010623004+35733-005900FM-15+0021GMTT V0200801N00931999991CY0099001N1+99999+99999999999ADDAG12999REMMET008CAVOK 2EEQDQ01+000000PRSWM2
0062601010999991992010623304+35733-005900FM-15+0021GMTT V0200801N00931999991CY0099001N1+01101+00901999999ADDAG11000MA1102401999999REMMET009CAVOK NSGEQDQ01+000000PRSWM2
0119601010999991992010700004+35733-005900SY-MT+0021GMTT V0200801N00931220001CN0100001N1+01201+00801102441ADDAA106000091AG10000GF100991001001999999001001MA1102401999999MD1610101+9999MW1001REMMET009CAVOK NSGEQDQ01+000000PRSWM2
0062601010999991992010700304+35733-005900FM-15+0021GMTT V0200801N00931999991CY0099001N1+01201+00801999999ADDAG11999MA1102401999999REMMET009CAVOK NSGEQDQ01+000000PRSWM2
0062601010999991992010701004+35733-005900FM-15+0021GMTT V0200801N01031999991CY0099001N1+01201+00801999999ADDAG11999MA1102401999999REMMET009CAVOK NSGEQDQ01+000000PRSWM2
0058601010999991992010701304+35733-005900FM-15+0021GMTT V0200801N00931999991CY0099001N1+99999+99999999999ADDAG11999REMMET020CAVOK 12 08 1024 NSGEQDQ01+000000PRSWM2
0062601010999991992010702004+35733-005900FM-15+0021GMTT V0200801N01031999991CY0099001N1+01201+00801999999ADDAG11999MA1102401999999REMMET009CAVOK NSGEQDQ01+000000PRSWM2
0062601010999991992010702304+35733-005900FM-15+0021GMTT V0200801N01081999991CY0099001N1+01201+00801999999ADDAG11000MA1102401999999REMMET009CAVOK NSGEQDQ01+000000PRSWM2
0119601010999991992010703004+35733-005900SY-MT+0021GMTT V0200801N01131220001CN0100001N1+01141+00781102401ADDAA106000091AG10000GF100991001001999999001001MA1102401999999MD1410001+9999MW1001REMMET009CAVOK NSGEQDQ01+000000PRSWM2
0062601010999991992010703304+35733-005900FM-15+0021GMTT V0200801N01131999991CY0099001N1+01101+00801999999ADDAG11999MA1102401999999REMMET009CAVOK NSGEQDQ01+000000PRSWM2
0062601010999991992010704304+35733-005900FM-15+0021GMTT V0200801N01291999991CY0099001N1+01201+00701999999ADDAG11999MA1102401999999REMMET009CAVOK NSGEQDQ01+000000PRSWM2
0062601010999991992010705004+35733-005900FM-15+0021GMTT V0200801N01131999991CY0099001N1+01201+00701999999ADDAG11999MA1102401999999REMMET009CAVOK NSGEQDQ01+000000PRSWM2
0062601010999991992010705304+35733-005900FM-15+0021GMTT V0200801N01081999991CY0099001N1+01201+00801999999ADDAG12000MA1102401999999REMMET009CAVOK NSGEQDQ01+000000PRSWM2
0149601010999991992010706004+35733-005900SY-MT+0021GMTT V0200801N01031220001CN0100001N1+01201+00801102351ADDAA106000091AG14000GF100991001001999999001001KA1120N+01031MA1102301999999MD1810071+9999MW1001REMSYN011333   20103MET009CAVOK NSGEQDQ01+000000PRSWM2
0062601010999991992010706304+35733-005900FM-15+0021GMTT V0200801N01131999991CY0099001N1+01201+00801999999ADDAG12999MA1102301999999REMMET009CAVOK NSGEQDQ01+000000PRSWM2
0062601010999991992010707304+35733-005900FM-15+0021GMTT V0200801N01131999991CY0099001N1+01201+00801999999ADDAG12999MA1102301999999REMMET009CAVOK NSGEQDQ01+000000PRSWM2
0076601010999991992010708004+35733-005900FM-15+0021GMTT V0200601N00931220001CN0112001N1+01201+00801999999ADDAG12999GA1011+004809059GA2041+069009009MA1102401999999EQDQ01+000000PRSWM2
0076601010999991992010708304+35733-005900FM-15+0021GMTT V0200601N01031220001CN0112001N1+01201+00801999999ADDAG12000GA1011+004809059GA2041+069009009MA1102401999999EQDQ01+000000PRSWM2
0159601010999991992010709004+35733-005900SY-MT+0021GMTT V0200601N00821069001CN0100001N1+01221+00861102461ADDAA106000091AG14000GA1021+004809059GA2041+069009009GF105991021051004501001021MA1102401999999MD1010111+9999MW1001REMSYN017333   82616 84073EQDQ01+000000PRSWM2
0076601010999991992010710004+35733-005900FM-15+0021GMTT V0200601N01031069001CN0112001N1+01301+00901999999ADDAG12999GA1021+004809059GA2041+069009009MA1102401999999EQDQ01+000000PRSWM2
0076601010999991992010710304+35733-005900FM-15+0021GMTT V0200601N01031069001CN0112001N1+01301+00901999999ADDAG12999GA1021+004809059GA2041+069009009MA1102511999999EQDQ01+000000PRSWM2
0076601010999991992010711004+35733-005900FM-15+0021GMTT V0200601N01031220001CN0112001N1+01601+00901999999ADDAG12999GA1021+004809059GA2031+069009009MA1102511999999EQDQ01+000000PRSWM2
0119601010999991992010712004+35733-005900FM-12+0021GMTT V0200601N01031069001CN0100001N9+01641+00881102481ADDAA106000091AG14000GA1021+004809059GA2051+069009009GF106991021051004501001021MD1010011+9999REMSYN017333   82616 85073
0076601010999991992010712304+35733-005900FM-15+0021GMTT V0200601N01031069001CN0112001N1+01601+00901999999ADDAG12999GA1021+004809059GA2051+069009009MA1102401999999EQDQ01+000000PRSWM2
0076601010999991992010713004+35733-005900FM-15+0021GMTT V0200601N01131069001CN0112001N1+01701+00901999999ADDAG12999GA1021+004809059GA2051+069009009MA1102401999999EQDQ01+000000PRSWM2
0076601010999991992010713304+35733-005900FM-15+0021GMTT V0200601N01131069001CN0112001N1+01701+00901999999ADDAG12999GA1021+004809059GA2051+069009009MA1102401999999EQDQ01+000000PRSWM2
0076601010999991992010714004+35733-005900FM-15+0021GMTT V0200601N01131069001CN0112001N1+01701+00901999999ADDAG12999GA1021+004809059GA2051+069009009MA1102401999999EQDQ01+000000PRSWM2
0060601010999991992010714304+35733-005900FM-15+0021GMTT V0200601N01031069001CN0112001N1+01701+00901999999ADDAG12000GA1051+069009009MA1102401999999EQDQ01+000000PRSWM2
0159601010999991992010715004+35733-005900SY-MT+0021GMTT V0200601N01131030001CN0100001N1+01631+00871102321ADDAA106000091AG14000GA1031+004809059GA2031+030009039GF106991031051004501081021MA1102301999999MD1610161+9999MW1001REMSYN017333   83616 83360EQDQ01+000000PRSWM2
0076601010999991992010715304+35733-005900FM-15+0021GMTT V0200601N01131030001CN0112001N1+01601+00901999999ADDAG12999GA1031+004809059GA2031+030009039MA1102301999999EQDQ01+000000PRSWM2
0076601010999991992010716004+35733-005900FM-15+0021GMTT V0200601N01031030001CN0112001N1+01601+00801999999ADDAG12999GA1031+004809059GA2031+030009039MA1102301999999EQDQ01+000000PRSWM2
0076601010999991992010716304+35733-005900FM-15+0021GMTT V0200601N01031030001CN0112001N1+01601+00801999999ADDAG11999GA1031+004809059GA2031+030009039MA1102301999999EQDQ01+000000PRSWM2
0076601010999991992010717004+35733-005900FM-15+0021GMTT V0200601N00931030001CN0080001N1+01501+00801999999ADDAG11999GA1031+004809059GA2031+030009039MA1102301999999EQDQ01+000000PRSWM2
0076601010999991992010717304+35733-005900FM-15+0021GMTT V0200601N00931030001CN0080001N1+01501+00801999999ADDAG11000GA1031+004809059GA2031+030009039MA1102301999999EQDQ01+000000PRSWM2
0172601010999991992010718004+35733-005900SY-MT+0021GMTT V0200601N00821030001CN0080001N1+01361+00841102391ADDAA106000091AG10000GA1031+004809059GA2031+030009039GF107991031051004501081021KA1120M+01711MA1102301999999MD1310071+9999REMSYN023333   10171 83616 83360EQDQ01+000000PRSWM2
0076601010999991992010718304+35733-005900FM-15+0021GMTT V0200801N00931030001CN0080001N1+01401+00801999999ADDAG11999GA1031+004809059GA2031+030009039MA1102301999999EQDQ01+000000PRSWM2
0076601010999991992010719004+35733-005900FM-15+0021GMTT V0200801N00931030001CN0080001N1+01301+00801999999ADDAG11999GA1031+004809059GA2031+030009039MA1102401999999EQDQ01+000000PRSWM2
0076601010999991992010719304+35733-005900FM-15+0021GMTT V0200801N00931030001CN0080001N1+01301+00801999999ADDAG12999GA1031+004809059GA2041+030009039MA1102401999999EQDQ01+000000PRSWM2
0076601010999991992010720004+35733-005900FM-15+0021GMTT V0200601N00511030001CN0080001N1+01301+00801999999ADDAG12999GA1031+004809059GA2041+030009039MA1102401999999EQDQ01+000000PRSWM2
0076601010999991992010720304+35733-005900FM-15+0021GMTT V0200801N00821030001CN0080001N1+01301+00801999999ADDAG12000GA1031+004809059GA2041+030009039MA1102401999999EQDQ01+000000PRSWM2
0153601010999991992010721004+35733-005900SY-MT+0021GMTT V0200601N00821030001CN0100001N1+01321+00881102471ADDAA106000091AG14000GA1031+004809059GA2031+030009039GF107991031051004501081021MA1102401999999MD1210081+9999REMSYN017333   83616 83360EQDQ01+000000PRSWM2
0076601010999991992010721304+35733-005900FM-15+0021GMTT V0200601N00821030001CN0112001N1+99999+99999999999ADDAG11999GA1031+004809059GA2031+030009039MA1102401999999EQDQ01+000000PRSWM2
0076601010999991992010722004+35733-005900FM-15+0021GMTT V0200601N00821030001CN0112001N1+01301+00901999999ADDAG11999GA1031+004809059GA2041+030009039MA1102401999999EQDQ01+000000PRSWM2
0076601010999991992010722304+35733-005900FM-15+0021GMTT V0200601N01031030001CN0112001N1+01301+00901999999ADDAG11999GA1031+004809059GA2041+030009039MA1102401999999EQDQ01+000000PRSWM2
0076601010999991992010723004+35733-005900FM-15+0021GMTT V0200601N00931030001CN0112001N1+01301+00901999999ADDAG11999GA1031+004809059GA2041+030009039MA1102511999999EQDQ01+000000PRSWM2
0076601010999991992010723304+35733-005900FM-15+0021GMTT V0200601N00821030001CN0112001N1+01301+00901999999ADDAG12000GA1031+004809059GA2041+030009039MA1102511999999EQDQ01+000000PRSWM2
0159601010999991992010800004+35733-005900SY-MT+0021GMTT V0200601N00931030001CN0100001N1+01321+00791102501ADDAA106000091AG14000GA1031+004809059GA2041+030009039GF107991031051004501081021MA1102511999999MD1310031+9999MW1001REMSYN017333   83616 84360EQDQ01+000000PRSWM2
0076601010999991992010800304+35733-005900FM-15+0021GMTT V0200601N00821030001CN0112001N1+01301+00801999999ADDAG11999GA1031+004809059GA2041+030009039MA1102511999999EQDQ01+000000PRSWM2
0076601010999991992010801004+35733-005900FM-15+0021GMTT V0200601N00821030001CN0112001N1+99999+99999999999ADDAG11999GA1031+004809059GA2041+030009039MA1102511999999EQDQ01+000000PRSWM2
0076601010999991992010802004+35733-005900FM-15+0021GMTT V0200601N00821030001CN0080001N1+01301+00801999999ADDAG11999GA1031+004809059GA2041+030009039MA1102511999999EQDQ01+000000PRSWM2
0076601010999991992010802304+35733-005900FM-15+0021GMTT V0200601N00771030001CN0080001N1+01201+00801999999ADDAG12000GA1031+004809059GA2041+030009039MA1102511999999EQDQ01+000000PRSWM2
0159601010999991992010803004+35733-005900SY-MT+0021GMTT V0200601N00771030001CN0080001N1+01241+00841102471ADDAA106000091AG14000GA1031+004809059GA2041+030009039GF107991031051004501081021MA1102401999999MD1810031+9999MW1001REMSYN017333   83616 84360EQDQ01+000000PRSWM2
0076601010999991992010803304+35733-005900FM-15+0021GMTT V0200601N00771220001CN9999999N9+01201+00801999999ADDAG12999GA1041+030009039MA1102401999999EQDQ01+000002VOVAR Q02+000000PRSWM2
0076601010999991992010804004+35733-005900FM-15+0021GMTT V0200601N00721030001CN0080001N1+01201+00801999999ADDAG12999GA1031+004809059GA2041+030009039MA1102401999999EQDQ01+000000PRSWM2
0076601010999991992010804304+35733-005900FM-15+0021GMTT V0200601N00721030001CN0080001N1+99999+99999999999ADDAG12999GA1031+004809059GA2041+030009039MA1102401999999EQDQ01+000000PRSWM2
0076601010999991992010805004+35733-005900FM-15+0021GMTT V0200601N00621030001CN0080001N1+01201+00801999999ADDAG12999GA1031+004809059GA2041+030009039MA1102401999999EQDQ01+000000PRSWM2
0076601010999991992010805304+35733-005900FM-15+0021GMTT V0200601N00721030001CN0080001N1+01201+00801999999ADDAG12000GA1031+004809059GA2041+030009039MA1102401999999EQDQ01+000000PRSWM2
0178601010999991992010806004+35733-005900SY-MT+0021GMTT V0200601N00721030001CN0080001N1+01261+00951102301ADDAA106000091AG14000GA1031+004809059GA2041+030009039GF107991031051004501081021KA1120N+01221MA1102301999999MD1810031+9999MW1001REMSYN023333   20122 83616 84360EQDQ01+000000PRSWM2
0076601010999991992010806304+35733-005900FM-15+0021GMTT V0200601N00721030001CN0080001N1+01301+01001999999ADDAG12999GA1031+004809059GA2041+030009039MA1102301999999EQDQ01+000000PRSWM2
0076601010999991992010807004+35733-005900FM-15+0021GMTT V0200601N00721030001CN0080001N1+01301+01001999999ADDAG12999GA1031+004809059GA2041+030009039MA1102301999999EQDQ01+000000PRSWM2
0076601010999991992010807304+35733-005900FM-15+0021GMTT V0200601N00621030001CN0080001N1+01301+01001999999ADDAG12999GA1031+004809059GA2041+030009039MA1102301999999EQDQ01+000000PRSWM2
0076601010999991992010808004+35733-005900FM-15+0021GMTT V0200601N00621030001CN0080001N1+01301+00901999999ADDAG12999GA1031+004809059GA2041+030009039MA1102301999999EQDQ01+000000PRSWM2
0076601010999991992010808304+35733-005900FM-15+0021GMTT V0200601N00621030001CN0080001N1+01301+00901999999ADDAG12000GA1031+004809059GA2041+030009039MA1102301999999EQDQ01+000000PRSWM2
0159601010999991992010809004+35733-005900SY-MT+0021GMTT V0200601N00511030001CN0080001N1+01351+00941102321ADDAA106000091AG14000GA1031+004809059GA2041+030009039GF107991031051004501081021MA1102301999999MD1310021+9999MW1001REMSYN017333   83616 84360EQDQ01+000000PRSWM2
0076601010999991992010809304+35733-005900FM-15+0021GMTT V0200601N00511030001CN0080001N1+01401+00901999999ADDAG12999GA1031+004809059GA2041+030009039MA1102301999999EQDQ01+000000PRSWM2
0076601010999991992010810004+35733-005900FM-15+0021GMTT V0200601N00721030001CN0080001N1+01401+01001999999ADDAG12999GA1031+004809059GA2041+030009039MA1102401999999EQDQ01+000000PRSWM2
0076601010999991992010811004+35733-005900FM-15+0021GMTT V0200601N00821030001CN0080001N1+01401+01001999999ADDAG12999GA1031+004809059GA2041+030009039MA1102201999999EQDQ01+000000PRSWM2
0076601010999991992010811304+35733-005900FM-15+0021GMTT V0200601N00821030001CN0080001N1+01401+01001999999ADDAG12000GA1031+004809059GA2041+030009039MA1102201999999EQDQ01+000000PRSWM2
0159601010999991992010812004+35733-005900SY-MT+0021GMTT V0200601N00931030001CN0080001N1+01451+01031102241ADDAA106000091AG14000GA1031+004809059GA2041+030009039GF107991031051004501081021MA1102201999999MD1810081+9999MW1001REMSYN017333   83616 84360EQDQ01+000000PRSWM2
0076601010999991992010812304+35733-005900FM-15+0021GMTT V0200601N00931030001CN0080001N1+01501+01001999999ADDAG12999GA1031+004809059GA2041+030009039MA1102201999999EQDQ01+000000PRSWM2
0076601010999991992010813004+35733-005900FM-15+0021GMTT V0200601N00821030001CN0080001N1+01501+01001999999ADDAG12999GA1031+004809059GA2041+030009039MA1102101999999EQDQ01+000000PRSWM2
0088601010999991992010813304+35733-005900FM-15+0021GMTT V0200601N00821030001CN0080001N1+01501+01001999999ADDAG12999GA1031+004809059GA2061+030009039MA1102101999999REMMET003NSGEQDQ01+000000PRSWM2
0088601010999991992010814304+35733-005900FM-15+0021GMTT V0201001N00821030001CN0080001N1+01501+01001999999ADDAG12000GA1031+004809059GA2061+030009039MA1102101999999REMMET003NSGEQDQ01+000000PRSWM2
0168601010999991992010815004+35733-005900SY-MT+0021GMTT V0200801N00931030001CN0080001N1+01501+00871101991ADDAA106000091AG14000GA1041+004809059GA2061+030009039GF107991041051004501071999MA1101901999999MD1810251+9999MW1001REMSYN017333   84616 86460MET003NSGEQDQ01+000000PRSWM2
0088601010999991992010816004+35733-005900FM-15+0021GMTT V0201001N00721030001CN0080001N1+01501+01001999999ADDAG12999GA1041+004809059GA2061+030009039MA1101901999999REMMET003NSGEQDQ01+000000PRSWM2
0088601010999991992010816304+35733-005900FM-15+0021GMTT V0201001N00621030001CN0080001N1+01501+01001999999ADDAG12999GA1041+004809059GA2061+030009039MA1101901999999REMMET003NSGEQDQ01+000000PRSWM2
0088601010999991992010817004+35733-005900FM-15+0021GMTT V0201001N00511030001CN0080001N1+01401+01001999999ADDAG12999GA1041+004809059GA2061+030009039MA1101901999999REMMET003NSGEQDQ01+000000PRSWM2
0088601010999991992010817304+35733-005900FM-15+0021GMTT V0201001N00511030001CN0080001N1+01401+01001999999ADDAG12000GA1041+004809059GA2061+030009039MA1101901999999REMMET003NSGEQDQ01+000000PRSWM2
0187601010999991992010818004+35733-005900SY-MT+0021GMTT V0200601N00511030001CN0080001N1+01361+00911101991ADDAA106000091AG14000GA1041+004809059GA2061+030009039GF107991041051004501071999KA1120M+01501MA1101901999999MD1510001+9999MW1001REMSYN023333   10150 84616 86460MET003NSGEQDQ01+000000PRSWM2
0088601010999991992010818304+35733-005900FM-15+0021GMTT V0200601N00621030001CN0080001N1+01401+00901999999ADDAG12999GA1041+004809059GA2061+030009039MA1101901999999REMMET003NSGEQDQ01+000000PRSWM2
0088601010999991992010819004+35733-005900FM-15+0021GMTT V0200601N00621030001CN0080001N1+01401+01201999999ADDAG12999GA1031+004809059GA2051+030009039MA1101901999999REMMET003NSGEQDQ01+000000PRSWM2
0088601010999991992010819304+35733-005900FM-15+0021GMTT V0200601N00511030001CN0080001N1+01401+01201999999ADDAG12999GA1031+004809059GA2051+030009039MA1101901999999REMMET003NSGEQDQ01+000000PRSWM2
0088601010999991992010820304+35733-005900FM-15+0021GMTT V0200601N00411030001CN0080001N1+01301+01201999999ADDAG12000GA1031+004809059GA2041+030009039MA1101901999999REMMET003NSGEQDQ01+000000PRSWM2
0159601010999991992010821004+35733-005900SY-MT+0021GMTT V0200601N00511030001CN0080001N1+01201+00911101831ADDAA106000091AG14000GA1031+004809059GA2031+030009039GF106991031051004501071021MA1101801999999MD1310041+9999MW1001REMSYN017333   83616 83360EQDQ01+000000PRSWM2
0076601010999991992010821304+35733-005900FM-15+0021GMTT V0200601N00511030001CN0080001N1+01201+00901999999ADDAG12999GA1031+004809059GA2031+030009039MA1102001999999EQDQ01+000000PRSWM2
0076601010999991992010822004+35733-005900FM-15+0021GMTT V0200601N00311030001CN0080001N1+01201+00901999999ADDAG12999GA1031+004809059GA2031+030009039MA1102001999999EQDQ01+000000PRSWM2
0076601010999991992010822304+35733-005900FM-15+0021GMTT V0200601N00311030001CN0080001N1+01201+00901999999ADDAG11999GA1031+004809059GA2031+030009039MA1102001999999EQDQ01+000000PRSWM2
0076601010999991992010823004+35733-005900FM-15+0021GMTT V0200601N00211030001CN0080001N1+01201+00901999999ADDAG11999GA1031+004809059GA2031+030009039MA1102001999999EQDQ01+000000PRSWM2
0076601010999991992010823304+35733-005900FM-15+0021GMTT V0200601N00211030001CN0080001N1+01201+00901999999ADDAG11000GA1031+004809059GA2031+030009039MA1102001999999EQDQ01+000000PRSWM2
0159601010999991992010900004+35733-005900SY-MT+0021GMTT V0200601N00411030001CN0080001N1+01001+00901102071ADDAA106000091AG10000GA1031+004809059GA2031+030009039GF106991031051004501031011MA1102001999999MD1010041+9999MW1001REMSYN017333   83616 83360EQDQ01+000000PRSWM2
0076601010999991992010900304+35733-005900FM-15+0021GMTT V0200601N00411030001CN0080001N1+01001+00901999999ADDAG11999GA1031+004809059GA2031+030009039MA1102001999999EQDQ01+000000PRSWM2
0076601010999991992010901304+35733-005900FM-15+0021GMTT V0201001N00411030001CN0080001N1+01001+00901999999ADDAG11999GA1031+004809059GA2031+030009039MA1102001999999EQDQ01+000000PRSWM2
0076601010999991992010902004+35733-005900FM-15+0021GMTT V0201001N00311030001CN0080001N1+01001+00901999999ADDAG11999GA1031+004809059GA2031+030009039MA1102001999999EQDQ01+000000PRSWM2
0076601010999991992010902304+35733-005900FM-15+0021GMTT V0201001N00311030001CN0080001N1+01001+00901999999ADDAG11000GA1031+004809059GA2031+030009039MA1102001999999EQDQ01+000000PRSWM2
0159601010999991992010903004+35733-005900SY-MT+0021GMTT V0200601N00211030001CN0080001N1+00971+00861102031ADDAA106000091AG10000GA1031+004809059GA2031+030009039GF106991031051004501031021MA1102001999999MD1610041+9999MW1001REMSYN017333   83616 83360EQDQ01+000000PRSWM2
0076601010999991992010903304+35733-005900FM-15+0021GMTT V0200601N00211030001CN0080001N1+01001+00901999999ADDAG11999GA1031+004809059GA2031+030009039MA1102001999999EQDQ01+000000PRSWM2
0076601010999991992010904004+35733-005900FM-15+0021GMTT V0201201N00151030001CN0080001N1+01001+00901999999ADDAG11999GA1031+004809059GA2041+030009039MA1102001999999EQDQ01+000000PRSWM2
0076601010999991992010904304+35733-005900FM-15+0021GMTT V0201201N00151030001CN0080001N1+01001+00901999999ADDAG11999GA1031+004809059GA2041+030009039MA1102001999999EQDQ01+000000PRSWM2
0076601010999991992010905004+35733-005900FM-15+0021GMTT V0201601N00311030001CN0080001N1+01201+01001999999ADDAG11999GA1031+004809059GA2041+030009039MA1102001999999EQDQ01+000000PRSWM2
0076601010999991992010905304+35733-005900FM-15+0021GMTT V0201601N00211030001CN0080001N1+01201+01001999999ADDAG11000GA1031+004809059GA2041+030009039MA1102001999999EQDQ01+000000PRSWM2
0178601010999991992010906004+35733-005900SY-MT+0021GMTT V0201601N00621030001CN0080001N1+01401+00831102021ADDAA106000091AG10000GA1031+004809059GA2031+030009039GF106991031051004501031011KA1120N+00801MA1102001999999MD1010021+9999MW1001REMSYN023333   20080 83616 83360EQDQ01+000000PRSWM2
0092601010999991992010906304+35733-005900FM-15+0021GMTT V0201601N00621030001CN9999999N9+01401+00801999999ADDAG11999GA1031+004809059GA2031+030009039MA1102001999999EQDQ01+000002VOVAR Q02+000000PRSWM2
0076601010999991992010907004+35733-005900FM-15+0021GMTT V0201601N00511030001CN0080001N1+01301+00801999999ADDAG11999GA1031+004809059GA2031+030009039MA1102001999999EQDQ01+000000PRSWM2
0076601010999991992010907304+35733-005900FM-15+0021GMTT V0201601N00511030001CN0080001N1+01301+00801999999ADDAG11999GA1031+004809059GA2031+030009039MA1102001999999EQDQ01+000000PRSWM2
0088601010999991992010908004+35733-005900FM-15+0021GMTT V0201601N00621030001CN0080001N1+01401+00901999999ADDAG11999GA1041+004809059GA2031+030009039MA1102001999999REMMET003NSGEQDQ01+000000PRSWM2
0088601010999991992010908304+35733-005900FM-15+0021GMTT V0201601N00721030001CN0080001N1+01401+00901999999ADDAG11000GA1041+004809059GA2031+030009039MA1102001999999REMMET003NSGEQDQ01+000000PRSWM2
0162601010999991992010909004+35733-005900SY-MT+0021GMTT V0201601N00821004801CN0080001N1+01401+00891102181ADDAA106000091AG10000GA1051+004809089GA2041+030009039GF107991051021004501031999MA1102101999999MD1310161+9999REMSYN017333   85816 84360MET003NSGEQDQ01+000000PRSWM2
0088601010999991992010909304+35733-005900FM-15+0021GMTT V0201601N00821004801CN0080001N1+01401+99999999999ADDAG11999GA1051+004809089GA2041+030009039MA1102101999999REMMET003NSGEQDQ01+000000PRSWM2
0088601010999991992010910004+35733-005900FM-15+0021GMTT V0201601N00721004801CN0070001N1+01501+00901999999ADDAG12999GA1051+004809089GA2041+030009039MA1102201999999REMMET003NSGEQDQ01+000000PRSWM2
0088601010999991992010910304+35733-005900FM-15+0021GMTT V0202801N00621004501CN0070001N1+01501+00901999999ADDAG12999GA1061+004509089GA2011+006009099MA1102201999999REMMET003NSGEQDQ01+000000PRSWM2
0088601010999991992010911004+35733-005900FM-15+0021GMTT V0203001N00411004501CN0070001N1+01501+01201999999ADDAG12999GA1061+004509089GA2011+006009099MA1102301999999REMMET003NSGEQDQ01+000000PRSWM2
0088601010999991992010911304+35733-005900FM-15+0021GMTT V0203001N00211004501CN0080001N1+01501+01201999999ADDAG12000GA1061+004509089GA2011+006009099MA1102301999999REMMET003NSGEQDQ01+000000PRSWM2
0119601010999991992010912004+35733-005900FM-12+0021GMTT V0203001N00261004501CN0080001N9+01561+01151102301ADDAA106000091AG14000GA1061+004509089GA2011+006009099GF107991061091004501081999MD1010121+9999REMSYN017333   86815 81920
0072601010999991992010912304+35733-005900FM-15+0021GMTT V0203001N00311004801CN0080001N1+01601+01201999999ADDAG12999GA1061+004809089MA1102301999999REMMET003NSGEQDQ01+000000PRSWM2
0086601010999991992010913004+35733-005900FM-15+0021GMTT V0202801N00211030001CN0080001N1+01701+01301999999ADDAG12999GA1031+004809059GA2041+030009039MA1102301999999REMMET001GEQDQ01+000000PRSWM2
0090601010999991992010913304+35733-005900FM-15+0021GMTT V0202601N00211004801CN0112001N1+01601+01301999999ADDAG12999GA1051+004809089GA2031+030009039MA1102301999999REMMET005NOSIGEQDQ01+000000PRSWM2
0088601010999991992010914004+35733-005900FM-15+0021GMTT V0202601N00311004801CN0112001N1+01601+01301999999ADDAG11999GA1051+004809089GA2031+030009039MA1102301999999REMMET003NSGEQDQ01+000000PRSWM2
0090601010999991992010914304+35733-005900FM-15+0021GMTT V0202601N00311004801CN0112001N1+01501+01301999999ADDAG11000GA1051+004809089GA2041+030009039MA1102301999999REMMET005NOSIGEQDQ01+000000PRSWM2
0162601010999991992010915004+35733-005900SY-MT+0021GMTT V0202801N00411004801CN0080001N1+01601+01141102161ADDAA106000091AG14000GA1061+004809089GA2031+030009039GF108991061021004501031999MA1102101999999MD1810141+9999REMSYN017333   86816 83360MET003NSGEQDQ01+000000PRSWM2
0088601010999991992010915304+35733-005900FM-15+0021GMTT V0203001N00511004801CN0080001N1+01601+01101999999ADDAG12999GA1061+004809089GA2031+030009039MA1102101999999REMMET003NSGEQDQ01+000000PRSWM2
0088601010999991992010916004+35733-005900FM-15+0021GMTT V0203201N00511004801CN0080001N1+01501+01001999999ADDAG11999GA1061+004809089GA2031+030009039MA1102101999999REMMET003NSGEQDQ01+000000PRSWM2
0088601010999991992010916304+35733-005900FM-15+0021GMTT V0203201N00411004801CN0080001N1+01501+01001999999ADDAG11999GA1061+004809089GA2031+030009039MA1102101999999REMMET003NSGEQDQ01+000000PRSWM2
0072601010999991992010917004+35733-005900FM-15+0021GMTT V0203001N00311004801CN0080001N1+01501+00801999999ADDAG12999GA1061+004809089MA1102201999999REMMET003NSGEQDQ01+000000PRSWM2
0088601010999991992010917304+35733-005900FM-15+0021GMTT V0203201N00511004801CN0080001N1+01501+01001999999ADDAG12000GA1061+004809089GA2031+030009039MA1102101999999REMMET003NSGEQDQ01+000000PRSWM2
0165601010999991992010918004+35733-005900SY-MT+0021GMTT V0203001N00511004801CN0080001N1+01401+00751102261ADDAA106000091AG14000GA1071+004809089GF108991071021004501031999KA1120M+01671MA1102201999999MD1210101+9999MW1001REMSYN017333   10167 87816MET003NSGEQDQ01+000000PRSWM2
0072601010999991992010918304+35733-005900FM-15+0021GMTT V0203001N00411004801CN0080001N1+01401+00801999999ADDAG12999GA1071+004809089MA1102201999999REMMET003NSGEQDQ01+000000PRSWM2
0072601010999991992010919004+35733-005900FM-15+0021GMTT V0203001N00311004801CN0080001N1+01401+00901999999ADDAG12999GA1071+004809089MA1102301999999REMMET003NSGEQDQ01+000000PRSWM2
0072601010999991992010919304+35733-005900FM-15+0021GMTT V0203201N00511004801CN0112001N1+01401+00901999999ADDAG12999GA1071+004809089MA1102301999999REMMET003NSGEQDQ01+000000PRSWM2
0072601010999991992010920004+35733-005900FM-15+0021GMTT V0203201N00511004801CN0080001N1+01301+00901999999ADDAG12999GA1071+004809089MA1102301999999REMMET003NSGEQDQ01+000000PRSWM2
0072601010999991992010920304+35733-005900FM-15+0021GMTT V0203201N00411004801CN0080001N1+01301+00901999999ADDAG12000GA1071+004809089MA1102301999999REMMET003NSGEQDQ01+000000PRSWM2
0146601010999991992010921004+35733-005900SY-MT+0021GMTT V0203201N00511004801CN0080001N1+01371+00861102381ADDAA106000091AG14000GA1061+004809089GF106991061021004501001001MA1102301999999MD1110121+9999MW1001REMSYN011333   86816MET003NSGEQDQ01+000000PRSWM2
0072601010999991992010921304+35733-005900FM-15+0021GMTT V0203201N00511004801CN0080001N1+01401+00901999999ADDAG12999GA1061+004809089MA1102301999999REMMET003NSGEQDQ01+000000PRSWM2
0072601010999991992010922004+35733-005900FM-15+0021GMTT V0203201N00511004801CN0080001N1+01401+01201999999ADDAG12999GA1061+004809089MA1102301999999REMMET003NSGEQDQ01+000000PRSWM2
0072601010999991992010922304+35733-005900FM-15+0021GMTT V0202301N00511004801CN0080001N1+01401+01201999999ADDAG11999GA1061+004809089MA1102301999999REMMET003NSGEQDQ01+000000PRSWM2
0062601010999991992010923004+35733-005900FM-15+0021GMTT V0203201N00511004801CN0080001N1+01401+01201999999ADDAG11999GA1061+004809089REMMET00811023 NSEQDQ01+000000PRSWM2
0072601010999991992010923304+35733-005900FM-15+0021GMTT V0203201N00511004801CN0080001N1+01401+01201999999ADDAG12000GA1061+004809089MA1102301999999REMMET003NSGEQDQ01+000000PRSWM2
0146601010999991992011000004+35733-005900SY-MT+0021GMTT V0209991C00001004801CN0080001N1+01131+00811102421ADDAA106000091AG10000GA1061+004809059GF106991061021004501001001MA1102401999999MD1110041+9999MW1001REMSYN011333   86616MET003NSGEQDQ01+000000PRSWM2
0072601010999991992011000304+35733-005900FM-15+0021GMTT V0209991C00001004801CN0080001N1+01201+00801999999ADDAG11999GA1061+004809089MA1102401999999REMMET003NSGEQDQ01+000000PRSWM2
0072601010999991992011001004+35733-005900FM-15+0021GMTT V0209991C00001004801CN0080001N1+01101+00801999999ADDAG11999GA1061+004809089MA1102401999999REMMET003NSGEQDQ01+000000PRSWM2
0072601010999991992011001304+35733-005900FM-15+0021GMTT V0209991C00001004801CN0080001N1+01101+00801999999ADDAG11999GA1061+004809089MA1102401999999REMMET003NSGEQDQ01+000000PRSWM2
0072601010999991992011002304+35733-005900FM-15+0021GMTT V0209991C00001004801CN0080001N1+01101+00801999999ADDAG11000GA1061+004809089MA1102401999999REMMET003NSGEQDQ01+000000PRSWM2
0146601010999991992011003004+35733-005900SY-MT+0021GMTT V0209991C00001004801CN0080001N1+01121+00831102421ADDAA106000091AG14000GA1061+004809089GF106991061081004501001001MA1102401999999MD1410001+9999MW1001REMSYN011333   86816MET003NSGEQDQ01+000000PRSWM2
0072601010999991992011003304+35733-005900FM-15+0021GMTT V0209991C00001004801CN0080001N1+01001+00801999999ADDAG12999GA1061+004809089MA1102401999999REMMET003NSGEQDQ01+000000PRSWM2
0088601010999991992011004004+35733-005900FM-15+0021GMTT V0209991C00001030001CN0080001N1+01001+00801999999ADDAG12999GA1041+004809089GA2041+030009039MA1102401999999REMMET003NSGEQDQ01+000000PRSWM2
0088601010999991992011004304+35733-005900FM-15+0021GMTT V0203201N00411030001CN0080001N1+01001+00801999999ADDAG11999GA1031+004809089GA2041+030009039MA1102401999999REMMET003NSGEQDQ01+000000PRSWM2
0088601010999991992011005004+35733-005900FM-15+0021GMTT V0203401N00211030001CN0080001N1+01001+00801999999ADDAG11999GA1031+004809089GA2041+030009039MA1102301999999REMMET003NSGEQDQ01+000000PRSWM2
0187601010999991992011006004+35733-005900SY-MT+0021GMTT V0209991C00001030001CN0080001N1+01051+00631102351ADDAA106000091AG10000GA1031+004809089GA2041+030009039GF106991031021004501031001KA1120N+00561MA1102301999999MD1810011+9999MW1001REMSYN023333   20056 83816 84360MET003NSGEQDQ01+000000PRSWM2
0088601010999991992011007004+35733-005900FM-15+0021GMTT V0200901N00311030001CN0080001N1+00701+00601999999ADDAG11999GA1031+004809089GA2051+030009039MA1102301999999REMMET003NSGEQDQ01+000000PRSWM2
0088601010999991992011007304+35733-005900FM-15+0021GMTT V0200801N00411030001CN0080001N1+00701+00601999999ADDAG11999GA1031+004809089GA2041+030009039MA1102301999999REMMET003NSGEQDQ01+000000PRSWM2
0088601010999991992011008004+35733-005900FM-15+0021GMTT V0200801N00101030001CN0080001N1+00701+00501999999ADDAG11999GA1031+004809089GA2031+030009039MA1102301999999REMMET003NSGEQDQ01+000000PRSWM2
0088601010999991992011008304+35733-005900FM-15+0021GMTT V0209991C00001030001CN0080001N1+00701+00501999999ADDAG11000GA1031+004809089GA2031+030009039MA1102301999999REMMET003NSGEQDQ01+000000PRSWM2
0168601010999991992011009004+35733-005900SY-MT+0021GMTT V0200601N00211090001CN0100001N1+00731+00601102301ADDAA106000091AG10000GA1021+004809089GA2031+030009039GF105991021021004501031021MA1102301999999MD1310051+9999MW1001REMSYN017333   82816 83360MET003NSGEQDQ01+000000PRSWM2
0088601010999991992011009304+35733-005900FM-15+0021GMTT V0200801N00211220001CN0112001N1+01702+00601999999ADDAG11999GA1021+004809089GA2031+030009039MA1102301999999REMMET003NSGEQDQ01+000000PRSWM2
0088601010999991992011010004+35733-005900FM-15+0021GMTT V0209991C00001220001CN0112001N1+01001+00801999999ADDAG11999GA1021+004809089GA2031+030009039MA1102401999999REMMET003NSGEQDQ01+000000PRSWM2
0088601010999991992011010304+35733-005900FM-15+0021GMTT V0203401N00211220001CN0112001N1+01001+00801999999ADDAG11999GA1021+004809089GA2031+030009039MA1102401999999REMMET003NSGEQDQ01+000000PRSWM2
0072601010999991992011011004+35733-005900FM-15+0021GMTT V0203401N00211004801CN0112001N1+01101+00901999999ADDAG11999GA1051+004809089MA1102401999999REMMET003NSGEQDQ01+000000PRSWM2
0070601010999991992011011304+35733-005900FM-15+0021GMTT V0203201N00311004801CN0112001N1+01101+00901999999ADDAG11000GA1051+004809089MA1102401999999REMMET001GEQDQ01+000000PRSWM2
0146601010999991992011012004+35733-005900SY-MT+0021GMTT V0203401N00311004801CN0100001N1+01341+00621102461ADDAA106000091AG10000GA1051+004809089GF106991051021004501031021MA1102401999999MD1010041+9999MW1001REMSYN011333   85816MET003NSGEQDQ01+000000PRSWM2
0075601010999991992011012304+35733-005900FM-15+0021GMTT V0203201N00411004801CN9999999N9+99999+99999999999ADDAG11999GA1051+004809089REMMET00513 NNEQDQ01+000002VOVAR Q02+000000PRSWM2
0072601010999991992011013004+35733-005900FM-15+0021GMTT V0203201N00411004801CN0112001N1+01501+00701999999ADDAG11999GA1051+004809089MA1102401999999REMMET003NSGEQDQ01+000000PRSWM2
0076601010999991992011013304+35733-005900FM-15+0021GMTT V0209991C00001006901CN0112001N1+01501+00701999999ADDAG11999GA1021+004809089GA2051+006909059MA1102301999999EQDQ01+000000PRSWM2
0076601010999991992011014004+35733-005900FM-15+0021GMTT V0209991V00151006901CN0112001N1+01601+00801999999ADDAG11999GA1021+004809089GA2051+006909059MA1102301999999EQDQ01+000000PRSWM2
0076601010999991992011014304+35733-005900FM-15+0021GMTT V0209991V00151006901CN0112001N1+01401+00601999999ADDAG12000GA1021+004809089GA2051+006909059MA1102301999999EQDQ01+000000PRSWM2
0159601010999991992011015004+35733-005900SY-MT+0021GMTT V0209991V00261006901CN0100001N1+01361+00331102241ADDAA106000091AG14000GA1021+004809089GA2051+006909059GF105991021081004501031021MA1102201999999MD1710221+9999MW1001REMSYN017333   82816 85623EQDQ01+000000PRSWM2
0088601010999991992011015304+35733-005900FM-15+0021GMTT V0203401N00511006901CN0112001N1+01401+00301999999ADDAG12999GA1021+004509089GA2051+006909059MA1102201999999REMMET003NSGEQDQ01+000000PRSWM2
0076601010999991992011016004+35733-005900FM-15+0021GMTT V0203401N00261006901CN0112001N1+01401+00401999999ADDAG12999GA1021+004809089GA2051+006909059MA1102301999999EQDQ01+000000PRSWM2
0076601010999991992011016304+35733-005900FM-15+0021GMTT V0209991V00151006901CN0112001N1+01401+00401999999ADDAG12999GA1021+004809089GA2041+006909059MA1102301999999EQDQ01+000000PRSWM2
0076601010999991992011017004+35733-005900FM-15+0021GMTT V0209991C00001006901CN0112001N1+01201+00501999999ADDAG12999GA1021+004809089GA2041+006909059MA1102301999999EQDQ01+000000PRSWM2
0076601010999991992011017304+35733-005900FM-15+0021GMTT V0202801N00261220001CN0112001N1+01201+00501999999ADDAG12000GA1011+004809089GA2031+006909059MA1102301999999EQDQ01+000000PRSWM2
0163601010999991992011018004+35733-005900SY-MT+0021GMTT V0202801N00261220001CN0150001N1+01051+00491102301ADDAA106000091AG14000GA1011+004809089GA2041+006909059GF104991041081004501031021KA1120M+01391MD1110061+9999MW1001REMSYN023333   10139 81816 84623EQDQ01+000000PRSWM2
0088601010999991992011018304+35733-005900FM-15+0021GMTT V0202801N00261220001CN0112001N1+01101+00501999999ADDAG11999GA1011+004809089GA2041+006909059MA1102301999999REMMET003NSGEQDQ01+000000PRSWM2
0088601010999991992011019004+35733-005900FM-15+0021GMTT V0203001N00261220001CN0112001N1+01101+00501999999ADDAG12999GA1011+004809089GA2041+006909059MA1102301999999REMMET003NSGEQDQ01+000000PRSWM2
0088601010999991992011019304+35733-005900FM-15+0021GMTT V0203001N00261220001CN0112001N1+01101+00501999999ADDAG12999GA1011+004809089GA2041+006909059MA1102301999999REMMET003NSGEQDQ01+000000PRSWM2
0072601010999991992011020004+35733-005900FM-15+0021GMTT V0203001N00361220001CN0112001N1+00701+00401999999ADDAG12999GA1011+004809089MA1102301999999REMMET003NSGEQDQ01+000000PRSWM2
0061601010999991992011021004+35733-005900FM-12+0021GMTT V0209991C00001220001CN0100001N9+00651+00591102371ADDAA106000091AG14000GF100991001001999999001001MD1210071+9999
0064601010999991992011022004+35733-005900FM-15+0021GMTT V0209991C00001999991CY0099001N1+00601+00401999999ADDAG12999MA1102301999999REMMET011CAVOK NOSIGEQDQ01+000000PRSWM2
0064601010999991992011023004+35733-005900FM-15+0021GMTT V0209991C00001999991CY0099001N1+00601+00401999999ADDAG12999MA1102301999999REMMET011CAVOK NOSIGEQDQ01+000000PRSWM2
0064601010999991992011023304+35733-005900FM-15+0021GMTT V0209991C00001999991CY0099001N1+00601+00501999999ADDAG11000MA1102301999999REMMET011CAVOK NOSIGEQDQ01+000000PRSWM2
0137601010999991992011100004+35733-005900SY-MT+0021GMTT V0209991C00001220001CN0100001N1+99999+00331102361ADDAA106000091AG14000GF100991001001999999001001MA1102301999999MD1310031+9999MW1001REMMET011CAVOK NOSIGEQDQ01+029683ATOT  Q02+000000PRSWM2
0056601010999991992011100304+35733-005900FM-15+0021GMTT V0209991C00001999991CY0099001N1+00501+99999999999ADDAG11999REMMET018CAVOK 031023 NOSIGEQDQ01+000000PRSWM2
0064601010999991992011101004+35733-005900FM-15+0021GMTT V0209991C00001999991CY0099001N1+00501+00301999999ADDAG11999MA1102301999999REMMET011CAVOK NOSIGEQDQ01+000000PRSWM2
0064601010999991992011101304+35733-005900FM-15+0021GMTT V0209991C00001999991CY0099001N1+00501+00301999999ADDAG11999MA1102301999999REMMET011CAVOK NOSIGEQDQ01+000000PRSWM2
0064601010999991992011102004+35733-005900FM-15+0021GMTT V0209991C00001999991CY0099001N1+00501+00401999999ADDAG11999MA1102301999999REMMET011CAVOK NOSIGEQDQ01+000000PRSWM2
0064601010999991992011102304+35733-005900FM-15+0021GMTT V0209991C00001999991CY0099001N1+00501+00301999999ADDAG12000MA1102301999999REMMET011CAVOK NOSIGEQDQ01+000000PRSWM2
0121601010999991992011103004+35733-005900SY-MT+0021GMTT V0209991C00001220001CN0100001N1+00511+00341102301ADDAA106000091AG14000GF100991001001999999001001MA1102301999999MD1810031+9999MW1001REMMET011CAVOK NOSIGEQDQ01+000000PRSWM2
0064601010999991992011103304+35733-005900FM-15+0021GMTT V0209991C00001999991CY0099001N1+00501+00401999999ADDAG12999MA1102301999999REMMET011CAVOK NOSIGEQDQ01+000000PRSWM2
0064601010999991992011104004+35733-005900FM-15+0021GMTT V0209991C00001999991CY0099001N1+00501+99999999999ADDAG12999MA1102201999999REMMET011CAVOK NOSIGEQDQ01+000000PRSWM2
0064601010999991992011105004+35733-005900FM-15+0021GMTT V0209991C00001999991CY0099001N1+00501+00401999999ADDAG12999MA1102201999999REMMET011CAVOK NOSIGEQDQ01+000000PRSWM2
0064601010999991992011105304+35733-005900FM-15+0021GMTT V0209991C00001999991CY0099001N1+00501+00401999999ADDAG12000MA1102201999999REMMET011CAVOK NOSIGEQDQ01+000000PRSWM2
0151601010999991992011106004+35733-005900SY-MT+0021GMTT V0209991C00001220001CN0100001N1+00321+00271102231ADDAA106000091AG14000GF100991001001999999001001KA1120N+00261MA1102201999999MD1710061+9999MW1001REMSYN011333   20026MET011CAVOK NOSIGEQDQ01+000000PRSWM2
0064601010999991992011106304+35733-005900FM-15+0021GMTT V0200601N00311999991CY0099001N1+00301+00301999999ADDAG12999MA1102201999999REMMET011CAVOK NOSIGEQDQ01+000000PRSWM2
0074601010999991992011107304+35733-005900FM-15+0021GMTT V0200601N00211220001CN0112001N1+00401+00401999999ADDAG12999GA1031+004809059MA1102201999999REMMET005NOSIGEQDQ01+000000PRSWM2
0076601010999991992011108004+35733-005900FM-15+0021GMTT V0200601N00311220001CN0112001N1+00401+00301999999ADDAG12999GA1011+004809089GA2031+006909059MA1102201999999EQDQ01+000000PRSWM2
0076601010999991992011108304+35733-005900FM-15+0021GMTT V0200601N00311006901CN0112001N1+00401+00301999999ADDAG12000GA1021+004809089GA2041+006909059MA1102201999999EQDQ01+000000PRSWM2
0168601010999991992011109004+35733-005900SY-MT+0021GMTT V0200801N00311006901CN0100001N1+00741+00471102361ADDAA106000091AG14000GA1021+004509089GA2041+006909059GF105991051081004501001001MA1102301999999MD1310081+9999MW1001REMSYN017333   82815 84623MET003NSGEQDQ01+000000PRSWM2
0076601010999991992011109304+35733-005900FM-15+0021GMTT V0200801N00261006901CN0112001N1+00701+00501999999ADDAG12999GA1021+004509089GA2041+006909059MA1102301999999EQDQ01+000000PRSWM2
0076601010999991992011110004+35733-005900FM-15+0021GMTT V0200601N00211006901CN0112001N1+01001+00401999999ADDAG12999GA1021+004509089GA2041+006909059MA1102401999999EQDQ01+000000PRSWM2
0088601010999991992011110304+35733-005900FM-15+0021GMTT V0200601N00211006901CN0112001N1+01001+00401999999ADDAG12999GA1021+004509089GA2041+006909059MA1102401999999REMMET003NSGEQDQ01+000000PRSWM2
0088601010999991992011111004+35733-005900FM-15+0021GMTT V0209991V00311006901CN0112001N1+01201+00601999999ADDAG12999GA1021+004509089GA2041+006909059MA1102401999999REMMET003NSGEQDQ01+000000PRSWM2
0088601010999991992011111304+35733-005900FM-15+0021GMTT V0209991V00311006901CN0112001N1+01201+00601999999ADDAG12000GA1021+003309089GA2051+006909059MA1102401999999REMMET003NSGEQDQ01+000000PRSWM2
0159601010999991992011112004+35733-005900SY-MT+0021GMTT V0201801N00211006901CN0100001N1+01461+00731102351ADDAA106000091AG14000GA1021+004509089GA2051+006909059GF106991051081004501031001MA1102301999999MD1010051+9999MW1001REMSYN017333   82815 85623EQDQ01+000000PRSWM2
0076601010999991992011112304+35733-005900FM-15+0021GMTT V0201801N00311006901CN0112001N1+01501+00701999999ADDAG12999GA1021+004509089GA2051+006909059MA1102301999999EQDQ01+000000PRSWM2
0076601010999991992011113004+35733-005900FM-15+0021GMTT V0201801N00311006901CN0112001N1+01501+00801999999ADDAG12999GA1021+004509089GA2051+006909059MA1102201999999EQDQ01+000000PRSWM2
0076601010999991992011113304+35733-005900FM-15+0021GMTT V0201801N00311007201CN0112001N1+01501+00801999999ADDAG12999GA1021+004509089GA2051+007209059MA1102201999999EQDQ01+000000PRSWM2
0060601010999991992011114004+35733-005900FM-15+0021GMTT V0201801N00151004801CN0112001N1+01501+00801999999ADDAG12999GA1061+004809089MA1102201999999EQDQ01+000000PRSWM2
0060601010999991992011114304+35733-005900FM-15+0021GMTT V0209999999999004801CN0112001N1+01501+00801999999ADDAG11000GA1061+004809089MA1102201999999EQDQ01+000000PRSWM2
0138601010999991992011115004+35733-005900SY-MT+0021GMTT V0201801N00311004801CN0100001N1+01471+00791102141ADDAA106000091AG14000GA1061+004809089GF107991061021004501081021MD1610211+9999MW1001REMSYN011333   86816EQDQ01+029853APOA  Q02+000000PRSWM2
0060601010999991992011116004+35733-005900FM-15+0021GMTT V0202001N00211004801CN0112001N1+01501+00801999999ADDAG12999GA1061+004809089MA1102101999999EQDQ01+000000PRSWM2
0047601010999991992011116304+35733-005900FM-15+0021GMTT V0202001N00211004801CN0112001N1+01501+00801999999ADDAG12999GA1061+004809089MA1102101999999MW1251
0088601010999991992011117004+35733-005900FM-15+0021GMTT V0200401N00211004801CN0080001N1+01401+01001999999ADDAG12999GA1021+003009079GA2061+004809089REMMET018102 EEE 1021     ?EQDQ01+000000PRSWM2
0076601010999991992011117304+35733-005900FM-15+0021GMTT V0209991C00001004801CN0080001N1+01401+01001999999ADDAG12000GA1021+003009079GA2061+004809089MA1102101999999EQDQ01+000000PRSWM2
0160601010999991992011118004+35733-005900FM-12+0021GMTT V0201601N00211004801CN0080001N9+01121+00991102231ADDAA199999929AG10001AY181061AY221061GA1021+003009079GA2061+004809089GF107991061021004501081999KA1120M+01541MD1310091+9999MW1021REMSYN023333   10154 82710 86816
0076601010999991992011118304+35733-005900FM-15+0021GMTT V0209999999999004801CN0080001N1+01101+01001999999ADDAG12999GA1021+003009079GA2061+004809089MA1102201999999EQDQ01+000000PRSWM2
0076601010999991992011119004+35733-005900FM-15+0021GMTT V0200601N00211004801CN0080001N1+01101+01001999999ADDAG12999GA1021+003009079GA2061+004809089MA1102201999999EQDQ01+000000PRSWM2
0076601010999991992011119304+35733-005900FM-15+0021GMTT V0200601N00311004801CN0080001N1+01101+01001999999ADDAG12999GA1021+003009079GA2061+004809089MA1102201999999EQDQ01+000000PRSWM2
0076601010999991992011120004+35733-005900FM-15+0021GMTT V0200601N00211004801CN0080001N1+01001+00901999999ADDAG12999GA1021+003009079GA2041+004809089MA1102201999999EQDQ01+000000PRSWM2
0159601010999991992011121004+35733-005900SY-MT+0021GMTT V0209991C00001006001CN0100001N1+00851+00791102301ADDAA106000091AG14000GA1031+004809089GA2061+006009059GF108991061081004501081999MA1102301999999MD1210071+9999MW1001REMSYN017333   83816 86620EQDQ01+000000PRSWM2
0076601010999991992011121304+35733-005900FM-15+0021GMTT V0209991C00001006001CN0112001N1+00901+00801999999ADDAG12999GA1031+004809089GA2061+006009059MA1102301999999EQDQ01+000000PRSWM2
0076601010999991992011122004+35733-005900FM-15+0021GMTT V0209991C00001006001CN0112001N1+00901+00801999999ADDAG12999GA1031+004809089GA2061+006009059MA1102301999999EQDQ01+000000PRSWM2
0092601010999991992011122304+35733-005900FM-15+0021GMTT V0209991V99999006001CN0112001N1+00901+00801999999ADDAG12999GA1031+004809089GA2051+006009059MA1102301999999EQDQ01+005103WOSPD Q02+000000PRSWM2
0076601010999991992011123304+35733-005900FM-15+0021GMTT V0209991C00001006001CN0112001N1+00901+00701999999ADDAG11000GA1021+004809089GA2031+006009059MA1102301999999EQDQ01+000000PRSWM2
0143601010999991992011200004+35733-005900SY-MT+0021GMTT V0209991C00001220001CN0100001N1+00611+00521102321ADDAA106000091AG10000GA1021+004809089GF104991041081004501001001MA1102301999999MD1310011+9999MW1001REMSYN017333   82816 83620EQDQ01+000000PRSWM2
0076601010999991992011200304+35733-005900FM-15+0021GMTT V0209991C00001006001CN0112001N1+00601+00501999999ADDAG11999GA1021+003309089GA2031+006009059MA1102301999999EQDQ01+000000PRSWM2
0076601010999991992011202004+35733-005900FM-15+0021GMTT V0200601N00151006001CN0112001N1+00701+00501999999ADDAG11999GA1021+003309089GA2031+006009059MA1102301999999EQDQ01+000000PRSWM2
0076601010999991992011202304+35733-005900FM-15+0021GMTT V0200601N00151220001CN0112001N1+00701+00501999999ADDAG11000GA1011+004809089GA2031+006009059MA1102301999999EQDQ01+000000PRSWM2
0159601010999991992011203004+35733-005900SY-MT+0021GMTT V0209991C00001220001CN0100001N1+00721+00631102251ADDAA106000091AG14000GA1011+004809089GA2031+006009059GF103991031081004501001001MA1102201999999MD1710071+9999MW1001REMSYN017333   81816 83620EQDQ01+000000PRSWM2
0076601010999991992011203304+35733-005900FM-15+0021GMTT V0209991C00001220001CN0112001N1+00701+00601999999ADDAG12999GA1011+004809089GA2031+006009059MA1102201999999EQDQ01+000000PRSWM2
0073601010999991992011204004+35733-005900FM-15+0021GMTT V0200801N00411006001CN0112001N1+00801+00701999999ADDAG12999GA1021+004809089GA2041+006009059MA1102201999999MW1251REMMET001G
0088601010999991992011205004+35733-005900FM-15+0021GMTT V0200801N00261006001CN0112001N1+00901+00801999999ADDAG12999GA1021+004809089GA2041+006009059MA1102201999999REMMET003NSGEQDQ01+000000PRSWM2
0088601010999991992011205304+35733-005900FM-15+0021GMTT V0200601N00361006001CN0112001N1+00901+00801999999ADDAG12000GA1021+004809089GA2041+006009059MA1102201999999REMMET003NSGEQDQ01+000000PRSWM2
0203601010999991992011206004+35733-005900SY-MT+0021GMTT V0201001N00411006001CN0100001N1+00871+00761102181ADDAA124000191AG10001AY181061AY211061GA1021+004809089GA2051+006009059GF106991061081004501001001KA1120N+00521MA1102101999999MD1610061+9999MW1031REMSYN023333   20052 82816 85620MET003NSGEQDQ01+000000PRSWM2
0088601010999991992011206304+35733-005900FM-15+0021GMTT V0201001N00411006001CN0112001N1+00901+00801999999ADDAG12999GA1021+004809089GA2051+006009059MA1102101999999REMMET003NSGEQDQ01+000000PRSWM2
0088601010999991992011207004+35733-005900FM-15+0021GMTT V0201201N00411006001CN0112001N1+01001+00901999999ADDAG12999GA1021+004809089GA2051+006009059MA1102101999999REMMET003NSGEQDQ01+000000PRSWM2
0106601010999991992011207304+35733-005900FM-15+0021GMTT V0201201N00411006001CN0112001N1+01001+00901999999ADDAG12999GA1021+004809089GA2051+006009059REMMET020E E E 10/09 1021 NSGEQDQ01+029853APOA  Q02+000000PRSWM2
0076601010999991992011208004+35733-005900FM-15+0021GMTT V0201801N00411006001CN0112001N1+01001+00901999999ADDAG12999GA1021+004809089GA2051+006009059MA1102101999999EQDQ01+000000PRSWM2
0063601010999991992011208304+35733-005900FM-15+0021GMTT V0201801N00411006001CN0080001N1+01001+00901999999ADDAG11000GA1031+003309089GA2061+006009059MA1102101999999MW1801
0145601010999991992011209004+35733-005900SY-MT+0021GMTT V0201401N00311006001CN0080001N1+01061+00811102271ADDAG12001AY181031AY221031GA1031+004809089GA2061+006009059GF107991071081004501999999MA1102201999999MD1310091+9999MW1801REMSYN017333   83816 86616
0063601010999991992011209304+35733-005900FM-15+0021GMTT V0202001N00151006001CN0080001N1+01101+00801999999ADDAG12999GA1031+004809089GA2061+006009059MA1102201999999MW1801
0076601010999991992011211004+35733-005900FM-15+0021GMTT V0209991C00001006001CN0080001N1+01101+00901999999ADDAG12999GA1031+004809089GA2061+006009059MA1102301999999EQDQ01+000000PRSWM2
0076601010999991992011212304+35733-005900FM-15+0021GMTT V0202001N00311006001CN0080001N1+01201+01101999999ADDAG12999GA1031+004809089GA2061+006009059MA1102301999999EQDQ01+000000PRSWM2
0076601010999991992011213004+35733-005900FM-15+0021GMTT V0202001N00311006001CN0080001N1+01201+01101999999ADDAG12999GA1031+004809089GA2061+006009059MA1102201999999EQDQ01+000000PRSWM2
0093601010999991992011214004+35733-005900FM-15+0021GMTT V0202001N00621004801CN0080001N1+99999+99999999999ADDAG12999GA1021+003009089GA2061+004809089REMMET00511022MET012RJCT00  0000EQDQ01+000000PRSWM2
0076601010999991992011214304+35733-005900FM-15+0021GMTT V0202001N00511004801CN0080001N1+01301+01101999999ADDAG12000GA1021+003009089GA2061+004809089MA1102201999999EQDQ01+000000PRSWM2
0153601010999991992011215004+35733-005900SY-MT+0021GMTT V0201801N00511004801CN0080001N1+01481+00931999999ADDAA106000091AG14000GA1021+003009089GA2061+004809089GF106991061021004501001001MA1102101999999MD1810201+9999REMSYN017333   82810 86816EQDQ01+000000PRSWM2
0076601010999991992011215304+35733-005900FM-15+0021GMTT V0201801N00621004801CN0080001N1+01501+00901999999ADDAG12999GA1021+003009089GA2061+004809089MA1102101999999EQDQ01+000000PRSWM2
0076601010999991992011216004+35733-005900FM-15+0021GMTT V0202001N00511004801CN0080001N1+99999+99999999999ADDAG12999GA1021+003309089GA2061+004809089MA1102101999999EQDQ01+000000PRSWM2
0075601010999991992011216304+35733-005900FM-15+0021GMTT V0201801N005119999999N0080001N1+01501+01001999999ADDAG12999GA1031+003009089GA2061+999999089REMMET00510211EQDQ01+000000PRSWM2
0075601010999991992011217004+35733-005900FM-15+0021GMTT V0202201N00511004801CN0080001N1+01301+01101999999ADDAG12999GA1021+003009089GA2071+004809089REMMET00511021EQDQ01+000000PRSWM2
0084601010999991992011217304+35733-005900FM-15+0021GMTT V0203001N005119999999N0080001N1+99999+99999999999ADDAG12000GA1021+003009089GA2071+999999089REMMET014Y QEXQQ QQPWQVEQDQ01+000000PRSWM2
0174601010999991992011218004+35733-005900SY-MT+0021GMTT V0203001N00511004801CN0080001N1+01341+01081102141ADDAA199006091AG10000GA1021+003009089GA2071+004809089GF107991071081004501999999KA1120M+01611MD1610011+9999MW1001REMSYN023333   10161 82810 87816MET00510211EQDQ01+000000PRSWM2
0076601010999991992011220304+35733-005900FM-15+0021GMTT V0209991C00001004801CN0080001N1+01201+00101999999ADDAG12000GA1021+003009089GA2051+004809089MA1102101999999EQDQ01+000000PRSWM2
0159601010999991992011221004+35733-005900SY-MT+0021GMTT V0200801N00211004801CN0080001N1+01141+01012102221ADDAA106000091AG14000GA1021+003009089GA2041+004809089GF105991051081004501001001MA1102201999999MD1310081+9999MW1001REMSYN017333   82810 84816EQDQ01+000000PRSWM2
0076601010999991992011221304+35733-005900FM-15+0021GMTT V0200801N002119999999N0080001N1+01101+01001999999ADDAG12999GA1021+003009089GA2041+999999089MA1102201999999EQDQ01+000000PRSWM2
0076601010999991992011222004+35733-005900FM-15+0021GMTT V0209991C00001004801CN0080001N1+01101+00801999999ADDAG11999GA1021+003909089GA2041+004809059MA1102201999999EQDQ01+000000PRSWM2
0076601010999991992011222304+35733-005900FM-15+0021GMTT V0209991C00001004801CN0080001N1+01101+00801999999ADDAG11999GA1021+003909089GA2041+004809059MA1102201999999EQDQ01+000000PRSWM2
0156601010999991992011223004+35733-005900SY-MT+0021GMTT V0209991C00001009001CN0080001N1+01341+01081102101ADDAA199006091AG13999GA1021+003009089GF107991071081004501999999KA1120M+01611MA1102201999999MD1610011+9999REMSYN023333   10161 82810 87816EQDQ01+000000PRSWM2
0060601010999991992011223304+35733-005900FM-15+0021GMTT V0209991C00001004801CN0080001N1+01001+99999999999ADDAG12000GA1051+004809089MA1102201999999EQDQ01+000000PRSWM2
0097601010999991992011300004+35733-005900FM-12+0021GMTT V0200601N00311220001CN0080001N9+00941+00861102201ADDAA106000091AG14000GA1021+004809089GF103991031021004501001001MD1810021+9999REMSYN011333   82816
0060601010999991992011300304+35733-005900FM-15+0021GMTT V0209991C00001220001CN0080001N1+00901+00801999999ADDAG11999GA1031+004809089MA1102201999999EQDQ01+000000PRSWM2
0060601010999991992011301004+35733-005900FM-15+0021GMTT V0200401N00211220001CN0080001N1+00901+00801999999ADDAG11999GA1031+004809089MA1102101999999EQDQ01+000000PRSWM2
0060601010999991992011301304+35733-005900FM-15+0021GMTT V0200401N00211220001CN0080001N1+00901+00801999999ADDAG11999GA1031+004809089MA1102101999999EQDQ01+000000PRSWM2
0060601010999991992011302004+35733-005900FM-15+0021GMTT V0200401N00211220001CN0080001N1+01001+00801999999ADDAG11999GA1031+004809089MA1102101999999EQDQ01+000000PRSWM2
0060601010999991992011302304+35733-005900FM-15+0021GMTT V0200401N00211220001CN0080001N1+01001+00801999999ADDAG11000GA1031+004809089MA1102101999999EQDQ01+000000PRSWM2
0155601010999991992011303004+35733-005900SY-MT+0021GMTT V0200401N00151220001CN0080001N1+00871+00791102081ADDAA106000091AG10000GA1031+004809089GF103991031021004501001001MA1102001999999MD1710121+9999MW1001REMSYN011333   83816SYN012RJCT40  2788EQDQ01+000000PRSWM2
0060601010999991992011303304+35733-005900FM-15+0021GMTT V0200401N00151220001CN0080001N1+00901+00801999999ADDAG11999GA1031+004809089MA1102001999999EQDQ01+000000PRSWM2
0060601010999991992011304004+35733-005900FM-15+0021GMTT V0200401N00151220001CN0080001N1+00801+00801999999ADDAG11999GA1031+004809089MA1102001999999EQDQ01+000000PRSWM2
0060601010999991992011304304+35733-005900FM-15+0021GMTT V0200401N00151220001CN0080001N1+00801+00801999999ADDAG11999GA1031+004809089MA1102001999999EQDQ01+000000PRSWM2
0060601010999991992011305004+35733-005900FM-15+0021GMTT V0200401N00211220001CN0080001N1+00901+00701999999ADDAG11999GA1031+004809089MA1102001999999EQDQ01+000000PRSWM2
0060601010999991992011305304+35733-005900FM-15+0021GMTT V0200401N00211220001CN0080001N1+00901+00701999999ADDAG12000GA1031+004809089MA1102001999999EQDQ01+000000PRSWM2
