0156601010999991982010100004+35717-005900SY-MT+0015GMTT V0203001N00771220001CN0112001N1+01301+01101101711ADDAA106000391AG12005AY181061GA1021+003909089GA2011+006009099GF103991031031004501001001MA1101691999999MD1110281+9999MW1131REMMET006NOSIG?EQDQ01+000000PRSWM2
0091601010999991982010101004+35717-005900FM-15+0015GMTT V0202601N00611220001CN0112001N1+01301+01101999999ADDAG11999GA1031+003909089GA2011+006009099MA1101691999999REMMET006NOSIG?EQDQ01+000000PRSWM2
0089601010999991982010102004+35717-005900FM-15+0015GMTT V0203001N00561220001CN0112001N1+01301+01001999999ADDAG11999GA1031+003909089GA2011+006009099MA1101691999999REMMET004NSG?EQDQ01+000000PRSWM2
0130601010999991982010103004+35717-005900SY-MT+0015GMTT V0203001N00511220001CN0112001N1+01301+01101101851ADDAG12000GA1021+003909089GF102991021021004501001001MA1101801999999MD1110151+9999REMSYN011333   83813MET004NSG?EQDQ01+000000PRSWM2
0089601010999991982010104004+35717-005900FM-15+0015GMTT V0203001N00611004801CN0112001N1+01301+01001999999ADDAG12999GA1021+003909089GA2041+004809059MA1101901999999REMMET004NSG?EQDQ01+000000PRSWM2
0089601010999991982010105004+35717-005900FM-15+0015GMTT V0203001N00561004801CN0112001N1+01301+01001999999ADDAG12999GA1021+003909089GA2031+004809059MA1101901999999REMMET004NSG?EQDQ01+000000PRSWM2
0201601010999991982010106004+35717-005900SY-MT+0015GMTT V0202001N00251004801CN0112001N1+01301+01101102041ADDAA124030091AG12003AY181061GA1041+003909089GA2061+004809059GF107991071081004501999999KA1120N+01251MA1102001999999MD1110181+9999MW1251REMSYN047333   20125 84813 86616 555   00085 10156 33019MET004NSG?
0073601010999991982010107004+35717-005900FM-15+0015GMTT V0202601N00561004801CN0112001N1+99999+99999999999ADDAG12999GA1051+004809059MA1102001999999REMMET004NSG?EQDQ01+000000PRSWM2
0060601010999991982010108004+35717-005900FM-15+0015GMTT V0209991C00001220001CN0112001N1+01401+01101999999ADDAG12999GA1031+004809089MA1102101999999EQDQ01+000000PRSWM2
0112601010999991982010109004+35717-005900SY-MT+0015GMTT V0201801N00511220001CN0112001N1+01201+01001102311ADDAG12000GA1031+003909089GF103991031021004501001001MA1102301999999MD1310271+9999REMSYN003333EQDQ01+000000PRSWM2
0075601010999991982010110004+35717-005900FM-15+0015GMTT V0201801N00511220001CN0112001N1+01401+01001999999ADDAG12999GA1031+003909089MA1102301999999REMMET006NOSIG?EQDQ01+000000PRSWM2
0060601010999991982010111004+35717-005900FM-15+0015GMTT V0202001N00511220001CN0112001N1+01501+01101999999ADDAG12999GA1021+003909089MA1102401999999EQDQ01+000000PRSWM2
0169601010999991982010112004+35717-005900SY-MT+0015GMTT V0202001N00511220001CN0112001N1+01701+01201102461ADDAA106000391AG12003AY181061GA1031+003909089GF103991021021004501001021MA1102401999999MD1310151+9999MW1031REMSYN023333   82813 555   00075MET006NOSIG?EQDQ01+000000PRSWM2
0075601010999991982010113004+35717-005900FM-15+0015GMTT V0202401N00511220001CN0112001N1+01801+01301999999ADDAG12999GA1021+003909089MA1102301999999REMMET006NOSIG?EQDQ01+000000PRSWM2
0075601010999991982010114004+35717-005900FM-15+0015GMTT V0202401N00411220001CN0112001N1+01901+01301999999ADDAG12999GA1031+003909089MA1102301999999REMMET006NOSIG?EQDQ01+000000PRSWM2
0132601010999991982010115004+35717-005900SY-MT+0015GMTT V0202401N00411220001CN0112001N1+01701+01101102301ADDAG12000GA1031+004809089GF104991031021004501001021MA1102301999999MD1710161+9999REMSYN011333   83816MET006NOSIG?EQDQ01+000000PRSWM2
0057601010999991982010116004+35717-005900FM-15+0015GMTT V0202401N004119999999N0112001N1+01701+01101999999ADDAG12999MA1102301999999REMMET004NSG?EQDQ01+000000PRSWM2
0091601010999991982010117004+35717-005900FM-15+0015GMTT V0202601N00201069001CN0112001N1+01701+01201999999ADDAG12999GA1031+004809089GA2031+069009009MA1102301999999REMMET006NOSIG?EQDQ01+000000PRSWM2
0168601010999991982010118004+35717-005900SY-MT+0015GMTT V0202401N00151004801CN0112001N1+01501+01201102421ADDAA199000391AG12000GA1051+004809089GF105991051021004501001001KA1120M+01781MA1102401999999MD1310121+9999REMSYN035333   10178 85816 555   00081 20108EQDQ01+000000PRSWM2
0060601010999991982010119004+35717-005900FM-15+0015GMTT V0209991C00001004801CN0112001N1+01401+01201999999ADDAG12999GA1051+004809089MA1102401999999EQDQ01+000000PRSWM2
0060601010999991982010120004+35717-005900FM-15+0015GMTT V0209991C00001004801CN0112001N1+01401+01201999999ADDAG12999GA1051+004809089MA1102401999999EQDQ01+000000PRSWM2
0065601010999991982010121004+35717-005900FM-15+0015GMTT V0200401N00201999991CY0099001N1+01201+01001999999ADDAG12000MA1102401999999REMMET012CAVOK NOSIG?EQDQ01+000000PRSWM2
0065601010999991982010122004+35717-005900FM-15+0015GMTT V0209991C00001999991CY0099001N1+01101+01001999999ADDAG12999MA1102401999999REMMET012CAVOK NOSIG?EQDQ01+000000PRSWM2
0065601010999991982010123004+35717-005900FM-15+0015GMTT V0209991C00001999991CY0099001N1+01101+01001999999ADDAG12999MA1102401999999REMMET012CAVOK NOSIG?EQDQ01+000000PRSWM2
0097601010999991982010200004+35717-005900SY-MT+0015GMTT V0209991C00001220001CN0150001N1+01001+00841999999ADDAG12000GF100991001001999999001001MA1102401999999MW1001REMMET012CAVOK NOSIG?EQDQ01+000000PRSWM2
0065601010999991982010201004+35717-005900FM-15+0015GMTT V0209991C00001999991CY0099001N1+01001+00801999999ADDAG11999MA1102401999999REMMET012CAVOK NOSIG?EQDQ01+000000PRSWM2
0065601010999991982010202004+35717-005900FM-15+0015GMTT V0209991C00001999991CY0099001N1+00901+00801999999ADDAG11999MA1102301999999REMMET012CAVOK NOSIG?EQDQ01+000000PRSWM2
0111601010999991982010203004+35717-005900SY-MT+0015GMTT V0209991C00001220001CN0100001N1+00841+00751102321ADDAG12000GF100991001001999999001001MA1102301999999MD1710141+9999MW1001REMMET012CAVOK NOSIG?EQDQ01+000000PRSWM2
0065601010999991982010204004+35717-005900FM-15+0015GMTT V0209991C00001999991CY0099001N1+00801+00701999999ADDAG11999MA1102301999999REMMET012CAVOK NOSIG?EQDQ01+000000PRSWM2
0065601010999991982010205004+35717-005900FM-15+0015GMTT V0209991C00001999991CY0099001N1+00801+00701999999ADDAG12999MA1102201999999REMMET012CAVOK NOSIG?EQDQ01+000000PRSWM2
0105601010999991982010206004+35717-005900SY-MT+0015GMTT V0209991C00001220001CN0099001N1+00701+00601102321ADDAG12000GF100991001001999999001001MA1102101999999MD1710141+9999REMMET012CAVOK NOSIG?EQDQ01+000000PRSWM2
0065601010999991982010207004+35717-005900FM-15+0015GMTT V0209991C00001999991CY0099001N1+00701+00601999999ADDAG12999MA1102101999999REMMET012CAVOK NOSIG?EQDQ01+000000PRSWM2
0065601010999991982010208004+35717-005900FM-15+0015GMTT V0201001N00511999991CY0099001N1+01001+00701999999ADDAG12999MA1102101999999REMMET012CAVOK NOSIG?EQDQ01+000000PRSWM2
0138601010999991982010209004+35717-005900SY-MT+0015GMTT V0201001N00701220001CN0150001N1+01111+00791102101ADDAG12000GA1021+069009009GF102991001001999999001021MA1102101999999MD1610021+9999REMSYN011333   82073MET012CAVOK NOSIG?EQDQ01+000000PRSWM2
0063601010999991982010210004+35717-005900FM-15+0015GMTT V0201001N00511999991CY0099001N1+01301+00901999999ADDAG12999MA1102101999999REMMET010CAVOK NSG?EQDQ01+000000PRSWM2
0065601010999991982010211004+35717-005900FM-15+0015GMTT V0201201N00721999991CY0099001N1+01601+01101999999ADDAG12999MA1102101999999REMMET012CAVOK NOSIG?EQDQ01+000000PRSWM2
0135601010999991982010212004+35717-005900SY-MT+0015GMTT V0201201N00821220001CN0099001N1+01701+01001102151ADDAG12000GA1031+060009009GF104991001001999999001021MA1102101999999MD1010051+9999REMSYN015333   83070 555MET005CAVOKEQDQ01+000000PRSWM2
0058601010999991982010213004+35717-005900FM-15+0015GMTT V0201201N00511999991CY0099001N1+01701+01001999999ADDAG12999MA1102101999999REMMET005CAVOKEQDQ01+000000PRSWM2
0063601010999991982010214004+35717-005900FM-15+0015GMTT V0201201N00511999991CY0099001N1+01701+01001999999ADDAG12999MA1102001999999REMMET010CAVOK NSG?EQDQ01+000000PRSWM2
0132601010999991982010215004+35717-005900SY-MT+0015GMTT V0201201N00901090001CN0150001N1+01801+00951102031ADDAG12000GA1061+999999079GF106991001001999999001021MD1610121+9999MW1001REMSYN011333   8670/MET015CAVOK 102/ NSG?EQDQ01+000000PRSWM2
0063601010999991982010216004+35717-005900FM-15+0015GMTT V0201201N00821999991CY0099001N1+01701+01001999999ADDAG12999MA1102001999999REMMET010CAVOK NSG?EQDQ01+000000PRSWM2
0063601010999991982010217004+35717-005900FM-15+0015GMTT V0201001N00821999991CY0099001N1+01601+01001999999ADDAG12999MA1102001999999REMMET010CAVOK NSG?EQDQ01+000000PRSWM2
0100601010999991982010218004+35717-005900FM-12+0015GMTT V0201001N00601220001CN0100001N9+01351+00991102041ADDAG12000GF104991001001999999001021KA1120M+01861MD1310011+9999OA150602831REMSYN017333   10186 55555
0065601010999991982010219004+35717-005900FM-15+0015GMTT V0201001N00611999991CY0099001N1+01301+00901999999ADDAG12999MA1102101999999REMMET012CAVOK NOSIG?EQDQ01+000000PRSWM2
0065601010999991982010220004+35717-005900FM-15+0015GMTT V0201001N00511999991CY0099001N1+01301+00901999999ADDAG12999MA1102101999999REMMET012CAVOK NOSIG?EQDQ01+000000PRSWM2
0142601010999991982010221004+35717-005900SY-MT+0015GMTT V0201001N00501220001CN0100001N1+01201+00911102201ADDAG12000GA1021+069009009GF102991001001999999001021MA1102201999999MD1210161+9999MW1001REMSYN011333   82073MET010CAVOK NSG?EQDQ01+000000PRSWM2
0063601010999991982010222004+35717-005900FM-15+0015GMTT V0201001N00511999991CY0099001N1+01101+01001999999ADDAG12999MA1102201999999REMMET010CAVOK NSG?EQDQ01+000000PRSWM2
0063601010999991982010223004+35717-005900FM-15+0015GMTT V0201001N00511999991CY0099001N1+01201+01001999999ADDAG12999MA1102201999999REMMET010CAVOK NSG?EQDQ01+000000PRSWM2
0136601010999991982010300004+35717-005900SY-MT+0015GMTT V0201001N00511220001CN0099001N1+01101+00901102201ADDAG12000GA1021+069009009GF102991001001999999001021MA1102201999999MD1010001+9999REMSYN011333   82073MET010CAVOK NSG?EQDQ01+000000PRSWM2
0063601010999991982010301004+35717-005900FM-15+0015GMTT V0201001N00611999991CY0099001N1+01101+00901999999ADDAG11999MA1102101999999REMMET010CAVOK NSG?EQDQ01+000000PRSWM2
0063601010999991982010302004+35717-005900FM-15+0015GMTT V0201001N00721999991CY0099001N1+01001+00801999999ADDAG11999MA1102101999999REMMET010CAVOK NSG?EQDQ01+000000PRSWM2
0136601010999991982010303004+35717-005900SY-MT+0015GMTT V0201001N00611220001CN0099001N1+01001+00801102151ADDAG12000GA1021+069009009GF102991001001999999001021MA1102101999999MD1610051+9999REMSYN011333   82073MET010CAVOK NSG?EQDQ01+000000PRSWM2
0065601010999991982010304004+35717-005900FM-15+0015GMTT V0201001N00511999991CY0099001N1+01001+00801999999ADDAG11999MA1102101999999REMMET012CAVOK NOSIG?EQDQ01+000000PRSWM2
0065601010999991982010305004+35717-005900FM-15+0015GMTT V0201001N00611999991CY0099001N1+01001+00801999999ADDAG11999MA1102101999999REMMET012CAVOK NOSIG?EQDQ01+000000PRSWM2
0065601010999991982010306004+35717-005900FM-15+0015GMTT V0201001N00611999991CY0099001N1+01101+00901999999ADDAG11000MA1102001999999REMMET012CAVOK NOSIG?EQDQ01+000000PRSWM2
0065601010999991982010307004+35717-005900FM-15+0015GMTT V0201001N00511999991CY0099001N1+01101+00901999999ADDAG11999MA1102001999999REMMET012CAVOK NOSIG?EQDQ01+000000PRSWM2
0065601010999991982010308004+35717-005900FM-15+0015GMTT V0201001N00511999991CY0099001N1+01001+00801999999ADDAG11999MA1102101999999REMMET012CAVOK NOSIG?EQDQ01+000000PRSWM2
0131601010999991982010309004+35717-005900SY-MT+0015GMTT V0201001N00721220001CN0099001N1+01201+01001102221ADDAG12000GA1021+069009009GF102991001001999999001021MA1102201999999MD1310161+9999REMSYN011333   82073MET005CAVOKEQDQ01+000000PRSWM2
0058601010999991982010310004+35717-005900FM-15+0015GMTT V0201001N00821999991CY0099001N1+01401+01101999999ADDAG12999MA1102201999999REMMET005CAVOKEQDQ01+000000PRSWM2
0058601010999991982010311004+35717-005900FM-15+0015GMTT V0201201N00821999991CY0099001N1+01401+01101999999ADDAG12999MA1102201999999REMMET005CAVOKEQDQ01+000000PRSWM2
0143601010999991982010312004+35717-005900SY-MT+0015GMTT V0201001N00821220001CN0099001N1+01801+01101102221ADDAG12000GA1041+069009009GF104991001001999999001021MA1102201999999MD1010001+9999REMSYN023333   84073 555   00064MET005CAVOKEQDQ01+000000PRSWM2
0058601010999991982010313004+35717-005900FM-15+0015GMTT V0201001N00821999991CY0099001N1+01801+01101999999ADDAG12999MA1102201999999REMMET005CAVOKEQDQ01+000000PRSWM2
0063601010999991982010314004+35717-005900FM-15+0015GMTT V0201201N00921999991CY0099001N1+01801+01101999999ADDAG12999MA1102101999999REMMET010CAVOK NSG?EQDQ01+000000PRSWM2
0136601010999991982010315004+35717-005900SY-MT+0015GMTT V0201201N00771220001CN0099001N1+01801+01101102141ADDAG12000GA1041+069009009GF104991001001999999001021MA1102101999999MD1610081+9999REMSYN011333   84073MET010CAVOK NSG?EQDQ01+000000PRSWM2
0063601010999991982010316004+35717-005900FM-15+0015GMTT V0201201N00511999991CY0099001N1+01801+01101999999ADDAG12999MA1102101999999REMMET010CAVOK NSG?EQDQ01+000000PRSWM2
0065601010999991982010317004+35717-005900FM-15+0015GMTT V0201201N00411999991CY0099001N1+01701+01201999999ADDAG12999MA1102101999999REMMET012CAVOK NOSIG?EQDQ01+000000PRSWM2
0065601010999991982010318004+35717-005900FM-15+0015GMTT V0201001N00151999991CY0099001N1+01601+01201999999ADDAG12000MA1102201999999REMMET012CAVOK NOSIG?EQDQ01+000000PRSWM2
0065601010999991982010319004+35717-005900FM-15+0015GMTT V0201001N00201999991CY0099001N1+01501+01101999999ADDAG12999MA1102201999999REMMET012CAVOK NOSIG?EQDQ01+000000PRSWM2
0065601010999991982010320004+35717-005900FM-15+0015GMTT V0201001N00151999991CY0099001N1+01501+01101999999ADDAG12999MA1102301999999REMMET012CAVOK NOSIG?EQDQ01+000000PRSWM2
0131601010999991982010321004+35717-005900SY-MT+0015GMTT V0201001N00301220001CN0099001N1+01201+01101102351ADDAG12000GA1041+069009009GF104991001001999999001021MA1102301999999MD1110121+9999REMSYN011333   84073MET005CAVOKEQDQ01+000000PRSWM2
0058601010999991982010322004+35717-005900FM-15+0015GMTT V0201001N00361999991CY0099001N1+01201+01101999999ADDAG12999MA1102301999999REMMET005CAVOKEQDQ01+000000PRSWM2
0058601010999991982010323004+35717-005900FM-15+0015GMTT V0201001N00411999991CY0099001N1+01101+01001999999ADDAG12999MA1102401999999REMMET005CAVOKEQDQ01+000000PRSWM2
0104601010999991982010400004+35717-005900SY-MT+0015GMTT V0201201N00361220001CN0099001N1+01001+00901102401ADDAG11000GF104991001001999999001021MA1102401999999MD1110051+9999MW1001REMMET005CAVOKEQDQ01+000000PRSWM2
0058601010999991982010401004+35717-005900FM-15+0015GMTT V0201201N00301999991CY0099001N1+01101+01001999999ADDAG11999MA1102301999999REMMET005CAVOKEQDQ01+000000PRSWM2
0065601010999991982010402004+35717-005900FM-15+0015GMTT V0201201N00361999991CY0099001N1+01101+01001999999ADDAG11999MA1102301999999REMMET012CAVOK NOSIG?EQDQ01+000000PRSWM2
0124601010999991982010403004+35717-005900SY-MT+0015GMTT V0201001N00301220001CN0099001N1+01001+00801102361ADDAG12000GA1041+069009009GF104991001001999999001021MA1102301999999REMSYN011333   84073MET012CAVOK NOSIG?EQDQ01+000000PRSWM2
0065601010999991982010404004+35717-005900FM-15+0015GMTT V0201001N00301999991CY0099001N1+01101+01001999999ADDAG12999MA1102301999999REMMET012CAVOK NOSIG?EQDQ01+000000PRSWM2
0063601010999991982010405004+35717-005900FM-15+0015GMTT V0201001N00251999991CY0099001N1+01001+00901999999ADDAG11999MA1102301999999REMMET010CAVOK NSG?EQDQ01+000000PRSWM2
0063601010999991982010406004+35717-005900FM-15+0015GMTT V0201201N00301999991CY0099001N1+01001+00801999999ADDAG11000MA1102301999999REMMET010CAVOK NSG?EQDQ01+000000PRSWM2
0063601010999991982010407004+35717-005900FM-15+0015GMTT V0201201N00301999991CY0099001N1+01001+00801999999ADDAG11999MA1102301999999REMMET010CAVOK NSG?EQDQ01+000000PRSWM2
0063601010999991982010408004+35717-005900FM-15+0015GMTT V0201201N00301999991CY0099001N1+01101+00901999999ADDAG11999MA1102401999999REMMET010CAVOK NSG?EQDQ01+000000PRSWM2
0158601010999991982010409004+35717-005900SY-MT+0015GMTT V0201401N00201060001CN0099001N1+01201+00901102481ADDAG12000GA1031+030009039GA2061+060009009GF107991031001999999031021MA1102401999999MD1310091+9999REMSYN017333   83360 86070MET010CAVOK NSG?EQDQ01+000000PRSWM2
0063601010999991982010410004+35717-005900FM-15+0015GMTT V0201001N00151999991CY0099001N1+01401+00801999999ADDAG12999MA1102511999999REMMET010CAVOK NSG?EQDQ01+000000PRSWM2
0065601010999991982010411004+35717-005900FM-15+0015GMTT V0201201N00151999991CY0099001N1+01501+00801999999ADDAG12999MA1102511999999REMMET012CAVOK NOSIG?EQDQ01+000000PRSWM2
0172601010999991982010412004+35717-005900SY-MT+0015GMTT V0209991C00001060001CN0099001N1+01901+00901102561ADDAG12000GA1031+030009039GA2061+060009009GF107991031001999999081021MA1102511999999MD1110081+9999REMSYN029333   83360 86070 555   00053MET012CAVOK NOSIG?EQDQ01+000000PRSWM2
0091601010999991982010414004+35717-005900FM-15+0015GMTT V0203001N00101060001CN9999999N9+01901+01201999999ADDAG12999GA1061+060009009MA1102511999999REMMET006NOSIG?EQDQ01+000002VOVAR Q02+000000PRSWM2
0154601010999991982010415004+35717-005900SY-MT+0015GMTT V0203201N00301060001CN0080001N1+01901+01201102511ADDAG12000GA1031+030009039GA2061+060009009GF107991031001999999031021MA1102511999999MD1610051+9999REMSYN017333   83360 86070MET006NOSIG?EQDQ01+000000PRSWM2
0091601010999991982010416004+35717-005900FM-15+0015GMTT V0203401N00511060001CN0080001N1+01801+01101999999ADDAG12999GA1021+030009039GA2051+060009009MA1102511999999REMMET006NOSIG?EQDQ01+000000PRSWM2
0091601010999991982010417004+35717-005900FM-15+0015GMTT V0203601N00301060001CN0070001N1+01701+01201999999ADDAG12999GA1041+030009039GA2031+060009009MA1102511999999REMMET006NOSIG?EQDQ01+000000PRSWM2
0173601010999991982010418004+35717-005900SY-MT+0015GMTT V0203601N00201069001CN0080001N1+01601+01201102591ADDAG12000GA1041+030009039GA2031+069009009GF106991041001999999031021KA1120M+02011MA1102511999999MD1210081+9999REMSYN023333   10201 84360 83070MET006NOSIG?EQDQ01+000000PRSWM2
0091601010999991982010419004+35717-005900FM-15+0015GMTT V0209991C00001220001CN0080001N1+01401+01201999999ADDAG12999GA1021+030009039GA2031+060009009MA1102611999999REMMET006NOSIG?EQDQ01+000000PRSWM2
0091601010999991982010420004+35717-005900FM-15+0015GMTT V0201001N00201220001CN0080001N1+01301+01101999999ADDAG12999GA1021+030009039GA2031+060009009MA1102611999999REMMET006NOSIG?EQDQ01+000000PRSWM2
0136601010999991982010421004+35717-005900SY-MT+0015GMTT V0201001N00251220001CN0099001N1+01201+01101102671ADDAG12000GA1021+069009009GF102991001001999999001021MA1102611999999MD1310061+9999REMSYN011333   82073MET010CAVOK NSG?EQDQ01+000000PRSWM2
0063601010999991982010422004+35717-005900FM-15+0015GMTT V0200801N00411999991CY0099001N1+01201+01001999999ADDAG12999MA1102611999999REMMET010CAVOK NSG?EQDQ01+000000PRSWM2
0063601010999991982010423004+35717-005900FM-15+0015GMTT V0200201N00201999991CY0099001N1+01201+01001999999ADDAG12999MA1102711999999REMMET010CAVOK NSG?EQDQ01+000000PRSWM2
0136601010999991982010500004+35717-005900SY-MT+0015GMTT V0201201N00201220001CN0099001N1+01101+00901102711ADDAG12000GA1021+069009009GF102991001001999999001021MA1102711999999MD1310041+9999REMSYN011333   82073MET010CAVOK NSG?EQDQ01+000000PRSWM2
0065601010999991982010502004+35717-005900FM-15+0015GMTT V0201201N00151999991CY0099001N1+01001+00901999999ADDAG11999MA1102611999999REMMET012CAVOK NOSIG?EQDQ01+000000PRSWM2
0138601010999991982010503004+35717-005900SY-MT+0015GMTT V0201201N00101220001CN0099001N1+01001+00901102681ADDAG12000GA1021+069009009GF102991001001999999001021MA1102611999999MD1510031+9999REMSYN011333   82073MET012CAVOK NOSIG?EQDQ01+000000PRSWM2
0065601010999991982010504004+35717-005900FM-15+0015GMTT V0201201N00151999991CY0099001N1+01001+00901999999ADDAG12999MA1102611999999REMMET012CAVOK NOSIG?EQDQ01+000000PRSWM2
0065601010999991982010505004+35717-005900FM-15+0015GMTT V0201201N00301999991CY0099001N1+01001+00901999999ADDAG12999MA1102611999999REMMET012CAVOK NOSIG?EQDQ01+000000PRSWM2
0186601010999991982010506004+35717-005900SY-MT+0015GMTT V0201001N00301220001CN0099001N1+00901+00801102641ADDAC1399AG12000GA1021+069009009GF102991001001999999001021IA2240+00009MA1102611999999MD1810041+9999REMSYN041333   00083 82073 555   00089 10200 33062MET012CAVOK NOSIG?EQDQ01+000000PRSWM2
0065601010999991982010507004+35717-005900FM-15+0015GMTT V0201001N00201999991CY0099001N1+00901+00801999999ADDAG12999MA1102611999999REMMET012CAVOK NOSIG?EQDQ01+000000PRSWM2
0075601010999991982010508004+35717-005900FM-15+0015GMTT V0201001N00301220001CN0080001N1+00901+00701999999ADDAG12999GA1041+069009009MA1102711999999REMMET006NOSIG?EQDQ01+000000PRSWM2
0138601010999991982010509004+35717-005900SY-MT+0015GMTT V0201001N00201220001CN0099001N1+01001+00901102751ADDAG12000GA1041+069009009GF104991001001999999001021MA1102711999999MD1210111+9999REMSYN011333   84073MET012CAVOK NOSIG?EQDQ01+000000PRSWM2
0065601010999991982010510004+35717-005900FM-15+0015GMTT V0201201N00201999991CY0099001N1+01401+01001999999ADDAG12999MA1102711999999REMMET012CAVOK NOSIG?EQDQ01+000000PRSWM2
0065601010999991982010511004+35717-005900FM-15+0015GMTT V0201001N00101999991CY0099001N1+01701+01101999999ADDAG12999MA1102811999999REMMET012CAVOK NOSIG?EQDQ01+000000PRSWM2
0138601010999991982010512004+35717-005900SY-MT+0015GMTT V0203401N00201220001CN0099001N1+01901+01001102781ADDAG12000GA1021+069009009GF102991001001999999001021MA1102711999999MD1010031+9999REMSYN011333   82073MET012CAVOK NOSIG?EQDQ01+000000PRSWM2
0065601010999991982010514004+35717-005900FM-15+0015GMTT V0203401N00411999991CY0099001N1+02001+01001999999ADDAG12999MA1102611999999REMMET012CAVOK NOSIG?EQDQ01+000000PRSWM2
0105601010999991982010515004+35717-005900SY-MT+0015GMTT V0203401N00511220001CN0099001N1+01901+01401102561ADDAG12000GF100991001001999999001001MA1102511999999MD1610221+9999REMMET012CAVOK NOSIG?EQDQ01+000000PRSWM2
0063601010999991982010516004+35717-005900FM-15+0015GMTT V0203601N00511999991CY0099001N1+01901+01401999999ADDAG12999MA1102511999999REMMET010CAVOK NSG?EQDQ01+000000PRSWM2
0065601010999991982010518004+35717-005900FM-15+0015GMTT V0209999999999999991CY0099001N1+01601+01401999999ADDAG12000MA1102611999999REMMET012CAVOK NOSIG?EQDQ01+000000PRSWM2
0058601010999991982010519004+35717-005900FM-15+0015GMTT V0203401N00301999991CY0099001N1+01501+01401999999ADDAG12999MA1102611999999REMMET005CAVOKEQDQ01+000000PRSWM2
0044601010999991982010520004+35717-005900FM-15+0015GMTT V0203401N003019999999N0080001N1+01501+01401999999ADDAG12999MA1102611999999EQDQ01+000000PRSWM2
0050601010999991982010521004+35717-005900FM-15+0015GMTT V0201001N001519999999N0080001N1+01201+01201999999ADDAG12000REMMET01212026 NOSIG?EQDQ01+000000PRSWM2
0029601010999991982010522304+35717-005900FM-15+0015GMTT V0209991C00001220001CN0030001N1+99999+99999999999ADDAG12999MW1101REMMET004SKC?
0046601010999991982010523004+35717-005900FM-15+0015GMTT V0209991C000019999999N0030001N1+01201+01201999999ADDAG12999MA1102611999999MW1101REMMET006NOSIG?
0094601010999991982010600004+35717-005900SY-MT+0015GMTT V0201001N00151220001CN0030001N1+01101+01101102611ADDAG12000AY101061GF101991999999999999999999MA1102611999999MD1810011+9999MW1101REMMET006NOSIG?
0046601010999991982010604004+35717-005900FM-15+0015GMTT V0209991C000019999999N0030001N1+01101+01001999999ADDAG12999MA1102611999999MW1101REMMET006NOSIG?
0046601010999991982010605004+35717-005900FM-15+0015GMTT V0201201N001019999999N0030001N1+01101+01001999999ADDAG12999MA1102511999999MW1101REMMET006NOSIG?
0153601010999991982010606004+35717-005900SY-MT+0015GMTT V0201201N00151220001CN0060001N1+00901+00801102521ADDAG12000GF100991001001999999001001KA1120N+00891MA1102511999999MD1610101+9999REMSYN035333   20089 555   00096 10195 33083MET006NOSIG?EQDQ01+000000PRSWM2
0059601010999991982010607004+35717-005900FM-15+0015GMTT V0201201N001019999999N0060001N1+00901+00801999999ADDAG12999MA1102511999999REMMET006NOSIG?EQDQ01+000000PRSWM2
0059601010999991982010608004+35717-005900FM-15+0015GMTT V0201201N001019999999N0080001N1+00901+00801999999ADDAG12999MA1102511999999REMMET006NOSIG?EQDQ01+000000PRSWM2
0065601010999991982010609004+35717-005900FM-15+0015GMTT V0201201N00151999991CY0099001N1+01001+00901999999ADDAG12000MA1102511999999REMMET012CAVOK NOSIG?EQDQ01+000000PRSWM2
0065601010999991982010610004+35717-005900FM-15+0015GMTT V0201201N00151999991CY0099001N1+01101+00901999999ADDAG12999MA1102511999999REMMET012CAVOK NOSIG?EQDQ01+000000PRSWM2
0065601010999991982010611004+35717-005900FM-15+0015GMTT V0209991C00001999991CY0099001N1+01201+00901999999ADDAG12999MA1102511999999REMMET012CAVOK NOSIG?EQDQ01+000000PRSWM2
0142601010999991982010612004+35717-005900SY-MT+0015GMTT V0209991C00001220001CN0099001N1+01801+01501102601ADDAG12000GA1011+069009009GF101991001001999999001021MA1102611999999MD1010081+9999MW1001REMSYN011333   81073MET010CAVOK NSG?EQDQ01+000000PRSWM2
0063601010999991982010613004+35717-005900FM-15+0015GMTT V0209991C00001999991CY0099001N1+01801+01501999999ADDAG11999MA1102611999999REMMET010CAVOK NSG?EQDQ01+000000PRSWM2
0049601010999991982010616004+35717-005900FM-15+0015GMTT V0209999999999999991CY0099001N1+01901+01001999999ADDAG11999REMMET011CAVOK ////?EQDQ01+000000PRSWM2
0065601010999991982010617004+35717-005900FM-15+0015GMTT V0203401N00201999991CY0099001N1+01901+01401999999ADDAG11999MA1102301999999REMMET012CAVOK NOSIG?EQDQ01+000000PRSWM2
0181601010999991982010618004+35717-005900SY-MT+0015GMTT V0203401N00101220001CN0099001N1+01601+01401102351ADDAG11000GA1031+069009009GF103991001001999999001021KA1120M+02041MA1102301999999MD1710041+9999MW1001REMSYN035333   10204 83073 555   00088 20089MET012CAVOK NOSIG?EQDQ01+000000PRSWM2
0058601010999991982010619004+35717-005900FM-15+0015GMTT V0203401N00101220001CN0099001N1+01601+01401999999ADDMA1102301999999REMMET012CAVOK NOSIG?EQDQ01+000000PRSWM2
0065601010999991982010620004+35717-005900FM-15+0015GMTT V0203401N00101999991CY0099001N1+01501+01301999999ADDAG12999MA1102301999999REMMET012CAVOK NOSIG?EQDQ01+000000PRSWM2
0126601010999991982010621004+35717-005900SY-MT+0015GMTT V0201201N00101220001CN0080001N1+01241+01091102381ADDAG12000GA1031+069009009GF103991999001999999001021MA1102301999999MD1010031+9999MW1001REMSYN011333   83073EQDQ01+000000PRSWM2
0060601010999991982010622004+35717-005900FM-15+0015GMTT V0201201N00101220001CN0080001N1+01201+01101999999ADDAG12999GA1031+069009009MA1102301999999EQDQ01+000000PRSWM2
0060601010999991982010623004+35717-005900FM-15+0015GMTT V0201201N00151220001CN0080001N1+01201+01101999999ADDAG12999GA1041+069009009MA1102301999999EQDQ01+000000PRSWM2
0120601010999991982010700004+35717-005900SY-MT+0015GMTT V0201001N00101220001CN0080001N1+01001+00901102361ADDAG12000GA1031+069009009GF103991001001999999001021MA1102301999999MD1810021+9999REMSYN011333   83073EQDQ01+000000PRSWM2
0060601010999991982010701004+35717-005900FM-15+0015GMTT V0201201N00101220001CN0080001N1+01201+01101999999ADDAG11999GA1031+069009009MA1102301999999EQDQ01+000000PRSWM2
0060601010999991982010702004+35717-005900FM-15+0015GMTT V0201001N00101220001CN0080001N1+01001+00901999999ADDAG11999GA1031+069009009MA1102301999999EQDQ01+000000PRSWM2
0120601010999991982010703004+35717-005900SY-MT+0015GMTT V0201001N00201220001CN0080001N1+01001+00901102261ADDAG12000GA1031+069009009GF103991001001999999001021MA1102201999999MD1810101+9999REMSYN011333   83073EQDQ01+000000PRSWM2
0075601010999991982010704004+35717-005900FM-15+0015GMTT V0201201N00101220001CN0080001N1+01001+00901999999ADDAG12999GA1031+069009009MA1102201999999REMMET006NOSIG?EQDQ01+000000PRSWM2
0076601010999991982010705004+35717-005900FM-15+0015GMTT V0201201N00101220001CN9999999N9+01001+00901999999ADDAG12999GA1031+069009009MA1102201999999EQDQ01+000002VOVAR Q02+000000PRSWM2
0181601010999991982010706004+35717-005900SY-MT+0015GMTT V0201401N00101220001CN0080001N1+00901+00801102191ADDAG12000GA1021+069009009GF102991001001999999001021KA1120N+00901MA1102101999999MD1810071+9999MW1001REMSYN041333   20090 82073 555   00096 10204 33089MET006NOSIG?EQDQ01+000000PRSWM2
0075601010999991982010707004+35717-005900FM-15+0015GMTT V0201201N00101220001CN0080001N1+00901+00801999999ADDAG12999GA1021+069009009MA1102101999999REMMET006NOSIG?EQDQ01+000000PRSWM2
0060601010999991982010708004+35717-005900FM-15+0015GMTT V0209991C00001220001CN0080001N1+00901+00801999999ADDAG12999GA1021+069009009MA1102101999999EQDQ01+000000PRSWM2
0131601010999991982010709004+35717-005900SY-MT+0015GMTT V0201201N00301220001CN0099001N1+01001+00901102231ADDAG12000GA1021+069009009GF102991001001999999001021MA1102201999999MD1310041+9999REMSYN011333   82073MET005CAVOKEQDQ01+000000PRSWM2
0065601010999991982010710004+35717-005900FM-15+0015GMTT V0201201N00201999991CY0099001N1+01301+01001999999ADDAG12999MA1102201999999REMMET012CAVOK NOSIG?EQDQ01+000000PRSWM2
0065601010999991982010711004+35717-005900FM-15+0015GMTT V0201201N00201999991CY0099001N1+01501+01001999999ADDAG12999MA1102201999999REMMET012CAVOK NOSIG?EQDQ01+000000PRSWM2
0172601010999991982010712004+35717-005900SY-MT+0015GMTT V0202601N00151220001CN0099001N1+01801+01301102301ADDAG12000GA1021+069009009GF102991001001999999001021MA1102301999999MD1110071+9999MW1001REMSYN023333   82073 555   00075MET012CAVOK NOSIG?EQDQ01+000022SCOTLCQ02+000000PRSWM2
0065601010999991982010713004+35717-005900FM-15+0015GMTT V0202601N00151999991CY0099001N1+01801+01301999999ADDAG12999MA1102201999999REMMET012CAVOK NOSIG?EQDQ01+000000PRSWM2
0063601010999991982010714004+35717-005900FM-15+0015GMTT V0203201N00151999991CY0099001N1+01901+01301999999ADDAG12999MA1102101999999REMMET010CAVOK NSG?EQDQ01+000000PRSWM2
0132601010999991982010715004+35717-005900SY-MT+0015GMTT V0203401N00301220001CN0099001N1+02001+01201102011ADDAG12000GA1011+069009009GF101991001001999999001021MD1610231+9999REMSYN011333   81073MET005CAVOKEQDQ01+030393APOA  Q02+000000PRSWM2
0065601010999991982010716004+35717-005900FM-15+0015GMTT V0203401N00201999991CY0099001N1+01901+01301999999ADDAG12999MA1102001999999REMMET012CAVOK NOSIG?EQDQ01+000000PRSWM2
0065601010999991982010717004+35717-005900FM-15+0015GMTT V0203401N00201999991CY0099001N1+01801+01301999999ADDAG12999MA1102001999999REMMET012CAVOK NOSIG?EQDQ01+000000PRSWM2
0145601010999991982010718004+35717-005900SY-MT+0015GMTT V0203401N00201220001CN0099001N1+01601+01201102101ADDAG12000GA1021+069009009GF102991999999999999999999KA1120M+02021REMSYN035333   10202 82073 555   00086 20074MET011CAVOK 10//?EQDQ01+000000PRSWM2
0055601010999991982010719004+35717-005900FM-15+0015GMTT V0209991C00001999991CY0099001N1+99999+99999999999ADDAG12999REMMET017CAVOK ///12 1021?EQDQ01+000000PRSWM2
0065601010999991982010720004+35717-005900FM-15+0015GMTT V0201001N00201999991CY0099001N1+01301+01101999999ADDAG12999MA1102101999999REMMET012CAVOK NOSIG?EQDQ01+000000PRSWM2
0136601010999991982010721004+35717-005900SY-MT+0015GMTT V0201001N00201220001CN0099001N1+01301+01101102151ADDAG12000GA1021+069009009GF102991021001999999021999MA1102101999999MD1110051+9999REMSYN011333   82073MET010CAVOK NSG?EQDQ01+000000PRSWM2
0059601010999991982010722004+35717-005900FM-15+0015GMTT V0201001N00151999991CY0099001N1+99999+99999999999ADDAG12999REMMET021CAVOK XX/XX 1021 NSG?EQDQ01+000000PRSWM2
0063601010999991982010723004+35717-005900FM-15+0015GMTT V0209999999999999991CY0099001N1+01801+01101999999ADDAG12999MA1102101999999REMMET010CAVOK NSG?EQDQ01+000000PRSWM2
0063601010999991982010800004+35717-005900FM-15+0015GMTT V0201201N00151999991CY0099001N1+01201+01101999999ADDAG12000MA1102101999999REMMET010CAVOK NSG?EQDQ01+000000PRSWM2
0063601010999991982010801004+35717-005900FM-15+0015GMTT V0209991C00001999991CY0099001N1+01101+01001999999ADDAG11999MA1102101999999REMMET010CAVOK NSG?EQDQ01+000000PRSWM2
0065601010999991982010802004+35717-005900FM-15+0015GMTT V0209991C00001999991CY0099001N1+01101+01001999999ADDAG11999MA1102101999999REMMET012CAVOK NOSIG?EQDQ01+000000PRSWM2
0065601010999991982010803004+35717-005900FM-15+0015GMTT V0209991C00001999991CY0099001N1+01101+00901999999ADDAG11000MA1102101999999REMMET012CAVOK NOSIG?EQDQ01+000000PRSWM2
0052601010999991982010805004+35717-005900FM-15+0015GMTT V0209991C00001999991CY0099001N1+99999+99999999999ADDAG12999REMMET014CAVOK // ////?EQDQ01+000000PRSWM2
0061601010999991982010806004+35717-005900FM-15+0015GMTT V0209991C00001999991CY0099001N1+99999+99999999999ADDAG12000REMMET023CAVOK 080/7 1020 NOSIG?EQDQ01+000000PRSWM2
0065601010999991982010807004+35717-005900FM-15+0015GMTT V0209991C00001999991CY0099001N1+00801+00701999999ADDAG12999MA1102001999999REMMET012CAVOK NOSIG?EQDQ01+000000PRSWM2
0058601010999991982010808004+35717-005900FM-15+0015GMTT V0209991C00001999991CY0099001N1+01101+00801999999ADDAG12999MA1102101999999REMMET005CAVOKEQDQ01+000000PRSWM2
0122601010999991982010809004+35717-005900FM-12+0015GMTT V0201201N00101220001CN0060001N9+01051+00891102151ADDAG12000AY101031GA1011+001809079GA2031+060009009GF103991011061002501001021MD1310111+9999MW1021REMSYN017333   81706 83070
0065601010999991982010810004+35717-005900FM-15+0015GMTT V0201201N00101999991CY0099001N1+01301+01101999999ADDAG12999MA1102201999999REMMET012CAVOK NOSIG?EQDQ01+000000PRSWM2
0162601010999991982010812004+35717-005900SY-MT+0015GMTT V0209991C00001069001CN0099001N1+01801+01201102271ADDAG12000AY101061GA1061+069009009GF106991001001999999001021MA1102201999999MD1010121+9999MW1021REMSYN023333   86073 555   00068MET010CAVOK NSG?EQDQ01+000000PRSWM2
0063601010999991982010813004+35717-005900FM-15+0015GMTT V0202601N00151999991CY0099001N1+01901+01201999999ADDAG12999MA1102201999999REMMET010CAVOK NSG?EQDQ01+000000PRSWM2
0065601010999991982010814004+35717-005900FM-15+0015GMTT V0202601N00151999991CY0099001N1+02001+01201999999ADDAG12999MA1102101999999REMMET012CAVOK NOSIG?EQDQ01+000000PRSWM2
0152601010999991982010815004+35717-005900SY-MT+0015GMTT V0202401N00201069001CN0099001N1+01901+01201102141ADDAG12000AY101031GA1061+069009009GF106991001001999999001021MA1102101999999MD1810131+9999MW1021REMSYN011333   86073MET012CAVOK NOSIG?EQDQ01+000000PRSWM2
0065601010999991982010816004+35717-005900FM-15+0015GMTT V0202401N00301999991CY0099001N1+02001+01101999999ADDAG12999MA1102101999999REMMET012CAVOK NOSIG?EQDQ01+000000PRSWM2
0065601010999991982010817004+35717-005900FM-15+0015GMTT V0202401N00301999991CY0099001N1+01901+01201999999ADDAG12999MA1102101999999REMMET012CAVOK NOSIG?EQDQ01+000000PRSWM2
0171601010999991982010818004+35717-005900SY-MT+0015GMTT V0202401N00201220001CN0099001N1+01601+00901102201ADDAG11000AY101061GA1041+069009009GF104991001001999999001021KA1120M+01961MA1102201999999MD1310061+9999MW1021REMSYN017333   10196 84073MET012CAVOK NOSIG?EQDQ01+000000PRSWM2
0065601010999991982010819004+35717-005900FM-15+0015GMTT V0209991C00001999991CY0099001N1+01401+01001999999ADDAG11999MA1102201999999REMMET012CAVOK NOSIG?EQDQ01+000000PRSWM2
0065601010999991982010820004+35717-005900FM-15+0015GMTT V0201001N00151999991CY0099001N1+01301+01101999999ADDAG11999MA1102201999999REMMET012CAVOK NOSIG?EQDQ01+000000PRSWM2
0145601010999991982010821004+35717-005900SY-MT+0015GMTT V0209991C00001069001CN0099001N1+01101+01001999999ADDAG12000AY101031GA1061+069009009GF106991001001999999001021MA1102201999999MD1210071+9999MW1021REMSYN011333   86073MET005CAVOKEQDQ01+000000PRSWM2
0058601010999991982010822004+35717-005900FM-15+0015GMTT V0209991C00001999991CY0099001N1+01101+00901999999ADDAG11999MA1102201999999REMMET005CAVOKEQDQ01+000000PRSWM2
0058601010999991982010823004+35717-005900FM-15+0015GMTT V0201201N00151999991CY0099001N1+01101+00701999999ADDAG11999MA1102201999999REMMET005CAVOKEQDQ01+000000PRSWM2
0157601010999991982010900004+35717-005900SY-MT+0015GMTT V0201001N00151069001CN0099001N1+01101+00701102231ADDAG11000AY101061GA1051+069009009GF105991001001999999001021MA1102201999999MD1010041+9999MW1021REMSYN023333   85073 555   00075MET005CAVOKEQDQ01+000000PRSWM2
0058601010999991982010901004+35717-005900FM-15+0015GMTT V0209991C00001999991CY0099001N1+01101+00701999999ADDAG11999MA1102201999999REMMET005CAVOKEQDQ01+000000PRSWM2
0058601010999991982010902004+35717-005900FM-15+0015GMTT V0209991C00001999991CY0099001N1+01001+00701999999ADDAG11999MA1102201999999REMMET005CAVOKEQDQ01+000000PRSWM2
0150601010999991982010903004+35717-005900SY-MT+0015GMTT V0209991C00001069001CN0099001N1+01101+00701102181ADDAG12000AY101031GA1061+069009009GF106991001001999999001021MA1102101999999MD1810051+9999MW1021REMSYN011333   86073MET010CAVOK NSG?EQDQ01+000000PRSWM2
0058601010999991982010904004+35717-005900FM-15+0015GMTT V0209991C00001999991CY0099001N1+01101+00701999999ADDAG11999MA1102101999999REMMET005CAVOKEQDQ01+000000PRSWM2
0063601010999991982010905004+35717-005900FM-15+0015GMTT V0209991C00001999991CY0099001N1+00901+00601999999ADDAG11999MA1102101999999REMMET010CAVOK NSG?EQDQ01+000000PRSWM2
0171601010999991982010906004+35717-005900SY-MT+0015GMTT V0201201N00201220001CN0100001N1+00881+00431102081ADDAG11000AY101061GF100991001001999999001001KA1120N+00821MA1102001999999MD1810101+9999MW1021REMSYN035333   20082 555   00073 10196 33085MET010CAVOK NSG?EQDQ01+000000PRSWM2
0063601010999991982010907004+35717-005900FM-15+0015GMTT V0201201N00201999991CY0099001N1+00901+00501999999ADDAG11999MA1102001999999REMMET010CAVOK NSG?EQDQ01+000000PRSWM2
0063601010999991982010908004+35717-005900FM-15+0015GMTT V0201201N00201999991CY0099001N1+00801+00401999999ADDAG11999MA1102101999999REMMET010CAVOK NSG?EQDQ01+000000PRSWM2
0119601010999991982010909004+35717-005900FM-12+0015GMTT V0202401N00101220001CN0150001N9+02172+00391102191ADDAG11000AY101031GA1011+069009009GF101991001001999999001021MD1010021+9999MW1021REMSYN011333   81073EQDQ01+029493ATOT  
0065601010999991982010910004+35717-005900FM-15+0015GMTT V0201201N00301999991CY0099001N1+01501+00801999999ADDAG11999MA1102101999999REMMET012CAVOK NOSIG?EQDQ01+000000PRSWM2
0065601010999991982010911004+35717-005900FM-15+0015GMTT V0209991C00001999991CY0099001N1+01901+00701999999ADDAG11999MA1102201999999REMMET012CAVOK NOSIG?EQDQ01+000000PRSWM2
0152601010999991982010912004+35717-005900SY-MT+0015GMTT V0202401N00101220001CN0099001N1+02101+00401102191ADDAG11000AY101061GA1011+069009009GF101991001001999999001021MA1102101999999MD1010021+9999MW1021REMSYN011333   81073MET012CAVOK NOSIG?EQDQ01+000000PRSWM2
0065601010999991982010913004+35717-005900FM-15+0015GMTT V0202801N00201999991CY0099001N1+02201+00601999999ADDAG11999MA1102101999999REMMET012CAVOK NOSIG?EQDQ01+000000PRSWM2
0058601010999991982010914004+35717-005900FM-15+0015GMTT V0202801N00201999991CY0099001N1+02001+00801999999ADDAG11999MA1102001999999REMMET005CAVOKEQDQ01+000000PRSWM2
0152601010999991982010915004+35717-005900SY-MT+0015GMTT V0202801N00201220001CN0099001N1+02001+00901101981ADDAG12000AY101031GA1031+069009009GF103991001001999999001021MA1101901999999MD1710211+9999MW1021REMSYN011333   83073MET012CAVOK NOSIG?EQDQ01+000000PRSWM2
0058601010999991982010916004+35717-005900FM-15+0015GMTT V0202801N00201999991CY0099001N1+02001+00901999999ADDAG11999MA1101901999999REMMET005CAVOKEQDQ01+000000PRSWM2
0065601010999991982010917004+35717-005900FM-15+0015GMTT V0209991C00001999991CY0099001N1+01801+01201999999ADDAG11999MA1101901999999REMMET012CAVOK NOSIG?EQDQ01+000000PRSWM2
0182601010999991982010918004+35717-005900SY-MT+0015GMTT V0209991C00001220001CN0099001N1+01701+01301101971ADDAG12000AY101061GA1031+069009009GF103991001001999999001021KA1120M+02151MA1101901999999MD1810011+9999MW1021REMSYN035333   10215 83073 555   00078 20076MET005CAVOKEQDQ01+000000PRSWM2
0058601010999991982010919004+35717-005900FM-15+0015GMTT V0209991C00001999991CY0099001N1+01701+01201999999ADDAG11999MA1101901999999REMMET005CAVOKEQDQ01+000000PRSWM2
0058601010999991982010920004+35717-005900FM-15+0015GMTT V0209991C00001999991CY0099001N1+01701+01201999999ADDAG11999MA1101901999999REMMET005CAVOKEQDQ01+000000PRSWM2
0152601010999991982010921004+35717-005900SY-MT+0015GMTT V0201201N00201069001CN0099001N1+01101+00901102021ADDAG12000AY101031GA1051+069009009GF105991001001999999001021MA1102001999999MD1310041+9999MW1021REMSYN011333   85073MET012CAVOK NOSIG?EQDQ01+000000PRSWM2
0065601010999991982010922004+35717-005900FM-15+0015GMTT V0201201N00151999991CY0099001N1+01101+00901999999ADDAG11999MA1102001999999REMMET012CAVOK NOSIG?EQDQ01+000000PRSWM2
0065601010999991982010923004+35717-005900FM-15+0015GMTT V0209991C00001999991CY0099001N1+01001+00801999999ADDAG11999MA1102001999999REMMET012CAVOK NOSIG?EQDQ01+000000PRSWM2
0164601010999991982011000004+35717-005900SY-MT+0015GMTT V0201001N00201069001CN0099001N1+01001+00901101961ADDAG11000AY101061GA1051+069009009GF105991001001999999001021MA1101901999999MD1810061+9999MW1021REMSYN023333   85073 555   00089MET012CAVOK NOSIG?EQDQ01+000000PRSWM2
0065601010999991982011001004+35717-005900FM-15+0015GMTT V0209991C00001999991CY0099001N1+01001+00901999999ADDAG11999MA1101901999999REMMET012CAVOK NOSIG?EQDQ01+000000PRSWM2
0065601010999991982011002004+35717-005900FM-15+0015GMTT V0201601N00411999991CY0099001N1+01201+00901999999ADDAG11999MA1101801999999REMMET012CAVOK NOSIG?EQDQ01+000000PRSWM2
0190601010999991982011003004+35717-005900SY-MT+0015GMTT V0202001N00401069001CN0099001N1+01201+00901101851ADDAG12000AY101031GA1041+030009039GA2051+069009009GF106991999001999999031021MA1101801999999MD1610111+9999MW1021REMSYN017333   84360 85073MET012CAVOK NOSIG?EQDQ01+000002SCOTLCQ02+000000PRSWM2
0065601010999991982011004004+35717-005900FM-15+0015GMTT V0201601N00611999991CY0099001N1+01201+01001999999ADDAG12999MA1101801999999REMMET012CAVOK NOSIG?EQDQ01+000000PRSWM2
0107601010999991982011005004+35717-005900FM-15+0015GMTT V0201601N00721030001CN0112001N1+01301+01201999999ADDAG12999GA1031+004809059GA2031+030009039GA3051+069009009MA1101691999999REMMET006NOSIG?EQDQ01+000000PRSWM2
0225601010999991982011006004+35717-005900SY-MT+0015GMTT V0201801N00721004801CN0112001N1+01401+01301101701ADDAG12000AY101061GA1021+003909089GA2031+004809059GA3041+030009039GF107991051051999999031021KA1120N+01011MA1101691999999MD1610151+9999MW1021REMSYN029333   20101 82813 84616 84360MET006NOSIG?EQDQ01+000992SCOLCBQ02+000000PRSWM2
0123601010999991982011007004+35717-005900FM-15+0015GMTT V0202001N00611004501CN0112001N1+01401+01301999999ADDAG12999GA1021+003909089GA2041+003909059GA3041+004509059GA4041+030009039MA1101591999999REMMET006NOSIG?EQDQ01+000000PRSWM2
0091601010999991982011008004+35717-005900FM-15+0015GMTT V0202001N00611004801CN0112001N1+01501+01301999999ADDAG12999GA1031+003909089GA2051+004809059MA1101591999999REMMET006NOSIG?EQDQ01+000000PRSWM2
0168601010999991982011009004+35717-005900SY-MT+0015GMTT V0201801N00721004801CN0112001N1+01401+01101101601ADDAG12000AY101031GA1031+003909089GA2051+004809059GF107991061081004501081999MA1101591999999MD1610061+9999MW1021REMSYN017333   83813 85616MET006NOSIG?EQDQ01+000000PRSWM2
0076601010999991982011010004+35717-005900FM-15+0015GMTT V0201801N00661004801CN0112001N1+01501+01101999999ADDAG12999GA1031+003909089GA2051+004809059MA1101591999999EQDQ01+000000PRSWM2
0079601010999991982011011004+35717-005900FM-15+0015GMTT V0201801N00821004801CN0030001N1+01601+01301999999ADDAG11999GA1031+003909089GA2041+004809059GA3011+006009099MA1101591999999MW1951
0064601010999991982011011054+35717-005900FM-16+0015GMTT V0201801N00821004801CN0060001N1+99999+99999999999ADDAG11999GA1031+003909089GA2041+004809059GA3011+006009099MW1171
0182601010999991982011012004+35717-005900SY-MT+0015GMTT V0201801N00771004801CN0060001N1+01501+01401101661ADDAA106001091AG12007AY191061GA1031+003909089GA2041+004809059GA3011+006009099GF107991071091004501999999MA1101591999999MD1010021+9999MW1291REMSYN035333   83813 84616 81920 555   00900
0092601010999991982011013004+35717-005900FM-15+0015GMTT V0202801N00821004801CN0060001N1+01501+01401999999ADDAG11999GA1031+003909089GA2041+004809059GA3011+006009099MA1101591999999EQDQ01+000000PRSWM2
0092601010999991982011014004+35717-005900FM-15+0015GMTT V0202801N00921004801CN0112001N1+01701+01401999999ADDAG11999GA1021+003909089GA2031+004809059GA3011+006909099MA1101391999999EQDQ01+000000PRSWM2
0178601010999991982011015004+35717-005900SY-MT+0015GMTT V0202801N00821004801CN0112001N1+01801+01301101411ADDAG11000AY101031GA1021+003909089GA2031+004809059GA3011+006909099GF106991051031004501001021MA1101391999999MD1610241+9999MW1021REMSYN023333   82813 83616 81923EQDQ01+000000PRSWM2
0076601010999991982011016004+35717-005900FM-15+0015GMTT V0202801N00921004801CN0112001N1+01801+01301999999ADDAG12999GA1031+003909089GA2031+004809059MA1101291999999EQDQ01+000000PRSWM2
0076601010999991982011017004+35717-005900FM-15+0015GMTT V0202801N01021004801CN0112001N1+01701+01301999999ADDAG11999GA1031+003909089GA2031+004809059MA1101291999999EQDQ01+000000PRSWM2
0204601010999991982011018004+35717-005900SY-MT+0015GMTT V0202601N01131004801CN0112001N1+01601+01201101341ADDAA199001091AG12000AY101061GA1041+003909089GA2041+004809059GF107991071081004501999999KA1120M+01771MA1101291999999MD1610081+9999MW1021REMSYN041333   10177 84813 84616 555   00080 20096EQDQ01+000000PRSWM2
0091601010999991982011019004+35717-005900FM-15+0015GMTT V0202601N01131004801CN0080001N1+01601+01201999999ADDAG12999GA1041+003909089GA2041+004809059MA1101291999999REMMET006NOSIG?EQDQ01+000000PRSWM2
0076601010999991982011020004+35717-005900FM-15+0015GMTT V0202601N00921004801CN0080001N1+01601+01201999999ADDAG12999GA1041+003909089GA2041+004809059MA1101291999999EQDQ01+000000PRSWM2
0150601010999991982011021004+35717-005900SY-MT+0015GMTT V0202401N01081004801CN0080001N1+01601+01201101281ADDAG12000AY101031GA1041+003909089GA2041+004809059GF107991071081004501999999MA1101191999999MD1810061+9999MW1021REMSYN011333   4616/EQDQ01+000000PRSWM2
0076601010999991982011022004+35717-005900FM-15+0015GMTT V0202401N01081004801CN0080001N1+01601+01201999999ADDAG12999GA1041+003909089GA2041+004809059MA1101191999999EQDQ01+000000PRSWM2
0076601010999991982011023004+35717-005900FM-15+0015GMTT V0202401N01131004801CN0080001N1+01601+01201999999ADDAG12999GA1041+003909089GA2041+004809059MA1101191999999EQDQ01+000000PRSWM2
0190601010999991982011100004+35717-005900SY-MT+0015GMTT V0202401N01231004801CN0080001N1+01401+01301101071ADDAG11000AY101061GA1041+003909089GA2041+004809059GA3011+006009099GF107991071091004501999999MA1101021999999MD1810211+9999MW1021REMSYN035333   84813 84616 81920 555   00090EQDQ01+000000PRSWM2
0079601010999991982011101004+35717-005900FM-15+0015GMTT V0202401N01441004801CN0080001N1+01401+01301999999ADDAG11999GA1041+003909089GA2041+004809059GA3011+006009099MA1100911999999MW1251
0064601010999991982011101054+35717-005900FM-16+0015GMTT V0202401N01441004801CN0080001N1+99999+99999999999ADDAG11999GA1041+003909089GA2041+004809059GA3011+006009099MW1951
0079601010999991982011102004+35717-005900FM-15+0015GMTT V0202201N01131004801CN0080001N1+01301+01301999999ADDAG11999GA1041+003909089GA2041+004809059GA3011+006009099MA1100811999999MW1171
0064601010999991982011102204+35717-005900FM-15+0015GMTT V0202401N00871004801CN0080001N1+99999+99999999999ADDAG11999GA1041+003909089GA2041+004809059GA3011+006009099MW1291
0159601010999991982011103004+35717-005900SY-MT+0015GMTT V0202401N00871004801CN0080001N1+01401+01301100801ADDAG12007AY191031GA1041+003909089GA2041+004809059GA3011+006009099GF107991071091004501999999MA1100811999999MD1710271+9999MW1291REMSYN023333   84813 83616 81920
0092601010999991982011104004+35717-005900FM-15+0015GMTT V0202201N00921004801CN0060001N1+01401+01301999999ADDAG11999GA1041+003909089GA2041+004809059GA3011+006009099MA1100711999999MW1801REMMET004NSG?
0094601010999991982011105004+35717-005900FM-15+0015GMTT V0202401N01131003901CN0060001N1+01401+01301999999ADDAG11999GA1031+001809079GA2041+003909089GA3011+006009099MA1100611999999MW1631REMMET006NOSIG?
0225601010999991982011106004+35717-005900SY-MT+0015GMTT V0202401N01131003901CN0080001N1+01401+01301100541ADDAA124021091AG12003AY191061GA1031+001809079GA2041+003909089GA3011+006009099GF108991081031002501999999KA1120N+01241MA1100511999999MD1810261+9999MW1251REMSYN053333   20124 83706 84813 81920 555   00093 10177 33047MET006111111
0109601010999991982011107004+35717-005900FM-15+0015GMTT V0202401N00921003901CN0080001N1+01401+01301999999ADDAG11999GA1021+001809079GA2061+003909059GA3021+006009099MA1100311999999REMMET008TEND TS?EQDQ01+000000PRSWM2
0158601010999991982011107554+35717-005900FM-15+0015GMTT V0202801N00921003901CN0080001N1+99999+99999999999ADDAG11999GA1021+001809079GA2061+003909089GA3021+006009099MW1291REMMET085111111999999999999999999999999999999999999999999     ?     ?     ?     ?     ?     ??
0079601010999991982011108004+35717-005900FM-15+0015GMTT V0202801N00921003901CN0080001N1+01501+01101999999ADDAG11999GA1021+001809079GA2061+003909089GA3021+006009099MA1100411999999MW1171
0105601010999991982011109004+35717-005900FM-15+0015GMTT V0203001N00821003901CN0112001N1+01501+01101999999ADDAG11000GA1021+001809079GA2031+003909089GA3011+006009099MA1100511999999REMMET004NSG?EQDQ01+000000PRSWM2
0107601010999991982011110004+35717-005900FM-15+0015GMTT V0202801N00921003901CN0112001N1+01601+01001999999ADDAG11999GA1021+001809079GA2051+003909089GA3011+006009099MA1100611999999REMMET006NOSIG?EQDQ01+000000PRSWM2
0107601010999991982011111004+35717-005900FM-15+0015GMTT V0203401N00721003901CN0112001N1+01501+01101999999ADDAG12999GA1021+001809079GA2051+003909089GA3011+006009099MA1100611999999REMMET006NOSIG?EQDQ01+000000PRSWM2
0172601010999991982011112004+35717-005900SY-MT+0015GMTT V0202401N00511003901CN0112001N1+01501+01201100661ADDAA106000591AG12003AY191061GA1061+003909089GA2011+006009099GF107991071091004501999999MA1100611999999MD1110091+9999MW1251REMSYN029333   86813 81920 555   00078MET006NOSIG?
0091601010999991982011113004+35717-005900FM-15+0015GMTT V0202401N00721006001CN0112001N1+01601+01001999999ADDAG11999GA1041+003909089GA2011+006009099MA1100511999999REMMET006NOSIG?EQDQ01+000000PRSWM2
0076601010999991982011114004+35717-005900FM-15+0015GMTT V0202201N00821003901CN0112001N1+01601+01101999999ADDAG11999GA1061+003909089GA2011+006009099MA1100511999999EQDQ01+000000PRSWM2
0137601010999991982011115004+35717-005900SY-MT+0015GMTT V0202201N00921003901CN0080001N1+01701+01101100391ADDAG12003AY111031GA1051+003909089GA2021+006009099GF106991061091004501001001MA1100311999999MD1810271+9999MW1801REMSYN017333   85813 81920
0076601010999991982011116004+35717-005900FM-15+0015GMTT V0202401N00721003901CN0112001N1+01501+01001999999ADDAG11999GA1051+003909089GA2021+006009099MA1100311999999EQDQ01+000000PRSWM2
0092601010999991982011117004+35717-005900FM-15+0015GMTT V0202001N00821003901CN0112001N1+01401+01001999999ADDAG12999GA1051+003909089GA2021+006009099GA3021+006009099MA1100311999999EQDQ01+000000PRSWM2
0208601010999991982011118004+35717-005900SY-MT+0015GMTT V0201801N00721003901CN0080001N1+01301+01001100361ADDAA199001091AG11003AY181061GA1021+003009059GA2051+003909089GA3021+006009099GF107991071091004501999999KA1120M+01661MA1100311999999MD1610041+9999MW1031REMSYN029333   10166 82710 85813 82920EQDQ01+000000PRSWM2
0092601010999991982011119004+35717-005900FM-15+0015GMTT V0201801N00821003901CN0080001N1+01301+01001999999ADDAG11999GA1021+003009079GA2051+003909089GA3021+006009099MA1100311999999EQDQ01+000000PRSWM2
0092601010999991982011120004+35717-005900FM-15+0015GMTT V0201801N009219999999N0080001N1+01201+01001999999ADDAG11999GA1021+003009079GA2021+006009099GA3051+999999089MA1100311999999EQDQ01+000000PRSWM2
0115601010999991982011121004+35717-005900FM-15+0015GMTT V0201801N01131003901CN0080001N1+01401+01101999999ADDAG11000GA1031+003009079GA2051+003909089GA3031+006009099MA1100201999999OC101541REMMET006NOSIG?EQDQ01+000000PRSWM2
0087601010999991982011122004+35717-005900FM-15+0015GMTT V0201801N01021003901CN0080001N1+01401+01101999999ADDAG11999GA1031+003009079GA2051+003909089GA3031+006009099MA1100101999999MW1251OC101541
0104601010999991982011123004+35717-005900FM-15+0015GMTT V0201801N01131003901CN0080001N1+01401+01101999999ADDAG11999GA1031+003009079GA2051+003909089GA3031+006009099MA1100001999999MW1801OC101641REMMET008TEND TS?
0072601010999991982011123354+35717-005900FM-16+0015GMTT V0201801N01231003901CN0060001N1+99999+99999999999ADDAG11999GA1031+003009079GA2051+003909089GA3041+006009099MW1951OC101751
0204601010999991982011200004+35717-005900SY-MT+0015GMTT V0201801N01331003901CN0060001N1+01301+01101999999ADDAA106006091AG12012AY191061GA1041+003009079GA2061+003909089GA3041+006009099GF108991081091004501999999MA1099901999999MD1610211+9999MW1951OC101751REMSYN035333   84710 86813 84920 555   00088MET008TEND TS?
0120601010999991982011201004+35717-005900FM-15+0015GMTT V0201801N01231003001CN0060001N1+01301+01101999999ADDAG11999GA1051+003009079GA2061+003909089GA3061+003909089GA4051+006009099MA1099901999999MW1951OC101851REMMET008TEND TS?
0122601010999991982011202004+35717-005900FM-15+0015GMTT V0201801N01021003901CN0080001N1+01201+01001999999ADDAG11999GA1031+003009079GA2051+003909089GA3041+060009099MA1999999999999MW1171OC101441REMMET007TENDTS?EQDQ01 098983APOA  
0183601010999991982011203004+35717-005900SY-MT+0015GMTT V0201801N01281003901CN0080001N1+01301+01001099831ADDAG12008AY191031GA1031+003009079GA2051+003909089GA3041+006009099GF107991071091004501999999MD1810161+9999MW1951OC101951REMSYN023333   14710 85813 84920MET006TENDS?EQDQ01+029033APOA  
0117601010999991982011204004+35717-005900FM-15+0015GMTT V0201801N01131003901CN0080001N1+01301+01001999999ADDAG12999GA1031+003009079GA2061+003909089GA3041+006009099MA1099801999999OC101641REMMET008TEND TS?EQDQ01+000000PRSWM2
0072601010999991982011204354+35717-005900FM-16+0015GMTT V0201801N01021003901CN0080001N1+99999+99999999999ADDAG12999GA1061+003909089GA2021+006009099GA3021+006009099MW1291OC101541
0104601010999991982011205004+35717-005900FM-15+0015GMTT V0201801N01021003901CN0080001N1+01201+01001999999ADDAG12999GA1031+003009079GA2061+003909089GA3021+006009099MA1099801999999MW1291OC101541REMMET008TEND TS?
0231601010999991982011206004+35717-005900SY-MT+0015GMTT V0201801N01281006001CN0080001N1+01201+01001099861ADDAA124011091AG12003AY191061GA1041+003909089GA2021+006009099GF106991061091004501001001KA1120N+01161MA1099801999999MD1310031+9999MW1251OC101641REMSYN053333   20116 82710 84813 82920 555   00083 10167 33032MET020TEND       ?     TS?
0129601010999991982011207004+35717-005900FM-15+0015GMTT V0201801N01131003901CN0080001N1+01201+01001999999ADDAG12999GA1021+000609099GA2021+003009079GA3041+003909089MA1099801999999OC101641REMMET020TEND       ?     TS?EQDQ01+000000PRSWM2
0087601010999991982011208004+35717-005900FM-15+0015GMTT V0201801N01281003901CN0050001N1+01201+01001999999ADDAG12999GA1041+003009079GA2061+003909089GA3041+006009099MA1099901999999MW1811OC101641
0159601010999991982011209004+35717-005900SY-MT+0015GMTT V0201801N01331003901CN0070001N1+01301+00801100071ADDAG12003AY181031GA1021+003009079GA2061+003909089GA3021+006009099GF107991071091004501999999MA1100001999999MD1310211+9999MW1801REMSYN023333   82710 86813 82920
0092601010999991982011210004+35717-005900FM-15+0015GMTT V0201801N01441003901CN0070001N1+01301+00801999999ADDAG12999GA1021+003009079GA2061+003909089GA3021+006009099MA1100101999999EQDQ01+000000PRSWM2
0092601010999991982011211004+35717-005900FM-15+0015GMTT V0201801N01331003901CN0080001N1+01301+00801999999ADDAG11999GA1031+003009079GA2051+003909089GA3021+006009099MA1100101999999EQDQ01+000000PRSWM2
0201601010999991982011212004+35717-005900SY-MT+0015GMTT V0201801N01441003901CN0080001N1+01401+00801100151ADDAA106006091AG12003AY181061GA1011+003009079GA2051+003909089GA3021+006009099GF107991061091004501071999MA1100101999999MD1110091+9999MW1021REMSYN035333   81710 85813 82920 555   00064EQDQ01+000000PRSWM2
0112601010999991982011213004+35717-005900FM-15+0015GMTT V0201801N01231003901CN0080001N1+01501+00801999999ADDAG11999GA1021+003009079GA2041+003909089GA3021+006009099MA1100101999999REMMET011TEND MAX40?EQDQ01+000000PRSWM2
0077601010999991982011213304+35717-005900FM-15+0015GMTT V0201801N01541003901CN0080001N1+99999+99999999999ADDAG11999GA1021+003009079GA2041+003909089GA3021+006009099EQDQ01+000000PRSWM2
0115601010999991982011214004+35717-005900FM-15+0015GMTT V0201801N01441003901CN0080001N1+99999+99999999999ADDAG11999GA1021+003009079GA2041+003909089GA3021+006009099MA1100101999999REMMET014TEND TS MAX40?EQDQ01+000000PRSWM2
0206601010999991982011215004+35717-005900SY-MT+0015GMTT V0201801N01231003901CN0112001N1+01501+00801100141ADDAG12000AY101031GA1021+003009079GA2051+003909089GA3021+006009099GF108991071091004501071999MA1100101999999MD1510011+9999MW1021OC101851REMSYN023333   82710 85813 82920MET014TEND TS MAX40?EQDQ01+000000PRSWM2
0130601010999991982011216004+35717-005900FM-15+0015GMTT V0201801N00821003901CN0112001N1+01501+00801999999ADDAG11999GA1021+003009079GA2051+003909089GA3021+006009099MA1100201999999REMMET029TEND TS          ?     MAX40?EQDQ01+000000PRSWM2
0115601010999991982011217004+35717-005900FM-15+0015GMTT V0201801N00921003901CN0112001N1+01501+00801999999ADDAG11999GA1021+003009079GA2051+003909089GA3021+006009099MA1100201999999REMMET014TEND TS MAX40?EQDQ01+000000PRSWM2
0162601010999991982011218004+35717-005900SY-MT+0015GMTT V0201601N00921003901CN0112001N1+01301+00801100361ADDAA199006091AG10003AY181061GA1021+003009079GA2051+003909089GA3021+006009099GF108991071091004501071999MA1100311999999MD1210141+9999MW1251REMSYN003333MET006NOSIG?
0107601010999991982011219004+35717-005900FM-15+0015GMTT V0201601N00721003901CN0112001N1+01301+00801999999ADDAG11999GA1021+003009079GA2051+003909089GA3021+006009099MA1100411999999REMMET006NOSIG?EQDQ01+000000PRSWM2
0107601010999991982011220004+35717-005900FM-15+0015GMTT V0201601N00721003901CN0080001N1+01201+00701999999ADDAG11999GA1021+003009079GA2051+003909089GA3021+006009099MA1100411999999REMMET006NOSIG?EQDQ01+000000PRSWM2
0190601010999991982011221004+35717-005900SY-MT+0015GMTT V0201601N00771003901CN0112001N1+01301+00701100481ADDAG12005AY181031GA1011+003009079GA2051+003909089GA3011+006009099GF108991071091004501071999MA1100411999999MD1210121+9999MW1131REMSYN023333   81810 85813 81920MET006NOSIG?EQDQ01+000000PRSWM2
0091601010999991982011222004+35717-005900FM-15+0015GMTT V0201801N00821006001CN0112001N1+01401+00701999999ADDAG12999GA1041+003909089GA2011+006009099MA1100511999999REMMET006NOSIG?EQDQ01+000000PRSWM2
0107601010999991982011223004+35717-005900FM-15+0015GMTT V0201801N00511004801CN0112001N1+01401+00701999999ADDAG12999GA1031+003909089GA2041+004809059GA3011+006009099MA1100511999999REMMET006NOSIG?EQDQ01+000000PRSWM2
0160601010999991982011300004+35717-005900SY-MT+0015GMTT V0201801N01021006001CN0112001N1+01301+00701100581ADDAA106999929AG12003AY181061GA1031+003909089GA2061+006009059GF107991071081004501999999MA1100511999999MD1210101+9999MW1251REMSYN017333   83813 86620MET006NOSIG?
0091601010999991982011301004+35717-005900FM-15+0015GMTT V0201601N00771006001CN0112001N1+01401+00701999999ADDAG11999GA1031+003909089GA2061+006009059MA1100611999999REMMET006NOSIG?EQDQ01+000000PRSWM2
0096601010999991982011302004+35717-005900FM-15+0015GMTT V0201601N00921006001CN0112001N1+01401+00701999999ADDAG11999GA1041+003909089GA2071+006009059MA1100611999999REMMET01110 # NOSIG?EQDQ01+000000PRSWM2
0159601010999991982011303004+35717-005900SY-MT+0015GMTT V0201601N00921004801CN0112001N1+01301+00701100621ADDAG12000AY101031GA1041+003909089GA2071+004809059GF108991081081004501999999MD1110041+9999MW1021REMSYN017333   84813 87616MET0121006, NOSIG?EQDQ01+000000PRSWM2
0075601010999991982011304004+35717-005900FM-15+0015GMTT V0201601N00511220001CN0112001N1+01201+00601999999ADDAG12999GA1021+003909089MA1100611999999REMMET006NOSIG?EQDQ01+000000PRSWM2
0075601010999991982011305004+35717-005900FM-15+0015GMTT V0201601N00511220001CN0112001N1+01201+00601999999ADDAG12999GA1021+003909089MA1100511999999REMMET006NOSIG?EQDQ01+000000PRSWM2
0186601010999991982011306004+35717-005900SY-MT+0015GMTT V0201001N00511220001CN0112001N1+01001+00701100601ADDAA124006091AG12000AY101061GA1011+004809089GF103991021081004501031001KA1120N+00951MA1100611999999MW1021REMSYN041333   20095 81816 555   00082 10164 33014MET006NOSIG?EQDQ01+000000PRSWM2
0091601010999991982011307004+35717-005900FM-15+0015GMTT V0201201N00511220001CN0112001N1+01001+00701999999ADDAG12999GA1011+003909089GA2031+024009039MA1100611999999REMMET006NOSIG?EQDQ01+000000PRSWM2
0063601010999991982011308004+35717-005900FM-15+0015GMTT V0201001N00411999991CY0099001N1+01001+00701999999ADDAG12999MA1100611999999REMMET010CAVOK NSG?EQDQ01+000000PRSWM2
0144601010999991982011309004+35717-005900SY-MT+0015GMTT V0201001N00511220001CN0112001N1+01001+00701100721ADDAG12000AY101031GA1011+004809089GF103991011081004501031001MA1100711999999MD1210121+9999MW1021REMSYN011333   81816MET004NSG?EQDQ01+000000PRSWM2
0075601010999991982011310004+35717-005900FM-15+0015GMTT V0201001N00511220001CN0112001N1+01301+00701999999ADDAG12999GA1011+004809089MA1100711999999REMMET006NOSIG?EQDQ01+000000PRSWM2
0075601010999991982011311004+35717-005900FM-15+0015GMTT V0201201N00511220001CN0112001N1+01501+00801999999ADDAG12999GA1011+004809089MA1100811999999REMMET006NOSIG?EQDQ01+000000PRSWM2
0178601010999991982011312004+35717-005900SY-MT+0015GMTT V0201401N00411060001CN0112001N1+01601+00801100741ADDAG12000AY101061GA1011+004809089GA2051+060009009GF106991011021004501031021MA1100711999999MD1010031+9999MW1021REMSYN029333   81816 85070 555   00060MET004NSG?EQDQ01+000000PRSWM2
0089601010999991982011313004+35717-005900FM-15+0015GMTT V0201201N00411060001CN0112001N1+01601+00801999999ADDAG12999GA1011+004809089GA2051+060009009MA1100711999999REMMET004NSG?EQDQ01+000000PRSWM2
0091601010999991982011314004+35717-005900FM-15+0015GMTT V0201801N00101060001CN0112001N1+01601+00801999999ADDAG12999GA1011+004809089GA2051+060009009MA1100711999999REMMET006NOSIG?EQDQ01+000000PRSWM2
0166601010999991982011315004+35717-005900SY-MT+0015GMTT V0201201N00101060001CN0112001N1+01601+00801100621ADDAG11000AY101031GA1011+004809089GA2051+060009009GF106991011021004501031021MA1100611999999MD1710121+9999MW1021REMSYN017333   81816 85070MET004NSG?EQDQ01+000000PRSWM2
0076601010999991982011316004+35717-005900FM-15+0015GMTT V0201601N00101060001CN0112001N1+01701+00801999999ADDAG12999GA1021+004809089GA2051+060009009MA1100611999999EQDQ01+000000PRSWM2
0203601010999991982011318004+35717-005900SY-MT+0015GMTT V0201001N00101060001CN0112001N1+01401+01001100641ADDAG12000AY101061GA1021+004809089GA2061+060009009GF107991021021004501041021KA1120M+01691MA1100611999999MD1310011+9999MW1021REMSYN041333   10169 82816 86070 555   00074 20087MET004NSG?EQDQ01+000000PRSWM2
0060601010999991982011319004+35717-005900FM-15+0015GMTT V0209991C00001220001CN0112001N1+01401+01101999999ADDAG12999GA1021+004809089MA1100611999999EQDQ01+000000PRSWM2
0088601010999991982011320004+35717-005900FM-15+0015GMTT V0209991C00001060001CN0112001N1+01401+01101999999ADDAG12999GA1021+004809089GA2061+060009009MA1100611999999REMMET003SG?EQDQ01+000000PRSWM2
0168601010999991982011321004+35717-005900SY-MT+0015GMTT V0201001N00201069001CN0112001N1+01301+01201100671ADDAG11000AY101031GA1031+004809089GA2061+069009009GF108991031021004501001021MA1100611999999MD1610031+9999MW1021REMSYN017333   83816 86070MET006NOSIG?EQDQ01+000000PRSWM2
0091601010999991982011322004+35717-005900FM-15+0015GMTT V0209991C00001069001CN0112001N1+01201+01101999999ADDAG12999GA1031+004809089GA2061+069009009MA1100611999999REMMET006NOSIG?EQDQ01+000000PRSWM2
0091601010999991982011323004+35717-005900FM-15+0015GMTT V0209991C00001069001CN0112001N1+01201+01101999999ADDAG12999GA1031+004809089GA2061+069009009MA1100611999999REMMET006NOSIG?EQDQ01+000000PRSWM2
0180601010999991982011400004+35717-005900SY-MT+0015GMTT V0201001N00101069001CN0112001N1+01101+01001100701ADDAG11000AY101061GA1031+004809089GA2061+069009009GF108991031021004501001021MA1100711999999MD1310031+9999MW1021REMSYN029333   83816 86070 555   00091MET006NOSIG?EQDQ01+000000PRSWM2
0107601010999991982011401004+35717-005900FM-15+0015GMTT V0201001N00201030001CN0112001N1+01201+01101999999ADDAG11999GA1031+004809089GA2031+030009039GA3061+069009009MA1100711999999REMMET006NOSIG?EQDQ01+000000PRSWM2
0091601010999991982011402004+35717-005900FM-15+0015GMTT V0201801N00101030001CN0112001N1+01101+01101999999ADDAG12999GA1041+003909089GA2061+030009039MA1100611999999REMMET006NODIG?EQDQ01+000000PRSWM2
0078601010999991982011403004+35717-005900FM-15+0015GMTT V0209991C00001030001CN0112001N1+01201+01101999999ADDAG12002GA1041+003909089GA2061+030009039MA1100611999999MW1211REMMET006NOSIG?
0091601010999991982011404004+35717-005900FM-15+0015GMTT V0209991C00001030001CN0112001N1+01101+01001999999ADDAG12999GA1041+003909089GA2061+030009039MA1100611999999REMMET006NOSIG?EQDQ01+000000PRSWM2
0091601010999991982011405004+35717-005900FM-15+0015GMTT V0209991C00001030001CN0112001N1+01101+00901999999ADDAG12999GA1041+003909089GA2061+030009039MA1100511999999REMMET006NOSIG?EQDQ01+000000PRSWM2
0230601010999991982011406004+35717-005900SY-MT+0015GMTT V0201601N00201030001CN0112001N1+01101+99999100551ADDAA124000091AG12002AY161061GA1041+003909089GA2061+030009039GF108991041021004501071999KA1120N+01061MD1610131+9999MW1021REMSYN047333   20106 84813 86460 555   00086 10169 33063MET0139 1005 NOSIG?EQDQ01+027323ATOD  Q02+000000PRSWM2
0091601010999991982011407004+35717-005900FM-15+0015GMTT V0201601N00201030001CN0112001N1+01101+00901999999ADDAG12999GA1041+003909089GA2061+030009039MA1100511999999REMMET006NOSIG?EQDQ01+000000PRSWM2
0091601010999991982011408004+35717-005900FM-15+0015GMTT V0201201N00201030001CN0112001N1+01201+00901999999ADDAG12999GA1041+004809089GA2061+030009039MA1100611999999REMMET006NOSIG?EQDQ01+000000PRSWM2
0168601010999991982011409004+35717-005900SY-MT+0015GMTT V0201001N00201030001CN0112001N1+01201+00901100641ADDAG12000AY101031GA1031+004809089GA2061+030009039GF108991031021004501071999MA1100611999999MD1310091+9999MW1021REMSYN017333   83816 86460MET006NOSIG?EQDQ01+000000PRSWM2
0091601010999991982011410004+35717-005900FM-15+0015GMTT V0201201N00101030001CN0112001N1+01201+00901999999ADDAG12999GA1031+004809059GA2061+030009039MA1100611999999REMMET006NOSIG?EQDQ01+000000PRSWM2
0078601010999991982011411004+35717-005900FM-15+0015GMTT V0201001N00101030001CN0112001N1+01201+01001999999ADDAG12999GA1031+004809059GA2071+030009039MA1100711999999MW1611REMMET006NOSIG?
0170601010999991982011412004+35717-005900SY-MT+0015GMTT V0201201N00201030001CN0112001N1+01301+01001100741ADDAA106002091AG12002AY161061GA1031+004809059GA2071+030009039GF108991031021004501071999MA1100711999999MD1110101+9999MW1601REMSYN029333   82816 87460 555   00085MET004NSG?
0091601010999991982011413004+35717-005900FM-15+0015GMTT V0201801N00101030001CN0112001N1+01301+01001999999ADDAG11999GA1031+004809089GA2071+030009049MA1100711999999REMMET006NOSIG?EQDQ01+000000PRSWM2
0091601010999991982011414004+35717-005900FM-15+0015GMTT V0202001N00301027001CN0112001N1+01401+00901999999ADDAG12999GA1031+004809089GA2071+027009049MA1100711999999REMMET006NOSIG?EQDQ01+000000PRSWM2
0122601010999991982011415004+35717-005900FM-12+0015GMTT V0202201N00301030001CN0080001N9+01301+01061100721ADDAG12003AY161031GA1031+004809089GA2071+030009049GF108991031021004501071999MD1510021+9999MW1611REMSYN017333   83816 87460
0078601010999991982011416004+35717-005900FM-15+0015GMTT V0201401N00101030001CN0080001N1+01301+01101999999ADDAG11999GA1031+004809089GA2071+030009039MA1100711999999MW1601REMMET006NOSIG?
0078601010999991982011417004+35717-005900FM-15+0015GMTT V0201001N00201030001CN0080001N1+01301+01101999999ADDAG12999GA1031+004809089GA2071+030009039MA1100711999999MW1601REMMET006NOSIG?
0167601010999991982011418004+35717-005900SY-MT+0015GMTT V0201001N00301030001CN0080001N1+01201+01101100861ADDAA199004091AG12002AY161061GA1041+004809089GA2071+030009039GF108991041021004501071999KA1120M+01531MA1100811999999MD1310141+9999MW1601REMSYN011333   10153MET006NOSIG?
0078601010999991982011419004+35717-005900FM-15+0015GMTT V0201001N00201030001CN0080001N1+01201+01101999999ADDAG12999GA1031+004809089GA2071+030009039MA1100911999999MW1211REMMET006NOSIG?
0076601010999991982011420004+35717-005900FM-15+0015GMTT V0201001N00201030001CN0112001N1+01201+01101999999ADDAG12999GA1031+004809089GA2071+030009039MA1100911999999EQDQ01+000000PRSWM2
0150601010999991982011421004+35717-005900SY-MT+0015GMTT V0201201N00201027001CN0080001N1+01201+01101101071ADDAG12003AY161031GA1041+004809059GA2071+027009039GF108991041051004501071999MA1101021999999MD1310211+9999MW1611REMSYN017333   84616 87459MET007NOSISG?
0091601010999991982011423004+35717-005900FM-15+0015GMTT V0209991C00001027001CN0080001N1+01201+01101999999ADDAG12999GA1041+004809059GA2071+027009039MA1101021999999REMMET006NOSIG?EQDQ01+000000PRSWM2
0179601010999991982011500004+35717-005900SY-MT+0015GMTT V0201601N00251027001CN0080001N1+01201+01101101151ADDAA106004091AG12002AY161061GA1031+004809089GA2061+027009039GF107991031021004501041999MA1101081999999MD1210081+9999MW1011REMSYN017333   83816 86459MET006NOSIG?EQDQ01+000000PRSWM2
0091601010999991982011501004+35717-005900FM-15+0015GMTT V0201601N00411027001CN0080001N1+01201+01101999999ADDAG11999GA1031+004809089GA2061+027009039MA1101081999999REMMET006NOSIG?EQDQ01+000000PRSWM2
0089601010999991982011502004+35717-005900FM-15+0015GMTT V0201601N00511027001CN0080001N1+01201+01101999999ADDAG11999GA1031+004809089GA2061+027009039MA1101081999999REMMET004NSG?EQDQ01+000000PRSWM2
0166601010999991982011503004+35717-005900SY-MT+0015GMTT V0201801N00411027001CN0080001N1+01201+01101101161ADDAG11000AY101031GA1031+004809089GA2061+027009039GF107991031021004501071999MA1101081999999MD1310011+9999MW1021REMSYN017333   83816 86459MET004NSG?EQDQ01+000000PRSWM2
0089601010999991982011504004+35717-005900FM-15+0015GMTT V0201801N00611027001CN0080001N1+01201+01101999999ADDAG11999GA1031+004809089GA2061+027009039MA1101081999999REMMET004NSG?EQDQ01+000000PRSWM2
0091601010999991982011505004+35717-005900FM-15+0015GMTT V0201801N00511027001CN0112001N1+01201+01101999999ADDAG12999GA1031+004809059GA2061+027009039MA1101081999999REMMET006NOSIG?EQDQ01+000000PRSWM2
0222601010999991982011506004+35717-005900SY-MT+0015GMTT V0201001N00611027001CN0112001N1+01301+01001101221ADDAA124008091AG12000AY101061GA1031+004809089GA2061+027009039GF107991031021004501071999KA1120N+01231MA1101191999999MD1210061+9999MW1021REMSYN047333   20123 83816 86459 555   00/// 10153 33000MET006NOSIG?EQDQ01+000000PRSWM2
0107601010999991982011507004+35717-005900FM-15+0015GMTT V0201801N00611027001CN0112001N1+01301+01001999999ADDAG12999GA1031+004809059GA2011+006009099GA3061+027009039MA1101191999999REMMET006NOSIG?EQDQ01+000000PRSWM2
0106601010999991982011508004+35717-005900FM-15+0015GMTT V0201801N00721024001CN0112001N1+01301+01101999999ADDAG12999GA1031+004809089GA2011+006009099GA3061+024009049MA1101291999999REMMET005NOIG?EQDQ01+000000PRSWM2
0168601010999991982011509004+35717-005900SY-MT+0015GMTT V0201801N00611220001CN0112001N1+01301+01101101431ADDAG12000AY101031GA1031+004809089GA2011+006009099GF104991031091004501031001MA1101391999999MD1310211+9999MW1021REMSYN017333   83816 81920MET006NOSIG?EQDQ01+000000PRSWM2
0091601010999991982011510004+35717-005900FM-15+0015GMTT V0201801N00721220001CN0112001N1+01401+01201999999ADDAG12999GA1031+004809089GA2011+006009099MA1101391999999REMMET006NOSIG?EQDQ01+000000PRSWM2
0091601010999991982011511004+35717-005900FM-15+0015GMTT V0201801N00721006001CN0112001N1+01401+01201999999ADDAG12999GA1041+004809089GA2011+006009099MA1101491999999REMMET006NOSIG?EQDQ01+000000PRSWM2
0180601010999991982011512004+35717-005900SY-MT+0015GMTT V0201801N00721004801CN0112001N1+01601+01301101581ADDAG11000AY101061GA1031+003909089GA2031+004809059GF105991051081004501001001MA1101491999999MD1010151+9999MW1021REMSYN029333   83813 83616 555   00082MET006NOSIG?EQDQ01+000000PRSWM2
0089601010999991982011513004+35717-005900FM-15+0015GMTT V0202001N00511004801CN0112001N1+01501+01201999999ADDAG11999GA1031+003909089GA2041+004809059MA1101491999999REMMET004NSG?EQDQ01+000000PRSWM2
0090601010999991982011514004+35717-005900FM-15+0015GMTT V0202001N00511004801CN0112001N1+01501+01201999999ADDAG11999GA1031+003909089GA2051+004809059MA1101491999999REMMET005NOSG?EQDQ01+000000PRSWM2
0090601010999991982011515004+35717-005900FM-15+0015GMTT V0202001N00611004801CN0112001N1+01701+01301999999ADDAG11000GA1041+003909089GA2041+004809059MA1101491999999REMMET005NOSG?EQDQ01+000000PRSWM2
0091601010999991982011517004+35717-005900FM-15+0015GMTT V0202201N00611004801CN0080001N1+01601+01301999999ADDAG11999GA1031+003909089GA2041+004809059GA3021+006009099REMMET0051115?EQDQ01+000000PRSWM2
0222601010999991982011518004+35717-005900SY-MT+0015GMTT V0202201N00411220001CN0080001N1+99999+99999101621ADDAA199999929AG11003AY181061GF107991071091004501999999KA1120M+01701MA1101591999999MD1310121+9999MW1011REMSYN047333   10170 83813 85616 81920 555   00082 20115MET006NOSIG?EQDQ01+027623ATOT  Q02+027323ATOD  Q03+000000PRSWM2
0107601010999991982011519004+35717-005900FM-15+0015GMTT V0201801N00251004801CN0080001N1+01501+01301999999ADDAG11999GA1031+003909089GA2051+004809059GA3011+006009099MA1101591999999REMMET006NOSIG?EQDQ01+000000PRSWM2
0106601010999991982011520004+35717-005900FM-15+0015GMTT V0202001N00411004801CN0080001N1+01401+01301999999ADDAG11999GA1031+003909089GA2041+004809059GA3011+006009099MA1101691999999REMMET005NSIG?EQDQ01+000000PRSWM2
0190601010999991982011521004+35717-005900SY-MT+0015GMTT V0201801N00511004801CN0112001N1+01401+01301101661ADDAG11000AY101031GA1021+003909089GA2031+004809059GA3051+030009049GF107991041081004501071999MA1101591999999MD1010041+9999MW1021REMSYN023333   82813 83616 85460MET006NOSIG?EQDQ01+000000PRSWM2
0108601010999991982011522004+35717-005900FM-15+0015GMTT V0201801N00511004801CN0112001N1+01401+01301999999ADDAG12999GA1021+003909089GA2031+004809059GA3031+004809089GA4051+030009049MA1101591999999EQDQ01+000000PRSWM2
0107601010999991982011523004+35717-005900FM-15+0015GMTT V0201801N00511006001CN0112001N1+01401+01201999999ADDAG12999GA1021+004809089GA2031+006009059GA3051+030009039MA1101691999999REMMET006NOSIG?EQDQ01+000000PRSWM2
0190601010999991982011600004+35717-005900SY-MT+0015GMTT V0201801N00611006001CN0112001N1+01501+01201101701ADDAG11000AY101061GA1021+004809089GA2031+006009059GA3051+030009039GF106991041081004501071001MA1101691999999MD1210041+9999MW1021REMSYN023333   82816 83620 85460MET006NOSIG?EQDQ01+000000PRSWM2
0107601010999991982011601004+35717-005900FM-15+0015GMTT V0201801N00611006001CN0112001N1+01401+01201999999ADDAG11999GA1021+004809089GA2031+006009059GA3051+030009039MA1101591999999REMMET006NOSIG?EQDQ01+000000PRSWM2
0092601010999991982011602004+35717-005900FM-15+0015GMTT V0202001N00511006001CN0112001N1+01401+01201999999ADDAG11999GA1021+000309089GA2031+006009059GA3051+030009039MA1101591999999EQDQ01+000000PRSWM2
0149601010999991982011603004+35717-005900SY-MT+0015GMTT V0201801N00611004801CN0080001N1+01401+01301101601ADDAG12003AY121031GA1051+004809089GA2071+027009039GF107991051021004501071999MA1101591999999MD1610101+9999MW1251REMSYN017333   85816 87459MET006NOSIG?
0091601010999991982011604004+35717-005900FM-15+0015GMTT V0201801N00611004801CN0080001N1+01401+01301999999ADDAG11999GA1051+004809089GA2071+027009039MA1101491999999REMMET006NOSIG?EQDQ01+000000PRSWM2
0091601010999991982011605004+35717-005900FM-15+0015GMTT V0201801N00721004801CN0080001N1+01401+01301999999ADDAG11999GA1051+004809089GA2071+027009039MA1101491999999REMMET006NOSIG?EQDQ01+000000PRSWM2
0203601010999991982011606004+35717-005900SY-MT+0015GMTT V0201801N00721027001CN0080001N1+01301+01101101421ADDAA124002091AG12005AY161061GA1041+004809089GA2071+027009039GF107991041021004501071999KA1120N+01271MA1101391999999MD1810181+9999MW1631REMSYN047333   20127 84816 87459 555   00091 1017/ 33047MET006NOSIG?
0063601010999991982011607004+35717-005900FM-15+0015GMTT V0202001N00721027001CN0080001N1+01301+01101999999ADDAG11999GA1041+004809089GA2071+027009039MA1101391999999MW1211
0079601010999991982011608004+35717-005900FM-15+0015GMTT V0202001N00921004501CN0070001N1+01301+01201999999ADDAG11999GA1041+002409079GA2041+004509089GA3061+024009039MA1101391999999MW1631
0159601010999991982011609004+35717-005900SY-MT+0015GMTT V0202001N00921004501CN0050001N1+01301+01201101531ADDAG12003AY161031GA1041+002409079GA2041+004509089GA3051+024009039GF108991061071002501071999MA1101491999999MD1310091+9999MW1611REMSYN023333   84708 84815 85458
0079601010999991982011610004+35717-005900FM-15+0015GMTT V0202001N00921004501CN0050001N1+01301+01201999999ADDAG11999GA1041+002409079GA2041+004509089GA3051+024009039MA1101491999999MW1611
0107601010999991982011611004+35717-005900FM-15+0015GMTT V0201801N00821004501CN0060001N1+01301+01201999999ADDAG11999GA1041+002409079GA2041+004509089GA3051+024009039MA1101491999999REMMET006NOSIG?EQDQ01+000000PRSWM2
0092601010999991982011612004+35717-005900FM-15+0015GMTT V0201801N00821004501CN0070001N1+01301+01201999999ADDAG11000GA1031+002409079GA2041+004509089GA3051+024009039MA1101391999999EQDQ01+000000PRSWM2
0079601010999991982011613004+35717-005900FM-15+0015GMTT V0201801N00921004501CN0050001N1+01401+01301999999ADDAG11999GA1041+002409079GA2041+004509089GA3051+024009039MA1101391999999MW1611
0092601010999991982011614004+35717-005900FM-15+0015GMTT V0202001N00721004501CN0070001N1+01401+01301999999ADDAG11999GA1041+002409079GA2041+004509089GA3051+024009039MA1101291999999EQDQ01+000000PRSWM2
0171601010999991982011615004+35717-005900SY-MT+0015GMTT V0202001N00611003901CN0060001N1+01301+01201101321ADDAG12003AY161031GA1031+001809079GA2051+003909089GA3021+007809099GF108991061031002501071999MA1101291999999MD1710151+9999MW1801REMSYN023333   83706 85813 82926MET006NOSIG?
0107601010999991982011616004+35717-005900FM-15+0015GMTT V0202001N00721003901CN0070001N1+01301+01201999999ADDAG11999GA1031+001809079GA2051+003909089GA3021+007809099MA1101291999999REMMET006NOSIG?EQDQ01+000000PRSWM2
0107601010999991982011617004+35717-005900FM-15+0015GMTT V0202401N00721006001CN0112001N1+01301+00901999999ADDAG11999GA1031+004509089GA2041+006009059GA3021+006909099MA1101191999999REMMET006NOSIG?EQDQ01+000000PRSWM2
0236601010999991982011618004+35717-005900SY-MT+0015GMTT V0202601N00821006001CN0112001N1+01201+00901101341ADDAA199177091AG11003AY181061GA1031+004509089GA2041+006009059GA3021+006909099GF107991061031004501031999KA1120M+01361MA1101291999999MD1510021+9999MW1021REMSYN047333   10136 83815 84620 82923 555   00079 20120MET004NSG?EQDQ01+000000PRSWM2
0092601010999991982011619004+35717-005900FM-15+0015GMTT V0203001N00721004801CN0080001N1+01101+00901999999ADDAG11999GA1041+003909089GA2051+004809059GA3021+006909099MA1101291999999MW1251REMMET004NSG?
0105601010999991982011620004+35717-005900FM-15+0015GMTT V0203001N00611004801CN0112001N1+01101+00901999999ADDAG11999GA1031+003909089GA2051+004809059GA3021+006909099MA1101291999999REMMET004NSG?EQDQ01+000000PRSWM2
0048601010999991982011620504+35717-005900FM-15+0015GMTT V0202401N00151004501CN0080001N1+99999+99999999999ADDAG11999GA1061+004509089GA2031+006909099MW1951
0155601010999991982011621004+35717-005900SY-MT+0015GMTT V0202401N00151004501CN0080001N1+01101+00701101381ADDAG12008AY181031GA1061+004509089GA2031+006909099GF108991061091004501999999MA1101291999999MD1310081+9999MW1171MW2811REMSYN017333   86815 83923MET006NOSIG?
0079601010999991982011622004+35717-005900FM-15+0015GMTT V0203201N01131004501CN0080001N1+01201+01101999999ADDAG11999GA1051+004509089GA2031+006909099MA1101391999999MW1171REMMET007NOSIGV?
0078601010999991982011623004+35717-005900FM-15+0015GMTT V0203001N00301004501CN0080001N1+01101+01001999999ADDAG11999GA1051+004509089GA2031+006909099MA1101391999999MW1951REMMET006NOSIG?
0172601010999991982011700004+35717-005900SY-MT+0015GMTT V0203201N00611004501CN0080001N1+01201+00901101421ADDAA106082091AG12008AY191061GA1051+004509089GA2031+006909099GF108991081091004501999999MA1101391999999MD1110041+9999MW1171REMSYN029333   85815 83923 555   00083MET006NOSIG?
0091601010999991982011701004+35717-005900FM-15+0015GMTT V0209991C00001004501CN0080001N1+01101+00901999999ADDAG11999GA1051+004509089GA2031+006909099MA1101391999999REMMET006NOSIG?EQDQ01+000000PRSWM2
0046601010999991982011702004+35717-005900FM-15+0015GMTT V0203401N00511220001CN0080001N1+01101+00801999999ADDAG11999MA1101391999999MW1171REMMET006NOSIG?
0078601010999991982011703004+35717-005900FM-15+0015GMTT V0203401N00411004501CN0080001N1+01001+00901999999ADDAG11007GA1051+004509089GA2031+006909099MA1101391999999MW1291REMMET006NOSIG?
0083601010999991982011704004+35717-005900FM-15+0015GMTT V0202401N00301000301CN0080001N1+01001+99999999999ADDAG11999GA1051+000309089GA2031+006909099REMMET013091014 NOSIG?EQDQ01+000000PRSWM2
0078601010999991982011705004+35717-005900FM-15+0015GMTT V0209991C00001004501CN0080001N1+00901+00801999999ADDAG11999GA1051+004509089GA2031+006909099MA1101391999999MW1951REMMET006NOSIG?
0148601010999991982011706004+35717-005900SY-MT+0015GMTT V0201801N00721004501CN0080001N1+00901+00801999999ADDAA124040091AG12000GA1051+004509089GA2031+006909099GF108991081091004501999999MA1101491999999MD1310081+9999MW1951REMMET006NOSIG?EQDQ01+105203APOSLP
0078601010999991982011707004+35717-005900FM-15+0015GMTT V0201601N00721004501CN0080001N1+00901+00801999999ADDAG11999GA1051+004509089GA2031+006909099MA1101491999999MW1171REMMET006NOSIG?
0063601010999991982011708004+35717-005900FM-15+0015GMTT V0201801N00411006901CN0080001N1+00901+00801999999ADDAG11999GA1041+004509089GA2031+006909099MA1101491999999MW1171
0188601010999991982011709004+35717-005900SY-MT+0015GMTT V0201801N00511004801CN0112001N1+00901+00701101591ADDAG12008AY191031GA1021+003909089GA2031+004809059GA3011+007509099GF106991061091004501001001MA1101491999999MD1210071+9999MW1011REMSYN023333   82813 83616 81925MET004NSG?EQDQ01+000000PRSWM2
0089601010999991982011711004+35717-005900FM-15+0015GMTT V0202201N00511006001CN0112001N1+01101+00901999999ADDAG11999GA1031+004509089GA2031+006009059MA1101591999999REMMET004NSG?EQDQ01+000000PRSWM2
0179601010999991982011712004+35717-005900SY-MT+0015GMTT V0202001N00821006001CN0112001N1+01301+00901101751ADDAA106000591AG12008AY191061GA1031+004509089GA2041+006009059GF106991051081004501031001MA1101691999999MD1310161+9999MW1011REMSYN029333   83815 84620 555   00077EQDQ01+000000PRSWM2
0092601010999991982011713004+35717-005900FM-15+0015GMTT V0202001N00611004801CN0112001N1+01301+00901999999ADDAG11999GA1031+003909089GA2051+004809059GA3011+006909099MA1101691999999EQDQ01+000000PRSWM2
0094601010999991982011714004+35717-005900FM-15+0015GMTT V0202201N00721004801CN0112001N1+01201+00901999999ADDAG11999GA1031+003909089GA2051+004809059GA3011+006909099MA1101691999999MW1251REMMET006NOSIG?
0152601010999991982011715004+35717-005900SY-MT+0015GMTT V0202201N00611004801CN0112001N1+01231+00921101711ADDAG12003AY181031GA1031+003909089GA2031+004809059GA3011+006909099GF106991061091004501001001MA1101691999999MW1011REMSYN011333   82813EQDQ01+000000PRSWM2
0092601010999991982011716004+35717-005900FM-15+0015GMTT V0202201N00611004801CN0112001N1+01201+00901999999ADDAG11999GA1031+003909089GA2031+004809059GA3011+007809099MA1101691999999EQDQ01+000000PRSWM2
0076601010999991982011717004+35717-005900FM-15+0015GMTT V0202201N00301004801CN0112001N1+01201+00901999999ADDAG11999GA1021+003909089GA2031+004809059MA1101691999999EQDQ01+000000PRSWM2
0198601010999991982011718004+35717-005900SY-MT+0015GMTT V0202001N00201004801CN0112001N1+01201+01001101831ADDAA199000591AG13000AY101061GA1021+003909089GA2031+004809059GF105991051081004501001001KA1120M+01311MA1101801999999MD1310121+9999MW1021REMSYN023333   10131 82813 83616MET006NOSIG?EQDQ01+000000PRSWM2
0076601010999991982011719004+35717-005900FM-15+0015GMTT V0202001N00201004801CN0112001N1+01201+01001999999ADDAG11999GA1021+003909089GA2031+004809059MA1101801999999EQDQ01+000000PRSWM2
0076601010999991982011720004+35717-005900FM-15+0015GMTT V0202001N00201004801CN0112001N1+01101+01001999999ADDAG11999GA1021+003909089GA2031+004809059MA1101801999999EQDQ01+000000PRSWM2
0134601010999991982011721004+35717-005900SY-MT+0015GMTT V0201601N00251036001CN0112001N1+00981+00771102071ADDAG11000AY101031GA1021+003909089GF106991041081004501031001MD1210241+9999MW1021REMSYN017333   82813 83616MET0033S?EQDQ01+000000PRSWM2
0091601010999991982011722004+35717-005900FM-15+0015GMTT V0202001N00301004801CN0112001N1+00901+00801999999ADDAG11999GA1021+003909089GA2031+004809059MA1102001999999REMMET006NOSIG?EQDQ01+000000PRSWM2
0091601010999991982011723004+35717-005900FM-15+0015GMTT V0201801N00201004801CN0112001N1+00901+00801999999ADDAG11999GA1021+003909089GA2031+004809059MA1102101999999REMMET006NOSIG?EQDQ01+000000PRSWM2
0180601010999991982011800004+35717-005900SY-MT+0015GMTT V0201801N00411004801CN0112001N1+01001+00801102181ADDAG11000AY101061GA1021+003909089GA2031+004809059GF106991031081004501031001MA1102101999999MD1210111+9999MW1021REMSYN029333   81813 82616 555   00083MET006NOSIG?EQDQ01+000000PRSWM2
0092601010999991982011802004+35717-005900FM-15+0015GMTT V0202001N00511004801CN0112001N1+01101+00901999999ADDAG11999GA1031+003909089GA2031+004809059GA3051+024009039MA1102101999999EQDQ01+000000PRSWM2
0156601010999991982011803004+35717-005900SY-MT+0015GMTT V0201801N00511004801CN0112001N1+01101+00701102191ADDAG12000AY101031GA1031+003909089GA2041+004809059GF106991051081004501031001MA1102101999999MD1010011+9999MW1021REMSYN017333   83813 84616EQDQ01+000000PRSWM2
0076601010999991982011804004+35717-005900FM-15+0015GMTT V0202001N00511004801CN0112001N1+01101+00801999999ADDAG12999GA1031+003909089GA2041+004809059MA1102101999999EQDQ01+000000PRSWM2
0076601010999991982011805004+35717-005900FM-15+0015GMTT V0201801N00511004801CN0112001N1+01101+00801999999ADDAG12999GA1031+003909089GA2051+004809059MA1102201999999EQDQ01+000000PRSWM2
0076601010999991982011806004+35717-005900FM-15+0015GMTT V0201801N00511004801CN0112001N1+01101+00701999999ADDAG12000GA1031+003909089GA2051+004809059MA1102201999999EQDQ01+000000PRSWM2
0077601010999991982011807004+35717-005900FM-15+0015GMTT V0201801N00611004801CN0112001N1+01101+99999999999ADDAG12999GA1031+003909089GA2051+004809059REMMET0077,1022?EQDQ01+000000PRSWM2
0076601010999991982011808004+35717-005900FM-15+0015GMTT V0201801N00461004801CN0112001N1+01101+00701999999ADDAG12999GA1031+003909089GA2051+004809059MA1102201999999EQDQ01+000000PRSWM2
0156601010999991982011809004+35717-005900SY-MT+0015GMTT V0201801N00511004801CN0112001N1+01101+00801102261ADDAG12000AY101031GA1031+003909089GA2051+004809059GF107991061081004501031999MA1102201999999MD1310061+9999MW1021REMSYN017333   83813 85616EQDQ01+000000PRSWM2
0091601010999991982011810004+35717-005900FM-15+0015GMTT V0202001N00411004801CN0112001N1+01201+00801999999ADDAG12999GA1031+003909089GA2051+004809059MA1102201999999REMMET006NOSIG?EQDQ01+000000PRSWM2
0091601010999991982011811004+35717-005900FM-15+0015GMTT V0202001N01131004801CN0112001N1+01301+01001999999ADDAG12999GA1031+003909089GA2051+004809059MA1102201999999REMMET006NOSIG?EQDQ01+000000PRSWM2
0180601010999991982011812004+35717-005900SY-MT+0015GMTT V0201801N00721004801CN0112001N1+01301+00901102301ADDAG11000AY101061GA1021+003909089GA2051+004809059GF107991061081004501031999MA1102301999999MD1310041+9999MW1021REMSYN029333   82813 85616 555   85616MET006NOSIG?EQDQ01+000000PRSWM2
0091601010999991982011813004+35717-005900FM-15+0015GMTT V0201801N00611004801CN0112001N1+01401+00901999999ADDAG11999GA1021+003909089GA2051+004809089MA1102201999999REMMET006NOSIG?EQDQ01+000000PRSWM2
0091601010999991982011814004+35717-005900FM-15+0015GMTT V0202001N00511004801CN0112001N1+01501+01001999999ADDAG11999GA1031+003909089GA2051+004809059MA1102101999999REMMET006NOSIG?EQDQ01+000000PRSWM2
0168601010999991982011815004+35717-005900SY-MT+0015GMTT V0202201N00611004801CN0112001N1+01501+01001102161ADDAG11000AY101031GA1031+003909089GA2051+004809059GF107991061081004501001021MA1102101999999MD1610141+9999MW1021REMSYN017333   83813 85616MET006NOSIG?EQDQ01+000000PRSWM2
0089601010999991982011816004+35717-005900FM-15+0015GMTT V0202201N00511004801CN0112001N1+01501+00901999999ADDAG11999GA1021+003909089GA2041+004809059MA1102101999999REMMET004NSG?EQDQ01+000000PRSWM2
0121601010999991982011817004+35717-005900FM-15+0015GMTT V0202201N00411027001CN9999999N9+01401+00901999999ADDAG11999GA1011+003909089GA2031+004809059GA3051+027009039MA1102101999999REMMET004NSG?EQDQ01+000002VOVAR Q02+000000PRSWM2
0227601010999991982011818004+35717-005900SY-MT+0015GMTT V0202001N00201027001CN0112001N1+01301+01001102181ADDAG11000AY101061GA1011+003909089GA2031+004809059GA3051+027009039GF107991031081004501071021KA1120M+01531MA1102101999999MD1010021+9999MW1021REMSYN047333   10153 81813 83616 85459 555   00080 20098MET006NOSIG?EQDQ01+000000PRSWM2
0107601010999991982011819004+35717-005900FM-15+0015GMTT V0201401N00151027001CN0112001N1+01301+01001999999ADDAG11999GA1011+003909089GA2031+004809059GA3051+027009039MA1102201999999REMMET006NOSIG?EQDQ01+000000PRSWM2
0107601010999991982011820004+35717-005900FM-15+0015GMTT V0201201N00101027001CN0112001N1+01201+01001999999ADDAG11999GA1011+003909089GA2031+004809059GA3051+027009039MA1102201999999REMMET006NOSIG?EQDQ01+000000PRSWM2
0178601010999991982011821004+35717-005900SY-MT+0015GMTT V0201201N00201027001CN0112001N1+01201+01001102191ADDAG11000AY101031GA1011+003909089GA2031+004809059GA3051+027009039GF107991031081004501071021MA1102101999999MD1010011+9999MW1021REMSYN023333   81813 83616 85359EQDQ01+000000PRSWM2
0092601010999991982011822004+35717-005900FM-15+0015GMTT V0201401N00201027001CN0112001N1+01101+01001999999ADDAG11999GA1011+003909089GA2031+004809059GA3051+027009039MA1102101999999EQDQ01+000000PRSWM2
0092601010999991982011823004+35717-005900FM-15+0015GMTT V0201401N00201030001CN0112001N1+01101+01001999999ADDAG11999GA1011+003909089GA2031+004809059GA3051+030009039MA1102101999999EQDQ01+000000PRSWM2
0174601010999991982011900004+35717-005900SY-MT+0015GMTT V0201001N00201027001CN0112001N1+01101+00901102191ADDAG11000AY101061GA1031+004809059GA2051+027009039GF107991051081004501071999MA1102101999999MD1410001+9999MW1021REMSYN035333   83813 83616 85459 555   00091EQDQ01+000000PRSWM2
0092601010999991982011901004+35717-005900FM-15+0015GMTT V0201001N00201004801CN0112001N1+01101+00901999999ADDAG11999GA1031+003909089GA2031+004809059GA3051+027009039MA1102101999999EQDQ01+000000PRSWM2
0092601010999991982011902004+35717-005900FM-15+0015GMTT V0201001N00201004801CN0112001N1+01001+00901999999ADDAG11999GA1031+003909089GA2031+004809059GA3061+027009039MA1102101999999EQDQ01+000000PRSWM2
0156601010999991982011903004+35717-005900SY-MT+0015GMTT V0201001N00411220001CN0112001N1+00901+00801102061ADDAG12000AY101031GA1011+003909089GA2031+027009039GF104991021081004501071001MA1102001999999MD1810131+9999MW1021REMSYN017333   81813 83459EQDQ01+000000PRSWM2
0089601010999991982011904004+35717-005900FM-15+0015GMTT V0201001N00411220001CN0112001N1+00901+00801999999ADDAG11999GA1011+003909089GA2031+027009039MA1102001999999REMMET004NSG?EQDQ01+000000PRSWM2
0091601010999991982011905004+35717-005900FM-15+0015GMTT V0201001N00511220001CN0112001N1+00901+00801999999ADDAG11999GA1011+003909089GA2041+027009039MA1102001999999REMMET006NOSIG?EQDQ01+000000PRSWM2
0187601010999991982011906004+35717-005900SY-MT+0015GMTT V0201001N00511220001CN0112001N1+00901+00701102091ADDAG11000AY101061GA1011+003909089GA2031+027009039GF103991011021004501031001KA1120N+00821MA1102001999999MD1810031+9999MW1021REMSYN023333   20082 81813 83359MET006NOSIG?EQDQ01+000000PRSWM2
0107601010999991982011907004+35717-005900FM-15+0015GMTT V0201001N00411069001CN0112001N1+01001+00801999999ADDAG11999GA1011+003909089GA2031+027009039GA3051+069009009MA1102001999999REMMET006NOSIG?EQDQ01+000000PRSWM2
0105601010999991982011908004+35717-005900FM-15+0015GMTT V0201001N00411069001CN0112001N1+01001+00701999999ADDAG11999GA1011+003909089GA2031+027009039GA3051+069009009MA1102001999999REMMET004NSG?EQDQ01+000000PRSWM2
0188601010999991982011909004+35717-005900SY-MT+0015GMTT V0201001N00301069001CN0112001N1+01001+00801102061ADDAG11000AY101031GA1011+003909089GA2041+027009039GA3051+069009009GF107991011021004501031021MA1102001999999MD1310031+9999MW1021REMSYN023333   81813 84359 85073MET004NSG?EQDQ01+000000PRSWM2
0091601010999991982011910004+35717-005900FM-15+0015GMTT V0201001N00201027001CN0112001N1+01201+00901999999ADDAG11999GA1011+003909089GA2061+027009039MA1102101999999REMMET006NOSIG?EQDQ01+000000PRSWM2
0091601010999991982011911004+35717-005900FM-15+0015GMTT V0202001N00511027001CN0112001N1+01301+00801999999ADDAG11999GA1011+004809059GA2061+027009039MA1102101999999REMMET006NOSIG?EQDQ01+000000PRSWM2
0172601010999991982011912004+35717-005900SY-MT+0015GMTT V0201801N00611027001CN0112001N1+01301+00901102161ADDAA106999929AG12002AY161061GA1011+003909089GA2071+027009049GF108991021081004501071021MA1102101999999MD1010101+9999MW1211REMSYN029333   81813 87459 555   00085MET006NOSIG?
0091601010999991982011913004+35717-005900FM-15+0015GMTT V0201801N00771027001CN0112001N1+01301+00901999999ADDAG11999GA1011+003909089GA2071+027009049MA1102101999999REMMET006NOSIG?EQDQ01+000000PRSWM2
0092601010999991982011914004+35717-005900FM-15+0015GMTT V0201801N00511004801CN0080001N1+01401+00901999999ADDAG11999GA1031+002409079GA2031+004809089GA3061+024009049MA1102101999999EQDQ01+000000PRSWM2
0139601010999991982011915004+35717-005900SY-MT+0015GMTT V0201801N00721024001CN0080001N1+01301+00901102121ADDAG12000AY161031GA1021+002409079GA2061+024009049GF108991041071002501071999MD1810041+9999MW1581REMSYN023333   82708 84816 86458MET0051221?
0094601010999991982011917004+35717-005900FM-15+0015GMTT V0201801N00721003901CN0080001N1+01201+01001999999ADDAG12999GA1021+002409079GA2031+003909089GA3051+004809059MA1102101999999MW1601REMMET006NOSIG?
0174601010999991982011918004+35717-005900FM-12+0015GMTT V0201801N00901003901CN0080001N9+01131+00951102191ADDAA199000391AG10002AY161061GA1021+002409079GA2031+003909089GA3051+004809059GF107991061081002501071999KA1120M+01351MD1310071+9999MW1211REMSYN029333   10135 82708 83813 85616
0091601010999991982011920004+35717-005900FM-15+0015GMTT V0201801N00611004801CN0112001N1+01101+01001999999ADDAG12999GA1031+003909089GA2041+004809059MA1102201999999REMMET006NOSIG?EQDQ01+000000PRSWM2
0138601010999991982011921004+35717-005900SY-MT+0015GMTT V0201801N00661220001CN0112001N1+01101+00901102301ADDAG12003AY181031GA1041+003909089GF104991041021004501001001MA1102301999999MD1310111+9999MW1011REMSYN003333MET006NOSIG?EQDQ01+000000PRSWM2
0075601010999991982011922004+35717-005900FM-15+0015GMTT V0201801N00611220001CN0112001N1+01101+00901999999ADDAG12999GA1041+003909089MA1102301999999REMMET006NOSIG?EQDQ01+000000PRSWM2
0075601010999991982011923004+35717-005900FM-15+0015GMTT V0201801N00611220001CN0112001N1+01101+00901999999ADDAG12999GA1041+003909089MA1102301999999REMMET006NOSIG?EQDQ01+000000PRSWM2
0157601010999991982012000004+35717-005900SY-MT+0015GMTT V0201801N00561220001CN0112001N1+01101+00901102401ADDAA106000091AG12003AY181061GA1041+003909089GF104991041021004501001001MA1102401999999MD1110101+9999MW1021REMSYN011333   84813MET006NOSIG?EQDQ01+000000PRSWM2
0062601010999991982012001004+35717-005900FM-15+0015GMTT V0201801N00561003901CN0112001N1+01201+00901999999ADDAG11999GA1061+003909089MA1102401999999MW1801REMMET006NOSIG?
0075601010999991982012002004+35717-005900FM-15+0015GMTT V0201801N00561003901CN0112001N1+01201+00901999999ADDAG11999GA1061+003909089MA1102401999999REMMET006NOSIG?EQDQ01+000000PRSWM2
0078601010999991982012003004+35717-005900FM-15+0015GMTT V0202201N00411003901CN0080001N1+01101+00901999999ADDAG11002GA1031+003009079GA2061+003909089MA1102401999999MW1601REMMET006NOSIG?
0078601010999991982012004004+35717-005900FM-15+0015GMTT V0202201N00411003901CN0080001N1+01101+00901999999ADDAG11999GA1031+003009079GA2061+003909089MA1102401999999MW1211REMMET006NOSIG?
0089601010999991982012005004+35717-005900FM-15+0015GMTT V0202001N00251220001CN0112001N1+01001+00801999999ADDAG11999GA1011+003009079GA2041+003909089MA1102401999999REMMET004NSG?EQDQ01+000000PRSWM2
0082601010999991982012006004+35717-005900FM-15+0015GMTT V0202001N00301003901CN0112001N1+01101+99999999999ADDAG11000GA1011+003009079GA2051+003909089REMMET012QP QPWR NSG?EQDQ01+000000PRSWM2
0089601010999991982012007004+35717-005900FM-15+0015GMTT V0202001N00201003901CN0112001N1+01101+01001999999ADDAG11999GA1011+003009079GA2051+003909089MA1102401999999REMMET004NSG?EQDQ01+000000PRSWM2
0075601010999991982012008004+35717-005900FM-15+0015GMTT V0202001N00101003901CN0112001N1+01101+01001999999ADDAG11999GA1061+003909089MA1102611999999REMMET006NOSIG?EQDQ01+000000PRSWM2
0075601010999991982012010004+35717-005900FM-15+0015GMTT V0201801N00101003901CN0112001N1+01201+01001999999ADDAG11999GA1071+003909089MA1102711999999REMMET006NOSIG?EQDQ01+000000PRSWM2
0190601010999991982012012004+35717-005900SY-MT+0015GMTT V0203601N00301004801CN0112001N1+01501+01101102801ADDAG12000AY101061GA1031+003909089GA2041+004809059GA3011+006009099GF107991071031004501999999MA1102811999999MD1010051+9999MW1021REMSYN035333   83813 84616 81920 555   00078EQDQ01+000000PRSWM2
0092601010999991982012013004+35717-005900FM-15+0015GMTT V0203601N00301004801CN0112001N1+01501+01101999999ADDAG11999GA1031+003909089GA2031+004809059GA3011+006009099MA1102711999999EQDQ01+000000PRSWM2
0092601010999991982012014004+35717-005900FM-15+0015GMTT V0203401N00301004801CN0112001N1+01501+01101999999ADDAG12999GA1031+003909089GA2031+004809059GA3011+006009099MA1102711999999EQDQ01+000000PRSWM2
0105601010999991982012015004+35717-005900FM-15+0015GMTT V0203401N00301004801CN0112001N1+01501+01101999999ADDAG11000GA1031+003909089GA2031+004809059GA3011+006009099MA1102711999999REMMET004NSG?EQDQ01+000000PRSWM2
0076601010999991982012016004+35717-005900FM-15+0015GMTT V0203401N00301220001CN0112001N1+01501+01001999999ADDAG11999GA1031+003909089GA2011+004809099MA1102711999999EQDQ01+000000PRSWM2
0092601010999991982012017004+35717-005900FM-15+0015GMTT V0203001N00301004801CN0112001N1+01501+01001999999ADDAG11999GA1031+003909089GA2031+004809059GA3011+006009099MA1102711999999EQDQ01+000000PRSWM2
0205601010999991982012018004+35717-005900SY-MT+0015GMTT V0203001N00101220001CN0112001N1+01301+01001102841ADDAG12000AY101061GA1021+003909089GA2031+004809059GF104991031081004501001021KA1120M+01481MA1102811999999MD1310081+9999MW1021REMSYN041333   10148 82813 83616 555   00081 20101MET006NOSIG?EQDQ01+000000PRSWM2
0091601010999991982012019004+35717-005900FM-15+0015GMTT V0203001N00101220001CN0112001N1+01301+01001999999ADDAG12999GA1011+003909089GA2031+004809059MA1102811999999REMMET006NOSIG?EQDQ01+000000PRSWM2
0075601010999991982012020004+35717-005900FM-15+0015GMTT V0203001N00201220001CN0112001N1+01201+01001999999ADDAG12999GA1011+003909089MA1102811999999REMMET006NOSIG?EQDQ01+000000PRSWM2
0100601010999991982012021004+35717-005900FM-12+0015GMTT V0203001N00201220001CN0100001N9+00981+00881102961ADDAG12000AY101031GA1011+003909089GF102991021081004501001001MD1210111+9999MW1021REMSYN011333   81813
0058601010999991982012023004+35717-005900FM-15+0015GMTT V0203401N00251999991CY0099001N1+01001+00901999999ADDAG12999MA1103011999999REMMET005CAVOKEQDQ01+000000PRSWM2
0129601010999991982012100004+35717-005900SY-MT+0015GMTT V0201201N00151220001CN0099001N1+00901+00801102991ADDAG11000AY101061GF100991001001999999001001MA1102911999999MD1110031+9999MW1021REMSYN011555   00093MET005CAVOKEQDQ01+000000PRSWM2
0058601010999991982012101004+35717-005900FM-15+0015GMTT V0201201N00151999991CY0099001N1+00901+00801999999ADDAG11999MA1102911999999REMMET005CAVOKEQDQ01+000000PRSWM2
0065601010999991982012102004+35717-005900FM-15+0015GMTT V0201001N00151999991CY0099001N1+00901+00701999999ADDAG11999MA1102911999999REMMET012CAVOK NOSIG?EQDQ01+000000PRSWM2
0064601010999991982012103004+35717-005900FM-12+0015GMTT V0201001N00201220001CN0100001N9+00851+00791102961ADDAG12000AY101031GF100991001001999999001001MD1710031+9999MW1021
0058601010999991982012105004+35717-005900FM-15+0015GMTT V0201201N00151999991CY0099001N1+00801+00701999999ADDAG12999MA1102911999999REMMET005CAVOKEQDQ01+000000PRSWM2
0195601010999991982012106004+35717-005900SY-MT+0015GMTT V0201201N00251220001CN0099001N1+00701+00601102931ADDAG12000AY101061GA1021+069009009GF102991001001999999001021KA1120N+00681MA1102911999999MD1510031+9999MW1021REMSYN041333   20068 82073 555   00094 10146 33071MET012CAVOK NOSIG?EQDQ01+000000PRSWM2
0065601010999991982012107004+35717-005900FM-15+0015GMTT V0201201N00151999991CY0099001N1+00701+00601999999ADDAG12999MA1102911999999REMMET012CAVOK NOSIG?EQDQ01+000000PRSWM2
0075601010999991982012108004+35717-005900FM-15+0015GMTT V0201201N00201220001CN0112001N1+00701+00601999999ADDAG12999GA1021+003909089MA1102911999999REMMET006NOSIG?EQDQ01+000000PRSWM2
0146601010999991982012109004+35717-005900SY-MT+0015GMTT V0201001N00301220001CN0112001N1+00901+00801103001ADDAG11000AY101031GA1021+003909089GF102991021021004501001001MA1103011999999MD1310071+9999MW1021REMSYN011333   82813MET006NOSIG?EQDQ01+000000PRSWM2
0073601010999991982012110004+35717-005900FM-15+0015GMTT V0201201N00101220001CN0112001N1+01201+01001999999ADDAG12999GA1021+003909089MA1103011999999REMMET004NSG?EQDQ01+000000PRSWM2
0146601010999991982012112004+35717-005900SY-MT+0015GMTT V0202601N00411220001CN0112001N1+01501+01201103151ADDAG12000AY101061GA1021+003909089GF102991021021004501001001MA1103121999999MD1210161+9999MW1021REMSYN023333   82813 555   00079EQDQ01+000000PRSWM2
0060601010999991982012113004+35717-005900FM-15+0015GMTT V0203001N00301220001CN0112001N1+01501+01201999999ADDAG12999GA1021+003909089MA1103011999999EQDQ01+000000PRSWM2
