0182601010999991994010100004+35733-005900SY-MT+0021GMTT V0202401N00411220001CN0080001N1+01321+01081103121ADDAA106000091AG11000GA1021+003009999GA2071+004809999GF199999041051004501001001MA1103121999999MD1210091+9999REMSYN016 333 82710 83616MET008NEW NOSIEQDQ01+000042SCOTCVQ02+000000PRSWM2
0073601010999991994010100304+35733-005900FM-16+0021GMTT V0202401N00411220001CN0080001N1+99999+99999999999ADDAG11000GA1021+003009999GA2021+003009999REMMET003NEWEQDQ01+000000PRSWM2
0093601010999991994010101004+35733-005900FM-15+0021GMTT V0202201N00261220001CN0080001N1+01301+01101999999ADDAG11999GA1021+003009999GA2021+004809999MA1103121999999REMMET008NEW NOSIEQDQ01+000000PRSWM2
0093601010999991994010102004+35733-005900FM-15+0021GMTT V0202001N00311004801CN0080001N1+01301+01101999999ADDAG11999GA1021+003009999GA2071+004809999MA1103121999999REMMET008NEW NOSIEQDQ01+000000PRSWM2
0166601010999991994010103004+35733-005900SY-MT+0021GMTT V0202201N00261004801CN0080001N1+01431+01191103111ADDAA106000091AG11000GA1021+003009999GA2071+004809999GF107991071051004501999999MA1103121999999MD1510011+9999REMSYN016 333 83710 87616MET008NEW NOSIEQDQ01+000000PRSWM2
0093601010999991994010103304+35733-005900FM-15+0021GMTT V0202201N00261004801CN0080001N1+01401+01201999999ADDAG11999GA1021+003009999GA2071+004809999MA1103121999999REMMET008NEW NOSIEQDQ01+000000PRSWM2
0093601010999991994010105004+35733-005900FM-15+0021GMTT V0203201N00511004801CN0080001N1+01401+01301999999ADDAG11999GA1021+003009999GA2071+004809999MA1103121999999REMMET008NEW NOSIEQDQ01+000000PRSWM2
0185601010999991994010106004+35733-005900SY-MT+0021GMTT V0203201N00511004801CN0080001N1+01461+01201103101ADDAA106000091AG11000GA1021+003009999GA2071+004809999GF107991071051004501999999KA1120N+01331MA1103121999999MD1810011+9999REMSYN022 333 20133 83710 87616MET008NEW NOSIEQDQ01+000000PRSWM2
0093601010999991994010106304+35733-005900FM-15+0021GMTT V0203201N00411004801CN0080001N1+01501+01201999999ADDAG11999GA1021+003009999GA2071+004809999MA1103121999999REMMET008NEW NOSIEQDQ01+000000PRSWM2
0093601010999991994010107304+35733-005900FM-15+0021GMTT V0203401N00261004801CN0080001N1+01401+01201999999ADDAG11999GA1021+003009999GA2071+004809999MA1103121999999REMMET008NEW NOSIEQDQ01+000000PRSWM2
0092601010999991994010108304+35733-005900FM-16+0021GMTT V0203401N00311004801CN0080001N1+99999+99999999999ADDAG11999GA1021+003009999GA2071+004809999MA1103121999999REMMET007NEW NSGEQDQ01+000000PRSWM2
0109601010999991994010109004+35733-005900SY-MT+0021GMTT V0209991C00001004801CN0100001N9+01371+01211103201ADDAA106000091AG14000GA1071+004809999GF107991071051004501999999MD1310101+9999REMSYN010 333 87616MET007NEW NSG
0076601010999991994010109304+35733-005900FM-15+0021GMTT V0209991C00001004801CN0112651N1+01401+01201999999ADDAG11999GA1071+004809999MA1103181999999REMMET007NEW NSGEQDQ01+000000PRSWM2
0076601010999991994010110304+35733-005900FM-15+0021GMTT V0209991C00001004801CN0112651N1+01501+01201999999ADDAG11999GA1071+004809999MA1103181999999REMMET007NEW NSGEQDQ01+000000PRSWM2
0159601010999991994010112004+35733-005900SY-MT+0021GMTT V0203001N00311220001CN0100001N1+01701+01041103191ADDAA106000091AG11000GA1071+004809999GF199999041051004501001001MA1103181999999MD1010011+9999REMSYN010 333 84616MET007NEW NSGEQDQ01+000042SCOTCVQ02+000000PRSWM2
0072601010999991994010112304+35733-005900FM-15+0021GMTT V0203001N00311220001CN0112651N1+01701+01001999999ADDAG11999GA1021+004809999MA1103121999999REMMET003NEWEQDQ01+000000PRSWM2
0073601010999991994010113304+35733-005900FM-15+0021GMTT V0203001N00261220001CN0112651N1+01701+00202999999ADDAG11999GA1021+004809999REMMET019NEW EEE 17/12 Q1031EQDQ01+000000PRSWM2
0143601010999991994010115004+35733-005900SY-MT+0021GMTT V0203001N00261220001CN0100001N1+01671+01111103061ADDAA106000091AG11000GA1021+004809999GF104991031051004501001021MA1103121999999MD1710131+9999REMSYN010 333 83616MET007NEW NSGEQDQ01+000000PRSWM2
0076601010999991994010115304+35733-005900FM-15+0021GMTT V0203001N00311220001CN0112651N1+01701+01101999999ADDAG11999GA1021+004809999MA1103011999999REMMET007NEW NSGEQDQ01+000000PRSWM2
0076601010999991994010116304+35733-005900FM-15+0021GMTT V0203001N00211220001CN0112651N1+01601+01101999999ADDAG11999GA1021+004809999MA1103011999999REMMET007NEW NSGEQDQ01+000000PRSWM2
0168601010999991994010118004+35733-005900SY-MT+0021GMTT V0203001N00511220001CN0100001N1+01351+01071103101ADDAA106000091AG11000GA1011+004809059GF103991011051004501001021KA1120M+01711MA1103011999999MD1310041+9999REMSYN016 333 10171 81616MET013NEW CAVOK NSGEQDQ01+000000PRSWM2
0076601010999991994010119004+35733-005900FM-15+0021GMTT V0203001N00411220001CN0112651N1+01301+01101999999ADDAG11999GA1021+004809999MA1103011999999REMMET007NEW NSGEQDQ01+000000PRSWM2
0073601010999991994010119304+35733-005900FM-15+0021GMTT V0203001N00411220001CN0112651N1+99999+99999999999ADDAG11999GA1021+004809999REMMET019NEW EEE 13/11 Q1030EQDQ01+000000PRSWM2
0143601010999991994010121004+35733-005900SY-MT+0021GMTT V0203201N00211220001CN0100001N1+00981+00821103131ADDAA106000091AG11000GA1021+004809999GF103991021051004501001021MA1103121999999MD1310021+9999REMSYN010 333 82616MET007NEW NSGEQDQ01+000000PRSWM2
0072601010999991994010122004+35733-005900FM-15+0021GMTT V0203201N00211220001CN0112651N1+01001+00801999999ADDAG11999GA1021+004809999MA1103121999999REMMET003NEWEQDQ01+000000PRSWM2
0076601010999991994010122304+35733-005900FM-15+0021GMTT V0203201N00211220001CN0112651N1+01001+00801999999ADDAG11999GA1021+004809999MA1103121999999REMMET007NEW NSGEQDQ01+000000PRSWM2
0143601010999991994010200004+35733-005900SY-MT+0021GMTT V0209991C00001220001CN0100001N1+00851+00741103121ADDAA106000091AG11000GA1021+004809999GF103991021051004501001021MA1103121999999MD1810011+9999REMSYN010 333 82616MET007NEW NSGEQDQ01+000000PRSWM2
0076601010999991994010200304+35733-005900FM-15+0021GMTT V0209991C00001220001CN0112651N1+00901+00701999999ADDAG11999GA1021+004809999MA1103121999999REMMET007NEW NSGEQDQ01+000000PRSWM2
0076601010999991994010201304+35733-005900FM-15+0021GMTT V0209991C00001220001CN0112651N1+00801+00701999999ADDAG11999GA1021+004809999MA1103011999999REMMET007NEW NSGEQDQ01+000000PRSWM2
0143601010999991994010203004+35733-005900SY-MT+0021GMTT V0209991C00001090001CN0100001N1+00841+00731103031ADDAA106000091AG11000GA1021+004809999GF105991041051004501001021MA1103011999999MD1610091+9999REMSYN010 333 84616MET007NEW NSGEQDQ01+000000PRSWM2
0138601010999991994010204004+35733-005900FM-15+0021GMTT V0200201N999999999999N9999999N9+99999+99999999999ADDAG11999REMMET068NEW VRB03KT 8000 SCT016 BECMG 0612 30010KT 9999 SCT016 BECMG 1218 CAEQDQ01+020581WOSPD Q02+000002VOVAR Q03+000000PRSWM2
0092601010999991994010204304+35733-005900FM-15+0021GMTT V0209991C00001220001CN0080001N1+00901+00801999999ADDAG11999GA1021+003009999GA2021+004809999MA1103011999999REMMET007NEW NSGEQDQ01+000000PRSWM2
0184601010999991994010206004+35733-005900SY-MT+0021GMTT V0200601N00151004201CN0080001N1+00881+00801102911ADDAA106000091AG11000GA1021+003009999GA2021+004809999GF107991071051004501999999KA1120N+00801MA1102911999999MD1810121+9999REMSYN022 333 20080 82710 86620MET007NEW NSGEQDQ01+000000PRSWM2
0092601010999991994010206304+35733-005900FM-15+0021GMTT V0200601N00151006001CN0080001N1+00901+00801999999ADDAG11999GA1021+003009999GA2071+006009999MA1102911999999REMMET007NEW NSGEQDQ01+000000PRSWM2
0092601010999991994010207304+35733-005900FM-15+0021GMTT V0200601N00151006001CN0080001N1+00901+00801999999ADDAG11999GA1021+003009999GA2071+006009999MA1102911999999REMMET007NEW NSGEQDQ01+000000PRSWM2
0165601010999991994010209004+35733-005900SY-MT+0021GMTT V0200601N00101004801CN0080001N1+01081+01001102931ADDAA106000091AG11000GA1021+003009999GA2071+004809999GF107991071051004501999999MA1102911999999MD1210021+9999REMSYN016 333 82710 86616MET007NEW NSGEQDQ01+000000PRSWM2
0092601010999991994010209304+35733-005900FM-15+0021GMTT V0200601N00211004801CN0080001N1+01101+01001999999ADDAG11999GA1021+003009999GA2071+004809999MA1102911999999REMMET007NEW NSGEQDQ01+000000PRSWM2
0076601010999991994010211004+35733-005900FM-15+0021GMTT V0202001N00151004801CN0112651N1+01601+01401999999ADDAG11999GA1071+004809999MA1102911999999REMMET007NEW NSGEQDQ01+000000PRSWM2
0159601010999991994010212004+35733-005900SY-MT+0021GMTT V0202201N00311004801CN0100001N1+01651+01261102911ADDAA106000091AG11000GA1071+004809999GF199999051051004501001001MA1102911999999MD1810011+9999REMSYN010 333 85616MET007NEW NSGEQDQ01+000052SCOTCVQ02+000000PRSWM2
0076601010999991994010213304+35733-005900FM-15+0021GMTT V0202601N00261004801CN0112651N1+01601+01301999999ADDAG11999GA1071+004809999MA1102711999999REMMET007NEW NSGEQDQ01+000000PRSWM2
0181601010999991994010215004+35733-005900SY-MT+0021GMTT V0202601N00411006001CN0100001N1+01671+01191102681ADDAA106000091AG11000GA1021+004509999GA2071+006009999GF199999051081004501001001MA1102711999999MD1610231+9999REMSYN016 333 82815 85620MET007NEW NSGEQDQ01+000052SCOTCVQ02+000000PRSWM2
0092601010999991994010215304+35733-005900FM-15+0021GMTT V0202601N00411006001CN0112651N1+01701+01201999999ADDAG11999GA1021+004509999GA2071+006009999MA1102611999999REMMET007NEW NSGEQDQ01+000000PRSWM2
0076601010999991994010217004+35733-005900FM-15+0021GMTT V0202801N00311220001CN0112651N1+01401+01101999999ADDAG11999GA1021+004809999MA1102611999999REMMET007NEW NSGEQDQ01+000000PRSWM2
0128601010999991994010218004+35733-005900SY-MT+0021GMTT V0202801N00311220001CN0080001N9+01271+01041102701ADDAA106000091AG14000GA1021+004809999GF103991031051004501001021KA1120M+01741MD1310021+9999REMSYN016 333 10174 83616MET007NEW NSG
0077601010999991994010218304+35733-005900FM-15+0021GMTT V0202801N00411220001CN0080001N1+01301+01001999999ADDAG11999GA1021+004809999MA1102711999999REMMET008NEW NSDGEQDQ01+000000PRSWM2
0076601010999991994010219304+35733-005900FM-15+0021GMTT V0202801N00311220001CN0080001N1+01201+01001999999ADDAG11999GA1021+004809999MA1102711999999REMMET007NEW NSGEQDQ01+000000PRSWM2
0143601010999991994010221004+35733-005900SY-MT+0021GMTT V0202801N00211220001CN0080001N1+00911+00811102651ADDAA106000091AG14000GA1021+004809999GF102991021051004501001001MA1102711999999MD1810061+9999REMSYN010 333 82616MET007NEW NSGEQDQ01+000000PRSWM2
0076601010999991994010221304+35733-005900FM-15+0021GMTT V0200801N00211220001CN0080001N1+00901+00801999999ADDAG11999GA1021+004809999MA1102611999999REMMET007NEW NSGEQDQ01+000000PRSWM2
0098601010999991994010223004+35733-005900FM-15+0021GMTT V02099999999999999999N9999999N9+99999+99999999999ADDAG11999REMMET044NEW 2300ZZ 00000KT 7000 SCT016 09/08 Q1026 NEQDQ01+000002VOVAR Q02+000000PRSWM2
0076601010999991994010300004+35733-005900FM-15+0021GMTT V0202801N00511220001CN0070001N1+01101+01001999999ADDAG11000GA1021+004809999MA1102511999999REMMET007NEW NSGEQDQ01+000000PRSWM2
0076601010999991994010300304+35733-005900FM-15+0021GMTT V0202801N00311220001CN0070001N1+01101+01001999999ADDAG11999GA1021+004809999MA1102511999999REMMET007NEW NSGEQDQ01+000000PRSWM2
0077601010999991994010302004+35733-005900FM-15+0021GMTT V0202801N00411220001CN0080001N1+01101+01001999999ADDAG11999GA1021+004809999MA1102511999999REMMET008NEW NSGHEQDQ01+000000PRSWM2
0143601010999991994010303004+35733-005900SY-MT+0021GMTT V0209991C00001220001CN0080001N1+01201+01081102471ADDAA106000091AG14000GA1021+004809999GF104991041051004501001001MA1102511999999MD1610111+9999REMSYN010 333 84616MET007NEW NSGEQDQ01+000000PRSWM2
0076601010999991994010303304+35733-005900FM-15+0021GMTT V0209991C00001220001CN0080001N1+01201+01101999999ADDAG11999GA1021+004809999MA1102401999999REMMET007NEW NSGEQDQ01+000000PRSWM2
0076601010999991994010304304+35733-005900FM-15+0021GMTT V0200801N00151220001CN0080001N1+01201+01101999999ADDAG11999GA1021+004809999MA1102401999999REMMET007NEW NSGEQDQ01+000000PRSWM2
0178601010999991994010306004+35733-005900SY-MT+0021GMTT V0209991C00001004801CN0080001N1+01061+00961102391ADDAA106000091AG11000GA1071+004809999GF199999061051004501001001KA1120N+00861MA1102401999999MD1710081+9999REMSYN016 333 20086 86616MET007NEW NSGEQDQ01+000062SCOTCVQ02+000000PRSWM2
0076601010999991994010306304+35733-005900FM-15+0021GMTT V0209991C00001004801CN0080001N1+01101+01001999999ADDAG11999GA1071+004809999MA1102301999999REMMET007NEW NSGEQDQ01+000000PRSWM2
0076601010999991994010307304+35733-005900FM-15+0021GMTT V0201601N00261004801CN0080001N1+01101+01001999999ADDAG11999GA1071+004809999MA1102401999999REMMET007NEW NSGEQDQ01+000000PRSWM2
0165601010999991994010309004+35733-005900SY-MT+0021GMTT V0201401N00311004801CN0060001N1+01161+01041102431ADDAA106000091AG14000GA1051+004809059GA2031+030009039GF106991051051004501081001MA1102401999999MD1310041+9999REMSYN016 333 85616 83360MET007NEW NSGEQDQ01+000000PRSWM2
0092601010999991994010310004+35733-005900FM-15+0021GMTT V0201601N00311220001CN0060001N1+01401+01101999999ADDAG11999GA1021+004809999GA2021+030009999MA1102401999999REMMET007NEW NSGEQDQ01+000000PRSWM2
0092601010999991994010310304+35733-005900FM-15+0021GMTT V0201601N00311220001CN0060001N1+01401+01101999999ADDAG11999GA1021+004809999GA2021+030009999MA1102401999999REMMET007NEW NSGEQDQ01+000000PRSWM2
0181601010999991994010312004+35733-005900SY-MT+0021GMTT V0201801N00311030001CN0080001N1+01551+01161102431ADDAA106000091AG11000GA1021+004809999GA2071+030009999GF199999041081004501081001MA1102511999999MD1010001+9999REMSYN016 333 84816 85360MET007NEW NSGEQDQ01+000062SCOTCVQ02+000000PRSWM2
0092601010999991994010312304+35733-005900FM-15+0021GMTT V0202001N00411030001CN0080001N1+01601+01201999999ADDAG11999GA1021+004809999GA2071+030009999MA1102401999999REMMET007NEW NSGEQDQ01+000000PRSWM2
0092601010999991994010313304+35733-005900FM-15+0021GMTT V0202001N00511030001CN0112651N1+01601+01101999999ADDAG11999GA1021+004809999GA2071+030009999MA1102301999999REMMET007NEW NSGEQDQ01+000000PRSWM2
0118601010999991994010315004+35733-005900FM-12+0021GMTT V0202001N00411030001CN0080001N9+01631+01221102251ADDAA106000091AG14000GA1041+004809089GA2071+030009039GF107991041021004501081999MD1710171+9999REMSYN016 333 84816 87360
0093601010999991994010316004+35733-005900FM-15+0021GMTT V0202001N00361030001CN0080001N1+01601+01101999999ADDAG11999GA1021+004809999GA2071+030009999MA1102201999999REMMET008NEW NOSIEQDQ01+000000PRSWM2
0084601010999991994010316304+35733-005900FM-15+0021GMTT V0202001N00311030001CN0080001N1+01601+01101999999ADDAG11999GA1021+004809999GA2071+030009999REMMET014NEW 1022 NOSIGEQDQ01+000000PRSWM2
0185601010999991994010318004+35733-005900SY-MT+0021GMTT V0202001N00311004801CN0080001N1+01451+01171102221ADDAA106000091AG14000GA1071+004809999GA2071+030009999GF107991051021004501081999KA1120M+01671MA1102201999999MD1610041+9999REMSYN022 333 10167 85816 85360MET008NEW NOSIEQDQ01+000000PRSWM2
0093601010999991994010319304+35733-005900FM-15+0021GMTT V0202201N00261004801CN0080001N1+01401+01201999999ADDAG11999GA1071+004809999GA2071+030009999MA1102201999999REMMET008NEW NOSIEQDQ01+000000PRSWM2
0165601010999991994010321004+35733-005900SY-MT+0021GMTT V0201801N00311004801CN0060001N1+01401+01221102221ADDAA106000091AG14000GA1071+004809999GA2071+030009999GF107991051021004501071999MA1102201999999MD1410001+9999REMSYN016 333 85816 85360MET007NEW NSGEQDQ01+000000PRSWM2
0092601010999991994010321304+35733-005900FM-15+0021GMTT V0201601N00411004801CN0060001N1+01401+01201999999ADDAG11999GA1071+004809999GA2071+030009999MA1102201999999REMMET007NEW NSGEQDQ01+000000PRSWM2
0092601010999991994010322304+35733-005900FM-15+0021GMTT V0201601N00411004801CN0060001N1+01401+01201999999ADDAG11999GA1071+004809999GA2071+030009999MA1102201999999REMMET007NEW NSGEQDQ01+000000PRSWM2
0092601010999991994010323304+35733-005900FM-15+0021GMTT V0201601N00411004801CN0060001N1+01401+01201999999ADDAG11000GA1071+004809999GA2071+030009999MA1102101999999REMMET007NEW NSGEQDQ01+000000PRSWM2
0092601010999991994010400304+35733-005900FM-15+0021GMTT V0201601N00411004801CN0060001N1+01301+01101999999ADDAG11999GA1071+004809999GA2071+030009999MA1102101999999REMMET007NEW NSGEQDQ01+000000PRSWM2
0092601010999991994010401304+35733-005900FM-15+0021GMTT V0201801N00411004801CN0060001N1+01301+01101999999ADDAG11999GA1071+004809999GA2071+030009999MA1102001999999REMMET007NEW NSGEQDQ01+000000PRSWM2
0165601010999991994010403004+35733-005900SY-MT+0021GMTT V0201601N00621004801CN0060001N1+01371+01131102081ADDAA106000091AG11000GA1071+004809999GA2071+030009999GF108991051021004501081999MA1102001999999MD1610071+9999REMSYN016 333 85816 86360MET007NEW NSGEQDQ01+000000PRSWM2
0092601010999991994010403304+35733-005900FM-15+0021GMTT V0201601N00621004801CN0060001N1+01401+01101999999ADDAG11999GA1071+004809999GA2071+030009999MA1102001999999REMMET007NEW NSGEQDQ01+000000PRSWM2
0081601010999991994010404304+35733-005900FM-15+0021GMTT V0201601N00621004801CN0060001N1+99999+99999999999ADDAG11999GA1071+004809999REMMET027NEW BKN1(00 13/11 Q1019 NSGEQDQ01+000000PRSWM2
0184601010999991994010406004+35733-005900SY-MT+0021GMTT V0201601N00721004801CN0060001N1+01381+01121102001ADDAA106000091AG11000GA1071+004809999GA2071+030009999GF108991031021004501081021KA1120N+01321MA1101901999999MD1710081+9999REMSYN022 333 20132 83816 86070MET007NEW NSGEQDQ01+000000PRSWM2
0092601010999991994010407004+35733-005900FM-15+0021GMTT V0201601N00721004801CN9999999N9+01401+01101999999ADDAG11999GA1071+004809999MA1101901999999REMMET007NEW NSGEQDQ01+000002VOVAR Q02+000000PRSWM2
0077601010999991994010407304+35733-005900FM-15+0021GMTT V0201601N00821004801CN0060001N1+01401+01101999999ADDAG11999GA1021+003909999GA2071+004809999MA1101901999999MW1631REMMET005NEW N
0082601010999991994010407504+35733-005900FM-16+0021GMTT V0203201N00721006001CN0015001N1+99999+99999999999ADDAG11999GA1021+001809999GA2021+003909999GA3081+006009999MW1511MW2611REMMET003NEW
0082601010999991994010408504+35733-005900FM-16+0021GMTT V0203201N00721006001CN0015001N1+99999+99999999999ADDAG11999GA1021+001809999GA2021+003909999GA3081+006009999MW1511MW2611REMMET003NEW
0094601010999991994010408554+35733-005900FM-16+0021GMTT V0203201N00821004801CN0060001N1+99999+99999999999ADDAG11999GA1021+003909999GA2071+004809999GA3021+006009999REMMET008NEW CB REQDQ01+000000PRSWM2
0187601010999991994010409004+35733-005900SY-MT+0021GMTT V0203201N00821004801CN0060001N1+01251+00961102151ADDAG12005AY181031AY221031GA1021+001809999GA2021+003909999GA3021+004809099GF108991081031004501999999MA1102001999999MD1310151+9999MW1251MW2511MW3631REMSYN022 333 84613 85616 81920MET003NEW
0104601010999991994010409304+35733-005900FM-15+0021GMTT V0203201N00821004501CN0060001N1+01301+01001999999ADDAG11999GA1021+003909999GA2071+004509999GA3021+006009099MA1102101999999REMMET003NEWEQDQ01+000000PRSWM2
0094601010999991994010410004+35733-005900FM-15+0021GMTT V0203201N00821004801CN0060001N1+99999+99999999999ADDAG11000GA1021+003909999GA2071+004809999GA3021+006009999REMMET008NEW CB REQDQ01+000000PRSWM2
0106601010999991994010410304+35733-005900FM-15+0021GMTT V0203001N00671004801CN0080001N1+99999+99999999999ADDAG11999GA1021+003909999GA2071+004809999GA3021+006009999REMMET020NEW CB 12/10 Q1022 REQDQ01+000000PRSWM2
0229601010999991994010412004+35733-005900SY-MT+0021GMTT V0203201N00511004801CN0080001N1+01251+00961102391ADDAA106021091AG11001AY181061AY221061GA1041+003909059GA2051+004809089GA3051+030009039GF108991051021004501081999MD1110241+9999MW1021REMSYN022 333 84613 85816 85360MET042NEW QCT013 BKN015 SCT020CB 14/11 Q1023 NSGEQDQ01+000000PRSWM2
0108601010999991994010413004+35733-005900FM-15+0021GMTT V0203201N00671004801CN0080001N1+01301+01001999999ADDAG11999GA1021+003909999GA2071+004809999GA3081+030009999MA1102301999999REMMET007NEW NSGEQDQ01+000000PRSWM2
0108601010999991994010413304+35733-005900FM-15+0021GMTT V0203001N00511030001CN0112651N1+01301+01001999999ADDAG11999GA1021+003909999GA2021+004809999GA3071+030009999MA1102301999999REMMET007NEW NSGEQDQ01+000000PRSWM2
0109601010999991994010415004+35733-005900SY-MT+0021GMTT V0203001N00621220001CN0100001N9+01401+00551102281ADDAA106000091AG14000GA1021+004809999GF104991031021004501081001MD1710111+9999REMSYN010 333 83616MET007NEW NSG
0076601010999991994010415304+35733-005900FM-15+0021GMTT V0203001N00621220001CN0112651N1+01401+00601999999ADDAG11999GA1021+004809999MA1102201999999REMMET007NEW NSGEQDQ01+000000PRSWM2
0072601010999991994010417004+35733-005900FM-15+0021GMTT V0203001N00511220001CN0112651N1+01301+00601999999ADDAG11999GA1021+004809999MA1102301999999REMMET003NEWEQDQ01+000000PRSWM2
0152601010999991994010418004+35733-005900SY-MT+0021GMTT V0203001N00411036001CN0100001N1+01161+00751102431ADDAA199021091AG13000GA1021+004809999GF105991041021004501081001KA1120M+01451MD1310151+9999REMSYN016 333 10145 84816MET012NEW 1023 NSGEQDQ01+000000PRSWM2
0076601010999991994010419004+35733-005900FM-15+0021GMTT V0203001N00411220001CN0112651N1+01101+00901999999ADDAG11999GA1021+004809999MA1102511999999REMMET007NEW NSGEQDQ01+000000PRSWM2
0159601010999991994010421004+35733-005900SY-MT+0021GMTT V0200401N00211220001CN0100001N1+00851+00641102651ADDAA106000091AG11000GA1021+004809999GF104991999021004501001001MA1102611999999MD1110201+9999REMSYN010 333 83820MET007NEW NSGEQDQ01+000032SCOTLCQ02+000000PRSWM2
0076601010999991994010421304+35733-005900FM-15+0021GMTT V0200401N00261220001CN0112651N1+00901+00601999999ADDAG11999GA1021+004809999MA1102611999999REMMET007NEW NSGEQDQ01+000000PRSWM2
0076601010999991994010422304+35733-005900FM-15+0021GMTT V0201001N00311220001CN0112651N1+00801+00701999999ADDAG11999GA1021+004809999MA1102611999999REMMET007NEW NSGEQDQ01+000000PRSWM2
0143601010999991994010500004+35733-005900SY-MT+0021GMTT V0200801N00311220001CN0100001N1+00741+00631102691ADDAA106000091AG11000GA1021+004809999GF102991021021004501001001MA1102611999999MD1210061+9999REMSYN010 333 82816MET007NEW NSGEQDQ01+000000PRSWM2
0076601010999991994010500304+35733-005900FM-15+0021GMTT V0200801N00211220001CN0112651N1+00701+00601999999ADDAG11999GA1021+004809999MA1102611999999REMMET007NEW NSGEQDQ01+000000PRSWM2
0076601010999991994010502004+35733-005900FM-15+0021GMTT V0200801N00311220001CN0112651N1+00701+00501999999ADDAG11999GA1021+004809999MA1102611999999REMMET007NEW NSGEQDQ01+000000PRSWM2
0159601010999991994010503004+35733-005900SY-MT+0021GMTT V0200601N00411220001CN0100001N1+00681+00541102611ADDAA106000091AG11000GA1021+004809999GF199999011051004501001001MA1102611999999MD1810081+9999REMSYN010 333 81616MET007NEW NSGEQDQ01+000012SCOTCVQ02+000000PRSWM2
0076601010999991994010503304+35733-005900FM-15+0021GMTT V0200801N00211220001CN0112651N1+00601+00501999999ADDAG11999GA1021+004809999MA1102611999999REMMET007NEW NSGEQDQ01+000000PRSWM2
0076601010999991994010504304+35733-005900FM-15+0021GMTT V0200601N00311220001CN0112651N1+00501+00501999999ADDAG11999GA1021+004809999MA1102511999999REMMET007NEW NSGEQDQ01+000000PRSWM2
0178601010999991994010506004+35733-005900SY-MT+0021GMTT V0200601N00211220001CN0100001N1+00451+00331102531ADDAA124021091AG13000GA1021+004809999GF199999011051004501001001KA1120N+00381MA1102511999999MD1710081+9999REMSYN016 333 20038 81616MET007NEW NSGEQDQ01+000012SCOTCVQ02+000000PRSWM2
0076601010999991994010506304+35733-005900FM-15+0021GMTT V0200601N00211220001CN0112651N1+00501+00301999999ADDAG11999GA1021+004809999MA1102511999999REMMET007NEW NSGEQDQ01+000000PRSWM2
0149601010999991994010508004+35733-005900FM-15+0021GMTT V0200411N999999999999N9999999N9+99999+99999999999ADDAG11999REMMET079NEW 32012KT 9999 SCT016 BECMG 0610 18010KT 6000 BKN016 SCT100 PROB30 TEMPO SHRAEQDQ01+030871WOSPD Q02+000002VOVAR Q03+000000PRSWM2
0143601010999991994010509004+35733-005900SY-MT+0021GMTT V0200601N00311220001CN0100001N1+00601+00511102601ADDAA106000091AG11000GA1021+004809999GF104991031051004501001021MA1102511999999MD1310071+9999REMSYN010 333 83616MET007NEW NSGEQDQ01+000000PRSWM2
0076601010999991994010509304+35733-005900FM-15+0021GMTT V0200601N00311220001CN0112651N1+00601+00501999999ADDAG11999GA1021+004809999MA1102611999999REMMET007NEW NSGEQDQ01+000000PRSWM2
0092601010999991994010511004+35733-005900FM-15+0021GMTT V0201601N00151220001CN0112651N1+01401+01001999999ADDAG11999GA1021+004809999GA2021+066009999MA1102511999999REMMET007NEW NSGEQDQ01+000000PRSWM2
0131601010999991994010512004+35733-005900SY-MT+0021GMTT V0202001N00211090001CN0100001N9+01471+00941102511ADDAA106000091AG14000GA1021+004809999GA2021+066009999GF105991031021004501001021MD1810081+9999REMSYN016 333 83816 84073MET007NEW NSG
0085601010999991994010512304+35733-005900FM-15+0021GMTT V0202001N00211220001CN0112651N1+01501+00901999999ADDAG11999GA1021+004809999GA2021+066009999REMMET015NEW S Q1025 NSGEQDQ01+000000PRSWM2
0092601010999991994010513304+35733-005900FM-15+0021GMTT V0202201N00211004801CN0112651N1+01401+00801999999ADDAG11999GA1071+004809999GA2021+069009999MA1102301999999REMMET007NEW NSGEQDQ01+000000PRSWM2
0152601010999991994010515004+35733-005900SY-MT+0021GMTT V0202201N00411004801CN0150001N1+01431+00871102071ADDAA106000091AG11000GA1071+004809999GF107991051021004501001021MD1710441+9999REMSYN016 333 85816 84073MET025NEW CT233 15/09 Q1021 NSGEQDQ01+000000PRSWM2
0092601010999991994010515304+35733-005900FM-15+0021GMTT V0202001N00411004801CN0112651N1+01401+00901999999ADDAG11999GA1071+004809999GA2021+069009999MA1102001999999REMMET007NEW NSGEQDQ01+000000PRSWM2
0208601010999991994010516204+35733-005900FM-16+0021GMTT V0200511N999999999999N9999999N9+99999+99999999999ADDAA124999999AG11999REMMET111NEW 24005KT 9999 SCT016 BKN233 BECMG 0003 28010 9999 BKN016 BKN090 TEMPO 0512 8000 SHRA BKN015 BKN080 BECMG1518EQDQ01+030871WOSPD Q02+000002VOVAR Q03+000000PRSWM2Q04  99982PRCP24
0092601010999991994010516304+35733-005900FM-15+0021GMTT V0202001N00511004801CN0112651N1+01401+00901999999ADDAG11999GA1071+004809999GA2021+069009999MA1102001999999REMMET007NEW NSGEQDQ01+000000PRSWM2
0190601010999991994010518004+35733-005900SY-MT+0021GMTT V0202001N00621004801CN0080001N1+01141+00861101961ADDAA106000091AG11000GA1071+004809999GA2071+069009999GF107991051081004501001021KA1120M+01511MA1102001999999MD1710111+9999REMSYN028 333 10151 82813 84616 85073MET007NEW NSGEQDQ01+000000PRSWM2
0104601010999991994010518304+35733-005900FM-15+0021GMTT V0202001N00511069001CN0080001N1+01101+00901999999ADDAG11999GA1021+003909999GA2021+004809999GA3071+069009999MA1101901999999REMMET003NEWEQDQ01+000000PRSWM2
0104601010999991994010519304+35733-005900FM-15+0021GMTT V0202001N00511069001CN0112651N1+01101+00901999999ADDAG11999GA1021+003909999GA2021+004809999GA3071+069009999MA1101901999999REMMET003NEWEQDQ01+000000PRSWM2
0161601010999991994010521004+35733-005900SY-MT+0021GMTT V0202001N00511004801CN0100001N1+01181+00881101871ADDAA106000091AG11000GA1021+003909999GA2071+004809999GF107991041021004501001021MA1101901999999MD1810091+9999REMSYN016 333 84816 85073MET003NEWEQDQ01+000000PRSWM2
0092601010999991994010521304+35733-005900FM-15+0021GMTT V0202001N00511066001CN0112651N1+01201+00901999999ADDAG11999GA1021+004809999GA2071+066009999MA1101801999999REMMET007NEW NSGEQDQ01+000000PRSWM2
0092601010999991994010522304+35733-005900FM-15+0021GMTT V0202001N00511066001CN0112651N1+01201+00901999999ADDAG11999GA1021+004809999GA2071+066009999MA1101801999999REMMET007NEW NSGEQDQ01+000000PRSWM2
0187601010999991994010600004+35733-005900SY-MT+0021GMTT V0201601N00621066001CN0100001N1+01101+00801101591ADDAA106000091AG11000GA1021+004809999GA2071+066009999GF199999031021004501031021MA1101691999999MD1710281+9999REMSYN022 333 83816 83360 85073MET007NEW NSGEQDQ01+000062SCOTCVQ02+000000PRSWM2
0108601010999991994010601004+35733-005900FM-15+0021GMTT V0201601N00931069001CN0112651N1+01101+00801999999ADDAG11999GA1021+004809999GA2021+030009999GA3071+069009999MA1101491999999REMMET007NEW NSGEQDQ01+000000PRSWM2
0108601010999991994010601304+35733-005900FM-15+0021GMTT V0201601N01031069001CN0112651N1+01101+00801999999ADDAG11999GA1021+004809999GA2021+030009999GA3071+069009999MA1101491999999REMMET007NEW NSGEQDQ01+000000PRSWM2
0140601010999991994010603004+35733-005900FM-12+0021GMTT V0201801N00931030001CN0100001N9+01071+00791101281ADDAA106000091AG14000GA1031+004809089GA2031+030009039GA3051+069009009GF106991031021004501031021MD1810311+9999REMSYN022 333 83816 83360 85073
0200601010999991994010606004+35733-005900SY-MT+0021GMTT V0201601N01131069001CN0100001N1+01081+00611100831ADDAA106000091AG11000GA1021+004809999GA2021+030009999GA3071+069009999GF107991051021004501071999KA1120N+01051MA1101021999999MD1710551+9999REMSYN022 333 20105 85816 86459MET007NEW NSGEQDQ01+000000PRSWM2
0079601010999991994010607554+35733-005900FM-16+0021GMTT V0201601N01541004801CN0020001N1+99999+99999999999ADDAG11999GA1021+001809999GA2021+003009999GA3071+004809999MW1651REMMET006NEW M2
0099601010999991994010608004+35733-005900FM-15+0021GMTT V0201601N01441004801CN0050001N1+01001+00801999999ADDAG11999GA1021+003009999GA2071+004809999GA3071+015009999MA1100511999999MW1631OC101951REMMET003NEW
0189601010999991994010609004+35733-005900SY-MT+0021GMTT V0201601N01541004801CN0020001N1+00951+00851100401ADDAG12005AY161031AY221031GA1021+001809999GA2021+003009999GA3071+004809999GF108991081081001501999999MA1100511999999MD1710431+9999MW1601MW2631OC101951REMSYN022 333 83706 83810 86616MET003NEW
0121601010999991994010609304+35733-005900FM-15+0021GMTT V0201601N01541004801CN0020001N1+01001+00901999999ADDAG11999GA1021+003009999GA2071+004809999GA3071+015009999MA1100411999999MW1631OC102061REMMET025NEW TEMPO 26035G45KT TSRA
0121601010999991994010610304+35733-005900FM-15+0021GMTT V0201601N01441004801CN0020001N1+01001+00901999999ADDAG11999GA1021+003009999GA2071+004809999GA3071+027009999MA1100201999999MW1631OC101951REMMET025NEW TEMPO 26035G45KT TSRA
0222601010999991994010612004+35733-005900SY-MT+0021GMTT V0201801N01751004801CN0020001N1+01101+00941099831ADDAA106023091AG11005AY181061AY261061GA1021+001809999GA2071+004809999GA3071+027009999GF108991071091001501071999MA1100001999999MD1810571+9999MW1631MW2801OC101951REMSYN022 333 83706 86816 81923MET025NEW TEMPO 26035G45KT TSRA
0093601010999991994010612204+35733-005900FM-16+0021GMTT V0202001N02061004801CN0010001N1+99999+99999999999ADDAG11001GA1021+001809999GA2071+004809999GA3021+006009099MW1171MW2811OC102981REMMET006NEW M9
0106601010999991994010612304+35733-005900FM-15+0021GMTT V0202001N02061004801CN0010001N1+99999+99999999999ADDAG11999GA1021+001809999GA2071+004809999GA3021+006009999MW1171MW2811OC102981REMMET019NEW CBB 11/09 Q0998
0095601010999991994010613304+35733-005900FM-15+0021GMTT V0203401N01651004801CN0020001N1+01401+01301999999ADDAG11999GA1021+001509999GA2071+004809999GA3021+006009099MW1811MW2951OC102261REMMET008NEW Q996
0094601010999991994010614554+35733-005900FM-16+0021GMTT V0203001N01341004801CN0080001N1+99999+99999999999ADDAG11999GA1021+001809999GA2071+004809999GA3021+006009099REMMET008NEW RETSEQDQ01+000000PRSWM2
0209601010999991994010615004+35733-005900SY-MT+0021GMTT V0203001N01341004801CN0080001N1+00801+00671100121ADDAG12005AY191031AY291031GA1021+001809999GA2071+004809999GA3021+006009099GF107991999091001501999999MD1310291+9999MW1291MW2811MW3951OC102371REMSYN022 333 82706 87816 82920MET013NEW Q9999 NSHEQDQ01+000082SCOTLC
0088601010999991994010615304+35733-005900FM-15+0021GMTT V0203001N01231004801CN0112651N1+00801+00701999999ADDAG11999GA1021+003909999GA2071+004809999MA1100101999999REMMET003NEWEQDQ01+000000PRSWM2
0115601010999991994010616304+35733-005900FM-15+0021GMTT V0203001N01131003901CN0112651N1+00901+00601999999ADDAG11999GA1071+003909999GA2071+004809999GA3021+006009099MA1100101999999REMMET014NEW TEMPO RASHEQDQ01+000000PRSWM2
0181601010999991994010618004+35733-005900FM-12+0021GMTT V0203001N01291004801CN0100001N9+01021+00461100461ADDAA199029091AG10004AY191061AY281061GA1041+003909089GA2051+004809059GA3021+006009099GF106991061091004501001001KA1120M+01381MD1310341+9999MW1011REMSYN028 333 10138 84813 85616 82920
0116601010999991994010619004+35733-005900FM-15+0021GMTT V0203001N00931004801CN0112651N1+01001+00501999999ADDAG11999GA1021+003909999GA2071+004809999GA3021+006009099MA1100511999999OC101441REMMET007NEW NSGEQDQ01+000000PRSWM2
0116601010999991994010619304+35733-005900FM-15+0021GMTT V0203001N00931004801CN0112651N1+01001+00501999999ADDAG11999GA1021+003909999GA2071+004809999GA3021+006009099MA1100511999999OC101441REMMET007NEW NSGEQDQ01+000000PRSWM2
0203601010999991994010621004+35733-005900SY-MT+0021GMTT V0202801N00821004801CN0100001N1+01131+00231100671ADDAA106000091AG11000GA1021+003909999GA2071+004809999GA3021+006009099GF199999061091004501001001MA1100611999999MD1210211+9999REMSYN022 333 84813 85616 82925MET007NEW NSGEQDQ01+000062SCOTCVQ02+000000PRSWM2
0085601010999991994010621554+35733-005900FM-16+0021GMTT V0202601N00821004801CN0060001N1+99999+99999999999ADDAG11001GA1021+003909999GA2071+004809999GA3071+007509099MW1171MW2811REMMET006NEW M9
0221601010999991994010622004+35733-005900FM-16+0021GMTT V0200701N999999999999N9999999N9+99999+99999999999ADDAG11999REMMET151NEW 0024 26012G25KT 6000 SHRA SCT010 BKN016 SCT025CB BECMG 0508 TSRA SCT010 BKN016 BKN025CB TEMPO 1018 32020G30 5000 +RA SCT005 OVC016 BECMG 1822 24016EQDQ01+032001WOSPD Q02+000002VOVAR Q03+000000PRSWM2
0091601010999991994010622304+35733-005900FM-15+0021GMTT V0202801N00821004801CN0080001N1+01101+00401999999ADDAG11999GA1021+003909999GA2071+004809999GA3021+007509099MA1100611999999MW1171REMMET003NEW
0200601010999991994010700004+35733-005900SY-MT+0021GMTT V0202401N01031004801CN0060001N1+01141+00731100681ADDAA106003091AG11004AY191061AY281061GA1021+003909999GA2071+004809999GA3021+007509099GF108991081091004501999999MA1100611999999MD1110011+9999MW1171MW2811OC101651REMSYN022 333 84813 86616 83925MET003NEW
0091601010999991994010700304+35733-005900FM-15+0021GMTT V0202401N01131004801CN0070001N1+01101+00701999999ADDAG11999GA1021+003909999GA2071+004809999GA3021+007509099MA1100611999999MW1171REMMET003NEW
0091601010999991994010701304+35733-005900FM-15+0021GMTT V0202801N01231004801CN0070001N1+01101+00801999999ADDAG11999GA1021+003909999GA2071+004809999GA3021+007509099MA1100611999999MW1171REMMET003NEW
0183601010999991994010703004+35733-005900SY-MT+0021GMTT V0202801N01031004801CN0070001N1+01031+00781100611ADDAA106000091AG11001GA1021+003909999GA2071+004809999GA3021+007509099GF108991081091004501999999MA1100611999999MD1610071+9999REMSYN022 333 84813 86616 83925MET003NEWEQDQ01+000003PRSWM1
0091601010999991994010703304+35733-005900FM-15+0021GMTT V0202801N01131004801CN0080001N1+01001+00801999999ADDAG11999GA1021+003909999GA2071+004809999GA3021+007509099MA1100611999999MW1171REMMET003NEW
0091601010999991994010704304+35733-005900FM-15+0021GMTT V0202801N01231004801CN0080001N1+01001+00801999999ADDAG11999GA1021+003909999GA2071+004809999GA3021+007509099MA1100611999999MW1171REMMET003NEW
0224601010999991994010706004+35733-005900SY-MT+0021GMTT V0202801N01131007501CN0080001N1+01141+00641100681ADDAA124033091AG11004AY191061AY291061GA1021+003909999GA2021+004809999GA3021+007509099GF106991061091004501001001KA1120N+01001MA1100611999999MD1610021+9999MW1251REMSYN028 333 20100 83813 85616 81925MET003NEWEQDQ01+000000PRSWM2
0104601010999991994010706304+35733-005900FM-15+0021GMTT V0202801N01231004801CN0080001N1+01101+00601999999ADDAG11999GA1021+003909999GA2071+004809999GA3021+007509099MA1100611999999REMMET003NEWEQDQ01+000000PRSWM2
0104601010999991994010707304+35733-005900FM-15+0021GMTT V0202801N01131004801CN0080001N1+01101+00601999999ADDAG11999GA1021+003909999GA2071+004809999GA3021+007509099MA1100611999999REMMET003NEWEQDQ01+000000PRSWM2
0151601010999991994010709004+35733-005900SY-MT+0021GMTT V0203001N00821009001CN0100001N1+01241+00641101021ADDAA106000091AG11000GA1021+003909999GA2021+007509999GF106991061081004501001001MA1100811999999REMSYN016 333 84815 84616MET007NEW NSGEQDQ01+000000PRSWM2
0084601010999991994010709304+35733-005900FM-15+0021GMTT V0203001N00821220001CN0112651N1+99999+99999999999ADDAG11999GA1021+004509999REMMET030NEW TCU SCT016 12/04 Q1010 NSGEQDQ01+000000PRSWM2
0076601010999991994010710304+35733-005900FM-15+0021GMTT V0203201N00821004801CN0112651N1+01201+00501999999ADDAG11999GA1071+004809999MA1101081999999REMMET007NEW NSGEQDQ01+000000PRSWM2
0159601010999991994010712004+35733-005900SY-MT+0021GMTT V0203001N00821004801CN0200001N1+01321+00541101231ADDAA106000091AG11000GA1071+004809999GF199999051021004501001001MA1101081999999MD1310161+9999REMSYN010 333 85816MET007NEW NSGEQDQ01+000052SCOTCVQ02+000000PRSWM2
0076601010999991994010713304+35733-005900FM-15+0021GMTT V0203001N00821004801CN0112651N1+01301+00501999999ADDAG11999GA1071+004809999MA1101191999999REMMET007NEW NQGEQDQ01+000000PRSWM2
0143601010999991994010715004+35733-005900SY-MT+0021GMTT V0202801N00621220001CN0150001N1+01301+00561101241ADDAA106000091AG11000GA1021+004809999GF104991041021004501001001MA1101191999999MD1010011+9999REMSYN010 333 84816MET007NEW NSGEQDQ01+000000PRSWM2
0076601010999991994010715304+35733-005900FM-15+0021GMTT V0202801N00511220001CN0112651N1+01301+00601999999ADDAG11999GA1021+004809999MA1101191999999REMMET007NEW NSGEQDQ01+000000PRSWM2
0076601010999991994010716304+35733-005900FM-15+0021GMTT V0202801N00511004801CN0112651N1+01201+00601999999ADDAG11999GA1071+004809999MA1101291999999REMMET007NEW NSGEQDQ01+000000PRSWM2
0076601010999991994010718004+35733-005900FM-15+0021GMTT V0202801N00721004801CN0112651N1+01201+00601999999ADDAG11000GA1071+004809999MA1101391999999REMMET007NEW NSGEQDQ01+000000PRSWM2
0089601010999991994010718304+35733-005900FM-15+0021GMTT V0202801N00721004801CN0112651N1+01201+99999999999ADDAG11999GA1071+004809999REMMET019NEW 12/06 Q1014 NSGEQDQ01+024023ATOD  Q02+000000PRSWM2
0076601010999991994010719304+35733-005900FM-15+0021GMTT V0202801N00721004801CN0112651N1+01201+00601999999ADDAG11999GA1071+004809999MA1101391999999REMMET007NEW NSGEQDQ01+000000PRSWM2
0159601010999991994010721004+35733-005900SY-MT+0021GMTT V0203001N00571220001CN0100001N1+01251+00501101621ADDAA106000091AG11000GA1071+004809999GF199999041021004501001001MA1101491999999MD1310151+9999REMSYN010 333 84816MET007NEW NSGEQDQ01+000042SCOTCVQ02+000000PRSWM2
0209601010999991994010800004+35733-005900SY-MT+0021GMTT V0203001N00621006901CN0080001N1+01161+00611101751ADDAA106003091AG10001AY181061AY211061GA1021+003909999GA2021+004809999GA3021+006909999GF105991051091004501001001MA1101691999999MD1310161+9999MW1021REMSYN022 333 82813 83616 81923MET007NEW NSGEQDQ01+000000PRSWM2
0108601010999991994010800304+35733-005900FM-15+0021GMTT V0203001N00621006901CN0080001N1+01201+00601999999ADDAG11999GA1021+003909999GA2021+004809999GA3021+006909099MA1101691999999REMMET007NEW NSGEQDQ01+000000PRSWM2
0108601010999991994010801304+35733-005900FM-15+0021GMTT V0203001N00621006901CN0080001N1+01201+00601999999ADDAG11999GA1021+003909999GA2021+004809999GA3021+006909099MA1101801999999REMMET007NEW NSGEQDQ01+000000PRSWM2
0186601010999991994010803004+35733-005900SY-MT+0021GMTT V0202801N00721220001CN0080001N1+01151+00651101881ADDAG12001AY181031AY221031GA1021+004809999GA2021+006009999GA3021+006909099GF103991031081004501001001MA1101801999999MD1310121+9999MW1011REMSYN010 333 82813MET007NEW NSGEQDQ01+000000PRSWM2
0076601010999991994010803304+35733-005900FM-15+0021GMTT V0202801N00821220001CN0080001N1+01201+00701999999ADDAG11999GA1021+003909999MA1101801999999REMMET007NEW NSGEQDQ01+000000PRSWM2
0170601010999991994010806004+35733-005900SY-MT+0021GMTT V0202801N00721220001CN0080001N1+01151+00651101881ADDAG12001AY181061AY221061GA1021+003909999GA2021+004809999GF103991031081004501001001MA1101901999999MD1310121+9999MW1011REMSYN010 333 82813MET007NEW NSGEQDQ01+000000PRSWM2
0092601010999991994010806304+35733-005900FM-15+0021GMTT V0203001N00511220001CN0080001N1+01101+00601999999ADDAG11999GA1021+003909999GA2021+004809999MA1101901999999REMMET007NEW NSGEQDQ01+000000PRSWM2
0076601010999991994010807304+35733-005900FM-15+0021GMTT V0203001N00511004801CN0080001N1+01101+00601999999ADDAG11999GA1071+004809999MA1101901999999REMMET007NEW NSGEQDQ01+000000PRSWM2
0109601010999991994010809004+35733-005900SY-MT+0021GMTT V0209999999999004201CN0100001N9+01151+00811102201ADDAA106000091AG14000GA1021+004809999GF105991051021004501001001MD1210261+9999REMSYN010 333 85816MET007NEW NSG
0076601010999991994010809304+35733-005900FM-15+0021GMTT V0201401N00211004801CN0112651N1+01201+00801999999ADDAG11999GA1071+004809999MA1102201999999REMMET007NEW NSGEQDQ01+000000PRSWM2
0077601010999991994010810304+35733-005900FM-15+0021GMTT V0201601N00311004801CN0112651N1+01201+00801999999ADDAG11999GA1071+004809999MA1102301999999REMMET008NEW . (7EQDQ01+000000PRSWM2
0159601010999991994010812004+35733-005900SY-MT+0021GMTT V0201801N00411220001CN0100001N1+01471+00931102401ADDAA106000091AG11000GA1071+004809999GF199999041021004501001021MA1102401999999MD1010161+9999REMSYN010 333 84816MET007NEW NSGEQDQ01+000042SCOTCVQ02+000000PRSWM2
0069601010999991994010812304+35733-005900FM-15+0021GMTT V0201801N00411220001CN0112651N1+01501+00002999999ADDAG11999GA1021+004809999REMMET015NEW (9 Q1024 NGEQDQ01+000000PRSWM2
0076601010999991994010814004+35733-005900FM-15+0021GMTT V0202001N00511004801CN0112651N1+01501+00901999999ADDAG11999GA1071+004809999MA1102401999999REMMET007NEW NSGEQDQ01+000000PRSWM2
0159601010999991994010815004+35733-005900SY-MT+0021GMTT V0202001N00511004801CN0100001N1+01571+00881102321ADDAA106000091AG11000GA1071+004809999GF199999051021004501001001MA1102401999999MD1810081+9999REMSYN010 333 85816MET007NEW NSGEQDQ01+000052SCOTCVQ02+000000PRSWM2
0076601010999991994010816004+35733-005900FM-15+0021GMTT V0202001N00511004801CN0112651N1+01601+00901999999ADDAG11999GA1071+004809999MA1102301999999REMMET007NEW NSGEQDQ01+000000PRSWM2
0076601010999991994010816304+35733-005900FM-15+0021GMTT V0202001N00621004801CN0112651N1+01601+00901999999ADDAG11999GA1071+004809999MA1102301999999REMMET007NEW NSGEQDQ01+000000PRSWM2
0115601010999991994010818004+35733-005900FM-12+0021GMTT V0202001N00621004801CN0100001N9+01351+00851102391ADDAA106000091AG14000GA1061+004809089GF106991061021004501001001KA1120M+01561MD1110071+9999REMSYN016 333 10156 86816
0076601010999991994010818304+35733-005900FM-15+0021GMTT V0202001N00511004801CN0112651N1+01401+00901999999ADDAG11999GA1071+004809999MA1102301999999REMMET007NEW NSGEQDQ01+000000PRSWM2
0076601010999991994010819304+35733-005900FM-15+0021GMTT V0202001N00621004801CN0112651N1+01301+00801999999ADDAG11999GA1071+004809999MA1102401999999REMMET007NEW NSGEQDQ01+000000PRSWM2
0143601010999991994010821004+35733-005900SY-MT+0021GMTT V0201601N00411220001CN0100001N1+01201+00831102421ADDAA106000091AG14000GA1021+004809999GF103991031021004501001001MA1102401999999MD1310031+9999REMSYN010 333 83816MET007NEW NSGEQDQ01+000000PRSWM2
0076601010999991994010821304+35733-005900FM-15+0021GMTT V0201601N00411220001CN0112651N1+01201+00801999999ADDAG11999GA1021+004809999MA1102401999999REMMET007NEW NSGEQDQ01+000000PRSWM2
0076601010999991994010822304+35733-005900FM-15+0021GMTT V0201601N00311220001CN0112651N1+01201+00801999999ADDAG11999GA1021+004809999MA1102401999999REMMET007NEW NSGEQDQ01+000000PRSWM2
0143601010999991994010900004+35733-005900SY-MT+0021GMTT V0201601N00411220001CN0100001N1+01041+00831102441ADDAA106000091AG11000GA1021+004809999GF102991021021004501001001MA1102401999999MD1310021+9999REMSYN010 333 82816MET007NEW NSGEQDQ01+000000PRSWM2
0076601010999991994010900304+35733-005900FM-15+0021GMTT V0201601N00411220001CN0112651N1+01001+00801999999ADDAG11999GA1021+004809999MA1102401999999REMMET007NEW NSGEQDQ01+000000PRSWM2
0076601010999991994010901304+35733-005900FM-15+0021GMTT V0201701N00511220001CN0112651N1+01001+00801999999ADDAG11999GA1021+004809999MA1102401999999REMMET007NEW NSGEQDQ01+000000PRSWM2
0159601010999991994010903004+35733-005900SY-MT+0021GMTT V0201601N00411220001CN0100001N1+01021+00831102391ADDAA106000091AG11000GA1021+004809999GF199999011021004501001001MA1102401999999MD1810051+9999REMSYN010 333 81816MET007NEW NSGEQDQ01+000012SCOTCVQ02+000000PRSWM2
0076601010999991994010903304+35733-005900FM-15+0021GMTT V0201601N00411220001CN0112651N1+01001+00801999999ADDAG11999GA1021+004809999MA1102301999999REMMET007NEW NSGEQDQ01+000000PRSWM2
0076601010999991994010904304+35733-005900FM-15+0021GMTT V0201601N00511220001CN0112651N1+01101+00701999999ADDAG11999GA1021+004809999MA1102301999999REMMET007NEW NSGEQDQ01+000000PRSWM2
0162601010999991994010906004+35733-005900SY-MT+0021GMTT V0201401N00511220001CN0100001N1+01151+00731102231ADDAA106000091AG11000GA1021+004809999GF102991021021004501001001KA1120N+01041MA1102301999999MD1710161+9999REMSYN016 333 20104 82816MET007NEW NSGEQDQ01+000000PRSWM2
0076601010999991994010906304+35733-005900FM-15+0021GMTT V0201401N00511220001CN0112651N1+01201+00701999999ADDAG11999GA1021+004809999MA1102201999999REMMET007NEW NSGEQDQ01+000000PRSWM2
0076601010999991994010907304+35733-005900FM-15+0021GMTT V0201401N00411220001CN0112651N1+01201+00701999999ADDAG11999GA1021+004809999MA1102201999999REMMET007NEW NSGEQDQ01+000000PRSWM2
0149601010999991994010909004+35733-005900SY-MT+0021GMTT V0201401N00511090001CN0100001N1+01171+00721102231ADDAA106000091AG11000GA1021+004809999GF105991021021004501001021MA1102201999999MD1410001+9999REMSYN016 333 82816 84070MET007NEW NSGEQDQ01+000000PRSWM2
0092601010999991994010910004+35733-005900FM-15+0021GMTT V0201601N00511220001CN0112651N1+01401+00901999999ADDAG11999GA1021+004809999GA2021+060009999MA1102201999999REMMET007NEW NSGEQDQ01+000000PRSWM2
0092601010999991994010910304+35733-005900FM-15+0021GMTT V0201601N00771220001CN0112651N1+01401+00901999999ADDAG11999GA1021+004809999GA2021+060009999MA1102201999999REMMET007NEW NSGEQDQ01+000000PRSWM2
0165601010999991994010912004+35733-005900SY-MT+0021GMTT V0201601N00821090001CN0100001N1+01471+00831102221ADDAA106000091AG11000GA1021+004809999GA2021+060009999GF107991041021004501001021MA1102201999999MD1810011+9999REMSYN016 333 84816 85070MET007NEW NSGEQDQ01+000000PRSWM2
0092601010999991994010912304+35733-005900FM-15+0021GMTT V0201601N00721060001CN0112651N1+01501+00801999999ADDAG11999GA1021+004809999GA2071+060009999MA1102201999999REMMET007NEW NSGEQDQ01+000000PRSWM2
0092601010999991994010913304+35733-005900FM-15+0021GMTT V0201801N00821060001CN0112651N1+01601+00801999999ADDAG11999GA1021+004809999GA2071+060009999MA1102001999999REMMET007NEW NSGEQDQ01+000000PRSWM2
0088601010999991994010914304+35733-005900FM-15+0021GMTT V0201801N00721060001CN0112651N1+01601+00801999999ADDAG11999GA1021+004809999GA2071+060009999REMMET018NEW SEEE Q1019 NSGEQDQ01+000000PRSWM2
0165601010999991994010915004+35733-005900SY-MT+0021GMTT V0201801N00821060001CN0100001N1+01501+00911101961ADDAA106000091AG11000GA1021+004809999GA2071+060009999GF107991031021004501001041MA1101901999999MD1610261+9999REMSYN016 333 83816 87070MET007NEW NSGEQDQ01+000000PRSWM2
0092601010999991994010915304+35733-005900FM-15+0021GMTT V0201801N00821060001CN0112651N1+01501+00901999999ADDAG11999GA1021+004809999GA2071+060009999MA1101901999999REMMET007NEW NSGEQDQ01+000000PRSWM2
0092601010999991994010916304+35733-005900FM-15+0021GMTT V0202001N00931004801CN0112651N1+01501+00901999999ADDAG11999GA1021+003909999GA2071+004809999MA1101901999999REMMET007NEW NSGEQDQ01+000000PRSWM2
0176601010999991994010918004+35733-005900SY-MT+0021GMTT V0201801N00821004801CN0100001N1+01301+00971101941ADDAA106000091AG14000GA1021+003909999GA2071+004809999GF107991061081004501001021KA1120M+01581MD1510021+9999REMSYN022 333 10158 82813 86616MET014NEW Q10(19 NSGEQDQ01+000000PRSWM2
0092601010999991994010919004+35733-005900FM-15+0021GMTT V0201601N00621004801CN0080001N1+01301+00901999999ADDAG11999GA1021+003909999GA2071+004809999MA1101901999999REMMET007NEW NSGEQDQ01+000000PRSWM2
0092601010999991994010919304+35733-005900FM-15+0021GMTT V0201601N00621004801CN0080001N1+01301+00901999999ADDAG11999GA1021+003909999GA2071+004809999MA1101901999999REMMET007NEW NSGEQDQ01+000000PRSWM2
0092601010999991994010920304+35733-005900FM-15+0021GMTT V0201601N00721004801CN0080001N1+01301+00901999999ADDAG11000GA1021+003909999GA2071+004809999MA1101901999999REMMET007NEW NSGEQDQ01+000000PRSWM2
0097601010999991994010921304+35733-005900FM-15+0021GMTT V0201601N01031004801CN0080001N1+01301+01001999999ADDAG11999GA1071+004809999GA2071+027009999MA1101801999999REMMET012NEW RERA NSGEQDQ01+000000PRSWM2
0092601010999991994010923004+35733-005900FM-15+0021GMTT V0201601N01031004801CN0080001N1+01401+01001999999ADDAG11999GA1071+004809999GA2071+027009999MA1101691999999REMMET007NEW NSGEQDQ01+000000PRSWM2
0140601010999991994011000004+35733-005900FM-12+0021GMTT V0201601N01131004801CN0080001N9+01351+01071101621ADDAA106999929AG13000AY121061AY261061GA1051+004809089GA2081+027009049GF108991051021004501071999MD1810261+9999MW1031REMSYN016 333 85816 88459
0079601010999991994011001004+35733-005900FM-15+0021GMTT V0201801N01131004801CN0060001N1+01301+01101999999ADDAG11999GA1071+004809999GA2081+027009999MA1101491999999MW1611REMMET007NEW NSG
0102601010999991994011003004+35733-005900FM-12+0021GMTT V0201601N01031009001CN0060001N9+01271+01201101401ADDAA106999999AG14001AY161031AY261031GF108991051081004501011051MD1710221+9999MW1631EQDQ01  00002PRCP06
0079601010999991994011004004+35733-005900FM-15+0021GMTT V0202601N01031004501CN0060001N1+01301+01201999999ADDAG11999GA1071+004509999GA2081+027009999MA1101291999999MW1631REMMET007NEW NSG
0093601010999991994011004304+35733-005900FM-15+0021GMTT V0202401N01031004501CN0060001N1+01301+01201999999ADDAG11999GA1071+004509999GA2081+027009999MA1101291999999REMMET008NEW RERAEQDQ01+000000PRSWM2
0159601010999991994011006004+35733-005900FM-12+0021GMTT V0202601N00821004501CN0060001N9+01451+01081101391ADDAA124015091AG10001AY161061AY221061GA1061+004509089GA2081+027009049GF108991061021004501071999KA1120N+01171MD1610041+9999MW1021REMSYN022 333 20117 86815 88459
0092601010999991994011006304+35733-005900FM-15+0021GMTT V0202601N01031004501CN0060001N1+01501+01101999999ADDAG11999GA1071+004509999GA2081+027009999MA1101291999999REMMET007NEW NSGEQDQ01+000000PRSWM2
0108601010999991994011008004+35733-005900FM-15+0021GMTT V0202601N00721004501CN0080001N1+01401+01001999999ADDAG11999GA1021+003009999GA2071+004509999GA3081+027009999MA1101491999999REMMET007NEW NSGEQDQ01+000000PRSWM2
0214601010999991994011009004+35733-005900SY-MT+0021GMTT V0202601N00721004501CN0080001N1+01451+00911101621ADDAG12001AY161031AY221031GA1021+003009999GA2071+004509999GA3081+027009999GF199999061081004501071999MA1101491999999MD1110231+9999MW1011REMSYN022 333 82810 85815 85459MET007NEW NSGEQDQ01+000072SCOTCVQ02+000000PRSWM2
0092601010999991994011010004+35733-005900FM-15+0021GMTT V0202601N00721220001CN0080001N1+01501+00901999999ADDAG11999GA1021+003909999GA2021+004509999MA1101591999999REMMET007NEW NSGEQDQ01+000000PRSWM2
0076601010999991994011010304+35733-005900FM-15+0021GMTT V0202601N00721004501CN0112651N1+01501+00901999999ADDAG11999GA1071+004509999MA1101591999999REMMET007NEW NSGEQDQ01+000000PRSWM2
0219601010999991994011012004+35733-005900SY-MT+0021GMTT V0202401N01031004501CN0080001N1+01351+01071101861ADDAA106000391AG11001AY181061AY261061GA1021+003009999GA2071+004509999GA3021+006009099GF199999061091004501001001MA1101691999999MD1310241+9999MW1251REMSYN016 333 85815 82920MET007NEW NSGEQDQ01+000062SCOTCVQ02+000000PRSWM2
0092601010999991994011012304+35733-005900FM-15+0021GMTT V0202601N01031004501CN0080001N1+01401+01101999999ADDAG11999GA1071+004509999GA2021+006009099MA1101801999999REMMET007NEW NSGEQDQ01+000000PRSWM2
0107601010999991994011013304+35733-005900FM-15+0021GMTT V0202801N01031004501CN0060001N1+01601+00901999999ADDAG11999GA1021+003009999GA2071+004509999GA3021+006909099MA1101691999999REMMET006NEW NGEQDQ01+000000PRSWM2
0202601010999991994011015004+35733-005900SY-MT+0021GMTT V0202801N01291004501CN0070001N1+01441+00831101711ADDAA106999999AG14001AY181031AY221031GA1071+004509999GA2021+006909099GF107991071091004501999999MA1101691999999MD1610151+9999MW1251REMSYN016 333 86815 82923MET006NEW NGEQDQ01+000000PRSWM2Q02  00002PRCP06
0082601010999991994011017004+35733-005900FM-15+0021GMTT V0202401N00931004501CN0080001N1+99999+99999999999ADDAG11999GA1071+004509999REMMET028NEW SCK023 CB 13/11 Q1018 NGEQDQ01+000000PRSWM2
0207601010999991994011018004+35733-005900SY-MT+0021GMTT V0202601N00931003901CN0080001N1+01381+01081101831ADDAA199003091AG10001AY181061AY281061GA1071+003909999GA2021+006909099GF107991071091004501999999KA1120M+01631MA1101801999999MD1110121+9999MW1251REMSYN022 333 10163 86813 82923MET008NEW RESHEQDQ01+000000PRSWM2
0089601010999991994011019004+35733-005900FM-15+0021GMTT V0202601N01031220001CN0080001N1+99999+99999999999ADDAG11999GA1021+004809999GA2021+006909099REMMET019NEW EEE 13/11 Q1018EQDQ01+000000PRSWM2
0091601010999991994011019304+35733-005900FM-15+0021GMTT V0202601N00931220001CN0080001N1+01301+01101999999ADDAG11999GA1021+004509999GA2021+006909099MA1101901999999REMMET006NEW NGEQDQ01+000000PRSWM2
0164601010999991994011021004+35733-005900SY-MT+0021GMTT V0202601N00931004201CN0080001N1+01371+00781102101ADDAA106000091AG11000GA1021+004509999GA2021+006909099GF105991051091004501001001MA1102001999999MD1310271+9999REMSYN016 333 84815 81923MET006NEW NGEQDQ01+000000PRSWM2
0093601010999991994011021304+35733-005900FM-15+0021GMTT V0202601N00931220001CN0080001N1+01401+00801999999ADDAG11999GA1021+004509999GA2021+006909099MA1102101999999REMMET008NEW NSG/EQDQ01+000000PRSWM2
0092601010999991994011023004+35733-005900FM-15+0021GMTT V0202801N00931220001CN0080001N1+01401+00701999999ADDAG11999GA1021+004509999GA2021+006909099MA1102201999999REMMET007NEW NSGEQDQ01+000000PRSWM2
0178601010999991994011100004+35733-005900SY-MT+0021GMTT V0202801N00511004201CN0080001N1+01281+00701102261ADDAA106000191AG11000AY121061AY221061GA1021+004509999GA2021+006909099GF106991061091004501001001MD1110161+9999MW1801REMSYN016 333 85815 81923MET013NEW S1022 NSGEQDQ01+000000PRSWM2
0098601010999991994011101004+35733-005900FM-15+0021GMTT V0202801N00621004501CN0080001N1+01301+00701999999ADDAG11999GA1071+004509999GA2021+006909099MA1102201999999REMMET013NEW NEEE RESHEQDQ01+000000PRSWM2
0081601010999991994011101304+35733-005900FM-15+0021GMTT V0202801N00821004501CN0080001N1+99999+99999999999ADDAG11999GA1071+004509999REMMET027NEW CT023CB 13/07 S1022 NSGEQDQ01+000000PRSWM2
0186601010999991994011103004+35733-005900SY-MT+0021GMTT V0202601N00621220001CN0080001N1+01151+00761102311ADDAG12001AY181031AY221031GA1071+004509999GA2021+006909099GF199999031021004501001001MA1102201999999MD1310051+9999MW1011REMSYN010 333 83815MET007NEW NSGEQDQ01+000032SCOTCVQ02+000000PRSWM2
0162601010999991994011104004+35733-005900FM-15+0021GMTT V0201101N999999999999N9999999N9+99999+99999999999ADDAG11999REMMET092NEW 26010G20KT 9999 SCT016 TEMPO 0812 8000 SHRA BKN013 SCT023 TEMPO 1420 28010KT 9999 SCT020EQDQ01+020581WOSPD Q02+000002VOVAR Q03+000000PRSWM2
0093601010999991994011104304+35733-005900FM-15+0021GMTT V0202801N00821004501CN0080001N1+01101+00701999999ADDAG11999GA1071+004509999GA2021+006909099MA1102301999999REMMET008NEW RESHEQDQ01+000000PRSWM2
0159601010999991994011106004+35733-005900FM-12+0021GMTT V0202801N00511004501CN0100001N9+01201+00641102421ADDAA124004091AG10001AY181061AY221061GA1051+004509089GA2011+006909099GF106991061091004501001001KA1120N+01061MD1310111+9999MW1021REMSYN022 333 20106 85815 81923
0077601010999991994011107004+35733-005900FM-15+0021GMTT V0202801N00411004501CN0112651N1+01001+00501999999ADDAG11999GA1071+004509999MA1102401999999REMMET008NEW NSG+EQDQ01+000000PRSWM2
0076601010999991994011107304+35733-005900FM-15+0021GMTT V0202801N00411220001CN0112651N1+01001+00501999999ADDAG11999GA1021+004509999MA1102401999999REMMET007NEW NSGEQDQ01+000000PRSWM2
0142601010999991994011109004+35733-005900SY-MT+0021GMTT V0202401N00361004201CN0100001N1+00951+00741102561ADDAA106000091AG11000GA1021+004509999GF105991051021004501001001MA1102511999999MD1310141+9999REMSYN010 333 85816MET006NEW NGEQDQ01+000000PRSWM2
0095601010999991994011109304+35733-005900FM-15+0021GMTT V02099999999999999999N9999999N9+99999+99999999999ADDAG11999REMMET041NEW 0930 Z08KT 9999 BKN015 10/07 Q1025 NGEQDQ01+000002VOVAR Q02+000000PRSWM2
0075601010999991994011110304+35733-005900FM-15+0021GMTT V0202001N00311004501CN0112651N1+01301+00801999999ADDAG11999GA1071+004509999MA1102611999999REMMET006NEW NGEQDQ01+000000PRSWM2
0158601010999991994011112004+35733-005900SY-MT+0021GMTT V0201801N00411004501CN0100001N1+01571+00881102641ADDAA106000091AG14000GA1071+004509999GF199999051021004501001001MA1102611999999MD1110081+9999REMSYN010 333 85815MET006NEW NGEQDQ01+000052SCOTCVQ02+000000PRSWM2
0075601010999991994011112304+35733-005900FM-15+0021GMTT V0202001N00511004501CN0112651N1+01601+00901999999ADDAG11999GA1071+004509999MA1102611999999REMMET006NEW NGEQDQ01+000000PRSWM2
0076601010999991994011113304+35733-005900FM-15+0021GMTT V0202001N00621004501CN0112651N1+01601+00901999999ADDAG11999GA1071+004509999MA1102611999999REMMET007NEW NSGEQDQ01+000000PRSWM2
0165601010999991994011115004+35733-005900SY-MT+0021GMTT V0202201N00511004801CN0080001N1+01551+00971102581ADDAA106000091AG11000GA1071+004809999GA2071+030009999GF107991051021004501081999MA1102511999999MD1510061+9999REMSYN016 333 85816 86360MET007NEW NSGEQDQ01+000000PRSWM2
0092601010999991994011115304+35733-005900FM-15+0021GMTT V0202201N00511004801CN0080001N1+01601+01001999999ADDAG11999GA1071+004809999GA2071+030009999MA1102511999999REMMET007NEW NSGEQDQ01+000000PRSWM2
0092601010999991994011116304+35733-005900FM-15+0021GMTT V0202001N00511004801CN0080001N1+01501+00901999999ADDAG11999GA1071+004809999GA2071+030009999MA1102511999999REMMET007NEW NSGEQDQ01+000000PRSWM2
0192601010999991994011118004+35733-005900SY-MT+0021GMTT V0202001N00511004801CN0080001N1+01411+00871102671ADDAA106000091AG11000GA1071+004809999GA2071+030009999GF199999051021004501071001KA1120M+01651MD1310091+9999REMSYN022 333 10165 85816 85460MET014NEW WOQPWY NSGEQDQ01+000062SCOTCVQ02+000000PRSWM2
0092601010999991994011118304+35733-005900FM-15+0021GMTT V0202201N00511004801CN0080001N1+01401+00901999999ADDAG11999GA1071+004809999GA2071+030009999MA1102611999999REMMET007NEW NSGEQDQ01+000000PRSWM2
0092601010999991994011119304+35733-005900FM-15+0021GMTT V0202201N00511030001CN0080001N1+01401+01001999999ADDAG11999GA1021+004809999GA2071+030009999MA1102711999999REMMET007NEW NSGEQDQ01+000000PRSWM2
0165601010999991994011121004+35733-005900SY-MT+0021GMTT V0202001N00511030001CN0080001N1+01351+01011102741ADDAA106000091AG11000GA1021+004809999GA2071+030009999GF107991051021004501071999MA1102711999999MD1110071+9999REMSYN016 333 85816 87360MET007NEW NSGEQDQ01+000000PRSWM2
0092601010999991994011121304+35733-005900FM-15+0021GMTT V0202001N00511004801CN0112651N1+01401+01001999999ADDAG11999GA1071+004809999GA2071+030009999MA1102711999999REMMET007NEW NSGEQDQ01+000000PRSWM2
0092601010999991994011122304+35733-005900FM-15+0021GMTT V0202001N00311030001CN0080001N1+01401+01001999999ADDAG11999GA1021+004809999GA2071+030009999MA1102711999999REMMET007NEW NSGEQDQ01+000000PRSWM2
0181601010999991994011200004+35733-005900SY-MT+0021GMTT V0201801N00211030001CN0080001N1+01201+00911102761ADDAA106000091AG11000GA1021+004809999GA2071+030009999GF199999041021004501071001MA1102711999999MD1310021+9999REMSYN016 333 83816 83460MET007NEW NSGEQDQ01+000052SCOTCVQ02+000000PRSWM2
0092601010999991994011200304+35733-005900FM-15+0021GMTT V0200601N00101220001CN0080001N1+01201+00901999999ADDAG11999GA1021+004809999GA2021+030009999MA1102711999999REMMET007NEW NSGEQDQ01+000000PRSWM2
0076601010999991994011201304+35733-005900FM-15+0021GMTT V0201601N00151220001CN0080001N1+01101+00901999999ADDAG11999GA1021+004809999MA1102711999999REMMET007NEW NSGEQDQ01+000000PRSWM2
0143601010999991994011203004+35733-005900SY-MT+0021GMTT V0201001N00101004801CN0080001N1+01181+00951102751ADDAA106000091AG11000GA1071+004809999GF107991071051004501999999MA1102711999999MD1810011+9999REMSYN010 333 87616MET007NEW NSGEQDQ01+000000PRSWM2
0075601010999991994011203304+35733-005900FM-15+0021GMTT V0209991C00001004801CN0080001N1+01201+01001999999ADDAG11999GA1071+004809999MA1102711999999REMMET006NEW NGEQDQ01+000000PRSWM2
0075601010999991994011204304+35733-005900FM-15+0021GMTT V0209991C00001004801CN0112651N1+01201+01001999999ADDAG11999GA1071+004809999MA1102711999999REMMET006NEW NGEQDQ01+000000PRSWM2
0161601010999991994011206004+35733-005900SY-MT+0021GMTT V0200601N00261004801CN0080001N1+01101+00901102661ADDAA106000091AG11000GA1071+004809999GF107991071051004501999999KA1120N+01051MA1102711999999MD1810091+9999REMSYN016 333 20105 87616MET006NEW NGEQDQ01+000000PRSWM2
0075601010999991994011206304+35733-005900FM-15+0021GMTT V0200801N00261004801CN0080001N1+01101+00901999999ADDAG11999GA1071+004809999MA1102611999999REMMET006NEW NGEQDQ01+000000PRSWM2
0091601010999991994011207304+35733-005900FM-15+0021GMTT V0200801N00151004501CN0080001N1+01101+00901999999ADDAG11999GA1021+003009999GA2071+004509999MA1102611999999REMMET006NEW NGEQDQ01+000000PRSWM2
0096601010999991994011209004+35733-005900FM-12+0021GMTT V0201001N00211004801CN0180001N9+01201+00951102761ADDAA106000091AG14000GA1061+004809059GF107991061051004501071999MD1210101+9999REMSYN010 333 86616
0076601010999991994011209304+35733-005900FM-15+0021GMTT V0209991C00001220001CN0080001N1+01301+01001999999ADDAG11999GA1021+004809999MA1102711999999REMMET007NEW NSGEQDQ01+000000PRSWM2
0076601010999991994011211004+35733-005900FM-15+0021GMTT V0203401N00411004801CN0080001N1+01601+01301999999ADDAG11999GA1071+004809999MA1102811999999REMMET007NEW NSGEQDQ01+000000PRSWM2
0143601010999991994011212004+35733-005900SY-MT+0021GMTT V0203001N00211004801CN0100001N1+01651+01191102831ADDAA106000091AG11000GA1071+004809999GF107991071021004501999999MA1102811999999MD1010071+9999REMSYN010 333 87816MET007NEW NSGEQDQ01+000000PRSWM2
0076601010999991994011212304+35733-005900FM-15+0021GMTT V0202801N00211005101CN0112651N1+01701+01201999999ADDAG11999GA1071+005109999MA1102811999999REMMET007NEW NSGEQDQ01+000000PRSWM2
0076601010999991994011213304+35733-005900FM-15+0021GMTT V0203001N00311004801CN0112651N1+01701+01201999999ADDAG11999GA1071+004809999MA1102811999999REMMET007NEW NSGEQDQ01+000000PRSWM2
0143601010999991994011215004+35733-005900SY-MT+0021GMTT V0202801N00211220001CN0150001N1+01751+01301102711ADDAA106000091AG11000GA1021+004809999GF103991031021004501001001MA1102711999999MD1710121+9999REMSYN010 333 83816MET007NEW NSGEQDQ01+000000PRSWM2
0076601010999991994011215304+35733-005900FM-15+0021GMTT V0202801N00211220001CN0112651N1+01801+01301999999ADDAG11999GA1021+004809999MA1102711999999REMMET007NEW NSGEQDQ01+000000PRSWM2
0076601010999991994011216304+35733-005900FM-15+0021GMTT V0202601N00101220001CN0112651N1+01701+01401999999ADDAG11999GA1021+004809999MA1102611999999REMMET007NEW NSGEQDQ01+000000PRSWM2
0178601010999991994011218004+35733-005900SY-MT+0021GMTT V0209991C00001220001CN0100001N1+01521+01271102721ADDAA106000091AG11000GA1021+004809999GF199999011021004501001001KA1120M+01831MA1102711999999MD1310011+9999REMSYN016 333 10183 81820MET007NEW NSGEQDQ01+000012SCOTCVQ02+000000PRSWM2
0076601010999991994011219004+35733-005900FM-15+0021GMTT V0209991C00001220001CN0112651N1+01501+01301999999ADDAG11999GA1021+004809999MA1102711999999REMMET007NEW NSGEQDQ01+000000PRSWM2
0076601010999991994011219304+35733-005900FM-15+0021GMTT V0209991C00001220001CN0112651N1+01501+01301999999ADDAG11999GA1021+004809999MA1102711999999REMMET007NEW NSGEQDQ01+000000PRSWM2
0159601010999991994011221004+35733-005900SY-MT+0021GMTT V0203601N00211220001CN0100001N1+01191+01091102741ADDAA106000091AG11000GA1021+004809999GF199999011021004501001001MA1102711999999MD1210021+9999REMSYN010 333 81816MET007NEW NSGEQDQ01+000012SCOTCVQ02+000000PRSWM2
0169601010999991994011222004+35733-005900FM-15+0021GMTT V0209999999999220001CN9999999N9+99999+99999999999ADDAG11999GA1021+004809999REMMET099NEW TEMPO 0309 00000KT 2000 BR SCT010 SCT016 BECMG 0912 06008KT 8000 SCT016 SCT020 TEMPO 1218 CAVOKEQDQ01+000002VOVAR Q02+000000PRSWM2
0076601010999991994011222304+35733-005900FM-15+0021GMTT V0200801N00211220001CN0112651N1+01201+01101999999ADDAG11999GA1021+004809999MA1102711999999REMMET007NEW NSGEQDQ01+000000PRSWM2
0186601010999991994011223204+35733-005900FM-16+0021GMTT V0201221N999999999999N9999999N9+99999+99999999999ADDAG11999REMMET116NEW VRB03KT 8000 SCT016 TEMPO 0309 00000KT 2000 BR SCT010 SCT016 BECMG 0912 06008KT 8000 SCT016 SCT020 TEMPO 1218 CAEQDQ01+010291WOSPD Q02+000002VOVAR Q03+000000PRSWM2
0159601010999991994011300004+35733-005900SY-MT+0021GMTT V0200801N00211220001CN0080001N1+01021+00921102751ADDAA106000091AG11000GA1021+004809999GF199999011021004501001001MA1102711999999MD1010011+9999REMSYN010 333 81816MET007NEW NSGEQDQ01+000012SCOTCVQ02+000000PRSWM2
0060601010999991994011300304+35733-005900FM-15+0021GMTT V0200801N002119999999N0080001N1+01001+00901999999ADDAG11999MA1102711999999REMMET007NEW NSGEQDQ01+000000PRSWM2
0076601010999991994011301304+35733-005900FM-15+0021GMTT V0200801N00261220001CN0080001N1+01001+00901999999ADDAG11999GA1021+004809999MA1102711999999REMMET007NEW NSGEQDQ01+000000PRSWM2
0159601010999991994011303004+35733-005900SY-MT+0021GMTT V0200801N00211220001CN0100001N1+01001+00951102701ADDAA106000091AG11000GA1021+004809999GF199999011021004501001001MA1102711999999MD1610051+9999REMSYN010 333 81816MET007NEW NSGEQDQ01+000012SCOTCVQ02+000000PRSWM2
0076601010999991994011303304+35733-005900FM-15+0021GMTT V0200801N00151220001CN0112651N1+01001+01001999999ADDAG11999GA1021+004809999MA1102711999999REMMET007NEW NSGEQDQ01+000000PRSWM2
0076601010999991994011304304+35733-005900FM-15+0021GMTT V0201001N00311220001CN0112651N1+00901+00901999999ADDAG11999GA1021+004809999MA1102611999999REMMET007NEW NSGEQDQ01+000000PRSWM2
0178601010999991994011306004+35733-005900SY-MT+0021GMTT V0200801N00101220001CN0080001N1+00701+00631102641ADDAA106000091AG14000GA1021+004809999GF199999011021004501001001KA1120N+00701MA1102611999999MD1610071+9999REMSYN016 333 20070 81816MET007NEW NSGEQDQ01+000012SCOTCVQ02+000000PRSWM2
0076601010999991994011306304+35733-005900FM-15+0021GMTT V0200801N00211220001CN0080001N1+00701+00601999999ADDAG11999GA1021+004809999MA1102611999999REMMET007NEW NSGEQDQ01+000000PRSWM2
0076601010999991994011307304+35733-005900FM-15+0021GMTT V0200801N00211220001CN0080001N1+00701+00601999999ADDAG11999GA1021+004809999MA1102611999999REMMET007NEW NSGEQDQ01+000000PRSWM2
0159601010999991994011309004+35733-005900SY-MT+0021GMTT V0200801N00101220001CN0080001N1+00951+00851102701ADDAA106000091AG11000GA1021+004809999GF199999011021004501001001MA1102711999999MD1210071+9999REMSYN010 333 81816MET007NEW NSGEQDQ01+000012SCOTCVQ02+000000PRSWM2
0076601010999991994011309304+35733-005900FM-15+0021GMTT V0209991C00001220001CN0080001N1+01001+00901999999ADDAG11999GA1021+004809999MA1102711999999REMMET007NEW NSGEQDQ01+000000PRSWM2
0157601010999991994011310204+35733-005900FM-16+0021GMTT V0209991C000019999999N9999999N9+99999+99999999999ADDAG11999REMMET103NEW VRB03KT 8000 SCT016 TEMPO 1116 CAVOK PROB30 TEMPO 0006 2000 BR SCT010 SCT013 BECMG 1013 8000 SCT016EQDQ01+000002VOVAR Q02+000000PRSWM2
0076601010999991994011310304+35733-005900FM-15+0021GMTT V0209991C00001220001CN0080001N1+01301+01101999999ADDAG11999GA1021+004809999MA1102711999999REMMET007NEW NSGEQDQ01+000000PRSWM2
0117601010999991994011312004+35733-005900SY-MT+0021GMTT V0202001N00311220001CN0100001N1+01711+01321102751ADDAA106000091AG11000GF100991001001999999001001MA1102711999999MD1010051+9999REMMET013NEW CAVOK NSGEQDQ01+000000PRSWM2
0066601010999991994011312304+35733-005900FM-15+0021GMTT V0202001N00311999991CY0099001N1+01701+01301999999ADDAG11999MA1102711999999REMMET013NEW CAVOK NSGEQDQ01+000000PRSWM2
0066601010999991994011313304+35733-005900FM-15+0021GMTT V0202401N00311999991CY0099001N1+01701+01301999999ADDAG11999MA1102711999999REMMET013NEW CAVOK NSGEQDQ01+000000PRSWM2
0149601010999991994011315004+35733-005900SY-MT+0021GMTT V0202401N00261220001CN0150001N1+01661+01261102641ADDAA106000091AG11000GA1011+004809059GF101991011051004501001001MA1102711999999MD1710111+9999REMSYN010 333 81616MET013NEW CAVOK NSGEQDQ01+000000PRSWM2
0077601010999991994011315304+35733-005900FM-15+0021GMTT V0202401N00151220001CN0112651N1+01701+01301999999ADDAG11999GA1021+004809999MA1102611999999REMMET008NEW NOSIEQDQ01+000000PRSWM2
0077601010999991994011317004+35733-005900FM-15+0021GMTT V0209991C00001220001CN0112651N1+01601+01301999999ADDAG11999GA1021+004809999MA1102611999999REMMET008NEW NOSIEQDQ01+000000PRSWM2
0188601010999991994011318004+35733-005900SY-MT+0021GMTT V0209991C00001220001CN0150001N1+01501+01301102681ADDAA106000091AG11000GA1021+004809999GF199999001001999999001001KA1120M+01831MA1102611999999MD1310041+9999REMSYN010 333 10183MET007NEW NSGEQDQ01+000002SCOTCVQ02+000992SCOLCBQ03+000000PRSWM2
0068601010999991994011318304+35733-005900FM-15+0021GMTT V0209991C00001999991CY0099001N1+01501+01301999999ADDAG11999MA1102611999999REMMET015NEW CAVOK NOSIGEQDQ01+000000PRSWM2
0061601010999991994011320004+35733-005900FM-15+0021GMTT V0209991C00001220001CN0080001N1+01301+01201999999ADDAG11999MA1102711999999REMMET008NEW NOSIEQDQ01+000000PRSWM2
0143601010999991994011321004+35733-005900SY-MT+0021GMTT V0209991C00001220001CN0080001N1+00961+00881102761ADDAA106000091AG14000GA1021+004809999GF102991021051004501001001MA1102711999999MD1310071+9999REMSYN010 333 82616MET007NEW NSGEQDQ01+000000PRSWM2
0076601010999991994011321304+35733-005900FM-15+0021GMTT V0209991C00001220001CN0080001N1+01001+00901999999ADDAG11999GA1021+004809999MA1102711999999REMMET007NEW NSGEQDQ01+000000PRSWM2
0076601010999991994011322304+35733-005900FM-15+0021GMTT V0209991C00001220001CN0080001N1+00901+00901999999ADDAG11999GA1021+004809999MA1102711999999REMMET007NEW NSGEQDQ01+000000PRSWM2
0059601010999991994011323384+35733-005900FM-15+0021GMTT V0203601N00411220001CN0008001N1+00901+00901999999ADDAG11000GA1021+001509999MA1102711999999MW1441REMMET003NEW
0063601010999991994011400304+35733-005900FM-15+0021GMTT V0209991C00001220001CN0008001N1+01001+00901999999ADDAG11999GA1021+001509999MA1102711999999MW1441REMMET007NEW NSG
0063601010999991994011401304+35733-005900FM-15+0021GMTT V0209991C00001220001CN0008001N1+01001+00901999999ADDAG11999GA1021+001809999MA1102711999999MW1441REMMET007NEW NSG
0152601010999991994011403004+35733-005900SY-MT+0021GMTT V0209991C00001220001CN0008001N1+00911+00831102771ADDAA106000091AG10000AY141031AY201031GA1021+001809999GF104991041061002501001001MA1102711999999MD1310011+9999MW1441MW2461REMSYN010 333 83706MET007NEW NSG
0063601010999991994011403304+35733-005900FM-15+0021GMTT V0209991C00001220001CN0008001N1+00901+00801999999ADDAG11999GA1021+001809999MA1102711999999MW1441REMMET007NEW NSG
0063601010999991994011404304+35733-005900FM-15+0021GMTT V0209991C00001220001CN0008001N1+01001+00901999999ADDAG11999GA1021+001809999MA1102711999999MW1441REMMET007NEW NSG
0184601010999991994011406004+35733-005900SY-MT+0021GMTT V0209991C00001220001CN0003001N1+00961+00921102791ADDAA106000091AG11000AY141061AY221061GA1021+001809999GF104991041061002501001001KA1120N+00861MA1102711999999MD1310021+9999MW1441REMSYN016 333 20086 83705MET007NEW NSGEQDQ01+000452PRSWM1
0059601010999991994011406304+35733-005900FM-15+0021GMTT V0209991C00001220001CN0003001N1+01001+00901999999ADDAG11999GA1021+001509999MA1102711999999MW1441REMMET003NEW
0061601010999991994011407304+35733-005900FM-15+0021GMTT V0209991C00001220001CN0003001N1+01001+00901999999ADDAG11999GA1021+001509999MA1102711999999MW1441REMMET005NEW N
0144601010999991994011409004+35733-005900SY-MT+0021GMTT V0209991C00001001201CN0005001N1+00941+00851102851ADDAA106000091AG14000GA1031+001509079GF105991051071001501001001MA1102811999999MD1110061+9999REMSYN010 333 83705MET008NEW NOSIEQDQ01+000003PRSWM1
0077601010999991994011409304+35733-005900FM-15+0021GMTT V0209991C00001220001CN0008001N1+00901+00901999999ADDAG11999GA1021+001509999MA1102811999999REMMET008NEW NOSIEQDQ01+000000PRSWM2
0080601010999991994011411004+35733-005900FM-15+0021GMTT V0202201N00211069001CN0030001N1+01401+01301999999ADDAG11999GA1021+002409999GA2071+069009999MA1102911999999MW1101REMMET008NEW NOSI
0168601010999991994011412004+35733-005900SY-MT+0021GMTT V0202201N00211069001CN0030001N9+01541+01361102981ADDAA106000091AG10000AY141061AY221061GA1021+002409999GA2071+069009999GF199999021061002501001021MD1110141+9999MW1101REMSYN016 333 82708 85073MET003NEWEQDQ01+000062SCOTCV
0075601010999991994011412304+35733-005900FM-15+0021GMTT V0202401N00211069001CN0030001N1+01501+01401999999ADDAG11999GA1021+002409999GA2071+069009999MA1102911999999MW1101REMMET003NEW
0092601010999991994011413304+35733-005900FM-15+0021GMTT V0202201N00261220001CN0060001N1+01501+01401999999ADDAG11999GA1021+003009999GA2021+004809999MA1102911999999REMMET007NEW NSGEQDQ01+000000PRSWM2
0092601010999991994011414304+35733-005900FM-15+0021GMTT V0202401N00311220001CN0080001N1+01601+01301999999ADDAG11000GA1021+003909999GA2021+006009999MA1102811999999REMMET007NEW NSGEQDQ01+000000PRSWM2
0060601010999991994011415304+35733-005900FM-15+0021GMTT V0202401N003119999999N0112651N1+01701+01201999999ADDAG11999MA1102711999999REMMET007NEW NSGEQDQ01+000000PRSWM2
0092601010999991994011416304+35733-005900FM-15+0021GMTT V0202401N00411220001CN0112651N1+01701+01201999999ADDAG11999GA1021+004809999GA2021+069009999MA1102711999999REMMET007NEW NSGEQDQ01+000000PRSWM2
0178601010999991994011418004+35733-005900SY-MT+0021GMTT V0202601N00411004201CN0100001N1+01431+01191102801ADDAA106000091AG11000GA1021+004809999GA2021+069009999GF107991071051004501999999KA1120M+01681MA1102711999999MD1310021+9999REMSYN016 333 10168 87616MET007NEW NSGEQDQ01+000000PRSWM2
0076601010999991994011418304+35733-005900FM-15+0021GMTT V0202601N00411004801CN0080001N1+01401+01201999999ADDAG11999GA1071+004809999MA1102811999999REMMET007NEW NSGEQDQ01+000000PRSWM2
0076601010999991994011419304+35733-005900FM-15+0021GMTT V0202601N00311220001CN0080001N1+01301+01201999999ADDAG11999GA1021+004509999MA1102811999999REMMET007NEW NSGEQDQ01+000000PRSWM2
0165601010999991994011421004+35733-005900SY-MT+0021GMTT V0209991C00001220001CN0060001N1+01211+01081102901ADDAA106000091AG11000GA1071+004509999GF199999041051004501001001MA1102811999999MD1110101+9999REMSYN016 333 82710 83615MET007NEW NSGEQDQ01+000042SCOTCVQ02+000000PRSWM2
0093601010999991994011421304+35733-005900FM-15+0021GMTT V0200801N00151220001CN0060001N1+01201+01101999999ADDAG11999GA1021+003009999GA2021+004509999MA1102911999999REMMET008NEW NOSIEQDQ01+000000PRSWM2
0093601010999991994011422304+35733-005900FM-15+0021GMTT V0200801N00151220001CN0060001N1+01201+01101999999ADDAG11999GA1021+003009999GA2021+004509999MA1102911999999REMMET008NEW NOSIEQDQ01+000000PRSWM2
0165601010999991994011500004+35733-005900SY-MT+0021GMTT V0202601N00411220001CN0060001N1+00821+00711102921ADDAA106000091AG11000GA1021+003009079GF102991021061004501001001MD1210031+9999REMSYN010 333 82710MET044NEW 0KT 6000 SCT010 SCT015 12/11 Q1029 NOSIGEQDQ01+000000PRSWM2
0077601010999991994011500304+35733-005900FM-15+0021GMTT V0202801N00361220001CN0060001N1+00801+00701999999ADDAG11999GA1021+003009999MA1102911999999REMMET008NEW NOSIEQDQ01+000000PRSWM2
0093601010999991994011502004+35733-005900FM-15+0021GMTT V0202801N00361220001CN0060001N1+00801+00701999999ADDAG11999GA1021+003009999GA2021+004509999MA1102911999999REMMET008NEW NOSIEQDQ01+000000PRSWM2
0166601010999991994011503004+35733-005900SY-MT+0021GMTT V0202801N00461004201CN0060001N1+01251+01101102791ADDAA106000091AG11000GA1021+003009999GA2021+004509999GF105991051051004501001001MA1102911999999MD1810121+9999REMSYN016 333 83710 84616MET008NEW NOSIEQDQ01+000000PRSWM2
0093601010999991994011504304+35733-005900FM-15+0021GMTT V0202801N00461220001CN0060001N1+01301+01101999999ADDAG11999GA1021+003009999GA2021+004509999MA1102711999999REMMET008NEW NOSIEQDQ01+000000PRSWM2
0174601010999991994011506004+35733-005900SY-MT+0021GMTT V0202801N00311004201CN0060001N1+01261+01111102711ADDAA106000091AG11000GA1021+003009999GF105991051051004501001001KA1120N+00731MD1810081+9999REMSYN022 333 20073 83710 84615MET028NEW SCR015 13/11 Q1027 NOSIGEQDQ01+000000PRSWM2
0093601010999991994011506304+35733-005900FM-15+0021GMTT V0201801N00361220001CN0060001N1+01301+01101999999ADDAG11999GA1021+003009999GA2021+004509999MA1102711999999REMMET008NEW NOSIEQDQ01+000000PRSWM2
0093601010999991994011507304+35733-005900FM-15+0021GMTT V0201601N00151004801CN0060001N1+01301+01101999999ADDAG11999GA1021+003009999GA2071+004809999MA1102711999999REMMET008NEW NOSIEQDQ01+000000PRSWM2
0181601010999991994011509004+35733-005900SY-MT+0021GMTT V0202201N00411012001CN0070001N1+01361+00951102801ADDAA106000091AG11000GA1021+003009999GA2021+006909999GA3071+012009999GF108991041081004501999999MA1102711999999MD1310091+9999REMSYN016 333 84816 88840MET007NEW NSGEQDQ01+000000PRSWM2
0093601010999991994011509304+35733-005900FM-15+0021GMTT V0201601N003110048019N0070001N1+01401+01001999999ADDAG11999GA1071+000159999GA2021+004809999MA1102811999999REMMET008NEW RERAEQDQ01+000000PRSWM2
0104601010999991994011510004+35733-005900FM-15+0021GMTT V0201801N00311004801CN0070001N1+01301+01201999999ADDAG11999GA1021+002409999GA2021+003909999GA3071+004809999MA1102811999999REMMET003NEWEQDQ01+000000PRSWM2
0104601010999991994011510304+35733-005900FM-15+0021GMTT V0203401N00411004801CN0040001N1+01301+01201999999ADDAG11999GA1021+001809999GA2021+003909999GA3071+004809999MA1102811999999REMMET003NEWEQDQ01+000000PRSWM2
0189601010999991994011512004+35733-005900SY-MT+0021GMTT V0203201N00721004801CN0060001N1+01421+01221102801ADDAA106000191AG11001AY161061AY221061GA1021+003909999GA2071+004809999GF108991071021002501071999MA1102811999999MD1010041+9999MW1031REMSYN022 333 82708 86816 87460MET003NEWEQDQ01+000000PRSWM2
0109601010999991994011513004+35733-005900FM-15+0021GMTT V0203201N00671004801CN0080001N1+01401+01201999999ADDAG11999GA1021+002409999GA2071+004809999GA3071+030009999MA1102811999999REMMET008NEW RERAEQDQ01+000000PRSWM2
0108601010999991994011513304+35733-005900FM-15+0021GMTT V0203201N00771004801CN0080001N1+01401+01201999999ADDAG11999GA1021+002409999GA2071+004809999GA3071+030009999MA1102811999999REMMET007NEW NSGEQDQ01+000000PRSWM2
0108601010999991994011514304+35733-005900FM-15+0021GMTT V0203201N00931004801CN0080001N1+01501+01301999999ADDAG11000GA1021+003009999GA2071+004809999GA3071+030009999MA1102711999999REMMET007NEW NSGEQDQ01+000000PRSWM2
0092601010999991994011515304+35733-005900FM-15+0021GMTT V0203001N00721220001CN0112651N1+01401+00701999999ADDAG11999GA1021+002409999GA2021+004809999MA1102611999999REMMET007NEW NSGEQDQ01+000000PRSWM2
0092601010999991994011516304+35733-005900FM-15+0021GMTT V0203201N00671220001CN0112651N1+01401+00701999999ADDAG11999GA1021+003009999GA2021+004809999MA1102511999999REMMET007NEW NSGEQDQ01+000000PRSWM2
0180601010999991994011518004+35733-005900SY-MT+0021GMTT V0202801N00511220001CN0150001N1+01231+00771102521ADDAA199000391AG13000AY111061AY261061GA1021+004809999GF103991031021004501001001KA1120M+01441MA1102511999999MD1710101+9999MW1121REMSYN016 333 10144 83816MET003NEWEQDQ01+000000PRSWM2
0076601010999991994011519004+35733-005900FM-15+0021GMTT V0203001N00511220001CN0112651N1+01201+00901999999ADDAG11999GA1021+004809999MA1102511999999REMMET007NEW NSGEQDQ01+000000PRSWM2
0076601010999991994011519304+35733-005900FM-15+0021GMTT V0202801N00511220001CN0112651N1+01201+00901999999ADDAG11999GA1021+004809999MA1102511999999REMMET007NEW NSGEQDQ01+000000PRSWM2
0118601010999991994011521004+35733-005900FM-12+0021GMTT V0202801N00411220001CN0100001N9+00961+00751102501ADDAA106000091AG14000GA1021+004809089GA2031+030009039GF104991021051999999031001MD1010021+9999REMSYN016 333 82816 83360
0092601010999991994011522004+35733-005900FM-15+0021GMTT V0202801N00461220001CN0112651N1+01001+00801999999ADDAG11999GA1021+004809999GA2021+030009999MA1102511999999REMMET007NEW NSGEQDQ01+000000PRSWM2
0076601010999991994011523004+35733-005900FM-15+0021GMTT V0203201N00621220001CN0112651N1+01201+01001999999ADDAG11999GA1021+004809999MA1102511999999REMMET007NEW NSGEQDQ01+000000PRSWM2
0109601010999991994011600004+35733-005900SY-MT+0021GMTT V0203201N00411220001CN0100001N9+01031+00651102441ADDAA106000091AG14000GA1021+004809999GF102991021051004501001001MD1810101+9999REMSYN010 333 82616MET007NEW NSG
0076601010999991994011600304+35733-005900FM-15+0021GMTT V0203201N00511220001CN0112651N1+01001+00701999999ADDAG11999GA1021+004809999MA1102401999999REMMET007NEW NSGEQDQ01+000000PRSWM2
0076601010999991994011601304+35733-005900FM-15+0021GMTT V0203201N00511220001CN0112651N1+01101+00701999999ADDAG11999GA1021+004809999MA1102401999999REMMET007NEW NSGEQDQ01+000000PRSWM2
0143601010999991994011603004+35733-005900SY-MT+0021GMTT V0203201N00571220001CN0100001N1+01121+00451102281ADDAA106000091AG11000GA1021+004809999GF103991031051004501001001MA1102301999999MD1610161+9999REMSYN010 333 83616MET007NEW NSGEQDQ01+000000PRSWM2
0076601010999991994011603304+35733-005900FM-15+0021GMTT V0203401N00511220001CN0112651N1+01101+00501999999ADDAG11999GA1021+004809999MA1102201999999REMMET007NEW NSGEQDQ01+000000PRSWM2
0074601010999991994011605004+35733-005900FM-16+0021GMTT V0203401N00511220001CN0112651N1+99999+99999999999ADDAG11999GA1021+004809999REMMET020NEW A 11/05 Q1021 NSEQDQ01+000000PRSWM2
0162601010999991994011606004+35733-005900SY-MT+0021GMTT V0203201N00621220001CN0100001N1+00951+00511102101ADDAA124000391AG13000GA1021+004809999GF103991031051004501001001KA1120N+00821MA1102101999999MD1810181+9999REMSYN016 333 20082 83616MET007NEW NSGEQDQ01+000000PRSWM2
0076601010999991994011606304+35733-005900FM-15+0021GMTT V0203201N00511220001CN0112651N1+01001+00501999999ADDAG11999GA1021+004809999MA1102101999999REMMET007NEW NSGEQDQ01+000000PRSWM2
0108601010999991994011608004+35733-005900FM-15+0021GMTT V0200601N00151069001CN0112651N1+00901+00701999999ADDAG11999GA1021+004809999GA2021+030009999GA3071+069009999MA1102101999999REMMET007NEW NSGEQDQ01+000000PRSWM2
0187601010999991994011609004+35733-005900SY-MT+0021GMTT V0209991C00001069001CN0100001N1+00831+00611102021ADDAA106000091AG11000GA1021+004809999GA2021+030009999GA3071+069009999GF108991021021004501081021MA1102101999999MD1810081+9999REMSYN022 333 82816 85360 85073MET007NEW NSGEQDQ01+000000PRSWM2
0108601010999991994011609304+35733-005900FM-15+0021GMTT V0209991C00001030001CN0112651N1+00801+00601999999ADDAG11999GA1021+004809999GA2071+030009999GA3071+069009999MA1102001999999REMMET007NEW NSGEQDQ01+000000PRSWM2
0108601010999991994011610304+35733-005900FM-15+0021GMTT V0203001N00511030001CN0112651N1+00901+00701999999ADDAG11999GA1021+004809999GA2071+030009999GA3071+069009999MA1102001999999REMMET007NEW NSGEQDQ01+000000PRSWM2
0165601010999991994011612004+35733-005900SY-MT+0021GMTT V0203001N00411090001CN0100001N1+01331+00401101911ADDAA106000091AG14000GA1021+004809999GA2021+069009999GF105991031021004501001021MA1102001999999MD1810111+9999REMSYN016 333 83816 83073MET007NEW NSGEQDQ01+000000PRSWM2
0092601010999991994011613004+35733-005900FM-15+0021GMTT V0203001N00511220001CN0112651N1+01401+00501999999ADDAG11999GA1021+004809999GA2021+069009999MA1101691999999REMMET007NEW NSGEQDQ01+000000PRSWM2
0092601010999991994011613304+35733-005900FM-15+0021GMTT V0202601N00511220001CN0112651N1+01401+00501999999ADDAG11999GA1021+004809999GA2021+069009999MA1101691999999REMMET007NEW NSGEQDQ01+000000PRSWM2
0118601010999991994011615004+35733-005900FM-12+0021GMTT V0202601N00211069001CN0100001N9+01401+00421101511ADDAA106000091AG14000GA1031+004809089GA2031+069009009GF105991021021004501001021MD1610401+9999REMSYN016 333 83816 83073
0092601010999991994011615304+35733-005900FM-15+0021GMTT V0202601N00311220001CN0112651N1+01401+00401999999ADDAG11999GA1021+004809999GA2021+069009999MA1101491999999REMMET007NEW NSGEQDQ01+000000PRSWM2
0092601010999991994011616304+35733-005900FM-15+0021GMTT V0202401N00311220001CN0112651N1+01401+00501999999ADDAG11999GA1021+004809999GA2021+069009999MA1101391999999REMMET007NEW NSGEQDQ01+000000PRSWM2
0150601010999991994011618004+35733-005900SY-MT+0021GMTT V0202401N00261009001CN0100001N9+01151+00621101341ADDAA106000091AG14000GA1021+004809999GA2021+006009999GF107991051081004501071999KA1120M+01401MD1710171+9999REMSYN022 333 10140 82816 84620MET007NEW NSG
0092601010999991994011619304+35733-005900FM-15+0021GMTT V0202601N00411006001CN0112651N1+01101+00601999999ADDAG11999GA1021+004809999GA2071+006009999MA1101191999999REMMET007NEW NSGEQDQ01+000000PRSWM2
0163601010999991994011621004+35733-005900SY-MT+0021GMTT V0201401N00311004801CN0060001N1+01031+00761101261ADDAG12004AY121031AY221031GA1071+004809999GA2071+027009999GF108991051021004501071999MA1101191999999MD1610081+9999MW1631REMSYN022 333 82710 85816 87459MET007NEW NSG
0095601010999991994011621304+35733-005900FM-15+0021GMTT V0200201N00411004801CN0060001N1+01001+00801999999ADDAG11999GA1021+003009999GA2071+004809999GA3071+027009999MA1101191999999MW1631REMMET007NEW NSG
0095601010999991994011622304+35733-005900FM-15+0021GMTT V0200201N00411004801CN0060001N1+01001+00801999999ADDAG11999GA1021+003009999GA2071+004809999GA3081+027009999MA1101191999999MW1611REMMET007NEW NSG
0190601010999991994011700004+35733-005900SY-MT+0021GMTT V0200301N00211004801CN0060001N1+00901+00711101261ADDAA106009091AG11003AY161061AY261061GA1021+003009999GA2071+004809999GA3081+027009999GF108991051021004501071999MA1101191999999MD1410001+9999MW1611REMSYN022 333 82710 85816 87457MET007NEW NSG
0095601010999991994011700304+35733-005900FM-15+0021GMTT V0200201N00211004801CN0060001N1+00901+00701999999ADDAG11999GA1021+003009999GA2071+004809999GA3071+027009999MA1101191999999MW1611REMMET007NEW NSG
0108601010999991994011702004+35733-005900FM-15+0021GMTT V0209991C00001004801CN0060001N1+00901+00701999999ADDAG11999GA1021+003009999GA2071+004809999GA3071+027009999MA1101191999999REMMET007NEW NSGEQDQ01+000000PRSWM2
0108601010999991994011702304+35733-005900FM-15+0021GMTT V0209991C00001004801CN0060001N1+00901+00701999999ADDAG11000GA1021+003009999GA2071+004809999GA3071+027009999MA1101191999999REMMET007NEW NSGEQDQ01+000000PRSWM2
0108601010999991994011703304+35733-005900FM-15+0021GMTT V0201001N00151004801CN0080001N1+00901+00701999999ADDAG11999GA1021+003009999GA2071+004809999GA3071+027009999MA1101081999999REMMET007NEW NSGEQDQ01+000000PRSWM2
0108601010999991994011704304+35733-005900FM-15+0021GMTT V0200401N00261004801CN0080001N1+00901+00701999999ADDAG11999GA1021+003009999GA2071+004809999GA3081+027009999MA1101081999999REMMET007NEW NSGEQDQ01+000000PRSWM2
0238601010999991994011706004+35733-005900SY-MT+0021GMTT V0200601N00311004801CN0080001N1+00641+00551101101ADDAA124009091AG11001AY161061AY221061GA1021+003009999GA2071+004809999GA3071+027009999GF199999031021004501031001KA1120N+00611MA1101081999999MD1610081+9999MW1011REMSYN022 333 20061 81710 83816MET007NEW NSGEQDQ01+000052SCOTCVQ02+000000PRSWM2
0076601010999991994011706304+35733-005900FM-15+0021GMTT V0200401N00311220001CN0080001N1+00601+00601999999ADDAG11999GA1021+004809999MA1101081999999REMMET007NEW NSGEQDQ01+000000PRSWM2
0092601010999991994011707304+35733-005900FM-15+0021GMTT V0200601N00261024001CN0112651N1+00701+00601999999ADDAG11999GA1021+004809999GA2071+024009999MA1101081999999REMMET007NEW NSGEQDQ01+000000PRSWM2
0205601010999991994011709004+35733-005900SY-MT+0021GMTT V0203401N00211220001CN0100001N1+00881+00711101231ADDAA106000091AG11000GA1021+004809089GF103991999021004501001001MD1310131+9999REMSYN010 333 82816MET068NEW VRB05KT 9999 SCT016 BKN090 BECMG 1116 32012 6000 TSRA BKN016 SCTEQDQ01+000022SCOTLCQ02+000000PRSWM2
0076601010999991994011709304+35733-005900FM-15+0021GMTT V0203401N00311220001CN0112651N1+00901+00701999999ADDAG11999GA1021+004809999MA1101191999999REMMET007NEW NSGEQDQ01+000000PRSWM2
0076601010999991994011711004+35733-005900FM-15+0021GMTT V0203001N00621220001CN0112651N1+01101+00801999999ADDAG11999GA1021+004809999MA1101191999999REMMET007NEW NSGEQDQ01+000000PRSWM2
0118601010999991994011712004+35733-005900FM-12+0021GMTT V0200201N00821220001CN0100001N9+01331+00471101241ADDAA106000191AG10001AY161061AY211061GA1021+004809089GF102991021021004501001001MD1010011+9999MW1021REMSYN010 333 82816
0076601010999991994011712304+35733-005900FM-15+0021GMTT V0203601N01031220001CN0112651N1+01301+00501999999ADDAG11999GA1021+004809999MA1101191999999REMMET007NEW NSGEQDQ01+000000PRSWM2
0076601010999991994011713304+35733-005900FM-15+0021GMTT V0200401N00621220001CN0112651N1+01401+00301999999ADDAG11999GA1021+004809999MA1101081999999REMMET007NEW NSGEQDQ01+000000PRSWM2
0143601010999991994011715004+35733-005900SY-MT+0021GMTT V0203601N00721220001CN0150001N1+01401+00291101121ADDAA106000091AG11000GA1021+004809999GF103991031021004501001001MA1101081999999MD1710121+9999REMSYN010 333 83816MET007NEW NSGEQDQ01+000000PRSWM2
0076601010999991994011715304+35733-005900FM-15+0021GMTT V0203601N00721220001CN0112651N1+01401+00301999999ADDAG11999GA1021+004809999MA1101081999999REMMET007NEW NSGEQDQ01+000000PRSWM2
0076601010999991994011716304+35733-005900FM-15+0021GMTT V0200201N00621220001CN0112651N1+01401+00301999999ADDAG11999GA1021+004809999MA1101081999999REMMET007NEW NSGEQDQ01+000000PRSWM2
0184601010999991994011718004+35733-005900SY-MT+0021GMTT V0200401N00311220001CN0150001N1+01061+00391101191ADDAA199000191AG13000GA1021+004809999GA2021+006909099GF103991031031004501001001KA1120M+01401MA1101081999999MD1310071+9999REMSYN022 333 10140 83816 81923MET007NEW NSGEQDQ01+000000PRSWM2
0076601010999991994011719004+35733-005900FM-15+0021GMTT V0200401N00211220001CN0112651N1+00901+00401999999ADDAG11999GA1021+004809999MA1101191999999REMMET007NEW NSGEQDQ01+000000PRSWM2
0076601010999991994011719304+35733-005900FM-15+0021GMTT V0200401N00311220001CN0112651N1+00901+00401999999ADDAG11999GA1021+004809999MA1101191999999REMMET007NEW NSGEQDQ01+000000PRSWM2
0128601010999991994011721004+35733-005900SY-MT+0021GMTT V0203601N00411004801CN0080001N9+01011+00581101381ADDAA106000091AG14000GA1071+004809999GF199999061021004501001001MD1210191+9999REMSYN010 333 86816MET007NEW NSGEQDQ01+000062SCOTCV
0076601010999991994011721304+35733-005900FM-15+0021GMTT V0203601N00511220001CN0080001N1+01001+00601999999ADDAG11999GA1021+004809999MA1101291999999REMMET007NEW NSGEQDQ01+000000PRSWM2
0076601010999991994011723004+35733-005900FM-15+0021GMTT V0200201N00511220001CN0080001N1+01001+00601999999ADDAG11999GA1021+004809999MA1101391999999REMMET007NEW NSGEQDQ01+000000PRSWM2
0143601010999991994011800004+35733-005900SY-MT+0021GMTT V0203601N00511220001CN0080001N1+00931-00021101401ADDAA106000091AG11000GA1021+004809999GF103991031021004501001001MA1101391999999MD1110021+9999REMSYN010 333 83816MET007NEW NSGEQDQ01+000000PRSWM2
0098601010999991994011800304+35733-005900FM-15+0021GMTT V02099999999999999999N9999999N9+99999+99999999999ADDAG11999REMMET044NEW 0030Z ///// 8000 SCT016 09/MOO Q1014 NSGEQDQ01+000002VOVAR Q02+000000PRSWM2
0076601010999991994011801304+35733-005900FM-15+0021GMTT V0200201N00621220001CN0080001N1+00901+00001999999ADDAG11999GA1021+004809999MA1101391999999REMMET007NEW NSGEQDQ01+000000PRSWM2
0149601010999991994011803004+35733-005900SY-MT+0021GMTT V0203601N00511036001CN0080001N1+00851-00041101321ADDAA106000091AG11000GA1021+004809999GF106991041021004501031001MA1101291999999MD1610081+9999REMSYN016 333 84816 84359MET007NEW NSGEQDQ01+000000PRSWM2
0092601010999991994011803304+35733-005900FM-15+0021GMTT V0203601N00411220001CN0080001N1+00901+00001999999ADDAG11999GA1021+004809999GA2021+027009999MA1101291999999REMMET007NEW NSGEQDQ01+000000PRSWM2
0181601010999991994011806004+35733-005900FM-12+0021GMTT V0203401N00261004801CN0060001N9+00661+00621101351ADDAA124002091AG10001AY161061AY261061GA1051+004809089GA2011+006909099GA3071+027009049GF108991061091004501071999KA1120N+00601MD1210031+9999MW1621REMSYN028 333 20060 85816 81923 87459
0113601010999991994011806304+35733-005900FM-15+0021GMTT V0203401N00211004801CN0080001N1+00701+00601999999ADDAG11999GA1071+004809999GA2021+006909999GA3071+027009999MA1101291999999REMMET012NEW RERA NSGEQDQ01+000000PRSWM2
0098601010999991994011807304+35733-005900FM-16+0021GMTT V0200401N00311004801CN0080001N1+99999+99999999999ADDAG11999GA1071+004809999GA2021+006909099REMMET028NEW 5BKN090 067/05 Q1013 NSGEQDQ01+000000PRSWM2
0108601010999991994011808004+35733-005900FM-15+0021GMTT V0200401N00511004801CN0080001N1+00901+00301999999ADDAG11999GA1021+003909999GA2071+004809999GA3021+006909099MA1101291999999REMMET007NEW NSGEQDQ01+000000PRSWM2
0198601010999991994011809004+35733-005900SY-MT+0021GMTT V0200401N00721004801CN0080001N1+00861+00411101401ADDAG12001AY161031AY221031GA1021+003909999GA2071+004809999GA3021+006909099GF107991071091004501999999MA1101291999999MD1310051+9999MW1021REMSYN022 333 82813 85816 82923MET007NEW NSGEQDQ01+000000PRSWM2
0181601010999991994011810004+35733-005900FM-15+0021GMTT V0209991C000019999999N9999999N9+99999+99999999999ADDAG11999REMMET127NEW 1. 8/ 1:(5 9999 SCT013 BKN016 SCT023CB TEMPO 12010KT 8000 SHRA SCT010 BKN020 SCT023CB BECMG 0812 20010KT 9999 SCT013 BKN020EQDQ01+000002VOVAR Q02+000000PRSWM2
0108601010999991994011810304+35733-005900FM-15+0021GMTT V0200201N00721004801CN0112651N1+01101+00601999999ADDAG11999GA1021+003909999GA2071+004809999GA3021+006909099MA1101291999999REMMET007NEW NSGEQDQ01+000000PRSWM2
0228601010999991994011812004+35733-005900SY-MT+0021GMTT V0200401N00931004801CN0080001N1+01061+00491101421ADDAA106000591AG11005AY191061AY281061GA1021+003909089GA2051+004809089GA3021+006909099GF107991071091004501999999MD1210021+9999MW1171MW2811MW3951REMSYN022 333 82813 85816 82923MET048NEW EEE -TSRA SCT013 BKN016 SCT023CB 11/04 Q1014
0108601010999991994011813004+35733-005900FM-15+0021GMTT V0200601N00931004801CN0112651N1+01201+00301999999ADDAG11999GA1021+003909999GA2071+004809999GA3021+006909099MA1101291999999REMMET007NEW NSGEQDQ01+000000PRSWM2
0097601010999991994011813304+35733-005900FM-15+0021GMTT V0200601N00931004801CN0112651N1+99999+99999999999ADDAG11999GA1071+004809999GA2071+006009999REMMET027NEW CKT023CB 12/03 Q1013 NGEQDQ01+000000PRSWM2
0186601010999991994011815004+35733-005900SY-MT+0021GMTT V0200601N01291004801CN0080001N1+01101+00281101351ADDAA106000091AG11000GA1021+003009999GA2071+004809999GA3071+006909999GF108991061021004501071999MA1101291999999MD1610071+9999REMSYN022 333 82810 85816 86358MET006NEW NGEQDQ01+000000PRSWM2
0103601010999991994011816004+35733-005900FM-15+0021GMTT V0200601N01231004801CN0080001N1+01101+00601999999ADDAG11999GA1021+003009999GA2071+004809999GA3071+024009999MA1101291999999MW1631OC101751REMMET007NEW NSG
0181601010999991994011818004+35733-005900FM-12+0021GMTT V0200601N01341004801CN0080001N9+01011+00681101461ADDAA199001091AG10001AY181061AY281061GA1021+003009089GA2051+004809089GA3061+024009049GF107991061021004501071999KA1120M+01181MD1310151+9999MW1601REMSYN028 333 10118 82810 85816 86458
0054601010999991994011818304+35733-005900FM-16+0021GMTT V0200601N012919999999N0080001N1+99999+99999999999ADDAG11000OC101801REMMET008NEW EEEEEQDQ01+000000PRSWM2
0117601010999991994011819004+35733-005900FM-15+0021GMTT V0200601N01291004801CN0080001N1+00901+00701999999ADDAG11999GA1021+003009999GA2071+004809999GA3071+024009999MA1101391999999OC101801REMMET008NEW RERAEQDQ01+000000PRSWM2
0100601010999991994011819304+35733-005900FM-15+0021GMTT V0200601N01031220001CN0112651N1+00901+00701999999ADDAG11999GA1021+004809999GA2021+024009999MA1101391999999OC101541REMMET007NEW NSGEQDQ01+000000PRSWM2
0084601010999991994011821004+35733-005900FM-15+0021GMTT V0200601N01231220001CN0112651N1+01101+00501999999ADDAG11000GA1021+004809999MA1101491999999OC101751REMMET007NEW NSGEQDQ01+000000PRSWM2
0076601010999991994011821304+35733-005900FM-15+0021GMTT V0200601N00821220001CN0112651N1+01101+00501999999ADDAG11999GA1021+004809999MA1101491999999REMMET007NEW NSGEQDQ01+000000PRSWM2
0076601010999991994011822304+35733-005900FM-15+0021GMTT V0200401N00511004801CN0080001N1+01201+00501999999ADDAG11999GA1071+004809999MA1101591999999REMMET007NEW NSGEQDQ01+000000PRSWM2
0181601010999991994011900004+35733-005900SY-MT+0021GMTT V0200401N00721004801CN0080001N1+01211+00551101781ADDAA106000191AG11001AY161061AY211061GA1071+004809999GF199999051021004501001001MA1101691999999MD1110231+9999MW1021REMSYN010 333 85816MET007NEW NSGEQDQ01+000052SCOTCVQ02+000000PRSWM2
0076601010999991994011900304+35733-005900FM-15+0021GMTT V0200401N00931004801CN0080001N1+01201+00601999999ADDAG11999GA1071+004809999MA1101691999999REMMET007NEW NSGEQDQ01+000000PRSWM2
0076601010999991994011901304+35733-005900FM-15+0021GMTT V0200401N00821004801CN0080001N1+01201+00501999999ADDAG11999GA1071+004809999MA1101691999999REMMET007NEW NSGEQDQ01+000000PRSWM2
0159601010999991994011903004+35733-005900SY-MT+0021GMTT V0203401N00411004801CN0080001N1+01141+00561101741ADDAA106000091AG11000GA1071+004809999GF199999051021004501001001MA1101691999999MD1610041+9999REMSYN010 333 85816MET007NEW NSGEQDQ01+000052SCOTCVQ02+000000PRSWM2
0076601010999991994011903304+35733-005900FM-15+0021GMTT V0203401N00411004801CN0080001N1+01101+00601999999ADDAG11999GA1071+004809999MA1101691999999REMMET007NEW NSGEQDQ01+000000PRSWM2
0076601010999991994011904304+35733-005900FM-15+0021GMTT V0203601N00411004801CN0080001N1+01101+00601999999ADDAG11999GA1071+004809999MA1101691999999REMMET007NEW NSGEQDQ01+000000PRSWM2
0150601010999991994011906004+35733-005900SY-MT+0021GMTT V0203401N00511009001CN0080001N9+01051+00501101701ADDAA124001091AG10000GA1021+003909999GA2021+004809999GF105991051081004501001001KA1120N+01021MD1810041+9999REMSYN022 333 20102 82813 8316/MET007NEW NSG
0093601010999991994011906304+35733-005900FM-15+0021GMTT V0203401N00411220001CN0080001N1+01101+00501999999ADDAG11999GA1021+003909999GA2021+004809999MA1101691999999REMMET008NEW NSG+EQDQ01+000000PRSWM2
0092601010999991994011907304+35733-005900FM-15+0021GMTT V0203201N00511004801CN0080001N1+01101+00501999999ADDAG11999GA1021+003909999GA2071+004809999MA1101691999999REMMET007NEW NSGEQDQ01+000000PRSWM2
0164601010999991994011909004+35733-005900SY-MT+0021GMTT V0203201N00461004801CN0100001N1+00901+00691101791ADDAA106000091AG11000GA1071+004809999GA2071+024009999GF107991051021004501071999MA1101691999999MD1110101+9999REMSYN016 333 85816 86458MET006NEW NGEQDQ01+000000PRSWM2
0091601010999991994011910004+35733-005900FM-15+0021GMTT V0203001N00411004801CN0112651N1+01001+00801999999ADDAG11999GA1071+004809999GA2071+024009999MA1101801999999REMMET006NEW NGEQDQ01+000000PRSWM2
0083601010999991994011910304+35733-005900FM-15+0021GMTT V0203401N00151004801CN0112651N1+01001+00801999999ADDAG11999GA1071+004809999GA2071+024009999REMMET013NEW Q 1018 NGEQDQ01+000000PRSWM2
0164601010999991994011912004+35733-005900SY-MT+0021GMTT V0203001N00211004801CN0100001N1+01171+00601101901ADDAA106000091AG11000GA1071+004809999GA2071+024009999GF107991051021004501071999MA1101901999999MD1110111+9999REMSYN016 333 85816 86458MET006NEW NGEQDQ01+000000PRSWM2
0091601010999991994011912304+35733-005900FM-15+0021GMTT V0209991C00001024001CN0112651N1+01201+00601999999ADDAG11999GA1021+004809999GA2071+024009999MA1101901999999REMMET006NEW NGEQDQ01+000000PRSWM2
0150601010999991994011914004+35733-005900FM-15+0021GMTT V0201911N999999999999N9999999N9+99999+99999999999ADDAG11999REMMET080NEW 28010KT 9999 SCT016 BKN080 PROB30 TEMPO 32012KT 6000 RA SCT010 SCT016 BKN080EQDQ01+020581WOSPD Q02+000002VOVAR Q03+000000PRSWM2
0165601010999991994011915004+35733-005900SY-MT+0021GMTT V0203001N00261036001CN0100001N1+01241+00751101711ADDAA106000091AG11000GA1021+004809999GA2021+024009999GF106991041021004501071001MA1101691999999MD1710191+9999REMSYN016 333 84816 84458MET007NEW NSGEQDQ01+000000PRSWM2
0092601010999991994011915304+35733-005900FM-15+0021GMTT V0203201N00311220001CN0112651N1+01201+00801999999ADDAG11999GA1021+004809999GA2021+024009999MA1101691999999REMMET007NEW NSGEQDQ01+000000PRSWM2
0092601010999991994011917004+35733-005900FM-15+0021GMTT V0203001N00311220001CN0112651N1+01201+00701999999ADDAG11999GA1021+004809999GA2021+024009999MA1101691999999REMMET007NEW NSGEQDQ01+000000PRSWM2
0137601010999991994011918004+35733-005900FM-12+0021GMTT V0203001N00311220001CN0100001N9+01061+00661101741ADDAA106000091AG14000GA1021+004809089GA2031+024009039GF104991021021004501081021KA1120M+01301MD1310031+9999REMSYN022 333 10130 82816 83358
0092601010999991994011918304+35733-005900FM-15+0021GMTT V0203001N00411220001CN0112651N1+01001+00701999999ADDAG11999GA1021+004809999GA2021+024009999MA1101691999999REMMET007NEW NSGEQDQ01+000000PRSWM2
0085601010999991994011919304+35733-005900FM-15+0021GMTT V0203001N00311220001CN0112651N1+01001+00601999999ADDAG11999GA1021+004809999GA2021+024009999REMMET015NEW N Q1017 NSGEQDQ01+000000PRSWM2
0179601010999991994011921004+35733-005900SY-MT+0021GMTT V0202301N00511024001CN0100001N1+01021+00441101841ADDAA106000091AG11000GA1021+004809999GA2071+024009999GF199999021061004501081001MD1210101+9999REMSYN016 333 82616 84358MET020NEW ( 10/05 Q1018 NSEQDQ01+000052SCOTCVQ02+000000PRSWM2
0091601010999991994011922004+35733-005900FM-15+0021GMTT V0203401N00511220001CN0112651N1+01001+00401999999ADDAG11999GA1021+004809999GA2021+024009999MA1101801999999REMMET006NEW NGEQDQ01+000000PRSWM2
0091601010999991994011922304+35733-005900FM-15+0021GMTT V0203401N00511220001CN0112651N1+01001+00401999999ADDAG11999GA1021+004809999GA2021+024009999MA1101801999999REMMET006NEW NGEQDQ01+000000PRSWM2
