0309601010999992010010100004+35733-005900SY-MT+0021GMTT V0202901N01131006001CN0070001N1+01481+00941101711ADDAA106000891AY181061AY261061GA1025+003901999GA2075+006001999GF199999061081004501001001MA1101691999999MD1110101+9999MW1021REMSYN088AAXX  01004 60101 11457 62922 10148 20094 40171 51010 69981 70286 86800 333 82813 86620;MET064METAR GMTT 010000Z 29022KT 7000 FEW013 BKN020 15/09 Q1017 NOSIG;EQDQ01+000062SCOTCV
0149601010999992010010100304+35733-005900FM-15+0021GMTT V0202701N01081006001CN0070001N1+01501+01001999999ADDGA1025+003901999GA2075+006001999GF107991999999999999999999MA1101591999999REMMET064METAR GMTT 010030Z 27021KT 7000 FEW013 BKN020 15/10 Q1016 NOSIG;
0149601010999992010010101004+35733-005900FM-15+0021GMTT V0202701N01031006001CN0070001N1+01501+00901999999ADDGA1025+003901999GA2075+006001999GF107991999999999999999999MA1101591999999REMMET064METAR GMTT 010100Z 27020KT 7000 FEW013 BKN020 15/09 Q1016 NOSIG;
0168601010999992010010101214+35733-005900FM-15+0021GMTT V0202801N00721999999CN0070001N1+01401+01101999999ADDGA1045+006001999GA2045+024001999GF104991999999999999999999MA1101591999999REMMET064METAR GMTT 010121Z 28014KT 7000 SCT020 SCT080 14/11 Q1016 NOSIG;EQDP01 024003SCOCIG
0168601010999992010010101304+35733-005900FM-15+0021GMTT V0202801N00671999999CN0070001N1+01401+01101999999ADDGA1045+006001999GA2045+024001999GF104991999999999999999999MA1101591999999REMMET064METAR GMTT 010130Z 28013KT 7000 SCT020 SCT080 14/11 Q1016 NOSIG;EQDP01 024003SCOCIG
0194601010999992010010102004+35733-005900FM-15+0021GMTT V0202801N00931999999CN0012001N1+01401+01001999999ADDED128U16009GA1045+006001999GA2045+024001999GF104991999999999999999999MA1101591999999REMMET079METAR GMTT 010200Z 28018KT 1200 R28/1600V1700N SCT020 SCT080 14/10 Q1016 NOSIG;EQDP01 024003SCOCIG
0168601010999992010010102304+35733-005900FM-15+0021GMTT V0202801N00771999999CN0070001N1+01501+01101999999ADDGA1045+006001999GA2045+024001999GF104991999999999999999999MA1101591999999REMMET064METAR GMTT 010230Z 28015KT 7000 SCT020 SCT080 15/11 Q1016 NOSIG;EQDP01 024003SCOCIG
0278601010999992010010103004+35733-005900SY-MT+0021GMTT V0202801N00771024001CN0070001N1+01381+01151101701ADDAZ121031GA1045+006001999GA2045+024001999GF106991041021008001031001MA1101591999999MD1810011+9999REMSYN082AAXX  01034 60101 47557 62815 10138 20115 40170 58001 70010 84230 333 84620 83358;MET064METAR GMTT 010300Z 28015KT 7000 SCT020 SCT080 14/12 Q1016 NOSIG;EQDQ01+000000PRSWMA
0149601010999992010010104004+35733-005900FM-15+0021GMTT V0202701N00821004801CN0050001N1+01401+01101999999ADDGA1045+003001999GA2075+004801999GF107991999999999999999999MA1101591999999REMMET064METAR GMTT 010400Z 27016KT 5000 SCT010 BKN016 14/11 Q1016 NOSIG;
0160601010999992010010104304+35733-005900FM-15+0021GMTT V0202601N01131004801CN0050001N1+01401+01101999999ADDGA1045+003001999GA2075+004801999GF107991999999999999999999MA1101591999999OC101751REMMET067METAR GMTT 010430Z 26022G34KT 5000 SCT010 BKN016 14/11 Q1016 NOSIG;
0149601010999992010010105004+35733-005900FM-15+0021GMTT V0202601N00981004801CN0050001N1+01501+01201999999ADDGA1045+003001999GA2075+004801999GF107991999999999999999999MA1101591999999REMMET064METAR GMTT 010500Z 26019KT 5000 SCT010 BKN016 15/12 Q1016 NOSIG;
0177601010999992010010105304+35733-005900FM-15+0021GMTT V0202801N01181004801CN0070001N1+01401+01101999999ADDGA1025+003001999GA2045+004801999GA3075+024001999GF107991999999999999999999MA1101691999999REMMET076METAR GMTT 010530Z 28023KT 7000 FEW010 SCT016 BKN080 14/11 Q1017 RERA NOSIG;
0314601010999992010010106004+35733-005900SY-MT+0021GMTT V0202801N00821004801CN0070001N1+01431+01091101731ADDAA124009991AY161061AY221061GA1045+003001999GA2075+004801999GF107991071081004501999999KA1999N+01311MA1101691999999MD1310031+9999MW1211REMSYN094AAXX  01064 60101 11457 72816 10143 20109 40173 53003 60104 72162 878// 333 20131 83810 87816;MET069METAR GMTT 010600Z 28016KT 7000 SCT010 BKN016 15/12 Q1017 RERA NOSIG;
0170601010999992010010106304+35733-005900FM-15+0021GMTT V0202601N00821004801CN0070001N1+01501+01101999999ADDED128U11009GA1045+003001999GA2075+004801999GF107991999999999999999999MA1101691999999REMMET074METAR GMTT 010630Z 26016KT 7000 R28/1100N SCT010 BKN016 15/11 Q1017 NOSIG;
0154601010999992010010107004+35733-005900FM-15+0021GMTT V0202901N00821004801CN0050001N1+01501+01101999999ADDGA1045+003001999GA2075+004801999GF107991999999999999999999MA1101691999999REMMET069METAR GMTT 010700Z 29016KT 5000 SCT010 BKN016 15/11 Q1017 RERA NOSIG;
0159601010999992010010107304+35733-005900FM-15+0021GMTT V0202801N01181004801CN0030001N1+01401+01201999999ADDGA1045+003001999GA2075+004801999GF107991999999999999999999MA1101801999999MW1611REMMET068METAR GMTT 010730Z 28023KT 3000 -RA SCT010 BKN016 14/12 Q1018 NOSIG;
0194601010999992010010107504+35733-005900FM-15+0021GMTT V0202601N00671999999CN0080001N1+01401+01201999999ADDED128U09009GA1025+003001999GA2045+004801999GF104991999999999999999999MA1101801999999REMMET079METAR GMTT 010750Z 26013KT 8000 R28/0900N FEW010 SCT016 14/12 Q1018 RERA NOSIG;EQDP01 004803SCOCIG
0173601010999992010010108004+35733-005900FM-15+0021GMTT V0202601N00671999999CN0080001N1+01401+01201999999ADDGA1025+003001999GA2045+004801999GF104991999999999999999999MA1101801999999REMMET069METAR GMTT 010800Z 26013KT 8000 FEW010 SCT016 14/12 Q1018 RERA NOSIG;EQDP01 004803SCOCIG
0152601010999992010010108304+35733-005900FM-15+0021GMTT V0202701N00671006001CN0080001N1+01501+01201999999ADDGA1045+003901021GA2075+006001999GF107991999999999999999999MA1101801999999REMMET067METAR GMTT 010830Z 27013KT 8000 SCT013TCU BKN020 15/12 Q1018 NOSIG;
0175601010999992010010108454+35733-005900FM-15+0021GMTT V0202901N01131006001CN0050001N1+01401+01201999999ADDGA1045+003901021GA2075+006001999GF107991999999999999999999MA1101901999999MW1631OC101851REMMET076METAR GMTT 010845Z 29022G36KT 5000 RA SCT013TCU BKN020 14/12 Q1019 NOSIG M0;
0290601010999992010010109004+35733-005900SY-MT+0021GMTT V0202901N01181006001CN0050001N1+01381+01181101921ADDAY181031AY281031GA1045+003901021GA2075+006001999GF107991071081004501999999MA1101901999999MD1310191+9999MW1601OC101851REMSYN082AAXX  01094 60101 41450 72923 10138 20118 40192 53019 76088 878// 333 84813 87620;MET073METAR GMTT 010900Z 29023G36KT 5000 RA SCT013TCU BKN020 14/12 Q1019 NOSIG;
0152601010999992010010109304+35733-005900FM-15+0021GMTT V0202901N00721006001CN0080001N1+01501+01201999999ADDGA1045+003901021GA2075+006001999GF107991999999999999999999MA1101901999999REMMET067METAR GMTT 010930Z 29014KT 8000 SCT013TCU BKN020 15/12 Q1019 NOSIG;
0161601010999992010010110304+35733-005900FM-15+0021GMTT V0202801N00871006001CN0050001N1+01501+01301999999ADDGA1045+003901021GA2075+006001999GF107991999999999999999999MA1102001999999MW1631REMMET070METAR GMTT 011030Z 28017KT 5000 RA SCT013TCU BKN020 15/13 Q1020 NOSIG;
0152601010999992010010111004+35733-005900FM-15+0021GMTT V0202601N00671006001CN0080001N1+01501+01301999999ADDGA1045+003901021GA2075+006001999GF107991999999999999999999MA1102001999999REMMET067METAR GMTT 011100Z 26013KT 8000 SCT013TCU BKN020 15/13 Q1020 NOSIG;
0152601010999992010010111304+35733-005900FM-15+0021GMTT V0202701N00771006001CN0080001N1+01501+01201999999ADDGA1045+003901021GA2075+006001999GF107991999999999999999999MA1101901999999REMMET067METAR GMTT 011130Z 27015KT 8000 SCT013TCU BKN020 15/12 Q1019 NOSIG;
0312601010999992010010112004+35733-005900SY-MT+0021GMTT V0202701N00871006001CN0080001N1+01691+01261101951ADDAA106002091AY181061AY261061GA1045+003901021GA2075+006001999GF199999061081004501001001MA1101901999999MD1010041+9999MW1011REMSYN088AAXX  01124 60101 11458 62717 10169 20126 40195 50004 60021 70186 86800 333 84813 87620;MET067METAR GMTT 011200Z 27017KT 8000 SCT013TCU BKN020 17/13 Q1019 NOSIG;EQDQ01+000062SCOTCV
0152601010999992010010112304+35733-005900FM-15+0021GMTT V0202901N00871006001CN0080001N1+01701+01201999999ADDGA1045+003901021GA2075+006001999GF107991999999999999999999MA1101901999999REMMET067METAR GMTT 011230Z 29017KT 8000 SCT013TCU BKN020 17/12 Q1019 NOSIG;
0152601010999992010010113004+35733-005900FM-15+0021GMTT V0203001N00931006001CN0080001N1+01601+01201999999ADDGA1045+003901021GA2075+006001999GF107991999999999999999999MA1101901999999REMMET067METAR GMTT 011300Z 30018KT 8000 SCT013TCU BKN020 16/12 Q1019 NOSIG;
0161601010999992010010113304+35733-005900FM-15+0021GMTT V0202901N00821006001CN0050001N1+01601+01301999999ADDGA1045+003901021GA2075+006001999GF107991999999999999999999MA1101901999999MW1631REMMET070METAR GMTT 011330Z 29016KT 5000 RA SCT013TCU BKN020 16/13 Q1019 NOSIG;
0161601010999992010010114004+35733-005900FM-15+0021GMTT V0202801N00671006001CN0050001N1+01601+01301999999ADDGA1045+003901021GA2075+006001999GF107991999999999999999999MA1101901999999MW1631REMMET070METAR GMTT 011400Z 28013KT 5000 RA SCT013TCU BKN020 16/13 Q1019 NOSIG;
0175601010999992010010114304+35733-005900FM-15+0021GMTT V0202701N01081004801CN0080001N1+01601+01001999999ADDGA1025+003001999GA2045+004801025GA3075+006001999GF107991999999999999999999MA1101901999999REMMET074METAR GMTT 011430Z 27021KT 8000 FEW010 SCT016TCU BKN020 16/10 Q1019 NOSIG;
0305601010999992010010115004+35733-005900SY-MT+0021GMTT V0202801N00771004801CN0080001N1+01661+01221101951ADDAY161031AY221031GA1025+003001999GA2045+004801025GA3075+006001999GF107991071081004501999999MA1101901999999MD1510011+9999MW1211REMSYN088AAXX  01154 60101 41458 72815 10166 20122 40195 55001 72162 878// 333 82810 84816 85620;MET074METAR GMTT 011500Z 28015KT 8000 FEW010 SCT016TCU BKN020 17/12 Q1019 NOSIG;
0175601010999992010010115304+35733-005900FM-15+0021GMTT V0202801N00571004801CN0080001N1+01701+01301999999ADDGA1025+003001999GA2045+004801025GA3075+006001999GF107991999999999999999999MA1101901999999REMMET074METAR GMTT 011530Z 28011KT 8000 FEW010 SCT016TCU BKN020 17/13 Q1019 NOSIG;
0175601010999992010010116004+35733-005900FM-15+0021GMTT V0202901N00721004801CN0080001N1+01701+01101999999ADDGA1025+003001999GA2045+004801025GA3075+006001999GF107991999999999999999999MA1101901999999REMMET074METAR GMTT 011600Z 29014KT 8000 FEW010 SCT016TCU BKN020 17/11 Q1019 NOSIG;
0178601010999992010010116054+35733-005900FM-15+0021GMTT V0202901N00571004801CN0080001N1+01601+01201999999ADDGA1025+003001999GA2045+004801025GA3075+006001999GF107991999999999999999999MA1101901999999REMMET077METAR GMTT 011605Z 29011KT 8000 FEW010 SCT016TCU BKN020 16/12 Q1019 B0 NOSIG;
0149601010999992010010116304+35733-005900FM-15+0021GMTT V0202801N00571004801CN0080001N1+01601+01201999999ADDGA1025+003901999GA2075+004801999GF107991999999999999999999MA1101901999999REMMET064METAR GMTT 011630Z 28011KT 8000 FEW013 BKN016 16/12 Q1019 NOSIG;
0149601010999992010010117004+35733-005900FM-15+0021GMTT V0202801N00621004801CN0080001N1+01601+01101999999ADDGA1025+003901999GA2075+004801999GF107991999999999999999999MA1101901999999REMMET064METAR GMTT 011700Z 28012KT 8000 FEW013 BKN016 16/11 Q1019 NOSIG;
0149601010999992010010117304+35733-005900FM-15+0021GMTT V0202801N00621004801CN0080001N1+01601+01101999999ADDGA1045+003901999GA2075+004801999GF107991999999999999999999MA1102001999999REMMET064METAR GMTT 011730Z 28012KT 8000 SCT013 BKN016 16/11 Q1020 NOSIG;
0309601010999992010010118004+35733-005900SY-MT+0021GMTT V0202801N00621004801CN0080001N1+01561+00991102031ADDAA112003091AY161061AY221061GA1045+003901999GA2075+004801999GF107991071081004501999999KA1120M+01731MA1102001999999MD1310081+9999MW1031REMSYN094AAXX  01184 60101 11458 72812 10156 20099 40203 53008 60032 70362 878// 333 10173 83813 86816;MET064METAR GMTT 011800Z 28012KT 8000 SCT013 BKN016 16/10 Q1020 NOSIG;
0149601010999992010010118304+35733-005900FM-15+0021GMTT V0202801N00621004801CN0080001N1+01601+01001999999ADDGA1045+003901999GA2075+004801999GF107991999999999999999999MA1102001999999REMMET064METAR GMTT 011830Z 28012KT 8000 SCT013 BKN016 16/10 Q1020 NOSIG;
0149601010999992010010119004+35733-005900FM-15+0021GMTT V0202701N00511004801CN0080001N1+01501+01001999999ADDGA1045+003901999GA2075+004801999GF107991999999999999999999MA1102001999999REMMET064METAR GMTT 011900Z 27010KT 8000 SCT013 BKN016 15/10 Q1020 NOSIG;
0149601010999992010010119304+35733-005900FM-15+0021GMTT V0202701N00411004801CN0080001N1+01501+01101999999ADDGA1025+003901999GA2075+004801999GF107991999999999999999999MA1102001999999REMMET064METAR GMTT 011930Z 27008KT 8000 FEW013 BKN016 15/11 Q1020 NOSIG;
0149601010999992010010120004+35733-005900FM-15+0021GMTT V0202801N00361004801CN0080001N1+01401+01101999999ADDGA1025+003901999GA2075+004801999GF107991999999999999999999MA1102001999999REMMET064METAR GMTT 012000Z 28007KT 8000 FEW013 BKN016 14/11 Q1020 NOSIG;
0149601010999992010010120304+35733-005900FM-15+0021GMTT V0202801N00411004801CN0080001N1+01501+01101999999ADDGA1025+003901999GA2075+004801999GF107991999999999999999999MA1102101999999REMMET064METAR GMTT 012030Z 28008KT 8000 FEW013 BKN016 15/11 Q1021 NOSIG;
0245601010999992010010121004+35733-005900SY-MT+0021GMTT V0202901N00361004801CN0080001N1+01511+01051102161ADDGA1045+003901999GA2075+004801999GF107991071081004501999999MA1102101999999MD1310131+9999REMSYN076AAXX  01214 60101 32458 72907 10151 20105 40216 53013 878// 333 83813 86816;MET064METAR GMTT 012100Z 29007KT 8000 SCT013 BKN016 15/11 Q1021 NOSIG;
0149601010999992010010121304+35733-005900FM-15+0021GMTT V0203001N00261004801CN0080001N1+01401+01001999999ADDGA1045+003901999GA2075+004801999GF107991999999999999999999MA1102101999999REMMET064METAR GMTT 012130Z 30005KT 8000 SCT013 BKN016 14/10 Q1021 NOSIG;
0149601010999992010010122004+35733-005900FM-15+0021GMTT V0209999C00001004801CN0080001N1+01401+01001999999ADDGA1045+003901999GA2075+004801999GF107991999999999999999999MA1102101999999REMMET064METAR GMTT 012200Z 00000KT 8000 SCT013 BKN016 14/10 Q1021 NOSIG;
0149601010999992010010122304+35733-005900FM-15+0021GMTT V0209999C00001004801CN0080001N1+01401+01101999999ADDGA1045+003901999GA2075+004801999GF107991999999999999999999MA1102101999999REMMET064METAR GMTT 012230Z 00000KT 8000 SCT013 BKN016 14/11 Q1021 NOSIG;
0149601010999992010010123004+35733-005900FM-15+0021GMTT V0209999C00001004801CN0080001N1+01301+01101999999ADDGA1045+003901999GA2075+004801999GF107991999999999999999999MA1102101999999REMMET064METAR GMTT 012300Z 00000KT 8000 SCT013 BKN016 13/11 Q1021 NOSIG;
0126601010999992010010123304+35733-005900FM-15+0021GMTT V0209999C00001004801CN0080001N1+01301+01101999999ADDGA1075+004801999GF107991999999999999999999MA1102101999999REMMET057METAR GMTT 012330Z 00000KT 8000 BKN016 13/11 Q1021 NOSIG;
0216601010999992010010200004+35733-005900SY-MT+0021GMTT V0209999C00001004801CN0080001N1+01281+01091102121ADDGA1075+004801999GF107991071021004501999999MA1102101999999MD1610031+9999REMSYN070AAXX  02004 60101 32458 70000 10128 20109 40212 56003 872// 333 87816;MET057METAR GMTT 020000Z 00000KT 8000 BKN016 13/11 Q1021 NOSIG;
0126601010999992010010200304+35733-005900FM-15+0021GMTT V0209999C00001004801CN0080001N1+01201+01001999999ADDGA1075+004801999GF107991999999999999999999MA1102101999999REMMET057METAR GMTT 020030Z 00000KT 8000 BKN016 12/10 Q1021 NOSIG;
0126601010999992010010201004+35733-005900FM-15+0021GMTT V0209999C00001004801CN0080001N1+01201+01001999999ADDGA1075+004801999GF107991999999999999999999MA1102001999999REMMET057METAR GMTT 020100Z 00000KT 8000 BKN016 12/10 Q1020 NOSIG;
0152601010999992010010201304+35733-005900FM-15+0021GMTT V0209999C00001004801CN0013001N1+01101+01001999999ADDED128U17009GA1075+004801999GF107991999999999999999999MA1102001999999REMMET072METAR GMTT 020130Z 00000KT 1300 R28/1700V1800N BKN016 11/10 Q1020 NOSIG;
0147601010999992010010202004+35733-005900FM-15+0021GMTT V0209999C00001004801CN0013001N1+01201+01001999999ADDED128U17009GA1075+004801999GF107991999999999999999999MA1102001999999REMMET067METAR GMTT 020200Z 00000KT 1300 R28/1700N BKN016 12/10 Q1020 NOSIG;
0104601010999992010010202304+35733-005900AUTO +0021GMTT V0209999C000019999999N0013001N1+01101+01001999999ADDED128U17009MA1102001999999REMMET066METAR GMTT 020230Z AUTO 00000KT 1300NDV R28/1700N /// 11/10 Q1020;
0178601010999992010010203004+35733-005900SY-MT+0021GMTT V0209999C000019999999N0013001N1+01051+00931102091ADDED128U17009MA1102001999999MD1810041+9999REMSYN054AAXX  02034 60101 45913 /0000 10105 20093 40209 58004;MET066METAR GMTT 020300Z AUTO 00000KT 1300NDV R28/1700N /// 11/09 Q1020;
0104601010999992010010203304+35733-005900AUTO +0021GMTT V0209999C000019999999N0013001N1+01001+00901999999ADDED128U17009MA1102001999999REMMET066METAR GMTT 020330Z AUTO 00000KT 1300NDV R28/1700N /// 10/09 Q1020;
0104601010999992010010204004+35733-005900AUTO +0021GMTT V0209999C000019999999N0013001N1+01001+00901999999ADDED128U17009MA1102001999999REMMET066METAR GMTT 020400Z AUTO 00000KT 1300NDV R28/1700N /// 10/09 Q1020;
0104601010999992010010204304+35733-005900AUTO +0021GMTT V0201001N002619999999N0013001N1+01001+00901999999ADDED128U17009MA1101901999999REMMET066METAR GMTT 020430Z AUTO 10005KT 1300NDV R28/1700N /// 10/09 Q1019;
0126601010999992010010205004+35733-005900FM-15+0021GMTT V0200801N00261004801CN0080001N1+01001+00901999999ADDGA1075+004801999GF107991999999999999999999MA1101901999999REMMET057METAR GMTT 020500Z 08005KT 8000 BKN016 10/09 Q1019 NOSIG;
0126601010999992010010205304+35733-005900FM-15+0021GMTT V0200901N00361004801CN0080001N1+01101+01001999999ADDGA1075+004801999GF107991999999999999999999MA1101901999999REMMET057METAR GMTT 020530Z 09007KT 8000 BKN016 11/10 Q1019 NOSIG;
0252601010999992010010206004+35733-005900SY-MT+0021GMTT V0200801N00211004801CN0080001N1+01021+00901102031ADDAA124003091GA1075+004801999GF107991071021004501999999KA1999N+00951MA1102001999999MD1810081+9999REMSYN082AAXX  02064 60101 12458 70804 10102 20090 40203 58008 60034 872// 333 20095 87816;MET057METAR GMTT 020600Z 08004KT 8000 BKN016 10/09 Q1020 NOSIG;
0126601010999992010010206304+35733-005900FM-15+0021GMTT V0209999C00001004801CN0080001N1+01001+00801999999ADDGA1075+004801999GF107991999999999999999999MA1102001999999REMMET057METAR GMTT 020630Z 00000KT 8000 BKN016 10/08 Q1020 NOSIG;
0126601010999992010010207004+35733-005900FM-15+0021GMTT V0209999C00001004801CN0080001N1+01001+00901999999ADDGA1075+004801999GF107991999999999999999999MA1101901999999REMMET057METAR GMTT 020700Z 00000KT 8000 BKN016 10/09 Q1019 NOSIG;
0126601010999992010010207304+35733-005900FM-15+0021GMTT V0209999C000012200019N0112651N1+01001+00901999999ADDGA1025+004801999GF102991999999999999999999MA1102001999999REMMET057METAR GMTT 020730Z 00000KT 9999 FEW016 10/09 Q1020 NOSIG;
0126601010999992010010208004+35733-005900FM-15+0021GMTT V0209999C000012200019N0112651N1+00901+00801999999ADDGA1025+004801999GF102991999999999999999999MA1102001999999REMMET057METAR GMTT 020800Z 00000KT 9999 FEW016 09/08 Q1020 NOSIG;
0126601010999992010010208304+35733-005900FM-15+0021GMTT V0209999C000012200019N0112651N1+01001+00901999999ADDGA1025+004801999GF102991999999999999999999MA1102001999999REMMET057METAR GMTT 020830Z 00000KT 9999 FEW016 10/09 Q1020 NOSIG;
0216601010999992010010209004+35733-005900SY-MT+0021GMTT V0209999C000012200019N0100001N1+01201+01091102051ADDGA1025+004801999GF102991021051004501001001MA1102001999999MD1310031+9999REMSYN070AAXX  02094 60101 32460 20000 10120 20109 40205 53003 82500 333 82616;MET057METAR GMTT 020900Z 00000KT 9999 FEW016 12/11 Q1020 NOSIG;
0126601010999992010010209304+35733-005900FM-15+0021GMTT V0209999C000012200019N0112651N1+01401+01101999999ADDGA1025+004801999GF102991999999999999999999MA1102001999999REMMET057METAR GMTT 020930Z 00000KT 9999 FEW016 14/11 Q1020 NOSIG;
0126601010999992010010210004+35733-005900FM-15+0021GMTT V0209999C000012200019N0112651N1+01501+01201999999ADDGA1025+004801999GF102991999999999999999999MA1102001999999REMMET057METAR GMTT 021000Z 00000KT 9999 FEW016 15/12 Q1020 NOSIG;
0126601010999992010010210304+35733-005900FM-15+0021GMTT V0209999C000012200019N0112651N1+01601+01201999999ADDGA1025+004801999GF102991999999999999999999MA1102101999999REMMET057METAR GMTT 021030Z 00000KT 9999 FEW016 16/12 Q1021 NOSIG;
0126601010999992010010211004+35733-005900FM-15+0021GMTT V0209999C000012200019N0112651N1+01701+01101999999ADDGA1025+004801999GF102991999999999999999999MA1102101999999REMMET057METAR GMTT 021100Z 00000KT 9999 FEW016 17/11 Q1021 NOSIG;
0126601010999992010010211304+35733-005900FM-15+0021GMTT V0200801N002612200019N0112651N1+01701+01101999999ADDGA1025+004801999GF102991999999999999999999MA1102001999999REMMET057METAR GMTT 021130Z 08005KT 9999 FEW016 17/11 Q1020 NOSIG;
0210601010999992010010212004+35733-005900SY-MT+0021GMTT V0200701N003119999999Y0100001N1+01741+01231102041ADDGA1031+060001001GF103991001001999999001021MA1102001999999MD1010011+9999REMSYN070AAXX  02124 60101 32960 30706 10174 20123 40204 50001 80002 333 83070;MET051METAR GMTT 021200Z 07006KT CAVOK 17/12 Q1020 NOSIG;
0168601010999992010010212304+35733-005900FM-15+0021GMTT V0200701N00311999999CN0112651N1+01801+01201999999ADDGA1025+004801999GA2045+060001999GF104991999999999999999999MA1102001999999REMMET064METAR GMTT 021230Z 07006KT 9999 FEW016 SCT200 18/12 Q1020 NOSIG;EQDP01 060003SCOCIG
0176601010999992010010213004+35733-005900FM-15+0021GMTT V0200501N00411999999CN0112651N1+01801+01201999999ADDGA1025+004801999GA2045+060001999GF104991999999999999999999MA1101901999999REMMET072METAR GMTT 021300Z 05008KT 020V100 9999 FEW016 SCT200 18/12 Q1019 NOSIG;EQDP01 060003SCOCIG
0168601010999992010010213304+35733-005900FM-15+0021GMTT V0200601N00461999999CN0112651N1+01801+01201999999ADDGA1025+004801999GA2045+060001999GF104991999999999999999999MA1101901999999REMMET064METAR GMTT 021330Z 06009KT 9999 FEW016 SCT200 18/12 Q1019 NOSIG;EQDP01 060003SCOCIG
0168601010999992010010214004+35733-005900FM-15+0021GMTT V0200601N00411999999CN0112651N1+01801+01201999999ADDGA1025+004801999GA2045+060001999GF104991999999999999999999MA1101901999999REMMET064METAR GMTT 021400Z 06008KT 9999 FEW016 SCT200 18/12 Q1019 NOSIG;EQDP01 060003SCOCIG
0264601010999992010010215004+35733-005900SY-MT+0021GMTT V0200601N00411060001CN0100001N1+01781+01181101901ADDGA1025+004801999GA2075+060001999GF199999021051004501001021MA1101801999999MD1810181+9999REMSYN076AAXX  02154 60101 32460 50608 10178 20118 40190 58018 82502 333 82616 85070;MET064METAR GMTT 021500Z 06008KT 9999 FEW016 BKN200 18/12 Q1018 NOSIG;EQDQ01+000052SCOTCV
0149601010999992010010215304+35733-005900FM-15+0021GMTT V0200501N00571060001CN0112651N1+01701+01201999999ADDGA1025+004801999GA2075+060001999GF107991999999999999999999MA1101801999999REMMET064METAR GMTT 021530Z 05011KT 9999 FEW016 BKN200 17/12 Q1018 NOSIG;
0149601010999992010010216004+35733-005900FM-15+0021GMTT V0200301N00361060001CN0112651N1+01701+01201999999ADDGA1025+004801999GA2075+060001999GF107991999999999999999999MA1101901999999REMMET064METAR GMTT 021600Z 03007KT 9999 FEW016 BKN200 17/12 Q1019 NOSIG;
0149601010999992010010217004+35733-005900FM-15+0021GMTT V0200301N00311060001CN0112651N1+01701+01201999999ADDGA1025+004801999GA2075+060001999GF107991999999999999999999MA1101901999999REMMET064METAR GMTT 021700Z 03006KT 9999 FEW016 BKN200 17/12 Q1019 NOSIG;
0283601010999992010010218004+35733-005900SY-MT+0021GMTT V0200601N00151060001CN0100001N1+01391+01111101891ADDGA1025+004801999GA2075+060001999GF199999021051004501001021KA1120M+01791MA1101801999999MD1410001+9999REMSYN082AAXX  02184 60101 32460 50603 10139 20111 40189 54000 82502 333 10179 82616 85070;MET064METAR GMTT 021800Z 06003KT 9999 FEW016 BKN200 14/11 Q1018 NOSIG;EQDQ01+000052SCOTCV
0149601010999992010010219004+35733-005900FM-15+0021GMTT V0209999C00001060001CN0112651N1+01301+01101999999ADDGA1025+004801999GA2075+060001999GF107991999999999999999999MA1101901999999REMMET064METAR GMTT 021900Z 00000KT 9999 FEW016 BKN200 13/11 Q1019 NOSIG;
0149601010999992010010219304+35733-005900FM-15+0021GMTT V0209999C00001060001CN0112651N1+01301+01101999999ADDGA1025+004801999GA2075+060001999GF107991999999999999999999MA1101901999999REMMET064METAR GMTT 021930Z 00000KT 9999 FEW016 BKN200 13/11 Q1019 NOSIG;
0149601010999992010010220004+35733-005900FM-15+0021GMTT V0201001N00361060001CN0112651N1+01301+01101999999ADDGA1025+004801999GA2075+060001999GF107991999999999999999999MA1101901999999REMMET064METAR GMTT 022000Z 10007KT 9999 FEW016 BKN200 13/11 Q1019 NOSIG;
0149601010999992010010220304+35733-005900FM-15+0021GMTT V0200901N00311060001CN0112651N1+01301+01101999999ADDGA1025+004801999GA2075+060001999GF107991999999999999999999MA1101901999999REMMET064METAR GMTT 022030Z 09006KT 9999 FEW016 BKN200 13/11 Q1019 NOSIG;
0245601010999992010010221004+35733-005900SY-MT+0021GMTT V0201001N00261060001CN0100001N1+01281+01101101971ADDGA1025+004801999GA2075+060001999GF199999021051004501001021MA1101901999999MD1310071+9999REMSYN076AAXX  02214 60101 32460 51005 10128 20110 40197 53007 82502 333 82616 85070;MET064METAR GMTT 022100Z 10005KT 9999 FEW016 BKN200 13/11 Q1019 NOSIG;
0149601010999992010010221304+35733-005900FM-15+0021GMTT V0201001N00361060001CN0112651N1+01301+01101999999ADDGA1025+004801999GA2075+060001999GF107991999999999999999999MA1101901999999REMMET064METAR GMTT 022130Z 10007KT 9999 FEW016 BKN200 13/11 Q1019 NOSIG;
0149601010999992010010222004+35733-005900FM-15+0021GMTT V0200901N00311060001CN0112651N1+01301+01101999999ADDGA1025+004801999GA2075+060001999GF107991999999999999999999MA1101901999999REMMET064METAR GMTT 022200Z 09006KT 9999 FEW016 BKN200 13/11 Q1019 NOSIG;
0149601010999992010010222304+35733-005900FM-15+0021GMTT V0201001N00311060001CN0112651N1+01301+01101999999ADDGA1025+004801999GA2075+060001999GF107991999999999999999999MA1101901999999REMMET064METAR GMTT 022230Z 10006KT 9999 FEW016 BKN200 13/11 Q1019 NOSIG;
0168601010999992010010223004+35733-005900FM-15+0021GMTT V0201001N00311999999CN0080001N1+01201+01001999999ADDGA1025+004801999GA2045+060001999GF104991999999999999999999MA1101901999999REMMET064METAR GMTT 022300Z 10006KT 8000 FEW016 SCT200 12/10 Q1019 NOSIG;EQDP01 060003SCOCIG
0168601010999992010010223304+35733-005900FM-15+0021GMTT V0201001N00211999999CN0080001N1+01201+01101999999ADDGA1025+004801999GA2045+060001999GF104991999999999999999999MA1102001999999REMMET064METAR GMTT 022330Z 10004KT 8000 FEW016 SCT200 12/11 Q1020 NOSIG;EQDP01 060003SCOCIG
0264601010999992010010300004+35733-005900SY-MT+0021GMTT V0201001N00261999999CN0080001N1+01231+01051102011ADDGA1025+004801999GA2045+060001999GF104991021051004501001021MA1102001999999MD1310041+9999REMSYN076AAXX  03004 60101 32458 41005 10123 20105 40201 53004 82502 333 82616 84070;MET064METAR GMTT 030000Z 10005KT 8000 FEW016 SCT200 12/11 Q1020 NOSIG;EQDP01 060003SCOCIG
0168601010999992010010300304+35733-005900FM-15+0021GMTT V0201001N00311999999CN0080001N1+01201+01001999999ADDGA1025+004801999GA2045+060001999GF104991999999999999999999MA1101901999999REMMET064METAR GMTT 030030Z 10006KT 8000 FEW016 SCT200 12/10 Q1019 NOSIG;EQDP01 060003SCOCIG
0189601010999992010010301004+35733-005900FM-15+0021GMTT V0201101N00311999999CN0013001N1+01201+01001999999ADDED128U17009GA1025+004801999GA2045+060001999GF104991999999999999999999MA1101901999999REMMET074METAR GMTT 030100Z 11006KT 1300 R28/1700N FEW016 SCT200 12/10 Q1019 NOSIG;EQDP01 060003SCOCIG
0104601010999992010010301304+35733-005900AUTO +0021GMTT V0201101N002619999999N0013001N1+01201+01001999999ADDED128U17009MA1101901999999REMMET066METAR GMTT 030130Z AUTO 11005KT 1300NDV R28/1700N /// 12/10 Q1019;
0104601010999992010010302004+35733-005900AUTO +0021GMTT V0201101N002619999999N0013001N1+01201+01001999999ADDED128U17009MA1101901999999REMMET066METAR GMTT 030200Z AUTO 11005KT 1300NDV R28/1700N /// 12/10 Q1019;
0104601010999992010010302304+35733-005900AUTO +0021GMTT V0201001N003619999999N0013001N1+01201+01001999999ADDED128U17009MA1101901999999REMMET066METAR GMTT 030230Z AUTO 10007KT 1300NDV R28/1700N /// 12/10 Q1019;
0178601010999992010010303004+35733-005900SY-MT+0021GMTT V0201001N002619999999N0013001N1+01121+00961102021ADDED128U17009MA1101901999999MD1310011+9999REMSYN054AAXX  03034 60101 45913 /1005 10112 20096 40202 53001;MET066METAR GMTT 030300Z AUTO 10005KT 1300NDV R28/1700N /// 11/10 Q1019;
0104601010999992010010303304+35733-005900AUTO +0021GMTT V0201001N002619999999N0013001N1+01101+01001999999ADDED128U17009MA1102001999999REMMET066METAR GMTT 030330Z AUTO 10005KT 1300NDV R28/1700N /// 11/10 Q1020;
0104601010999992010010304004+35733-005900AUTO +0021GMTT V0200901N002619999999N0013001N1+01101+01001999999ADDED128U17009MA1101901999999REMMET066METAR GMTT 030400Z AUTO 09005KT 1300NDV R28/1700N /// 11/10 Q1019;
0104601010999992010010304304+35733-005900AUTO +0021GMTT V0200801N002619999999N0013001N1+01101+01001999999ADDED128U17009MA1101901999999REMMET066METAR GMTT 030430Z AUTO 08005KT 1300NDV R28/1700N /// 11/10 Q1019;
0168601010999992010010305004+35733-005900FM-15+0021GMTT V0209999C00001999999CN0080001N1+01101+01001999999ADDGA1025+004801999GA2045+060001999GF104991999999999999999999MA1101901999999REMMET064METAR GMTT 030500Z 00000KT 8000 FEW016 SCT200 11/10 Q1019 NOSIG;EQDP01 060003SCOCIG
0126601010999992010010305304+35733-005900FM-15+0021GMTT V0209999C00001004801CN0080001N1+01101+01001999999ADDGA1075+004801999GF107991999999999999999999MA1101901999999REMMET057METAR GMTT 030530Z 00000KT 8000 BKN016 11/10 Q1019 NOSIG;
0254601010999992010010306004+35733-005900SY-MT+0021GMTT V0209999C00001004801CN0080001N1+01191+00961101971ADDGA1075+004801999GF199999061051004501001001KA1999N+01051MA1101901999999MD1710041+9999REMSYN076AAXX  03064 60101 32458 60000 10119 20096 40197 57004 86500 333 20105 86616;MET057METAR GMTT 030600Z 00000KT 8000 BKN016 12/10 Q1019 NOSIG;EQDQ01+000062SCOTCV
0168601010999992010010306304+35733-005900FM-15+0021GMTT V0201201N00151999999CN0080001N1+01201+01001999999ADDGA1045+006001999GA2045+060001999GF104991999999999999999999MA1101901999999REMMET064METAR GMTT 030630Z 12003KT 8000 SCT020 SCT200 12/10 Q1019 NOSIG;EQDP01 060003SCOCIG
0168601010999992010010307004+35733-005900FM-15+0021GMTT V0201001N00211999999CN0112651N1+01101+00901999999ADDGA1045+006001999GA2045+060001999GF104991999999999999999999MA1101901999999REMMET064METAR GMTT 030700Z 10004KT 9999 SCT020 SCT200 11/09 Q1019 NOSIG;EQDP01 060003SCOCIG
0168601010999992010010307304+35733-005900FM-15+0021GMTT V0201101N00261999999CN0112651N1+01101+00901999999ADDGA1045+006001999GA2045+060001999GF104991999999999999999999MA1101901999999REMMET064METAR GMTT 030730Z 11005KT 9999 SCT020 SCT200 11/09 Q1019 NOSIG;EQDP01 060003SCOCIG
0168601010999992010010308004+35733-005900FM-15+0021GMTT V0201801N00311999999CN0112651N1+01401+01001999999ADDGA1045+006001999GA2045+060001999GF104991999999999999999999MA1101901999999REMMET064METAR GMTT 030800Z 18006KT 9999 SCT020 SCT200 14/10 Q1019 NOSIG;EQDP01 060003SCOCIG
0189601010999992010010308304+35733-005900FM-15+0021GMTT V0201801N00361999999CN0112651N1+01401+01001999999ADDED128U12009GA1045+006001999GA2045+060001999GF104991999999999999999999MA1101901999999REMMET074METAR GMTT 030830Z 18007KT 9999 R28/1200N SCT020 SCT200 14/10 Q1019 NOSIG;EQDP01 060003SCOCIG
0245601010999992010010309004+35733-005900SY-MT+0021GMTT V0201801N00511060001CN0100001N1+01471+01011102021ADDGA1045+006001999GA2045+060001999GF106991041051008001001021MA1102001999999MD1310031+9999REMSYN076AAXX  03094 60101 32560 61810 10147 20101 40202 53003 84502 333 84620 83070;MET064METAR GMTT 030900Z 18010KT 9999 SCT020 SCT200 15/10 Q1020 NOSIG;
0168601010999992010010309304+35733-005900FM-15+0021GMTT V0201801N00461999999CN0112651N1+01501+01001999999ADDGA1045+006001999GA2045+060001999GF104991999999999999999999MA1102001999999REMMET064METAR GMTT 030930Z 18009KT 9999 SCT020 SCT200 15/10 Q1020 NOSIG;EQDP01 060003SCOCIG
0142601010999992010010310004+35733-005900FM-15+0021GMTT V0201801N00571006001CN0112651N1+01601+01101999999ADDGA1075+006001999GA2045+060001999MA1102001999999REMMET064METAR GMTT 031000Z 18011KT 9999 BKN020 SCT200 16/11 Q1020 NOSIG;EQDQ01+000042SCOTCV
0171601010999992010010310304+35733-005900FM-15+0021GMTT V0201901N00411006001CN0112651N1+01601+01201999999ADDED128U12009GA1075+006001999GA2045+060001999MA1102001999999REMMET082METAR GMTT 031030Z 19008KT 150V210 9999 R28/1200N BKN020 SCT200 16/12 Q1020 NOSIG;EQDQ01+000042SCOTCV
0163601010999992010010311004+35733-005900FM-15+0021GMTT V0201901N00511006001CN0112651N1+01801+01201999999ADDED128U12009GA1075+006001999GA2045+060001999MA1102001999999REMMET074METAR GMTT 031100Z 19010KT 9999 R28/1200N BKN020 SCT200 18/12 Q1020 NOSIG;EQDQ01+000042SCOTCV
0142601010999992010010311304+35733-005900FM-15+0021GMTT V0202001N00621006001CN0112651N1+01801+01201999999ADDGA1075+006001999GA2045+060001999MA1102001999999REMMET064METAR GMTT 031130Z 20012KT 9999 BKN020 SCT200 18/12 Q1020 NOSIG;EQDQ01+000042SCOTCV
0264601010999992010010312004+35733-005900SY-MT+0021GMTT V0201901N00671006001CN0100001N1+01791+01281101991ADDGA1075+006001999GA2045+060001999GF199999051051008001001021MA1101901999999MD1610041+9999REMSYN076AAXX  03124 60101 32560 61913 10179 20128 40199 56004 85502 333 85620 83070;MET064METAR GMTT 031200Z 19013KT 9999 BKN020 SCT200 18/13 Q1019 NOSIG;EQDQ01+000062SCOTCV
0142601010999992010010312304+35733-005900FM-15+0021GMTT V0201901N00571006001CN0112651N1+01901+01401999999ADDGA1075+006001999GA2045+060001999MA1101901999999REMMET064METAR GMTT 031230Z 19011KT 9999 BKN020 SCT200 19/14 Q1019 NOSIG;EQDQ01+000042SCOTCV
0150601010999992010010313004+35733-005900FM-15+0021GMTT V0202001N00571006001CN0112651N1+01901+01301999999ADDGA1075+006001999GA2045+060001999MA1101801999999REMMET072METAR GMTT 031300Z 20011KT 170V240 9999 BKN020 SCT200 19/13 Q1018 NOSIG;EQDQ01+000042SCOTCV
0150601010999992010010313304+35733-005900FM-15+0021GMTT V0201901N00571006001CN0112651N1+01901+01301999999ADDGA1075+006001999GA2045+060001999MA1101801999999REMMET072METAR GMTT 031330Z 19011KT 160V220 9999 BKN020 SCT200 19/13 Q1018 NOSIG;EQDQ01+000042SCOTCV
0149601010999992010010314004+35733-005900FM-15+0021GMTT V0202101N00621060001CN0112651N1+01901+01301999999ADDGA1045+006001999GA2075+060001999GF107991999999999999999999MA1101691999999REMMET064METAR GMTT 031400Z 21012KT 9999 SCT020 BKN200 19/13 Q1017 NOSIG;
0274601010999992010010315004+35733-005900SY-MT+0021GMTT V0202201N00571030001CN0100001N1+01831+01321101771ADDGA1045+004801999GA2045+030001999GA3075+060001999GF107991031051004501081021MA1101691999999MD1810181+9999REMSYN082AAXX  03154 60101 32460 72211 10183 20132 40177 58018 83582 333 83616 83360 86070;MET071METAR GMTT 031500Z 22011KT 9999 SCT016 SCT100 BKN200 18/13 Q1017 NOSIG;
0172601010999992010010315304+35733-005900FM-15+0021GMTT V0202401N00511030001CN0112651N1+01801+01401999999ADDGA1045+004801999GA2045+030001999GA3075+060001999GF107991999999999999999999MA1101691999999REMMET071METAR GMTT 031530Z 24010KT 9999 SCT016 SCT100 BKN200 18/14 Q1017 NOSIG;
0172601010999992010010316004+35733-005900FM-15+0021GMTT V0202401N00621030001CN0112651N1+01801+01301999999ADDGA1045+004801999GA2045+030001999GA3075+060001999GF107991999999999999999999MA1101691999999REMMET071METAR GMTT 031600Z 24012KT 9999 SCT016 SCT100 BKN200 18/13 Q1017 NOSIG;
0172601010999992010010316304+35733-005900FM-15+0021GMTT V0202401N00511030001CN0112651N1+01701+01301999999ADDGA1045+004801999GA2045+030001999GA3075+060001999GF107991999999999999999999MA1101801999999REMMET071METAR GMTT 031630Z 24010KT 9999 SCT016 SCT100 BKN200 17/13 Q1018 NOSIG;
0172601010999992010010317004+35733-005900FM-15+0021GMTT V0202301N00411030001CN0112651N1+01701+01301999999ADDGA1045+004801999GA2045+030001999GA3075+060001999GF107991999999999999999999MA1101691999999REMMET071METAR GMTT 031700Z 23008KT 9999 SCT016 SCT100 BKN200 17/13 Q1017 NOSIG;
0172601010999992010010317304+35733-005900FM-15+0021GMTT V0202201N00361030001CN0112651N1+01701+01301999999ADDGA1045+004801999GA2045+030001999GA3075+060001999GF107991999999999999999999MA1101691999999REMMET071METAR GMTT 031730Z 22007KT 9999 SCT016 SCT100 BKN200 17/13 Q1017 NOSIG;
0293601010999992010010318004+35733-005900SY-MT+0021GMTT V0202201N00311030001CN0100001N1+01681+01271101761ADDGA1045+004801999GA2045+030001999GA3075+060001999GF107991031051004501081021KA1120M+01911MA1101691999999MD1610011+9999REMSYN088AAXX  03184 60101 32460 72206 10168 20127 40176 56001 83582 333 10191 83616 84360 85070;MET071METAR GMTT 031800Z 22006KT 9999 SCT016 SCT100 BKN200 17/13 Q1017 NOSIG;
0172601010999992010010318304+35733-005900FM-15+0021GMTT V0201701N00211030001CN0112651N1+01701+01301999999ADDGA1045+004801999GA2045+030001999GA3075+060001999GF107991999999999999999999MA1101691999999REMMET071METAR GMTT 031830Z 17004KT 9999 SCT016 SCT100 BKN200 17/13 Q1017 NOSIG;
0172601010999992010010319004+35733-005900FM-15+0021GMTT V0201801N00261030001CN0112651N1+01701+01201999999ADDGA1045+004801999GA2045+030001999GA3075+060001999GF107991999999999999999999MA1101691999999REMMET071METAR GMTT 031900Z 18005KT 9999 SCT016 SCT100 BKN200 17/12 Q1017 NOSIG;
0172601010999992010010320004+35733-005900FM-15+0021GMTT V0209999C00001030001CN0080001N1+01501+01201999999ADDGA1045+004801999GA2045+030001999GA3075+060001999GF107991999999999999999999MA1101691999999REMMET071METAR GMTT 032000Z 00000KT 8000 SCT016 SCT100 BKN200 15/12 Q1017 NOSIG;
0172601010999992010010320304+35733-005900FM-15+0021GMTT V0209999C00001030001CN0080001N1+01601+01201999999ADDGA1045+004801999GA2045+030001999GA3075+060001999GF107991999999999999999999MA1101591999999REMMET071METAR GMTT 032030Z 00000KT 8000 SCT016 SCT100 BKN200 16/12 Q1016 NOSIG;
0274601010999992010010321004+35733-005900SY-MT+0021GMTT V0209999C00001030001CN0080001N1+01621+01161101671ADDGA1045+004801999GA2045+030001999GA3075+060001999GF107991031051004501081021MA1101591999999MD1810091+9999REMSYN082AAXX  03214 60101 32458 70000 10162 20116 40167 58009 83582 333 83616 84360 85070;MET071METAR GMTT 032100Z 00000KT 8000 SCT016 SCT100 BKN200 16/12 Q1016 NOSIG;
0172601010999992010010321304+35733-005900FM-15+0021GMTT V0209999C00001030001CN0080001N1+01601+01201999999ADDGA1045+004801999GA2045+030001999GA3075+060001999GF107991999999999999999999MA1101591999999REMMET071METAR GMTT 032130Z 00000KT 8000 SCT016 SCT100 BKN200 16/12 Q1016 NOSIG;
0172601010999992010010322004+35733-005900FM-15+0021GMTT V0209999C00001030001CN0080001N1+01601+01201999999ADDGA1045+004801999GA2045+030001999GA3075+060001999GF107991999999999999999999MA1101591999999REMMET071METAR GMTT 032200Z 00000KT 8000 SCT016 SCT100 BKN200 16/12 Q1016 NOSIG;
0172601010999992010010322304+35733-005900FM-15+0021GMTT V0209999C00001030001CN0080001N1+01501+01201999999ADDGA1045+004801999GA2045+030001999GA3075+060001999GF107991999999999999999999MA1101591999999REMMET071METAR GMTT 032230Z 00000KT 8000 SCT016 SCT100 BKN200 15/12 Q1016 NOSIG;
0172601010999992010010323004+35733-005900FM-15+0021GMTT V0209999C00001030001CN0080001N1+01401+01101999999ADDGA1045+004801999GA2045+030001999GA3075+060001999GF107991999999999999999999MA1101491999999REMMET071METAR GMTT 032300Z 00000KT 8000 SCT016 SCT100 BKN200 14/11 Q1015 NOSIG;
0172601010999992010010323304+35733-005900FM-15+0021GMTT V0209999C00001030001CN0080001N1+01401+01101999999ADDGA1045+004801999GA2045+030001999GA3075+060001999GF107991999999999999999999MA1101491999999REMMET071METAR GMTT 032330Z 00000KT 8000 SCT016 SCT100 BKN200 14/11 Q1015 NOSIG;
0172601010999992010010400304+35733-005900FM-15+0021GMTT V0209999C00001030001CN0080001N1+01401+01101999999ADDGA1045+004801999GA2045+030001999GA3075+060001999GF107991999999999999999999MA1101391999999REMMET071METAR GMTT 040030Z 00000KT 8000 SCT016 SCT100 BKN200 14/11 Q1014 NOSIG;
0194601010999992010010401004+35733-005900FM-15+0021GMTT V0209999C00001030001CN0014001N1+01501+01001999999ADDED110U20009GA1045+004801999GA2045+030001999GA3075+060001999GF107991999999999999999999MA1101391999999REMMET082METAR GMTT 040100Z 00000KT 1400 R10/P2000N SCT016 SCT100 BKN200 15/10 Q1014 NOSIG;
0202601010999992010010401304+35733-005900FM-15+0021GMTT V0201701N00411030001CN0014001N1+01601+01001999999ADDED110U20009GA1045+004801999GA2045+030001999GA3075+060001999GF107991999999999999999999MA1101291999999REMMET090METAR GMTT 040130Z 17008KT 140V200 1400 R10/P2000N SCT016 SCT100 BKN200 16/10 Q1013 NOSIG;
0105601010999992010010402004+35733-005900AUTO +0021GMTT V0201701N005119999999N0014001N1+01701+00901999999ADDED110U20009MA1101191999999REMMET067METAR GMTT 040200Z AUTO 17010KT 1400NDV R10/P2000N /// 17/09 Q1012;
0105601010999992010010402304+35733-005900AUTO +0021GMTT V0201701N004619999999N0014001N1+01701+00901999999ADDED110U20009MA1101191999999REMMET067METAR GMTT 040230Z AUTO 17009KT 1400NDV R10/P2000N /// 17/09 Q1012;
0245601010999992010010403004+35733-005900SY-MT+0021GMTT V0201801N00461030001CN0015001N1+01721+00861101231ADDGA1045+004801999GA2045+030001999GF105991031051004501081001MA1101191999999MD1810261+9999REMSYN076AAXX  04034 60101 45415 51809 10172 20086 40123 58026 83580 333 83616 84360;MET064METAR GMTT 040300Z 18009KT 1500 SCT016 SCT100 17/09 Q1012 NOSIG;
0168601010999992010010403304+35733-005900FM-15+0021GMTT V0201801N00461999999CN0015001N1+01701+00801999999ADDGA1045+004801999GA2045+030001999GF104991999999999999999999MA1101081999999REMMET064METAR GMTT 040330Z 18009KT 1500 SCT016 SCT100 17/08 Q1011 NOSIG;EQDP01 030003SCOCIG
0168601010999992010010404004+35733-005900FM-15+0021GMTT V0201701N00511999999CN0015001N1+01701+00801999999ADDGA1045+004801999GA2045+030001999GF104991999999999999999999MA1101081999999REMMET064METAR GMTT 040400Z 17010KT 1500 SCT016 SCT100 17/08 Q1011 NOSIG;EQDP01 030003SCOCIG
0168601010999992010010404304+35733-005900FM-15+0021GMTT V0201701N00461999999CN0015001N1+01801+00801999999ADDGA1045+004801999GA2045+030001999GF104991999999999999999999MA1101021999999REMMET064METAR GMTT 040430Z 17009KT 1500 SCT016 SCT100 18/08 Q1010 NOSIG;EQDP01 030003SCOCIG
0176601010999992010010405004+35733-005900FM-15+0021GMTT V0201801N00461999999CN0080001N1+01801+00801999999ADDGA1045+004801999GA2045+030001999GF104991999999999999999999MA1101021999999REMMET072METAR GMTT 040500Z 18009KT 150V210 8000 SCT016 SCT100 18/08 Q1010 NOSIG;EQDP01 030003SCOCIG
0176601010999992010010405304+35733-005900FM-15+0021GMTT V0201901N00411999999CN0015001N1+01701+00801999999ADDGA1045+004801999GA2045+030001999GF104991999999999999999999MA1100911999999REMMET072METAR GMTT 040530Z 19008KT 150V220 1500 SCT016 SCT100 17/08 Q1009 NOSIG;EQDP01 030003SCOCIG
0264601010999992010010406004+35733-005900SY-MT+0021GMTT V0201901N00571030001CN0080001N1+01721+00781100931ADDGA1045+004801999GA2045+030001999GF105991031051004501081001KA1999N+01281MA1100911999999MD1810291+9999REMSYN082AAXX  04064 60101 32458 51911 10172 20078 40093 58029 83580 333 20128 83616 84360;MET064METAR GMTT 040600Z 19011KT 8000 SCT016 SCT100 17/08 Q1009 NOSIG;
0168601010999992010010406304+35733-005900FM-15+0021GMTT V0201801N00511999999CN0080001N1+01701+00801999999ADDGA1045+004801999GA2045+030001999GF104991999999999999999999MA1100811999999REMMET064METAR GMTT 040630Z 18010KT 8000 SCT016 SCT100 17/08 Q1008 NOSIG;EQDP01 030003SCOCIG
0179601010999992010010407004+35733-005900FM-15+0021GMTT V0201901N00821999999CN0080001N1+01801+00801999999ADDGA1045+004801999GA2045+030001999GF104991999999999999999999MA1100811999999OC101341REMMET067METAR GMTT 040700Z 19016G26KT 8000 SCT016 SCT100 18/08 Q1008 NOSIG;EQDP01 030003SCOCIG
0176601010999992010010407144+35733-005900FM-15+0021GMTT V0202001N00821999999CN0080001N1+01701+00901999999ADDGA1045+004801999GA2045+030001999GF104991999999999999999999MA1100811999999OC101541REMMET064METAR GMTT 040714Z 20016G30KT 8000 SCT016 SCT100 17/09 Q1008 MO;EQDP01 030003SCOCIG
0177601010999992010010407304+35733-005900FM-15+0021GMTT V0202001N00871999999CN0050001N1+01601+01001999999ADDGA1045+003901999GA2045+004801999GF104991999999999999999999MA1100911999999MW1631REMMET067METAR GMTT 040730Z 20017KT 5000 RA SCT013 SCT016 16/10 Q1009 NOSIG;EQDP01 004803SCOCIG
0176601010999992010010408004+35733-005900FM-15+0021GMTT V0202001N00771999999CN0050001N1+01501+01101999999ADDGA1045+003901999GA2045+004801999GF104991999999999999999999MA1100911999999OC101291REMMET064METAR GMTT 040800Z 20015G25KT 5000 SCT013 SCT016 15/11 Q1009 RA;EQDP01 004803SCOCIG
0172601010999992010010409004+35733-005900FM-12+0021GMTT V0202001N00871002101CN0050001N1+01551+01261101001ADDAY161031AY221031GA1041+002401071GF108991081021002501999999MD1310091+9999MW1601REMSYN082AAXX  04094 60101 41350 82017 10155 20126 40100 53009 76062 882// 333 84708 86816;
0159601010999992010010409304+35733-005900FM-15+0021GMTT V0201901N00871004801CN0050001N1+01501+01301999999ADDGA1045+002401999GA2075+004801999GF107991999999999999999999MA1101021999999MW1611REMMET068METAR GMTT 040930Z 19017KT 5000 -RA SCT008 BKN016 15/13 Q1010 NOSIG;
0159601010999992010010410004+35733-005900FM-15+0021GMTT V0201901N00771004801CN0050001N1+01501+01301999999ADDGA1045+002401999GA2075+004801999GF107991999999999999999999MA1101021999999MW1611REMMET068METAR GMTT 041000Z 19015KT 5000 -RA SCT008 BKN016 15/13 Q1010 NOSIG;
0159601010999992010010410304+35733-005900FM-15+0021GMTT V0202001N00771004801CN0050001N1+01601+01401999999ADDGA1045+002401999GA2075+004801999GF107991999999999999999999MA1101021999999MW1611REMMET068METAR GMTT 041030Z 20015KT 5000 -RA SCT008 BKN016 16/14 Q1010 NOSIG;
0149601010999992010010411004+35733-005900FM-15+0021GMTT V0202001N00721004801CN0050001N1+01601+01301999999ADDGA1045+002401999GA2075+004801999GF107991999999999999999999MA1101021999999REMMET064METAR GMTT 041100Z 20014KT 5000 SCT008 BKN016 16/13 Q1010 NOSIG;
0149601010999992010010411304+35733-005900FM-15+0021GMTT V0202101N00621004801CN0050001N1+01601+01301999999ADDGA1045+002401999GA2075+004801999GF107991999999999999999999MA1101021999999REMMET064METAR GMTT 041130Z 21012KT 5000 SCT008 BKN016 16/13 Q1010 NOSIG;
0290601010999992010010412004+35733-005900SY-MT+0021GMTT V0202001N00571004801CN0050001N1+01601+01381100931ADDAA106003091AY161061AY221061GA1045+002401999GA2075+004801999GF107991071021002501999999MA1100911999999MD1610091+9999MW1211REMSYN088AAXX  04124 60101 11350 72011 10160 20138 40093 56009 60031 72162 872// 333 83708 86816;MET064METAR GMTT 041200Z 20011KT 5000 SCT008 BKN016 16/14 Q1009 NOSIG;
0159601010999992010010412304+35733-005900FM-15+0021GMTT V0202501N00981004801CN0050001N1+01801+01301999999ADDGA1045+002401999GA2075+004801999GF107991999999999999999999MA1100811999999OC101491REMMET066METAR GMTT 041230Z 25019G29KT 5000 SCT008 BKN016 18/13 Q1008 RERA;
0149601010999992010010413004+35733-005900FM-15+0021GMTT V0202401N00871004801CN0050001N1+01801+01301999999ADDGA1045+002401999GA2075+004801999GF107991999999999999999999MA1100811999999REMMET064METAR GMTT 041300Z 24017KT 5000 SCT008 BKN016 18/13 Q1008 NOSIG;
0149601010999992010010413304+35733-005900FM-15+0021GMTT V0202401N00721004801CN0050001N1+01801+01501999999ADDGA1045+002401999GA2075+004801999GF107991999999999999999999MA1100711999999REMMET064METAR GMTT 041330Z 24014KT 5000 SCT008 BKN016 18/15 Q1007 NOSIG;
0160601010999992010010414004+35733-005900FM-15+0021GMTT V0202401N01181004801CN0070001N1+01901+01301999999ADDGA1025+002401999GA2075+004801999GF107991999999999999999999MA1100711999999OC101701REMMET067METAR GMTT 041400Z 24023G33KT 7000 FEW008 BKN016 19/13 Q1007 NOSIG;
0158601010999992010010414304+35733-005900FM-15+0021GMTT V0202301N00981004801CN0070001N1+01801+01301999999ADDGA1025+002401999GA2075+004801999GF107991999999999999999999MA1100711999999REMMET073METAR GMTT 041430Z 23019KT 7000 R28///// FEW008 BKN016 18/13 Q1007 NOSIG;
0245601010999992010010415004+35733-005900SY-MT+0021GMTT V0202401N00931004801CN0070001N1+01781+01351100701ADDGA1025+002401999GA2075+004801999GF107991071021002501999999MA1100611999999MD1810241+9999REMSYN076AAXX  04154 60101 32357 72418 10178 20135 40070 58024 872// 333 82708 86816;MET064METAR GMTT 041500Z 24018KT 7000 FEW008 BKN016 18/14 Q1006 NOSIG;
0149601010999992010010415304+35733-005900FM-15+0021GMTT V0202401N00871004801CN0070001N1+01701+01301999999ADDGA1025+002401999GA2075+004801999GF107991999999999999999999MA1100611999999REMMET064METAR GMTT 041530Z 24017KT 7000 FEW008 BKN016 17/13 Q1006 NOSIG;
0149601010999992010010416004+35733-005900FM-15+0021GMTT V0202401N00981004801CN0070001N1+01801+01201999999ADDGA1025+002401999GA2075+004801999GF107991999999999999999999MA1100611999999REMMET064METAR GMTT 041600Z 24019KT 7000 FEW008 BKN016 18/12 Q1006 NOSIG;
0149601010999992010010416304+35733-005900FM-15+0021GMTT V0202301N00871004801CN0070001N1+01801+01301999999ADDGA1025+002401999GA2075+004801999GF107991999999999999999999MA1100611999999REMMET064METAR GMTT 041630Z 23017KT 7000 FEW008 BKN016 18/13 Q1006 NOSIG;
0160601010999992010010417004+35733-005900FM-15+0021GMTT V0202201N01081004801CN0060001N1+01801+01201999999ADDGA1025+002401999GA2075+004801999GF107991999999999999999999MA1100611999999OC101591REMMET067METAR GMTT 041700Z 22021G31KT 6000 FEW008 BKN016 18/12 Q1006 NOSIG;
0185601010999992010010417244+35733-005900FM-15+0021GMTT V0202201N00981006001CN0060001N1+01701+01301999999ADDGA1025+002401999GA2075+006001999GA3025+006901095MA1100511999999MW1801MW2951REMMET079METAR GMTT 041724Z 22019KT 6000 -TSRA FEW008 BKN020 FEW023CB 17/13 Q1005 NOSIG;EQDQ01+000022SCOTCV
0186601010999992010010417304+35733-005900FM-15+0021GMTT V0202201N01031003901CN0060001N1+01701+01301999999ADDGA1025+002401999GA2045+003901025GA3075+006001999GF107991999999999999999999MA1100511999999OC101541REMMET077METAR GMTT 041730Z 22020G30KT 6000 FEW008 SCT013TCU BKN020 17/13 Q1005 NOSIG;
0363601010999992010010418004+35733-005900SY-MT+0021GMTT V0202201N00931004801CN0060001N1+01641+01181100591ADDAA112005191AY191061AY281061GA1025+002401999GA2075+004801999GA3025+006901095GF108991081091002501999999KA1120M+01891MA1100511999999MD1610091+9999MW1801MW2951OC101441REMSYN100AAXX  04184 60101 11356 82218 10164 20118 40059 56009 60052 79598 889// 333 10189 82708 87816 82923;MET082METAR GMTT 041800Z 22018G28KT 6000 -TSRA FEW008 BKN016 FEW023CB 16/12 Q1005 NOSIG;
0176601010999992010010418304+35733-005900FM-15+0021GMTT V0202401N01341004801CN0060001N1+01801+01201999999ADDGA1025+002401999GA2075+004801999GA3025+006901095MA1100511999999MW1171REMMET076METAR GMTT 041830Z 24026KT 6000 TS FEW008 BKN016 FEW023CB 18/12 Q1005 NOSIG;EQDQ01+000022SCOTCV
0196601010999992010010419004+35733-005900FM-15+0021GMTT V0202401N01231004801CN0050001N1+01701+01301999999ADDGA1025+002401999GA2075+004801999GA3025+006901095MA1100511999999MW1801MW2951OC101751REMMET082METAR GMTT 041900Z 24024G34KT 5000 -TSRA FEW008 BKN016 FEW023CB 17/13 Q1005 NOSIG;EQDQ01+000022SCOTCV
0181601010999992010010419304+35733-005900FM-15+0021GMTT V0202401N01341004801CN0050001N1+99999+99999999999ADDGA1025+002401999GA2075+004801999GA3025+006901095MA1100611999999MW1171OC101851REMMET073METAR GMTT 041930Z 24026G36KT 5000 TS FEW008 BKN016 FEW023CB Q1006 NOSIG;EQDQ01+000022SCOTCV
0176601010999992010010420004+35733-005900FM-15+0021GMTT V0202301N01231004801CN0050001N1+01701+01201999999ADDGA1025+002401999GA2075+004801999GA3025+006901095MA1100511999999MW1171REMMET076METAR GMTT 042000Z 23024KT 5000 TS FEW008 BKN016 FEW023CB 17/12 Q1005 NOSIG;EQDQ01+000022SCOTCV
0157601010999992010010420304+35733-005900FM-15+0021GMTT V0202401N01541004801CN0050001N1+01601+01201999999ADDGA1025+002401999GA2075+004801999GA3025+006901095MA1100611999999MW1171REMMET076METAR GMTT 042030Z 24030KT 5000 TS FEW008 BKN016 FEW023CB 16/12 Q1006 NOSIG;
0307601010999992010010421004+35733-005900SY-MT+0021GMTT V0202401N01181004801CN0050001N1+01621+01221100601ADDAY191031AY281031GA1025+002401999GA2075+004801999GA3025+006901095GF108991081091002501999999MA1100511999999MD1310021+9999MW1171REMSYN088AAXX  04214 60101 41350 82423 10162 20122 40060 53002 71798 889// 333 82708 87816 82923;MET076METAR GMTT 042100Z 24023KT 5000 TS FEW008 BKN016 FEW023CB 16/12 Q1005 NOSIG;
0176601010999992010010421304+35733-005900FM-15+0021GMTT V0202401N01031004801CN0050001N1+01601+01401999999ADDGA1025+002401999GA2075+004801999GA3025+006901095MA1100511999999MW1811MW2951OC101541REMMET081METAR GMTT 042130Z 24020G30KT 5000 TSRA FEW008 BKN016 FEW023CB 16/14 Q1005 NOSIG;
0156601010999992010010422004+35733-005900FM-15+0021GMTT V0202401N01341004801CN0070001N1+01701+01301999999ADDGA1025+002401999GA2075+004801999GA3025+006901095MA1100511999999MW1171REMMET075METAR GMTT 042200Z 24026KT 7000 TS FEW008 BKN016 FEW023CB 17/13 Q1005 RERA;
0170601010999992010010422304+35733-005900FM-15+0021GMTT V0202501N01591004801CN0070001N1+01701+01301999999ADDGA1025+002401999GA2075+004801999GA3025+006901095MA1100511999999MW1171OC102211REMMET081METAR GMTT 042230Z 25031G43KT 7000 - TS FEW008 BKN016 FEW023CB 17/13 Q1005 NOSIG;
0159601010999992010010423004+35733-005900FM-15+0021GMTT V0202501N01441004801CN0070001N1+01701+01301999999ADDGA1025+002401999GA2075+004801999GA3025+006901095MA1100511999999MW1171REMMET078METAR GMTT 042300Z 25028KT 7000 - TS FEW008 BKN016 FEW023CB 17/13 Q1005 NOSIG;
0170601010999992010010423304+35733-005900FM-15+0021GMTT V0202501N01591004801CN0070001N1+01701+01201999999ADDGA1025+002401999GA2075+004801999GA3025+006901095MA1100511999999MW1171OC102211REMMET081METAR GMTT 042330Z 25031G43KT 7000 - TS FEW008 BKN016 FEW023CB 17/12 Q1005 NOSIG;
0345601010999992010010500004+35733-005900SY-MT+0021GMTT V0202401N01441004801CN0050001N1+01651+01251100501ADDAA106004191AY191061AY221061GA1025+002401999GA2075+004801999GA3025+006901095GF108991081091002501999999MA1100411999999MD1710081+9999MW1171MW2801OC101951REMSYN094AAXX  05004 60101 11350 82428 10165 20125 40050 57008 60041 71792 889// 333 83708 86816 82923;MET083METAR GMTT 050000Z 24027G38KT 5000 - TSRA FEW008 BKN016 FEW023CB 16/13 Q1004 NOSIG;
0086601010999992010010500304+35733-005900AUTO +0021GMTT V0202501N015912200019N9999999N1+01601+01301999999ADDMA1100411999999OC102161REMMET051METAR GMTT 050030Z AUTO 25031G42KT /// 16/13 Q1004;
0086601010999992010010501004+35733-005900AUTO +0021GMTT V0202401N013912200019N9999999N1+01601+01301999999ADDMA1100411999999OC102111REMMET051METAR GMTT 050100Z AUTO 24027G41KT /// 16/13 Q1004;
0086601010999992010010501304+35733-005900AUTO +0021GMTT V0202501N014912200019N9999999N1+01601+01201999999ADDMA1100411999999OC102061REMMET051METAR GMTT 050130Z AUTO 25029G40KT /// 16/12 Q1004;
0086601010999992010010502004+35733-005900AUTO +0021GMTT V0202501N015912200019N9999999N1+01601+01201999999ADDMA1100411999999OC102261REMMET051METAR GMTT 050200Z AUTO 25031G44KT /// 16/12 Q1004;
0086601010999992010010502304+35733-005900AUTO +0021GMTT V0202601N015412200019N9999999N1+01601+01201999999ADDMA1100411999999OC102061REMMET051METAR GMTT 050230Z AUTO 26030G40KT /// 16/12 Q1004;
0188601010999992010010503004+35733-005900SY-MT+0021GMTT V0202701N014419999999N9999999N1+01531+01131100461ADDAW1001AZ121031MA1100411999999MD1810061+9999REMSYN060AAXX  05034 60101 479// /2728 10153 20113 40046 58006 70010;MET048METAR GMTT 050300Z AUTO 27028KT /// 15/12 Q1004;EQDQ01+000000PRSWMA
0075601010999992010010503304+35733-005900AUTO +0021GMTT V0202601N012912200019N9999999N1+01601+01301999999ADDMA1100411999999REMMET048METAR GMTT 050330Z AUTO 26025KT /// 16/13 Q1004;
0086601010999992010010504004+35733-005900AUTO +0021GMTT V0202601N012912200019N9999999N1+01601+01301999999ADDMA1100411999999OC101801REMMET051METAR GMTT 050400Z AUTO 26025G35KT /// 16/13 Q1004;
0075601010999992010010504304+35733-005900AUTO +0021GMTT V0202601N012912200019N9999999N1+01601+01201999999ADDMA1100411999999REMMET048METAR GMTT 050430Z AUTO 26025KT /// 16/12 Q1004;
0164601010999992010010504404+35733-005900FM-15+0021GMTT V0202601N01291004801CN0070001N1+01601+01201999999ADDGA1025+002401999GA2075+004801999GA3025+006901095MA1100411999999REMMET070METAR GMTT 050440Z 26025KT 7000 FEW008 BKN016 FEW023CB 16/12 Q1004 B8;EQDQ01+000022SCOTCV
0167601010999992010010505004+35733-005900FM-15+0021GMTT V0202501N01231004801CN0070001N1+01601+01301999999ADDGA1025+002401999GA2075+004801999GA3025+006901095MA1100411999999REMMET073METAR GMTT 050500Z 25024KT 7000 FEW008 BKN016 FEW023CB 16/13 Q1004 NOSIG;EQDQ01+000022SCOTCV
0357601010999992010010506004+35733-005900SY-MT+0021GMTT V0202701N01291004801CN0050001N1+01521+01291100451ADDAA124015091AY191061AY281061GA1045+002401999GA2075+004801999GA3025+006901095GF107991071021002501999999KA1999N+01371MA1100411999999MD1810021+9999MW1801OC101851REMSYN100AAXX  05064 60101 11350 72725 10152 20129 40045 58002 60154 78098 872// 333 20137 83708 86816 82923;MET082METAR GMTT 050600Z 27026G36KT 5000 -SHRA SCT008 BKN016 FEW023CB 15/13 Q1004 NOSIG;
0167601010999992010010506304+35733-005900FM-15+0021GMTT V0202601N01441004801CN0050001N1+01601+01201999999ADDGA1045+002401999GA2075+004801999GA3025+006901095MA1100411999999REMMET073METAR GMTT 050630Z 26028KT 5000 SCT008 BKN016 FEW023CB 16/12 Q1004 NOSIG;EQDQ01+000022SCOTCV
0178601010999992010010507004+35733-005900FM-15+0021GMTT V0202601N01291004801CN0050001N1+01601+01301999999ADDGA1045+002401999GA2075+004801999GA3025+006901095MA1100511999999OC101801REMMET076METAR GMTT 050700Z 26025G35KT 5000 SCT008 BKN016 FEW023CB 16/13 Q1005 NOSIG;EQDQ01+000022SCOTCV
0167601010999992010010507304+35733-005900FM-15+0021GMTT V0202601N01341004801CN0050001N1+01601+01301999999ADDGA1045+002401999GA2075+004801999GA3025+006901095MA1100511999999REMMET073METAR GMTT 050730Z 26026KT 5000 SCT008 BKN016 FEW023CB 16/13 Q1005 NOSIG;EQDQ01+000022SCOTCV
0190601010999992010010508004+35733-005900FM-15+0021GMTT V0202901N01031004801CN0050001N1+01501+01301999999ADDGA1045+002401999GA2075+004801999GA3025+006901095MA1100511999999MW1801OC101751REMMET082METAR GMTT 050800Z 29020G34KT 5000 -SHRA SCT008 BKN016 FEW023CB 15/13 Q1005 NOSIG;EQDQ01+000022SCOTCV
0190601010999992010010508304+35733-005900FM-15+0021GMTT V0202601N01081004801CN0050001N1+01501+01301999999ADDGA1045+002401999GA2075+004801999GA3025+006901095MA1100611999999MW1801OC101801REMMET082METAR GMTT 050830Z 26021G35KT 5000 -SHRA SCT008 BKN016 FEW023CB 15/13 Q1006 NOSIG;EQDQ01+000022SCOTCV
0311601010999992010010509004+35733-005900SY-MT+0021GMTT V0202701N01031004801CN0050001N1+01541+01271100631ADDAY181031AY221031GA1045+002401999GA2075+004801999GA3025+006901095GF108991081091002501999999MA1100611999999MD1110171+9999MW1251REMSYN088AAXX  05094 60101 41350 82720 10154 20127 40063 51017 72582 889// 333 83708 86816 82923;MET080METAR GMTT 050900Z 27020KT 5000 SCT008 BKN016 FEW023CB 15/13 Q1006 RESHRA NOSIG;
0174601010999992010010509304+35733-005900FM-15+0021GMTT V0202801N00871004801CN0050001N1+01601+01301999999ADDGA1045+002401999GA2075+004801999GA3025+006901095MA1100611999999REMMET080METAR GMTT 050930Z 28017KT 5000 SCT008 BKN016 FEW023CB 16/13 Q1006 RESHRA NOSIG;EQDQ01+000022SCOTCV
0149601010999992010010510004+35733-005900FM-15+0021GMTT V0202801N00981004801CN0080001N1+01701+01201999999ADDGA1025+002401999GA2075+004801999GF107991999999999999999999MA1100711999999REMMET064METAR GMTT 051000Z 28019KT 8000 FEW008 BKN016 17/12 Q1007 NOSIG;
0170601010999992010010510304+35733-005900FM-15+0021GMTT V0202801N01131004801CN0080001N1+01701+01301999999ADDED128U06509GA1025+002401999GA2075+004801999GF107991999999999999999999MA1100811999999REMMET074METAR GMTT 051030Z 28022KT 8000 R28/0650N FEW008 BKN016 17/13 Q1008 NOSIG;
0149601010999992010010511004+35733-005900FM-15+0021GMTT V0202701N01031004801CN0080001N1+01701+01301999999ADDGA1025+002401999GA2075+004801999GF107991999999999999999999MA1100811999999REMMET064METAR GMTT 051100Z 27020KT 8000 FEW008 BKN016 17/13 Q1008 NOSIG;
0149601010999992010010511304+35733-005900FM-15+0021GMTT V0202701N01181004801CN0080001N1+01801+01301999999ADDGA1025+002401999GA2075+004801999GF107991999999999999999999MA1100811999999REMMET064METAR GMTT 051130Z 27023KT 8000 FEW008 BKN016 18/13 Q1008 NOSIG;
0290601010999992010010512004+35733-005900SY-MT+0021GMTT V0202801N01081004801CN0080001N1+01721+01251100821ADDAA106002091AY181061AY221061GA1025+002401999GA2075+004801999GF107991071021002501999999MA1100811999999MD1110161+9999MW1021REMSYN088AAXX  05124 60101 11358 72821 10172 20125 40082 51016 60021 70282 872// 333 82708 86816;MET064METAR GMTT 051200Z 28021KT 8000 FEW008 BKN016 17/12 Q1008 NOSIG;
0149601010999992010010512304+35733-005900FM-15+0021GMTT V0202801N00871004801CN0080001N1+01701+01301999999ADDGA1025+002401999GA2075+004801999GF107991999999999999999999MA1100711999999REMMET064METAR GMTT 051230Z 28017KT 8000 FEW008 BKN016 17/13 Q1007 NOSIG;
0149601010999992010010513004+35733-005900FM-15+0021GMTT V0202701N01031004801CN0080001N1+01801+01301999999ADDGA1025+002401999GA2075+004801999GF107991999999999999999999MA1100711999999REMMET064METAR GMTT 051300Z 27020KT 8000 FEW008 BKN016 18/13 Q1007 NOSIG;
0157601010999992010010513304+35733-005900FM-15+0021GMTT V0202801N01031004801CN0080001N1+01701+01301999999ADDGA1025+002401999GA2075+004801999GF107991999999999999999999MA1100711999999REMMET072METAR GMTT 051330Z 28020KT 250V320 8000 FEW008 BKN016 17/13 Q1007 NOSIG;
0149601010999992010010514004+35733-005900FM-15+0021GMTT V0202901N00871006001CN0060001N1+01601+01301999999ADDGA1025+002401999GA2075+006001999GF107991999999999999999999MA1100811999999REMMET064METAR GMTT 051400Z 29017KT 6000 FEW008 BKN020 16/13 Q1008 NOSIG;
0149601010999992010010514304+35733-005900FM-15+0021GMTT V0202801N00981006001CN0060001N1+01701+01201999999ADDGA1025+002401999GA2075+006001999GF107991999999999999999999MA1100811999999REMMET064METAR GMTT 051430Z 28019KT 6000 FEW008 BKN020 17/12 Q1008 NOSIG;
0245601010999992010010515004+35733-005900SY-MT+0021GMTT V0202801N00931004801CN0080001N1+01661+01221100831ADDGA1025+002401999GA2075+004801999GF107991071021002501999999MA1100811999999MD1310011+9999REMSYN076AAXX  05154 60101 32358 72818 10166 20122 40083 53001 872// 333 82708 87816;MET064METAR GMTT 051500Z 28018KT 8000 FEW008 BKN016 17/12 Q1008 NOSIG;
0167601010999992010010515304+35733-005900FM-15+0021GMTT V0202801N00871004801CN0080001N1+01701+01301999999ADDGA1045+003001999GA2075+004801999GA3025+006901095MA1100811999999REMMET073METAR GMTT 051530Z 28017KT 8000 SCT010 BKN016 FEW023CB 17/13 Q1008 NOSIG;EQDQ01+000022SCOTCV
0183601010999992010010516004+35733-005900FM-15+0021GMTT V0202801N00821006001CN0080001N1+01701+01201999999ADDGA1045+003001999GA2075+006001999GA3025+009001095MA1100811999999REMMET089METAR GMTT 051600Z 28016KT 8000 SCT010 BKN020 FEW030CB 17/12 Q1008 RERA TEMPO 3000 -TSRA;EQDQ01+000022SCOTCV
0167601010999992010010516304+35733-005900FM-15+0021GMTT V0202801N00871006001CN0080001N1+01601+01101999999ADDGA1045+003001999GA2075+006001999GA3025+009001095MA1100811999999REMMET073METAR GMTT 051630Z 28017KT 8000 SCT010 BKN020 FEW030CB 16/11 Q1008 NOSIG;EQDQ01+000022SCOTCV
0149601010999992010010517004+35733-005900FM-15+0021GMTT V0202901N00771006001CN0080001N1+01601+01201999999ADDGA1025+003001999GA2075+006001999GF107991999999999999999999MA1100911999999REMMET064METAR GMTT 051700Z 29015KT 8000 FEW010 BKN020 16/12 Q1009 NOSIG;
0149601010999992010010517304+35733-005900FM-15+0021GMTT V0202801N00821006001CN0080001N1+01601+01201999999ADDGA1025+003001999GA2075+006001999GF107991999999999999999999MA1100911999999REMMET064METAR GMTT 051730Z 28016KT 8000 FEW010 BKN020 16/12 Q1009 NOSIG;
0309601010999992010010518004+35733-005900SY-MT+0021GMTT V0202801N00871006001CN0080001N1+01621+01181100951ADDAA112002091AY181061AY221061GA1025+003001999GA2075+006001999GF107991061081004501031999KA1120M+01891MA1100911999999MD1210121+9999MW1021REMSYN094AAXX  05184 60101 11458 72817 10162 20118 40095 52012 60022 70282 8683/ 333 10189 82810 85820;MET064METAR GMTT 051800Z 28017KT 8000 FEW010 BKN020 16/12 Q1009 NOSIG;
0216601010999992010010518304+35733-005900FM-15+0021GMTT V0202801N00821006001CN0030001N1+01601+01301999999ADDED128U12009GA1025+003001999GA2075+006001999GA3025+006901095MA1100911999999MW1811OC101491REMMET097METAR GMTT 051830Z 28016G29KT 3000 R28/1200VP2000D SHRA FEW010 BKN020 FEW023CB 16/13 Q1009 NOSIG;EQDQ01+000022SCOTCV
0154601010999992010010519004+35733-005900FM-15+0021GMTT V0202801N00821006001CN0060001N1+01501+01201999999ADDGA1045+003001999GA2075+006001999GF107991999999999999999999MA1100911999999REMMET069METAR GMTT 051900Z 28016KT 6000 SCT010 BKN020 15/12 Q1009 RERA NOSIG;
0154601010999992010010519304+35733-005900FM-15+0021GMTT V0202801N00871006001CN0060001N1+01601+01201999999ADDGA1045+003001999GA2075+006001999GF107991999999999999999999MA1100911999999REMMET069METAR GMTT 051930Z 28017KT 6000 SCT010 BKN020 16/12 Q1009 RERA NOSIG;
0149601010999992010010520004+35733-005900FM-15+0021GMTT V0202801N00871006001CN0080001N1+01601+01201999999ADDGA1045+003001999GA2075+006001999GF107991999999999999999999MA1101021999999REMMET064METAR GMTT 052000Z 28017KT 8000 SCT010 BKN020 16/12 Q1010 NOSIG;
0149601010999992010010520304+35733-005900FM-15+0021GMTT V0202901N00931006001CN0080001N1+01601+01101999999ADDGA1025+003001999GA2075+006001999GF107991999999999999999999MA1101021999999REMMET064METAR GMTT 052030Z 29018KT 8000 FEW010 BKN020 16/11 Q1010 NOSIG;
0273601010999992010010521004+35733-005900SY-MT+0021GMTT V0202801N00871006001CN0080001N1+01561+01021101051ADDAY181031AY221031GA1045+003001999GA2075+006001999GF107991071081004501999999MA1101021999999MD1310101+9999MW1021REMSYN082AAXX  05214 60101 41458 72817 10156 20102 40105 53010 70282 878// 333 83810 87820;MET064METAR GMTT 052100Z 28017KT 8000 SCT010 BKN020 16/10 Q1010 NOSIG;
0149601010999992010010521304+35733-005900FM-15+0021GMTT V0202901N00981006001CN0080001N1+01601+01001999999ADDGA1045+003001999GA2075+006001999GF107991999999999999999999MA1101021999999REMMET064METAR GMTT 052130Z 29019KT 8000 SCT010 BKN020 16/10 Q1010 NOSIG;
0149601010999992010010522004+35733-005900FM-15+0021GMTT V0203001N00821006001CN0080001N1+01601+01001999999ADDGA1045+003001999GA2075+006001999GF107991999999999999999999MA1101021999999REMMET064METAR GMTT 052200Z 30016KT 8000 SCT010 BKN020 16/10 Q1010 NOSIG;
0149601010999992010010522304+35733-005900FM-15+0021GMTT V0203001N00931006001CN0080001N1+01601+01001999999ADDGA1045+003001999GA2075+006001999GF107991999999999999999999MA1101021999999REMMET064METAR GMTT 052230Z 30018KT 8000 SCT010 BKN020 16/10 Q1010 NOSIG;
0149601010999992010010523004+35733-005900FM-15+0021GMTT V0203001N00821006001CN0080001N1+01601+00801999999ADDGA1045+003001999GA2075+006001999GF107991999999999999999999MA1101021999999REMMET064METAR GMTT 052300Z 30016KT 8000 SCT010 BKN020 16/08 Q1010 NOSIG;
0149601010999992010010523304+35733-005900FM-15+0021GMTT V0203101N00821006001CN0080001N1+01601+00901999999ADDGA1045+003001999GA2075+006001999GF107991999999999999999999MA1101021999999REMMET064METAR GMTT 052330Z 31016KT 8000 SCT010 BKN020 16/09 Q1010 NOSIG;
0253601010999992010010600004+35733-005900SY-MT+0021GMTT V0203101N00671006001CN0080001N1+01541+00861101071ADDGA1045+003001999GA2075+006001999GF107991071081004501999999MA1101021999999MD1010031+9999REMSYN076AAXX  06004 60101 32458 73113 10154 20086 40107 50003 878// 333 83810 87820;MET072METAR GMTT 060000Z 32013KT 290V350 8000 SCT010 BKN020 16/09 Q1010 NOSIG;
0149601010999992010010600304+35733-005900FM-15+0021GMTT V0203001N00671006001CN0080001N1+01501+00901999999ADDGA1045+003001999GA2075+006001999GF107991999999999999999999MA1101021999999REMMET064METAR GMTT 060030Z 30013KT 8000 SCT010 BKN020 15/09 Q1010 NOSIG;
0149601010999992010010601004+35733-005900FM-15+0021GMTT V0203001N00721006001CN0070001N1+01501+00801999999ADDGA1045+003001999GA2075+006001999GF107991999999999999999999MA1101021999999REMMET064METAR GMTT 060100Z 30014KT 7000 SCT010 BKN020 15/08 Q1010 NOSIG;
0149601010999992010010601304+35733-005900FM-15+0021GMTT V0203101N00721006001CN0070001N1+01501+00701999999ADDGA1045+003001999GA2075+006001999GF107991999999999999999999MA1101021999999REMMET064METAR GMTT 060130Z 31014KT 7000 SCT010 BKN020 15/07 Q1010 NOSIG;
0083601010999992010010602004+35733-005900AUTO +0021GMTT V0202901N007212200019N0060001N1+01501+00801999999ADDMA1101021999999REMMET056METAR GMTT 060200Z AUTO 29014KT 6000NDV /// 15/08 Q1010;
0083601010999992010010602304+35733-005900AUTO +0021GMTT V0203001N006212200019N0060001N1+01501+00801999999ADDMA1101021999999REMMET056METAR GMTT 060230Z AUTO 30012KT 6000NDV /// 15/08 Q1010;
0157601010999992010010603004+35733-005900SY-MT+0021GMTT V0203001N005719999999N0060001N1+01481+00831101061ADDMA1101021999999MD1810011+9999REMSYN054AAXX  06034 60101 45956 /3011 10148 20083 40106 58001;MET056METAR GMTT 060300Z AUTO 30011KT 6000NDV /// 15/09 Q1010;
0083601010999992010010603304+35733-005900AUTO +0021GMTT V0203001N006712200019N0060001N1+01501+00901999999ADDMA1101021999999REMMET056METAR GMTT 060330Z AUTO 30013KT 6000NDV /// 15/09 Q1010;
0083601010999992010010604004+35733-005900AUTO +0021GMTT V0202901N006212200019N0060001N1+01501+00901999999ADDMA1101021999999REMMET056METAR GMTT 060400Z AUTO 29012KT 6000NDV /// 15/09 Q1010;
0083601010999992010010604304+35733-005900AUTO +0021GMTT V0202901N005112200019N0060001N1+01501+00901999999ADDMA1101021999999REMMET056METAR GMTT 060430Z AUTO 29010KT 6000NDV /// 15/09 Q1010;
0126601010999992010010605004+35733-005900FM-15+0021GMTT V0203101N00511006001CN0060001N1+01501+00901999999ADDGA1075+006001999GF107991999999999999999999MA1101021999999REMMET057METAR GMTT 060500Z 31010KT 6000 BKN020 15/09 Q1010 NOSIG;
0126601010999992010010605304+35733-005900FM-15+0021GMTT V0203101N00511006001CN0060001N1+01501+00901999999ADDGA1075+006001999GF107991999999999999999999MA1101021999999REMMET057METAR GMTT 060530Z 31010KT 6000 BKN020 15/09 Q1010 NOSIG;
0252601010999992010010606004+35733-005900SY-MT+0021GMTT V0203601N00311006001CN0060001N1+01331+00971101031ADDAA124004191GA1075+006001999GF107991071021008001999999KA1999N+01331MA1101021999999MD1810031+9999REMSYN082AAXX  06064 60101 12556 73606 10133 20097 40103 58003 60044 872// 333 20133 87820;MET057METAR GMTT 060600Z 36006KT 6000 BKN020 13/10 Q1010 NOSIG;
0126601010999992010010606304+35733-005900FM-15+0021GMTT V0200101N00261006001CN0060001N1+01301+00901999999ADDGA1075+006001999GF107991999999999999999999MA1101021999999REMMET057METAR GMTT 060630Z 01005KT 6000 BKN020 13/09 Q1010 NOSIG;
0126601010999992010010607004+35733-005900FM-15+0021GMTT V0200101N00101006001CN0060001N1+01201+00901999999ADDGA1075+006001999GF107991999999999999999999MA1101021999999REMMET057METAR GMTT 060700Z 01002KT 6000 BKN020 12/09 Q1010 NOSIG;
0126601010999992010010607304+35733-005900FM-15+0021GMTT V0209999C00001006001CN0060001N1+01201+00901999999ADDGA1075+006001999GF107991999999999999999999MA1101021999999REMMET057METAR GMTT 060730Z 00000KT 6000 BKN020 12/09 Q1010 NOSIG;
0149601010999992010010608004+35733-005900FM-15+0021GMTT V0209999C00001006001CN0060001N1+01201+01001999999ADDGA1045+003001999GA2075+006001999GF107991999999999999999999MA1101021999999REMMET064METAR GMTT 060800Z 00000KT 6000 SCT010 BKN020 12/10 Q1010 NOSIG;
0149601010999992010010608304+35733-005900FM-15+0021GMTT V0209999C00001006001CN0080001N1+01201+01001999999ADDGA1045+003001999GA2075+006001999GF107991999999999999999999MA1101021999999REMMET064METAR GMTT 060830Z 00000KT 8000 SCT010 BKN020 12/10 Q1010 NOSIG;
0245601010999992010010609004+35733-005900SY-MT+0021GMTT V0209999C00001006001CN0080001N1+01261+01031101131ADDGA1045+003001999GA2075+006001999GF108991081081004501999999MA1101081999999MD1310101+9999REMSYN076AAXX  06094 60101 32458 80000 10126 20103 40113 53010 888// 333 83810 87820;MET064METAR GMTT 060900Z 00000KT 8000 SCT010 BKN020 13/10 Q1011 NOSIG;
0149601010999992010010609304+35733-005900FM-15+0021GMTT V0201301N00051006001CN0080001N1+01301+01101999999ADDGA1045+003001999GA2075+006001999GF107991999999999999999999MA1101081999999REMMET064METAR GMTT 060930Z 13001KT 8000 SCT010 BKN020 13/11 Q1011 NOSIG;
0149601010999992010010610004+35733-005900FM-15+0021GMTT V0201101N00151004801CN0080001N1+01401+01101999999ADDGA1045+003001999GA2075+004801999GF107991999999999999999999MA1101081999999REMMET064METAR GMTT 061000Z 11003KT 8000 SCT010 BKN016 14/11 Q1011 NOSIG;
0150601010999992010010610304+35733-005900FM-15+0021GMTT V0201301N00211006001CN0080001N1+01501+01101999999ADDGA1075+006001999GA2045+060001999MA1101081999999REMMET072METAR GMTT 061030Z 13004KT 100V160 8000 BKN020 SCT200 15/11 Q1011 NOSIG;EQDQ01+000042SCOTCV
0142601010999992010010611004+35733-005900FM-15+0021GMTT V0201701N00311006001CN0080001N1+01601+01101999999ADDGA1075+006001999GA2045+060001999MA1101081999999REMMET064METAR GMTT 061100Z 17006KT 8000 BKN020 SCT200 16/11 Q1011 NOSIG;EQDQ01+000042SCOTCV
0142601010999992010010611304+35733-005900FM-15+0021GMTT V0201901N00411006001CN0080001N1+01601+01201999999ADDGA1075+006001999GA2045+060001999MA1101021999999REMMET064METAR GMTT 061130Z 19008KT 8000 BKN020 SCT200 16/12 Q1010 NOSIG;EQDQ01+000042SCOTCV
0264601010999992010010612004+35733-005900SY-MT+0021GMTT V0202301N00361006001CN0080001N1+01611+01081101031ADDGA1075+006001999GA2045+060001999GF199999051021008001001021MA1101021999999MD1810101+9999REMSYN076AAXX  06124 60101 32558 62307 10161 20108 40103 58010 85202 333 85820 84070;MET064METAR GMTT 061200Z 23007KT 8000 BKN020 SCT200 16/11 Q1010 NOSIG;EQDQ01+000062SCOTCV
0142601010999992010010612304+35733-005900FM-15+0021GMTT V0202401N00771006001CN0080001N1+01701+01001999999ADDGA1075+006001999GA2045+060001999MA1100911999999REMMET064METAR GMTT 061230Z 24015KT 8000 BKN020 SCT200 17/10 Q1009 NOSIG;EQDQ01+000042SCOTCV
0149601010999992010010613004+35733-005900FM-15+0021GMTT V0202101N00621006001CN0080001N1+01701+01301999999ADDGA1045+003901999GA2075+006001999GF107991999999999999999999MA1100911999999REMMET064METAR GMTT 061300Z 21012KT 8000 SCT013 BKN020 17/13 Q1009 NOSIG;
0149601010999992010010613304+35733-005900FM-15+0021GMTT V0202101N00621006001CN0080001N1+01601+01201999999ADDGA1045+003901999GA2075+006001999GF107991999999999999999999MA1100811999999REMMET064METAR GMTT 061330Z 21012KT 8000 SCT013 BKN020 16/12 Q1008 NOSIG;
0149601010999992010010614004+35733-005900FM-15+0021GMTT V0202001N00621006001CN0080001N1+01601+01201999999ADDGA1045+003901999GA2075+006001999GF107991999999999999999999MA1100811999999REMMET064METAR GMTT 061400Z 20012KT 8000 SCT013 BKN020 16/12 Q1008 NOSIG;
0155601010999992010010614304+35733-005900FM-15+0021GMTT V0202001N00671006001CN0080001N1+01501+01101999999ADDGA1045+003901021GA2075+006001999GF107991999999999999999999MA1100711999999REMMET070METAR GMTT 061430Z 20013KT 8000 SCT013TCU BKN020 15/11 Q1007 TEMPO RA;
0251601010999992010010615004+35733-005900SY-MT+0021GMTT V0201901N00461006001CN0080001N1+01541+01181100771ADDGA1045+003901021GA2075+006001999GF107991071081004501999999MA1100711999999MD1610261+9999REMSYN076AAXX  06154 60101 32458 71909 10154 20118 40077 56026 878// 333 83813 85620;MET070METAR GMTT 061500Z 19010KT 8000 SCT013TCU BKN020 15/12 Q1007 TEMPO RA;
0184601010999992010010615304+35733-005900FM-15+0021GMTT V0202101N00621006001CN0080001N1+01501+01201999999ADDGA1045+003901021GA2075+006001999GA3025+006901095MA1100711999999MW1631REMMET084METAR GMTT 061530Z 21012KT 8000 RA SCT013TCU BKN020 FEW023CB 15/12 Q1007 TEMPO SHRA;EQDQ01+000022SCOTCV
0168601010999992010010616004+35733-005900FM-15+0021GMTT V0202001N00571999999CN0080001N1+01601+01201999999ADDGA1045+003001999GA2045+006001999GF104991999999999999999999MA1100711999999REMMET064METAR GMTT 061600Z 20011KT 8000 SCT010 SCT020 16/12 Q1007 NOSIG;EQDP01 006003SCOCIG
0149601010999992010010616304+35733-005900FM-15+0021GMTT V0202001N00621030001CN0080001N1+01601+01201999999ADDGA1045+006001999GA2075+030001999GF107991999999999999999999MA1100711999999REMMET064METAR GMTT 061630Z 20012KT 8000 SCT020 BKN100 16/12 Q1007 NOSIG;
0149601010999992010010617004+35733-005900FM-15+0021GMTT V0202001N00571030001CN0080001N1+01601+01201999999ADDGA1045+006001999GA2075+030001999GF107991999999999999999999MA1100611999999REMMET064METAR GMTT 061700Z 20011KT 8000 SCT020 BKN100 16/12 Q1006 NOSIG;
0149601010999992010010617304+35733-005900FM-15+0021GMTT V0202201N00621030001CN0080001N1+01601+01101999999ADDGA1045+006001999GA2075+030001999GF107991999999999999999999MA1100611999999REMMET064METAR GMTT 061730Z 22012KT 8000 SCT020 BKN100 16/11 Q1006 NOSIG;
0309601010999992010010618004+35733-005900SY-MT+0021GMTT V0202201N00621006001CN0080001N1+01601+01031100641ADDAA112000021AY161061AY221061GA1045+003901999GA2075+006001999GF107991071081004501999999KA1120M+01731MA1100611999999MD1610131+9999MW1031REMSYN094AAXX  06184 60101 11458 72212 10160 20103 40064 56013 69902 70362 878// 333 10173 84813 87620;MET064METAR GMTT 061800Z 22011KT 8000 SCT013 BKN020 16/10 Q1006 NOSIG;
0149601010999992010010618304+35733-005900FM-15+0021GMTT V0201901N00361006001CN0080001N1+01501+01101999999ADDGA1045+003901999GA2075+006001999GF107991999999999999999999MA1100511999999REMMET064METAR GMTT 061830Z 19007KT 8000 SCT013 BKN020 15/11 Q1005 NOSIG;
0149601010999992010010619004+35733-005900FM-15+0021GMTT V0201801N00411006001CN0080001N1+01501+01201999999ADDGA1045+003901999GA2075+006001999GF107991999999999999999999MA1100511999999REMMET064METAR GMTT 061900Z 18008KT 8000 SCT013 BKN020 15/12 Q1005 NOSIG;
0171601010999992010010619304+35733-005900FM-15+0021GMTT V0202101N00411006001CN0050001N1+01401+01201999999ADDGA1045+003901999GA2075+006001999GF107991999999999999999999MA1100511999999MW1631REMMET080METAR GMTT 061930Z 21008KT 180V240 5000 RA SCT013 BKN020 14/12 Q1005 TEMPO SHRA;
0177601010999992010010619504+35733-005900FM-15+0021GMTT V0201901N00571006001CN0050001N1+01401+01201999999ADDGA1045+003901021GA2075+006001999GF107991999999999999999999MA1100411999999MW1631REMMET086METAR GMTT 061950Z 19011KT 160V230 5000 RA SCT013TCU BKN020 14/12 Q1004 TEMPO SHRA B2;
0182601010999992010010620004+35733-005900FM-15+0021GMTT V0201901N00361006001CN0050001N1+01401+01201999999ADDGA1045+003901999GA2075+006001999GF107991999999999999999999MA1100411999999MW1631OC100871REMMET083METAR GMTT 062000Z 19007G17KT 160V230 5000 RA SCT013 BKN020 14/12 Q1004 TEMPO SHRA;
0184601010999992010010620304+35733-005900FM-15+0021GMTT V0202001N00621006001CN0050001N1+01401+01201999999ADDGA1045+003901021GA2075+006001999GA3025+006901095MA1100411999999MW1631REMMET084METAR GMTT 062030Z 20012KT 5000 RA SCT013TCU BKN020 FEW023CB 14/12 Q1004 TEMPO SHRA;EQDQ01+000022SCOTCV
0200601010999992010010620354+35733-005900FM-15+0021GMTT V0202101N00571006001CN0050001N1+01401+01201999999ADDGA1045+003901021GA2075+006001999GA3025+006901095MA1100411999999MW1811MW2951REMMET094METAR GMTT 062035Z 21011KT 180V240 5000 TSRA SCT013TCU BKN020 FEW023CB 14/12 Q1004 TEMPO SHRA;EQDQ01+000022SCOTCV
0214601010999992010010620504+35733-005900FM-15+0021GMTT V0202101N00671006001CN0030001N1+01301+01201999999ADDGA1045+003901021GA2075+006001999GA3025+006901095MA1100511999999MW1811MW2951OC101341REMMET100METAR GMTT 062050Z 21013G26KT 120V250 3000 TSRA SCT013TCU BKN020 FEW023CB 13/12 Q1005 TEMPO SHRA M2;EQDQ01+000022SCOTCV
0331601010999992010010621004+35733-005900SY-MT+0021GMTT V0202201N00621006001CN0030001N1+01351+01211100471ADDAY161031AY281031GA1045+003901021GA2075+006001999GA3025+006901095GF108991081091004501999999MA1100411999999MD1810151+9999MW1811MW2951REMSYN088AAXX  06214 60101 41430 82212 10135 20121 40047 58015 79568 889// 333 84813 87620 81923;MET094METAR GMTT 062100Z 23012KT 160V270 3000 TSRA SCT013TCU BKN020 FEW023CB 14/12 Q1004 TEMPO SHRA;
0195601010999992010010621304+35733-005900FM-15+0021GMTT V0202101N00151004801CN0030001N1+01301+01301999999ADDGA1045+002401999GA2075+004801025GA3045+006901095MA1100411999999MW1811MW2951REMMET089METAR GMTT 062130Z 21003KT 160V270 3000 TSRA SCT008 BKN016TCU SCT023CB 13/13 Q1004 NOSIG;EQDQ01+000042SCOTCV
0188601010999992010010622004+35733-005900FM-15+0021GMTT V0201801N00621004801CN0040001N1+01301+01201999999ADDGA1045+002401999GA2075+004801025GA3025+006901095MA1100411999999MW1801MW2951REMMET082METAR GMTT 062200Z 18012KT 4000 -TSRA SCT008 BKN016TCU FEW023CB 13/12 Q1004 NOSIG;EQDQ01+000022SCOTCV
0196601010999992010010622304+35733-005900FM-15+0021GMTT V0201901N00361004801CN0030001N1+01301+01201999999ADDGA1045+002401999GA2075+004801025GA3025+006901095MA1100311999999MW1801MW2951REMMET090METAR GMTT 062230Z 19007KT 150V220 3000 -TSRA SCT008 BKN016TCU FEW023CB 13/12 Q1003 NOSIG;EQDQ01+000022SCOTCV
0188601010999992010010623004+35733-005900FM-15+0021GMTT V0201801N00721004801CN0030001N1+01301+01201999999ADDGA1045+002401999GA2075+004801025GA3025+006901095MA1100201999999MW1801MW2951REMMET082METAR GMTT 062300Z 18014KT 3000 -TSRA SCT008 BKN016TCU FEW023CB 13/12 Q1002 NOSIG;EQDQ01+000022SCOTCV
0188601010999992010010623304+35733-005900FM-15+0021GMTT V0201701N00511004801CN0030001N1+01301+01201999999ADDGA1045+002401999GA2075+004801025GA3025+006901095MA1100101999999MW1801MW2951REMMET082METAR GMTT 062330Z 17010KT 3000 -TSRA SCT008 BKN016TCU FEW023CB 13/12 Q1001 NOSIG;EQDQ01+000022SCOTCV
0379601010999992010010700004+35733-005900SY-MT+0021GMTT V0201801N00621004801CN0050001N1+01371+01261100061ADDAA106033091AY191061AY281061GA1025+002401999GA2075+004801999GA3025+006901095GF199999061091002501001001MA1100001999999MD1810421+9999MW1171REMSYN094AAXX  07004 60101 11350 61812 10137 20126 40006 58042 60331 71798 86900 333 82808 85816 82923;MET112METAR GMTT 070000Z 18012KT 5000 TS FEW008 BKN016 FEW023CB 14/13 Q1000 RERA TEMPO 22018G34KT 1000 +TSRA SCT023CB;EQDQ01+000062SCOTCV
0216601010999992010010700304+35733-005900FM-15+0021GMTT V0201801N00671004801CN0030001N1+01401+01301999999ADDGA1025+002401999GA2075+004801999GA3025+006901095MA1100001999999MW1801MW2951REMMET110METAR GMTT 070030Z 18013KT 3000 -TSRA FEW008 BKN016 FEW023CB 14/13 Q1000 TEMPO 22018G34KT 1000 +TSRA SCT023CB;EQDQ01+000022SCOTCV
0193601010999992010010702004+35733-005900FM-15+0021GMTT V0202201N00571004801CN0030001N1+01401+01201999999ADDGA1045+002401999GA2075+004801999GA3045+006901095MA1099801999999MW1801MW2951REMMET087METAR GMTT 070200Z 22011KT 180V250 3000 -TSRA SCT008 BKN016 SCT023CB 14/12 Q0998 NOSIG;EQDQ01+000042SCOTCV
0193601010999992010010702304+35733-005900FM-15+0021GMTT V0202201N00411004801CN0030001N1+01301+01201999999ADDGA1045+002401999GA2075+004801999GA3045+006901095MA1099701999999MW1801MW2951REMMET087METAR GMTT 070230Z 22008KT 180V240 3000 -TSRA SCT008 BKN016 SCT023CB 13/12 Q0997 NOSIG;EQDQ01+000042SCOTCV
0172601010999992010010702504+35733-005900FM-15+0021GMTT V0201501N00311004801CN0050001N1+01301+01201999999ADDGA1045+002401999GA2075+004801999GF107991999999999999999999MA1099701999999MW1611REMMET081METAR GMTT 070250Z 15006KT 110V220 5000 -RA SCT008 BKN016 13/12 Q0997 RETS NOSIG;
0290601010999992010010703004+35733-005900SY-MT+0021GMTT V0201501N00311004801CN0050001N1+01331+01241099741ADDAY191031AY281031GA1045+002401999GA2075+004801999GF107991071081002501999999MA1099701999999MD1810321+9999MW1611REMSYN082AAXX  07034 60101 41350 71506 10133 20124 49974 58032 76198 878// 333 84808 86816;MET081METAR GMTT 070300Z 15006KT 110V220 5000 -RA SCT008 BKN016 13/12 Q0997 RETS NOSIG;
0154601010999992010010703304+35733-005900FM-15+0021GMTT V0201801N00621004801CN0060001N1+01401+01301999999ADDGA1045+002401999GA2075+004801999GF107991999999999999999999MA1099491999999REMMET069METAR GMTT 070330Z 18012KT 6000 SCT008 BKN016 14/13 Q0995 RERA NOSIG;
0186601010999992010010703434+35733-005900FM-15+0021GMTT V0201801N00721004801CN0030001N1+01501+01301999999ADDGA1045+002401999GA2075+004801999GA3045+006901025MA1099491999999MW1801MW2951REMMET080METAR GMTT 070343Z 18014KT 3000 -TSRA SCT008 BKN016 SCT023TCU 15/13 Q0995 NOSIG;EQDQ01+000042SCOTCV
0193601010999992010010704004+35733-005900FM-15+0021GMTT V0201901N00621004801CN0030001N1+01501+01301999999ADDGA1045+002401999GA2075+004801999GA3045+006901095MA1099391999999MW1801MW2951REMMET087METAR GMTT 070400Z 19012KT 140V300 3000 -TSRA SCT008 BKN016 SCT023CB 15/13 Q0994 NOSIG;EQDQ01+000042SCOTCV
0192601010999992010010704154+35733-005900FM-15+0021GMTT V0202201N01231004801CN0030001N1+01601+01301999999ADDGA1045+002401999GA2075+004801999GA3045+006901095MA1099391999999MW1171OC101801REMMET084METAR GMTT 070415Z 22024G35KT 3000 TS SCT008 BKN016 SCT023CB 16/13 Q0994 RERA NOSIG;EQDQ01+000042SCOTCV
0184601010999992010010704304+35733-005900FM-15+0021GMTT V0202201N01341004801CN0050001N1+01601+01301999999ADDGA1045+002401999GA2075+004801999GA3045+006901095MA1099391999999MW1171REMMET084METAR GMTT 070430Z 22026KT 200V260 5000 TS SCT008 BKN016 SCT023CB 16/13 Q0994 NOSIG;EQDQ01+000042SCOTCV
0187601010999992010010705004+35733-005900FM-15+0021GMTT V0202301N01341004801CN0050001N1+01601+01201999999ADDGA1045+002401999GA2075+004801999GA3045+006901095MA1099391999999MW1171OC102011REMMET079METAR GMTT 070500Z 23026G39KT 5000 TS SCT008 BKN016 SCT023CB 16/12 Q0994 NOSIG;EQDQ01+000042SCOTCV
0177601010999992010010705224+35733-005900FM-15+0021GMTT V0202501N01181004801CN0050001N1+01601+01301999999ADDGA1025+003001999GA2075+004801999GA3075+024001999GF107991999999999999999999MA1099391999999REMMET076METAR GMTT 070522Z 25023KT 5000 FEW010 BKN016 BKN080 16/13 Q0994 RETS NOSIG;
0177601010999992010010705304+35733-005900FM-15+0021GMTT V0202501N01181004801CN0050001N1+01601+01301999999ADDGA1025+003001999GA2075+004801999GA3075+024001999GF107991999999999999999999MA1099391999999REMMET076METAR GMTT 070530Z 25023KT 5000 FEW010 BKN016 BKN080 16/13 Q0994 RETS NOSIG;
0354601010999992010010706004+35733-005900SY-MT+0021GMTT V0202501N01291004801CN0060001N1+01581+01221099491ADDAA124057991AY191061AY281061GA1025+003001999GA2075+004801999GA3075+024001999GF107991051081004501071999KA1999N+01291MA1099391999999MD1510251+9999MW1171OC101851REMSYN100AAXX  07064 60101 11456 72525 10158 20122 49949 55025 60584 71798 8587/ 333 20129 82810 85816 85358;MET079METAR GMTT 070600Z 25025G36KT 6000 FEW010 BKN016 BKN080 16/12 Q0994 RETS NOSIG;
0172601010999992010010706304+35733-005900FM-15+0021GMTT V0202801N01231004801CN0060001N1+01401+01101999999ADDGA1025+003001999GA2075+004801999GA3075+024001999GF107991999999999999999999MA1099491999999REMMET071METAR GMTT 070630Z 28024KT 6000 FEW010 BKN016 BKN080 14/11 Q0995 NOSIG;
0172601010999992010010707004+35733-005900FM-15+0021GMTT V0202901N00981004801CN0060001N1+01401+01101999999ADDGA1025+003001999GA2075+004801999GA3075+024001999GF107991999999999999999999MA1099591999999REMMET071METAR GMTT 070700Z 29019KT 6000 FEW010 BKN016 BKN080 14/11 Q0996 NOSIG;
0177601010999992010010707304+35733-005900FM-15+0021GMTT V0202801N01031004801CN0080001N1+01401+01001999999ADDGA1025+003001999GA2075+004801999GA3075+024001999GF107991999999999999999999MA1099591999999REMMET076METAR GMTT 070730Z 28020KT 8000 FEW010 BKN016 BKN080 14/10 Q0996 RERA NOSIG;
0177601010999992010010708004+35733-005900FM-15+0021GMTT V0202801N01031004801CN0080001N1+01401+01001999999ADDGA1045+003001999GA2075+004801999GA3075+024001999GF107991999999999999999999MA1099591999999REMMET076METAR GMTT 070800Z 28020KT 8000 SCT010 BKN016 BKN080 14/10 Q0996 RERA NOSIG;
0157601010999992010010708304+35733-005900FM-15+0021GMTT V0203001N01081003901CN0080001N1+01401+01101999999ADDGA1075+003901021GA2075+004801999GF107991999999999999999999MA1099591999999REMMET072METAR GMTT 070830Z 30021KT 8000 BKN013TCU BKN016 14/11 Q0996 TEMPO SHRA;
0292601010999992010010709004+35733-005900SY-MT+0021GMTT V0203201N00931003901CN0080001N1+01391+01091099741ADDAY161031AY221031GA1075+003901021GA2075+004801999GF107991071081004501999999MA1099701999999MD1110211+9999MW1031OC101541REMSYN082AAXX  07094 60101 31458 73218 10139 20109 49974 51021 70362 878// 333 85813 87616;MET075METAR GMTT 070900Z 32018G30KT 8000 BKN013TCU BKN016 14/11 Q0997 TEMPO SHRA;
0176601010999992010010709304+35733-005900FM-15+0021GMTT V0203101N01031003901CN0080001N1+01401+01001999999ADDGA1075+003901021GA2075+004801999GF107991999999999999999999MA1099801999999OC101541REMMET083METAR GMTT 070930Z 31020G30KT 280V340 8000 BKN013TCU BKN016 14/10 Q0998 TEMPO SHRA;
0157601010999992010010710004+35733-005900FM-15+0021GMTT V0203101N00981003901CN0080001N1+01401+00901999999ADDGA1075+003901021GA2075+004801999GF107991999999999999999999MA1099901999999REMMET072METAR GMTT 071000Z 31019KT 8000 BKN013TCU BKN016 14/09 Q0999 TEMPO SHRA;
0157601010999992010010710304+35733-005900FM-15+0021GMTT V0203101N00871003901CN0080001N1+01401+00901999999ADDGA1075+003901021GA2075+004801999GF107991999999999999999999MA1099901999999REMMET072METAR GMTT 071030Z 31017KT 8000 BKN013TCU BKN016 14/09 Q0999 TEMPO SHRA;
0157601010999992010010711004+35733-005900FM-15+0021GMTT V0203201N00931003901CN0080001N1+01401+01001999999ADDGA1075+003901021GA2075+004801999GF107991999999999999999999MA1100001999999REMMET072METAR GMTT 071100Z 32018KT 8000 BKN013TCU BKN016 14/10 Q1000 TEMPO SHRA;
0166601010999992010010711304+35733-005900FM-15+0021GMTT V0203201N00821003901CN0050001N1+01401+01001999999ADDGA1075+003901021GA2075+004801999GF107991999999999999999999MA1100001999999MW1631REMMET075METAR GMTT 071130Z 32016KT 5000 RA BKN013TCU BKN016 14/10 Q1000 TEMPO SHRA;
0298601010999992010010712004+35733-005900SY-MT+0021GMTT V0203101N00981003901CN0080001N1+01431+01011100051ADDAA106000591AY121061AY261061GA1075+003901021GA2075+004801999GF107991071081004501999999MA1100001999999MD1110271+9999MW1211REMSYN088AAXX  07124 60101 11458 73119 10143 20101 40005 51027 69941 72126 878// 333 85813 87616;MET072METAR GMTT 071200Z 31018KT 8000 BKN013TCU BKN016 14/09 Q1000 TEMPO SHRA;
0157601010999992010010712304+35733-005900FM-15+0021GMTT V0203101N00871004801CN0080001N1+01401+00901999999ADDGA1045+003901021GA2075+004801999GF107991999999999999999999MA1100001999999REMMET072METAR GMTT 071230Z 31017KT 8000 SCT013TCU BKN016 14/09 Q1000 TEMPO SHRA;
0157601010999992010010713004+35733-005900FM-15+0021GMTT V0203001N01031004801CN0080001N1+01401+00801999999ADDGA1045+003901021GA2075+004801999GF107991999999999999999999MA1100001999999REMMET072METAR GMTT 071300Z 30020KT 8000 SCT013TCU BKN016 14/08 Q1000 TEMPO SHRA;
0154601010999992010010714004+35733-005900FM-15+0021GMTT V0203101N00931030001CN0080001N1+01301+00801999999ADDGA1045+003901999GA2075+030001999GF107991999999999999999999MA1100001999999REMMET069METAR GMTT 071400Z 31018KT 8000 SCT013 BKN100 13/08 Q1000 TEMPO SHRA;
0149601010999992010010714304+35733-005900FM-15+0021GMTT V0203001N01031004801CN0080001N1+01401+00801999999ADDGA1025+003901999GA2075+004801999GF107991999999999999999999MA1100001999999REMMET064METAR GMTT 071430Z 30020KT 8000 FEW013 BKN016 14/08 Q1000 NOSIG;
0264601010999992010010715004+35733-005900SY-MT+0021GMTT V0203001N01031004801CN0100001N1+01341+00741100081ADDGA1025+003901999GA2075+004801999GF199999061081004501001001MA1100001999999MD1310031+9999REMSYN076AAXX  07154 60101 32460 63020 10134 20074 40008 53003 86800 333 82813 86816;MET064METAR GMTT 071500Z 30020KT 9999 FEW013 BKN016 13/07 Q1000 NOSIG;EQDQ01+000062SCOTCV
0149601010999992010010715304+35733-005900FM-15+0021GMTT V0203001N00981004801CN0112651N1+01401+00701999999ADDGA1025+003901999GA2075+004801999GF107991999999999999999999MA1100101999999REMMET064METAR GMTT 071530Z 30019KT 9999 FEW013 BKN016 14/07 Q1001 NOSIG;
0149601010999992010010716004+35733-005900FM-15+0021GMTT V0203101N01081004801CN0112651N1+01301+00601999999ADDGA1025+003901999GA2075+004801999GF107991999999999999999999MA1100101999999REMMET064METAR GMTT 071600Z 31021KT 9999 FEW013 BKN016 13/06 Q1001 NOSIG;
0149601010999992010010716304+35733-005900FM-15+0021GMTT V0203001N00871004801CN0112651N1+01301+00501999999ADDGA1025+003901999GA2075+004801999GF107991999999999999999999MA1100201999999REMMET064METAR GMTT 071630Z 30017KT 9999 FEW013 BKN016 13/05 Q1002 NOSIG;
0157601010999992010010717004+35733-005900FM-15+0021GMTT V0203101N00981004801CN0112651N1+01301+00401999999ADDGA1025+003901999GA2075+004801999GF107991999999999999999999MA1100201999999REMMET072METAR GMTT 071700Z 31019KT 280V340 9999 FEW013 BKN016 13/04 Q1002 NOSIG;
0309601010999992010010718004+35733-005900SY-MT+0021GMTT V0203101N00931004801CN0100001N1+01281+00401100291ADDAA112000591AY161061AY221061GA1045+003901999GA2075+004801999GF107991071081004501999999KA1120M+01471MA1100201999999MD1310211+9999MW1031REMSYN094AAXX  07184 60101 11460 73118 10128 20040 40029 53021 69942 70362 878// 333 10147 83813 87816;MET064METAR GMTT 071800Z 31018KT 9999 SCT013 BKN016 13/04 Q1002 NOSIG;
0149601010999992010010718304+35733-005900FM-15+0021GMTT V0203101N00871004801CN0112651N1+01301+00401999999ADDGA1045+003901999GA2075+004801999GF107991999999999999999999MA1100311999999REMMET064METAR GMTT 071830Z 31017KT 9999 SCT013 BKN016 13/04 Q1003 NOSIG;
0160601010999992010010719004+35733-005900FM-15+0021GMTT V0203101N00981004801CN0112651N1+01301+00301999999ADDGA1045+003901999GA2075+004801999GF107991999999999999999999MA1100311999999OC101541REMMET067METAR GMTT 071900Z 31019G30KT 9999 SCT013 BKN016 13/03 Q1003 NOSIG;
0157601010999992010010719304+35733-005900FM-15+0021GMTT V0203201N00931004801CN0080001N1+01201+00301999999ADDGA1045+003901999GA2075+004801999GF107991999999999999999999MA1100311999999REMMET072METAR GMTT 071930Z 32018KT 290V350 8000 SCT013 BKN016 12/03 Q1003 NOSIG;
0149601010999992010010720004+35733-005900FM-15+0021GMTT V0203201N00931004801CN0080001N1+01201+00301999999ADDGA1045+003901999GA2075+004801999GF107991999999999999999999MA1100411999999REMMET064METAR GMTT 072000Z 32018KT 8000 SCT013 BKN016 12/03 Q1004 NOSIG;
0149601010999992010010720304+35733-005900FM-15+0021GMTT V0203201N00821004801CN0080001N1+01201+00301999999ADDGA1025+003901999GA2075+004801999GF107991999999999999999999MA1100411999999REMMET064METAR GMTT 072030Z 32016KT 8000 FEW013 BKN016 12/03 Q1004 NOSIG;
0245601010999992010010721004+35733-005900SY-MT+0021GMTT V0203201N00821004801CN0080001N1+01171+00371100551ADDGA1025+003901999GA2075+004801999GF199999061081004501001001MA1100511999999MD1310261+9999REMSYN076AAXX  07214 60101 32458 63216 10117 20037 40055 53026 86800 333 82813 86816;MET064METAR GMTT 072100Z 32017KT 8000 FEW013 BKN016 12/03 Q1005 NOSIG;
0149601010999992010010721304+35733-005900FM-15+0021GMTT V0203301N00931004801CN0080001N1+01101+00301999999ADDGA1025+003901999GA2075+004801999GF107991999999999999999999MA1100511999999REMMET064METAR GMTT 072130Z 33018KT 8000 FEW013 BKN016 11/03 Q1005 NOSIG;
0149601010999992010010722004+35733-005900FM-15+0021GMTT V0203301N00981004801CN0080001N1+01101+00401999999ADDGA1025+003901999GA2075+004801999GF107991999999999999999999MA1100611999999REMMET064METAR GMTT 072200Z 33019KT 8000 FEW013 BKN016 11/04 Q1006 NOSIG;
0157601010999992010010722304+35733-005900FM-15+0021GMTT V0203301N00981004801CN0080001N1+01101+00301999999ADDGA1025+003901999GA2075+004801999GF107991999999999999999999MA1100611999999REMMET072METAR GMTT 072230Z 33019KT 300V360 8000 FEW013 BKN016 11/03 Q1006 NOSIG;
0160601010999992010010723004+35733-005900FM-15+0021GMTT V0203301N00931004801CN0080001N1+01101+00201999999ADDGA1025+003901999GA2075+004801999GF107991999999999999999999MA1100711999999OC101441REMMET067METAR GMTT 072300Z 33018G28KT 8000 FEW013 BKN016 11/02 Q1007 NOSIG;
0149601010999992010010723304+35733-005900FM-15+0021GMTT V0203301N00931004801CN0080001N1+01101+00201999999ADDGA1025+003901999GA2075+004801999GF107991999999999999999999MA1100711999999REMMET064METAR GMTT 072330Z 33018KT 8000 FEW013 BKN016 11/02 Q1007 NOSIG;
0266601010999992010010800004+35733-005900SY-MT+0021GMTT V0203201N00871004801CN0080001N1+01071+00021100781ADDGA1025+003901999GA2075+004801999GF199999061021004501001001MA1100711999999MD1110221+9999REMSYN070AAXX  08004 60101 32458 63217 10107 20002 40078 51022 86200 333 86816;MET072METAR GMTT 080000Z 32017KT 280V340 8000 FEW013 BKN016 11/01 Q1007 NOSIG;EQDQ01+000062SCOTCV
0137601010999992010010800304+35733-005900FM-15+0021GMTT V0203201N01031004801CN0080001N1+01101+00101999999ADDGA1075+004801999GF107991999999999999999999MA1100811999999OC101591REMMET060METAR GMTT 080030Z 32020G31KT 8000 BKN016 11/01 Q1008 NOSIG;
0145601010999992010010801004+35733-005900FM-15+0021GMTT V0203201N00821004801CN0080001N1+01001+00101999999ADDGA1075+004801999GF107991999999999999999999MA1100811999999OC101391REMMET068METAR GMTT 080100Z 32016G27KT 290V350 8000 BKN016 10/01 Q1008 NOSIG;
0127601010999992010010801304+35733-005900FM-15+0021GMTT V0203201N00871004801CN0050001N1+01001+00001999999ADDGA1075+004801999GF107991999999999999999999MA1100811999999REMMET058METAR GMTT 080130Z 32017KT 5000 BKN016 10/M00 Q1008 NOSIG;
0126601010999992010010802004+35733-005900FM-15+0021GMTT V0203301N00871004801CN0050001N1+01101+00101999999ADDGA1075+004801999GF107991999999999999999999MA1100811999999REMMET057METAR GMTT 080200Z 33017KT 5000 BKN016 11/01 Q1008 NOSIG;
0094601010999992010010802304+35733-005900AUTO +0021GMTT V0203201N008712200019N0050001N1+01001+00001999999ADDMA1100911999999OC101391REMMET059METAR GMTT 080230Z AUTO 32017G27KT 5000NDV /// 10/00 Q1009;
0157601010999992010010803004+35733-005900SY-MT+0021GMTT V0203301N007719999999N0050001N1+01011+00151100941ADDMA1100911999999MD1210151+9999REMSYN054AAXX  08034 60101 46950 /3315 10101 20015 40094 52015;MET056METAR GMTT 080300Z AUTO 33015KT 5000NDV /// 10/02 Q1009;
0091601010999992010010803304+35733-005900AUTO +0021GMTT V0203301N007212200019N0050001N1+01001+00101999999ADDMA1100911999999REMMET064METAR GMTT 080330Z AUTO 33014KT 300V360 5000NDV /// 10/01 Q1009;
0084601010999992010010804004+35733-005900AUTO +0021GMTT V0203201N008212200019N0050001N1+01001+00001999999ADDMA1100911999999REMMET057METAR GMTT 080400Z AUTO 32016KT 5000NDV /// 10/M00 Q1009;
0126601010999992010010804304+35733-005900FM-15+0021GMTT V0203201N00821004801CN0080001N1+01001+00101999999ADDGA1075+004801999GF107991999999999999999999MA1100911999999REMMET057METAR GMTT 080430Z 32016KT 8000 BKN016 10/01 Q1009 NOSIG;
0134601010999992010010805004+35733-005900FM-15+0021GMTT V0203201N00771004801CN0080001N1+01001+00201999999ADDGA1075+004801999GF107991999999999999999999MA1101021999999REMMET065METAR GMTT 080500Z 32015KT 290V350 8000 BKN016 10/02 Q1010 NOSIG;
0134601010999992010010805304+35733-005900FM-15+0021GMTT V0203201N00721004801CN0080001N1+01001+00201999999ADDGA1075+004801999GF107991999999999999999999MA1101021999999REMMET065METAR GMTT 080530Z 32014KT 290V350 8000 BKN016 10/02 Q1010 NOSIG;
0272601010999992010010806004+35733-005900SY-MT+0021GMTT V0203201N00821004801CN0080001N1+00981+00041101081ADDAA124000591GA1075+004801999GF199999061021004501001001KA1999N+00981MA1101021999999MD1310121+9999REMSYN082AAXX  08064 60101 12458 63216 10098 20004 40108 53012 69944 86200 333 20098 86816;MET058METAR GMTT 080600Z 32015KT 8000 BKN016 10/M01 Q1010 NOSIG;EQDQ01+000062SCOTCV
0126601010999992010010806304+35733-005900FM-15+0021GMTT V0203201N00771004801CN0080001N1+01001+00001999999ADDGA1075+004801999GF107991999999999999999999MA1101081999999REMMET057METAR GMTT 080630Z 32015KT 8000 BKN016 10/00 Q1011 NOSIG;
0134601010999992010010807004+35733-005900FM-15+0021GMTT V0203201N00571004801CN0080001N1+00901+00101999999ADDGA1075+004801999GF107991999999999999999999MA1101081999999REMMET065METAR GMTT 080700Z 32011KT 290V350 8000 BKN016 09/01 Q1011 NOSIG;
0126601010999992010010807304+35733-005900FM-15+0021GMTT V0203201N00721004801CN0080001N1+01001+00101999999ADDGA1075+004801999GF107991999999999999999999MA1101081999999REMMET057METAR GMTT 080730Z 32014KT 8000 BKN016 10/01 Q1011 NOSIG;
0126601010999992010010808004+35733-005900FM-15+0021GMTT V0203201N00771004801CN0080001N1+01001+00201999999ADDGA1075+004801999GF107991999999999999999999MA1101191999999REMMET057METAR GMTT 080800Z 32015KT 8000 BKN016 10/02 Q1012 NOSIG;
0149601010999992010010808304+35733-005900FM-15+0021GMTT V0203301N00671004801CN0080001N1+00901+00201999999ADDGA1025+003901999GA2075+004801999GF107991999999999999999999MA1101191999999REMMET064METAR GMTT 080830Z 33013KT 8000 FEW013 BKN016 09/02 Q1012 NOSIG;
0264601010999992010010809004+35733-005900SY-MT+0021GMTT V0203301N00771004801CN0100001N1+00951+00211101311ADDGA1025+003901999GA2075+004801999GF199999061081004501001001MA1101191999999MD1310231+9999REMSYN076AAXX  08094 60101 32460 63315 10095 20021 40131 53023 86800 333 82813 86816;MET064METAR GMTT 080900Z 33015KT 9999 FEW013 BKN016 10/02 Q1012 NOSIG;EQDQ01+000062SCOTCV
0149601010999992010010809304+35733-005900FM-15+0021GMTT V0203301N00821004801CN0112651N1+01001+00101999999ADDGA1025+003901999GA2075+004801999GF107991999999999999999999MA1101291999999REMMET064METAR GMTT 080930Z 33016KT 9999 FEW013 BKN016 10/01 Q1013 NOSIG;
0157601010999992010010810004+35733-005900FM-15+0021GMTT V0203201N00871004801CN0112651N1+01001+00101999999ADDGA1025+003901999GA2075+004801999GF107991999999999999999999MA1101391999999REMMET072METAR GMTT 081000Z 32017KT 290V350 9999 FEW013 BKN016 10/01 Q1014 NOSIG;
0149601010999992010010810304+35733-005900FM-15+0021GMTT V0203301N00871004801CN0112651N1+01001+00101999999ADDGA1025+003901999GA2075+004801999GF107991999999999999999999MA1101391999999REMMET064METAR GMTT 081030Z 33017KT 9999 FEW013 BKN016 10/01 Q1014 NOSIG;
0126601010999992010010811004+35733-005900FM-15+0021GMTT V0203401N00771004801CN0112651N1+01001+00101999999ADDGA1075+004801999GF107991999999999999999999MA1101491999999REMMET057METAR GMTT 081100Z 34015KT 9999 BKN016 10/01 Q1015 NOSIG;
0126601010999992010010811304+35733-005900FM-15+0021GMTT V0203301N00671004801CN0112651N1+01001+00201999999ADDGA1075+004801999GF107991999999999999999999MA1101491999999REMMET057METAR GMTT 081130Z 33013KT 9999 BKN016 10/02 Q1015 NOSIG;
