0216601010999992012010100004+35733-005900SY-MT+0021GMTT V0200801N000512200019N0060001N1+00531+00431103121ADDGA1021+004801999GF102991021051004501001001MA1103121999999MD1610071+9999REMSYN070AAXX  01004 60101 32456 20801 10053 20043 40312 56007 82500 333 82616;MET057METAR GMTT 010000Z VRB01KT 6000 FEW016 05/04 Q1031 NOSIG;
0126601010999992012010100304+35733-005900FM-15+0021GMTT V0200401N001512200019N0060001N1+00601+00501999999ADDGA1021+004801999GF102991999999999999999999MA1103121999999REMMET057METAR GMTT 010030Z 04003KT 6000 FEW016 06/05 Q1031 NOSIG;
0126601010999992012010101004+35733-005900FM-15+0021GMTT V0209999V000512200019N0060001N1+00501+00401999999ADDGA1021+004801999GF102991999999999999999999MA1103011999999REMMET057METAR GMTT 010100Z VRB01KT 6000 FEW016 05/04 Q1030 NOSIG;
0153601010999992012010101304+35733-005900FM-15+0021GMTT V0200501N001012200019N0112651N1+00601+00501999999ADDED128U20009GA1021+004801999GF102991999999999999999999MA1103011999999REMMET073METAR GMTT 010130Z 05002KT 9999 0700 R28/P2000D FEW016 06/05 Q1030 NOSIG;
0153601010999992012010102004+35733-005900FM-15+0021GMTT V0209999V001012200019N0112651N1+00601+00501999999ADDED128U20009GA1021+004801999GF102991999999999999999999MA1103011999999REMMET073METAR GMTT 010200Z VRB02KT 9999 0700 R28/P2000D FEW016 06/05 Q1030 NOSIG;
0110601010999992012010102304+35733-005900AUTO +0021GMTT V0209999V000519999999N0112651N1+00601+00501999999ADDED128U20009MA1103011999999REMMET072METAR GMTT 010230Z AUTO VRB01KT 9999NDV 0700 R28/P2000U /// 06/05 Q1030;
0184601010999992012010103004+35733-005900SY-MT+0021GMTT V0201401N001019999999N0007001N1+00861+00781103041ADDED128U20009MA1103011999999MD1810081+9999REMSYN054AAXX  01034 60101 46907 /1402 10086 20078 40304 58008;MET072METAR GMTT 010300Z AUTO VRB02KT 9999NDV 0700 R28/P2000U /// 09/08 Q1030;
0110601010999992012010103304+35733-005900AUTO +0021GMTT V0209999V000519999999N0112651N1+00601+00501999999ADDED128U20009MA1103011999999REMMET072METAR GMTT 010330Z AUTO VRB01KT 9999NDV 0700 R28/P2000D /// 06/05 Q1030;
0110601010999992012010104004+35733-005900AUTO +0021GMTT V0209999V001019999999N0112651N1+00601+00501999999ADDED128U20009MA1103011999999REMMET072METAR GMTT 010400Z AUTO VRB02KT 9999NDV 0700 R28/P2000D /// 06/05 Q1030;
0110601010999992012010104304+35733-005900AUTO +0021GMTT V0209999C000019999999N0112651N1+00601+00501999999ADDED128U20009MA1102911999999REMMET072METAR GMTT 010430Z AUTO 00000KT 9999NDV 0700 R28/P2000D /// 06/05 Q1029;
0126601010999992012010105004+35733-005900FM-15+0021GMTT V0209999V000512200019N0060001N1+00601+00501999999ADDGA1041+004801999GF104991999999999999999999MA1102911999999REMMET057METAR GMTT 010500Z VRB01KT 6000 SCT016 06/05 Q1029 NOSIG;
0126601010999992012010105304+35733-005900FM-15+0021GMTT V0209999C000012200019N0060001N1+00501+00401999999ADDGA1041+004801999GF104991999999999999999999MA1102911999999REMMET057METAR GMTT 010530Z 00000KT 6000 SCT016 05/04 Q1029 NOSIG;
0254601010999992012010106004+35733-005900SY-MT+0021GMTT V0200301N001012200019N0060001N1+00561+00461102981ADDGA1041+004801999GF199999031051004501001001KA1999N+00491MA1102911999999MD1810051+9999REMSYN076AAXX  01064 60101 32456 30302 10056 20046 40298 58005 83500 333 20049 83616;MET057METAR GMTT 010600Z VRB02KT 6000 SCT016 06/05 Q1029 NOSIG;EQDQ01+000032SCOTCV
0126601010999992012010107004+35733-005900FM-15+0021GMTT V0209999V000512200019N0060001N1+00601+00501999999ADDGA1041+004801999GF104991999999999999999999MA1103011999999REMMET057METAR GMTT 010700Z VRB01KT 6000 SCT016 06/05 Q1030 NOSIG;
0149601010999992012010107304+35733-005900FM-15+0021GMTT V0209999V001010600019N0060001N1+00601+00501999999ADDGA1021+004801999GA2071+060001999GF107991999999999999999999MA1103011999999REMMET064METAR GMTT 010730Z VRB02KT 6000 FEW016 BKN200 06/05 Q1030 NOSIG;
0149601010999992012010108004+35733-005900FM-15+0021GMTT V0200101N001010600019N0080001N1+00501+00401999999ADDGA1021+004801999GA2071+060001999GF107991999999999999999999MA1103011999999REMMET064METAR GMTT 010800Z 01002KT 8000 FEW016 BKN200 05/04 Q1030 NOSIG;
0126601010999992012010108304+35733-005900FM-15+0021GMTT V0209999V001012200019N0080001N1+00701+00601999999ADDGA1021+004801999GF102991999999999999999999MA1103011999999REMMET057METAR GMTT 010830Z VRB02KT 8000 FEW016 07/06 Q1030 NOSIG;
0216601010999992012010109004+35733-005900SY-MT+0021GMTT V0200101N000512200019N0080001N1+00921+00831103131ADDGA1021+004801999GF103991021051004501001021MA1103121999999MD1310151+9999REMSYN070AAXX  01094 60101 32458 30101 10092 20083 40313 53015 82502 333 82616;MET057METAR GMTT 010900Z VRB01KT 8000 FEW016 09/08 Q1031 NOSIG;
0126601010999992012010109304+35733-005900FM-15+0021GMTT V0209999C000012200019N0080001N1+01101+01001999999ADDGA1021+004801999GF102991999999999999999999MA1103121999999REMMET057METAR GMTT 010930Z 00000KT 8000 FEW016 11/10 Q1031 NOSIG;
0134601010999992012010110004+35733-005900FM-15+0021GMTT V0202001N003612200019N0112651N1+01201+01001999999ADDGA1021+004801999GF102991999999999999999999MA1103121999999REMMET065METAR GMTT 011000Z 20007KT 170V230 9999 FEW016 12/10 Q1031 NOSIG;
0126601010999992012010110304+35733-005900FM-15+0021GMTT V0201901N004112200019N0112651N1+01301+01001999999ADDGA1021+004801999GF102991999999999999999999MA1103121999999REMMET057METAR GMTT 011030Z 19008KT 9999 FEW016 13/10 Q1031 NOSIG;
0126601010999992012010111004+35733-005900FM-15+0021GMTT V0202001N004112200019N0112651N1+01401+01001999999ADDGA1021+004801999GF102991999999999999999999MA1103121999999REMMET057METAR GMTT 011100Z 20008KT 9999 FEW016 14/10 Q1031 NOSIG;
0134601010999992012010111304+35733-005900FM-15+0021GMTT V0202101N005112200019N0112651N1+01501+01001999999ADDGA1041+004801999GF104991999999999999999999MA1103121999999REMMET065METAR GMTT 011130Z 21010KT 180V240 9999 SCT016 15/10 Q1031 NOSIG;
0235601010999992012010112004+35733-005900SY-MT+0021GMTT V0202101N005110048019N0100001N1+01531+01051103111ADDGA1071+004801999GF199999061051004501001001MA1103121999999MD1810011+9999REMSYN070AAXX  01124 60101 32460 62110 10153 20105 40311 58001 86500 333 86616;MET057METAR GMTT 011200Z 21010KT 9999 BKN016 15/11 Q1031 NOSIG;EQDQ01+000062SCOTCV
0134601010999992012010112304+35733-005900FM-15+0021GMTT V0202101N005110048019N0112651N1+01601+01101999999ADDGA1071+004801999GF107991999999999999999999MA1103011999999REMMET065METAR GMTT 011230Z 21010KT 180V240 9999 BKN016 16/11 Q1030 NOSIG;
0126601010999992012010113004+35733-005900FM-15+0021GMTT V0202101N005110048019N0112651N1+01601+01101999999ADDGA1071+004801999GF107991999999999999999999MA1103011999999REMMET057METAR GMTT 011300Z 21010KT 9999 BKN016 16/11 Q1030 NOSIG;
0134601010999992012010113304+35733-005900FM-15+0021GMTT V0202301N004612200019N0112651N1+01601+01101999999ADDGA1041+004801999GF104991999999999999999999MA1102911999999REMMET065METAR GMTT 011330Z 23009KT 200V260 9999 SCT016 16/11 Q1029 NOSIG;
0126601010999992012010114004+35733-005900FM-15+0021GMTT V0202301N005712200019N0112651N1+01601+01201999999ADDGA1041+004801999GF104991999999999999999999MA1102911999999REMMET057METAR GMTT 011400Z 23011KT 9999 SCT016 16/12 Q1029 NOSIG;
0134601010999992012010114304+35733-005900FM-15+0021GMTT V0202401N005112200019N0112651N1+01601+01101999999ADDGA1041+004801999GF104991999999999999999999MA1102911999999REMMET065METAR GMTT 011430Z 24010KT 200V260 9999 SCT016 16/11 Q1029 NOSIG;
0216601010999992012010115004+35733-005900SY-MT+0021GMTT V0202401N005712200019N0100001N1+01621+01161102951ADDGA1041+004801999GF199999031021004501001001MA1102911999999MD1810141+9999REMSYN070AAXX  01154 60101 32460 32411 10162 20116 40295 58014 83200 333 83816;MET057METAR GMTT 011500Z 24011KT 9999 SCT016 16/12 Q1029 NOSIG;
0126601010999992012010115304+35733-005900FM-15+0021GMTT V0202401N005112200019N0112651N1+01601+01201999999ADDGA1041+004801999GF104991999999999999999999MA1102911999999REMMET057METAR GMTT 011530Z 24010KT 9999 SCT016 16/12 Q1029 NOSIG;
0126601010999992012010116004+35733-005900FM-15+0021GMTT V0202401N004612200019N0112651N1+01601+01101999999ADDGA1041+004801999GF104991999999999999999999MA1102911999999REMMET057METAR GMTT 011600Z 24009KT 9999 SCT016 16/11 Q1029 NOSIG;
0126601010999992012010116304+35733-005900FM-15+0021GMTT V0202301N004112200019N0112651N1+01501+01101999999ADDGA1041+004801999GF104991999999999999999999MA1102911999999REMMET057METAR GMTT 011630Z 23008KT 9999 SCT016 15/11 Q1029 NOSIG;
0126601010999992012010117004+35733-005900FM-15+0021GMTT V0202301N004112200019N0112651N1+01501+01101999999ADDGA1021+004801999GF102991999999999999999999MA1103011999999REMMET057METAR GMTT 011700Z 23008KT 9999 FEW016 15/11 Q1030 NOSIG;
0126601010999992012010117304+35733-005900FM-15+0021GMTT V0202301N003612200019N0112651N1+01401+01101999999ADDGA1021+004801999GF102991999999999999999999MA1103011999999REMMET057METAR GMTT 011730Z 23007KT 9999 FEW016 14/11 Q1030 NOSIG;
0235601010999992012010118004+35733-005900SY-MT+0021GMTT V0202301N002612200019N0100001N1+01351+01091103051ADDGA1021+004801999GF102991021021004501001001KA1120M+01651MA1103011999999MD1310091+9999REMSYN076AAXX  01184 60101 32460 22305 10135 20109 40305 53009 82200 333 10165 82816;MET057METAR GMTT 011800Z 23005KT 9999 FEW016 14/11 Q1030 NOSIG;
0126601010999992012010118304+35733-005900FM-15+0021GMTT V0202301N002612200019N0080001N1+01301+01101999999ADDGA1021+004801999GF102991999999999999999999MA1103011999999REMMET057METAR GMTT 011830Z 23005KT 8000 FEW016 13/11 Q1030 NOSIG;
0126601010999992012010119004+35733-005900FM-15+0021GMTT V0202301N002612200019N0080001N1+01301+01101999999ADDGA1021+004801999GF102991999999999999999999MA1103121999999REMMET057METAR GMTT 011900Z 23005KT 8000 FEW016 13/11 Q1031 NOSIG;
0126601010999992012010119304+35733-005900FM-15+0021GMTT V0202201N002612200019N0080001N1+01301+01101999999ADDGA1021+004801999GF102991999999999999999999MA1103121999999REMMET057METAR GMTT 011930Z 22005KT 8000 FEW016 13/11 Q1031 NOSIG;
0126601010999992012010120004+35733-005900FM-15+0021GMTT V0202201N002612200019N0080001N1+01301+01201999999ADDGA1021+004801999GF102991999999999999999999MA1103121999999REMMET057METAR GMTT 012000Z 22005KT 8000 FEW016 13/12 Q1031 NOSIG;
0126601010999992012010120304+35733-005900FM-15+0021GMTT V0202201N003112200019N0080001N1+01301+01201999999ADDGA1021+004801999GF102991999999999999999999MA1103121999999REMMET057METAR GMTT 012030Z 22006KT 8000 FEW016 13/12 Q1031 NOSIG;
0216601010999992012010121004+35733-005900SY-MT+0021GMTT V0201901N002112200019N0080001N1+01251+01061103171ADDGA1021+004801999GF102991021021004501001001MA1103121999999MD1110111+9999REMSYN070AAXX  01214 60101 32458 21904 10125 20106 40317 51011 82200 333 82816;MET057METAR GMTT 012100Z 19004KT 8000 FEW016 13/11 Q1031 NOSIG;
0126601010999992012010121304+35733-005900FM-15+0021GMTT V0209999C000012200019N0060001N1+01101+00901999999ADDGA1041+004801999GF104991999999999999999999MA1103121999999REMMET057METAR GMTT 012130Z 00000KT 6000 SCT016 11/09 Q1031 NOSIG;
0126601010999992012010122004+35733-005900FM-15+0021GMTT V0209999V000512200019N0060001N1+01101+01001999999ADDGA1041+004801999GF104991999999999999999999MA1103121999999REMMET057METAR GMTT 012200Z VRB01KT 6000 SCT016 11/10 Q1031 NOSIG;
0126601010999992012010122304+35733-005900FM-15+0021GMTT V0202001N003112200019N0060001N1+01201+01001999999ADDGA1041+004801999GF104991999999999999999999MA1103181999999REMMET057METAR GMTT 012230Z 20006KT 6000 SCT016 12/10 Q1032 NOSIG;
0126601010999992012010123004+35733-005900FM-15+0021GMTT V0202001N003112200019N0060001N1+01201+01001999999ADDGA1041+004801999GF104991999999999999999999MA1103181999999REMMET057METAR GMTT 012300Z 20006KT 6000 SCT016 12/10 Q1032 NOSIG;
0126601010999992012010123304+35733-005900FM-15+0021GMTT V0209999C000012200019N0060001N1+01001+00801999999ADDGA1041+004801999GF104991999999999999999999MA1103181999999REMMET057METAR GMTT 012330Z 00000KT 6000 SCT016 10/08 Q1032 NOSIG;
0235601010999992012010200004+35733-005900SY-MT+0021GMTT V0202601N000510048019N0060001N1+01111+00991103261ADDGA1071+004801999GF199999061021004501001001MA1103181999999MD1210091+9999REMSYN070AAXX  02004 60101 32456 62601 10111 20099 40326 52009 86200 333 86816;MET057METAR GMTT 020000Z VRB01KT 6000 BKN016 11/10 Q1032 NOSIG;EQDQ01+000062SCOTCV
0153601010999992012010200304+35733-005900FM-15+0021GMTT V0209999V001010048019N0112651N1+01201+01001999999ADDED128U20009GA1071+004801999GF107991999999999999999999MA1103181999999REMMET073METAR GMTT 020030Z VRB02KT 9999 0750 R28/P2000N BKN016 12/10 Q1032 NOSIG;
0161601010999992012010201004+35733-005900FM-15+0021GMTT V0201801N001510048019N0112651N1+01201+01101999999ADDED128U20009GA1071+004801999GF107991999999999999999999MA1103181999999REMMET081METAR GMTT 020100Z 18003KT 150V250 9999 0750 R28/P2000N BKN016 12/11 Q1032 NOSIG;
0110601010999992012010201304+35733-005900AUTO +0021GMTT V0209999V001019999999N0112651N1+01201+01101999999ADDED128U20009MA1103181999999REMMET072METAR GMTT 020130Z AUTO VRB02KT 9999NDV 0750 R28/P2000N /// 12/11 Q1032;
0110601010999992012010202004+35733-005900AUTO +0021GMTT V0209999V001519999999N0112651N1+01201+01101999999ADDED128U20009MA1103121999999REMMET072METAR GMTT 020200Z AUTO VRB03KT 9999NDV 0750 R28/P2000N /// 12/11 Q1031;
0112601010999992012010202304+35733-005900AUTO +0021GMTT V0202001N002119999999N0007501N1+01301+01101999999ADDED128U10009MA1103121999999REMMET074METAR GMTT 020230Z AUTO 20004KT 170V230 0750NDV R28/1000N /// 13/11 Q1031;
0178601010999992012010203004+35733-005900SY-MT+0021GMTT V0202801N001019999999N0007001N1+01241+01061103221ADDED128U10009MA1103181999999MD1810031+9999REMSYN054AAXX  02034 60101 46907 /2802 10124 20106 40322 58003;MET066METAR GMTT 020300Z AUTO VRB02KT 0750NDV R28/1000N /// 12/11 Q1032;
0104601010999992012010203304+35733-005900AUTO +0021GMTT V0202001N003619999999N0007501N1+01301+01101999999ADDED128U10009MA1103181999999REMMET066METAR GMTT 020330Z AUTO 20007KT 0750NDV R28/1000N /// 13/11 Q1032;
0317601010999992012010206004+35733-005900SY-MT+0021GMTT V0201001N001510048019N0060001N1+01291+01111103251ADDAA124000021AY161061AY221061GA1041+001801999GA2071+004801999GF107991071021002501999999KA1999N+00911MA1103181999999MD1310031+9999MW1211REMSYN094AAXX  02064 60101 11356 71003 10129 20111 40325 53003 69924 72162 872// 333 20091 83706 86816;MET072METAR GMTT 020600Z 10003KT 050V130 6000 SCT006 BKN016 13/11 Q1032 NOSIG;
0149601010999992012010206304+35733-005900FM-15+0021GMTT V0201201N002110048019N0060001N1+01301+01101999999ADDGA1041+001801999GA2071+004801999GF107991999999999999999999MA1103181999999REMMET064METAR GMTT 020630Z 12004KT 6000 SCT006 BKN016 13/11 Q1032 NOSIG;
0149601010999992012010207004+35733-005900FM-15+0021GMTT V0209999C000010048019N0060001N1+01301+01101999999ADDGA1041+003001999GA2071+004801999GF107991999999999999999999MA1103181999999REMMET064METAR GMTT 020700Z 00000KT 6000 SCT010 BKN016 13/11 Q1032 NOSIG;
0149601010999992012010207304+35733-005900FM-15+0021GMTT V0209999V000510048019N0060001N1+01201+01001999999ADDGA1041+003001999GA2071+004801999GF107991999999999999999999MA1103181999999REMMET064METAR GMTT 020730Z VRB01KT 6000 SCT010 BKN016 12/10 Q1032 NOSIG;
0149601010999992012010208004+35733-005900FM-15+0021GMTT V0209999C000010048019N0060001N1+01001+00801999999ADDGA1041+003001999GA2071+004801999GF107991999999999999999999MA1103291999999REMMET064METAR GMTT 020800Z 00000KT 6000 SCT010 BKN016 10/08 Q1033 NOSIG;
0149601010999992012010208304+35733-005900FM-15+0021GMTT V0209999V001010048019N0060001N1+01101+01001999999ADDGA1021+003001999GA2071+004801999GF107991999999999999999999MA1103291999999REMMET064METAR GMTT 020830Z VRB02KT 6000 FEW010 BKN016 11/10 Q1033 NOSIG;
0264601010999992012010209004+35733-005900SY-MT+0021GMTT V0209999C000010048019N0060001N1+01281+01151103431ADDGA1041+003001999GA2071+004801999GF199999061021004501001001MA1103391999999MD1310161+9999REMSYN076AAXX  02094 60101 32456 60000 10128 20115 40343 53016 86200 333 83710 85816;MET064METAR GMTT 020900Z 00000KT 6000 SCT010 BKN016 13/12 Q1034 NOSIG;EQDQ01+000062SCOTCV
0166601010999992012010209304+35733-005900FM-15+0021GMTT V0202101N002110048019N0060001N1+01401+01201999999ADDGA1041+003001999GA2071+004801999GF107991999999999999999999MA1103491999999REMMET081METAR GMTT 020930Z 21004KT 180V260 6000 R28///// SCT010 BKN016 14/12 Q1035 NOSIG;
0149601010999992012010210004+35733-005900FM-15+0021GMTT V0202101N002110048019N0060001N1+01401+01201999999ADDGA1041+003001999GA2071+004801999GF107991999999999999999999MA1103491999999REMMET064METAR GMTT 021000Z 21004KT 6000 SCT010 BKN016 14/12 Q1035 NOSIG;
0158601010999992012010210364+35733-005900FM-15+0021GMTT V0202001N003610048019N0030001N1+01401+01201999999ADDGA1041+002401999GA2071+004801999GF107991999999999999999999MA1103491999999MW1101REMMET067METAR GMTT 021036Z 20007KT 3000 BR SCT008 BKN016 14/12 Q1035 NOSIG;
0158601010999992012010211004+35733-005900FM-15+0021GMTT V0202001N004110048019N0030001N1+01401+01201999999ADDGA1041+002401999GA2071+004801999GF107991999999999999999999MA1103491999999MW1101REMMET067METAR GMTT 021100Z 20008KT 3000 BR SCT008 BKN016 14/12 Q1035 NOSIG;
0158601010999992012010211304+35733-005900FM-15+0021GMTT V0202001N003610048019N0030001N1+01401+01201999999ADDGA1041+002401999GA2071+004801999GF107991999999999999999999MA1103491999999MW1101REMMET067METAR GMTT 021130Z 20007KT 3000 BR SCT008 BKN016 14/12 Q1035 NOSIG;
0305601010999992012010212004+35733-005900SY-MT+0021GMTT V0201901N004110048019N0040001N1+01381+01201103461ADDAA106000021AY161061AY221061GA1041+002401999GA2071+004801999GF107991071021002501999999MA1103391999999MD1010011+9999MW1611REMSYN088AAXX  02124 60101 11340 71908 10138 20120 40346 50001 60001 76162 872// 333 84708 86816;MET079METAR GMTT 021200Z 19008KT 160V240 4000 -RA RA SCT008 BKN016 14/12 Q1034 NOSIG;
0166601010999992012010212304+35733-005900FM-15+0021GMTT V0202101N002110048019N0040001N1+01401+01201999999ADDGA1041+002401999GA2071+004801999GF107991999999999999999999MA1103391999999MW1101REMMET075METAR GMTT 021230Z 21004KT 180V240 4000 BR SCT008 BKN016 14/12 Q1034 NOSIG;
0158601010999992012010213004+35733-005900FM-15+0021GMTT V0202101N003110048019N0040001N1+01401+01201999999ADDGA1041+002401999GA2071+004801999GF107991999999999999999999MA1103391999999MW1101REMMET067METAR GMTT 021300Z 21006KT 4000 BR SCT008 BKN016 14/12 Q1034 NOSIG;
0162601010999992012010213014+35733-005900FM-15+0021GMTT V0202201N003110048019N0050001N1+01401+01201999999ADDGA1021+002401999GA2071+004801999GF107991999999999999999999MA1103391999999REMMET077METAR GMTT 021301Z 22006KT 180V250 5000 FEW008 BKN016 14/12 Q1034 REBR NOSIG;
0154601010999992012010213304+35733-005900FM-15+0021GMTT V0202301N005110048019N0050001N1+01501+01301999999ADDGA1021+002401999GA2071+004801999GF107991999999999999999999MA1103291999999REMMET069METAR GMTT 021330Z 23010KT 5000 FEW008 BKN016 15/13 Q1033 REBR NOSIG;
0149601010999992012010214004+35733-005900FM-15+0021GMTT V0202101N004610048019N0060001N1+01501+01201999999ADDGA1021+002401999GA2071+004801999GF107991999999999999999999MA1103291999999REMMET064METAR GMTT 021400Z 21009KT 6000 FEW008 BKN016 15/12 Q1033 NOSIG;
0245601010999992012010215004+35733-005900SY-MT+0021GMTT V0202201N005110048019N0080001N1+01561+01201103321ADDGA1021+003001999GA2071+004801999GF107991071021004501999999MA1103291999999MD1810131+9999REMSYN076AAXX  02154 60101 32458 72210 10156 20120 40332 58013 872// 333 82710 86816;MET064METAR GMTT 021500Z 22010KT 8000 FEW010 BKN016 16/12 Q1033 NOSIG;
0149601010999992012010216004+35733-005900FM-15+0021GMTT V0202201N004110048019N0080001N1+01501+01201999999ADDGA1021+003001999GA2071+004801999GF107991999999999999999999MA1103291999999REMMET064METAR GMTT 021600Z 22008KT 8000 FEW010 BKN016 15/12 Q1033 NOSIG;
0149601010999992012010217004+35733-005900FM-15+0021GMTT V0202401N002610048019N0080001N1+01501+01201999999ADDGA1021+003001999GA2071+004801999GF107991999999999999999999MA1103291999999REMMET064METAR GMTT 021700Z 24005KT 8000 FEW010 BKN016 15/12 Q1033 NOSIG;
0264601010999992012010218004+35733-005900SY-MT+0021GMTT V0202901N001010048019N0080001N1+01381+01171103431ADDGA1041+002401999GA2071+004801999GF107991071021002501999999KA1120M+01601MA1103391999999MD1310101+9999REMSYN082AAXX  02184 60101 32358 72902 10138 20117 40343 53010 872// 333 10160 83708 85816;MET064METAR GMTT 021800Z VRB02KT 8000 SCT008 BKN016 14/12 Q1034 NOSIG;
0149601010999992012010219004+35733-005900FM-15+0021GMTT V0200701N000510048019N0080001N1+01101+00901999999ADDGA1041+002401999GA2071+004801999GF107991999999999999999999MA1103391999999REMMET064METAR GMTT 021900Z 07001KT 8000 SCT008 BKN016 11/09 Q1034 NOSIG;
0126601010999992012010220004+35733-005900FM-15+0021GMTT V0209999C000010048019N0080001N1+01001+00801999999ADDGA1071+004801999GF107991999999999999999999MA1103391999999REMMET057METAR GMTT 022000Z 00000KT 8000 BKN016 10/08 Q1034 NOSIG;
0216601010999992012010221004+35733-005900SY-MT+0021GMTT V0200801N001012200019N0080001N1+00841+00701103501ADDGA1041+004801999GF104991041021004501001001MA1103391999999MD1310071+9999REMSYN070AAXX  02214 60101 32458 40802 10084 20070 40350 53007 84200 333 84816;MET057METAR GMTT 022100Z 08002KT 8000 SCT016 08/07 Q1034 NOSIG;
0126601010999992012010221304+35733-005900FM-15+0021GMTT V0200701N001012200019N0060001N1+00901+00801999999ADDGA1041+004801999GF104991999999999999999999MA1103391999999REMMET057METAR GMTT 022130Z 07002KT 6000 SCT016 09/08 Q1034 NOSIG;
0126601010999992012010222004+35733-005900FM-15+0021GMTT V0200901N002112200019N0060001N1+00901+00801999999ADDGA1041+004801999GF104991999999999999999999MA1103391999999REMMET057METAR GMTT 022200Z 09004KT 6000 SCT016 09/08 Q1034 NOSIG;
0134601010999992012010222304+35733-005900FM-15+0021GMTT V0201001N001512200019N0060001N1+00901+00701999999ADDGA1041+004801999GF104991999999999999999999MA1103491999999REMMET065METAR GMTT 022230Z 10003KT 070V130 6000 SCT016 09/07 Q1035 NOSIG;
0126601010999992012010223004+35733-005900FM-15+0021GMTT V0200901N001012200019N0060001N1+00801+00701999999ADDGA1041+004801999GF104991999999999999999999MA1103391999999REMMET057METAR GMTT 022300Z 09002KT 6000 SCT016 08/07 Q1034 NOSIG;
0126601010999992012010223304+35733-005900FM-15+0021GMTT V0201201N001512200019N0060001N1+00901+00801999999ADDGA1041+004801999GF104991999999999999999999MA1103391999999REMMET057METAR GMTT 022330Z 12003KT 6000 SCT016 09/08 Q1034 NOSIG;
0216601010999992012010300004+35733-005900SY-MT+0021GMTT V0201201N001512200019N0060001N1+00881+00771103491ADDGA1041+004801999GF104991041021004501001001MA1103391999999MD1610051+9999REMSYN070AAXX  03004 60101 32456 41203 10088 20077 40349 56005 84200 333 84816;MET057METAR GMTT 030000Z 12003KT 6000 SCT016 09/08 Q1034 NOSIG;
0126601010999992012010300304+35733-005900FM-15+0021GMTT V0201201N001512200019N0060001N1+00901+00801999999ADDGA1041+004801999GF104991999999999999999999MA1103391999999REMMET057METAR GMTT 030030Z 12003KT 6000 SCT016 09/08 Q1034 NOSIG;
0126601010999992012010301004+35733-005900FM-15+0021GMTT V0201201N001512200019N0060001N1+00901+00801999999ADDGA1041+004801999GF104991999999999999999999MA1103391999999REMMET057METAR GMTT 030100Z 12003KT 6000 SCT016 09/08 Q1034 NOSIG;
0153601010999992012010301304+35733-005900FM-15+0021GMTT V0201201N001512200019N0112651N1+00901+00801999999ADDED128U20009GA1041+004801999GF104991999999999999999999MA1103391999999REMMET073METAR GMTT 030130Z 12003KT 9999 0700 R28/P2000D SCT016 09/08 Q1034 NOSIG;
0153601010999992012010302004+35733-005900FM-15+0021GMTT V0201201N001512200019N0112651N1+00901+00801999999ADDED128U20009GA1041+004801999GF104991999999999999999999MA1103391999999REMMET073METAR GMTT 030200Z 12003KT 9999 0700 R28/P2000D SCT016 09/08 Q1034 NOSIG;
0110601010999992012010302304+35733-005900AUTO +0021GMTT V0201201N001519999999N0112651N1+00901+00801999999ADDED128U20009MA1103391999999REMMET072METAR GMTT 030230Z AUTO 12003KT 9999NDV 0700 R28/P2000D /// 09/08 Q1034;
0184601010999992012010303004+35733-005900SY-MT+0021GMTT V0201201N001519999999N0007001N1+00881+00771103491ADDED128U20009MA1103391999999MD1810081+9999REMSYN054AAXX  03034 60101 46907 /1203 10088 20077 40349 58008;MET072METAR GMTT 030300Z AUTO 12003KT 9999NDV 0700 R28/P2000D /// 09/08 Q1034;
0110601010999992012010303304+35733-005900AUTO +0021GMTT V0201201N001519999999N0112651N1+00901+00801999999ADDED128U20009MA1103391999999REMMET072METAR GMTT 030330Z AUTO 12003KT 9999NDV 0700 R28/P2000D /// 09/08 Q1034;
0110601010999992012010304004+35733-005900AUTO +0021GMTT V0201201N001519999999N0112651N1+00901+00801999999ADDED128U20009MA1103391999999REMMET072METAR GMTT 030400Z AUTO 12003KT 9999NDV 0700 R28/P2000D /// 09/08 Q1034;
0110601010999992012010304304+35733-005900AUTO +0021GMTT V0201201N001519999999N0112651N1+00901+00801999999ADDED128U20009MA1103391999999REMMET072METAR GMTT 030430Z AUTO 12003KT 9999NDV 0700 R28/P2000D /// 09/08 Q1034;
0149601010999992012010305004+35733-005900FM-15+0021GMTT V0201201N001512200019N0060001N1+00901+00801999999ADDGA1021+003001999GA2041+004801999GF104991999999999999999999MA1103391999999REMMET064METAR GMTT 030500Z 12003KT 6000 FEW010 SCT016 09/08 Q1034 NOSIG;
0157601010999992012010305304+35733-005900FM-15+0021GMTT V0200801N001512200019N0060001N1+00601+00501999999ADDGA1021+003001999GA2041+004801999GF104991999999999999999999MA1103181999999REMMET072METAR GMTT 030530Z 08003KT 010V130 6000 FEW010 SCT016 06/05 Q1032 NOSIG;
0272601010999992012010306004+35733-005900SY-MT+0021GMTT V0201001N001512200019N0060001N1+00511+00421103261ADDGA1021+003001999GA2041+004801999GF104991041021004501001001KA1999N+00511MA1103181999999MD1810071+9999REMSYN082AAXX  03064 60101 32456 41003 10051 20042 40326 58007 84200 333 20051 82610 83816;MET072METAR GMTT 030600Z 10003KT 050V150 6000 FEW010 SCT016 05/04 Q1032 NOSIG;
0157601010999992012010306304+35733-005900FM-15+0021GMTT V0200901N002112200019N0060001N1+00601+00501999999ADDGA1021+003001999GA2041+004801999GF104991999999999999999999MA1103181999999REMMET072METAR GMTT 030630Z 09004KT 050V130 6000 FEW010 SCT016 06/05 Q1032 NOSIG;
0149601010999992012010307004+35733-005900FM-15+0021GMTT V0201101N001512200019N0060001N1+00501+00501999999ADDGA1021+003001999GA2041+004801999GF104991999999999999999999MA1103291999999REMMET064METAR GMTT 030700Z 11003KT 6000 FEW010 SCT016 05/05 Q1033 NOSIG;
0149601010999992012010307304+35733-005900FM-15+0021GMTT V0201001N002112200019N0060001N1+00601+00501999999ADDGA1021+003001999GA2041+004801999GF104991999999999999999999MA1103291999999REMMET064METAR GMTT 030730Z 10004KT 6000 FEW010 SCT016 06/05 Q1033 NOSIG;
0126601010999992012010308004+35733-005900FM-15+0021GMTT V0209999C000012200019N0060001N1+00501+00401999999ADDGA1021+003001999GF102991999999999999999999MA1103291999999REMMET057METAR GMTT 030800Z 00000KT 6000 FEW010 05/04 Q1033 NOSIG;
0126601010999992012010308304+35733-005900FM-15+0021GMTT V0209999V000512200019N0080001N1+00601+00501999999ADDGA1021+004801999GF102991999999999999999999MA1103291999999REMMET057METAR GMTT 030830Z VRB01KT 8000 FEW016 06/05 Q1033 NOSIG;
0216601010999992012010309004+35733-005900SY-MT+0021GMTT V0201101N001512200019N0080001N1+00851+00771103391ADDGA1021+004801999GF102991021051004501001001MA1103291999999MD1310121+9999REMSYN070AAXX  03094 60101 32458 21103 10085 20077 40339 53012 82500 333 82616;MET057METAR GMTT 030900Z 11003KT 8000 FEW016 09/08 Q1033 NOSIG;
0126601010999992012010309304+35733-005900FM-15+0021GMTT V0201201N002612200019N0080001N1+01001+01001999999ADDGA1021+004801999GF102991999999999999999999MA1103391999999REMMET057METAR GMTT 030930Z 12005KT 8000 FEW016 10/10 Q1034 NOSIG;
0126601010999992012010310004+35733-005900FM-15+0021GMTT V0201101N002112200019N0080001N1+01201+01101999999ADDGA1021+004801999GF102991999999999999999999MA1103391999999REMMET057METAR GMTT 031000Z 11004KT 8000 FEW016 12/11 Q1034 NOSIG;
0126601010999992012010311004+35733-005900FM-15+0021GMTT V0201201N001512200019N0080001N1+01401+01201999999ADDGA1021+004801999GF102991999999999999999999MA1103291999999REMMET057METAR GMTT 031100Z 12003KT 8000 FEW016 14/12 Q1033 NOSIG;
0126601010999992012010311304+35733-005900FM-15+0021GMTT V0201201N002612200019N0080001N1+01501+01001999999ADDGA1021+004801999GF102991999999999999999999MA1103291999999REMMET057METAR GMTT 031130Z 12005KT 8000 FEW016 15/10 Q1033 NOSIG;
0216601010999992012010312004+35733-005900SY-MT+0021GMTT V0201001N002612200019N0080001N1+01601+00921103291ADDGA1021+004801999GF102991021051004501001001MA1103181999999MD1610101+9999REMSYN070AAXX  03124 60101 32458 21005 10160 20092 40329 56010 82500 333 82616;MET057METAR GMTT 031200Z 10005KT 8000 FEW016 16/09 Q1032 NOSIG;
0126601010999992012010313004+35733-005900FM-15+0021GMTT V0200801N003112200019N0080001N1+01701+01001999999ADDGA1021+004801999GF102991999999999999999999MA1103121999999REMMET057METAR GMTT 031300Z 08006KT 8000 FEW016 17/10 Q1031 NOSIG;
0078601010999992012010313304+35733-005900FM-15+0021GMTT V0200501N004119999999Y0099001N1+01701+01001999999ADDMA1103121999999REMMET051METAR GMTT 031330Z 05008KT CAVOK 17/10 Q1031 NOSIG;
0078601010999992012010314004+35733-005900FM-15+0021GMTT V0200601N005119999999Y0099001N1+01701+01001999999ADDMA1103121999999REMMET051METAR GMTT 031400Z 06010KT CAVOK 17/10 Q1031 NOSIG;
0078601010999992012010314304+35733-005900FM-15+0021GMTT V0200501N005119999999Y0099001N1+01701+01001999999ADDMA1103121999999REMMET051METAR GMTT 031430Z 05010KT CAVOK 17/10 Q1031 NOSIG;
0178601010999992012010315004+35733-005900SY-MT+0021GMTT V0200501N004119999999Y0100001N1+01741+01051103091ADDGF100991001001999999001001MA1103011999999MD1810181+9999REMSYN054AAXX  03154 60101 42960 00508 10174 20105 40309 58018;MET051METAR GMTT 031500Z 05008KT CAVOK 17/11 Q1030 NOSIG;
0078601010999992012010315304+35733-005900FM-15+0021GMTT V0200601N005119999999Y0099001N1+01701+01001999999ADDMA1103011999999REMMET051METAR GMTT 031530Z 06010KT CAVOK 17/10 Q1030 NOSIG;
0078601010999992012010316004+35733-005900FM-15+0021GMTT V0200501N005719999999Y0099001N1+01601+00901999999ADDMA1103121999999REMMET051METAR GMTT 031600Z 05011KT CAVOK 16/09 Q1031 NOSIG;
0078601010999992012010316304+35733-005900FM-15+0021GMTT V0200501N004619999999Y0099001N1+01601+00901999999ADDMA1103121999999REMMET051METAR GMTT 031630Z 05009KT CAVOK 16/09 Q1031 NOSIG;
0078601010999992012010317004+35733-005900FM-15+0021GMTT V0200501N004119999999Y0099001N1+01501+01001999999ADDMA1103121999999REMMET051METAR GMTT 031700Z 05008KT CAVOK 15/10 Q1031 NOSIG;
0078601010999992012010317304+35733-005900FM-15+0021GMTT V0200601N003119999999Y0099001N1+01301+00901999999ADDMA1103121999999REMMET051METAR GMTT 031730Z 06006KT CAVOK 13/09 Q1031 NOSIG;
0201601010999992012010318004+35733-005900SY-MT+0021GMTT V0200401N002619999999Y0100001N1+01111+00831103151ADDGF100991001001999999001001KA1999M+01751MA1103121999999MD1110051+9999REMSYN064AAXX  03184 60101 32960 00405 10111 20083 40315 51005 333 10175;MET051METAR GMTT 031800Z 03005KT CAVOK 11/08 Q1031 NOSIG;
0078601010999992012010318304+35733-005900FM-15+0021GMTT V0200301N003119999999Y0099001N1+01001+00801999999ADDMA1103121999999REMMET051METAR GMTT 031830Z 03006KT CAVOK 10/08 Q1031 NOSIG;
0078601010999992012010319004+35733-005900FM-15+0021GMTT V0200501N002619999999Y0099001N1+01001+00801999999ADDMA1103121999999REMMET051METAR GMTT 031900Z 05005KT CAVOK 10/08 Q1031 NOSIG;
0078601010999992012010319304+35733-005900FM-15+0021GMTT V0200401N001519999999Y0099001N1+01001+00801999999ADDMA1103121999999REMMET051METAR GMTT 031930Z 04003KT CAVOK 10/08 Q1031 NOSIG;
0078601010999992012010320004+35733-005900FM-15+0021GMTT V0200401N001519999999Y0099001N1+00901+00801999999ADDMA1103181999999REMMET051METAR GMTT 032000Z 04003KT CAVOK 09/08 Q1032 NOSIG;
0078601010999992012010320304+35733-005900FM-15+0021GMTT V0209999C000019999999Y0099001N1+01001+00801999999ADDMA1103181999999REMMET051METAR GMTT 032030Z 00000KT CAVOK 10/08 Q1032 NOSIG;
0178601010999992012010321004+35733-005900SY-MT+0021GMTT V0209999C000019999999Y0100001N1+00771+00621103231ADDGF100991001001999999001001MA1103181999999MD1110071+9999REMSYN054AAXX  03214 60101 42960 00000 10077 20062 40323 51007;MET051METAR GMTT 032100Z 00000KT CAVOK 08/06 Q1032 NOSIG;
0126601010999992012010322004+35733-005900FM-15+0021GMTT V0209999C000012200019N0080001N1+00901+00801999999ADDGA1021+004801999GF102991999999999999999999MA1103181999999REMMET057METAR GMTT 032200Z 00000KT 8000 FEW016 09/08 Q1032 NOSIG;
0126601010999992012010323004+35733-005900FM-15+0021GMTT V0209999V000512200019N0080001N1+00701+00601999999ADDGA1021+004801999GF102991999999999999999999MA1103181999999REMMET057METAR GMTT 032300Z VRB01KT 8000 FEW016 07/06 Q1032 NOSIG;
0216601010999992012010400004+35733-005900SY-MT+0021GMTT V0201001N001512200019N0080001N1+00591+00451103261ADDGA1021+004801999GF102991021051004501001001MA1103181999999MD1110031+9999REMSYN070AAXX  04004 60101 32458 21003 10059 20045 40326 51003 82500 333 82616;MET057METAR GMTT 040000Z 10003KT 8000 FEW016 06/05 Q1032 NOSIG;
0112601010999992012010400304+35733-005900AUTO +0021GMTT V0201001N001519999999N0008001N1+00701+00501999999ADDED128U11009MA1103181999999REMMET074METAR GMTT 040030Z AUTO 10003KT 020V150 0800NDV R28/1100N /// 07/05 Q1032;
0109601010999992012010401004+35733-005900AUTO +0021GMTT V0201201N001512200019N0009001N1+00601+00501999999ADDED128U11009MA1103181999999REMMET071METAR GMTT 040100Z AUTO 12003KT 0900NDV R28/1100V1200N /// 06/05 Q1032;
0118601010999992012010401304+35733-005900AUTO +0021GMTT V0201001N002119999999N0112651N1+00801+00701999999ADDED128U20009MA1103181999999REMMET080METAR GMTT 040130Z AUTO 10004KT 070V150 9999NDV 0800 R28/P2000U /// 08/07 Q1032;
0118601010999992012010402004+35733-005900AUTO +0021GMTT V0201001N002619999999N0112651N1+00701+00501999999ADDED128U20009MA1103181999999REMMET080METAR GMTT 040200Z AUTO 10005KT 080V140 9999NDV 0800 R28/P2000N /// 07/05 Q1032;
0118601010999992012010402304+35733-005900AUTO +0021GMTT V0201201N001519999999N0112651N1+00701+00501999999ADDED128U20009MA1103181999999REMMET080METAR GMTT 040230Z AUTO 12003KT 070V150 9999NDV 0800 R28/P2000N /// 07/05 Q1032;
0184601010999992012010403004+35733-005900SY-MT+0021GMTT V0201101N003619999999N0008001N1+00671+00521103221ADDED128U20009MA1103181999999MD1810041+9999REMSYN054AAXX  04034 60101 46908 /1107 10067 20052 40322 58004;MET072METAR GMTT 040300Z AUTO 11007KT 9999NDV 0800 R28/P2000U /// 07/05 Q1032;
0110601010999992012010403304+35733-005900AUTO +0021GMTT V0201101N003619999999N0080001N1+00601+00501999999ADDED128U20009MA1103181999999REMMET072METAR GMTT 040330Z AUTO 11007KT 8000NDV 0800 R28/P2000D /// 06/05 Q1032;
0110601010999992012010404004+35733-005900AUTO +0021GMTT V0201101N003619999999N0048001N1+00601+00501999999ADDED128U20009MA1103181999999REMMET072METAR GMTT 040400Z AUTO 11007KT 4800NDV 0800 R28/P2000D /// 06/05 Q1032;
0134601010999992012010404304+35733-005900FM-15+0021GMTT V0201201N001512200019N0080001N1+00601+00401999999ADDGA1021+004801999GF102991999999999999999999MA1103181999999REMMET065METAR GMTT 040430Z 12003KT 080V160 8000 FEW016 06/04 Q1032 NOSIG;
0126601010999992012010405004+35733-005900FM-15+0021GMTT V0201001N003112200019N0080001N1+00701+00501999999ADDGA1021+004801999GF102991999999999999999999MA1103181999999REMMET057METAR GMTT 040500Z 10006KT 8000 FEW016 07/05 Q1032 NOSIG;
0271601010999992012010406004+35733-005900SY-MT+0021GMTT V0201101N003112200019N0080001N1+00761+00621103211ADDAA124000091GA1021+004801999GF102991021051004501001001KA1999N+00551MA1103181999999MD1810011+9999REMSYN082AAXX  04064 60101 32458 21106 10076 20062 40321 58001 69924 82500 333 20055 82616;MET057METAR GMTT 040600Z 11006KT 8000 FEW016 08/06 Q1032 NOSIG;EQDQ01  00002PRCP24
0126601010999992012010407004+35733-005900FM-15+0021GMTT V0209999V001012200019N0080001N1+00601+00401999999ADDGA1021+004801999GF102991999999999999999999MA1103181999999REMMET057METAR GMTT 040700Z VRB02KT 8000 FEW016 06/04 Q1032 NOSIG;
0126601010999992012010407304+35733-005900FM-15+0021GMTT V0201001N002112200019N0080001N1+00701+00501999999ADDGA1021+004801999GF102991999999999999999999MA1103181999999REMMET057METAR GMTT 040730Z 10004KT 8000 FEW016 07/05 Q1032 NOSIG;
0126601010999992012010408004+35733-005900FM-15+0021GMTT V0200901N001512200019N0080001N1+00601+00501999999ADDGA1021+004801999GF102991999999999999999999MA1103181999999REMMET057METAR GMTT 040800Z 09003KT 8000 FEW016 06/05 Q1032 NOSIG;
0084601010999992012010408304+35733-005900FM-15+0021GMTT V0201201N001012200019N9999999N1+00801+00701999999ADDMA1103201999999REMMET057METAR GMTT 040830Z AUTO 12002KT R28///// /// 08/07 Q1032;
0184601010999992012010409004+35733-005900SY-MT+0021GMTT V0201101N000519999999N0004001N1+00971+00851103331ADDED128U20009MA1103291999999MD1310121+9999REMSYN054AAXX  04094 60101 46904 /1101 10097 20085 40333 53012;MET072METAR GMTT 040900Z AUTO 11001KT 3300NDV 0450 R28/P2000D /// 10/09 Q1033;
0110601010999992012010409304+35733-005900AUTO +0021GMTT V0209999C000019999999N0019001N1+01201+01101999999ADDED128U20009MA1103291999999REMMET072METAR GMTT 040930Z AUTO 00000KT 1900NDV 0450 R28/P2000N /// 12/11 Q1033;
0109601010999992012010410004+35733-005900AUTO +0021GMTT V0209999V001019999999N0014001N1+01401+01201999999ADDED128U18009MA1103291999999REMMET071METAR GMTT 041000Z AUTO VRB02KT 1400NDV 0450 R28/1800N /// 14/12 Q1033;
0084601010999992012010410304+35733-005900FM-15+0021GMTT V0209999C000012200019N9999999N1+01501+01201999999ADDMA1103301999999REMMET057METAR GMTT 041030Z AUTO 00000KT R28///// /// 15/12 Q1033;
0084601010999992012010411004+35733-005900FM-15+0021GMTT V0209999V001012200019N9999999N1+01601+01201999999ADDMA1103301999999REMMET057METAR GMTT 041100Z AUTO VRB02KT R28///// /// 16/12 Q1033;
0084601010999992012010411304+35733-005900FM-15+0021GMTT V0209999V001012200019N9999999N1+01701+01201999999ADDMA1103301999999REMMET057METAR GMTT 041130Z AUTO VRB02KT R28///// /// 17/12 Q1033;
0092601010999992012010412004+35733-005900FM-15+0021GMTT V0200701N002612200019N9999999N1+01801+01101999999ADDMA1103201999999REMMET065METAR GMTT 041200Z AUTO 07005KT 020V110 R28///// /// 18/11 Q1032;
0092601010999992012010412304+35733-005900FM-15+0021GMTT V0200901N002112200019N9999999N1+01901+01001999999ADDMA1103101999999REMMET065METAR GMTT 041230Z AUTO 09004KT 060V120 R28///// /// 19/10 Q1031;
0092601010999992012010413004+35733-005900FM-15+0021GMTT V0200601N002612200019N9999999N1+01901+01001999999ADDMA1103101999999REMMET065METAR GMTT 041300Z AUTO 06005KT 020V090 R28///// /// 19/10 Q1031;
0078601010999992012010413304+35733-005900FM-15+0021GMTT V02099999999992200019N9999999N1+99999+99999999999ADDMA1103101999999REMMET051METAR GMTT 041330Z AUTO /////KT R28///// /// Q1031;
0124601010999992012010414004+35733-005900FM-15+0021GMTT V0201001N001519999999N9999999N1+02001+01001999999ADDKA1999M+99999MA1103001999999REMMET065METAR GMTT 041400Z AUTO 10003KT 050V140 R28///// /// 20/10 Q1030;EQDQ01 +00032ATMX  
0084601010999992012010414304+35733-005900FM-15+0021GMTT V02099999999992200019N9999999N1+02001+01001999999ADDMA1103001999999REMMET057METAR GMTT 041430Z AUTO /////KT R28///// /// 20/10 Q1030;
0143601010999992012010415004+35733-005900SY-MT+0021GMTT V0200501N003619999999N9999999N1+01911+01041103031ADDMD1810211+9999REMSYN054AAXX  04154 60101 469// /0507 10191 20104 40303 58021;MET057METAR GMTT 041500Z AUTO 05007KT R28///// /// 19/11 Q1030;
0092601010999992012010415304+35733-005900FM-15+0021GMTT V0200701N001512200019N9999999N1+01901+01201999999ADDMA1103001999999REMMET065METAR GMTT 041530Z AUTO 07003KT 030V110 R28///// /// 19/12 Q1030;
0092601010999992012010416004+35733-005900FM-15+0021GMTT V0200901N001512200019N9999999N1+01901+01201999999ADDMA1103001999999REMMET065METAR GMTT 041600Z AUTO 09003KT 050V130 R28///// /// 19/12 Q1030;
0092601010999992012010416304+35733-005900FM-15+0021GMTT V0200401N002112200019N9999999N1+01701+01201999999ADDMA1103001999999REMMET065METAR GMTT 041630Z AUTO 04004KT 360V090 R28///// /// 17/12 Q1030;
0084601010999992012010417004+35733-005900FM-15+0021GMTT V0209999C000012200019N9999999N1+01701+01101999999ADDMA1103001999999REMMET057METAR GMTT 041700Z AUTO 00000KT R28///// /// 17/11 Q1030;
0092601010999992012010417304+35733-005900FM-15+0021GMTT V0201301N001512200019N9999999N1+01401+01001999999ADDMA1103001999999REMMET065METAR GMTT 041730Z AUTO 13003KT 090V180 R28///// /// 14/10 Q1030;
0210601010999992012010418004+35733-005900SY-MT+0021GMTT V0201301N002119999999N9999999N1+01391+01071103071ADDAA112000091KA1999M+02031MD1210031+9999REMSYN070AAXX  04184 60101 169// /1304 10139 20107 40307 52003 60002 333 10203;MET065METAR GMTT 041800Z AUTO 13004KT 060V180 R28///// /// 14/11 Q1030;EQDQ01  00002PRCP12
0124601010999992012010418304+35733-005900FM-15+0021GMTT V0201001N001519999999N9999999N1+01301+01101999999ADDKA1999M+99999MA1103001999999REMMET065METAR GMTT 041830Z AUTO 10003KT 040V150 R28///// /// 13/11 Q1030;EQDQ01 +00032ATMX  
0084601010999992012010419004+35733-005900FM-15+0021GMTT V0200901N003112200019N9999999N1+01301+00801999999ADDMA1103001999999REMMET057METAR GMTT 041900Z AUTO 09006KT R28///// /// 13/08 Q1030;
0092601010999992012010419304+35733-005900FM-15+0021GMTT V0200901N002612200019N9999999N1+01301+00801999999ADDMA1103101999999REMMET065METAR GMTT 041930Z AUTO 09005KT 060V120 R28///// /// 13/08 Q1031;
0084601010999992012010420004+35733-005900FM-15+0021GMTT V0200801N006212200019N9999999N1+01401+01001999999ADDMA1103001999999REMMET057METAR GMTT 042000Z AUTO 08012KT R28///// /// 14/10 Q1030;
0084601010999992012010420304+35733-005900FM-15+0021GMTT V0200801N005112200019N9999999N1+01401+00901999999ADDMA1103101999999REMMET057METAR GMTT 042030Z AUTO 08010KT R28///// /// 14/09 Q1031;
0151601010999992012010421004+35733-005900SY-MT+0021GMTT V0200601N004619999999N9999999N1+01431+00781103161ADDMD1310101+9999REMSYN054AAXX  04214 60101 469// /0609 10143 20078 40316 53010;MET065METAR GMTT 042100Z AUTO 06009KT 030V090 R28///// /// 15/08 Q1031;
0084601010999992012010421304+35733-005900FM-15+0021GMTT V0200501N003112200019N9999999N1+01301+00901999999ADDMA1103101999999REMMET057METAR GMTT 042130Z AUTO 05006KT R28///// /// 13/09 Q1031;
0084601010999992012010422004+35733-005900FM-15+0021GMTT V0200901N003612200019N9999999N1+01101+00701999999ADDMA1103101999999REMMET057METAR GMTT 042200Z AUTO 09007KT R28///// /// 11/07 Q1031;
0084601010999992012010422304+35733-005900FM-15+0021GMTT V0200701N004112200019N9999999N1+01101+00701999999ADDMA1103101999999REMMET057METAR GMTT 042230Z AUTO 07008KT R28///// /// 11/07 Q1031;
0116601010999992012010423004+35733-005900FM-15+0021GMTT V0201101N001519999999N9999999N1+01001+00601999999ADDKA1999M+99999MA1103101999999REMMET057METAR GMTT 042300Z AUTO 11003KT R28///// /// 10/06 Q1031;EQDQ01 -00032ATMX  
0084601010999992012010423304+35733-005900FM-15+0021GMTT V0201201N002612200019N9999999N1+00901+00501999999ADDMA1103101999999REMMET057METAR GMTT 042330Z AUTO 12005KT R28///// /// 09/05 Q1031;
0116601010999992012010500004+35733-005900FM-15+0021GMTT V0201101N002619999999N9999999N1+00801+00501999999ADDKA1999M+99999MA1103101999999REMMET057METAR GMTT 050000Z AUTO 11005KT R28///// /// 08/05 Q1031;EQDQ01 -00052ATMX  
0084601010999992012010500304+35733-005900FM-15+0021GMTT V0201301N003112200019N9999999N1+00801+00501999999ADDMA1103101999999REMMET057METAR GMTT 050030Z AUTO 13006KT R28///// /// 08/05 Q1031;
0084601010999992012010501004+35733-005900FM-15+0021GMTT V0200701N004112200019N9999999N1+00901+00601999999ADDMA1103101999999REMMET057METAR GMTT 050100Z AUTO 07008KT R28///// /// 09/06 Q1031;
0084601010999992012010501304+35733-005900FM-15+0021GMTT V0209999V001012200019N9999999N1+00801+00501999999ADDMA1103101999999REMMET057METAR GMTT 050130Z AUTO VRB02KT R28///// /// 08/05 Q1031;
0124601010999992012010502004+35733-005900FM-15+0021GMTT V0201001N001519999999N9999999N1+00701+00401999999ADDKA1999M+99999MA1103101999999REMMET065METAR GMTT 050200Z AUTO 10003KT 080V140 R28///// /// 07/04 Q1031;EQDQ01 +00032ATMX  
0124601010999992012010502304+35733-005900FM-15+0021GMTT V0201101N002119999999N9999999N1+00601+00401999999ADDKA1999M+99999MA1103201999999REMMET065METAR GMTT 050230Z AUTO 11004KT 070V150 R28///// /// 06/04 Q1032;EQDQ01 -00042ATMX  
0143601010999992012010503004+35733-005900SY-MT+0021GMTT V0200901N000519999999N9999999N1+00491+00241103181ADDMD1310021+9999REMSYN054AAXX  05034 60101 469// /0901 10049 20024 40318 53002;MET057METAR GMTT 050300Z AUTO VRB01KT R28///// /// 05/02 Q1031;
0084601010999992012010503304+35733-005900FM-15+0021GMTT V0200701N001012200019N9999999N1+00401+00301999999ADDMA1103201999999REMMET057METAR GMTT 050330Z AUTO 07002KT R28///// /// 04/03 Q1032;
0084601010999992012010504004+35733-005900FM-15+0021GMTT V0201301N001512200019N9999999N1+00501+00301999999ADDMA1103101999999REMMET057METAR GMTT 050400Z AUTO 13003KT R28///// /// 05/03 Q1031;
0084601010999992012010504304+35733-005900FM-15+0021GMTT V0201201N001512200019N9999999N1+00501+00301999999ADDMA1103101999999REMMET057METAR GMTT 050430Z AUTO 12003KT R28///// /// 05/03 Q1031;
0116601010999992012010505004+35733-005900FM-15+0021GMTT V0201101N002119999999N9999999N1+00501+00301999999ADDKA1999M+99999MA1103101999999REMMET057METAR GMTT 050500Z AUTO 11004KT R28///// /// 05/03 Q1031;EQDQ01 -00042ATMX  
0116601010999992012010505304+35733-005900FM-15+0021GMTT V0201101N003619999999N9999999N1+00501+00401999999ADDKA1999M+99999MA1103101999999REMMET057METAR GMTT 050530Z AUTO 11007KT R28///// /// 05/04 Q1031;EQDQ01 -00072ATMX  
0092601010999992012010506004+35733-005900FM-15+0021GMTT V0200901N001512200019N9999999N1+00601+00401999999ADDMA1103101999999REMMET065METAR GMTT 050600Z AUTO 09003KT 060V120 R28///// /// 06/04 Q1031;
0092601010999992012010506304+35733-005900FM-15+0021GMTT V0200901N001512200019N9999999N1+00701+00501999999ADDMA1103101999999REMMET065METAR GMTT 050630Z AUTO 09003KT 060V120 R28///// /// 07/05 Q1031;
0084601010999992012010507004+35733-005900FM-15+0021GMTT V0209999V001012200019N9999999N1+00601+00401999999ADDMA1103101999999REMMET057METAR GMTT 050700Z AUTO VRB02KT R28///// /// 06/04 Q1031;
0084601010999992012010507304+35733-005900FM-15+0021GMTT V0209999V001012200019N9999999N1+00601+00401999999ADDMA1103101999999REMMET057METAR GMTT 050730Z AUTO VRB02KT R28///// /// 06/04 Q1031;
0124601010999992012010508004+35733-005900FM-15+0021GMTT V0201101N001519999999N9999999N1+00601+00401999999ADDKA1999M+99999MA1103201999999REMMET065METAR GMTT 050800Z AUTO 11003KT 080V140 R28///// /// 06/04 Q1032;EQDQ01 -00032ATMX  
0124601010999992012010508304+35733-005900FM-15+0021GMTT V0201001N002119999999N9999999N1+00601+00501999999ADDKA1999M+99999MA1103201999999REMMET065METAR GMTT 050830Z AUTO 10004KT 060V130 R28///// /// 06/05 Q1032;EQDQ01 +00042ATMX  
0143601010999992012010509004+35733-005900SY-MT+0021GMTT V0200901N001019999999N9999999N1+00851+00731103271ADDMD1310151+9999REMSYN054AAXX  05094 60101 469// /0902 10085 20073 40327 53015;MET057METAR GMTT 050900Z AUTO VRB02KT R28///// /// 08/07 Q1032;
0078601010999992012010509304+35733-005900FM-15+0021GMTT V0201201N002612200019N9999999N1+99999+99999999999ADDMA1103301999999REMMET051METAR GMTT 050930Z AUTO 12005KT R28///// /// Q1033;
0078601010999992012010510004+35733-005900FM-15+0021GMTT V0201301N001512200019N9999999N1+99999+99999999999ADDMA1103401999999REMMET051METAR GMTT 051000Z AUTO 13003KT R28///// /// Q1034;
0084601010999992012010510304+35733-005900FM-15+0021GMTT V0209999V000512200019N9999999N1+01401+01001999999ADDMA1103301999999REMMET057METAR GMTT 051030Z AUTO VRB01KT R28///// /// 14/10 Q1033;
0092601010999992012010511004+35733-005900FM-15+0021GMTT V0202801N002112200019N9999999N1+01501+01101999999ADDMA1103301999999REMMET065METAR GMTT 051100Z AUTO 28004KT 240V300 R28///// /// 15/11 Q1033;
0092601010999992012010511304+35733-005900FM-15+0021GMTT V0202701N002112200019N9999999N1+01501+01101999999ADDMA1103301999999REMMET065METAR GMTT 051130Z AUTO 27004KT 240V300 R28///// /// 15/11 Q1033;
0116601010999992012010512004+35733-005900FM-12+0021GMTT V02099999999999999999N9999999N1+01501+01181999999ADDAA106000091MD1610011+9999REMSYN060AAXX  05124 60101 169// ///// 10150 20118 4//// 56001 60001;EQDQ01  00002PRCP06
0084601010999992012010512304+35733-005900FM-15+0021GMTT V0202801N002612200019N9999999N1+01501+01201999999ADDMA1103201999999REMMET057METAR GMTT 051230Z AUTO 28005KT R28///// /// 15/12 Q1032;
0092601010999992012010513004+35733-005900FM-15+0021GMTT V0202601N002612200019N9999999N1+01501+01201999999ADDMA1103101999999REMMET065METAR GMTT 051300Z AUTO 26005KT 230V300 R28///// /// 15/12 Q1031;
0086601010999992012010513304+35733-005900FM-15+0021GMTT V0202801N002612200019N9999999N1+99999+99999999999ADDMA1103201999999REMMET059METAR GMTT 051330Z AUTO 28005KT 240V300 R28///// /// Q1032;
0084601010999992012010514004+35733-005900FM-15+0021GMTT V0202801N002612200019N9999999N1+01501+01201999999ADDMA1103101999999REMMET057METAR GMTT 051400Z AUTO 28005KT R28///// /// 15/12 Q1031;
0084601010999992012010514304+35733-005900FM-15+0021GMTT V0202801N003112200019N9999999N1+01501+01201999999ADDMA1103001999999REMMET057METAR GMTT 051430Z AUTO 28006KT R28///// /// 15/12 Q1030;
0143601010999992012010515004+35733-005900SY-MT+0021GMTT V0202601N002119999999N9999999N1+01511+01211103061ADDMD1810191+9999REMSYN054AAXX  05154 60101 469// /2604 10151 20121 40306 58019;MET057METAR GMTT 051500Z AUTO 26004KT R28///// /// 15/12 Q1030;
0092601010999992012010515304+35733-005900FM-15+0021GMTT V0202701N002112200019N9999999N1+01501+01201999999ADDMA1103001999999REMMET065METAR GMTT 051530Z AUTO 27004KT 240V300 R28///// /// 15/12 Q1030;
0092601010999992012010516004+35733-005900FM-15+0021GMTT V0202701N001512200019N9999999N1+01401+01201999999ADDMA1103001999999REMMET065METAR GMTT 051600Z AUTO 27003KT 230V310 R28///// /// 14/12 Q1030;
0084601010999992012010516304+35733-005900FM-15+0021GMTT V0202701N002112200019N9999999N1+01301+01101999999ADDMA1103001999999REMMET057METAR GMTT 051630Z AUTO 27004KT R28///// /// 13/11 Q1030;
0084601010999992012010517004+35733-005900FM-15+0021GMTT V0202801N001512200019N9999999N1+01301+01101999999ADDMA1103001999999REMMET057METAR GMTT 051700Z AUTO 28003KT R28///// /// 13/11 Q1030;
0092601010999992012010517304+35733-005900FM-15+0021GMTT V0203101N001512200019N9999999N1+01301+01101999999ADDMA1103001999999REMMET065METAR GMTT 051730Z AUTO 31003KT 290V350 R28///// /// 13/11 Q1030;
0078601010999992012010518004+35733-005900FM-15+0021GMTT V0209999C000012200019N9999999N1+99999+99999999999ADDMA1103101999999REMMET051METAR GMTT 051800Z AUTO 00000KT R28///// /// Q1031;
0078601010999992012010518304+35733-005900FM-15+0021GMTT V0209999C000012200019N9999999N1+99999+99999999999ADDMA1103101999999REMMET051METAR GMTT 051830Z AUTO 00000KT R28///// /// Q1031;
0078601010999992012010519004+35733-005900FM-15+0021GMTT V0209999C000012200019N9999999N1+99999+99999999999ADDMA1103101999999REMMET051METAR GMTT 051900Z AUTO 00000KT R28///// /// Q1031;
0084601010999992012010519304+35733-005900FM-15+0021GMTT V0209999C000012200019N9999999N1+00701+00601999999ADDMA1103101999999REMMET057METAR GMTT 051930Z AUTO 00000KT R28///// /// 07/06 Q1031;
0084601010999992012010520004+35733-005900FM-15+0021GMTT V0209999C000012200019N9999999N1+00801+00601999999ADDMA1103101999999REMMET057METAR GMTT 052000Z AUTO 00000KT R28///// /// 08/06 Q1031;
0084601010999992012010520304+35733-005900FM-15+0021GMTT V0209999C000012200019N9999999N1+00801+00701999999ADDMA1103101999999REMMET057METAR GMTT 052030Z AUTO 00000KT R28///// /// 08/07 Q1031;
0143601010999992012010521004+35733-005900SY-MT+0021GMTT V0200701N001519999999N9999999N1+99999+99999999999ADDMD1110051+9999REMSYN054AAXX  05214 60101 469// /0703 1//// 2//// 4//// 51005;MET057METAR GMTT 052100Z AUTO 07002KT R28///// /// 10/09 Q1031;
0084601010999992012010521304+35733-005900FM-15+0021GMTT V0200701N001012200019N9999999N1+01001+00901999999ADDMA1103101999999REMMET057METAR GMTT 052130Z AUTO 07002KT R28///// /// 10/09 Q1031;
0091601010999992012010522004+35733-005900FM-15+0021GMTT V0201001N002119999999N9999999N1+99999+99999999999ADDKA1999M+00041MA1103101999999REMMET051METAR GMTT 052200Z AUTO 10004KT R28///// /// Q1031;
0108601010999992012010522304+35733-005900FM-15+0021GMTT V0201101N002112200019N0004001N1+99999+99999999999ADDED128U04009MA1103121999999REMMET070METAR GMTT 052230Z AUTO 11004KT 0400NDV 0300 R28/0400V0550N /// Q1031;
0103601010999992012010523004+35733-005900FM-15+0021GMTT V0201001N001519999999N0004501N1+99999+99999999999ADDED128U05509MA1103121999999REMMET065METAR GMTT 052300Z AUTO 10003KT 0450NDV 0300 R28/0550N /// Q1031;
0111601010999992012010523304+35733-005900FM-15+0021GMTT V0201201N002119999999N0006001N1+99999+99999999999ADDED128U08009MA1103121999999REMMET073METAR GMTT 052330Z AUTO 12004KT 090V150 0600NDV 0350 R28/0800N /// Q1031;
0218601010999992012010600004+35733-005900SY-MT+0021GMTT V0201101N002112200019N0003001N1+99999+99999999999ADDAA106000091ED128U04509MA1103121999999MD1610031+9999REMSYN060AAXX  06004 60101 16903 /1104 1//// 2//// 4//// 56003 60001;MET070METAR GMTT 060000Z AUTO 11004KT 0450NDV 0300 R28/0450V0650D /// Q1031;EQDQ01  00002PRCP06
0103601010999992012010600304+35733-005900FM-15+0021GMTT V0201101N001519999999N0002501N1+99999+99999999999ADDED128U03009MA1103121999999REMMET065METAR GMTT 060030Z AUTO 11003KT 0250NDV 0200 R28/0300N /// Q1031;
0108601010999992012010601004+35733-005900FM-15+0021GMTT V0201301N001512200019N0003501N1+99999+99999999999ADDED128U03259MA1103121999999REMMET070METAR GMTT 060100Z AUTO 13003KT 0350NDV 0250 R28/0325V0500N /// Q1031;
0108601010999992012010601304+35733-005900FM-15+0021GMTT V0200601N001012200019N0004001N1+99999+99999999999ADDED128U04009MA1103121999999REMMET070METAR GMTT 060130Z AUTO 06002KT 0400NDV 0300 R28/0400V0650U /// Q1031;
0109601010999992012010602004+35733-005900FM-15+0021GMTT V0209999V001012200019N0012001N1+99999+99999999999ADDED128U10009MA1103121999999REMMET071METAR GMTT 060200Z AUTO VRB02KT 1200NDV 0650 R28/1000VP2000U /// Q1031;
0116601010999992012010602304+35733-005900FM-15+0021GMTT V0202101N001512200019N0003001N1+99999+99999999999ADDED128U02759MA1103011999999REMMET078METAR GMTT 060230Z AUTO 21003KT 170V250 0300NDV 0200 R28/0275V0550U /// Q1030;
0178601010999992012010603004+35733-005900SY-MT+0021GMTT V0202401N001019999999N0006001N1+99999+99999999999ADDED128U20009MA1103011999999MD1610091+9999REMSYN054AAXX  06034 60101 46906 /2402 1//// 2//// 4//// 56009;MET066METAR GMTT 060300Z AUTO VRB02KT 2300NDV 0650 R28/P2000U /// Q1030;
0108601010999992012010603304+35733-005900FM-15+0021GMTT V0209999C000012200019N0009001N1+99999+99999999999ADDED128U10009MA1103011999999REMMET070METAR GMTT 060330Z AUTO 00000KT 0900NDV 0650 R28/1000V1500U /// Q1030;
0108601010999992012010604004+35733-005900FM-15+0021GMTT V0201301N001012200019N0007001N1+99999+99999999999ADDED128U08009MA1103011999999REMMET070METAR GMTT 060400Z AUTO 13002KT 0700NDV 0650 R28/0800V1000N /// Q1030;
0103601010999992012010604304+35733-005900FM-15+0021GMTT V0209999C000012200019N0004001N1+99999+99999999999ADDED128U03009MA1103011999999REMMET065METAR GMTT 060430Z AUTO 00000KT 0400NDV R28/0300V0700U /// Q1030;
0104601010999992012010605004+35733-005900FM-15+0021GMTT V0203301N001019999999N0032001N1+99999+99999999999ADDED128U20009MA1103011999999REMMET066METAR GMTT 060500Z AUTO 33002KT 3200NDV 0700 R28/P2000U /// Q1030;
0104601010999992012010605304+35733-005900FM-15+0021GMTT V0203001N000519999999N0060001N1+99999+99999999999ADDED128U20009MA1103011999999REMMET066METAR GMTT 060530Z AUTO 30001KT 6000NDV 0700 R28/P2000D /// Q1030;
0194601010999992012010606004+35733-005900SY-MT+0021GMTT V0202801N000519999999N0006001N1+99999+99999999999ADDED128U20009MA1103011999999MD1310011+9999REMSYN070AAXX  06064 60101 46906 /2801 1//// 2//// 4//// 53001 333 2//// 3////;MET066METAR GMTT 060600Z AUTO VRB01KT 2800NDV 0650 R28/P2000D /// Q1030;
0110601010999992012010606304+35733-005900AUTO +0021GMTT V0202001N003619999999N0020001N1+01001+00901999999ADDED128U20009MA1102911999999REMMET072METAR GMTT 060630Z AUTO 20007KT 2000NDV 0650 R28/P2000N /// 10/09 Q1029;
0104601010999992012010607004+35733-005900FM-15+0021GMTT V0201901N003619999999N0023001N1+99999+99999999999ADDED128U20009MA1103011999999REMMET066METAR GMTT 060700Z AUTO 19007KT 2300NDV 0650 R28/P2000U /// Q1030;
0112601010999992012010607304+35733-005900FM-15+0021GMTT V0201901N003119999999N0026001N1+99999+99999999999ADDED128U20009MA1103011999999REMMET074METAR GMTT 060730Z AUTO 19006KT 160V220 2600NDV 0650 R28/P2000N /// Q1030;
0112601010999992012010608004+35733-005900FM-15+0021GMTT V0202001N002119999999N0021001N1+99999+99999999999ADDED128U20009MA1103011999999REMMET074METAR GMTT 060800Z AUTO 20004KT 170V240 2100NDV 0550 R28/P2000D /// Q1030;
0152601010999992012010608304+35733-005900FM-15+0021GMTT V0202001N002610018019N0020001N1+99999+99999999999ADDGA1021+001201999GA2071+001801999GF107991999999999999999999MA1103011999999MW1101REMMET061METAR GMTT 060830Z 20005KT 2000 BR FEW004 BKN006 Q1030 NOSIG;
0307601010999992012010609004+35733-005900SY-MT+0021GMTT V0202601N001510024019N0020001N1+99999+99999103061ADDAY121031AY221031GA1021+001801999GA2071+002401999GA3071+004801999GF107991071061001501999999MA1103011999999MD1310071+9999MW1101REMSYN088AAXX  06094 60101 41220 72603 1//// 2//// 40306 53007 71022 876// 333 82706 85708 85616;MET076METAR GMTT 060900Z 26003KT 200V280 2000 BR FEW006 BKN008 BKN016 Q1030 NOSIG;
0146601010999992012010609054+35733-005900FM-16+0021GMTT V0202801N001010048019N0050001N1+99999+99999999999ADDGA1041+003001999GA2071+004801999GF107991999999999999999999MA1103011999999REMMET061SPECI GMTT 060905Z 28002KT 5000 SCT010 BKN016 Q1030 B2 NOSIG;
0143601010999992012010609304+35733-005900FM-15+0021GMTT V0209999V000510048019N0050001N1+99999+99999999999ADDGA1041+003001999GA2071+004801999GF107991999999999999999999MA1103121999999REMMET058METAR GMTT 060930Z VRB01KT 5000 SCT010 BKN016 Q1031 NOSIG;
0143601010999992012010610004+35733-005900FM-15+0021GMTT V0209999V000510048019N0080001N1+99999+99999999999ADDGA1041+003001999GA2071+004801999GF107991999999999999999999MA1103121999999REMMET058METAR GMTT 061000Z VRB01KT 8000 SCT010 BKN016 Q1031 NOSIG;
0151601010999992012010610304+35733-005900FM-15+0021GMTT V0202401N002110048019N0080001N1+99999+99999999999ADDGA1041+003001999GA2071+004801999GF107991999999999999999999MA1103121999999REMMET066METAR GMTT 061030Z 24004KT 180V280 8000 SCT010 BKN016 Q1031 NOSIG;
0151601010999992012010611004+35733-005900FM-15+0021GMTT V0202101N002610048019N0080001N1+99999+99999999999ADDGA1041+003001999GA2071+004801999GF107991999999999999999999MA1103121999999REMMET066METAR GMTT 061100Z 21005KT 180V250 8000 SCT010 BKN016 Q1031 NOSIG;
0151601010999992012010611304+35733-005900FM-15+0021GMTT V0202401N004110048019N0080001N1+99999+99999999999ADDGA1041+003001999GA2071+004801999GF107991999999999999999999MA1103121999999REMMET066METAR GMTT 061130Z 24008KT 210V280 8000 SCT010 BKN016 Q1031 NOSIG;
0239601010999992012010612004+35733-005900SY-MT+0021GMTT V0202501N004610048019N0080001N1+99999+99999103031ADDGA1021+003001999GA2071+004801999GF107991071051004501999999MA1103011999999MD1810031+9999REMSYN076AAXX  06124 60101 32458 72509 1//// 2//// 40303 58003 875// 333 82710 87616;MET058METAR GMTT 061200Z 25009KT 8000 FEW010 BKN016 Q1030 NOSIG;
0143601010999992012010612304+35733-005900FM-15+0021GMTT V0202501N004110048019N0080001N1+99999+99999999999ADDGA1021+003001999GA2071+004801999GF107991999999999999999999MA1103011999999REMMET058METAR GMTT 061230Z 25008KT 8000 FEW010 BKN016 Q1030 NOSIG;
0143601010999992012010613004+35733-005900FM-15+0021GMTT V0202501N005110048019N0080001N1+99999+99999999999ADDGA1041+003001999GA2071+004801999GF107991999999999999999999MA1103011999999REMMET058METAR GMTT 061300Z 25010KT 8000 SCT010 BKN016 Q1030 NOSIG;
0143601010999992012010613304+35733-005900FM-15+0021GMTT V0202501N005110048019N0080001N1+99999+99999999999ADDGA1041+003001999GA2071+004801999GF107991999999999999999999MA1102911999999REMMET058METAR GMTT 061330Z 25010KT 8000 SCT010 BKN016 Q1029 NOSIG;
0143601010999992012010614004+35733-005900FM-15+0021GMTT V0202501N004610048019N0060001N1+99999+99999999999ADDGA1041+001801999GA2071+004801999GF107991999999999999999999MA1102911999999REMMET058METAR GMTT 061400Z 25009KT 6000 SCT006 BKN016 Q1029 NOSIG;
0239601010999992012010615004+35733-005900SY-MT+0021GMTT V0202401N003610048019N0060001N1+99999+99999102831ADDGA1041+002401999GA2071+004801999GF107991071051002501999999MA1102811999999MD1810191+9999REMSYN076AAXX  06154 60101 32356 72407 1//// 2//// 40283 58019 875// 333 83708 86616;MET058METAR GMTT 061500Z 24007KT 6000 SCT008 BKN016 Q1028 NOSIG;
0143601010999992012010616004+35733-005900FM-15+0021GMTT V0202401N003110048019N0080001N1+99999+99999999999ADDGA1021+002401999GA2071+004801999GF107991999999999999999999MA1102811999999REMMET058METAR GMTT 061600Z 24006KT 8000 FEW008 BKN016 Q1028 NOSIG;
0120601010999992012010617004+35733-005900FM-15+0021GMTT V0202401N002612200019N0080001N1+99999+99999999999ADDGA1041+004801999GF104991999999999999999999MA1102811999999REMMET051METAR GMTT 061700Z 24005KT 8000 SCT016 Q1028 NOSIG;
0235601010999992012010618004+35733-005900SY-MT+0021GMTT V0209999C000012200019N0080001N1+99999+99999102781ADDGA1041+004801999GF199999031051004501001001MA1102811999999MD1810051+9999REMSYN076AAXX  06184 60101 32458 30000 1//// 2//// 40278 58005 83500 333 1//// 83616;MET051METAR GMTT 061800Z 00000KT 8000 SCT016 Q1028 NOSIG;EQDQ01+000032SCOTCV
0120601010999992012010619004+35733-005900FM-15+0021GMTT V0209999C000012200019N0080001N1+99999+99999999999ADDGA1041+004801999GF104991999999999999999999MA1102811999999REMMET051METAR GMTT 061900Z 00000KT 8000 SCT016 Q1028 NOSIG;
0120601010999992012010620004+35733-005900FM-15+0021GMTT V0200801N001012200019N0080001N1+99999+99999999999ADDGA1021+004801999GF102991999999999999999999MA1102811999999REMMET051METAR GMTT 062000Z 08002KT 8000 FEW016 Q1028 NOSIG;
0210601010999992012010621004+35733-005900SY-MT+0021GMTT V0200701N001012200019N0080001N1+99999+99999102791ADDGA1041+004801999GF104991041051004501001001MA1102811999999MD1310021+9999REMSYN070AAXX  06214 60101 32458 40702 1//// 2//// 40279 53002 84500 333 84616;MET051METAR GMTT 062100Z 07002KT 8000 SCT016 Q1028 NOSIG;
0143601010999992012010621304+35733-005900FM-15+0021GMTT V0200801N000512200019N0050001N1+99999+99999999999ADDGA1021+003001999GA2041+004801999GF104991999999999999999999MA1102811999999REMMET058METAR GMTT 062130Z 08001KT 5000 FEW010 SCT016 Q1028 NOSIG;
0143601010999992012010622004+35733-005900FM-15+0021GMTT V0200901N001512200019N0050001N1+99999+99999999999ADDGA1021+003001999GA2041+004801999GF104991999999999999999999MA1102811999999REMMET058METAR GMTT 062200Z 09003KT 5000 FEW010 SCT016 Q1028 NOSIG;
0156601010999992012010622254+35733-005900FM-15+0021GMTT V0209999V001010024019N0010001N1+99999+99999999999ADDED128U09009GA1071+002401999GF107991999999999999999999MA1102811999999MW1101REMMET070METAR GMTT 062225Z VRB02KT 1000 R28/0900VP2000D BR BKN008 Q1028 NOSIG;
0129601010999992012010622304+35733-005900FM-15+0021GMTT V0209999V001010024019N0010001N1+99999+99999999999ADDGA1071+002401999GF107991999999999999999999MA1102811999999MW1101REMMET054METAR GMTT 062230Z VRB02KT 1000 BR BKN008 Q1028 NOSIG;
0129601010999992012010623004+35733-005900FM-15+0021GMTT V0209999V001010024019N0020001N1+99999+99999999999ADDGA1071+002401999GF107991999999999999999999MA1102811999999MW1101REMMET054METAR GMTT 062300Z VRB02KT 2000 BR BKN008 Q1028 NOSIG;
0137601010999992012010623304+35733-005900FM-15+0021GMTT V0200901N002112200019N0040001N1+99999+99999999999ADDGA1041+002401999GF104991999999999999999999MA1102811999999MW1101REMMET062METAR GMTT 062330Z 09004KT 060V120 4000 BR SCT008 Q1028 NOSIG;
0260601010999992012010700004+35733-005900SY-MT+0021GMTT V0201101N002110024019N0030001N1+99999+99999102771ADDAY121061AY211061GA1071+002401999GF199999051061002501001001MA1102811999999MD1610021+9999MW1101REMSYN076AAXX  07004 60101 31330 51104 1//// 2//// 40277 56002 71021 85600 333 85708;MET054METAR GMTT 070000Z 11004KT 3000 BR BKN008 Q1028 NOSIG;EQDQ01+000052SCOTCV
0161601010999992012010700304+35733-005900FM-15+0021GMTT V0209999V001010024019N0013001N1+99999+99999999999ADDED128U11009GA1071+002401999GF107991999999999999999999MA1102811999999MW1101REMMET075METAR GMTT 070030Z VRB02KT 1300 0300 R28/1100VP2000D BR BKN008 Q1028 NOSIG;
0160601010999992012010701004+35733-005900FM-15+0021GMTT V0201101N002110024019N0003501N1+99999+99999999999ADDED128U04009GA1071+002401999GF107991999999999999999999MA1102711999999MW1101REMMET074METAR GMTT 070100Z 11004KT 0350 0300 R28/0400V0550N BR BKN008 Q1027 NOSIG;
0108601010999992012010701304+35733-005900FM-15+0021GMTT V0200901N001012200019N0003501N1+99999+99999999999ADDED128U03759MA1102711999999REMMET070METAR GMTT 070130Z AUTO 09002KT 0350NDV 0200 R28/0375V0550N /// Q1027;
0104601010999992012010702004+35733-005900FM-15+0021GMTT V0201101N003119999999N0044001N1+99999+99999999999ADDED128U20009MA1102711999999REMMET066METAR GMTT 070200Z AUTO 11006KT 4400NDV 0400 R28/P2000D /// Q1027;
0104601010999992012010702304+35733-005900FM-15+0021GMTT V0201001N003619999999N0026001N1+99999+99999999999ADDED128U20009MA1102711999999REMMET066METAR GMTT 070230Z AUTO 10007KT 2600NDV 0650 R28/P2000N /// Q1027;
0178601010999992012010703004+35733-005900SY-MT+0021GMTT V0200801N002119999999N0005001N1+99999+99999999999ADDED128U20009MA1102711999999MD1810071+9999REMSYN054AAXX  07034 60101 46905 /0804 1//// 2//// 4//// 58007;MET066METAR GMTT 070300Z AUTO 08004KT 2200NDV 0550 R28/P2000N /// Q1027;
0108601010999992012010703304+35733-005900FM-15+0021GMTT V0209999C000012200019N0009001N1+99999+99999999999ADDED128U09009MA1102711999999REMMET070METAR GMTT 070330Z AUTO 00000KT 0900NDV 0450 R28/0900V1800D /// Q1027;
0109601010999992012010704004+35733-005900FM-15+0021GMTT V0209999C000012200019N0006501N1+99999+99999999999ADDED128U03259MA1102711999999REMMET071METAR GMTT 070400Z AUTO 00000KT 0650NDV 0400 R28/0325VP2000U /// Q1027;
0153601010999992012010704094+35733-005900FM-16+0021GMTT V0201001N001512200019N0050001N1+99999+99999999999ADDGA1021+003001999GA2041+004801999GF104991999999999999999999MA1102611999999REMMET068SPECI GMTT 070409Z 10003KT 070V140 5000 FEW010 SCT016 Q1026 B2NOSIG;
0143601010999992012010704304+35733-005900FM-15+0021GMTT V0201001N002112200019N0050001N1+99999+99999999999ADDGA1021+003001999GA2041+004801999GF104991999999999999999999MA1102611999999REMMET058METAR GMTT 070430Z 10004KT 5000 FEW010 SCT016 Q1026 NOSIG;
0143601010999992012010705004+35733-005900FM-15+0021GMTT V0201001N002612200019N0050001N1+99999+99999999999ADDGA1021+003001999GA2041+004801999GF104991999999999999999999MA1102611999999REMMET058METAR GMTT 070500Z 10005KT 5000 FEW010 SCT016 Q1026 NOSIG;
0143601010999992012010705304+35733-005900FM-15+0021GMTT V0201201N003112200019N0060001N1+99999+99999999999ADDGA1021+003001999GA2041+004801999GF104991999999999999999999MA1102611999999REMMET058METAR GMTT 070530Z 12006KT 6000 FEW010 SCT016 Q1026 NOSIG;
0264601010999992012010706004+35733-005900SY-MT+0021GMTT V0201401N003112200019N0060001N1+99999+99999102601ADDGA1021+003001999GA2041+004801999GF199999031051004501001001MA1102611999999MD1610101+9999REMSYN082AAXX  07064 60101 32456 31406 1//// 2//// 40260 56010 83500 333 2//// 82710 83616;MET058METAR GMTT 070600Z 14006KT 6000 FEW010 SCT016 Q1026 NOSIG;EQDQ01+000032SCOTCV
0143601010999992012010706304+35733-005900FM-15+0021GMTT V0209999C000012200019N0060001N1+99999+99999999999ADDGA1021+003001999GA2041+004801999GF104991999999999999999999MA1102611999999REMMET058METAR GMTT 070630Z 00000KT 6000 FEW010 SCT016 Q1026 NOSIG;
0128601010999992012010707004+35733-005900FM-15+0021GMTT V0201401N002112200019N0080001N1+99999+99999999999ADDGA1041+004801999GF104991999999999999999999MA1102611999999REMMET059METAR GMTT 070700Z 14004KT 120V180 8000 SCT016 Q1026 NOSIG;
0143601010999992012010707304+35733-005900FM-15+0021GMTT V0201101N003612200019N0080001N1+99999+99999999999ADDGA1021+004801999GA2041+060001999GF104991999999999999999999MA1102611999999REMMET058METAR GMTT 070730Z 11007KT 8000 FEW016 SCT200 Q1026 NOSIG;
0143601010999992012010708004+35733-005900FM-15+0021GMTT V0201201N004112200019N0080001N1+99999+99999999999ADDGA1021+004801999GA2041+060001999GF104991999999999999999999MA1102611999999REMMET058METAR GMTT 070800Z 12008KT 8000 FEW016 SCT200 Q1026 NOSIG;
0258601010999992012010709004+35733-005900SY-MT+0021GMTT V0200901N004112200019N0080001N1+99999+99999102681ADDGA1021+004801999GA2041+060001999GF199999021051004501001021MA1102711999999MD1310081+9999REMSYN076AAXX  07094 60101 32458 30908 1//// 2//// 40268 53008 82502 333 82616 83070;MET058METAR GMTT 070900Z 09008KT 8000 FEW016 SCT200 Q1027 NOSIG;EQDQ01+000032SCOTCV
0120601010999992012010710004+35733-005900FM-15+0021GMTT V0200801N004112200019N0080001N1+99999+99999999999ADDGA1021+004801999GF102991999999999999999999MA1102811999999REMMET051METAR GMTT 071000Z 08008KT 8000 FEW016 Q1028 NOSIG;
0120601010999992012010711004+35733-005900FM-15+0021GMTT V0200801N006712200019N0080001N1+99999+99999999999ADDGA1021+004801999GF102991999999999999999999MA1102711999999REMMET051METAR GMTT 071100Z 08013KT 8000 FEW016 Q1027 NOSIG;
0210601010999992012010712004+35733-005900SY-MT+0021GMTT V0200901N007212200019N0080001N1+99999+99999102661ADDGA1021+004801999GF102991021051004501001001MA1102711999999MD1610031+9999REMSYN070AAXX  07124 60101 32458 20914 1//// 2//// 40266 56003 82500 333 82616;MET051METAR GMTT 071200Z 09014KT 8000 FEW016 Q1027 NOSIG;
0120601010999992012010713004+35733-005900FM-15+0021GMTT V0200801N007712200019N0112651N1+99999+99999999999ADDGA1021+004801999GF102991999999999999999999MA1102611999999REMMET051METAR GMTT 071300Z 08015KT 9999 FEW016 Q1026 NOSIG;
0120601010999992012010714004+35733-005900FM-15+0021GMTT V0200801N008212200019N0112651N1+99999+99999999999ADDGA1021+004801999GF102991999999999999999999MA1102511999999REMMET051METAR GMTT 071400Z 08016KT 9999 FEW016 Q1025 NOSIG;
0143601010999992012010714304+35733-005900FM-15+0021GMTT V0200801N008712200019N0112651N1+99999+99999999999ADDGA1021+004801999GA2041+060001999GF104991999999999999999999MA1102511999999REMMET058METAR GMTT 071430Z 08017KT 9999 FEW016 SCT200 Q1025 NOSIG;
0204601010999992012010715004+35733-005900SY-MT+0021GMTT V0200801N008719999999Y0100001N1+99999+99999999999ADDGA1031+060001001GF103991001001999999001021MA1102401999999MD1810231+9999REMSYN070AAXX  07154 60101 32960 30817 1//// 2//// 4//// 58023 80002 333 83070;MET045METAR GMTT 071500Z 08017KT CAVOK Q1024 NOSIG;
0080601010999992012010715304+35733-005900FM-15+0021GMTT V0200801N006719999999Y0099001N1+99999+99999999999ADDMA1102401999999REMMET053METAR GMTT 071530Z 08013KT 050V110 CAVOK Q1024 NOSIG;
0072601010999992012010716004+35733-005900FM-15+0021GMTT V0200801N006719999999Y0099001N1+99999+99999999999ADDMA1102401999999REMMET045METAR GMTT 071600Z 08013KT CAVOK Q1024 NOSIG;
0078601010999992012010716304+35733-005900FM-15+0021GMTT V0200901N007219999999Y0099001N1+01701+01001999999ADDMA1102401999999REMMET051METAR GMTT 071630Z 09014KT CAVOK 17/10 Q1024 NOSIG;
0078601010999992012010717004+35733-005900FM-15+0021GMTT V0200801N007219999999Y0099001N1+01701+00901999999ADDMA1102401999999REMMET051METAR GMTT 071700Z 08014KT CAVOK 17/09 Q1024 NOSIG;
0078601010999992012010717304+35733-005900FM-15+0021GMTT V0200801N007219999999Y0099001N1+01601+00801999999ADDMA1102401999999REMMET051METAR GMTT 071730Z 08014KT CAVOK 16/08 Q1024 NOSIG;
0216601010999992012010718004+35733-005900SY-MT+0021GMTT V0200801N008219999999Y0100001N1+01501+00851102441ADDGA1031+060001001GF103991001001999999001021MA1102401999999MD1210021+9999REMSYN076AAXX  07184 60101 32960 30816 10150 20085 40244 52002 80002 333 1//// 83070;MET051METAR GMTT 071800Z 08016KT CAVOK 15/09 Q1024 NOSIG;
0078601010999992012010718304+35733-005900FM-15+0021GMTT V0200801N007719999999Y0099001N1+01501+00801999999ADDMA1102511999999REMMET051METAR GMTT 071830Z 08015KT CAVOK 15/08 Q1025 NOSIG;
0092601010999992012010718524+35733-005900FM-15+0021GMTT V0200801N009319999999Y0099001N1+01501+00801999999ADDMA1102401999999OC101441REMMET057METAR GMTT 071852Z 08018G28KT CAVOK 15/08 Q1024 M0 NOSIG;
0078601010999992012010719004+35733-005900FM-15+0021GMTT V0200801N008219999999Y0099001N1+01501+00801999999ADDMA1102401999999REMMET051METAR GMTT 071900Z 08016KT CAVOK 15/08 Q1024 NOSIG;
0078601010999992012010719304+35733-005900FM-15+0021GMTT V0200801N009319999999Y0099001N1+01501+00901999999ADDMA1102401999999REMMET051METAR GMTT 071930Z 08018KT CAVOK 15/09 Q1024 NOSIG;
0078601010999992012010720004+35733-005900FM-15+0021GMTT V0200801N008719999999Y0099001N1+01501+00901999999ADDMA1102401999999REMMET051METAR GMTT 072000Z 08017KT CAVOK 15/09 Q1024 NOSIG;
0078601010999992012010720304+35733-005900FM-15+0021GMTT V0200801N008219999999Y0099001N1+01501+00901999999ADDMA1102401999999REMMET051METAR GMTT 072030Z 08016KT CAVOK 15/09 Q1024 NOSIG;
0210601010999992012010721004+35733-005900SY-MT+0021GMTT V0200901N008219999999Y0100001N1+01471+00891102471ADDGA1031+060001001GF103991001001999999001021MA1102511999999MD1310031+9999REMSYN070AAXX  07214 60101 32960 30916 10147 20089 40247 53003 80002 333 83070;MET051METAR GMTT 072100Z 09016KT CAVOK 15/09 Q1025 NOSIG;
0126601010999992012010722004+35733-005900FM-15+0021GMTT V0200801N008712200019N0080001N1+01501+00901999999ADDGA1021+004801999GF102991999999999999999999MA1102511999999REMMET057METAR GMTT 072200Z 08017KT 8000 FEW016 15/09 Q1025 NOSIG;
0120601010999992012010723004+35733-005900FM-15+0021GMTT V0200901N009812200019N0080001N1+99999+99999999999ADDGA1021+004801999GF102991999999999999999999MA1102511999999REMMET051METAR GMTT 072300Z 09019KT 8000 FEW016 Q1025 NOSIG;
0216601010999992012010800004+35733-005900SY-MT+0021GMTT V0200901N008712200019N0080001N1+01461+00921102451ADDGA1021+004801999GF102991021021004501001001MA1102401999999MD1810021+9999REMSYN070AAXX  08004 60101 32458 20917 10146 20092 40245 58002 82200 333 82816;MET057METAR GMTT 080000Z 09017KT 8000 FEW016 15/09 Q1024 NOSIG;
0084601010999992012010800304+35733-005900FM-15+0021GMTT V0200901N007212200019N9999999N1+01401+00901999999ADDMA1102401999999REMMET057METAR GMTT 080030Z AUTO 09014KT R28///// /// 14/09 Q1024;
0084601010999992012010801004+35733-005900FM-15+0021GMTT V0200901N008712200019N9999999N1+01501+00901999999ADDMA1102401999999REMMET057METAR GMTT 080100Z AUTO 09017KT R28///// /// 15/09 Q1024;
0084601010999992012010801304+35733-005900FM-15+0021GMTT V0200901N007712200019N9999999N1+01401+00901999999ADDMA1102401999999REMMET057METAR GMTT 080130Z AUTO 09015KT R28///// /// 14/09 Q1024;
0084601010999992012010802004+35733-005900FM-15+0021GMTT V0200901N007712200019N9999999N1+01401+00901999999ADDMA1102401999999REMMET057METAR GMTT 080200Z AUTO 09015KT R28///// /// 14/09 Q1024;
0084601010999992012010802304+35733-005900FM-15+0021GMTT V0200901N008212200019N9999999N1+01401+00901999999ADDMA1102401999999REMMET057METAR GMTT 080230Z AUTO 09016KT R28///// /// 14/09 Q1024;
0143601010999992012010803004+35733-005900SY-MT+0021GMTT V0200901N008219999999N9999999N1+01441+00881102441ADDMD1810021+9999REMSYN054AAXX  08034 60101 469// /0916 10144 20088 40244 58002;MET057METAR GMTT 080300Z AUTO 09016KT R28///// /// 14/09 Q1024;
0095601010999992012010803304+35733-005900FM-15+0021GMTT V0200901N008712200019N9999999N1+01501+00901999999ADDMA1102401999999OC101391REMMET060METAR GMTT 080330Z AUTO 09017G27KT R28///// /// 15/09 Q1024;
0084601010999992012010804004+35733-005900FM-15+0021GMTT V0200901N008712200019N9999999N1+01401+00801999999ADDMA1102301999999REMMET057METAR GMTT 080400Z AUTO 09017KT R28///// /// 14/08 Q1023;
0126601010999992012010804304+35733-005900FM-15+0021GMTT V0200901N008212200019N0080001N1+01401+00901999999ADDGA1021+004801999GF102991999999999999999999MA1102301999999REMMET057METAR GMTT 080430Z 09016KT 8000 FEW016 14/09 Q1023 NOSIG;
0126601010999992012010805004+35733-005900FM-15+0021GMTT V0200901N008212200019N0080001N1+01401+00801999999ADDGA1021+004801999GF102991999999999999999999MA1102301999999REMMET057METAR GMTT 080500Z 09016KT 8000 FEW016 14/08 Q1023 NOSIG;
0235601010999992012010806004+35733-005900SY-MT+0021GMTT V0200901N007712200019N0080001N1+01381+00841102391ADDGA1021+004801999GF102991021021004501001001KA1999N+01381MA1102301999999MD1810041+9999REMSYN076AAXX  08064 60101 32458 20915 10138 20084 40239 58004 82200 333 20138 82816;MET057METAR GMTT 080600Z 09015KT 8000 FEW016 14/08 Q1023 NOSIG;
0126601010999992012010807004+35733-005900FM-15+0021GMTT V0201001N007212200019N0080001N1+01401+00901999999ADDGA1021+004801999GF102991999999999999999999MA1102401999999REMMET057METAR GMTT 080700Z 10014KT 8000 FEW016 14/09 Q1024 NOSIG;
0149601010999992012010808004+35733-005900FM-15+0021GMTT V0201001N006212200019N0080001N1+01401+01001999999ADDGA1021+004801999GA2041+060001999GF104991999999999999999999MA1102401999999REMMET064METAR GMTT 080800Z 10012KT 8000 FEW016 SCT200 14/10 Q1024 NOSIG;
0149601010999992012010808304+35733-005900FM-15+0021GMTT V0201001N006210600019N0080001N1+01401+01001999999ADDGA1021+004801999GA2071+060001999GF107991999999999999999999MA1102511999999REMMET064METAR GMTT 080830Z 10012KT 8000 FEW016 BKN200 14/10 Q1025 NOSIG;
0264601010999992012010809004+35733-005900SY-MT+0021GMTT V0201001N007210600019N0100001N1+01461+01021102531ADDGA1021+004801999GA2071+060001999GF199999021021004501001041MA1102511999999MD1310141+9999REMSYN076AAXX  08094 60101 32460 61014 10146 20102 40253 53014 82204 333 82816 86070;MET064METAR GMTT 080900Z 10014KT 9999 FEW016 BKN200 15/10 Q1025 NOSIG;EQDQ01+000062SCOTCV
0149601010999992012010809304+35733-005900FM-15+0021GMTT V0201001N008710600019N0112651N1+01501+01001999999ADDGA1021+004801999GA2071+060001999GF107991999999999999999999MA1102511999999REMMET064METAR GMTT 080930Z 10017KT 9999 FEW016 BKN200 15/10 Q1025 NOSIG;
0149601010999992012010810004+35733-005900FM-15+0021GMTT V0201001N007710600019N0112651N1+01601+01101999999ADDGA1021+004801999GA2071+060001999GF107991999999999999999999MA1102511999999REMMET064METAR GMTT 081000Z 10015KT 9999 FEW016 BKN200 16/11 Q1025 NOSIG;
0149601010999992012010810304+35733-005900FM-15+0021GMTT V0201001N008210600019N0112651N1+01701+01101999999ADDGA1021+004801999GA2071+060001999GF107991999999999999999999MA1102511999999REMMET064METAR GMTT 081030Z 10016KT 9999 FEW016 BKN200 17/11 Q1025 NOSIG;
0162601010999992012010810544+35733-005900FM-15+0021GMTT V0201001N007712200019N0112651N1+01801+01101999999ADDGA1021+004801999GA2041+060001999GF104991999999999999999999MA1102511999999OC101291REMMET069METAR GMTT 081054Z 10015G25KT 9999 FEW016 SCT200 18/11 Q1025 M0NOSIG;
0149601010999992012010811004+35733-005900FM-15+0021GMTT V0201001N008712200019N0112651N1+01701+01101999999ADDGA1021+004801999GA2041+060001999GF104991999999999999999999MA1102511999999REMMET064METAR GMTT 081100Z 10017KT 9999 FEW016 SCT200 17/11 Q1025 NOSIG;
0149601010999992012010811304+35733-005900FM-15+0021GMTT V0200901N007712200019N0112651N1+01801+01101999999ADDGA1021+004801999GA2041+060001999GF104991999999999999999999MA1102511999999REMMET064METAR GMTT 081130Z 09015KT 9999 FEW016 SCT200 18/11 Q1025 NOSIG;
0245601010999992012010812004+35733-005900SY-MT+0021GMTT V0200901N007712200019N0100001N1+01831+01071102511ADDGA1021+004801999GA2041+060001999GF104991021021004501001021MA1102511999999MD1810021+9999REMSYN076AAXX  08124 60101 32460 40915 10183 20107 40251 58002 82202 333 82816 84070;MET064METAR GMTT 081200Z 09015KT 9999 FEW016 SCT200 18/11 Q1025 NOSIG;
0152601010999992012010812024+35733-005900FM-15+0021GMTT V0200901N007212200019N0112651N1+01801+01101999999ADDGA1021+004801999GA2041+060001999GF104991999999999999999999MA1102511999999REMMET067METAR GMTT 081202Z 09014KT 9999 FEW016 SCT200 18/11 Q1025 B0 NOSIG;
0149601010999992012010812304+35733-005900FM-15+0021GMTT V0200901N007712200019N0112651N1+01901+01001999999ADDGA1021+004801999GA2041+060001999GF104991999999999999999999MA1102401999999REMMET064METAR GMTT 081230Z 09015KT 9999 FEW016 SCT200 19/10 Q1024 NOSIG;
0149601010999992012010813004+35733-005900FM-15+0021GMTT V0201001N006710600019N0112651N1+01701+01001999999ADDGA1021+004801999GA2071+060001999GF107991999999999999999999MA1102401999999REMMET064METAR GMTT 081300Z 10013KT 9999 FEW016 BKN200 17/10 Q1024 NOSIG;
0149601010999992012010813304+35733-005900FM-15+0021GMTT V0201101N005110600019N0112651N1+01601+01001999999ADDGA1021+004801999GA2071+060001999GF107991999999999999999999MA1102401999999REMMET064METAR GMTT 081330Z 11010KT 9999 FEW016 BKN200 16/10 Q1024 NOSIG;
0149601010999992012010814004+35733-005900FM-15+0021GMTT V0201001N007210600019N0112651N1+01701+01001999999ADDGA1021+004801999GA2071+060001999GF107991999999999999999999MA1102301999999REMMET064METAR GMTT 081400Z 10014KT 9999 FEW016 BKN200 17/10 Q1023 NOSIG;
0149601010999992012010814304+35733-005900FM-15+0021GMTT V0201001N007210600019N0112651N1+01601+01001999999ADDGA1021+004801999GA2071+060001999GF107991999999999999999999MA1102301999999REMMET064METAR GMTT 081430Z 10014KT 9999 FEW016 BKN200 16/10 Q1023 NOSIG;
0264601010999992012010815004+35733-005900SY-MT+0021GMTT V0201001N006210600019N0100001N1+01601+00971102381ADDGA1021+004801999GA2071+060001999GF199999021021004501001021MA1102301999999MD1810131+9999REMSYN076AAXX  08154 60101 42460 51012 10160 20097 40238 58013 82202 333 82816 85070;MET064METAR GMTT 081500Z 10012KT 9999 FEW016 BKN200 16/10 Q1023 NOSIG;EQDQ01+000052SCOTCV
0149601010999992012010815304+35733-005900FM-15+0021GMTT V0200901N005710600019N0112651N1+01601+01001999999ADDGA1021+004801999GA2071+060001999GF107991999999999999999999MA1102301999999REMMET064METAR GMTT 081530Z 09011KT 9999 FEW016 BKN200 16/10 Q1023 NOSIG;
0149601010999992012010816004+35733-005900FM-15+0021GMTT V0200901N005710600019N0112651N1+01601+01001999999ADDGA1021+004801999GA2071+060001999GF107991999999999999999999MA1102301999999REMMET064METAR GMTT 081600Z 09011KT 9999 FEW016 BKN200 16/10 Q1023 NOSIG;
0078601010999992012010816304+35733-005900FM-15+0021GMTT V0200901N006219999999Y0099001N1+01601+01001999999ADDMA1102301999999REMMET051METAR GMTT 081630Z 09012KT CAVOK 16/10 Q1023 NOSIG;
0078601010999992012010817004+35733-005900FM-15+0021GMTT V0200901N005119999999Y0099001N1+01601+00901999999ADDMA1102301999999REMMET051METAR GMTT 081700Z 09010KT CAVOK 16/09 Q1023 NOSIG;
0078601010999992012010817304+35733-005900FM-15+0021GMTT V0200901N004119999999Y0099001N1+01401+00901999999ADDMA1102301999999REMMET051METAR GMTT 081730Z 09008KT CAVOK 14/09 Q1023 NOSIG;
0229601010999992012010818004+35733-005900SY-MT+0021GMTT V0201001N004110600019Y0100001N1+01351+00881102401ADDGA1051+060001001GF105991001001999999001021KA1120M+01871MA1102301999999MD1110021+9999REMSYN076AAXX  08184 60101 32960 51008 10135 20088 40240 51002 80002 333 10187 85070;MET051METAR GMTT 081800Z 10008KT CAVOK 14/09 Q1023 NOSIG;
0078601010999992012010818304+35733-005900FM-15+0021GMTT V0201001N004119999999Y0099001N1+01201+00901999999ADDMA1102401999999REMMET051METAR GMTT 081830Z 10008KT CAVOK 12/09 Q1024 NOSIG;
0126601010999992012010819004+35733-005900FM-15+0021GMTT V0201001N003112200019N0080001N1+01101+00801999999ADDGF100991999999999999999999MA1102401999999REMMET054METAR GMTT 081900Z 10006KT 8000 NSC 11/08 Q1024 NOSIG;EQDQ01    003SCCGA1
0126601010999992012010820004+35733-005900FM-15+0021GMTT V0200901N004112200019N0080001N1+01101+00901999999ADDGF100991999999999999999999MA1102401999999REMMET054METAR GMTT 082000Z 09008KT 8000 NSC 11/09 Q1024 NOSIG;EQDQ01    003SCCGA1
0126601010999992012010820304+35733-005900FM-15+0021GMTT V0200901N004112200019N0080001N1+01101+00801999999ADDGF100991999999999999999999MA1102401999999REMMET054METAR GMTT 082030Z 09008KT 8000 NSC 11/08 Q1024 NOSIG;EQDQ01    003SCCGA1
0197601010999992012010821004+35733-005900SY-MT+0021GMTT V0200901N004112200019N0080001N1+01101+00861102481ADDGF104991001001999999001021MA1102401999999MD1110071+9999REMSYN070AAXX  08214 60101 32958 40908 10110 20086 40248 51007 80002 333 84070;MET054METAR GMTT 082100Z 09008KT 8000 NSC 11/09 Q1024 NOSIG;
0126601010999992012010821304+35733-005900FM-15+0021GMTT V0200901N004112200019N0080001N1+01101+00901999999ADDGF100991999999999999999999MA1102401999999REMMET054METAR GMTT 082130Z 09008KT 8000 NSC 11/09 Q1024 NOSIG;EQDQ01    003SCCGA1
0126601010999992012010822004+35733-005900FM-15+0021GMTT V0201001N004612200019N0080001N1+01101+00901999999ADDGF100991999999999999999999MA1102401999999REMMET054METAR GMTT 082200Z 10009KT 8000 NSC 11/09 Q1024 NOSIG;EQDQ01    003SCCGA1
0126601010999992012010822304+35733-005900FM-15+0021GMTT V0201001N004112200019N0080001N1+01001+00801999999ADDGF100991999999999999999999MA1102511999999REMMET054METAR GMTT 082230Z 10008KT 8000 NSC 10/08 Q1025 NOSIG;EQDQ01    003SCCGA1
0149601010999992012010823004+35733-005900FM-15+0021GMTT V0201001N004112200019N0080001N1+01101+00801999999ADDGA1021+004801999GA2041+060001999GF104991999999999999999999MA1102511999999REMMET064METAR GMTT 082300Z 10008KT 8000 FEW016 SCT200 11/08 Q1025 NOSIG;
0149601010999992012010823304+35733-005900FM-15+0021GMTT V0201001N004612200019N0080001N1+01101+00901999999ADDGA1021+004801999GA2041+060001999GF104991999999999999999999MA1102511999999REMMET064METAR GMTT 082330Z 10009KT 8000 FEW016 SCT200 11/09 Q1025 NOSIG;
0245601010999992012010900004+35733-005900SY-MT+0021GMTT V0201001N004612200019N0080001N1+01071+00831102521ADDGA1021+004801999GA2041+060001999GF104991021051004501001021MA1102511999999MD1010041+9999REMSYN076AAXX  09004 60101 32458 41009 10107 20083 40252 50004 82502 333 82616 84070;MET064METAR GMTT 090000Z 10009KT 8000 FEW016 SCT200 11/08 Q1025 NOSIG;
0158601010999992012010900304+35733-005900FM-15+0021GMTT V0201001N005112200019N0080001N1+01101+00901999999ADDGA1021+004801999GA2041+060001999GF104991999999999999999999MA1102401999999REMMET073METAR GMTT 090030Z 10010KT 8000 R28///// FEW016 SCT200 11/09 Q1024 NOSIG;
0158601010999992012010901004+35733-005900FM-15+0021GMTT V0201001N004612200019N0080001N1+01101+00801999999ADDGA1021+004801999GA2041+060001999GF104991999999999999999999MA1102401999999REMMET073METAR GMTT 090100Z 10009KT 8000 R28///// FEW016 SCT200 11/08 Q1024 NOSIG;
0084601010999992012010901304+35733-005900FM-15+0021GMTT V0200901N004612200019N9999999N1+01101+00801999999ADDMA1102401999999REMMET057METAR GMTT 090130Z AUTO 09009KT R28///// /// 11/08 Q1024;
0084601010999992012010902004+35733-005900FM-15+0021GMTT V0200801N004112200019N9999999N1+01001+00801999999ADDMA1102401999999REMMET057METAR GMTT 090200Z AUTO 08008KT R28///// /// 10/08 Q1024;
0066601010999992012010902304+35733-005900FM-15+0021GMTT V02099999999992200019N9999999N1+01001+00801999999REMMET057METAR GMTT 090230Z AUTO /////KT R28///// /// 10/08 Q////;
0143601010999992012010903004+35733-005900SY-MT+0021GMTT V0200901N003619999999N9999999N1+00991+00731102471ADDMD1810051+9999REMSYN054AAXX  09034 60101 469// /0907 10099 20073 40247 58005;MET057METAR GMTT 090300Z AUTO /////KT R28///// /// 10/07 Q////;
0066601010999992012010903304+35733-005900FM-15+0021GMTT V02099999999992200019N9999999N1+01001+00701999999REMMET057METAR GMTT 090330Z AUTO /////KT R28///// /// 10/07 Q////;
0084601010999992012010904004+35733-005900FM-15+0021GMTT V0200901N003612200019N9999999N1+01001+00701999999ADDMA1102401999999REMMET057METAR GMTT 090400Z AUTO 09007KT R28///// /// 10/07 Q1024;
0149601010999992012010904304+35733-005900FM-15+0021GMTT V0201001N002612200019N0112651N1+00901+00701999999ADDGA1021+004801999GA2041+060001999GF104991999999999999999999MA1102401999999REMMET064METAR GMTT 090430Z 10005KT 9999 FEW016 SCT200 09/07 Q1024 NOSIG;
0149601010999992012010905004+35733-005900FM-15+0021GMTT V0200901N003612200019N0112651N1+00901+00701999999ADDGA1021+004801999GA2041+060001999GF104991999999999999999999MA1102401999999REMMET064METAR GMTT 090500Z 09007KT 9999 FEW016 SCT200 09/07 Q1024 NOSIG;
0149601010999992012010905304+35733-005900FM-15+0021GMTT V0200901N003112200019N0112651N1+00901+00701999999ADDGA1021+004801999GA2041+060001999GF104991999999999999999999MA1102401999999REMMET064METAR GMTT 090530Z 09006KT 9999 FEW016 SCT200 09/07 Q1024 NOSIG;
0264601010999992012010906004+35733-005900SY-MT+0021GMTT V0200901N003612200019N0100001N1+00881+00691102471ADDGA1021+004801999GA2041+060001999GF103991021051004501001021KA1999N+00871MA1102401999999MD1510001+9999REMSYN082AAXX  09064 60101 32460 30907 10088 20069 40247 55000 82502 333 20087 82616 83070;MET064METAR GMTT 090600Z 09007KT 9999 FEW016 SCT200 09/07 Q1024 NOSIG;
0149601010999992012010906304+35733-005900FM-15+0021GMTT V0200901N004112200019N0112651N1+00901+00701999999ADDGA1021+004801999GA2041+060001999GF104991999999999999999999MA1102401999999REMMET064METAR GMTT 090630Z 09008KT 9999 FEW016 SCT200 09/07 Q1024 NOSIG;
0149601010999992012010907004+35733-005900FM-15+0021GMTT V0200901N004112200019N0112651N1+01001+00801999999ADDGA1021+004801999GA2041+060001999GF104991999999999999999999MA1102401999999REMMET064METAR GMTT 090700Z 09008KT 9999 FEW016 SCT200 10/08 Q1024 NOSIG;
0149601010999992012010907304+35733-005900FM-15+0021GMTT V0200901N003612200019N0112651N1+00901+00701999999ADDGA1021+004801999GA2041+060001999GF104991999999999999999999MA1102511999999REMMET064METAR GMTT 090730Z 09007KT 9999 FEW016 SCT200 09/07 Q1025 NOSIG;
0149601010999992012010908004+35733-005900FM-15+0021GMTT V0200901N002612200019N0112651N1+00901+00701999999ADDGA1021+004801999GA2041+060001999GF104991999999999999999999MA1102511999999REMMET064METAR GMTT 090800Z 09005KT 9999 FEW016 SCT200 09/07 Q1025 NOSIG;
0149601010999992012010908304+35733-005900FM-15+0021GMTT V0200901N002612200019N0112651N1+00901+00701999999ADDGA1021+004801999GA2041+060001999GF104991999999999999999999MA1102511999999REMMET064METAR GMTT 090830Z 09005KT 9999 FEW016 SCT200 09/07 Q1025 NOSIG;
0264601010999992012010909004+35733-005900SY-MT+0021GMTT V0201101N002112200019N0100001N1+01081+00841102611ADDGA1021+004801999GA2041+060001999GF199999021051004501001021MA1102611999999MD1210141+9999REMSYN076AAXX  09094 60101 32460 31104 10108 20084 40261 52014 82502 333 82616 83070;MET064METAR GMTT 090900Z 11004KT 9999 FEW016 SCT200 11/08 Q1026 NOSIG;EQDQ01+000032SCOTCV
0149601010999992012010909304+35733-005900FM-15+0021GMTT V0200901N003112200019N0112651N1+01301+00901999999ADDGA1021+004801999GA2041+060001999GF104991999999999999999999MA1102611999999REMMET064METAR GMTT 090930Z 09006KT 9999 FEW016 SCT200 13/09 Q1026 NOSIG;
0149601010999992012010910004+35733-005900FM-15+0021GMTT V0201001N003612200019N0112651N1+01401+01001999999ADDGA1021+004801999GA2041+060001999GF104991999999999999999999MA1102611999999REMMET064METAR GMTT 091000Z 10007KT 9999 FEW016 SCT200 14/10 Q1026 NOSIG;
0149601010999992012010910304+35733-005900FM-15+0021GMTT V0201001N003612200019N0112651N1+01401+01001999999ADDGA1021+004801999GA2041+060001999GF104991999999999999999999MA1102611999999REMMET064METAR GMTT 091030Z 10007KT 9999 FEW016 SCT200 14/10 Q1026 NOSIG;
0149601010999992012010911004+35733-005900FM-15+0021GMTT V0201001N003612200019N0112651N1+01401+01001999999ADDGA1021+004801999GA2041+060001999GF104991999999999999999999MA1102611999999REMMET064METAR GMTT 091100Z 10007KT 9999 FEW016 SCT200 14/10 Q1026 NOSIG;
0149601010999992012010911304+35733-005900FM-15+0021GMTT V0201001N003612200019N0112651N1+01401+01001999999ADDGA1021+004801999GA2041+060001999GF104991999999999999999999MA1102611999999REMMET064METAR GMTT 091130Z 10007KT 9999 FEW016 SCT200 14/10 Q1026 NOSIG;
0078601010999992012010912004+35733-005900FM-15+0021GMTT V0201001N003619999999Y0099001N1+01401+01001999999ADDMA1102611999999REMMET051METAR GMTT 091200Z 10007KT CAVOK 14/10 Q1026 NOSIG;
0078601010999992012010912304+35733-005900FM-15+0021GMTT V0201001N003619999999Y0099001N1+01401+01001999999ADDMA1102611999999REMMET051METAR GMTT 091230Z 10007KT CAVOK 14/10 Q1026 NOSIG;
0078601010999992012010913004+35733-005900FM-15+0021GMTT V0201001N003619999999Y0099001N1+01401+01001999999ADDMA1102611999999REMMET051METAR GMTT 091300Z 10007KT CAVOK 14/10 Q1026 NOSIG;
0060601010999992012010914004+35733-005900FM-15+0021GMTT V02099999999999999999Y0099001N1+01901+00901999999REMMET051METAR GMTT 091400Z /////KT CAVOK 19/09 Q//// NOSIG;
0060601010999992012010914304+35733-005900FM-15+0021GMTT V02099999999999999999Y0099001N1+01901+00801999999REMMET051METAR GMTT 091430Z /////KT CAVOK 19/08 Q//// NOSIG;
0181601010999992012010915004+35733-005900SY-MT+0021GMTT V02099999999999999999Y0100001N1+01851+00901999999ADDGA1031+060001001GF103991001001999999001021REMSYN070AAXX  09154 60101 42960 3//// 10185 20090 4//// 5//// 80002 333 83070;MET051METAR GMTT 091500Z /////KT CAVOK 19/09 Q//// NOSIG;
0060601010999992012010915304+35733-005900FM-15+0021GMTT V02099999999999999999Y0099001N1+01801+00801999999REMMET051METAR GMTT 091530Z /////KT CAVOK 18/08 Q//// NOSIG;
0060601010999992012010916004+35733-005900FM-15+0021GMTT V02099999999999999999Y0099001N1+01701+00801999999REMMET051METAR GMTT 091600Z /////KT CAVOK 17/08 Q//// NOSIG;
0060601010999992012010916304+35733-005900FM-15+0021GMTT V02099999999999999999Y0099001N1+01601+00801999999REMMET051METAR GMTT 091630Z /////KT CAVOK 16/08 Q//// NOSIG;
0060601010999992012010917004+35733-005900FM-15+0021GMTT V02099999999999999999Y0099001N1+01501+00801999999REMMET051METAR GMTT 091700Z /////KT CAVOK 15/08 Q//// NOSIG;
0060601010999992012010917304+35733-005900FM-15+0021GMTT V02099999999999999999Y0099001N1+01401+00801999999REMMET051METAR GMTT 091730Z /////KT CAVOK 14/08 Q//// NOSIG;
0200601010999992012010918004+35733-005900SY-MT+0021GMTT V02099999999990600019Y0100001N1+01441+00811999999ADDGA1051+060001001GF105991001001999999001021KA1120M+01881REMSYN076AAXX  09184 60101 32960 5//// 10144 20081 4//// 5//// 80002 333 10188 85070;MET051METAR GMTT 091800Z /////KT CAVOK 14/08 Q//// NOSIG;
0060601010999992012010918304+35733-005900FM-15+0021GMTT V02099999999999999999Y0099001N1+01401+00801999999REMMET051METAR GMTT 091830Z /////KT CAVOK 14/08 Q//// NOSIG;
0060601010999992012010919004+35733-005900FM-15+0021GMTT V02099999999999999999Y0099001N1+01401+00801999999REMMET051METAR GMTT 091900Z /////KT CAVOK 14/08 Q//// NOSIG;
0060601010999992012010919304+35733-005900FM-15+0021GMTT V02099999999999999999Y0099001N1+01401+00801999999REMMET051METAR GMTT 091930Z /////KT CAVOK 14/08 Q//// NOSIG;
0060601010999992012010920004+35733-005900FM-15+0021GMTT V02099999999999999999Y0099001N1+01401+00801999999REMMET051METAR GMTT 092000Z /////KT CAVOK 14/08 Q//// NOSIG;
0060601010999992012010920304+35733-005900FM-15+0021GMTT V02099999999999999999Y0099001N1+01401+00801999999REMMET051METAR GMTT 092030Z /////KT CAVOK 14/08 Q//// NOSIG;
0195601010999992012010921004+35733-005900SY-MT+0021GMTT V02099999999990600019Y0100001N1+01441+00811999999ADDGA1051+060001001GF105991001001999999001021MD1110081+9999REMSYN070AAXX  09214 60101 42960 5//// 10144 20081 4//// 51008 80002 333 85070;MET051METAR GMTT 092100Z /////KT CAVOK 14/08 Q//// NOSIG;
0060601010999992012010921304+35733-005900FM-15+0021GMTT V02099999999999999999Y0099001N1+01401+00801999999REMMET051METAR GMTT 092130Z /////KT CAVOK 14/08 Q//// NOSIG;
0060601010999992012010922004+35733-005900FM-15+0021GMTT V02099999999999999999Y0099001N1+01301+00801999999REMMET051METAR GMTT 092200Z /////KT CAVOK 13/08 Q//// NOSIG;
0060601010999992012010922304+35733-005900FM-15+0021GMTT V02099999999999999999Y0099001N1+01401+00801999999REMMET051METAR GMTT 092230Z /////KT CAVOK 14/08 Q//// NOSIG;
0054601010999992012010923004+35733-005900FM-15+0021GMTT V02099999999999999999Y0099001N1+99999+99999999999REMMET045METAR GMTT 092300Z /////KT CAVOK Q//// NOSIG;
0060601010999992012010923304+35733-005900FM-15+0021GMTT V02099999999999999999Y0099001N1+01301+00801999999REMMET051METAR GMTT 092330Z /////KT CAVOK 13/08 Q//// NOSIG;
0060601010999992012011000004+35733-005900FM-15+0021GMTT V02099999999999999999Y0099001N1+01301+00901999999REMMET051METAR GMTT 100000Z /////KT CAVOK 13/09 Q//// NOSIG;
0054601010999992012011000304+35733-005900FM-15+0021GMTT V02099999999999999999Y0099001N1+99999+99999999999REMMET045METAR GMTT 100030Z /////KT CAVOK Q//// NOSIG;
0054601010999992012011001004+35733-005900FM-15+0021GMTT V02099999999999999999Y0099001N1+99999+99999999999REMMET045METAR GMTT 100100Z /////KT CAVOK Q//// NOSIG;
0060601010999992012011001304+35733-005900FM-15+0021GMTT V02099999999992200019N9999999N1+99999+99999999999REMMET051METAR GMTT 100130Z AUTO /////KT R28///// /// Q////;
0060601010999992012011002004+35733-005900FM-15+0021GMTT V02099999999992200019N9999999N1+99999+99999999999REMMET051METAR GMTT 100200Z AUTO /////KT R28///// /// Q////;
0060601010999992012011002304+35733-005900FM-15+0021GMTT V02099999999992200019N9999999N1+99999+99999999999REMMET051METAR GMTT 100230Z AUTO /////KT R28///// /// Q////;
0120601010999992012011003004+35733-005900SY-MT+0021GMTT V02099999999999999999N9999999N1+99999+99999999999REMSYN054AAXX  10034 60101 469// ///// 1//// 2//// 4//// 5////;MET051METAR GMTT 100300Z AUTO /////KT R28///// /// Q////;
0060601010999992012011003304+35733-005900FM-15+0021GMTT V02099999999992200019N9999999N1+99999+99999999999REMMET051METAR GMTT 100330Z AUTO /////KT R28///// /// Q////;
0120601010999992012011004004+35733-005900FM-15+0021GMTT V02099999999992200019N0080001N1+01301+00801999999ADDGF100991999999999999999999REMMET063METAR GMTT 100400Z /////KT 8000 R28///// NSC 13/08 Q//// NOSIG;EQDQ01    003SCCGA1
0114601010999992012011004304+35733-005900FM-15+0021GMTT V02099999999992200019N0080001N1+99999+99999999999ADDGF100991999999999999999999REMMET057METAR GMTT 100430Z /////KT 8000 R28///// NSC Q//// NOSIG;EQDQ01    003SCCGA1
0114601010999992012011005004+35733-005900FM-15+0021GMTT V02099999999992200019N0080001N1+99999+99999999999ADDGF100991999999999999999999REMMET057METAR GMTT 100500Z /////KT 8000 R28///// NSC Q//// NOSIG;EQDQ01    003SCCGA1
0060601010999992012011005304+35733-005900FM-15+0021GMTT V02099999999992200019N9999999N1+99999+99999999999REMMET051METAR GMTT 100530Z AUTO /////KT R28///// /// Q////;
0136601010999992012011006004+35733-005900SY-MT+0021GMTT V02099999999999999999N9999999N1+99999+99999999999REMSYN070AAXX  10064 60101 469// ///// 1//// 2//// 4//// 5//// 333 2//// 3////;MET051METAR GMTT 100600Z AUTO /////KT R28///// /// Q////;
0060601010999992012011006304+35733-005900FM-15+0021GMTT V02099999999992200019N9999999N1+99999+99999999999REMMET051METAR GMTT 100630Z AUTO /////KT R28///// /// Q////;
0126601010999992012011007004+35733-005900FM-15+0021GMTT V0201001N008212200019N0080001N1+01301+00801999999ADDGF100991999999999999999999MA1102611999999REMMET054METAR GMTT 100700Z 10016KT 8000 NSC 13/08 Q1026 NOSIG;EQDQ01    003SCCGA1
0111601010999992012011007304+35733-005900FM-15+0021GMTT V02099999999992200019N0080001N1+01301+00801999999ADDGF100991999999999999999999REMMET054METAR GMTT 100730Z /////KT 8000 NSC 13/08 Q//// NOSIG;EQDQ01    003SCCGA1
0120601010999992012011008004+35733-005900FM-15+0021GMTT V02099999999992200019N0080001N1+01301+00801999999ADDGF100991999999999999999999REMMET063METAR GMTT 100800Z /////KT 8000 R28///// NSC 13/08 Q//// NOSIG;EQDQ01    003SCCGA1
0054601010999992012011010004+35733-005900FM-15+0021GMTT V02099999999999999999Y0099001N1+99999+99999999999REMMET045METAR GMTT 101000Z /////KT CAVOK Q//// NOSIG;
0060601010999992012011010304+35733-005900FM-15+0021GMTT V02099999999999999999Y0099001N1+01601+00901999999REMMET051METAR GMTT 101030Z /////KT CAVOK 16/09 Q//// NOSIG;
0078601010999992012011011004+35733-005900FM-15+0021GMTT V0201001N010819999999Y0099001N1+01701+00901999999ADDMA1102711999999REMMET051METAR GMTT 101100Z 10021KT CAVOK 17/09 Q1027 NOSIG;
0078601010999992012011011304+35733-005900FM-15+0021GMTT V0201001N010319999999Y0099001N1+01701+00901999999ADDMA1102711999999REMMET051METAR GMTT 101130Z 10020KT CAVOK 17/09 Q1027 NOSIG;
0203601010999992012011012004+35733-005900SY-MT+0021GMTT V0201001N009810600019Y0100001N1+99999+99999999999ADDGA1051+060001001GF105991001001999999001021KA1999M+00191MA1102701999999REMSYN070AAXX  10124 60101 32960 51019 1//// 2//// 4//// 5//// 80002 333 85070;MET045METAR GMTT 101200Z 10019KT CAVOK Q1027 NOSIG;
0099601010999992012011012204+35733-005900FM-15+0021GMTT V0201001N009819999999Y0099001N1+99999+99999999999ADDKA1999M+00191MA1102701999999OC101491REMMET051METAR GMTT 101220Z 10019G29KT CAVOK Q1027 NOSIG MO;
0096601010999992012011012304+35733-005900FM-15+0021GMTT V0201001N009819999999Y0099001N1+99999+99999999999ADDKA1999M+00191MA1102701999999OC101491REMMET048METAR GMTT 101230Z 10019G29KT CAVOK Q1027 NOSIG;
0072601010999992012011013004+35733-005900FM-15+0021GMTT V0200901N010319999999Y0099001N1+99999+99999999999ADDMA1102601999999REMMET045METAR GMTT 101300Z 09020KT CAVOK Q1026 NOSIG;
0085601010999992012011013304+35733-005900FM-15+0021GMTT V0201001N008719999999Y0099001N1+99999+99999999999ADDKA1999M+00171MA1102601999999REMMET045METAR GMTT 101330Z 10017KT CAVOK Q1026 NOSIG;
0072601010999992012011014004+35733-005900FM-15+0021GMTT V0200901N009319999999Y0099001N1+99999+99999999999ADDMA1102601999999REMMET045METAR GMTT 101400Z 09018KT CAVOK Q1026 NOSIG;
