0146601010999991988010100004+35733-005900SY-MT+0021GMTT V0203201N01131004801CN0100001N1+01331+00591102181ADDAA106000091AG14000GA1051+004809089GF105991051021004501001001MA1102101999999MD1210111+9999MW1001REMSYN011333   85816MET003NG?EQDQ01+000000PRSWM2
0072601010999991988010100304+35733-005900FM-15+0021GMTT V0203201N01131004801CN0112001N1+01301+00601999999ADDAG11999GA1051+004809089MA1102101999999REMMET003NG?EQDQ01+000000PRSWM2
0060601010999991988010101004+35733-005900FM-15+0021GMTT V0203201N01031004801CN0112001N1+01301+00601999999ADDAG11999GA1051+004809089MA1102101999999EQDQ01+000000PRSWM2
0060601010999991988010101304+35733-005900FM-15+0021GMTT V0203201N01131004801CN0112001N1+99999+99999999999ADDAG11999GA1051+004809089MA1102101999999EQDQ01+000000PRSWM2
0080601010999991988010102004+35733-005900FM-15+0021GMTT V0203401N01131004801CN0112001N1+01301+00601999999ADDAG11999GA1051+004809089MA1102101999999OC101651REMMET003NG?EQDQ01+000000PRSWM2
0080601010999991988010102304+35733-005900FM-15+0021GMTT V0203401N01031220001CN0112001N1+01301+00601999999ADDAG12000GA1041+006009089MA1102101999999OC101541REMMET003NG?EQDQ01+000000PRSWM2
0154601010999991988010103004+35733-005900SY-MT+0021GMTT V0203201N01341004801CN0100001N1+01281+00501102181ADDAA106000091AG14000GA1051+004809089GF105991051021004501001001MA1102101999999MD1510001+9999MW1001OC101851REMSYN011333   85816MET003NG?EQDQ01+000000PRSWM2
0080601010999991988010103304+35733-005900FM-15+0021GMTT V0203201N01241004801CN0112001N1+01301+00501999999ADDAG12999GA1051+004809089MA1102101999999OC101751REMMET003NG?EQDQ01+000000PRSWM2
0080601010999991988010104004+35733-005900FM-15+0021GMTT V0203201N01241004801CN0112001N1+01301+00501999999ADDAG12999GA1051+004809089MA1102201999999OC101751REMMET003NG?EQDQ01+000000PRSWM2
0072601010999991988010105004+35733-005900FM-15+0021GMTT V0203401N00821004801CN0112001N1+01201+00701999999ADDAG12999GA1051+004809089MA1102201999999REMMET003NG?EQDQ01+000000PRSWM2
0072601010999991988010105304+35733-005900FM-15+0021GMTT V0203401N00821004801CN0112001N1+01201+00701999999ADDAG12000GA1051+004809089MA1102201999999REMMET003NG?EQDQ01+000000PRSWM2
0165601010999991988010106004+35733-005900SY-MT+0021GMTT V0200801N00211220001CN0100001N1+01031+00471102261ADDAA124011091AG10000GA1041+004809089GF104991041021004501001001KA1120N+01031MA1102201999999MD1110081+9999MW1001REMSYN017333   20103 84816MET003NG?EQDQ01+000000PRSWM2
0072601010999991988010106304+35733-005900FM-15+0021GMTT V0200801N00211220001CN0112001N1+01001+00501999999ADDAG12999GA1041+004809089MA1102201999999REMMET003NG?EQDQ01+000000PRSWM2
0060601010999991988010107004+35733-005900FM-15+0021GMTT V0200401N00511220001CN0112001N1+01001+00501999999ADDAG12999GA1041+004809089MA1102201999999EQDQ01+000000PRSWM2
0072601010999991988010107304+35733-005900FM-15+0021GMTT V0200401N00511220001CN0112001N1+01001+00501999999ADDAG12999GA1041+004809089MA1102201999999REMMET003NG?EQDQ01+000000PRSWM2
0076601010999991988010108004+35733-005900FM-15+0021GMTT V0203601N00931030001CN0112001N1+01101+00701999999ADDAG12999GA1041+004809089GA2031+030009039MA1102301999999EQDQ01+000000PRSWM2
0073601010999991988010108304+35733-005900FM-15+0021GMTT V0203601N00821220001CN0112001N1+01101+00701999999ADDAG12000GA1041+999999089MA1102301999999REMMET004NSG?EQDQ01+000000PRSWM2
0159601010999991988010109004+35733-005900SY-MT+0021GMTT V0200401N00621030001CN0150001N1+01061+00591102421ADDAA106000091AG14000GA1031+004809089GA2061+030009039GF106991031021004501081001MA1102401999999MD1210161+9999MW1001REMSYN017333   83816 86360EQDQ01+000000PRSWM2
0089601010999991988010109304+35733-005900FM-15+0021GMTT V0200201N00511030001CN0112001N1+01101+00601999999ADDAG12999GA1031+004809089GA2051+030009039MA1102401999999REMMET004NSG?EQDQ01+000000PRSWM2
0119601010999991988010112004+35733-005900FM-12+0021GMTT V0203201N00511069001CN0150001N9+01321+00741102541ADDAA106000091AG14000GA1011+004809089GA2051+069009009GF106991011021004501081021MD1310121+9999REMSYN017333   81816 85073
0079601010999991988010113004+35733-005900FM-15+0021GMTT V0203201N008219999999N9999999N9+99999+99999999999ADDAG12999REMMET025T 99EEE CAVOK 13/06 1024?EQDQ01+000002VOVAR Q02+000000PRSWM2
0063601010999991988010113304+35733-005900FM-15+0021GMTT V0203201N00511999991CY0099001N1+01301+00601999999ADDAG12999MA1102401999999REMMET010CAVOK NSG?EQDQ01+000000PRSWM2
0063601010999991988010114004+35733-005900FM-15+0021GMTT V0203001N00821999991CY0099001N1+01301+00801999999ADDAG12999MA1102401999999REMMET010CAVOK NSG?EQDQ01+000000PRSWM2
0159601010999991988010115004+35733-005900SY-MT+0021GMTT V0203201N00721220001CN0150001N1+01401+00721102471ADDAA106000091AG14000GA1021+030009039GF104991021001999999081021MA1102401999999MD1610071+9999MW1001REMSYN017333   82360 83073MET010CAVOK NSG?EQDQ01+000000PRSWM2
0063601010999991988010115304+35733-005900FM-15+0021GMTT V0203201N00621999991CY0099001N1+01401+00701999999ADDAG12999MA1102401999999REMMET010CAVOK NSG?EQDQ01+000000PRSWM2
0138601010999991988010118004+35733-005900FM-12+0021GMTT V0203601N00511069001CN0100001N9+01151+00791102561ADDAA106000091AG14000GA1021+030009039GA2051+069009009GF106991999999999999999999KA1120M+01431MD1310091+9999REMSYN023333   10143 82360 85073
0063601010999991988010118304+35733-005900FM-15+0021GMTT V0203601N00511999991CY0099001N1+01201+00801999999ADDAG12001MA1102511999999REMMET010CAVOK NSG?EQDQ01+000000PRSWM2
0063601010999991988010119004+35733-005900FM-15+0021GMTT V0200401N00311999991CY0099001N1+01201+00701999999ADDAG12999MA1102511999999REMMET010CAVOK NSG?EQDQ01+000000PRSWM2
0063601010999991988010120004+35733-005900FM-15+0021GMTT V0203201N00101999991CY0099001N1+01101+00601999999ADDAG12999MA1102611999999REMMET010CAVOK NSG?EQDQ01+000000PRSWM2
0063601010999991988010120304+35733-005900FM-15+0021GMTT V0203401N00151999991CY0099001N1+01101+00601999999ADDAG12000MA1102611999999REMMET010CAVOK NQG?EQDQ01+000000PRSWM2
0120601010999991988010121004+35733-005900SY-MT+0021GMTT V0200401N00211220001CN0100001N1+00801+00541102661ADDAA106000091AG14000GF100991001001999999001001MA1102611999999MD1210101+9999MW1001REMMET010CAVOK NSG?EQDQ01+000000PRSWM2
0063601010999991988010121304+35733-005900FM-15+0021GMTT V0209991C00001999991CY0099001N1+00801+00501999999ADDAG12999MA1102611999999REMMET010CAVOK NSG?EQDQ01+000000PRSWM2
0063601010999991988010122004+35733-005900FM-15+0021GMTT V0202401N00261999991CY0099001N1+00801+00501999999ADDAG12999MA1102611999999REMMET010CAVOK NSG?EQDQ01+000000PRSWM2
0063601010999991988010123004+35733-005900FM-15+0021GMTT V0209991C00001999991CY0099001N1+00801+00501999999ADDAG12999MA1102711999999REMMET010CAVOK NSG?EQDQ01+000000PRSWM2
0063601010999991988010123304+35733-005900FM-15+0021GMTT V0209991C00001999991CY0099001N1+00801+00501999999ADDAG12000MA1102711999999REMMET010CAVOK NSG?EQDQ01+000000PRSWM2
0120601010999991988010200004+35733-005900SY-MT+0021GMTT V0201001N00211220001CN0100001N1+00601+00511102671ADDAA106000091AG14000GF100991001001999999001001MA1102611999999MD1310011+9999MW1001REMMET010CAVOK NSG?EQDQ01+000000PRSWM2
0063601010999991988010201004+35733-005900FM-15+0021GMTT V0209991C00001999991CY0099001N1+00601+00501999999ADDAG11999MA1102611999999REMMET010CAVOK NSG?EQDQ01+000000PRSWM2
0063601010999991988010201304+35733-005900FM-15+0021GMTT V0209991C00001999991CY0099001N1+00601+00501999999ADDAG11999MA1102611999999REMMET010CAVOK NSG?EQDQ01+000000PRSWM2
0063601010999991988010202004+35733-005900FM-15+0021GMTT V0209991C00001999991CY0099001N1+00601+00501999999ADDAG11999MA1102611999999REMMET010CAVOK NSG?EQDQ01+000000PRSWM2
0063601010999991988010202304+35733-005900FM-15+0021GMTT V0209991C00001999991CY0099001N1+00601+00501999999ADDAG12000MA1102611999999REMMET010CAVOK NSG?EQDQ01+000000PRSWM2
0120601010999991988010203004+35733-005900SY-MT+0021GMTT V0209991C00001220001CN0100001N1+00491+00371102641ADDAA106000091AG14000GF100991001001999999001001MA1102611999999MD1610031+9999MW1001REMMET010CAVOK NSG?EQDQ01+000000PRSWM2
0063601010999991988010203304+35733-005900FM-15+0021GMTT V0209991C00001999991CY0099001N1+00501+00401999999ADDAG12999MA1102611999999REMMET010CAVOK NSG?EQDQ01+000000PRSWM2
0063601010999991988010204004+35733-005900FM-15+0021GMTT V0209991C00001999991CY0099001N1+00501+00401999999ADDAG12999MA1102611999999REMMET010CAVOK NSG?EQDQ01+000000PRSWM2
0063601010999991988010204304+35733-005900FM-15+0021GMTT V0209991C00001999991CY0099001N1+00501+00401999999ADDAG12999MA1102611999999REMMET010CAVOK NSG?EQDQ01+000000PRSWM2
0063601010999991988010205004+35733-005900FM-15+0021GMTT V0209991C00001999991CY0099001N1+00501+00301999999ADDAG12999MA1102611999999REMMET010CAVOK NSG?EQDQ01+000000PRSWM2
0063601010999991988010205304+35733-005900FM-15+0021GMTT V0209991C00001999991CY0099001N1+00501+00301999999ADDAG12000MA1102611999999REMMET010CAVOK NSG?EQDQ01+000000PRSWM2
0150601010999991988010206004+35733-005900SY-MT+0021GMTT V0209991C00001220001CN0100001N1+00371+00301102621ADDAA106000091AG14000GF100991001001999999001001KA1120N+00371MA1102611999999MD1510061+9999MW1001REMSYN011333   20037MET010CAVOK NSG?EQDQ01+000000PRSWM2
0063601010999991988010206304+35733-005900FM-15+0021GMTT V0209991C00001999991CY0099001N1+00401+00301999999ADDAG12999MA1102611999999REMMET010CAVOK NSG?EQDQ01+000000PRSWM2
0063601010999991988010207004+35733-005900FM-15+0021GMTT V0209991C00001999991CY0099001N1+00401+00301999999ADDAG12999MA1102611999999REMMET010CAVOK NSG?EQDQ01+000000PRSWM2
0063601010999991988010207304+35733-005900FM-15+0021GMTT V0209991C00001999991CY0099001N1+00401+00301999999ADDAG12999MA1102611999999REMMET010CAVOK NSG?EQDQ01+000000PRSWM2
0060601010999991988010208004+35733-005900FM-15+0021GMTT V0209991C00001220001CN0112001N1+00401+00301999999ADDAG12999GA1011+004809059MA1102711999999EQDQ01+000000PRSWM2
0060601010999991988010208304+35733-005900FM-15+0021GMTT V0209991C00001220001CN0112001N1+00401+00301999999ADDAG12000GA1011+004809059MA1102711999999EQDQ01+000000PRSWM2
0060601010999991988010209004+35733-005900FM-15+0021GMTT V0209991C00001220001CN0112001N1+00701+00601999999ADDAG12000GA1021+004809059MA1102811999999EQDQ01+000000PRSWM2
0060601010999991988010209304+35733-005900FM-15+0021GMTT V0209991C00001220001CN0112001N1+00701+00601999999ADDAG12999GA1031+004809059MA1102811999999EQDQ01+000000PRSWM2
0060601010999991988010210004+35733-005900FM-15+0021GMTT V0209991C00001220001CN0112001N1+01001+00701999999ADDAG12999GA1031+004809059MA1102811999999EQDQ01+000000PRSWM2
0060601010999991988010211304+35733-005900FM-15+0021GMTT V0202201N00311220001CN0112001N1+01401+00901999999ADDAG12000GA1011+004809059MA1102911999999EQDQ01+000000PRSWM2
0147601010999991988010212004+35733-005900SY-MT+0021GMTT V0202801N00211220001CN0150001N1+01461+00861102941ADDAA106000091AG14000GA1011+004809059GF101991011051004501001001MA1102911999999MD1110121+9999MW1001REMSYN011333   81616MET004NSG?EQDQ01+000000PRSWM2
0073601010999991988010212304+35733-005900FM-15+0021GMTT V0202801N00311220001CN0112001N1+01501+00901999999ADDAG12999GA1021+004809059MA1102811999999REMMET004NSG?EQDQ01+000000PRSWM2
0073601010999991988010213004+35733-005900FM-15+0021GMTT V0202801N00211220001CN0112001N1+01501+00901999999ADDAG12999GA1021+004809059MA1102911999999REMMET004NSG?EQDQ01+000000PRSWM2
0057601010999991988010213304+35733-005900FM-15+0021GMTT V0203001N00261220001CN0112001N1+01501+00901999999ADDAG12999MA1102911999999REMMET004NSG?EQDQ01+000000PRSWM2
0073601010999991988010214004+35733-005900FM-15+0021GMTT V0202601N00311220001CN0112001N1+01401+00801999999ADDAG12999GA1041+004809059MA1102811999999REMMET004NSG?EQDQ01+000000PRSWM2
0073601010999991988010214304+35733-005900FM-15+0021GMTT V0202801N00211220001CN0112001N1+01401+00801999999ADDAG12000GA1041+004809059MA1102811999999REMMET004NSG?EQDQ01+000000PRSWM2
0097601010999991988010215004+35733-005900FM-12+0021GMTT V0202801N00311220001CN0150001N9+01551+00971102781ADDAA106000091AG14000GA1021+004809059GF102991021051004501001021MD1610161+9999REMSYN011333   82616
0073601010999991988010215304+35733-005900FM-15+0021GMTT V0203001N00261220001CN0112001N1+01601+01001999999ADDAG12999GA1021+004809059MA1102711999999REMMET004NSG?EQDQ01+000000PRSWM2
0073601010999991988010216004+35733-005900FM-15+0021GMTT V0203001N00151220001CN0112001N1+01501+00801999999ADDAG12999GA1021+004809059MA1102711999999REMMET004NSG?EQDQ01+000000PRSWM2
0073601010999991988010216304+35733-005900FM-15+0021GMTT V0203001N00211220001CN0112001N1+01501+00801999999ADDAG12999GA1021+004809059MA1102711999999REMMET004NSG?EQDQ01+000000PRSWM2
0089601010999991988010217004+35733-005900FM-15+0021GMTT V0202601N00101220001CN0112001N1+01501+01001999999ADDAG12999GA1011+004809059GA2031+069009009MA1102711999999REMMET004NSG?EQDQ01+000000PRSWM2
0089601010999991988010217304+35733-005900FM-15+0021GMTT V0209991C00001220001CN0112001N1+01501+01001999999ADDAG12000GA1011+004809059GA2031+069009009MA1102711999999REMMET004NSG?EQDQ01+000000PRSWM2
0188601010999991988010218004+35733-005900SY-MT+0021GMTT V0209991C00001220001CN0100001N1+01271+00941102801ADDAA106000091AG14000GA1011+004809059GA2031+069009009GF103991011051004501001021KA1120M+01571MA1102811999999MD1310011+9999MW1001REMSYN023333   10157 81616 83073MET004NSG?EQDQ01+000000PRSWM2
0072601010999991988010218304+35733-005900FM-15+0021GMTT V0209991C00001220001CN0112001N1+01301+00901999999ADDAG12999GA1011+004809059GA2031+069009009REMMET0022?EQDQ01+000000PRSWM2
0089601010999991988010219304+35733-005900FM-15+0021GMTT V0209991C00001220001CN0112001N1+01201+00801999999ADDAG12999GA1011+004809059GA2031+069009009MA1102711999999REMMET004NSG?EQDQ01+000000PRSWM2
0089601010999991988010220304+35733-005900FM-15+0021GMTT V0209991C00001069001CN0112001N1+01101+00901999999ADDAG12000GA1031+004809059GA2031+069009009MA1102811999999REMMET004NSG?EQDQ01+000000PRSWM2
0153601010999991988010221004+35733-005900SY-MT+0021GMTT V0209991C00001004801CN0100001N1+01121+00961102851ADDAA106000091AG14000GA1051+004809059GF105991051051004501001021MA1102811999999MD1310051+9999MW1001REMSYN017333   85616 83073MET004NSG?EQDQ01+000000PRSWM2
0089601010999991988010221304+35733-005900FM-15+0021GMTT V0209991C00001004801CN0112001N1+01101+01001999999ADDAG12999GA1051+004809059GA2031+069009009MA1102811999999REMMET004NSG?EQDQ01+000000PRSWM2
0073601010999991988010222004+35733-005900FM-15+0021GMTT V0209991C00001220001CN0112001N1+01101+01001999999ADDAG12999GA1031+004809059MA1102811999999REMMET004NSG?EQDQ01+000000PRSWM2
0073601010999991988010223004+35733-005900FM-15+0021GMTT V0209991C00001220001CN0112001N1+01001+00901999999ADDAG12999GA1031+004809059MA1102911999999REMMET004NSG?EQDQ01+000000PRSWM2
0073601010999991988010223304+35733-005900FM-15+0021GMTT V0209991C00001220001CN0112001N1+01001+00901999999ADDAG12000GA1031+004809059MA1102911999999REMMET004NSG?EQDQ01+000000PRSWM2
0073601010999991988010300004+35733-005900FM-15+0021GMTT V0202601N00211004801CN0112001N1+01201+01001999999ADDAG12000GA1051+004809059MA1102911999999REMMET004NSG?EQDQ01+000000PRSWM2
0089601010999991988010301004+35733-005900FM-15+0021GMTT V0209991C00001004501CN0080001N1+01201+01001999999ADDAG11999GA1051+004509089GA2051+027009039MA1102911999999REMMET004NSG?EQDQ01+000000PRSWM2
0089601010999991988010301304+35733-005900FM-15+0021GMTT V0202401N00211004501CN0080001N1+01201+01001999999ADDAG11999GA1051+004509089GA2051+027009039MA1102911999999REMMET004NSG?EQDQ01+000000PRSWM2
0089601010999991988010302004+35733-005900FM-15+0021GMTT V0202401N00211004501CN0080001N1+01201+01001999999ADDAG11999GA1051+004509089GA2061+027009039MA1102811999999REMMET004NSG?EQDQ01+000000PRSWM2
0089601010999991988010302304+35733-005900FM-15+0021GMTT V0202401N00411004501CN0080001N1+01201+01001999999ADDAG12000GA1051+004509089GA2061+027009039MA1102811999999REMMET004NSG?EQDQ01+000000PRSWM2
0169601010999991988010303004+35733-005900SY-MT+0021GMTT V0202401N00621004501CN0080001N1+01281+01091102871ADDAA106000091AG14000GA1051+004509089GA2061+027009039GF107991051021004501071999MA1102811999999MD1810041+9999MW1001REMSYN017333   85815 86359MET004NSG?EQDQ01+000000PRSWM2
0092601010999991988010303304+35733-005900FM-15+0021GMTT V0202401N00621004501CN0080001N1+01301+01101999999ADDAG12999GA1021+002409079GA2051+004509089GA3061+027009039MA1102811999999MW1601REMMET004NSG?
0092601010999991988010304004+35733-005900FM-15+0021GMTT V0202401N00511004501CN0080001N1+01301+01101999999ADDAG12999GA1021+002409079GA2051+004509089GA3061+027009039MA1102811999999MW1211REMMET004NSG?
0114601010999991988010304304+35733-005900FM-15+0021GMTT V0202401N00621004501CN0080001N1+01301+01101999999ADDAG12999GA1021+002409079GA2051+004509089GA3061+027009039MA1102911999999MW1601REMMET026E          ?     1028 NSG?
0092601010999991988010305004+35733-005900FM-15+0021GMTT V0202401N00621004501CN0060001N1+01201+01101999999ADDAG12999GA1021+002409079GA2051+004509089GA3061+027009039MA1102811999999MW1601REMMET004NSG?
0092601010999991988010305304+35733-005900FM-15+0021GMTT V0202601N00721004501CN0060001N1+01201+01101999999ADDAG12003GA1021+002409079GA2051+004509089GA3061+027009039MA1102811999999MW1211REMMET004NSG?
0207601010999991988010306004+35733-005900SY-MT+0021GMTT V0202601N00771004501CN0060001N1+01231+01061102831ADDAA124000391AG10001AY161061AY221061GA1021+002409079GA2051+004509089GA3061+027009039GF108991061021002501071999KA1120N+00851MA1102811999999MD1810041+9999MW1601REMSYN029333   20085 82708 85815 86459MET004NSG?
0092601010999991988010306304+35733-005900FM-15+0021GMTT V0202601N00771004501CN0060001N1+01201+01101999999ADDAG12999GA1021+002409079GA2051+004509089GA3061+027009039MA1102811999999MW1601REMMET004NSG?
0092601010999991988010307004+35733-005900FM-15+0021GMTT V0202601N00771004501CN0060001N1+01201+01101999999ADDAG12999GA1021+002409079GA2051+004509089GA3061+027009039MA1102811999999MW1601REMMET004NSG?
0092601010999991988010308004+35733-005900FM-15+0021GMTT V0202601N00821004501CN0060001N1+01201+01101999999ADDAG12999GA1021+002409079GA2051+004509089GA3061+027009039MA1102911999999MW1211REMMET004NSG?
0092601010999991988010308304+35733-005900FM-15+0021GMTT V0202601N00931004501CN0060001N1+01201+01101999999ADDAG12003GA1021+002409079GA2051+004509089GA3061+027009039MA1102911999999MW1211REMMET004NSG?
0177601010999991988010309004+35733-005900SY-MT+0021GMTT V0202201N00821004501CN0050001N1+01231+01101102901ADDAG12001AY161031AY221031GA1021+002409079GA2051+004509089GA3061+027009039GF108991061021002501071999MA1102911999999MD1010071+9999MW1601REMSYN023333   82708 85815 86459MET004NSG?
0092601010999991988010310004+35733-005900FM-15+0021GMTT V0202201N00931004501CN0050001N1+01301+01101999999ADDAG12999GA1021+002409079GA2051+004509089GA3061+027009039MA1102911999999MW1211REMMET004NSG?
0098601010999991988010310304+35733-005900FM-15+0021GMTT V0202201N01031004501CN0070001N1+01301+01101999999ADDAG12999GA1021+002409079GA2051+004509089GA3061+027009039MA1102911999999MW1211OC101541REMMET002G?
0113601010999991988010311004+35733-005900FM-15+0021GMTT V0202201N01031004501CN0070001N1+01301+01201999999ADDAG12999GA1021+002409079GA2051+004509089GA3061+027009039MA1103011999999OC101541REMMET004NSG?EQDQ01+000000PRSWM2
0163601010999991988010312004+35733-005900FM-12+0021GMTT V0202201N01031004501CN0060001N9+01341+01231103071ADDAA106000591AG10001AY161061AY221061GA1021+002409079GA2051+004509089GA3061+027009049GF108991061021002501071999MD1110171+9999MW1211REMSYN023333   82708 85815 86459
0092601010999991988010313004+35733-005900FM-15+0021GMTT V0202201N01031004501CN0060001N1+01301+01201999999ADDAG12999GA1021+002409079GA2051+004509089GA3061+027009039MA1103011999999MW1601REMMET004NSG?
0092601010999991988010313304+35733-005900FM-15+0021GMTT V0202001N00621001801CN9999999N9+01301+01201999999ADDAG12999GA1061+001809079GA2051+003909059MA1103011999999EQDQ01+000002VOVAR Q02+000000PRSWM2
0140601010999991988010314004+35733-005900FM-15+0021GMTT V0202201N00621001801CN9999999N9+01401+01301999999ADDAG12999GA1061+001809079GA2051+003909059KA1999M+99999KA2999N+99999MA1102911999999MW1581EQDQ01+000002VOVAR Q02 -09752ATMN  Q03 -09752ATMX  
0063601010999991988010314304+35733-005900FM-15+0021GMTT V0202201N00621001801CN0040001N1+01401+01301999999ADDAG12004GA1061+001809079GA2051+003909059MA1102911999999MW1581
0108601010999991988010315004+35733-005900FM-12+0021GMTT V0202201N00671001801CN0040001N9+01401+01331102911ADDAG12000GA1061+001809079GA2051+003909059GF108991081061002501999999MD1710161+9999REMSYN017333   86706 85613
0063601010999991988010317004+35733-005900FM-15+0021GMTT V0202201N00511003901CN0060001N1+01401+01301999999ADDAG12999GA1031+001809079GA2061+003909059MA1102911999999MW1211
0194601010999991988010318004+35733-005900SY-MT+0021GMTT V0202201N00311003901CN0060001N1+01381+01331102911ADDAA199002091AG10001AY161061AY261061GA1031+001809079GA2061+003909059GF107991071051002501999999KA1120M+01431MA1102911999999MD1410001+9999MW1021REMSYN023333   10143 83706 86616EQDQ01+000000PRSWM2
0076601010999991988010318304+35733-005900FM-15+0021GMTT V0202201N00311003901CN0060001N1+01401+01301999999ADDAG12999GA1031+001809079GA2061+003909059MA1102911999999EQDQ01+000000PRSWM2
0076601010999991988010319004+35733-005900FM-15+0021GMTT V0202201N00311003901CN0060001N1+01301+01201999999ADDAG12999GA1031+001809079GA2061+003909059MA1102911999999EQDQ01+000000PRSWM2
0076601010999991988010319304+35733-005900FM-15+0021GMTT V0202201N00311003901CN0060001N1+01301+01201999999ADDAG12999GA1031+001809079GA2061+003909059MA1102911999999EQDQ01+000000PRSWM2
0076601010999991988010320004+35733-005900FM-15+0021GMTT V0202201N00311003901CN0060001N1+01301+01201999999ADDAG12999GA1031+001809079GA2061+003909059MA1102911999999EQDQ01+000000PRSWM2
0076601010999991988010320304+35733-005900FM-15+0021GMTT V0202201N00311003901CN0060001N1+01301+01201999999ADDAG12000GA1031+001809079GA2061+003909059MA1102911999999EQDQ01+000000PRSWM2
0119601010999991988010321004+35733-005900FM-12+0021GMTT V0209991C00001003901CN0080001N9+01301+01231103031ADDAA106000091AG14000GA1011+001809079GA2051+003909059GF105991051051002501001001MD1110121+9999REMSYN017333   81706 85613
0089601010999991988010321304+35733-005900FM-15+0021GMTT V0209991C00001003901CN0080001N1+01301+01201999999ADDAG12999GA1011+001809079GA2051+003909059MA1103011999999REMMET004NSG?EQDQ01+000000PRSWM2
0089601010999991988010322004+35733-005900FM-15+0021GMTT V0209991C00001003901CN0080001N1+01301+01201999999ADDAG12999GA1011+001809079GA2051+003909059MA1103011999999REMMET004NSG?EQDQ01+000000PRSWM2
0089601010999991988010322304+35733-005900FM-15+0021GMTT V0209991C00001003901CN0080001N1+01301+01201999999ADDAG12999GA1011+001809079GA2051+003909089MA1103011999999REMMET004NSG?EQDQ01+000000PRSWM2
0089601010999991988010323004+35733-005900FM-15+0021GMTT V0209991C00001220001CN0080001N1+01201+01201999999ADDAG12999GA1011+001809079GA2031+003909059MA1103011999999REMMET004NSG?EQDQ01+000000PRSWM2
0089601010999991988010323304+35733-005900FM-15+0021GMTT V0209991C00001220001CN0080001N1+01201+01201999999ADDAG12000GA1011+001809079GA2031+003909059MA1103011999999REMMET004NSG?EQDQ01+000000PRSWM2
0144601010999991988010400004+35733-005900SY-MT+0021GMTT V0209991C00001220001CN0040001N1+00741+00701103031ADDAA106000091AG14000AY111061AY211061GA1031+001809079GF103991031061002501001001MA1103011999999MD1410001+9999MW1101REMSYN011333   83706MET004NSG?
0060601010999991988010400304+35733-005900FM-15+0021GMTT V0209991C00001220001CN0040001N1+00701+00701999999ADDAG11999GA1031+001809079MA1103011999999MW1101REMMET004NSG?
0060601010999991988010401004+35733-005900FM-15+0021GMTT V0209991C00001220001CN0040001N1+00701+00701999999ADDAG11999GA1031+001809079MA1103011999999MW1101REMMET004NSG?
0032601010999991988010401304+35733-005900FM-15+0021GMTT V0209991C00001220001CN0040001N1+00701+00701999999ADDAG11999GA1031+001809079MW1101
0073601010999991988010402004+35733-005900FM-15+0021GMTT V0209991C00001220001CN0060001N1+00801+00801999999ADDAG11999GA1011+002409079MA1102911999999REMMET004NSG?EQDQ01+000000PRSWM2
0073601010999991988010402304+35733-005900FM-15+0021GMTT V0209991C00001220001CN0060001N1+00801+00801999999ADDAG12000GA1011+002409079MA1102911999999REMMET004NSG?EQDQ01+000000PRSWM2
0114601010999991988010403004+35733-005900SY-MT+0021GMTT V0209991C00001220001CN0060001N1+00781+00761102921ADDAA106000091AG14000GF100991001001999999001001MA1102911999999MD1810111+9999MW1001REMMET004NSG?EQDQ01+000000PRSWM2
0040601010999991988010403304+35733-005900FM-15+0021GMTT V0209991C00001220001CN0060001N1+00801+00801999999ADDAG12999REMMET0022?EQDQ01+000000PRSWM2
0057601010999991988010404004+35733-005900FM-15+0021GMTT V0209991C00001220001CN0060001N1+00901+00801999999ADDAG12999MA1102811999999REMMET004NSG?EQDQ01+000000PRSWM2
0057601010999991988010404304+35733-005900FM-15+0021GMTT V0209991C00001220001CN0060001N1+00901+00801999999ADDAG12999MA1102811999999REMMET004NSG?EQDQ01+000000PRSWM2
0057601010999991988010405004+35733-005900FM-15+0021GMTT V0209991C00001220001CN0060001N1+00901+00801999999ADDAG12999MA1102811999999REMMET004NSG?EQDQ01+000000PRSWM2
0057601010999991988010405304+35733-005900FM-15+0021GMTT V0209991C00001220001CN0060001N1+00901+00801999999ADDAG12000MA1102811999999REMMET004NSG?EQDQ01+000000PRSWM2
0166601010999991988010406004+35733-005900SY-MT+0021GMTT V0209991C00001220001CN0080001N1+00701+00681102781ADDAA124002091AG10000GA1021+003909059GF102991021051004501001001KA1120N+00691MA1102711999999MD1710141+9999MW1001REMSYN017333   20069 82613MET004NSG?EQDQ01+000000PRSWM2
0073601010999991988010407004+35733-005900FM-15+0021GMTT V0209991C00001220001CN0080001N1+00701+00701999999ADDAG12999GA1021+003909059MA1102711999999REMMET004NSG?EQDQ01+000000PRSWM2
0147601010999991988010409004+35733-005900SY-MT+0021GMTT V0209991C00001220001CN0100001N1+00821+00781102801ADDAA106000091AG14000GA1021+004509059GF102991021051004501001001MA1102811999999MD1110011+9999MW1001REMSYN011333   82615MET004NSG?EQDQ01+000000PRSWM2
0073601010999991988010411004+35733-005900FM-15+0021GMTT V0209991C00001220001CN0112001N1+01601+01301999999ADDAG12999GA1011+004509059MA1102811999999REMMET004NSG?EQDQ01+000000PRSWM2
0137601010999991988010412004+35733-005900SY-MT+0021GMTT V0209991C00001220001CN0100001N1+01611+01221102761ADDAA106000091AG14000GA1011+004509059GF102991011051004501001021MA1102711999999MD1810031+9999MW1001REMSYN011333   81615EQDQ01+000000PRSWM2
0073601010999991988010412304+35733-005900FM-15+0021GMTT V0209991C00001220001CN0112001N1+01601+01201999999ADDAG12999GA1011+004509059MA1102711999999REMMET004NSG?EQDQ01+000000PRSWM2
0073601010999991988010413004+35733-005900FM-15+0021GMTT V0209991C00001220001CN0112001N1+01601+01201999999ADDAG12999GA1011+004509059MA1102611999999REMMET004NSG?EQDQ01+000000PRSWM2
0076601010999991988010414004+35733-005900FM-15+0021GMTT V0203201N00411220001CN0112001N1+01701+01201999999ADDAG12999GA1011+004509059GA2031+069009009MA1102401999999EQDQ01+000000PRSWM2
0058601010999991988010414304+35733-005900FM-15+0021GMTT V0203001N00411999991CY0099001N1+01701+01201999999ADDAG12000MA1102511999999REMMET005CAVOKEQDQ01+000000PRSWM2
0097601010999991988010415004+35733-005900FM-12+0021GMTT V0203001N00411069001CN0150001N9+01701+01171102521ADDAA106000091AG14000GA1061+069009009GF106991001001999999001021MD1710081+9999REMSYN011333   86073
0058601010999991988010416004+35733-005900FM-15+0021GMTT V0203001N00411999991CY0099001N1+01701+01201999999ADDAG12999MA1102511999999REMMET005CAVOKEQDQ01+000000PRSWM2
0058601010999991988010417004+35733-005900FM-15+0021GMTT V0203001N00311999991CY0099001N1+01501+01201999999ADDAG12999MA1102511999999REMMET005CAVOKEQDQ01+000000PRSWM2
0166601010999991988010418004+35733-005900SY-MT+0021GMTT V0203001N00211069001CN0150001N1+01301+01231102511ADDAA106000091AG14000GA1061+069009009GF106991001001999999001021KA1120M+01751MD1510021+9999MW1001REMSYN017333   10175 86073MET019CAVOK 133/12 1025 ?EQDQ01+000000PRSWM2
0063601010999991988010418304+35733-005900FM-15+0021GMTT V0209999999999999991CY0099001N1+01301+01201999999ADDAG12999MA1102511999999REMMET010CAVOK NSG?EQDQ01+000000PRSWM2
0063601010999991988010419004+35733-005900FM-15+0021GMTT V0209991C00001999991CY0099001N1+01101+00701999999ADDAG12999MA1102511999999REMMET010CAVOK NSG?EQDQ01+000000PRSWM2
0063601010999991988010419304+35733-005900FM-15+0021GMTT V0209991C00001999991CY0099001N1+01101+00701999999ADDAG12999MA1102511999999REMMET010CAVOK NSG?EQDQ01+000000PRSWM2
0063601010999991988010420304+35733-005900FM-15+0021GMTT V0209991C00001999991CY0099001N1+00901+00801999999ADDAG12000MA1102511999999REMMET010CAVOK NSG?EQDQ01+000000PRSWM2
0148601010999991988010421004+35733-005900SY-MT+0021GMTT V0209991C00001220001CN0100001N1+00821+00741102521ADDAA106000091AG14000GA1021+069009009GF102991001001999999001021MA1102511999999MD1410001+9999MW1001REMSYN011333   82073MET005CAVOKEQDQ01+000000PRSWM2
0058601010999991988010421304+35733-005900FM-15+0021GMTT V0209991C00001999991CY0099001N1+00801+00701999999ADDAG12999MA1102511999999REMMET005CAVOKEQDQ01+000000PRSWM2
0058601010999991988010422004+35733-005900FM-15+0021GMTT V0209999999999999991CY0099001N1+00801+00701999999ADDAG12999MA1102511999999REMMET005CAVOKEQDQ01+000000PRSWM2
0058601010999991988010423004+35733-005900FM-15+0021GMTT V0209991C00001999991CY0099001N1+00801+00701999999ADDAG12999MA1102511999999REMMET005CAVOKEQDQ01+000000PRSWM2
0058601010999991988010423304+35733-005900FM-15+0021GMTT V0209991C00001999991CY0099001N1+00801+00701999999ADDAG12000MA1102511999999REMMET005CAVOKEQDQ01+000000PRSWM2
0148601010999991988010500004+35733-005900SY-MT+0021GMTT V0209991C00001220001CN0100001N1+00721+00701102521ADDAA106000091AG14000GA1021+069009009GF102991001001999999001021MA1102511999999MD1410001+9999MW1001REMSYN011333   82073MET005CAVOKEQDQ01+000000PRSWM2
0058601010999991988010500304+35733-005900FM-15+0021GMTT V0209991C00001999991CY0099001N1+00701+00701999999ADDAG11999MA1102511999999REMMET005CAVOKEQDQ01+000000PRSWM2
0058601010999991988010501004+35733-005900FM-15+0021GMTT V0209991C00001999991CY0099001N1+00701+00601999999ADDAG11999MA1102401999999REMMET005CAVOKEQDQ01+000000PRSWM2
0058601010999991988010502004+35733-005900FM-15+0021GMTT V0209991C00001999991CY0099001N1+00701+00601999999ADDAG11999MA1102401999999REMMET005CAVOKEQDQ01+000000PRSWM2
0058601010999991988010502304+35733-005900FM-15+0021GMTT V0209991C00001999991CY0099001N1+00701+00601999999ADDAG12000MA1102401999999REMMET005CAVOKEQDQ01+000000PRSWM2
0137601010999991988010503004+35733-005900SY-MT+0021GMTT V0209991C00001004501CN0100001N1+00821+00781102441ADDAA106000091AG14000GA1051+004509059GF106991051051004501001021MA1102401999999MD1610081+9999MW1001REMSYN011333   85615EQDQ01+000000PRSWM2
0076601010999991988010503304+35733-005900FM-15+0021GMTT V0209991C00001004501CN9999999N9+00801+00801999999ADDAG12999GA1051+004509059REMMET0061024+?EQDQ01+000002VOVAR Q02+000000PRSWM2
0060601010999991988010504004+35733-005900FM-15+0021GMTT V0209991C00001004501CN0112001N1+00901+00801999999ADDAG12999GA1051+004509059MA1102401999999EQDQ01+000000PRSWM2
0060601010999991988010504304+35733-005900FM-15+0021GMTT V0209991C00001004501CN0112001N1+00901+00801999999ADDAG12999GA1051+004509059MA1102401999999EQDQ01+000000PRSWM2
0076601010999991988010505004+35733-005900FM-15+0021GMTT V0209991C00001004501CN9999999N9+00901+00801999999ADDAG12999GA1051+004509059REMMET0061024+?EQDQ01+000002VOVAR Q02+000000PRSWM2
0156601010999991988010506004+35733-005900SY-MT+0021GMTT V0209991C00001004501CN0100001N1+00851+00791102341ADDAA106000091AG14000GA1051+004509059GF105991051051004501001021KA1120N+00661MA1102301999999MD1810101+9999MW1001REMSYN017333   20066 85615EQDQ01+000000PRSWM2
0060601010999991988010507004+35733-005900FM-15+0021GMTT V0209991C00001220001CN0112001N1+00901+00801999999ADDAG12999GA1031+004509059MA1102301999999EQDQ01+000000PRSWM2
0092601010999991988010508004+35733-005900FM-15+0021GMTT V0209991C00001069001CN0080001N1+00901+00801999999ADDAG12999GA1021+006009059GA2031+030009039GA3051+069009009MA1102301999999EQDQ01+000000PRSWM2
0106601010999991988010508304+35733-005900FM-15+0021GMTT V0209991C00001069001CN0080001N1+00901+00801999999ADDAG12000GA1021+006009059GA2031+030009039GA3051+069009009MA1102301999999REMMET005NSG,?EQDQ01+000000PRSWM2
0191601010999991988010509004+35733-005900SY-MT+0021GMTT V0209991C00001069001CN0080001N1+00811+00771102351ADDAA106000091AG14000GA1021+006009059GA2031+030009039GA3051+069009009GF106991021051008001031021MA1102301999999MD1410001+9999MW1001REMSYN023333   82620 83360 85073MET004NSG?EQDQ01+000000PRSWM2
0105601010999991988010510004+35733-005900FM-15+0021GMTT V0202401N00101069001CN0112001N1+01201+01001999999ADDAG12999GA1021+006009059GA2031+030009039GA3051+069009009MA1102301999999REMMET004NSG?EQDQ01+000000PRSWM2
0089601010999991988010511004+35733-005900FM-15+0021GMTT V0209991C00001069001CN0112001N1+01301+01101999999ADDAG12999GA1021+006009059GA2041+069009009MA1102401999999REMMET004NSG?EQDQ01+000000PRSWM2
0169601010999991988010512004+35733-005900SY-MT+0021GMTT V0202401N00151220001CN0100001N1+01631+01401102351ADDAA106000091AG14000GA1011+006009059GA2031+069009009GF104991011051008001031021MA1102301999999MD1010001+9999MW1001REMSYN017333   81620 83073MET004NSG?EQDQ01+000000PRSWM2
0125601010999991988010513004+35733-005900FM-15+0021GMTT V0202201N00511069001CN0112001N1+01601+01301999999ADDAG12999GA1021+006009059GA2031+030009039GA3051+069009009MA1102201999999REMMET024NSG?  7@@@@@*@@@@@@@@@%6EQDQ01+000000PRSWM2
0105601010999991988010514004+35733-005900FM-15+0021GMTT V0202401N00721069001CN0112001N1+01701+01301999999ADDAG12999GA1021+006009059GA2031+030009039GA3051+069009009MA1102201999999REMMET004NSG?EQDQ01+000000PRSWM2
0147601010999991988010515004+35733-005900SY-MT+0021GMTT V0202401N00151220001CN0100001N1+01631+01401102351ADDAA106000091AG14000GA1011+060009029GF104991011051008001999999MA1102201999999MD1010001+9999MW1001REMSYN011333   81270MET004NSG?EQDQ01+000000PRSWM2
0105601010999991988010516004+35733-005900FM-15+0021GMTT V0202401N00721069001CN0112001N1+01701+01001999999ADDAG12999GA1021+006009059GA2031+030009039GA3051+069009009MA1102201999999REMMET004NSG?EQDQ01+000000PRSWM2
0061601010999991988010517004+35733-005900FM-15+0021GMTT V0202201N00721220001CN0112001N1+99999+99999999999ADDAG12999GA1021+006009059GA2031+030009039EQDQ01+000000PRSWM2
0210601010999991988010518004+35733-005900SY-MT+0021GMTT V0202201N00411069001CN0100001N1+01451+00971102231ADDAA106000091AG14000GA1021+006009059GA2031+030009039GA3051+069009009GF106991021051008001031021KA1120M+01851MA1102201999999MD1210011+9999MW1001REMSYN029333   10185 82620 83360 85073MET004NSG?EQDQ01+000000PRSWM2
0107601010999991988010518304+35733-005900FM-15+0021GMTT V0202201N00511069001CN0112001N1+01501+01001999999ADDAG12999GA1021+004809059GA2031+030009039GA3051+069009009MA1102201999999REMMET006NOQIG?EQDQ01+000000PRSWM2
0103601010999991988010519004+35733-005900FM-15+0021GMTT V0202201N00311069001CN0112001N1+01401+00801999999ADDAG12999GA1021+006009059GA2031+030009039GA3051+069009009MA1102201999999REMMET002N?EQDQ01+000000PRSWM2
0107601010999991988010519304+35733-005900FM-15+0021GMTT V0202201N00311069001CN0112001N1+01401+00801999999ADDAG12999GA1021+006009059GA2031+030009039GA3051+069009009MA1102201999999REMMET006NOSIG?EQDQ01+000000PRSWM2
0107601010999991988010520004+35733-005900FM-15+0021GMTT V0202201N00511069001CN0112001N1+01301+01001999999ADDAG12999GA1021+006009059GA2031+030009039GA3051+069009009MA1102201999999REMMET006NOSIG?EQDQ01+000000PRSWM2
0107601010999991988010520304+35733-005900FM-15+0021GMTT V0202201N00411069001CN0112001N1+01301+01001999999ADDAG12000GA1021+004809059GA2031+030009039GA3051+069009009MA1102201999999REMMET006NOSIG?EQDQ01+000000PRSWM2
0150601010999991988010521004+35733-005900SY-MT+0021GMTT V0202001N01131220001CN0100001N1+01501+00801102181ADDAA106000091AG14000GA1021+006009059GF104991021051008001031021MA1102101999999MD1810051+9999MW1001REMSYN024333   82620   = 40  2782EQDQ01+000000PRSWM2
0106601010999991988010521304+35733-005900FM-15+0021GMTT V0202201N00621069001CN9999999N9+01501+00801999999ADDAG12999GA1021+006009059GA2041+069009009MA1102101999999REMMET005NSG,?EQDQ01+000002VOVAR Q02+000000PRSWM2
0088601010999991988010522004+35733-005900FM-15+0021GMTT V0202401N00511220001CN0112001N1+01301+00701999999ADDAG12999GA1021+006009059GA2031+030009039MA1102201999999REMMET003G,?EQDQ01+000000PRSWM2
0088601010999991988010523004+35733-005900FM-15+0021GMTT V0202401N00931030001CN0112001N1+01301+00801999999ADDAG12999GA1031+006009059GA2031+030009039MA1102201999999REMMET003G,?EQDQ01+000000PRSWM2
0088601010999991988010523304+35733-005900FM-15+0021GMTT V0202201N00931030001CN0112001N1+01301+00801999999ADDAG12000GA1031+006009059GA2031+030009039MA1102201999999REMMET003G,?EQDQ01+000000PRSWM2
0168601010999991988010600004+35733-005900SY-MT+0021GMTT V0202201N00721220001CN0100001N1+01471+00851102271ADDAA106000091AG14000GA1021+006009059GA2031+069009009GF104991021051008001031021MA1102201999999MD1210091+9999MW1001REMSYN017333   82620 83073MET003G,?EQDQ01+000000PRSWM2
0088601010999991988010601004+35733-005900FM-15+0021GMTT V0202401N00411220001CN0112001N1+01501+00801999999ADDAG11999GA1021+006009059GA2031+069009009MA1102201999999REMMET003G,?EQDQ01+000000PRSWM2
0088601010999991988010601304+35733-005900FM-15+0021GMTT V0202401N00261220001CN0112001N1+01501+00801999999ADDAG11999GA1021+006009059GA2031+069009009MA1102201999999REMMET003G,?EQDQ01+000000PRSWM2
0087601010999991988010602004+35733-005900FM-15+0021GMTT V0202401N00511220001CN0112001N1+01301+00801999999ADDAG11999GA1021+006009059GA2031+069009009MA1102201999999REMMET002G?EQDQ01+000000PRSWM2
0055601010999991988010602304+35733-005900FM-15+0021GMTT V0202201N00511220001CN0112001N1+01301+00801999999ADDAG12000MA1102201999999REMMET002G?EQDQ01+000000PRSWM2
0146601010999991988010603004+35733-005900SY-MT+0021GMTT V0202401N00621220001CN0100001N1+01251+00921102281ADDAA106000091AG14000GA1021+006009059GF104991021051008001031021MA1102201999999MD1310011+9999MW1001REMSYN011333   82620MET003G,?EQDQ01+000000PRSWM2
0072601010999991988010604004+35733-005900FM-15+0021GMTT V0202401N00511220001CN0112001N1+01401+01001999999ADDAG12999GA1021+006009059MA1102201999999REMMET003G,?EQDQ01+000000PRSWM2
0064601010999991988010604304+35733-005900FM-15+0021GMTT V0202201N00721220001CN0112001N1+01401+01001999999ADDAG12999GA1021+006009059REMMET01010122 NSG?EQDQ01+000000PRSWM2
0087601010999991988010605004+35733-005900FM-15+0021GMTT V0202201N00621069001CN0112001N1+01401+01001999999ADDAG12999GA1021+006009059GA2041+069009009MA1102101999999REMMET002G?EQDQ01+000000PRSWM2
0169601010999991988010609004+35733-005900SY-MT+0021GMTT V0202201N00931004801CN0100001N1+01351+00831102351ADDAA106000091AG14000GA1051+004809089GA2041+069009009GF107991051021004501001021MA1102301999999MD1310121+9999MW1001REMSYN017333   85816 84073MET004NSG?EQDQ01+000000PRSWM2
0073601010999991988010611004+35733-005900FM-15+0021GMTT V0203601N00671220001CN0080001N1+01301+01201999999ADDAG12999GA1011+003009099MA1102511999999REMMET004NSG?EQDQ01+000000PRSWM2
0188601010999991988010612004+35733-005900SY-MT+0021GMTT V0200201N00101004501CN0050001N1+01231+01121102601ADDAA106001091AG10003AY181061AY221061GA1021+002409079GA2071+004509089GA3011+006009099GF108991081091002501999999MA1102611999999MD1110251+9999MW1801REMSYN023333   82708 87815 81920MET004NSG?
0092601010999991988010613004+35733-005900FM-15+0021GMTT V0209991C00001004501CN0060001N1+01301+01201999999ADDAG12999GA1021+002409079GA2061+004509089GA3011+006009099MA1102511999999MW1251REMMET004NSG?
0122601010999991988010614004+35733-005900FM-15+0021GMTT V0203201N00211004501CN9999999N9+01301+01201999999ADDAG12999GA1031+002409079GA2071+004509089GA3011+006009099MA1102511999999REMMET005NSGG?EQDQ01+000002VOVAR Q02+000000PRSWM2
0159601010999991988010615004+35733-005900SY-MT+0021GMTT V0209991C00001004501CN0080001N1+01251+01201102551ADDAA106000091AG14000GA1021+002409079GA2071+004509089GF108991021021002501999999MA1102511999999MD1510081+9999MW1001REMSYN017333   82708 87815EQDQ01+000000PRSWM2
0194601010999991988010618004+35733-005900SY-MT+0021GMTT V0209991C00001004501CN0080001N1+01101+01101999999ADDAA199001091AG10001AY181061AY261061GA1021+002409079GA2061+004509089GF108991071021002501999999KA1120M+01501MA1102611999999MD1310041+9999MW1011REMSYN023333   10150 82708 868//EQDQ01+000000PRSWM2
0076601010999991988010618304+35733-005900FM-15+0021GMTT V0209991C00001004501CN0080001N1+01101+01101999999ADDAG12001GA1021+002409079GA2061+004509089MA1102611999999EQDQ01+000000PRSWM2
0076601010999991988010619004+35733-005900FM-15+0021GMTT V0209991C00001004501CN0080001N1+01101+01001999999ADDAG12999GA1021+002409079GA2051+004509089MA1102611999999EQDQ01+000000PRSWM2
0076601010999991988010619304+35733-005900FM-15+0021GMTT V0209991C00001004501CN0080001N1+01101+01001999999ADDAG12999GA1021+002409079GA2051+004509089MA1102611999999EQDQ01+000000PRSWM2
0076601010999991988010620004+35733-005900FM-15+0021GMTT V0209991C00001004501CN0080001N1+01001+01001999999ADDAG12999GA1021+002409079GA2051+004509089MA1102611999999EQDQ01+000000PRSWM2
0091601010999991988010621304+35733-005900FM-15+0021GMTT V0209991C00001030001CN0112001N1+01101+00901999999ADDAG12999GA1031+004809089GA2031+030009039MA1102711999999REMMET006NOSIG?EQDQ01+000000PRSWM2
0091601010999991988010622004+35733-005900FM-15+0021GMTT V0209991C00001030001CN0112001N1+00901+00801999999ADDAG12999GA1031+004809089GA2031+030009039MA1102711999999REMMET006NOSIG?EQDQ01+000000PRSWM2
0091601010999991988010622304+35733-005900FM-15+0021GMTT V0209991C00001030001CN0112001N1+00901+00801999999ADDAG12999GA1031+004809089GA2031+030009039MA1102711999999REMMET006NOSIG?EQDQ01+000000PRSWM2
0091601010999991988010623004+35733-005900FM-15+0021GMTT V0209991C00001030001CN0112001N1+00901+00801999999ADDAG12999GA1031+004809089GA2031+030009039MA1102811999999REMMET006NOSIG?EQDQ01+000000PRSWM2
0091601010999991988010623304+35733-005900FM-15+0021GMTT V0209991C00001030001CN0112001N1+00901+00801999999ADDAG12000GA1031+004809089GA2031+030009039MA1102811999999REMMET006NOSIG?EQDQ01+000000PRSWM2
0187601010999991988010700004+35733-005900SY-MT+0021GMTT V0209991C00001030001CN0100001N1+01041+00981102861ADDAA106000091AG14000GA1041+004809089GA2031+030009039GF106991041021004501081001MA1102811999999MD1311002+9999MW1001REMSYN017333   84816 83360MET006NOSIG?EQDQ01+001002APC3  Q02+000000PRSWM2
0091601010999991988010700304+35733-005900FM-15+0021GMTT V0209991C00001030001CN0112001N1+01001+01001999999ADDAG11999GA1041+004809089GA2031+030009039MA1102811999999REMMET006NOSIG?EQDQ01+000000PRSWM2
0083601010999991988010701004+35733-005900FM-15+0021GMTT V0209991C00001030001CN0112001N1+01201+99999999999ADDAG11999GA1041+004809089GA2031+030009039REMMET013111028 NOSIG?EQDQ01+000000PRSWM2
0091601010999991988010702004+35733-005900FM-15+0021GMTT V0209991C00001030001CN0112001N1+01201+01001999999ADDAG12999GA1041+004809089GA2031+030009039MA1102811999999REMMET006NOSIG?EQDQ01+000000PRSWM2
0171601010999991988010703004+35733-005900SY-MT+0021GMTT V0209991C00001030001CN0100001N1+01221+01001102921ADDAA106000091AG14000GA1041+004809089GA2041+030009039GF106991041021004501081001MA1102911999999MD1210061+9999MW1001REMSYN017333   84816 84360MET006NOSIG?EQDQ01+000000PRSWM2
0091601010999991988010703304+35733-005900FM-15+0021GMTT V0209991C00001030001CN0112001N1+01201+01001999999ADDAG12999GA1041+004809089GA2041+030009039MA1102911999999REMMET006NOSIG?EQDQ01+000000PRSWM2
0091601010999991988010704004+35733-005900FM-15+0021GMTT V0209991C00001030001CN0112001N1+01201+01001999999ADDAG12999GA1041+004809089GA2041+030009039MA1102911999999REMMET006NOSIF?EQDQ01+000000PRSWM2
0082601010999991988010704304+35733-005900FM-15+0021GMTT V0209991C00001030001CN0112001N1+01201+99999999999ADDAG12999GA1041+006009089GA2041+030009039REMMET01210129 NOSIG?EQDQ01+000000PRSWM2
0091601010999991988010705004+35733-005900FM-15+0021GMTT V0209991C00001030001CN0112001N1+01201+01001999999ADDAG12999GA1041+004809089GA2041+030009039MA1102911999999REMMET006NOSIG?EQDQ01+000000PRSWM2
0081601010999991988010705304+35733-005900FM-15+0021GMTT V0209991C00001030001CN0112001N1+01201+01001999999ADDAG12000GA1041+004809089GA2041+030009039REMMET0111(29 NPSIG?EQDQ01+000000PRSWM2
0075601010999991988010706004+35733-005900FM-15+0021GMTT V0203601N00411220001CN0112001N1+01101+00501999999ADDAG12000GA1031+004809089MA1103121999999REMMET006NOSIG?EQDQ01+000000PRSWM2
0075601010999991988010707004+35733-005900FM-15+0021GMTT V0209991C00001220001CN0112001N1+01001+00601999999ADDAG12999GA1021+007809059MA1103121999999REMMET006NOSIG?EQDQ01+000000PRSWM2
0060601010999991988010708004+35733-005900FM-15+0021GMTT V0209991C00001220001CN0112001N1+01001+00601999999ADDAG12999GA1031+006009059MA1103121999999EQDQ01+000000PRSWM2
0060601010999991988010708304+35733-005900FM-15+0021GMTT V0209991C00001220001CN0112001N1+01001+00601999999ADDAG12000GA1031+004809089MA1103121999999EQDQ01+000000PRSWM2
0137601010999991988010709004+35733-005900SY-MT+0021GMTT V0209991C00001220001CN0150001N1+00921+00721103281ADDAA106000091AG14000GA1021+004809089GF102991021021004501001001MA1103181999999MD1210181+9999MW1001REMSYN011333   82816EQDQ01+000000PRSWM2
0060601010999991988010710004+35733-005900FM-15+0021GMTT V0203601N00311220001CN0112001N1+01001+00701999999ADDAG12999GA1021+004809089MA1103291999999EQDQ01+000000PRSWM2
0060601010999991988010711004+35733-005900FM-15+0021GMTT V0203401N00621004801CN0112001N1+01201+00801999999ADDAG12999GA1051+004809089MA1103391999999EQDQ01+000000PRSWM2
0137601010999991988010712004+35733-005900SY-MT+0021GMTT V0203401N00721220001CN0150001N1+01341+00901103421ADDAA106000091AG14000GA1021+004809089GF102991021021004501001001MA1103391999999MD1110141+9999MW1001REMSYN011333   82816EQDQ01+000000PRSWM2
0060601010999991988010713004+35733-005900FM-15+0021GMTT V0203401N00511220001CN0112001N1+01401+01001999999ADDAG12999GA1021+006009059MA1103391999999EQDQ01+000000PRSWM2
0063601010999991988010714004+35733-005900FM-15+0021GMTT V0203201N00511999991CY0099001N1+01401+00501999999ADDAG12999MA1103291999999REMMET010CAVOK NSG?EQDQ01+000000PRSWM2
0063601010999991988010714304+35733-005900FM-15+0021GMTT V0203201N00721999991CY0099001N1+01401+00501999999ADDAG12000MA1103291999999REMMET010CAVOK NSG?EQDQ01+000000PRSWM2
0153601010999991988010715004+35733-005900SY-MT+0021GMTT V0203201N00721220001CN0150001N1+01361+00501103301ADDAA106000091AG14000GA1041+069009009GF104991001001999999001021MA1103291999999MD1610121+9999MW1001REMSYN011333   84073MET010CAVOK NSG?EQDQ01+000000PRSWM2
0063601010999991988010715304+35733-005900FM-15+0021GMTT V0203201N00621999991CY0099001N1+01401+00501999999ADDAG12999MA1103291999999REMMET010CAVOK NSG?EQDQ01+000000PRSWM2
0166601010999991988010718004+35733-005900SY-MT+0021GMTT V0209991C00001220001CN0100001N1+01101+00691103341ADDAA106000091AG14000GA1011+004809059GF101991011051004501001001KA1120M+01411MA1103291999999MD1310041+9999MW1001REMSYN017333   10141 81616MET004NSG?EQDQ01+000000PRSWM2
0072601010999991988010719004+35733-005900FM-15+0021GMTT V0209991C00001220001CN0112001N1+01101+00701999999ADDAG12999GA1011+004809059MA1103291999999REMMET003NG?EQDQ01+000000PRSWM2
0072601010999991988010719304+35733-005900FM-15+0021GMTT V0209991C00001220001CN0112001N1+01101+00701999999ADDAG12999GA1011+004809059MA1103291999999REMMET003NG?EQDQ01+000000PRSWM2
0072601010999991988010720004+35733-005900FM-15+0021GMTT V0209991C00001220001CN0112001N1+01001+00701999999ADDAG12999GA1011+004809059MA1103291999999REMMET003NG?EQDQ01+000000PRSWM2
0072601010999991988010720304+35733-005900FM-15+0021GMTT V0209991C00001220001CN0112001N1+01001+00701999999ADDAG12000GA1011+004809059MA1103291999999REMMET003NG?EQDQ01+000000PRSWM2
0115601010999991988010721004+35733-005900SY-MT+0021GMTT V0209991C00001220001CN0100001N1+00851+00591103371ADDAA106000091AG14000GF100991001001999999001001MA1103291999999MD1310121+9999MW1001REMMET005CAVOKEQDQ01+000000PRSWM2
0058601010999991988010722004+35733-005900FM-15+0021GMTT V0209991C00001999991CY0099001N1+00701+00501999999ADDAG12999MA1103291999999REMMET005CAVOKEQDQ01+000000PRSWM2
0058601010999991988010722304+35733-005900FM-15+0021GMTT V0209991C00001999991CY0099001N1+00701+00501999999ADDAG12999MA1103291999999REMMET005CAVOKEQDQ01+000000PRSWM2
0058601010999991988010723004+35733-005900FM-15+0021GMTT V0209991C00001999991CY0099001N1+00701+00501999999ADDAG12999MA1103291999999REMMET005CAVOKEQDQ01+000000PRSWM2
0115601010999991988010800004+35733-005900SY-MT+0021GMTT V0209991C00001220001CN0100001N1+00451+00381103471ADDAA106000091AG14000GF100991001001999999001001MA1103391999999MD1410001+9999MW1001REMMET005CAVOKEQDQ01+000000PRSWM2
0058601010999991988010800304+35733-005900FM-15+0021GMTT V0209991C00001999991CY0099001N1+00501+00401999999ADDAG11999MA1103391999999REMMET005CAVOKEQDQ01+000000PRSWM2
0050601010999991988010801004+35733-005900FM-15+0021GMTT V0209991C00001999991CY0099001N1+00501+00401999999ADDAG11999REMMET012CAVOK 1034+?EQDQ01+000000PRSWM2
0058601010999991988010801304+35733-005900FM-15+0021GMTT V0209991C00001999991CY0099001N1+00501+00401999999ADDAG11999MA1103391999999REMMET005CAVOKEQDQ01+000000PRSWM2
0058601010999991988010802004+35733-005900FM-15+0021GMTT V0209991C00001999991CY0099001N1+00401+00301999999ADDAG11999MA1103391999999REMMET005CAVOKEQDQ01+000000PRSWM2
0058601010999991988010802304+35733-005900FM-15+0021GMTT V0209991C00001999991CY0099001N1+00401+00301999999ADDAG12000MA1103391999999REMMET005CAVOKEQDQ01+000000PRSWM2
0101601010999991988010803004+35733-005900SY-MT+0021GMTT V0209991C00001220001CN0100001N1+00451+00381103391ADDAA106000091AG14000GF100991001001999999001001MA1103291999999MW1001REMMET005CAVOKEQDQ01+000000PRSWM2
0049601010999991988010803304+35733-005900FM-15+0021GMTT V0209991C00001999991CY0099001N1+00501+00401999999ADDAG12999REMMET011CAVOK 1(33?EQDQ01+000000PRSWM2
0058601010999991988010804004+35733-005900FM-15+0021GMTT V0209991C00001999991CY0099001N1+00501+99999999999ADDAG12999MA1103291999999REMMET005CAVOKEQDQ01+000000PRSWM2
0058601010999991988010804304+35733-005900FM-15+0021GMTT V0209991C00001999991CY0099001N1+00501+99999999999ADDAG12999MA1103291999999REMMET005CAVOKEQDQ01+000000PRSWM2
0145601010999991988010805004+35733-005900SY-MT+0021GMTT V0209991C00001220001CN0100001N1+00351+00301103391ADDAA106000091AG14001GF100991001001999999001001KA1120N+00301MA1103291999999MD1410001+9999MW1001REMSYN011333   20030MET005CAVOKEQDQ01+000000PRSWM2
0145601010999991988010806004+35733-005900SY-MT+0021GMTT V0209991C00001220001CN0100001N1+00351+00301103391ADDAA106000091AG14000GF100991001001999999001001KA1120N+00301MA1103291999999MD1410001+9999MW1001REMSYN011333   20030MET005CAVOKEQDQ01+000000PRSWM2
0058601010999991988010807004+35733-005900FM-15+0021GMTT V0209991C00001999991CY0099001N1+00501+00401999999ADDAG12999MA1103291999999REMMET005CAVOKEQDQ01+000000PRSWM2
0063601010999991988010808004+35733-005900FM-15+0021GMTT V0209991C00001999991CY0099001N1+00501+00401999999ADDAG12999MA1103291999999REMMET010CAVOK NSG?EQDQ01+000000PRSWM2
0120601010999991988010809004+35733-005900SY-MT+0021GMTT V0209991C00001220001CN0100001N1+00501+00411103371ADDAA106000091AG14000GF100991001001999999001001MA1103291999999MD1510021+9999MW1001REMMET010CAVOK NSG?EQDQ01+000000PRSWM2
0063601010999991988010810004+35733-005900FM-15+0021GMTT V0209991C00001999991CY0099001N1+01001+00801999999ADDAG12999MA1103291999999REMMET010CAVOK NSG?EQDQ01+000000PRSWM2
0063601010999991988010811004+35733-005900FM-15+0021GMTT V0201201N00261999991CY0099001N1+01301+00901999999ADDAG12999MA1103291999999REMMET010CAVOK NSG?EQDQ01+000000PRSWM2
0152601010999991988010812004+35733-005900SY-MT+0021GMTT V0201201N00311220001CN0150001N1+01441+00861103341ADDAA106000091AG14000GA1031+069009009GF103991001001999999001021MA1103291999999MD1810021+9999MW1001REMSYN011333   83073MET009CAVOK NG?EQDQ01+000000PRSWM2
0062601010999991988010812304+35733-005900FM-15+0021GMTT V0201201N00311999991CY0099001N1+01401+00901999999ADDAG12999MA1103291999999REMMET009CAVOK NG?EQDQ01+000000PRSWM2
0062601010999991988010813004+35733-005900FM-15+0021GMTT V0201201N00311999991CY0099001N1+01501+00901999999ADDAG12999MA1103291999999REMMET009CAVOK NG?EQDQ01+000000PRSWM2
0063601010999991988010814004+35733-005900FM-15+0021GMTT V0200801N00821999991CY0099001N1+01501+00901999999ADDAG12999MA1103121999999REMMET010CAVOK NSG?EQDQ01+000000PRSWM2
0058601010999991988010815004+35733-005900FM-15+0021GMTT V0200801N00721999991CY0099001N1+01601+00901999999ADDAG12000MA1103121999999REMMET005CAVOKEQDQ01+000000PRSWM2
0061601010999991988010900004+35733-005900FM-12+0021GMTT V0209991C00001220001CN0100001N9+00701+00611103111ADDAA106000091AG14000GF100991001001999999001001MD1810061+9999
0062601010999991988010902004+35733-005900FM-15+0021GMTT V0209991C00001999991CY0099001N1+00601+00401999999ADDAG11999MA1103011999999REMMET009CAVOK NG?EQDQ01+000000PRSWM2
0119601010999991988010903004+35733-005900SY-MT+0021GMTT V0209991C00001220001CN0100001N1+00561+00421103031ADDAA106000091AG14000GF100991001001999999001001MA1103011999999MD1710081+9999MW1001REMMET009CAVOK NG?EQDQ01+000000PRSWM2
0094601010999991988010904004+35733-005900FM-12+0021GMTT V0209991C00001220001CN0100001N9+00421+00321103011ADDAA106000091AG14999GF100991001001999999001001KA1120N+00421MD1810011+9999REMSYN011333   20042
0094601010999991988010906004+35733-005900FM-12+0021GMTT V0209991C00001220001CN0100001N9+00421+00321103011ADDAA106000091AG14000GF100991001001999999001001KA1120N+00421MD1810011+9999REMSYN011333   20042
0061601010999991988010909004+35733-005900FM-12+0021GMTT V0201001N00101220001CN0200001N9+00651+00451103011ADDAA106000091AG14000GF100991001001999999001001MD1410001+9999
0115601010999991988010912004+35733-005900SY-MT+0021GMTT V0209991C00001220001CN0150001N1+01812+00821103031ADDAA106000091AG14000GF100991001001999999001001MA1103011999999MD1210021+9999MW1001REMMET005CAVOKEQDQ01+000000PRSWM2
0058601010999991988010912304+35733-005900FM-15+0021GMTT V0209991C00001999991CY0099001N1+01801+00801999999ADDAG12999MA1103011999999REMMET005CAVOKEQDQ01+000000PRSWM2
0063601010999991988010913304+35733-005900FM-15+0021GMTT V0209991C00001999991CY0099001N1+01801+00801999999ADDAG12999MA1103011999999REMMET010CAVOK NSG?EQDQ01+000000PRSWM2
0063601010999991988010914304+35733-005900FM-15+0021GMTT V0209991C00001999991CY0099001N1+01801+00701999999ADDAG12000MA1102911999999REMMET010CAVOK NSG?EQDQ01+000000PRSWM2
0063601010999991988010915304+35733-005900FM-15+0021GMTT V0209991C00001999991CY0099001N1+01701+00901999999ADDAG12999MA1102811999999REMMET010CAVOK NSG?EQDQ01+000000PRSWM2
0063601010999991988010916004+35733-005900FM-15+0021GMTT V0209991C00001999991CY0099001N1+01701+01101999999ADDAG12999MA1102811999999REMMET010CAVOK NSG?EQDQ01+000000PRSWM2
0064601010999991988010917004+35733-005900FM-15+0021GMTT V0209991C00001999991CY0099001N1+01701+01201999999ADDAG12999REMMET010CAVOK NSG?EQDQ01+030003APOA  Q02+000000PRSWM2
0172601010999991988010918004+35733-005900SY-MT+0021GMTT V0209991C00001220001CN0150001N1+01441+01181102861ADDAA106000091AG14000GA1021+069009009GF102991001001999999001021KA1120M+01811MA1102811999999MD1510011+9999MW1001REMSYN017333   10181 82073MET010CAVOK NSG?EQDQ01+000000PRSWM2
0063601010999991988010919004+35733-005900FM-15+0021GMTT V0209991C00001999991CY0099001N1+01301+01101999999ADDAG12999MA1102811999999REMMET010CAVOK NSG?EQDQ01+000000PRSWM2
0057601010999991988010920004+35733-005900FM-15+0021GMTT V0201201N00261220001CN0090001N1+01101+01001999999ADDAG12999MA1102811999999REMMET004NSG?EQDQ01+000000PRSWM2
0073601010999991988010920304+35733-005900FM-15+0021GMTT V0209991C00001220001CN0090001N1+01101+01001999999ADDAG12000GA1011+069009009MA1102811999999REMMET004NSG?EQDQ01+000000PRSWM2
0120601010999991988010921004+35733-005900SY-MT+0021GMTT V0209991C00001220001CN0100001N1+00921+00881102791ADDAA106000091AG14000GF100991001001999999001001MA1102711999999MD1810071+9999MW1001REMMET010CAVOK NSG?EQDQ01+000000PRSWM2
0063601010999991988010922304+35733-005900FM-15+0021GMTT V0201001N00311999991CY0099001N1+01001+00901999999ADDAG12999MA1102811999999REMMET010CAVOK NSG?EQDQ01+000000PRSWM2
0063601010999991988010923004+35733-005900FM-15+0021GMTT V0201001N00211999991CY0099001N1+00901+00801999999ADDAG12999MA1102811999999REMMET010CAVOK NSG?EQDQ01+000000PRSWM2
0063601010999991988010923304+35733-005900FM-15+0021GMTT V0209991C00001999991CY0099001N1+00901+00801999999ADDAG12000MA1102811999999REMMET010CAVOK NSG?EQDQ01+000000PRSWM2
0120601010999991988011000004+35733-005900SY-MT+0021GMTT V0209991C00001220001CN0100001N1+00781+00671102791ADDAA106000091AG14000GF100991001001999999001001MA1102711999999MD1810011+9999MW1001REMMET010CAVOK NSH?EQDQ01+000000PRSWM2
0063601010999991988011001304+35733-005900FM-15+0021GMTT V0201001N00261999991CY0099001N1+00801+00701999999ADDAG11999MA1102711999999REMMET010CAVOK NSG?EQDQ01+000000PRSWM2
0063601010999991988011002004+35733-005900FM-15+0021GMTT V0201001N00151999991CY0099001N1+00801+00701999999ADDAG11999MA1102711999999REMMET010CAVOK NSG?EQDQ01+000000PRSWM2
0120601010999991988011003004+35733-005900SY-MT+0021GMTT V0201201N00211220001CN0100001N1+00781+00581102731ADDAA106000091AG14000GF100991001001999999001001MA1102711999999MD1610061+9999MW1001REMMET010CAVOK NSG?EQDQ01+000000PRSWM2
0063601010999991988011004004+35733-005900FM-15+0021GMTT V0201001N00261999991CY0099001N1+00801+00701999999ADDAG12999MA1102711999999REMMET010CAVOK NSG?EQDQ01+000000PRSWM2
0063601010999991988011004304+35733-005900FM-15+0021GMTT V0209991C00001999991CY0099001N1+00801+00701999999ADDAG12999MA1102711999999REMMET010CAVOK NSG?EQDQ01+000000PRSWM2
0065601010999991988011005004+35733-005900FM-15+0021GMTT V0201001N00261999991CY0099001N1+00801+00601999999ADDAG12999MA1102711999999REMMET012CAVOK NOSIG?EQDQ01+000000PRSWM2
0063601010999991988011005304+35733-005900FM-15+0021GMTT V0209991C00001999991CY0099001N1+00801+00601999999ADDAG12000MA1102711999999REMMET010CAVOK NSG?EQDQ01+000000PRSWM2
0152601010999991988011006004+35733-005900SY-MT+0021GMTT V0209991C00001220001CN0100001N1+00681+00621102691ADDAA106000091AG14000GF100991001001999999001001KA1120N+00691MA1102611999999MD1710041+9999MW1001REMSYN011333   20069MET012CAVOK NOSIG?EQDQ01+000000PRSWM2
0063601010999991988011006304+35733-005900FM-15+0021GMTT V0201001N00261999991CY0099001N1+00701+00601999999ADDAG12999MA1102611999999REMMET010CAVOK NSG?EQDQ01+000000PRSWM2
0063601010999991988011007004+35733-005900FM-15+0021GMTT V0201001N00311999991CY0099001N1+00701+00601999999ADDAG12999MA1102611999999REMMET010CAVOK NSG?EQDQ01+000000PRSWM2
0065601010999991988011008004+35733-005900FM-15+0021GMTT V0201001N00411999991CY0099001N1+00801+00801999999ADDAG12999MA1102611999999REMMET012CAVOK NOSIG?EQDQ01+000000PRSWM2
0097601010999991988011009004+35733-005900FM-12+0021GMTT V0201001N00151220001CN0100001N9+00921+00801102691ADDAA106000091AG14000GA1021+069009009GF102991001001999999001021MD1410001+9999REMSYN011333   82073
0119601010999991988011012004+35733-005900FM-12+0021GMTT V0209991C00001069001CN0100001N9+01441+01221102721ADDAA106000091AG14000GA1031+030009039GA2061+069009009GF107991031001999999031021MD1310041+9999REMSYN017333   83360 86073
0063601010999991988011012304+35733-005900FM-15+0021GMTT V0209991C00001999991CY0099001N1+01401+01201999999ADDAG12999MA1102711999999REMMET010CAVOK NSG?EQDQ01+000000PRSWM2
0119601010999991988011015004+35733-005900FM-12+0021GMTT V0209991C00001069001CN0100001N9+01651+01061102541ADDAA106000091AG14000GA1031+030009039GA2061+069009009GF107991031001999999031021MD1810181+9999REMSYN017333   83360 86073
0138601010999991988011018004+35733-005900FM-12+0021GMTT V0209991C00001030001CN0080001N9+01351+01121102501ADDAA106000091AG14000GA1031+004809059GA2041+030009039GF107991031051004501081021KA1120M+01741MD1610041+9999REMSYN023333   10174 83616 84360
0169601010999991988011021004+35733-005900SY-MT+0021GMTT V0209991C00001030001CN0080001N1+01241+01031102531ADDAA106000091AG14000GA1031+004809059GA2041+030009039GF107991031051004501071021MA1102511999999MD1310031+9999MW1001REMSYN017333   83616 84360MET004NSG?EQDQ01+000000PRSWM2
0089601010999991988011023004+35733-005900FM-15+0021GMTT V0202201N00211030001CN0080001N1+01301+01101999999ADDAG12999GA1031+004809059GA2031+030009039MA1102511999999REMMET004NSG?EQDQ01+000000PRSWM2
0089601010999991988011023304+35733-005900FM-15+0021GMTT V0202201N00261030001CN0080001N1+01301+01101999999ADDAG12000GA1031+004809059GA2031+030009039MA1102511999999REMMET004NSG?EQDQ01+000000PRSWM2
0119601010999991988011100004+35733-005900FM-12+0021GMTT V0202001N00411030001CN0080001N9+01351+01171102521ADDAA106000091AG14000GA1031+004809059GA2061+030009039GF107991031051004501071999MD1010011+9999REMSYN017333   83616 86360
0089601010999991988011102304+35733-005900FM-15+0021GMTT V0202201N00621030001CN0080001N1+01301+01101999999ADDAG12000GA1031+004809059GA2061+030009039MA1102401999999REMMET004NSG?EQDQ01+000000PRSWM2
0119601010999991988011103004+35733-005900FM-12+0021GMTT V0202001N00411030001CN0080001N9+01321+01061102461ADDAA106000091AG14000GA1041+004809059GA2061+030009039GF107991041051004501071999MD1610061+9999REMSYN017333   84616 86360
0089601010999991988011104004+35733-005900FM-15+0021GMTT V0202201N00621030001CN0080001N1+01301+01001999999ADDAG12999GA1041+004809059GA2061+030009039MA1102401999999REMMET004NSG?EQDQ01+000000PRSWM2
0089601010999991988011104304+35733-005900FM-15+0021GMTT V0202201N00621030001CN0080001N1+01301+01001999999ADDAG12999GA1041+004809059GA2061+030009039MA1102401999999REMMET004NSG?EQDQ01+000000PRSWM2
0089601010999991988011105004+35733-005900FM-15+0021GMTT V0202201N00621030001CN0080001N1+01301+01001999999ADDAG12999GA1041+004809059GA2061+030009039MA1102401999999REMMET004NSG?EQDQ01+000000PRSWM2
0089601010999991988011105304+35733-005900FM-15+0021GMTT V0202201N00621030001CN0080001N1+01301+01001999999ADDAG12000GA1041+004809059GA2061+030009039MA1102401999999REMMET004NSG?EQDQ01+000000PRSWM2
0188601010999991988011106004+35733-005900SY-MT+0021GMTT V0202001N00511030001CN0080001N1+01321+01091102381ADDAA106000091AG14000GA1041+004809059GA2061+030009039GF107991041051004501071999KA1120N+01101MA1102301999999MD1810081+9999MW1001REMSYN023333   20110 84616 86360MET004NSG?EQDQ01+000000PRSWM2
0119601010999991988011109004+35733-005900FM-12+0021GMTT V0202201N00771004801CN0080001N9+01331+01091102431ADDAA106000091AG14000GA1051+004809089GA2061+030009049GF107991051021004501071999MD1310051+9999REMSYN017333   85816 86460
0092601010999991988011111004+35733-005900FM-15+0021GMTT V0202201N00671004801CN0060001N1+01301+01201999999ADDAG12999GA1021+003009079GA2051+004809089GA3061+030009039MA1102511999999MW1601REMMET004NSG?
0105601010999991988011114004+35733-005900FM-15+0021GMTT V0202201N00721004801CN0060001N1+01301+01201999999ADDAG12999GA1031+002409079GA2051+004809089GA3061+030009039MA1102301999999REMMET004NSG?EQDQ01+000000PRSWM2
0105601010999991988011114304+35733-005900FM-15+0021GMTT V0202201N00771004801CN0070001N1+01301+01201999999ADDAG12000GA1021+002409079GA2051+004809089GA3051+030009039MA1102301999999REMMET004NSG?EQDQ01+000000PRSWM2
0072601010999991988011115004+35733-005900FM-12+0021GMTT V0202201N00721002101CN0070001N9+01451+01291102341ADDAG12001AY161031AY221031GF107991061021002501081999MD1710161+9999MW1011
0089601010999991988011115304+35733-005900FM-15+0021GMTT V0202201N00721004801CN0070001N1+01501+01301999999ADDAG11999GA1021+002409079GA2051+004809089MA1102301999999REMMET004NSG?EQDQ01+000000PRSWM2
0089601010999991988011116004+35733-005900FM-15+0021GMTT V0202201N00721004801CN0070001N1+01501+01301999999ADDAG12999GA1021+002409079GA2051+004809089MA1102301999999REMMET004NSG?EQDQ01+000000PRSWM2
0089601010999991988011117004+35733-005900FM-15+0021GMTT V0202201N00411004801CN0080001N1+01401+01201999999ADDAG12999GA1021+002409079GA2051+004809089MA1102301999999REMMET004NSG?EQDQ01+000000PRSWM2
0204601010999991988011118004+35733-005900SY-MT+0021GMTT V0203201N00151004501CN0080001N1+01301+00991102381ADDAA199000391AG10001AY161061AY221061GA1061+004509089GA2011+006009099GF107991071091004501999999KA1120M+01521MA1102301999999MD1310041+9999MW1031REMSYN023333   10152 86815 82920MET004NSG?EQDQ01+000000PRSWM2
0060601010999991988011119304+35733-005900FM-15+0021GMTT V0202201N00211220001CN0080001N1+01201+00901999999ADDAG12999GA1011+006009099MA1102301999999EQDQ01+000000PRSWM2
0060601010999991988011120304+35733-005900FM-15+0021GMTT V0202201N00211220001CN0080001N1+01201+00901999999ADDAG12000GA1011+006009099MA1102301999999EQDQ01+000000PRSWM2
0147601010999991988011121004+35733-005900SY-MT+0021GMTT V0209991C00001220001CN0080001N1+01201+01111102421ADDAA106000091AG14000GA1041+004509089GF104991041021004501001001MA1102401999999MD1210041+9999MW1001REMSYN011333   84815MET004NSG?EQDQ01+000000PRSWM2
0073601010999991988011121304+35733-005900FM-15+0021GMTT V0209991C00001220001CN0080001N1+01201+01101999999ADDAG12999GA1041+004509089MA1102401999999REMMET004NSG?EQDQ01+000000PRSWM2
0089601010999991988011122004+35733-005900FM-15+0021GMTT V0209991C00001069001CN0080001N1+01301+01101999999ADDAG12999GA1041+004809089GA2061+069009009MA1102401999999REMMET004NSG?EQDQ01+000000PRSWM2
0089601010999991988011122304+35733-005900FM-15+0021GMTT V0209991C00001069001CN0080001N1+01301+01101999999ADDAG12999GA1041+004809089GA2061+069009009MA1102401999999REMMET004NSG?EQDQ01+000000PRSWM2
0089601010999991988011123004+35733-005900FM-15+0021GMTT V0209991C00001069001CN0080001N1+01301+01101999999ADDAG12999GA1041+004809089GA2061+069009009MA1102401999999REMMET004NSG?EQDQ01+000000PRSWM2
0089601010999991988011200304+35733-005900FM-15+0021GMTT V0209991C00001069001CN0080001N1+01301+01101999999ADDAG11999GA1041+004509089GA2061+069009009MA1102401999999REMMET004NSG?EQDQ01+000000PRSWM2
0119601010999991988011203004+35733-005900FM-12+0021GMTT V0209991C00001069001CN0080001N9+01241+01051102311ADDAA106000091AG14000GA1041+004509089GA2061+069009009GF107991041021004501001021MD1810121+9999REMSYN017333   84815 86073
0073601010999991988011208004+35733-005900FM-15+0021GMTT V0202801N00621004501CN0112001N1+01201+00601999999ADDAG12999GA1061+004509089MA1102201999999REMMET004NSG?EQDQ01+000000PRSWM2
0147601010999991988011209004+35733-005900SY-MT+0021GMTT V0202601N00511004501CN0100001N1+01121+00551102241ADDAA106000091AG14000GA1051+004509089GF105991051021004501001001MA1102201999999MD1210021+9999MW1001REMSYN011333   85815MET004NSG?EQDQ01+000000PRSWM2
0137601010999991988011215004+35733-005900SY-MT+0021GMTT V0202601N00621004501CN0150001N1+01961+00711102111ADDAA106000091AG14000GA1051+004509089GF106991051021004501081001MA1102101999999MD1710211+9999MW1001REMSYN011333   85815EQDQ01+000000PRSWM2
0178601010999991988011218004+35733-005900SY-MT+0021GMTT V0202401N00411004501CN0150001N1+01181+00861102101ADDAA106000091AG14000GA1051+004509089GA2031+030009039GF106991051021004501081001KA1120M+01641MA1102101999999MD1410001+9999MW1001REMSYN023333   10164 85815 83360EQDQ01+000000PRSWM2
0073601010999991988011219004+35733-005900FM-15+0021GMTT V0202401N00211220001CN0112001N1+01201+01001999999ADDAG12999GA1031+004509089MA1102101999999REMMET004NSG?EQDQ01+000000PRSWM2
0073601010999991988011219304+35733-005900FM-15+0021GMTT V0202401N00151220001CN0112001N1+01201+01001999999ADDAG12999GA1031+004509089MA1102101999999REMMET004NSG?EQDQ01+000000PRSWM2
0137601010999991988011221004+35733-005900SY-MT+0021GMTT V0202401N00311220001CN0100001N1+00871+00491102101ADDAA106000091AG14000GA1031+004509089GF103991031021004501001001MA1102101999999MD1410001+9999MW1001REMSYN011333   83815EQDQ01+000000PRSWM2
0060601010999991988011223304+35733-005900FM-15+0021GMTT V0202201N00311030001CN0112001N1+01201+00801999999ADDAG12000GA1051+030009039MA1102101999999EQDQ01+000000PRSWM2
0076601010999991988011302304+35733-005900FM-15+0021GMTT V0202201N00721036001CN0112001N1+01201+00901999999ADDAG12000GA1041+004509089GA2051+999999039MA1101691999999EQDQ01+000000PRSWM2
0060601010999991988011305004+35733-005900FM-15+0021GMTT V0202001N00821030001CN0112001N1+01301+01001999999ADDAG12999GA1061+030009039MA1101491999999EQDQ01+000000PRSWM2
0076601010999991988011305304+35733-005900FM-15+0021GMTT V0202201N00821030001CN0112001N1+01301+01001999999ADDAG12000GA1031+004509089GA2061+030009039MA1101491999999EQDQ01+000000PRSWM2
0172601010999991988011306004+35733-005900SY-MT+0021GMTT V0202001N01131030001CN0100001N1+01351+01051101501ADDAA106000091AG14000GA1031+004509089GA2061+030009039GF107991031021004501071999KA1120N+00871MA1101491999999MD1710241+9999MW1001REMSYN017333   20087 83815EQDQ01+000000PRSWM2
0076601010999991988011308004+35733-005900FM-15+0021GMTT V0202001N01441004501CN0112001N1+01401+01201999999ADDAG12001GA1051+004509089GA2071+030009039MA1101391999999MW1211REMMET004NSG?
0089601010999991988011308304+35733-005900FM-15+0021GMTT V0202201N01491030001CN0112001N1+01401+01201999999ADDAG12000GA1041+004509089GA2061+030009039MA1101391999999REMMET004NSG?EQDQ01+000000PRSWM2
0151601010999991988011309004+35733-005900SY-MT+0021GMTT V0201801N01541036001CN0100001N1+01481+01101101401ADDAA106000091AG14000GA1031+004509089GF107991031021004501071999MA1101391999999MD1710101+9999MW1151OC102161REMSYN017333   83815 86360EQDQ01+000003PRSWM1
0084601010999991988011309304+35733-005900FM-15+0021GMTT V0202001N01751030001CN0112001N1+01501+01101999999ADDAG12999GA1041+004509089GA2061+030009039MA1101391999999OC102271EQDQ01+000000PRSWM2
0071601010999991988011311004+35733-005900FM-15+0021GMTT V0202001N01651004501CN0080001N1+01301+01001999999ADDAG12999GA1051+004509089GA2061+030009039MA1101391999999MW1601OC102161
0141601010999991988011312004+35733-005900FM-12+0021GMTT V0202001N01541004501CN0080001N9+01251+01121101431ADDAA106002091AG10003AY181061AY261061GA1051+004509089GA2061+030009049GF108991051021004501071999MD1310031+9999MW1801REMSYN017333   85815 86460
0084601010999991988011312304+35733-005900FM-15+0021GMTT V0202001N01751004501CN0080001N1+01301+01101999999ADDAG12999GA1051+004509089GA2061+030009039MA1101391999999OC102271EQDQ01+000000PRSWM2
0071601010999991988011313004+35733-005900FM-15+0021GMTT V0202201N01541004501CN0070001N1+01301+01101999999ADDAG12999GA1051+004509089GA2061+030009039MA1101391999999MW1801OC102061
0082601010999991988011313304+35733-005900FM-15+0021GMTT V0202201N01541004501CN0060001N1+01201+01101999999ADDAG12999GA1031+003009089GA2071+004509089MA1101291999999MW1801OC102161REMMET002G?
0076601010999991988011314004+35733-005900FM-15+0021GMTT V0202601N00511004501CN0070001N1+01301+01201999999ADDAG12999GA1031+003009089GA2071+004509089MA1101291999999MW1251REMMET004NSG?
0130601010999991988011315004+35733-005900FM-12+0021GMTT V0202801N00411004501CN0070001N9+01411+01231101321ADDAG12001AY181031AY221031GA1031+003009089GA2071+004509089GF108991081021004501999999MD1610111+9999MW1251REMSYN017333   83810 87815
0089601010999991988011315304+35733-005900FM-15+0021GMTT V0202801N00411004501CN0080001N1+01401+01201999999ADDAG12999GA1031+003009089GA2071+004509089MA1101291999999REMMET004NSG?EQDQ01+000000PRSWM2
0204601010999991988011318004+35733-005900SY-MT+0021GMTT V0202601N00261004801CN0080001N1+01361+01041101401ADDAA199006091AG10001AY181061AY221061GA1041+003909089GA2061+004809059GF108991081081004501999999KA1120M+01441MA1101391999999MD1110081+9999MW1021REMSYN023333   10144 84813 86616MET004NSG?EQDQ01+000000PRSWM2
0108601010999991988011321004+35733-005900FM-12+0021GMTT V0202401N00771006001CN0080001N9+01251+01161101511ADDAG12000GA1031+003909089GA2061+006009059GF108991081081004501999999MD1310111+9999REMSYN017333   83813 86620
0089601010999991988011321304+35733-005900FM-15+0021GMTT V0202401N00721006001CN0080001N1+01301+01201999999ADDAG12999GA1031+003909089GA2061+006009059MA1101491999999REMMET004NSG?EQDQ01+000000PRSWM2
0063601010999991988011322004+35733-005900FM-15+0021GMTT V0202401N00511003901CN0060001N1+01301+01201999999ADDAG12999GA1051+003909089GA2071+004809059MA1101491999999MW1801
0141601010999991988011400004+35733-005900FM-12+0021GMTT V0202401N00721004801CN0070001N9+01121+00961101471ADDAA106007091AG10003AY181061AY281061GA1061+004809089GA2031+030009039GF108991061021004501031999MD1810041+9999MW1801REMSYN017333   86816 83360
0130601010999991988011403004+35733-005900FM-12+0021GMTT V0201801N00101030001CN0080001N9+01041+00861101401ADDAG12001AY181031AY261031GA1041+004809089GA2051+030009049GF108991041021004501071999MD1610071+9999MW1211REMSYN017333   84816 85460
0160601010999991988011406004+35733-005900FM-12+0021GMTT V0202001N00821030001CN0080001N9+01021+00921101361ADDAA124019091AG10001AY161061AY281061GA1041+004809089GA2051+030009049GF108991041021004501071999KA1120N+00931MD1710041+9999MW1211REMSYN023333   20093 84816 85460
0073601010999991988011408004+35733-005900FM-15+0021GMTT V0202201N00821220001CN0112001N1+01001+00801999999ADDAG12999GA1041+004809089MA1101391999999REMMET004NSG?EQDQ01+000000PRSWM2
0169601010999991988011409004+35733-005900SY-MT+0021GMTT V0202001N00821006901CN0100001N1+01101+00881101461ADDAA106000091AG14000GA1041+004809089GA2011+006909099GF105991051091004501001001MA1101391999999MD1310101+9999MW1001REMSYN017333   84816 81923MET004NSG?EQDQ01+000000PRSWM2
0089601010999991988011411004+35733-005900FM-15+0021GMTT V0202201N01031006901CN0112001N1+01401+01101999999ADDAG12999GA1031+004809089GA2021+006909099MA1101391999999REMMET004NSG?EQDQ01+000000PRSWM2
0097601010999991988011411304+35733-005900FM-15+0021GMTT V0202201N01031006901CN0112001N1+01401+01101999999ADDAG12000GA1031+004809089GA2021+006909099MA1101391999999OC101541REMMET004NSG?EQDQ01+000000PRSWM2
0119601010999991988011412004+35733-005900FM-12+0021GMTT V0202201N01031220001CN0150001N9+01461+01131101461ADDAA106000091AG14000GA1021+004809089GA2021+006909099GF103991031091004501001001MD1010001+9999REMSYN017333   82816 82923
0135601010999991988011418004+35733-005900FM-12+0021GMTT V0202201N01031004201CN0070001N9+01361+01161101181ADDAA199006091AG10001AY181061AY281061GF107991071091004501999999KA1120M+01561KA2120N+00931MD1610101+9999MW1251REMSYN017333   10156 20093
0160601010999991988011421004+35733-005900FM-12+0021GMTT V0202201N00931004501CN0080001N9+01301+01111101181ADDAA106999999AG14001AY181031AY221031GA1071+004509089GA2021+006909099GF108991081091004501999999MD1410001+9999MW1211REMSYN017333   87815 82923EQDQ01  00002PRCP06
0141601010999991988011500004+35733-005900FM-12+0021GMTT V0202201N00821004501CN0080001N9+01181+01081101161ADDAA106008091AG10003AY181061AY261061GA1061+004509089GA2021+006909099GF108991081091004501999999MD1810021+9999MW1611REMSYN017333   86815 82923
0160601010999991988011506004+35733-005900FM-12+0021GMTT V0202001N00771004501CN0080001N9+01081+01021101101ADDAA124026091AG10003AY161061AY261061GA1061+004509089GA2021+006909099GF108991081091004501999999KA1120N+01081MD1510001+9999MW1611REMSYN023333   20108 86815 82923
0119601010999991988011509004+35733-005900FM-12+0021GMTT V0202001N00311004501CN0080001N9+01121+01051101231ADDAA106000091AG14000GA1061+004509089GA2021+006909099GF107991071091004501999999MD1110131+9999REMSYN017333   86815 82923
0141601010999991988011512004+35733-005900FM-12+0021GMTT V0202001N00821004501CN0080001N9+01241+01051101341ADDAA106001091AG10001AY181061AY221061GA1061+004509089GA2021+006909099GF107991071091004501999999MD1210111+9999MW1021REMSYN017333   86815 82923
0089601010999991988011514004+35733-005900FM-15+0021GMTT V0202001N01031004501CN0112001N1+01301+01001999999ADDAG12999GA1061+004509089GA2021+006909099MA1101081999999REMMET004NSG?EQDQ01+000000PRSWM2
0130601010999991988011515004+35733-005900FM-12+0021GMTT V0202001N00821004501CN0100001N9+01311+01141101191ADDAG12001AY181031AY221031GA1061+004509089GA2021+006909099GF107991071091004501999999MD1610151+9999MW1021REMSYN017333   86815 82923
0160601010999991988011518004+35733-005900FM-12+0021GMTT V0202001N00511004501CN0080001N9+01151+00951101261ADDAA199004091AG10003AY181061AY221061GA1061+004509089GA2021+006909099GF108991081091004501999999KA1120M+01341MD1310071+9999MW1801REMSYN023333   10134 86815 82923
0076601010999991988011520304+35733-005900FM-15+0021GMTT V0202001N00511004501CN0080001N1+01101+01001999999ADDAG12000GA1061+004509089GA2021+006909099MA1101191999999EQDQ01+000000PRSWM2
0174601010999991988011521004+35733-005900SY-MT+0021GMTT V0202201N00511004501CN0080001N1+01111+00831101311ADDAG12001AY181031AY221031GA1061+004509089GA2011+006909099GF106991061091004501001001MA1101291999999MD1210051+9999MW1011REMSYN017333   86815 81923MET004NSG?EQDQ01+000000PRSWM2
0089601010999991988011522004+35733-005900FM-15+0021GMTT V0202201N00311004501CN0080001N1+01101+00901999999ADDAG12999GA1061+004509089GA2011+006909099MA1101291999999REMMET004NSG?EQDQ01+000000PRSWM2
0119601010999991988011600004+35733-005900FM-12+0021GMTT V0209991C00001004801CN0100001N9+00981+00861101851ADDAA106000391AG10001AY181061AY221061GA1051+004809089GF105991051021004501001001MD1410001+9999MW1021REMSYN011333   85816
0097601010999991988011603004+35733-005900FM-12+0021GMTT V0209991C00001220001CN0100001N9+00721+00631101231ADDAA106000091AG14000GA1031+004809089GF103991031021004501001001MD1610121+9999REMSYN011333   83816
0116601010999991988011606004+35733-005900FM-12+0021GMTT V0209991C00001004801CN0080001N9+00951+00891101081ADDAA124004091AG10000GA1071+004809089GF107991071021004501999999KA1120N+00741MD1610141+9999REMSYN017333   20074 87816
0047601010999991988011608004+35733-005900FM-15+0021GMTT V0209991C00001004501CN0080001N1+01101+00901999999ADDAG12999GA1081+004509089MA1101021999999MW1211
0072601010999991988011608304+35733-005900FM-15+0021GMTT V0209991C00001004501CN0080001N1+01101+00901999999ADDAG12000GA1081+004509089MA1101021999999REMMET003NG?EQDQ01+000000PRSWM2
0135601010999991988011609004+35733-005900FM-12+0021GMTT V0209991C00001004801CN0060001N9+00961+00861101101ADDAG12001AY161031GA1031+003909089GA2071+004809059GF108991081081004501999999MD1310021+9999REMSYN017333   83813 87616EQDQ01+000362PRSWM1
0063601010999991988011610004+35733-005900FM-15+0021GMTT V0209991C00001004801CN0070001N1+01001+00901999999ADDAG12999GA1031+003909089GA2071+004809059MA1101081999999MW1601
0063601010999991988011611004+35733-005900FM-15+0021GMTT V0209991C00001004801CN0060001N1+01101+01001999999ADDAG12999GA1041+003909089GA2071+004809059MA1101081999999MW1601
0156601010999991988011612004+35733-005900SY-MT+0021GMTT V0209991C00001004801CN0060001N1+01061+00981101061ADDAA106006091AG10001AY161061AY261061GA1041+003909089GA2071+004809059GF108991081081004501999999MA1101021999999MD1810041+9999MW1601REMSYN017333   84813 87616
0076601010999991988011613004+35733-005900FM-15+0021GMTT V0202201N00151004801CN0070001N1+01101+01001999999ADDAG12999GA1041+003909089GA2071+004809059MA1101021999999EQDQ01+000000PRSWM2
0182601010999991988011615004+35733-005900FM-12+0021GMTT V0202201N00621003901CN0070001N9+01141+01061100841ADDAA106000091AG14000AY121031AY261031GA1041+001809079GA2041+003909059GA3071+027009049GF107991999051001501999999MD1710221+9999MW1011REMSYN023333   84706 84613 87459EQDQ01+000082SCOTLC
0094601010999991988011615304+35733-005900FM-15+0021GMTT V0202201N00511003901CN0070001N1+01101+01101999999ADDAG12999GA1041+001809079GA2041+003909059GA3071+027009049MA1100811999999MW1601REMMET006NOSIG?
0094601010999991988011616304+35733-005900FM-15+0021GMTT V0202201N00511003901CN0070001N1+01101+01101999999ADDAG12999GA1041+001809079GA2041+003909059GA3071+027009049MA1100811999999MW1211REMMET006NOSIG?
0094601010999991988011617004+35733-005900FM-15+0021GMTT V0202201N00511003901CN0070001N1+01201+01101999999ADDAG12999GA1041+001809079GA2041+003909059GA3071+027009049MA1100811999999MW1211REMMET006NOSIG?
0107601010999991988011617304+35733-005900FM-15+0021GMTT V0202201N00821003901CN0070001N1+01201+01101999999ADDAG12000GA1041+001809079GA2041+003909059GA3071+027009049MA1100811999999REMMET006NOSIG?EQDQ01+000000PRSWM2
0201601010999991988011618004+35733-005900FM-12+0021GMTT V0202201N00511003901CN0060001N9+01041+00961100821ADDAA199007091AG10001AY161061AY221061GA1041+001809079GA2041+003909059GA3071+027009049GF108991999051001501071999KA1120M+01201MD1510011+9999MW1021REMSYN029333   10120 84706 84613 87459EQDQ01+000082SCOTLC
0089601010999991988011618304+35733-005900FM-15+0021GMTT V0202201N00511003901CN0060001N1+01001+01001999999ADDAG12999GA1041+001809079GA2041+003909059MA1100811999999REMMET004NSH?EQDQ01+000000PRSWM2
0090601010999991988011619004+35733-005900FM-15+0021GMTT V0202401N00261003901CN0060001N1+01001+00901999999ADDAG12999GA1041+001809079GA2041+003909059GA3071+027009039REMMET004NSG?EQDQ01+000000PRSWM2
0105601010999991988011619304+35733-005900FM-15+0021GMTT V0202401N00721003901CN0060001N1+01001+00901999999ADDAG12999GA1041+001809079GA2041+003909059GA3071+027009039MA1100811999999REMMET004NSG?EQDQ01+000000PRSWM2
0136601010999991988011621004+35733-005900FM-12+0021GMTT V0202201N00511003901CN0060001N9+01021+00861100871ADDAG12001AY161031AY261031GA1041+001809079GA2041+003909059GF108991061051004501999999MD1210041+9999MW1601REMSYN023333   84706 84613 97459
0079601010999991988011621304+35733-005900FM-15+0021GMTT V0202201N00511003901CN0060001N1+01001+00901999999ADDAG12999GA1041+001809079GA2041+003909059GA3071+027009039MA1100811999999MW1601
0079601010999991988011622304+35733-005900FM-15+0021GMTT V0202201N00511003901CN0060001N1+01001+00801999999ADDAG12999GA1041+001809079GA2041+003909059GA3071+027009039MA1100811999999MW1211
0079601010999991988011623004+35733-005900FM-15+0021GMTT V0202201N00511003901CN0060001N1+01001+00801999999ADDAG12999GA1041+001809079GA2041+003909059GA3071+027009039MA1100811999999MW1211
0092601010999991988011623304+35733-005900FM-15+0021GMTT V0202201N00511003901CN0060001N1+01001+00801999999ADDAG12000GA1041+001809079GA2041+003909059GA3071+027009039MA1100811999999EQDQ01+000000PRSWM2
0197601010999991988011700004+35733-005900SY-MT+0021GMTT V0202201N00411003901CN0060001N1+00941+00861100871ADDAA106000591AG10001AY161061AY261061GA1041+001809079GA2041+003909059GA3071+027009039GF108991061051002501999999MA1100811999999MD1410001+9999MW1021REMSYN023333   84706 84613 87459EQDQ01+000000PRSWM2
0092601010999991988011701004+35733-005900FM-15+0021GMTT V0202201N00511003901CN0069001N1+00901+00901999999ADDAG11999GA1041+001809079GA2041+003909059GA3071+027009039MA1100811999999EQDQ01+000000PRSWM2
0092601010999991988011702004+35733-005900FM-15+0021GMTT V0202401N00311003901CN0060001N1+00901+00801999999ADDAG11999GA1041+001809079GA2041+003909059GA3071+027009039MA1100811999999EQDQ01+000000PRSWM2
0130601010999991988011703004+35733-005900FM-12+0021GMTT V0202401N00311003901CN0060001N9+00921+00841100841ADDAG12000GA1041+001809079GA2041+003909059GA3071+027009049GF108991061051002501999999MD1810031+9999REMSYN023333   84706 84613 87459
0092601010999991988011705304+35733-005900FM-15+0021GMTT V0209991C00001003901CN0070001N1+00901+00901999999ADDAG12000GA1021+001809079GA2031+003909059GA3061+027009039MA1100811999999EQDQ01+000000PRSWM2
0197601010999991988011706004+35733-005900SY-MT+0021GMTT V0209991C00001003901CN0060001N1+00941+00801100801ADDAA124008091AG10001AY161061AY261061GA1041+001809079GA2041+003909059GA3071+027009039GF108991061051002501999999KA1120N+00881MA1100811999999MD1810041+9999MW1601REMSYN029333   20088 84706 84613 97459
0079601010999991988011706304+35733-005900FM-15+0021GMTT V0209991C00001003901CN0060001N1+00901+00801999999ADDAG12999GA1041+001809079GA2031+003909059GA3071+027009039MA1100811999999MW1211
0079601010999991988011707004+35733-005900FM-15+0021GMTT V0209991C00001003901CN0060001N1+00901+00801999999ADDAG12999GA1041+001809079GA2041+003909059GA3071+027009039MA1100811999999MW1211
0092601010999991988011707304+35733-005900FM-15+0021GMTT V0209991C00001003901CN0060001N1+00901+00801999999ADDAG12999GA1041+001809079GA2041+003909059GA3071+027009039MA1100811999999EQDQ01+000000PRSWM2
0182601010999991988011709004+35733-005900FM-12+0021GMTT V0209991C00001004501CN0060001N9+00991+00911100921ADDAA106999999AG14001AY161031AY221031GA1021+003009079GA2041+004509059GA3071+027009049GF108991051051002501021999MD1310121+9999MW1601REMSYN023333   82710 84615 87459EQDQ01  00002PRCP06
0094601010999991988011710004+35733-005900FM-15+0021GMTT V0202001N00411004801CN0080001N1+01001+00901999999ADDAG12999GA1021+003009079GA2051+004809059GA3081+027009049MA1100911999999MW1211REMMET006NOSIG?
0107601010999991988011710304+35733-005900FM-15+0021GMTT V0202001N00311004501CN0080001N1+01001+00901999999ADDAG12999GA1021+003009079GA2051+004509059GA3081+027009049MA1100911999999REMMET006NOSIG?EQDQ01+000000PRSWM2
0105601010999991988011711004+35733-005900FM-15+0021GMTT V0202201N00411004501CN0080001N1+01101+01001999999ADDAG12999GA1021+003009079GA2041+004509059GA3081+027009049MA1101021999999REMMET004NSG?EQDQ01+000000PRSWM2
0209601010999991988011712004+35733-005900SY-MT+0021GMTT V0202201N00511004501CN0080001N1+01121+00991101041ADDAA106002091AG10001AY161061AY261061GA1021+003009079GA2041+004509089GA3081+027009039GF108991061021004501021999MA1101021999999MD1110121+9999MW1031REMSYN023333   82710 85815 88459MET006NPSIG?EQDQ01+000000PRSWM2
0171601010999991988011715004+35733-005900FM-12+0021GMTT V0202401N00151004801CN0070001N9+01321+00941100931ADDAG12001AY161031AY221031GA1031+003909089GA2051+004809059GA3061+024009049GF108991061081004501071999MD1510111+9999MW1211REMSYN023333   83813 85616 86458EQDQ01+001102APC3  
0076601010999991988011717004+35733-005900FM-15+0021GMTT V0202201N00311004501CN0080001N1+01201+01101999999ADDAG12999GA1061+004509089GA2071+024009039MA1100911999999EQDQ01+000000PRSWM2
0160601010999991988011718004+35733-005900FM-12+0021GMTT V0202201N00411004501CN0080001N9+01151+01091100991ADDAA199004091AG10001AY161061AY221061GA1061+004509089GA2071+024009049GF108991061021004501071999KA1120M+01251MD1410001+9999MW1021REMSYN023333   10125 86815 87458
0116601010999991988011721004+35733-005900FM-12+0021GMTT V0203401N00211004501CN0080001N9+01121+01041101051ADDAG12000AY121031AY261031GA1051+004509089GA2061+027009049GF107991051021004501071999MW1021REMSYN017333   85815 86459
0091601010999991988011721304+35733-005900FM-15+0021GMTT V0209991C00001004501CN0080001N1+01101+01001999999ADDAG12999GA1051+004509089GA2061+027009049MA1101021999999REMMET006NOSIG?EQDQ01+000000PRSWM2
0091601010999991988011722004+35733-005900FM-15+0021GMTT V0209991C00001027001CN0112001N1+01101+00901999999ADDAG12999GA1041+004509089GA2051+027009039MA1101081999999REMMET006NOSIG?EQDQ01+000000PRSWM2
0091601010999991988011722304+35733-005900FM-15+0021GMTT V0209991C00001030001CN0112001N1+01101+01001999999ADDAG12999GA1041+004509089GA2051+030009039MA1101081999999REMMET006NOSIG?EQDQ01+000000PRSWM2
0099601010999991988011723004+35733-005900FM-15+0021GMTT V0209991C00001030001CN9999999N9+01101+99999999999ADDAG12999GA1041+004509089GA2051+030009039REMMET013091011 NOSIG?EQDQ01+000002VOVAR Q02+000000PRSWM2
0181601010999991988011800004+35733-005900SY-MT+0021GMTT V0209991C00001030001CN0100001N1+00851+00811101201ADDAA106999929AG10000AY121061AY261061GA1041+004509089GA2041+030009039GF106991041021004501071001MA1101191999999MD1210081+9999MW1021REMSYN011333   84815MET006NOSIG?EQDQ01+000000PRSWM2
0091601010999991988011801004+35733-005900FM-15+0021GMTT V0209991C00001030001CN0112001N1+00801+00801999999ADDAG11999GA1031+004509089GA2041+030009039MA1101191999999REMMET006NOSIG?EQDQ01+000000PRSWM2
0091601010999991988011801304+35733-005900FM-15+0021GMTT V0209991C00001030001CN0112001N1+00801+00801999999ADDAG11999GA1031+004509089GA2041+030009039MA1101191999999REMMET006NOSIG?EQDQ01+000000PRSWM2
0107601010999991988011802004+35733-005900FM-15+0021GMTT V0209991C00001030001CN9999999N9+00801+00801999999ADDAG11999GA1031+004509089GA2041+030009039MA1101191999999REMMET006NOSIG?EQDQ01+000002VOVAR Q02+000000PRSWM2
0171601010999991988011803004+35733-005900SY-MT+0021GMTT V0209991C00001030001CN0100001N1+00801+00721101241ADDAA106000091AG14000GA1031+004509089GA2041+030009039GF105991031011004501071001MA1101191999999MD1310041+9999MW1001REMSYN017333   83815 84360MET006NOSIG?EQDQ01+000000PRSWM2
0107601010999991988011804304+35733-005900FM-15+0021GMTT V0209991C00001030001CN9999999N9+00801+00701999999ADDAG12999GA1031+004509089GA2041+030009039MA1101191999999REMMET006NOSIG?EQDQ01+000002VOVAR Q02+000000PRSWM2
0081601010999991988011805004+35733-005900FM-15+0021GMTT V0209991C00001220001CN9999999N9+00801+00701999999ADDAG12999GA1041+030009039MA1101191999999MW1151REMMET006NOSIG?EQDQ01+000002VOVAR 
0190601010999991988011806004+35733-005900SY-MT+0021GMTT V0209991C00001030001CN0100001N1+01001+00901101281ADDAA124004091AG10000GA1031+004509089GA2041+030009039GF105991031021004501071001KA1120N+00611MA1101191999999MD1310041+9999MW1001REMSYN023333   20061 83815 84360MET006NOSIG?EQDQ01+000000PRSWM2
0109601010999991988011808004+35733-005900FM-15+0021GMTT V0209991C00001004501CN0112001N1+01001+00901999999ADDAG12999GA1051+004509089GA2031+030009039MA1101291999999REMMET024NOSIG?7@@@@@*@@@@@@@@@:HEQDQ01+000000PRSWM2
0171601010999991988011809004+35733-005900SY-MT+0021GMTT V0209991C00001030001CN0100001N1+01051+00951101431ADDAA106000091AG14000GA1031+004509089GA2031+030009039GF106991031021004501031021MA1101391999999MD1310151+9999MW1001REMSYN017333   83815 83360MET006NOSIF?EQDQ01+000000PRSWM2
0099601010999991988011812004+35733-005900FM-12+0021GMTT V0209991C00001036001CN0150001N9+01381+01041101621ADDAA106000091AC1099AG14000GF106991031021004501031021IA2240+00009MD1110191+9999REMSYN011333   00080
0076601010999991988011814004+35733-005900FM-15+0021GMTT V0202801N00311069001CN0112001N1+01501+01101999999ADDAG12999GA1031+004509089GA2051+069009009MA1101491999999EQDQ01+000000PRSWM2
0119601010999991988011815004+35733-005900FM-12+0021GMTT V0203001N00411090001CN0150001N9+01451+01011101521ADDAA106000091AG14000GA1041+004509089GA2051+999999009GF106991041021004501001021MD1110101+9999REMSYN017333   84815 8508/
0076601010999991988011816004+35733-005900FM-15+0021GMTT V0202801N00411004501CN0112001N1+01501+01001999999ADDAG12999GA1051+004509089GA2041+069009009MA1101491999999EQDQ01+000000PRSWM2
0178601010999991988011818004+35733-005900SY-MT+0021GMTT V0202601N00211004501CN0150001N1+01261+01031101601ADDAA106000091AG14000GA1051+004509089GA2041+069009009GF106991051021004501001021KA1120M+01461MA1101591999999MD1210081+9999MW1001REMSYN023333   10146 85815 84073EQDQ01+000000PRSWM2
0089601010999991988011818304+35733-005900FM-15+0021GMTT V0202801N00311004501CN0112001N1+01301+01001999999ADDAG12999GA1051+004509089GA2041+069009009MA1101591999999REMMET004NSG?EQDQ01+000000PRSWM2
0089601010999991988011819004+35733-005900FM-15+0021GMTT V0202801N00101004501CN0112001N1+01301+01001999999ADDAG12999GA1051+004509089GA2041+069009009MA1101591999999REMMET004NSG?EQDQ01+000000PRSWM2
0089601010999991988011819304+35733-005900FM-15+0021GMTT V0209991C00001004501CN0112001N1+01301+01001999999ADDAG12999GA1051+004509089GA2041+069009009MA1101591999999REMMET004NSG?EQDQ01+000000PRSWM2
0089601010999991988011820004+35733-005900FM-15+0021GMTT V0209991C00001004501CN0112001N1+01201+01001999999ADDAG12999GA1051+004509089GA2041+069009009MA1101591999999REMMET004NSG?EQDQ01+000000PRSWM2
0073601010999991988011820304+35733-005900FM-15+0021GMTT V0209991C00001004501CN0112001N1+01201+01001999999ADDAG12000GA1051+004509089MA1101591999999REMMET004NSG?EQDQ01+000000PRSWM2
0177601010999991988011821004+35733-005900SY-MT+0021GMTT V0202601N00151069001CN0100001N1+01161+00991101631ADDAA106000091AG14000GA1031+003909089GA2041+069009009GF105991031021004501001021MA1101591999999MD1310031+9999MW1001REMSYN023333   83813 83816 84073MET006NOSIG?EQDQ01+000000PRSWM2
0076601010999991988011821304+35733-005900FM-15+0021GMTT V0203001N00411069001CN0112001N1+01201+01001999999ADDAG12999GA1031+004809089GA2041+069009009MA1101591999999EQDQ01+000000PRSWM2
0076601010999991988011822004+35733-005900FM-15+0021GMTT V0203001N00311069001CN0112001N1+01101+01001999999ADDAG12999GA1031+004809089GA2041+069009009MA1101591999999EQDQ01+000000PRSWM2
0060601010999991988011823004+35733-005900FM-15+0021GMTT V0202401N00261220001CN0112001N1+01101+01001999999ADDAG12999GA1041+069009009MA1101591999999EQDQ01+000000PRSWM2
0141601010999991988011900004+35733-005900FM-12+0021GMTT V0202801N00311004801CN0100001N9+01191+01071101601ADDAA106001091AG10000AY121061AY221061GA1031+003909089GA2051+004809059GF107991061081004501001021MD1810031+9999MW1251REMSYN017333   83813 85616
0076601010999991988011902004+35733-005900FM-15+0021GMTT V0202801N00411004801CN0112001N1+01201+01101999999ADDAG11999GA1031+003909089GA2051+004809059MA1101491999999EQDQ01+000000PRSWM2
0119601010999991988011903004+35733-005900FM-12+0021GMTT V0202601N00311004801CN0100001N9+01121+00981101571ADDAA106000091AG14000GA1031+003909089GA2041+004809059GF107991051021004501081011MD1310031+9999REMSYN017333   83813 84616
0100601010999991988011903304+35733-005900FM-15+0021GMTT V0209999999999004801CN0112001N1+01101+01001999999ADDAG12999GA1031+003909089GA2041+004809059MA1101491999999REMMET015  = 42  0910  =EQDQ01+000000PRSWM2
0076601010999991988011904304+35733-005900FM-15+0021GMTT V0202401N00311004501CN0112001N1+01101+01001999999ADDAG12999GA1031+003909089GA2051+004509059MA1101491999999EQDQ01+000000PRSWM2
0076601010999991988011905004+35733-005900FM-15+0021GMTT V0202601N00411004801CN0112001N1+01101+01001999999ADDAG12999GA1031+003909089GA2051+004809059MA1101491999999EQDQ01+000000PRSWM2
0178601010999991988011906004+35733-005900SY-MT+0021GMTT V0202601N00511004801CN0100001N1+01341+01111101351ADDAA124001091AG10000GA1031+003909089GA2051+004809059GF107991061081004501001021KA1120N+01191MA1101291999999MD1710091+9999MW1001REMSYN023333   20119 83813 85616EQDQ01+000000PRSWM2
0076601010999991988011908004+35733-005900FM-15+0021GMTT V0202601N00771004801CN0080001N1+01301+01201999999ADDAG12001GA1031+003909089GA2061+004809059MA1101081999999MW1251REMMET004NSG?
0152601010999991988011909004+35733-005900FM-12+0021GMTT V0202401N01441003901CN0060001N9+01301+01181101201ADDAG12004AY181031AY221031GA1021+001809079GA2031+003909089GA3061+004809059GF108991081081002501999999MD1610151+9999MW1811REMSYN023333   82706 83813 86616
0091601010999991988011911004+35733-005900FM-15+0021GMTT V0202201N00311069001CN0112001N1+01501+01301999999ADDAG12999GA1041+004509089GA2051+069009009MA1101491999999REMMET006NOSIG?EQDQ01+000000PRSWM2
0141601010999991988011912004+35733-005900FM-12+0021GMTT V0203001N01341004501CN0100001N9+01401+00891101421ADDAA106006091AG10001AY181061AY221061GA1051+004509089GA2051+004809059GF107991071081004501999999MD1210221+9999MW1021REMSYN017333   85815 85616
0076601010999991988011913004+35733-005900FM-15+0021GMTT V0203001N01441004501CN0112001N1+01401+00901999999ADDAG12999GA1051+004509089GA2051+004809059MA1101391999999EQDQ01+000000PRSWM2
0076601010999991988011914004+35733-005900FM-15+0021GMTT V0203001N01441004501CN0112001N1+01501+00901999999ADDAG12999GA1051+004509089GA2051+004809059MA1101391999999EQDQ01+000000PRSWM2
0137601010999991988011915004+35733-005900SY-MT+0021GMTT V0203001N01341003901CN0100001N1+01471+00951101391ADDAA106000091AG14000GA1061+003909089GF106991061021004501001001MA1101291999999MD1810031+9999MW1001REMSYN011333   86813EQDQ01+000000PRSWM2
0060601010999991988011916004+35733-005900FM-15+0021GMTT V0203001N01341003901CN0112001N1+01501+01001999999ADDAG12999GA1061+003909089MA1101291999999EQDQ01+000000PRSWM2
0072601010999991988011917004+35733-005900FM-15+0021GMTT V0202801N01341003901CN0112001N1+01301+00901999999ADDAG12999GA1061+003909089MA1101391999999REMMET003NG?EQDQ01+000000PRSWM2
0175601010999991988011918004+35733-005900SY-MT+0021GMTT V0203001N01131003901CN0080001N1+01301+00871101551ADDAA199007091AG10001AY181061AY281061GA1061+003909089GA2011+004809099GF107991071091004501999999KA1120M+01541MA1101491999999MD1310161+9999MW1251REMSYN023333   10154 86813 81916
0044601010999991988011919004+35733-005900FM-15+0021GMTT V0203001N01341220001CN0080001N1+01301+00901999999ADDAG12999MA1101491999999EQDQ01+000000PRSWM2
0130601010999991988011921004+35733-005900FM-12+0021GMTT V0203001N01291003901CN0080001N9+01151+00751101781ADDAG12003AY181031AY291031GA1051+003909089GA2021+004509099GF107991071091004501999999MD1210231+9999MW1951REMSYN017333   85813 82915
0141601010999991988012000004+35733-005900FM-12+0021GMTT V0203201N01291220001CN0080001N9+01271+00871101941ADDAA106003091AG10004AY191061AY291061GA1021+003909089GA2011+006009099GF103991031091004501001001MD1310161+9999MW1011REMSYN017333   82813 81920
0097601010999991988012001304+35733-005900FM-15+0021GMTT V0203201N01181220001CN0080001N1+01301+00801999999ADDAG11999GA1021+003909089GA2011+006009099MA1101901999999OC101801REMMET004NSG?EQDQ01+000000PRSWM2
0097601010999991988012002004+35733-005900FM-15+0021GMTT V0203201N01131220001CN0080001N1+01301+00801999999ADDAG11999GA1021+003909089GA2011+006009099MA1101901999999OC101751REMMET004NSG?EQDQ01+000000PRSWM2
0097601010999991988012002304+35733-005900FM-15+0021GMTT V0203201N01291220001CN0080001N1+01301+00801999999ADDAG12000GA1021+003909089GA2011+006009099MA1101901999999OC101801REMMET004NSG?EQDQ01+000000PRSWM2
0177601010999991988012003004+35733-005900SY-MT+0021GMTT V0203201N01291220001CN0080001N1+01251+00831102021ADDAA106000091AG14000GA1021+003909089GA2011+006009099GF103991031091004501001001MA1102001999999MD1310081+9999MW1001OC101851REMSYN017333   82813 81920MET004NSG?EQDQ01+000000PRSWM2
0097601010999991988012005004+35733-005900FM-15+0021GMTT V0203201N01291220001CN0080001N1+01201+00801999999ADDAG12999GA1021+003909089GA2011+006009099MA1102001999999OC101801REMMET004NSG?EQDQ01+000000PRSWM2
0138601010999991988012006004+35733-005900FM-12+0021GMTT V0203201N01291220001CN0080001N9+01201+99999102101ADDAA124010091AG10000GA1021+003909089GA2011+006009099GF103991031091004501001001KA1120N+00961MD1210081+9999REMSYN023333   20096 82813 81920
0044601010999991988012008004+35733-005900FM-15+0021GMTT V0203401N00621220001CN0112001N1+01301+00601999999ADDAG12999MA1102201999999EQDQ01+000000PRSWM2
0060601010999991988012008304+35733-005900FM-15+0021GMTT V0203401N00621004801CN0112001N1+01301+00601999999ADDAG12000GA1061+004809089MA1102201999999EQDQ01+000000PRSWM2
0137601010999991988012009004+35733-005900SY-MT+0021GMTT V0203001N00621004801CN0100001N1+01221+00771102311ADDAA106000091AG14000GA1051+004809089GF105991051021004501001001MA1102301999999MD1210211+9999MW1001REMSYN011333   85816EQDQ01+000000PRSWM2
0060601010999991988012010004+35733-005900FM-15+0021GMTT V0203001N00931004801CN0112001N1+01301+00801999999ADDAG12999GA1051+004809089MA1102301999999EQDQ01+000000PRSWM2
0060601010999991988012011004+35733-005900FM-15+0021GMTT V0203001N00821004801CN0112001N1+01301+00801999999ADDAG12999GA1051+004809089MA1102301999999EQDQ01+000000PRSWM2
0146601010999991988012012004+35733-005900SY-MT+0021GMTT V0203001N00621004801CN0100001N1+01401+00911102461ADDAA106000091AG14000GA1051+004809089GF105991051021004501001001MA1102401999999MD1110151+9999MW1001REMSYN011333   85816MET003NG?EQDQ01+000000PRSWM2
0097601010999991988012015004+35733-005900FM-12+0021GMTT V0203001N01131004801CN0150001N9+01451+01051102401ADDAA106000091AG14000GA1051+004809089GF105991051021004501001001MD1610061+9999REMSYN011333   85816
0060601010999991988012016004+35733-005900FM-15+0021GMTT V0203001N01131004801CN0112001N1+01401+00901999999ADDAG12999GA1051+004809089MA1102401999999EQDQ01+000000PRSWM2
0060601010999991988012017004+35733-005900FM-15+0021GMTT V0203001N00931004801CN0112001N1+01301+00901999999ADDAG12999GA1051+004809089MA1102401999999EQDQ01+000000PRSWM2
0156601010999991988012018004+35733-005900SY-MT+0021GMTT V0203001N00821220001CN0100001N1+01201+00801102541ADDAA106000091AG14000GA1041+004809089GF104991041021004501001001KA1120M+01461MA1102511999999MD1310141+9999MW1001REMSYN017333   10146 84816EQDQ01+000000PRSWM2
0073601010999991988012019004+35733-005900FM-15+0021GMTT V0203001N00771220001CN0112001N1+01201+00801999999ADDAG12999GA1041+004809089MA1102511999999REMMET004NSG?EQDQ01+000000PRSWM2
0073601010999991988012019304+35733-005900FM-15+0021GMTT V0203001N00821220001CN0112001N1+01201+00801999999ADDAG12999GA1041+004809089MA1102511999999REMMET004NSG?EQDQ01+000000PRSWM2
0073601010999991988012020004+35733-005900FM-15+0021GMTT V0203001N00771220001CN0112001N1+01201+00901999999ADDAG12999GA1041+004809089MA1102611999999REMMET004NSG?EQDQ01+000000PRSWM2
0073601010999991988012020304+35733-005900FM-15+0021GMTT V0203001N00771220001CN0112001N1+01201+00801999999ADDAG12000GA1041+004809089MA1102611999999REMMET004NSG?EQDQ01+000000PRSWM2
0097601010999991988012021004+35733-005900FM-12+0021GMTT V0203001N00621220001CN0150001N9+01201+00781102841ADDAA106000091AG14000GA1021+004809089GF102991021021004501001001MD1210301+9999REMSYN011333   82816
0044601010999991988012021304+35733-005900FM-15+0021GMTT V0203001N00621220001CN0112001N1+01201+00801999999ADDAG12999MA1102811999999EQDQ01+000000PRSWM2
0044601010999991988012022004+35733-005900FM-15+0021GMTT V0203001N00511220001CN0112001N1+01201+00801999999ADDAG12999MA1102811999999EQDQ01+000000PRSWM2
0044601010999991988012022304+35733-005900FM-15+0021GMTT V0203001N00511220001CN0112001N1+01201+00801999999ADDAG12999MA1102811999999EQDQ01+000000PRSWM2
0058601010999991988012023004+35733-005900FM-15+0021GMTT V0203201N00311999991CY0099001N1+01201+00901999999ADDAG12999MA1102811999999REMMET005CAVOKEQDQ01+000000PRSWM2
0058601010999991988012023304+35733-005900FM-15+0021GMTT V0203201N00311999991CY0099001N1+01201+00801999999ADDAG12000MA1102811999999REMMET005CAVOKEQDQ01+000000PRSWM2
