0202601010999992000010100004+35730-005900SY-MT+0021GMTT V0200801N010312200019N0100001N1+01171+00611102321ADDAA106000091GF100991001001999999001001MA1102301999999MD1110121+9999MW1001REMSYN054AAXX  01004 60101 32960 00820 10117 20061 40232 51012;MET039GMTT 010000Z 08021KT CAVOK 12/06 Q1023;EQDQ01  00002PRCP06
0072601010999992000010101004+35730-005900FM-15+0021GMTT V0200801N01131220001CN0099001N1+01201+00601999999ADDMA1102201999999MW1001REMMET039GMTT 010100Z 08022KT CAVOK 12/06 Q1022;
0072601010999992000010102004+35730-005900FM-15+0021GMTT V0200801N01081220001CN0099001N1+01201+00601999999ADDMA1102201999999MW1001REMMET039GMTT 010200Z 08021KT CAVOK 12/06 Q1022;
0202601010999992000010103004+35730-005900SY-MT+0021GMTT V0200801N008712200019N0100001N1+01211+00601102261ADDAA106000091GF100991001001999999001001MA1102201999999MD1710061+9999MW1001REMSYN054AAXX  01034 60101 32960 00817 10121 20060 40226 57006;MET039GMTT 010300Z 08017KT CAVOK 12/06 Q1022;EQDQ01  00002PRCP06
0072601010999992000010104004+35730-005900FM-15+0021GMTT V0200701N00721220001CN0099001N1+01201+00601999999ADDMA1102201999999MW1001REMMET039GMTT 010400Z 07014KT CAVOK 12/06 Q1022;
0072601010999992000010105004+35730-005900FM-15+0021GMTT V0200701N00821220001CN0099001N1+01101+00601999999ADDMA1102201999999MW1001REMMET039GMTT 010500Z 07016KT CAVOK 11/06 Q1022;
0225601010999992000010106004+35730-005900SY-MT+0021GMTT V0200801N008212200019N0100001N1+01141+00601102311ADDAA106000091GF100991001001999999001001KA1999N+01121MA1102301999999MD1210051+9999MW1001REMSYN064AAXX  01064 60101 32960 00816 10114 20060 40231 52005 333 20112;MET039GMTT 010600Z 08016KT CAVOK 11/06 Q1023;EQDQ01  00002PRCP06
0072601010999992000010107004+35730-005900FM-15+0021GMTT V0200801N00621220001CN0099001N1+01101+00501999999ADDMA1102301999999MW1001REMMET039GMTT 010700Z 08012KT CAVOK 11/05 Q1023;
0078601010999992000010108004+35730-005900FM-15+0021GMTT V0201001N00461220001CN0099001N1+01001+00601999999ADDMA1102401999999MW1001REMMET045GMTT 010800Z 10009KT CAVOK 10/06 Q1024 NOSIG;
0208601010999992000010109004+35730-005900SY-MT+0021GMTT V0200901N005112200019N0150001N1+01221+00701102461ADDAA106000091GF100991001001999999001001MA1102401999999MD1210141+9999MW1001REMSYN054AAXX  01094 60101 32965 00910 10122 20070 40246 52014;MET045GMTT 010900Z 09010KT CAVOK 12/07 Q1024 NOSIG;EQDQ01  00002PRCP06
0078601010999992000010110004+35730-005900FM-15+0021GMTT V0200801N00771220001CN0099001N1+01301+00801999999ADDMA1102401999999MW1001REMMET045GMTT 011000Z 08015KT CAVOK 13/08 Q1024 NOSIG;
0078601010999992000010111004+35730-005900FM-15+0021GMTT V0200801N01031220001CN0099001N1+01501+00701999999ADDMA1102511999999MW1001REMMET045GMTT 011100Z 08020KT CAVOK 15/07 Q1025 NOSIG;
0246601010999992000010112004+35730-005900SY-MT+0021GMTT V0200801N009812200019N0150001N1+01511+00761102551ADDAA106000091GA1021+004809999GF102991021021004501001001MA1102511999999MD1110141+9999MW1001REMSYN070AAXX  01124 60101 32465 20819 10151 20076 40255 51014 82200 333 82816;MET051GMTT 011200Z 08019KT 9999 FEW016 15/08 Q1025 NOSIG;EQDQ01  00002PRCP06
0126601010999992000010113004+35730-005900FM-15+0021GMTT V0201001N009812200019N0112651N1+01501+00701999999ADDGA1021+004809999GF102991999999999999999999MA1102401999999MW1001REMMET051GMTT 011300Z 10019KT 9999 FEW016 15/07 Q1024 NOSIG;
0134601010999992000010114004+35730-005900FM-15+0021GMTT V0200801N009312200019N0112651N1+01501+00801999999ADDGA1021+004809999GF102991999999999999999999MA1102401999999MW1001REMMET059GMTT 011400Z 08018KT 050V110 9999 FEW016 15/08 Q1024 NOSIG;
0246601010999992000010115004+35730-005900SY-MT+0021GMTT V0200801N009312200019N0150001N1+01501+00741102401ADDAA106000091GA1021+004809999GF102991021021004501001001MA1102401999999MD1810151+9999MW1001REMSYN070AAXX  01154 60101 32465 20818 10150 20074 40240 58015 82200 333 82816;MET051GMTT 011500Z 08018KT 9999 FEW016 15/07 Q1024 NOSIG;EQDQ01  00002PRCP06
0137601010999992000010116004+35730-005900FM-15+0021GMTT V0200801N009812200019N0112651N1+01401+00701999999ADDGA1021+004809999GF102991999999999999999999MA1102401999999MW1001OC101491REMMET054GMTT 011600Z 08019G29KT 9999 FEW016 14/07 Q1024 NOSIG;
0078601010999992000010117004+35730-005900FM-15+0021GMTT V0200801N00931220001CN0099001N1+01301+00701999999ADDMA1102401999999MW1001REMMET045GMTT 011700Z 08018KT CAVOK 13/07 Q1024 NOSIG;
0231601010999992000010118004+35730-005900SY-MT+0021GMTT V0200801N010812200019N0150001N1+01231+00631102431ADDAA106000091GF100991001001999999001001KA1999M+01551MA1102401999999MD1310021+9999MW1001REMSYN064AAXX  01184 60101 32965 00821 10123 20063 40243 53002 333 10155;MET045GMTT 011800Z 08021KT CAVOK 12/06 Q1024 NOSIG;EQDQ01  00002PRCP06
0078601010999992000010119004+35730-005900FM-15+0021GMTT V0200901N01031220001CN0099001N1+01201+00601999999ADDMA1102401999999MW1001REMMET045GMTT 011900Z 09020KT CAVOK 12/06 Q1024 NOSIG;
0078601010999992000010120004+35730-005900FM-15+0021GMTT V0200901N00981220001CN0099001N1+01201+00601999999ADDMA1102511999999MW1001REMMET045GMTT 012000Z 09019KT CAVOK 12/06 Q1025 NOSIG;
0208601010999992000010121004+35730-005900SY-MT+0021GMTT V0200901N009312200019N0150001N1+01181+00611102511ADDAA106000091GF100991001001999999001001MA1102511999999MD1310071+9999MW1001REMSYN054AAXX  01214 60101 32965 00918 10118 20061 40251 53007;MET045GMTT 012100Z 09018KT CAVOK 12/06 Q1025 NOSIG;EQDQ01  00002PRCP06
0078601010999992000010122004+35730-005900FM-15+0021GMTT V0200801N00821220001CN0099001N1+01201+00601999999ADDMA1102511999999MW1001REMMET045GMTT 012200Z 08016KT CAVOK 12/06 Q1025 NOSIG;
0078601010999992000010123004+35730-005900FM-15+0021GMTT V0200801N00621220001CN0099001N1+01101+00601999999ADDMA1102511999999MW1001REMMET045GMTT 012300Z 08012KT CAVOK 11/06 Q1025 NOSIG;
0230601010999992000010200004+35730-005900SY-MT+0021GMTT V0200801N006212200019N0150001N1+01081+00571102471ADDAA106000091GF100991001001999999001001MA1102401999999MD1110011+9999MW1001REMSYN060AAXX  02004 60101 32965 00812 10108 20057 40247 51001 92356;MET045GMTT 020000Z 08013KT CAVOK 11/06 Q1024 NOSIG;EQDQ01+000000PRSWM2Q02  00002PRCP06
0097601010999992000010200304+35730-005900FM-15+0021GMTT V0200801N00671220001CN0099001N1+01101+00601999999ADDMA1102401999999MW1001REMMET045GMTT 020130Z 08013KT CAVOK 11/06 Q1024 NOSIG;EQDQ01+000000PRSWM2
0097601010999992000010202004+35730-005900FM-15+0021GMTT V0200901N00621220001CN0099001N1+01101+00501999999ADDMA1102401999999MW1001REMMET045GMTT 020200Z 09012KT CAVOK 11/05 Q1024 NOSIG;EQDQ01+000000PRSWM2
0224601010999992000010203004+35730-005900SY-MT+0021GMTT V0200801N006712200019N0150001N1+01081+00471102441ADDAA106000091GF100991001001999999001001MA1102401999999MD1610071+9999MW1001REMSYN054AAXX  02034 60101 32965 00813 10108 20047 40244 56007;MET045GMTT 020300Z 08013KT CAVOK 11/05 Q1024 NOSIG;EQDQ01+000000PRSWM2Q02  00002PRCP06
0097601010999992000010204004+35730-005900FM-15+0021GMTT V0200801N00771220001CN0099001N1+01101+00601999999ADDMA1102401999999MW1001REMMET045GMTT 020400Z 08015KT CAVOK 11/06 Q1024 NOSIG;EQDQ01+000000PRSWM2
0097601010999992000010205004+35730-005900FM-15+0021GMTT V0200701N00671220001CN0099001N1+01101+00601999999ADDMA1102401999999MW1001REMMET045GMTT 020500Z 07013KT CAVOK 11/06 Q1024 NOSIG;EQDQ01+000000PRSWM2
0247601010999992000010206004+35730-005900SY-MT+0021GMTT V0201001N003612200019N0150001N1+00821+00431102461ADDAA106000091GF100991001001999999001001KA1999N+00831MA1102401999999MD1710021+9999MW1001REMSYN064AAXX  02064 60101 32965 01007 10082 20043 40246 57002 333 20083;MET045GMTT 020600Z 09008KT CAVOK 09/05 Q1024 NOSIG;EQDQ01+000000PRSWM2Q02  00002PRCP06
0097601010999992000010207004+35730-005900FM-15+0021GMTT V0200801N00461220001CN0099001N1+01001+00601999999ADDMA1102401999999MW1001REMMET045GMTT 020700Z 08009KT CAVOK 10/06 Q1024 NOSIG;EQDQ01+000000PRSWM2
0145601010999992000010208004+35730-005900FM-15+0021GMTT V0200801N006212200019N0112651N1+01101+00601999999ADDGA1021+006009999GF102991999999999999999999MA1102511999999MW1001REMMET051GMTT 020800Z 08012KT 9999 FEW020 11/06 Q1025 NOSIG;EQDQ01+000000PRSWM2
0262601010999992000010209004+35730-005900SY-MT+0021GMTT V0200801N006712200019N0150001N1+01231+00661102561ADDAA106000091GA1021+006009999GF102991021051008001001001MA1102511999999MD1210101+9999MW1001REMSYN070AAXX  02094 60101 32565 20813 10123 20066 40256 52010 82500 333 82620;MET051GMTT 020900Z 08013KT 9999 FEW020 12/07 Q1025 NOSIG;EQDQ01+000000PRSWM2Q02  00002PRCP06
0168601010999992000010210004+35730-005900FM-15+0021GMTT V0200901N008212200019N0112651N1+01401+00701999999ADDGA1021+006009999GA2021+069009999GF104991999999999999999999MA1102511999999MW1001REMMET058GMTT 021000Z 09016KT 9999 FEW020 SCT233 14/07 Q1025 NOSIG;EQDQ01+000000PRSWM2
0168601010999992000010211004+35730-005900FM-15+0021GMTT V0200901N006712200019N0112651N1+01501+00801999999ADDGA1021+006009999GA2021+069009999GF104991999999999999999999MA1102611999999MW1001REMMET058GMTT 021100Z 09013KT 9999 FEW020 SCT233 15/08 Q1026 NOSIG;EQDQ01+000000PRSWM2
0291601010999992000010212004+35730-005900SY-MT+0021GMTT V0200901N006212200019N0150001N1+01631+00791102591ADDAA106000091GA1021+006009999GA2021+069009999GF104991021051008001001021MA1102511999999MD1110031+9999MW1001REMSYN076AAXX  02124 60101 32565 40912 10163 20079 40259 51003 82502 333 82620 83073;MET058GMTT 021200Z 09012KT 9999 FEW020 SCT233 16/08 Q1025 NOSIG;EQDQ01+000000PRSWM2Q02  00002PRCP06
0168601010999992000010213004+35730-005900FM-15+0021GMTT V0201201N006212200019N0112651N1+01701+00801999999ADDGA1021+006009999GA2021+069009999GF104991999999999999999999MA1102511999999MW1001REMMET058GMTT 021300Z 12012KT 9999 FEW020 SCT233 17/08 Q1025 NOSIG;EQDQ01+000000PRSWM2
0097601010999992000010214004+35730-005900FM-15+0021GMTT V0201301N00571220001CN0099001N1+01701+00701999999ADDMA1102401999999MW1001REMMET045GMTT 021400Z 13011KT CAVOK 17/07 Q1024 NOSIG;EQDQ01+000000PRSWM2
0240601010999992000010215004+35730-005900SY-MT+0021GMTT V0201301N004612200019N0150001N1+01721+00741102451ADDAA106000091GF104991001001999999001021MA1102401999999MD1710151+9999MW1001REMSYN070AAXX  02154 60101 32965 41309 10172 20074 40245 57015 80002 333 83073;MET045GMTT 021500Z 13009KT CAVOK 17/07 Q1024 NOSIG;EQDQ01+000000PRSWM2Q02  00002PRCP06
0097601010999992000010216004+35730-005900FM-15+0021GMTT V0200901N00461220001CN0099001N1+01701+00801999999ADDMA1102401999999MW1001REMMET045GMTT 021600Z 09009KT CAVOK 17/08 Q1024 NOSIG;EQDQ01+000000PRSWM2
0097601010999992000010217004+35730-005900FM-15+0021GMTT V0200901N00411220001CN0099001N1+01501+00801999999ADDMA1102401999999MW1001REMMET045GMTT 021700Z 09008KT CAVOK 15/08 Q1024 NOSIG;EQDQ01+000000PRSWM2
0259601010999992000010218004+35730-005900SY-MT+0021GMTT V0200801N003112200019N0100001N1+01011+00681102491ADDAA106000091GF103991001001999999001021KA1120M+01741MA1102401999999MD1310021+9999MW1001REMSYN076AAXX  02184 60101 32960 30806 10101 20068 40249 53002 80002 333 10174 83073;MET045GMTT 021800Z 08006KT CAVOK 10/07 Q1024 NOSIG;EQDQ01+000000PRSWM2Q02  00002PRCP06
0097601010999992000010219004+35730-005900FM-15+0021GMTT V0200801N00311220001CN0099001N1+01001+00701999999ADDMA1102511999999MW1001REMMET045GMTT 021900Z 08006KT CAVOK 10/07 Q1025 NOSIG;EQDQ01+000000PRSWM2
0097601010999992000010220004+35730-005900FM-15+0021GMTT V0200901N00311220001CN0099001N1+00801+00601999999ADDMA1102611999999MW1001REMMET045GMTT 022000Z 09006KT CAVOK 08/06 Q1026 NOSIG;EQDQ01+000000PRSWM2
0240601010999992000010221004+35730-005900SY-MT+0021GMTT V0200901N003112200019N0100001N1+00791+00551102611ADDAA106000091GF103991001001999999001021MA1102611999999MD1310111+9999MW1001REMSYN070AAXX  02214 60101 32960 30906 10079 20055 40261 53011 80002 333 83073;MET045GMTT 022100Z 09006KT CAVOK 08/06 Q1026 NOSIG;EQDQ01+000000PRSWM2Q02  00002PRCP06
0097601010999992000010222004+35730-005900FM-15+0021GMTT V0200801N00311220001CN0099001N1+00801+00601999999ADDMA1102511999999MW1001REMMET045GMTT 022200Z 08006KT CAVOK 08/06 Q1025 NOSIG;EQDQ01+000000PRSWM2
0097601010999992000010223004+35730-005900FM-15+0021GMTT V0200801N00411220001CN0099001N1+00901+00701999999ADDMA1102511999999MW1001REMMET045GMTT 022300Z 08008KT CAVOK 09/07 Q1025 NOSIG;EQDQ01+000000PRSWM2
0224601010999992000010300004+35730-005900SY-MT+0021GMTT V0200901N003612200019N0100001N1+00851+00671102591ADDAA106000091GF100991001001999999001001MA1102511999999MD1810041+9999MW1001REMSYN054AAXX  03004 60101 32960 00907 10085 20067 40259 58004;MET045GMTT 030000Z 09010KT CAVOK 09/07 Q1025 NOSIG;EQDQ01+000000PRSWM2Q02  00002PRCP06
0097601010999992000010301004+35730-005900FM-15+0021GMTT V0201001N00621220001CN0099001N1+01001+00701999999ADDMA1102511999999MW1001REMMET045GMTT 030100Z 10012KT CAVOK 10/07 Q1025 NOSIG;EQDQ01+000000PRSWM2
0097601010999992000010302004+35730-005900FM-15+0021GMTT V0200801N00461220001CN0099001N1+00901+00601999999ADDMA1102511999999MW1001REMMET045GMTT 030200Z 08009KT CAVOK 09/06 Q1025 NOSIG;EQDQ01+000000PRSWM2
0224601010999992000010303004+35730-005900SY-MT+0021GMTT V0200901N005112200019N0100001N1+00901+00641102551ADDAA106000091GF100991001001999999001001MA1102511999999MD1510041+9999MW1001REMSYN054AAXX  03034 60101 32960 00910 10090 20064 40255 55004;MET045GMTT 030300Z 09010KT CAVOK 09/06 Q1025 NOSIG;EQDQ01+000000PRSWM2Q02  00002PRCP06
0097601010999992000010304004+35730-005900FM-15+0021GMTT V0200901N00511220001CN0099001N1+00901+00601999999ADDMA1102511999999MW1001REMMET045GMTT 030400Z 09010KT CAVOK 09/06 Q1025 NOSIG;EQDQ01+000000PRSWM2
0097601010999992000010305004+35730-005900FM-15+0021GMTT V0200901N00461220001CN0099001N1+00901+00601999999ADDMA1102511999999MW1001REMMET045GMTT 030500Z 09009KT CAVOK 09/06 Q1025 NOSIG;EQDQ01+000000PRSWM2
0247601010999992000010306004+35730-005900SY-MT+0021GMTT V0200801N004612200019N0100001N1+00871+00641102561ADDAA106000091GF100991001001999999001001KA1999N+00781MA1102511999999MD1310011+9999MW1001REMSYN064AAXX  03064 60101 32960 00809 10087 20064 40256 53001 333 20078;MET045GMTT 030600Z 08008KT CAVOK 09/06 Q1025 NOSIG;EQDQ01+000000PRSWM2Q02  00002PRCP06
0097601010999992000010307004+35730-005900FM-15+0021GMTT V0200901N00461220001CN0099001N1+00901+00701999999ADDMA1102611999999MW1001REMMET045GMTT 030700Z 09009KT CAVOK 09/07 Q1026 NOSIG;EQDQ01+000000PRSWM2
0097601010999992000010308004+35730-005900FM-15+0021GMTT V0200901N00411220001CN0099001N1+00901+00601999999ADDMA1102611999999MW1001REMMET045GMTT 030800Z 09008KT CAVOK 09/06 Q1026 NOSIG;EQDQ01+000000PRSWM2
0097601010999992000010309004+35730-005900FM-15+0021GMTT V0200901N00311220001CN0099001N1+01101+00701999999ADDMA1102711999999MW1001REMMET045GMTT 030900Z 09006KT CAVOK 11/07 Q1027 NOSIG;EQDQ01+000000PRSWM2
0091601010999992000010310004+35730-005900FM-15+0021GMTT V0201301N00211220001CN0099001N1+01301+00901999999ADDMA1102711999999MW1001REMMET039GMTT 031000Z 13004KT CAVOK 13/09 Q1027;EQDQ01+000000PRSWM2
0091601010999992000010311004+35730-005900FM-15+0021GMTT V0201201N00461220001CN0099001N1+01501+00901999999ADDMA1102811999999MW1001REMMET039GMTT 031100Z 12009KT CAVOK 15/09 Q1028;EQDQ01+000000PRSWM2
0240601010999992000010312004+35730-005900SY-MT+0021GMTT V0201201N005112200019N0100001N1+01631+00901102731ADDAA106000091GF102991001001999999001021MA1102711999999MD1010011+9999MW1001REMSYN070AAXX  03124 60101 32960 21210 10163 20090 40273 50001 80002 333 82073;MET045GMTT 031200Z 12010KT CAVOK 16/09 Q1027 NOSIG;EQDQ01+000000PRSWM2Q02  00002PRCP06
0097601010999992000010313004+35730-005900FM-15+0021GMTT V0201101N00461220001CN0099001N1+01701+00901999999ADDMA1102611999999MW1001REMMET045GMTT 031300Z 11009KT CAVOK 17/09 Q1026 NOSIG;EQDQ01+000000PRSWM2
0097601010999992000010314004+35730-005900FM-15+0021GMTT V0200901N00511220001CN0099001N1+01701+00901999999ADDMA1102611999999MW1001REMMET045GMTT 031400Z 09010KT CAVOK 17/09 Q1026 NOSIG;EQDQ01+000000PRSWM2
0291601010999992000010315004+35730-005900SY-MT+0021GMTT V0201001N004112200019N0100001N1+01691+00781102571ADDAA106000091GA1021+004809999GA2021+069009999GF104991021051004501001021MA1102511999999MD1610191+9999MW1001REMSYN076AAXX  03154 60101 32460 41008 10169 20078 40257 56019 82502 333 82616 83073;MET058GMTT 031500Z 10009KT 9999 FEW016 SCT233 17/09 Q1025 NOSIG;EQDQ01+000000PRSWM2Q02  00002PRCP06
0168601010999992000010316004+35730-005900FM-15+0021GMTT V0201001N004612200019N0112651N1+01601+00801999999ADDGA1021+004809999GA2021+069009999GF104991999999999999999999MA1102511999999MW1001REMMET058GMTT 031600Z 10009KT 9999 FEW016 SCT233 16/08 Q1025 NOSIG;EQDQ01+000000PRSWM2
0097601010999992000010317004+35730-005900FM-15+0021GMTT V0200901N00361220001CN0099001N1+01501+00801999999ADDMA1102511999999MW1001REMMET045GMTT 031700Z 09007KT CAVOK 15/08 Q1025 NOSIG;EQDQ01+000000PRSWM2
0310601010999992000010318004+35730-005900SY-MT+0021GMTT V0200701N003612200019N0100001N1+01221+00801102581ADDAA106000091GA1021+004809999GA2021+069009999GF103991011051004501001021KA1120M+01751MA1102511999999MD1510021+9999MW1001REMSYN082AAXX  03184 60101 32460 30707 10122 20080 40258 55002 81502 333 10175 81616 83073;MET058GMTT 031800Z 07007KT 9999 FEW016 SCT233 12/08 Q1025 NOSIG;EQDQ01+000000PRSWM2Q02  00002PRCP06
0168601010999992000010319004+35730-005900FM-15+0021GMTT V0200701N003612200019N0112651N1+01201+00801999999ADDGA1021+004809999GA2021+069009999GF104991999999999999999999MA1102611999999MW1001REMMET058GMTT 031900Z 07007KT 9999 FEW016 SCT233 12/08 Q1026 NOSIG;EQDQ01+000000PRSWM2
0145601010999992000010320004+35730-005900FM-15+0021GMTT V0200601N004112200019N0112651N1+01101+00801999999ADDGA1021+004809999GF102991999999999999999999MA1102611999999MW1001REMMET051GMTT 032000Z 06008KT 9999 FEW016 11/08 Q1026 NOSIG;EQDQ01+000000PRSWM2
0262601010999992000010321004+35730-005900SY-MT+0021GMTT V0200701N004112200019N0100001N1+01121+00841102691ADDAA106000091GA1021+004809999GF102991011051004501001021MA1102611999999MD1310081+9999MW1001REMSYN070AAXX  03214 60101 32460 20708 10112 20084 40269 53008 81502 333 81616;MET051GMTT 032100Z 07008KT 9999 FEW016 11/08 Q1026 NOSIG;EQDQ01+000000PRSWM2Q02  00002PRCP06
0097601010999992000010322004+35730-005900FM-15+0021GMTT V0200701N00311220001CN0099001N1+01101+00801999999ADDMA1102711999999MW1001REMMET045GMTT 032200Z 07006KT CAVOK 11/08 Q1027 NOSIG;EQDQ01+000000PRSWM2
0097601010999992000010323004+35730-005900FM-15+0021GMTT V0201001N00261220001CN0099001N1+00801+00701999999ADDMA1102711999999MW1001REMMET045GMTT 032300Z 10005KT CAVOK 08/07 Q1027 NOSIG;EQDQ01+000000PRSWM2
0262601010999992000010400004+35730-005900SY-MT+0021GMTT V0201201N003112200019N0100001N1+00781+00631102701ADDAA106000091GA1031+069009019GF103991001001999999001021MA1102711999999MD1110051+9999MW1001REMSYN076AAXX  04004 60101 32960 31206 10078 20063 40270 51005 80002 92350 333 83073;MET045GMTT 040000Z 12006KT CAVOK 08/06 Q1027 NOSIG;EQDQ01+000000PRSWM2Q02  00002PRCP06
0097601010999992000010401004+35730-005900FM-15+0021GMTT V0201001N00151220001CN0099001N1+00801+00601999999ADDMA1102611999999MW1001REMMET045GMTT 040100Z 10003KT CAVOK 08/06 Q1026 NOSIG;EQDQ01+000000PRSWM2
0097601010999992000010402004+35730-005900FM-15+0021GMTT V0200701N00311220001CN0099001N1+01001+00801999999ADDMA1102611999999MW1001REMMET045GMTT 040200Z 07006KT CAVOK 10/08 Q1026 NOSIG;EQDQ01+000000PRSWM2
0240601010999992000010403004+35730-005900SY-MT+0021GMTT V0200801N004112200019N0100001N1+01041+00771102641ADDAA106000091GF103991001001999999001021MA1102611999999MD1610051+9999MW1001REMSYN070AAXX  04034 60101 32960 30808 10104 20077 40264 56005 80002 333 83073;MET045GMTT 040300Z 08008KT CAVOK 10/08 Q1026 NOSIG;EQDQ01+000000PRSWM2Q02  00002PRCP06
0097601010999992000010404004+35730-005900FM-15+0021GMTT V0200801N00411220001CN0099001N1+01001+00701999999ADDMA1102611999999MW1001REMMET045GMTT 040400Z 08008KT CAVOK 10/07 Q1026 NOSIG;EQDQ01+000000PRSWM2
0097601010999992000010404304+35730-005900FM-15+0021GMTT V0200801N00411220001CN0099001N1+01001+00801999999ADDMA1102511999999MW1001REMMET045GMTT 040530Z 08008KT CAVOK 10/08 Q1025 NOSIG;EQDQ01+000000PRSWM2
0275601010999992000010406004+35730-005900SY-MT+0021GMTT V0200601N004612200019N0100001N1+00881+00711102601ADDAA106000091GA1031+069009019GF103991001001999999001021KA1120N+00721MA1102611999999MD1610061+9999MW1001REMSYN076AAXX  04064 60101 33960 30609 10088 20071 40260 56006 80002 333 20072 83073;MET045GMTT 040600Z 06009KT CAVOK 09/07 Q1026 NOSIG;EQDQ01+000000PRSWM2Q02  00002PRCP06
0097601010999992000010407004+35730-005900FM-15+0021GMTT V0200901N00311220001CN0099001N1+00701+00601999999ADDMA1102611999999MW1001REMMET045GMTT 040700Z 09006KT CAVOK 07/06 Q1026 NOSIG;EQDQ01+000000PRSWM2
0097601010999992000010408004+35730-005900FM-15+0021GMTT V0200701N00461220001CN0099001N1+01001+00801999999ADDMA1102611999999MW1001REMMET045GMTT 040800Z 07009KT CAVOK 10/08 Q1026 NOSIG;EQDQ01+000000PRSWM2
0240601010999992000010409004+35730-005900SY-MT+0021GMTT V0200701N005112200019N0100001N1+01241+00811102741ADDAA106000091GF103991001001999999001021MA1102711999999MD1210141+9999MW1001REMSYN070AAXX  04094 60101 32960 30710 10124 20081 40274 52014 80002 333 83073;MET045GMTT 040900Z 07010KT CAVOK 12/08 Q1027 NOSIG;EQDQ01+000000PRSWM2Q02  00002PRCP06
0097601010999992000010410004+35730-005900FM-15+0021GMTT V0200801N00511220001CN0099001N1+01401+00801999999ADDMA1102711999999MW1001REMMET045GMTT 041000Z 08010KT CAVOK 14/08 Q1027 NOSIG;EQDQ01+000000PRSWM2
0168601010999992000010411004+35730-005900FM-15+0021GMTT V0201001N006712200019N0112651N1+01601+00901999999ADDGA1021+006009999GA2021+069009999GF104991999999999999999999MA1102811999999MW1001REMMET058GMTT 041100Z 10013KT 9999 FEW020 SCT233 16/09 Q1028 NOSIG;EQDQ01+000000PRSWM2
0291601010999992000010412004+35730-005900SY-MT+0021GMTT V0200901N006712200019N0100001N1+01671+00811102761ADDAA106000091GA1021+006009999GA2021+069009999GF103991011051008001001021MA1102711999999MD1110111+9999MW1001REMSYN076AAXX  04124 60101 32560 30913 10167 20081 40276 51011 81502 333 81620 83073;MET058GMTT 041200Z 09013KT 9999 FEW020 SCT233 17/08 Q1027 NOSIG;EQDQ01+000000PRSWM2Q02  00002PRCP06
0145601010999992000010413004+35730-005900FM-15+0021GMTT V0201001N005112200019N0112651N1+01701+00901999999ADDGA1021+006009999GF102991999999999999999999MA1102611999999MW1001REMMET051GMTT 041300Z 10010KT 9999 FEW020 17/09 Q1026 NOSIG;EQDQ01+000000PRSWM2
0153601010999992000010414004+35730-005900FM-15+0021GMTT V0200901N005712200019N0112651N1+01801+00901999999ADDGA1021+006009999GF102991999999999999999999MA1102611999999MW1001REMMET059GMTT 041400Z 09011KT 060V120 9999 FEW020 18/09 Q1026 NOSIG;EQDQ01+000000PRSWM2
0264601010999992000010415004+35730-005900SY-MT+0021GMTT V0200901N005712200019N0100001N1+01701+00871102561ADDAA106000091GA1021+006009999GF102991021021008001001001MA1102511999999MD1810191+9999MW1001REMSYN070AAXX  04154 60101 32560 20911 10170 20087 40256 58019 82200 333 82820;MET053GMTT 041500Z 09010KT 060V130 9999 FEW020 17/08 Q1025;EQDQ01+000000PRSWM2Q02  00002PRCP06
0139601010999992000010416004+35730-005900FM-15+0021GMTT V0200701N006712200019N0112651N1+01601+00801999999ADDGA1021+006009999GF102991999999999999999999MA1102511999999MW1001REMMET045GMTT 041600Z 07013KT 9999 FEW020 16/08 Q1025;EQDQ01+000000PRSWM2
0139601010999992000010417004+35730-005900FM-15+0021GMTT V0200901N005712200019N0112651N1+01501+00901999999ADDGA1021+006009999GF102991999999999999999999MA1102511999999MW1001REMMET045GMTT 041700Z 09011KT 9999 FEW020 15/09 Q1025;EQDQ01+000000PRSWM2
0275601010999992000010418004+35730-005900SY-MT+0021GMTT V0200801N004112200019N0150001N1+01231+00821102611ADDAA106000091GA1021+006009999GF102991021021008001001001KA1120M+01771MA1102611999999MD1610021+9999MW1001REMSYN076AAXX  04184 60101 32565 20808 10123 20082 40261 56002 82200 333 10177 82820;MET045GMTT 041800Z 08008KT 9999 FEW020 12/08 Q1026;EQDQ01+000000PRSWM2Q02  00002PRCP06
0145601010999992000010419004+35730-005900FM-15+0021GMTT V0200801N003612200019N0112651N1+01201+00801999999ADDGA1021+006009999GF102991999999999999999999MA1102611999999MW1001REMMET051GMTT 041900Z 08007KT 9999 FEW020 12/08 Q1026 NOSIG;EQDQ01+000000PRSWM2
0145601010999992000010420004+35730-005900FM-15+0021GMTT V0200701N004112200019N0112651N1+01101+00801999999ADDGA1021+006009999GF102991999999999999999999MA1102611999999MW1001REMMET051GMTT 042000Z 07008KT 9999 FEW020 11/08 Q1026 NOSIG;EQDQ01+000000PRSWM2
0262601010999992000010421004+35730-005900SY-MT+0021GMTT V0200601N003112200019N0150001N1+01001+00741102671ADDAA106000091GA1021+006009999GF102991021021008001001001MA1102611999999MD1210081+9999MW1001REMSYN070AAXX  04214 60101 32565 20606 10100 20074 40267 52008 82200 333 82820;MET051GMTT 042100Z 06006KT 9999 FEW020 10/07 Q1026 NOSIG;EQDQ01+000000PRSWM2Q02  00002PRCP06
0145601010999992000010422004+35730-005900FM-15+0021GMTT V0200901N003112200019N0112651N1+01001+00701999999ADDGA1021+006009999GF102991999999999999999999MA1102611999999MW1001REMMET051GMTT 042200Z 09006KT 9999 FEW020 10/07 Q1026 NOSIG;EQDQ01+000000PRSWM2
0145601010999992000010423004+35730-005900FM-15+0021GMTT V0200901N002612200019N0112651N1+00901+00701999999ADDGA1021+006009999GF102991999999999999999999MA1102611999999MW1001REMMET051GMTT 042300Z 09005KT 9999 FEW020 09/07 Q1026 NOSIG;EQDQ01+000000PRSWM2
0230601010999992000010500004+35730-005900SY-MT+0021GMTT V0200801N003612200019N0100001N1+00961+00761102621ADDAA106000091GF100991001001999999001001MA1102611999999MD1710021+9999MW1001REMSYN060AAXX  05004 60101 32960 00807 10096 20076 40262 57002 92350;MET045GMTT 050000Z 08007KT CAVOK 09/07 Q1026 NOSIG;EQDQ01+000000PRSWM2Q02  00002PRCP06
0097601010999992000010501004+35730-005900FM-15+0021GMTT V0200901N00511220001CN0099001N1+01101+00801999999ADDMA1102511999999MW1001REMMET045GMTT 050100Z 09010KT CAVOK 11/08 Q1025 NOSIG;EQDQ01+000000PRSWM2
0091601010999992000010502004+35730-005900FM-15+0021GMTT V0200801N00461220001CN0099001N1+01001+00801999999ADDMA1102511999999MW1001REMMET039GMTT 050200Z 08009KT CAVOK 10/08 Q1025;EQDQ01+000000PRSWM2
0218601010999992000010503004+35730-005900SY-MT+0021GMTT V0200701N004112200019N0100001N1+01021+00821102491ADDAA106000091GF100991001001999999001001MA1102401999999MD1810141+9999MW1001REMSYN054AAXX  05034 60101 32960 00708 10102 20082 40249 58014;MET039GMTT 050300Z 07008KT CAVOK 10/08 Q1024;EQDQ01+000000PRSWM2Q02  00002PRCP06
0091601010999992000010504004+35730-005900FM-15+0021GMTT V0200801N00461220001CN0099001N1+01101+00901999999ADDMA1102401999999MW1001REMMET039GMTT 050400Z 08009KT CAVOK 11/09 Q1024;EQDQ01+000000PRSWM2
0091601010999992000010505004+35730-005900FM-15+0021GMTT V0200801N00411220001CN0099001N1+01101+00801999999ADDMA1102401999999MW1001REMMET039GMTT 050500Z 08008KT CAVOK 11/08 Q1024;EQDQ01+000000PRSWM2
0247601010999992000010506004+35730-005900SY-MT+0021GMTT V0200901N004112200019N0100001N1+01011+00791102421ADDAA106000091GF100991001001999999001001KA1999N+00841MA1102401999999MD1810081+9999MW1001REMSYN064AAXX  05064 60101 32960 00908 10101 20079 40242 58008 333 20084;MET045GMTT 050600Z 09008KT CAVOK 10/08 Q1024 NOSIG;EQDQ01+000000PRSWM2Q02  00002PRCP06
0097601010999992000010507004+35730-005900FM-15+0021GMTT V0200801N00461220001CN0099001N1+01001+00801999999ADDMA1102401999999MW1001REMMET045GMTT 050700Z 08009KT CAVOK 10/08 Q1024 NOSIG;EQDQ01+000000PRSWM2
0097601010999992000010508004+35730-005900FM-15+0021GMTT V0200801N00411220001CN0099001N1+00901+00701999999ADDMA1102401999999MW1001REMMET045GMTT 050800Z 08008KT CAVOK 09/07 Q1024 NOSIG;EQDQ01+000000PRSWM2
0262601010999992000010509004+35730-005900SY-MT+0021GMTT V0200801N003612200019N0150001N1+01171+00891102481ADDAA106000091GA1021+006009999GF102991021021008001001001MA1102401999999MD1310021+9999MW1001REMSYN070AAXX  05094 60101 32565 20807 10117 20089 40248 53002 82200 333 82820;MET051GMTT 050900Z 08007KT 9999 FEW020 12/09 Q1024 NOSIG;EQDQ01+000000PRSWM2Q02  00002PRCP06
0131601010999992000010510004+35730-005900FM-15+0021GMTT V0200901N004112200019N0050001N1+01401+01001999999ADDGF100991999999999999999999MA1102511999999MW1001REMMET053GMTT 051000Z 09008KT R28/P2000 SKC 14/10 Q1025 NOSIG;EQDQ01+000000PRSWM2
0145601010999992000010511004+35730-005900FM-15+0021GMTT V0201101N005112200019N0112651N1+01601+01101999999ADDGA1021+006009999GF102991999999999999999999MA1102511999999MW1001REMMET051GMTT 051100Z 11010KT 9999 FEW020 16/11 Q1025 NOSIG;EQDQ01+000000PRSWM2
0262601010999992000010512004+35730-005900SY-MT+0021GMTT V0201301N004612200019N0100001N1+01681+00961102461ADDAA106000091GA1021+006009999GF102991021021008001001001MA1102401999999MD1110081+9999MW1001REMSYN070AAXX  05124 60101 32560 21309 10168 20096 40246 51008 82200 333 82820;MET051GMTT 051200Z 13009KT 9999 FEW020 17/10 Q1024 NOSIG;EQDQ01+000000PRSWM2Q02  00002PRCP06
0145601010999992000010513004+35730-005900FM-15+0021GMTT V0201101N003612200019N0112651N1+01701+00901999999ADDGA1021+006009999GF102991999999999999999999MA1102301999999MW1001REMMET051GMTT 051300Z 11007KT 9999 FEW020 17/09 Q1023 NOSIG;EQDQ01+000000PRSWM2
0168601010999992000010514004+35730-005900FM-15+0021GMTT V0202501N004112200019N0112651N1+01601+00901999999ADDGA1021+003909999GA2021+004809999GF104991999999999999999999MA1102301999999MW1001REMMET058GMTT 051400Z 25008KT 9999 FEW013 SCT016 16/09 Q1023 NOSIG;EQDQ01+000000PRSWM2
0291601010999992000010515004+35730-005900SY-MT+0021GMTT V0202601N003112200019N0100001N1+01641+00991102261ADDAA106000091GA1021+003909999GA2021+004809999GF104991041081004501001001MA1102201999999MD1610201+9999MW1001REMSYN076AAXX  05154 60101 32460 42606 10164 20099 40226 56020 84800 333 82813 83616;MET058GMTT 051500Z 26006KT 9999 FEW013 SCT016 16/10 Q1022 NOSIG;EQDQ01+000000PRSWM2Q02  00002PRCP06
0168601010999992000010516004+35730-005900FM-15+0021GMTT V0202701N002112200019N0112651N1+01601+01001999999ADDGA1021+003909999GA2021+004809999GF104991999999999999999999MA1102201999999MW1001REMMET058GMTT 051600Z 27004KT 9999 FEW013 SCT016 16/10 Q1022 NOSIG;EQDQ01+000000PRSWM2
0168601010999992000010517004+35730-005900FM-15+0021GMTT V0202701N001012200019N0112651N1+01501+01001999999ADDGA1021+003909999GA2021+004809999GF104991999999999999999999MA1102201999999MW1001REMMET058GMTT 051700Z 27002KT 9999 FEW013 SCT016 15/10 Q1022 NOSIG;EQDQ01+000000PRSWM2
0168601010999992000010518004+35730-005900FM-15+0021GMTT V0201201N002112200019N0112651N1+01101+00901999999ADDGA1021+003909999GA2021+004809999GF104991999999999999999999MA1102201999999MW1001REMMET058GMTT 051800Z 12004KT 9999 FEW013 SCT016 11/09 Q1022 NOSIG;EQDQ01+000000PRSWM2
0145601010999992000010519004+35730-005900FM-15+0021GMTT V0201001N003112200019N0112651N1+01001+00801999999ADDGA1021+004809999GF104991999999999999999999MA1102201999999MW1001REMMET051GMTT 051900Z 10006KT 9999 SCT016 10/08 Q1022 NOSIG;EQDQ01+000000PRSWM2
0262601010999992000010521004+35730-005900SY-MT+0021GMTT V0200801N004112200019N0100001N1+01021+00811102261ADDAA106000091GA1021+004809999GF103991031021004501001001MA1102201999999MD1010001+9999MW1001REMSYN070AAXX  05214 60101 32460 30808 10102 20081 40226 50000 83200 333 83816;MET051GMTT 052100Z 08008KT 9999 SCT016 10/08 Q1022 NOSIG;EQDQ01+000000PRSWM2Q02  00002PRCP06
0145601010999992000010522004+35730-005900FM-15+0021GMTT V0200801N003612200019N0112651N1+01001+00801999999ADDGA1021+004809999GF104991999999999999999999MA1102201999999MW1001REMMET051GMTT 052200Z 08007KT 9999 SCT016 10/08 Q1022 NOSIG;EQDQ01+000000PRSWM2
0097601010999992000010601004+35730-005900FM-15+0021GMTT V0201001N00411220001CN0099001N1+01001+00801999999ADDMA1102101999999MW1001REMMET045GMTT 060100Z 10008KT CAVOK 10/08 Q1021 NOSIG;EQDQ01+000000PRSWM2
0097601010999992000010602004+35730-005900FM-15+0021GMTT V0200901N00361220001CN0099001N1+00901+00701999999ADDMA1102101999999MW1001REMMET045GMTT 060200Z 09007KT CAVOK 09/07 Q1021 NOSIG;EQDQ01+000000PRSWM2
0224601010999992000010603004+35730-005900SY-MT+0021GMTT V0200801N004112200019N0100001N1+00871+00661102091ADDAA106000091GF100991001001999999001001MA1102001999999MD1810121+9999MW1001REMSYN054AAXX  06034 60101 32960 00808 10087 20066 40209 58012;MET045GMTT 060300Z 08008KT CAVOK 09/07 Q1020 NOSIG;EQDQ01+000000PRSWM2Q02  00002PRCP06
0097601010999992000010604004+35730-005900FM-15+0021GMTT V0200801N00461220001CN0099001N1+00901+00701999999ADDMA1102001999999MW1001REMMET045GMTT 060400Z 08009KT CAVOK 09/07 Q1020 NOSIG;EQDQ01+000000PRSWM2
0097601010999992000010605004+35730-005900FM-15+0021GMTT V0200901N00461220001CN0099001N1+00901+00701999999ADDMA1102001999999MW1001REMMET045GMTT 060500Z 09009KT CAVOK 09/07 Q1020 NOSIG;EQDQ01+000000PRSWM2
0247601010999992000010606004+35730-005900SY-MT+0021GMTT V0200801N004112200019N0100001N1+00811+00631102051ADDAA106000091GF100991001001999999001001KA1999N+00851MA1102001999999MD1610061+9999MW1001REMSYN064AAXX  06064 60101 32960 00808 10081 20063 40205 56006 333 20085;MET045GMTT 060600Z 09008KT CAVOK 08/06 Q1020 NOSIG;EQDQ01+000000PRSWM2Q02  00002PRCP06
0097601010999992000010607004+35730-005900FM-15+0021GMTT V0200901N00361220001CN0099001N1+00801+00701999999ADDMA1102001999999MW1001REMMET045GMTT 060700Z 09007KT CAVOK 08/07 Q1020 NOSIG;EQDQ01+000000PRSWM2
0097601010999992000010608004+35730-005900FM-15+0021GMTT V0200801N00411220001CN0099001N1+00801+00701999999ADDMA1102101999999MW1001REMMET045GMTT 060800Z 08008KT CAVOK 08/07 Q1021 NOSIG;EQDQ01+000000PRSWM2
0224601010999992000010609004+35730-005900SY-MT+0021GMTT V0200801N004112200019N0100001N1+01081+00821102201ADDAA106000091GF100991001001999999001001MA1102201999999MD1310151+9999MW1001REMSYN054AAXX  06094 60101 32960 00808 10108 20082 40220 53015;MET045GMTT 060900Z 08008KT CAVOK 11/08 Q1022 NOSIG;EQDQ01+000000PRSWM2Q02  00002PRCP06
0097601010999992000010610004+35730-005900FM-15+0021GMTT V0200901N00461220001CN0099001N1+01301+00901999999ADDMA1102201999999MW1001REMMET045GMTT 061000Z 09009KT CAVOK 13/09 Q1022 NOSIG;EQDQ01+000000PRSWM2
0097601010999992000010611004+35730-005900FM-15+0021GMTT V0200901N00571220001CN0099001N1+01501+00901999999ADDMA1102301999999MW1001REMMET045GMTT 061100Z 09011KT CAVOK 15/09 Q1023 NOSIG;EQDQ01+000000PRSWM2
0224601010999992000010612004+35730-005900SY-MT+0021GMTT V0201001N006712200019N0100001N1+01631+00971102241ADDAA106000091GF100991001001999999001001MA1102201999999MD1110041+9999MW1001REMSYN054AAXX  06124 60101 32960 01013 10163 20097 40224 51004;MET045GMTT 061200Z 10013KT CAVOK 16/10 Q1022 NOSIG;EQDQ01+000000PRSWM2Q02  00002PRCP06
0105601010999992000010613004+35730-005900FM-15+0021GMTT V0200801N00621220001CN0099001N1+01701+00901999999ADDMA1102101999999MW1001REMMET053GMTT 061300Z 08012KT 050V110 CAVOK 17/09 Q1021 NOSIG;EQDQ01+000000PRSWM2
0097601010999992000010614004+35730-005900FM-15+0021GMTT V0200901N00721220001CN0099001N1+01701+00901999999ADDMA1102101999999MW1001REMMET045GMTT 061400Z 09014KT CAVOK 17/09 Q1021 NOSIG;EQDQ01+000000PRSWM2
0224601010999992000010615004+35730-005900SY-MT+0021GMTT V0200801N009312200019N0100001N1+01631+00891102111ADDAA106000091GF100991001001999999001001MA1102101999999MD1610131+9999MW1001REMSYN054AAXX  06154 60101 32960 00818 10163 20089 40211 56013;MET045GMTT 061500Z 08018KT CAVOK 16/09 Q1021 NOSIG;EQDQ01+000000PRSWM2Q02  00002PRCP06
0145601010999992000010616004+35730-005900FM-15+0021GMTT V0200901N008212200019N0112651N1+01601+00901999999ADDGA1021+004809999GF102991999999999999999999MA1102101999999MW1001REMMET051GMTT 061600Z 09016KT 9999 FEW016 16/09 Q1021 NOSIG;EQDQ01+000000PRSWM2
0145601010999992000010617004+35730-005900FM-15+0021GMTT V0200901N008712200019N0112651N1+01501+00801999999ADDGA1021+004809999GF102991999999999999999999MA1102101999999MW1001REMMET051GMTT 061700Z 09017KT 9999 FEW016 15/08 Q1021 NOSIG;EQDQ01+000000PRSWM2
0145601010999992000010618004+35730-005900FM-15+0021GMTT V0200701N006212200019N0112651N1+01301+00801999999ADDGA1021+004809999GF102991999999999999999999MA1102101999999MW1001REMMET051GMTT 061800Z 07012KT 9999 FEW016 13/08 Q1021 NOSIG;EQDQ01+000000PRSWM2
0145601010999992000010619004+35730-005900FM-15+0021GMTT V0200801N006712200019N0112651N1+01301+00801999999ADDGA1021+004809999GF102991999999999999999999MA1102101999999MW1001REMMET051GMTT 061900Z 08013KT 9999 FEW016 13/08 Q1021 NOSIG;EQDQ01+000000PRSWM2
0145601010999992000010619304+35730-005900FM-15+0021GMTT V0200801N005712200019N0112651N1+01201+00801999999ADDGA1021+004809999GF102991999999999999999999MA1102201999999MW1001REMMET051GMTT 062030Z 08011KT 9999 FEW016 12/08 Q1022 NOSIG;EQDQ01+000000PRSWM2
0248601010999992000010621004+35730-005900SY-MT+0021GMTT V0200901N006712200019N0100001N1+01241+00771102221ADDAA106000091GA1021+004809999GF102991021021999999001001MD1310071+9999MW1001REMSYN070AAXX  06214 60101 32/60 20913 10124 20077 40222 53007 82200 333 82816;MET052GMTT 062100Z 09013KT 9999 FEW016 12/08 Q6022 NOSIG0;EQDQ01+000000PRSWM2Q02  00002PRCP06
0145601010999992000010622004+35730-005900FM-15+0021GMTT V0200801N006712200019N0112651N1+01201+00801999999ADDGA1021+004809999GF102991999999999999999999MA1102201999999MW1001REMMET051GMTT 062200Z 08013KT 9999 FEW016 12/08 Q1022 NOSIG;EQDQ01+000000PRSWM2
0149601010999992000010623004+35730-005900FM-15+0021GMTT V0200901N008712200019N0112651N1+01301+00801999999ADDGA1021+004809999GF102991999999999999999999MA1102201999999MW1001REMMET055GMTT 062300Z 09017KT 9999 FEW016 13/08 Q1022 NOSIGJV L;EQDQ01+000000PRSWM2
0168601010999992000010700004+35730-005900FM-12+0021GMTT V0200701N004112200019N0100001N1+01151+00741999999ADDAA106000091GA1021+004809029GF102991021021004501001001MD1310121+9999REMSYN070AAXX  07004 60101 32460 20708 10115 20074 402/4 53012 82200 333 82816;EQDQ01  00002PRCP06
0082601010999992000010701004+35730-005900FM-15+0021GMTT V0200801N00461220001CN0099001N1+01101+00801999999ADDMW1001REMMET045GMTT 070100Z 08009KT CAVOK 11/08 Q10+3 NOSIG;EQDQ01+000000PRSWM2
0079601010999992000010702004+35730-005900FM-15+0021GMTT V0200801N00621220001CN0099001N1+01201+00701999999ADDMW1001REMMET042GMTT 070200Z 08012KT CAVOK 12/07 Q71#,9=8;EQDQ01+000000PRSWM2
0224601010999992000010703004+35730-005900SY-MT+0021GMTT V0200901N009312200019N0100001N1+01291+00781102251ADDAA106000091GF100991001001999999001001MA1102201999999MD1810091+9999MW1001REMSYN054AAXX  07034 60101 32960 00918 10129 20078 40225 58009;MET045GMTT 070300Z 09018KT CAVOK 13/08 Q1022 NOSIG;EQDQ01+000000PRSWM2Q02  00002PRCP06
0105601010999992000010704004+35730-005900FM-15+0021GMTT V0200801N00461220001CN0099001N1+01201+00801999999ADDMA1102201999999MW1001REMMET053GMTT 070400Z 08009KT 050V110 CAVOK 12/08 Q1022 NOSIG;EQDQ01+000000PRSWM2
0097601010999992000010705004+35730-005900FM-15+0021GMTT V0200801N00771220001CN0099001N1+01301+00701999999ADDMA1102201999999MW1001REMMET045GMTT 070500Z 08015KT CAVOK 13/07 Q1022 NOSIG;EQDQ01+000000PRSWM2
0247601010999992000010706004+35730-005900SY-MT+0021GMTT V0200901N008212200019N0100001N1+01251+00731102231ADDAA106000091GF100991001001999999001001KA1999N+01021MA1102201999999MD1610021+9999MW1001REMSYN064AAXX  07064 60101 32960 00916 10125 20073 40223 56002 333 20102;MET045GMTT 070600Z 09016KT CAVOK 13/07 Q1022 NOSIG;EQDQ01+000000PRSWM2Q02  00002PRCP06
0097601010999992000010706304+35730-005900FM-15+0021GMTT V0200901N00621220001CN0099001N1+01201+00701999999ADDMA1102301999999MW1001REMMET045GMTT 070730Z 09012KT CAVOK 12/07 Q1023 NOSIG;EQDQ01+000000PRSWM2
0097601010999992000010708004+35730-005900FM-15+0021GMTT V0200901N00571220001CN0099001N1+01201+00701999999ADDMA1102301999999MW1001REMMET045GMTT 070800Z 09011KT CAVOK 12/07 Q1023 NOSIG;EQDQ01+000000PRSWM2
0224601010999992000010709004+35730-005900SY-MT+0021GMTT V0200801N007212200019N0100001N1+01371+00821102391ADDAA106000091GF100991001001999999001001MA1102301999999MD1310121+9999MW1001REMSYN054AAXX  07094 60101 32960 00814 10137 20082 40239 53012;MET045GMTT 070900Z 08014KT CAVOK 14/08 Q1023 NOSIG;EQDQ01+000000PRSWM2Q02  00002PRCP06
0097601010999992000010710004+35730-005900FM-15+0021GMTT V0200901N00771220001CN0099001N1+01501+00901999999ADDMA1102401999999MW1001REMMET045GMTT 071000Z 09015KT CAVOK 15/09 Q1024 NOSIG;EQDQ01+000000PRSWM2
0145601010999992000010711004+35730-005900FM-15+0021GMTT V0200901N011312200019N0112651N1+01601+00901999999ADDGA1021+006009999GF104991999999999999999999MA1102401999999MW1001REMMET051GMTT 071100Z 09022KT 9999 SCT020 16/09 Q1024 NOSIG;EQDQ01+000000PRSWM2
0262601010999992000010712004+35730-005900SY-MT+0021GMTT V0200801N007212200019N0150001N1+01681+00891102401ADDAA106000091GA1021+006009999GF103991031051008001001001MA1102401999999MD1010081+9999MW1001REMSYN070AAXX  07124 60101 32565 30814 10168 20089 40240 50008 83500 333 83620;MET051GMTT 071200Z 08014KT 9999 SCT020 17/09 Q1024 NOSIG;EQDQ01+000000PRSWM2Q02  00002PRCP06
0145601010999992000010713004+35730-005900FM-15+0021GMTT V0200701N006712200019N0112651N1+01801+00901999999ADDGA1021+006009999GF104991999999999999999999MA1102301999999MW1001REMMET051GMTT 071300Z 07013KT 9999 SCT020 18/09 Q1023 NOSIG;EQDQ01+000000PRSWM2
0145601010999992000010714004+35730-005900FM-15+0021GMTT V0200901N008712200019N0112651N1+01701+00801999999ADDGA1021+006009999GF104991999999999999999999MA1102201999999MW1001REMMET051GMTT 071400Z 09017KT 9999 SCT020 17/08 Q1022 NOSIG;EQDQ01+000000PRSWM2
0262601010999992000010715004+35730-005900SY-MT+0021GMTT V0200801N008212200019N0150001N1+01701+00801102211ADDAA106000091GA1021+006009999GF102991021051008001001001MA1102201999999MD1810191+9999MW1001REMSYN070AAXX  07154 60101 32565 20816 10170 20080 40221 58019 82500 333 82620;MET051GMTT 071500Z 08016KT 9999 FEW020 17/08 Q1022 NOSIG;EQDQ01+000000PRSWM2Q02  00002PRCP06
0070601010999992000010715304+35730-005900FM-15+0021GMTT V0200801N008212200019N0080001N1+99999+99999999999ADDMW1001REMMET033GMTT 071630Z 08016KT 16/08 Q1021;EQDQ01+000000PRSWM2
0145601010999992000010717004+35730-005900FM-15+0021GMTT V0200801N009312200019N0112651N1+01501+00801999999ADDGA1021+006009999GF102991999999999999999999MA1102101999999MW1001REMMET051GMTT 071700Z 08018KT 9999 FEW020 15/08 Q1021 NOSIG;EQDQ01+000000PRSWM2
0281601010999992000010718004+35730-005900SY-MT+0021GMTT V0200801N006712200019N0150001N1+01371+00811102181ADDAA106000091GA1021+006009999GF102991021051008001001001KA1120M+01771MA1102101999999MD1810031+9999MW1001REMSYN076AAXX  07184 60101 32565 20813 10137 20081 40218 58003 82500 333 10177 82620;MET051GMTT 071800Z 08014KT 9999 FEW020 14/08 Q1021 NOSIG;EQDQ01+000000PRSWM2Q02  00002PRCP06
0145601010999992000010719004+35730-005900FM-15+0021GMTT V0200701N005112200019N0112651N1+01301+00801999999ADDGA1021+006009999GF102991999999999999999999MA1102201999999MW1001REMMET051GMTT 071900Z 07010KT 9999 FEW020 13/08 Q1022 NOSIG;EQDQ01+000000PRSWM2
0145601010999992000010720004+35730-005900FM-15+0021GMTT V0200701N007712200019N0112651N1+01301+00901999999ADDGA1021+006009999GF102991999999999999999999MA1102201999999MW1001REMMET051GMTT 072000Z 07015KT 9999 FEW020 13/09 Q1022 NOSIG;EQDQ01+000000PRSWM2
0262601010999992000010721004+35730-005900SY-MT+0021GMTT V0200701N007712200019N0150001N1+01331+00831102251ADDAA106000091GA1021+006009999GF102991021051008001001001MA1102201999999MD1110071+9999MW1001REMSYN070AAXX  07214 60101 32565 20715 10133 20083 40225 51007 82500 333 82620;MET051GMTT 072100Z 07015KT 9999 FEW020 13/08 Q1022 NOSIG;EQDQ01+000000PRSWM2Q02  00002PRCP06
0145601010999992000010722004+35730-005900FM-15+0021GMTT V0200801N007712200019N0112651N1+01301+00801999999ADDGA1021+006009999GF102991999999999999999999MA1102201999999MW1001REMMET051GMTT 072200Z 08015KT 9999 FEW020 13/08 Q1022 NOSIG;EQDQ01+000000PRSWM2
0145601010999992000010723004+35730-005900FM-15+0021GMTT V0200801N008212200019N0112651N1+01301+00901999999ADDGA1021+006009999GF102991999999999999999999MA1102201999999MW1001REMMET051GMTT 072300Z 08016KT 9999 FEW020 13/09 Q1022 NOSIG;EQDQ01+000000PRSWM2
0268601010999992000010800004+35730-005900SY-MT+0021GMTT V0200801N007212200019N0150001N1+01301+00821102281ADDAA106000091GA1021+006009999GF102991021051008001001001MA1102201999999MD1110041+9999MW1001REMSYN076AAXX  08004 60101 32565 20814 10130 20082 40228 51004 82500 92350 333 82620;MET051GMTT 080000Z 08014KT 9999 FEW020 13/08 Q1022 NOSIG;EQDQ01+000000PRSWM2Q02  00002PRCP06
0145601010999992000010801004+35730-005900FM-15+0021GMTT V0200801N007712200019N0112651N1+01201+00801999999ADDGA1021+006009999GF104991999999999999999999MA1102201999999MW1001REMMET051GMTT 080100Z 08015KT 9999 SCT020 12/08 Q1022 NOSIG;EQDQ01+000000PRSWM2
0145601010999992000010802004+35730-005900FM-15+0021GMTT V0200701N007712200019N0112651N1+01301+00801999999ADDGA1021+006009999GF104991999999999999999999MA1102201999999MW1001REMMET051GMTT 080200Z 07015KT 9999 SCT020 13/08 Q1022 NOSIG;EQDQ01+000000PRSWM2
0262601010999992000010803004+35730-005900SY-MT+0021GMTT V0200801N006712200019N0100001N1+01201+00801102221ADDAA106000091GA1021+006009999GF103991031051008001001001MA1102201999999MD1710051+9999MW1001REMSYN070AAXX  08034 60101 32560 30813 10120 20080 40222 57005 83500 333 83620;MET051GMTT 080300Z 08012KT 9999 SCT020 12/08 Q1022 NOSIG;EQDQ01+000000PRSWM2Q02  00002PRCP06
0145601010999992000010804004+35730-005900FM-15+0021GMTT V0200801N007712200019N0112651N1+01201+00801999999ADDGA1021+006009999GF104991999999999999999999MA1102201999999MW1001REMMET051GMTT 080400Z 08015KT 9999 SCT020 12/08 Q1022 NOSIG;EQDQ01+000000PRSWM2
0143601010999992000010805004+35730-005900FM-15+0021GMTT V0200801N007212200019N0112651N1+01201+00701999999ADDGA1021+006009999GF104991999999999999999999MA1102201999999MW1001REMMET049GMTT 080500Z 08014KT 9999 SCT020 12/07 Q1022 NSG;EQDQ01+000000PRSWM2
0281601010999992000010806004+35730-005900SY-MT+0021GMTT V0200901N005712200019N0100001N1+01081+00741102261ADDAA106000091GA1021+006009999GF103991031051008001001001KA1120N+01131MA1102201999999MD1610011+9999MW1001REMSYN076AAXX  08064 60101 32560 30911 10108 20074 40226 56001 83500 333 20113 83620;MET051GMTT 080600Z 09010KT 9999 SCT020 11/07 Q1022 NOSIG;EQDQ01+000000PRSWM2Q02  00002PRCP06
0145601010999992000010807004+35730-005900FM-15+0021GMTT V0200801N005712200019N0112651N1+01101+00801999999ADDGA1021+006009999GF104991999999999999999999MA1102301999999MW1001REMMET051GMTT 080700Z 08011KT 9999 SCT020 11/08 Q1023 NOSIG;EQDQ01+000000PRSWM2
0145601010999992000010808004+35730-005900FM-15+0021GMTT V0200901N003612200019N0112651N1+00901+00701999999ADDGA1021+006009999GF104991999999999999999999MA1102301999999MW1001REMMET051GMTT 080800Z 09007KT 9999 SCT020 09/07 Q1023 NOSIG;EQDQ01+000000PRSWM2
0262601010999992000010809004+35730-005900SY-MT+0021GMTT V0200901N003612200019N0100001N1+01181+00821102461ADDAA106000091GA1021+006009999GF103991031051008001001001MA1102401999999MD1310191+9999MW1001REMSYN070AAXX  08094 60101 32560 30907 10118 20082 40246 53019 83500 333 83620;MET051GMTT 080900Z 09007KT 9999 SCT020 12/08 Q1024 NOSIG;EQDQ01+000000PRSWM2Q02  00002PRCP06
0145601010999992000010810004+35730-005900FM-15+0021GMTT V0201001N003612200019N0112651N1+01401+00901999999ADDGA1021+006009999GF102991999999999999999999MA1102511999999MW1001REMMET051GMTT 081000Z 10007KT 9999 FEW020 14/09 Q1025 NOSIG;EQDQ01+000000PRSWM2
0145601010999992000010811004+35730-005900FM-15+0021GMTT V0201201N003112200019N0112651N1+01601+00901999999ADDGA1021+006009999GF102991999999999999999999MA1102511999999MW1001REMMET051GMTT 081100Z 12006KT 9999 FEW020 16/09 Q1025 NOSIG;EQDQ01+000000PRSWM2
0270601010999992000010812004+35730-005900SY-MT+0021GMTT V0201001N002112200019N0150001N1+01681+00891102511ADDAA106000091GA1021+006009999GF102991021051008001001001MA1102511999999MD1010051+9999MW1001REMSYN070AAXX  08124 60101 32565 21004 10168 20089 40251 50005 82500 333 82620;MET059GMTT 081200Z 10005KT 070V130 9999 FEW020 17/09 Q1025 NOSIG;EQDQ01+000000PRSWM2Q02  00002PRCP06
0153601010999992000010813004+35730-005900FM-15+0021GMTT V0200801N002112200019N0112651N1+01801+01001999999ADDGA1021+006009999GF102991999999999999999999MA1102401999999MW1001REMMET059GMTT 081300Z 08004KT 040V120 9999 FEW020 18/10 Q1024 NOSIG;EQDQ01+000000PRSWM2
0145601010999992000010814004+35730-005900FM-15+0021GMTT V0200801N001512200019N0112651N1+01801+01001999999ADDGA1021+006009999GF102991999999999999999999MA1102401999999MW1001REMMET051GMTT 081400Z 08003KT 9999 FEW020 18/10 Q1024 NOSIG;EQDQ01+000000PRSWM2
0270601010999992000010815004+35730-005900SY-MT+0021GMTT V0200501N004612200019N0150001N1+01721+01031102381ADDAA106000091GA1021+006009999GF103991021051008001001021MA1102301999999MD1610171+9999MW1001REMSYN070AAXX  08154 60101 32565 30509 10172 20103 40238 56017 82502 333 82620;MET059GMTT 081500Z 05009KT 020V080 9999 FEW020 17/10 Q1023 NOSIG;EQDQ01+000000PRSWM2Q02  00002PRCP06
0168601010999992000010816004+35730-005900FM-15+0021GMTT V0200501N005712200019N0112651N1+01601+01001999999ADDGA1021+006009999GA2021+069009999GF104991999999999999999999MA1102301999999MW1001REMMET058GMTT 081600Z 05011KT 9999 FEW020 SCT233 16/10 Q1023 NOSIG;EQDQ01+000000PRSWM2
0168601010999992000010817004+35730-005900FM-15+0021GMTT V0200501N006212200019N0112651N1+01401+01001999999ADDGA1021+006009999GA2021+069009999GF104991999999999999999999MA1102301999999MW1001REMMET058GMTT 081700Z 05012KT 9999 FEW020 SCT233 14/10 Q1023 NOSIG;EQDQ01+000000PRSWM2
0310601010999992000010818004+35730-005900SY-MT+0021GMTT V0200501N003612200019N0150001N1+01161+00891102441ADDAA106000091GA1021+006009999GA2021+069009999GF104991011051008001001021KA1120M+01851MA1102401999999MD1310031+9999MW1001REMSYN082AAXX  08184 60101 32565 40507 10116 20089 40244 53003 81502 333 10185 81620 84073;MET058GMTT 081800Z 05007KT 9999 FEW020 SCT233 12/09 Q1024 NOSIG;EQDQ01+000000PRSWM2Q02  00002PRCP06
0168601010999992000010819004+35730-005900FM-15+0021GMTT V0201201N001012200019N0112651N1+01001+00701999999ADDGA1021+006009999GA2021+069009999GF104991999999999999999999MA1102401999999MW1001REMMET058GMTT 081900Z 12002KT 9999 FEW020 SCT233 10/07 Q1024 NOSIG;EQDQ01+000000PRSWM2
0097601010999992000010820004+35730-005900FM-15+0021GMTT V0200601N00311220001CN0099001N1+01001+00801999999ADDMA1102511999999MW1001REMMET045GMTT 082000Z 06006KT CAVOK 10/08 Q1025 NOSIG;EQDQ01+000000PRSWM2
0224601010999992000010821004+35730-005900SY-MT+0021GMTT V0200701N002612200019N0150001N1+00811+00681102561ADDAA106000091GF100991001001999999001001MA1102511999999MD1210121+9999MW1001REMSYN054AAXX  08214 60101 32965 00705 10081 20068 40256 52012;MET045GMTT 082100Z 07005KT CAVOK 08/07 Q1025 NOSIG;EQDQ01+000000PRSWM2Q02  00002PRCP06
0097601010999992000010822004+35730-005900FM-15+0021GMTT V0200201N00101220001CN0099001N1+00701+00501999999ADDMA1102511999999MW1001REMMET045GMTT 082200Z 02002KT CAVOK 07/05 Q1025 NOSIG;EQDQ01+000000PRSWM2
0097601010999992000010823004+35730-005900FM-15+0021GMTT V0209999C00001220001CN0099001N1+00601+00501999999ADDMA1102511999999MW1001REMMET045GMTT 082300Z 00000KT CAVOK 06/05 Q1025 NOSIG;EQDQ01+000000PRSWM2
0224601010999992000010900004+35730-005900SY-MT+0021GMTT V0209999C000012200019N0100001N1+00591+00471102571ADDAA106000091GF100991001001999999001001MA1102511999999MD1110041+9999MW1001REMSYN060AAXX  09004 60101 32960 00000 10059 20047 40257 51004 92350;MET039GMTT 090000Z 00000KT CAVOK 06/05 Q1025;EQDQ01+000000PRSWM2Q02  00002PRCP06
0070601010999992000010901004+35730-005900FM-15+0021GMTT V0209999C000012200019N0099001N1+99999+99999999999ADDMW1001REMMET033GMTT 090100Z 00000KT 05/04 Q1025;EQDQ01+000000PRSWM2
0091601010999992000010902004+35730-005900FM-15+0021GMTT V0200601N00151220001CN0099001N1+00401+00201999999ADDMA1102511999999MW1001REMMET039GMTT 090200Z 06003KT CAVOK 04/02 Q1025;EQDQ01+000000PRSWM2
0218601010999992000010903004+35730-005900SY-MT+0021GMTT V0200901N002112200019N0100001N1+00521+00441102571ADDAA106000091GF100991001001999999001001MA1102511999999MD1510011+9999MW1001REMSYN054AAXX  09034 60101 32960 00904 10052 20044 40257 55001;MET039GMTT 090300Z 09003KT CAVOK 05/04 Q1025;EQDQ01+000000PRSWM2Q02  00002PRCP06
0091601010999992000010904004+35730-005900FM-15+0021GMTT V0201001N00261220001CN0099001N1+00601+00501999999ADDMA1102511999999MW1001REMMET039GMTT 090400Z 10005KT CAVOK 06/05 Q1025;EQDQ01+000000PRSWM2
0091601010999992000010905004+35730-005900FM-15+0021GMTT V0200801N00261220001CN0099001N1+00601+00501999999ADDMA1102511999999MW1001REMMET039GMTT 090500Z 08005KT CAVOK 06/05 Q1025;EQDQ01+000000PRSWM2
0091601010999992000010906304+35730-005900FM-15+0021GMTT V0200501N00101220001CN0099001N1+00401+00301999999ADDMA1102511999999MW1001REMMET039GMTT 090730Z 05002KT CAVOK 04/03 Q1025;EQDQ01+000000PRSWM2
0097601010999992000010908004+35730-005900FM-15+0021GMTT V0209999C00001220001CN0099001N1+00401+00301999999ADDMA1102511999999MW1001REMMET045GMTT 090800Z 00000KT CAVOK 04/03 Q1025 NOSIG;EQDQ01+000000PRSWM2
0224601010999992000010909004+35730-005900SY-MT+0021GMTT V0209999C000012200019N0100001N1+00781+00711102681ADDAA106000091GF100991001001999999001001MA1102611999999MD1310111+9999MW1001REMSYN054AAXX  09094 60101 32960 00000 10078 20071 40268 53011;MET045GMTT 090900Z 00000KT CAVOK 08/07 Q1026 NOSIG;EQDQ01+000000PRSWM2Q02  00002PRCP06
0145601010999992000010910004+35730-005900FM-15+0021GMTT V0209999C000012200019N0112651N1+01101+00901999999ADDGA1021+004809999GF104991999999999999999999MA1102711999999MW1001REMMET051GMTT 091000Z 00000KT 9999 SCT016 11/09 Q1027 NOSIG;EQDQ01+000000PRSWM2
0153601010999992000010911004+35730-005900FM-15+0021GMTT V0202001N004112200019N0112651N1+01401+00901999999ADDGA1021+004809999GF104991999999999999999999MA1102711999999MW1001REMMET059GMTT 091100Z 20008KT 170V240 9999 SCT016 14/09 Q1027 NOSIG;EQDQ01+000000PRSWM2
0270601010999992000010912004+35730-005900SY-MT+0021GMTT V0202301N005712200019N0100001N1+01491+01061102641ADDAA106000091GA1021+004809999GF104991031051004501031001MA1102611999999MD1010091+9999MW1001REMSYN070AAXX  09124 60101 32460 42311 10149 20106 40264 50009 83530 333 83616;MET059GMTT 091200Z 23010KT 200V260 9999 SCT016 15/11 Q1026 NOSIG;EQDQ01+000000PRSWM2Q02  00002PRCP06
0145601010999992000010913004+35730-005900FM-15+0021GMTT V0202301N005712200019N0112651N1+01501+01101999999ADDGA1021+004809999GF104991999999999999999999MA1102511999999MW1001REMMET051GMTT 091300Z 23011KT 9999 SCT016 15/11 Q1025 NOSIG;EQDQ01+000000PRSWM2
0145601010999992000010914004+35730-005900FM-15+0021GMTT V0202601N004612200019N0112651N1+01501+00901999999ADDGA1021+004809999GF104991999999999999999999MA1102401999999MW1001REMMET051GMTT 091400Z 26009KT 9999 SCT016 15/09 Q1024 NOSIG;EQDQ01+000000PRSWM2
0278601010999992000010915004+35730-005900SY-MT+0021GMTT V0202301N005710048019N0100001N1+01461+01111102431ADDAA106000091GA1071+004809999GF199999041051004501031001MA1102401999999MD1610201+9999MW1001REMSYN070AAXX  09154 60101 32460 52311 10146 20111 40243 56020 84530 333 86616;MET051GMTT 091500Z 23010KT 9999 BKN016 15/11 Q1024 NOSIG;EQDQ01+000052SCOTCVQ02+000000PRSWM2Q03  00002PRCP06
0168601010999992000010916004+35730-005900FM-15+0021GMTT V0202901N004610060019N0080001N1+01401+01101999999ADDGA1021+003909999GA2071+006009999GF107991999999999999999999MA1102401999999MW1001REMMET058GMTT 091600Z 29009KT 8000 SCT013 BKN020 14/11 Q1024 NOSIG;EQDQ01+000000PRSWM2
0168601010999992000010917004+35730-005900FM-15+0021GMTT V0202901N003110060019N0080001N1+01301+01001999999ADDGA1021+003909999GA2071+006009999GF107991999999999999999999MA1102401999999MW1001REMMET058GMTT 091700Z 29006KT 8000 SCT013 BKN020 13/10 Q1024 NOSIG;EQDQ01+000000PRSWM2
0310601010999992000010918004+35730-005900SY-MT+0021GMTT V0202901N003610060019N0080001N1+01291+00991102441ADDAA106000091GA1021+003909999GA2071+006009999GF107991071081004501999999KA1120M+01571MA1102401999999MD1010011+9999MW1001REMSYN082AAXX  09184 60101 32458 72907 10129 20099 40244 50001 878// 333 10157 83813 87620;MET058GMTT 091800Z 29007KT 8000 SCT013 BKN020 13/10 Q1024 NOSIG;EQDQ01+000000PRSWM2Q02  00002PRCP06
0168601010999992000010919004+35730-005900FM-15+0021GMTT V0203101N003610060019N0080001N1+01301+01001999999ADDGA1021+003909999GA2071+006009999GF107991999999999999999999MA1102401999999MW1001REMMET058GMTT 091900Z 31007KT 8000 SCT013 BKN020 13/10 Q1024 NOSIG;EQDQ01+000000PRSWM2
0168601010999992000010920004+35730-005900FM-15+0021GMTT V0203101N002610060019N0080001N1+01301+01001999999ADDGA1021+003909999GA2071+006009999GF107991999999999999999999MA1102401999999MW1001REMMET058GMTT 092000Z 31005KT 8000 SCT013 BKN020 13/10 Q1024 NOSIG;EQDQ01+000000PRSWM2
0307601010999992000010921004+35730-005900SY-MT+0021GMTT V0200101N001510060019N0080001N1+01191+00991102461ADDAA106000091GA1021+003909999GA2071+006009999GF199999051081004501001001MA1102401999999MD1310011+9999MW1001REMSYN076AAXX  09214 60101 32458 50103 10119 20099 40246 53001 85800 333 83813 85620;MET058GMTT 092100Z 01003KT 8000 SCT013 BKN020 12/10 Q1024 NOSIG;EQDQ01+000052SCOTCVQ02+000000PRSWM2Q03  00002PRCP06
0168601010999992000010922004+35730-005900FM-15+0021GMTT V0209999C000010060019N0080001N1+01201+01001999999ADDGA1021+003909999GA2071+006009999GF107991999999999999999999MA1102401999999MW1001REMMET058GMTT 092200Z 00000KT 8000 SCT013 BKN020 12/10 Q1024 NOSIG;EQDQ01+000000PRSWM2
0168601010999992000010923004+35730-005900FM-15+0021GMTT V0203601N002610060019N0080001N1+01301+01001999999ADDGA1021+003909999GA2071+006009999GF107991999999999999999999MA1102301999999MW1001REMMET058GMTT 092300Z 36005KT 8000 SCT013 BKN020 13/10 Q1023 NOSIG;EQDQ01+000000PRSWM2
0291601010999992000011000004+35730-005900SY-MT+0021GMTT V0200501N00101009001CN0080001N1+00991+00821102321ADDAA106000091GA1021+003909999GA2021+006009999GF105991051081004501001001MA1102301999999MD1810091+9999MW1001REMSYN076AAXX  10004 60101 32458 50502 10099 20082 40232 58009 85800 333 83813 84620;MET058GMTT 100000Z 05002KT 8000 SCT013 SCT020 10/08 Q1023 NOSIG;EQDQ01+000000PRSWM2Q02  00002PRCP06
0168601010999992000011000304+35730-005900FM-15+0021GMTT V0200501N000512200019N0080001N1+00701+00601999999ADDGA1021+003909999GA2021+006009999GF104991999999999999999999MA1102101999999MW1001REMMET058GMTT 100130Z 05001KT 8000 SCT013 SCT020 07/06 Q1021 NOSIG;EQDQ01+000000PRSWM2
0168601010999992000011002004+35730-005900FM-15+0021GMTT V0200301N001512200019N0080001N1+00801+00701999999ADDGA1021+003909999GA2021+006009999GF104991999999999999999999MA1102101999999MW1001REMMET058GMTT 100200Z 03003KT 8000 SCT013 SCT020 08/07 Q1021 NOSIG;EQDQ01+000000PRSWM2
0291601010999992000011003004+35730-005900SY-MT+0021GMTT V0209999C00001009001CN0080001N1+00691+00591102141ADDAA106000091GA1021+003909999GA2021+006009999GF105991051081004501001001MA1102101999999MD1610221+9999MW1001REMSYN076AAXX  10034 60101 32458 50000 10069 20059 40214 56022 85800 333 83813 84620;MET058GMTT 100300Z 00000KT 8000 SCT013 SCT020 07/06 Q1021 NOSIG;EQDQ01+000000PRSWM2Q02  00002PRCP06
0168601010999992000011004004+35730-005900FM-15+0021GMTT V0200301N001512200019N0080001N1+00801+00701999999ADDGA1021+003909999GA2021+006009999GF104991999999999999999999MA1102101999999MW1001REMMET058GMTT 100400Z 03003KT 8000 SCT013 SCT020 08/07 Q1021 NOSIG;EQDQ01+000000PRSWM2
0176601010999992000011005004+35730-005900FM-15+0021GMTT V0200101N002112200019N0080001N1+00901+00601999999ADDGA1021+003909999GA2021+006009999GF104991999999999999999999MA1102001999999MW1001REMMET066GMTT 100500Z 01004KT 340V070 8000 SCT013 SCT020 09/06 Q1020 NOSIG;EQDQ01+000000PRSWM2
0349601010999992000011006004+35730-005900SY-MT+0021GMTT V0209999C00001006901CN0080001N1+00841+00561102031ADDAA106000091GA1021+003909999GA2021+006009999GA3021+006909099GF106991061031004501001001KA1120N+00601MA1102001999999MD1810101+9999MW1001REMSYN088AAXX  10064 60101 32458 60000 10084 20056 40203 58010 86300 333 20060 83813 84620 82923;MET075GMTT 100600Z 36005KT 330V030 8000 SCT013 SCT020 FEW023CB 08/06 Q1020 NOSIG;EQDQ01+000000PRSWM2Q02  00002PRCP06
0201601010999992000011007004+35730-005900FM-15+0021GMTT V0200501N002112200019N0080001N1+00801+00601999999ADDGA1021+003909999GA2021+006009999GA3021+006909099GF102991999999999999999999MA1102001999999MW1001REMMET075GMTT 100700Z 05004KT 360V120 8000 FEW013 SCT020 FEW023CB 08/06 Q1020 NOSIG;EQDQ01+000000PRSWM2
0176601010999992000011008004+35730-005900FM-15+0021GMTT V0200101N002612200019N0112651N1+00801+00601999999ADDGA1021+003909999GA2021+006009999GF104991999999999999999999MA1102001999999MW1001REMMET066GMTT 100800Z 01005KT 340V050 9999 FEW013 SCT020 08/06 Q1020 NOSIG;EQDQ01+000000PRSWM2
0191601010999992000011008304+35730-005900FM-15+0021GMTT V0201001N002112200019N0112651N1+01101+00801999999ADDGA1021+003909999GA2021+006009999GA3021+060009999GF104991999999999999999999MA1102101999999MW1001REMMET065GMTT 100930Z 10004KT 9999 FEW013 SCT020 SCT200 11/08 Q1021 NOSIG;EQDQ01+000000PRSWM2
0174601010999992000011009004+35730-005900FM-12+0021GMTT V0200701N001512200019N0100001N1+01031+00801102121ADDAA106000091GA1021+003909089GF104991031081004501001021MD1310091+9999REMSYN076AAXX  10094 60101 32460 40703 10103 20080 40212 53009 83802 333 82813 83620;EQDQ01  00002PRCP06
0199601010999992000011010004+35730-005900FM-15+0021GMTT V0201101N002612200019N0112651N1+01101+00801999999ADDGA1021+003909999GA2021+006009999GA3021+060009999GF104991999999999999999999MA1102101999999MW1001REMMET073GMTT 101000Z 11005KT 080V140 9999 FEW013 SCT020 SCT200 11/08 Q1021 NOSIG;EQDQ01+000000PRSWM2
0193601010999992000011011004+35730-005900FM-15+0021GMTT V0201401N003112200019N0112651N1+01301+00901999999ADDGA1021+003909999GA2021+006009999GA3021+006909099GF102991999999999999999999MA1102201999999MW1001REMMET067GMTT 101100Z 14006KT 9999 FEW013 SCT020 FEW023CB 13/09 Q1022 NOSIG;EQDQ01+000000PRSWM2
0322601010999992000011012004+35730-005900SY-MT+0021GMTT V0200901N006210060019N0100001N1+01281+00621102231ADDAA106000091GA1021+003909999GA2071+006009999GA3021+006909099GF107991071091004501999999MA1102201999999MD1010111+9999MW1001REMSYN082AAXX  10124 60101 32460 70912 10128 20062 40223 50011 879// 333 82813 85620 82923;MET067GMTT 101200Z 09012KT 9999 FEW013 BKN020 FEW023CB 13/06 Q1022 NOSIG;EQDQ01+000000PRSWM2Q02  00002PRCP06
0206601010999992000011013004+35730-005900FM-15+0021GMTT V0200801N00621220001CN0112651N1+01101+00701999999ADDGA1021+003909999GA2071+006009999GA3021+006909099MA1102201999999MW1811REMMET074GMTT 101300Z 08012KT 050V110 9999 SHRA FEW013 BKN020 FEW023CB 11/07 Q1022;EQDQ01+000022SCOTCVQ02+000003PRSWM1Q03    003PRSWM1
0205601010999992000011013304+35730-005900FM-15+0021GMTT V0200601N00411220001CN0080001N1+01001+00801999999ADDGA1021+003909999GA2071+006009999GA3021+006909099MA1102201999999MW1801REMMET073GMTT 101430Z 06008KT 8000 -SHRA FEW013 BKN020 FEW023CB 10/08 Q1022 NOSIG;EQDQ01+000022SCOTCVQ02+000003PRSWM1Q03    003PRSWM1
0323601010999992000011015004+35730-005900SY-MT+0021GMTT V0200701N004610060019N0080001N1+00971+00791102221ADDAY181031AY221031GA1021+003909999GA2071+006009999GA3021+006909099GF107991071091004501999999MA1102201999999MD1510011+9999MW1801REMSYN088AAXX  10154 60101 41458 70709 10097 20079 40222 55001 78082 879// 333 82813 85620 82923;MET073GMTT 101500Z 07009KT 8000 -SHRA FEW013 BKN020 FEW023CB 10/08 Q1022 NOSIG;EQDQ01    003PRSWM1
0188601010999992000011016004+35730-005900FM-15+0021GMTT V0201001N00411220001CN0080001N1+01001+00801999999ADDGA1021+003909999GA2071+006009999GA3021+006909099MA1102201999999MW1001REMMET072GMTT 101600Z 10008KT 8000 FEW013 BKN020 FEW023CB 10/08 Q1022 RESH NOSIG;EQDQ01+000022SCOTCVQ02+000000PRSWM2
0183601010999992000011017004+35730-005900FM-15+0021GMTT V0200901N00311220001CN0112651N1+01001+00701999999ADDGA1021+003909999GA2071+006009999GA3021+006909099MA1102301999999MW1001REMMET067GMTT 101700Z 09006KT 9999 FEW013 BKN020 FEW023CB 10/07 Q1023 NOSIG;EQDQ01+000022SCOTCVQ02+000000PRSWM2
0374601010999992000011018004+35730-005900SY-MT+0021GMTT V0200701N003610060019N0100001N1+00941+00741102341ADDAA112007191AY181061AY221061GA1021+003909999GA2071+006009999GA3021+006909099GF107991071091004501999999KA1120M+01401MA1102301999999MD1210121+9999MW1251REMSYN100AAXX  10184 60101 11460 70707 10094 20074 40234 52012 60072 72582 879// 333 10140 82813 85620 81923;MET072GMTT 101800Z 07007KT 9999 FEW013 BKN020 FEW023CB 09/07 Q1023 RESH NOSIG;EQDQ01+000000PRSWM2Q02    003PRSWM1
0193601010999992000011018304+35730-005900FM-15+0021GMTT V0201001N002612200019N0112651N1+01001+00801999999ADDGA1021+003909999GA2021+006009999GA3021+006909099GF102991999999999999999999MA1102301999999MW1001REMMET067GMTT 101930Z 10005KT 9999 SCT013 SCT020 FEW023CB 10/08 Q1023 NOSIG;EQDQ01+000000PRSWM2
0193601010999992000011020004+35730-005900FM-15+0021GMTT V0202301N002112200019N0112651N1+00801+00601999999ADDGA1021+003909999GA2021+006009999GA3021+006909099GF102991999999999999999999MA1102401999999MW1001REMMET067GMTT 102000Z 23004KT 9999 SCT013 SCT020 FEW023CB 08/06 Q1024 NOSIG;EQDQ01+000000PRSWM2
0295601010999992000011021004+35730-005900SY-MT+0021GMTT V0201601N00151006901CN0080001N1+00831+00711102461ADDGA1021+003909999GA2021+006009999GA3021+006909099GF107991071091004501999999MA1102401999999MD1210121+9999MW1001REMSYN082AAXX  10214 60101 42458 71603 10083 20071 40246 52012 879// 333 83813 84620 81923;MET067GMTT 102100Z 16003KT 8000 SCT013 SCT020 FEW023CB 08/07 Q1024 NOSIG;EQDQ01+000000PRSWM2
0215601010999992000011022004+35730-005900FM-15+0021GMTT V0201201N003612200019N0080001N1+01001+00901999999ADDGA1021+003909999GA2021+006009999GA3021+006909099GF102991999999999999999999MA1102401999999MW1801REMMET073GMTT 102200Z 12007KT 8000 -SHRA SCT013 SCT020 FEW023CB 10/09 Q1024 NOSIG;EQDQ01+000003PRSWM1Q02    003PRSWM1
0192601010999992000011023004+35730-005900FM-15+0021GMTT V0201101N001512200019N0080001N1+00901+00701999999ADDGA1021+003909999GA2021+006009999GA3021+006909099GF102991999999999999999999MA1102511999999MW1001REMMET066GMTT 102300Z 11003KT 8000 SCT013 SCT020 FEW023CB 09/07 Q1025 RERA;EQDQ01+000000PRSWM2
0306601010999992000011100004+35730-005900SY-MT+0021GMTT V0200601N00511006901CN0080001N1+00911+00751102501ADDAA106001091GA1021+003909999GA2021+006009999GA3021+006909099GF105991051091004501001001MA1102511999999MD1010041+9999MW1001REMSYN088AAXX  11004 60101 12458 50610 10091 20075 40250 50004 60011 85900 333 82813 83620 81923;MET061GMTT 110000Z 06010KT 8000 FEW013 SCT020 FEW023CB 09/08 Q1025;EQDQ01+000000PRSWM2
0187601010999992000011101004+35730-005900FM-15+0021GMTT V0200701N002612200019N0080001N1+00901+00701999999ADDGA1021+003909999GA2021+006009999GA3021+006909099GF102991999999999999999999MA1102401999999MW1001REMMET061GMTT 110100Z 07005KT 8000 FEW013 SCT020 FEW023CB 09/07 Q1024;EQDQ01+000000PRSWM2
0162601010999992000011102004+35730-005900FM-15+0021GMTT V0201301N001512200019N0080001N1+00801+00601999999ADDGA1021+003909999GA2021+006009999GF104991999999999999999999MA1102401999999MW1001REMMET052GMTT 110200Z 13003KT 8000 FEW013 SCT020 08/06 Q1024;EQDQ01+000000PRSWM2
0272601010999992000011103004+35730-005900SY-MT+0021GMTT V0200401N002112200019N0080001N1+00641+00461102521ADDGA1021+003909999GA2021+006009999GF104991041081004501001001MA1102511999999MD1310021+9999MW1001REMSYN076AAXX  11034 60101 42458 40404 10064 20046 40252 53002 84800 333 82813 83620;MET066GMTT 110300Z 04004KT 010V070 8000 FEW013 SCT020 06/05 Q1025 NOSIG;EQDQ01+000000PRSWM2
0168601010999992000011104004+35730-005900FM-15+0021GMTT V0200401N001512200019N0080001N1+00601+00401999999ADDGA1021+003909999GA2021+006009999GF104991999999999999999999MA1102511999999MW1001REMMET058GMTT 110400Z 04003KT 8000 FEW013 SCT020 06/04 Q1025 NOSIG;EQDQ01+000000PRSWM2
0168601010999992000011105004+35730-005900FM-15+0021GMTT V0209999C000012200019N0080001N1+00501+00301999999ADDGA1021+003909999GA2021+006009999GF104991999999999999999999MA1102511999999MW1001REMMET058GMTT 110500Z 00000KT 8000 FEW013 SCT020 05/03 Q1025 NOSIG;EQDQ01+000000PRSWM2
0300601010999992000011106004+35730-005900SY-MT+0021GMTT V0201701N001012200019N0100001N1+00491+00401102531ADDAA124008991GA1021+003909999GA2021+006009999GF104991041081004501001001KA1120N+00441MA1102511999999MD1110021+9999MW1001REMSYN088AAXX  11064 60101 12460 41702 10049 20040 40253 51002 60094 84800 333 20044 82813 83620;MET058GMTT 110600Z 17002KT 9999 FEW013 SCT020 05/04 Q1025 NOSIG;EQDQ01+000000PRSWM2
0168601010999992000011107004+35730-005900FM-15+0021GMTT V0209999C000012200019N0112651N1+00401+00301999999ADDGA1021+003909999GA2021+006009999GF104991999999999999999999MA1102511999999MW1001REMMET058GMTT 110700Z 00000KT 9999 FEW013 SCT020 04/03 Q1025 NOSIG;EQDQ01+000000PRSWM2
0168601010999992000011108004+35730-005900FM-15+0021GMTT V0201801N001512200019N0112651N1+00501+00401999999ADDGA1021+003909999GA2021+006009999GF104991999999999999999999MA1102511999999MW1001REMMET058GMTT 110800Z 18003KT 9999 FEW013 SCT020 05/04 Q1025 NOSIG;EQDQ01+000000PRSWM2
0424601010999992000011109004+35730-005900SY-MT+0021GMTT V0200601N002612200019N0100001N1+00861+00791102661ADDAA106000091GA1021+003909999GA2021+006009999GF104991041081004501001001KA1999M+99999MA1102611999999MD1310131+9999MW1001REMSYN076AAXX  11094 60101 32460 40605 10086 20079 40266 53013 84800 333 82813 83620;MET162GMTT 110900Z 06005KT 9999 FEW013 SCT020 09/08 Q1026 NOSIG KFNT 110854Z 26012KT 10SM SCT021 OVC090 03/01 A2937 RMK AO2 RAB33E42 SLP951 P0000 60000 T00280006 55001;EQDQ01+000000PRSWM2Q02  00002PRCP06Q03 -00852ATMX  
0168601010999992000011110004+35730-005900FM-15+0021GMTT V0200701N002612200019N0112651N1+01301+00901999999ADDGA1021+003909999GA2021+006009999GF104991999999999999999999MA1102711999999MW1001REMMET058GMTT 111000Z 07005KT 9999 FEW013 SCT020 13/09 Q1027 NOSIG;EQDQ01+000000PRSWM2
0176601010999992000011111004+35730-005900FM-15+0021GMTT V0201001N003612200019N0112651N1+01301+00901999999ADDGA1021+003909999GA2021+006009999GF104991999999999999999999MA1102711999999MW1001REMMET066GMTT 111100Z 10007KT 070V130 9999 FEW013 SCT020 13/09 Q1027 NOSIG;EQDQ01+000000PRSWM2
0313601010999992000011112004+35730-005900SY-MT+0021GMTT V0200801N005710060019N0100001N1+01411+00931102701ADDAA106000091GA1021+003909999GA2071+006009999GF199999061081004501001001MA1102711999999MD1110141+9999MW1001REMSYN082AAXX  11124 60101 32460 60811 10141 20093 40270 51014 86800 91149 333 82813 85620;MET058GMTT 111200Z 07010KT 9999 FEW013 BKN020 15/10 Q1027 NOSIG;EQDQ01+000062SCOTCVQ02+000000PRSWM2Q03  00002PRCP06
0168601010999992000011113004+35730-005900FM-15+0021GMTT V0200801N007210060019N0112651N1+01401+00801999999ADDGA1021+003909999GA2071+006009999GF107991999999999999999999MA1102611999999MW1001REMMET058GMTT 111300Z 08014KT 9999 FEW013 BKN020 14/08 Q1026 NOSIG;EQDQ01+000000PRSWM2
0168601010999992000011114004+35730-005900FM-15+0021GMTT V0200901N006712200019N0112651N1+01501+00801999999ADDGA1021+003909999GA2021+006009999GF104991999999999999999999MA1102511999999MW1001REMMET058GMTT 111400Z 09013KT 9999 FEW013 SCT020 15/08 Q1025 NOSIG;EQDQ01+000000PRSWM2
0291601010999992000011115004+35730-005900SY-MT+0021GMTT V0200901N008212200019N0100001N1+01471+00831102551ADDAA106000091GA1021+003909999GA2021+006009999GF104991041081004501001001MA1102511999999MD1710211+9999MW1001REMSYN076AAXX  11154 60101 32460 40916 10147 20083 40255 57021 84800 333 82813 83620;MET058GMTT 111500Z 09016KT 9999 FEW013 SCT020 15/08 Q1025 NOSIG;EQDQ01+000000PRSWM2Q02  00002PRCP06
0168601010999992000011116004+35730-005900FM-15+0021GMTT V0200801N008212200019N0112651N1+01401+00701999999ADDGA1021+003909999GA2021+006009999GF104991999999999999999999MA1102511999999MW1001REMMET058GMTT 111600Z 08016KT 9999 FEW013 SCT020 14/07 Q1025 NOSIG;EQDQ01+000000PRSWM2
0168601010999992000011117004+35730-005900FM-15+0021GMTT V0200801N007212200019N0112651N1+01301+00701999999ADDGA1021+003909999GA2021+006009999GF104991999999999999999999MA1102511999999MW1001REMMET058GMTT 111700Z 08014KT 9999 FEW013 SCT020 13/07 Q1025 NOSIG;EQDQ01+000000PRSWM2
0297601010999992000011118004+35730-005900SY-MT+0021GMTT V0200801N008212200019N0150001N1+01211+00661102631ADDAA106000091GA1021+003909999GF199999011051004501001001KA1120M+01511MA1102611999999MD1310051+9999MW1001REMSYN076AAXX  11184 60101 32465 10816 10121 20066 40263 53005 81500 333 10151 81813;MET051GMTT 111800Z 07017KT 9999 FEW013 12/07 Q1026 NOSIG;EQDQ01+000012SCOTCVQ02+000000PRSWM2Q03  00002PRCP06
0145601010999992000011119004+35730-005900FM-15+0021GMTT V0200701N006712200019N0112651N1+01201+00701999999ADDGA1021+006009999GF102991999999999999999999MA1102611999999MW1001REMMET051GMTT 111900Z 07013KT 9999 FEW020 12/07 Q1026 NOSIG;EQDQ01+000000PRSWM2
0145601010999992000011120004+35730-005900FM-15+0021GMTT V0200801N006712200019N0112651N1+01101+00801999999ADDGA1021+006009999GF102991999999999999999999MA1102711999999MW1001REMMET051GMTT 112000Z 08013KT 9999 FEW020 11/08 Q1027 NOSIG;EQDQ01+000000PRSWM2
0278601010999992000011121004+35730-005900SY-MT+0021GMTT V0200701N006712200019N0150001N1+01101+00741102731ADDAA106000091GA1021+006009999GF199999011051008001001001MA1102711999999MD1310121+9999MW1001REMSYN070AAXX  11214 60101 32565 10713 10110 20074 40273 53012 81500 333 81620;MET051GMTT 112100Z 07013KT 9999 FEW020 11/07 Q1027 NOSIG;EQDQ01+000012SCOTCVQ02+000000PRSWM2Q03  00002PRCP06
0145601010999992000011122004+35730-005900FM-15+0021GMTT V0200801N004612200019N0112651N1+01001+00701999999ADDGA1021+006009999GF102991999999999999999999MA1102711999999MW1001REMMET051GMTT 112200Z 08009KT 9999 FEW020 10/07 Q1027 NOSIG;EQDQ01+000000PRSWM2
0145601010999992000011123004+35730-005900FM-15+0021GMTT V0200801N005112200019N0112651N1+01001+00701999999ADDGA1021+006009999GF102991999999999999999999MA1102711999999MW1001REMMET051GMTT 112300Z 08010KT 9999 FEW020 10/07 Q1027 NOSIG;EQDQ01+000000PRSWM2
0284601010999992000011200004+35730-005900SY-MT+0021GMTT V0200801N006212200019N0150001N1+01011+00721102711ADDAA106000091GA1021+004809999GF199999011051004501001001MA1102711999999MD1010031+9999MW1001REMSYN076AAXX  12004 60101 32465 10812 10101 20072 40271 50003 81500 92351 333 81616;MET051GMTT 120000Z 07012KT 9999 FEW016 10/07 Q1027 NOSIG;EQDQ01+000012SCOTCVQ02+000000PRSWM2Q03  00002PRCP06
0145601010999992000011201004+35730-005900FM-15+0021GMTT V0200801N005112200019N0112651N1+01001+00701999999ADDGA1021+004809999GF102991999999999999999999MA1102611999999MW1001REMMET051GMTT 120100Z 08010KT 9999 FEW016 10/07 Q1026 NOSIG;EQDQ01+000000PRSWM2
0145601010999992000011202004+35730-005900FM-15+0021GMTT V0200701N006212200019N0112651N1+01101+00701999999ADDGA1021+004809999GF102991999999999999999999MA1102611999999MW1001REMMET051GMTT 120200Z 07012KT 9999 FEW016 11/07 Q1026 NOSIG;EQDQ01+000000PRSWM2
0278601010999992000011203004+35730-005900SY-MT+0021GMTT V0200801N005112200019N0100001N1+00981+00711102681ADDAA106000091GA1021+004809999GF199999011051004501001001MA1102611999999MD1610071+9999MW1001REMSYN070AAXX  12034 60101 32460 10810 10098 20071 40268 56007 81500 333 81616;MET051GMTT 120300Z 08010KT 9999 FEW016 10/07 Q1026 NOSIG;EQDQ01+000012SCOTCVQ02+000000PRSWM2Q03  00002PRCP06
0144601010999992000011204004+35730-005900FM-15+0021GMTT V0200801N005112200019N0035001N1+01001+00701999999ADDGA1021+004809999GF102991999999999999999999MA1102611999999MW1001REMMET050GMTT 120400Z 08010KT R28/P2000 FEW016 10/07 Q1026;EQDQ01+000000PRSWM2
0139601010999992000011205004+35730-005900FM-15+0021GMTT V0200701N005112200019N0112651N1+01001+00701999999ADDGA1021+004809999GF102991999999999999999999MA1102611999999MW1001REMMET045GMTT 120500Z 07010KT 9999 FEW016 10/07 Q1026;EQDQ01+000000PRSWM2
0297601010999992000011206004+35730-005900SY-MT+0021GMTT V0200801N004612200019N0100001N1+00941+00681102681ADDAA106000091GA1021+004809999GF199999011051004501001001KA1120N+00941MA1102611999999MD1810011+9999MW1001REMSYN076AAXX  12064 60101 32460 10809 10094 20068 40268 58001 81500 333 20094 82616;MET051GMTT 120600Z 08009KT 9999 FEW016 10/07 Q1026 NOSIG;EQDQ01+000012SCOTCVQ02+000000PRSWM2Q03  00002PRCP06
0153601010999992000011207004+35730-005900FM-15+0021GMTT V0201001N002612200019N0112651N1+00901+00701999999ADDGA1021+004809999GF102991999999999999999999MA1102711999999MW1001REMMET059GMTT 120700Z 10005KT 060V120 9999 FEW016 09/07 Q1027 NOSIG;EQDQ01+000000PRSWM2
0145601010999992000011208004+35730-005900FM-15+0021GMTT V0200801N004112200019N0112651N1+00901+00701999999ADDGA1021+004809999GF102991999999999999999999MA1102711999999MW1001REMMET051GMTT 120800Z 08008KT 9999 FEW016 09/07 Q1027 NOSIG;EQDQ01+000000PRSWM2
0262601010999992000011209004+35730-005900SY-MT+0021GMTT V0200801N005112200019N0150001N1+01161+00781102831ADDAA106000091GA1021+004809999GF102991021051004501001001MA1102811999999MD1210151+9999MW1001REMSYN070AAXX  12094 60101 32465 20810 10116 20078 40283 52015 82500 333 82616;MET051GMTT 120900Z 08010KT 9999 FEW016 12/08 Q1028 NOSIG;EQDQ01+000000PRSWM2Q02  00002PRCP06
0143601010999992000011210004+35730-005900FM-15+0021GMTT V02099999999992200019N0112651N1+01401+00901999999ADDGA1021+004809999GF102991999999999999999999MA1102811999999MW1001REMMET049GMTT 121000Z 08011 9999 FEW016 14/09 Q1028 NOSIG;EQDQ01+000000PRSWM2
0145601010999992000011211004+35730-005900FM-15+0021GMTT V0201001N007212200019N0112651N1+01501+00801999999ADDGA1021+004809999GF102991999999999999999999MA1102811999999MW1001REMMET051GMTT 121100Z 10014KT 9999 FEW016 15/08 Q1028 NOSIG;EQDQ01+000000PRSWM2
0278601010999992000011212004+35730-005900SY-MT+0021GMTT V0200801N008212200019N0150001N1+01541+00711102791ADDAA106000091GA1021+004809999GF199999011051004501001001MA1102811999999MD1010101+9999MW1001REMSYN070AAXX  12124 60101 32465 10816 10154 20071 40279 50010 81500 333 81616;MET051GMTT 121200Z 08016KT 9999 FEW016 15/08 Q1028 NOSIG;EQDQ01+000012SCOTCVQ02+000000PRSWM2Q03  00002PRCP06
0145601010999992000011213004+35730-005900FM-15+0021GMTT V0200901N006712200019N0112651N1+01601+00801999999ADDGA1021+006009999GF102991999999999999999999MA1102711999999MW1001REMMET051GMTT 121300Z 09013KT 9999 FEW020 16/08 Q1027 NOSIG;EQDQ01+000000PRSWM2
0278601010999992000011215004+35730-005900SY-MT+0021GMTT V0201001N008712200019N0150001N1+01531+00721102621ADDAA106000091GA1021+006009999GF199999011051008001001001MA1102611999999MD1610211+9999MW1001REMSYN070AAXX  12154 60101 32565 11017 10153 20072 40262 56021 81500 333 81620;MET051GMTT 121500Z 10017KT 9999 FEW020 15/07 Q1026 NOSIG;EQDQ01+000012SCOTCVQ02+000000PRSWM2Q03  00002PRCP06
0145601010999992000011216004+35730-005900FM-15+0021GMTT V0200901N007712200019N0112651N1+01501+00701999999ADDGA1021+006009999GF102991999999999999999999MA1102611999999MW1001REMMET051GMTT 121600Z 09015KT 9999 FEW020 15/07 Q1026 NOSIG;EQDQ01+000000PRSWM2
0145601010999992000011217004+35730-005900FM-15+0021GMTT V0200801N006712200019N0112651N1+01401+00701999999ADDGA1021+006009999GF102991999999999999999999MA1102611999999MW1001REMMET051GMTT 121700Z 08013KT 9999 FEW020 14/07 Q1026 NOSIG;EQDQ01+000000PRSWM2
0281601010999992000011218004+35730-005900SY-MT+0021GMTT V0200801N006712200019N0100001N1+01211+00671102691ADDAA106000091GA1021+004809999GF102991021021004501001001KA1120M+01601MA1102611999999MD1510001+9999MW1001REMSYN076AAXX  12184 60101 32460 20813 10121 20067 40269 55000 82200 333 10160 82816;MET051GMTT 121800Z 08013KT 9999 FEW016 12/07 Q1026 NOSIG;EQDQ01+000000PRSWM2Q02  00002PRCP06
0145601010999992000011219004+35730-005900FM-15+0021GMTT V0200801N005112200019N0112651N1+01101+00701999999ADDGA1021+004809999GF102991999999999999999999MA1102711999999MW1001REMMET051GMTT 121900Z 08010KT 9999 FEW016 11/07 Q1027 NOSIG;EQDQ01+000000PRSWM2
0145601010999992000011220004+35730-005900FM-15+0021GMTT V0200901N004112200019N0112651N1+01001+00601999999ADDGA1021+004809999GF102991999999999999999999MA1102711999999MW1001REMMET051GMTT 122000Z 09008KT 9999 FEW016 10/06 Q1027 NOSIG;EQDQ01+000000PRSWM2
0232601010999992000011221004+35730-005900SY-MT+0021GMTT V0200701N003612200019N0100001N1+00951+00681102731ADDAA106000091GF100991001001999999001001MA1102711999999MD1010041+9999MW1001REMSYN054AAXX  12214 60101 32960 00707 10095 20068 40273 50004;MET053GMTT 122100Z 08007KT 060V120 CAVOK 09/07 Q1027 NOSIG;EQDQ01+000000PRSWM2Q02  00002PRCP06
0097601010999992000011222004+35730-005900FM-15+0021GMTT V0200801N00361220001CN0099001N1+01001+00701999999ADDMA1102711999999MW1001REMMET045GMTT 122200Z 08007KT CAVOK 10/07 Q1027 NOSIG;EQDQ01+000000PRSWM2
0097601010999992000011223004+35730-005900FM-15+0021GMTT V0200901N00311220001CN0099001N1+00801+00601999999ADDMA1102611999999MW1001REMMET045GMTT 122300Z 09006KT CAVOK 08/06 Q1026 NOSIG;EQDQ01+000000PRSWM2
0230601010999992000011300004+35730-005900SY-MT+0021GMTT V0200901N003612200019N0100001N1+00771+00581102651ADDAA106000091GF100991001001999999001001MA1102611999999MD1810031+9999MW1001REMSYN060AAXX  13004 60101 32960 00907 10077 20058 40265 58003 92357;MET045GMTT 130000Z 09006KT CAVOK 07/05 Q1026 NOSIG;EQDQ01+000000PRSWM2Q02  00002PRCP06
0097601010999992000011301004+35730-005900FM-15+0021GMTT V0200901N00261220001CN0099001N1+00701+00501999999ADDMA1102611999999MW1001REMMET045GMTT 130100Z 09005KT CAVOK 07/05 Q1026 NOSIG;EQDQ01+000000PRSWM2
0097601010999992000011302004+35730-005900FM-15+0021GMTT V0200801N00361220001CN0099001N1+00701+00601999999ADDMA1102511999999MW1001REMMET045GMTT 130200Z 08007KT CAVOK 07/06 Q1025 NOSIG;EQDQ01+000000PRSWM2
0224601010999992000011303004+35730-005900SY-MT+0021GMTT V0200801N003612200019N0100001N1+00761+00501102531ADDAA106000091GF100991001001999999001001MA1102511999999MD1610161+9999MW1001REMSYN054AAXX  13034 60101 32960 00807 10076 20050 40253 56016;MET045GMTT 130300Z 08007KT CAVOK 08/05 Q1025 NOSIG;EQDQ01+000000PRSWM2Q02  00002PRCP06
0097601010999992000011304004+35730-005900FM-15+0021GMTT V0200801N00151220001CN0099001N1+00601+00401999999ADDMA1102511999999MW1001REMMET045GMTT 130400Z 08003KT CAVOK 06/04 Q1025 NOSIG;EQDQ01+000000PRSWM2
0097601010999992000011305004+35730-005900FM-15+0021GMTT V0201101N00101220001CN0099001N1+00501+00401999999ADDMA1102401999999MW1001REMMET045GMTT 130500Z 11002KT CAVOK 05/04 Q1024 NOSIG;EQDQ01+000000PRSWM2
0247601010999992000011306004+35730-005900SY-MT+0021GMTT V0200701N002112200019N0100001N1+00411+00261102461ADDAA106000091GF100991001001999999001001KA1999N+00411MA1102401999999MD1810081+9999MW1001REMSYN064AAXX  13064 60101 32960 00704 10041 20026 40246 58008 333 20041;MET045GMTT 130600Z 07004KT CAVOK 04/03 Q1024 NOSIG;EQDQ01+000000PRSWM2Q02  00002PRCP06
0097601010999992000011307004+35730-005900FM-15+0021GMTT V0200601N00101220001CN0099001N1+00501+00301999999ADDMA1102401999999MW1001REMMET045GMTT 130700Z 06002KT CAVOK 05/03 Q1024 NOSIG;EQDQ01+000000PRSWM2
0097601010999992000011307304+35730-005900FM-15+0021GMTT V0201101N00101220001CN0099001N1+00501+00401999999ADDMA1102401999999MW1001REMMET045GMTT 130830Z 11002KT CAVOK 05/04 Q1024 NOSIG;EQDQ01+000000PRSWM2
0224601010999992000011309004+35730-005900SY-MT+0021GMTT V0200901N002612200019N0100001N1+00781+00601102491ADDAA106000091GF100991001001999999001001MA1102401999999MD1210021+9999MW1001REMSYN054AAXX  13094 60101 32960 00905 10078 20060 40249 52002;MET045GMTT 130900Z 09005KT CAVOK 08/06 Q1024 NOSIG;EQDQ01+000000PRSWM2Q02  00002PRCP06
0097601010999992000011310004+35730-005900FM-15+0021GMTT V0200901N00151220001CN0099001N1+01201+00701999999ADDMA1102511999999MW1001REMMET045GMTT 131000Z 09003KT CAVOK 12/07 Q1025 NOSIG;EQDQ01+000000PRSWM2
0168601010999992000011311004+35730-005900FM-15+0021GMTT V0201901N005112200019N0112651N1+01401+00701999999ADDGA1021+003909999GA2021+060009999GF104991999999999999999999MA1102401999999MW1001REMMET058GMTT 131100Z 19010KT 9999 FEW013 SCT200 14/07 Q1024 NOSIG;EQDQ01+000000PRSWM2
0291601010999992000011312004+35730-005900SY-MT+0021GMTT V0201801N005712200019N0100001N1+01471+00811102381ADDAA106000091GA1021+003909999GA2021+060009999GF103991021021004501001021MA1102301999999MD1010011+9999MW1001REMSYN076AAXX  13124 60101 32460 31811 10147 20081 40238 50001 82202 333 82813 83070;MET058GMTT 131200Z 18011KT 9999 FEW013 SCT200 15/08 Q1023 NOSIG;EQDQ01+000000PRSWM2Q02  00002PRCP06
0168601010999992000011313004+35730-005900FM-15+0021GMTT V0202101N006712200019N0112651N1+01601+01001999999ADDGA1021+003909999GA2021+060009999GF104991999999999999999999MA1102201999999MW1001REMMET058GMTT 131300Z 21013KT 9999 SCT013 SCT200 16/10 Q1022 NOSIG;EQDQ01+000000PRSWM2
0168601010999992000011314004+35730-005900FM-15+0021GMTT V0202301N006712200019N0112651N1+01601+01101999999ADDGA1021+003909999GA2021+004809999GF104991999999999999999999MA1102101999999MW1001REMMET058GMTT 131400Z 23013KT 9999 SCT013 SCT016 16/11 Q1021 NOSIG;EQDQ01+000000PRSWM2
0291601010999992000011315004+35730-005900SY-MT+0021GMTT V0202201N00721009001CN0100001N1+01551+01001102061ADDAA106000091GA1021+003909999GA2021+004809999GF107991051081004501001021MA1102001999999MD1610311+9999MW1001REMSYN076AAXX  13154 60101 32460 72214 10155 20100 40206 56031 85802 333 83813 84616;MET058GMTT 131500Z 22014KT 9999 SCT013 SCT016 15/10 Q1020 NOSIG;EQDQ01+000000PRSWM2Q02  00002PRCP06
0171601010999992000011316004+35730-005900FM-15+0021GMTT V0202201N006712200019N0112651N1+01501+00901999999ADDGA1021+004809029GA2021+006009999GF104991999999999999999999MA1102001999999MW1001REMMET061GMTT 131600Z 22013KT 9999 SCT016TCU SCT020 15/09 Q1020 NOSIG;EQDQ01+000000PRSWM2
0183601010999992000011317004+35730-005900FM-15+0021GMTT V0202101N00821220001CN0112651N1+01401+01001999999ADDGA1021+004809999GA2071+006009999GA3021+006909099MA1101901999999MW1001REMMET067GMTT 131700Z 21016KT 9999 SCT016 BKN020 FEW023CB 14/10 Q1019 NOSIG;EQDQ01+000022SCOTCVQ02+000000PRSWM2
0369601010999992000011318004+35730-005900SY-MT+0021GMTT V0202001N005110060019N0100001N1+01211+00831101921ADDAA112000791AY121061AY221061GA1021+004809999GA2071+006009999GA3021+006909099GF107991071091004501999999KA1120M+01581MA1101901999999MD1810131+9999MW1211REMSYN100AAXX  13184 60101 32460 72010 10121 20083 40192 58013 69902 72122 879// 333 10158 83816 85620 81923;MET067GMTT 131800Z 21013KT 9999 SCT016 BKN020 FEW023CB 13/08 Q1019 NOSIG;EQDQ01+000000PRSWM2Q02    003PRSWM1
0188601010999992000011319004+35730-005900FM-15+0021GMTT V0201901N00621220001CN0112651N1+01101+00801999999ADDGA1021+004809999GA2071+006009999GA3021+006909099MA1101801999999MW1001REMMET072GMTT 131900Z 19012KT 9999 SCT016 BKN020 FEW023CB 11/08 Q1018 RERA NOSIG;EQDQ01+000022SCOTCVQ02+000000PRSWM2
0210601010999992000011319304+35730-005900FM-15+0021GMTT V0202401N00311220001CN0112651N1+01101+00901999999ADDGA1021+004809999GA2071+006009999GA3021+006909099MA1101801999999MW1631REMMET078GMTT 131930Z 24006KT 150V290 9999 RA SCT016 BKN020 FEW023CB 11/09 Q1018 NOSIG;EQDQ01+000022SCOTCVQ02+000003PRSWM1Q03    003PRSWM1
0202601010999992000011320004+35730-005900FM-15+0021GMTT V0201901N00151220001CN0112651N1+01101+00901999999ADDGA1021+004809999GA2071+006009999GA3021+006909099MA1101801999999MW1631REMMET070GMTT 132000Z 19003KT 9999 RA SCT016 BKN020 FEW023CB 11/09 Q1018 NOSIG;EQDQ01+000022SCOTCVQ02+000003PRSWM1Q03    003PRSWM1
0211601010999992000011320304+35730-005900FM-15+0021GMTT V0201701N00411220001CN0112651N1+01101+00901999999ADDGA1021+004809999GA2071+006009999GA3021+006909099MA1101801999999MW1611REMMET079GMTT 132030Z 17008KT 150V210 9999 -RA SCT016 BKN020 FEW023CB 11/09 Q1018 NOSIG;EQDQ01+000022SCOTCVQ02+000003PRSWM1Q03    003PRSWM1
0319601010999992000011321004+35730-005900SY-MT+002199999V0201801N006210060019N0100001N1+01121+00921101751ADDGA1021+004809999GA2071+006009999GA3021+006909099GF108991081091004501999999MA1101691999999MD1810151+9999MW1611REMSYN086    AAXX  13214 60101 43460 81812 10112 20092 40175 58015 889// 333 84816 85620 81923;MET071GMTT 132100Z 18012KT 9999 -RA SCT016 BKN020 FEW023CB 11/09 Q1017 NOSIG;EQDQ01+000003PRSWM1Q02    003PRSWM1
0203601010999992000011322004+35730-005900FM-15+0021GMTT V0201801N00671220001CN0112651N1+01101+01001999999ADDGA1021+004809999GA2071+006009999GA3021+006909099MA1101691999999MW1611REMMET071GMTT 132200Z 18013KT 9999 -RA SCT016 BKN020 FEW023CB 11/10 Q1017 NOSIG;EQDQ01+000022SCOTCVQ02+000003PRSWM1Q03    003PRSWM1
0078601010999992000011323004+35730-005900FM-15+0021GMTT V0201901N005112200019N0080001N1+99999+99999999999ADDMW1001REMMET041GMTT 132300Z 19010KT 170V230 11/10 Q1016;EQDQ01+000000PRSWM2
0360601010999992000011400004+35730-005900SY-MT+002199999V0201901N006710060019N0080001N1+01071+00891101581ADDAA106005191AY121061AY261061GA1021+003909999GA2071+006009999GA3021+006909099GF108991081091004501999999MA1101491999999MD1710181+9999MW1021REMSYN104    AAXX  14004 60101 11458 81913 10107 20089 40158 57018 60051 70226 889// 92354 333 84813 85620 83923;MET067GMTT 140000Z 18013KT 8000 SCT013 BKN020 FEW023CB 11/09 Q1015 NOSIG;EQDQ01+000000PRSWM2Q02    003PRSWM1
0119601010999992000011401004+35730-005900FM-15+0021GMTT V0202001N002612200019N0060001N1+99999+99999999999ADDMW1001REMMET082GMTT 140100Z 20005KT 170V230 6000 95TSRA SCT013 BKN020 SCT023CB 10/09 Q1015 NOSIG;EQDQ01+000000PRSWM2
0183601010999992000011402004+35730-005900FM-15+0021GMTT V0202901N00621220001CN0060001N1+01101+00901999999ADDGA1021+003909999GA2071+006009999GA3021+006909099MA1101391999999MW1001REMMET067GMTT 140200Z 29012KT 6000 SCT013 BKN020 SCT023CB 11/09 Q1014 NOSIG;EQDQ01+000042SCOTCVQ02+000000PRSWM2
0332601010999992000011403004+35730-005900SY-MT+002199999V0203301N001510060019N0060001N1+01011+00851101451ADDAY181031AY221031GA1021+003909999GA2071+006009999GA3021+006909099GF108991081091004501999999MA1101391999999MD1710181+9999MW1801MW2811REMSYN092    AAXX  14034 60101 41456 83303 10101 20085 40145 57018 78082 889// 333 84813 85620 83923;MET072GMTT 140300Z 33003KT 6000 SHRA SCT013 BKN020 SCT023CB 10/09 Q1014 NOSIG;EQDQ01    003PRSWM1
0202601010999992000011404004+35730-005900FM-15+0021GMTT V0201001N00101220001CN0060001N1+01001+00901999999ADDGA1021+003909999GA2071+006009999GA3021+006909099MA1101391999999MW1631REMMET070GMTT 140400Z 10002KT 6000 RA SCT013 BKN020 SCT023CB 10/09 Q1014 NOSIG;EQDQ01+000042SCOTCVQ02+000003PRSWM1Q03    003PRSWM1
0176601010999992000011404304+35730-005900FM-15+0021GMTT V0201601N001010060019N0060001N1+00901+00801999999ADDGA1021+003909999GA2071+006009999GF107991999999999999999999MA1101291999999MW1001REMMET066GMTT 140530Z 16002KT 6000 SCT013 BKN020 09/08 Q1013 TEMPO 5000 RA;EQDQ01+000000PRSWM2
0347601010999992000011406004+35730-005900SY-MT+002199999V0202901N005110048019N0060001N1+01011+00781101341ADDAA124023991AY191061AY281061GA1021+003009999GA2071+004809999GF108991081081004501999999KA1120N+00941MA1101291999999MD1810091+9999MW1251REMSYN098    AAXX  14064 60101 11456 82910 10101 20078 40134 58009 60244 72598 888// 333 20094 84810 87816;MET063GMTT 140600Z 29009KT 6000 SCT010 BKN016 10/08 Q1013 RERA NOSIG;EQDQ01+000000PRSWM2Q02    003PRSWM1
0168601010999992000011407004+35730-005900FM-15+0021GMTT V0203101N006210048019N0060001N1+01101+00601999999ADDGA1021+003009999GA2071+004809999GF107991999999999999999999MA1101291999999MW1001REMMET058GMTT 140700Z 31012KT 6000 SCT010 BKN016 11/06 Q1013 NOSIG;EQDQ01+000000PRSWM2
0168601010999992000011408004+35730-005900FM-15+0021GMTT V0203101N006210048019N0112651N1+01001+00501999999ADDGA1021+003009999GA2071+004809999GF107991999999999999999999MA1101291999999MW1001REMMET058GMTT 140800Z 31012KT 9999 SCT010 BKN016 10/05 Q1013 NOSIG;EQDQ01+000000PRSWM2
0295601010999992000011409004+35730-005900SY-MT+002199999V0203001N004610048019N0100001N1+01071+00561101381ADDAA199000021GA1021+003909999GA2071+004809999GF199999061021004501001001MA1101291999999MD1310041+9999MW1001REMSYN080    AAXX  14094 60101 32460 63009 10107 20056 40138 53004 86200 333 84813 85816;MET058GMTT 140900Z 29009KT 9999 SCT013 BKN016 11/06 Q1013 NOSIG;EQDQ01+000062SCOTCVQ02+000000PRSWM2
0183601010999992000011410004+35730-005900FM-15+0021GMTT V0202901N00571220001CN0112651N1+01201+00701999999ADDGA1021+003909999GA2071+004809999GA3021+009009099MA1101291999999MW1001REMMET067GMTT 141000Z 29011KT 9999 SCT013 BKN016 FEW030CB 12/07 Q1013 NOSIG;EQDQ01+000022SCOTCVQ02+000000PRSWM2
0183601010999992000011411004+35730-005900FM-15+0021GMTT V0202901N00571220001CN0112651N1+01301+00701999999ADDGA1021+003909999GA2071+004809999GA3021+009009099MA1101291999999MW1001REMMET067GMTT 141100Z 29011KT 9999 SCT013 BKN016 FEW030CB 13/07 Q1013 NOSIG;EQDQ01+000022SCOTCVQ02+000000PRSWM2
0354601010999992000011412004+35730-005900SY-MT+002199999V0202701N008210048019N0100001N1+01141+00741101331ADDAA106000191AY181061AY221061GA1021+003909999GA2071+004809999GA3021+009009099GF107991071091004501999999MA1101291999999MD1810041+9999MW1801REMSYN098    AAXX  14124 60101 11460 72716 10114 20074 40133 58004 69921 78082 879// 333 84813 85616 82930;MET067GMTT 141200Z 27017KT 9999 SCT013 BKN016 FEW030CB 11/07 Q1013 NOSIG;EQDQ01+000000PRSWM2Q02    003PRSWM1
0183601010999992000011413004+35730-005900FM-15+0021GMTT V0202701N00671220001CN0112651N1+01301+00701999999ADDGA1021+003909999GA2071+004809999GA3021+009009099MA1101191999999MW1001REMMET067GMTT 141300Z 27013KT 9999 SCT013 BKN016 FEW030CB 13/07 Q1012 NOSIG;EQDQ01+000022SCOTCVQ02+000000PRSWM2
0183601010999992000011414004+35730-005900FM-15+0021GMTT V0202801N00571220001CN0112651N1+01301+00601999999ADDGA1021+003909999GA2071+004809999GA3021+009009099MA1101081999999MW1001REMMET067GMTT 141400Z 28011KT 9999 SCT013 BKN016 FEW030CB 13/06 Q1011 NOSIG;EQDQ01+000022SCOTCVQ02+000000PRSWM2
0193601010999992000011414304+35730-005900FM-15+0021GMTT V0202501N006212200019N0112651N1+01201+00601999999ADDGA1021+003909999GA2021+004809999GA3021+009009099GF102991999999999999999999MA1101021999999MW1001REMMET067GMTT 141530Z 25012KT 9999 SCT013 SCT016 FEW030CB 12/06 Q1010 NOSIG;EQDQ01+000000PRSWM2
0148601010999992000011415004+35730-005900FM-12+002199999V0202501N006210048019N0100001N1+01321+00651101101ADDGA1051+004809089GF106991061091004501001001MD1810261+9999REMSYN080    AAXX  14154 60101 42460 62512 10132 20065 40110 58026 86900 333 85816 81930;
0196601010999992000011416004+35730-005900FM-15+0021GMTT V0202301N00621220001CN0112651N1+01101+00801999999ADDGA1021+003909999GA2071+004809999GA3021+009009099MA1101021999999MW1001REMMET080GMTT 141600Z 23012KT 200V260 9999 SCT013 BKN016 FEW030CB 11/08 Q1010 RERA NOSIG;EQDQ01+000022SCOTCVQ02+000000PRSWM2
0188601010999992000011417004+35730-005900FM-15+0021GMTT V0202701N00621220001CN0112651N1+01101+00501999999ADDGA1021+003909999GA2071+004809999GA3021+009009099MA1101021999999MW1001REMMET072GMTT 141700Z 27012KT 9999 SCT013 BKN016 FEW030CB 11/05 Q1010 RERA NOSIG;EQDQ01+000022SCOTCVQ02+000000PRSWM2
0378601010999992000011418004+35730-005900SY-MT+002199999V0202801N003610048019N0100001N1+00911+00641101071ADDAA112001091AY121061AY221061GA1021+003909999GA2071+004809999GA3021+009009099GF108991081091004501999999KA1120M+01391MA1101021999999MD1610051+9999MW1251REMSYN104    AAXX  14184 60101 11460 82807 10091 20064 40107 56005 69992 72522 889// 333 10139 83813 86816 82930;MET072GMTT 141800Z 28006KT 9999 SCT013 BKN016 FEW030CB 09/06 Q1010 RERA NOSIG;EQDQ01+000000PRSWM2Q02    003PRSWM1
0200601010999992000011419004+35730-005900FM-15+0021GMTT V0202001N00511220001CN0112651N1+00901+00701999999ADDGA1021+003909999GA2071+004809999GA3021+009009099MA1101081999999MW1001REMMET084GMTT 141900Z 20010KT 170V230 9999SHRA SCT013 BKN016 FEW030CB 09/07 Q1011 RERA NOSIG;EQDQ01+000022SCOTCVQ02+000000PRSWM2
0187601010999992000011420004+35730-005900FM-15+0021GMTT V0202201N00411220001CN0112651N1+00901+00601999999ADDGA1021+003909999GA2071+004809999GA3021+009009099MA1101081999999MW1001REMMET071GMTT 142000Z 22008KT 9999 SCT013 BKN016 FEW030CB 09/06 Q1011RESH NOSIG;EQDQ01+000022SCOTCVQ02+000000PRSWM2
0337601010999992000011421004+35730-005900SY-MT+002199999V0201701N002610048019N0100001N1+00861+00611101191ADDAY181031AY221031GA1021+003909999GA2071+004809999GA3021+009009099GF107991071091004501999999MA1101081999999MD1110111+9999MW1011REMSYN092    AAXX  14214 60101 41460 71705 10086 20061 40119 51011 70182 879// 333 83813 86816 82930;MET067GMTT 142100Z 17006KT 9999 SCT013 BKN016 FEW030CB 09/06 Q1011 NOSIG;EQDQ01+000000PRSWM2Q02    003PRSWM1
0183601010999992000011422004+35730-005900FM-15+0021GMTT V0201801N00361220001CN0112651N1+00901+00701999999ADDGA1021+003909999GA2071+004809999GA3021+009009099MA1101191999999MW1001REMMET067GMTT 142200Z 18007KT 9999 SCT013 BKN016 FEW030CB 09/07 Q1012 NOSIG;EQDQ01+000022SCOTCVQ02+000000PRSWM2
0188601010999992000011423004+35730-005900FM-15+0021GMTT V0201801N00461220001CN0112651N1+00801+00601999999ADDGA1021+003909999GA2071+004809999GA3021+009009099MA1101191999999MW1001REMMET072GMTT 142300Z 18009KT 9999 SCT013 BKN016 FEW030CB 08/06 Q1012 RERA NOSIG;EQDQ01+000022SCOTCVQ02+000000PRSWM2
0354601010999992000011500004+35730-005900SY-MT+002199999V0201801N005110048019N0080001N1+00791+00561101241ADDAA106002091AY161061AY281061GA1021+003909999GA2071+004809999GA3021+009009099GF107991071091004501999999MA1101191999999MD1010031+9999MW1011REMSYN098    AAXX  15004 60101 11458 71810 10079 20056 40124 50003 60021 70168 879// 333 83813 85616 81930;MET067GMTT 150000Z 18010KT 8000 SCT013 BKN016 FEW030CB 08/06 Q1012 NOSIG;EQDQ01+000000PRSWM2Q02    003PRSWM1
0183601010999992000011501004+35730-005900FM-15+0021GMTT V0201701N00571220001CN0080001N1+00801+00501999999ADDGA1021+003909999GA2071+004809999GA3021+009009099MA1101081999999MW1001REMMET067GMTT 150100Z 17011KT 8000 SCT013 BKN016 FEW030CB 08/05 Q1011 NOSIG;EQDQ01+000022SCOTCVQ02+000000PRSWM2
0193601010999992000011502004+35730-005900FM-15+0021GMTT V0201801N006212200019N0080001N1+00801+00501999999ADDGA1021+003909999GA2021+004809999GA3021+009009099GF102991999999999999999999MA1101081999999MW1001REMMET067GMTT 150200Z 18012KT 8000 FEW013 SCT016 FEW030CB 08/05 Q1011 NOSIG;EQDQ01+000000PRSWM2
0342601010999992000011503004+35730-005900SY-MT+002199999V0201801N005710048019N0080001N1+00801+00561101201ADDAY181031AY221031GA1021+003909999GA2071+004809999GA3021+009009099GF107991071091004501999999MA1101191999999MD1510041+9999MW1251REMSYN092    AAXX  15034 60101 41458 71811 10080 20056 40120 55004 72582 879// 333 83813 85616 81930;MET072GMTT 150300Z 18011KT 8000 SCT013 BKN016 FEW030CB 08/06 Q1012 RERA NOSIG;EQDQ01+000000PRSWM2Q02    003PRSWM1
0216601010999992000011504004+35730-005900FM-15+0021GMTT V0201701N00571220001CN0080001N1+00801+00601999999ADDGA1021+003909999GA2071+004809999GA3021+009009099MA1101191999999MW1801OC101081REMMET076GMTT 150400Z 17011G21KT 8000 -SHRA SCT013 BKN016 FEW030CB 08/06 Q1012 NOSIG;EQDQ01+000022SCOTCVQ02+000003PRSWM1Q03    003PRSWM1
0188601010999992000011505004+35730-005900FM-15+0021GMTT V0201801N00571220001CN0080001N1+00801+00601999999ADDGA1021+003909999GA2071+004809999GA3021+009009099MA1101081999999MW1001REMMET072GMTT 150500Z 18011KT 8000 SCT013 BKN016 FEW030CB 08/06 Q1011 RERA NOSIG;EQDQ01+000022SCOTCVQ02+000000PRSWM2
0373601010999992000011506004+35730-005900SY-MT+002199999V0201801N004610048019N0080001N1+00811+00571101231ADDAA124005191AY181061AY221061GA1021+003909999GA2071+004809999GA3021+009009099GF107991071091004501999999KA1120N+00751MA1101191999999MD1110021+9999MW1251REMSYN104    AAXX  15064 60101 11458 71809 10081 20057 40123 51002 60054 72582 879// 333 20075 83813 85616 82930;MET067GMTT 150600Z 18009KT 8000 SCT013 BKN016 FEW030CB 08/06 Q1012 NOSIG;EQDQ01+000000PRSWM2Q02    003PRSWM1
0183601010999992000011507004+35730-005900FM-15+0021GMTT V0201701N00571220001CN0080001N1+00801+00501999999ADDGA1021+003909999GA2071+004809999GA3021+009009099MA1101191999999MW1001REMMET067GMTT 150700Z 17011KT 8000 SCT013 BKN016 FEW030CB 08/05 Q1012 NOSIG;EQDQ01+000022SCOTCVQ02+000000PRSWM2
0183601010999992000011508004+35730-005900FM-15+0021GMTT V0201901N00361220001CN0080001N1+00801+00601999999ADDGA1021+003909999GA2071+004809999GA3021+009009099MA1101291999999MW1001REMMET067GMTT 150800Z 19007KT 8000 SCT013 BKN016 FEW030CB 08/06 Q1013 NOSIG;EQDQ01+000022SCOTCVQ02+000000PRSWM2
0299601010999992000011509004+35730-005900SY-MT+002199999V0201501N004110048019N0080001N1+00971+00641101431ADDGA1021+003909999GA2071+004809999GA3021+009009099GF107991071091004501999999MA1101391999999MD1310191+9999MW1001REMSYN086    AAXX  15094 60101 42458 71508 10097 20064 40143 53019 879// 333 83813 85616 82930;MET067GMTT 150900Z 15008KT 8000 SCT013 BKN016 FEW030CB 10/06 Q1014 NOSIG;EQDQ01+000000PRSWM2
0194601010999992000011510004+35730-005900FM-15+0021GMTT V0201601N00571220001CN0112651N1+01101+00701999999ADDGA1021+003909999GA2071+004809999GA3021+009009099MA1101391999999MW1001REMMET078GMTT 151000Z 16011KT 9999 R28//////N SCT013 BKN016 FEW030CB 11/07 Q1014 NOSIG;EQDQ01+000022SCOTCVQ02+000000PRSWM2
0193601010999992000011511004+35730-005900FM-15+0021GMTT V0201601N005112200019N0112651N1+01201+00701999999ADDGA1021+003909999GA2021+004809999GA3021+009009099GF102991999999999999999999MA1101491999999MW1001REMMET067GMTT 151100Z 16010KT 9999 SCT013 SCT016 FEW030CB 12/07 Q1015 NOSIG;EQDQ01+000000PRSWM2
0183601010999992000011511304+35730-005900FM-15+0021GMTT V0201501N00571220001CN0112651N1+01301+00801999999ADDGA1021+003909999GA2071+004809999GA3021+009009099MA1101391999999MW1001REMMET067GMTT 151230Z 15011KT 9999 SCT013 BKN016 FEW030CB 13/08 Q1014 NOSIG;EQDQ01+000022SCOTCVQ02+000000PRSWM2
0181601010999992000011512004+35730-005900FM-12+002199999V0201701N005110048019N0100001N1+01251+00751101491ADDAA199000021GA1031+003909089GA2051+004809069GF106991061091004501001001MD1110151+9999REMSYN086    AAXX  15124 60101 32460 61710 10125 20075 40149 51015 86900 333 83813 85616 82930;
0183601010999992000011513004+35730-005900FM-15+0021GMTT V0201501N00571220001CN0112651N1+01301+00701999999ADDGA1021+003909999GA2071+004809999GA3021+009009099MA1101391999999MW1001REMMET067GMTT 151300Z 15011KT 9999 SCT013 BKN016 FEW030CB 13/07 Q1014 NOSIG;EQDQ01+000022SCOTCVQ02+000000PRSWM2
