0147601010999991997010100004+35733-005900FM-12+0021GMTT V0202001N00771004801CN0070001N1+01251+01141101001ADDAA106003091AG10001AY161061AY221061GA1031+003009089GA2051+004809089GF108991061021004501071999MD1110061+9999MW1021REMSYN023 333 83810 85816 85458;
0211601010999991997010100004+35733-005900SY-MT+0021GMTT V0202001N00771004801CN0070001N1+01251+01141101001ADDAA106003091AG10001AY161061AY221061GA1021+003009999GA2071+004809999GA3071+024009999GF108991061021004501071999MA1101021999999MD1110061+9999MW1021REMSYN023 333 83810 85816 85458;MET008NEW NSG;EQDQ01+000000PRSWM2
0135601010999991997010100304+35733-005900FM-15+0021GMTT V0202001N00721004801CN0070001N1+01301+01101999999ADDAG10999GA1021+003009999GA2071+004809999GA3071+024009999GF107991999999999999999999MA1101021999999REMMET008NEW NSG;EQDQ01+000000PRSWM2
0122601010999991997010101304+35733-005900FM-15+0021GMTT V0202001N00721004801CN0070001N1+01301+01201999999ADDAG10999GA1021+003009999GA2071+004809999GA3071+024009999GF107991999999999999999999MA1100911999999MW1611REMMET008NEW NSG;
0187601010999991997010103004+35733-005900SY-MT+0021GMTT V0202001N00621004801CN0070001N1+01201+01111101001ADDAG10003AY161031AY221031GA1021+003009999GA2071+004809999GA3071+024009999GF108991061021004501071999MA1100911999999MD1510001+9999MW1211MW2631REMSYN023 333 83810 85816 86458;MET008NEW NSG;
0135601010999991997010103304+35733-005900FM-15+0021GMTT V0202001N00821004801CN0070001N1+01301+01201999999ADDAG10999GA1021+003009999GA2071+004809999GA3071+024009999GF107991999999999999999999MA1100911999999REMMET008NEW RERAEQDQ01+000000PRSWM2
0135601010999991997010105004+35733-005900FM-15+0021GMTT V0202001N00821004801CN0070001N1+01201+01101999999ADDAG10999GA1021+003009999GA2071+004809999GA3071+024009999GF107991999999999999999999MA1100911999999REMMET008NEW NSG;EQDQ01+000000PRSWM2
0241601010999991997010106004+35733-005900SY-MT+0021GMTT V0201801N00721004801CN0080001N1+01181+01031100871ADDAA106000091AA224018091AG10001AY161061AY261061GA1021+003009999GA2071+004809999GA3071+024009999GF108991061081004501071999KA1120N+01121MA1100811999999MD1610011+9999MW1021REMSYN029 333 20112 83710 85616 85458;MET008NEW NSG;EQDQ01+000000PRSWM2
0135601010999991997010106304+35733-005900FM-15+0021GMTT V0201801N00721004801CN0080001N1+01201+01001999999ADDAG10999GA1021+003009999GA2071+004809999GA3071+024009999GF107991999999999999999999MA1100811999999REMMET008NEW NSG;EQDQ01+000000PRSWM2
0135601010999991997010107304+35733-005900FM-15+0021GMTT V0201801N00621004801CN0080001N1+01201+01001999999ADDAG10999GA1021+003009999GA2071+004809999GA3071+024009999GF107991999999999999999999MA1100811999999REMMET008NEW NSG;EQDQ01+000000PRSWM2
0181601010999991997010109004+35733-005900SY-MT+0021GMTT V0201001N00101004501CN0080001N1+01201+01011100861ADDAG10001AY161031AY261031GA1021+003009999GA2071+004509999GA3071+024009999GF108991061021004501071999MA1100811999999MD1710011+9999MW1611REMSYN023 333 83810 85815 86380;MET008NEW NSG;
0122601010999991997010109304+35733-005900FM-15+0021GMTT V0201601N00101004501CN0080001N1+01201+01001999999ADDAG10999GA1021+003009999GA2071+004509999GA3071+024009999GF107991999999999999999999MA1100811999999MW1611REMMET008NEW NSG;
0122601010999991997010111004+35733-005900FM-15+0021GMTT V0201601N00211004801CN0080001N1+01301+01101999999ADDAG10999GA1021+003009999GA2071+004809999GA3071+024009999GF107991999999999999999999MA1100911999999MW1611REMMET008NEW NSG;
0192601010999991997010112004+35733-005900SY-MT+0021GMTT V0201401N00211004501CN0060001N1+01201+01111100801ADDAA106005091AG10001AY161061AY261061GA1021+003009999GA2071+004509999GA3071+024009999GF108991061021004501071999MA1100911999999MD1710061+9999MW1611REMSYN023 333 83810 85815 86380;MET008NEW NSG;
0122601010999991997010112304+35733-005900FM-15+0021GMTT V0201601N00211004501CN0060001N1+01201+01101999999ADDAG10999GA1021+003009999GA2071+004509999GA3071+024009999GF107991999999999999999999MA1100811999999MW1631REMMET008NEW NSG;
0135601010999991997010113304+35733-005900FM-15+0021GMTT V0201601N00311004501CN0070001N1+01201+01101999999ADDAG10999GA1021+003009999GA2071+004509999GA3071+024009999GF107991999999999999999999MA1100811999999REMMET008NEW RERAEQDQ01+000000PRSWM2
0114601010999991997010114004+35733-005900FM-15+0021GMTT V0201601N003110030019N0060001N1+99999+99999999999ADDAG10999GA1071+000159999GA2021+003009999GF107991999999999999999999MW1631REMMET031NEW (15 BKN080 12/11 Q1006 NSG;
0187601010999991997010115004+35733-005900SY-MT+0021GMTT V0201601N00511004501CN0070001N1+01251+01061100541ADDAG10003AY161031AY261031GA1021+003009999GA2071+004509999GA3071+024009999GF108991061081004501071999MA1100611999999MD1810261+9999MW1611MW2631REMSYN023 333 83813 85815 87458;MET008NEW NSG;
0135601010999991997010115304+35733-005900FM-15+0021GMTT V0201601N00411004501CN0070001N1+01301+01101999999ADDAG10999GA1021+003909999GA2071+004509999GA3071+024009999GF107991999999999999999999MA1100511999999REMMET008NEW RERAEQDQ01+000000PRSWM2
0135601010999991997010116304+35733-005900FM-15+0021GMTT V0201601N00311004501CN0080001N1+01301+01101999999ADDAG10999GA1021+003909999GA2071+004509999GA3071+024009999GF107991999999999999999999MA1100511999999REMMET008NEW NSG;EQDQ01+000000PRSWM2
0257601010999991997010118004+35733-005900SY-MT+0021GMTT V0200401N00311004501CN0080001N1+01301+01111100431ADDAA106999999AA299012091AG10001AY161061AY261061GA1021+003909999GA2071+004509999GA3071+024009999GF108991061081004501071999KA1120M+01341MA1100411999999MD1710111+9999MW1611REMSYN029 333 10134 83813 85815 87458;MET008NEW RERAEQDQ01+000000PRSWM2Q02  00002PRCP06
0099601010999991997010118304+35733-005900FM-15+0021GMTT V0203601N00931220001CN0080001N1+99999+99999999999ADDAG10999GA1021+003009999GF104991999999999999999999MW1631REMMET032NEW BLKN015 BKN080 13/11 Q1004 N
0130601010999991997010119304+35733-005900FM-15+0021GMTT V0200201N01231004501CN0050001N1+01201+01101999999ADDAG10999GA1021+002409999GA2071+004509999GA3071+024009999GF107991999999999999999999MA1100411999999MW1631OC101851REMMET008NEW NSG;
0195601010999991997010121004+35733-005900SY-MT+0021GMTT V0200201N00821004501CN0060001N1+01051+00741100821ADDAG10003AY161031AY261031GA1021+002409999GA2071+004509999GA3071+024009999GF108991061081004501071999MA1100611999999MD1210391+9999MW1611MW2631OC101751REMSYN023 333 83813 85616 86480;MET008NEW NSDG
0140601010999991997010121304+35733-005900FM-15+0021GMTT V0200201N00411004801CN0060001N1+01101+00701999999ADDAG10999GA1021+003909999GA2071+004809999GA3071+024009999GF107991999999999999999999MA1100811999999REMMET013NEW NSG RERA;EQDQ01+000000PRSWM2
0135601010999991997010122304+35733-005900FM-15+0021GMTT V0209991C00001004801CN0080001N1+01101+00701999999ADDAG10999GA1021+003909999GA2071+004809999GA3071+024009999GF107991999999999999999999MA1100811999999REMMET008NEW NSG;EQDQ01+000000PRSWM2
0198601010999991997010200004+35733-005900SY-MT+0021GMTT V0203601N00511004801CN0060001N1+01141+00861100981ADDAA106007091AG10004AY161061AY261061GA1021+003909999GA2071+004809999GA3071+024009999GF108991061081004501071999MA1100911999999MD1110161+9999MW1631MW2651REMSYN023 333 83813 86816 86480;MET008NEW NSG;
0135601010999991997010200304+35733-005900FM-15+0021GMTT V0202001N00511004801CN0060001N1+01101+00901999999ADDAG10999GA1021+003909999GA2071+004809999GA3071+024009999GF107991999999999999999999MA1100911999999REMMET008NEW RERAEQDQ01+000000PRSWM2
0135601010999991997010201304+35733-005900FM-15+0021GMTT V0202001N00621004801CN0060001N1+01101+00901999999ADDAG10999GA1021+003909999GA2071+004809999GA3071+024009999GF107991999999999999999999MA1100911999999REMMET008NEW NSG;EQDQ01+000000PRSWM2
0200601010999991997010203004+35733-005900SY-MT+0021GMTT V0202201N00821004801CN0060001N1+01141+00941100981ADDAG10001AY161031AY261031GA1021+003909999GA2071+004809999GA3071+024009999GF108991061021004501071999MA1100911999999MD1410001+9999MW1021REMSYN023 333 83813 86816 86480;MET008NEW NSG;EQDQ01+000000PRSWM2
0109601010999991997010203304+35733-005900FM-15+0021GMTT V0202401N00931220001CN0080001N1+01101+00901999999ADDAG10999GA1071+004809999GA2021+024009999MA1100911999999REMMET008NEW NSG;EQDQ01+000042SCOTCVQ02+000000PRSWM2
0140601010999991997010205004+35733-005900FM-15+0021GMTT V0202401N00821004801CN0080001N1+01101+00901999999ADDAG10999GA1071+004809999GA2021+006909099GA3071+024009999GF107991999999999999999999MA1100911999999REMMET013NEW RERA NSG;EQDQ01+000000PRSWM2
0257601010999991997010206004+35733-005900SY-MT+0021GMTT V0202001N00931004801CN0100001N1+01051+00891100981ADDAA106000091AA224022091AG10001AY181061AY261061GA1071+004809999GA2021+006909099GA3021+024009999GF199999041091004501031001KA1120N+00951MA1100911999999MD1010001+9999MW1011REMSYN029 333 20095 84816 81923 83360;MET008NEW NSG;EQDQ01+000062SCOTCVQ02+000000PRSWM2
0115601010999991997010206304+35733-005900FM-16+0021GMTT V0202201N01031220001CN0112651N1+99999+99999999999ADDAA106000091AG10000GA1021+004809999GA2021+006909099GF102991999999999999999999REMMET008NEW 080;EQDQ01+000000PRSWM2
0099601010999991997010207004+35733-005900FM-15+0021GMTT V0202201N00931220001CN0060001N1+01101+01001999999ADDAG10999GA1071+004809999GA2021+006909099MA1100911999999MW1811REMMET008NEW NSG;EQDQ01+000022SCOTCV
0099601010999991997010207304+35733-005900FM-15+0021GMTT V0202201N00931220001CN0060001N1+01101+01001999999ADDAG10999GA1071+004809999GA2021+006909099MA1100911999999MW1811REMMET008NEW NSG;EQDQ01+000022SCOTCV
0181601010999991997010209004+35733-005900SY-MT+0021GMTT V0202001N01341004501CN0080001N1+01061+00891100951ADDAG10001AY161031AY261031GA1071+004509999GA2021+006909099GA3071+024009999GF107991051091004501071999MA1100911999999MD1810031+9999MW1631REMSYN023 333 85815 85458 81923;MET008NEW NSG;
0138601010999991997010209304+35733-005900FM-15+0021GMTT V0202001N01341220001CN9999999N9+01101+00901999999ADDAG10999GA1071+004509999GA2021+006909099GA3071+024009999MA1100911999999REMMET005NEW ;EQDQ01+000042SCOTCVQ02+000002VOVAR Q03+000000PRSWM2
0135601010999991997010210004+35733-005900FM-15+0021GMTT V0202001N01231004501CN0080001N1+01101+00901999999ADDAG10999GA1071+004509999GA2021+006909099GA3071+024009999GF107991999999999999999999MA1100911999999REMMET008NEW NSG;EQDQ01+000000PRSWM2
0113601010999991997010210304+35733-005900FM-15+0021GMTT V0202001N01231220001CN0080001N1+99999+99999999999ADDAG10999GA1021+003609999GA2071+004509999REMMET027NEW 3CB BKN080 11/09 Q1009;EQDQ01+000042SCOTCVQ02+000000PRSWM2
0140601010999991997010211004+35733-005900FM-15+0021GMTT V0202001N01231004501CN0080001N1+01101+00901999999ADDAG10999GA1071+004509999GA2021+006909099GA3071+024009999GF107991999999999999999999MA1100911999999REMMET013NEW TEMPO RA;EQDQ01+000000PRSWM2
0211601010999991997010212004+35733-005900SY-MT+0021GMTT V0202001N01131004501CN0080001N1+01041+00961100901ADDAA106012091AG10001AY161061AY261061GA1071+004509999GA2021+006909099GA3071+024009999GF107991051091004501031999MA1100911999999MD1510051+9999MW1211REMSYN023 333 85815 81923 84358;MET008NEW RERAEQDQ01+000000PRSWM2
0140601010999991997010212304+35733-005900FM-15+0021GMTT V0202001N01131004501CN0080001N1+01001+00901999999ADDAG10999GA1071+004509999GA2021+006909099GA3071+024009999GF107991999999999999999999MA1100911999999REMMET013NEW TEMPO RA;EQDQ01+000000PRSWM2
0138601010999991997010214004+35733-005900FM-15+0021GMTT V0202001N00621004501CN0060001N1+01001+00901999999ADDAG10999GA1021+001809999GA2071+004509999GA3021+006909099GA4071+024009999GF107991999999999999999999MA1100611999999MW1801REMMET008NEW NSG;
0203601010999991997010215004+35733-005900SY-MT+0021GMTT V0202001N00931004801CN0070001N1+01021+00901100581ADDAG10001AY181031AY281031GA1021+001809999GA2071+004809999GA3021+006909099GA4071+024009999GF108991071091002501999999MA1100611999999MD1710321+9999MW1251MW2801REMSYN023 333 83706 85815 83923;MET008NEW NSG;
0138601010999991997010216004+35733-005900FM-15+0021GMTT V0202201N01031004801CN0050001N1+01201+01101999999ADDAG10999GA1021+001809999GA2071+004809999GA3021+006909099GA4071+024009999GF107991999999999999999999MA1100411999999MW1631REMMET008NEW NSG;
0135601010999991997010217004+35733-005900FM-16+0021GMTT V0202201N00931004801CN0050001N1+99999+99999999999ADDAG10999GA1021+001809999GA2071+004809999GA3021+006909099GA4071+024009999GF107991999999999999999999MW1631REMMET020NEW 1 12/11 Q1004 NS
0263601010999991997010218004+35733-005900SY-MT+0021GMTT V0202401N01031004801CN0050001N1+01131+01071100281ADDAA106999999AA299036091AG10004AY191061AY261061GA1021+001809999GA2071+004809999GA3021+006909099GA4071+024009999GF108991071091002501071999KA1120M+01231MA1100411999999MD1710311+9999MW1631REMSYN035 333 10123 83706 85816 83923 85458;MET008NEW NSG;EQDQ01  00002PRCP06
0146601010999991997010218304+35733-005900FM-15+0021GMTT V0202401N01031004501CN0050001N1+01101+01101999999ADDAG10999GA1021+001809999GA2071+004509999GA3021+006909099GA4071+024009999GF107991999999999999999999MA1100201999999MW1631OC101541REMMET008NEW NSG;
0151601010999991997010219304+35733-005900FM-15+0021GMTT V0202401N00931004801CN0060001N1+01101+01101999999ADDAG10999GA1021+001809999GA2071+004809999GA3021+006909099GA4081+024009999GF108991999999999999999999MA1100201999999REMMET008NEW RERAEQDQ01+000000PRSWM2
0209601010999991997010221004+35733-005900SY-MT+0021GMTT V0203201N00931004801CN0050001N1+01071+00931100321ADDAG10003AY181031AY261031GA1021+002409999GA2071+004809999GA3021+006909099GA4071+024009999GF108991061091002501071999MA1100311999999MD1310041+9999MW1631MW2801REMSYN029 333 83808 85815 83923 85458;MET008NEW NSG;
0130601010999991997010221304+35733-005900FM-15+0021GMTT V0203201N01031004501CN0050001N1+01101+00901999999ADDAG10999GA1021+002409999GA2071+004509999GA3021+006909099GA4071+024009999GF107991999999999999999999MW1631REMMET015NEW Q100 3 NSG;
0151601010999991997010222304+35733-005900FM-15+0021GMTT V0202801N00621004501CN0060001N1+01101+00901999999ADDAG10999GA1021+002409999GA2071+004509999GA3021+006909099GA4071+024009999GF107991999999999999999999MA1100311999999REMMET008NEW RERAEQDQ01+000000PRSWM2
0182601010999991997010300004+35733-005900SY-MT+0021GMTT V0202801N00721004501CN0060001N1+01021+00811100431ADDAA106020091AG10001AY181061AY261061GA1021+002409999GA2071+004509999GA3071+024009999GF108991051021002501071999MA1100411999999MD1310111+9999MW1211REMMET008NEW RERAEQDQ01+000000PRSWM2
0140601010999991997010300304+35733-005900FM-15+0021GMTT V0203001N00821004501CN0060001N1+01001+00801999999ADDAG10999GA1021+002409999GA2071+004509999GA3071+024009999GF107991999999999999999999MA1100411999999REMMET013NEW TEMPO RA;EQDQ01+000000PRSWM2
0124601010999991997010301304+35733-005900FM-15+0021GMTT V0203401N010310240019N0060001N1+01001+00801999999ADDAG10999GA1021+004509999GA2071+024009999GF107991999999999999999999MA1100411999999REMMET013NEW TEMPO RA;EQDQ01+000000PRSWM2
0167601010999991997010303004+35733-005900SY-MT+0021GMTT V0203201N00931036001CN0080001N1+01101+00741100591ADDAA106000091AG10000GA1021+004509999GA2021+024009999GF106991041021004501081001MA1100511999999MD1210161+9999REMSYN017 333 84815 84358;MET008NEW NSG;EQDQ01+000000PRSWM2
0125601010999991997010304004+35733-005900FM-15+0021GMTT V0203201N009310240019N0080001N1+01101+00701999999ADDAG10999GA1021+004509999GA2021+006909099GA3071+024009999GF107991999999999999999999MA1100611999999MW1801MW2951REMMET005NEW ;
0218601010999991997010306004+35733-005900SY-MT+0021GMTT V0203201N00931036001CN0080001N1+00951+00541100831ADDAA106000091AA224059091AG10002AY191061AY281061GA1021+004509999GF106991031091004501071001KA1120N+00901MD1210241+9999MW1011REMSYN029 333 20090 83815 81923 84458;MET032NEW FEXW023CB BKN080 11/08 Q1006EQDQ01+000000PRSWM2
0148601010999991997010307004+35733-005900FM-15+0021GMTT V0203201N00721004501CN0080001N1+00801+00601999999ADDAG10999GA1021+002409999GA2071+004509999GA3021+006909099GA4081+024009999GF108991999999999999999999MA1101021999999REMMET005NEW ;EQDQ01+000000PRSWM2
0148601010999991997010307304+35733-005900FM-15+0021GMTT V0203201N00821004501CN0080001N1+00801+00601999999ADDAG10999GA1021+002409999GA2071+004509999GA3021+006009099GA4081+024009999GF108991999999999999999999MA1101021999999REMMET005NEW ;EQDQ01+000000PRSWM2
0211601010999991997010309004+35733-005900SY-MT+0021GMTT V0203001N00821004801CN0100001N1+01041+00641101081ADDAA106000091AG10000GA1021+002409999GA2071+004809999GA3021+006009099GA4071+024009999GF108991061091004501071999MA1101021999999MD1710251+9999REMSYN029 333 83806 85816 83923 86458;MET008NEW NSG;EQDQ01+000000PRSWM2
0138601010999991997010309304+35733-005900FM-15+0021GMTT V0203001N00821004801CN0112651N1+01001+00601999999ADDAG10999GA1021+001809999GA2071+004809999GA3021+006909099GA4071+024009999GF107991999999999999999999MA1101021999999MW1631REMMET008NEW NSG;
0151601010999991997010310304+35733-005900FM-15+0021GMTT V0203201N01441004801CN0112651N1+01101+00701999999ADDAG10999GA1021+001809999GA2071+004809999GA3021+006909099GA4071+024009999GF107991999999999999999999MA1101081999999REMMET008NEW NSG;EQDQ01+000000PRSWM2
0206601010999991997010312004+35733-005900SY-MT+0021GMTT V0202801N01341002101CN0100001N1+01211+00601101281ADDAA106003091AG10001AY181061AY221061GA1021+001809999GF107991051091002501071999MD1210201+9999MW1251REMSYN029 333 82806 85816 82923 85458;MET044NEW S BKN016 FEW023CB BKN080 11/07 Q1012 NSGEQDQ01+000000PRSWM2
0148601010999991997010312304+35733-005900FM-15+0021GMTT V0202801N01341004801CN0112651N1+01201+00601999999ADDAG10999GA1021+001809999GA2071+004809999GA3021+006909099GA4071+024009999GF107991999999999999999999MA1101191999999REMMET005NEW ;EQDQ01+000000PRSWM2
0164601010999991997010314004+35733-005900FM-15+0021GMTT V0203201N01231220001CN0112651N1+01201+00701999999ADDAG10999GA1021+003009999GA2071+004809999GA3021+006909099MA1101191999999OC101751REMMET039NEW RERA//////////////////////////////;EQDQ01+000022SCOTCVQ02+000000PRSWM2
0208601010999991997010315004+35733-005900SY-MT+0021GMTT V0202801N01131006901CN0080001N1+00921+00601101281ADDAG10001AY181031AY221031GA1021+003009999GA2021+004809999GA3021+006909099GF107991071091004501999999MA1101191999999MD1510001+9999MW1251OC102161REMSYN023 333 83810 84616 83923;MET008NEW RERAEQDQ01+000000PRSWM2
0135601010999991997010315304+35733-005900FM-15+0021GMTT V0202801N01341220001CN0080001N1+00901+00601999999ADDAG10999GA1021+003009999GA2021+004809999GA3021+006909099GF104991999999999999999999MA1101191999999REMMET008NEW NSG;EQDQ01+000000PRSWM2
0135601010999991997010316304+35733-005900FM-15+0021GMTT V0202801N01341220001CN0080001N1+01301+00601999999ADDAG10999GA1021+003009999GA2021+004809999GA3021+006909099GF104991999999999999999999MA1101191999999REMMET008NEW NSG/EQDQ01+000000PRSWM2
0241601010999991997010318004+35733-005900SY-MT+0021GMTT V0203001N01231006901CN0080001N1+01151+00581101381ADDAA106000091AA299005091AG10001AY181061AY221061GA1021+003009999GA2021+004809999GA3021+006909099GF107991071091004501999999KA1120M+01291MA1101291999999MD1310101+9999MW1281REMSYN029 333 10129 84810 84616 83923;MET008NEW NSG;EQDQ01+000000PRSWM2
0135601010999991997010318304+35733-005900FM-15+0021GMTT V0203001N01031220001CN0080001N1+01201+00601999999ADDAG10999GA1021+003009999GA2021+004809999GA3021+006909099GF104991999999999999999999MA1101291999999REMMET008NEW NSG;EQDQ01+000000PRSWM2
0135601010999991997010319304+35733-005900FM-15+0021GMTT V0202601N00511220001CN0080001N1+01101+00601999999ADDAG10999GA1021+003009999GA2021+004809999GA3021+006909099GF104991999999999999999999MA1101391999999REMMET008NEW RERAEQDQ01+000000PRSWM2
0187601010999991997010321004+35733-005900SY-MT+0021GMTT V0203201N01031004801CN0080001N1+01061+00561101581ADDAG10001AY181031AY221031GA1021+002409999GA2071+004809999GA3021+006909099GF107991071091002501999999MA1101491999999MD1310201+9999MW1251MW2801REMSYN023 333 83808 86616 83923;MET008NEW NS G
0125601010999991997010321304+35733-005900FM-15+0021GMTT V0203201N01031220001CN0080001N1+01101+00601999999ADDAG10999GA1021+002409999GA2071+004809999GA3021+006909099MA1101491999999REMMET008NEW NSG;EQDQ01+000042SCOTCVQ02+000000PRSWM2
0125601010999991997010322304+35733-005900FM-15+0021GMTT V0203001N00821220001CN0112651N1+01101+00601999999ADDAG10999GA1021+002409999GA2071+004809999GA3021+006909099MA1101591999999REMMET008NEW NSG;EQDQ01+000042SCOTCVQ02+000000PRSWM2
0224601010999991997010400004+35733-005900SY-MT+0021GMTT V0203201N01031004801CN0080001N1+01201+00561101641ADDAA106003091AG10000AY121061AY281061GA1021+002409999GA2071+004809999GA3021+006909099GF199999061091002501001001MA1101591999999MD1110061+9999MW1251REMSYN023 333 82708 85816 82923;MET005NEW ;EQDQ01+000062SCOTCVQ02+000000PRSWM2
0122601010999991997010400304+35733-005900FM-15+0021GMTT V0203001N00931220001CN0080001N1+01201+00601999999ADDAG10999GA1021+002409999GA2071+004809999GA3021+006909099MA1101591999999REMMET005NEW ;EQDQ01+000022SCOTCVQ02+000000PRSWM2
0125601010999991997010401304+35733-005900FM-15+0021GMTT V0203201N00821220001CN0080001N1+01101+00401999999ADDAG10999GA1021+002409999GA2071+004809999GA3021+006909099MA1101591999999REMMET008NEW NSG;EQDQ01+000022SCOTCVQ02+000000PRSWM2
0194601010999991997010403004+35733-005900SY-MT+0021GMTT V0203201N00931220001CN0100001N1+01061+00421101681ADDAG10000AY111031AY281031GA1021+002409999GA2021+004809999GA3021+006909099GF104991041081004501001001MA1101591999999MD1310041+9999MW1011REMSYN017 333 82813 83616;MET008NEW NSG;EQDQ01+000000PRSWM2
0119601010999991997010403304+35733-005900FM-15+0021GMTT V0203401N00671220001CN0112651N1+01101+00401999999ADDAG10999GA1021+003909999GA2021+004809999GF104991999999999999999999MA1101591999999REMMET008NEW NSG;EQDQ01+000000PRSWM2
0119601010999991997010404304+35733-005900FM-15+0021GMTT V0203201N00621220001CN0112651N1+01001+00401999999ADDAG10999GA1021+003909999GA2021+004809999GF104991999999999999999999MA1101591999999REMMET008NEW NSG;EQDQ01+000000PRSWM2
0219601010999991997010406004+35733-005900SY-MT+0021GMTT V0203401N00621004201CN0100001N1+01121+00751101641ADDAA106000091AA224008091AG10000AY111061AY281061GA1021+003909999GA2021+004809999GF105991051021004501001001KA1120N+01041MA1101591999999MD1110021+9999MW1021REMSYN023 333 20104 82813 84816;MET008NEW NSG;EQDQ01+000000PRSWM2
0119601010999991997010406304+35733-005900FM-15+0021GMTT V0203201N00621220001CN0112651N1+01101+00801999999ADDAG10999GA1021+003909999GA2021+004809999GF104991999999999999999999MA1101591999999REMMET008NEW NSG;EQDQ01+000000PRSWM2
0111601010999991997010407304+35733-005900FM-16+0021GMTT V0203001N00411220001CN0112651N1+99999+99999999999ADDAG10999GA1021+999999999GF102991999999999999999999REMMET031NEW 013 SCT016 11/08 Q1016 NSG;EQDQ01+000000PRSWM2
0135601010999991997010408004+35733-005900FM-15+0021GMTT V0202001N004610300019N0112651N1+00901+00701999999ADDAG10999GA1021+003909999GA2021+004809999GA3071+030009999GF107991999999999999999999MA1101691999999REMMET008NEW NSG;EQDQ01+000000PRSWM2
0194601010999991997010409004+35733-005900SY-MT+0021GMTT V0202001N00571004801CN0100001N1+00991+00781101721ADDAG10001AY181031AY221031GA1021+003909999GA2071+004809999GA3071+030009999GF108991081081004501999999MA1101691999999MD1110081+9999MW1031REMSYN017 333 84813 87616;MET008NEW NSG;EQDQ01+000000PRSWM2
0119601010999991997010409304+35733-005900FM-15+0021GMTT V0202001N006210048019N0112651N1+01001+00801999999ADDAG10999GA1021+003909999GA2071+004809999GF107991999999999999999999MA1101691999999REMMET008NEW RERAEQDQ01+000000PRSWM2
0119601010999991997010411004+35733-005900FM-15+0021GMTT V0202201N008710048019N0112651N1+01101+00801999999ADDAG10999GA1021+003909999GA2071+004809999GF107991999999999999999999MA1101691999999REMMET008NEW NSG;EQDQ01+000000PRSWM2
0195601010999991997010412004+35733-005900SY-MT+0021GMTT V0202001N00621004801CN0100001N1+01201+00911101751ADDAA106001091AG10001AY181061AY221061GA1021+003909999GA2071+004809999GF108991051081004501031999MA1101691999999MD1110031+9999MW1031REMSYN023 333 83813 85616 85358;MET008NEW NSG;EQDQ01+000000PRSWM2
0135601010999991997010412304+35733-005900FM-15+0021GMTT V0202001N00621004801CN0112651N1+01201+00901999999ADDAG10999GA1021+003909999GA2071+004809999GA3071+024009999GF107991999999999999999999MA1101691999999REMMET008NEW NSG;EQDQ01+000000PRSWM2
0135601010999991997010413304+35733-005900FM-15+0021GMTT V0202001N00721004801CN0112651N1+01201+00801999999ADDAG10999GA1021+003909999GA2071+004809999GA3071+024009999GF107991999999999999999999MA1101591999999REMMET008NEW NSG;EQDQ01+000000PRSWM2
0183601010999991997010415004+35733-005900SY-MT+0021GMTT V0202001N00721004801CN0100001N1+01281+00891101511ADDAA106000091AG10000GA1071+004809999GA2071+027009999GF199999041021004501031001MA1101491999999MD1710241+9999REMSYN017 333 84816 85358;MET008NEW NSG;EQDQ01+000062SCOTCVQ02+000000PRSWM2
0119601010999991997010416004+35733-005900FM-15+0021GMTT V0202001N00721004801CN0112651N1+01301+00901999999ADDAG10999GA1071+004809999GA2071+024009999GF107991999999999999999999MA1101391999999REMMET008NEW NSG;EQDQ01+000000PRSWM2
0119601010999991997010416304+35733-005900FM-15+0021GMTT V0202001N00721004801CN0112651N1+01301+00901999999ADDAG10999GA1071+004809999GA2071+024009999GF107991999999999999999999MA1101391999999REMMET008NEW NSG;EQDQ01+000000PRSWM2
0235601010999991997010418004+35733-005900SY-MT+0021GMTT V0202001N00771004801CN0100001N1+01151+00891101401ADDAA106999999AA299001091AG10001AY161061AY261061GA1071+004809999GA2071+024009999GF108991051021004501071999KA1120M+01371MA1101391999999MD1710111+9999MW1211REMSYN023 333 10137 85816 86458;MET008NEW RERAEQDQ01+000000PRSWM2Q02  00002PRCP06
0105601010999991997010418304+35733-005900FM-15+0021GMTT V0202001N007710048019N0112651N1+99999+99999999999ADDAG10999GA1071+004809999GF107991999999999999999999REMMET025NEW 080 12/09 Q1014 RERA;EQDQ01+000000PRSWM2
0119601010999991997010420004+35733-005900FM-15+0021GMTT V0201801N00621004801CN0112651N1+01201+00901999999ADDAG10999GA1071+004809999GA2071+024009999GF107991999999999999999999MA1101291999999REMMET008NEW RERAEQDQ01+000000PRSWM2
0162601010999991997010421004+35733-005900SY-MT+0021GMTT V0201801N00621004801CN0080001N1+01241+00751101301ADDAG10000GA1071+004809999GA2071+024009999GF108991051021004501071999MA1101291999999MD1610101+9999MW1001REMSYN017 333 85916 87359;MET008NEW NSG;EQDQ01+000000PRSWM2
0119601010999991997010422004+35733-005900FM-15+0021GMTT V0201801N00621004801CN0080001N1+01201+00701999999ADDAG10999GA1071+004809999GA2071+027009999GF107991999999999999999999MA1101291999999REMMET008NEW RERAEQDQ01+000000PRSWM2
0135601010999991997010423004+35733-005900FM-15+0021GMTT V0201601N00621004501CN0080001N1+01201+00801999999ADDAG10999GA1021+003609999GA2071+004509999GA3071+027009999GF107991999999999999999999MA1101081999999REMMET008NEW RERAEQDQ01+000000PRSWM2
0211601010999991997010500004+35733-005900SY-MT+0021GMTT V0201601N00671004501CN0080001N1+01221+00731101121ADDAA106001091AG10001AY161061AY221061GA1021+003609999GA2071+004509999GA3071+027009999GF108991051021004501071999MA1101081999999MD1810181+9999MW1211REMSYN023 333 82712 85815 85359;MET008NEW RERAEQDQ01+000000PRSWM2
0135601010999991997010500304+35733-005900FM-15+0021GMTT V0201601N00511004501CN0080001N1+01201+00701999999ADDAG10999GA1021+003609999GA2071+004509999GA3071+027009999GF107991999999999999999999MA1101081999999REMMET008NEW NSG;EQDQ01+000000PRSWM2
0135601010999991997010501304+35733-005900FM-15+0021GMTT V0201801N00671004501CN0080001N1+01201+00801999999ADDAG10999GA1021+003609999GA2071+004509999GA3071+027009999GF107991999999999999999999MA1101021999999REMMET008NEW NSG;EQDQ01+000000PRSWM2
0200601010999991997010503004+35733-005900SY-MT+0021GMTT V0201801N00931004501CN0080001N1+01201+00691100901ADDAG10001AY161031AY221031GA1021+003609999GA2071+004509999GA3071+027009999GF108991051021004501071999MA1101021999999MD1710221+9999MW1211REMSYN023 333 82712 85816 85359;MET008NEW RERAEQDQ01+000000PRSWM2
0135601010999991997010503304+35733-005900FM-15+0021GMTT V0201601N00931004501CN0080001N1+01201+00701999999ADDAG10999GA1021+003909999GA2071+004509999GA3071+027009999GF107991999999999999999999MA1100911999999REMMET008NEW NSG;EQDQ01+000000PRSWM2
0138601010999991997010505004+35733-005900FM-15+0021GMTT V0202201N01131004501CN0060001N1+01201+00801999999ADDAG10999GA1021+003009999GA2071+004509999GA3021+006909099GA4071+027009999GF107991999999999999999999MA1100711999999MW1801REMMET008NEW NSG;
0275601010999991997010506004+35733-005900SY-MT+0021GMTT V0201801N01131004501CN0060001N1+01141+00971100701ADDAA106999999AA224008091AG10003AY191061AY281061GA1021+003009999GA2071+004509999GA3021+006909099GA4071+027009999GF108991061091004501071999KA1120N+01041MA1100711999999MD1810201+9999MW1171MW2801MW3951REMSYN035 333 20104 82710 85815 83923 87359;MET008NEW NSG;EQDQ01  00002PRCP06
0146601010999991997010506304+35733-005900FM-15+0021GMTT V0201801N01131004501CN0060001N1+01101+01001999999ADDAG10999GA1021+003009999GA2071+004509999GA3021+006909099GA4071+027009999GF107991999999999999999999MA1100711999999MW1801OC101751REMMET008NEW RETS
0151601010999991997010508004+35733-005900FM-15+0021GMTT V0202001N01131004801CN0080001N1+01101+01001999999ADDAG10999GA1021+003009999GA2071+004809999GA3021+006909099GA4071+027009999GF107991999999999999999999MA1100611999999REMMET008NEW RERAEQDQ01+000000PRSWM2
0187601010999991997010509004+35733-005900SY-MT+0021GMTT V0201801N01231004801CN0060001N1+01221+00991100661ADDAG10001AY181031AY221031GA1021+003009999GA2071+004809999GA3021+006909099GF107991071091004501999999MA1100611999999MD1810031+9999MW1251MW2801REMSYN023 333 83710 85816 82923;MET008NEW NSG;
0115601010999991997010510004+35733-005900FM-15+0021GMTT V0202601N01031220001CN0060001N1+01201+01001999999ADDAG10999GA1021+003009999GA2071+004809999GA3021+006909099MA1100611999999MW1171REMMET008NEW RERAEQDQ01+000022SCOTCV
0125601010999991997010510304+35733-005900FM-15+0021GMTT V0202801N00931220001CN0080001N1+01201+01001999999ADDAG10999GA1021+003009999GA2071+004809999GA3021+006909099MA1100611999999REMMET008NEW NSG;EQDQ01+000022SCOTCVQ02+000000PRSWM2
0221601010999991997010512004+35733-005900SY-MT+0021GMTT V0202801N01131004801CN0080001N1+01381+00911100841ADDAA106004091AG10002AY191061AY281061GA1021+003009999GA2071+004809999GA3021+006909099GF199999061091004501001001MA1100611999999MD1310181+9999MW1011REMSYN017 333 85816 92923;MET008NEW NSG;EQDQ01+000062SCOTCVQ02+000000PRSWM2
0109601010999991997010512304+35733-005900FM-15+0021GMTT V0202601N01131220001CN0080001N1+01401+00901999999ADDAG10999GA1071+004809999GA2021+006909099MA1100811999999REMMET008NEW NSG;EQDQ01+000022SCOTCVQ02+000000PRSWM2
0109601010999991997010513304+35733-005900FM-15+0021GMTT V0202801N01231220001CN0080001N1+01401+00801999999ADDAG10999GA1071+004809999GA2021+006909099MA1100811999999REMMET008NEW NSG;EQDQ01+000022SCOTCVQ02+000000PRSWM2
0161601010999991997010515004+35733-005900SY-MT+0021GMTT V0203001N01231004801CN0100001N1+01321+00731100911ADDAA106000091AG10000GA1071+004809999GA2021+006909099GF107991071021004501999999MA1100811999999MD1110071+9999REMSYN011 333 87816;MET008NEW NSG;EQDQ01+000000PRSWM2
0103601010999991997010515304+35733-005900FM-15+0021GMTT V0203001N012310048019N0112651N1+01301+00701999999ADDAG10999GA1071+004809999GF107991999999999999999999MA1100911999999REMMET008NEW NSG;EQDQ01+000000PRSWM2
0103601010999991997010516304+35733-005900FM-15+0021GMTT V0202801N012310048019N0112651N1+01301+00701999999ADDAG10999GA1071+004809999GF107991999999999999999999MA1100911999999REMMET008NEW NSG;EQDQ01+000000PRSWM2
0175601010999991997010518004+35733-005900SY-MT+0021GMTT V0203001N01231004801CN0100001N1+01201+00611101121ADDAA106000091AA299004091AG10000GA1071+004809999GF107991071021004501999999KA1120M+01451MA1101021999999MD1310211+9999REMSYN017 333 10145 87816;MET008NEW NSG;EQDQ01+000000PRSWM2
0103601010999991997010518304+35733-005900FM-15+0021GMTT V0203001N011310048019N0112651N1+01201+00601999999ADDAG10999GA1071+004809999GF107991999999999999999999MA1101081999999REMMET008NEW NSG;EQDQ01+000000PRSWM2
0103601010999991997010519304+35733-005900FM-15+0021GMTT V0202801N010310048019N0112651N1+01201+00701999999ADDAG10999GA1071+004809999GF107991999999999999999999MA1101081999999REMMET008NEW NSG;EQDQ01+000000PRSWM2
0161601010999991997010521004+35733-005900SY-MT+0021GMTT V0203201N00821220001CN0100001N1+01081+00571101361ADDAA106000091AG10000GA1071+004809999GF199999041021004501001001MA1101191999999MD1210241+9999REMSYN011 333 84816;MET008NEW NSG;EQDQ01+000042SCOTCVQ02+000000PRSWM2
0103601010999991997010521304+35733-005900FM-15+0021GMTT V0203201N008210048019N0112651N1+01101+00601999999ADDAG10999GA1071+004809999GF107991999999999999999999MA1101291999999REMMET008NEW NSG;EQDQ01+000000PRSWM2
0103601010999991997010522304+35733-005900FM-15+0021GMTT V0203201N008210048019N0112651N1+01101+00601999999ADDAG10999GA1071+004809999GF107991999999999999999999MA1101291999999REMMET008NEW NSG;EQDQ01+000000PRSWM2
0161601010999991997010600004+35733-005900SY-MT+0021GMTT V0203201N00511220001CN0100001N1+00921+00431101471ADDAA106000091AG10000GA1071+004809999GF199999041021004501001001MA1101391999999MD1210111+9999REMSYN011 333 84816;MET008NEW NSG;EQDQ01+000042SCOTCVQ02+000000PRSWM2
0103601010999991997010600304+35733-005900FM-15+0021GMTT V0203201N005110048019N0112651N1+00901+00401999999ADDAG10999GA1071+004809999GF107991999999999999999999MA1101391999999REMMET008NEW NSG;EQDQ01+000000PRSWM2
0103601010999991997010602004+35733-005900FM-15+0021GMTT V0201601N00151220001CN0112651N1+00801+00601999999ADDAG10999GA1021+004809999GF104991999999999999999999MA1101391999999REMMET008NEW NSG;EQDQ01+000000PRSWM2
0145601010999991997010603004+35733-005900SY-MT+0021GMTT V0201601N00151004201CN0100001N1+00841+00511101391ADDAA106000091AG10000GA1021+004809999GF106991061021004501001001MA1101391999999MD1810081+9999REMSYN011 333 86816;MET008NEW NSG;EQDQ01+000000PRSWM2
0103601010999991997010603304+35733-005900FM-15+0021GMTT V0201601N00151220001CN0112651N1+00801+00601999999ADDAG10999GA1021+004809999GF104991999999999999999999MA1101291999999REMMET008NEW NSG;EQDQ01+000000PRSWM2
0103601010999991997010604304+35733-005900FM-15+0021GMTT V0202001N001510048019N0060001N1+00901+00501999999ADDAG10999GA1071+004809999GF107991999999999999999999MA1101291999999REMMET008NEW NSG;EQDQ01+000000PRSWM2
0191601010999991997010606004+35733-005900SY-MT+0021GMTT V0202001N00511004801CN0100001N1+00981+00641101281ADDAA106000091AA224004091AG10000GA1071+004809999GF199999061021004501001001KA1120N+00681MA1101291999999MD1810111+9999REMSYN017 333 20068 86816;MET008NEW NSG;EQDQ01+000062SCOTCVQ02+000000PRSWM2
0103601010999991997010607004+35733-005900FM-15+0021GMTT V0202001N005110048019N0112651N1+01001+00601999999ADDAG10999GA1071+004809999GF107991999999999999999999MA1101191999999REMMET008NEW RERAEQDQ01+000000PRSWM2
0106601010999991997010608004+35733-005900FM-15+0021GMTT V0202001N007210048019N0080001N1+01101+00701999999ADDAG10999GA1021+003309999GA2071+004809999GF107991999999999999999999MA1101191999999MW1801REMMET008NEW NSG;
0178601010999991997010609004+35733-005900SY-MT+0021GMTT V0201801N00821004801CN0060001N1+01051+00851101241ADDAG10001AY181031AY221031GA1021+003309999GA2071+004809999GF108991081021004501999999MA1101191999999MD1810041+9999MW1251REMSYN017 333 83811 87816;MET008NEW RERAEQDQ01+000000PRSWM2
0115601010999991997010610004+35733-005900FM-15+0021GMTT V0200801N00821220001CN0050001N1+01001+00801999999ADDAG10999GA1021+003309999GA2071+004809999GA3021+006909099MA1101291999999MW1811REMMET008NEW NSG;EQDQ01+000022SCOTCV
0115601010999991997010610304+35733-005900FM-15+0021GMTT V0200801N00621220001CN0050001N1+01001+00801999999ADDAG10999GA1021+003309999GA2071+004809999GA3021+006909099MA1101291999999MW1801REMMET008NEW NS GEQDQ01+000022SCOTCV
0211601010999991997010612004+35733-005900SY-MT+0021GMTT V0201001N00511004801CN0070001N1+00951+00851101361ADDAA106014091AG10001AY181061AY221061GA1021+003309999GA2071+004809999GA3021+006909099GF107991071091004501999999MA1101291999999MD1010121+9999MW1251REMSYN023 333 82811 86816 81923;MET008NEW RERAEQDQ01+000000PRSWM2
0112601010999991997010612304+35733-005900FM-15+0021GMTT V0201201N00511220001CN0070001N1+01001+00901999999ADDAG10999GA1021+003309999GA2071+004809999GA3021+006909099MA1101291999999MW1801REMMET005NEW ;EQDQ01+000022SCOTCV
0125601010999991997010613304+35733-005900FM-15+0021GMTT V0201401N00621220001CN0800001N1+01001+00901999999ADDAG10999GA1021+003309999GA2071+004809999GA3021+006909099MA1101291999999REMMET008NEW NSG;EQDQ01+000022SCOTCVQ02+000000PRSWM2
0183601010999991997010615004+35733-005900SY-MT+0021GMTT V0201001N00621004801CN0100001N1+01131+00811101321ADDAA106000091AG10000GA1071+004809999GA2021+009909999GF199999061021004501001001MA1101191999999MD1510041+9999REMSYN017 333 82811 85816;MET008NEW NSG;EQDQ01+000062SCOTCVQ02+000000PRSWM2
0119601010999991997010615304+35733-005900FM-15+0021GMTT V0201001N005110048019N0112651N1+01101+00801999999ADDAG10999GA1021+003309999GA2071+004809999GF107991999999999999999999MA1101291999999REMMET008NEW NSG;EQDQ01+000000PRSWM2
0119601010999991997010616304+35733-005900FM-15+0021GMTT V0201401N00621220001CN0112651N1+01101+00701999999ADDAG10999GA1021+003309999GA2021+004809999GF104991999999999999999999MA1101291999999REMMET008NEW NSG;EQDQ01+000000PRSWM2
0191601010999991997010618004+35733-005900SY-MT+0021GMTT V0201001N00211220001CN0100001N1+01001+00791101421ADDAA106000091AA299014091AG10000GA1021+003309999GA2021+004809999GF103991031021004501001001KA1120M+01451MA1101291999999MD1210101+9999REMSYN017 333 10145 83816;MET008NEW NSG;EQDQ01+000000PRSWM2
0103601010999991997010618304+35733-005900FM-15+0021GMTT V0201001N00211220001CN0112651N1+01001+00801999999ADDAG10999GA1021+004809999GF104991999999999999999999MA1101391999999REMMET008NEW NSG;EQDQ01+000000PRSWM2
0103601010999991997010620004+35733-005900FM-15+0021GMTT V0209991C00001220001CN0112651N1+00901+00701999999ADDAG10999GA1021+004809999GF104991999999999999999999MA1101491999999REMMET008NEW NSG;EQDQ01+000000PRSWM2
0145601010999991997010621004+35733-005900SY-MT+0021GMTT V0200801N00211220001CN0100001N1+00891+00741101541ADDAA106000091AG10000GA1021+004809999GF104991041021004501001001MA1101491999999MD1110121+9999REMSYN011 333 84816;MET008NEW NSG;EQDQ01+000000PRSWM2
0103601010999991997010621304+35733-005900FM-15+0021GMTT V0201201N00151220001CN0112651N1+00901+00701999999ADDAG10999GA1021+004809999GF104991999999999999999999MA1101491999999REMMET008NEW NSG;EQDQ01+000000PRSWM2
0103601010999991997010622304+35733-005900FM-15+0021GMTT V0201201N00261220001CN0112651N1+00901+00701999999ADDAG10999GA1021+004809999GF104991999999999999999999MA1101491999999REMMET008NEW NSG;EQDQ01+000000PRSWM2
0151601010999991997010700004+35733-005900SY-MT+0021GMTT V0201001N00261009001CN0080001N1+00901+00801101621ADDAA106000091AG10000GA1021+004809999GF107991071081004501999999MA1101491999999MD1210081+9999REMSYN017 333 83813 86816;MET008NEW NSG;EQDQ01+000000PRSWM2
0119601010999991997010700304+35733-005900FM-15+0021GMTT V0209991C000010048019N0080001N1+00901+00801999999ADDAG10999GA1021+003909999GA2071+004809999GF107991999999999999999999MA1101591999999REMMET008NEW NSG;EQDQ01+000000PRSWM2
0119601010999991997010701304+35733-005900FM-15+0021GMTT V0201201N002110048019N0080001N1+00901+00801999999ADDAG10999GA1021+003909999GA2071+004809999GF107991999999999999999999MA1101691999999REMMET008NEW NSG;EQDQ01+000000PRSWM2
0167601010999991997010703004+35733-005900SY-MT+0021GMTT V0209991C00001004801CN0080001N1+00881+00821101681ADDAA106000091AG10000GA1021+003909999GA2071+004809999GF107991071081004501999999MA1101691999999MD1610021+9999REMSYN017 333 83813 86816;MET008NEW NSG;EQDQ01+000000PRSWM2
0119601010999991997010704004+35733-005900FM-15+0021GMTT V0209991C000010048019N0080001N1+00901+00801999999ADDAG10999GA1021+003909999GA2071+004809999GF107991999999999999999999MA1101591999999REMMET008NEW NSG;EQDQ01+000000PRSWM2
0119601010999991997010704304+35733-005900FM-15+0021GMTT V0209991C000010048019N0080001N1+00901+00801999999ADDAG10999GA1021+003909999GA2071+004809999GF107991999999999999999999MA1101591999999REMMET008NEW NSG;EQDQ01+000000PRSWM2
0197601010999991997010706004+35733-005900SY-MT+0021GMTT V0201201N00211004801CN0080001N1+01031+00901101461ADDAA106000091AA224014091AG10000GA1021+003909999GA2071+004809999GF107991071081004501999999KA1120N+00921MA1101491999999MD1810221+9999REMSYN023 333 20092 83813 86816;MET008NEW NSG;EQDQ01+000000PRSWM2
0119601010999991997010706304+35733-005900FM-15+0021GMTT V0201001N002110048019N0080001N1+01001+00901999999ADDAG10999GA1021+003909999GA2071+004809999GF107991999999999999999999MA1101391999999REMMET008NEW NSG;EQDQ01+000000PRSWM2
0119601010999991997010708004+35733-005900FM-15+0021GMTT V0202001N006210048019N0080001N1+01301+01101999999ADDAG10999GA1021+003009999GA2071+004809999GF107991999999999999999999MA1101391999999REMMET008NEW RERAEQDQ01+000000PRSWM2
0184601010999991997010709004+35733-005900SY-MT+0021GMTT V0202001N00721004801CN0070001N1+01301+01191101461ADDAG10001AY161031AY261031GA1021+003009999GA2071+004809999GF108991081021002501999999MA1101391999999MD1510001+9999MW1611REMSYN023 333 83708 83810 86816;MET008NEW NSG;EQDQ01+000000PRSWM2
0129601010999991997010710004+35733-005900FM-15+0021GMTT V0202001N007210048019N0070001N1+01301+01201999999ADDAG10999GA1021+002409999GA2021+003009999GA3071+004809999GF107991999999999999999999REMMET017NEW S Q1015 RERA;EQDQ01+000000PRSWM2
0135601010999991997010710304+35733-005900FM-15+0021GMTT V0202001N007210048019N0070001N1+01301+01201999999ADDAG10999GA1021+002409999GA2021+003009999GA3071+004809999GF107991999999999999999999MA1101491999999REMMET008NEW NSG;EQDQ01+000000PRSWM2
0192601010999991997010712004+35733-005900SY-MT+0021GMTT V0202001N00721004801CN0070001N1+01381+01311101551ADDAA106004091AG10001AY161061AY261061GA1021+002409999GA2021+003009999GA3071+004809999GF108991081021002501999999MA1101491999999MD1010091+9999MW1611REMSYN023 333 83708 83810 86816;MET008NEW NSG;
0135601010999991997010712304+35733-005900FM-15+0021GMTT V0202001N007210048019N0070001N1+01401+01301999999ADDAG10999GA1021+003009999GA2021+003609999GA3071+004809999GF107991999999999999999999MA1101491999999REMMET008NEW RERAEQDQ01+000000PRSWM2
0135601010999991997010714004+35733-005900FM-15+0021GMTT V0202001N005110045019N0070001N1+01401+01301999999ADDAG10999GA1021+002409999GA2021+003909999GA3071+004509999GF107991999999999999999999MA1101391999999REMMET008NEW RERAEQDQ01+000000PRSWM2
0210601010999991997010715004+35733-005900SY-MT+0021GMTT V0202201N00931004501CN0100001N1+01641+01281101381ADDAG10000AY121031AY261031GA1021+002409999GA2021+003909999GA3071+004509999GF199999051081004501081001MA1101391999999MD1810171+9999MW1031REMSYN017 333 83813 84816;MET008NEW NSG;EQDQ01+000062SCOTCVQ02+000000PRSWM2
0119601010999991997010715304+35733-005900FM-15+0021GMTT V0202201N01031220001CN0080001N1+01601+01301999999ADDAG10999GA1021+003909999GA2021+004809999GF104991999999999999999999MA1101291999999REMMET008NEW NSG;EQDQ01+000000PRSWM2
0119601010999991997010717004+35733-005900FM-15+0021GMTT V0202201N00411220001CN0112651N1+01601+01201999999ADDAG10999GA1021+003909999GA2021+004809999GF104991999999999999999999MA1101291999999REMMET008NEW NSG;EQDQ01+000000PRSWM2
0219601010999991997010718004+35733-005900SY-MT+0021GMTT V0202001N00821009001CN0100001N1+01501+01131101421ADDAA106000091AA299004091AG10001AY161061AY261061GA1021+003909999GA2021+004809999GF107991051081004501081999KA1120M+01651MA1101291999999MD1310041+9999MW1021REMSYN023 333 10165 83813 84816;MET008NEW NSG;EQDQ01+000000PRSWM2
0119601010999991997010719004+35733-005900FM-15+0021GMTT V0202001N00621220001CN0112651N1+01501+01101999999ADDAG10999GA1021+003909999GA2021+004809999GF104991999999999999999999MA1101391999999REMMET008NEW NSG;EQDQ01+000000PRSWM2
0135601010999991997010719304+35733-005900FM-15+0021GMTT V0202001N008210240019N0112651N1+01501+01101999999ADDAG10999GA1021+003909999GA2021+004809999GA3071+024009999GF107991999999999999999999MA1101391999999REMMET008NEW NSG;EQDQ01+000000PRSWM2
0183601010999991997010721004+35733-005900SY-MT+0021GMTT V0202001N00821024001CN0100001N1+01501+01031101421ADDAA106000091AG10000GA1021+003909999GA2021+004809999GA3071+024009999GF107991051021004501031999MA1101391999999MD1410001+9999REMSYN017 333 85816 84359;MET008NEW NSG;EQDQ01+000000PRSWM2
0109601010999991997010721304+35733-005900FM-15+0021GMTT V0202001N00821220001CN0112651N1+01501+01001999999ADDAG10999GA1071+004809999GA2021+027009999MA1101391999999REMMET008NEW NSG;EQDQ01+000042SCOTCVQ02+000000PRSWM2
0109601010999991997010722304+35733-005900FM-15+0021GMTT V0202001N00931220001CN0112651N1+01501+01001999999ADDAG10999GA1071+004809999GA2021+027009999MA1101291999999REMMET008NEW NSG;EQDQ01+000042SCOTCVQ02+000000PRSWM2
0151601010999991997010800004+35733-005900SY-MT+0021GMTT V0202001N01031004201CN0100001N1+01541+01091101231ADDAA106000091AG10000GA1021+027009999GF107991051021004501031999MA1101191999999MD1710191+9999REMSYN017 333 85816 83359;MET008NEW NSG;EQDQ01+000000PRSWM2
0109601010999991997010800304+35733-005900FM-15+0021GMTT V0202001N01031220001CN0112651N1+01501+01101999999ADDAG10999GA1071+004809999GA2021+027009999MA1101191999999REMMET008NEW NSG;EQDQ01+000042SCOTCVQ02+000000PRSWM2
0109601010999991997010801304+35733-005900FM-15+0021GMTT V0202001N01031220001CN0112651N1+01501+01101999999ADDAG10999GA1071+004809999GA2021+027009999MA1101081999999REMMET008NEW NSG;EQDQ01+000042SCOTCVQ02+000000PRSWM2
0189601010999991997010803004+35733-005900SY-MT+0021GMTT V0202001N01231004801CN0080001N1+01441+01161100941ADDAG10002AY121031AY221031GA1021+003009999GA2071+004809999GA3071+024009999GF108991051021004501071999MA1100911999999MD1810291+9999MW1631OC101851REMSYN023 333 82710 85816 87458;MET008NEW NSG;
0130601010999991997010803304+35733-005900FM-15+0021GMTT V0202001N01231004801CN0080001N1+01401+01201999999ADDAG10999GA1021+003009999GA2071+004809999GA3081+024009999GF108991999999999999999999MA1100911999999MW1631OC101801REMMET008NEW NSG;
0130601010999991997010804304+35733-005900FM-15+0021GMTT V0202201N01031004801CN0080001N1+01401+01201999999ADDAG10999GA1021+003009999GA2071+004809999GA3071+024009999GF107991999999999999999999MA1101081999999MW1631OC101541REMMET008NEW NSG;
0247601010999991997010806004+35733-005900SY-MT+0021GMTT V0202001N00511024001CN0060001N1+01151+01051101061ADDAA106999999AA224023091AG10003AY161061AY261061GA1021+003009999GA2021+003909999GA3081+024009999GF108991051021004501071999KA1120N+01151MA1101081999999MD1110121+9999MW1621MW2631REMSYN029 333 20115 82710 85813 87458;MET008NEW NSG;EQDQ01  00002PRCP06
0122601010999991997010807004+35733-005900FM-15+0021GMTT V0202001N00621003901CN0070001N1+01201+01101999999ADDAG10999GA1021+003009999GA2071+003909999GA3071+024009999GF107991999999999999999999MA1101021999999MW1611REMMET008NEW NSG;
0135601010999991997010808004+35733-005900FM-15+0021GMTT V0202001N00511004801CN0070001N1+01201+01101999999ADDAG10999GA1021+003009999GA2071+004809999GA3071+024009999GF107991999999999999999999MA1101081999999REMMET008NEW RERAEQDQ01+000000PRSWM2
0210601010999991997010809004+35733-005900SY-MT+0021GMTT V0202601N00411004801CN0080001N1+01361+01251101231ADDAG10001AY161031AY261031GA1021+003009999GA2071+004809999GA3071+024009999GF199999051081004501071001MA1101081999999MD1210171+9999MW1211REMSYN017 333 83813 84816;MET008NEW RERAEQDQ01+000062SCOTCVQ02+000000PRSWM2
0119601010999991997010809304+35733-005900FM-15+0021GMTT V0202801N00411220001CN0112651N1+01401+01301999999ADDAG10999GA1021+003909999GA2021+004809999GF104991999999999999999999MA1101191999999REMMET008NEW NSG;EQDQ01+000000PRSWM2
0119601010999991997010810304+35733-005900FM-15+0021GMTT V0202801N00721220001CN0112651N1+01501+01201999999ADDAG10999GA1021+004509999GA2021+024009999GF104991999999999999999999MA1101291999999REMMET008NEW NSG;EQDQ01+000000PRSWM2
0167601010999991997010812004+35733-005900SY-MT+0021GMTT V0202801N00721220001CN0100001N1+01661+01111101401ADDAA106002091AG10000AY121061AY261061GA1021+004509999GF104991031021004501081001MA1101291999999MD1210171+9999MW1021REMSYN011 333 83815;MET008NEW 3 NSEQDQ01+000000PRSWM2
0103601010999991997010812304+35733-005900FM-15+0021GMTT V0203001N008210048019N0112651N1+01701+01101999999ADDAG10999GA1071+004809999GF107991999999999999999999MA1101391999999REMMET008NEW NSG;EQDQ01+000000PRSWM2
0119601010999991997010814004+35733-005900FM-15+0021GMTT V0202801N00931220001CN0112651N1+01701+01101999999ADDAG10999GA1021+004809999GA2021+060009999GF104991999999999999999999MA1101291999999REMMET008NEW NSG;EQDQ01+000000PRSWM2
0183601010999991997010815004+35733-005900SY-MT+0021GMTT V0202801N00721220001CN0150001N1+01651+01201101381ADDAA106000091AG10000GA1071+004809999GA2021+060009999GF199999031021008001001021MA1101291999999MD1610021+9999REMSYN017 333 83816 83070;MET008NEW NSG;EQDQ01+000042SCOTCVQ02+000000PRSWM2
0119601010999991997010815304+35733-005900FM-15+0021GMTT V0202801N00821220001CN0112651N1+01701+01201999999ADDAG10999GA1021+004809999GA2021+060009999GF104991999999999999999999MA1101291999999REMMET008NEW NSG;EQDQ01+000000PRSWM2
0119601010999991997010816304+35733-005900FM-15+0021GMTT V0202601N00821220001CN0112651N1+01701+01101999999ADDAG10999GA1021+004809999GA2021+060009999GF104991999999999999999999MA1101391999999REMMET008NEW NSG;EQDQ01+000000PRSWM2
0197601010999991997010818004+35733-005900SY-MT+0021GMTT V0202601N00821220001CN0150001N1+01521+00901101551ADDAA106000091AA299002091AG10000GA1021+004809999GA2021+060009999GF104991031021008001001021KA1120M+01751MA1101391999999MD1110171+9999REMSYN023 333 10175 83816 83070;MET008NEW NSG;EQDQ01+000000PRSWM2
0119601010999991997010818304+35733-005900FM-15+0021GMTT V0202401N00721220001CN0112651N1+01501+00901999999ADDAG10999GA1021+004809999GA2021+030009999GF104991999999999999999999MA1101491999999REMMET008NEW NSG;EQDQ01+000000PRSWM2
0119601010999991997010819304+35733-005900FM-15+0021GMTT V0202401N00821220001CN0112651N1+01501+00901999999ADDAG10999GA1021+004809999GA2021+030009999GF104991999999999999999999MA1101491999999REMMET008NEW NSG;EQDQ01+000000PRSWM2
0167601010999991997010821004+35733-005900SY-MT+0021GMTT V0202001N00771090001CN0100001N1+01461+00961101711ADDAA106000091AG10000GA1021+004809999GA2021+030009999GF105991031021004501001021MA1101491999999MD1310161+9999REMSYN017 333 83816 83070;MET008NEW NSG;EQDQ01+000000PRSWM2
0103601010999991997010821304+35733-005900FM-15+0021GMTT V0202201N00931220001CN0112651N1+01501+01001999999ADDAG10999GA1021+004509999GF104991999999999999999999MA1101691999999REMMET008NEW NSG;EQDQ01+000000PRSWM2
0103601010999991997010822304+35733-005900FM-15+0021GMTT V0202001N00821220001CN0112651N1+01501+00901999999ADDAG10999GA1021+004809999GF104991999999999999999999MA1101691999999REMMET008NEW NSG;EQDQ01+000000PRSWM2
0161601010999991997010900004+35733-005900SY-MT+0021GMTT V0202401N00771004801CN0100001N1+01531+01071101801ADDAA106000091AG10000GA1071+004809999GF199999051021004501001001MA1101801999999MD1210091+9999REMSYN011 333 85816;MET008NEW NSG;EQDQ01+000052SCOTCVQ02+000000PRSWM2
0103601010999991997010901004+35733-005900FM-15+0021GMTT V0202401N009310048019N0112651N1+01501+01101999999ADDAG10999GA1071+004809999GF107991999999999999999999MA1101801999999REMMET008NEW NSG;EQDQ01+000000PRSWM2
0103601010999991997010901304+35733-005900FM-15+0021GMTT V0202401N008210048019N0112651N1+01501+01101999999ADDAG10999GA1071+004809999GF107991999999999999999999MA1101801999999REMMET008NEW NSG;EQDQ01+000000PRSWM2
0145601010999991997010903004+35733-005900SY-MT+0021GMTT V0202601N00931220001CN0100001N1+01461+01081101701ADDAA106000091AG10000GA1021+004809999GF103991031021004501001001MA1101691999999MD1810101+9999REMSYN011 333 83816;MET008NEW NSG;EQDQ01+000000PRSWM2
0103601010999991997010903304+35733-005900FM-15+0021GMTT V0202601N01031220001CN0112651N1+01501+01001999999ADDAG10999GA1021+004809999GF104991999999999999999999MA1101691999999REMMET008NEW NSG;EQDQ01+000000PRSWM2
0119601010999991997010904304+35733-005900FM-15+0021GMTT V0202201N010310048019N0080001N1+01501+01101999999ADDAG10999GA1021+003909999GA2071+004809999GF107991999999999999999999MA1101801999999REMMET008NEW RERAEQDQ01+000000PRSWM2
0213601010999991997010906004+35733-005900SY-MT+0021GMTT V0202401N00931220001CN0100001N1+01481+01151101761ADDAA106000091AA224002091AG10001AY181061AY281061GA1021+003909999GA2021+004809999GF104991041021004501001001KA1120N+01401MA1101691999999MD1710071+9999MW1011REMSYN017 333 20140 84816;MET008NEW NSG;EQDQ01+000000PRSWM2
0103601010999991997010906304+35733-005900FM-15+0021GMTT V0202401N00931220001CN0112651N1+01501+01201999999ADDAG10999GA1021+004809999GF104991999999999999999999MA1101691999999REMMET008NEW NSG;EQDQ01+000000PRSWM2
0096601010999991997010907304+35733-005900FM-15+0021GMTT V0202401N00931004801CN0060001N1+01401+01201999999ADDAG10999GA1071+004809999GA2071+024009999GF107991999999999999999999MW1631REMMET013NEW 1018 NSG;
0162601010999991997010909004+35733-005900SY-MT+0021GMTT V0202601N00981007801CN0100001N1+01551+01281101911ADDAG10000GA1021+003909999GA2071+007809999GF107991071081004501999999MA1101901999999MD1210151+9999MW1001REMSYN017 333 83813 87626;MET008NEW NSG;EQDQ01+000000PRSWM2
0119601010999991997010910004+35733-005900FM-15+0021GMTT V0202601N00981220001CN0112651N1+01601+01301999999ADDAG10999GA1021+003909999GA2021+007809999GF104991999999999999999999MA1101901999999REMMET008NEW NOSIEQDQ01+000000PRSWM2
0119601010999991997010911004+35733-005900FM-15+0021GMTT V0202601N00981220001CN0112651N1+01601+01301999999ADDAG10999GA1021+003909999GA2021+007809999GF104991999999999999999999MA1101901999999REMMET008NEW NOSIEQDQ01+000000PRSWM2
0189601010999991997010912004+35733-005900SY-MT+0021GMTT V0202601N00981007801CN0060001N1+01651+01391101921ADDAA106999929AG10001AY161061AY261061GA1021+003909999GA2071+007809999GF107991071081004501999999MA1101901999999MD1010011+9999MW1031REMSYN017 333 83813 87626;MET008NEW NOSIEQDQ01+000000PRSWM2
0122601010999991997010914004+35733-005900FM-15+0021GMTT V0202801N01031006001CN0060001N1+01701+01401999999ADDAG10999GA1021+003009999GA2071+006009999GA3071+027009999GF107991999999999999999999MA1101801999999MW1811REMMET008NEW NSG;
0187601010999991997010915004+35733-005900SY-MT+0021GMTT V0202601N00931006901CN0030001N1+01521+01401101831ADDAG10003AY161031AY221031GA1021+001209999GA2021+003909999GA3071+006909999GF108991081081004501999999MA1101801999999MD1610091+9999MW1611MW2631REMSYN023 333 83704 84813 86623;MET008NEW NSG;
0122601010999991997010915304+35733-005900FM-15+0021GMTT V0202601N009310069019N0040001N1+01501+01401999999ADDAG10999GA1021+001209999GA2021+003909999GA3071+006909999GF107991999999999999999999MA1101801999999MW1611REMMET008NEW NSG;
0122601010999991997010916304+35733-005900FM-15+0021GMTT V0202401N010310069019N0040001N1+01501+01401999999ADDAG10999GA1021+001209999GA2021+003909999GA3071+006909999GF107991999999999999999999MA1101801999999MW1611REMMET008NEW NSG;
0252601010999991997010918004+35733-005900SY-MT+0021GMTT V0202401N00821024001CN0050001N1+01601+01521101881ADDAA106999999AA299006091AG10001AY161061AY221061GA1021+003009999GA2021+004809999GA3071+024009999GF108991081081002501999999KA1120M+01681MA1101691999999MD1310051+9999MW1211MW2611OC101591REMSYN029 333 10168 83708 84813 86620;MET005NEW ;EQDQ01  00002PRCP06
0135601010999991997010918304+35733-005900FM-15+0021GMTT V0202401N008210060019N0050001N1+01601+01501999999ADDAG10999GA1021+002409999GA2021+003909999GA3071+006009999GF107991999999999999999999MA1101801999999REMMET008NEW NSG;EQDQ01+000000PRSWM2
0135601010999991997010919304+35733-005900FM-15+0021GMTT V0202401N006210060019N0060001N1+01601+01501999999ADDAG10999GA1021+003009999GA2021+003909999GA3071+006009999GF107991999999999999999999MA1101801999999REMMET008NEW NSG;EQDQ01+000000PRSWM2
0183601010999991997010921004+35733-005900SY-MT+0021GMTT V0202801N00511006001CN0080001N1+01621+01501101981ADDAA106000091AG10000GA1021+003909999GA2071+006009999GF199999061081004501001001MA1101801999999MD1210101+9999REMSYN017 333 84813 85620;MET008NEW NSG;EQDQ01+000062SCOTCVQ02+000000PRSWM2
0119601010999991997010921304+35733-005900FM-15+0021GMTT V0202801N004110060019N0080001N1+01601+01501999999ADDAG10999GA1021+003909999GA2071+006009999GF107991999999999999999999MA1101901999999REMMET008NEW NSG;EQDQ01+000000PRSWM2
0119601010999991997010922304+35733-005900FM-15+0021GMTT V0202801N004110060019N0080001N1+01601+01501999999ADDAG10999GA1021+003909999GA2071+006009999GF107991999999999999999999MA1102001999999REMMET008NEW NSG;EQDQ01+000000PRSWM2
0183601010999991997011000004+35733-005900SY-MT+0021GMTT V0203001N00411220001CN0080001N1+01571+01481102071ADDAA106000091AG10000GA1021+003909999GA2071+006009999GF199999041081004501001001MA1102001999999MD1110091+9999REMSYN017 333 82813 83620;MET008NEW NSG;EQDQ01+000042SCOTCVQ02+000000PRSWM2
0119601010999991997011000304+35733-005900FM-15+0021GMTT V0202801N00311220001CN0080001N1+01601+01501999999ADDAG10999GA1021+003909999GA2021+006009999GF104991999999999999999999MA1102001999999REMMET008NEW NSG;EQDQ01+000000PRSWM2
0103601010999991997011002004+35733-005900FM-15+0021GMTT V0202801N00151220001CN0112651N1+01601+01501999999ADDAG10999GA1021+006009999GF104991999999999999999999MA1102001999999REMMET008NEW NSG;EQDQ01+000000PRSWM2
0145601010999991997011003004+35733-005900SY-MT+0021GMTT V0202801N00211004201CN0100001N1+01461+01351102121ADDAA106000091AG10000GA1021+006009999GF105991051021004501001001MA1102001999999MD1310051+9999REMSYN011 333 85816;MET008NEW NSG;EQDQ01+000000PRSWM2
0103601010999991997011003304+35733-005900FM-15+0021GMTT V0202601N002110048019N0112651N1+01501+01401999999ADDAG10999GA1071+004809999GF107991999999999999999999MA1102101999999REMMET008NEW NSG;EQDQ01+000000PRSWM2
0103601010999991997011004304+35733-005900FM-15+0021GMTT V0202601N002110048019N0112651N1+01501+01401999999ADDAG10999GA1071+004809999GF107991999999999999999999MA1102101999999REMMET008NEW NSG;EQDQ01+000000PRSWM2
0191601010999991997011006004+35733-005900SY-MT+0021GMTT V0202601N00101004801CN0100001N1+01241+01171102111ADDAA106000091AA224006091AG10000GA1071+004809999GF199999051021004501001001KA1120N+01221MA1102101999999MD1110011+9999REMSYN017 333 20122 85816;MET008NEW NSG;EQDQ01+000052SCOTCVQ02+000000PRSWM2
0103601010999991997011006304+35733-005900FM-15+0021GMTT V0202601N001010048019N0112651N1+01201+01201999999ADDAG10999GA1071+004809999GF107991999999999999999999MA1102101999999REMMET008NEW NSG;EQDQ01+000000PRSWM2
0103601010999991997011007304+35733-005900FM-15+0021GMTT V0202401N002110048019N0112651N1+01201+01201999999ADDAG10999GA1071+004809999GF107991999999999999999999MA1102101999999REMMET008NEW NSG;EQDQ01+000000PRSWM2
0167601010999991997011009004+35733-005900SY-MT+0021GMTT V0203401N00101004801CN0050001N1+01351+01261102261ADDAA106000091AG10000GA1071+004809999GF199999051021002501001021MA1102101999999MD1110151+9999REMSYN017 333 82708 84816;MET008NEW NSG;EQDQ01+000062SCOTCVQ02+000000PRSWM2
0119601010999991997011009304+35733-005900FM-15+0021GMTT V0202601N00411220001CN0070001N1+01401+01301999999ADDAG10999GA1021+002409999GA2021+004809999GF104991999999999999999999MA1102201999999REMMET008NEW NSG;EQDQ01+000000PRSWM2
0119601010999991997011010304+35733-005900FM-15+0021GMTT V0202401N00411220001CN0070001N1+01501+01401999999ADDAG10999GA1021+002409999GA2021+004809999GF104991999999999999999999MA1102201999999REMMET008NEW NSG;EQDQ01+000000PRSWM2
0183601010999991997011012004+35733-005900SY-MT+0021GMTT V0202401N00511004801CN0080001N1+01681+01461102341ADDAA106000091AG10000GA1021+003009999GA2071+004809999GF199999051021004501001021MA1102301999999MD1010081+9999REMSYN017 333 82710 85816;MET008NEW NSG;EQDQ01+000062SCOTCVQ02+000000PRSWM2
0119601010999991997011013004+35733-005900FM-15+0021GMTT V0202601N006210048019N0080001N1+01801+01401999999ADDAG10999GA1021+003009999GA2071+004809999GF107991999999999999999999MA1102201999999REMMET008NEW NSG;EQDQ01+000000PRSWM2
0119601010999991997011013304+35733-005900FM-15+0021GMTT V0202601N005110048019N0080001N1+01701+01401999999ADDAG10999GA1021+003009999GA2071+004809999GF107991999999999999999999MA1102201999999REMMET008NEW NSG;EQDQ01+000000PRSWM2
0189601010999991997011015004+35733-005900SY-MT+0021GMTT V0202801N00511004801CN0080001N1+01671+01411102181ADDAA106000091AG10000GA1021+003009999GA2021+004509999GA3071+004809999GF108991081081004501999999MA1102101999999MD1710161+9999REMSYN023 333 82710 84615 85816;MET008NEW NSG;EQDQ01+000000PRSWM2
0135601010999991997011015304+35733-005900FM-15+0021GMTT V0202801N005110048019N0080001N1+01701+01401999999ADDAG10999GA1021+003009999GA2021+004509999GA3071+004809999GF107991999999999999999999MA1102101999999REMMET008NEW NSG;EQDQ01+000000PRSWM2
0135601010999991997011017004+35733-005900FM-15+0021GMTT V0202601N002610300019N0080001N1+01601+01401999999ADDAG10999GA1021+003009999GA2021+003909999GA3071+030009999GF107991999999999999999999MA1102201999999REMMET008NEW NSG;EQDQ01+000000PRSWM2
0189601010999991997011018004+35733-005900SY-MT+0021GMTT V0202601N00261030001CN0080001N1+01601+01461102261ADDAA106000091AG10000GA1021+003009999GA2021+004809999GA3071+030009999GF107991051021004501071999MA1102201999999MD1210081+9999REMSYN023 333 82710 84816 85360;MET008NEW NSG;EQDQ01+000000PRSWM2
0135601010999991997011019004+35733-005900FM-15+0021GMTT V0202601N001510300019N0080001N1+01601+01501999999ADDAG10999GA1021+003009999GA2021+004809999GA3071+030009999GF107991999999999999999999MA1102201999999REMMET008NEW NSG;EQDQ01+000000PRSWM2
0135601010999991997011019304+35733-005900FM-15+0021GMTT V0202601N001510300019N0080001N1+01601+01501999999ADDAG10999GA1021+003009999GA2021+004809999GA3071+030009999GF107991999999999999999999MA1102201999999REMMET008NEW NSG;EQDQ01+000000PRSWM2
0193601010999991997011021004+35733-005900SY-MT+0021GMTT V0202401N00311030001CN0080001N1+01551+01431102321ADDAA106000091AG10000GA1021+003009999GA2021+004809999GA3071+030009999GF199999061021004501001001MA1102201999999MD1110061+9999REMSYN011 333 86816;MET008NEW NSG;EQDQ01+000062SCOTCVQ02+000000PRSWM2
0103601010999991997011021304+35733-005900FM-15+0021GMTT V0202401N003110048019N0080001N1+01601+01401999999ADDAG10999GA1071+004809999GF107991999999999999999999MA1102301999999REMMET008NEW NSG;EQDQ01+000000PRSWM2
0103601010999991997011022304+35733-005900FM-15+0021GMTT V0202601N002110048019N0080001N1+01601+01401999999ADDAG10999GA1071+004809999GF107991999999999999999999MA1102301999999REMMET008NEW NSG;EQDQ01+000000PRSWM2
0161601010999991997011100004+35733-005900SY-MT+0021GMTT V0203201N00311004801CN0080001N1+01481+01391102261ADDAA106000091AG10000GA1071+004809999GF199999061021004501001001MA1102301999999MD1810061+9999REMSYN011 333 86816;MET008NEW NSG;EQDQ01+000062SCOTCVQ02+000000PRSWM2
0103601010999991997011100304+35733-005900FM-15+0021GMTT V0203201N003110048019N0080001N1+01501+01401999999ADDAG10999GA1071+004809999GF107991999999999999999999MA1102201999999REMMET008NEW NSG;EQDQ01+000000PRSWM2
0103601010999991997011101304+35733-005900FM-15+0021GMTT V0203201N003110048019N0080001N1+01501+01401999999ADDAG10999GA1071+004809999GF107991999999999999999999MA1102201999999REMMET008NEW NSG;EQDQ01+000000PRSWM2
0161601010999991997011103004+35733-005900SY-MT+0021GMTT V0203201N00211004801CN0080001N1+01481+01371102181ADDAA106000091AG10000GA1071+004809999GF199999061021004501001001MA1102201999999MD1810091+9999REMSYN011 333 86816;MET008NEW NSG;EQDQ01+000062SCOTCVQ02+000000PRSWM2
0103601010999991997011103304+35733-005900FM-15+0021GMTT V0203201N002110048019N0080001N1+01401+01301999999ADDAG10999GA1071+004809999GF107991999999999999999999MA1102101999999REMMET008NEW NSG;EQDQ01+000000PRSWM2
0103601010999991997011104304+35733-005900FM-15+0021GMTT V0201601N002110048019N0080001N1+01401+01301999999ADDAG10999GA1071+004809999GF107991999999999999999999MA1102101999999REMMET008NEW NSG;EQDQ01+000000PRSWM2
0164601010999991997011106004+35733-005900SY-MT+0021GMTT V0202601N00101220001CN0050001N1+01301+01251102031ADDAA106000091AG10000GA1021+003009999GF104991041061004501001001KA1120N+01181MA1102001999999MD1610081+9999REMSYN017 333 20118 84710;MET008NEW NSG;EQDQ01+000000PRSWM2
0119601010999991997011107004+35733-005900FM-15+0021GMTT V0201601N002110048019N0050001N1+01301+01301999999ADDAG10999GA1021+003009999GA2071+004809999GF107991999999999999999999MA1102001999999REMMET008NEW NSG;EQDQ01+000000PRSWM2
0119601010999991997011108004+35733-005900FM-15+0021GMTT V0201201N002110048019N0050001N1+01301+01301999999ADDAG10999GA1021+003009999GA2071+004809999GF107991999999999999999999MA1102001999999REMMET008NEW NSG;EQDQ01+000000PRSWM2
0183601010999991997011109004+35733-005900SY-MT+0021GMTT V0209991C00001004801CN0050001N1+01421+01331102031ADDAA106000091AG10000GA1021+003009999GA2071+004809999GF199999051021004501001001MA1102001999999MD1510001+9999REMSYN017 333 84710 84816;MET008NEW NSG+EQDQ01+000052SCOTCVQ02+000000PRSWM2
0119601010999991997011109304+35733-005900FM-15+0021GMTT V0209991C00001220001CN0050001N1+01401+01301999999ADDAG10999GA1021+003009999GA2021+004809999GF104991999999999999999999MA1102001999999REMMET008NEW NSG;EQDQ01+000000PRSWM2
0119601010999991997011110304+35733-005900FM-15+0021GMTT V0201401N00151220001CN0080001N1+01601+01401999999ADDAG10999GA1021+003009999GA2021+004809999GF104991999999999999999999MA1102001999999REMMET008NEW NSG;EQDQ01+000000PRSWM2
0118601010999991997011112004+35733-005900SY-MT+0021GMTT V0201201N00411220001CN0100001N1+01791+01471101961ADDAA106000091AG10000GF100991001001999999001001MA1101901999999MD1810071+9999REMMET014NEW CAVOK NSG;EQDQ01+000000PRSWM2
0067601010999991997011112304+35733-005900FM-15+0021GMTT V0201001N00411999991CY0099001N1+01801+01501999999ADDAG10999MA1101901999999REMMET014NEW CAVOK NSG;EQDQ01+000000PRSWM2
0067601010999991997011113304+35733-005900FM-15+0021GMTT V0201001N00511999991CY0099001N1+01801+01601999999ADDAG10999MA1101801999999REMMET014NEW CAVOK NSG;EQDQ01+000000PRSWM2
0118601010999991997011115004+35733-005900SY-MT+0021GMTT V0201001N00511220001CN0100001N1+02051+01391101731ADDAA106000091AG10000GF100991001001999999001001MA1101691999999MD1810221+9999REMMET014NEW CAVOK NSG;EQDQ01+000000PRSWM2
0113601010999991997011116004+35733-005900SY-MT+0021GMTT V0201001N00511220001CN0099001N1+02051+01391101731ADDAG10999GF100991001001999999001001MA1101691999999MD1810221+9999MW1001REMMET014NEW CAVOK NSG;EQDQ01+000000PRSWM2
0067601010999991997011116304+35733-005900FM-15+0021GMTT V0201401N00511999991CY0099001N1+02101+01301999999ADDAG10999MA1101691999999REMMET014NEW CAVOK NSG;EQDQ01+000000PRSWM2
0148601010999991997011118004+35733-005900SY-MT+0021GMTT V0201401N00511220001CN0100001N1+01781+01231101431ADDAA106000091AG10000GF100991001001999999001001KA1999M+02141MA1101691999999MD1310051+9999REMSYN011 333 10214;MET014NEW CAVOK NSG;EQDQ01+000000PRSWM2
0067601010999991997011118304+35733-005900FM-15+0021GMTT V0201401N00461999991CY0099001N1+01801+01201999999ADDAG10999MA1101691999999REMMET014NEW CAVOK NSG;EQDQ01+000000PRSWM2
0067601010999991997011119304+35733-005900FM-15+0021GMTT V0201401N00461999991CY0099001N1+01701+01301999999ADDAG10999MA1101691999999REMMET014NEW CAVOK NSG;EQDQ01+000000PRSWM2
0118601010999991997011121004+35733-005900SY-MT+0021GMTT V0201401N00511220001CN0100001N1+01581+01311101711ADDAA106000091AG10000GF100991001001999999001001MA1101691999999MD1810021+9999REMMET014NEW CAVOK NSG;EQDQ01+000000PRSWM2
0067601010999991997011121304+35733-005900FM-15+0021GMTT V0201401N00511999991CY0099001N1+01601+01301999999ADDAG10999MA1101691999999REMMET014NEW CAVOK NSG;EQDQ01+000000PRSWM2
0067601010999991997011122304+35733-005900FM-15+0021GMTT V0201401N00511999991CY0099001N1+01501+01201999999ADDAG10999MA1101691999999REMMET014NEW CAVOK NSG;EQDQ01+000000PRSWM2
0118601010999991997011200004+35733-005900SY-MT+0021GMTT V0201201N00721220001CN0100001N1+01501+01111101711ADDAA106000091AG10000GF100991001001999999001001MA1101691999999MD1510041+9999REMMET014NEW CAVOK NSG;EQDQ01+000000PRSWM2
0067601010999991997011200304+35733-005900FM-15+0021GMTT V0201201N00771999991CY0099001N1+01501+01101999999ADDAG10999MA1101691999999REMMET014NEW CAVOK NSG;EQDQ01+000000PRSWM2
0067601010999991997011202004+35733-005900FM-15+0021GMTT V0201201N00821999991CY0099001N1+01501+01101999999ADDAG10999MA1101591999999REMMET014NEW CAVOK NSG;EQDQ01+000000PRSWM2
0118601010999991997011203004+35733-005900SY-MT+0021GMTT V0201201N00621220001CN0100001N1+01461+01151101701ADDAA106000091AG10000GF100991001001999999001001MA1101591999999MD1510011+9999REMMET014NEW CAVOK NSG;EQDQ01+000000PRSWM2
0067601010999991997011203304+35733-005900FM-15+0021GMTT V0201201N00821999991CY0099001N1+01501+01201999999ADDAG10999MA1101691999999REMMET014NEW CAVOK NSG;EQDQ01+000000PRSWM2
0067601010999991997011205004+35733-005900FM-15+0021GMTT V0201201N00771999991CY0099001N1+01401+01101999999ADDAG10999MA1101591999999REMMET014NEW CAVOK NSG;EQDQ01+000000PRSWM2
0148601010999991997011206004+35733-005900SY-MT+0021GMTT V0201201N00821220001CN0100001N1+01571+01001101591ADDAA106000091AG10000GF100991001001999999001001KA1999N+01101MA1101491999999MD1810081+9999REMSYN011 333 20110;MET014NEW CAVOK NSG;EQDQ01+000000PRSWM2
0067601010999991997011207004+35733-005900FM-15+0021GMTT V0201401N00621999991CY0099001N1+01601+01001999999ADDAG10999MA1101491999999REMMET014NEW CAVOK NSG;EQDQ01+000000PRSWM2
0067601010999991997011207304+35733-005900FM-15+0021GMTT V0201401N00771999991CY0099001N1+01601+01001999999ADDAG10999MA1101491999999REMMET014NEW CAVOK NSG;EQDQ01+000000PRSWM2
0135601010999991997011209004+35733-005900SY-MT+0021GMTT V0201201N01031220001CN0150001N1+01641+00881101641ADDAA106000091AG10000GF101991011021004501001001MA1101591999999MD1310051+9999REMSYN011 333 81816;MET014NEW CAVOK NSG;EQDQ01+000000PRSWM2
0103601010999991997011210004+35733-005900FM-15+0021GMTT V0201401N01081220001CN0112651N1+01801+01101999999ADDAG10999GA1021+004809999GF102991999999999999999999MA1101691999999REMMET008NEW NSG;EQDQ01+000000PRSWM2
0085601010999991997011211004+35733-005900FM-15+0021GMTT V0209991C00001999999CN9999999N9+99999+99999999999ADDAG10999REMMET031NEW 6KT 9999 FEW016 18/11 Q1017EQDQ01+000002VOVAR Q02+000000PRSWM2
0161601010999991997011212004+35733-005900SY-MT+0021GMTT V0201401N01131220001CN0150001N1+01941+01141101601ADDAA106000091AG10000GA1021+004809999GF199999011021004501001011MA1101691999999MD1010061+9999REMSYN011 333 81816;MET008NEW NSG;EQDQ01+000012SCOTCVQ02+000000PRSWM2
0111601010999991997011212304+35733-005900FM-15+0021GMTT V0201401N01131220001CN0112651N1+01901+01101999999ADDAG10999GA1021+004809999GF102991999999999999999999MA1101591999999OC101751REMMET008NEW NSG;EQDQ01+000000PRSWM2
0111601010999991997011213304+35733-005900FM-15+0021GMTT V0201401N01131220001CN0112651N1+01901+01101999999ADDAG10999GA1021+004809999GF102991999999999999999999MA1101491999999OC101651REMMET008NEW NSG;EQDQ01+000000PRSWM2
0111601010999991997011214304+35733-005900FM-15+0021GMTT V0201001N01131220001CN0112651N1+02001+01101999999ADDAG10000GA1021+004809999GF102991999999999999999999MA1101491999999OC101651REMMET008NEW NSG;EQDQ01+000000PRSWM2
0111601010999991997011215304+35733-005900FM-15+0021GMTT V0201001N01131220001CN0112651N1+02001+01101999999ADDAG10999GA1021+004809999GF102991999999999999999999MA1101491999999OC101651REMMET008NEW NSG;EQDQ01+000000PRSWM2
0111601010999991997011216304+35733-005900FM-15+0021GMTT V0201001N01131220001CN0112651N1+01901+01001999999ADDAG10999GA1021+004809999GF102991999999999999999999MA1101391999999OC101651REMMET008NEW NSG;EQDQ01+000000PRSWM2
0164601010999991997011218004+35733-005900SY-MT+0021GMTT V0201401N01131220001CN0150001N1+01551+00811101551ADDAA106000091AG10000GA1021+004809999GF102991011021004501001021KA1120M+02001MA1101391999999MD1310051+9999REMSYN017 333 10200 81816;MET008NEW NSG;EQDQ01+000000PRSWM2
0103601010999991997011218304+35733-005900FM-15+0021GMTT V0201401N01131220001CN0112651N1+01601+00801999999ADDAG10999GA1021+004809999GF102991999999999999999999MA1101491999999REMMET008NEW NSG;EQDQ01+000000PRSWM2
0103601010999991997011219304+35733-005900FM-15+0021GMTT V0201401N00931220001CN0112651N1+01501+00801999999ADDAG10999GA1021+004809999GF102991999999999999999999MA1101491999999REMMET008NEW NSG;EQDQ01+000000PRSWM2
0145601010999991997011221004+35733-005900SY-MT+0021GMTT V0201401N01131220001CN0150001N1+01411+00911101631ADDAA106000091AG10000GA1021+004809999GF102991011021004501001021MA1101591999999MD1210071+9999REMSYN011 333 81816;MET008NEW NSG;EQDQ01+000000PRSWM2
0103601010999991997011221304+35733-005900FM-15+0021GMTT V0201401N01131220001CN0112651N1+01401+00901999999ADDAG10999GA1021+004809999GF102991999999999999999999MA1101591999999REMMET008NEW NSG;EQDQ01+000000PRSWM2
0103601010999991997011222304+35733-005900FM-15+0021GMTT V0201401N01031220001CN0112651N1+01401+00801999999ADDAG10999GA1021+004809999GF102991999999999999999999MA1101591999999REMMET008NEW NSG;EQDQ01+000000PRSWM2
0118601010999991997011300004+35733-005900SY-MT+0021GMTT V0201201N01131220001CN0150001N1+01441+00941101601ADDAA106000091AG10000GF100991001001999999001001MA1101591999999MD1510031+9999REMMET014NEW CAVOK NSG;EQDQ01+000000PRSWM2
0067601010999991997011300304+35733-005900FM-15+0021GMTT V0201201N01131999991CY0099001N1+01401+00901999999ADDAG10999MA1101591999999REMMET014NEW CAVOK NSG;EQDQ01+000000PRSWM2
0067601010999991997011301304+35733-005900FM-15+0021GMTT V0201201N01231999991CY0099001N1+01401+00801999999ADDAG10999MA1101491999999REMMET014NEW CAVOK NSG;EQDQ01+000000PRSWM2
0067601010999991997011303004+35733-005900FM-15+0021GMTT V0201201N01181999991CY0099001N1+01401+00901999999ADDAG10000MA1101491999999REMMET014NEW CAVOK NSG;EQDQ01+000000PRSWM2
0067601010999991997011303304+35733-005900FM-15+0021GMTT V0201201N01181999991CY0099001N1+01401+00901999999ADDAG10999MA1101491999999REMMET014NEW CAVOK NSG;EQDQ01+000000PRSWM2
0067601010999991997011304304+35733-005900FM-15+0021GMTT V0201201N01181999991CY0099001N1+01401+00901999999ADDAG10999MA1101491999999REMMET014NEW CAVOK NSG;EQDQ01+000000PRSWM2
0148601010999991997011306004+35733-005900SY-MT+0021GMTT V0201401N01231220001CN0100001N1+01421+00821101461ADDAA106000091AG10000GF100991001001999999001001KA1999N+01361MA1101491999999MD1810091+9999REMSYN011 333 20136;MET014NEW CAVOK NSG;EQDQ01+000000PRSWM2
0067601010999991997011306304+35733-005900FM-15+0021GMTT V0201401N01231999991CY0099001N1+01401+00801999999ADDAG10999MA1101391999999REMMET014NEW CAVOK NSG;EQDQ01+000000PRSWM2
0127601010999991997011308004+35733-005900FM-15+0021GMTT V0201401N01231220001CN0112651N1+01401+00901999999ADDAG10999GA1021+004809999GA2021+060009999GF104991999999999999999999MA1101391999999OC101751REMMET008NEW NSG;EQDQ01+000000PRSWM2
0175601010999991997011309004+35733-005900SY-MT+0021GMTT V0201001N01231220001CN0150001N1+01451+00881101471ADDAA106000091AG10000GA1021+004809999GA2021+060009999GF103991011051004501001021MA1101391999999MD1310011+9999OC101751REMSYN017 333 81616 83070;MET008NEW NSG;EQDQ01+000000PRSWM2
0127601010999991997011309304+35733-005900FM-15+0021GMTT V0201001N01231220001CN0112651N1+01501+00901999999ADDAG10999GA1021+004809999GA2021+060009999GF104991999999999999999999MA1101391999999OC101751REMMET008NEW NSG;EQDQ01+000000PRSWM2
0127601010999991997011310304+35733-005900FM-15+0021GMTT V0201001N01231220001CN0112651N1+01501+00901999999ADDAG10999GA1021+004809999GA2021+006009999GF104991999999999999999999MA1101391999999OC101751REMMET008NEW NSG;EQDQ01+000000PRSWM2
0175601010999991997011312004+35733-005900SY-MT+0021GMTT V0201401N01541220001CN0150001N1+01581+00881101501ADDAA106000091AG10000GA1021+004809999GA2021+060009999GF103991011051004501001021MA1101391999999MD1310031+9999OC101851REMSYN017 333 81616 83070;MET008NEW NSG;EQDQ01+000000PRSWM2
0127601010999991997011312304+35733-005900FM-15+0021GMTT V0201001N01541220001CN0112651N1+01601+00901999999ADDAG10999GA1021+004809999GA2021+060009999GF104991999999999999999999MA1101491999999OC102261REMMET008NEW NSG;EQDQ01+000000PRSWM2
0127601010999991997011313304+35733-005900FM-15+0021GMTT V0201001N01541220001CN0112651N1+01601+00901999999ADDAG10999GA1021+004809999GA2021+060009999GF104991999999999999999999MA1101391999999OC102061REMMET008NEW NSG;EQDQ01+000000PRSWM2
0183601010999991997011315004+35733-005900SY-MT+0021GMTT V0201201N01341060001CN0150001N1+01671+00811101351ADDAA106000091AG10000GA1021+004809999GA2071+060009999GF199999011051004501001021MA1101391999999MD1810151+9999REMSYN017 333 81616 86070;MET008NEW NSG;EQDQ01+000062SCOTCVQ02+000000PRSWM2
0127601010999991997011315304+35733-005900FM-15+0021GMTT V0201201N012910600019N0112651N1+01701+00801999999ADDAG10999GA1021+004809999GA2071+060009999GF107991999999999999999999MA1101291999999OC101801REMMET008NEW NSG;EQDQ01+000000PRSWM2
0127601010999991997011316304+35733-005900FM-15+0021GMTT V0201001N013410600019N0112651N1+01601+00901999999ADDAG10999GA1021+004809999GA2071+060009999GF107991999999999999999999MA1101291999999OC101851REMMET008NEW NSG;EQDQ01+000000PRSWM2
0194601010999991997011318004+35733-005900SY-MT+0021GMTT V0201201N01291060001CN0150001N1+01401+00881101401ADDAA106000091AG10000GA1021+004809999GA2071+060009999GF107991021051004501001021KA1120M+01701MA1101391999999MD1110051+9999OC101801REMSYN023 333 10170 82516 86070;MET008NEW NSG;EQDQ01+000000PRSWM2
0127601010999991997011319004+35733-005900FM-15+0021GMTT V0201001N013410600019N0112651N1+01301+00901999999ADDAG10999GA1021+004809999GA2071+060009999GF107991999999999999999999MA1101391999999OC101851REMMET008NEW NSG;EQDQ01+000000PRSWM2
0127601010999991997011320004+35733-005900FM-15+0021GMTT V0201201N011810600019N0112651N1+01301+01001999999ADDAG10999GA1021+004809999GA2071+060009999GF107991999999999999999999MA1101391999999OC101751REMMET008NEW NSG;EQDQ01+000000PRSWM2
0175601010999991997011321004+35733-005900SY-MT+0021GMTT V0200801N01131060001CN0150001N1+01351+00811101511ADDAA106000091AG10000GA1021+004809999GA2071+060009999GF107991021051004501001021MA1101491999999MD1210111+9999OC101651REMSYN017 333 82616 86070;MET008NEW NSG;EQDQ01+000000PRSWM2
0127601010999991997011321304+35733-005900FM-15+0021GMTT V0200801N01131220001CN0112651N1+01401+00801999999ADDAG10999GA1021+004809999GA2021+060009999GF104991999999999999999999MA1101491999999OC101651REMMET008NEW NSG;EQDQ01+000000PRSWM2
0127601010999991997011322304+35733-005900FM-15+0021GMTT V0200801N01131220001CN0112651N1+01401+00801999999ADDAG10999GA1021+004809999GA2021+060009999GF104991999999999999999999MA1101491999999OC101651REMMET008NEW NSG;EQDQ01+000000PRSWM2
0175601010999991997011400004+35733-005900SY-MT+0021GMTT V0201401N01131060001CN0150001N1+01401+00891101471ADDAA106000091AG10000GA1021+004809999GA2071+060009999GF107991021051004501001021MA1101391999999MD1810041+9999OC101651REMSYN017 333 82616 86070;MET008NEW NSG;EQDQ01+000000PRSWM2
0127601010999991997011400304+35733-005900FM-15+0021GMTT V0201401N011310600019N0112651N1+01401+00901999999ADDAG10999GA1021+004809999GA2071+060009999GF107991999999999999999999MA1101391999999OC101651REMMET008NEW NSG;EQDQ01+000000PRSWM2
0127601010999991997011401304+35733-005900FM-15+0021GMTT V0201201N011310600019N0112651N1+01401+00901999999ADDAG10999GA1021+004809999GA2071+060009999GF107991999999999999999999MA1101391999999OC101651REMMET008NEW NSG;EQDQ01+000000PRSWM2
0175601010999991997011403004+35733-005900SY-MT+0021GMTT V0201201N01131060001CN0150001N1+01391+00901101421ADDAA106000091AG10000GA1021+004809999GA2071+060009999GF107991021051004501001021MA1101391999999MD1810051+9999OC101651REMSYN017 333 82616 86070;MET008NEW NSG;EQDQ01+000000PRSWM2
0127601010999991997011403304+35733-005900FM-15+0021GMTT V0201201N011310600019N0112651N1+01401+00901999999ADDAG10999GA1021+004809999GA2071+060009999GF107991999999999999999999MA1101391999999OC101651REMMET008NEW NSG;EQDQ01+000000PRSWM2
0127601010999991997011404304+35733-005900FM-15+0021GMTT V0201201N011310600019N0112651N1+01401+00901999999ADDAG10999GA1021+004809999GA2071+060009999GF107991999999999999999999MA1101391999999OC101651REMMET008NEW NSG;EQDQ01+000000PRSWM2
0226601010999991997011406004+35733-005900SY-MT+0021GMTT V0201401N01131220001CN0150001N1+01271+00951101281ADDAA106000091AG10000GA1021+004809999GA2071+060009999GF199999021051004501001021KA1120N+99999MA1101291999999MD1710141+9999OC101651REMSYN023 333 20137 82616 84070;MET008NEW NSG;EQDQ01+000042SCOTCVQ02+000000PRSWM2Q03 +01372ATMN  
0127601010999991997011406304+35733-005900FM-15+0021GMTT V0201401N01131220001CN0112651N1+01401+01001999999ADDAG10999GA1021+004809999GA2021+060009999GF104991999999999999999999MA1101191999999OC101651REMMET008NEW NSG;EQDQ01+000000PRSWM2
0127601010999991997011407304+35733-005900FM-15+0021GMTT V0201401N01131220001CN0112651N1+01401+01001999999ADDAG10999GA1021+004809999GA2021+060009999GF104991999999999999999999MA1101191999999OC101651REMMET008NEW NSG;EQDQ01+000000PRSWM2
0175601010999991997011409004+35733-005900SY-MT+0021GMTT V0201201N01231090001CN0150001N1+01431+01011101381ADDAA106000091AG10000GA1021+004809999GA2021+060009999GF107991021051004501001021MA1101291999999MD1310101+9999OC101751REMSYN017 333 82616 87070;MET008NEW NSG;EQDQ01+000000PRSWM2
0118601010999991997011410004+35733-005900FM-15+0021GMTT V0201401N010310600019N0112651N1+01501+01101999999ADDAG10999GA1021+004809999GA2071+060009999GF107991999999999999999999OC101651REMMET014NEW U27= ,,= ;EQDQ01+000000PRSWM2
0127601010999991997011410304+35733-005900FM-15+0021GMTT V0201401N012310600019N0112651N1+01501+01101999999ADDAG10999GA1021+004809999GA2071+060009999GF107991999999999999999999MA1101391999999OC101751REMMET008NEW NSG;EQDQ01+000000PRSWM2
0175601010999991997011412004+35733-005900SY-MT+0021GMTT V0201401N01291060001CN0150001N1+01611+01091101381ADDAA106000091AG10000GA1021+004809999GA2071+060009999GF107991021051004501031021MA1101391999999MD1010001+9999OC101801REMSYN017 333 82616 871/7;MET008NEW NSG;EQDQ01+000000PRSWM2
0143601010999991997011413004+35733-005900FM-15+0021GMTT V0201401N010310600019N0112651N1+01601+01101999999ADDAG10999GA1021+004809999GA2021+030009999GA3071+060009999GF107991999999999999999999MA1101291999999OC101541REMMET008NEW NSG;EQDQ01+000000PRSWM2
0143601010999991997011413304+35733-005900FM-15+0021GMTT V0201401N010310600019N0112651N1+01601+01101999999ADDAG10999GA1021+004809999GA2021+030009999GA3071+060009999GF107991999999999999999999MA1101291999999OC101541REMMET008NEW NSG;EQDQ01+000000PRSWM2
0189601010999991997011415004+35733-005900SY-MT+0021GMTT V0201001N01231060001CN0100001N1+01571+01071101281ADDAA106000091AG10000GA1021+004809999GA2021+030009999GA3071+060009999GF107991021051004501031021MA1101191999999MD1710101+9999REMSYN023 333 82616 83360 85070;MET008NEW NSG;EQDQ01+000000PRSWM2
0135601010999991997011415304+35733-005900FM-15+0021GMTT V0201001N012310600019N0112651N1+01601+01101999999ADDAG10999GA1021+004809999GA2021+030009999GA3071+060009999GF107991999999999999999999MA1101191999999REMMET008NEW NSG;EQDQ01+000000PRSWM2
0143601010999991997011417004+35733-005900FM-15+0021GMTT V0201001N010310600019N0112651N1+01501+01101999999ADDAG10999GA1021+004809999GA2021+030009999GA3071+060009999GF107991999999999999999999MA1101191999999OC101541REMMET008NEW NSG;EQDQ01+000000PRSWM2
0186601010999991997011418004+35733-005900SY-MT+0021GMTT V0201001N01031030001CN0100001N1+01421+01001101311ADDAA106000091AG10000GA1021+004809999GA2071+030009999GF107991021051004501031021KA1120M+01651MA1101291999999MD1110031+9999REMSYN023 333 10165 82615 85360;MET008NEW NSG;EQDQ01+000000PRSWM2
0119601010999991997011418304+35733-005900FM-15+0021GMTT V0201001N009310300019N0112651N1+01401+01001999999ADDAG10999GA1021+004809999GA2071+030009999GF107991999999999999999999MA1101291999999REMMET008NEW NSG;EQDQ01+000000PRSWM2
0119601010999991997011420004+35733-005900FM-15+0021GMTT V0201001N009310300019N0112651N1+01401+01001999999ADDAG10999GA1021+004809999GA2071+030009999GF107991999999999999999999MA1101291999999REMMET008NEW NSG;EQDQ01+000000PRSWM2
0173601010999991997011421004+35733-005900SY-MT+0021GMTT V0201001N01031036001CN0100001N1+01351+00991101361ADDAA106000091AG10000GA1021+004809999GA2021+030009999GF106991021051004501031021MA1101291999999MD1110051+9999REMSYN023 333 82616 84360 84070;MET008NEW NSG;EQDQ01+000000PRSWM2
0135601010999991997011421304+35733-005900FM-15+0021GMTT V0201001N011310600019N0112651N1+01401+01001999999ADDAG10999GA1021+004809999GA2021+030009999GA3071+060009999GF107991999999999999999999MA1101291999999REMMET008NEW NSG;EQDQ01+000000PRSWM2
0135601010999991997011422304+35733-005900FM-15+0021GMTT V0201001N011310600019N0112651N1+01301+01001999999ADDAG10999GA1021+004809999GA2021+030009999GA3071+060009999GF107991999999999999999999MA1101291999999REMMET008NEW NSG;EQDQ01+000000PRSWM2
0146601010999991997011423304+35733-005900FM-15+0021GMTT V0201001N008710600019N0112651N1+01301+01001999999ADDAA106000091AG10000GA1021+004809999GA2021+030009999GA3071+060009999GF107991999999999999999999MA1101291999999REMMET008NEW NSG;EQDQ01+000000PRSWM2
0135601010999991997011500304+35733-005900FM-15+0021GMTT V0201001N00821030001CN0112651N1+01401+01001999999ADDAG10999GA1021+004809999GA2071+030009999GA3071+060009999GF107991999999999999999999MA1101391999999REMMET008NEW NSG;EQDQ01+000000PRSWM2
0119601010999991997011502004+35733-005900FM-15+0021GMTT V0201001N009310300019N0112651N1+01401+01001999999ADDAG10999GA1021+004809999GA2071+030009999GF107991999999999999999999MA1101291999999REMMET008NEW NSG;EQDQ01+000000PRSWM2
0167601010999991997011503004+35733-005900SY-MT+0021GMTT V0201201N01031030001CN0100001N1+01371+01021101351ADDAA106000091AG10000GA1021+004809999GA2071+030009999GF107991031051004501031021MA1101291999999MD1710051+9999REMSYN017 333 83616 85360;MET008NEW NSG;EQDQ01+000000PRSWM2
0119601010999991997011503304+35733-005900FM-15+0021GMTT V0201201N010310300019N0112651N1+01401+01001999999ADDAG10999GA1021+004809999GA2071+030009999GF107991999999999999999999MA1101291999999REMMET008NEW NSG;EQDQ01+000000PRSWM2
0119601010999991997011505004+35733-005900FM-15+0021GMTT V0201201N009310300019N0112651N1+01301+01001999999ADDAG10999GA1021+004809999GA2071+030009999GF107991999999999999999999MA1101291999999REMMET008NEW NSG;EQDQ01+000000PRSWM2
0144601010999991997011506004+35733-005900FM-12+0021GMTT V0201201N00931004801CN0080001N1+01381+01001101281ADDAA106000091AG10000GA1031+004509999GA2051+004809089GF108991051081004501031999KA1120N+01381MD1610061+9999REMSYN029 333 20138 83/15 85816 85358;
0208601010999991997011506004+35733-005900SY-MT+0021GMTT V0201201N00931004801CN0080001N1+01381+01001101281ADDAA106000091AG10000GA1021+004509999GA2071+004809999GA3071+027009999GF108991051081004501031999KA1120N+01381MA1101291999999MD1610061+9999REMSYN029 333 20138 83815 85816 85358;MET008NEW NSG;EQDQ01+000000PRSWM2
0132601010999991997011506304+35733-005900FM-15+0021GMTT V0201201N00721004801CN0080001N1+01401+01001999999ADDAG10999GA1021+004509999GA2071+004809999GA3071+024009999GF107991999999999999999999MA1101191999999REMMET005NEW ;EQDQ01+000000PRSWM2
0119601010999991997011508004+35733-005900FM-15+0021GMTT V0201201N00931004801CN0080001N1+01401+01001999999ADDAG10999GA1021+003909999GA2071+004809999GA3071+024009999GF107991999999999999999999MA1101191999999MW1611REMMET005NEW ;
0186601010999991997011509004+35733-005900SY-MT+0021GMTT V0201001N01031004801CN0100001N1+01391+01031101351ADDAA106000091AG10000GA1021+003909999GA2071+004809999GA3071+024009999GF108991051021004501031999MA1101191999999MD1310071+9999REMSYN023 333 83813 85816 85358;MET005NEW ;EQDQ01+000000PRSWM2
0135601010999991997011509304+35733-005900FM-15+0021GMTT V0201001N00821004801CN0112651N1+01401+01001999999ADDAG10999GA1021+003909999GA2071+004809999GA3071+024009999GF107991999999999999999999MA1101291999999REMMET008NEW NSG;EQDQ01+000000PRSWM2
0135601010999991997011510304+35733-005900FM-15+0021GMTT V0201001N00721004801CN0112651N1+01501+01101999999ADDAG10999GA1021+003909999GA2071+004809999GA3071+024009999GF107991999999999999999999MA1101391999999REMMET008NEW NSG;EQDQ01+000000PRSWM2
0211601010999991997011512004+35733-005900SY-MT+0021GMTT V0201001N01031004801CN0100001N1+01801+01061101451ADDAA106000591AG10001AY161061AY221061GA1021+003909999GA2071+004809999GA3071+024009999GF107991041021004501031999MA1101491999999MD1010111+9999MW1011REMSYN023 333 83813 84816 85358;MET008NEW NSG;EQDQ01+000000PRSWM2
0135601010999991997011512304+35733-005900FM-15+0021GMTT V0201001N010310240019N0112651N1+01801+01101999999ADDAG10999GA1021+003909999GA2021+004809999GA3071+024009999GF107991999999999999999999MA1101391999999REMMET008NEW NSG;EQDQ01+000000PRSWM2
0135601010999991997011513304+35733-005900FM-15+0021GMTT V0201001N009310240019N0112651N1+01701+01101999999ADDAG10999GA1021+003909999GA2021+004809999GA3071+024009999GF107991999999999999999999MA1101391999999REMMET008NEW NSG;EQDQ01+000000PRSWM2
0167601010999991997011515004+35733-005900SY-MT+0021GMTT V0201001N00821036001CN0100001N1+01781+01081101341ADDAA106000091AG10000GA1021+004809999GA2021+024009999GF106991041021004501031001MA1101291999999MD1610111+9999REMSYN017 333 84816 85358;MET008NEW NSG;EQDQ01+000000PRSWM2
0119601010999991997011516004+35733-005900FM-15+0021GMTT V0201001N007210240019N0080001N1+01701+01201999999ADDAG10999GA1021+004809999GA2071+024009999GF107991999999999999999999MA1101291999999REMMET008NEW NSG;EQDQ01+000000PRSWM2
0119601010999991997011517004+35733-005900FM-15+0021GMTT V0201001N007210240019N0080001N1+01601+01201999999ADDAG10999GA1021+004809999GA2071+024009999GF107991999999999999999999MA1101291999999REMMET008NEW RERAEQDQ01+000000PRSWM2
0235601010999991997011518004+35733-005900SY-MT+0021GMTT V0201001N00571024001CN0080001N1+01401+01221101421ADDAA106000091AA299000591AG10001AY161061AY261061GA1021+004809999GA2071+024009999GF199999041021004501031001KA1120M+01841MA1101291999999MD1310081+9999MW1111REMSYN023 333 10184 84816 85358;MET008NEW NSG;EQDQ01+000062SCOTCVQ02+000000PRSWM2
0119601010999991997011518304+35733-005900FM-15+0021GMTT V0201001N005110240019N0080001N1+01401+01201999999ADDAG10999GA1021+004809999GA2071+024009999GF107991999999999999999999MA1101391999999REMMET008NEW NSG;EQDQ01+000000PRSWM2
0119601010999991997011519304+35733-005900FM-15+0021GMTT V0201001N006210240019N0080001N1+01401+01201999999ADDAG10999GA1021+004809999GA2071+024009999GF107991999999999999999999MA1101391999999REMMET008NEW NSG;EQDQ01+000000PRSWM2
0167601010999991997011521004+35733-005900SY-MT+0021GMTT V0201001N00511220001CN0080001N1+01361+01111101521ADDAA106000091AG10000GA1021+004809999GA2021+027009999GF104991021021004501031001MA1101491999999MD1310101+9999REMSYN017 333 82816 84359;MET008NEW NSG;EQDQ01+000000PRSWM2
0119601010999991997011521304+35733-005900FM-15+0021GMTT V0201001N00571220001CN0080001N1+01401+01101999999ADDAG10999GA1021+003909999GA2021+030009999GF104991999999999999999999MA1101491999999REMMET008NEW NSG;EQDQ01+000000PRSWM2
0119601010999991997011522304+35733-005900FM-15+0021GMTT V0201001N00511220001CN0080001N1+01401+01101999999ADDAG10999GA1021+004809999GA2021+024009999GF104991999999999999999999MA1101491999999REMMET008NEW NSG;EQDQ01+000000PRSWM2
0119601010999991997011600304+35733-005900FM-15+0021GMTT V0201001N005710270019N0112651N1+01401+01101999999ADDAG10999GA1021+004809999GA2071+027009999GF107991999999999999999999MA1101491999999REMMET008NEW NSG;EQDQ01+000000PRSWM2
0119601010999991997011601304+35733-005900FM-15+0021GMTT V0201001N005110270019N0112651N1+01401+01101999999ADDAG10999GA1021+004809999GA2071+027009999GF107991999999999999999999MA1101491999999REMMET008NEW NSG;EQDQ01+000000PRSWM2
0167601010999991997011603004+35733-005900SY-MT+0021GMTT V0201001N00511027001CN0100001N1+01421+01161101581ADDAA106000091AG10000GA1021+004809999GA2071+027009999GF107991031021004501031999MA1101491999999MD1410001+9999REMSYN017 333 83816 86359;MET008NEW NSG;EQDQ01+000000PRSWM2
0119601010999991997011603304+35733-005900FM-15+0021GMTT V0201001N005110270019N0112651N1+01401+01201999999ADDAG10999GA1021+004809999GA2071+027009999GF107991999999999999999999MA1101491999999REMMET008NEW NSG;EQDQ01+000000PRSWM2
0119601010999991997011604304+35733-005900FM-15+0021GMTT V0201001N005710270019N0112651N1+01401+01201999999ADDAG10999GA1021+004809999GA2071+027009999GF107991999999999999999999MA1101491999999REMMET008NEW NSG;EQDQ01+000000PRSWM2
0213601010999991997011606004+35733-005900SY-MT+0021GMTT V0201201N00621027001CN0100001N1+01351+01071101581ADDAA106000091AA224000591AG10000GA1021+004809999GA2071+027009999GF199999021021004501031001KA1120N+01331MA1101491999999MD1410001+9999REMSYN023 333 20133 82816 85359;MET008NEW NSG;EQDQ01+000062SCOTCVQ02+000000PRSWM2
0119601010999991997011606304+35733-005900FM-15+0021GMTT V0201001N005710270019N0112651N1+01401+01101999999ADDAG10999GA1021+004809999GA2071+027009999GF107991999999999999999999MA1101491999999REMMET008NEW NSG;EQDQ01+000000PRSWM2
0119601010999991997011607304+35733-005900FM-15+0021GMTT V0201001N005110270019N0112651N1+01401+01101999999ADDAG10999GA1021+004809999GA2071+027009999GF107991999999999999999999MA1101591999999REMMET008NEW NSG;EQDQ01+000000PRSWM2
0161601010999991997011609004+35733-005900SY-MT+0021GMTT V0201601N00621027001CN0080001N1+01441+01091101671ADDAA106000091AG10000GA1021+004809999GA2071+027009999GF107991071021004501999999MA1101591999999MD1310091+9999REMSYN011 333 87816;MET008NEW NSG;EQDQ01+000000PRSWM2
0106601010999991997011609304+35733-005900FM-15+0021GMTT V0201601N008210048019N0080001N1+01401+01201999999ADDAG10999GA1021+003009999GA2071+004809999GF107991999999999999999999MA1101591999999MW1631REMMET008NEW NSG;
0106601010999991997011610304+35733-005900FM-15+0021GMTT V0201601N009310048019N0050001N1+01401+01201999999ADDAG10999GA1021+003009999GA2071+004809999GF107991999999999999999999MA1101691999999MW1631REMMET008NEW NSG;
0189601010999991997011612004+35733-005900SY-MT+0021GMTT V0201801N01031004801CN0080001N1+01551+01281101781ADDAA106003091AG10001AY161061AY261061GA1021+003009999GA2071+004809999GF107991071021004501999999MA1101691999999MD1110111+9999MW1211REMSYN017 333 83710 87816;MET008NEW RERAEQDQ01+000000PRSWM2
0119601010999991997011613004+35733-005900FM-15+0021GMTT V0201801N009310048019N0080001N1+01601+01301999999ADDAG10999GA1021+003009999GA2071+004809999GF107991999999999999999999MA1101801999999REMMET008NEW RERAEQDQ01+000000PRSWM2
0124601010999991997011614004+35733-005900FM-15+0021GMTT V0201801N00931004801CN0080001N1+01601+01401999999ADDAG10999GA1071+004809999GA2071+024009999GF107991999999999999999999MA1101691999999REMMET013NEW TEMPO RA;EQDQ01+000000PRSWM2
0183601010999991997011615004+35733-005900SY-MT+0021GMTT V0202001N00721004801CN0080001N1+01701+01441101681ADDAG10001AY181031AY221031GA1071+004809999GA2071+024009999GF107991051021004501071999MA1101691999999MD1810101+9999MW1801REMSYN017 333 85816 86358;MET013NEW TEMPO RA;EQDQ01+000000PRSWM2
0119601010999991997011615304+35733-005900FM-15+0021GMTT V0202001N00721004801CN0080001N1+01701+01401999999ADDAG10999GA1071+004809999GA2071+024009999GF107991999999999999999999MA1101591999999REMMET008NEW RERAEQDQ01+000000PRSWM2
0135601010999991997011617004+35733-005900FM-15+0021GMTT V0202001N00931004801CN0080001N1+01701+01501999999ADDAG10999GA1021+003009999GA2071+004809999GA3071+024009999GF107991999999999999999999MA1101691999999REMMET008NEW NSG;EQDQ01+000000PRSWM2
0242601010999991997011618004+35733-005900SY-MT+0021GMTT V0202201N00511004801CN0080001N1+01621+01451101741ADDAA106999999AA299000391AG10000AY121061AY281061GA1021+003009999GA2071+004809999GF108991081021004501999999KA1120M+01701MA1101691999999MD1310061+9999MW1211REMSYN023 333 10170 84710 87816;MET015NEW 7 RERA NSG;EQDQ01+000000PRSWM2Q02  00002PRCP06
0119601010999991997011618304+35733-005900FM-15+0021GMTT V0202201N004110048019N0080001N1+01601+01501999999ADDAG10999GA1021+003009999GA2071+004809999GF107991999999999999999999MA1101691999999REMMET008NEW NSG;EQDQ01+000000PRSWM2
0106601010999991997011619304+35733-005900FM-15+0021GMTT V0202201N005110048019N0080001N1+01601+01501999999ADDAG10999GA1021+003009999GA2071+004809999GF107991999999999999999999MA1101691999999MW1611REMMET008NEW NSG;
0210601010999991997011621004+35733-005900SY-MT+0021GMTT V0202001N00621004801CN0080001N1+01501+01411101831ADDAA106999999AG10001AY161031AY261031GA1021+003009999GA2071+004809999GF108991081021004501999999MA1101801999999MD1310111+9999MW1211REMSYN017 333 84710 88816;MET013NEW RERA NSG;EQDQ01+000000PRSWM2Q02  00002PRCP06
0119601010999991997011621304+35733-005900FM-15+0021GMTT V0202001N007710048019N0080001N1+01601+01501999999ADDAG10999GA1021+003009999GA2081+004809999GF108991999999999999999999MA1101801999999REMMET008NEW NSG;EQDQ01+000000PRSWM2
0119601010999991997011623004+35733-005900FM-15+0021GMTT V0202001N003110048019N0080001N1+01401+01301999999ADDAG10999GA1021+003009999GA2081+004809999GF108991999999999999999999MA1101901999999REMMET008NEW RERAEQDQ01+000000PRSWM2
0189601010999991997011700004+35733-005900SY-MT+0021GMTT V0201401N00211004801CN0080001N1+01501+01381101941ADDAA106006091AG10001AY161061AY261061GA1021+003009999GA2071+004809999GF107991071021004501999999MA1101901999999MD1810111+9999MW1611REMSYN017 333 85710 87816;MET008NEW NSG;EQDQ01+000000PRSWM2
0119601010999991997011701004+35733-005900FM-15+0021GMTT V0202001N00511003001CN0080001N1+01501+01401999999ADDAG10999GA1071+003009999GA2071+004809999GF107991999999999999999999MA1101901999999REMMET008NEW RERAEQDQ01+000000PRSWM2
0119601010999991997011702004+35733-005900FM-15+0021GMTT V0202001N005110048019N0080001N1+01501+01401999999ADDAG10999GA1021+003009999GA2071+004809999GF107991999999999999999999MA1101901999999REMMET008NEW NSG;EQDQ01+000000PRSWM2
0162601010999991997011703004+35733-005900SY-MT+0021GMTT V0202601N00411004801CN0100001N1+01531+01441101921ADDAG10000GA1021+003009999GA2071+004809999GF107991071021004501999999MA1101901999999MD1810021+9999MW1001REMSYN017 333 83710 86816;MET008NEW NSG;EQDQ01+000000PRSWM2
0119601010999991997011703304+35733-005900FM-15+0021GMTT V0203001N00621220001CN0112651N1+01501+01401999999ADDAG10999GA1021+003009999GA2021+004809999GF104991999999999999999999MA1101901999999REMMET008NEW NSG;EQDQ01+000000PRSWM2
0119601010999991997011704304+35733-005900FM-15+0021GMTT V0203001N00511220001CN0112651N1+01501+01301999999ADDAG10999GA1021+003009999GA2021+004809999GF104991999999999999999999MA1101901999999REMMET008NEW NSG;EQDQ01+000000PRSWM2
0213601010999991997011706004+35733-005900SY-MT+0021GMTT V0203001N00511004801CN0100001N1+01461+01281102001ADDAA106000091AA224010091AG10001AY161061AY261061GA1071+004809999GF199999051021004501001001KA1120N+01401MA1102001999999MD1210081+9999MW1031REMSYN017 333 20140 85816;MET008NEW NSG;EQDQ01+000052SCOTCVQ02+000000PRSWM2
0119601010999991997011707004+35733-005900FM-15+0021GMTT V0203201N00511220001CN0112651N1+01501+01201999999ADDAG10999GA1021+004809999GA2021+024009999GF104991999999999999999999MA1102001999999REMMET008NEW NSG;EQDQ01+000000PRSWM2
0124601010999991997011707304+35733-005900FM-15+0021GMTT V0203201N004110240019N0112651N1+01501+01201999999ADDAG10999GA1021+004809999GA2071+024009999GF107991999999999999999999MA1102001999999REMMET013NEW TEMPO RA;EQDQ01+000000PRSWM2
0145601010999991997011709004+35733-005900SY-MT+0021GMTT V0201601N00151004801CN0100001N1+01301+01171102221ADDAA106000091AG10000GA1071+004809999GF107991051021004501031021MA1102201999999MD1210221+9999REMSYN011 333 85816;MET008NEW NSG;EQDQ01+000000PRSWM2
0103601010999991997011710004+35733-005900FM-15+0021GMTT V0203601N003110048019N0112651N1+01601+01301999999ADDAG10999GA1071+004809999GF107991999999999999999999MA1102301999999REMMET008NEW NSG;EQDQ01+000000PRSWM2
0103601010999991997011710304+35733-005900FM-15+0021GMTT V0203601N003110048019N0112651N1+01601+01301999999ADDAG10999GA1071+004809999GF107991999999999999999999MA1102301999999REMMET008NEW NSG;EQDQ01+000000PRSWM2
0151601010999991997011712004+35733-005900SY-MT+0021GMTT V0203601N00411004801CN0150001N1+01621+01221102391ADDAA106000091AG10000GA1071+004809999GF107991061021004501031021MA1102301999999MD1210171+9999REMSYN017 333 86816 83073;MET008NEW NSG;EQDQ01+000000PRSWM2
0109601010999991997011712304+35733-005900FM-15+0021GMTT V0203601N00411220001CN0112651N1+01601+01201999999ADDAG10999GA1071+004809999GA2021+069009999MA1102301999999REMMET008NEW NSG;EQDQ01+000042SCOTCVQ02+000000PRSWM2
0109601010999991997011713304+35733-005900FM-15+0021GMTT V0203201N00411220001CN0112651N1+01601+01201999999ADDAG10999GA1071+004809999GA2021+069009999MA1102301999999REMMET008NEW NSG;EQDQ01+000042SCOTCVQ02+000000PRSWM2
0177601010999991997011715004+35733-005900SY-MT+0021GMTT V0203201N00411220001CN0150001N1+01651+01071102341ADDAA106000091AG10000GA1071+004809999GA2021+069009999GF199999031021004501001021MA1102301999999MD1710051+9999REMSYN011 333 83816;MET008NEW NSG;EQDQ01+000042SCOTCVQ02+000000PRSWM2
0103601010999991997011715304+35733-005900FM-15+0021GMTT V0203201N00411220001CN0112651N1+01701+01101999999ADDAG10999GA1021+004809999GF104991999999999999999999MA1102301999999REMMET008NEW NSG;EQDQ01+000000PRSWM2
0103601010999991997011716304+35733-005900FM-15+0021GMTT V0202401N00411220001CN0112651N1+01601+01101999999ADDAG10999GA1021+004809999GF104991999999999999999999MA1102301999999REMMET008NEW NSG;EQDQ01+000000PRSWM2
0180601010999991997011718004+35733-005900SY-MT+0021GMTT V0203201N00211220001CN0150001N1+01521+01111102361ADDAA106000091AG10000GA1021+004809999GF103991031021999999001001KA1120M+01691MA1102301999999MD1310021+9999REMSYN017 333 10169 83816;MET008NEW NSG;EQDQ01+000992SCOLCBQ02+000000PRSWM2
