0243601010999992023010100004+35733-005900FM-12+002199999V0201101N002112200019N010000199+01311+01031102541ADDAA103000091AA206000091GA1031+069001001GE19AGL   +99999+99999GF103991031999069001999999MA1999999102341MD1810051+9999OD139900461999OD249900361999REMSYN08860101 02960 31104 10131 20103 30234 40254 58005 60001 80002 333 60007 83073 91007 91109=
0086601010999992023010100004+35727-005917FM-15+001999999V0201101V002119999999Y009900599+01301+01001999999ADDMA1102501999999REMMET059METAR GMTT 010000Z 11004KT 080V180 CAVOK 13/10 Q1025 NOSIG=
0078601010999992023010100304+35727-005917FM-15+001999999V0200701N001519999999Y009900599+01301+01001999999ADDMA1102501999999REMMET051METAR GMTT 010030Z 07003KT CAVOK 13/10 Q1025 NOSIG=
0086601010999992023010101004+35727-005917FM-15+001999999V0201001V001519999999Y009900599+01301+01001999999ADDMA1102401999999REMMET059METAR GMTT 010100Z 10003KT 070V130 CAVOK 13/10 Q1024 NOSIG=
0078601010999992023010101304+35727-005917FM-15+001999999V0201001N002619999999Y009900599+01101+00901999999ADDMA1102401999999REMMET051METAR GMTT 010130Z 10005KT CAVOK 11/09 Q1024 NOSIG=
0078601010999992023010102004+35727-005917FM-15+001999999V0200801N002119999999Y009900599+01201+00901999999ADDMA1102401999999REMMET051METAR GMTT 010200Z 08004KT CAVOK 12/09 Q1024 NOSIG=
0078601010999992023010102304+35727-005917FM-15+001999999V0200901N002619999999Y009900599+01101+00901999999ADDMA1102401999999REMMET051METAR GMTT 010230Z 09005KT CAVOK 11/09 Q1024 NOSIG=
0248601010999992023010103004+35733-005900FM-12+002199999V0200801N00211069001CN010000199+01131+00971102401ADDAA103000091GA1041+039001031GA2031+069001001GE19AGL   +99999+99999GF106991041999039001999999MA1999999102201MD1810141+9999OD139900361999OD249900311999REMSYN08860101 22960 60804 10113 20097 30220 40240 58014 84032 333 60007 84363 83073 91006 91107=
0078601010999992023010103004+35727-005917FM-15+001999999V0200901N002119999999Y009900599+01101+01001999999ADDMA1102301999999REMMET051METAR GMTT 010300Z 09004KT CAVOK 11/10 Q1023 NOSIG=
0078601010999992023010103304+35727-005917FM-15+001999999V0201001N002619999999Y009900599+01201+01001999999ADDMA1102301999999REMMET051METAR GMTT 010330Z 10005KT CAVOK 12/10 Q1023 NOSIG=
0078601010999992023010104004+35727-005917FM-15+001999999V0200801N003119999999Y009900599+01301+01001999999ADDMA1102301999999REMMET051METAR GMTT 010400Z 08006KT CAVOK 13/10 Q1023 NOSIG=
0078601010999992023010104304+35727-005917FM-15+001999999V0200901N002619999999Y009900599+01301+00901999999ADDMA1102301999999REMMET051METAR GMTT 010430Z 09005KT CAVOK 13/09 Q1023 NOSIG=
0078601010999992023010105004+35727-005917FM-15+001999999V0200801N002619999999Y009900599+01301+00901999999ADDMA1102301999999REMMET051METAR GMTT 010500Z 08005KT CAVOK 13/09 Q1023 NOSIG=
0078601010999992023010105304+35727-005917FM-15+001999999V0200801N003119999999Y009900599+01201+00801999999ADDMA1102301999999REMMET051METAR GMTT 010530Z 08006KT CAVOK 12/08 Q1023 NOSIG=
0280601010999992023010106004+35733-005900FM-12+002199999V0200801N003112200019N070001199+01211+00881102331ADDAA103000091AA224000091GA1021+069001001GE19AGL   +99999+99999GF102991021999069001999999KA1240N+01061MA1999999102131MD1610071+9999OD139900511999OD249900461999REMSYN11260101 02989 20806 10121 20088 30213 40233 56007 60004 80002 333 20106 30006 55084 21061 60007 82073 91009 91110=
0078601010999992023010106004+35727-005917FM-15+001999999V0200801N003119999999Y009900599+01201+00901999999ADDMA1102301999999REMMET051METAR GMTT 010600Z 08006KT CAVOK 12/09 Q1023 NOSIG=
0078601010999992023010106304+35727-005917FM-15+001999999V0200801N003119999999Y009900599+01201+00801999999ADDMA1102301999999REMMET051METAR GMTT 010630Z 08006KT CAVOK 12/08 Q1023 NOSIG=
0078601010999992023010107004+35727-005917FM-15+001999999V0200701N003619999999Y009900599+01301+00901999999ADDMA1102301999999REMMET051METAR GMTT 010700Z 07007KT CAVOK 13/09 Q1023 NOSIG=
0078601010999992023010107304+35727-005917FM-15+001999999V0200701N003119999999Y009900599+01201+00901999999ADDMA1102301999999REMMET051METAR GMTT 010730Z 07006KT CAVOK 12/09 Q1023 NOSIG=
0078601010999992023010108004+35727-005917FM-15+001999999V0200801N003619999999Y009900599+01301+01001999999ADDMA1102301999999REMMET051METAR GMTT 010800Z 08007KT CAVOK 13/10 Q1023 NOSIG=
0078601010999992023010108304+35727-005917FM-15+001999999V0200901N004119999999Y009900599+01301+01001999999ADDMA1102301999999REMMET051METAR GMTT 010830Z 09008KT CAVOK 13/10 Q1023 NOSIG=
0248601010999992023010109004+35733-005900FM-12+002199999V0200801N00411060001CN010000199+01351+01091102421ADDAA103000091GA1021+039001031GA2051+060001001GE19AGL   +99999+99999GF106991021999039001999999MA1999999102221MD1210091+9999OD139900571999OD249900571999REMSYN08860101 22960 60808 10135 20109 30222 40242 52009 82032 333 60007 82363 85070 91011 91111=
0078601010999992023010109004+35727-005917FM-15+001999999V0200801N004119999999Y009900599+01401+01101999999ADDMA1102401999999REMMET051METAR GMTT 010900Z 08008KT CAVOK 14/11 Q1024 NOSIG=
0078601010999992023010109304+35727-005917FM-15+001999999V0200901N003119999999Y009900599+01501+01301999999ADDMA1102401999999REMMET051METAR GMTT 010930Z 09006KT CAVOK 15/13 Q1024 NOSIG=
0078601010999992023010110004+35727-005917FM-15+001999999V0201001N004619999999Y009900599+01701+01401999999ADDMA1102401999999REMMET051METAR GMTT 011000Z 10009KT CAVOK 17/14 Q1024 NOSIG=
0078601010999992023010110304+35727-005917FM-15+001999999V0201001N003119999999Y009900599+01701+01401999999ADDMA1102401999999REMMET051METAR GMTT 011030Z 10006KT CAVOK 17/14 Q1024 NOSIG=
0078601010999992023010111004+35727-005917FM-15+001999999V0200901N002619999999Y009900599+01701+01401999999ADDMA1102401999999REMMET051METAR GMTT 011100Z 09005KT CAVOK 17/14 Q1024 NOSIG=
0078601010999992023010111304+35727-005917FM-15+001999999V0200901N002619999999Y009900599+01801+01301999999ADDMA1102301999999REMMET051METAR GMTT 011130Z 09005KT CAVOK 18/13 Q1023 NOSIG=
0243601010999992023010112004+35733-005900FM-12+002199999V0200801N002612200019N010000199+01871+01401102381ADDAA103000091AA206000091GA1041+039001031GE19AGL   +99999+99999GF104991041999039001999999MA1999999102181MD1810041+9999OD139900671999OD249900361999REMSYN08860101 02960 40805 10187 20140 30218 40238 58004 60001 84030 333 60007 84363 91007 91113=
0078601010999992023010112004+35727-005917FM-15+001999999V0200801N002619999999Y009900599+01901+01401999999ADDMA1102301999999REMMET051METAR GMTT 011200Z 08005KT CAVOK 19/14 Q1023 NOSIG=
0078601010999992023010112304+35727-005917FM-15+001999999V0200801N002619999999Y009900599+02001+01301999999ADDMA1102301999999REMMET051METAR GMTT 011230Z 08005KT CAVOK 20/13 Q1023 NOSIG=
0086601010999992023010113004+35727-005917FM-15+001999999V0200701V002119999999Y009900599+02101+01001999999ADDMA1102201999999REMMET059METAR GMTT 011300Z 07004KT 030V110 CAVOK 21/10 Q1022 NOSIG=
0086601010999992023010113304+35727-005917FM-15+001999999V0200601V002119999999Y009900599+02101+00701999999ADDMA1102201999999REMMET059METAR GMTT 011330Z 06004KT 030V090 CAVOK 21/07 Q1022 NOSIG=
0078601010999992023010114004+35727-005917FM-15+001999999V0200601N002119999999Y009900599+02101+01101999999ADDMA1102201999999REMMET051METAR GMTT 011400Z 06004KT CAVOK 21/11 Q1022 NOSIG=
0086601010999992023010114304+35727-005917FM-15+001999999V0200501V001519999999Y009900599+02101+01301999999ADDMA1102201999999REMMET059METAR GMTT 011430Z 05003KT 020V090 CAVOK 21/13 Q1022 NOSIG=
0226601010999992023010115004+35733-005900FM-12+002199999V0202401N00151039001CN010000199+02051+01061102221ADDAA103000091GA1061+039001031GE19AGL   +99999+99999GF106991061999039001999999MA1999999102021MD1610161+9999OD139900461999OD249900211999REMSYN08260101 22960 62403 10205 20106 30202 40222 56016 86030 333 60007 86363 91004 91109=
0078601010999992023010115004+35727-005917FM-15+001999999V0202401N001519999999Y009900599+02101+01101999999ADDMA1102201999999REMMET051METAR GMTT 011500Z 24003KT CAVOK 21/11 Q1022 NOSIG=
0078601010999992023010115304+35727-005917FM-15+001999999V0202801N001019999999Y009900599+02001+00901999999ADDMA1102201999999REMMET051METAR GMTT 011530Z 28002KT CAVOK 20/09 Q1022 NOSIG=
0078601010999992023010116004+35727-005917FM-15+001999999V0209999V000519999999Y009900599+02001+01001999999ADDMA1102201999999REMMET051METAR GMTT 011600Z VRB01KT CAVOK 20/10 Q1022 NOSIG=
0078601010999992023010116304+35727-005917FM-15+001999999V0202401N001019999999Y009900599+01901+00901999999ADDMA1102201999999REMMET051METAR GMTT 011630Z 24002KT CAVOK 19/09 Q1022 NOSIG=
0078601010999992023010117004+35727-005917FM-15+001999999V0202401N000519999999Y009900599+01901+00801999999ADDMA1102201999999REMMET051METAR GMTT 011700Z 24001KT CAVOK 19/08 Q1022 NOSIG=
0078601010999992023010117304+35727-005917FM-15+001999999V0202901N001019999999Y009900599+01701+01201999999ADDMA1102201999999REMMET051METAR GMTT 011730Z 29002KT CAVOK 17/12 Q1022 NOSIG=
0279601010999992023010118004+35733-005900FM-12+002199999V0202501N00051039001CN010000199+01681+01281102331ADDAA103000091AA212000091AA324000091GA1061+039001031GE19AGL   +99999+99999GF106991061999039001999999KA1120M+02141MA1999999102131MD1310111+9999OD139900461999OD249900051999REMSYN10060101 02960 62501 10168 20128 30213 40233 53011 60002 86030 333 10214 60007 70000 86363 91001 91109=
0078601010999992023010118004+35727-005917FM-15+001999999V0209999V000519999999Y009900599+01701+01301999999ADDMA1102301999999REMMET051METAR GMTT 011800Z VRB01KT CAVOK 17/13 Q1023 NOSIG=
0078601010999992023010118304+35727-005917FM-15+001999999V0209999V000519999999Y009900599+01601+01301999999ADDMA1102301999999REMMET051METAR GMTT 011830Z VRB01KT CAVOK 16/13 Q1023 NOSIG=
0078601010999992023010119004+35727-005917FM-15+001999999V0200701N002119999999Y009900599+01501+01301999999ADDMA1102301999999REMMET051METAR GMTT 011900Z 07004KT CAVOK 15/13 Q1023 NOSIG=
0078601010999992023010119304+35727-005917FM-15+001999999V0200801N002119999999Y009900599+01501+01301999999ADDMA1102301999999REMMET051METAR GMTT 011930Z 08004KT CAVOK 15/13 Q1023 NOSIG=
0078601010999992023010120004+35727-005917FM-15+001999999V0200801N002119999999Y009900599+01401+01201999999ADDMA1102301999999REMMET051METAR GMTT 012000Z 08004KT CAVOK 14/12 Q1023 NOSIG=
0078601010999992023010120304+35727-005917FM-15+001999999V0200801N002619999999Y009900599+01401+01201999999ADDMA1102301999999REMMET051METAR GMTT 012030Z 08005KT CAVOK 14/12 Q1023 NOSIG=
0248601010999992023010121004+35733-005900FM-12+002199999V0200801N00261039001CN010000199+01381+01191102401ADDAA103000091GA1051+039001031GA2031+060001001GE19AGL   +99999+99999GF106991051999039001999999MA1999999102201MD1110071+9999OD139900311999OD249900311999REMSYN08860101 22960 60805 10138 20119 30220 40240 51007 85052 333 60007 85363 83070 91006 91106=
0078601010999992023010121004+35727-005917FM-15+001999999V0200801N002619999999Y009900599+01401+01201999999ADDMA1102401999999REMMET051METAR GMTT 012100Z 08005KT CAVOK 14/12 Q1024 NOSIG=
0078601010999992023010121304+35727-005917FM-15+001999999V0200801N002619999999Y009900599+01401+01201999999ADDMA1102401999999REMMET051METAR GMTT 012130Z 08005KT CAVOK 14/12 Q1024 NOSIG=
0078601010999992023010122004+35727-005917FM-15+001999999V0200701N002119999999Y009900599+01401+01201999999ADDMA1102301999999REMMET051METAR GMTT 012200Z 07004KT CAVOK 14/12 Q1023 NOSIG=
0078601010999992023010122304+35727-005917FM-15+001999999V0209999V001019999999Y009900599+01401+01101999999ADDMA1102301999999REMMET051METAR GMTT 012230Z VRB02KT CAVOK 14/11 Q1023 NOSIG=
0078601010999992023010123004+35727-005917FM-15+001999999V0209999V001019999999Y009900599+01401+01101999999ADDMA1102301999999REMMET051METAR GMTT 012300Z VRB02KT CAVOK 14/11 Q1023 NOSIG=
0078601010999992023010123304+35727-005917FM-15+001999999V0200701N002119999999Y009900599+01301+01001999999ADDMA1102301999999REMMET051METAR GMTT 012330Z 07004KT CAVOK 13/10 Q1023 NOSIG=
0249601010999992023010200004+35733-005900FM-12+002199999V0200301N000512200019N010000199+01331+00991102381ADDAA103000091AA206000091GA1031+060001001GE19AGL   +99999+99999GF103991031999060001999999MA1999999102181MD1710021+9999OD139900361999OD249900101999REMSYN09460101 02960 30301 10133 20099 30218 40238 57002 60001 80002 90611 333 60007 83070 91002 91107=
0078601010999992023010200004+35727-005917FM-15+001999999V0209999V000519999999Y009900599+01301+01001999999ADDMA1102301999999REMMET051METAR GMTT 020000Z VRB01KT CAVOK 13/10 Q1023 NOSIG=
0091601010999992023010200304+35727-005917FM-15+001999999V0201101V001519999999Y009900599+01301+01001999999ADDMA1102301999999REMMET064METAR GMTT 020030Z AUTO 11003KT 080V140 CAVOK 13/10 Q1023 NOSIG=
0078601010999992023010201004+35727-005917FM-15+001999999V0209999V001019999999Y009900599+01401+00901999999ADDMA1102301999999REMMET051METAR GMTT 020100Z VRB02KT CAVOK 14/09 Q1023 NOSIG=
0083601010999992023010201304+35727-005917FM-15+001999999V0209999V001019999999Y009900599+01501+00801999999ADDMA1102301999999REMMET056METAR GMTT 020130Z AUTO VRB02KT CAVOK 15/08 Q1023 NOSIG=
0171601010999992023010202004+35727-005917FM-15+001999999V0209999V000510609619N009999199+01501+00801999999ADDGA1041+009141999GA2071+060961999GE19AGL   +99999+99999GF199999041999009141999999MA1102301999999REMMET064METAR GMTT 020200Z VRB01KT 9999 SCT030 BKN200 15/08 Q1023 NOSIG=
0171601010999992023010202304+35727-005917FM-15+001999999V0209999V00051010061CN009999199+01501+00801999999ADDGA1071+010061999GA2041+060961999GE19AGL   +99999+99999GF199999071999010061999999MA1102301999999REMMET064METAR GMTT 020230Z VRB01KT 9999 BKN033 SCT200 15/08 Q1023 NOSIG=
0248601010999992023010203004+35733-005900FM-12+002199999V0200901N00151009901CN006000199+01471+00891102331ADDAA103000091GA1051+009901081GA2031+060001001GE19AGL   +99999+99999GF106991051999009901999999MA1999999102131MD1610051+9999OD139900261999OD249900261999REMSYN08860101 22656 60903 10147 20089 30213 40233 56005 85202 333 60007 85833 83070 91005 91105=
0171601010999992023010203004+35727-005917FM-15+001999999V0209999V00101010061CN006000199+01501+00901999999ADDGA1071+010061999GA2041+060961999GE19AGL   +99999+99999GF199999071999010061999999MA1102301999999REMMET064METAR GMTT 020300Z VRB02KT 6000 BKN033 SCT200 15/09 Q1023 NOSIG=
0176601010999992023010203304+35727-005917FM-15+001999999V0209999V00101010061CN006000199+01501+00801999999ADDGA1071+010061999GA2041+060961999GE19AGL   +99999+99999GF199999071999010061999999MA1102301999999REMMET069METAR GMTT 020330Z AUTO VRB02KT 6000 BKN033 SCT200 15/08 Q1023 NOSIG=
0171601010999992023010204004+35727-005917FM-15+001999999V0209999V00101010061CN006000199+01401+00801999999ADDGA1071+010061999GA2041+060961999GE19AGL   +99999+99999GF199999071999010061999999MA1102301999999REMMET064METAR GMTT 020400Z VRB02KT 6000 BKN033 SCT200 14/08 Q1023 NOSIG=
0179601010999992023010204304+35727-005917FM-15+001999999V0201001V00151010061CN006000199+01601+00801999999ADDGA1071+010061999GA2041+060961999GE19AGL   +99999+99999GF199999071999010061999999MA1102301999999REMMET072METAR GMTT 020430Z 10003KT 070V170 6000 BKN033 SCT200 16/08 Q1023 NOSIG=
0171601010999992023010205004+35727-005917FM-15+001999999V0209999V00101060961CN007000199+01601+00701999999ADDGA1041+010061999GA2041+060961999GE19AGL   +99999+99999GF199999041999010061999999MA1102301999999REMMET064METAR GMTT 020500Z VRB02KT 7000 SCT033 SCT200 16/07 Q1023 NOSIG=
0171601010999992023010205304+35727-005917FM-15+001999999V0209999V00101060961CN007000199+01501+00801999999ADDGA1041+010061999GA2041+060961999GE19AGL   +99999+99999GF199999041999010061999999MA1102301999999REMMET064METAR GMTT 020530Z VRB02KT 7000 SCT033 SCT200 15/08 Q1023 NOSIG=
0296601010999992023010206004+35733-005900FM-12+002199999V0201001N00211060001CN007000199+01391+00851102341ADDAA103000091AA224000091GA1031+009001081GA2031+060001001GE19AGL   +99999+99999GF105991031999009001999999KA1240N+01241MA1999999102141MD1310011+9999OD139900311999OD249900261999REMSYN11260101 02557 51004 10139 20085 30214 40234 53001 60004 83202 333 20124 55046 20000 60007 83830 83070 91005 91106=
0179601010999992023010206004+35727-005917FM-15+001999999V0201101V00211060961CN007000199+01401+00901999999ADDGA1041+009141999GA2041+060961999GE19AGL   +99999+99999GF199999041999009141999999MA1102301999999REMMET072METAR GMTT 020600Z 11004KT 070V140 7000 SCT030 SCT200 14/09 Q1023 NOSIG=
0179601010999992023010206304+35727-005917FM-15+001999999V0201701V00151060961CN007000199+01601+00601999999ADDGA1041+009141999GA2041+060961999GE19AGL   +99999+99999GF199999041999009141999999MA1102301999999REMMET072METAR GMTT 020630Z 17003KT 120V210 7000 SCT030 SCT200 16/06 Q1023 NOSIG=
0179601010999992023010207004+35727-005917FM-15+001999999V0201601V00151060961CN007000199+01601+00601999999ADDGA1021+009141999GA2041+060961999GE19AGL   +99999+99999GF199999021999009141999999MA1102301999999REMMET072METAR GMTT 020700Z 16003KT 100V190 7000 FEW030 SCT200 16/06 Q1023 NOSIG=
0179601010999992023010207304+35727-005917FM-15+001999999V0201701V00211060961CN007000199+01701+00501999999ADDGA1021+009141999GA2041+060961999GE19AGL   +99999+99999GF199999021999009141999999MA1102401999999REMMET072METAR GMTT 020730Z 17004KT 120V200 7000 FEW030 SCT200 17/05 Q1024 NOSIG=
0179601010999992023010208004+35727-005917FM-15+001999999V0201701V00261060961CN009000199+01701+00501999999ADDGA1021+009141999GA2041+060961999GE19AGL   +99999+99999GF199999021999009141999999MA1102401999999REMMET072METAR GMTT 020800Z 17005KT 120V210 9000 FEW030 SCT200 17/05 Q1024 NOSIG=
0179601010999992023010208304+35727-005917FM-15+001999999V0201601V00311060961CN009999199+01701+00501999999ADDGA1021+009141999GA2041+060961999GE19AGL   +99999+99999GF199999021999009141999999MA1102401999999REMMET072METAR GMTT 020830Z 16006KT 130V190 9999 FEW030 SCT200 17/05 Q1024 NOSIG=
0248601010999992023010209004+35733-005900FM-12+002199999V0201601N003112200019N010000199+01811+00541102451ADDAA103000091GA1021+009001081GA2031+060001001GE19AGL   +99999+99999GF104991021999009001999999MA1999999102251MD1110111+9999OD139900621999OD249900621999REMSYN08860101 22560 41606 10181 20054 30225 40245 51011 82202 333 60007 82830 83070 91012 91112=
0179601010999992023010209004+35727-005917FM-15+001999999V0201701V00311060961CN009999199+01801+00501999999ADDGA1021+009141999GA2041+060961999GE19AGL   +99999+99999GF199999021999009141999999MA1102401999999REMMET072METAR GMTT 020900Z 17006KT 130V200 9999 FEW030 SCT200 18/05 Q1024 NOSIG=
0179601010999992023010209304+35727-005917FM-15+001999999V0201701V00261060961CN009999199+01901+00501999999ADDGA1021+009141999GA2041+060961999GE19AGL   +99999+99999GF199999021999009141999999MA1102501999999REMMET072METAR GMTT 020930Z 17005KT 120V210 9999 FEW030 SCT200 19/05 Q1025 NOSIG=
0179601010999992023010210004+35727-005917FM-15+001999999V0201701V00261030481CN009999199+01901+00601999999ADDGA1021+009141999GA2041+030481999GE19AGL   +99999+99999GF199999021999009141999999MA1102501999999REMMET072METAR GMTT 021000Z 17005KT 120V210 9999 FEW030 SCT100 19/06 Q1025 NOSIG=
0179601010999992023010210304+35727-005917FM-15+001999999V0201801V002610253019N008000199+01901+00601999999ADDGA1041+009141999GA2071+025301999GE19AGL   +99999+99999GF199999041999009141999999MA1102501999999REMMET072METAR GMTT 021030Z 18005KT 140V220 8000 SCT030 BKN083 19/06 Q1025 NOSIG=
0179601010999992023010211004+35727-005917FM-15+001999999V0201901V002610253019N008000199+01901+00701999999ADDGA1041+009141999GA2071+025301999GE19AGL   +99999+99999GF199999041999009141999999MA1102501999999REMMET072METAR GMTT 021100Z 19005KT 150V220 8000 SCT030 BKN083 19/07 Q1025 NOSIG=
0179601010999992023010211304+35727-005917FM-15+001999999V0201801V002110201219N006000199+01901+00701999999ADDGA1041+009141999GA2071+020121999GE19AGL   +99999+99999GF199999041999009141999999MA1102501999999REMMET072METAR GMTT 021130Z 18004KT 120V230 6000 SCT030 BKN066 19/07 Q1025 NOSIG=
0265601010999992023010212004+35733-005900FM-12+002199999V0201901N002110069019N005000199+01871+00901102541ADDAA103000091AA206000091GA1041+004801081GA2061+006901061GE19AGL   +99999+99999GF108991041999004801999999MA1999999102341MD1990091+9999OD139900621999OD249900411999REMSYN09460101 02450 81904 10187 20090 30234 40254 50009 60001 888// 333 60007 84816 86623 91008 91112=
0202601010999992023010212004+35727-005917FM-15+001999999V0201901V00211007921CN005000199+01901+00901999999ADDGA1041+006101999GA2041+007921999GA3071+010061999GE19AGL   +99999+99999GF199999041999006101999999MA1102501999999REMMET079METAR GMTT 021200Z 19004KT 150V250 5000 SCT020 SCT026 BKN033 19/09 Q1025 NOSIG=
0212601010999992023010212304+35727-005917FM-15+001999999V0202501V00151007921CN005000199+01801+01501999999ADDGA1041+006101999GA2041+007921999GA3071+010061999GE19AGL   +99999+99999GF199999041999006101999999MA1102501999999MW1611REMMET083METAR GMTT 021230Z 25003KT 170V330 5000 -RA SCT020 SCT026 BKN033 18/15 Q1025 NOSIG=
0189601010999992023010213004+35727-005917FM-15+001999999V0202201V00151009141CN005000199+01701+01601999999ADDGA1071+009141999GA2071+022251999GE19AGL   +99999+99999GF199999071999009141999999MA1102401999999MW1611REMMET076METAR GMTT 021300Z 22003KT 170V280 5000 -RA BKN030 BKN073 17/16 Q1024 NOSIG=
0189601010999992023010213304+35727-005917FM-15+001999999V0201701V00211007921CN006000199+01701+01501999999ADDGA1071+007921999GA2071+022251999GE19AGL   +99999+99999GF199999071999007921999999MA1102401999999MW1611REMMET076METAR GMTT 021330Z 17004KT 110V210 6000 -RA BKN026 BKN073 17/15 Q1024 NOSIG=
0179601010999992023010214004+35727-005917FM-15+001999999V0201801V00211009141CN006000199+01801+01401999999ADDGA1071+009141999GA2071+022251999GE19AGL   +99999+99999GF199999071999009141999999MA1102301999999REMMET072METAR GMTT 021400Z 18004KT 080V250 6000 BKN030 BKN073 18/14 Q1023 NOSIG=
0179601010999992023010214304+35727-005917FM-15+001999999V0202101V00211009141CN006000199+01801+01401999999ADDGA1071+009141999GA2071+022251999GE19AGL   +99999+99999GF199999071999009141999999MA1102401999999REMMET072METAR GMTT 021430Z 21004KT 170V260 6000 BKN030 BKN073 18/14 Q1024 NOSIG=
0248601010999992023010215004+35733-005900FM-12+002199999V0202001N002110240019N006000199+01851+01401102421ADDAA103002031GA1041+009001081GA2051+024001031GE19AGL   +99999+99999GF108991041999009001999999MA1999999102221MD1510121+9999OD139900461999OD249900361999REMSYN08860101 22556 82004 10185 20140 30222 40242 55012 8427/ 333 60027 84830 85358 91007 91109=
0179601010999992023010215004+35727-005917FM-15+001999999V0202001V00211009141CN006000199+01901+01401999999ADDGA1071+009141999GA2071+022251999GE19AGL   +99999+99999GF199999071999009141999999MA1102401999999REMMET072METAR GMTT 021500Z 20004KT 140V250 6000 BKN030 BKN073 19/14 Q1024 NOSIG=
0189601010999992023010215304+35727-005917FM-15+001999999V0202301V00211009141CN006000199+01801+01501999999ADDGA1071+009141999GA2071+022251999GE19AGL   +99999+99999GF199999071999009141999999MA1102401999999MW1611REMMET076METAR GMTT 021530Z 23004KT 190V260 6000 -RA BKN030 BKN073 18/15 Q1024 NOSIG=
0189601010999992023010216004+35727-005917FM-15+001999999V0201901V00151009141CN006000199+01801+01501999999ADDGA1071+009141999GA2071+022251999GE19AGL   +99999+99999GF199999071999009141999999MA1102401999999MW1611REMMET076METAR GMTT 021600Z 19003KT 140V240 6000 -RA BKN030 BKN073 18/15 Q1024 NOSIG=
0171601010999992023010216304+35727-005917FM-15+001999999V0209999V00051009141CN006000199+01701+01501999999ADDGA1071+009141999GA2071+022251999GE19AGL   +99999+99999GF199999071999009141999999MA1102401999999REMMET064METAR GMTT 021630Z VRB01KT 6000 BKN030 BKN073 17/15 Q1024 NOSIG=
0171601010999992023010217004+35727-005917FM-15+001999999V0209999V00051010061CN006000199+01701+01601999999ADDGA1071+010061999GA2071+025301999GE19AGL   +99999+99999GF199999071999010061999999MA1102401999999REMMET064METAR GMTT 021700Z VRB01KT 6000 BKN033 BKN083 17/16 Q1024 NOSIG=
0171601010999992023010217304+35727-005917FM-15+001999999V0209999V000510253019N006000199+01601+01601999999ADDGA1021+010061999GA2071+025301999GE19AGL   +99999+99999GF199999021999010061999999MA1102401999999REMMET064METAR GMTT 021730Z VRB01KT 6000 FEW033 BKN083 16/16 Q1024 NOSIG=
0329601010999992023010218004+35733-005900FM-12+002199999V0202101N00051024001CN006000199+01601+01551102531ADDAA103000431AA212003032AA324002632AY161021AY221021GA1021+009901081GA2061+024001031GE19AGL   +99999+99999GF108991021999009901999999KA1120M+01931MA1999999102331MD1310111+9999MW1031OD139900511999OD249900151999REMSYN11260101 01656 82101 10160 20155 30233 40253 53011 60032 70362 8227/ 333 10193 69947 70026 82833 86358 91003 91110=
0171601010999992023010218004+35727-005917FM-15+001999999V0209999V000510253019N006000199+01601+01601999999ADDGA1021+010061999GA2071+025301999GE19AGL   +99999+99999GF199999021999010061999999MA1102501999999REMMET064METAR GMTT 021800Z VRB01KT 6000 FEW033 BKN083 16/16 Q1025 NOSIG=
0171601010999992023010218304+35727-005917FM-15+001999999V0209999V000510253019N006000199+01501+01501999999ADDGA1021+010061999GA2071+025301999GE19AGL   +99999+99999GF199999021999010061999999MA1102501999999REMMET064METAR GMTT 021830Z VRB01KT 6000 FEW033 BKN083 15/15 Q1025 NOSIG=
0171601010999992023010219004+35727-005917FM-15+001999999V0200501N001510253019N006000199+01501+01501999999ADDGA1021+010061999GA2071+025301999GE19AGL   +99999+99999GF199999021999010061999999MA1102501999999REMMET064METAR GMTT 021900Z 05003KT 6000 FEW033 BKN083 15/15 Q1025 NOSIG=
0171601010999992023010219304+35727-005917FM-15+001999999V0200901N001010253019N006000199+01501+01501999999ADDGA1021+007921999GA2071+025301999GE19AGL   +99999+99999GF199999021999007921999999MA1102501999999REMMET064METAR GMTT 021930Z 09002KT 6000 FEW026 BKN083 15/15 Q1025 NOSIG=
0171601010999992023010220004+35727-005917FM-15+001999999V0200901N001510253019N006000199+01501+01501999999ADDGA1021+004881999GA2071+025301999GE19AGL   +99999+99999GF199999021999004881999999MA1102501999999REMMET064METAR GMTT 022000Z 09003KT 6000 FEW016 BKN083 15/15 Q1025 NOSIG=
0171601010999992023010220304+35727-005917FM-15+001999999V0200101N001010253019N009999199+01501+01501999999ADDGA1021+004881999GA2071+025301999GE19AGL   +99999+99999GF199999021999004881999999MA1102501999999REMMET064METAR GMTT 022030Z 01002KT 9999 FEW016 BKN083 15/15 Q1025 NOSIG=
0248601010999992023010221004+35733-005900FM-12+002199999V0200201N000510039019N010000199+01511+01511102611ADDAA103000091GA1031+003001081GA2061+003901061GE19AGL   +99999+99999GF108991031999003001999999MA1999999102411MD1210081+9999OD139900261999OD249900101999REMSYN08860101 22460 80201 10151 20151 30241 40261 52008 888// 333 60007 83810 86613 91002 91105=
0171601010999992023010221004+35727-005917FM-15+001999999V0209999V000510039619N009999199+01501+01501999999ADDGA1041+003051999GA2071+003961999GE19AGL   +99999+99999GF199999041999003051999999MA1102601999999REMMET064METAR GMTT 022100Z VRB01KT 9999 SCT010 BKN013 15/15 Q1026 NOSIG=
0171601010999992023010221304+35727-005917FM-15+001999999V0209999V001010039619N009999199+01601+01601999999ADDGA1041+003051999GA2071+003961999GE19AGL   +99999+99999GF199999041999003051999999MA1102601999999REMMET064METAR GMTT 022130Z VRB02KT 9999 SCT010 BKN013 16/16 Q1026 NOSIG=
0179601010999992023010222004+35727-005917FM-15+001999999V0203301V002110039619N009999199+01601+01601999999ADDGA1041+003051999GA2071+003961999GE19AGL   +99999+99999GF199999041999003051999999MA1102601999999REMMET072METAR GMTT 022200Z 33004KT 300V360 9999 SCT010 BKN013 16/16 Q1026 NOSIG=
0171601010999992023010222304+35727-005917FM-15+001999999V0203501N001510039619N009999199+01601+01601999999ADDGA1041+003051999GA2071+003961999GE19AGL   +99999+99999GF199999041999003051999999MA1102601999999REMMET064METAR GMTT 022230Z 35003KT 9999 SCT010 BKN013 16/16 Q1026 NOSIG=
0171601010999992023010223004+35727-005917FM-15+001999999V0209999V000510061019N009999199+01601+01601999999ADDGA1041+003051999GA2071+006101999GE19AGL   +99999+99999GF199999041999003051999999MA1102601999999REMMET064METAR GMTT 022300Z VRB01KT 9999 SCT010 BKN020 16/16 Q1026 NOSIG=
0171601010999992023010223304+35727-005917FM-15+001999999V0209999V000510061019N009999199+01601+01601999999ADDGA1041+003051999GA2071+006101999GE19AGL   +99999+99999GF199999041999003051999999MA1102601999999REMMET064METAR GMTT 022330Z VRB01KT 9999 SCT010 BKN020 16/16 Q1026 NOSIG=
0265601010999992023010300004+35733-005900FM-12+002199999V0203201N000510060019N010000199+01581+01581102641ADDAA103000091AA206000091GA1031+003001081GA2061+006001061GE19AGL   +99999+99999GF108991031999003001999999MA1999999102441MD1990031+9999OD139900361999OD249900101999REMSYN09460101 02460 83201 10158 20158 30244 40264 50003 60001 888// 333 60007 83810 86620 91002 91107=
0171601010999992023010300004+35727-005917FM-15+001999999V0209999V000510061019N009999199+01601+01601999999ADDGA1041+003051999GA2071+006101999GE19AGL   +99999+99999GF199999041999003051999999MA1102601999999REMMET064METAR GMTT 030000Z VRB01KT 9999 SCT010 BKN020 16/16 Q1026 NOSIG=
0176601010999992023010300304+35727-005917FM-15+001999999V0209999V000510061019N009999199+01501+01501999999ADDGA1041+003051999GA2071+006101999GE19AGL   +99999+99999GF199999041999003051999999MA1102601999999REMMET069METAR GMTT 030030Z AUTO VRB01KT 9999 SCT010 BKN020 15/15 Q1026 NOSIG=
0175601010999992023010301004+35727-005917FM-15+001999999V0201101N001010304819N006000199+01401+01401999999ADDGA1021+003051999GA2071+030481999GE19AGL   +99999+99999GF199999021999003051999999MA1102601999999REMMET068METAR COR GMTT 030100Z 11002KT 6000 FEW010 BKN100 14/14 Q1026 NOSIG=
0171601010999992023010301304+35727-005917FM-15+001999999V0200701N001510304819N006000199+01401+01401999999ADDGA1021+003051999GA2071+030481999GE19AGL   +99999+99999GF199999021999003051999999MA1102601999999REMMET064METAR GMTT 030130Z 07003KT 6000 FEW010 BKN100 14/14 Q1026 NOSIG=
0171601010999992023010302004+35727-005917FM-15+001999999V0200801N001010304819N006000199+01301+01301999999ADDGA1021+003051999GA2071+030481999GE19AGL   +99999+99999GF199999021999003051999999MA1102601999999REMMET064METAR GMTT 030200Z 08002KT 6000 FEW010 BKN100 13/13 Q1026 NOSIG=
0171601010999992023010302304+35727-005917FM-15+001999999V0200801N001510304819N006000199+01401+01401999999ADDGA1021+003051999GA2071+030481999GE19AGL   +99999+99999GF199999021999003051999999MA1102601999999REMMET064METAR GMTT 030230Z 08003KT 6000 FEW010 BKN100 14/14 Q1026 NOSIG=
0248601010999992023010303004+35733-005900FM-12+002199999V0201001N00211030001CN006000199+01301+01301102641ADDAA103000091GA1021+003001081GA2061+030001031GE19AGL   +99999+99999GF106991021999003001999999MA1999999102441MD1510001+9999OD139900211999OD249900211999REMSYN08860101 22456 61004 10130 20130 30244 40264 55000 86230 333 60007 82810 86360 91004 91104=
0171601010999992023010303004+35727-005917FM-15+001999999V0201001N002110304819N006000199+01301+01301999999ADDGA1021+003051999GA2071+030481999GE19AGL   +99999+99999GF199999021999003051999999MA1102601999999REMMET064METAR GMTT 030300Z 10004KT 6000 FEW010 BKN100 13/13 Q1026 NOSIG=
0176601010999992023010303304+35727-005917FM-15+001999999V0201001N001010304819N006000199+01301+01301999999ADDGA1021+003051999GA2071+030481999GE19AGL   +99999+99999GF199999021999003051999999MA1102601999999REMMET069METAR GMTT 030330Z AUTO 10002KT 6000 FEW010 BKN100 13/13 Q1026 NOSIG=
0171601010999992023010304004+35727-005917FM-15+001999999V0209999V001010304819N006000199+01301+01301999999ADDGA1021+003051999GA2071+030481999GE19AGL   +99999+99999GF199999021999003051999999MA1102601999999REMMET064METAR GMTT 030400Z VRB02KT 6000 FEW010 BKN100 13/13 Q1026 NOSIG=
0176601010999992023010304304+35727-005917FM-15+001999999V0209999V001010304819N006000199+01301+01301999999ADDGA1021+003051999GA2071+030481999GE19AGL   +99999+99999GF199999021999003051999999MA1102601999999REMMET069METAR GMTT 030430Z AUTO VRB02KT 6000 FEW010 BKN100 13/13 Q1026 NOSIG=
0171601010999992023010305004+35727-005917FM-15+001999999V0209999V001010304819N006000199+01301+01301999999ADDGA1021+003051999GA2071+030481999GE19AGL   +99999+99999GF199999021999003051999999MA1102601999999REMMET064METAR GMTT 030500Z VRB02KT 6000 FEW010 BKN100 13/13 Q1026 NOSIG=
0176601010999992023010305304+35727-005917FM-15+001999999V0200901N001510304819N006000199+01301+01301999999ADDGA1021+003051999GA2071+030481999GE19AGL   +99999+99999GF199999021999003051999999MA1102601999999REMMET069METAR GMTT 030530Z AUTO 09003KT 6000 FEW010 BKN100 13/13 Q1026 NOSIG=
0324601010999992023010306004+35733-005900FM-12+002199999V0201401N000510300019N006000199+01301+01301102681ADDAA103000091AA224003031AY101021AY201021GA1031+003001081GA2061+030001031GE19AGL   +99999+99999GF106991031999003001999999KA1240N+01261MA1999999102481MD1310041+9999MW1101OD139900211999OD249900101999REMSYN11860101 01456 61401 10130 20130 30248 40268 53004 60034 71000 86230 333 20126 55026 20499 60007 83810 86360 91002 91104=
0171601010999992023010306004+35727-005917FM-15+001999999V0201401N000510304819N006000199+01301+01301999999ADDGA1021+003051999GA2071+030481999GE19AGL   +99999+99999GF199999021999003051999999MA1102601999999REMMET064METAR GMTT 030600Z 14001KT 6000 FEW010 BKN100 13/13 Q1026 NOSIG=
0184601010999992023010306304+35727-005917FM-15+001999999V0200301V001510304819N006000199+01301+01301999999ADDGA1021+003051999GA2071+030481999GE19AGL   +99999+99999GF199999021999003051999999MA1102601999999REMMET077METAR GMTT 030630Z AUTO 03003KT 350V070 6000 FEW010 BKN100 13/13 Q1026 NOSIG=
0171601010999992023010307004+35727-005917FM-15+001999999V0200901N001510304819N006000199+01301+01301999999ADDGA1021+003051999GA2071+030481999GE19AGL   +99999+99999GF199999021999003051999999MA1102701999999REMMET064METAR GMTT 030700Z 09003KT 6000 FEW010 BKN100 13/13 Q1027 NOSIG=
0171601010999992023010307304+35727-005917FM-15+001999999V0201201N001010304819N006000199+01201+01201999999ADDGA1021+003961999GA2071+030481999GE19AGL   +99999+99999GF199999021999003961999999MA1102701999999REMMET064METAR GMTT 030730Z 12002KT 6000 FEW013 BKN100 12/12 Q1027 NOSIG=
0171601010999992023010308004+35727-005917FM-15+001999999V0200901N001510304819N006000199+01201+01201999999ADDGA1021+003961999GA2071+030481999GE19AGL   +99999+99999GF199999021999003961999999MA1102701999999REMMET064METAR GMTT 030800Z 09003KT 6000 FEW013 BKN100 12/12 Q1027 NOSIG=
0171601010999992023010308304+35727-005917FM-15+001999999V0200801N00101030481CN006000199+01301+01301999999ADDGA1041+003051999GA2041+030481999GE19AGL   +99999+99999GF199999041999003051999999MA1102701999999REMMET064METAR GMTT 030830Z 08002KT 6000 SCT010 SCT100 13/13 Q1027 NOSIG=
0248601010999992023010309004+35733-005900FM-12+002199999V0200301N00051060001CN007000199+01401+01401102821ADDAA103000091GA1031+003001081GA2031+060001001GE19AGL   +99999+99999GF105991031999003001999999MA1999999102621MD1310141+9999OD139900261999OD249900101999REMSYN08860101 22457 50301 10140 20140 30262 40282 53014 83202 333 60007 83810 83070 91002 91105=
0171601010999992023010309004+35727-005917FM-15+001999999V0209999V00051060961CN007000199+01401+01401999999ADDGA1041+003051999GA2041+060961999GE19AGL   +99999+99999GF199999041999003051999999MA1102801999999REMMET064METAR GMTT 030900Z VRB01KT 7000 SCT010 SCT200 14/14 Q1028 NOSIG=
0171601010999992023010309304+35727-005917FM-15+001999999V0209999V001010039619N006000199+01501+01501999999ADDGA1021+000911999GA2071+003961999GE19AGL   +99999+99999GF199999021999000911999999MA1102801999999REMMET064METAR GMTT 030930Z VRB02KT 6000 FEW003 BKN013 15/15 Q1028 NOSIG=
0171601010999992023010310004+35727-005917FM-15+001999999V0209999V001010039619N007000199+01501+01501999999ADDGA1021+000911999GA2071+003961999GE19AGL   +99999+99999GF199999021999000911999999MA1102801999999REMMET064METAR GMTT 031000Z VRB02KT 7000 FEW003 BKN013 15/15 Q1028 NOSIG=
0148601010999992023010310304+35727-005917FM-15+001999999V0209999V00051003051CN009999199+01601+01601999999ADDGA1071+003051999GE19AGL   +99999+99999GF199999071999003051999999MA1102901999999REMMET057METAR GMTT 031030Z VRB01KT 9999 BKN010 16/16 Q1029 NOSIG=
0148601010999992023010311004+35727-005917FM-15+001999999V0202801N00211003961CN009999199+01601+01601999999ADDGA1071+003961999GE19AGL   +99999+99999GF199999071999003961999999MA1102901999999REMMET057METAR GMTT 031100Z 28004KT 9999 BKN013 16/16 Q1029 NOSIG=
0148601010999992023010311304+35727-005917FM-15+001999999V0209999V001019999999N009999199+01701+01601999999ADDGA1041+003961999GE19AGL   +99999+99999GF199999041999003961999999MA1102801999999REMMET057METAR GMTT 031130Z VRB02KT 9999 SCT013 17/16 Q1028 NOSIG=
0243601010999992023010312004+35733-005900FM-12+002199999V0203001N003112200019N999999999+01721+01611102881ADDAA103000091AA206000091GA1031+003901081GE19AGL   +99999+99999GF103991031999003901999999MA1999999102681MD1990061+9999OD139900461999OD249900411999REMSYN08860101 024// 33006 10172 20161 30268 40288 50006 60001 83200 333 60007 83813 91008 91109=
0156601010999992023010312004+35727-005917FM-15+001999999V0203001V003119999999N009999199+01701+01601999999ADDGA1041+003961999GE19AGL   +99999+99999GF199999041999003961999999MA1102801999999REMMET065METAR GMTT 031200Z 30006KT 270V340 9999 SCT013 17/16 Q1028 NOSIG=
0148601010999992023010312304+35727-005917FM-15+001999999V0203201N003619999999N009999199+01701+01601999999ADDGA1041+003961999GE19AGL   +99999+99999GF199999041999003961999999MA1102801999999REMMET057METAR GMTT 031230Z 32007KT 9999 SCT013 17/16 Q1028 NOSIG=
0148601010999992023010313004+35727-005917FM-15+001999999V0203201N003619999999N009999199+01701+01601999999ADDGA1041+003961999GE19AGL   +99999+99999GF199999041999003961999999MA1102801999999REMMET057METAR GMTT 031300Z 32007KT 9999 SCT013 17/16 Q1028 NOSIG=
0148601010999992023010313304+35727-005917FM-15+001999999V0203101N003619999999N009999199+01701+01501999999ADDGA1041+003961999GE19AGL   +99999+99999GF199999041999003961999999MA1102801999999REMMET057METAR GMTT 031330Z 31007KT 9999 SCT013 17/15 Q1028 NOSIG=
0148601010999992023010314004+35727-005917FM-15+001999999V0203201N004619999999N009999199+01701+01501999999ADDGA1041+003961999GE19AGL   +99999+99999GF199999041999003961999999MA1102701999999REMMET057METAR GMTT 031400Z 32009KT 9999 SCT013 17/15 Q1027 NOSIG=
0148601010999992023010314304+35727-005917FM-15+001999999V0203101N005119999999N009999199+01601+01501999999ADDGA1041+003961999GE19AGL   +99999+99999GF199999041999003961999999MA1102701999999REMMET057METAR GMTT 031430Z 31010KT 9999 SCT013 16/15 Q1027 NOSIG=
0226601010999992023010315004+35733-005900FM-12+002199999V0203001N003612200019N010000199+01661+01561102771ADDAA103000091GA1031+003901081GE19AGL   +99999+99999GF103991031999003901999999MA1999999102571MD1610111+9999OD139900621999OD249900511999REMSYN08260101 22460 33007 10166 20156 30257 40277 56011 83100 333 60007 83813 91010 91112=
0148601010999992023010315004+35727-005917FM-15+001999999V0203101N003619999999N009999199+01701+01601999999ADDGA1041+003961999GE19AGL   +99999+99999GF199999041999003961999999MA1102701999999REMMET057METAR GMTT 031500Z 31007KT 9999 SCT013 17/16 Q1027 NOSIG=
0148601010999992023010315304+35727-005917FM-15+001999999V0203101N003119999999N009999199+01701+01601999999ADDGA1021+003961999GE19AGL   +99999+99999GF199999021999003961999999MA1102701999999REMMET057METAR GMTT 031530Z 31006KT 9999 FEW013 17/16 Q1027 NOSIG=
0148601010999992023010316004+35727-005917FM-15+001999999V0203201N002619999999N009999199+01601+01501999999ADDGA1021+003961999GE19AGL   +99999+99999GF199999021999003961999999MA1102701999999REMMET057METAR GMTT 031600Z 32005KT 9999 FEW013 16/15 Q1027 NOSIG=
0148601010999992023010316304+35727-005917FM-15+001999999V0203401N002619999999N009999199+01601+01501999999ADDGA1021+003961999GE19AGL   +99999+99999GF199999021999003961999999MA1102701999999REMMET057METAR GMTT 031630Z 34005KT 9999 FEW013 16/15 Q1027 NOSIG=
0148601010999992023010317004+35727-005917FM-15+001999999V0203301N001519999999N009999199+01601+01501999999ADDGA1021+007921999GE19AGL   +99999+99999GF199999021999007921999999MA1102801999999REMMET057METAR GMTT 031700Z 33003KT 9999 FEW026 16/15 Q1028 NOSIG=
0148601010999992023010317304+35727-005917FM-15+001999999V0209999V001019999999N009999199+01501+01501999999ADDGA1041+007921999GE19AGL   +99999+99999GF199999041999007921999999MA1102801999999REMMET057METAR GMTT 031730Z VRB02KT 9999 SCT026 15/15 Q1028 NOSIG=
0279601010999992023010318004+35733-005900FM-12+002199999V0200401N002112200019N010000199+01521+01421102861ADDAA103000091AA212000091AA324000091GA1031+007801081GE19AGL   +99999+99999GF103991031999007801999999KA1120M+01751MA1999999102661MD1310091+9999OD139900621999OD249900261999REMSYN10060101 02560 30404 10152 20142 30266 40286 53009 60002 83100 333 10175 60007 70000 83826 91005 91112=
0156601010999992023010318004+35727-005917FM-15+001999999V0200401V002119999999N009999199+01501+01401999999ADDGA1041+007921999GE19AGL   +99999+99999GF199999041999007921999999MA1102801999999REMMET065METAR GMTT 031800Z 04004KT 360V060 9999 SCT026 15/14 Q1028 NOSIG=
0148601010999992023010318304+35727-005917FM-15+001999999V0209999V001019999999N009999199+01501+01501999999ADDGA1041+007921999GE19AGL   +99999+99999GF199999041999007921999999MA1102801999999REMMET057METAR GMTT 031830Z VRB02KT 9999 SCT026 15/15 Q1028 NOSIG=
0148601010999992023010319004+35727-005917FM-15+001999999V0200701N002619999999N009999199+01501+01501999999ADDGA1021+007921999GE19AGL   +99999+99999GF199999021999007921999999MA1102801999999REMMET057METAR GMTT 031900Z 07005KT 9999 FEW026 15/15 Q1028 NOSIG=
0148601010999992023010319304+35727-005917FM-15+001999999V0209999V001019999999N007000199+01501+01501999999ADDGA1021+007921999GE19AGL   +99999+99999GF199999021999007921999999MA1102801999999REMMET057METAR GMTT 031930Z VRB02KT 7000 FEW026 15/15 Q1028 NOSIG=
0107601010999992023010320004+35727-005917FM-15+001999999V0209999V001012200019N007000199+01401+01401999999ADDGF100991999999999999999999MA1102901999999REMMET054METAR GMTT 032000Z VRB02KT 7000 NSC 14/14 Q1029 NOSIG=
0107601010999992023010320304+35727-005917FM-15+001999999V0200601N001512200019N007000199+01501+01501999999ADDGF100991999999999999999999MA1102901999999REMMET054METAR GMTT 032030Z 06003KT 7000 NSC 15/15 Q1029 NOSIG=
0150601010999992023010321004+35733-005900FM-12+002199999V0201101N001019999999N007000199+01421+01421102911ADDAA103000091MA1999999102711MD1110051+9999OD139900411999OD249900101999REMSYN07060101 22957 01102 10142 20142 30271 40291 51005 333 60007 91002 91108=
0107601010999992023010321004+35727-005917FM-15+001999999V0209999V000512200019N007000199+01401+01401999999ADDGF100991999999999999999999MA1102901999999REMMET054METAR GMTT 032100Z VRB01KT 7000 NSC 14/14 Q1029 NOSIG=
0107601010999992023010321304+35727-005917FM-15+001999999V0209999V001012200019N007000199+01401+01401999999ADDGF100991999999999999999999MA1102901999999REMMET054METAR GMTT 032130Z VRB02KT 7000 NSC 14/14 Q1029 NOSIG=
0115601010999992023010322004+35727-005917FM-15+001999999V0200701V002112200019N007000199+01301+01301999999ADDGF100991999999999999999999MA1102901999999REMMET062METAR GMTT 032200Z 07004KT 040V110 7000 NSC 13/13 Q1029 NOSIG=
0107601010999992023010322304+35727-005917FM-15+001999999V0200801N003112200019N007000199+01401+01401999999ADDGF100991999999999999999999MA1102901999999REMMET054METAR GMTT 032230Z 08006KT 7000 NSC 14/14 Q1029 NOSIG=
0078601010999992023010323004+35727-005917FM-15+001999999V0200701N005119999999Y009900599+01601+01401999999ADDMA1102901999999REMMET051METAR GMTT 032300Z 07010KT CAVOK 16/14 Q1029 NOSIG=
0078601010999992023010323304+35727-005917FM-15+001999999V0200701N006719999999Y009900599+01601+01401999999ADDMA1102901999999REMMET051METAR GMTT 032330Z 07013KT CAVOK 16/14 Q1029 NOSIG=
0167601010999992023010400004+35733-005900FM-12+002199999V0200701N007219999999N010000199+01601+01381102921ADDAA103000091AA206000091MA1999999102721MD1990011+9999OD139900981999OD249900981999REMSYN07660101 02960 00714 10160 20138 30272 40292 50001 60001 333 60007 91019 91119=
0078601010999992023010400004+35727-005917FM-15+001999999V0200701N006719999999Y009900599+01601+01401999999ADDMA1102901999999REMMET051METAR GMTT 040000Z 07013KT CAVOK 16/14 Q1029 NOSIG=
0078601010999992023010400304+35727-005917FM-15+001999999V0200801N007219999999Y009900599+01601+01401999999ADDMA1102801999999REMMET051METAR GMTT 040030Z 08014KT CAVOK 16/14 Q1028 NOSIG=
0078601010999992023010401004+35727-005917FM-15+001999999V0200801N007219999999Y009900599+01601+01401999999ADDMA1102801999999REMMET051METAR GMTT 040100Z 08014KT CAVOK 16/14 Q1028 NOSIG=
0078601010999992023010401304+35727-005917FM-15+001999999V0200801N005719999999Y009900599+01601+01401999999ADDMA1102801999999REMMET051METAR GMTT 040130Z 08011KT CAVOK 16/14 Q1028 NOSIG=
0078601010999992023010402004+35727-005917FM-15+001999999V0201001N002619999999Y009900599+01501+01401999999ADDMA1102801999999REMMET051METAR GMTT 040200Z 10005KT CAVOK 15/14 Q1028 NOSIG=
0083601010999992023010402304+35727-005917FM-15+001999999V0201001N003619999999Y009900599+01501+01401999999ADDMA1102801999999REMMET056METAR GMTT 040230Z AUTO 10007KT CAVOK 15/14 Q1028 NOSIG=
0150601010999992023010403004+35733-005900FM-12+002199999V0201001N004119999999N010000199+01501+01401102891ADDAA103000091MA1999999102691MD1610031+9999OD139901031999OD249900571999REMSYN07060101 22960 01008 10150 20140 30269 40289 56003 333 60007 91011 91120=
0078601010999992023010403004+35727-005917FM-15+001999999V0201001N004119999999Y009900599+01501+01401999999ADDMA1102801999999REMMET051METAR GMTT 040300Z 10008KT CAVOK 15/14 Q1028 NOSIG=
0083601010999992023010403304+35727-005917FM-15+001999999V0200701N007219999999Y009900599+01601+01401999999ADDMA1102801999999REMMET056METAR GMTT 040330Z AUTO 07014KT CAVOK 16/14 Q1028 NOSIG=
0078601010999992023010404004+35727-005917FM-15+001999999V0200801N008219999999Y009900599+01601+01501999999ADDMA1102801999999REMMET051METAR GMTT 040400Z 08016KT CAVOK 16/15 Q1028 NOSIG=
0078601010999992023010404304+35727-005917FM-15+001999999V0200801N007219999999Y009900599+01601+01501999999ADDMA1102801999999REMMET051METAR GMTT 040430Z 08014KT CAVOK 16/15 Q1028 NOSIG=
0078601010999992023010405004+35727-005917FM-15+001999999V0200801N007719999999Y009900599+01601+01501999999ADDMA1102801999999REMMET051METAR GMTT 040500Z 08015KT CAVOK 16/15 Q1028 NOSIG=
0078601010999992023010405304+35727-005917FM-15+001999999V0200801N007719999999Y009900599+01601+01501999999ADDMA1102801999999REMMET051METAR GMTT 040530Z 08015KT CAVOK 16/15 Q1028 NOSIG=
0198601010999992023010406004+35733-005900FM-12+002199999V0200801N007219999999N010000199+01561+01461102891ADDAA103000091AA224000091KA1240N+01261MA1999999102691MD1510001+9999OD139901181999OD249900981999REMSYN09460101 02960 00814 10156 20146 30269 40289 55000 60004 333 20126 55072 20000 60007 91019 91123=
0078601010999992023010406004+35727-005917FM-15+001999999V0200801N007219999999Y009900599+01601+01501999999ADDMA1102801999999REMMET051METAR GMTT 040600Z 08014KT CAVOK 16/15 Q1028 NOSIG=
0078601010999992023010406304+35727-005917FM-15+001999999V0200801N007719999999Y009900599+01601+01501999999ADDMA1102801999999REMMET051METAR GMTT 040630Z 08015KT CAVOK 16/15 Q1028 NOSIG=
0078601010999992023010407004+35727-005917FM-15+001999999V0200801N007219999999Y009900599+01601+01401999999ADDMA1102901999999REMMET051METAR GMTT 040700Z 08014KT CAVOK 16/14 Q1029 NOSIG=
0078601010999992023010407304+35727-005917FM-15+001999999V0200801N007219999999Y009900599+01601+01401999999ADDMA1102901999999REMMET051METAR GMTT 040730Z 08014KT CAVOK 16/14 Q1029 NOSIG=
0078601010999992023010408004+35727-005917FM-15+001999999V0200801N008219999999Y009900599+01601+01501999999ADDMA1102901999999REMMET051METAR GMTT 040800Z 08016KT CAVOK 16/15 Q1029 NOSIG=
0078601010999992023010408304+35727-005917FM-15+001999999V0200801N007219999999Y009900599+01601+01401999999ADDMA1102901999999REMMET051METAR GMTT 040830Z 08014KT CAVOK 16/14 Q1029 NOSIG=
0150601010999992023010409004+35733-005900FM-12+002199999V0200801N007219999999N010000199+01701+01391103011ADDAA103000091MA1999999102811MD1310121+9999OD139901131999OD249900931999REMSYN07060101 22960 00814 10170 20139 30281 40301 53012 333 60007 91018 91122=
0078601010999992023010409004+35727-005917FM-15+001999999V0200801N007219999999Y009900599+01701+01401999999ADDMA1103001999999REMMET051METAR GMTT 040900Z 08014KT CAVOK 17/14 Q1030 NOSIG=
0078601010999992023010409304+35727-005917FM-15+001999999V0200801N007719999999Y009900599+01801+01401999999ADDMA1103001999999REMMET051METAR GMTT 040930Z 08015KT CAVOK 18/14 Q1030 NOSIG=
0078601010999992023010410004+35727-005917FM-15+001999999V0200801N008219999999Y009900599+01801+01401999999ADDMA1103001999999REMMET051METAR GMTT 041000Z 08016KT CAVOK 18/14 Q1030 NOSIG=
0078601010999992023010410304+35727-005917FM-15+001999999V0200901N007719999999Y009900599+01901+01401999999ADDMA1103001999999REMMET051METAR GMTT 041030Z 09015KT CAVOK 19/14 Q1030 NOSIG=
0078601010999992023010411004+35727-005917FM-15+001999999V0200901N009319999999Y009900599+01901+01401999999ADDMA1103001999999REMMET051METAR GMTT 041100Z 09018KT CAVOK 19/14 Q1030 NOSIG=
0078601010999992023010411304+35727-005917FM-15+001999999V0200901N009819999999Y009900599+01901+01401999999ADDMA1103001999999REMMET051METAR GMTT 041130Z 09019KT CAVOK 19/14 Q1030 NOSIG=
0167601010999992023010412004+35733-005900FM-12+002199999V0200801N010319999999N010000199+01951+01321103001ADDAA103000091AA206000091MA1999999102801MD1810011+9999OD139901441999OD249901391999REMSYN07660101 02960 00820 10195 20132 30280 40300 58001 60001 333 60007 91027 91128=
0078601010999992023010412004+35727-005917FM-15+001999999V0200801N010319999999Y009900599+02001+01301999999ADDMA1103001999999REMMET051METAR GMTT 041200Z 08020KT CAVOK 20/13 Q1030 NOSIG=
0078601010999992023010412304+35727-005917FM-15+001999999V0200801N009319999999Y009900599+02001+01401999999ADDMA1102901999999REMMET051METAR GMTT 041230Z 08018KT CAVOK 20/14 Q1029 NOSIG=
0078601010999992023010413004+35727-005917FM-15+001999999V0200801N010819999999Y009900599+02001+01301999999ADDMA1102901999999REMMET051METAR GMTT 041300Z 08021KT CAVOK 20/13 Q1029 NOSIG=
0078601010999992023010413304+35727-005917FM-15+001999999V0200901N010819999999Y009900599+02001+01301999999ADDMA1102901999999REMMET051METAR GMTT 041330Z 09021KT CAVOK 20/13 Q1029 NOSIG=
0078601010999992023010414004+35727-005917FM-15+001999999V0200801N010819999999Y009900599+02001+01201999999ADDMA1102801999999REMMET051METAR GMTT 041400Z 08021KT CAVOK 20/12 Q1028 NOSIG=
0078601010999992023010414304+35727-005917FM-15+001999999V0200801N011319999999Y009900599+01901+01201999999ADDMA1102801999999REMMET051METAR GMTT 041430Z 08022KT CAVOK 19/12 Q1028 NOSIG=
0150601010999992023010415004+35733-005900FM-12+002199999V0200801N010819999999N010000199+01921+01221102821ADDAA103000091MA1999999102621MD1610181+9999OD139901541999OD249901391999REMSYN07060101 22960 00821 10192 20122 30262 40282 56018 333 60007 91027 91130=
0078601010999992023010415004+35727-005917FM-15+001999999V0200801N010819999999Y009900599+01901+01201999999ADDMA1102801999999REMMET051METAR GMTT 041500Z 08021KT CAVOK 19/12 Q1028 NOSIG=
0078601010999992023010415304+35727-005917FM-15+001999999V0200901N009819999999Y009900599+01901+01301999999ADDMA1102801999999REMMET051METAR GMTT 041530Z 09019KT CAVOK 19/13 Q1028 NOSIG=
0078601010999992023010416004+35727-005917FM-15+001999999V0200801N009819999999Y009900599+01901+01201999999ADDMA1102801999999REMMET051METAR GMTT 041600Z 08019KT CAVOK 19/12 Q1028 NOSIG=
0078601010999992023010416304+35727-005917FM-15+001999999V0200901N010319999999Y009900599+01801+01201999999ADDMA1102801999999REMMET051METAR GMTT 041630Z 09020KT CAVOK 18/12 Q1028 NOSIG=
0078601010999992023010417004+35727-005917FM-15+001999999V0200801N010819999999Y009900599+01801+01201999999ADDMA1102701999999REMMET051METAR GMTT 041700Z 08021KT CAVOK 18/12 Q1027 NOSIG=
0078601010999992023010417304+35727-005917FM-15+001999999V0200801N009819999999Y009900599+01701+01201999999ADDMA1102701999999REMMET051METAR GMTT 041730Z 08019KT CAVOK 17/12 Q1027 NOSIG=
0203601010999992023010418004+35733-005900FM-12+002199999V0200801N009819999999N010000199+01671+01141102801ADDAA103000091AA212000091AA324000091KA1120M+01991MA1999999102601MD1710021+9999OD139901541999OD249901291999REMSYN08860101 02960 00819 10167 20114 30260 40280 57002 60002 333 10199 60007 70000 91025 91130=
0078601010999992023010418004+35727-005917FM-15+001999999V0200801N009819999999Y009900599+01701+01201999999ADDMA1102701999999REMMET051METAR GMTT 041800Z 08019KT CAVOK 17/12 Q1027 NOSIG=
0078601010999992023010418304+35727-005917FM-15+001999999V0200801N009319999999Y009900599+01701+01201999999ADDMA1102801999999REMMET051METAR GMTT 041830Z 08018KT CAVOK 17/12 Q1028 NOSIG=
0078601010999992023010419004+35727-005917FM-15+001999999V0200801N009319999999Y009900599+01701+01301999999ADDMA1102801999999REMMET051METAR GMTT 041900Z 08018KT CAVOK 17/13 Q1028 NOSIG=
0078601010999992023010419304+35727-005917FM-15+001999999V0200801N009819999999Y009900599+01701+01201999999ADDMA1102801999999REMMET051METAR GMTT 041930Z 08019KT CAVOK 17/12 Q1028 NOSIG=
0078601010999992023010420004+35727-005917FM-15+001999999V0200801N009319999999Y009900599+01601+01301999999ADDMA1102801999999REMMET051METAR GMTT 042000Z 08018KT CAVOK 16/13 Q1028 NOSIG=
0078601010999992023010420304+35727-005917FM-15+001999999V0200801N010319999999Y009900599+01601+01301999999ADDMA1102801999999REMMET051METAR GMTT 042030Z 08020KT CAVOK 16/13 Q1028 NOSIG=
0150601010999992023010421004+35733-005900FM-12+002199999V0200801N009819999999N010000199+01631+01271102831ADDAA103000091MA1999999102631MD1110031+9999OD139901391999OD249901291999REMSYN07060101 22960 00819 10163 20127 30263 40283 51003 333 60007 91025 91127=
0078601010999992023010421004+35727-005917FM-15+001999999V0200801N009819999999Y009900599+01601+01301999999ADDMA1102801999999REMMET051METAR GMTT 042100Z 08019KT CAVOK 16/13 Q1028 NOSIG=
0078601010999992023010421304+35727-005917FM-15+001999999V0200701N010819999999Y009900599+01701+01301999999ADDMA1102801999999REMMET051METAR GMTT 042130Z 07021KT CAVOK 17/13 Q1028 NOSIG=
0078601010999992023010422004+35727-005917FM-15+001999999V0200701N009819999999Y009900599+01601+01301999999ADDMA1102801999999REMMET051METAR GMTT 042200Z 07019KT CAVOK 16/13 Q1028 NOSIG=
0078601010999992023010422304+35727-005917FM-15+001999999V0200701N008219999999Y009900599+01601+01301999999ADDMA1102801999999REMMET051METAR GMTT 042230Z 07016KT CAVOK 16/13 Q1028 NOSIG=
0078601010999992023010423004+35727-005917FM-15+001999999V0200701N009319999999Y009900599+01701+01301999999ADDMA1102801999999REMMET051METAR GMTT 042300Z 07018KT CAVOK 17/13 Q1028 NOSIG=
0078601010999992023010423304+35727-005917FM-15+001999999V0200701N008819999999Y009900599+01601+01301999999ADDMA1102801999999REMMET051METAR GMTT 042330Z 07017KT CAVOK 16/13 Q1028 NOSIG=
0167601010999992023010500004+35733-005900FM-12+002199999V0200801N009819999999N010000199+01631+01271102781ADDAA103000091AA206000091MA1999999102581MD1810051+9999OD139901391999OD249901341999REMSYN07660101 02960 00819 10163 20127 30258 40278 58005 60001 333 60007 91026 91127=
0078601010999992023010500004+35727-005917FM-15+001999999V0200801N009819999999Y009900599+01601+01301999999ADDMA1102701999999REMMET051METAR GMTT 050000Z 08019KT CAVOK 16/13 Q1027 NOSIG=
0078601010999992023010500304+35727-005917FM-15+001999999V0200701N008219999999Y009900599+01601+01301999999ADDMA1102701999999REMMET051METAR GMTT 050030Z 07016KT CAVOK 16/13 Q1027 NOSIG=
0078601010999992023010501004+35727-005917FM-15+001999999V0200801N008219999999Y009900599+01601+01301999999ADDMA1102701999999REMMET051METAR GMTT 050100Z 08016KT CAVOK 16/13 Q1027 NOSIG=
0078601010999992023010501304+35727-005917FM-15+001999999V0200801N008219999999Y009900599+01601+01301999999ADDMA1102701999999REMMET051METAR GMTT 050130Z 08016KT CAVOK 16/13 Q1027 NOSIG=
0078601010999992023010502004+35727-005917FM-15+001999999V0200801N008219999999Y009900599+01601+01301999999ADDMA1102701999999REMMET051METAR GMTT 050200Z 08016KT CAVOK 16/13 Q1027 NOSIG=
0083601010999992023010502304+35727-005917FM-15+001999999V0200801N007719999999Y009900599+01601+01301999999ADDMA1102701999999REMMET056METAR GMTT 050230Z AUTO 08015KT CAVOK 16/13 Q1027 NOSIG=
0150601010999992023010503004+35733-005900FM-12+002199999V0200801N008219999999N010000199+01561+01271102681ADDAA103000091MA1999999102481MD1810101+9999OD139901241999OD249901081999REMSYN07060101 22960 00816 10156 20127 30248 40268 58010 333 60007 91021 91124=
0078601010999992023010503004+35727-005917FM-15+001999999V0200801N008219999999Y009900599+01601+01301999999ADDMA1102601999999REMMET051METAR GMTT 050300Z 08016KT CAVOK 16/13 Q1026 NOSIG=
0078601010999992023010503304+35727-005917FM-15+001999999V0200801N008219999999Y009900599+01601+01301999999ADDMA1102601999999REMMET051METAR GMTT 050330Z 08016KT CAVOK 16/13 Q1026 NOSIG=
0078601010999992023010504004+35727-005917FM-15+001999999V0200801N008219999999Y009900599+01601+01201999999ADDMA1102601999999REMMET051METAR GMTT 050400Z 08016KT CAVOK 16/12 Q1026 NOSIG=
0078601010999992023010504304+35727-005917FM-15+001999999V0200801N009319999999Y009900599+01601+01301999999ADDMA1102601999999REMMET051METAR GMTT 050430Z 08018KT CAVOK 16/13 Q1026 NOSIG=
0078601010999992023010505004+35727-005917FM-15+001999999V0200801N009319999999Y009900599+01601+01301999999ADDMA1102501999999REMMET051METAR GMTT 050500Z 08018KT CAVOK 16/13 Q1025 NOSIG=
0078601010999992023010505304+35727-005917FM-15+001999999V0200801N009319999999Y009900599+01601+01301999999ADDMA1102601999999REMMET051METAR GMTT 050530Z 08018KT CAVOK 16/13 Q1026 NOSIG=
0198601010999992023010506004+35733-005900FM-12+002199999V0200801N008219999999N010000199+01531+01241102621ADDAA103000091AA224000091KA1240N+01531MA1999999102421MD1510061+9999OD139901291999OD249901181999REMSYN09460101 02960 00816 10153 20124 30242 40262 55006 60004 333 20153 55086 20000 60007 91023 91125=
0078601010999992023010506004+35727-005917FM-15+001999999V0200801N008219999999Y009900599+01501+01201999999ADDMA1102601999999REMMET051METAR GMTT 050600Z 08016KT CAVOK 15/12 Q1026 NOSIG=
0078601010999992023010506304+35727-005917FM-15+001999999V0200801N007719999999Y009900599+01501+01201999999ADDMA1102601999999REMMET051METAR GMTT 050630Z 08015KT CAVOK 15/12 Q1026 NOSIG=
0078601010999992023010507004+35727-005917FM-15+001999999V0200801N007719999999Y009900599+01501+01301999999ADDMA1102601999999REMMET051METAR GMTT 050700Z 08015KT CAVOK 15/13 Q1026 NOSIG=
0078601010999992023010507304+35727-005917FM-15+001999999V0200801N007719999999Y009900599+01601+01301999999ADDMA1102601999999REMMET051METAR GMTT 050730Z 08015KT CAVOK 16/13 Q1026 NOSIG=
0078601010999992023010508004+35727-005917FM-15+001999999V0200801N008219999999Y009900599+01601+01301999999ADDMA1102601999999REMMET051METAR GMTT 050800Z 08016KT CAVOK 16/13 Q1026 NOSIG=
0078601010999992023010508304+35727-005917FM-15+001999999V0200901N007719999999Y009900599+01601+01301999999ADDMA1102601999999REMMET051METAR GMTT 050830Z 09015KT CAVOK 16/13 Q1026 NOSIG=
0150601010999992023010509004+35733-005900FM-12+002199999V0200901N008219999999N010000199+01661+01281102671ADDAA103000091MA1999999102471MD1110051+9999OD139901131999OD249901081999REMSYN07060101 22960 00916 10166 20128 30247 40267 51005 333 60007 91021 91122=
0078601010999992023010509004+35727-005917FM-15+001999999V0200901N008219999999Y009900599+01701+01301999999ADDMA1102601999999REMMET051METAR GMTT 050900Z 09016KT CAVOK 17/13 Q1026 NOSIG=
0078601010999992023010509304+35727-005917FM-15+001999999V0200801N008819999999Y009900599+01701+01401999999ADDMA1102601999999REMMET051METAR GMTT 050930Z 08017KT CAVOK 17/14 Q1026 NOSIG=
0078601010999992023010510004+35727-005917FM-15+001999999V0200901N008219999999Y009900599+01801+01401999999ADDMA1102701999999REMMET051METAR GMTT 051000Z 09016KT CAVOK 18/14 Q1027 NOSIG=
0078601010999992023010510304+35727-005917FM-15+001999999V0200901N009319999999Y009900599+01801+01301999999ADDMA1102701999999REMMET051METAR GMTT 051030Z 09018KT CAVOK 18/13 Q1027 NOSIG=
0078601010999992023010511004+35727-005917FM-15+001999999V0200801N008819999999Y009900599+01901+01301999999ADDMA1102701999999REMMET051METAR GMTT 051100Z 08017KT CAVOK 19/13 Q1027 NOSIG=
0078601010999992023010511304+35727-005917FM-15+001999999V0200801N008219999999Y009900599+01901+01301999999ADDMA1102601999999REMMET051METAR GMTT 051130Z 08016KT CAVOK 19/13 Q1026 NOSIG=
0167601010999992023010512004+35733-005900FM-12+002199999V0200801N007719999999N010000199+01961+01241102641ADDAA103000091AA206000091MA1999999102441MD1810031+9999OD139901391999OD249901031999REMSYN07660101 02960 00815 10196 20124 30244 40264 58003 60001 333 60007 91020 91127=
0078601010999992023010512004+35727-005917FM-15+001999999V0200801N007219999999Y009900599+01901+01201999999ADDMA1102601999999REMMET051METAR GMTT 051200Z 08014KT CAVOK 19/12 Q1026 NOSIG=
0078601010999992023010512304+35727-005917FM-15+001999999V0200901N006719999999Y009900599+02001+01201999999ADDMA1102601999999REMMET051METAR GMTT 051230Z 09013KT CAVOK 20/12 Q1026 NOSIG=
0078601010999992023010513004+35727-005917FM-15+001999999V0200801N007719999999Y009900599+02001+01201999999ADDMA1102501999999REMMET051METAR GMTT 051300Z 08015KT CAVOK 20/12 Q1025 NOSIG=
0078601010999992023010513304+35727-005917FM-15+001999999V0200801N007219999999Y009900599+02001+01201999999ADDMA1102501999999REMMET051METAR GMTT 051330Z 08014KT CAVOK 20/12 Q1025 NOSIG=
0078601010999992023010514004+35727-005917FM-15+001999999V0200801N007219999999Y009900599+02001+01101999999ADDMA1102401999999REMMET051METAR GMTT 051400Z 08014KT CAVOK 20/11 Q1024 NOSIG=
0078601010999992023010514304+35727-005917FM-15+001999999V0200801N007219999999Y009900599+02001+01001999999ADDMA1102401999999REMMET051METAR GMTT 051430Z 08014KT CAVOK 20/10 Q1024 NOSIG=
0150601010999992023010515004+35733-005900FM-12+002199999V0200801N007219999999N010000199+01971+01071102471ADDAA103000091MA1999999102271MD1610171+9999OD139901031999OD249900931999REMSYN07060101 22960 00814 10197 20107 30227 40247 56017 333 60007 91018 91120=
0078601010999992023010515004+35727-005917FM-15+001999999V0200801N007219999999Y009900599+02001+01101999999ADDMA1102401999999REMMET051METAR GMTT 051500Z 08014KT CAVOK 20/11 Q1024 NOSIG=
0083601010999992023010515304+35727-005917FM-15+001999999V0200801N006219999999Y009900599+01901+01101999999ADDMA1102401999999REMMET056METAR GMTT 051530Z AUTO 08012KT CAVOK 19/11 Q1024 NOSIG=
0082601010999992023010516004+35727-005917FM-15+001999999V0200801N007219999999Y009900599+01901+01101999999ADDMA1102401999999REMMET055METAR COR GMTT 051600Z 08014KT CAVOK 19/11 Q1024 NOSIG=
0078601010999992023010516304+35727-005917FM-15+001999999V0200801N006219999999Y009900599+01801+01101999999ADDMA1102401999999REMMET051METAR GMTT 051630Z 08012KT CAVOK 18/11 Q1024 NOSIG=
0078601010999992023010517004+35727-005917FM-15+001999999V0200801N005119999999Y009900599+01701+01201999999ADDMA1102401999999REMMET051METAR GMTT 051700Z 08010KT CAVOK 17/12 Q1024 NOSIG=
0078601010999992023010517304+35727-005917FM-15+001999999V0200801N006219999999Y009900599+01701+01101999999ADDMA1102401999999REMMET051METAR GMTT 051730Z 08012KT CAVOK 17/11 Q1024 NOSIG=
0203601010999992023010518004+35733-005900FM-12+002199999V0200801N004619999999N010000199+01611+01171102501ADDAA103000091AA212000091AA324000091KA1120M+02051MA1999999102301MD1310031+9999OD139901031999OD249900621999REMSYN08860101 02960 00809 10161 20117 30230 40250 53003 60002 333 10205 60007 70000 91012 91120=
0078601010999992023010518004+35727-005917FM-15+001999999V0200801N004619999999Y009900599+01601+01201999999ADDMA1102401999999REMMET051METAR GMTT 051800Z 08009KT CAVOK 16/12 Q1024 NOSIG=
0078601010999992023010518304+35727-005917FM-15+001999999V0200801N005119999999Y009900599+01601+01201999999ADDMA1102501999999REMMET051METAR GMTT 051830Z 08010KT CAVOK 16/12 Q1025 NOSIG=
0078601010999992023010519004+35727-005917FM-15+001999999V0200801N003619999999Y009900599+01501+01201999999ADDMA1102501999999REMMET051METAR GMTT 051900Z 08007KT CAVOK 15/12 Q1025 NOSIG=
0078601010999992023010519304+35727-005917FM-15+001999999V0200901N004119999999Y009900599+01501+01201999999ADDMA1102501999999REMMET051METAR GMTT 051930Z 09008KT CAVOK 15/12 Q1025 NOSIG=
0078601010999992023010520004+35727-005917FM-15+001999999V0200801N004619999999Y009900599+01501+01201999999ADDMA1102501999999REMMET051METAR GMTT 052000Z 08009KT CAVOK 15/12 Q1025 NOSIG=
0078601010999992023010520304+35727-005917FM-15+001999999V0200701N005719999999Y009900599+01501+01201999999ADDMA1102501999999REMMET051METAR GMTT 052030Z 07011KT CAVOK 15/12 Q1025 NOSIG=
0150601010999992023010521004+35733-005900FM-12+002199999V0200701N004119999999N010000199+01461+01161102581ADDAA103000091MA1999999102381MD1210081+9999OD139900771999OD249900621999REMSYN07060101 22960 00708 10146 20116 30238 40258 52008 333 60007 91012 91115=
0078601010999992023010521004+35727-005917FM-15+001999999V0200701N004119999999Y009900599+01501+01201999999ADDMA1102501999999REMMET051METAR GMTT 052100Z 07008KT CAVOK 15/12 Q1025 NOSIG=
0078601010999992023010521304+35727-005917FM-15+001999999V0200801N003119999999Y009900599+01401+01201999999ADDMA1102501999999REMMET051METAR GMTT 052130Z 08006KT CAVOK 14/12 Q1025 NOSIG=
0078601010999992023010522004+35727-005917FM-15+001999999V0200701N003619999999Y009900599+01401+01201999999ADDMA1102501999999REMMET051METAR GMTT 052200Z 07007KT CAVOK 14/12 Q1025 NOSIG=
0078601010999992023010522304+35727-005917FM-15+001999999V0200801N003119999999Y009900599+01301+01201999999ADDMA1102501999999REMMET051METAR GMTT 052230Z 08006KT CAVOK 13/12 Q1025 NOSIG=
0078601010999992023010523004+35727-005917FM-15+001999999V0200901N003619999999Y009900599+01301+01201999999ADDMA1102501999999REMMET051METAR GMTT 052300Z 09007KT CAVOK 13/12 Q1025 NOSIG=
0078601010999992023010523304+35727-005917FM-15+001999999V0200901N003119999999Y009900599+01301+01201999999ADDMA1102501999999REMMET051METAR GMTT 052330Z 09006KT CAVOK 13/12 Q1025 NOSIG=
0167601010999992023010600004+35733-005900FM-12+002199999V0200901N003119999999N010000199+01311+01181102551ADDAA103000091AA206000091MA1999999102351MD1710031+9999OD139900771999OD249900511999REMSYN07660101 02960 00906 10131 20118 30235 40255 57003 60001 333 60007 91010 91115=
0078601010999992023010600004+35727-005917FM-15+001999999V0200901N003119999999Y009900599+01301+01201999999ADDMA1102501999999REMMET051METAR GMTT 060000Z 09006KT CAVOK 13/12 Q1025 NOSIG=
0078601010999992023010600304+35727-005917FM-15+001999999V0200901N003119999999Y009900599+01301+01201999999ADDMA1102501999999REMMET051METAR GMTT 060030Z 09006KT CAVOK 13/12 Q1025 NOSIG=
0078601010999992023010601004+35727-005917FM-15+001999999V0201001N003619999999Y009900599+01301+01201999999ADDMA1102401999999REMMET051METAR GMTT 060100Z 10007KT CAVOK 13/12 Q1024 NOSIG=
0078601010999992023010601304+35727-005917FM-15+001999999V0200901N003619999999Y009900599+01201+01201999999ADDMA1102401999999REMMET051METAR GMTT 060130Z 09007KT CAVOK 12/12 Q1024 NOSIG=
0078601010999992023010602004+35727-005917FM-15+001999999V0200901N004119999999Y009900599+01301+01201999999ADDMA1102501999999REMMET051METAR GMTT 060200Z 09008KT CAVOK 13/12 Q1025 NOSIG=
0078601010999992023010602304+35727-005917FM-15+001999999V0200901N004119999999Y009900599+01301+01201999999ADDMA1102501999999REMMET051METAR GMTT 060230Z 09008KT CAVOK 13/12 Q1025 NOSIG=
0150601010999992023010603004+35733-005900FM-12+002199999V0200901N003619999999N010000199+01241+01161102511ADDAA103000091MA1999999102311MD1610041+9999OD139900621999OD249900511999REMSYN07060101 22960 00907 10124 20116 30231 40251 56004 333 60007 91010 91112=
0078601010999992023010603004+35727-005917FM-15+001999999V0200901N003619999999Y009900599+01201+01201999999ADDMA1102501999999REMMET051METAR GMTT 060300Z 09007KT CAVOK 12/12 Q1025 NOSIG=
0078601010999992023010603304+35727-005917FM-15+001999999V0200901N003119999999Y009900599+01201+01201999999ADDMA1102501999999REMMET051METAR GMTT 060330Z 09006KT CAVOK 12/12 Q1025 NOSIG=
0078601010999992023010604004+35727-005917FM-15+001999999V0200901N003619999999Y009900599+01201+01201999999ADDMA1102501999999REMMET051METAR GMTT 060400Z 09007KT CAVOK 12/12 Q1025 NOSIG=
0078601010999992023010604304+35727-005917FM-15+001999999V0200901N003619999999Y009900599+01201+01201999999ADDMA1102501999999REMMET051METAR GMTT 060430Z 09007KT CAVOK 12/12 Q1025 NOSIG=
0078601010999992023010605004+35727-005917FM-15+001999999V0200901N002619999999Y009900599+01201+01201999999ADDMA1102501999999REMMET051METAR GMTT 060500Z 09005KT CAVOK 12/12 Q1025 NOSIG=
0078601010999992023010605304+35727-005917FM-15+001999999V0200901N003119999999Y009900599+01201+01201999999ADDMA1102501999999REMMET051METAR GMTT 060530Z 09006KT CAVOK 12/12 Q1025 NOSIG=
0204601010999992023010606004+35733-005900FM-12+002199999V0200801N003119999999N010000199+01081+01081102551ADDAA103000091AA224000091KA1240N+01081MA1999999102351MD1310041+9999OD139900621999OD249900411999REMSYN10060101 02960 00806 10108 20108 30235 40255 53004 60004 333 20108 30011 55085 20000 60007 91008 91112=
0078601010999992023010606004+35727-005917FM-15+001999999V0200801N003119999999Y009900599+01101+01101999999ADDMA1102501999999REMMET051METAR GMTT 060600Z 08006KT CAVOK 11/11 Q1025 NOSIG=
0078601010999992023010606304+35727-005917FM-15+001999999V0200901N003119999999Y009900599+01101+01101999999ADDMA1102501999999REMMET051METAR GMTT 060630Z 09006KT CAVOK 11/11 Q1025 NOSIG=
0086601010999992023010607004+35727-005917FM-15+001999999V0200901V002619999999Y009900599+01101+01101999999ADDMA1102501999999REMMET059METAR GMTT 060700Z 09005KT 360V100 CAVOK 11/11 Q1025 NOSIG=
0078601010999992023010607304+35727-005917FM-15+001999999V0200901N002619999999Y009900599+01101+01101999999ADDMA1102601999999REMMET051METAR GMTT 060730Z 09005KT CAVOK 11/11 Q1026 NOSIG=
0078601010999992023010608004+35727-005917FM-15+001999999V0200801N002619999999Y009900599+01001+01001999999ADDMA1102601999999REMMET051METAR GMTT 060800Z 08005KT CAVOK 10/10 Q1026 NOSIG=
0078601010999992023010608304+35727-005917FM-15+001999999V0200901N002119999999Y009900599+01201+01201999999ADDMA1102601999999REMMET051METAR GMTT 060830Z 09004KT CAVOK 12/12 Q1026 NOSIG=
0150601010999992023010609004+35733-005900FM-12+002199999V0200901N002619999999N009000199+01361+01271102641ADDAA103000091MA1999999102441MD1110091+9999OD139900411999OD249900361999REMSYN07060101 22959 00905 10136 20127 30244 40264 51009 333 60007 91007 91108=
0107601010999992023010609004+35727-005917FM-15+001999999V0200901N002612200019N009000199+01401+01301999999ADDGF100991999999999999999999MA1102601999999REMMET054METAR GMTT 060900Z 09005KT 9000 NSC 14/13 Q1026 NOSIG=
0107601010999992023010609304+35727-005917FM-15+001999999V0200901N002612200019N009000199+01501+01301999999ADDGF100991999999999999999999MA1102601999999REMMET054METAR GMTT 060930Z 09005KT 9000 NSC 15/13 Q1026 NOSIG=
0107601010999992023010610004+35727-005917FM-15+001999999V0200901N002612200019N009000199+01501+01301999999ADDGF100991999999999999999999MA1102601999999REMMET054METAR GMTT 061000Z 09005KT 9000 NSC 15/13 Q1026 NOSIG=
0115601010999992023010610304+35727-005917FM-15+001999999V0200901V002612200019N009000199+01601+01301999999ADDGF100991999999999999999999MA1102701999999REMMET062METAR GMTT 061030Z 09005KT 060V130 9000 NSC 16/13 Q1027 NOSIG=
0086601010999992023010611004+35727-005917FM-15+001999999V0201001V002619999999Y009900599+01701+01301999999ADDMA1102601999999REMMET059METAR GMTT 061100Z 10005KT 060V130 CAVOK 17/13 Q1026 NOSIG=
0086601010999992023010611304+35727-005917FM-15+001999999V0201001V002619999999Y009900599+01801+01301999999ADDMA1102601999999REMMET059METAR GMTT 061130Z 10005KT 070V130 CAVOK 18/13 Q1026 NOSIG=
0243601010999992023010612004+35733-005900FM-12+002199999V0201701N001512200019N010000199+01861+01261102661ADDAA103000091AA206000091GA1011+004801081GE19AGL   +99999+99999GF101991011999004801999999MA1999999102461MD1990021+9999OD139900461999OD249900311999REMSYN08860101 02460 11703 10186 20126 30246 40266 50002 60001 81100 333 60007 81816 91006 91109=
0148601010999992023010612004+35727-005917FM-15+001999999V0209999V001019999999N009999199+01901+01301999999ADDGA1021+004881999GE19AGL   +99999+99999GF199999021999004881999999MA1102601999999REMMET057METAR GMTT 061200Z VRB02KT 9999 FEW016 19/13 Q1026 NOSIG=
0156601010999992023010612304+35727-005917FM-15+001999999V0202701V002619999999N009999199+01801+01301999999ADDGA1021+004881999GE19AGL   +99999+99999GF199999021999004881999999MA1102601999999REMMET065METAR GMTT 061230Z 27005KT 230V360 9999 FEW016 18/13 Q1026 NOSIG=
0156601010999992023010613004+35727-005917FM-15+001999999V0202801V002619999999N009999199+01801+01301999999ADDGA1021+004881999GE19AGL   +99999+99999GF199999021999004881999999MA1102501999999REMMET065METAR GMTT 061300Z 28005KT 230V310 9999 FEW016 18/13 Q1025 NOSIG=
0148601010999992023010613304+35727-005917FM-15+001999999V0202801N003119999999N009999199+01801+01401999999ADDGA1021+004881999GE19AGL   +99999+99999GF199999021999004881999999MA1102501999999REMMET057METAR GMTT 061330Z 28006KT 9999 FEW016 18/14 Q1025 NOSIG=
0156601010999992023010614004+35727-005917FM-15+001999999V0202901V002619999999N009999199+01901+01401999999ADDGA1021+004881999GE19AGL   +99999+99999GF199999021999004881999999MA1102501999999REMMET065METAR GMTT 061400Z 29005KT 260V320 9999 FEW016 19/14 Q1025 NOSIG=
0156601010999992023010614304+35727-005917FM-15+001999999V0203001V003119999999N009999199+01801+01301999999ADDGA1021+004881999GE19AGL   +99999+99999GF199999021999004881999999MA1102501999999REMMET065METAR GMTT 061430Z 30006KT 270V330 9999 FEW016 18/13 Q1025 NOSIG=
0226601010999992023010615004+35733-005900FM-12+002199999V0203201N002112200019N010000199+01831+01361102501ADDAA103000091GA1011+004801081GE19AGL   +99999+99999GF101991011999004801999999MA1999999102301MD1610161+9999OD139900461999OD249900411999REMSYN08260101 22460 13204 10183 20136 30230 40250 56016 81100 333 60007 81816 91008 91109=
0156601010999992023010615004+35727-005917FM-15+001999999V0203201V002119999999N009999199+01801+01401999999ADDGA1021+004881999GE19AGL   +99999+99999GF199999021999004881999999MA1102501999999REMMET065METAR GMTT 061500Z 32004KT 270V350 9999 FEW016 18/14 Q1025 NOSIG=
0086601010999992023010615304+35727-005917FM-15+001999999V0203101V002119999999Y009900599+01901+01401999999ADDMA1102401999999REMMET059METAR GMTT 061530Z 31004KT 260V350 CAVOK 19/14 Q1024 NOSIG=
0078601010999992023010616004+35727-005917FM-15+001999999V0200301N002619999999Y009900599+01801+01401999999ADDMA1102401999999REMMET051METAR GMTT 061600Z 03005KT CAVOK 18/14 Q1024 NOSIG=
0078601010999992023010616304+35727-005917FM-15+001999999V0200101N002619999999Y009900599+01801+01401999999ADDMA1102501999999REMMET051METAR GMTT 061630Z 01005KT CAVOK 18/14 Q1025 NOSIG=
0078601010999992023010617004+35727-005917FM-15+001999999V0200301N002119999999Y009900599+01701+01401999999ADDMA1102501999999REMMET051METAR GMTT 061700Z 03004KT CAVOK 17/14 Q1025 NOSIG=
0078601010999992023010617304+35727-005917FM-15+001999999V0200301N002119999999Y009900599+01601+01401999999ADDMA1102501999999REMMET051METAR GMTT 061730Z 03004KT CAVOK 16/14 Q1025 NOSIG=
0203601010999992023010618004+35733-005900FM-12+002199999V0203601N000519999999N010000199+01551+01371102541ADDAA103000091AA212000091AA324000091KA1120M+01901MA1999999102341MD1310041+9999OD139900461999OD249900261999REMSYN08860101 02960 03601 10155 20137 30234 40254 53004 60002 333 10190 60007 70000 91005 91109=
0078601010999992023010618004+35727-005917FM-15+001999999V0209999V000519999999Y009900599+01601+01401999999ADDMA1102501999999REMMET051METAR GMTT 061800Z VRB01KT CAVOK 16/14 Q1025 NOSIG=
0078601010999992023010618304+35727-005917FM-15+001999999V0203501N000519999999Y009900599+01501+01301999999ADDMA1102501999999REMMET051METAR GMTT 061830Z 35001KT CAVOK 15/13 Q1025 NOSIG=
0078601010999992023010619004+35727-005917FM-15+001999999V0209999V000519999999Y009900599+01401+01301999999ADDMA1102501999999REMMET051METAR GMTT 061900Z VRB01KT CAVOK 14/13 Q1025 NOSIG=
0148601010999992023010619304+35727-005917FM-15+001999999V0209999V000519999999N009999199+01401+01301999999ADDGA1021+004881999GE19AGL   +99999+99999GF199999021999004881999999MA1102601999999REMMET057METAR GMTT 061930Z VRB01KT 9999 FEW016 14/13 Q1026 NOSIG=
0148601010999992023010620004+35727-005917FM-15+001999999V0200701N001019999999N009999199+01301+01201999999ADDGA1021+004881999GE19AGL   +99999+99999GF199999021999004881999999MA1102601999999REMMET057METAR GMTT 062000Z 07002KT 9999 FEW016 13/12 Q1026 NOSIG=
0148601010999992023010620304+35727-005917FM-15+001999999V0200701N001019999999N009999199+01301+01301999999ADDGA1021+004881999GE19AGL   +99999+99999GF199999021999004881999999MA1102601999999REMMET057METAR GMTT 062030Z 07002KT 9999 FEW016 13/13 Q1026 NOSIG=
0226601010999992023010621004+35733-005900FM-12+002199999V0200701N002112200019N010000199+01181+01161102641ADDAA103000091GA1021+004801081GE19AGL   +99999+99999GF102991021999004801999999MA1999999102441MD1110101+9999OD139900311999OD249900311999REMSYN08260101 22460 20704 10118 20116 30244 40264 51010 82200 333 60007 82816 91006 91106=
0148601010999992023010621004+35727-005917FM-15+001999999V0200701N002119999999N009999199+01201+01201999999ADDGA1021+004881999GE19AGL   +99999+99999GF199999021999004881999999MA1102601999999REMMET057METAR GMTT 062100Z 07004KT 9999 FEW016 12/12 Q1026 NOSIG=
0148601010999992023010621304+35727-005917FM-15+001999999V0200801N002119999999N009999199+01201+01201999999ADDGA1021+004881999GE19AGL   +99999+99999GF199999021999004881999999MA1102601999999REMMET057METAR GMTT 062130Z 08004KT 9999 FEW016 12/12 Q1026 NOSIG=
0148601010999992023010622004+35727-005917FM-15+001999999V0200701N002119999999N009999199+01201+01201999999ADDGA1021+004881999GE19AGL   +99999+99999GF199999021999004881999999MA1102601999999REMMET057METAR GMTT 062200Z 07004KT 9999 FEW016 12/12 Q1026 NOSIG=
0148601010999992023010622304+35727-005917FM-15+001999999V0200801N002119999999N009999199+01101+01101999999ADDGA1021+004881999GE19AGL   +99999+99999GF199999021999004881999999MA1102601999999REMMET057METAR GMTT 062230Z 08004KT 9999 FEW016 11/11 Q1026 NOSIG=
0148601010999992023010623004+35727-005917FM-15+001999999V0200801N002119999999N009999199+01101+01101999999ADDGA1041+004881999GE19AGL   +99999+99999GF199999041999004881999999MA1102601999999REMMET057METAR GMTT 062300Z 08004KT 9999 SCT016 11/11 Q1026 NOSIG=
0148601010999992023010623304+35727-005917FM-15+001999999V0200401N002119999999N009999199+01101+01101999999ADDGA1041+004881999GE19AGL   +99999+99999GF199999041999004881999999MA1102601999999REMMET057METAR GMTT 062330Z 04004KT 9999 SCT016 11/11 Q1026 NOSIG=
0243601010999992023010700004+35733-005900FM-12+002199999V0200901N002112200019N010000199+01121+01121102671ADDAA103000091AA206000091GA1031+004801081GE19AGL   +99999+99999GF103991031999004801999999MA1999999102471MD1990031+9999OD139900311999OD249900261999REMSYN08860101 02460 30904 10112 20112 30247 40267 50003 60001 83200 333 60007 83816 91005 91106=
0156601010999992023010700004+35727-005917FM-15+001999999V0200901V002119999999N009999199+01101+01101999999ADDGA1041+004881999GE19AGL   +99999+99999GF199999041999004881999999MA1102601999999REMMET065METAR GMTT 070000Z 09004KT 360V100 9999 SCT016 11/11 Q1026 NOSIG=
0148601010999992023010700304+35727-005917FM-15+001999999V0201001N002119999999N009999199+01101+01101999999ADDGA1041+004881999GE19AGL   +99999+99999GF199999041999004881999999MA1102601999999REMMET057METAR GMTT 070030Z 10004KT 9999 SCT016 11/11 Q1026 NOSIG=
0152601010999992023010701004+35727-005917FM-15+001999999V0200801N002119999999N009999199+01101+01101999999ADDGA1021+004881999GE19AGL   +99999+99999GF199999021999004881999999MA1102601999999REMMET061METAR COR GMTT 070100Z 08004KT 9999 FEW016 11/11 Q1026 NOSIG=
0153601010999992023010701304+35727-005917FM-15+001999999V0200901N002619999999N009999199+01001+01001999999ADDGA1021+004881999GE19AGL   +99999+99999GF199999021999004881999999MA1102601999999REMMET062METAR GMTT 070130Z AUTO 09005KT 9999 FEW016 10/10 Q1026 NOSIG=
0153601010999992023010702004+35727-005917FM-15+001999999V0200801N003119999999N009999199+01001+01001999999ADDGA1021+004881999GE19AGL   +99999+99999GF199999021999004881999999MA1102601999999REMMET062METAR GMTT 070200Z AUTO 08006KT 9999 FEW016 10/10 Q1026 NOSIG=
0148601010999992023010702304+35727-005917FM-15+001999999V0200901N002619999999N009999199+01001+01001999999ADDGA1021+004881999GE19AGL   +99999+99999GF199999021999004881999999MA1102601999999REMMET057METAR GMTT 070230Z 09005KT 9999 FEW016 10/10 Q1026 NOSIG=
0150601010999992023010703004+35733-005900FM-12+002199999V0200801N002119999999N017000199+00961+00961102641ADDAA103000091MA1999999102441MD1510031+9999OD139900361999OD249900261999REMSYN07060101 22967 00804 10096 20096 30244 40264 55003 333 60007 91005 91107=
0078601010999992023010703004+35727-005917FM-15+001999999V0200801N002619999999Y009900599+01001+01001999999ADDMA1102601999999REMMET051METAR GMTT 070300Z 08005KT CAVOK 10/10 Q1026 NOSIG=
0078601010999992023010703304+35727-005917FM-15+001999999V0200901N002119999999Y009900599+01001+01001999999ADDMA1102601999999REMMET051METAR GMTT 070330Z 09004KT CAVOK 10/10 Q1026 NOSIG=
0078601010999992023010704004+35727-005917FM-15+001999999V0200801N002119999999Y009900599+01001+01001999999ADDMA1102601999999REMMET051METAR GMTT 070400Z 08004KT CAVOK 10/10 Q1026 NOSIG=
0083601010999992023010704304+35727-005917FM-15+001999999V0200901N002619999999Y009900599+00901+00901999999ADDMA1102601999999REMMET056METAR GMTT 070430Z AUTO 09005KT CAVOK 09/09 Q1026 NOSIG=
0078601010999992023010705004+35727-005917FM-15+001999999V0200901N002119999999Y009900599+00901+00901999999ADDMA1102601999999REMMET051METAR GMTT 070500Z 09004KT CAVOK 09/09 Q1026 NOSIG=
0078601010999992023010705304+35727-005917FM-15+001999999V0200901N002619999999Y009900599+00901+00901999999ADDMA1102601999999REMMET051METAR GMTT 070530Z 09005KT CAVOK 09/09 Q1026 NOSIG=
0198601010999992023010706004+35733-005900FM-12+002199999V0200701N002619999999N010000199+00891+00891102701ADDAA103000091AA224000091KA1240N+00871MA1999999102491MD1310051+9999OD139900361999OD249900311999REMSYN09460101 02960 00705 10089 20089 30249 40270 53005 60004 333 20087 55086 20000 60007 91006 91107=
0078601010999992023010706004+35727-005917FM-15+001999999V0200701N002619999999Y009900599+00901+00901999999ADDMA1102601999999REMMET051METAR GMTT 070600Z 07005KT CAVOK 09/09 Q1026 NOSIG=
0078601010999992023010706304+35727-005917FM-15+001999999V0200801N002119999999Y009900599+00901+00901999999ADDMA1102701999999REMMET051METAR GMTT 070630Z 08004KT CAVOK 09/09 Q1027 NOSIG=
0152601010999992023010707004+35727-005917FM-15+001999999V0200901N002119999999N009999199+01001+01001999999ADDGA1041+004881999GE19AGL   +99999+99999GF199999041999004881999999MA1102701999999REMMET061METAR COR GMTT 070700Z 09004KT 9999 SCT016 10/10 Q1027 NOSIG=
0148601010999992023010707304+35727-005917FM-15+001999999V0200801N001519999999N009999199+01001+01001999999ADDGA1041+004881999GE19AGL   +99999+99999GF199999041999004881999999MA1102701999999REMMET057METAR GMTT 070730Z 08003KT 9999 SCT016 10/10 Q1027 NOSIG=
0148601010999992023010708004+35727-005917FM-15+001999999V0200801N001019999999N009999199+01001+01001999999ADDGA1041+004881999GE19AGL   +99999+99999GF199999041999004881999999MA1102701999999REMMET057METAR GMTT 070800Z 08002KT 9999 SCT016 10/10 Q1027 NOSIG=
0171601010999992023010708304+35727-005917FM-15+001999999V0209999V00101007921CN009999199+01001+01001999999ADDGA1041+004881999GA2041+007921999GE19AGL   +99999+99999GF199999041999004881999999MA1102701999999REMMET064METAR GMTT 070830Z VRB02KT 9999 SCT016 SCT026 10/10 Q1027 NOSIG=
0248601010999992023010709004+35733-005900FM-12+002199999V0200201N00051012001CN010000199+01261+01261102821ADDAA103000091GA1031+007801081GA2031+012001061GE19AGL   +99999+99999GF105991031999007801999999MA1999999102621MD1310131+9999OD139900261999OD249900101999REMSYN08860101 22560 50201 10126 20126 30262 40282 53013 85800 333 60007 83826 83640 91002 91105=
0171601010999992023010709004+35727-005917FM-15+001999999V0209999V00051012191CN009999199+01301+01301999999ADDGA1041+007921999GA2041+012191999GE19AGL   +99999+99999GF199999041999007921999999MA1102801999999REMMET064METAR GMTT 070900Z VRB01KT 9999 SCT026 SCT040 13/13 Q1028 NOSIG=
0171601010999992023010709304+35727-005917FM-15+001999999V0209999V00101012191CN009999199+01401+01201999999ADDGA1041+007921999GA2041+012191999GE19AGL   +99999+99999GF199999041999007921999999MA1102801999999REMMET064METAR GMTT 070930Z VRB02KT 9999 SCT026 SCT040 14/12 Q1028 NOSIG=
0086601010999992023010710004+35727-005917FM-15+001999999V0201901V002619999999Y009900599+01501+01201999999ADDMA1102801999999REMMET059METAR GMTT 071000Z 19005KT 130V220 CAVOK 15/12 Q1028 NOSIG=
0086601010999992023010710304+35727-005917FM-15+001999999V0201701V002119999999Y009900599+01601+01301999999ADDMA1102801999999REMMET059METAR GMTT 071030Z 17004KT 120V220 CAVOK 16/13 Q1028 NOSIG=
0086601010999992023010711004+35727-005917FM-15+001999999V0201901V004119999999Y009900599+01601+01301999999ADDMA1102801999999REMMET059METAR GMTT 071100Z 19008KT 140V220 CAVOK 16/13 Q1028 NOSIG=
0086601010999992023010711304+35727-005917FM-15+001999999V0201801V003619999999Y009900599+01701+01201999999ADDMA1102701999999REMMET059METAR GMTT 071130Z 18007KT 130V220 CAVOK 17/12 Q1027 NOSIG=
0243601010999992023010712004+35733-005900FM-12+002199999V0201801N003112200019N010000199+01791+01241102761ADDAA103000091AA206000091GA1011+060001001GE19AGL   +99999+99999GF101991011999060001999999MA1999999102561MD1810061+9999OD139900821999OD249900621999REMSYN08860101 02960 11806 10179 20124 30256 40276 58006 60001 80001 333 60007 81070 91012 91116=
0086601010999992023010712004+35727-005917FM-15+001999999V0201801V003119999999Y009900599+01801+01201999999ADDMA1102701999999REMMET059METAR GMTT 071200Z 18006KT 140V220 CAVOK 18/12 Q1027 NOSIG=
0086601010999992023010712304+35727-005917FM-15+001999999V0201901V004119999999Y009900599+01801+01301999999ADDMA1102701999999REMMET059METAR GMTT 071230Z 19008KT 140V230 CAVOK 18/13 Q1027 NOSIG=
0086601010999992023010713004+35727-005917FM-15+001999999V0202001V003619999999Y009900599+01801+01201999999ADDMA1102601999999REMMET059METAR GMTT 071300Z 20007KT 150V260 CAVOK 18/12 Q1026 NOSIG=
0086601010999992023010713304+35727-005917FM-15+001999999V0202001V004119999999Y009900599+01801+01201999999ADDMA1102601999999REMMET059METAR GMTT 071330Z 20008KT 170V230 CAVOK 18/12 Q1026 NOSIG=
0086601010999992023010714004+35727-005917FM-15+001999999V0202201V003619999999Y009900599+01801+01301999999ADDMA1102601999999REMMET059METAR GMTT 071400Z 22007KT 180V260 CAVOK 18/13 Q1026 NOSIG=
0086601010999992023010714304+35727-005917FM-15+001999999V0202301V003619999999Y009900599+01801+01301999999ADDMA1102601999999REMMET059METAR GMTT 071430Z 23007KT 200V260 CAVOK 18/13 Q1026 NOSIG=
0150601010999992023010715004+35733-005900FM-12+002199999V0202301N004119999999N010000199+01801+01311102621ADDAA103000091MA1999999102421MD1610141+9999OD139900771999OD249900671999REMSYN07060101 22960 02308 10180 20131 30242 40262 56014 333 60007 91013 91115=
0086601010999992023010715004+35727-005917FM-15+001999999V0202301V004119999999Y009900599+01801+01301999999ADDMA1102601999999REMMET059METAR GMTT 071500Z 23008KT 200V260 CAVOK 18/13 Q1026 NOSIG=
0086601010999992023010715304+35727-005917FM-15+001999999V0202301V004119999999Y009900599+01801+01301999999ADDMA1102601999999REMMET059METAR GMTT 071530Z 23008KT 210V270 CAVOK 18/13 Q1026 NOSIG=
0078601010999992023010716004+35727-005917FM-15+001999999V0202301N004119999999Y009900599+01801+01401999999ADDMA1102601999999REMMET051METAR GMTT 071600Z 23008KT CAVOK 18/14 Q1026 NOSIG=
0078601010999992023010716304+35727-005917FM-15+001999999V0202301N003619999999Y009900599+01701+01401999999ADDMA1102601999999REMMET051METAR GMTT 071630Z 23007KT CAVOK 17/14 Q1026 NOSIG=
0086601010999992023010717004+35727-005917FM-15+001999999V0202201V003119999999Y009900599+01701+01401999999ADDMA1102601999999REMMET059METAR GMTT 071700Z 22006KT 180V260 CAVOK 17/14 Q1026 NOSIG=
0086601010999992023010717304+35727-005917FM-15+001999999V0202301V003119999999Y009900599+01601+01501999999ADDMA1102601999999REMMET059METAR GMTT 071730Z 23006KT 200V260 CAVOK 16/15 Q1026 NOSIG=
0301601010999992023010718004+35733-005900FM-12+002199999V0202301N003112200019N010000199+01621+01471102651ADDAA103000091AA212000091AA324000091GA1011+004801081GA2031+060001001GE19AGL   +99999+99999GF103991011999004801999999KA1120M+01881MA1999999102451MD1310031+9999OD139900771999OD249900621999REMSYN10660101 02460 32306 10162 20147 30245 40265 53003 60002 81102 333 10188 60007 70000 81816 83070 91012 91115=
0179601010999992023010718004+35727-005917FM-15+001999999V0202201V00311060961CN009999199+01601+01501999999ADDGA1021+004881999GA2041+060961999GE19AGL   +99999+99999GF199999021999004881999999MA1102601999999REMMET072METAR GMTT 071800Z 22006KT 190V260 9999 FEW016 SCT200 16/15 Q1026 NOSIG=
0179601010999992023010718304+35727-005917FM-15+001999999V0202101V00261060961CN009000199+01601+01501999999ADDGA1041+004881999GA2041+060961999GE19AGL   +99999+99999GF199999041999004881999999MA1102601999999REMMET072METAR GMTT 071830Z 21005KT 190V250 9000 SCT016 SCT200 16/15 Q1026 NOSIG=
0179601010999992023010719004+35727-005917FM-15+001999999V0202001V00211060961CN009000199+01601+01501999999ADDGA1021+004881999GA2041+060961999GE19AGL   +99999+99999GF199999021999004881999999MA1102601999999REMMET072METAR GMTT 071900Z 20004KT 160V240 9000 FEW016 SCT200 16/15 Q1026 NOSIG=
0179601010999992023010719304+35727-005917FM-15+001999999V0202001V00151060961CN008000199+01601+01401999999ADDGA1021+004881999GA2041+060961999GE19AGL   +99999+99999GF199999021999004881999999MA1102601999999REMMET072METAR GMTT 071930Z 20003KT 170V260 8000 FEW016 SCT200 16/14 Q1026 NOSIG=
0179601010999992023010720004+35727-005917FM-15+001999999V0201801V00211060961CN008000199+01501+01501999999ADDGA1021+004881999GA2041+060961999GE19AGL   +99999+99999GF199999021999004881999999MA1102601999999REMMET072METAR GMTT 072000Z 18004KT 120V220 8000 FEW016 SCT200 15/15 Q1026 NOSIG=
0179601010999992023010720304+35727-005917FM-15+001999999V0201801V00261060961CN007000199+01501+01401999999ADDGA1021+004881999GA2041+060961999GE19AGL   +99999+99999GF199999021999004881999999MA1102601999999REMMET072METAR GMTT 072030Z 18005KT 110V230 7000 FEW016 SCT200 15/14 Q1026 NOSIG=
0254601010999992023010721004+35733-005900FM-12+002199999V0201901N002112200019N007000199+01491+01411102741ADDAA103000091GA1021+006301081GA2031+069001001GE19AGL   +99999+99999GF103991021999006301999999MA1999999102541MD1310091+9999OD139900671999OD249900361999REMSYN09460101 22557 31904 10149 20141 30254 40274 53009 82102 92347 333 60007 82821 83073 91007 91113=
0179601010999992023010721004+35727-005917FM-15+001999999V0201901V00211070101CN007000199+01501+01401999999ADDGA1021+006401999GA2041+070101999GE19AGL   +99999+99999GF199999021999006401999999MA1102701999999REMMET072METAR GMTT 072100Z 19004KT 140V230 7000 FEW021 SCT230 15/14 Q1027 NOSIG=
0179601010999992023010721304+35727-005917FM-15+001999999V0201801V00211070101CN007000199+01501+01401999999ADDGA1021+007011999GA2041+070101999GE19AGL   +99999+99999GF199999021999007011999999MA1102701999999REMMET072METAR GMTT 072130Z 18004KT 130V210 7000 FEW023 SCT230 15/14 Q1027 NOSIG=
0179601010999992023010722004+35727-005917FM-15+001999999V0201801V00261070101CN007000199+01401+01401999999ADDGA1021+007011999GA2041+070101999GE19AGL   +99999+99999GF199999021999007011999999MA1102701999999REMMET072METAR GMTT 072200Z 18005KT 140V220 7000 FEW023 SCT230 14/14 Q1027 NOSIG=
0179601010999992023010722304+35727-005917FM-15+001999999V0201701V00261070101CN007000199+01401+01401999999ADDGA1021+007011999GA2041+070101999GE19AGL   +99999+99999GF199999021999007011999999MA1102701999999REMMET072METAR GMTT 072230Z 17005KT 130V210 7000 FEW023 SCT230 14/14 Q1027 NOSIG=
0179601010999992023010723004+35727-005917FM-15+001999999V0201801V002610701019N007000199+01501+01401999999ADDGA1021+007011999GA2071+070101999GE19AGL   +99999+99999GF199999021999007011999999MA1102701999999REMMET072METAR GMTT 072300Z 18005KT 100V220 7000 FEW023 BKN230 15/14 Q1027 NOSIG=
0179601010999992023010723304+35727-005917FM-15+001999999V0201701V002110701019N007000199+01401+01401999999ADDGA1021+007011999GA2071+070101999GE19AGL   +99999+99999GF199999021999007011999999MA1102701999999REMMET072METAR GMTT 072330Z 17004KT 120V220 7000 FEW023 BKN230 14/14 Q1027 NOSIG=
0265601010999992023010800004+35733-005900FM-12+002199999V0201801N00261069001CN007000199+01421+01361102721ADDAA103000091AA206000091GA1011+006901081GA2051+069001001GE19AGL   +99999+99999GF105991011999006901999999MA1999999102521MD1810021+9999OD139900671999OD249900511999REMSYN09460101 02557 51805 10142 20136 30252 40272 58002 60001 81102 333 60007 81823 85073 91010 91113=
0179601010999992023010800004+35727-005917FM-15+001999999V0201801V002610701019N007000199+01401+01401999999ADDGA1021+007011999GA2071+070101999GE19AGL   +99999+99999GF199999021999007011999999MA1102701999999REMMET072METAR GMTT 080000Z 18005KT 130V220 7000 FEW023 BKN230 14/14 Q1027 NOSIG=
0179601010999992023010800304+35727-005917FM-15+001999999V0201801V00261070101CN007000199+01401+01401999999ADDGA1021+007011999GA2041+070101999GE19AGL   +99999+99999GF199999021999007011999999MA1102601999999REMMET072METAR GMTT 080030Z 18005KT 130V200 7000 FEW023 SCT230 14/14 Q1026 NOSIG=
0156601010999992023010801004+35727-005917FM-15+001999999V0201701V002619999999N007000199+01401+01401999999ADDGA1021+007011999GE19AGL   +99999+99999GF199999021999007011999999MA1102601999999REMMET065METAR GMTT 080100Z 17005KT 130V210 7000 FEW023 14/14 Q1026 NOSIG=
0156601010999992023010801304+35727-005917FM-15+001999999V0201701V003619999999N007000199+01401+01401999999ADDGA1021+007011999GE19AGL   +99999+99999GF199999021999007011999999MA1102601999999REMMET065METAR GMTT 080130Z 17007KT 130V200 7000 FEW023 14/14 Q1026 NOSIG=
0156601010999992023010802004+35727-005917FM-15+001999999V0201801V002619999999N007000199+01401+01401999999ADDGA1021+007011999GE19AGL   +99999+99999GF199999021999007011999999MA1102601999999REMMET065METAR GMTT 080200Z 18005KT 130V210 7000 FEW023 14/14 Q1026 NOSIG=
0161601010999992023010802304+35727-005917FM-15+001999999V0201701V003619999999N007000199+01401+01301999999ADDGA1021+007011999GE19AGL   +99999+99999GF199999021999007011999999MA1102601999999REMMET070METAR GMTT 080230Z AUTO 17007KT 120V220 7000 FEW023 14/13 Q1026 NOSIG=
0242601010999992023010803004+35733-005900FM-12+002199999V0201801N003612200019N007000199+01361+01281102651ADDAA103000091GA1031+006901081GA2999+999999001GE19AGL   +99999+99999GF104991031999006901999999MA1999999102451MD1510071+9999OD139900771999OD249900721999REMSYN08260101 22557 41807 10136 20128 30245 40265 55007 83102 333 60007 83823 91014 91115=
0156601010999992023010803004+35727-005917FM-15+001999999V0201801V003619999999N007000199+01401+01301999999ADDGA1041+007011999GE19AGL   +99999+99999GF199999041999007011999999MA1102601999999REMMET065METAR GMTT 080300Z 18007KT 140V210 7000 SCT023 14/13 Q1026 NOSIG=
0179601010999992023010803304+35727-005917FM-15+001999999V0201801V00411016151CN007000199+01401+01301999999ADDGA1021+007011999GA2041+016151999GE19AGL   +99999+99999GF199999021999007011999999MA1102601999999REMMET072METAR GMTT 080330Z 18008KT 130V210 7000 FEW023 SCT053 14/13 Q1026 NOSIG=
0179601010999992023010804004+35727-005917FM-15+001999999V0201801V004110161519N007000199+01401+01301999999ADDGA1021+007011999GA2071+016151999GE19AGL   +99999+99999GF199999021999007011999999MA1102601999999REMMET072METAR GMTT 080400Z 18008KT 130V220 7000 FEW023 BKN053 14/13 Q1026 NOSIG=
0183601010999992023010804304+35727-005917FM-15+001999999V0201801V004610161519N007000199+01401+01301999999ADDGA1021+006101999GA2071+016151999GE19AGL   +99999+99999GF199999021999006101999999MA1102501999999REMMET076METAR COR GMTT 080430Z 18009KT 140V210 7000 FEW020 BKN053 14/13 Q1025 NOSIG=
0179601010999992023010805004+35727-005917FM-15+001999999V0201801V00511016151CN008000199+01401+01301999999ADDGA1021+006101999GA2041+016151999GE19AGL   +99999+99999GF199999021999006101999999MA1102501999999REMMET072METAR GMTT 080500Z 18010KT 130V220 8000 FEW020 SCT053 14/13 Q1025 NOSIG=
0179601010999992023010805304+35727-005917FM-15+001999999V0201801V00511016151CN007000199+01501+01401999999ADDGA1021+006101999GA2041+016151999GE19AGL   +99999+99999GF199999021999006101999999MA1102501999999REMMET072METAR GMTT 080530Z 18010KT 120V220 7000 FEW020 SCT053 15/14 Q1025 NOSIG=
0302601010999992023010806004+35733-005900FM-12+002199999V0201801N00511015001CN008000199+01471+01371102581ADDAA103000091AA224000091GA1021+006301081GA2051+015001061GE19AGL   +99999+99999GF106991021999006301999999KA1240N+01341MA1999999102381MD1510071+9999OD139900981999OD249900881999REMSYN11860101 02558 61810 10147 20137 30238 40258 55007 60004 86800 333 20134 30011 55092 21155 60007 82821 85650 91017 91119=
0171601010999992023010806004+35727-005917FM-15+001999999V0201801N005110161519N007000199+01501+01401999999ADDGA1021+006401999GA2071+016151999GE19AGL   +99999+99999GF199999021999006401999999MA1102501999999REMMET064METAR GMTT 080600Z 18010KT 7000 FEW021 BKN053 15/14 Q1025 NOSIG=
0179601010999992023010806304+35727-005917FM-15+001999999V0201801V005110161519N007000199+01501+01301999999ADDGA1021+006401999GA2071+016151999GE19AGL   +99999+99999GF199999021999006401999999MA1102501999999REMMET072METAR GMTT 080630Z 18010KT 140V220 7000 FEW021 BKN053 15/13 Q1025 NOSIG=
0190601010999992023010807004+35727-005917FM-15+001999999V0201801V004610152419N008000199+01501+01301999999ADDGA1021+006101999GA2071+015241999GE19AGL   +99999+99999GF199999021999006101999999MA1102501999999OC100981REMMET075METAR GMTT 080700Z 18009G19KT 120V210 8000 FEW020 BKN050 15/13 Q1025 NOSIG=
0179601010999992023010807304+35727-005917FM-15+001999999V0201801V005710152419N009999199+01501+01301999999ADDGA1021+006101999GA2071+015241999GE19AGL   +99999+99999GF199999021999006101999999MA1102501999999REMMET072METAR GMTT 080730Z 18011KT 130V210 9999 FEW020 BKN050 15/13 Q1025 NOSIG=
0179601010999992023010808004+35727-005917FM-15+001999999V0201801V004610131119N008000199+01501+01301999999ADDGA1021+006101999GA2071+013111999GE19AGL   +99999+99999GF199999021999006101999999MA1102601999999REMMET072METAR GMTT 080800Z 18009KT 120V220 8000 FEW020 BKN043 15/13 Q1026 NOSIG=
0190601010999992023010808304+35727-005917FM-15+001999999V0201801V004610131119N008000199+01501+01301999999ADDGA1021+006101999GA2071+013111999GE19AGL   +99999+99999GF199999021999006101999999MA1102601999999OC100981REMMET075METAR GMTT 080830Z 18009G19KT 140V220 8000 FEW020 BKN043 15/13 Q1026 NOSIG=
0248601010999992023010809004+35733-005900FM-12+002199999V0201801N00511012001CN008000199+01521+01291102621ADDAA103000091GA1021+006001081GA2061+012001061GE19AGL   +99999+99999GF107991021999006001999999MA1999999102421MD1310041+9999OD139901181999OD249901081999REMSYN08860101 22558 71810 10152 20129 30242 40262 53004 878// 333 60007 82820 86640 91021 91123=
0190601010999992023010809004+35727-005917FM-15+001999999V0201801V005110121919N008000199+01501+01301999999ADDGA1021+006101999GA2071+012191999GE19AGL   +99999+99999GF199999021999006101999999MA1102601999999OC101081REMMET075METAR GMTT 080900Z 18010G21KT 140V220 8000 FEW020 BKN040 15/13 Q1026 NOSIG=
0190601010999992023010809304+35727-005917FM-15+001999999V0201801V005710121919N008000199+01501+01301999999ADDGA1021+006101999GA2071+012191999GE19AGL   +99999+99999GF199999021999006101999999MA1102601999999OC101081REMMET075METAR GMTT 080930Z 18011G21KT 140V210 8000 FEW020 BKN040 15/13 Q1026 NOSIG=
0182601010999992023010810004+35727-005917FM-15+001999999V0209999V004610121919N008000199+01501+01301999999ADDGA1021+006101999GA2071+012191999GE19AGL   +99999+99999GF199999021999006101999999MA1102601999999OC101131REMMET067METAR GMTT 081000Z VRB09G22KT 8000 FEW020 BKN040 15/13 Q1026 NOSIG=
0190601010999992023010810304+35727-005917FM-15+001999999V0201901V006210121919N008000199+01601+01301999999ADDGA1021+006101999GA2071+012191999GE19AGL   +99999+99999GF199999021999006101999999MA1102701999999OC101131REMMET075METAR GMTT 081030Z 19012G22KT 140V210 8000 FEW020 BKN040 16/13 Q1027 NOSIG=
0190601010999992023010811004+35727-005917FM-15+001999999V0201901V006210121919N008000199+01601+01301999999ADDGA1021+006101999GA2071+012191999GE19AGL   +99999+99999GF199999021999006101999999MA1102601999999OC101181REMMET075METAR GMTT 081100Z 19012G23KT 160V220 8000 FEW020 BKN040 16/13 Q1026 NOSIG=
0179601010999992023010811304+35727-005917FM-15+001999999V0201901V006710121919N008000199+01701+01401999999ADDGA1021+006101999GA2071+012191999GE19AGL   +99999+99999GF199999021999006101999999MA1102601999999REMMET072METAR GMTT 081130Z 19013KT 150V220 8000 FEW020 BKN040 17/14 Q1026 NOSIG=
