0216601010999992013010100004+35733-005900SY-MT+0021GMTT V0202001N002610048019N0080001N1+01261+00921102481ADDGA1071+004801999GF107991051021004501999999MA1102401999999MD1610051+9999REMSYN070AAXX  01004 60101 32458 72005 10126 20092 40248 56005 852// 333 87816;MET057METAR GMTT 010000Z 20005KT 8000 BKN016 13/09 Q1024 NOSIG;
0080601010999992013010103004+35733-005900FM-12+0021GMTT V0202101N003619999999N9999999N1+01161+00931102351ADDMD1810121+9999REMSYN054AAXX  01034 60101 46/// /2107 10116 20093 40235 58012;
0135601010999992013010104004+35733-005900FM-15+0021GMTT V0202001N003110048019N0080001N1+01101+00901999999ADDGA1071+004801999GF107991999999999999999999MA1102301999999REMMET066METAR GMTT 010400Z 20006KT 8000 R28///// BKN016 11/09 Q1023 NOSIG;
0136601010999992013010104304+35733-005900FM-15+0021GMTT V0202001N005110048019N0060001N1+01101+01001999999ADDGA1071+004801999GF107991999999999999999999MA1102301999999MW1611REMMET061METAR GMTT 010430Z 20010KT 6000 -RA BKN016 11/10 Q1023 NOSIG;
0136601010999992013010105004+35733-005900FM-15+0021GMTT V0202101N004610048019N0060001N1+01101+01001999999ADDGA1071+004801999GF107991999999999999999999MA1102201999999MW1611REMMET061METAR GMTT 010500Z 21009KT 6000 -RA BKN016 11/10 Q1022 NOSIG;
0136601010999992013010105304+35733-005900FM-15+0021GMTT V0202001N004610048019N0060001N1+01101+01001999999ADDGA1071+004801999GF107991999999999999999999MA1102201999999MW1611REMMET061METAR GMTT 010530Z 20009KT 6000 -RA BKN016 11/10 Q1022 NOSIG;
0284601010999992013010106004+35733-005900SY-MT+0021GMTT V0201901N005710048019N0060001N1+01121+00991102301ADDAA124001091AY161061AY261061GA1071+004801999GF107991071021004501999999KA1999N+01101MA1102201999999MD1810051+9999MW1601REMSYN088AAXX  01064 60101 11456 71911 10112 20099 40230 58005 60014 76066 872// 333 20110 87816;MET061METAR GMTT 010600Z 19011KT 6000 -RA BKN016 11/10 Q1022 NOSIG;
0136601010999992013010106304+35733-005900FM-15+0021GMTT V0201901N005110048019N0060001N1+01101+01001999999ADDGA1071+004801999GF107991999999999999999999MA1102201999999MW1611REMMET061METAR GMTT 010630Z 19010KT 6000 -RA BKN016 11/10 Q1022 NOSIG;
0136601010999992013010107004+35733-005900FM-15+0021GMTT V0201901N005110048019N0060001N1+01101+01001999999ADDGA1071+004801999GF107991999999999999999999MA1102201999999MW1611REMMET061METAR GMTT 010700Z 19010KT 6000 -RA BKN016 11/10 Q1022 NOSIG;
0134601010999992013010107304+35733-005900FM-15+0021GMTT V0202001N005710048019N0080001N1+01101+01001999999ADDGA1071+004801999GF107991999999999999999999MA1102201999999REMMET065METAR GMTT 010730Z 20011KT 170V230 8000 BKN016 11/10 Q1022 NOSIG;
0126601010999992013010108004+35733-005900FM-15+0021GMTT V0202001N005710048019N0080001N1+01201+01001999999ADDGA1071+004801999GF107991999999999999999999MA1102301999999REMMET057METAR GMTT 010800Z 20011KT 8000 BKN016 12/10 Q1023 NOSIG;
0277601010999992013010109004+35733-005900SY-MT+0021GMTT V0202001N006710048019N0060001N1+01191+01051102321ADDAY161031AY221031GA1041+002401999GA2071+004801999GF108991081021002501999999MA1102301999999MD1310011+9999MW1601REMSYN082AAXX  01094 60101 41356 82013 10119 20105 40232 53001 76062 882// 333 84708 86816;MET068METAR GMTT 010900Z 20013KT 6000 -RA SCT008 BKN016 12/11 Q1023 NOSIG;
0149601010999992013010110004+35733-005900FM-15+0021GMTT V0202001N007210048019N0080001N1+01301+01101999999ADDGA1041+001801999GA2071+004801999GF107991999999999999999999MA1102201999999REMMET064METAR GMTT 011000Z 20014KT 8000 SCT006 BKN016 13/11 Q1022 NOSIG;
0149601010999992013010111004+35733-005900FM-15+0021GMTT V0202001N006210048019N0080001N1+01301+01101999999ADDGA1041+001801999GA2071+004801999GF107991999999999999999999MA1102301999999REMMET064METAR GMTT 011100Z 20012KT 8000 SCT006 BKN016 13/11 Q1023 NOSIG;
0296601010999992013010112004+35733-005900SY-MT+0021GMTT V0202001N007210048019N0050001N1+01291+01111102281ADDAA106000591AY181061AY261061GA1041+001801999GA2071+004801999GF107991071021002501999999MA1102201999999MD1610041+9999MW1801REMSYN088AAXX  01124 60101 11350 72014 10129 20111 40228 56004 69961 78086 872// 333 83706 86816;MET070METAR GMTT 011200Z 20013KT 5000 -SHRA SCT006 BKN016 13/11 Q1022 NOSIG;
0149601010999992013010113004+35733-005900FM-15+0021GMTT V0202001N007210048019N0080001N1+01301+01101999999ADDGA1041+001801999GA2071+004801999GF107991999999999999999999MA1102201999999REMMET064METAR GMTT 011300Z 20014KT 8000 SCT006 BKN016 13/11 Q1022 NOSIG;
0126601010999992013010114004+35733-005900FM-15+0021GMTT V0202001N006710048019N0080001N1+01401+01201999999ADDGA1071+004801999GF107991999999999999999999MA1102101999999REMMET057METAR GMTT 011400Z 20013KT 8000 BKN016 14/12 Q1021 NOSIG;
0126601010999992013010114304+35733-005900FM-15+0021GMTT V0202001N006710048019N0080001N1+01401+01201999999ADDGA1071+004801999GF107991999999999999999999MA1102101999999REMMET057METAR GMTT 011430Z 20013KT 8000 BKN016 14/12 Q1021 NOSIG;
0235601010999992013010115004+35733-005900SY-MT+0021GMTT V0202001N006210048019N0080001N1+01441+01161102211ADDGA1071+004801999GF199999051021004501001001MA1102201999999MD1810071+9999REMSYN070AAXX  01154 60101 42458 52012 10144 20116 40221 58007 85200 333 85816;MET057METAR GMTT 011500Z 20012KT 8000 BKN016 14/12 Q1022 NOSIG;EQDQ01+000052SCOTCV
0126601010999992013010115304+35733-005900FM-15+0021GMTT V0202001N004610048019N0080001N1+01501+01201999999ADDGA1071+004801999GF107991999999999999999999MA1102101999999REMMET057METAR GMTT 011530Z 20009KT 8000 BKN016 15/12 Q1021 NOSIG;
0126601010999992013010116004+35733-005900FM-15+0021GMTT V0202201N003610048019N0080001N1+01501+01201999999ADDGA1071+004801999GF107991999999999999999999MA1102201999999REMMET057METAR GMTT 011600Z 22007KT 8000 BKN016 15/12 Q1022 NOSIG;
0135601010999992013010116304+35733-005900FM-15+0021GMTT V0203301N003610048019N0080001N1+01401+01201999999ADDGA1071+004801999GF107991999999999999999999MA1102201999999REMMET066METAR GMTT 011630Z 33007KT 8000 R28///// BKN016 14/12 Q1022 NOSIG;
0126601010999992013010117004+35733-005900FM-15+0021GMTT V0203201N002110048019N0080001N1+01401+01101999999ADDGA1071+004801999GF107991999999999999999999MA1102201999999REMMET057METAR GMTT 011700Z 32004KT 8000 BKN016 14/11 Q1022 NOSIG;
0126601010999992013010117304+35733-005900FM-15+0021GMTT V0203101N001510048019N0080001N1+01301+01101999999ADDGA1071+004801999GF107991999999999999999999MA1102201999999REMMET057METAR GMTT 011730Z 31003KT 8000 BKN016 13/11 Q1022 NOSIG;
0271601010999992013010118004+35733-005900SY-MT+0021GMTT V0203101N002110048019N0080001N1+01221+01011102321ADDAA112001091GA1071+004801999GF199999051021004501001001KA1120M+01541MA1102301999999MD1310111+9999REMSYN082AAXX  01184 60101 12458 53104 10122 20101 40232 53011 60012 85200 333 10154 85816;MET057METAR GMTT 011800Z 31004KT 8000 BKN016 12/10 Q1023 NOSIG;EQDQ01+000052SCOTCV
0126601010999992013010118304+35733-005900FM-15+0021GMTT V0209999C000010048019N0080001N1+01101+00901999999ADDGA1071+004801999GF107991999999999999999999MA1102301999999REMMET057METAR GMTT 011830Z 00000KT 8000 BKN016 11/09 Q1023 NOSIG;
0126601010999992013010119004+35733-005900FM-15+0021GMTT V0209999C000010048019N0080001N1+01101+00901999999ADDGA1071+004801999GF107991999999999999999999MA1102301999999REMMET057METAR GMTT 011900Z 00000KT 8000 BKN016 11/09 Q1023 NOSIG;
0134601010999992013010119304+35733-005900FM-15+0021GMTT V0203201N002110048019N0080001N1+01201+01101999999ADDGA1071+004801999GF107991999999999999999999MA1102401999999REMMET065METAR GMTT 011930Z 32004KT 280V340 8000 BKN016 12/11 Q1024 NOSIG;
0126601010999992013010120004+35733-005900FM-15+0021GMTT V0203301N002110048019N0080001N1+01201+01101999999ADDGA1071+004801999GF107991999999999999999999MA1102401999999REMMET057METAR GMTT 012000Z 33004KT 8000 BKN016 12/11 Q1024 NOSIG;
0126601010999992013010120304+35733-005900FM-15+0021GMTT V0200101N002610048019N0080001N1+01201+01001999999ADDGA1071+004801999GF107991999999999999999999MA1102401999999REMMET057METAR GMTT 012030Z 01005KT 8000 BKN016 12/10 Q1024 NOSIG;
0216601010999992013010121004+35733-005900SY-MT+0021GMTT V0200301N000510048019N0080001N1+01061+00851102471ADDGA1071+004801999GF199999051021004501001001MA1102401999999MD1110141+9999REMSYN070AAXX  01214 60101 42458 50301 10106 20085 40247 51014 85200 333 85816;MET057METAR GMTT 012100Z VRB01KT 8000 BKN016 11/09 Q1024 NOSIG;
0126601010999992013010122004+35733-005900FM-15+0021GMTT V0209999V001010048019N0080001N1+00901+00701999999ADDGA1071+004801999GF107991999999999999999999MA1102401999999REMMET057METAR GMTT 012200Z VRB02KT 8000 BKN016 09/07 Q1024 NOSIG;
0126601010999992013010123004+35733-005900FM-15+0021GMTT V0203301N001512200019N0080001N1+00901+00601999999ADDGA1041+004801999GF104991999999999999999999MA1102401999999REMMET057METAR GMTT 012300Z 33003KT 8000 SCT016 09/06 Q1024 NOSIG;
0235601010999992013010200004+35733-005900SY-MT+0021GMTT V0201501N001012200019N0080001N1+00841+00641102521ADDGA1041+004801999GF199999031021004501001001MA1102511999999MD1310051+9999REMSYN070AAXX  02004 60101 32458 31502 10084 20064 40252 53005 83200 333 83816;MET057METAR GMTT 020000Z VRB02KT 8000 SCT016 08/06 Q1025 NOSIG;EQDQ01+000032SCOTCV
0092601010999992013010200304+35733-005900FM-15+0021GMTT V0203601N001512200019N9999999N1+00701+00601999999ADDMA1102401999999REMMET065METAR GMTT 020030Z AUTO 36003KT 330V030 R28///// /// 07/06 Q1024;
0092601010999992013010201004+35733-005900FM-15+0021GMTT V0203501N002112200019N9999999N1+00801+00601999999ADDMA1102401999999REMMET065METAR GMTT 020100Z AUTO 35004KT 310V030 R28///// /// 08/06 Q1024;
0084601010999992013010201304+35733-005900FM-15+0021GMTT V0203101N003612200019N9999999N1+01101+00901999999ADDMA1102401999999REMMET057METAR GMTT 020130Z AUTO 31007KT R28///// /// 11/09 Q1024;
0084601010999992013010202004+35733-005900FM-15+0021GMTT V0203201N003112200019N9999999N1+01201+00901999999ADDMA1102401999999REMMET057METAR GMTT 020200Z AUTO 32006KT R28///// /// 12/09 Q1024;
0084601010999992013010202304+35733-005900FM-15+0021GMTT V0203201N003112200019N9999999N1+01201+00801999999ADDMA1102401999999REMMET057METAR GMTT 020230Z AUTO 32006KT R28///// /// 12/08 Q1024;
0143601010999992013010203004+35733-005900SY-MT+0021GMTT V0203301N002619999999N9999999N1+01121+00731102511ADDMD1810011+9999REMSYN054AAXX  02034 60101 469// /3305 10112 20073 40251 58001;MET057METAR GMTT 020300Z AUTO 33005KT R28///// /// 11/07 Q1024;
0092601010999992013010203304+35733-005900FM-15+0021GMTT V0203401N001512200019N9999999N1+01001+00701999999ADDMA1102401999999REMMET065METAR GMTT 020330Z AUTO 34003KT 300V360 R28///// /// 10/07 Q1024;
0084601010999992013010204004+35733-005900FM-15+0021GMTT V0203301N002612200019N9999999N1+01001+00701999999ADDMA1102401999999REMMET057METAR GMTT 020400Z AUTO 33005KT R28///// /// 10/07 Q1024;
0084601010999992013010204304+35733-005900FM-15+0021GMTT V0209999C000012200019N9999999N1+00901+00601999999ADDMA1102401999999REMMET057METAR GMTT 020430Z AUTO 00000KT R28///// /// 09/06 Q1024;
0126601010999992013010205004+35733-005900FM-15+0021GMTT V0203201N001512200019N0080001N1+00801+00601999999ADDGA1041+004801999GF104991999999999999999999MA1102401999999REMMET057METAR GMTT 020500Z 32003KT 8000 SCT016 08/06 Q1024 NOSIG;
0271601010999992013010206004+35733-005900SY-MT+0021GMTT V0203201N004110048019N0080001N1+01111+00801102471ADDAA124001091GA1071+004801999GF199999051051004501001001KA1999N+00731MA1102401999999MD1810041+9999REMSYN082AAXX  02064 60101 12458 53208 10111 20080 40247 58004 60014 85500 333 20073 85616;MET057METAR GMTT 020600Z 32008KT 8000 BKN016 11/08 Q1024 NOSIG;EQDQ01+000052SCOTCV
0126601010999992013010207004+35733-005900FM-15+0021GMTT V0201001N001512200019N0080001N1+00701+00501999999ADDGA1041+004801999GF104991999999999999999999MA1102511999999REMMET057METAR GMTT 020700Z 10003KT 8000 SCT016 07/05 Q1025 NOSIG;
0149601010999992013010208004+35733-005900FM-15+0021GMTT V0209999C000012200019N0080001N1+00601+00501999999ADDGA1041+004801999GA2041+060001999GF104991999999999999999999MA1102511999999REMMET064METAR GMTT 020800Z 00000KT 8000 SCT016 SCT200 06/05 Q1025 NOSIG;
0149601010999992013010208304+35733-005900FM-15+0021GMTT V0209999V001012200019N0080001N1+00701+00501999999ADDGA1041+004801999GA2041+060001999GF104991999999999999999999MA1102511999999REMMET064METAR GMTT 020830Z VRB02KT 8000 SCT016 SCT200 07/05 Q1025 NOSIG;
0245601010999992013010209004+35733-005900SY-MT+0021GMTT V0200601N001010600019N0080001N1+00871+00731102581ADDGA1041+004801999GA2041+060001999GF105991031051004501001021MA1102511999999MD1110121+9999REMSYN076AAXX  02094 60101 42458 50602 10087 20073 40258 51012 83502 333 83616 84070;MET064METAR GMTT 020900Z 06002KT 8000 SCT016 SCT200 09/07 Q1025 NOSIG;
0149601010999992013010209304+35733-005900FM-15+0021GMTT V0209999V000512200019N0080001N1+01101+00901999999ADDGA1041+005101999GA2041+060001999GF104991999999999999999999MA1102511999999REMMET064METAR GMTT 020930Z VRB01KT 8000 SCT017 SCT200 11/09 Q1025 NOSIG;
0157601010999992013010210004+35733-005900FM-15+0021GMTT V0201401N001512200019N0080001N1+01201+01001999999ADDGA1041+004801999GA2041+060001999GF104991999999999999999999MA1102611999999REMMET072METAR GMTT 021000Z 14003KT 100V190 8000 SCT016 SCT200 12/10 Q1026 NOSIG;
0149601010999992013010210304+35733-005900FM-15+0021GMTT V0201801N003112200019N0080001N1+01301+00901999999ADDGA1041+004801999GA2041+060001999GF104991999999999999999999MA1102611999999REMMET064METAR GMTT 021030Z 18006KT 8000 SCT016 SCT200 13/09 Q1026 NOSIG;
0149601010999992013010211004+35733-005900FM-15+0021GMTT V0201801N003112200019N0080001N1+01401+01001999999ADDGA1041+004801999GA2041+060001999GF104991999999999999999999MA1102611999999REMMET064METAR GMTT 021100Z 18006KT 8000 SCT016 SCT200 14/10 Q1026 NOSIG;
0149601010999992013010211304+35733-005900FM-15+0021GMTT V0201901N002612200019N0080001N1+01401+00901999999ADDGA1041+004801999GA2041+060001999GF104991999999999999999999MA1102611999999REMMET064METAR GMTT 021130Z 19005KT 8000 SCT016 SCT200 14/09 Q1026 NOSIG;
0253601010999992013010212004+35733-005900SY-MT+0021GMTT V0201801N002610600019N0080001N1+01431+00911102611ADDGA1041+004801999GA2041+060001999GF105991031051004501001021MA1102611999999MD1010031+9999REMSYN076AAXX  02124 60101 32458 51805 10143 20091 40261 50003 83502 333 83616 84070;MET072METAR GMTT 021200Z 18005KT 140V240 8000 SCT016 SCT200 14/09 Q1026 NOSIG;
0157601010999992013010212304+35733-005900FM-15+0021GMTT V0202001N001512200019N0080001N1+01601+01001999999ADDGA1041+004801999GA2041+060001999GF104991999999999999999999MA1102611999999REMMET072METAR GMTT 021230Z 20003KT 140V260 8000 SCT016 SCT200 16/10 Q1026 NOSIG;
0157601010999992013010213004+35733-005900FM-15+0021GMTT V0201901N002612200019N0080001N1+01601+00901999999ADDGA1041+004801999GA2041+060001999GF104991999999999999999999MA1102511999999REMMET072METAR GMTT 021300Z 19005KT 150V250 8000 SCT016 SCT200 16/09 Q1025 NOSIG;
0157601010999992013010213304+35733-005900FM-15+0021GMTT V0201801N002612200019N0112651N1+01501+00901999999ADDGA1041+004801999GA2041+060001999GF104991999999999999999999MA1102511999999REMMET072METAR GMTT 021330Z 18005KT 140V220 9999 SCT016 SCT200 15/09 Q1025 NOSIG;
0157601010999992013010214004+35733-005900FM-15+0021GMTT V0201801N001512200019N0112651N1+01501+00901999999ADDGA1041+004801999GA2041+060001999GF104991999999999999999999MA1102511999999REMMET072METAR GMTT 021400Z 18003KT 140V230 9999 SCT016 SCT200 15/09 Q1025 NOSIG;
0157601010999992013010214304+35733-005900FM-15+0021GMTT V0201801N002112200019N0112651N1+01601+00801999999ADDGA1041+004801999GA2041+060001999GF104991999999999999999999MA1102401999999REMMET072METAR GMTT 021430Z 18004KT 140V230 9999 SCT016 SCT200 16/08 Q1024 NOSIG;
0157601010999992013010215304+35733-005900FM-15+0021GMTT V0202101N001512200019N0112651N1+01601+00901999999ADDGA1041+004801999GA2041+060001999GF104991999999999999999999MA1102511999999REMMET072METAR GMTT 021530Z 21003KT 150V260 9999 SCT016 SCT200 16/09 Q1025 NOSIG;
0157601010999992013010216004+35733-005900FM-15+0021GMTT V0202201N001512200019N0112651N1+01501+00901999999ADDGA1041+004801999GA2041+060001999GF104991999999999999999999MA1102511999999REMMET072METAR GMTT 021600Z 22003KT 180V250 9999 SCT016 SCT200 15/09 Q1025 NOSIG;
0149601010999992013010216304+35733-005900FM-15+0021GMTT V0209999C000012200019N0112651N1+01601+00901999999ADDGA1041+004801999GA2041+060001999GF104991999999999999999999MA1102511999999REMMET064METAR GMTT 021630Z 00000KT 9999 SCT016 SCT200 16/09 Q1025 NOSIG;
0149601010999992013010217004+35733-005900FM-15+0021GMTT V0202401N001012200019N0112651N1+01501+00901999999ADDGA1041+004801999GA2041+060001999GF104991999999999999999999MA1102511999999REMMET064METAR GMTT 021700Z 24002KT 9999 SCT016 SCT200 15/09 Q1025 NOSIG;
0149601010999992013010217304+35733-005900FM-15+0021GMTT V0203001N001012200019N0112651N1+01301+00901999999ADDGA1041+004801999GA2041+060001999GF104991999999999999999999MA1102511999999REMMET064METAR GMTT 021730Z 30002KT 9999 SCT016 SCT200 13/09 Q1025 NOSIG;
0235601010999992013010218004+35733-005900SY-MT+0021GMTT V0200201N001012200019N0100001N1+01031+00721102601ADDGA1021+004801999GF103991021051004501001021KA1120M+01631MA1102511999999MD1310101+9999REMSYN076AAXX  02184 60101 32460 30202 10103 20072 40260 53010 82502 333 10163 82616;MET057METAR GMTT 021800Z 02002KT 9999 FEW016 10/07 Q1025 NOSIG;
0126601010999992013010218304+35733-005900FM-15+0021GMTT V0200401N001512200019N0112651N1+01001+00701999999ADDGA1021+004801999GF102991999999999999999999MA1102611999999REMMET057METAR GMTT 021830Z 04003KT 9999 FEW016 10/07 Q1026 NOSIG;
0126601010999992013010219004+35733-005900FM-15+0021GMTT V0209999C000012200019N0112651N1+01001+00701999999ADDGA1021+004801999GF102991999999999999999999MA1102611999999REMMET057METAR GMTT 021900Z 00000KT 9999 FEW016 10/07 Q1026 NOSIG;
0126601010999992013010219304+35733-005900FM-15+0021GMTT V0201001N001012200019N0112651N1+00901+00701999999ADDGA1021+004801999GF102991999999999999999999MA1102611999999REMMET057METAR GMTT 021930Z 10002KT 9999 FEW016 09/07 Q1026 NOSIG;
0126601010999992013010220004+35733-005900FM-15+0021GMTT V0200601N001512200019N0080001N1+00801+00701999999ADDGA1021+002401999GF102991999999999999999999MA1102611999999REMMET057METAR GMTT 022000Z 06003KT 8000 FEW008 08/07 Q1026 NOSIG;
0126601010999992013010220304+35733-005900FM-15+0021GMTT V0201301N001512200019N0080001N1+00801+00701999999ADDGA1021+002401999GF102991999999999999999999MA1102611999999REMMET057METAR GMTT 022030Z 13003KT 8000 FEW008 08/07 Q1026 NOSIG;
0224601010999992013010221004+35733-005900SY-MT+0021GMTT V0200901N001512200019N0080001N1+00821+00671102701ADDGA1021+002401999GF103991021061002501001021MA1102611999999MD1110101+9999REMSYN070AAXX  02214 60101 32358 30903 10082 20067 40270 51010 82602 333 82708;MET065METAR GMTT 022100Z 09003KT 050V110 8000 FEW008 08/07 Q1026 NOSIG;
0135601010999992013010221304+35733-005900FM-15+0021GMTT V0209999C000012200019N0080001N1+00701+00601999999ADDGA1021+002401999GF102991999999999999999999MA1102611999999REMMET066METAR GMTT 022130Z 00000KT 8000 R28///// FEW008 07/06 Q1026 NOSIG;
0135601010999992013010222004+35733-005900FM-15+0021GMTT V0209999V001012200019N0080001N1+00701+00601999999ADDGA1021+002401999GF102991999999999999999999MA1102611999999REMMET066METAR GMTT 022200Z VRB02KT 8000 R28///// FEW008 07/06 Q1026 NOSIG;
0134601010999992013010222304+35733-005900FM-15+0021GMTT V0200801N002112200019N0080001N1+00701+00601999999ADDGA1021+002401999GF102991999999999999999999MA1102611999999REMMET065METAR GMTT 022230Z 08004KT 040V140 8000 FEW008 07/06 Q1026 NOSIG;
0134601010999992013010223004+35733-005900FM-15+0021GMTT V0200801N001512200019N0080001N1+00801+00601999999ADDGA1021+002401999GF102991999999999999999999MA1102611999999REMMET065METAR GMTT 022300Z 08003KT 010V100 8000 FEW008 08/06 Q1026 NOSIG;
0134601010999992013010223304+35733-005900FM-15+0021GMTT V0201001N002612200019N0080001N1+00701+00601999999ADDGA1021+002401999GF102991999999999999999999MA1102611999999REMMET065METAR GMTT 022330Z 10005KT 060V120 8000 FEW008 07/06 Q1026 NOSIG;
0224601010999992013010300004+35733-005900SY-MT+0021GMTT V0201001N002112200019N0080001N1+00781+00661102681ADDGA1021+004801999GF102991021051004501001021MA1102611999999MD1810021+9999REMSYN070AAXX  03004 60101 32458 21004 10078 20066 40268 58002 82502 333 82616;MET065METAR GMTT 030000Z 10004KT 010V130 8000 FEW016 08/07 Q1026 NOSIG;
0126601010999992013010300304+35733-005900FM-15+0021GMTT V0201101N003112200019N0080001N1+00801+00701999999ADDGA1021+004801999GF102991999999999999999999MA1102611999999REMMET057METAR GMTT 030030Z 11006KT 8000 FEW016 08/07 Q1026 NOSIG;
0135601010999992013010301004+35733-005900FM-15+0021GMTT V0200901N003112200019N0080001N1+00801+00701999999ADDGA1021+004801999GF102991999999999999999999MA1102611999999REMMET066METAR GMTT 030100Z 09006KT 8000 R28///// FEW016 08/07 Q1026 NOSIG;
0135601010999992013010301304+35733-005900FM-15+0021GMTT V0201101N003112200019N0080001N1+00801+00701999999ADDGA1021+004801999GF102991999999999999999999MA1102611999999REMMET066METAR GMTT 030130Z 11006KT 8000 R28///// FEW016 08/07 Q1026 NOSIG;
0084601010999992013010302004+35733-005900FM-15+0021GMTT V0200901N003112200019N9999999N1+00801+00601999999ADDMA1102601999999REMMET057METAR GMTT 030200Z AUTO 09006KT R28///// /// 08/06 Q1026;
0084601010999992013010302304+35733-005900FM-15+0021GMTT V0200901N002612200019N9999999N1+00801+00701999999ADDMA1102601999999REMMET057METAR GMTT 030230Z AUTO 09005KT R28///// /// 08/07 Q1026;
0143601010999992013010303004+35733-005900SY-MT+0021GMTT V0200901N003119999999N9999999N1+00801+00661102701ADDMD1310031+9999REMSYN054AAXX  03034 60101 469// /0906 10080 20066 40270 53003;MET057METAR GMTT 030300Z AUTO 09007KT R28///// /// 08/07 Q1026;
0116601010999992013010303304+35733-005900FM-15+0021GMTT V0201101N003119999999N9999999N1+00801+00601999999ADDKA1999M+99999MA1102601999999REMMET057METAR GMTT 030330Z AUTO 11006KT R28///// /// 08/06 Q1026;EQDQ01 -00062ATMX  
0116601010999992013010304004+35733-005900FM-15+0021GMTT V0201001N002619999999N9999999N1+00701+00601999999ADDKA1999M+99999MA1102601999999REMMET057METAR GMTT 030400Z AUTO 10005KT R28///// /// 07/06 Q1026;EQDQ01 +00052ATMX  
0084601010999992013010304304+35733-005900FM-15+0021GMTT V0201301N002612200019N9999999N1+00701+00501999999ADDMA1102601999999REMMET057METAR GMTT 030430Z AUTO 13005KT R28///// /// 07/05 Q1026;
0092601010999992013010305004+35733-005900FM-15+0021GMTT V0201201N001512200019N9999999N1+00601+00501999999ADDMA1102701999999REMMET065METAR GMTT 030500Z AUTO 12003KT 050V150 R28///// /// 06/05 Q1027;
0084601010999992013010305304+35733-005900FM-15+0021GMTT V0201201N003112200019N9999999N1+00701+00501999999ADDMA1102701999999REMMET057METAR GMTT 030530Z AUTO 12006KT R28///// /// 07/05 Q1027;
0254601010999992013010306004+35733-005900SY-MT+0021GMTT V0200901N003112200019N0080001N1+00681+00541102741ADDGA1041+004801999GF199999031051004501001001KA1999N+00591MA1102711999999MD1310041+9999REMSYN076AAXX  03064 60101 32458 30906 10068 20054 40274 53004 83500 333 20059 83616;MET057METAR GMTT 030600Z 09006KT 8000 SCT016 07/06 Q1027 NOSIG;EQDQ01+000032SCOTCV
0126601010999992013010307304+35733-005900FM-15+0021GMTT V0201201N003612200019N0080001N1+00701+00501999999ADDGA1041+004801999GF104991999999999999999999MA1102811999999REMMET057METAR GMTT 030730Z 12007KT 8000 SCT016 07/05 Q1028 NOSIG;
0126601010999992013010308004+35733-005900FM-15+0021GMTT V0201201N003612200019N0080001N1+00701+00501999999ADDGA1041+004801999GF104991999999999999999999MA1102911999999REMMET057METAR GMTT 030800Z 12007KT 8000 SCT016 07/05 Q1029 NOSIG;
0126601010999992013010308304+35733-005900FM-15+0021GMTT V0201001N005712200019N0112651N1+01101+00901999999ADDGA1041+004801999GF104991999999999999999999MA1102911999999REMMET057METAR GMTT 030830Z 10011KT 9999 SCT016 11/09 Q1029 NOSIG;
0235601010999992013010309004+35733-005900SY-MT+0021GMTT V0201001N004612200019N0100001N1+01211+00911102961ADDGA1041+004801999GF199999031051004501001001MA1102911999999MD1110201+9999REMSYN070AAXX  03094 60101 42460 31009 10121 20091 40296 51020 83500 333 83616;MET057METAR GMTT 030900Z 10009KT 9999 SCT016 12/09 Q1029 NOSIG;EQDQ01+000032SCOTCV
0126601010999992013010309304+35733-005900FM-15+0021GMTT V0201101N005112200019N0112651N1+01301+01001999999ADDGA1021+004801999GF102991999999999999999999MA1102911999999REMMET057METAR GMTT 030930Z 11010KT 9999 FEW016 13/10 Q1029 NOSIG;
0126601010999992013010310004+35733-005900FM-15+0021GMTT V0201101N004112200019N0112651N1+01401+01001999999ADDGA1021+004801999GF102991999999999999999999MA1103011999999REMMET057METAR GMTT 031000Z 11008KT 9999 FEW016 14/10 Q1030 NOSIG;
0126601010999992013010311004+35733-005900FM-15+0021GMTT V0201101N007212200019N0112651N1+01601+00901999999ADDGA1041+004801999GF104991999999999999999999MA1103121999999REMMET057METAR GMTT 031100Z 11014KT 9999 SCT016 16/09 Q1031 NOSIG;
0126601010999992013010311304+35733-005900FM-15+0021GMTT V0201001N006210048019N0112651N1+01601+00901999999ADDGA1071+004801999GF107991999999999999999999MA1103121999999REMMET057METAR GMTT 031130Z 10012KT 9999 BKN016 16/09 Q1031 NOSIG;
0224601010999992013010312004+35733-005900SY-MT+0021GMTT V0201001N007710048019N0100001N1+01621+00841103071ADDGA1071+004801999GF105991051021004501001001MA1103011999999MD1010121+9999REMSYN070AAXX  03124 60101 32460 51015 10162 20084 40307 50012 85200 333 85816;MET065METAR GMTT 031200Z 10015KT 070V130 9999 BKN016 16/08 Q1030 NOSIG;
0140601010999992013010312494+35733-005900FM-15+0021GMTT V0201001N009310048019N0112651N1+01601+00801999999ADDGA1071+004801999GF107991999999999999999999MA1103011999999OC101441REMMET063METAR GMTT 031249Z 10018G28KT 9999 BKN016 16/08 Q1030 M0 NOSIG;
0140601010999992013010312494+35733-005900FM-16+0021GMTT V0201001N009310048019N0112651N1+01601+00801999999ADDGA1071+004801999GF107991999999999999999999MA1103011999999OC101441REMMET063SPECI GMTT 031249Z 10018G28KT 9999 BKN016 16/08 Q1030 M0 NOSIG;
0137601010999992013010313004+35733-005900FM-15+0021GMTT V0201001N009310048019N0112651N1+01601+00801999999ADDGA1071+004801999GF107991999999999999999999MA1103011999999OC101441REMMET060METAR GMTT 031300Z 10018G28KT 9999 BKN016 16/08 Q1030 NOSIG;
0137601010999992013010313304+35733-005900FM-15+0021GMTT V0201101N009810048019N0112651N1+01601+00801999999ADDGA1071+004801999GF107991999999999999999999MA1103011999999OC101491REMMET060METAR GMTT 031330Z 11019G29KT 9999 BKN016 16/08 Q1030 NOSIG;
0126601010999992013010314004+35733-005900FM-15+0021GMTT V0201101N011312200019N0112651N1+01601+00601999999ADDGA1041+004801999GF104991999999999999999999MA1103011999999REMMET057METAR GMTT 031400Z 11022KT 9999 SCT016 16/06 Q1030 NOSIG;
0137601010999992013010314304+35733-005900FM-15+0021GMTT V0201001N008212200019N0112651N1+01601+00801999999ADDGA1041+004801999GF104991999999999999999999MA1103011999999OC101341REMMET060METAR GMTT 031430Z 10016G26KT 9999 SCT016 16/08 Q1030 NOSIG;
0235601010999992013010315004+35733-005900SY-MT+0021GMTT V0201001N008212200019N0150001N1+01611+00761103071ADDGA1041+004801999GF199999031021004501001001MA1103011999999MD1510001+9999REMSYN070AAXX  03154 60101 32465 31016 10161 20076 40307 55000 83200 333 83816;MET057METAR GMTT 031500Z 10016KT 9999 SCT016 16/08 Q1030 NOSIG;EQDQ01+000032SCOTCV
0126601010999992013010315304+35733-005900FM-15+0021GMTT V0200901N008212200019N0112651N1+01601+00801999999ADDGA1041+004801999GF104991999999999999999999MA1103121999999REMMET057METAR GMTT 031530Z 09016KT 9999 SCT016 16/08 Q1031 NOSIG;
0126601010999992013010316004+35733-005900FM-15+0021GMTT V0201001N009312200019N0112651N1+01501+00701999999ADDGA1041+004801999GF104991999999999999999999MA1103121999999REMMET057METAR GMTT 031600Z 10018KT 9999 SCT016 15/07 Q1031 NOSIG;
0126601010999992013010316304+35733-005900FM-15+0021GMTT V0200901N009812200019N0112651N1+01501+00601999999ADDGA1041+004801999GF104991999999999999999999MA1103121999999REMMET057METAR GMTT 031630Z 09019KT 9999 SCT016 15/06 Q1031 NOSIG;
0126601010999992013010317004+35733-005900FM-15+0021GMTT V0201001N007712200019N0112651N1+01401+00701999999ADDGA1021+004801999GF102991999999999999999999MA1103181999999REMMET057METAR GMTT 031700Z 10015KT 9999 FEW016 14/07 Q1032 NOSIG;
0126601010999992013010317304+35733-005900FM-15+0021GMTT V0200901N007712200019N0112651N1+01401+00701999999ADDGA1021+004801999GF102991999999999999999999MA1103181999999REMMET057METAR GMTT 031730Z 09015KT 9999 FEW016 14/07 Q1032 NOSIG;
0235601010999992013010318004+35733-005900SY-MT+0021GMTT V0200901N007212200019N0150001N1+01331+00691103301ADDGA1021+004801999GF102991021021004501001001KA1120M+01671MA1103181999999MD1210221+9999REMSYN076AAXX  03184 60101 32465 20914 10133 20069 40330 52022 82200 333 10167 82816;MET057METAR GMTT 031800Z 09014KT 9999 FEW016 13/07 Q1032 NOSIG;
0126601010999992013010318304+35733-005900FM-15+0021GMTT V0200901N008212200019N0112651N1+01301+00701999999ADDGA1021+004801999GF102991999999999999999999MA1103291999999REMMET057METAR GMTT 031830Z 09016KT 9999 FEW016 13/07 Q1033 NOSIG;
0126601010999992013010319004+35733-005900FM-15+0021GMTT V0200901N006712200019N0112651N1+01301+00701999999ADDGA1021+004801999GF102991999999999999999999MA1103291999999REMMET057METAR GMTT 031900Z 09013KT 9999 FEW016 13/07 Q1033 NOSIG;
0126601010999992013010319304+35733-005900FM-15+0021GMTT V0200901N007712200019N0112651N1+01301+00701999999ADDGA1021+004801999GF102991999999999999999999MA1103291999999REMMET057METAR GMTT 031930Z 09015KT 9999 FEW016 13/07 Q1033 NOSIG;
0134601010999992013010320004+35733-005900FM-15+0021GMTT V0201001N007212200019N0112651N1+01401+00701999999ADDGA1021+004801999GF102991999999999999999999MA1103291999999REMMET065METAR GMTT 032000Z 10014KT 060V130 9999 FEW016 14/07 Q1033 NOSIG;
0134601010999992013010320304+35733-005900FM-15+0021GMTT V0201101N004112200019N0112651N1+01301+00701999999ADDGA1021+004801999GF102991999999999999999999MA1103391999999REMMET065METAR GMTT 032030Z 11008KT 080V150 9999 FEW016 13/07 Q1034 NOSIG;
0216601010999992013010321004+35733-005900SY-MT+0021GMTT V0200801N008712200019N0100001N1+01321+00651103341ADDGA1021+004801999GF102991021021004501001001MA1103291999999MD1010041+9999REMSYN070AAXX  03214 60101 32460 20817 10132 20065 40334 50004 82200 333 82816;MET057METAR GMTT 032100Z 08016KT 9999 FEW016 13/07 Q1033 NOSIG;
0134601010999992013010321304+35733-005900FM-15+0021GMTT V0201201N005712200019N0112651N1+01401+00601999999ADDGA1021+004801999GF102991999999999999999999MA1103391999999REMMET065METAR GMTT 032130Z 12011KT 060V160 9999 FEW016 14/06 Q1034 NOSIG;
0126601010999992013010322004+35733-005900FM-15+0021GMTT V0200801N009312200019N0112651N1+01301+00601999999ADDGA1021+004801999GF102991999999999999999999MA1103291999999REMMET057METAR GMTT 032200Z 08018KT 9999 FEW016 13/06 Q1033 NOSIG;
0137601010999992013010322304+35733-005900FM-15+0021GMTT V0201001N006212200019N0112651N1+01301+00601999999ADDGA1021+004801999GF102991999999999999999999MA1103391999999OC101131REMMET060METAR GMTT 032230Z 10012G22KT 9999 FEW016 13/06 Q1034 NOSIG;
0126601010999992013010323004+35733-005900FM-15+0021GMTT V0201001N008712200019N0112651N1+01301+00701999999ADDGA1021+004801999GF102991999999999999999999MA1103291999999REMMET057METAR GMTT 032300Z 10017KT 9999 FEW016 13/07 Q1033 NOSIG;
0137601010999992013010323304+35733-005900FM-15+0021GMTT V0201001N012312200019N0112651N1+01301+00701999999ADDGA1021+004801999GF102991999999999999999999MA1103291999999OC101751REMMET060METAR GMTT 032330Z 10024G34KT 9999 FEW016 13/07 Q1033 NOSIG;
0227601010999992013010400004+35733-005900SY-MT+0021GMTT V0200901N011812200019N0100001N1+01331+00661103341ADDGA1021+004801999GF102991021021004501001001MA1103291999999MD1010001+9999OC101851REMSYN070AAXX  04004 60101 32460 20923 10133 20066 40334 50000 82200 333 82816;MET060METAR GMTT 040000Z 09023G36KT 9999 FEW016 13/07 Q1033 NOSIG;
0126601010999992013010400304+35733-005900FM-15+0021GMTT V0200901N010812200019N0112651N1+01301+00601999999ADDGA1021+004801999GF102991999999999999999999MA1103291999999REMMET057METAR GMTT 040030Z 09021KT 9999 FEW016 13/06 Q1033 NOSIG;
0126601010999992013010401004+35733-005900FM-15+0021GMTT V0201001N007712200019N0112651N1+01301+00701999999ADDGA1021+004801999GF102991999999999999999999MA1103291999999REMMET057METAR GMTT 040100Z 10015KT 9999 FEW016 13/07 Q1033 NOSIG;
0083601010999992013010401304+35733-005900AUTO +0021GMTT V0201001N007712200019N0112651N1+01301+00601999999ADDMA1103291999999REMMET056METAR GMTT 040130Z AUTO 10015KT 9999NDV /// 13/06 Q1033;
0083601010999992013010402004+35733-005900AUTO +0021GMTT V0201001N007712200019N0112651N1+01301+00601999999ADDMA1103291999999REMMET056METAR GMTT 040200Z AUTO 10015KT 9999NDV /// 13/06 Q1033;
0083601010999992013010402304+35733-005900AUTO +0021GMTT V0201101N010312200019N0112651N1+01301+00701999999ADDMA1103181999999REMMET056METAR GMTT 040230Z AUTO 11020KT 9999NDV /// 13/07 Q1032;
0157601010999992013010403004+35733-005900SY-MT+0021GMTT V0201001N010819999999N0090001N1+01331+00711103281ADDMA1103181999999MD1610051+9999REMSYN054AAXX  04034 60101 46959 /1021 10133 20071 40328 56005;MET056METAR GMTT 040300Z AUTO 10021KT 9000NDV /// 13/07 Q1032;
0083601010999992013010403304+35733-005900AUTO +0021GMTT V0201001N011312200019N0090001N1+01301+00701999999ADDMA1103181999999REMMET056METAR GMTT 040330Z AUTO 10022KT 9000NDV /// 13/07 Q1032;
0083601010999992013010404304+35733-005900AUTO +0021GMTT V0201001N011312200019N0090001N1+01301+00701999999ADDMA1103181999999REMMET056METAR GMTT 040430Z AUTO 10022KT 9000NDV /// 13/07 Q1032;
0126601010999992013010405004+35733-005900FM-15+0021GMTT V0201001N009812200019N0112651N1+01301+00701999999ADDGA1021+004801999GF102991999999999999999999MA1103181999999REMMET057METAR GMTT 040500Z 10019KT 9999 FEW016 13/07 Q1032 NOSIG;
0126601010999992013010405304+35733-005900FM-15+0021GMTT V0200901N009812200019N0112651N1+01301+00701999999ADDGA1021+004801999GF102991999999999999999999MA1103121999999REMMET057METAR GMTT 040530Z 09019KT 9999 FEW016 13/07 Q1031 NOSIG;
0235601010999992013010406004+35733-005900SY-MT+0021GMTT V0201001N010812200019N0100001N1+01341+00701103231ADDGA1021+004801999GF102991021021004501001001KA1999N+01271MA1103181999999MD1510051+9999REMSYN076AAXX  04064 60101 32460 21021 10134 20070 40323 55005 82200 333 20127 82816;MET057METAR GMTT 040600Z 10021KT 9999 FEW016 13/07 Q1032 NOSIG;
0137601010999992013010406304+35733-005900FM-15+0021GMTT V0201001N010812200019N0112651N1+01401+00701999999ADDGA1021+004801999GF102991999999999999999999MA1103181999999OC101591REMMET060METAR GMTT 040630Z 10021G31KT 9999 FEW016 14/07 Q1032 NOSIG;
0140601010999992013010406474+35733-005900FM-15+0021GMTT V0201001N010812200019N0112651N1+01401+00701999999ADDGA1021+004801999GF102991999999999999999999MA1103181999999OC101651REMMET063METAR GMTT 040647Z 10021G32KT 9999 FEW016 14/07 Q1032 M0 NOSIG;
0137601010999992013010407004+35733-005900FM-15+0021GMTT V0201001N010812200019N0112651N1+01401+00701999999ADDGA1021+004801999GF102991999999999999999999MA1103181999999OC101651REMMET060METAR GMTT 040700Z 10021G32KT 9999 FEW016 14/07 Q1032 NOSIG;
0126601010999992013010407304+35733-005900FM-15+0021GMTT V0201001N010812200019N0112651N1+01401+00701999999ADDGA1021+004801999GF102991999999999999999999MA1103181999999REMMET057METAR GMTT 040730Z 10021KT 9999 FEW016 14/07 Q1032 NOSIG;
0126601010999992013010408004+35733-005900FM-15+0021GMTT V0201001N010812200019N0112651N1+01401+00701999999ADDGA1021+004801999GF102991999999999999999999MA1103181999999REMMET057METAR GMTT 040800Z 10021KT 9999 FEW016 14/07 Q1032 NOSIG;
0169601010999992013010408304+35733-005900FM-15+0021GMTT V0201001N011312200019N0112651N1+01401+00701999999ADDGA1021+004801999GF102991999999999999999999KA1999M+99999MA1103181999999REMMET068METAR GMTT 040830Z 10022KT 9999 FEW016 14/07 Q1032 TEMPO 10024G42KT;EQDQ01 +00242ATMX  
0270601010999992013010409004+35733-005900SY-MT+0021GMTT V0201001N010812200019N0100001N1+01451+00731103321ADDGA1021+004801999GF102991021021004501001001KA1999M+99999MA1103291999999MD1310091+9999OC101801REMSYN070AAXX  04094 60101 32460 21021 10145 20073 40332 53009 82200 333 82816;MET071METAR GMTT 040900Z 10021G35KT 9999 FEW016 15/07 Q1033 TEMPO 10024G42KT;EQDQ01 +00242ATMX  
0169601010999992013010409304+35733-005900FM-15+0021GMTT V0201001N012912200019N0112651N1+01501+00801999999ADDGA1021+004801999GF102991999999999999999999KA1999M+99999MA1103291999999REMMET068METAR GMTT 040930Z 10025KT 9999 FEW016 15/08 Q1033 TEMPO 10024G42KT;EQDQ01 +00242ATMX  
0180601010999992013010410004+35733-005900FM-15+0021GMTT V0201001N012312200019N0112651N1+01601+00801999999ADDGA1021+004801999GF102991999999999999999999KA1999M+99999MA1103291999999OC101801REMMET071METAR GMTT 041000Z 10024G35KT 9999 FEW016 16/08 Q1033 TEMPO 10024G42KT;EQDQ01 +00242ATMX  
0180601010999992013010410304+35733-005900FM-15+0021GMTT V0201001N011812200019N0112651N1+01601+00801999999ADDGA1021+004801999GF102991999999999999999999KA1999M+99999MA1103291999999OC101701REMMET071METAR GMTT 041030Z 10023G33KT 9999 FEW016 16/08 Q1033 TEMPO 10024G42KT;EQDQ01 +00242ATMX  
0180601010999992013010411004+35733-005900FM-15+0021GMTT V0201001N012312200019N0112651N1+01601+00801999999ADDGA1021+004801999GF102991999999999999999999KA1999M+99999MA1103291999999OC101801REMMET071METAR GMTT 041100Z 10024G35KT 9999 FEW016 16/08 Q1033 TEMPO 10024G42KT;EQDQ01 +00242ATMX  
0126601010999992013010411304+35733-005900FM-15+0021GMTT V0201101N013412200019N0112651N1+01701+00701999999ADDGA1021+004801999GF102991999999999999999999MA1103291999999REMMET057METAR GMTT 041130Z 11026KT 9999 FEW016 17/07 Q1033 NOSIG;
0227601010999992013010412004+35733-005900SY-MT+0021GMTT V0201001N012312200019N0150001N1+01691+00751103321ADDGA1021+004801999GF102991021021004501001001MA1103291999999MD1010011+9999OC101751REMSYN070AAXX  04124 60101 32465 21024 10169 20075 40332 50001 82200 333 82816;MET060METAR GMTT 041200Z 10024G34KT 9999 FEW016 17/08 Q1033 NOSIG;
0126601010999992013010412304+35733-005900FM-15+0021GMTT V0201001N012312200019N0112651N1+01701+00701999999ADDGA1021+004801999GF102991999999999999999999MA1103291999999REMMET057METAR GMTT 041230Z 10024KT 9999 FEW016 17/07 Q1033 NOSIG;
0126601010999992013010413004+35733-005900FM-15+0021GMTT V0201001N011312200019N0112651N1+01801+00801999999ADDGA1021+004801999GF102991999999999999999999MA1103181999999REMMET057METAR GMTT 041300Z 10022KT 9999 FEW016 18/08 Q1032 NOSIG;
0126601010999992013010413304+35733-005900FM-15+0021GMTT V0201101N011312200019N0112651N1+01701+00801999999ADDGA1021+004801999GF102991999999999999999999MA1103181999999REMMET057METAR GMTT 041330Z 11022KT 9999 FEW016 17/08 Q1032 NOSIG;
0137601010999992013010414004+35733-005900FM-15+0021GMTT V0201001N012312200019N0112651N1+01701+00801999999ADDGA1021+004801999GF102991999999999999999999MA1103181999999OC101751REMMET060METAR GMTT 041400Z 10024G34KT 9999 FEW016 17/08 Q1032 NOSIG;
0137601010999992013010414304+35733-005900FM-15+0021GMTT V0201001N012312200019N0112651N1+01701+00801999999ADDGA1021+004801999GF102991999999999999999999MA1103181999999OC101751REMMET060METAR GMTT 041430Z 10024G34KT 9999 FEW016 17/08 Q1032 NOSIG;
0178601010999992013010415004+35733-005900SY-MT+0021GMTT V0201001N008719999999Y0150001N1+01711+00851103251ADDGF100991001001999999001001MA1103181999999MD1810081+9999REMSYN054AAXX  04154 60101 32965 01017 10171 20085 40325 58008;MET051METAR GMTT 041500Z 10017KT CAVOK 17/09 Q1032 NOSIG;
0078601010999992013010415304+35733-005900FM-15+0021GMTT V0201001N009819999999Y0099001N1+01701+00901999999ADDMA1103181999999REMMET051METAR GMTT 041530Z 10019KT CAVOK 17/09 Q1032 NOSIG;
0078601010999992013010416004+35733-005900FM-15+0021GMTT V0201101N008219999999Y0099001N1+01701+00801999999ADDMA1103181999999REMMET051METAR GMTT 041600Z 11016KT CAVOK 17/08 Q1032 NOSIG;
0078601010999992013010416304+35733-005900FM-15+0021GMTT V0201001N008719999999Y0099001N1+01601+00801999999ADDMA1103181999999REMMET051METAR GMTT 041630Z 10017KT CAVOK 16/08 Q1032 NOSIG;
0078601010999992013010417004+35733-005900FM-15+0021GMTT V0201101N009319999999Y0099001N1+01501+00901999999ADDMA1103181999999REMMET051METAR GMTT 041700Z 11018KT CAVOK 15/09 Q1032 NOSIG;
0078601010999992013010417304+35733-005900FM-15+0021GMTT V0201001N008219999999Y0099001N1+01501+00901999999ADDMA1103291999999REMMET051METAR GMTT 041730Z 10016KT CAVOK 15/09 Q1033 NOSIG;
0201601010999992013010418004+35733-005900SY-MT+0021GMTT V0201001N008219999999Y0150001N1+01401+00861103351ADDGF100991001001999999001001KA1999M+01761MA1103291999999MD1310081+9999REMSYN064AAXX  04184 60101 32965 01016 10140 20086 40335 53008 333 10176;MET051METAR GMTT 041800Z 10016KT CAVOK 14/09 Q1033 NOSIG;
0078601010999992013010418304+35733-005900FM-15+0021GMTT V0201001N005719999999Y0099001N1+01301+00901999999ADDMA1103291999999REMMET051METAR GMTT 041830Z 10011KT CAVOK 13/09 Q1033 NOSIG;
0078601010999992013010419004+35733-005900FM-15+0021GMTT V0201001N005719999999Y0099001N1+01301+00801999999ADDMA1103291999999REMMET051METAR GMTT 041900Z 10011KT CAVOK 13/08 Q1033 NOSIG;
0078601010999992013010419304+35733-005900FM-15+0021GMTT V0200801N005119999999Y0099001N1+01301+00801999999ADDMA1103391999999REMMET051METAR GMTT 041930Z 08010KT CAVOK 13/08 Q1034 NOSIG;
0078601010999992013010420004+35733-005900FM-15+0021GMTT V0200901N005719999999Y0099001N1+01301+00901999999ADDMA1103391999999REMMET051METAR GMTT 042000Z 09011KT CAVOK 13/09 Q1034 NOSIG;
0078601010999992013010420304+35733-005900FM-15+0021GMTT V0201001N005119999999Y0099001N1+01301+00801999999ADDMA1103391999999REMMET051METAR GMTT 042030Z 10010KT CAVOK 13/08 Q1034 NOSIG;
0178601010999992013010421004+35733-005900SY-MT+0021GMTT V0200901N005719999999Y0150001N1+01281+00851103471ADDGF100991001001999999001001MA1103391999999MD1110121+9999REMSYN054AAXX  04214 60101 32965 00911 10128 20085 40347 51012;MET051METAR GMTT 042100Z 09010KT CAVOK 13/08 Q1034 NOSIG;
0078601010999992013010421304+35733-005900FM-15+0021GMTT V0201001N006219999999Y0099001N1+01301+00901999999ADDMA1103391999999REMMET051METAR GMTT 042130Z 10012KT CAVOK 13/09 Q1034 NOSIG;
0078601010999992013010422004+35733-005900FM-15+0021GMTT V0201101N005719999999Y0099001N1+01301+00801999999ADDMA1103391999999REMMET051METAR GMTT 042200Z 11011KT CAVOK 13/08 Q1034 NOSIG;
0078601010999992013010422304+35733-005900FM-15+0021GMTT V0201001N004619999999Y0099001N1+01101+00801999999ADDMA1103391999999REMMET051METAR GMTT 042230Z 10009KT CAVOK 11/08 Q1034 NOSIG;
0078601010999992013010423004+35733-005900FM-15+0021GMTT V0201001N004619999999Y0099001N1+01101+00801999999ADDMA1103391999999REMMET051METAR GMTT 042300Z 10009KT CAVOK 11/08 Q1034 NOSIG;
0078601010999992013010423304+35733-005900FM-15+0021GMTT V0201001N005719999999Y0099001N1+01201+00901999999ADDMA1103391999999REMMET051METAR GMTT 042330Z 10011KT CAVOK 12/09 Q1034 NOSIG;
0178601010999992013010500004+35733-005900SY-MT+0021GMTT V0201001N005119999999Y0100001N1+01181+00851103491ADDGF100991001001999999001001MA1103391999999MD1010011+9999REMSYN054AAXX  05004 60101 32960 01010 10118 20085 40349 50001;MET051METAR GMTT 050000Z 10010KT CAVOK 12/09 Q1034 NOSIG;
0078601010999992013010500304+35733-005900FM-15+0021GMTT V0201001N005119999999Y0099001N1+01101+00801999999ADDMA1103391999999REMMET051METAR GMTT 050030Z 10010KT CAVOK 11/08 Q1034 NOSIG;
0078601010999992013010501004+35733-005900FM-15+0021GMTT V0201001N005119999999Y0099001N1+01101+00801999999ADDMA1103391999999REMMET051METAR GMTT 050100Z 10010KT CAVOK 11/08 Q1034 NOSIG;
0083601010999992013010501304+35733-005900AUTO +0021GMTT V0201001N005112200019N0112651N1+01101+00801999999ADDMA1103391999999REMMET056METAR GMTT 050130Z AUTO 10010KT 9999NDV /// 11/08 Q1034;
0083601010999992013010502004+35733-005900AUTO +0021GMTT V0201001N005712200019N0112651N1+01101+00801999999ADDMA1103391999999REMMET056METAR GMTT 050200Z AUTO 10011KT 9999NDV /// 11/08 Q1034;
0083601010999992013010502304+35733-005900AUTO +0021GMTT V0201001N005112200019N0112651N1+01101+00801999999ADDMA1103391999999REMMET056METAR GMTT 050230Z AUTO 10010KT 9999NDV /// 11/08 Q1034;
0157601010999992013010503004+35733-005900SY-MT+0021GMTT V0201101N005119999999N0100001N1+01111+00761103481ADDMA1103391999999MD1510001+9999REMSYN054AAXX  05034 60101 46960 /1110 10111 20076 40348 55000;MET056METAR GMTT 050300Z AUTO 11010KT 9999NDV /// 11/08 Q1034;
0116601010999992013010503304+35733-005900FM-15+0021GMTT V0201101N004619999999N9999999N1+01101+00801999999ADDKA1999M+99999MA1103401999999REMMET057METAR GMTT 050330Z AUTO 11009KT R28///// /// 11/08 Q1034;EQDQ01 -00092ATMX  
0116601010999992013010504004+35733-005900FM-15+0021GMTT V0201101N004119999999N9999999N1+01001+00701999999ADDKA1999M+99999MA1103401999999REMMET057METAR GMTT 050400Z AUTO 11008KT R28///// /// 10/07 Q1034;EQDQ01 -00082ATMX  
0116601010999992013010504304+35733-005900FM-15+0021GMTT V0201101N004119999999N9999999N1+01001+00801999999ADDKA1999M+99999MA1103401999999REMMET057METAR GMTT 050430Z AUTO 11008KT R28///// /// 10/08 Q1034;EQDQ01 -00082ATMX  
0078601010999992013010505004+35733-005900FM-15+0021GMTT V0201001N003619999999Y0099001N1+01001+00801999999ADDMA1103391999999REMMET051METAR GMTT 050500Z 10007KT CAVOK 10/08 Q1034 NOSIG;
0078601010999992013010505304+35733-005900FM-15+0021GMTT V0201101N003619999999Y0099001N1+01001+00701999999ADDMA1103391999999REMMET051METAR GMTT 050530Z 11007KT CAVOK 10/07 Q1034 NOSIG;
0201601010999992013010506004+35733-005900SY-MT+0021GMTT V0201001N003119999999Y0100001N1+00971+00731103461ADDGF100991001001999999001001KA1999N+00951MA1103391999999MD1510021+9999REMSYN064AAXX  05064 60101 32960 01006 10097 20073 40346 55002 333 20095;MET051METAR GMTT 050600Z 10006KT CAVOK 10/07 Q1034 NOSIG;
0078601010999992013010506304+35733-005900FM-15+0021GMTT V0201001N002619999999Y0099001N1+00901+00701999999ADDMA1103391999999REMMET051METAR GMTT 050630Z 10005KT CAVOK 09/07 Q1034 NOSIG;
0078601010999992013010507004+35733-005900FM-15+0021GMTT V0201001N002119999999Y0099001N1+00901+00601999999ADDMA1103391999999REMMET051METAR GMTT 050700Z 10004KT CAVOK 09/06 Q1034 NOSIG;
0078601010999992013010507304+35733-005900FM-15+0021GMTT V0201001N003619999999Y0099001N1+00901+00701999999ADDMA1103491999999REMMET051METAR GMTT 050730Z 10007KT CAVOK 09/07 Q1035 NOSIG;
0078601010999992013010508004+35733-005900FM-15+0021GMTT V0201101N003619999999Y0099001N1+01001+00701999999ADDMA1103491999999REMMET051METAR GMTT 050800Z 11007KT CAVOK 10/07 Q1035 NOSIG;
0078601010999992013010508304+35733-005900FM-15+0021GMTT V0200901N003119999999Y0099001N1+01001+00701999999ADDMA1103491999999REMMET051METAR GMTT 050830Z 09006KT CAVOK 10/07 Q1035 NOSIG;
0178601010999992013010509004+35733-005900SY-MT+0021GMTT V0200501N000519999999Y0100001N1+01131+00831103541ADDGF100991001001999999001001MA1103491999999MD1310071+9999REMSYN054AAXX  05094 60101 32960 00501 10113 20083 40354 53007;MET051METAR GMTT 050900Z VRB01KT CAVOK 11/08 Q1035 NOSIG;
0086601010999992013010509304+35733-005900FM-15+0021GMTT V0201201N001519999999Y0099001N1+01301+00901999999ADDMA1103491999999REMMET059METAR GMTT 050930Z 12003KT 090V150 CAVOK 13/09 Q1035 NOSIG;
0078601010999992013010510004+35733-005900FM-15+0021GMTT V0209999V001019999999Y0099001N1+01501+00901999999ADDMA1103491999999REMMET051METAR GMTT 051000Z VRB02KT CAVOK 15/09 Q1035 NOSIG;
0078601010999992013010510304+35733-005900FM-15+0021GMTT V0209999C000019999999Y0099001N1+01701+00901999999ADDMA1103491999999REMMET051METAR GMTT 051030Z 00000KT CAVOK 17/09 Q1035 NOSIG;
0078601010999992013010511004+35733-005900FM-15+0021GMTT V0209999C000019999999Y0099001N1+01701+00701999999ADDMA1103491999999REMMET051METAR GMTT 051100Z 00000KT CAVOK 17/07 Q1035 NOSIG;
0078601010999992013010511304+35733-005900FM-15+0021GMTT V0209999V001019999999Y0099001N1+01801+00801999999ADDMA1103491999999REMMET051METAR GMTT 051130Z VRB02KT CAVOK 18/08 Q1035 NOSIG;
0222601010999992013010512004+35733-005900SY-MT+0021GMTT V0202801N001519999999Y0100001N1+01791+00931103521ADDAA106000091GF100991001001999999001001MA1103491999999MD1610031+9999REMSYN060AAXX  05124 60101 32960 02803 10179 20093 40352 56003 60001;MET059METAR GMTT 051200Z 28003KT 230V310 CAVOK 18/09 Q1035 NOSIG;EQDQ01  00002PRCP06
0086601010999992013010512304+35733-005900FM-15+0021GMTT V0202601N002119999999Y0099001N1+01801+00901999999ADDMA1103391999999REMMET059METAR GMTT 051230Z 26004KT 230V310 CAVOK 18/09 Q1034 NOSIG;
0078601010999992013010513004+35733-005900FM-15+0021GMTT V0202701N002619999999Y0099001N1+01801+00901999999ADDMA1103391999999REMMET051METAR GMTT 051300Z 27005KT CAVOK 18/09 Q1034 NOSIG;
0078601010999992013010513304+35733-005900FM-15+0021GMTT V0202601N002619999999Y0099001N1+01801+00901999999ADDMA1103291999999REMMET051METAR GMTT 051330Z 26005KT CAVOK 18/09 Q1033 NOSIG;
0078601010999992013010514004+35733-005900FM-15+0021GMTT V0202801N002619999999Y0099001N1+01801+01001999999ADDMA1103291999999REMMET051METAR GMTT 051400Z 28005KT CAVOK 18/10 Q1033 NOSIG;
0078601010999992013010514304+35733-005900FM-15+0021GMTT V0202901N002619999999Y0099001N1+01701+00901999999ADDMA1103291999999REMMET051METAR GMTT 051430Z 29005KT CAVOK 17/09 Q1033 NOSIG;
0186601010999992013010515004+35733-005900SY-MT+0021GMTT V0202901N001519999999Y0100001N1+01781+00971103341ADDGF100991001001999999001001MA1103291999999MD1810171+9999REMSYN054AAXX  05154 60101 32960 02903 10178 20097 40334 58017;MET059METAR GMTT 051500Z 29003KT 260V320 CAVOK 18/10 Q1033 NOSIG;
0086601010999992013010515304+35733-005900FM-15+0021GMTT V0203201N001519999999Y0099001N1+01801+01001999999ADDMA1103291999999REMMET059METAR GMTT 051530Z 32003KT 270V360 CAVOK 18/10 Q1033 NOSIG;
0078601010999992013010516304+35733-005900FM-15+0021GMTT V0203301N001519999999Y0099001N1+01701+01101999999ADDMA1103291999999REMMET051METAR GMTT 051630Z 33003KT CAVOK 17/11 Q1033 NOSIG;
0078601010999992013010517004+35733-005900FM-15+0021GMTT V0209999V000519999999Y0099001N1+01601+01101999999ADDMA1103291999999REMMET051METAR GMTT 051700Z VRB01KT CAVOK 16/11 Q1033 NOSIG;
0078601010999992013010517304+35733-005900FM-15+0021GMTT V0203001N001019999999Y0099001N1+01501+01001999999ADDMA1103291999999REMMET051METAR GMTT 051730Z 30002KT CAVOK 15/10 Q1033 NOSIG;
0235601010999992013010518004+35733-005900SY-MT+0021GMTT V0209999C000012200019N0080001N1+01191+00801103341ADDGA1021+004801999GF102991021051004501001001KA1120M+01811MA1103291999999MD1810021+9999REMSYN076AAXX  05184 60101 32458 20000 10119 20080 40334 58002 82500 333 10181 82616;MET057METAR GMTT 051800Z 00000KT 8000 FEW016 12/08 Q1033 NOSIG;
0126601010999992013010518304+35733-005900FM-15+0021GMTT V0209999C000012200019N0080001N1+01101+00801999999ADDGA1021+004801999GF102991999999999999999999MA1103291999999REMMET057METAR GMTT 051830Z 00000KT 8000 FEW016 11/08 Q1033 NOSIG;
0126601010999992013010519004+35733-005900FM-15+0021GMTT V0209999C000012200019N0080001N1+01001+00801999999ADDGA1021+004801999GF102991999999999999999999MA1103291999999REMMET057METAR GMTT 051900Z 00000KT 8000 FEW016 10/08 Q1033 NOSIG;
0126601010999992013010519304+35733-005900FM-15+0021GMTT V0209999C000012200019N0080001N1+00901+00701999999ADDGA1021+004801999GF102991999999999999999999MA1103291999999REMMET057METAR GMTT 051930Z 00000KT 8000 FEW016 09/07 Q1033 NOSIG;
0126601010999992013010520004+35733-005900FM-15+0021GMTT V0209999C000012200019N0080001N1+00901+00701999999ADDGA1021+004801999GF102991999999999999999999MA1103291999999REMMET057METAR GMTT 052000Z 00000KT 8000 FEW016 09/07 Q1033 NOSIG;
0126601010999992013010520304+35733-005900FM-15+0021GMTT V0209999C000012200019N0080001N1+00901+00801999999ADDGA1021+004801999GF102991999999999999999999MA1103291999999REMMET057METAR GMTT 052030Z 00000KT 8000 FEW016 09/08 Q1033 NOSIG;
0216601010999992013010521004+35733-005900SY-MT+0021GMTT V0200701N001512200019N0060001N1+00901+00761103371ADDGA1021+004801999GF102991021051004501001001MA1103291999999MD1310031+9999REMSYN070AAXX  05214 60101 32456 20703 10090 20076 40337 53003 82500 333 82616;MET057METAR GMTT 052100Z 07003KT 6000 FEW016 09/08 Q1033 NOSIG;
0126601010999992013010521304+35733-005900FM-15+0021GMTT V0209999C000012200019N0060001N1+00901+00801999999ADDGA1021+004801999GF102991999999999999999999MA1103291999999REMMET057METAR GMTT 052130Z 00000KT 6000 FEW016 09/08 Q1033 NOSIG;
0126601010999992013010522004+35733-005900FM-15+0021GMTT V0201101N002112200019N0060001N1+01001+00801999999ADDGA1021+004801999GF102991999999999999999999MA1103291999999REMMET057METAR GMTT 052200Z 11004KT 6000 FEW016 10/08 Q1033 NOSIG;
0126601010999992013010522304+35733-005900FM-15+0021GMTT V0201101N002112200019N0060001N1+01001+00901999999ADDGA1021+004801999GF102991999999999999999999MA1103291999999REMMET057METAR GMTT 052230Z 11004KT 6000 FEW016 10/09 Q1033 NOSIG;
0126601010999992013010523004+35733-005900FM-15+0021GMTT V0209999C000012200019N0060001N1+01001+00901999999ADDGA1021+004801999GF102991999999999999999999MA1103291999999REMMET057METAR GMTT 052300Z 00000KT 6000 FEW016 10/09 Q1033 NOSIG;
0126601010999992013010523304+35733-005900FM-15+0021GMTT V0201001N001012200019N0060001N1+01001+00801999999ADDGA1021+004801999GF102991999999999999999999MA1103291999999REMMET057METAR GMTT 052330Z 10002KT 6000 FEW016 10/08 Q1033 NOSIG;
0216601010999992013010600004+35733-005900SY-MT+0021GMTT V0201101N002112200019N0060001N1+00881+00761103301ADDGA1021+004801999GF102991021051004501001001MA1103181999999MD1610061+9999REMSYN070AAXX  06004 60101 32456 21104 10088 20076 40330 56006 82500 333 82616;MET057METAR GMTT 060000Z 11004KT 6000 FEW016 09/08 Q1032 NOSIG;
0134601010999992013010600304+35733-005900FM-15+0021GMTT V0201001N001512200019N0041001N1+00901+00801999999ADDGA1021+004801999GF102991999999999999999999MA1103181999999REMMET065METAR GMTT 060030Z 10003KT 070V130 4100 FEW016 09/08 Q1032 NOSIG;
0126601010999992013010601004+35733-005900FM-15+0021GMTT V0201101N002112200019N0041001N1+00901+00701999999ADDGA1021+004801999GF102991999999999999999999MA1103181999999REMMET057METAR GMTT 060100Z 11004KT 4100 FEW016 09/07 Q1032 NOSIG;
0091601010999992013010601304+35733-005900AUTO +0021GMTT V0200901N001512200019N0042001N1+00901+00701999999ADDMA1103181999999REMMET064METAR GMTT 060130Z AUTO 09003KT 030V120 4200NDV /// 09/07 Q1032;
0083601010999992013010602004+35733-005900AUTO +0021GMTT V0201001N000512200019N0033001N1+00801+00701999999ADDMA1103181999999REMMET056METAR GMTT 060200Z AUTO 10001KT 3300NDV /// 08/07 Q1032;
0083601010999992013010602304+35733-005900AUTO +0021GMTT V0201101N003112200019N0040001N1+00801+00701999999ADDMA1103181999999REMMET056METAR GMTT 060230Z AUTO 11006KT 4000NDV /// 08/07 Q1032;
0165601010999992013010603004+35733-005900SY-MT+0021GMTT V0201001N001519999999N0040001N1+00811+00691103231ADDMA1103181999999MD1810071+9999REMSYN054AAXX  06034 60101 46940 /1003 10081 20069 40323 58007;MET064METAR GMTT 060300Z AUTO 10003KT 050V120 4000NDV /// 08/07 Q1032;
0083601010999992013010603304+35733-005900AUTO +0021GMTT V0201001N001512200019N0035001N1+00801+00701999999ADDMA1103181999999REMMET056METAR GMTT 060330Z AUTO 10003KT 3500NDV /// 08/07 Q1032;
0083601010999992013010604004+35733-005900AUTO +0021GMTT V0201001N002112200019N0031001N1+00801+00701999999ADDMA1103181999999REMMET056METAR GMTT 060400Z AUTO 10004KT 3100NDV /// 08/07 Q1032;
0083601010999992013010604304+35733-005900AUTO +0021GMTT V0201001N001512200019N0038001N1+00801+00701999999ADDMA1103121999999REMMET056METAR GMTT 060430Z AUTO 10003KT 3800NDV /// 08/07 Q1031;
0126601010999992013010605004+35733-005900FM-15+0021GMTT V0201001N001512200019N0060001N1+00801+00701999999ADDGA1021+004801999GF102991999999999999999999MA1103121999999REMMET057METAR GMTT 060500Z 10003KT 6000 FEW016 08/07 Q1031 NOSIG;
0126601010999992013010605304+35733-005900FM-15+0021GMTT V0209999C000012200019N0060001N1+00801+00701999999ADDGA1021+004801999GF102991999999999999999999MA1103121999999REMMET057METAR GMTT 060530Z 00000KT 6000 FEW016 08/07 Q1031 NOSIG;
0243601010999992013010606004+35733-005900SY-MT+0021GMTT V0201001N001512200019N0060001N1+00841+00731103191ADDGA1021+004801999GF102991021051004501001001KA1999N+00761MA1103121999999MD1810041+9999REMSYN076AAXX  06064 60101 32456 21003 10084 20073 40319 58004 82500 333 20076 82616;MET065METAR GMTT 060600Z 10003KT 070V190 6000 FEW016 08/07 Q1031 NOSIG;
0126601010999992013010606304+35733-005900FM-15+0021GMTT V0201001N002112200019N0060001N1+00801+00701999999ADDGA1021+004801999GF102991999999999999999999MA1103121999999REMMET057METAR GMTT 060630Z 10004KT 6000 FEW016 08/07 Q1031 NOSIG;
0126601010999992013010607004+35733-005900FM-15+0021GMTT V0201001N001012200019N0060001N1+00901+00801999999ADDGA1021+004801999GF102991999999999999999999MA1103181999999REMMET057METAR GMTT 060700Z 10002KT 6000 FEW016 09/08 Q1032 NOSIG;
0126601010999992013010607304+35733-005900FM-15+0021GMTT V0201001N001512200019N0060001N1+00901+00801999999ADDGA1041+004801999GF104991999999999999999999MA1103181999999REMMET057METAR GMTT 060730Z 10003KT 6000 SCT016 09/08 Q1032 NOSIG;
0134601010999992013010608004+35733-005900FM-15+0021GMTT V0201001N001512200019N0060001N1+01001+00901999999ADDGA1041+004801999GF104991999999999999999999MA1103181999999REMMET065METAR GMTT 060800Z 10003KT 060V120 6000 SCT016 10/09 Q1032 NOSIG;
0149601010999992013010608304+35733-005900FM-15+0021GMTT V0209999V001010048019N0060001N1+01001+00901999999ADDGA1021+003001999GA2071+004801999GF107991999999999999999999MA1103181999999REMMET064METAR GMTT 060830Z VRB02KT 6000 FEW010 BKN016 10/09 Q1032 NOSIG;
0264601010999992013010609004+35733-005900SY-MT+0021GMTT V0200901N000510048019N0060001N1+01121+01031103271ADDGA1021+003001999GA2071+004801999GF199999061021004501001001MA1103181999999MD1110081+9999REMSYN076AAXX  06094 60101 32456 60901 10112 20103 40327 51008 86200 333 82710 85816;MET064METAR GMTT 060900Z VRB01KT 6000 FEW010 BKN016 11/10 Q1032 NOSIG;EQDQ01+000062SCOTCV
0149601010999992013010609304+35733-005900FM-15+0021GMTT V0209999C000010048019N0060001N1+01201+01101999999ADDGA1021+003001999GA2071+004801999GF107991999999999999999999MA1103181999999REMMET064METAR GMTT 060930Z 00000KT 6000 FEW010 BKN016 12/11 Q1032 NOSIG;
0149601010999992013010610004+35733-005900FM-15+0021GMTT V0209999C000010048019N0060001N1+01301+01301999999ADDGA1021+003001999GA2071+004801999GF107991999999999999999999MA1103181999999REMMET064METAR GMTT 061000Z 00000KT 6000 FEW010 BKN016 13/13 Q1032 NOSIG;
0149601010999992013010610304+35733-005900FM-15+0021GMTT V0209999V000510048019N0060001N1+01401+01301999999ADDGA1021+003001999GA2071+004801999GF107991999999999999999999MA1103291999999REMMET064METAR GMTT 061030Z VRB01KT 6000 FEW010 BKN016 14/13 Q1033 NOSIG;
0157601010999992013010611004+35733-005900FM-15+0021GMTT V0202301N001510048019N0080001N1+01501+01401999999ADDGA1021+003001999GA2071+004801999GF107991999999999999999999MA1103181999999REMMET072METAR GMTT 061100Z 23003KT 190V260 8000 FEW010 BKN016 15/14 Q1032 NOSIG;
0149601010999992013010611304+35733-005900FM-15+0021GMTT V0202101N003610048019N0080001N1+01601+01401999999ADDGA1021+003001999GA2071+004801999GF107991999999999999999999MA1103181999999REMMET064METAR GMTT 061130Z 21007KT 8000 FEW010 BKN016 16/14 Q1032 NOSIG;
0264601010999992013010612004+35733-005900SY-MT+0021GMTT V0202201N003110048019N0080001N1+01641+01351103221ADDGA1021+003001999GA2071+004801999GF199999061021004501001001MA1103181999999MD1610041+9999REMSYN076AAXX  06124 60101 32458 62206 10164 20135 40322 56004 86200 333 82710 85816;MET064METAR GMTT 061200Z 22006KT 8000 FEW010 BKN016 16/14 Q1032 NOSIG;EQDQ01+000062SCOTCV
0157601010999992013010612304+35733-005900FM-15+0021GMTT V0202501N003110048019N0080001N1+01701+01401999999ADDGA1021+003001999GA2071+004801999GF107991999999999999999999MA1103121999999REMMET072METAR GMTT 061230Z 25006KT 210V280 8000 FEW010 BKN016 17/14 Q1031 NOSIG;
0134601010999992013010613004+35733-005900FM-15+0021GMTT V0202501N003112200019N0080001N1+01701+01301999999ADDGA1041+004801999GF104991999999999999999999MA1103121999999REMMET065METAR GMTT 061300Z 25006KT 220V290 8000 SCT016 17/13 Q1031 NOSIG;
0134601010999992013010613304+35733-005900FM-15+0021GMTT V0202501N002612200019N0080001N1+01701+01301999999ADDGA1041+004801999GF104991999999999999999999MA1103011999999REMMET065METAR GMTT 061330Z 25005KT 220V290 8000 SCT016 17/13 Q1030 NOSIG;
0126601010999992013010614004+35733-005900FM-15+0021GMTT V0202601N003112200019N0112651N1+01701+01301999999ADDGA1041+004801999GF104991999999999999999999MA1103011999999REMMET057METAR GMTT 061400Z 26006KT 9999 SCT016 17/13 Q1030 NOSIG;
0235601010999992013010615004+35733-005900SY-MT+0021GMTT V0202601N003112200019N0100001N1+01701+01291103011ADDGA1041+004801999GF199999031021004501001001MA1103011999999MD1810191+9999REMSYN070AAXX  06154 60101 32460 32606 10170 20129 40301 58019 83200 333 83816;MET057METAR GMTT 061500Z 26006KT 9999 SCT016 17/13 Q1030 NOSIG;EQDQ01+000032SCOTCV
0126601010999992013010616004+35733-005900FM-15+0021GMTT V0202501N003112200019N0112651N1+01701+01301999999ADDGA1041+004801999GF104991999999999999999999MA1103011999999REMMET057METAR GMTT 061600Z 25006KT 9999 SCT016 17/13 Q1030 NOSIG;
0126601010999992013010617004+35733-005900FM-15+0021GMTT V0202401N002610048019N0112651N1+01501+01201999999ADDGA1071+004801999GF107991999999999999999999MA1103011999999REMMET057METAR GMTT 061700Z 24005KT 9999 BKN016 15/12 Q1030 NOSIG;
0254601010999992013010618004+35733-005900SY-MT+0021GMTT V0202901N001510048019N0080001N1+01281+01051103021ADDGA1071+004801999GF199999051021004501001001KA1120M+01731MA1103011999999MD1010001+9999REMSYN076AAXX  06184 60101 32458 52903 10128 20105 40302 50000 85200 333 10173 85816;MET057METAR GMTT 061800Z 29003KT 8000 BKN016 13/11 Q1030 NOSIG;EQDQ01+000052SCOTCV
0126601010999992013010619004+35733-005900FM-15+0021GMTT V0209999C000010048019N0080001N1+01101+00901999999ADDGA1071+004801999GF107991999999999999999999MA1103011999999REMMET057METAR GMTT 061900Z 00000KT 8000 BKN016 11/09 Q1030 NOSIG;
0126601010999992013010620004+35733-005900FM-15+0021GMTT V0209999V000510048019N0080001N1+01001+00901999999ADDGA1071+004801999GF107991999999999999999999MA1103011999999REMMET057METAR GMTT 062000Z VRB01KT 8000 BKN016 10/09 Q1030 NOSIG;
0216601010999992013010621004+35733-005900SY-MT+0021GMTT V0200901N001512200019N0080001N1+00921+00761103051ADDGA1041+004801999GF199999031021004501001001MA1103011999999MD1210031+9999REMSYN070AAXX  06214 60101 32458 30903 10092 20076 40305 52003 83200 333 83816;MET057METAR GMTT 062100Z 09003KT 8000 SCT016 09/08 Q1030 NOSIG;
0126601010999992013010621304+35733-005900FM-15+0021GMTT V0201001N001012200019N0080001N1+00901+00801999999ADDGA1041+004801999GF104991999999999999999999MA1103011999999REMMET057METAR GMTT 062130Z 10002KT 8000 SCT016 09/08 Q1030 NOSIG;
0126601010999992013010622004+35733-005900FM-15+0021GMTT V0209999V001012200019N0080001N1+00901+00801999999ADDGA1041+004801999GF104991999999999999999999MA1103011999999REMMET057METAR GMTT 062200Z VRB02KT 8000 SCT016 09/08 Q1030 NOSIG;
0126601010999992013010622304+35733-005900FM-15+0021GMTT V0209999V001012200019N0080001N1+00801+00701999999ADDGA1041+004801999GF104991999999999999999999MA1103011999999REMMET057METAR GMTT 062230Z VRB02KT 8000 SCT016 08/07 Q1030 NOSIG;
0126601010999992013010623004+35733-005900FM-15+0021GMTT V0209999C000012200019N0080001N1+00801+00701999999ADDGA1041+004801999GF104991999999999999999999MA1103011999999REMMET057METAR GMTT 062300Z 00000KT 8000 SCT016 08/07 Q1030 NOSIG;
0126601010999992013010623304+35733-005900FM-15+0021GMTT V0209999C000012200019N0060001N1+00801+00701999999ADDGA1041+004801999GF104991999999999999999999MA1103011999999REMMET057METAR GMTT 062330Z 00000KT 6000 SCT016 08/07 Q1030 NOSIG;
0216601010999992013010700004+35733-005900SY-MT+0021GMTT V0209999C000012200019N0060001N1+00771+00651103071ADDGA1041+004801999GF103991031021004501001001MA1103011999999MD1010011+9999REMSYN070AAXX  07004 60101 32456 30000 10077 20065 40307 50001 83200 333 83816;MET057METAR GMTT 070000Z 00000KT 6000 SCT016 08/07 Q1030 NOSIG;
0126601010999992013010700304+35733-005900FM-15+0021GMTT V0200601N001012200019N0060001N1+00701+00601999999ADDGA1041+004801999GF104991999999999999999999MA1103011999999REMMET057METAR GMTT 070030Z 06002KT 6000 SCT016 07/06 Q1030 NOSIG;
0126601010999992013010701004+35733-005900FM-15+0021GMTT V0200601N001012200019N0060001N1+00801+00701999999ADDGA1041+004801999GF104991999999999999999999MA1103011999999REMMET057METAR GMTT 070100Z 06002KT 6000 SCT016 08/07 Q1030 NOSIG;
0126601010999992013010701304+35733-005900FM-15+0021GMTT V0200801N000512200019N0031001N1+00801+00701999999ADDGA1041+004801999GF104991999999999999999999MA1102911999999REMMET057METAR GMTT 070130Z 08001KT 3100 SCT016 08/07 Q1029 NOSIG;
0126601010999992013010702004+35733-005900FM-15+0021GMTT V0201001N002112200019N0029001N1+00801+00701999999ADDGA1041+004801999GF104991999999999999999999MA1102911999999REMMET057METAR GMTT 070200Z 10004KT 2900 SCT016 08/07 Q1029 NOSIG;
0126601010999992013010702304+35733-005900FM-15+0021GMTT V0209999C000012200019N0028001N1+00801+00701999999ADDGA1041+004801999GF104991999999999999999999MA1102911999999REMMET057METAR GMTT 070230Z 00000KT 2800 SCT016 08/07 Q1029 NOSIG;
0235601010999992013010703004+35733-005900SY-MT+0021GMTT V0201001N001012200019N0031001N1+00781+00671102971ADDGA1041+004801999GF199999031021004501001001MA1102911999999MD1810091+9999REMSYN070AAXX  07034 60101 45431 31002 10078 20067 40297 58009 83200 333 83816;MET057METAR GMTT 070300Z VRB02KT 3100 SCT016 08/07 Q1029 NOSIG;EQDQ01+000032SCOTCV
0083601010999992013010703304+35733-005900AUTO +0021GMTT V0201101N002112200019N0030001N1+00801+00701999999ADDMA1102911999999REMMET056METAR GMTT 070330Z AUTO 11004KT 3000NDV /// 08/07 Q1029;
0083601010999992013010704004+35733-005900AUTO +0021GMTT V0201001N002112200019N0029001N1+00801+00701999999ADDMA1102911999999REMMET056METAR GMTT 070400Z AUTO 10004KT 2900NDV /// 08/07 Q1029;
0091601010999992013010704304+35733-005900AUTO +0021GMTT V0201101N002112200019N0029001N1+00801+00701999999ADDMA1102911999999REMMET064METAR GMTT 070430Z AUTO 11004KT 080V140 2900NDV /// 08/07 Q1029;
0083601010999992013010705004+35733-005900AUTO +0021GMTT V0201101N002112200019N0032001N1+00801+00701999999ADDMA1102911999999REMMET056METAR GMTT 070500Z AUTO 11004KT 3200NDV /// 08/07 Q1029;
0083601010999992013010705304+35733-005900AUTO +0021GMTT V0201101N001512200019N0034001N1+00801+00701999999ADDMA1102811999999REMMET056METAR GMTT 070530Z AUTO 11003KT 3400NDV /// 08/07 Q1028;
0235601010999992013010706004+35733-005900SY-MT+0021GMTT V0200901N001512200019N0060001N1+00771+00661102891ADDGA1041+004801999GF104991041021004501001001KA1999N+00701MA1102811999999MD1810071+9999REMSYN076AAXX  07064 60101 32456 40903 10077 20066 40289 58007 84200 333 20070 84816;MET057METAR GMTT 070600Z 09003KT 6000 SCT016 08/07 Q1028 NOSIG;
0126601010999992013010706304+35733-005900FM-15+0021GMTT V0201101N002112200019N0060001N1+00801+00701999999ADDGA1041+004801999GF104991999999999999999999MA1102811999999REMMET057METAR GMTT 070630Z 11004KT 6000 SCT016 08/07 Q1028 NOSIG;
0126601010999992013010707004+35733-005900FM-15+0021GMTT V0201101N003112200019N0060001N1+00801+00701999999ADDGA1041+004801999GF104991999999999999999999MA1102911999999REMMET057METAR GMTT 070700Z 11006KT 6000 SCT016 08/07 Q1029 NOSIG;
0126601010999992013010707304+35733-005900FM-15+0021GMTT V0201101N001512200019N0060001N1+00701+00601999999ADDGA1041+004801999GF104991999999999999999999MA1102911999999REMMET057METAR GMTT 070730Z 11003KT 6000 SCT016 07/06 Q1029 NOSIG;
0126601010999992013010708004+35733-005900FM-15+0021GMTT V0209999C000012200019N0080001N1+00701+00601999999ADDGA1021+004801999GF102991999999999999999999MA1102911999999REMMET057METAR GMTT 070800Z 00000KT 8000 FEW016 07/06 Q1029 NOSIG;
0216601010999992013010709004+35733-005900SY-MT+0021GMTT V0201101N001512200019N0080001N1+00981+00891102991ADDGA1021+004801999GF102991021021004501001001MA1102911999999MD1210091+9999REMSYN070AAXX  07094 60101 32458 21103 10098 20089 40299 52009 82200 333 82816;MET057METAR GMTT 070900Z 11003KT 8000 FEW016 10/09 Q1029 NOSIG;
0126601010999992013010709304+35733-005900FM-15+0021GMTT V0209999V001012200019N0080001N1+01201+01101999999ADDGA1021+004801999GF102991999999999999999999MA1102911999999REMMET057METAR GMTT 070930Z VRB02KT 8000 FEW016 12/11 Q1029 NOSIG;
0126601010999992013010710004+35733-005900FM-15+0021GMTT V0209999V001012200019N0080001N1+01301+01201999999ADDGA1021+004801999GF102991999999999999999999MA1103011999999REMMET057METAR GMTT 071000Z VRB02KT 8000 FEW016 13/12 Q1030 NOSIG;
0126601010999992013010711004+35733-005900FM-15+0021GMTT V0209999V000512200019N0080001N1+01501+01301999999ADDGA1021+004801999GF102991999999999999999999MA1103011999999REMMET057METAR GMTT 071100Z VRB01KT 8000 FEW016 15/13 Q1030 NOSIG;
0235601010999992013010712004+35733-005900SY-MT+0021GMTT V0202701N003112200019N0080001N1+01621+01271102971ADDGA1041+004801999GF199999031021004501001001MA1102911999999MD1610021+9999REMSYN070AAXX  07124 60101 32458 32706 10162 20127 40297 56002 83200 333 83816;MET057METAR GMTT 071200Z 27006KT 8000 SCT016 16/13 Q1029 NOSIG;EQDQ01+000032SCOTCV
0126601010999992013010713004+35733-005900FM-15+0021GMTT V0203001N003612200019N0080001N1+01701+01301999999ADDGA1041+004801999GF104991999999999999999999MA1102811999999REMMET057METAR GMTT 071300Z 30007KT 8000 SCT016 17/13 Q1028 NOSIG;
0126601010999992013010714004+35733-005900FM-15+0021GMTT V0203201N002612200019N0112651N1+01701+01201999999ADDGA1041+004801999GF104991999999999999999999MA1102811999999REMMET057METAR GMTT 071400Z 32005KT 9999 SCT016 17/12 Q1028 NOSIG;
0134601010999992013010714304+35733-005900FM-15+0021GMTT V0203201N002612200019N0112651N1+01701+01201999999ADDGA1041+004801999GF104991999999999999999999MA1102811999999REMMET065METAR GMTT 071430Z 32005KT 290V360 9999 SCT016 17/12 Q1028 NOSIG;
0224601010999992013010715004+35733-005900SY-MT+0021GMTT V0203201N002612200019N0100001N1+01681+01151102841ADDGA1041+004801999GF104991041021004501001001MA1102811999999MD1810111+9999REMSYN070AAXX  07154 60101 32460 43205 10168 20115 40284 58011 84200 333 84816;MET065METAR GMTT 071500Z 32005KT 290V360 9999 SCT016 17/12 Q1028 NOSIG;
0126601010999992013010715304+35733-005900FM-15+0021GMTT V0203301N003112200019N0112651N1+01701+01101999999ADDGA1041+004801999GF104991999999999999999999MA1102811999999REMMET057METAR GMTT 071530Z 33006KT 9999 SCT016 17/11 Q1028 NOSIG;
0126601010999992013010716004+35733-005900FM-15+0021GMTT V0203301N002612200019N0112651N1+01601+01101999999ADDGA1041+004801999GF104991999999999999999999MA1102811999999REMMET057METAR GMTT 071600Z 33005KT 9999 SCT016 16/11 Q1028 NOSIG;
0126601010999992013010716304+35733-005900FM-15+0021GMTT V0203201N002112200019N0112651N1+01601+01101999999ADDGA1041+004801999GF104991999999999999999999MA1102811999999REMMET057METAR GMTT 071630Z 32004KT 9999 SCT016 16/11 Q1028 NOSIG;
0126601010999992013010717004+35733-005900FM-15+0021GMTT V0203301N001512200019N0112651N1+01501+01001999999ADDGA1041+004801999GF104991999999999999999999MA1102811999999REMMET057METAR GMTT 071700Z 33003KT 9999 SCT016 15/10 Q1028 NOSIG;
0126601010999992013010717304+35733-005900FM-15+0021GMTT V0203101N001012200019N0112651N1+01401+01001999999ADDGA1041+004801999GF104991999999999999999999MA1102811999999REMMET057METAR GMTT 071730Z 31002KT 9999 SCT016 14/10 Q1028 NOSIG;
0235601010999992013010718004+35733-005900SY-MT+0021GMTT V0209999C000012200019N0080001N1+01171+00821102881ADDGA1021+004801999GF102991021021004501001001KA1120M+01741MA1102811999999MD1310031+9999REMSYN076AAXX  07184 60101 32458 20000 10117 20082 40288 53003 82200 333 10174 82816;MET057METAR GMTT 071800Z 00000KT 8000 FEW016 12/08 Q1028 NOSIG;
0126601010999992013010718304+35733-005900FM-15+0021GMTT V0209999C000012200019N0080001N1+01001+00701999999ADDGA1021+004801999GF102991999999999999999999MA1102911999999REMMET057METAR GMTT 071830Z 00000KT 8000 FEW016 10/07 Q1029 NOSIG;
0126601010999992013010719004+35733-005900FM-15+0021GMTT V0200701N001512200019N0080001N1+00901+00701999999ADDGA1021+004801999GF102991999999999999999999MA1102911999999REMMET057METAR GMTT 071900Z 07003KT 8000 FEW016 09/07 Q1029 NOSIG;
0134601010999992013010719304+35733-005900FM-15+0021GMTT V0200701N001512200019N0080001N1+00901+00701999999ADDGA1021+004801999GF102991999999999999999999MA1102911999999REMMET065METAR GMTT 071930Z 07003KT 050V110 8000 FEW016 09/07 Q1029 NOSIG;
0126601010999992013010720004+35733-005900FM-15+0021GMTT V0209999V001012200019N0080001N1+00901+00701999999ADDGA1021+004801999GF102991999999999999999999MA1102911999999REMMET057METAR GMTT 072000Z VRB02KT 8000 FEW016 09/07 Q1029 NOSIG;
0126601010999992013010720304+35733-005900FM-15+0021GMTT V0200901N001012200019N0080001N1+00901+00701999999ADDGA1021+004801999GF102991999999999999999999MA1102911999999REMMET057METAR GMTT 072030Z 09002KT 8000 FEW016 09/07 Q1029 NOSIG;
0216601010999992013010721004+35733-005900SY-MT+0021GMTT V0209999C000012200019N0080001N1+00861+00711102981ADDGA1021+004801999GF102991021021004501001001MA1102911999999MD1110091+9999REMSYN070AAXX  07214 60101 32458 20000 10086 20071 40298 51009 82200 333 82816;MET057METAR GMTT 072100Z 00000KT 8000 FEW016 09/07 Q1029 NOSIG;
0126601010999992013010721304+35733-005900FM-15+0021GMTT V0200701N001512200019N0080001N1+00801+00701999999ADDGA1021+004801999GF102991999999999999999999MA1102911999999REMMET057METAR GMTT 072130Z 07003KT 8000 FEW016 08/07 Q1029 NOSIG;
0126601010999992013010722004+35733-005900FM-15+0021GMTT V0209999V001012200019N0060001N1+00901+00701999999ADDGA1021+004801999GF102991999999999999999999MA1103011999999REMMET057METAR GMTT 072200Z VRB02KT 6000 FEW016 09/07 Q1030 NOSIG;
0126601010999992013010722304+35733-005900FM-15+0021GMTT V0209999V001012200019N0060001N1+00801+00701999999ADDGA1021+004801999GF102991999999999999999999MA1103011999999REMMET057METAR GMTT 072230Z VRB02KT 6000 FEW016 08/07 Q1030 NOSIG;
0134601010999992013010723004+35733-005900FM-15+0021GMTT V0201001N001512200019N0060001N1+00901+00701999999ADDGA1021+004801999GF102991999999999999999999MA1103011999999REMMET065METAR GMTT 072300Z 10003KT 030V120 6000 FEW016 09/07 Q1030 NOSIG;
0126601010999992013010723304+35733-005900FM-15+0021GMTT V0209999V001012200019N0060001N1+00801+00701999999ADDGA1021+004801999GF102991999999999999999999MA1102911999999REMMET057METAR GMTT 072330Z VRB02KT 6000 FEW016 08/07 Q1029 NOSIG;
0216601010999992013010800004+35733-005900SY-MT+0021GMTT V0200901N001012200019N0060001N1+00891+00771102971ADDGA1021+004801999GF102991021021004501001001MA1102911999999MD1610011+9999REMSYN070AAXX  08004 60101 32456 20902 10089 20077 40297 56001 82200 333 82816;MET057METAR GMTT 080000Z 09002KT 6000 FEW016 09/08 Q1029 NOSIG;
0126601010999992013010800304+35733-005900FM-15+0021GMTT V0201101N001012200019N0043001N1+00901+00801999999ADDGA1041+004801999GF104991999999999999999999MA1102911999999REMMET057METAR GMTT 080030Z 11002KT 4300 SCT016 09/08 Q1029 NOSIG;
0126601010999992013010801004+35733-005900FM-15+0021GMTT V0200901N001012200019N0045001N1+01001+00801999999ADDGA1041+004801999GF104991999999999999999999MA1102911999999REMMET057METAR GMTT 080100Z 09002KT 4500 SCT016 10/08 Q1029 NOSIG;
0083601010999992013010801304+35733-005900AUTO +0021GMTT V0201001N001012200019N0044001N1+01001+00901999999ADDMA1102911999999REMMET056METAR GMTT 080130Z AUTO 10002KT 4400NDV /// 10/09 Q1029;
0083601010999992013010802004+35733-005900AUTO +0021GMTT V0201201N002612200019N0050001N1+01001+00901999999ADDMA1102911999999REMMET056METAR GMTT 080200Z AUTO 12005KT 5000NDV /// 10/09 Q1029;
0083601010999992013010802304+35733-005900AUTO +0021GMTT V0201201N002112200019N0046001N1+01001+00901999999ADDMA1102911999999REMMET056METAR GMTT 080230Z AUTO 12004KT 4600NDV /// 10/09 Q1029;
0165601010999992013010803004+35733-005900SY-MT+0021GMTT V0200901N001519999999N0045001N1+00991+00851102921ADDMA1102911999999MD1810051+9999REMSYN054AAXX  08034 60101 46945 /0903 10099 20085 40292 58005;MET064METAR GMTT 080300Z AUTO 09003KT 040V110 4500NDV /// 10/09 Q1029;
0083601010999992013010803304+35733-005900AUTO +0021GMTT V0209999V001012200019N0045001N1+01001+00901999999ADDMA1102811999999REMMET056METAR GMTT 080330Z AUTO VRB02KT 4500NDV /// 10/09 Q1028;
0083601010999992013010804004+35733-005900AUTO +0021GMTT V0201201N002112200019N0048001N1+01001+00901999999ADDMA1102911999999REMMET056METAR GMTT 080400Z AUTO 12004KT 4800NDV /// 10/09 Q1029;
0083601010999992013010804304+35733-005900AUTO +0021GMTT V0201101N003112200019N0049001N1+01001+00901999999ADDMA1102811999999REMMET056METAR GMTT 080430Z AUTO 11006KT 4900NDV /// 10/09 Q1028;
0083601010999992013010805004+35733-005900AUTO +0021GMTT V0201101N002112200019N0039001N1+01001+00801999999ADDMA1102811999999REMMET056METAR GMTT 080500Z AUTO 11004KT 3900NDV /// 10/08 Q1028;
0083601010999992013010805304+35733-005900AUTO +0021GMTT V0201101N003112200019N0041001N1+01001+00901999999ADDMA1102811999999REMMET056METAR GMTT 080530Z AUTO 11006KT 4100NDV /// 10/09 Q1028;
0222601010999992013010806004+35733-005900SY-MT+0021GMTT V0201001N002119999999N0043001N1+01041+00871102881ADDAA124000091KA1999N+00811MA1102811999999MD1810031+9999REMSYN076AAXX  08064 60101 16943 /1004 10104 20087 40288 58003 60004 333 20081 3////;MET056METAR GMTT 080600Z AUTO 10004KT 4300NDV /// 10/09 Q1028;EQDQ01  00002PRCP24
0126601010999992013010806304+35733-005900FM-15+0021GMTT V0201101N002110048019N0060001N1+01101+00901999999ADDGA1071+004801999GF107991999999999999999999MA1102811999999REMMET057METAR GMTT 080630Z 11004KT 6000 BKN016 11/09 Q1028 NOSIG;
0126601010999992013010807004+35733-005900FM-15+0021GMTT V0201001N002610048019N0060001N1+01101+00901999999ADDGA1071+004801999GF107991999999999999999999MA1102911999999REMMET057METAR GMTT 080700Z 10005KT 6000 BKN016 11/09 Q1029 NOSIG;
0126601010999992013010807304+35733-005900FM-15+0021GMTT V0201001N002110048019N0060001N1+01101+00901999999ADDGA1071+004801999GF107991999999999999999999MA1102911999999REMMET057METAR GMTT 080730Z 10004KT 6000 BKN016 11/09 Q1029 NOSIG;
0126601010999992013010808004+35733-005900FM-15+0021GMTT V0201001N002610048019N0080001N1+01001+00801999999ADDGA1071+004801999GF107991999999999999999999MA1102911999999REMMET057METAR GMTT 080800Z 10005KT 8000 BKN016 10/08 Q1029 NOSIG;
0126601010999992013010808304+35733-005900FM-15+0021GMTT V0201001N002110048019N0060001N1+01101+00901999999ADDGA1071+004801999GF107991999999999999999999MA1102911999999REMMET057METAR GMTT 080830Z 10004KT 6000 BKN016 11/09 Q1029 NOSIG;
0243601010999992013010809004+35733-005900SY-MT+0021GMTT V0201101N001510048019N0060001N1+01221+01041103041ADDGA1071+004801999GF199999061021004501001001MA1103011999999MD1310151+9999REMSYN070AAXX  08094 60101 32456 61103 10122 20104 40304 53015 86200 333 86816;MET065METAR GMTT 080900Z 11003KT 080V140 6000 BKN016 12/10 Q1030 NOSIG;EQDQ01+000062SCOTCV
0126601010999992013010809304+35733-005900FM-15+0021GMTT V0209999V001010048019N0060001N1+01401+01101999999ADDGA1071+004801999GF107991999999999999999999MA1103011999999REMMET057METAR GMTT 080930Z VRB02KT 6000 BKN016 14/11 Q1030 NOSIG;
0134601010999992013010810004+35733-005900FM-15+0021GMTT V0202001N002110048019N0060001N1+01501+01101999999ADDGA1071+004801999GF107991999999999999999999MA1103011999999REMMET065METAR GMTT 081000Z 20004KT 140V250 6000 BKN016 15/11 Q1030 NOSIG;
0134601010999992013010810304+35733-005900FM-15+0021GMTT V0202001N003110048019N0080001N1+01501+01101999999ADDGA1071+004801999GF107991999999999999999999MA1103011999999REMMET065METAR GMTT 081030Z 20006KT 070V240 8000 BKN016 15/11 Q1030 NOSIG;
0126601010999992013010811004+35733-005900FM-15+0021GMTT V0202001N004610048019N0080001N1+01601+01101999999ADDGA1071+004801999GF107991999999999999999999MA1103011999999REMMET057METAR GMTT 081100Z 20009KT 8000 BKN016 16/11 Q1030 NOSIG;
0157601010999992013010811304+35733-005900FM-15+0021GMTT V0202001N003612200019N0112651N1+01601+01201999999ADDGA1041+004801999GA2041+030001999GF104991999999999999999999MA1103011999999REMMET072METAR GMTT 081130Z 20007KT 170V240 9999 SCT016 SCT100 16/12 Q1030 NOSIG;
0253601010999992013010812004+35733-005900SY-MT+0021GMTT V0202401N004110300019N0100001N1+01691+01241103021ADDGA1041+004801999GA2041+030001999GF106991041021004501081001MA1103011999999MD1810011+9999REMSYN076AAXX  08124 60101 32460 62408 10169 20124 40302 58001 84280 333 84816 83360;MET072METAR GMTT 081200Z 24008KT 190V260 9999 SCT016 SCT100 17/12 Q1030 NOSIG;
0157601010999992013010812304+35733-005900FM-15+0021GMTT V0202401N004612200019N0112651N1+01701+01301999999ADDGA1041+004801999GA2041+030001999GF104991999999999999999999MA1102911999999REMMET072METAR GMTT 081230Z 24009KT 210V270 9999 SCT016 SCT100 17/13 Q1029 NOSIG;
0142601010999992013010813004+35733-005900FM-15+0021GMTT V0202401N00411004801CN0112651N1+01701+01201999999ADDGA1071+004801999GA2041+030001999MA1102911999999REMMET064METAR GMTT 081300Z 24008KT 9999 BKN016 SCT100 17/12 Q1029 NOSIG;EQDQ01+000042SCOTCV
0134601010999992013010813304+35733-005900FM-15+0021GMTT V0202501N004110048019N0112651N1+01601+01301999999ADDGA1071+004801999GF107991999999999999999999MA1102911999999REMMET065METAR GMTT 081330Z 25008KT 220V280 9999 BKN016 16/13 Q1029 NOSIG;
0134601010999992013010814004+35733-005900FM-15+0021GMTT V0202501N003610048019N0112651N1+01601+01301999999ADDGA1071+004801999GF107991999999999999999999MA1102911999999REMMET065METAR GMTT 081400Z 25007KT 210V270 9999 BKN016 16/13 Q1029 NOSIG;
0149601010999992013010814304+35733-005900FM-15+0021GMTT V0202501N004110048019N0112651N1+01701+01301999999ADDGA1041+003901999GA2071+004801999GF107991999999999999999999MA1102811999999REMMET064METAR GMTT 081430Z 25008KT 9999 SCT013 BKN016 17/13 Q1028 NOSIG;
0245601010999992013010815004+35733-005900SY-MT+0021GMTT V0202501N003610048019N0100001N1+01621+01271102871ADDGA1041+003901999GA2071+004801999GF107991071081004501999999MA1102811999999MD1810151+9999REMSYN076AAXX  08154 60101 32460 72507 10162 20127 40287 58015 878// 333 83813 86816;MET064METAR GMTT 081500Z 25007KT 9999 SCT013 BKN016 16/13 Q1028 NOSIG;
0149601010999992013010815304+35733-005900FM-15+0021GMTT V0202501N003110048019N0112651N1+01601+01301999999ADDGA1041+003901999GA2071+004801999GF107991999999999999999999MA1102811999999REMMET064METAR GMTT 081530Z 25006KT 9999 SCT013 BKN016 16/13 Q1028 NOSIG;
0157601010999992013010816004+35733-005900FM-15+0021GMTT V0202401N003610048019N0112651N1+01701+01301999999ADDGA1041+003901999GA2071+004801999GF107991999999999999999999MA1102811999999REMMET072METAR GMTT 081600Z 24007KT 210V270 9999 SCT013 BKN016 17/13 Q1028 NOSIG;
0126601010999992013010816304+35733-005900FM-15+0021GMTT V0202401N002612200019N0112651N1+01701+01301999999ADDGA1041+004801999GF104991999999999999999999MA1102811999999REMMET057METAR GMTT 081630Z 24005KT 9999 SCT016 17/13 Q1028 NOSIG;
0126601010999992013010817004+35733-005900FM-15+0021GMTT V0202501N002612200019N0112651N1+01601+01201999999ADDGA1041+004801999GF104991999999999999999999MA1102811999999REMMET057METAR GMTT 081700Z 25005KT 9999 SCT016 16/12 Q1028 NOSIG;
0126601010999992013010817304+35733-005900FM-15+0021GMTT V0202501N003112200019N0112651N1+01501+01201999999ADDGA1041+004801999GF104991999999999999999999MA1102811999999REMMET057METAR GMTT 081730Z 25006KT 9999 SCT016 15/12 Q1028 NOSIG;
0254601010999992013010818004+35733-005900SY-MT+0021GMTT V0202101N001012200019N0080001N1+01301+01051102891ADDGA1041+004801999GF199999031021004501001001KA1120M+01761MA1102811999999MD1510011+9999REMSYN076AAXX  08184 60101 32458 32102 10130 20105 40289 55001 83200 333 10176 83816;MET057METAR GMTT 081800Z 21002KT 8000 SCT016 13/11 Q1028 NOSIG;EQDQ01+000032SCOTCV
0126601010999992013010818304+35733-005900FM-15+0021GMTT V0209999V001012200019N0080001N1+01301+01101999999ADDGA1041+004801999GF104991999999999999999999MA1102911999999REMMET057METAR GMTT 081830Z VRB02KT 8000 SCT016 13/11 Q1029 NOSIG;
0126601010999992013010819004+35733-005900FM-15+0021GMTT V0200601N001512200019N0080001N1+01101+00901999999ADDGA1021+004801999GF102991999999999999999999MA1102911999999REMMET057METAR GMTT 081900Z 06003KT 8000 FEW016 11/09 Q1029 NOSIG;
0126601010999992013010819304+35733-005900FM-15+0021GMTT V0200701N001512200019N0080001N1+01101+00901999999ADDGA1021+004801999GF102991999999999999999999MA1102911999999REMMET057METAR GMTT 081930Z 07003KT 8000 FEW016 11/09 Q1029 NOSIG;
0126601010999992013010820004+35733-005900FM-15+0021GMTT V0200601N001512200019N0080001N1+01001+00901999999ADDGA1021+004801999GF102991999999999999999999MA1102911999999REMMET057METAR GMTT 082000Z 06003KT 8000 FEW016 10/09 Q1029 NOSIG;
0126601010999992013010820304+35733-005900FM-15+0021GMTT V0200101N001012200019N0080001N1+00901+00801999999ADDGA1021+004801999GF102991999999999999999999MA1102911999999REMMET057METAR GMTT 082030Z 01002KT 8000 FEW016 09/08 Q1029 NOSIG;
0216601010999992013010821004+35733-005900SY-MT+0021GMTT V0201101N000512200019N0080001N1+00981+00861102951ADDGA1021+004801999GF102991021051004501001001MA1102911999999MD1110061+9999REMSYN070AAXX  08214 60101 32458 21101 10098 20086 40295 51006 82500 333 82616;MET057METAR GMTT 082100Z 11001KT 8000 FEW016 10/09 Q1029 NOSIG;
0126601010999992013010822004+35733-005900FM-15+0021GMTT V0209999V001012200019N0080001N1+00901+00701999999ADDGA1021+004801999GF102991999999999999999999MA1102911999999REMMET057METAR GMTT 082200Z VRB02KT 8000 FEW016 09/07 Q1029 NOSIG;
0126601010999992013010823004+35733-005900FM-15+0021GMTT V0209999V000512200019N0080001N1+00701+00601999999ADDGA1041+004801999GF104991999999999999999999MA1102911999999REMMET057METAR GMTT 082300Z VRB01KT 8000 SCT016 07/06 Q1029 NOSIG;
0216601010999992013010900004+35733-005900SY-MT+0021GMTT V0201101N001512200019N0080001N1+00781+00661102951ADDGA1021+004801999GF102991021051004501001001MA1102911999999MD1610011+9999REMSYN070AAXX  09004 60101 32458 21103 10078 20066 40295 56001 82500 333 82616;MET057METAR GMTT 090000Z 11003KT 8000 FEW016 08/07 Q1029 NOSIG;
0083601010999992013010901004+35733-005900AUTO +0021GMTT V0209999V000512200019N0031001N1+00701+00601999999ADDMA1102811999999REMMET056METAR GMTT 090100Z AUTO VRB01KT 3100NDV /// 07/06 Q1028;
0083601010999992013010901304+35733-005900AUTO +0021GMTT V0209999V001012200019N0030001N1+00701+00601999999ADDMA1102811999999REMMET056METAR GMTT 090130Z AUTO VRB02KT 3000NDV /// 07/06 Q1028;
0083601010999992013010902004+35733-005900AUTO +0021GMTT V0201001N001512200019N0030001N1+00601+00501999999ADDMA1102811999999REMMET056METAR GMTT 090200Z AUTO 10003KT 3000NDV /// 06/05 Q1028;
0083601010999992013010902304+35733-005900AUTO +0021GMTT V0209999V001012200019N0032001N1+00701+00601999999ADDMA1102811999999REMMET056METAR GMTT 090230Z AUTO VRB02KT 3200NDV /// 07/06 Q1028;
0157601010999992013010903004+35733-005900SY-MT+0021GMTT V0201001N001519999999N0030001N1+00661+00561102871ADDMA1102811999999MD1810071+9999REMSYN054AAXX  09034 60101 46930 /1003 10066 20056 40287 58007;MET056METAR GMTT 090300Z AUTO 10003KT 3000NDV /// 07/06 Q1028;
0083601010999992013010903304+35733-005900AUTO +0021GMTT V0209999C000012200019N0032001N1+00701+00601999999ADDMA1102811999999REMMET056METAR GMTT 090330Z AUTO 00000KT 3200NDV /// 07/06 Q1028;
0083601010999992013010904004+35733-005900AUTO +0021GMTT V0201001N000512200019N0033001N1+00601+00501999999ADDMA1102811999999REMMET056METAR GMTT 090400Z AUTO 10001KT 3300NDV /// 06/05 Q1028;
0083601010999992013010904304+35733-005900AUTO +0021GMTT V0201201N002112200019N0025001N1+00601+00501999999ADDMA1102811999999REMMET056METAR GMTT 090430Z AUTO 12004KT 2500NDV /// 06/05 Q1028;
0126601010999992013010905004+35733-005900FM-15+0021GMTT V0201001N002112200019N0080001N1+00601+00501999999ADDGA1021+004801999GF102991999999999999999999MA1102711999999REMMET057METAR GMTT 090500Z 10004KT 8000 FEW016 06/05 Q1027 NOSIG;
0235601010999992013010906004+35733-005900SY-MT+0021GMTT V0201001N001512200019N0080001N1+00601+00501102821ADDGA1021+004801999GF102991021051004501001001KA1999N+00571MA1102811999999MD1810041+9999REMSYN076AAXX  09064 60101 32458 21003 10060 20050 40282 58004 82500 333 20057 82616;MET057METAR GMTT 090600Z 10003KT 8000 FEW016 06/05 Q1028 NOSIG;
0149601010999992013010907004+35733-005900FM-15+0021GMTT V0201001N001512200019N0080001N1+00601+00501999999ADDGA1021+004801999GA2041+060001999GF104991999999999999999999MA1102811999999REMMET064METAR GMTT 090700Z 10003KT 8000 FEW016 SCT200 06/05 Q1028 NOSIG;
0149601010999992013010908004+35733-005900FM-15+0021GMTT V0201101N001512200019N0080001N1+00601+00501999999ADDGA1021+004801999GA2041+060001999GF104991999999999999999999MA1102911999999REMMET064METAR GMTT 090800Z 11003KT 8000 FEW016 SCT200 06/05 Q1029 NOSIG;
0149601010999992013010908304+35733-005900FM-15+0021GMTT V0200701N001012200019N0080001N1+00701+00601999999ADDGA1021+004801999GA2041+060001999GF104991999999999999999999MA1102911999999REMMET064METAR GMTT 090830Z 07002KT 8000 FEW016 SCT200 07/06 Q1029 NOSIG;
0264601010999992013010909004+35733-005900SY-MT+0021GMTT V0200801N001010600019N0080001N1+00951+00861102951ADDGA1021+004801999GA2071+060001999GF199999021051004501001041MA1102911999999MD1310141+9999REMSYN076AAXX  09094 60101 32458 60802 10095 20086 40295 53014 82504 333 82616 86070;MET064METAR GMTT 090900Z 08002KT 8000 FEW016 BKN200 10/09 Q1029 NOSIG;EQDQ01+000062SCOTCV
0149601010999992013010909304+35733-005900FM-15+0021GMTT V0201401N001010600019N0080001N1+01101+00901999999ADDGA1021+004801999GA2071+060001999GF107991999999999999999999MA1103011999999REMMET064METAR GMTT 090930Z 14002KT 8000 FEW016 BKN200 11/09 Q1030 NOSIG;
0149601010999992013010910004+35733-005900FM-15+0021GMTT V0209999C000010600019N0080001N1+01101+01001999999ADDGA1021+004801999GA2071+060001999GF107991999999999999999999MA1103011999999REMMET064METAR GMTT 091000Z 00000KT 8000 FEW016 BKN200 11/10 Q1030 NOSIG;
0149601010999992013010910304+35733-005900FM-15+0021GMTT V0209999C000010600019N0080001N1+01201+01101999999ADDGA1021+004801999GA2071+060001999GF107991999999999999999999MA1103011999999REMMET064METAR GMTT 091030Z 00000KT 8000 FEW016 BKN200 12/11 Q1030 NOSIG;
0149601010999992013010911004+35733-005900FM-15+0021GMTT V0209999C000010600019N0080001N1+01301+01101999999ADDGA1021+004801999GA2071+060001999GF107991999999999999999999MA1103011999999REMMET064METAR GMTT 091100Z 00000KT 8000 FEW016 BKN200 13/11 Q1030 NOSIG;
0157601010999992013010911304+35733-005900FM-15+0021GMTT V0202801N001510600019N0080001N1+01401+01001999999ADDGA1021+004801999GA2071+060001999GF107991999999999999999999MA1103011999999REMMET072METAR GMTT 091130Z 28003KT 240V340 8000 FEW016 BKN200 14/10 Q1030 NOSIG;
0264601010999992013010912004+35733-005900SY-MT+0021GMTT V0202601N001010600019N0100001N1+01471+01051102991ADDGA1021+004801999GA2071+060001999GF199999021051004501001021MA1102911999999MD1010041+9999REMSYN076AAXX  09124 60101 32460 62602 10147 20105 40299 50004 82502 333 82616 86070;MET064METAR GMTT 091200Z VRB02KT 9999 FEW016 BKN200 15/11 Q1029 NOSIG;EQDQ01+000062SCOTCV
0157601010999992013010912304+35733-005900FM-15+0021GMTT V0203401N001510600019N0112651N1+01601+00901999999ADDGA1021+004801999GA2071+060001999GF107991999999999999999999MA1102911999999REMMET072METAR GMTT 091230Z 34003KT 260V060 9999 FEW016 BKN200 16/09 Q1029 NOSIG;
0157601010999992013010913004+35733-005900FM-15+0021GMTT V0203001N002110600019N0112651N1+01601+00901999999ADDGA1021+004801999GA2071+060001999GF107991999999999999999999MA1102911999999REMMET072METAR GMTT 091300Z 30004KT 270V340 9999 FEW016 BKN200 16/09 Q1029 NOSIG;
0157601010999992013010913304+35733-005900FM-15+0021GMTT V0203401N002610600019N0112651N1+01601+00801999999ADDGA1021+004801999GA2071+060001999GF107991999999999999999999MA1102811999999REMMET072METAR GMTT 091330Z 34005KT 290V010 9999 FEW016 BKN200 16/08 Q1028 NOSIG;
0157601010999992013010914304+35733-005900FM-15+0021GMTT V0203101N002110600019N0112651N1+01601+00901999999ADDGA1021+004801999GA2071+060001999GF107991999999999999999999MA1102811999999REMMET072METAR GMTT 091430Z 31004KT 270V360 9999 FEW016 BKN200 16/09 Q1028 NOSIG;
0272601010999992013010915004+35733-005900SY-MT+0021GMTT V0203201N002110600019N0100001N1+01611+00881102861ADDGA1021+004801999GA2071+060001999GF199999021051004501001021MA1102811999999MD1610141+9999REMSYN076AAXX  09154 60101 32460 63204 10161 20088 40286 56014 82502 333 82616 86070;MET072METAR GMTT 091500Z 32004KT 280V350 9999 FEW016 BKN200 16/09 Q1028 NOSIG;EQDQ01+000062SCOTCV
0157601010999992013010915304+35733-005900FM-15+0021GMTT V0203201N001510600019N0112651N1+01501+00901999999ADDGA1021+004801999GA2071+060001999GF107991999999999999999999MA1102811999999REMMET072METAR GMTT 091530Z 32003KT 280V350 9999 FEW016 BKN200 15/09 Q1028 NOSIG;
0157601010999992013010916004+35733-005900FM-15+0021GMTT V0203101N001510600019N0112651N1+01601+00901999999ADDGA1021+004801999GA2071+060001999GF107991999999999999999999MA1102811999999REMMET072METAR GMTT 091600Z 31003KT 260V350 9999 FEW016 BKN200 16/09 Q1028 NOSIG;
0149601010999992013010916304+35733-005900FM-15+0021GMTT V0202901N002110600019N0112651N1+01501+00901999999ADDGA1021+004801999GA2071+060001999GF107991999999999999999999MA1102811999999REMMET064METAR GMTT 091630Z 29004KT 9999 FEW016 BKN200 15/09 Q1028 NOSIG;
0149601010999992013010917004+35733-005900FM-15+0021GMTT V0203201N002610600019N0112651N1+01301+00901999999ADDGA1021+004801999GA2071+060001999GF107991999999999999999999MA1102811999999REMMET064METAR GMTT 091700Z 32005KT 9999 FEW016 BKN200 13/09 Q1028 NOSIG;
0149601010999992013010917304+35733-005900FM-15+0021GMTT V0203201N002610600019N0112651N1+01201+00801999999ADDGA1021+004801999GA2071+060001999GF107991999999999999999999MA1102811999999REMMET064METAR GMTT 091730Z 32005KT 9999 FEW016 BKN200 12/08 Q1028 NOSIG;
0283601010999992013010918004+35733-005900SY-MT+0021GMTT V0203301N001510600019N0100001N1+01131+00741102901ADDGA1021+004801999GA2071+060001999GF199999021051004501001021KA1120M+01671MA1102811999999MD1310041+9999REMSYN082AAXX  09184 60101 32460 63303 10113 20074 40290 53004 82502 333 10167 82616 86070;MET064METAR GMTT 091800Z 33003KT 9999 FEW016 BKN200 11/07 Q1028 NOSIG;EQDQ01+000062SCOTCV
0149601010999992013010918304+35733-005900FM-15+0021GMTT V0200601N001510600019N0080001N1+00901+00701999999ADDGA1021+004801999GA2071+060001999GF107991999999999999999999MA1102911999999REMMET064METAR GMTT 091830Z 06003KT 8000 FEW016 BKN200 09/07 Q1029 NOSIG;
0149601010999992013010919004+35733-005900FM-15+0021GMTT V0200601N001510600019N0080001N1+00901+00701999999ADDGA1021+004801999GA2071+060001999GF107991999999999999999999MA1102911999999REMMET064METAR GMTT 091900Z 06003KT 8000 FEW016 BKN200 09/07 Q1029 NOSIG;
0149601010999992013010919304+35733-005900FM-15+0021GMTT V0201101N001010600019N0080001N1+00901+00701999999ADDGA1021+004801999GA2071+060001999GF107991999999999999999999MA1102911999999REMMET064METAR GMTT 091930Z 11002KT 8000 FEW016 BKN200 09/07 Q1029 NOSIG;
0149601010999992013010920004+35733-005900FM-15+0021GMTT V0201101N002112200019N0080001N1+00901+00701999999ADDGA1021+004801999GA2041+060001999GF104991999999999999999999MA1102911999999REMMET064METAR GMTT 092000Z 11004KT 8000 FEW016 SCT200 09/07 Q1029 NOSIG;
0157601010999992013010920304+35733-005900FM-15+0021GMTT V0200901N001512200019N0080001N1+00901+00701999999ADDGA1021+004801999GA2041+060001999GF104991999999999999999999MA1102911999999REMMET072METAR GMTT 092030Z 09003KT 050V120 8000 FEW016 SCT200 09/07 Q1029 NOSIG;
0253601010999992013010921004+35733-005900SY-MT+0021GMTT V0201101N002110600019N0080001N1+00891+00691102931ADDGA1021+004801999GA2041+060001999GF105991021051004501001021MA1102911999999MD1010031+9999REMSYN076AAXX  09214 60101 32458 51104 10089 20069 40293 50003 82502 333 82616 84070;MET072METAR GMTT 092100Z 11004KT 060V140 8000 FEW016 SCT200 09/07 Q1029 NOSIG;
0157601010999992013010921304+35733-005900FM-15+0021GMTT V0201101N002112200019N0080001N1+00901+00701999999ADDGA1021+004801999GA2041+060001999GF104991999999999999999999MA1102911999999REMMET072METAR GMTT 092130Z 11004KT 050V140 8000 FEW016 SCT200 09/07 Q1029 NOSIG;
0149601010999992013010922004+35733-005900FM-15+0021GMTT V0201201N001512200019N0080001N1+00901+00701999999ADDGA1021+004801999GA2041+060001999GF104991999999999999999999MA1102911999999REMMET064METAR GMTT 092200Z 12003KT 8000 FEW016 SCT200 09/07 Q1029 NOSIG;
0149601010999992013010922304+35733-005900FM-15+0021GMTT V0209999V000512200019N0080001N1+00901+00701999999ADDGA1021+004801999GA2041+060001999GF104991999999999999999999MA1102811999999REMMET064METAR GMTT 092230Z VRB01KT 8000 FEW016 SCT200 09/07 Q1028 NOSIG;
0149601010999992013010923004+35733-005900FM-15+0021GMTT V0201001N001012200019N0080001N1+00801+00701999999ADDGA1021+004801999GA2041+060001999GF104991999999999999999999MA1102911999999REMMET064METAR GMTT 092300Z 10002KT 8000 FEW016 SCT200 08/07 Q1029 NOSIG;
0157601010999992013010923304+35733-005900FM-15+0021GMTT V0200901N001512200019N0080001N1+00801+00601999999ADDGA1021+004801999GA2041+060001999GF104991999999999999999999MA1102911999999REMMET072METAR GMTT 092330Z 09003KT 050V110 8000 FEW016 SCT200 08/06 Q1029 NOSIG;
0264601010999992013011000004+35733-005900SY-MT+0021GMTT V0201401N000512200019N0080001N1+00741+00571102901ADDGA1021+004801999GA2041+060001999GF199999021051004501001021MA1102811999999MD1810031+9999REMSYN076AAXX  10004 60101 32458 31401 10074 20057 40290 58003 82502 333 82616 83070;MET064METAR GMTT 100000Z 14001KT 8000 FEW016 SCT200 07/06 Q1028 NOSIG;EQDQ01+000032SCOTCV
0149601010999992013011000304+35733-005900FM-15+0021GMTT V0200701N001512200019N0029001N1+00701+00601999999ADDGA1021+004801999GA2041+060001999GF104991999999999999999999MA1102811999999REMMET064METAR GMTT 100030Z 07003KT 2900 FEW016 SCT200 07/06 Q1028 NOSIG;
0149601010999992013011001004+35733-005900FM-15+0021GMTT V0201401N000512200019N0027001N1+00801+00601999999ADDGA1021+004801999GA2041+060001999GF104991999999999999999999MA1102811999999REMMET064METAR GMTT 100100Z 14001KT 2700 FEW016 SCT200 08/06 Q1028 NOSIG;
0083601010999992013011001304+35733-005900AUTO +0021GMTT V0201101N002112200019N0029001N1+00701+00601999999ADDMA1102811999999REMMET056METAR GMTT 100130Z AUTO 11004KT 2900NDV /// 07/06 Q1028;
0083601010999992013011002004+35733-005900AUTO +0021GMTT V0201101N002612200019N0029001N1+00701+00601999999ADDMA1102811999999REMMET056METAR GMTT 100200Z AUTO 11005KT 2900NDV /// 07/06 Q1028;
0091601010999992013011002304+35733-005900AUTO +0021GMTT V0201101N002612200019N0028001N1+00701+00601999999ADDMA1102811999999REMMET064METAR GMTT 100230Z AUTO 11005KT 050V130 2800NDV /// 07/06 Q1028;
0157601010999992013011003004+35733-005900SY-MT+0021GMTT V0201201N002119999999N0029001N1+00681+00531102851ADDMA1102811999999MD1610041+9999REMSYN054AAXX  10034 60101 46929 /1204 10068 20053 40285 56004;MET056METAR GMTT 100300Z AUTO 12004KT 2900NDV /// 07/05 Q1028;
0083601010999992013011003304+35733-005900AUTO +0021GMTT V0209999V001012200019N0027001N1+00701+00501999999ADDMA1102811999999REMMET056METAR GMTT 100330Z AUTO VRB02KT 2700NDV /// 07/05 Q1028;
0083601010999992013011004004+35733-005900AUTO +0021GMTT V0209999V001012200019N0026001N1+00701+00601999999ADDMA1102711999999REMMET056METAR GMTT 100400Z AUTO VRB02KT 2600NDV /// 07/06 Q1027;
0083601010999992013011004304+35733-005900AUTO +0021GMTT V0209999V001012200019N0028001N1+00701+00601999999ADDMA1102711999999REMMET056METAR GMTT 100430Z AUTO VRB02KT 2800NDV /// 07/06 Q1027;
0149601010999992013011005004+35733-005900FM-15+0021GMTT V0209999C000012200019N0080001N1+00701+00501999999ADDGA1021+004801999GA2041+060001999GF104991999999999999999999MA1102711999999REMMET064METAR GMTT 100500Z 00000KT 8000 FEW016 SCT200 07/05 Q1027 NOSIG;
0149601010999992013011005304+35733-005900FM-15+0021GMTT V0201201N001012200019N0080001N1+00701+00601999999ADDGA1021+004801999GA2041+060001999GF104991999999999999999999MA1102711999999REMMET064METAR GMTT 100530Z 12002KT 8000 FEW016 SCT200 07/06 Q1027 NOSIG;
0291601010999992013011006004+35733-005900SY-MT+0021GMTT V0201001N001512200019N0080001N1+00721+00601102741ADDGA1021+004801999GA2041+060001999GF199999021051004501001021KA1999N+00641MA1102711999999MD1610111+9999REMSYN082AAXX  10064 60101 32458 31003 10072 20060 40274 56011 82502 333 20064 82616 83070;MET072METAR GMTT 100600Z 11003KT 080V140 8000 FEW016 SCT200 07/06 Q1027 NOSIG;EQDQ01+000032SCOTCV
0149601010999992013011006304+35733-005900FM-15+0021GMTT V0209999V001012200019N0080001N1+00701+00601999999ADDGA1021+004801999GA2041+060001999GF104991999999999999999999MA1102711999999REMMET064METAR GMTT 100630Z VRB02KT 8000 FEW016 SCT200 07/06 Q1027 NOSIG;
0149601010999992013011007004+35733-005900FM-15+0021GMTT V0209999V001012200019N0080001N1+00701+00601999999ADDGA1021+004801999GA2041+060001999GF104991999999999999999999MA1102711999999REMMET064METAR GMTT 100700Z VRB02KT 8000 FEW016 SCT200 07/06 Q1027 NOSIG;
0157601010999992013011007304+35733-005900FM-15+0021GMTT V0200901N001512200019N0080001N1+00701+00601999999ADDGA1021+004801999GA2041+060001999GF104991999999999999999999MA1102711999999REMMET072METAR GMTT 100730Z 09003KT 030V140 8000 FEW016 SCT200 07/06 Q1027 NOSIG;
