0193601010999991986010100004+35733-005900SY-MT+0021GMTT V0202601N01341004801CN0060001N1+01501+01211102401ADDAA106000591AG10000AY121061AY281061GA1041+001809079GA2071+004809089GF108991081021002501999999MA1102401999999MD1110141+9999MW1021OC102061REMSYN017333   84706 87816MET004NSG?EQDQ01+000000PRSWM2
0097601010999991986010100304+35733-005900FM-15+0021GMTT V0202601N01341004801CN0060001N1+01501+01201999999ADDAG11999GA1041+001809079GA2071+004809089MA1102401999999OC102061REMMET004NSG?EQDQ01+000000PRSWM2
0081601010999991986010101004+35733-005900FM-15+0021GMTT V0202601N01131004801CN0060001N1+01501+01301999999ADDAG11999GA1071+004809089MA1102401999999OC101851REMMET004NSG?EQDQ01+000000PRSWM2
0084601010999991986010101304+35733-005900FM-15+0021GMTT V0202601N01241004801CN0060001N1+01501+01301999999ADDAG11999GA1041+001809079GA2071+004809089MA1102401999999OC101651EQDQ01+000000PRSWM2
0177601010999991986010103004+35733-005900SY-MT+0021GMTT V0202601N01131004801CN0060001N1+01511+01281102421ADDAA106000091AG10000GA1071+004809089GA2041+999999079GF108991081021002501999999MA1102401999999MD1310021+9999MW1001OC101851REMSYN017333   8471/ 87816MET004NSG?EQDQ01+000000PRSWM2
0097601010999991986010104304+35733-005900FM-15+0021GMTT V0202601N01131004801CN0060001N1+01501+01301999999ADDAG11999GA1041+001809079GA2071+004809089MA1102301999999OC101751REMMET004NSG?EQDQ01+000000PRSWM2
0099601010999991986010105004+35733-005900FM-15+0021GMTT V0202601N01131004801CN0060001N1+01501+01301999999ADDAG11999GA1041+001809079GA2071+004809089MA1102301999999OC101751REMMET006NOSIG?EQDQ01+000000PRSWM2
0190601010999991986010106004+35733-005900SY-MT+0021GMTT V0202401N01341004801CN0080001N1+01571+01371102351ADDAA124004091AG10000GA1021+001809079GA2061+004809089GF108991061021002501031999KA1120N+01501MA1102301999999MD1610071+9999MW1001REMSYN023333   20150 82706 86816MET006NOSIG?EQDQ01+000000PRSWM2
0091601010999991986010106304+35733-005900FM-15+0021GMTT V0202401N01031004801CN0080001N1+01601+01401999999ADDAG12999GA1021+001809079GA2061+004809089MA1102301999999REMMET006NOSIG?EQDQ01+000000PRSWM2
0078601010999991986010108304+35733-005900FM-15+0021GMTT V0202601N01131004801CN0080001N1+01601+01401999999ADDAG12002GA1031+001809079GA2071+004809089MA1102301999999MW1251REMMET006NOSIG?
0102601010999991986010109004+35733-005900FM-15+0021GMTT V0202601N01291007801CN0080001N1+01501+01401999999ADDAG12002GA1011+001809079GA2031+004809089GA3061+007809059MA1102301999999MW1251OC101851REMMET006NOSIG?
0100601010999991986010110004+35733-005900FM-15+0021GMTT V0202401N01291004801CN0080001N1+01501+01401999999ADDAG12999GA1021+001809079GA2031+004809089GA3061+007809059MA1102301999999MW1251OC101851REMMET004NSG?
0183601010999991986010112004+35733-005900SY-MT+0021GMTT V0202401N01291007801CN0080001N1+01681+01421102401ADDAA106003091AG10001AY181061AY281061GA1031+004809089GA2061+007809059GF107991071081004501999999MA1102401999999MD1110011+9999MW1011OC101961REMSYN017333   83816 86626EQDQ01+000000PRSWM2
0084601010999991986010113004+35733-005900FM-15+0021GMTT V0202401N01441007801CN0112001N1+01801+01501999999ADDAG11999GA1021+004809089GA2041+007809059MA1102301999999OC101851EQDQ01+000000PRSWM2
0097601010999991986010113304+35733-005900FM-15+0021GMTT V0202201N01341004801CN0112001N1+01801+01501999999ADDAG12999GA1021+003009079GA2051+004809089MA1102301999999OC101851REMMET004NSG?EQDQ01+000000PRSWM2
0097601010999991986010114004+35733-005900FM-15+0021GMTT V0202401N01341004801CN0112001N1+01701+01501999999ADDAG12999GA1021+003009079GA2061+004809089MA1102301999999OC101851REMMET004NSG?EQDQ01+000000PRSWM2
0076601010999991986010114304+35733-005900FM-15+0021GMTT V0202401N01341004801CN0060001N1+01701+01501999999ADDAG11005GA1031+002409079GA2071+004809089MA1102301999999MW1801REMMET004NSG?
0163601010999991986010115004+35733-005900SY-MT+0021GMTT V0202401N01341004801CN0060001N1+01601+01511102271ADDAG12003AY181031AY221031GA1041+002409079GA2071+004809089GF108991081021002501999999MA1102201999999MD1610131+9999MW1801OC101851REMSYN017333   84708 87816MET004NSG?
0084601010999991986010115304+35733-005900FM-15+0021GMTT V0202401N01341004801CN0090001N1+01601+01501999999ADDAG11999GA1031+002409079GA2061+004809089MA1102201999999MW1251OC101851REMMET004NSG?
0101601010999991986010116004+35733-005900FM-15+0021GMTT V0202401N01341220001CN0090001N1+99999+99999999999ADDAG11999GA1021+002409079MA1102201999999OC101851REMMET024NOSIG?        = 40  3392EQDQ01+000000PRSWM2
0086601010999991986010117304+35733-005900FM-15+0021GMTT V0202401N01241004801CN0090001N1+01601+01401999999ADDAG12002GA1041+002409079GA2071+004809089MA1102201999999MW1251OC101751REMMET006NOSIG?
0206601010999991986010118004+35733-005900SY-MT+0021GMTT V0202401N01231004801CN0090001N1+01581+01411102281ADDAA199004091AG10001AY181061AY221061GA1041+002409079GA2071+004809089GF108991081021002501999999KA1120M+01751MA1102201999999MD1310011+9999MW1031REMSYN023333   10175 84708 87816MET006NOSIG?EQDQ01+000000PRSWM2
0078601010999991986010118304+35733-005900FM-15+0021GMTT V0202401N01241004801CN0080001N1+01601+01401999999ADDAG12999GA1031+003009079GA2071+004809089MA1102201999999MW1251REMMET006NOSIG?
0078601010999991986010119004+35733-005900FM-15+0021GMTT V0202401N01241004801CN0080001N1+01601+01401999999ADDAG12999GA1031+003009079GA2071+004809089MA1102201999999MW1251REMMET006NOSIG?
0091601010999991986010119304+35733-005900FM-15+0021GMTT V0202401N00931004801CN0080001N1+01601+01401999999ADDAG12999GA1031+003009079GA2071+004809089MA1102201999999REMMET006NOSIG?EQDQ01+000000PRSWM2
0091601010999991986010120004+35733-005900FM-15+0021GMTT V0202401N00931004801CN0080001N1+01601+01401999999ADDAG12999GA1031+003009079GA2071+004809089MA1102201999999REMMET006NOSIG?EQDQ01+000000PRSWM2
0089601010999991986010120304+35733-005900FM-15+0021GMTT V0202401N00821004801CN0080001N1+01601+01401999999ADDAG12000GA1031+003009079GA2071+004809089MA1102201999999REMMET004NSG?EQDQ01+000000PRSWM2
0141601010999991986010121004+35733-005900FM-12+0021GMTT V0202401N01031027001CN0090001N9+01611+01451102201ADDAA106000091AG14000GA1021+002409079GA2041+004809089GA3051+027009039GF108991041021002501081999MD1810081+9999REMSYN023333   82708 84816 85359
0105601010999991986010122004+35733-005900FM-15+0021GMTT V0202401N00931004801CN0090001N1+01601+01401999999ADDAG12999GA1021+002409079GA2041+004809089GA3051+027009039MA1102201999999REMMET004NSG?EQDQ01+000000PRSWM2
0105601010999991986010122304+35733-005900FM-15+0021GMTT V0202401N01131004801CN0090001N1+01601+01401999999ADDAG12999GA1021+002409079GA2041+004809089GA3051+027009039MA1102201999999REMMET004NSG?EQDQ01+000000PRSWM2
0076601010999991986010123004+35733-005900FM-15+0021GMTT V0202401N01131004801CN0060001N1+01501+01501999999ADDAG12999GA1021+002409079GA2071+004809089MA1102101999999MW1611REMMET004NSG?
0076601010999991986010123304+35733-005900FM-15+0021GMTT V0202401N01181004801CN0090001N1+01501+01501999999ADDAG12002GA1021+002409079GA2071+004809089MA1102101999999MW1251REMMET004NSG?
0193601010999991986010200004+35733-005900SY-MT+0021GMTT V0202201N01131004801CN0070001N1+01501+01431102151ADDAA106001091AG10001AY181061AY281061GA1021+002409079GA2071+004809089GF108991081021002501999999MA1102101999999MD1810051+9999MW1251OC101651REMSYN017333   82708 87816MET004NSG?EQDQ01+000000PRSWM2
0089601010999991986010200304+35733-005900FM-15+0021GMTT V0202401N01031004801CN0070001N1+01501+01401999999ADDAG11999GA1021+002409079GA2071+004809089MA1102101999999REMMET004NSG?EQDQ01+000000PRSWM2
0081601010999991986010202004+35733-005900FM-15+0021GMTT V0202401N01131004801CN0112001N1+01601+01301999999ADDAG11999GA1051+004809089MA1102001999999OC101651REMMET004NSG?EQDQ01+000000PRSWM2
0097601010999991986010203004+35733-005900FM-15+0021GMTT V0202201N01241004801CN0112001N1+01601+01401999999ADDAG12000GA1051+004809089GA2041+006909059MA1102001999999OC101961REMMET004NSG?EQDQ01+000000PRSWM2
0096601010999991986010204004+35733-005900FM-15+0021GMTT V0202201N01031004801CN0112001N1+01601+01401999999ADDAG12999GA1051+004809089GA2041+006909059MA1102001999999OC101541REMMET003NG?EQDQ01+000000PRSWM2
0097601010999991986010205004+35733-005900FM-15+0021GMTT V0202201N01291004801CN0112001N1+01501+01401999999ADDAG12999GA1051+004809089GA2071+006909059MA1102001999999OC101801REMMET004NSG?EQDQ01+000000PRSWM2
0097601010999991986010205304+35733-005900FM-15+0021GMTT V0202201N01291004801CN0112001N1+01501+01401999999ADDAG12000GA1051+004809089GA2071+006909059MA1102001999999OC101801REMMET004NSG?EQDQ01+000000PRSWM2
0160601010999991986010206004+35733-005900FM-12+0021GMTT V0202201N01131004801CN0080001N9+01491+01411101901ADDAA124005091AG10001AY181061AY281061GA1021+002409079GA2051+004809089GF108991081081002501999999KA1120N+01491MD1610121+9999MW1021REMSYN023333   20149 82708 85816
0097601010999991986010207304+35733-005900FM-15+0021GMTT V0202201N01131004801CN0080001N1+01501+01401999999ADDAG12999GA1021+002409079GA2051+004809089MA1101901999999OC101651REMMET004NSG?EQDQ01+000000PRSWM2
0092601010999991986010208004+35733-005900FM-15+0021GMTT V0202201N00931003901CN0060001N1+01501+01501999999ADDAG12999GA1041+002109079GA2041+003909089GA3071+006009059MA1101801999999MW1211REMMET004NSG?
0207601010999991986010209004+35733-005900SY-MT+0021GMTT V0202401N01031003901CN0050001N1+01541+01451101881ADDAA106999999AG14004AY181031AY221031GA1041+002109079GA2051+003909089GA3071+006009059GF108991081081002501999999MA1101801999999MD1510021+9999MW1811REMSYN023333   84707 85813 87620MET004NSG?EQDQ01  00002PRCP06
0107601010999991986010211004+35733-005900FM-15+0021GMTT V0202601N00771003901CN0112001N1+01501+01301999999ADDAG12999GA1021+002409079GA2031+003909089GA3071+006909059MA1101901999999REMMET006NOSIG?EQDQ01+000000PRSWM2
0107601010999991986010211304+35733-005900FM-15+0021GMTT V0202601N00771003901CN0112001N1+01501+01301999999ADDAG12000GA1021+002409079GA2031+003909089GA3071+006909059MA1101901999999REMMET006NOSIG?EQDQ01+000000PRSWM2
0209601010999991986010212004+35733-005900SY-MT+0021GMTT V0202601N00821003901CN0100001N1+01571+01411101911ADDAA106008091AG10001AY181061AY221061GA1021+002409079GA2041+003909089GA3071+006909059GF108991081081002501999999MA1101801999999MD1610051+9999MW1031REMSYN023333   82708 84813 87623MET006NOSIG?EQDQ01+000000PRSWM2
0092601010999991986010212304+35733-005900FM-15+0021GMTT V0202401N00931003901CN0112001N1+01601+01401999999ADDAG12999GA1021+002409079GA2041+003909089GA3071+006909059MA1101901999999EQDQ01+000000PRSWM2
0079601010999991986010213004+35733-005900FM-15+0021GMTT V0203201N00671003901CN0080001N1+01601+01401999999ADDAG12999GA1021+002409079GA2041+003909089GA3071+006009059MA1101801999999MW1801
0107601010999991986010214004+35733-005900FM-15+0021GMTT V0202601N00821003901CN0090001N1+01501+01301999999ADDAG12999GA1031+002409079GA2031+003909089GA3061+004809059MA1101691999999REMMET006NOSIG?EQDQ01+000000PRSWM2
0152601010999991986010215004+35733-005900FM-12+0021GMTT V0202601N00821003901CN0090001N9+01501+01231101701ADDAG12001AY181031AY221031GA1031+002409079GA2031+003909089GA3061+004809059GF107991071081002501999999MD1610211+9999MW1021REMSYN023333   83708 83813 86616
0065601010999991986010216004+35733-005900FM-15+0021GMTT V0202601N00511004801CN0090001N1+01501+99999999999ADDAG12999GA1061+004809059REMMET011E QPQY NSG?EQDQ01+000000PRSWM2
0095601010999991986010216304+35733-005900FM-15+0021GMTT V0202601N00511003901CN0090001N1+01501+01301999999ADDAG12999GA1031+002409079GA2031+003909089GA3061+004809059REMMET0091016),  ?EQDQ01+000000PRSWM2
0089601010999991986010217304+35733-005900FM-15+0021GMTT V0202601N00821004801CN0090001N1+99999+99999999999ADDAG12000GA1011+002409079GA2051+004809089MA1101591999999REMMET004NSG?EQDQ01+000000PRSWM2
0160601010999991986010218004+35733-005900FM-12+0021GMTT V0202401N00931004801CN0090001N9+01411+00981101421ADDAA199009091AG10001AY181061AY221061GA1051+004809089GA2031+030009039GF106991051081004501081001KA1120M+01571MD1610031+9999MW1011REMSYN023333   10157 85816 83360
0089601010999991986010219004+35733-005900FM-15+0021GMTT V0202801N00721004801CN0112001N1+01501+00801999999ADDAG12999GA1051+004809089GA2031+030009039MA1101591999999REMMET004NSG?EQDQ01+000000PRSWM2
0089601010999991986010220004+35733-005900FM-15+0021GMTT V0202401N00621004801CN0112001N1+01401+00901999999ADDAG12999GA1051+004809089GA2031+030009039MA1101591999999REMMET004NSG?EQDQ01+000000PRSWM2
0089601010999991986010220304+35733-005900FM-15+0021GMTT V0202401N00511030001CN0112001N1+01401+00901999999ADDAG12000GA1041+004809089GA2031+030009039MA1101591999999REMMET004NSG?EQDQ01+000000PRSWM2
0089601010999991986010221004+35733-005900FM-15+0021GMTT V0202401N00621006001CN0112001N1+01401+00901999999ADDAG12000GA1031+004809089GA2041+006009059MA1101591999999REMMET004NSG?EQDQ01+000000PRSWM2
0076601010999991986010221304+35733-005900FM-15+0021GMTT V0202401N00721006001CN0080001N1+01401+00901999999ADDAG12999GA1041+003909089GA2061+006009059MA1101591999999MW1801REMMET004NSG?
0076601010999991986010222004+35733-005900FM-15+0021GMTT V0202401N00721004801CN0080001N1+01401+01201999999ADDAG12999GA1031+002409079GA2071+004809089MA1101591999999MW1801REMMET004NSG?
0089601010999991986010222304+35733-005900FM-15+0021GMTT V0202401N00721004801CN0080001N1+01401+01201999999ADDAG12999GA1031+002409079GA2061+004809089MA1101591999999REMMET004NSG?EQDQ01+000000PRSWM2
0076601010999991986010223004+35733-005900FM-15+0021GMTT V0202401N00721004801CN0080001N1+01401+01101999999ADDAG12999GA1031+002409079GA2071+004809089MA1101491999999MW1251REMMET004NSG?
0166601010999991986010300004+35733-005900SY-MT+0021GMTT V0202401N00931004801CN0080001N1+01301+01131101581ADDAA106001091AG10001AY181061AY221061GA1031+002409079GA2071+004809089GF108991081021002501999999MA1101491999999MD1710021+9999MW1251REMSYN017333   83708 87816MET004NSG?
0076601010999991986010301004+35733-005900FM-15+0021GMTT V0202401N01031004801CN0080001N1+01301+01101999999ADDAG11999GA1031+002409079GA2071+004809089MA1101491999999MW1801REMMET004NSG?
0089601010999991986010301304+35733-005900FM-15+0021GMTT V0202401N01031004801CN0080001N1+01301+01101999999ADDAG11999GA1031+002409079GA2071+004809089MA1101491999999REMMET004NSG?EQDQ01+000000PRSWM2
0089601010999991986010302004+35733-005900FM-15+0021GMTT V0202401N00931004801CN0080001N1+01301+01101999999ADDAG11999GA1031+002409079GA2061+004809089MA1101491999999REMMET004NSG?EQDQ01+000000PRSWM2
0089601010999991986010302304+35733-005900FM-15+0021GMTT V0202401N00931004801CN0080001N1+01301+01101999999ADDAG11000GA1031+002409079GA2061+004809089MA1101491999999REMMET004NSG?EQDQ01+000000PRSWM2
0174601010999991986010303004+35733-005900SY-MT+0021GMTT V0202601N01031004801CN0080001N1+01321+01141101551ADDAG12001AY181031AY221031GA1031+002409079GA2061+004809089GF107991071021002501999999MA1101491999999MD1710031+9999MW1021REMSYN017333   83708 86816MET004NSG?EQDQ01+000000PRSWM2
0089601010999991986010304004+35733-005900FM-15+0021GMTT V0202601N00721004801CN0080001N1+01301+01101999999ADDAG11999GA1031+002409079GA2061+004809089MA1101491999999REMMET004NSG?EQDQ01+000000PRSWM2
0089601010999991986010304304+35733-005900FM-15+0021GMTT V0202601N00721004801CN0080001N1+01301+01101999999ADDAG11999GA1031+002409079GA2061+004809059MA1101491999999REMMET004NSG?EQDQ01+000000PRSWM2
0091601010999991986010305004+35733-005900FM-15+0021GMTT V0202401N00511006901CN0112001N1+01201+01101999999ADDAG11999GA1031+003909089GA2071+006909059MA1101491999999REMMET006NOSIG?EQDQ01+000000PRSWM2
0206601010999991986010306004+35733-005900SY-MT+0021GMTT V0202801N00621006901CN0100001N1+01231+00881101501ADDAA124010091AG10001AY181061AY221061GA1031+003909089GA2071+006909059GF107991071081004501999999KA1120N+01181MA1101491999999MD1610051+9999MW1021REMSYN023333   20118 83813 87623MET006NOSIG?EQDQ01+000000PRSWM2
0091601010999991986010307004+35733-005900FM-15+0021GMTT V0202801N00721006901CN0112001N1+01201+00901999999ADDAG12999GA1031+003909089GA2051+006909059MA1101491999999REMMET006NOSIG?EQDQ01+000000PRSWM2
0091601010999991986010308004+35733-005900FM-15+0021GMTT V0202801N00931004801CN0112001N1+01201+00801999999ADDAG12999GA1031+003909089GA2061+004809059MA1101591999999REMMET006NOSIG?EQDQ01+000000PRSWM2
0091601010999991986010308304+35733-005900FM-15+0021GMTT V0202801N00931004801CN0112001N1+01201+00801999999ADDAG12000GA1031+000309089GA2061+004809059MA1101591999999REMMET006NOSIG?EQDQ01+000000PRSWM2
0171601010999991986010309004+35733-005900SY-MT+0021GMTT V0202801N01491004801CN0100001N1+01241+00751101641ADDAA106000091AG14000GA1031+003909089GA2051+004809059GF107991061081004501081999MA1101591999999MD1210141+9999MW1001REMSYN017333   83813 85616MET006NOSIG?EQDQ01+000000PRSWM2
0089601010999991986010310004+35733-005900FM-15+0021GMTT V0203001N00931004801CN0112001N1+01301+00901999999ADDAG12999GA1031+000909089GA2051+004809059MA1101591999999REMMET004NSG?EQDQ01+000000PRSWM2
0089601010999991986010312004+35733-005900FM-15+0021GMTT V0203001N00821004801CN0112001N1+01501+00801999999ADDAG12000GA1031+003909089GA2051+004809059MA1101691999999REMMET004NSG?EQDQ01+000000PRSWM2
0089601010999991986010313004+35733-005900FM-15+0021GMTT V0203001N00821004801CN0112001N1+01501+00801999999ADDAG12999GA1031+003909089GA2041+004809059MA1101691999999REMMET004NSG?EQDQ01+000000PRSWM2
0076601010999991986010314004+35733-005900FM-15+0021GMTT V0203001N00821004801CN0112001N1+01501+00801999999ADDAG12999GA1031+003909089GA2041+004809059REMMET0061(017?EQDQ01+000000PRSWM2
0076601010999991986010315004+35733-005900FM-15+0021GMTT V0202801N00881004801CN0112001N1+01501+00901999999ADDAG12000GA1031+003909089GA2041+004809059MA1101691999999EQDQ01+000000PRSWM2
0076601010999991986010315304+35733-005900FM-15+0021GMTT V0202801N00881004801CN0112001N1+01501+00901999999ADDAG12999GA1031+003909089GA2041+004809059MA1101691999999EQDQ01+000000PRSWM2
0076601010999991986010316004+35733-005900FM-15+0021GMTT V0202801N00821004801CN0112001N1+01501+00901999999ADDAG12999GA1031+003909089GA2041+004809059MA1101691999999EQDQ01+000000PRSWM2
0076601010999991986010316304+35733-005900FM-15+0021GMTT V0202801N00821004801CN0112001N1+01501+00901999999ADDAG12999GA1031+003909089GA2051+004809059MA1101691999999EQDQ01+000000PRSWM2
0138601010999991986010318004+35733-005900FM-12+0021GMTT V0202601N00821004801CN0150001N9+01321+00851101831ADDAA106000091AG14000GA1031+003909089GA2041+004809059GF106991061081004501001001KA1120M+01531MD1210111+9999REMSYN023333   10153 83813 84616
0076601010999991986010319304+35733-005900FM-15+0021GMTT V0202601N00721004801CN0112001N1+01301+00901999999ADDAG12999GA1031+003909089GA2041+004809059MA1101901999999EQDQ01+000000PRSWM2
0076601010999991986010320004+35733-005900FM-15+0021GMTT V0202601N00721004801CN0112001N1+01301+00901999999ADDAG12999GA1031+003909089GA2041+004809059MA1101801999999EQDQ01+000000PRSWM2
0171601010999991986010321004+35733-005900SY-MT+0021GMTT V0202601N00931004801CN0100001N1+01321+00931101911ADDAA106000091AG14000GA1031+003909089GA2031+004809059GF105991051081004501001001MA1101901999999MD1110081+9999MW1001REMSYN017333   83813 83616MET006NOSIG?EQDQ01+000000PRSWM2
0057601010999991986010321304+35733-005900FM-15+0021GMTT V0203001N00821220001CN0112001N1+01301+00901999999ADDAG12999MA1101901999999REMMET004NOS?EQDQ01+000000PRSWM2
0091601010999991986010322304+35733-005900FM-15+0021GMTT V0203001N00821004801CN0112001N1+01301+00901999999ADDAG12999GA1031+003909089GA2031+004809059MA1101901999999REMMET006NOSIG?EQDQ01+000000PRSWM2
0075601010999991986010323004+35733-005900FM-15+0021GMTT V0203201N00511220001CN0112001N1+01201+00901999999ADDAG12999GA1031+004509089MA1101901999999REMMET006NOSIG?EQDQ01+000000PRSWM2
0075601010999991986010323304+35733-005900FM-15+0021GMTT V0203201N00511220001CN0112001N1+01201+00901999999ADDAG12000GA1031+004509089MA1101901999999REMMET006NOSIG?EQDQ01+000000PRSWM2
0165601010999991986010400004+35733-005900SY-MT+0021GMTT V0203201N00311220001CN0100001N1+01231+99999101961ADDAA106000091AG14000GA1031+004509089GF103991031021004501001001MA1101901999999MD1110051+9999MW1001REMSYN011333   83815MET006NOSIG?EQDQ01+026383ATOD  Q02+000000PRSWM2
0091601010999991986010400304+35733-005900FM-15+0021GMTT V0203201N00411220001CN0112001N1+01201+99999999999ADDAG11999GA1031+004509089MA1101901999999REMMET006NOSIG?EQDQ01+027323ATOD  Q02+000000PRSWM2
0075601010999991986010401004+35733-005900FM-15+0021GMTT V0203201N00621220001CN0112001N1+01301+01201999999ADDAG11999GA1031+004509089MA1101901999999REMMET006NOSIG?EQDQ01+000000PRSWM2
0075601010999991986010401304+35733-005900FM-15+0021GMTT V0203201N00511220001CN0112001N1+01301+01201999999ADDAG11999GA1031+004509089MA1101901999999REMMET006NOSIG?EQDQ01+000000PRSWM2
0073601010999991986010402004+35733-005900FM-15+0021GMTT V0203201N00511220001CN0112001N1+01301+00901999999ADDAG11999GA1031+004509089MA1101901999999REMMET004NSG?EQDQ01+000000PRSWM2
0073601010999991986010402304+35733-005900FM-15+0021GMTT V0203201N00511220001CN0112001N1+01301+00901999999ADDAG11000GA1031+004509089MA1101901999999REMMET004NSG?EQDQ01+000000PRSWM2
0147601010999991986010403004+35733-005900SY-MT+0021GMTT V0203201N00511220001CN0100001N1+01261+00891101981ADDAA106000091AG10000GA1031+004509089GF103991031021004501001001MA1101901999999MD1210041+9999MW1001REMSYN011333   83815MET004NSG?EQDQ01+000000PRSWM2
0065601010999991986010405304+35733-005900FM-15+0021GMTT V0203201N00411220001CN0112001N1+01101+99999999999ADDAG12000GA1031+004509089REMMET011081020 NSG?EQDQ01+000000PRSWM2
0073601010999991986010406004+35733-005900FM-15+0021GMTT V0203001N00821220001CN0112001N1+01101+00901999999ADDAG12000GA1041+004509089MA1102001999999REMMET004NSG?EQDQ01+000000PRSWM2
0089601010999991986010406304+35733-005900FM-15+0021GMTT V0203001N00411004501CN9999999N9+01101+00901999999ADDAG12999GA1071+004509059MA1102001999999REMMET004NSG?EQDQ01+000002VOVAR Q02+000000PRSWM2
0073601010999991986010407004+35733-005900FM-15+0021GMTT V0203201N00311220001CN0112001N1+01101+00901999999ADDAG12999GA1031+004509089MA1102001999999REMMET004NSG?EQDQ01+000000PRSWM2
0073601010999991986010407304+35733-005900FM-15+0021GMTT V0209991C00001220001CN0112001N1+01101+00901999999ADDAG12999GA1041+004509089MA1102001999999REMMET004NSG?EQDQ01+000000PRSWM2
0089601010999991986010408004+35733-005900FM-15+0021GMTT V0203201N00211004501CN9999999N9+00901+00801999999ADDAG12999GA1051+004509089MA1102201999999REMMET004NSG?EQDQ01+000002VOVAR Q02+000000PRSWM2
0089601010999991986010408304+35733-005900FM-15+0021GMTT V0203201N00211004501CN9999999N9+00901+00801999999ADDAG12000GA1051+004509089MA1102201999999REMMET004NSG?EQDQ01+000002VOVAR Q02+000000PRSWM2
0137601010999991986010409004+35733-005900SY-MT+0021GMTT V0209991C00001004501CN0150001N1+00901+00731102311ADDAA106000091AG14000GA1051+004509089GF105991051021004501001001MA1102301999999MD1210281+9999MW1001REMSYN011333   85815EQDQ01+000000PRSWM2
0060601010999991986010410004+35733-005900FM-15+0021GMTT V0203401N00411004501CN0112001N1+01201+00901999999ADDAG12999GA1051+004509089MA1102301999999EQDQ01+000000PRSWM2
0073601010999991986010411004+35733-005900FM-15+0021GMTT V0203201N00411004501CN0112001N1+01201+00701999999ADDAG12999GA1051+004509089MA1102401999999REMMET004NSG?EQDQ01+000000PRSWM2
0073601010999991986010411304+35733-005900FM-15+0021GMTT V0203201N00411004501CN0112001N1+01201+00701999999ADDAG12000GA1051+004509089MA1102401999999REMMET004NSG?EQDQ01+000000PRSWM2
0097601010999991986010412004+35733-005900FM-12+0021GMTT V0203001N00411004501CN0200001N9+01331+00871102421ADDAA106000091AG14000GA1051+004509089GF105991051021004501001001MD1110111+9999REMSYN011333   85815
0073601010999991986010413304+35733-005900FM-15+0021GMTT V0202401N00621220001CN0112001N1+01301+00901999999ADDAG12999GA1041+004509089MA1102401999999REMMET004NSG?EQDQ01+000000PRSWM2
0073601010999991986010414004+35733-005900FM-15+0021GMTT V0202601N00821220001CN0112001N1+01401+00901999999ADDAG12999GA1041+004509089MA1102301999999REMMET004NSG?EQDQ01+000000PRSWM2
0073601010999991986010415004+35733-005900FM-15+0021GMTT V0202801N00931220001CN0112001N1+01501+01001999999ADDAG12000GA1041+004809089MA1102301999999REMMET004NSG?EQDQ01+000000PRSWM2
0075601010999991986010416004+35733-005900FM-15+0021GMTT V0202801N00621220001CN0112001N1+01501+01001999999ADDAG12999GA1041+004809089MA1102301999999REMMET006NOSIG?EQDQ01+000000PRSWM2
0075601010999991986010416304+35733-005900FM-15+0021GMTT V0202801N00621004801CN0112001N1+01501+01001999999ADDAG12999GA1051+004809089MA1102301999999REMMET006NOSIG?EQDQ01+000000PRSWM2
0091601010999991986010417004+35733-005900FM-15+0021GMTT V0202601N00511004801CN0112001N1+01201+99999999999ADDAG12999GA1061+004809089MA1102401999999REMMET006NOSIG?EQDQ01+027323ATOD  Q02+000000PRSWM2
0075601010999991986010417304+35733-005900FM-15+0021GMTT V0202601N00511004801CN0112001N1+01201+00801999999ADDAG12000GA1061+004809089MA1102401999999REMMET006NOSIG?EQDQ01+000000PRSWM2
0116601010999991986010418004+35733-005900FM-12+0021GMTT V0202601N00511004801CN0150001N9+01031+00671102481ADDAA106000091AG14000GA1051+004809089GF105991051021004501001021KA1120M+01451MD1310091+9999REMSYN017333   10145 85816
0074601010999991986010419304+35733-005900FM-15+0021GMTT V0202801N00621220001CN0112001N1+01001+00701999999ADDAG12999GA1041+004809089MA1102511999999REMMET005NOSI?EQDQ01+000000PRSWM2
0075601010999991986010420004+35733-005900FM-15+0021GMTT V0202801N00771220001CN0112001N1+00901+00601999999ADDAG12999GA1041+004809089MA1102511999999REMMET006NOSIG?EQDQ01+000000PRSWM2
0073601010999991986010420304+35733-005900FM-15+0021GMTT V0202801N00771220001CN0112001N1+00901+00601999999ADDAG12000GA1041+004809089MA1102511999999REMMET004NSG?EQDQ01+000000PRSWM2
0097601010999991986010421004+35733-005900FM-12+0021GMTT V0202601N00931220001CN0100001N9+01121+00661102631ADDAA106000091AG14000GA1031+004809089GF103991031021004501001001MD1210151+9999REMSYN011333   83816
0073601010999991986010421304+35733-005900FM-15+0021GMTT V0202801N00771220001CN0112001N1+01101+00701999999ADDAG12999GA1031+004809089MA1102611999999REMMET004NSG?EQDQ01+000000PRSWM2
0073601010999991986010422004+35733-005900FM-15+0021GMTT V0203001N00211220001CN0112001N1+01101+00701999999ADDAG12999GA1031+004809089MA1102611999999REMMET004NSG?EQDQ01+000000PRSWM2
0073601010999991986010422304+35733-005900FM-15+0021GMTT V0202801N00151220001CN0112001N1+01101+00701999999ADDAG12999GA1021+004809089MA1102611999999REMMET004NSG?EQDQ01+000000PRSWM2
0073601010999991986010423004+35733-005900FM-15+0021GMTT V0209991C00001220001CN0112001N1+01101+00801999999ADDAG12999GA1021+004809089MA1102611999999REMMET004NSG?EQDQ01+000000PRSWM2
0073601010999991986010423304+35733-005900FM-15+0021GMTT V0202801N00361220001CN0112001N1+01101+00801999999ADDAG12000GA1021+004809089MA1102611999999REMMET004NSG?EQDQ01+000000PRSWM2
0156601010999991986010500004+35733-005900SY-MT+0021GMTT V0202601N00511220001CN0100001N1+00721+00571102691ADDAA106000091AG14000GA1011+004809059GF101991011051004501001001MA1102711999999MD1110051+9999MW1001REMSYN011333   81616MET013EEE 1026 NSG?EQDQ01+000000PRSWM2
0073601010999991986010500304+35733-005900FM-15+0021GMTT V0209991C00001220001CN0112001N1+00701+00601999999ADDAG11999GA1011+004809059MA1102611999999REMMET004NSG?EQDQ01+000000PRSWM2
0073601010999991986010501004+35733-005900FM-15+0021GMTT V0209991C00001220001CN0112001N1+00701+00601999999ADDAG11999GA1011+004809059MA1102611999999REMMET004NSG?EQDQ01+000000PRSWM2
0073601010999991986010501304+35733-005900FM-15+0021GMTT V0202801N00261220001CN0112001N1+00701+00601999999ADDAG11999GA1011+004809059MA1102611999999REMMET004NSG?EQDQ01+000000PRSWM2
0073601010999991986010502304+35733-005900FM-15+0021GMTT V0202801N00261220001CN0112001N1+00701+00601999999ADDAG11000GA1011+004809059MA1102611999999REMMET004NSG?EQDQ01+000000PRSWM2
0073601010999991986010503004+35733-005900FM-15+0021GMTT V0202601N00511220001CN0112001N1+00801+00701999999ADDAG11000GA1011+004809059MA1102611999999REMMET004NSG?EQDQ01+000000PRSWM2
0073601010999991986010504004+35733-005900FM-15+0021GMTT V0202801N00511220001CN0112001N1+01001+00801999999ADDAG11999GA1021+004809059MA1102611999999REMMET004NSG?EQDQ01+000000PRSWM2
0073601010999991986010504304+35733-005900FM-15+0021GMTT V0202801N00621220001CN0112001N1+01001+00801999999ADDAG11999GA1021+004809059MA1102611999999REMMET004NSG?EQDQ01+000000PRSWM2
0073601010999991986010505004+35733-005900FM-15+0021GMTT V0202601N00821220001CN0112001N1+01001+00801999999ADDAG11999GA1031+004809059MA1102611999999REMMET004NSG?EQDQ01+000000PRSWM2
0073601010999991986010506004+35733-005900FM-15+0021GMTT V0202601N00511220001CN0112001N1+00901+00701999999ADDAG12000GA1041+004809059MA1102611999999REMMET004NSG?EQDQ01+000000PRSWM2
0060601010999991986010506304+35733-005900FM-15+0021GMTT V0202401N00311220001CN0112001N1+00901+00701999999ADDAG12999GA1031+004809059MA1102611999999EQDQ01+000000PRSWM2
0073601010999991986010507004+35733-005900FM-15+0021GMTT V0202201N00721004801CN0112001N1+01001+00801999999ADDAG12999GA1051+004809059MA1102611999999REMMET004NSG?EQDQ01+000000PRSWM2
0060601010999991986010507304+35733-005900FM-15+0021GMTT V0202001N00361004801CN0112001N1+01001+00801999999ADDAG12999GA1051+004809059MA1102611999999EQDQ01+000000PRSWM2
0073601010999991986010508004+35733-005900FM-15+0021GMTT V0201801N00211004801CN0112001N1+01001+00801999999ADDAG12999GA1051+004809059MA1102611999999REMMET004NSG?EQDQ01+000000PRSWM2
0147601010999991986010509004+35733-005900SY-MT+0021GMTT V0202001N00621220001CN0100001N1+01221+00921102651ADDAA106000091AG10000GA1041+004809089GF104991041081004501001001MA1102611999999MD1110021+9999MW1001REMSYN011333   84816MET004NSG?EQDQ01+000000PRSWM2
0060601010999991986010509304+35733-005900FM-15+0021GMTT V0202001N00621220001CN0112001N1+01201+00901999999ADDAG12999GA1041+004809089MA1102611999999EQDQ01+000000PRSWM2
0060601010999991986010510304+35733-005900FM-15+0021GMTT V0202001N00821220001CN0112001N1+01301+00901999999ADDAG12999GA1041+004809089MA1102611999999EQDQ01+000000PRSWM2
0076601010999991986010511004+35733-005900FM-15+0021GMTT V0201801N00821004801CN0112001N1+01201+00901999999ADDAG12999GA1041+003909089GA2061+004809059MA1102711999999EQDQ01+000000PRSWM2
0060601010999991986010511304+35733-005900FM-15+0021GMTT V0201801N00821018001CN0112001N1+01201+00901999999ADDAG12000GA1061+018009059MA1102711999999EQDQ01+000000PRSWM2
0119601010999991986010512004+35733-005900FM-12+0021GMTT V0201801N00821004801CN0080001N9+01201+00931102711ADDAA106000091AG14000GA1041+003909089GA2061+004809059GF107991071081004501999999MD1810041+9999REMSYN017333   84813 86616
0084601010999991986010513304+35733-005900FM-15+0021GMTT V0202001N01031004801CN0060001N1+01201+00901999999ADDAG12999GA1041+003909089GA2061+004809059MA1102611999999OC101441EQDQ01+000000PRSWM2
0084601010999991986010514004+35733-005900FM-15+0021GMTT V0202001N01131006001CN0080001N1+01301+01001999999ADDAG12999GA1041+004509089GA2071+006009059MA1102511999999OC101651EQDQ01+000000PRSWM2
0145601010999991986010515004+35733-005900SY-MT+0021GMTT V0202001N00931004801CN0080001N1+01321+01151102471ADDAG12003AY161031AY221031GA1041+003909089GA2071+004809059GF108991081081002501999999MA1102401999999MD1610241+9999MW1611REMSYN017333   84813 87616
0100601010999991986010517004+35733-005900FM-15+0021GMTT V0202401N01131003901CN0070001N1+01401+01201999999ADDAG12999GA1021+002109079GA2041+003909089GA3071+004809059MA1102401999999OC101651EQDQ01+000000PRSWM2
0100601010999991986010517304+35733-005900FM-15+0021GMTT V0202401N01131003901CN0070001N1+01401+01201999999ADDAG12000GA1021+002109079GA2041+003909089GA3071+004809059MA1102401999999OC101651EQDQ01+000000PRSWM2
0218601010999991986010518004+35733-005900SY-MT+0021GMTT V0202201N01231004501CN0080001N1+01381+01231102441ADDAA199001091AG10001AY161061AY261061GA1051+004509089GA2071+006009059GF107991999081004501999999KA1120M+01421MA1102401999999MD1610031+9999MW1011OC101851REMSYN023333   10142 85815 87620EQDQ01+000082SCOTLCQ02+000000PRSWM2
0084601010999991986010518304+35733-005900FM-15+0021GMTT V0202201N01241004501CN0080001N1+01401+01201999999ADDAG12999GA1051+004509089GA2071+006009059MA1102401999999OC101851EQDQ01+000000PRSWM2
0071601010999991986010519304+35733-005900FM-15+0021GMTT V0202401N01131004501CN0080001N1+01401+01201999999ADDAG12999GA1051+004509089GA2071+006009059MA1102401999999MW1801OC101651
0071601010999991986010520004+35733-005900FM-15+0021GMTT V0202601N01131004501CN0080001N1+01401+01201999999ADDAG12999GA1051+004509089GA2071+006009059MA1102401999999MW1801OC101751
0071601010999991986010520304+35733-005900FM-15+0021GMTT V0202601N01131004501CN0080001N1+01401+01201999999ADDAG12005GA1051+004509089GA2071+006009059MA1102401999999MW1801OC101751
0159601010999991986010521004+35733-005900SY-MT+0021GMTT V0202601N00821004501CN0080001N1+01351+01251102441ADDAG12001AY181031AY221031GA1051+004509089GA2071+004809059GF108991081081004501999999MA1102401999999MD1410001+9999MW1251MW2801OC101651REMSYN017333   85815 87620
0089601010999991986010521304+35733-005900FM-15+0021GMTT V0202601N00931004501CN0080001N1+01401+01301999999ADDAG12999GA1051+004509089GA2071+004809059MA1102401999999REMMET004NSG?EQDQ01+000000PRSWM2
0089601010999991986010522004+35733-005900FM-15+0021GMTT V0202601N01031004501CN0080001N1+01301+01201999999ADDAG12999GA1051+004509089GA2061+004809059MA1102401999999REMMET004NSG?EQDQ01+000000PRSWM2
0097601010999991986010522304+35733-005900FM-15+0021GMTT V0202601N01131004501CN0080001N1+01301+01201999999ADDAG12999GA1051+004509089GA2061+004809059MA1102401999999OC101441REMMET004NSG?EQDQ01+000000PRSWM2
0097601010999991986010523004+35733-005900FM-15+0021GMTT V0202601N01031004501CN0080001N1+01301+01201999999ADDAG12999GA1051+004509089GA2051+004809059MA1102401999999OC101291REMMET004NSG?EQDQ01+000000PRSWM2
0089601010999991986010523304+35733-005900FM-15+0021GMTT V0202601N01031004801CN0112001N1+01301+01201999999ADDAG12000GA1031+004509089GA2031+004809059MA1102401999999REMMET004NSG?EQDQ01+000000PRSWM2
0171601010999991986010600004+35733-005900SY-MT+0021GMTT V0202801N01441220001CN0100001N1+01401+01021102581ADDAA199002091AG10001AY181061AY221061GA1041+004809089GF104991041081004501001001MA1102511999999MD1010101+9999MW1011OC101651REMSYN011333   84816MET004NSG?EQDQ01+000000PRSWM2
0081601010999991986010600304+35733-005900FM-15+0021GMTT V0202801N01341220001CN0112001N1+01401+01001999999ADDAG11999GA1041+004809089MA1102511999999OC101541REMMET004NSG?EQDQ01+000000PRSWM2
0066601010999991986010601304+35733-005900FM-15+0021GMTT V0202801N01031220001CN0112001N1+99999+99999999999ADDAG11999GA1051+999999089REMMET01210 1025 NSG?EQDQ01+000000PRSWM2
0073601010999991986010602004+35733-005900FM-15+0021GMTT V0202801N01031004801CN0112001N1+01401+01001999999ADDAG11999GA1051+004809089MA1102001999999REMMET004NSG?EQDQ01+000000PRSWM2
0081601010999991986010602304+35733-005900FM-15+0021GMTT V0202801N01031004801CN0112001N1+01401+01001999999ADDAG11000GA1061+004809089MA1102612999999OC101341REMMET004NSG?EQDQ01+000000PRSWM2
0097601010999991986010603004+35733-005900FM-12+0021GMTT V0203001N01031004801CN0100001N9+01331+01011102631ADDAA106000091AG14000GA1061+004809089GF106991061021004501001001MD1310051+9999REMSYN011333   86816
0073601010999991986010603304+35733-005900FM-15+0021GMTT V0203001N01031004801CN0112001N1+01301+01001999999ADDAG11999GA1061+004809089MA1102611999999REMMET004NSG?EQDQ01+000000PRSWM2
0060601010999991986010604304+35733-005900FM-15+0021GMTT V0202601N00771004801CN0112001N1+01301+00901999999ADDAG11999GA1061+004809089MA1102611999999EQDQ01+000000PRSWM2
0073601010999991986010605004+35733-005900FM-15+0021GMTT V0203001N01031220001CN0112001N1+01301+00901999999ADDAG11999GA1041+006009059MA1102611999999REMMET004NSG?EQDQ01+000000PRSWM2
0116601010999991986010606004+35733-005900FM-12+0021GMTT V0203001N00821220001CN0100001N9+01301+00911102641ADDAA124003091AG10000GA1041+006009059GF104991041051004501021001KA1120N+01281MD1110011+9999REMSYN017333   20128 84620
0073601010999991986010607004+35733-005900FM-15+0021GMTT V0203001N00821220001CN0112001N1+01301+00901999999ADDAG12999GA1041+006009059MA1102611999999REMMET004NSG?EQDQ01+000000PRSWM2
0060601010999991986010609304+35733-005900FM-15+0021GMTT V0203001N00721004801CN0112001N1+01301+00901999999ADDAG12999GA1051+004809089MA1102711999999EQDQ01+000000PRSWM2
0060601010999991986010610004+35733-005900FM-15+0021GMTT V0203001N00511004801CN0112001N1+01201+00701999999ADDAG12999GA1051+004809089MA1102811999999EQDQ01+000000PRSWM2
0060601010999991986010611004+35733-005900FM-15+0021GMTT V0203601N00411004801CN0112001N1+01201+00701999999ADDAG12999GA1051+004809089MA1102811999999EQDQ01+000000PRSWM2
0097601010999991986010612004+35733-005900FM-12+0021GMTT V0203201N00411004801CN0150001N9+01221+00721102841ADDAA106000091AG14000GA1051+004809089GF105991051021004501001001MD1010091+9999REMSYN011333   85816
0074601010999991986010612304+35733-005900FM-15+0021GMTT V0203001N00411004801CN0112001N1+01201+00701999999ADDAG12999GA1051+004809089MA1102811999999REMMET005NSGV?EQDQ01+000000PRSWM2
0073601010999991986010613004+35733-005900FM-15+0021GMTT V0203001N00511004801CN0112001N1+01301+00701999999ADDAG12999GA1051+004809089MA1102811999999REMMET004NSG?EQDQ01+000000PRSWM2
0073601010999991986010614004+35733-005900FM-15+0021GMTT V0203001N00511004801CN0112001N1+01301+00601999999ADDAG12999GA1051+004809059MA1102811999999REMMET004NSG?EQDQ01+000000PRSWM2
0119601010999991986010615004+35733-005900FM-12+0021GMTT V0202801N00511006001CN0150001N9+01271+00751102661ADDAA106000091AG14000GA1041+004809089GA2031+006009059GF106991061081004501001001MD1710181+9999REMSYN017333   84816 83620
0092601010999991986010616004+35733-005900FM-15+0021GMTT V0209999999999006001CN0112001N1+01301+00801999999ADDAG10999GA1031+004809089GA2041+006009059MA1102611999999REMMET007HNOSIG?EQDQ01+000000PRSWM2
0091601010999991986010617004+35733-005900FM-15+0021GMTT V0202401N00211006001CN0112001N1+01201+00701999999ADDAG12999GA1031+004809089GA2031+006009059MA1102611999999REMMET006NOSIG?EQDQ01+000000PRSWM2
0168601010999991986010618004+35733-005900SY-MT+0021GMTT V0202801N00361220001CN0150001N1+01051+00701102631ADDAA106000091AG14000GA1021+007809059GF102991021051008001001001KA1120M+01321MA1102611999999MD1610031+9999MW1001REMSYN017333   10132 82626MET006NOSIG?EQDQ01+000000PRSWM2
0075601010999991986010618304+35733-005900FM-15+0021GMTT V0202801N00211220001CN0112001N1+01201+00701999999ADDAG12999GA1021+007809059MA1102611999999REMMET006NOSLG?EQDQ01+000000PRSWM2
0075601010999991986010619004+35733-005900FM-15+0021GMTT V0209991C00001220001CN0112001N1+01001+00701999999ADDAG12999GA1021+007809059MA1102611999999REMMET006NOSIG?EQDQ01+000000PRSWM2
0075601010999991986010619304+35733-005900FM-15+0021GMTT V0209991C00001220001CN0112001N1+01001+00701999999ADDAG12999GA1021+007809059MA1102611999999REMMET006NOSIG?EQDQ01+000000PRSWM2
0075601010999991986010620004+35733-005900FM-15+0021GMTT V0209991C00001220001CN0112001N1+01001+00601999999ADDAG12999GA1021+007809059MA1102611999999REMMET006NOSIG?EQDQ01+000000PRSWM2
0073601010999991986010620304+35733-005900FM-15+0021GMTT V0209991C00001220001CN0112001N1+01001+00601999999ADDAG12000GA1021+007809059MA1102611999999REMMET004NSG?EQDQ01+000000PRSWM2
0073601010999991986010621004+35733-005900FM-15+0021GMTT V0201201N00261220001CN0112001N1+01001+00701999999ADDAG12000GA1021+007809059MA1102611999999REMMET004NSG?EQDQ01+000000PRSWM2
0073601010999991986010622004+35733-005900FM-15+0021GMTT V0209991C00001220001CN0112001N1+00801+00601999999ADDAG12999GA1011+007809059MA1102611999999REMMET004NSG?EQDQ01+000000PRSWM2
0073601010999991986010622304+35733-005900FM-15+0021GMTT V0209991C00001220001CN0112001N1+00801+00601999999ADDAG12999GA1011+007809059MA1102611999999REMMET004NSG?EQDQ01+000000PRSWM2
0063601010999991986010623004+35733-005900FM-15+0021GMTT V0209991C00001999991CY0099001N1+00801+00601999999ADDAG12999MA1102611999999REMMET010CAVOK NSG?EQDQ01+000000PRSWM2
0063601010999991986010623304+35733-005900FM-15+0021GMTT V0209991C00001999991CY0099001N1+00801+00601999999ADDAG12000MA1102611999999REMMET010CAVOK NSG?EQDQ01+000000PRSWM2
0120601010999991986010700004+35733-005900SY-MT+0021GMTT V0209991C00001220001CN0150001N1+00551+00431102531ADDAA106000091AG14000GF100991001001999999001001MA1102511999999MD1610021+9999MW1001REMMET010CAVOK NSG?EQDQ01+000000PRSWM2
0063601010999991986010700304+35733-005900FM-15+0021GMTT V0209991C00001999991CY0099001N1+00601+00401999999ADDAG11999MA1102511999999REMMET010CAVOK NSG?EQDQ01+000000PRSWM2
0063601010999991986010701004+35733-005900FM-15+0021GMTT V0209991C00001999991CY0099001N1+00601+00401999999ADDAG11999MA1102511999999REMMET010CAVOK NSG?EQDQ01+000000PRSWM2
0063601010999991986010701304+35733-005900FM-15+0021GMTT V0209991C00001999991CY0099001N1+00601+00401999999ADDAG11999MA1102511999999REMMET010CAVOK NSG?EQDQ01+000000PRSWM2
0063601010999991986010702004+35733-005900FM-15+0021GMTT V0209991C00001999991CY0099001N1+00501+00401999999ADDAG11999MA1102511999999REMMET010CAVOK NSG?EQDQ01+000000PRSWM2
0120601010999991986010703004+35733-005900SY-MT+0021GMTT V0209991C00001220001CN0150001N1+00501+00421102471ADDAA106000091AG14000GF100991001001999999001001MA1102401999999MD1610051+9999MW1001REMMET010CAVOK NSG?EQDQ01+000000PRSWM2
0063601010999991986010703304+35733-005900FM-15+0021GMTT V0201201N00211999991CY0099001N1+00501+00401999999ADDAG12999MA1102401999999REMMET010CAVOK NSG?EQDQ01+000000PRSWM2
0063601010999991986010704304+35733-005900FM-15+0021GMTT V0209991C00001999991CY0099001N1+00501+00401999999ADDAG12999MA1102301999999REMMET010CAVOK NSG?EQDQ01+000000PRSWM2
0058601010999991986010705004+35733-005900FM-15+0021GMTT V0201001N00211999991CY0099001N1+00401+00401999999ADDAG12999MA1102201999999REMMET005CAVOKEQDQ01+000000PRSWM2
0058601010999991986010705304+35733-005900FM-15+0021GMTT V0201001N00211999991CY0099001N1+00401+00401999999ADDAG12000MA1102201999999REMMET005CAVOKEQDQ01+000000PRSWM2
0145601010999991986010706004+35733-005900SY-MT+0021GMTT V0201001N00261220001CN0150001N1+00441+00371102241ADDAA106000091AG14000GF100991001001999999001001KA1120N+00441MA1102201999999MD1810151+9999MW1001REMSYN011333   20044MET005CAVOKEQDQ01+000000PRSWM2
0058601010999991986010706304+35733-005900FM-15+0021GMTT V0201001N00211999991CY0099001N1+00401+00401999999ADDAG12999MA1102201999999REMMET005CAVOKEQDQ01+000000PRSWM2
0058601010999991986010707004+35733-005900FM-15+0021GMTT V0201001N00261999991CY0099001N1+00401+00401999999ADDAG12999MA1102201999999REMMET005CAVOKEQDQ01+000000PRSWM2
0074601010999991986010708004+35733-005900FM-15+0021GMTT V0209991C00001004801CN0112001N1+00501+00501999999ADDAG12999GA1061+004809059MA1102301999999REMMET005NOIG?EQDQ01+000000PRSWM2
0150601010999991986010709004+35733-005900SY-MT+0021GMTT V0201601N00721004801CN0150001N1+00911+00651102351ADDAA106000091AG14000GA1051+004809059GF106991051051004501001021MD1010001+9999MW1001REMSYN011333   85616MET022:016 09/07 6062 NOSIG?EQDQ01+000000PRSWM2
0179601010999991986010712004+35733-005900SY-MT+0021GMTT V0201801N01541004801CN0150001N1+01271+00791102161ADDAA106000091AG14000GA1021+003909089GA2051+004809059GF107991061081004501001021MA1102101999999MD1810071+9999MW1001OC102271REMSYN017333   82813 85616MET006NOSIG?EQDQ01+000000PRSWM2
0099601010999991986010713004+35733-005900FM-15+0021GMTT V0201801N01541004801CN0112001N1+01301+00801999999ADDAG12999GA1031+003909089GA2071+004809059MA1102101999999OC102271REMMET006NOSIG?EQDQ01+000000PRSWM2
0189601010999991986010715004+35733-005900SY-MT+0021GMTT V0201801N01751004801CN0100001N1+01221+00821101861ADDAA106000091AG14000GA1031+001809089GA2051+004809089GA3061+030009039GF108991061021002501071999MA1101801999999MD1610301+9999MW1001OC102371REMSYN023333   83806 85816 86460EQDQ01+000000PRSWM2
0071601010999991986010716304+35733-005900FM-15+0021GMTT V0201801N01341001801CN0020001N1+01101+00901999999ADDAG12999GA1051+001809089GA2071+004809089MA1101801999999MW1801OC102061
0084601010999991986010717304+35733-005900FM-15+0021GMTT V0201801N01751001801CN0020001N1+01101+00901999999ADDAG12005GA1051+001809089GA2071+004809089MA1101591999999MW1801OC102371REMMET004NSG?
0087601010999991986010718004+35733-005900FM-15+0021GMTT V0201801N01651001801CN0020001N1+01101+01001999999ADDAG12014GA1051+001809089GA2061+004809089GA3021+006909099MA1101491999999MW1811OC102371
0100601010999991986010718304+35733-005900FM-15+0021GMTT V0201801N01651004801CN0008001N1+01101+01001999999ADDAG12999GA1051+004809089GA2061+004809089GA3021+006909099MA1101491999999OC102371EQDQ01+000832PRSWM2
0072601010999991986010718454+35733-005900FM-15+0021GMTT V0201801N01751004801CN0015001N1+99999+99999999999ADDAG12003GA1031+001809079GA2061+004809089GA3021+006909099MW1601OC102271
0087601010999991986010719004+35733-005900FM-15+0021GMTT V0201801N01751004801CN0015001N1+01101+01001999999ADDAG12999GA1031+001809079GA2061+004809089GA3021+006909099MA1101491999999MW1601OC102271
0085601010999991986010719154+35733-005900FM-16+0021GMTT V0201801N01441004801CN0050001N1+99999+99999999999ADDAG12999GA1021+001809079GA2051+004809089GA3021+006909099OC101961EQDQ01+000000PRSWM2
0087601010999991986010719304+35733-005900FM-15+0021GMTT V0201801N01441004801CN0050001N1+01101+01001999999ADDAG12999GA1021+001809079GA2051+004809089GA3021+006909099MA1101491999999MW1211OC101961
0087601010999991986010720004+35733-005900FM-15+0021GMTT V0201801N01441004801CN0050001N1+01101+01001999999ADDAG12999GA1021+001809079GA2051+004809089GA3021+006909099MA1101491999999MW1211OC101961
0092601010999991986010720304+35733-005900FM-15+0021GMTT V0201801N01441004801CN0050001N1+01101+01001999999ADDAG12000GA1021+001809079GA2051+004809089GA3021+006909099MA1101491999999EQDQ01+000000PRSWM2
0102601010999991986010721004+35733-005900FM-15+0021GMTT V0202601N02061004801CN0050001N1+01101+01001999999ADDAG12014GA1031+001809079GA2061+004809089GA3021+007809099MA1101691999999MW1811OC102571REMMET006NOSIG?
0102601010999991986010721304+35733-005900FM-15+0021GMTT V0202601N02061004801CN0050001N1+01101+01001999999ADDAG12999GA1061+004809089GA2031+030009079GA3021+039009099MA1101691999999MW1251OC102321REMMET006NOSIG?
0102601010999991986010722004+35733-005900FM-15+0021GMTT V0202801N01031004801CN0050001N1+01301+01101999999ADDAG12999GA1031+001809079GA2061+004809089GA3021+009009099MA1101691999999MW1251OC101291REMMET006NOSIG?
0115601010999991986010722304+35733-005900FM-15+0021GMTT V0202601N01801004801CN0060001N1+01301+01101999999ADDAG12999GA1031+001809079GA2061+004809089GA3021+009009099MA1101691999999OC102471REMMET006NOSIG?EQDQ01+000000PRSWM2
0102601010999991986010723004+35733-005900FM-15+0021GMTT V0202601N01291004801CN0050001N1+01301+01101999999ADDAG12999GA1031+001809079GA2061+004809089GA3021+009009099MA1101691999999MW1601OC101801REMMET006NOSIG?
0102601010999991986010723304+35733-005900FM-15+0021GMTT V0202601N01801004801CN0050001N1+01301+01101999999ADDAG12002GA1031+001809079GA2061+004809089GA3021+009009099MA1101691999999MW1251OC102321REMMET006NOSIG?
0115601010999991986010800004+35733-005900FM-15+0021GMTT V0202601N01541004801CN0060001N1+01401+01101999999ADDAG12000GA1031+001809079GA2061+004809089GA3021+009009099MA1101801999999OC102061REMMET006NOSIG?EQDQ01+000000PRSWM2
0115601010999991986010800304+35733-005900FM-15+0021GMTT V0202601N01541004801CN0060001N1+01401+01101999999ADDAG11999GA1031+001809079GA2061+004809089GA3021+009009099MA1101801999999OC102061REMMET006NOSIG?EQDQ01+000000PRSWM2
0099601010999991986010801304+35733-005900FM-15+0021GMTT V0202601N01541004801CN0070001N1+01401+01101999999ADDAG11999GA1061+004809089GA2021+039009099MA1101901999999OC102061REMMET006NOSIG?EQDQ01+000000PRSWM2
0089601010999991986010802004+35733-005900FM-15+0021GMTT V0209999999999004801CN0070001N1+01301+01001999999ADDAG11999GA1061+004809089GA2021+009009099MA1101901999999REMMET004NSG?EQDQ01+000000PRSWM2
0163601010999991986010803004+35733-005900SY-MT+0021GMTT V0202801N00931004801CN0080001N1+01301+00971101951ADDAA106000091AG10000GA1061+004809089GA2011+009009099GF107991071091004501999999MA1101901999999MW1001OC101541REMSYN017333   86816 81930MET004NSG?EQDQ01+000000PRSWM2
0097601010999991986010803304+35733-005900FM-15+0021GMTT V0202801N00931004801CN0080001N1+01301+01001999999ADDAG11999GA1061+004809089GA2011+009009099MA1101901999999OC101291REMMET004NSG?EQDQ01+000000PRSWM2
0097601010999991986010804004+35733-005900FM-15+0021GMTT V0202801N00931004801CN0080001N1+01301+01001999999ADDAG11999GA1061+004809089GA2011+009009099MA1101901999999OC101291REMMET004NSH?EQDQ01+000000PRSWM2
0089601010999991986010805004+35733-005900FM-15+0021GMTT V0202601N00821004801CN0080001N1+01201+00901999999ADDAG11999GA1061+004809089GA2011+009009099MA1102001999999REMMET004NSG?EQDQ01+000000PRSWM2
0079601010999991986010805304+35733-005900FM-15+0021GMTT V0202601N00881004801CN0090001N1+01201+00901999999ADDAG12000GA1011+000909099GA2061+004809089REMMET009(020 NSG?EQDQ01+000000PRSWM2
0196601010999991986010806004+35733-005900SY-MT+0021GMTT V0202601N01341006901CN0100001N1+01321+00891102071ADDAA124022091AG10000GA1031+004809089GA2031+006909059GF105991051081004501001001KA1120N+00981MA1102001999999MD1210121+9999MW1001OC101541REMSYN023333   20098 83816 83623MET004NSG?EQDQ01+000000PRSWM2
0121601010999991986010808004+35733-005900FM-15+0021GMTT V0202401N00931006901CN9999999N9+01401+00901999999ADDAG12999GA1031+004809089GA2031+006909059GA3051+006909059MA1102001999999REMMET004NSG?EQDQ01+000002VOVAR Q02+000000PRSWM2
0089601010999991986010808304+35733-005900FM-15+0021GMTT V0202401N00931006901CN0112001N1+01401+00901999999ADDAG12000GA1041+004809089GA2051+006909059MA1102001999999REMMET004NSG?EQDQ01+000000PRSWM2
0169601010999991986010809004+35733-005900SY-MT+0021GMTT V0202401N01231006901CN0100001N1+01451+01101102261ADDAA106000091AG14000GA1031+004809089GA2041+006909059GF107991071081004501071999MA1102201999999MD1310191+9999MW1001REMSYN017333   83816 84623MET004NSG?EQDQ01+000000PRSWM2
0089601010999991986010810004+35733-005900FM-15+0021GMTT V0202401N01131006901CN0112001N1+01501+01101999999ADDAG12999GA1031+004809089GA2041+006909059MA1102301999999REMMET004NSG?EQDQ01+000000PRSWM2
0119601010999991986010812004+35733-005900FM-12+0021GMTT V0202401N01231006901CN0100001N9+01271+01271102311ADDAA106000091AG14000GA1041+004809089GA2061+006909059GF108991081081004501999999MD1010051+9999REMSYN017333   84816 86623
0076601010999991986010813004+35733-005900FM-15+0021GMTT V0202401N01241006901CN0112001N1+01501+01301999999ADDAG12999GA1041+004809089GA2061+006909059MA1102301999999EQDQ01+000000PRSWM2
0091601010999991986010814004+35733-005900FM-15+0021GMTT V0202401N01441004801CN0080001N1+01501+01301999999ADDAG12999GA1021+002409079GA2051+004809059MA1102201999999REMMET006NOSIG?EQDQ01+000000PRSWM2
0086601010999991986010814304+35733-005900FM-15+0021GMTT V0202401N01851004801CN0060001N1+01501+01301999999ADDAG12003GA1031+002409079GA2051+004809059MA1102201999999MW1601OC102371REMMET006NOSIG?
0165601010999991986010815004+35733-005900SY-MT+0021GMTT V0202401N01641004801CN0060001N1+01451+01291102161ADDAG12001AY161031AY221031GA1031+002409079GA2051+004809059GF108991071081002501071999MA1102101999999MD1710151+9999MW1211OC102271REMSYN017333   83708 85616MET006NOSIG?
0071601010999991986010815304+35733-005900FM-15+0021GMTT V0202401N01651001501CN0010001N1+01501+01301999999ADDAG12999GA1051+001509079GA2051+004809059MA1102101999999MW1601OC102271
0068601010999991986010816004+35733-005900FM-15+0021GMTT V0202401N01751001501CN0010001N1+01501+01401999999ADDAG12999GA1051+001509079MA1102101999999MW1611OC102271REMMET004NSG?
0195601010999991986010818004+35733-005900SY-MT+0021GMTT V0202401N01541001501CN0030001N1+01501+01471102191ADDAA199004091AG10001AY161061AY221061GA1051+001509079GA2071+004509089GF108991081021001501999999KA1120M+01601MA1102101999999MD1110031+9999MW1211OC102161REMSYN023333   10160 85705 87815MET006NOSIG?
0091601010999991986010819004+35733-005900FM-15+0021GMTT V0202601N01291004501CN0060001N1+01501+01401999999ADDAG12999GA1041+001509079GA2061+004509089MA1102201999999REMMET006NOSIG?EQDQ01+000000PRSWM2
0091601010999991986010820304+35733-005900FM-15+0021GMTT V0202601N01241004501CN0060001N1+01501+01401999999ADDAG12000GA1041+001509079GA2061+004509089MA1102201999999REMMET006NOSIG?EQDQ01+000000PRSWM2
0179601010999991986010821004+35733-005900SY-MT+0021GMTT V0202401N01341004501CN0060001N1+01601+01461102311ADDAA106000091AG14000GA1041+001509079GA2061+004509089GF107991071021002501999999MA1102301999999MD1210121+9999MW1001OC101961REMSYN017333   84705 86815MET006NOSIG?EQDQ01+000000PRSWM2
0099601010999991986010822004+35733-005900FM-15+0021GMTT V0202401N01341004501CN0060001N1+01601+01501999999ADDAG12999GA1041+001509079GA2061+004509089MA1102301999999OC101541REMMET006NOSIG?EQDQ01+000000PRSWM2
0099601010999991986010822304+35733-005900FM-15+0021GMTT V0202401N01341004501CN0060001N1+01601+01501999999ADDAG12999GA1041+001509079GA2061+004509089MA1102301999999OC101851REMMET006NOSIG?EQDQ01+000000PRSWM2
0071601010999991986010823004+35733-005900FM-15+0021GMTT V0202401N01651004501CN0060001N1+01501+01501999999ADDAG12999GA1041+001509079GA2071+004509089MA1102301999999MW1811OC102471
0071601010999991986010823304+35733-005900FM-15+0021GMTT V0202401N01441004501CN0060001N1+01501+01501999999ADDAG12005GA1041+001509079GA2071+004509089MA1102301999999MW1801OC102061
0190601010999991986010900004+35733-005900SY-MT+0021GMTT V0202401N01231004501CN0060001N1+01451+01381102351ADDAA106004091AG10001AY181061AY281061GA1041+001509079GA2061+004509089GA3011+006909099GF108991081091001501999999MA1102301999999MD1310041+9999MW1251REMSYN023333   84705 86815 81923MET006NOSIG?
0209601010999991986010901004+35733-005900SY-MT+0021GMTT V0202401N01231004501CN0060001N1+01451+01381102351ADDAA106004091AG10001AY181011AY281011GA1041+001509079GA2051+004509089GA3011+006909099GF108991081091001501999999MA1102301999999MD1310041+9999MW1251REMSYN023333   84705 86815 81923MET006NOSIG?EQDQ01+000000PRSWM2
0073601010999991986010902004+35733-005900FM-15+0021GMTT V0202401N01131004801CN0080001N1+01301+01101999999ADDAG11999GA1051+004809089MA1102301999999REMMET004NSG?EQDQ01+000000PRSWM2
0073601010999991986010902304+35733-005900FM-15+0021GMTT V0202401N01131004801CN0080001N1+01301+01101999999ADDAG11000GA1051+004809089MA1102301999999REMMET004NSG?EQDQ01+000000PRSWM2
0097601010999991986010903004+35733-005900FM-12+0021GMTT V0202401N01131004801CN0080001N9+01311+01101102401ADDAA106000091AG14000GA1051+004809089GF105991051021004501001001MD1310051+9999REMSYN011333   85816
0060601010999991986010904004+35733-005900FM-15+0021GMTT V0202401N01031004801CN0080001N1+01301+01101999999ADDAG11999GA1051+004809089MA1102401999999EQDQ01+000000PRSWM2
0060601010999991986010905304+35733-005900FM-15+0021GMTT V0202401N00821004501CN0080001N1+01301+01101999999ADDAG12000GA1051+004509089MA1102401999999EQDQ01+000000PRSWM2
0168601010999991986010906004+35733-005900SY-MT+0021GMTT V0202401N00821220001CN0100001N1+01201+01011102401ADDAA124008091AG10000GA1031+004809089GF103991031021004501001001KA1120N+01201MA1102401999999MD1410001+9999MW1001REMSYN017333   20120 83816MET006NOSIG?EQDQ01+000000PRSWM2
0091601010999991986010908004+35733-005900FM-15+0021GMTT V0201801N00311004801CN0080001N1+01201+01001999999ADDAG12999GA1021+002409079GA2061+004809089MA1102401999999REMMET006NOSIG?EQDQ01+000000PRSWM2
0091601010999991986010909004+35733-005900FM-15+0021GMTT V0209991C00001004801CN0112001N1+01201+01001999999ADDAG12000GA1031+003909089GA2051+004809059MA1102511999999REMMET006NOSIG?EQDQ01+000000PRSWM2
0119601010999991986010912004+35733-005900FM-12+0021GMTT V0202601N00261004801CN0100001N9+01591+01271102751ADDAA106000091AG14000GA1021+003909089GA2061+004809059GF106991061081004501001001MD1110191+9999REMSYN017333   82813 86616
0091601010999991986010913004+35733-005900FM-15+0021GMTT V0203001N00511004801CN0112001N1+01601+01301999999ADDAG12999GA1021+003909089GA2041+004809059MA1102711999999REMMET006NOSIG?EQDQ01+000000PRSWM2
0089601010999991986010914004+35733-005900FM-15+0021GMTT V0203201N00621220001CN0112001N1+01501+01201999999ADDAG12999GA1011+003909089GA2031+004809059MA1102711999999REMMET004NSG?EQDQ01+000000PRSWM2
0169601010999991986010915004+35733-005900SY-MT+0021GMTT V0203001N00361220001CN0200001N1+01551+00911102711ADDAA106000091AG14000GA1011+004509089GA2041+078009009GF104991021081004501001021MA1102711999999MD1810041+9999MW1001REMSYN017333   81815 84076MET004NSG?EQDQ01+000000PRSWM2
0091601010999991986010916004+35733-005900FM-15+0021GMTT V0203001N00411078001CN0112001N1+01501+00901999999ADDAG12999GA1011+004509089GA2051+078009009MA1102711999999REMMET006NOSIG?EQDQ01+000000PRSWM2
0076601010999991986010917004+35733-005900FM-15+0021GMTT V0203001N00411078001CN0112001N1+01501+01001999999ADDAG12999GA1011+004509089GA2051+078009009MA1102711999999EQDQ01+000000PRSWM2
0076601010999991986010917304+35733-005900FM-15+0021GMTT V0203001N00721078001CN0112001N1+01501+01001999999ADDAG12000GA1011+004509089GA2051+078009009MA1102711999999EQDQ01+000000PRSWM2
0178601010999991986010918004+35733-005900SY-MT+0021GMTT V0203001N00721078001CN0150001N1+01321+01061102801ADDAA106000091AG14000GA1011+004809089GA2051+078009009GF105991021081004501001021KA1120M+01631MA1102711999999MD1310091+9999MW1001REMSYN023333   10163 81816 84076EQDQ01+000000PRSWM2
0076601010999991986010919004+35733-005900FM-15+0021GMTT V0203001N00621069001CN0112001N1+01301+01101999999ADDAG12999GA1011+004509089GA2051+069009009MA1102811999999EQDQ01+000000PRSWM2
0076601010999991986010919304+35733-005900FM-15+0021GMTT V0203001N00621069001CN0112001N1+01301+01101999999ADDAG12999GA1011+004509089GA2051+069009009MA1102811999999EQDQ01+000000PRSWM2
0076601010999991986010920004+35733-005900FM-15+0021GMTT V0203001N00621220001CN0112001N1+01301+01001999999ADDAG12999GA1011+004509089GA2041+069009009MA1102811999999EQDQ01+000000PRSWM2
0097601010999991986011003004+35733-005900FM-12+0021GMTT V0203001N00621220001CN0150001N9+01281+00741103111ADDAA106000091AG14000GA1021+075009009GF102991001001999999001021MD1310071+9999REMSYN011333   82075
0058601010999991986011004004+35733-005900FM-15+0021GMTT V0203001N00411999991CY0099001N1+01301+00801999999ADDAG11999MA1103121999999REMMET005CAVOKEQDQ01+000000PRSWM2
0058601010999991986011004304+35733-005900FM-15+0021GMTT V0203001N00411999991CY0099001N1+01301+00801999999ADDAG11999MA1103121999999REMMET005CAVOKEQDQ01+000000PRSWM2
0058601010999991986011005004+35733-005900FM-15+0021GMTT V0203001N00211999991CY0099001N1+01101+00801999999ADDAG11999MA1103121999999REMMET005CAVOKEQDQ01+000000PRSWM2
0058601010999991986011005304+35733-005900FM-15+0021GMTT V0203001N00211999991CY0099001N1+01101+00801999999ADDAG12000MA1103121999999REMMET005CAVOKEQDQ01+000000PRSWM2
0165601010999991986011006004+35733-005900SY-MT+0021GMTT V0203001N00311220001CN0150001N1+00731+00621103091ADDAA106000091AG14000GA1021+075009009GF102991001001999999001021KA1120N+00731MD1810021+9999MW1001REMSYN017333   20073 82075MET018CAVOK 707/06 1030?EQDQ01+000000PRSWM2
0063601010999991986011007004+35733-005900FM-15+0021GMTT V0201001N00211999991CY0099001N1+00601+00501999999ADDAG12999MA1103121999999REMMET010CAVOK NSG?EQDQ01+000000PRSWM2
0058601010999991986011008004+35733-005900FM-15+0021GMTT V0201001N00261999991CY0099001N1+00801+00701999999ADDAG12999MA1103181999999REMMET005CAVOKEQDQ01+000000PRSWM2
0058601010999991986011008304+35733-005900FM-15+0021GMTT V0201001N00261999991CY0099001N1+00801+00701999999ADDAG12000MA1103181999999REMMET005CAVOKEQDQ01+000000PRSWM2
0065601010999991986011009004+35733-005900FM-15+0021GMTT V0209991C00001999991CY0099001N1+01401+01201999999ADDAG12000MA1103181999999REMMET012CAVOK NOSIG?EQDQ01+000000PRSWM2
0063601010999991986011009304+35733-005900FM-15+0021GMTT V0209991C00001999991CY0099001N1+01401+01201999999ADDAG12999MA1103181999999REMMET010CAVOK NSG?EQDQ01+000000PRSWM2
0073601010999991986011011004+35733-005900FM-15+0021GMTT V0201801N00621220001CN0112001N1+01401+00901999999ADDAG12999GA1011+006009059MA1103391999999REMMET004NSG?EQDQ01+000000PRSWM2
0073601010999991986011011304+35733-005900FM-15+0021GMTT V0201801N00621220001CN0112001N1+01401+00901999999ADDAG12000GA1011+006009059MA1103391999999REMMET004NSG?EQDQ01+000000PRSWM2
0137601010999991986011012004+35733-005900SY-MT+0021GMTT V0201801N00721220001CN0200001N1+01511+00901103461ADDAA106000091AG14000GA1011+006009059GF101991011051008001001001MA1103391999999MD1110191+9999MW1001REMSYN011333   81620EQDQ01+000000PRSWM2
0075601010999991986011013004+35733-005900FM-15+0021GMTT V0201801N00621220001CN0112001N1+01501+00901999999ADDAG12999GA1011+006009059MA1103391999999REMMET006NOSIG?EQDQ01+000000PRSWM2
0073601010999991986011014004+35733-005900FM-15+0021GMTT V0202401N00151220001CN0112001N1+01501+00901999999ADDAG12999GA1011+006009059MA1103391999999REMMET004NSG?EQDQ01+000000PRSWM2
0063601010999991986011015004+35733-005900FM-15+0021GMTT V0202401N00151999991CY0099001N1+01801+01001999999ADDAG12000MA1103291999999REMMET010CAVOK NSG?EQDQ01+000000PRSWM2
0089601010999991986011016004+35733-005900FM-15+0021GMTT V0209991C00001999991CY0099001N1+99999+99999999999ADDAG12999MA1103391999999REMMET036CAVOK NOSIG?      7@@@@@*@@@@@@@@@!GEQDQ01+000000PRSWM2
0065601010999991986011017004+35733-005900FM-15+0021GMTT V0209991C00001999991CY0099001N1+01601+01101999999ADDAG12999MA1103391999999REMMET012CAVOK NOSIG?EQDQ01+000000PRSWM2
0065601010999991986011017304+35733-005900FM-15+0021GMTT V0209991C00001999991CY0099001N1+01601+01101999999ADDAG12000MA1103391999999REMMET012CAVOK NOSIG?EQDQ01+000000PRSWM2
0174601010999991986011018004+35733-005900SY-MT+0021GMTT V0200401N00151220001CN0150001N1+01411+00961103461ADDAA106000091AG14000GA1011+069009009GF101991001001999999001021KA1120M+01801MA1103391999999MD1110111+9999MW1001REMSYN017333   10180 81073MET012CAVOK NOSIG?EQDQ01+000000PRSWM2
0065601010999991986011018304+35733-005900FM-15+0021GMTT V0200401N00151999991CY0099001N1+01401+01001999999ADDAG12999MA1103391999999REMMET012CAVOK NOSIG?EQDQ01+000000PRSWM2
0065601010999991986011019004+35733-005900FM-15+0021GMTT V0200601N00511999991CY0099001N1+01301+01001999999ADDAG12999MA1103391999999REMMET012CAVOK NOSIG?EQDQ01+000000PRSWM2
0065601010999991986011020004+35733-005900FM-15+0021GMTT V0200601N00511999991CY0099001N1+01101+00901999999ADDAG12999MA1103491999999REMMET012CAVOK NOSIG?EQDQ01+000000PRSWM2
0063601010999991986011020304+35733-005900FM-15+0021GMTT V0201001N00261999991CY0099001N1+01101+00901999999ADDAG12000MA1103491999999REMMET010CAVOK NSG?EQDQ01+000000PRSWM2
0053601010999991986011022304+35733-005900FM-15+0021GMTT V0201201N00261999991CY0099001N1+01101+00901999999ADDAG12999REMMET015CAVOK 10+5 NSG?EQDQ01+000000PRSWM2
0063601010999991986011023004+35733-005900FM-15+0021GMTT V0201001N00261999991CY0099001N1+01001+00901999999ADDAG12999MA1103591999999REMMET010CAVOK NSG?EQDQ01+000000PRSWM2
0120601010999991986011100004+35733-005900SY-MT+0021GMTT V0209991C00001220001CN0150001N1+01041+00941103641ADDAA106000091AG14000GF100991001001999999001001MA1103591999999MD1110051+9999MW1001REMMET010CAVOK NSG?EQDQ01+000000PRSWM2
0063601010999991986011100304+35733-005900FM-15+0021GMTT V0209991C00001999991CY0099001N1+01001+00901999999ADDAG11999MA1103591999999REMMET010CAVOK NSG?EQDQ01+000000PRSWM2
0063601010999991986011101004+35733-005900FM-15+0021GMTT V0209991C00001999991CY0099001N1+01101+01001999999ADDAG11999MA1103591999999REMMET010CAVOK NSG?EQDQ01+000000PRSWM2
0063601010999991986011101304+35733-005900FM-15+0021GMTT V0209991C00001999991CY0099001N1+01101+01001999999ADDAG11999MA1103591999999REMMET010CAVOK NSG?EQDQ01+000000PRSWM2
0058601010999991986011102004+35733-005900FM-15+0021GMTT V0209991C00001999991CY0099001N1+01101+01001999999ADDAG11999MA1103591999999REMMET005CAVOKEQDQ01+000000PRSWM2
0058601010999991986011102304+35733-005900FM-15+0021GMTT V0209991C00001999991CY0099001N1+01101+01001999999ADDAG11000MA1103591999999REMMET005CAVOKEQDQ01+000000PRSWM2
0058601010999991986011103004+35733-005900FM-15+0021GMTT V0209991C00001999991CY0099001N1+00901+00701999999ADDAG11000MA1103591999999REMMET005CAVOKEQDQ01+000000PRSWM2
0058601010999991986011103304+35733-005900FM-15+0021GMTT V0209991C00001999991CY0099001N1+00901+00701999999ADDAG11999MA1103591999999REMMET005CAVOKEQDQ01+000000PRSWM2
0058601010999991986011104004+35733-005900FM-15+0021GMTT V0209991C00001999991CY0099001N1+00901+00701999999ADDAG11999MA1103591999999REMMET005CAVOKEQDQ01+000000PRSWM2
0058601010999991986011104304+35733-005900FM-15+0021GMTT V0209991C00001999991CY0099001N1+00901+00701999999ADDAG11999MA1103591999999REMMET005CAVOKEQDQ01+000000PRSWM2
0058601010999991986011105004+35733-005900FM-15+0021GMTT V0209991C00001999991CY0099001N1+00701+00601999999ADDAG11999MA1103591999999REMMET005CAVOKEQDQ01+000000PRSWM2
0058601010999991986011106004+35733-005900FM-15+0021GMTT V0209991C00001999991CY0099001N1+00601+00501999999ADDAG12000MA1103591999999REMMET005CAVOKEQDQ01+000000PRSWM2
0065601010999991986011108004+35733-005900FM-15+0021GMTT V0209991C00001999991CY0099001N1+00501+00501999999ADDAG12999MA1103491999999REMMET012CAVOK NOSIG?EQDQ01+000000PRSWM2
0065601010999991986011108304+35733-005900FM-15+0021GMTT V0209991C00001999991CY0099001N1+00501+00501999999ADDAG12000MA1103491999999REMMET012CAVOK NOSIG?EQDQ01+000000PRSWM2
0149601010999991986011109004+35733-005900SY-MT+0021GMTT V0209991C00001220001CN0150001N1+00701+00601103591ADDAA106000091AG14000GA1011+004809059GF102991011051004501001021MA1103491999999MD1310021+9999MW1001REMSYN011333   81616MET006NOSIG?EQDQ01+000000PRSWM2
0073601010999991986011110004+35733-005900FM-15+0021GMTT V0209991C00001220001CN0112001N1+01101+00901999999ADDAG12999GA1011+004809059MA1103591999999REMMET004NSG?EQDQ01+000000PRSWM2
0073601010999991986011110304+35733-005900FM-15+0021GMTT V0209991C00001220001CN0112001N1+01101+00901999999ADDAG12999GA1011+004809059MA1103591999999REMMET004NSG?EQDQ01+000000PRSWM2
0063601010999991986011111004+35733-005900FM-15+0021GMTT V0209991C00001999991CY0099001N1+01501+00901999999ADDAG12999MA1103591999999REMMET010CAVOK NSG?EQDQ01+000000PRSWM2
0169601010999991986011112004+35733-005900SY-MT+0021GMTT V0202401N00211220001CN0200001N1+01561+01091999999ADDAA106000091AG14000GA1011+069009009GF101991001001999999001021MA1103491999999MD1010011+9999MW1001REMSYN011333   81073MET010CAVOK NSG?EQDQ01+102593APOSLPQ02+000000PRSWM2
0063601010999991986011112304+35733-005900FM-15+0021GMTT V0202401N00261999991CY0099001N1+01601+01101999999ADDAG12999MA1103491999999REMMET010CAVOK NSG?EQDQ01+000000PRSWM2
0063601010999991986011113004+35733-005900FM-15+0021GMTT V0202201N00151999991CY0099001N1+01501+01101999999ADDAG12999MA1103491999999REMMET010CAVOK NSG?EQDQ01+000000PRSWM2
0063601010999991986011113304+35733-005900FM-15+0021GMTT V0202401N00151999991CY0099001N1+01501+01101999999ADDAG12999MA1103491999999REMMET010CAVOK NSG?EQDQ01+000000PRSWM2
0063601010999991986011114004+35733-005900FM-15+0021GMTT V0202201N00151999991CY0099001N1+01501+01101999999ADDAG12999MA1103491999999REMMET010CAVOK NSG?EQDQ01+000000PRSWM2
0063601010999991986011114304+35733-005900FM-15+0021GMTT V0209991C00001999991CY0099001N1+01501+01101999999ADDAG12000MA1103491999999REMMET010CAVOK NSG?EQDQ01+000000PRSWM2
0120601010999991986011115004+35733-005900SY-MT+0021GMTT V0209991C00001220001CN0200001N1+01621+01141103481ADDAA106000091AG14000GF100991001001999999001001MA1103391999999MD1810111+9999MW1001REMMET010CAVOK NSG?EQDQ01+000000PRSWM2
0063601010999991986011115304+35733-005900FM-15+0021GMTT V0209991C00001999991CY0099001N1+01601+01101999999ADDAG12999MA1103391999999REMMET010CAVOK NSG?EQDQ01+000000PRSWM2
0150601010999991986011118004+35733-005900SY-MT+0021GMTT V0209991C00001220001CN0200001N1+01281+00991103511ADDAA106000091AG14000GF100991001001999999001001KA1120M+01631MA1103491999999MD1310031+9999MW1001REMSYN011333   10163MET010CAVOK NSG?EQDQ01+000000PRSWM2
0063601010999991986011118304+35733-005900FM-15+0021GMTT V0209991C00001999991CY0099001N1+01301+01001999999ADDAG12999MA1103491999999REMMET010CAVOK NSG?EQDQ01+000000PRSWM2
0063601010999991986011119004+35733-005900FM-15+0021GMTT V0209991C00001999991CY0099001N1+01101+00901999999ADDAG12999MA1103491999999REMMET010CAVOK NSG?EQDQ01+000000PRSWM2
0063601010999991986011119304+35733-005900FM-15+0021GMTT V0209991C00001999991CY0099001N1+01101+00901999999ADDAG12999MA1103491999999REMMET010CAVOK NSG?EQDQ01+000000PRSWM2
0063601010999991986011120004+35733-005900FM-15+0021GMTT V0209991C00001999991CY0099001N1+01101+00901999999ADDAG12999MA1103491999999REMMET010CAVOK NSG?EQDQ01+000000PRSWM2
0065601010999991986011120304+35733-005900FM-15+0021GMTT V0209991C00001999991CY0099001N1+01001+00801999999ADDAG12000MA1103491999999REMMET012CAVOK NOSIG?EQDQ01+000000PRSWM2
0081601010999991986011121004+35733-005900FM-15+0021GMTT V0209991C00001999991CY0099001N1+99999+00701999999ADDAG12000MA1103391999999REMMET012CAVOK NOSIG?EQDQ01+029123ATOT  Q02+000000PRSWM2
0065601010999991986011121304+35733-005900FM-15+0021GMTT V0209991C00001999991CY0099001N1+00801+00701999999ADDAG12999MA1103391999999REMMET012CAVOK NOSIG?EQDQ01+000000PRSWM2
0065601010999991986011123004+35733-005900FM-15+0021GMTT V0209991C00001999991CY0099001N1+01801+00701999999ADDAG12999MA1103391999999REMMET012CAVOK NOSIG?EQDQ01+000000PRSWM2
0065601010999991986011123304+35733-005900FM-15+0021GMTT V0209991C00001999991CY0099001N1+00801+00701999999ADDAG12000MA1103391999999REMMET012CAVOK NOSIG?EQDQ01+000000PRSWM2
0122601010999991986011200004+35733-005900SY-MT+0021GMTT V0209991C00001220001CN0150001N1+00771+00681103471ADDAA106000091AG14000GF100991001001999999001001MA1103391999999MD1810011+9999MW1001REMMET012CAVOK NOSIG?EQDQ01+000000PRSWM2
0065601010999991986011200304+35733-005900FM-15+0021GMTT V0209991C00001999991CY0099001N1+00801+00701999999ADDAG11999MA1103391999999REMMET012CAVOK NOSIG?EQDQ01+000000PRSWM2
0065601010999991986011201004+35733-005900FM-15+0021GMTT V0209991C00001999991CY0099001N1+00801+00701999999ADDAG11999MA1103391999999REMMET012CAVOK NOSIG?EQDQ01+000000PRSWM2
0065601010999991986011201304+35733-005900FM-15+0021GMTT V0209991C00001999991CY0099001N1+00801+00701999999ADDAG11999MA1103391999999REMMET012CAVOK NOSIG?EQDQ01+000000PRSWM2
0063601010999991986011202004+35733-005900FM-15+0021GMTT V0209991C00001999991CY0099001N1+00801+00701999999ADDAG11999MA1103391999999REMMET010CAVOK NSG?EQDQ01+000000PRSWM2
0063601010999991986011202304+35733-005900FM-15+0021GMTT V0209991C00001999991CY0099001N1+00801+00701999999ADDAG11000MA1103391999999REMMET010CAVOK NSG?EQDQ01+000000PRSWM2
0063601010999991986011203004+35733-005900FM-15+0021GMTT V0209991C00001999991CY0099001N1+00901+00801999999ADDAG11000MA1103291999999REMMET010CAVOK NSG?EQDQ01+000000PRSWM2
0063601010999991986011204004+35733-005900FM-15+0021GMTT V0209991C00001999991CY0099001N1+00801+00701999999ADDAG11999MA1103291999999REMMET010CAVOK NSG?EQDQ01+000000PRSWM2
0094601010999991986011206004+35733-005900FM-12+0021GMTT V0209991C00001220001CN0150001N9+00931+00891103291ADDAA106000091AG14000GF100991001001999999001001KA1120N+00721MD1710101+9999REMSYN011333   20072
0052601010999991986011207004+35733-005900FM-15+0021GMTT V0209991C00001999991CY0099001N1+00901+00801999999ADDAG12999REMMET014CAVOK 103 NSG?EQDQ01+000000PRSWM2
0091601010999991986011207304+35733-005900FM-15+0021GMTT V0209991C00001220001CN0112001N1+00901+00801999999ADDAG12999GA1011+004809059GA2031+069009009MA1103291999999REMMET006NOSIG?EQDQ01+000000PRSWM2
0075601010999991986011208004+35733-005900FM-15+0021GMTT V0209991C00001220001CN0080001N1+00901+00901999999ADDAG12999GA1011+069009009MA1103291999999REMMET006NOSIG?EQDQ01+000000PRSWM2
0065601010999991986011208304+35733-005900FM-15+0021GMTT V0209991C00001999991CY0099001N1+00901+00901999999ADDAG12000MA1103291999999REMMET012CAVOK NOSIG?EQDQ01+000000PRSWM2
0148601010999991986011209004+35733-005900SY-MT+0021GMTT V0209991C00001220001CN0100001N1+01011+00911103391ADDAA106000091AG14000GA1011+069009009GF101991001001999999001021MA1103291999999MD1110101+9999MW1001REMSYN011333   81073MET005CAVOKEQDQ01+000000PRSWM2
0058601010999991986011209304+35733-005900FM-15+0021GMTT V0209991C00001999991CY0099001N1+01001+00901999999ADDAG12999MA1103291999999REMMET005CAVOKEQDQ01+000000PRSWM2
0058601010999991986011210004+35733-005900FM-15+0021GMTT V0209991C00001999991CY0099001N1+01201+01001999999ADDAG12999MA1103391999999REMMET005CAVOKEQDQ01+000000PRSWM2
0058601010999991986011210304+35733-005900FM-15+0021GMTT V0209991C00001999991CY0099001N1+01201+01001999999ADDAG12999MA1103391999999REMMET005CAVOKEQDQ01+000000PRSWM2
0073601010999991986011211004+35733-005900FM-15+0021GMTT V0203001N00411220001CN0112001N1+01501+01001999999ADDAG12999GA1011+004809059MA1103391999999REMMET004NSG?EQDQ01+000000PRSWM2
0147601010999991986011212004+35733-005900SY-MT+0021GMTT V0203001N00511220001CN0150001N1+01551+01081103391ADDAA106000091AG14000GA1011+004809059GF102991021051004501001021MA1103291999999MD1010011+9999MW1001REMSYN011333   81616MET004NSG?EQDQ01+000000PRSWM2
0073601010999991986011212304+35733-005900FM-15+0021GMTT V0203001N00511220001CN0112001N1+01601+01101999999ADDAG12999GA1011+004809059MA1103291999999REMMET004NSG?EQDQ01+000000PRSWM2
0073601010999991986011213004+35733-005900FM-15+0021GMTT V0203001N00511220001CN0112001N1+01601+01001999999ADDAG12999GA1011+004809059MA1103291999999REMMET004NSG?EQDQ01+000000PRSWM2
0073601010999991986011213304+35733-005900FM-15+0021GMTT V0203001N00621220001CN0112001N1+01601+01001999999ADDAG12999GA1011+004809059MA1103291999999REMMET004NSG?EQDQ01+000000PRSWM2
0073601010999991986011214004+35733-005900FM-15+0021GMTT V0203001N00771220001CN0112001N1+01501+01001999999ADDAG12999GA1021+006009059MA1103181999999REMMET004NSG?EQDQ01+000000PRSWM2
0147601010999991986011215004+35733-005900SY-MT+0021GMTT V0203001N00721220001CN0200001N1+01501+00861103181ADDAA106000091AG14000GA1031+006909059GF104991031051008001001021MA1103121999999MD1710211+9999MW1001REMSYN011333   83623MET004NSG?EQDQ01+000000PRSWM2
0073601010999991986011215304+35733-005900FM-15+0021GMTT V0203001N00511220001CN0112001N1+01501+00901999999ADDAG12999GA1031+006909059MA1103121999999REMMET004NSG?EQDQ01+000000PRSWM2
0076601010999991986011216004+35733-005900FM-15+0021GMTT V0201001N00511069001CN0112001N1+01501+01101999999ADDAG12999GA1041+006009059GA2031+069009009MA1103121999999EQDQ01+000000PRSWM2
0138601010999991986011218004+35733-005900FM-12+0021GMTT V0203001N00411220001CN0150001N9+01301+01061103241ADDAA106000091AG14000GA1021+004809059GA2031+069009009GF104991021061004501001021KA1120M+01651MD1310061+9999REMSYN023333   10165 82616 83073
0074601010999991986011218304+35733-005900FM-15+0021GMTT V0203001N00311220001CN0112001N1+99999+99999999999ADDAG12999REMMET020:016 63/16 6032 NSG?EQDQ01+027523ATOT  Q02+000000PRSWM2
0087601010999991986011219004+35733-005900FM-15+0021GMTT V0203001N00361220001CN0112001N1+01201+01001999999ADDAG12999GA1021+004809059GA2031+069009009MA1103181999999REMMET002R?EQDQ01+000000PRSWM2
0076601010999991986011220004+35733-005900FM-15+0021GMTT V0209991C00001220001CN0112001N1+01001+00901999999ADDAG12999GA1021+004809059GA2031+069009009MA1103181999999EQDQ01+000000PRSWM2
0076601010999991986011220304+35733-005900FM-15+0021GMTT V0209991C00001220001CN0112001N1+01001+00901999999ADDAG12000GA1021+004809059GA2031+069009009MA1103181999999EQDQ01+000000PRSWM2
0089601010999991986011221004+35733-005900FM-15+0021GMTT V0209991C00001220001CN0112001N1+00901+00801999999ADDAG12000GA1021+004809059GA2031+069009009MA1103291999999REMMET004NSG?EQDQ01+000000PRSWM2
0063601010999991986011223004+35733-005900FM-15+0021GMTT V0201001N00411999991CY0099001N1+00901+00701999999ADDAG12999MA1103291999999REMMET010CAVOK NSG?EQDQ01+000000PRSWM2
0063601010999991986011223304+35733-005900FM-15+0021GMTT V0201001N00411999991CY0099001N1+00901+00701999999ADDAG12000MA1103291999999REMMET010CAVOK NSG?EQDQ01+000000PRSWM2
0063601010999991986011300004+35733-005900FM-15+0021GMTT V0209991C00001999991CY0099001N1+00901+00801999999ADDAG12000MA1103291999999REMMET010CAVOK NSG?EQDQ01+000000PRSWM2
0063601010999991986011300304+35733-005900FM-15+0021GMTT V0209991C00001999991CY0099001N1+00901+00801999999ADDAG11999MA1103291999999REMMET010CAVOK NSG?EQDQ01+000000PRSWM2
0063601010999991986011302304+35733-005900FM-15+0021GMTT V0209991C00001999991CY0099001N1+00801+00601999999ADDAG12000MA1103291999999REMMET010CAVOK NSG?EQDQ01+000000PRSWM2
0047601010999991986011303004+35733-005900FM-12+0021GMTT V0201001N00411220001CN0100001N9+00751+00641103331ADDAA106000091AG14000GF100991001001999999001001
0063601010999991986011304004+35733-005900FM-15+0021GMTT V0209991C00001999991CY0099001N1+00701+00601999999ADDAG12999MA1103291999999REMMET010CAVOK NSG?EQDQ01+000000PRSWM2
0065601010999991986011305004+35733-005900FM-15+0021GMTT V0209991C00001999991CY0099001N1+00701+00501999999ADDAG12999MA1103291999999REMMET012CAVOK NOSIG?EQDQ01+000000PRSWM2
0065601010999991986011305304+35733-005900FM-15+0021GMTT V0209991C00001999991CY0099001N1+00701+00501999999ADDAG12000MA1103291999999REMMET012CAVOK NOSIG?EQDQ01+000000PRSWM2
0094601010999991986011306004+35733-005900FM-12+0021GMTT V0209991C00001220001CN0060001N9+00601+00511103291ADDAA106000091AG14000GF100991001001999999001001KA1120N+00571MD1810041+9999REMSYN011333   20057
0065601010999991986011306304+35733-005900FM-15+0021GMTT V0209991C00001999991CY0099001N1+00601+00501999999ADDAG12999MA1103181999999REMMET012CAVOK NOSIG?EQDQ01+000000PRSWM2
0159601010999991986011309004+35733-005900SY-MT+0021GMTT V0209991C00001220001CN0100001N1+00721+00631103371ADDAA106000091AG14000GA1011+004809089GA2031+069009009GF103991011021004501001021MA1103291999999MD1110081+9999MW1001REMSYN017333   81816 83073EQDQ01+000000PRSWM2
0089601010999991986011310004+35733-005900FM-15+0021GMTT V0209991C00001220001CN0112001N1+01401+01201999999ADDAG12999GA1011+004809089GA2031+069009009MA1103291999999REMMET004NSG?EQDQ01+000000PRSWM2
0089601010999991986011311004+35733-005900FM-15+0021GMTT V0201201N00671220001CN0112001N1+01601+01201999999ADDAG12999GA1011+004809089GA2031+069009009MA1103391999999REMMET004NSG?EQDQ01+000000PRSWM2
0171601010999991986011312004+35733-005900SY-MT+0021GMTT V0201001N00771220001CN0100001N1+01671+01151103311ADDAA106000091AG14000GA1031+069009009GF103991001001999999001021MA1103291999999MD1810051+9999MW1001REMSYN011333   83073MET012CAVOK NOSIG?EQDQ01+000942SCOLCBQ02+000000PRSWM2
0065601010999991986011313004+35733-005900FM-15+0021GMTT V0201001N00671999991CY0099001N1+01701+01201999999ADDAG12999MA1103291999999REMMET012CAVOK NOSIG?EQDQ01+000000PRSWM2
0063601010999991986011314004+35733-005900FM-15+0021GMTT V0201001N00931999991CY0099001N1+01901+00901999999ADDAG12999MA1103121999999REMMET010CAVOK NSG?EQDQ01+000000PRSWM2
0063601010999991986011314304+35733-005900FM-15+0021GMTT V0201001N00821999991CY0099001N1+01901+00901999999ADDAG12000MA1103121999999REMMET010CAVOK NSG?EQDQ01+000000PRSWM2
0153601010999991986011315004+35733-005900SY-MT+0021GMTT V0200801N00821220001CN0200001N1+01851+00791103181ADDAA106000091AG14000GA1021+069009009GF102991001001999999001021MA1103121999999MD1610131+9999MW1001REMSYN011333   82073MET010CAVOK NSG?EQDQ01+000000PRSWM2
0063601010999991986011315304+35733-005900FM-15+0021GMTT V0200801N00821999991CY0099001N1+01901+00801999999ADDAG12999MA1103121999999REMMET010CAVOK NSG?EQDQ01+000000PRSWM2
0116601010999991986011318004+35733-005900FM-12+0021GMTT V0200601N01031220001CN0100001N9+01391+00811103241ADDAA106000091AG14000GA1021+069009009GF102991001001999999001021KA1120M+01881MD1310061+9999REMSYN017333   10188 82073
0076601010999991986011319004+35733-005900FM-15+0021GMTT V0200201N00411060001CN0060001N1+01301+01101999999ADDAG12999GA1021+004809059GA2051+060009009MA1103011999999EQDQ01+000000PRSWM2
0065601010999991986011319304+35733-005900FM-15+0021GMTT V0201001N00821999991CY0099001N1+01201+00801999999ADDAG12999MA1103181999999REMMET012CAVOK NOSIG?EQDQ01+000000PRSWM2
0065601010999991986011320004+35733-005900FM-15+0021GMTT V0201001N00931999991CY0099001N1+01101+00701999999ADDAG12999MA1103181999999REMMET012CAVOK NOSIG?EQDQ01+000000PRSWM2
0061601010999991986011321004+35733-005900FM-12+0021GMTT V0200601N01031220001CN0100001N9+01291+00951103281ADDAA106000091AG14000GF100991001001999999001001MD1110041+9999
0071601010999991986011321304+35733-005900FM-15+0021GMTT V0200601N01031999991CY0099001N1+01301+01001999999ADDAG12999MA1103181999999OC101651REMMET010CAVOK NSG?EQDQ01+000000PRSWM2
0071601010999991986011322004+35733-005900FM-15+0021GMTT V0200601N01131999991CY0099001N1+01301+01001999999ADDAG12999MA1103181999999OC101651REMMET010CAVOK NSG?EQDQ01+000000PRSWM2
0063601010999991986011323304+35733-005900FM-15+0021GMTT V0200601N00411999991CY0099001N1+01301+01001999999ADDAG12000MA1103181999999REMMET010CAVOK ,  ?EQDQ01+000000PRSWM2
0061601010999991986011400004+35733-005900FM-12+0021GMTT V0209991C00001220001CN0100001N9+01261+00671103241ADDAA106000091AG14000GF100991001001999999001001MD1810041+9999
0063601010999991986011402004+35733-005900FM-15+0021GMTT V0201201N00511999991CY0099001N1+01001+00601999999ADDAG11999MA1103181999999REMMET010CAVOK NSG?EQDQ01+000000PRSWM2
0063601010999991986011402304+35733-005900FM-15+0021GMTT V0201201N00511999991CY0099001N1+01001+99999999999ADDAG11000MA1103181999999REMMET010CAVOK NSG?EQDQ01+000000PRSWM2
0120601010999991986011403004+35733-005900SY-MT+0021GMTT V0201001N00511220001CN0100001N1+00881+00601103221ADDAA106000091AG10000GF100991001001999999001001MA1103181999999MD1810021+9999MW1001REMMET010CAVOK NSG?EQDQ01+000000PRSWM2
0063601010999991986011403304+35733-005900FM-15+0021GMTT V0201001N00511999991CY0099001N1+00901+00601999999ADDAG11999MA1103181999999REMMET010CAVOK NSG?EQDQ01+000000PRSWM2
0063601010999991986011404004+35733-005900FM-15+0021GMTT V0201001N00511999991CY0099001N1+00901+00601999999ADDAG11999MA1103181999999REMMET010CAVOK NSG?EQDQ01+000000PRSWM2
0063601010999991986011404304+35733-005900FM-15+0021GMTT V0201001N00361999991CY0099001N1+00901+00601999999ADDAG11999MA1103181999999REMMET010CAVOK NSG?EQDQ01+000000PRSWM2
0063601010999991986011405004+35733-005900FM-15+0021GMTT V0201001N00311999991CY0099001N1+00801+00501999999ADDAG11999MA1103181999999REMMET010CAVOK NSG?EQDQ01+000000PRSWM2
0063601010999991986011405304+35733-005900FM-15+0021GMTT V0200801N00621999991CY0099001N1+00801+00501999999ADDAG11000MA1103181999999REMMET010CAVOK NSG?EQDQ01+000000PRSWM2
0150601010999991986011406004+35733-005900SY-MT+0021GMTT V0200801N00621220001CN0100001N1+00881+00501103161ADDAA106000091AG10000GF100991001001999999001001KA1120N+00731MA1103121999999MD1810061+9999MW1001REMSYN011333   20073MET010CAVOK NSG?EQDQ01+000000PRSWM2
0063601010999991986011407004+35733-005900FM-15+0021GMTT V0200801N00261999991CY0099001N1+01001+00601999999ADDAG11001MA1103121999999REMMET010CAVOK NSG?EQDQ01+000000PRSWM2
0065601010999991986011407304+35733-005900FM-15+0021GMTT V0200801N00211999991CY0099001N1+01001+00601999999ADDAG11999MA1103121999999REMMET012CAVOK NOSIG?EQDQ01+000000PRSWM2
0065601010999991986011408004+35733-005900FM-15+0021GMTT V0200801N00151999991CY0099001N1+00601+00401999999ADDAG11999MA1103181999999REMMET012CAVOK NOSIG?EQDQ01+000000PRSWM2
0065601010999991986011409004+35733-005900FM-15+0021GMTT V0209991C00001999991CY0099001N1+00701+00501999999ADDAG11000MA1103291999999REMMET012CAVOK NOSIG?EQDQ01+000000PRSWM2
0063601010999991986011411004+35733-005900FM-15+0021GMTT V0209991C00001999991CY0099001N1+01601+00801999999ADDAG11999MA1103391999999REMMET010CAVOK NSG?EQDQ01+000000PRSWM2
0065601010999991986011412004+35733-005900FM-15+0021GMTT V0209991C00001999991CY0099001N1+01801+00801999999ADDAG12000MA1103291999999REMMET012CAVOK NOSIG?EQDQ01+000000PRSWM2
0075601010999991986011413004+35733-005900FM-15+0021GMTT V0202401N00411220001CN0112001N1+01801+00801999999ADDAG12999GA1011+004809059MA1103291999999REMMET006NOSIG?EQDQ01+000000PRSWM2
0153601010999991986011415004+35733-005900SY-MT+0021GMTT V0202401N00311220001CN0150001N1+01651+01211103221ADDAA106000091AG14000GA1011+030009039GF101991011001999999031001MA1103181999999MD1610171+9999MW1001REMSYN011333   81360MET010CAVOK NSG?EQDQ01+000000PRSWM2
0063601010999991986011416004+35733-005900FM-15+0021GMTT V0202201N00311999991CY0099001N1+01601+01201999999ADDAG12999MA1103181999999REMMET010CAVOK NSG?EQDQ01+000000PRSWM2
0063601010999991986011417004+35733-005900FM-15+0021GMTT V0202401N00311999991CY0099001N1+01601+01201999999ADDAG12999MA1103181999999REMMET010CAVOK NSG?EQDQ01+000000PRSWM2
0103601010999991986011418004+35733-005900FM-12+0021GMTT V0202401N00311220001CN0150001N9+01421+01181103231ADDAA106000091AG14000GA1021+030009039GF102991021001999999031001MD1410001+9999REMSYN017333   1083/ 82360
0063601010999991986011421004+35733-005900FM-15+0021GMTT V0209991C00001999991CY0099001N1+00801+00801999999ADDAG12000MA1103181999999REMMET010CAVOK NSG?EQDQ01+000000PRSWM2
0063601010999991986011422004+35733-005900FM-15+0021GMTT V0200801N00261999991CY0099001N1+00901+00801999999ADDAG12999MA1103291999999REMMET010CAVOK NSG?EQDQ01+000000PRSWM2
0125601010999991986011500004+35733-005900SY-MT+0021GMTT V0209991C00001220001CN0100001N1+00841+00801103231ADDAA106000091AG10000GF100991001001999999001001MA1103181999999MD1810061+9999MW1001REMSYN015  = 40  2872  =EQDQ01+000000PRSWM2
0063601010999991986011500304+35733-005900FM-15+0021GMTT V0209991C00001999991CY0099001N1+00801+00801999999ADDAG11999MA1103181999999REMMET010CAVOK NSG?EQDQ01+000000PRSWM2
0055601010999991986011501004+35733-005900FM-15+0021GMTT V0209991C00001999991CY0099001N1+00701+99999999999ADDAG11999REMMET017CAVOK 071032 NSG?EQDQ01+000000PRSWM2
0063601010999991986011501304+35733-005900FM-15+0021GMTT V0209991C00001999991CY0099001N1+00701+00701999999ADDAG11999MA1103181999999REMMET010CAVOK NSG?EQDQ01+000000PRSWM2
0098601010999991986011503004+35733-005900SY-MT+0021GMTT V0209991C00001220001CN0020001N1+00711+00691103141ADDAA106000091AG10000AY101031AY201031GF100991001001999999001001MA1103121999999MD1710091+9999MW1101
0044601010999991986011504004+35733-005900FM-15+0021GMTT V0209991C00001220001CN0060001N1+00701+00601999999ADDAG11999MA1103121999999EQDQ01+000000PRSWM2
0131601010999991986011506004+35733-005900SY-MT+0021GMTT V0209991C00001220001CN0015001N1+00621+00601103121ADDAA106000091AG14000AY101061AY201061GF100991001001999999001001KA1120N+00561MA1103121999999MD1610021+9999MW1101REMSYN011333   20056
0045601010999991986011508254+35733-005900FM-15+0021GMTT V0209991C00001220001CN0060001N1+99999+99999999999ADDAG12999GA1031+004509059EQDQ01+000000PRSWM2
0149601010999991986011509004+35733-005900SY-MT+0021GMTT V0209991C00001004201CN0080001N1+00791+00711103161ADDAA106000091AG14000GA1031+004509059GF105991051051004501031021MA1103121999999MD1310041+9999MW1001REMSYN011333   83615MET006NOSIG?EQDQ01+000000PRSWM2
0075601010999991986011509304+35733-005900FM-15+0021GMTT V0209991C00001220001CN0080001N1+00801+00701999999ADDAG12999GA1031+004509059MA1103121999999REMMET006NOSIG?EQDQ01+000000PRSWM2
0089601010999991986011513004+35733-005900FM-15+0021GMTT V0202401N00721069001CN0112001N1+01601+01301999999ADDAG12999GA1041+004809059GA2041+069009009MA1103011999999REMMET004NSG?EQDQ01+000000PRSWM2
0073601010999991986011514004+35733-005900FM-15+0021GMTT V0202401N00721007501CN0112001N1+01601+01201999999ADDAG12999GA1051+007509089MA1102911999999REMMET004NSG?EQDQ01+000000PRSWM2
0169601010999991986011515004+35733-005900SY-MT+0021GMTT V0202601N00511069001CN0150001N1+01601+01071102941ADDAA106000091AG14000GA1041+004509089GA2031+069009009GF106991041021004501001021MA1102911999999MD1610181+9999MW1001REMSYN017333   84815 83073MET004NSG?EQDQ01+000000PRSWM2
0089601010999991986011516004+35733-005900FM-15+0021GMTT V0202601N00511069001CN0112001N1+01601+01101999999ADDAG12999GA1031+004509089GA2031+069009009MA1102911999999REMMET004NSG?EQDQ01+000000PRSWM2
0076601010999991986011516304+35733-005900FM-15+0021GMTT V0202601N00511069001CN0112001N1+01601+00102999999ADDAG12999GA1031+004509089GA2031+069009009MA1102911999999EQDQ01+000000PRSWM2
0068601010999991986011517004+35733-005900FM-15+0021GMTT V0202401N00511220001CN0112001N1+99999+99999999999ADDAG12999GA1041+004509089REMMET01415QP QPWO NSG?EQDQ01+000000PRSWM2
0116601010999991986011518004+35733-005900FM-12+0021GMTT V0202401N00411220001CN0100001N9+01311+01051102881ADDAA106000091AG14000GA1031+004509089GF104991031021004501001021KA1120M+01641MD1710061+9999REMSYN017333   10164 83815
0075601010999991986011519004+35733-005900FM-15+0021GMTT V0202401N00511220001CN0112001N1+01101+00901999999ADDAG12999GA1021+004509089MA1102811999999REMMET006NOSIG?EQDQ01+000000PRSWM2
0060601010999991986011520004+35733-005900FM-15+0021GMTT V0202401N00511220001CN0112001N1+01001+00901999999ADDAG12999GA1031+004509089MA1102811999999EQDQ01+000000PRSWM2
0060601010999991986011520304+35733-005900FM-15+0021GMTT V0202401N00511220001CN0112001N1+01001+00901999999ADDAG12000GA1031+004509089MA1102811999999EQDQ01+000000PRSWM2
0097601010999991986011521004+35733-005900FM-12+0021GMTT V0202401N00621220001CN0100001N9+01181+00991102901ADDAA106000091AG14000GA1031+004509089GF104991031021004501001021MD1110021+9999REMSYN011333   83815
0073601010999991986011522004+35733-005900FM-15+0021GMTT V0202401N00621220001CN0112001N1+01101+01001999999ADDAG12999GA1031+004509089MA1102911999999REMMET004NSG?EQDQ01+000000PRSWM2
0073601010999991986011523304+35733-005900FM-15+0021GMTT V0202001N00511220001CN0112001N1+01101+01001999999ADDAG12000GA1021+004509089MA1102811999999REMMET004NSG?EQDQ01+000000PRSWM2
0097601010999991986011600004+35733-005900FM-12+0021GMTT V0201801N00311220001CN0100001N9+01131+01071102881ADDAA106000091AG14000GA1021+004509089GF102991021021004501001001MD1810021+9999REMSYN011333   82815
0075601010999991986011602004+35733-005900FM-15+0021GMTT V0201801N00511220001CN0112001N1+01101+01001999999ADDAG11999GA1021+004509089MA1102811999999REMMET006NOSIG?EQDQ01+000000PRSWM2
0075601010999991986011602304+35733-005900FM-15+0021GMTT V0201801N00511220001CN0112001N1+01101+01001999999ADDAG11000GA1021+004509089MA1102811999999REMMET006NOSIG?EQDQ01+000000PRSWM2
0097601010999991986011603004+35733-005900FM-12+0021GMTT V0201801N00621220001CN0100001N9+01071+01001102841ADDAA106000091AG14000GA1041+004509089GF104991041021004501001001MD1510041+9999REMSYN011333   84815
0075601010999991986011604004+35733-005900FM-15+0021GMTT V0201801N00771220001CN0112001N1+01101+01001999999ADDAG11999GA1041+004509059MA1102811999999REMMET006NOSIG?EQDQ01+000000PRSWM2
0075601010999991986011605304+35733-005900FM-15+0021GMTT V0201801N00511220001CN0112001N1+01101+01001999999ADDAG11000GA1041+004509059MA1102811999999REMMET006NOSIG?EQDQ01+000000PRSWM2
0166601010999991986011606004+35733-005900SY-MT+0021GMTT V0201801N00621036001CN0100001N1+01131+00931102731ADDAA106000091AG10000GA1041+004509059GF105991041051004501031001KA1120N+01061MA1102711999999MD1810061+9999MW1001REMSYN017333   20106 84615MET004NSG?EQDQ01+000000PRSWM2
0073601010999991986011607304+35733-005900FM-15+0021GMTT V0201801N00621004501CN0112001N1+01101+00901999999ADDAG11999GA1061+004509089MA1102711999999REMMET004NSG?EQDQ01+000000PRSWM2
0089601010999991986011608004+35733-005900FM-15+0021GMTT V0201801N00511004501CN9999999N9+01201+00901999999ADDAG11999GA1071+004509089MA1102811999999REMMET004NSG?EQDQ01+000002VOVAR Q02+000000PRSWM2
0139601010999991986011609004+35733-005900SY-MT+0021GMTT V0201801N00511004501CN0080001N1+01211+00921102871ADDAA106000091AG10000GA1071+004509089GF107991071021004501999999MD1310091+9999MW1001REMSYN011333   87815MET0111828 (,   ?EQDQ01+000000PRSWM2
0097601010999991986011612004+35733-005900FM-12+0021GMTT V0202001N00621004501CN0100001N9+01521+00981102881ADDAA106000091AG14000GA1071+004509089GF107991071021004501999999MD1010011+9999REMSYN011333   87815
0147601010999991986011615004+35733-005900SY-MT+0021GMTT V0202201N00721004501CN0100001N1+01521+01021102661ADDAA106000091AG14000GA1061+004509089GF106991061021004501001001MA1102611999999MD1610171+9999MW1001REMSYN011333   86815MET004NSG?EQDQ01+000000PRSWM2
0073601010999991986011616004+35733-005900FM-15+0021GMTT V0203001N00411004501CN0112001N1+01401+01101999999ADDAG12999GA1061+004509089MA1102611999999REMMET004NSG?EQDQ01+000000PRSWM2
0089601010999991986011617004+35733-005900FM-15+0021GMTT V0203001N00411004501CN9999999N9+01401+01101999999ADDAG12999GA1061+004509089MA1102611999999REMMET004NSG?EQDQ01+000002VOVAR Q02+000000PRSWM2
0060601010999991986011617304+35733-005900FM-15+0021GMTT V0203001N00411004501CN0112001N1+01401+01101999999ADDAG12000GA1061+004509089MA1102611999999EQDQ01+000000PRSWM2
0060601010999991986011618304+35733-005900FM-15+0021GMTT V0203001N00151004501CN0112001N1+01301+01101999999ADDAG12999GA1061+004509089MA1102611999999EQDQ01+000000PRSWM2
0060601010999991986011619004+35733-005900FM-15+0021GMTT V0209991C00001004501CN0112001N1+01301+01001999999ADDAG12999GA1061+004509089MA1102611999999EQDQ01+000000PRSWM2
0060601010999991986011619304+35733-005900FM-15+0021GMTT V0209991C00001004501CN0112001N1+01301+01001999999ADDAG12999GA1061+004509089MA1102611999999EQDQ01+000000PRSWM2
0060601010999991986011620004+35733-005900FM-15+0021GMTT V0203001N00101004501CN0112001N1+01301+01001999999ADDAG12999GA1061+004509089MA1102611999999EQDQ01+000000PRSWM2
0147601010999991986011621004+35733-005900SY-MT+0021GMTT V0209991C00001036001CN0100001N1+00841+00801102691ADDAA106000091AG10000GA1031+004509089GF105991031021004501081001MA1102611999999MD1310011+9999MW1001REMSYN011333   83815MET004NSG?EQDQ01+000000PRSWM2
0073601010999991986011622304+35733-005900FM-15+0021GMTT V0209991C00001220001CN0112001N1+00901+00801999999ADDAG11999GA1041+000309089MA1102711999999REMMET004NSG?EQDQ01+000000PRSWM2
0073601010999991986011623004+35733-005900FM-15+0021GMTT V0209991C00001220001CN0112001N1+00901+00801999999ADDAG11999GA1021+004509089MA1102711999999REMMET004NSG?EQDQ01+000000PRSWM2
0147601010999991986011700004+35733-005900SY-MT+0021GMTT V0209991C00001220001CN0100001N1+00951+00891102721ADDAA106000091AG14000GA1021+004809089GF102991021021004501001001MA1102711999999MD1110031+9999MW1001REMSYN011333   82816MET004NSG?EQDQ01+000000PRSWM2
0073601010999991986011701004+35733-005900FM-15+0021GMTT V0209991C00001220001CN0112001N1+00801+00801999999ADDAG11999GA1021+004509089MA1102711999999REMMET004NSG?EQDQ01+000000PRSWM2
0097601010999991986011703004+35733-005900FM-12+0021GMTT V0209991C00001220001CN0060001N9+00901+00801102711ADDAA106000091AG14000GA1021+004509089GF102991021021004501001001MD1610011+9999REMSYN011333   82815
0073601010999991986011704004+35733-005900FM-15+0021GMTT V0201201N00101220001CN0050001N1+00901+00901999999ADDAG11999GA1041+004509059MA1102611999999REMMET004NSG?EQDQ01+000000PRSWM2
0091601010999991986011705304+35733-005900FM-15+0021GMTT V0209991C00001003901CN0050001N1+01001+00901999999ADDAG12000GA1021+001809079GA2071+003909059MA1102611999999REMMET006NOSIG?EQDQ01+000000PRSWM2
0091601010999991986011707004+35733-005900FM-15+0021GMTT V0209991C00001004501CN0050001N1+01001+01001999999ADDAG12999GA1021+001809079GA2061+004509059MA1102611999999REMMET006NOSIG?EQDQ01+000000PRSWM2
0169601010999991986011709004+35733-005900SY-MT+0021GMTT V0203001N00211004501CN0080001N1+01001+00961102871ADDAA106000091AG14000GA1021+001809079GA2061+004509059GF107991071051001501999999MA1102811999999MD1210231+9999MW1001REMSYN017333   82706 86615MET004NSG?EQDQ01+000000PRSWM2
0076601010999991986011709304+35733-005900FM-15+0021GMTT V0203001N00311004501CN0080001N1+01001+01001999999ADDAG12999GA1021+001809079GA2061+004509059MA1102811999999EQDQ01+000000PRSWM2
0076601010999991986011710004+35733-005900FM-15+0021GMTT V0203001N00311004501CN0080001N1+01101+01001999999ADDAG12999GA1021+001809079GA2061+004509059MA1102911999999EQDQ01+000000PRSWM2
0076601010999991986011710304+35733-005900FM-15+0021GMTT V0203001N00311004501CN0080001N1+01101+01001999999ADDAG12999GA1021+001809079GA2061+004509059MA1102911999999EQDQ01+000000PRSWM2
0076601010999991986011711004+35733-005900FM-15+0021GMTT V0202601N00211004501CN0080001N1+01301+01101999999ADDAG12999GA1021+001809079GA2051+004509059MA1102911999999EQDQ01+000000PRSWM2
0089601010999991986011711304+35733-005900FM-15+0021GMTT V0202601N00151004501CN0080001N1+01301+01101999999ADDAG12000GA1021+001809079GA2051+004509059MA1102911999999REMMET004NSG?EQDQ01+000000PRSWM2
0097601010999991986011712004+35733-005900FM-12+0021GMTT V0202401N00211004501CN0080001N9+01381+01081102981ADDAA106000091AG14000GA1061+004509059GF106991061051004501001001MD1010111+9999REMSYN011333   86615
0073601010999991986011712304+35733-005900FM-15+0021GMTT V0202401N00621004501CN0080001N1+01401+01101999999ADDAG12999GA1061+004509059MA1102911999999REMMET004NSG?EQDQ01+000000PRSWM2
0060601010999991986011713304+35733-005900FM-15+0021GMTT V0202401N00311004501CN0080001N1+01401+01101999999ADDAG12999GA1061+004509059MA1102911999999EQDQ01+000000PRSWM2
0073601010999991986011714004+35733-005900FM-15+0021GMTT V0202401N00511004501CN0080001N1+01501+01101999999ADDAG12999GA1061+004509089MA1102911999999REMMET004NSG?EQDQ01+000000PRSWM2
0060601010999991986011714304+35733-005900FM-15+0021GMTT V0202401N00511004501CN0080001N1+01501+01101999999ADDAG12000GA1061+004509089MA1102911999999EQDQ01+000000PRSWM2
0159601010999991986011715004+35733-005900SY-MT+0021GMTT V0202401N00411004801CN0080001N1+01551+01121102801ADDAA106000091AG14000GA1041+003909089GA2031+004809059GF106991061081004501001001MA1102811999999MD1810181+9999MW1001REMSYN017333   84813 83616EQDQ01+000000PRSWM2
0115601010999991986011718004+35733-005900FM-12+0021GMTT V0202601N00311220001CN0080001N9+01211+01001102821ADDAA106000091AG14000GA1011+004809059GF101991011051004501001001IA2240+01609MD1010021+9999REMSYN017333   0165/ 81616
0044601010999991986011719304+35733-005900FM-15+0021GMTT V0202601N00211220001CN0080001N1+01201+01001999999ADDAG12999MA1102811999999EQDQ01+000000PRSWM2
0060601010999991986011720004+35733-005900FM-15+0021GMTT V0209991C00001220001CN0080001N1+01101+01001999999ADDAG12999GA1011+004809059MA1102811999999EQDQ01+000000PRSWM2
0060601010999991986011720304+35733-005900FM-15+0021GMTT V0209991C00001220001CN0080001N1+01101+01001999999ADDAG11000GA1011+004809059MA1102811999999EQDQ01+000000PRSWM2
0063601010999991986011721004+35733-005900FM-15+0021GMTT V0203001N00211999991CY0099001N1+00901+00801999999ADDAG11000MA1102911999999REMMET010CAVOK NSG?EQDQ01+000000PRSWM2
0063601010999991986011722304+35733-005900FM-15+0021GMTT V0202801N00101999991CY0099001N1+00901+00801999999ADDAG11999MA1102911999999REMMET010CAVOK NSG?EQDQ01+000000PRSWM2
0073601010999991986011800004+35733-005900FM-15+0021GMTT V0209991C00001220001CN0112001N1+00801+00701999999ADDAG12000GA1041+004809059MA1103011999999REMMET004NSG?EQDQ01+000000PRSWM2
0073601010999991986011801004+35733-005900FM-15+0021GMTT V0209991C00001220001CN0112001N1+00701+00601999999ADDAG11999GA1041+004809059MA1103011999999REMMET004NSG?EQDQ01+000000PRSWM2
0073601010999991986011802304+35733-005900FM-15+0021GMTT V0201001N00211220001CN0112001N1+00701+00601999999ADDAG11000GA1031+004809059MA1103011999999REMMET004NSG?EQDQ01+000000PRSWM2
0147601010999991986011803004+35733-005900SY-MT+0021GMTT V0201001N00411220001CN0100001N1+00691+00541103001ADDAA106000091AG10000GA1031+004809059GF103991031051004501001001MA1103011999999MD1710011+9999MW1001REMSYN011333   83616MET004NSG?EQDQ01+000000PRSWM2
0073601010999991986011803304+35733-005900FM-15+0021GMTT V0201001N00211220001CN0112001N1+00701+00501999999ADDAG11999GA1031+004809059MA1103011999999REMMET004NSG?EQDQ01+000000PRSWM2
0073601010999991986011804004+35733-005900FM-15+0021GMTT V0201201N00411220001CN0112001N1+00701+00601999999ADDAG11999GA1031+004809059MA1102911999999REMMET004NSG?EQDQ01+000000PRSWM2
0065601010999991986011805004+35733-005900FM-15+0021GMTT V0201001N00411220001CN0112001N1+00701+99999999999ADDAG11999GA1031+004809059REMMET011061029 NSG?EQDQ01+000000PRSWM2
0101601010999991986011807004+35733-005900FM-15+0021GMTT V0209999999999999991CY0099001N1+99999+99999999999ADDAG12999MA1103011999999REMMET048CAVOK ,  ?        7@@@@@*@@@@@@@@@%?%@@@@@@@@@@AEQDQ01+000000PRSWM2
0115601010999991986011809004+35733-005900SY-MT+0021GMTT V0201001N00411220001CN0100001N1+00861+00731103191ADDAA106000091AG14000GF100991001001999999001001MA1103121999999MD1310181+9999MW1001REMMET005CAVOKEQDQ01+000000PRSWM2
0058601010999991986011810004+35733-005900FM-15+0021GMTT V0201001N00511999991CY0099001N1+01101+00701999999ADDAG12999MA1103121999999REMMET005CAVOKEQDQ01+000000PRSWM2
0055601010999991986011811304+35733-005900FM-15+0021GMTT V0209991C00001999991CY0099001N1+99999+99999999999ADDAG12000REMMET017CAVOK 14 10 1033?EQDQ01+000000PRSWM2
0061601010999991986011812004+35733-005900FM-12+0021GMTT V0200801N00151220001CN0100001N9+01521+01041103381ADDAA106000091AG14000GF100991001001999999001001MD1110201+9999
0063601010999991986011813004+35733-005900FM-15+0021GMTT V0200801N00101999991CY0099001N1+01601+01101999999ADDAG12999MA1103291999999REMMET010CAVOK NSG?EQDQ01+000000PRSWM2
0063601010999991986011814004+35733-005900FM-15+0021GMTT V0200401N00511999991CY0099001N1+01601+01201999999ADDAG12999MA1103121999999REMMET010CAVOK NSG?EQDQ01+000000PRSWM2
0049601010999991986011814304+35733-005900FM-15+0021GMTT V0200401N00511999991CY0099001N1+01601+01201999999ADDAG12000REMMET011CAVOK 105-?EQDQ01+000000PRSWM2
0061601010999991986011815004+35733-005900FM-12+0021GMTT V0200401N00821220001CN0150001N9+01661+01221103141ADDAA106000091AG14000GF100991001001999999001001MD1810241+9999
