0302601010999992009010100004+35733-005900SY-MT+0021GMTT V0202101N00211004801CN0030001N1+01531+01431102191ADDAA106004191AY161061AY261061GA1045+001501999GA2075+004801999GF108991081021001501999999MA1102101999999MD1310091+9999MW1611REMSYN088AAXX  01004 60101 11230 82104 10153 20143 40219 53009 60041 76166 882// 333 84705 86816;MET076METAR GMTT 010000Z 21004KT 170V250 3000 -RA SCT005 BKN016 15/14 Q1021 NOSIG;
0175601010999992009010100214+35733-005900FM-15+0021GMTT V0201901N00361003001CN0050001N1+01501+01401999999ADDGA1045+001801999GA2045+003001999GA3075+004801999GF107991999999999999999999MA1102001999999REMMET074METAR GMTT 010021Z 19007KT 5000 SCT006 SCT010 BKN016 15/14 Q1020 B2 NOSIG;
0172601010999992009010100304+35733-005900FM-15+0021GMTT V0201901N00361003001CN0050001N1+01501+01401999999ADDGA1045+001801999GA2045+003001999GA3075+004801999GF107991999999999999999999MA1102001999999REMMET071METAR GMTT 010030Z 19007KT 5000 SCT006 SCT010 BKN016 15/14 Q1020 NOSIG;
0181601010999992009010101004+35733-005900FM-15+0021GMTT V0201801N00361003001CN0050001N1+01501+01401999999ADDGA1045+001801999GA2045+003001999GA3075+004801999GF107991999999999999999999MA1102001999999REMMET080METAR GMTT 010100Z 18007KT 5000 R28///// SCT006 SCT010 BKN016 15/14 Q1020 NOSIG;
0181601010999992009010101304+35733-005900FM-15+0021GMTT V0201901N00311003001CN0050001N1+01501+01401999999ADDGA1045+001801999GA2045+003001999GA3075+004801999GF107991999999999999999999MA1102001999999REMMET080METAR GMTT 010130Z 19006KT 5000 R28///// SCT006 SCT010 BKN016 15/14 Q1020 NOSIG;
0084601010999992009010102004+35733-005900AUTO +0021GMTT V0201901N002112200019N9999999N1+01501+01401999999ADDMA1102001999999REMMET057METAR GMTT 010200Z AUTO 19004KT R28///// /// 15/14 Q1020;
0084601010999992009010102304+35733-005900AUTO +0021GMTT V0201901N002612200019N9999999N1+01501+01401999999ADDMA1102001999999REMMET057METAR GMTT 010230Z AUTO 19005KT R28///// /// 15/14 Q1020;
0158601010999992009010103004+35733-005900SY-MT+0021GMTT V0202001N002619999999N9999999N1+01501+01401102101ADDMA1102001999999MD1410001+9999REMSYN054AAXX  01034 60101 469// /2005 10150 20140 40210 54000;MET057METAR GMTT 010300Z AUTO 20005KT R28///// /// 15/14 Q1020;
0084601010999992009010103304+35733-005900AUTO +0021GMTT V0201901N002612200019N9999999N1+01501+01401999999ADDMA1102001999999REMMET057METAR GMTT 010330Z AUTO 19005KT R28///// /// 15/14 Q1020;
0084601010999992009010104004+35733-005900AUTO +0021GMTT V0201901N002612200019N9999999N1+01501+01501999999ADDMA1102001999999REMMET057METAR GMTT 010400Z AUTO 19005KT R28///// /// 15/15 Q1020;
0172601010999992009010104304+35733-005900FM-15+0021GMTT V0202001N00211003001CN0050001N1+01501+01501999999ADDGA1045+001501999GA2045+003001999GA3075+004801999GF107991999999999999999999MA1102001999999REMMET071METAR GMTT 010430Z 20004KT 5000 SCT005 SCT010 BKN016 15/15 Q1020 NOSIG;
0180601010999992009010105004+35733-005900FM-15+0021GMTT V0202101N00151003001CN0050001N1+01501+01501999999ADDGA1045+001501999GA2045+003001999GA3075+004801999GF107991999999999999999999MA1102001999999REMMET079METAR GMTT 010500Z 21003KT 180V240 5000 SCT005 SCT010 BKN016 15/15 Q1020 NOSIG;
0192601010999992009010105074+35733-005900FM-15+0021GMTT V0201901N00151002401CN0030001N1+01501+01501999999ADDGA1025+000901999GA2045+002401999GA3075+004801999GF107991999999999999999999MA1102001999999MW1101REMMET085METAR GMTT 010507Z 19003KT 160V240 3000 BR FEW003 SCT008 BKN016 15/15 Q1020 M2 NOSIG;
0189601010999992009010105304+35733-005900FM-15+0021GMTT V0201901N00151002401CN0030001N1+01501+01401999999ADDGA1025+000901999GA2045+002401999GA3075+004801999GF107991999999999999999999MA1102001999999MW1101REMMET082METAR GMTT 010530Z 19003KT 160V220 3000 BR FEW003 SCT008 BKN016 15/14 Q1020 NOSIG;
0350601010999992009010106004+35733-005900SY-MT+0021GMTT V0202001N00211002401CN0030001N1+01551+01491102101ADDAA124007991AY161061AY221061GA1025+001201999GA2045+002401999GA3075+004801999GF108991081021001501999999KA1120N+01491MA1102001999999MD1410001+9999MW1611REMSYN100AAXX  01064 60101 11230 82004 10155 20149 40210 54000 60084 76162 882// 333 20149 82704 84708 86816;MET083METAR GMTT 010600Z 20004KT 120V250 3000 -RA FEW004 SCT008 BKN016 16/15 Q1020 NOSIG;
0182601010999992009010106304+35733-005900FM-15+0021GMTT V0202401N00311002401CN0030001N1+01601+01501999999ADDGA1025+001201999GA2045+002401999GA3075+004801999GF107991999999999999999999MA1102001999999MW1611REMMET075METAR GMTT 010630Z 24006KT 3000 -RA FEW004 SCT008 BKN016 16/15 Q1020 NOSIG;
0182601010999992009010107004+35733-005900FM-15+0021GMTT V0202501N00261002401CN0030001N1+01501+01501999999ADDGA1025+001201999GA2045+002401999GA3075+004801999GF107991999999999999999999MA1102101999999MW1611REMMET075METAR GMTT 010700Z 25005KT 3000 -RA FEW004 SCT008 BKN016 15/15 Q1021 NOSIG;
0159601010999992009010107304+35733-005900FM-15+0021GMTT V0202501N00211004801CN0040001N1+01501+01401999999ADDGA1045+002401999GA2075+004801999GF107991999999999999999999MA1102101999999MW1611REMMET068METAR GMTT 010730Z 25004KT 4000 -RA SCT008 BKN016 15/14 Q1021 NOSIG;
0171601010999992009010107444+35733-005900FM-15+0021GMTT V0202401N00151004805CN0050001N1+01501+01401999999ADDGA1045+001801999GA2045+004801999GA3025+006001025MA1102101999999REMMET077METAR GMTT 010744Z 24003KT 5000 SCT006 SCT016 FEW020TCU 15/14 Q1021 B2 NOSIG;EQDQ01+000022SCOTCV
0168601010999992009010108004+35733-005900FM-15+0021GMTT V0202401N00151004805CN0050001N1+01501+01401999999ADDGA1045+001801999GA2045+004801999GA3025+006001025MA1102101999999REMMET074METAR GMTT 010800Z 24003KT 5000 SCT006 SCT016 FEW020TCU 15/14 Q1021 NOSIG;EQDQ01+000022SCOTCV
0168601010999992009010108234+35733-005900FM-15+0021GMTT V0209999C00001004805CN0030001N1+01501+01401999999ADDGA1045+001801999GA2045+004801999GA3025+006001025MA1102101999999REMMET074METAR GMTT 010823Z 00000KT 3000 SCT006 SCT016 FEW020TCU 15/14 Q1021 NOSIG;EQDQ01+000022SCOTCV
0168601010999992009010108304+35733-005900FM-15+0021GMTT V0209999C00001004805CN0030001N1+01501+01401999999ADDGA1045+001801999GA2045+004801999GA3025+006001025MA1102101999999REMMET074METAR GMTT 010830Z 00000KT 3000 SCT006 SCT016 FEW020TCU 15/14 Q1021 NOSIG;EQDQ01+000022SCOTCV
0302601010999992009010109004+35733-005900SY-MT+0021GMTT V0209999C00001004801CN0030001N1+01541+01481102201ADDAY161031AY221031GA1045+001801999GA2045+004801999GA3025+006001025GF107991071021002501999999MA1102101999999MD1110101+9999MW1101REMSYN082AAXX  01094 60101 41330 70000 10154 20148 40220 51010 71062 872// 333 83706 84816;MET077METAR GMTT 010900Z 00000KT 3000 BR SCT006 SCT016 FEW020TCU 15/15 Q1021 NOSIG;
0177601010999992009010109304+35733-005900FM-15+0021GMTT V0202201N00101004805CN0030001N1+01601+01501999999ADDGA1045+001801999GA2045+004801999GA3025+006001025MA1102201999999MW1101REMMET077METAR GMTT 010930Z 22002KT 3000 BR SCT006 SCT016 FEW020TCU 16/15 Q1022 NOSIG;EQDQ01+000022SCOTCV
0180601010999992009010110004+35733-005900FM-15+0021GMTT V0202501N00151004805CN0030001N1+01601+01601999999ADDGA1045+001801999GA2045+004801999GA3025+006001025MA1102201999999MW1101REMMET080METAR GMTT 011000Z 25003KT 3000 BR SCT006 SCT016 FEW020TCU 16/16 Q1022 TEMPO RA;EQDQ01+000022SCOTCV
0165601010999992009010110264+35733-005900FM-15+0021GMTT V0202401N00311004805CN0050001N1+01601+01501999999ADDGA1045+001801999GA2045+004801999GA3025+006001025MA1102201999999REMMET071METAR GMTT 011026Z 24006KT 5000 SCT006 SCT016 FEW020TCU 16/15 Q1022 B2;EQDQ01+000022SCOTCV
0171601010999992009010110304+35733-005900FM-15+0021GMTT V0202401N00311004805CN0050001N1+01601+01501999999ADDGA1045+001801999GA2045+004801999GA3025+006001025MA1102201999999REMMET077METAR GMTT 011030Z 24006KT 5000 SCT006 SCT016 FEW020TCU 16/15 Q1022 TEMPO RA;EQDQ01+000022SCOTCV
0171601010999992009010111004+35733-005900FM-15+0021GMTT V0202201N00361004805CN0050001N1+01701+01601999999ADDGA1045+001801999GA2045+004801999GA3025+006001025MA1102201999999REMMET077METAR GMTT 011100Z 22007KT 5000 SCT006 SCT016 FEW020TCU 17/16 Q1022 TEMPO RA;EQDQ01+000022SCOTCV
0171601010999992009010111304+35733-005900FM-15+0021GMTT V0202401N00411004805CN0050001N1+01701+01601999999ADDGA1045+001801999GA2045+004801999GA3025+006001025MA1102201999999REMMET077METAR GMTT 011130Z 24008KT 5000 SCT006 SCT016 FEW020TCU 17/16 Q1022 TEMPO RA;EQDQ01+000022SCOTCV
0319601010999992009010112004+35733-005900SY-MT+0021GMTT V0202401N00511004801CN0050001N1+01711+01561102291ADDAA106000021AY161061AY261061GA1045+001801999GA2045+004801999GA3025+006001025GF107991071021002501999999MA1102201999999MD1010091+9999MW1021REMSYN088AAXX  01124 60101 11350 72410 10171 20156 40229 50009 69901 70266 872// 333 83706 84816;MET077METAR GMTT 011200Z 24010KT 5000 SCT006 SCT016 FEW020TCU 17/16 Q1022 TEMPO RA;
0165601010999992009010112014+35733-005900FM-15+0021GMTT V0202401N00461004805CN0030001N1+01701+01501999999ADDGA1045+001801999GA2045+004801999GA3025+006001025MA1102201999999REMMET071METAR GMTT 011201Z 24009KT 3000 SCT006 SCT016 FEW020TCU 17/15 Q1022 M2;EQDQ01+000022SCOTCV
0171601010999992009010112304+35733-005900FM-15+0021GMTT V0202401N00461004805CN0030001N1+01701+01601999999ADDGA1045+001801999GA2045+004801999GA3025+006001025MA1102101999999REMMET077METAR GMTT 011230Z 24009KT 3000 SCT006 SCT016 FEW020TCU 17/16 Q1021 TEMPO RA;EQDQ01+000022SCOTCV
0180601010999992009010113004+35733-005900FM-15+0021GMTT V0202401N00511004805CN0030001N1+01801+01601999999ADDGA1045+001801999GA2045+004801999GA3025+006001025MA1102101999999MW1101REMMET080METAR GMTT 011300Z 24010KT 3000 BR SCT006 SCT016 FEW020TCU 18/16 Q1021 TEMPO RA;EQDQ01+000022SCOTCV
0171601010999992009010113104+35733-005900FM-15+0021GMTT V0202401N00571999999CN0060001N1+01801+01601999999ADDGA1025+003001999GA2045+004801999GF104991999999999999999999MA1102101999999REMMET067METAR GMTT 011310Z 24011KT 6000 FEW010 SCT016 18/16 Q1021 NOSIG B2;EQDP01 004803SCOCIG
0168601010999992009010113304+35733-005900FM-15+0021GMTT V0202301N00571999999CN0060001N1+01801+01501999999ADDGA1025+003001999GA2045+004801999GF104991999999999999999999MA1102101999999REMMET064METAR GMTT 011330Z 23011KT 6000 FEW010 SCT016 18/15 Q1021 NOSIG;EQDP01 004803SCOCIG
0168601010999992009010114004+35733-005900FM-15+0021GMTT V0202401N00511999999CN0060001N1+01801+01601999999ADDGA1025+003001999GA2045+004801999GF104991999999999999999999MA1102101999999REMMET064METAR GMTT 011400Z 24010KT 6000 FEW010 SCT016 18/16 Q1021 NOSIG;EQDP01 004803SCOCIG
0190601010999992009010116304+35733-005900FM-15+0021GMTT V0202401N00461999999CN0008001N1+01701+01501999999ADDED110U20009GA1025+003001999GA2045+004801999GF104991999999999999999999MA1102101999999REMMET075METAR GMTT 011630Z 24009KT 0800 R10/P2000D FEW010 SCT016 17/15 Q1021 NOSIG;EQDP01 004803SCOCIG
0190601010999992009010117004+35733-005900FM-15+0021GMTT V0202401N00461999999CN0008001N1+01601+01501999999ADDED110U20009GA1025+003001999GA2045+004801999GF104991999999999999999999MA1102101999999REMMET075METAR GMTT 011700Z 24009KT 0800 R10/P2000D FEW010 SCT016 16/15 Q1021 NOSIG;EQDP01 004803SCOCIG
0168601010999992009010117304+35733-005900FM-15+0021GMTT V0202401N00311999999CN0060001N1+01601+01501999999ADDGA1025+003001999GA2045+004801999GF104991999999999999999999MA1102101999999REMMET064METAR GMTT 011730Z 24006KT 6000 FEW010 SCT016 16/15 Q1021 NOSIG;EQDP01 004803SCOCIG
0317601010999992009010118004+35733-005900SY-MT+0021GMTT V0202201N00311004805CN0060001N1+01591+01461102201ADDAA112000021AY161061AY221061GA1025+003001999GA2045+004801999GF106991061021004501001001KA1120M+01811MA1102101999999MD1210011+9999MW1021REMSYN094AAXX  01184 60101 11456 62206 10159 20146 40220 52001 69922 70262 86200 333 10181 82710 84816;MET072METAR GMTT 011800Z 22006KT 180V240 6000 FEW010 SCT016 16/15 Q1021 NOSIG;
0271601010999992009010121004+35733-005900SY-MT+0021GMTT V0202001N00211004805CN0060001N1+01551+01451102291ADDGA1025+003001999GA2045+004801999GA3025+006001025GF106991061021004501001001MA1102201999999MD1110091+9999REMSYN076AAXX  01214 60101 32456 62004 10155 20145 40229 51009 86200 333 82710 84816;MET074METAR GMTT 012100Z 20004KT 6000 FEW010 SCT016 FEW020TCU 16/15 Q1022 NOSIG;
0168601010999992009010121304+35733-005900FM-15+0021GMTT V0202001N00261999999CN0060001N1+01601+01501999999ADDGA1025+003001999GA2045+004801999GF104991999999999999999999MA1102201999999REMMET064METAR GMTT 012130Z 20005KT 6000 FEW010 SCT016 16/15 Q1022 NOSIG;EQDP01 004803SCOCIG
0168601010999992009010122004+35733-005900FM-15+0021GMTT V0202001N00261999999CN0060001N1+01601+01501999999ADDGA1025+003001999GA2045+004801999GF104991999999999999999999MA1102101999999REMMET064METAR GMTT 012200Z 20005KT 6000 FEW010 SCT016 16/15 Q1021 NOSIG;EQDP01 004803SCOCIG
0168601010999992009010122304+35733-005900FM-15+0021GMTT V0202001N00311999999CN0060001N1+01501+01401999999ADDGA1025+003001999GA2045+004801999GF104991999999999999999999MA1102101999999REMMET064METAR GMTT 012230Z 20006KT 6000 FEW010 SCT016 15/14 Q1021 NOSIG;EQDP01 004803SCOCIG
0168601010999992009010123004+35733-005900FM-15+0021GMTT V0201901N00311999999CN0060001N1+01501+01401999999ADDGA1025+003001999GA2045+004801999GF104991999999999999999999MA1102101999999REMMET064METAR GMTT 012300Z 19006KT 6000 FEW010 SCT016 15/14 Q1021 NOSIG;EQDP01 004803SCOCIG
0168601010999992009010123304+35733-005900FM-15+0021GMTT V0201901N00311999999CN0060001N1+01501+01401999999ADDGA1025+003001999GA2045+004801999GF104991999999999999999999MA1102101999999REMMET064METAR GMTT 012330Z 19006KT 6000 FEW010 SCT016 15/14 Q1021 NOSIG;EQDP01 004803SCOCIG
0245601010999992009010200004+35733-005900SY-MT+0021GMTT V0201901N00311004801CN0060001N1+01501+01401102191ADDGA1025+003001999GA2045+004801999GF106991061021004501001001MA1102101999999MD1610101+9999REMSYN076AAXX  02004 60101 32456 61906 10150 20140 40219 56010 86200 333 82710 84816;MET064METAR GMTT 020000Z 19006KT 6000 FEW010 SCT016 15/14 Q1021 NOSIG;
0177601010999992009010200304+35733-005900FM-15+0021GMTT V0201901N00261999999CN0060001N1+01501+01401999999ADDGA1025+003001999GA2045+004801999GF104991999999999999999999MA1102101999999REMMET073METAR GMTT 020030Z 19005KT 6000 R28///// FEW010 SCT016 15/14 Q1021 NOSIG;EQDP01 004803SCOCIG
0177601010999992009010201004+35733-005900FM-15+0021GMTT V0202001N00311999999CN0060001N1+01501+01401999999ADDGA1025+003001999GA2045+004801999GF104991999999999999999999MA1102001999999REMMET073METAR GMTT 020100Z 20006KT 6000 R28///// FEW010 SCT016 15/14 Q1020 NOSIG;EQDP01 004803SCOCIG
0084601010999992009010201304+35733-005900AUTO +0021GMTT V0201901N003112200019N9999999N1+01501+01401999999ADDMA1102001999999REMMET057METAR GMTT 020130Z AUTO 19006KT R28///// /// 15/14 Q1020;
0092601010999992009010202004+35733-005900AUTO +0021GMTT V0201801N001512200019N9999999N1+01501+01401999999ADDMA1102001999999REMMET065METAR GMTT 020200Z AUTO 18003KT 150V220 R28///// /// 15/14 Q1020;
0092601010999992009010202304+35733-005900AUTO +0021GMTT V0202101N003612200019N9999999N1+01501+01401999999ADDMA1102001999999REMMET065METAR GMTT 020230Z AUTO 21007KT 180V240 R28///// /// 15/14 Q1020;
0166601010999992009010203004+35733-005900SY-MT+0021GMTT V0202001N003619999999N9999999N1+01481+01331102091ADDMA1102001999999MD1810101+9999REMSYN054AAXX  02034 60101 469// /2007 10148 20133 40209 58010;MET065METAR GMTT 020300Z AUTO 20007KT 180V250 R28///// /// 15/13 Q1020;
0084601010999992009010203304+35733-005900AUTO +0021GMTT V0202001N004612200019N9999999N1+01501+01301999999ADDMA1102001999999REMMET057METAR GMTT 020330Z AUTO 20009KT R28///// /// 15/13 Q1020;
0084601010999992009010204004+35733-005900AUTO +0021GMTT V0202001N004112200019N9999999N1+01501+01301999999ADDMA1102001999999REMMET057METAR GMTT 020400Z AUTO 20008KT R28///// /// 15/13 Q1020;
0149601010999992009010204304+35733-005900FM-15+0021GMTT V0202001N00511004801CN0060001N1+01501+01301999999ADDGA1045+002401999GA2075+004801999GF107991999999999999999999MA1101901999999REMMET064METAR GMTT 020430Z 20010KT 6000 SCT008 BKN016 15/13 Q1019 NOSIG;
0149601010999992009010205004+35733-005900FM-15+0021GMTT V0202001N00461004801CN0060001N1+01501+01301999999ADDGA1045+002401999GA2075+004801999GF107991999999999999999999MA1101901999999REMMET064METAR GMTT 020500Z 20009KT 6000 SCT008 BKN016 15/13 Q1019 NOSIG;
0149601010999992009010205304+35733-005900FM-15+0021GMTT V0201901N00461004801CN0060001N1+01501+01301999999ADDGA1045+002401999GA2075+004801999GF107991999999999999999999MA1101901999999REMMET064METAR GMTT 020530Z 19009KT 6000 SCT008 BKN016 15/13 Q1019 NOSIG;
0331601010999992009010206004+35733-005900SY-MT+0021GMTT V0201901N00411004801CN0060001N1+01471+01291102001ADDAA124000891AY121061AY221061GA1045+002401999GA2075+004801999GF199999061021002501001001KA1120N+01471MA1101901999999MD1710091+9999MW1601REMSYN094AAXX  02064 60101 11356 61908 10147 20129 40200 57009 69984 76022 86200 333 20147 83708 86816;MET067METAR GMTT 020600Z 20008KT 6000 RA SCT008 BKN016 15/13 Q1019 NOSIG;EQDQ01+000062SCOTCV
0158601010999992009010206304+35733-005900FM-15+0021GMTT V0201901N00511004801CN0060001N1+01501+01301999999ADDGA1045+002401999GA2075+004801999GF107991999999999999999999MA1101901999999MW1631REMMET067METAR GMTT 020630Z 19010KT 6000 RA SCT008 BKN016 15/13 Q1019 NOSIG;
0158601010999992009010207004+35733-005900FM-15+0021GMTT V0201901N00411004801CN0060001N1+01501+01301999999ADDGA1045+002401999GA2075+004801999GF107991999999999999999999MA1101901999999MW1631REMMET067METAR GMTT 020700Z 19008KT 6000 RA SCT008 BKN016 15/13 Q1019 NOSIG;
0158601010999992009010207304+35733-005900FM-15+0021GMTT V0201901N00511004801CN0060001N1+01501+01301999999ADDGA1045+002401999GA2075+004801999GF107991999999999999999999MA1101901999999MW1631REMMET067METAR GMTT 020730Z 19010KT 6000 RA SCT008 BKN016 15/13 Q1019 NOSIG;
0158601010999992009010208004+35733-005900FM-15+0021GMTT V0202001N00511004801CN0060001N1+01501+01301999999ADDGA1045+002401999GA2075+004801999GF107991999999999999999999MA1101901999999MW1631REMMET067METAR GMTT 020800Z 20010KT 6000 RA SCT008 BKN016 15/13 Q1019 NOSIG;
0158601010999992009010208304+35733-005900FM-15+0021GMTT V0202001N00511004801CN0060001N1+01501+01301999999ADDGA1045+002401999GA2075+004801999GF107991999999999999999999MA1102001999999MW1631REMMET067METAR GMTT 020830Z 20010KT 6000 RA SCT008 BKN016 15/13 Q1020 NOSIG;
0254601010999992009010209004+35733-005900SY-MT+0021GMTT V0202001N00571004801CN0060001N1+01521+01321102091ADDGA1045+002401999GA2075+004801999GF107991071021002501999999MA1102001999999MD1210091+9999MW1631REMSYN076AAXX  02094 60101 41356 72011 10152 20132 40209 52009 872// 333 83708 86816;MET067METAR GMTT 020900Z 20011KT 6000 RA SCT008 BKN016 15/13 Q1020 NOSIG;
0158601010999992009010210004+35733-005900FM-15+0021GMTT V0201901N00511004801CN0060001N1+01601+01401999999ADDGA1045+002401999GA2075+004801999GF107991999999999999999999MA1102001999999MW1631REMMET067METAR GMTT 021000Z 19010KT 6000 RA SCT008 BKN016 16/14 Q1020 NOSIG;
0143601010999992009010210564+35733-005900FM-15+0021GMTT V0202001N00621004801CN0030001N1+01601+01401999999ADDGA1045+003001999GA2075+004801999GF107991999999999999999999MA1102101999999REMMET058METAR GMTT 021056Z 20012KT 3000 SCT010 BKN016 16/14 Q1021;
0158601010999992009010211004+35733-005900FM-15+0021GMTT V0202001N00771004801CN0060001N1+01601+01401999999ADDGA1045+002401999GA2075+004801999GF107991999999999999999999MA1102001999999MW1631REMMET067METAR GMTT 021100Z 20015KT 6000 RA SCT008 BKN016 16/14 Q1020 NOSIG;
0143601010999992009010211304+35733-005900FM-15+0021GMTT V0202001N00571004801CN0030001N1+01601+01401999999ADDGA1045+003001999GA2075+004801999GF107991999999999999999999MA1102001999999REMMET058METAR GMTT 021130Z 20011KT 3000 SCT010 BKN016 16/14 Q1020;
0287601010999992009010212004+35733-005900SY-MT+0021GMTT V0202001N00621004801CN0040001N1+01561+01401102091ADDAA106004191AY161061AY261061GA1045+003001999GA2075+004801999GF107991071021004501999999MA1102001999999MD1010001+9999MW1601REMSYN088AAXX  02124 60101 11440 72012 10156 20140 40209 50000 60041 76066 872// 333 84710 87816;MET061METAR GMTT 021200Z 20012KT 4000 RA SCT010 BKN016 16/14 Q1020;
0152601010999992009010212304+35733-005900FM-15+0021GMTT V0202001N00721004801CN0040001N1+01601+01401999999ADDGA1045+003001999GA2075+004801999GF107991999999999999999999MA1102001999999MW1631REMMET061METAR GMTT 021230Z 20014KT 4000 RA SCT010 BKN016 16/14 Q1020;
0152601010999992009010213004+35733-005900FM-15+0021GMTT V0202001N00621004801CN0030001N1+01501+01401999999ADDGA1045+003001999GA2075+004801999GF107991999999999999999999MA1101901999999MW1631REMMET061METAR GMTT 021300Z 20012KT 3000 RA SCT010 BKN016 15/14 Q1019;
0160601010999992009010213074+35733-005900FM-15+0021GMTT V0202001N00621004801CN0030001N1+01601+01401999999ADDGA1045+003001999GA2075+004801999GF107991999999999999999999MA1101901999999MW1631REMMET069METAR GMTT 021307Z 20012KT 170V230 3000 RA SCT010 BKN016 16/14 Q1019;
0160601010999992009010213304+35733-005900FM-15+0021GMTT V0202001N00621004801CN0030001N1+01601+01401999999ADDGA1045+003001999GA2075+004801999GF107991999999999999999999MA1101901999999MW1631REMMET069METAR GMTT 021330Z 20012KT 170V230 3000 RA SCT010 BKN016 16/14 Q1019;
0152601010999992009010214004+35733-005900FM-15+0021GMTT V0202001N00621004801CN0030001N1+01601+01401999999ADDGA1045+003001999GA2075+004801999GF107991999999999999999999MA1101901999999MW1631REMMET061METAR GMTT 021400Z 20012KT 3000 RA SCT010 BKN016 16/14 Q1019;
0159601010999992009010214304+35733-005900FM-15+0021GMTT V0202001N00671004801CN0030001N1+01501+01401999999ADDGA1045+003001999GA2075+004801999GF107991999999999999999999MA1101801999999MW1611REMMET068METAR GMTT 021430Z 20013KT 3000 -RA SCT010 BKN016 15/14 Q1018 NOSIG;
0284601010999992009010215004+35733-005900SY-MT+0021GMTT V0202201N00461004801CN0030001N1+01461+01351101991ADDAY161031AY261031GA1045+003001999GA2075+004801999GF108991081021004501999999MA1101901999999MD1610101+9999MW1611REMSYN082AAXX  02154 60101 41430 82209 10146 20135 40199 56010 76166 882// 333 84710 87816;MET075METAR GMTT 021500Z 22009KT 190V260 3000 RA SCT010 BKN016 15/14 Q1019 NOSIG;
0158601010999992009010215304+35733-005900FM-15+0021GMTT V0202101N00461004801CN0030001N1+01401+01301999999ADDGA1045+003001999GA2075+004801999GF107991999999999999999999MA1101901999999MW1631REMMET067METAR GMTT 021530Z 21009KT 3000 RA SCT010 BKN016 14/13 Q1019 NOSIG;
0159601010999992009010216004+35733-005900FM-15+0021GMTT V0202001N00621004801CN0030001N1+01401+01201999999ADDGA1045+003001999GA2075+004801999GF107991999999999999999999MA1101901999999MW1611REMMET068METAR GMTT 021600Z 20012KT 3000 -RA SCT010 BKN016 14/12 Q1019 NOSIG;
0159601010999992009010216304+35733-005900FM-15+0021GMTT V0201901N00571004801CN0030001N1+01401+01201999999ADDGA1045+003001999GA2075+004801999GF107991999999999999999999MA1101901999999MW1611REMMET068METAR GMTT 021630Z 19011KT 3000 -RA SCT010 BKN016 14/12 Q1019 NOSIG;
0157601010999992009010217304+35733-005900FM-15+0021GMTT V0201901N00621004801CN0060001N1+01401+01301999999ADDGA1045+003001999GA2075+004801999GF107991999999999999999999MA1101901999999REMMET072METAR GMTT 021730Z 19012KT 6000 SCT010 BKN016 14/13 Q1019 TEMPO 3000 RA;
0317601010999992009010218004+35733-005900SY-MT+0021GMTT V0202001N00671004801CN0060001N1+01431+01291102001ADDAA112017091AY161061AY221061GA1045+003001999GA2075+004801999GF108991081021004501999999KA1120M+01601MA1101901999999MD1210011+9999MW1021REMSYN094AAXX  02184 60101 11456 82013 10143 20129 40200 52001 60172 70262 882// 333 10160 84710 87816;MET072METAR GMTT 021800Z 20013KT 6000 SCT010 BKN016 14/13 Q1019 TEMPO 3000 RA;
0159601010999992009010218304+35733-005900FM-15+0021GMTT V0202001N00461004801CN0050001N1+01401+01301999999ADDGA1045+003001999GA2075+004801999GF107991999999999999999999MA1102001999999MW1611REMMET068METAR GMTT 021830Z 20009KT 5000 -RA SCT010 BKN016 14/13 Q1020 NOSIG;
0164601010999992009010303004+35733-005900FM-12+0021GMTT V0201901N00361004201CN0050001N1+01541+01441101901ADDAW1021AZ131031GA1041+003001071GF108991081021004501999999MD1710191+9999REMSYN082AAXX  03034 60101 47450 81907 10154 20144 40190 57019 70222 882// 333 84710 87816;
0084601010999992009010304304+35733-005900FM-15+0021GMTT V0202001N005112200019N9999999N1+01501+01401999999ADDMA1101701999999REMMET057METAR GMTT 030430Z AUTO 20010KT R28///// /// 15/14 Q1017;
0084601010999992009010305004+35733-005900FM-15+0021GMTT V0202201N005712200019N9999999N1+01601+01501999999ADDMA1101701999999REMMET057METAR GMTT 030500Z AUTO 22011KT R28///// /// 16/15 Q1017;
0143601010999992009010305304+35733-005900FM-15+0021GMTT V0202201N00671004801CN0050001N1+01601+01401999999ADDGA1045+003001999GA2075+004801999GF107991999999999999999999MA1101691999999REMMET058METAR GMTT 030530Z 22013KT 5000 SCT010 BKN016 16/14 Q1017;
0180601010999992009010306304+35733-005900FM-15+0021GMTT V0202301N00931004801CN0050001N1+01601+01501999999ADDGA1045+003001999GA2075+004801999GF107991999999999999999999MA1101691999999MW1631OC101541REMMET081METAR GMTT 030630Z 23018G30KT 200V270 5000 R28///// RA SCT010 BKN016 16/15 Q1017;
0161601010999992009010307004+35733-005900FM-15+0021GMTT V0202801N00411004801CN0050001N1+01601+01501999999ADDGA1045+003001999GA2075+004801999GF107991999999999999999999MA1101691999999MW1631REMMET070METAR GMTT 030700Z 28008KT 5000 R28///// RA SCT010 BKN016 16/15 Q1017;
0152601010999992009010307304+35733-005900FM-15+0021GMTT V0202701N00511004801CN0050001N1+01601+01501999999ADDGA1045+003001999GA2075+004801999GF107991999999999999999999MA1101691999999MW1631REMMET061METAR GMTT 030730Z 27010KT 5000 RA SCT010 BKN016 16/15 Q1017;
0152601010999992009010308004+35733-005900FM-15+0021GMTT V0202501N00621004801CN0050001N1+01501+01501999999ADDGA1045+003001999GA2075+004801999GF107991999999999999999999MA1101691999999MW1631REMMET061METAR GMTT 030800Z 25012KT 5000 RA SCT010 BKN016 15/15 Q1017;
0149601010999992009010308304+35733-005900FM-15+0021GMTT V0202501N00461004801CN0050001N1+01601+01501999999ADDGA1045+003001999GA2075+004801999GF107991999999999999999999MA1101691999999REMMET064METAR GMTT 030830Z 25009KT 5000 SCT010 BKN016 16/15 Q1017 NOSIG;
0288601010999992009010309004+35733-005900SY-MT+0021GMTT V0202401N00461004801CN0050001N1+01581+01501101801ADDAY181031AY261031GA1045+003001999GA2075+004801999GF107991071081004501999999MA1101691999999MD1210011+9999MW1251REMSYN082AAXX  03094 60101 41450 72409 10158 20150 40180 52001 72586 878// 333 83710 86816;MET079METAR GMTT 030900Z 24009KT 5000 SCT010 BKN016 16/15 Q1017 RERA TEMPO 3000 SHRA;
0159601010999992009010309304+35733-005900FM-15+0021GMTT V0202401N00621004801CN0050001N1+01601+01501999999ADDGA1045+003301999GA2075+004801999GF107991999999999999999999MA1101801999999REMMET074METAR GMTT 030930Z 24012KT 5000 SCT011 BKN016 16/15 Q1018 TEMPO 3000 SHRA;
0159601010999992009010310004+35733-005900FM-15+0021GMTT V0202501N00821004801CN0030001N1+01601+01501999999ADDGA1045+003001999GA2075+004801999GF107991999999999999999999MA1101801999999MW1611REMMET068METAR GMTT 031000Z 25016KT 3000 -RA SCT010 BKN016 16/15 Q1018 NOSIG;
0159601010999992009010310304+35733-005900FM-15+0021GMTT V0202901N00771004801CN0050001N1+01401+01301999999ADDGA1045+003001999GA2075+004801999GF107991999999999999999999MA1101801999999MW1611REMMET068METAR GMTT 031030Z 29015KT 5000 -RA SCT010 BKN016 14/13 Q1018 NOSIG;
0154601010999992009010311004+35733-005900FM-15+0021GMTT V0202701N00511004801CN0050001N1+01501+01301999999ADDGA1045+003001999GA2075+004801999GF107991999999999999999999MA1101801999999REMMET069METAR GMTT 031100Z 27010KT 5000 SCT010 BKN016 15/13 Q1018 RERA NOSIG;
0149601010999992009010311304+35733-005900FM-15+0021GMTT V0202701N00621004801CN0060001N1+01601+01401999999ADDGA1045+003001999GA2075+004801999GF107991999999999999999999MA1101801999999REMMET064METAR GMTT 031130Z 27012KT 6000 SCT010 BKN016 16/14 Q1018 NOSIG;
0298601010999992009010312004+35733-005900SY-MT+0021GMTT V0202701N00721004801CN0060001N1+01631+01411101801ADDAA106015091AY181061AY261061GA1045+003001999GA2075+004801999GF108991071021004501999999MA1101691999999MD1010001+9999MW1011REMSYN088AAXX  03124 60101 11456 82714 10163 20141 40180 50000 60151 70186 872// 333 83710 87816;MET072METAR GMTT 031200Z 27014KT 6000 SCT010 BKN016 16/14 Q1017 TEMPO 3000 RA;
0157601010999992009010312304+35733-005900FM-15+0021GMTT V0202501N00671004801CN0060001N1+01601+01401999999ADDGA1045+003001999GA2075+004801999GF107991999999999999999999MA1101691999999REMMET072METAR GMTT 031230Z 25013KT 6000 SCT010 BKN016 16/14 Q1017 TEMPO 3000 RA;
0154601010999992009010313004+35733-005900FM-15+0021GMTT V0202801N00511004801CN0060001N1+01501+01301999999ADDGA1045+003001999GA2075+004801999GF107991999999999999999999MA1101591999999REMMET069METAR GMTT 031300Z 28010KT 6000 SCT010 BKN016 15/13 Q1016 RERA NOSIG;
0149601010999992009010313304+35733-005900FM-15+0021GMTT V0202501N00571004801CN0060001N1+01401+01201999999ADDGA1045+003001999GA2075+004801999GF107991999999999999999999MA1101591999999REMMET064METAR GMTT 031330Z 25011KT 6000 SCT010 BKN016 14/12 Q1016 NOSIG;
0154601010999992009010314004+35733-005900FM-15+0021GMTT V0202801N00621004801CN0060001N1+01601+01301999999ADDGA1045+003001999GA2075+004801999GF107991999999999999999999MA1101591999999REMMET069METAR GMTT 031400Z 28012KT 6000 SCT010 BKN016 16/13 Q1016 RERA NOSIG;
0149601010999992009010314304+35733-005900FM-15+0021GMTT V0202801N00671004801CN0060001N1+01601+01201999999ADDGA1045+003001999GA2075+004801999GF107991999999999999999999MA1101491999999REMMET064METAR GMTT 031430Z 28013KT 6000 SCT010 BKN016 16/12 Q1015 NOSIG;
0172601010999992009010315004+35733-005900FM-12+0021GMTT V0202701N00721004201CN0060001N1+01581+01271101601ADDAY161031AY221031GA1031+003001071GF107991071021004501999999MD1810201+9999MW1021REMSYN082AAXX  03154 60101 41456 72714 10158 20127 40160 58020 70262 872// 333 83710 87816;
0152601010999992009010315304+35733-005900FM-15+0021GMTT V0202801N00621004801CN0060001N1+01501+01201999999ADDGA1045+003001999GA2075+004801999GF107991999999999999999999MA1101591999999REMMET067METAR GMTT 031530Z 28012KT 6000 SCT010 BKN016 15/12 Q1016 RA NOSIG;
0149601010999992009010316004+35733-005900FM-15+0021GMTT V0202701N00511004801CN0060001N1+01501+01301999999ADDGA1045+003001999GA2075+004801999GF107991999999999999999999MA1101491999999REMMET064METAR GMTT 031600Z 27010KT 6000 SCT010 BKN016 15/13 Q1015 NOSIG;
0157601010999992009010316304+35733-005900FM-15+0021GMTT V0203101N00361004801CN0060001N1+01401+01201999999ADDGA1045+003001999GA2075+004801999GF107991999999999999999999MA1101491999999REMMET072METAR GMTT 031630Z 31007KT 280V340 6000 SCT010 BKN016 14/12 Q1015 NOSIG;
0149601010999992009010317304+35733-005900FM-15+0021GMTT V0202601N00411004801CN0060001N1+01501+01201999999ADDGA1045+003001999GA2075+004801999GF107991999999999999999999MA1101491999999REMMET064METAR GMTT 031730Z 26008KT 6000 SCT010 BKN016 15/12 Q1015 NOSIG;
0309601010999992009010318004+35733-005900SY-MT+0021GMTT V0202801N00511004801CN0060001N1+01461+01231101601ADDAA112016091AY161061AY221061GA1045+003001999GA2075+004801999GF107991071021004501999999KA1120M+01681MA1101491999999MD1410001+9999MW1021REMSYN094AAXX  03184 60101 11456 72810 10146 20123 40160 54000 60162 70262 872// 333 10168 83710 87816;MET064METAR GMTT 031800Z 28010KT 6000 SCT010 BKN016 15/13 Q1015 NOSIG;
0149601010999992009010318304+35733-005900FM-15+0021GMTT V0202801N00571004801CN0060001N1+01501+01201999999ADDGA1045+003001999GA2075+004801999GF107991999999999999999999MA1101491999999REMMET064METAR GMTT 031830Z 28011KT 6000 SCT010 BKN016 15/12 Q1015 NOSIG;
0149601010999992009010319004+35733-005900FM-15+0021GMTT V0202801N00571004801CN0060001N1+01501+01201999999ADDGA1045+003001999GA2075+004801999GF107991999999999999999999MA1101491999999REMMET064METAR GMTT 031900Z 28011KT 6000 SCT010 BKN016 15/12 Q1015 NOSIG;
0149601010999992009010319304+35733-005900FM-15+0021GMTT V0202801N00571004801CN0060001N1+01501+01201999999ADDGA1045+003001999GA2075+004801999GF107991999999999999999999MA1101491999999REMMET064METAR GMTT 031930Z 28011KT 6000 SCT010 BKN016 15/12 Q1015 NOSIG;
0176601010999992009010319474+35733-005900FM-15+0021GMTT V0202801N00621004801CN0060001N1+01401+01201999999ADDGA1045+003001999GA2075+004801999GA3045+006901095MA1101591999999MW1171REMMET076METAR GMTT 031947Z 28012KT 6000 TS SCT010 BKN016 SCT023CB 14/12 Q1016 NOSIG;EQDQ01+000042SCOTCV
0184601010999992009010320004+35733-005900FM-15+0021GMTT V0202801N00621004801CN0060001N1+01401+01101999999ADDGA1045+003001999GA2075+004801999GA3045+006901095MA1101591999999MW1811MW2951REMMET078METAR GMTT 032000Z 28012KT 6000 TSRA SCT010 BKN016 SCT023CB 14/11 Q1016 NOSIG;EQDQ01+000042SCOTCV
0164601010999992009010320304+35733-005900FM-15+0021GMTT V0202801N00411004801CN0060001N1+01301+01001999999ADDGA1045+003001999GA2075+004801999GA3045+006901095MA1101491999999MW1811MW2951REMMET077METAR GMTT 032030Z 28008KT 6000 TSRA SCT010 BKN016 SCT023CB 13/10 Q1015 SHRA;
0325601010999992009010321004+35733-005900SY-MT+0021GMTT V0203201N00511004801CN0060001N1+01401+01081101691ADDAY181031AY221031GA1045+003001999GA2075+004801999GA3045+006901095GF108991081091004501999999MA1101591999999MD1210091+9999MW1171OC101031REMSYN088AAXX  03214 60101 41456 83210 10140 20108 40169 52009 71782 889// 333 83710 87816 83923;MET086METAR GMTT 032100Z 33009G20KT 280V010 6000 TS SCT010 BKN016 SCT023CB 14/11 Q1016 SHRA;
0167601010999992009010321304+35733-005900FM-15+0021GMTT V0203001N00721004801CN0060001N1+01501+01101999999ADDGA1045+003001999GA2075+004801999GA3045+006901095MA1101591999999MW1171REMMET086METAR GMTT 032130Z 30014KT 6000 TS SCT010 BKN016 SCT023CB 15/11 Q1016 TEMPO 3000 TSRA;
0153601010999992009010321454+35733-005900FM-15+0021GMTT V0203101N00771004801CN0060001N1+01401+01001999999ADDGA1045+003001999GA2075+004801999GA3025+006901095MA1101591999999REMMET078METAR GMTT 032145Z 31015KT 6000 SCT010 BKN016 FEW023CB 14/10 Q1016 RETS NOSIG;
0153601010999992009010322004+35733-005900FM-15+0021GMTT V0203101N00821004801CN0060001N1+01401+01001999999ADDGA1045+003001999GA2075+004801999GA3025+006901095MA1101591999999REMMET078METAR GMTT 032200Z 31016KT 6000 SCT010 BKN016 FEW023CB 14/10 Q1016 RETS NOSIG;
0156601010999992009010322304+35733-005900FM-15+0021GMTT V0203101N00671004801CN0060001N1+01401+01001999999ADDGA1045+003001999GA2075+004801999GA3025+006901095MA1101591999999REMMET081METAR GMTT 032230Z 31013KT 290V350 6000 SCT010 BKN016 FEW023CB 14/10 Q1016 NOSIG;
0148601010999992009010323004+35733-005900FM-15+0021GMTT V0203201N00721004801CN0060001N1+01401+01001999999ADDGA1045+003001999GA2075+004801999GA3025+006901095MA1101591999999REMMET073METAR GMTT 032300Z 32014KT 6000 SCT010 BKN016 FEW023CB 14/10 Q1016 NOSIG;
0157601010999992009010323304+35733-005900FM-15+0021GMTT V0203101N00621004801CN0060001N1+01401+01001999999ADDGA1045+003001999GA2075+004801999GA3025+006901095MA1101591999999REMMET082METAR GMTT 032330Z 31012KT 6000 R28///// SCT010 BKN016 FEW023CB 14/10 Q1016 NOSIG;
0329601010999992009010400004+35733-005900SY-MT+0021GMTT V0203201N00621004801CN0060001N1+01391+01011101691ADDAA106000021AY191061AY281061GA1045+003001999GA2075+004801999GA3025+006901095GF106991061091004501001001MA1101591999999MD1410001+9999MW1021REMSYN094AAXX  04004 60101 11456 63212 10139 20101 40169 54000 69921 70298 86900 333 83810 85816 81923;MET081METAR GMTT 040000Z 32012KT 290V350 6000 SCT010 BKN016 FEW023CB 14/10 Q1016 NOSIG;
0157601010999992009010400304+35733-005900FM-15+0021GMTT V0203301N00621004801CN0060001N1+01401+01001999999ADDGA1025+003001999GA2075+004801999GF107991999999999999999999MA1101591999999REMMET072METAR GMTT 040030Z 33012KT 290V350 6000 FEW010 BKN016 14/10 Q1016 NOSIG;
0158601010999992009010401004+35733-005900FM-15+0021GMTT V0203201N00571004801CN0060001N1+01401+00901999999ADDGA1025+003001999GA2075+004801999GF107991999999999999999999MA1101591999999REMMET073METAR GMTT 040100Z 32011KT 6000 R28///// FEW010 BKN016 14/09 Q1016 NOSIG;
0158601010999992009010401304+35733-005900FM-15+0021GMTT V0203201N00671004801CN0060001N1+01401+01101999999ADDGA1025+003001999GA2075+004801999GF107991999999999999999999MA1101591999999REMMET073METAR GMTT 040130Z 32013KT 6000 R28///// FEW010 BKN016 14/11 Q1016 NOSIG;
0088601010999992009010402004+35733-005900AUTO +0021GMTT V0203201N006212200019N0112651N1+01301+01001999999ADDMA1101591999999REMMET061METAR GMTT 040200Z AUTO 32012KT 9999NDV 1500 /// 13/10 Q1016;
0084601010999992009010402304+35733-005900FM-15+0021GMTT V0203201N006212200019N9999999N1+01401+01001999999ADDMA1101601999999REMMET057METAR GMTT 040230Z AUTO 32012KT R28///// /// 14/10 Q1016;
0158601010999992009010403004+35733-005900SY-MT+0021GMTT V0203201N005119999999N9999999N1+01311+00991101701ADDMA1101601999999MD1210011+9999REMSYN054AAXX  04034 60101 469// /3210 10131 20099 40170 52001;MET057METAR GMTT 040300Z AUTO 32010KT R28///// /// 13/10 Q1016;
0084601010999992009010403304+35733-005900FM-15+0021GMTT V0203201N005112200019N9999999N1+01301+01001999999ADDMA1101601999999REMMET057METAR GMTT 040330Z AUTO 32010KT R28///// /// 13/10 Q1016;
0158601010999992009010404004+35733-005900FM-15+0021GMTT V0203101N00511004801CN0060001N1+01301+01001999999ADDGA1025+003001999GA2075+004801999GF107991999999999999999999MA1101591999999REMMET073METAR GMTT 040400Z 31010KT 6000 R28///// FEW010 BKN016 13/10 Q1016 NOSIG;
0158601010999992009010404304+35733-005900FM-15+0021GMTT V0203101N00511004801CN0060001N1+01301+01001999999ADDGA1025+003001999GA2075+004801999GF107991999999999999999999MA1101591999999REMMET073METAR GMTT 040430Z 31010KT 6000 R28///// FEW010 BKN016 13/10 Q1016 NOSIG;
0126601010999992009010405004+35733-005900FM-15+0021GMTT V0203001N00571004801CN0060001N1+01301+00901999999ADDGA1075+004801999GF107991999999999999999999MA1101591999999REMMET057METAR GMTT 040500Z 30011KT 6000 BKN016 13/09 Q1016 NOSIG;
0126601010999992009010405304+35733-005900FM-15+0021GMTT V0203101N00511004801CN0060001N1+01301+01001999999ADDGA1075+004801999GF107991999999999999999999MA1101591999999REMMET057METAR GMTT 040530Z 31010KT 6000 BKN016 13/10 Q1016 NOSIG;
0286601010999992009010406004+35733-005900SY-MT+0021GMTT V0203101N00411004801CN0060001N1+01311+01031101791ADDAA124017091AY181061AY221061GA1075+004801999GF106991061021004501001001KA1120N+01291MA1101691999999MD1310091+9999MW1251REMSYN094AAXX  04064 60101 11456 63108 10131 20103 40179 53009 60174 72582 86200 333 20129 83810 85816;MET057METAR GMTT 040600Z 32009KT 6000 BKN016 13/10 Q1017 NOSIG;
0149601010999992009010406304+35733-005900FM-15+0021GMTT V0203001N00461004801CN0060001N1+01301+01101999999ADDGA1045+003001999GA2075+004801999GF107991999999999999999999MA1101691999999REMMET064METAR GMTT 040630Z 30009KT 6000 SCT010 BKN016 13/11 Q1017 NOSIG;
0149601010999992009010407004+35733-005900FM-15+0021GMTT V0203001N00511004801CN0060001N1+01301+01001999999ADDGA1045+003001999GA2075+004801999GF107991999999999999999999MA1101691999999REMMET064METAR GMTT 040700Z 30010KT 6000 SCT010 BKN016 13/10 Q1017 NOSIG;
0149601010999992009010407304+35733-005900FM-15+0021GMTT V0202901N00461004801CN0060001N1+01301+01001999999ADDGA1045+003001999GA2075+004801999GF107991999999999999999999MA1101691999999REMMET064METAR GMTT 040730Z 29009KT 6000 SCT010 BKN016 13/10 Q1017 NOSIG;
0149601010999992009010408004+35733-005900FM-15+0021GMTT V0202901N00411004801CN0080001N1+01301+01001999999ADDGA1045+003001999GA2075+004801999GF107991999999999999999999MA1101801999999REMMET064METAR GMTT 040800Z 29008KT 8000 SCT010 BKN016 13/10 Q1018 NOSIG;
0176601010999992009010408304+35733-005900FM-15+0021GMTT V0203101N00511004801CN0112651N1+01401+01001999999ADDED128U20009GA1045+003001999GA2075+004801999GF107991999999999999999999MA1101801999999REMMET080METAR GMTT 040830Z 31010KT 9999 1300 R28/P2000D SCT010 BKN016 14/10 Q1018 NOSIG;
0273601010999992009010409004+35733-005900SY-MT+0021GMTT V0203001N00511004801CN0100001N1+01381+01001101901ADDAY121031AY221031GA1045+003001999GA2075+004801999GF107991071081004501999999MA1101801999999MD1210111+9999MW1021REMSYN082AAXX  04094 60101 41460 73010 10138 20100 40190 52011 70222 878// 333 83810 86816;MET064METAR GMTT 040900Z 30010KT 9999 SCT010 BKN016 14/10 Q1018 NOSIG;
0149601010999992009010410004+35733-005900FM-15+0021GMTT V0203101N00511004801CN0112651N1+01501+01001999999ADDGA1045+003001999GA2075+004801999GF107991999999999999999999MA1101901999999REMMET064METAR GMTT 041000Z 31010KT 9999 SCT010 BKN016 15/10 Q1019 NOSIG;
0149601010999992009010410304+35733-005900FM-15+0021GMTT V0203101N00511004801CN0112651N1+01401+01001999999ADDGA1045+003001999GA2075+004801999GF107991999999999999999999MA1101901999999REMMET064METAR GMTT 041030Z 31010KT 9999 SCT010 BKN016 14/10 Q1019 NOSIG;
0149601010999992009010411004+35733-005900FM-15+0021GMTT V0203001N00511004801CN0112651N1+01601+01101999999ADDGA1045+003001999GA2075+004801999GF107991999999999999999999MA1101901999999REMMET064METAR GMTT 041100Z 30010KT 9999 SCT010 BKN016 16/11 Q1019 NOSIG;
0149601010999992009010411304+35733-005900FM-15+0021GMTT V0203001N00461004801CN0112651N1+01501+01101999999ADDGA1045+003001999GA2075+004801999GF107991999999999999999999MA1101801999999REMMET064METAR GMTT 041130Z 30009KT 9999 SCT010 BKN016 15/11 Q1018 NOSIG;
0290601010999992009010412004+35733-005900SY-MT+0021GMTT V0202801N00461004801CN0100001N1+01501+01081101901ADDAA106000591AY121061AY221061GA1045+003001999GA2075+004801999GF107991071081004501999999MA1101801999999MD1010001+9999MW1021REMSYN088AAXX  04124 60101 11460 72809 10150 20108 40190 50000 69941 70222 878// 333 83810 86816;MET064METAR GMTT 041200Z 28009KT 9999 SCT010 BKN016 15/11 Q1018 NOSIG;
0149601010999992009010412304+35733-005900FM-15+0021GMTT V0202901N00411004801CN0112651N1+01501+01101999999ADDGA1045+003001999GA2075+004801999GF107991999999999999999999MA1101801999999REMMET064METAR GMTT 041230Z 29008KT 9999 SCT010 BKN016 15/11 Q1018 NOSIG;
0180601010999992009010413004+35733-005900FM-15+0021GMTT V0202901N00461003901CN0050001N1+01301+01201999999ADDGA1045+003001999GA2045+003901999GA3075+004801999GF107991999999999999999999MA1101801999999MW1631REMMET073METAR GMTT 041300Z 29009KT 5000 RA SCT010 SCT013 BKN016 13/12 Q1018 SHRA;
0169601010999992009010413304+35733-005900FM-15+0021GMTT V0203101N00261003901CN0050001N1+01401+01201999999ADDGA1045+003001999GA2045+003901999GA3075+004801999GF107991999999999999999999MA1101691999999REMMET068METAR GMTT 041330Z 31005KT 5000 SCT010 SCT013 BKN016 14/12 Q1017 RA;
0169601010999992009010414004+35733-005900FM-15+0021GMTT V0203301N00261003901CN0080001N1+01401+01201999999ADDGA1045+003001999GA2045+003901999GA3075+004801999GF107991999999999999999999MA1101691999999REMMET068METAR GMTT 041400Z 33005KT 8000 SCT010 SCT013 BKN016 14/12 Q1017 RA;
0172601010999992009010414304+35733-005900FM-15+0021GMTT V0203301N00261003901CN0080001N1+01401+01201999999ADDGA1045+003001999GA2045+003901999GA3075+004801999GF107991999999999999999999MA1101691999999REMMET071METAR GMTT 041430Z 33005KT 8000 SCT010 SCT013 BKN016 14/12 Q1017 NOSIG;
0310601010999992009010415004+35733-005900SY-MT+0021GMTT V0203001N00261003901CN0080001N1+01441+01141101791ADDAY161031AY221031GA1045+003001999GA2045+003901999GA3075+004801999GF107991071081004501999999MA1101691999999MD1710111+9999MW1011REMSYN088AAXX  04154 60101 41458 73005 10144 20114 40179 57011 70162 878// 333 83710 83813 86816;MET079METAR GMTT 041500Z 30005KT 270V330 8000 SCT010 SCT013 BKN016 14/12 Q1017 NOSIG;
0149601010999992009010415304+35733-005900FM-15+0021GMTT V0202801N00261004801CN0080001N1+01401+01101999999ADDGA1045+003901999GA2075+004801999GF107991999999999999999999MA1101691999999REMMET064METAR GMTT 041530Z 28005KT 8000 SCT013 BKN016 14/11 Q1017 NOSIG;
0149601010999992009010416004+35733-005900FM-15+0021GMTT V0202601N00211004801CN0112651N1+01501+01201999999ADDGA1045+003901999GA2075+004801999GF107991999999999999999999MA1101691999999REMMET064METAR GMTT 041600Z 26004KT 9999 SCT013 BKN016 15/12 Q1017 NOSIG;
0149601010999992009010416304+35733-005900FM-15+0021GMTT V0202601N00261004801CN0112651N1+01501+01201999999ADDGA1045+003901999GA2075+004801999GF107991999999999999999999MA1101691999999REMMET064METAR GMTT 041630Z 26005KT 9999 SCT013 BKN016 15/12 Q1017 NOSIG;
0168601010999992009010417004+35733-005900FM-15+0021GMTT V0202701N00261999999CN0112651N1+01401+01101999999ADDGA1045+003901999GA2045+004801999GF104991999999999999999999MA1101691999999REMMET064METAR GMTT 041700Z 27005KT 9999 SCT013 SCT016 14/11 Q1017 NOSIG;EQDP01 004803SCOCIG
0149601010999992009010417304+35733-005900FM-15+0021GMTT V0202501N00211004801CN0112651N1+01301+01101999999ADDGA1045+003901999GA2075+004801999GF107991999999999999999999MA1101691999999REMMET064METAR GMTT 041730Z 25004KT 9999 SCT013 BKN016 13/11 Q1017 NOSIG;
0328601010999992009010418004+35733-005900SY-MT+0021GMTT V0209999C00001004801CN0080001N1+01281+01121101801ADDAA112002091AY161061AY221061GA1045+003901999GA2075+004801999GF199999051081004501001001KA1120M+01591MA1101691999999MD1210011+9999MW1011REMSYN094AAXX  04184 60101 11458 50000 10128 20112 40180 52001 60022 70162 85800 333 10159 83813 85816;MET064METAR GMTT 041800Z 25002KT 8000 SCT013 BKN016 13/11 Q1017 NOSIG;EQDQ01+000052SCOTCV
0149601010999992009010418304+35733-005900FM-15+0021GMTT V0209999C00001004801CN0080001N1+01301+01101999999ADDGA1045+003901999GA2075+004801999GF107991999999999999999999MA1101801999999REMMET064METAR GMTT 041830Z 00000KT 8000 SCT013 BKN016 13/11 Q1018 NOSIG;
0149601010999992009010419004+35733-005900FM-15+0021GMTT V0203101N00101004801CN0080001N1+01201+01101999999ADDGA1045+003901999GA2075+004801999GF107991999999999999999999MA1101801999999REMMET064METAR GMTT 041900Z 31002KT 8000 SCT013 BKN016 12/11 Q1018 NOSIG;
0157601010999992009010419304+35733-005900FM-15+0021GMTT V0203301N00211004801CN0080001N1+01301+01101999999ADDGA1045+003901999GA2075+004801999GF107991999999999999999999MA1101801999999REMMET072METAR GMTT 041930Z 33004KT 290V350 8000 SCT013 BKN016 13/11 Q1018 NOSIG;
0149601010999992009010420004+35733-005900FM-15+0021GMTT V0203601N00101004801CN0080001N1+01301+01101999999ADDGA1045+003901999GA2075+004801999GF107991999999999999999999MA1101801999999REMMET064METAR GMTT 042000Z 36002KT 8000 SCT013 BKN016 13/11 Q1018 NOSIG;
0149601010999992009010420304+35733-005900FM-15+0021GMTT V0209999C00001004801CN0080001N1+01201+01101999999ADDGA1045+003901999GA2075+004801999GF107991999999999999999999MA1101801999999REMMET064METAR GMTT 042030Z 00000KT 8000 SCT013 BKN016 12/11 Q1018 NOSIG;
0292601010999992009010421004+35733-005900SY-MT+0021GMTT V0203501N00151004801CN0080001N1+01151+00941101901ADDAY121031AY221031GA1045+003901999GA2075+004801999GF199999061081004501001001MA1101801999999MD1110101+9999MW1031REMSYN082AAXX  04214 60101 41458 63503 10115 20094 40190 51010 70322 86800 333 83813 86816;MET064METAR GMTT 042100Z 35003KT 8000 SCT013 BKN016 12/09 Q1018 NOSIG;EQDQ01+000062SCOTCV
0149601010999992009010421304+35733-005900FM-15+0021GMTT V0200401N00151004801CN0080001N1+01001+00901999999ADDGA1045+003901999GA2075+004801999GF107991999999999999999999MA1101801999999REMMET064METAR GMTT 042130Z 04003KT 8000 SCT013 BKN016 10/09 Q1018 NOSIG;
0149601010999992009010423004+35733-005900FM-15+0021GMTT V0200701N00101004801CN0080001N1+01101+01001999999ADDGA1045+003901999GA2075+004801999GF107991999999999999999999MA1101801999999REMMET064METAR GMTT 042300Z 07002KT 8000 SCT013 BKN016 11/10 Q1018 NOSIG;
0158601010999992009010423304+35733-005900FM-15+0021GMTT V0201401N00101004801CN0080001N1+01101+00901999999ADDGA1045+003901999GA2075+004801999GF107991999999999999999999MA1101801999999REMMET073METAR GMTT 042330Z 14002KT 8000 R28///// SCT013 BKN016 11/09 Q1018 NOSIG;
0216601010999992009010500004+35733-005900SY-MT+0021GMTT V0209999C00001004801CN0080001N1+00941+00831101911ADDGA1075+004801999GF106991061021004501001001MA1101801999999MD1410001+9999REMSYN070AAXX  05004 60101 32458 60000 10094 20083 40191 54000 86200 333 86816;MET057METAR GMTT 050000Z 00000KT 8000 BKN016 09/08 Q1018 NOSIG;
0135601010999992009010500304+35733-005900FM-15+0021GMTT V0201001N00101004801CN0080001N1+00901+00801999999ADDGA1075+004801999GF107991999999999999999999MA1101801999999REMMET066METAR GMTT 050030Z 10002KT 8000 R28///// BKN016 09/08 Q1018 NOSIG;
0135601010999992009010501004+35733-005900FM-15+0021GMTT V0200701N00101004801CN0080001N1+00801+00801999999ADDGA1075+004801999GF107991999999999999999999MA1101801999999REMMET066METAR GMTT 050100Z 07002KT 8000 R28///// BKN016 08/08 Q1018 NOSIG;
0084601010999992009010501304+35733-005900FM-15+0021GMTT V0200601N001512200019N9999999N1+00801+00701999999ADDMA1101801999999REMMET057METAR GMTT 050130Z AUTO 06003KT R28///// /// 08/07 Q1018;
0135601010999992009010502004+35733-005900FM-15+0021GMTT V0209999C00001004801CN0112651N1+00801+00701999999ADDGA1075+004801999GF107991999999999999999999MA1101801999999REMMET066METAR GMTT 050200Z 00000KT 9999 R28///// BKN016 08/07 Q1018 NOSIG;
0135601010999992009010502304+35733-005900FM-15+0021GMTT V0200701N00151004801CN0112651N1+00801+00701999999ADDGA1075+004801999GF107991999999999999999999MA1101801999999REMMET066METAR GMTT 050230Z 07003KT 9999 R28///// BKN016 08/07 Q1018 NOSIG;
0158601010999992009010503004+35733-005900SY-MT+0021GMTT V0209999C000019999999N9999999N1+00761+00691101901ADDMA1101801999999MD1810011+9999REMSYN054AAXX  05034 60101 469// /0000 10076 20069 40190 58001;MET057METAR GMTT 050300Z AUTO 06001KT R28///// /// 08/07 Q1018;
0084601010999992009010503304+35733-005900FM-15+0021GMTT V0200601N002112200019N9999999N1+00801+00701999999ADDMA1101801999999REMMET057METAR GMTT 050330Z AUTO 06004KT R28///// /// 08/07 Q1018;
0135601010999992009010504004+35733-005900FM-15+0021GMTT V0200701N00051004801CN0080001N1+00801+00801999999ADDGA1075+004801999GF107991999999999999999999MA1101801999999REMMET066METAR GMTT 050400Z 07001KT 8000 R28///// BKN016 08/08 Q1018 NOSIG;
0135601010999992009010504304+35733-005900FM-15+0021GMTT V0201001N00151004801CN0080001N1+00801+00701999999ADDGA1075+004801999GF107991999999999999999999MA1101801999999REMMET066METAR GMTT 050430Z 10003KT 8000 R28///// BKN016 08/07 Q1018 NOSIG;
0129601010999992009010505004+35733-005900FM-15+0021GMTT V0209999V00101004801CN0080001N1+00801+00701999999ADDGA1075+004801999GF107991999999999999999999MA1101801999999REMMET060METAR GMTT 050500Z VRB02KT 8000 R28///// BKN016 08/07 Q1018;
0135601010999992009010505304+35733-005900FM-15+0021GMTT V0209999V00051004801CN0080001N1+00801+00801999999ADDGA1075+004801999GF107991999999999999999999MA1101691999999REMMET066METAR GMTT 050530Z VRB01KT 8000 R28///// BKN016 08/08 Q1017 NOSIG;
0299601010999992009010506004+35733-005900SY-MT+0021GMTT V0209999C00001004801CN0080001N1+00821+00761101811ADDAA124002091AY121061AY221061GA1075+004801999GF199999061021004501999999KA1120N+00711MA1101691999999MD1810091+9999MW1021REMSYN088AAXX  05064 60101 11458 60000 10082 20076 40181 58009 60024 70222 862// 333 20071 86816;MET057METAR GMTT 050600Z 00000KT 8000 BKN016 08/08 Q1017 NOSIG;EQDQ01+000062SCOTCV
0126601010999992009010506304+35733-005900FM-15+0021GMTT V0201001N00101004801CN0080001N1+00901+00901999999ADDGA1075+004801999GF107991999999999999999999MA1101691999999REMMET057METAR GMTT 050630Z 10002KT 8000 BKN016 09/09 Q1017 NOSIG;
0134601010999992009010507004+35733-005900FM-15+0021GMTT V0200801N00151004801CN0080001N1+01001+00901999999ADDGA1075+004801999GF107991999999999999999999MA1101691999999REMMET065METAR GMTT 050700Z 08003KT 350V120 8000 BKN016 10/09 Q1017 NOSIG;
0126601010999992009010507304+35733-005900FM-15+0021GMTT V0201101N00211004801CN0080001N1+00901+00901999999ADDGA1075+004801999GF107991999999999999999999MA1101691999999REMMET057METAR GMTT 050730Z 11004KT 8000 BKN016 09/09 Q1017 NOSIG;
0126601010999992009010508004+35733-005900FM-15+0021GMTT V0201001N00211004801CN0080001N1+01001+00901999999ADDGA1075+004801999GF107991999999999999999999MA1101691999999REMMET057METAR GMTT 050800Z 10004KT 8000 BKN016 10/09 Q1017 NOSIG;
0126601010999992009010508304+35733-005900FM-15+0021GMTT V0200801N00151004801CN0080001N1+01001+01001999999ADDGA1075+004801999GF107991999999999999999999MA1101691999999REMMET057METAR GMTT 050830Z 08003KT 8000 BKN016 10/10 Q1017 NOSIG;
0273601010999992009010509004+35733-005900SY-MT+0021GMTT V0209999C00001004801CN0080001N1+01091+01031101891ADDAY121031AY221031GA1025+003901999GA2075+004801999GF107991071081004501999999MA1101801999999MD1310091+9999MW1021REMSYN082AAXX  05094 60101 41458 70000 10109 20103 40189 53009 70222 878// 333 82813 87816;MET064METAR GMTT 050900Z 00000KT 8000 FEW013 BKN016 11/10 Q1018 NOSIG;
0149601010999992009010509304+35733-005900FM-15+0021GMTT V0201501N00151004801CN0080001N1+01101+01001999999ADDGA1025+003901999GA2075+004801999GF107991999999999999999999MA1101801999999REMMET064METAR GMTT 050930Z 15003KT 8000 FEW013 BKN016 11/10 Q1018 NOSIG;
0149601010999992009010510004+35733-005900FM-15+0021GMTT V0209999C00001004801CN0080001N1+01201+01101999999ADDGA1025+003901999GA2075+004801999GF107991999999999999999999MA1101801999999REMMET064METAR GMTT 051000Z 00000KT 8000 FEW013 BKN016 12/11 Q1018 NOSIG;
0149601010999992009010510304+35733-005900FM-15+0021GMTT V0209999C00001004801CN0080001N1+01301+01201999999ADDGA1025+003901999GA2075+004801999GF107991999999999999999999MA1101801999999REMMET064METAR GMTT 051030Z 00000KT 8000 FEW013 BKN016 13/12 Q1018 NOSIG;
0157601010999992009010511004+35733-005900FM-15+0021GMTT V0201501N00151004801CN0080001N1+01301+01201999999ADDGA1025+003901999GA2075+004801999GF107991999999999999999999MA1101801999999REMMET072METAR GMTT 051100Z 15003KT 100V240 8000 FEW013 BKN016 13/12 Q1018 NOSIG;
0157601010999992009010511304+35733-005900FM-15+0021GMTT V0201901N00151004801CN0080001N1+01401+01201999999ADDGA1025+003901999GA2075+004801999GF107991999999999999999999MA1101801999999REMMET072METAR GMTT 051130Z 19003KT 110V240 8000 FEW013 BKN016 14/12 Q1018 NOSIG;
0245601010999992009010512004+35733-005900SY-MT+0021GMTT V0202001N00311004801CN0080001N1+01411+01141101801ADDGA1025+003901999GA2075+004801999GF107991071081004501999999MA1101691999999MD1810091+9999REMSYN076AAXX  05124 60101 32458 72006 10141 20114 40180 58009 878// 333 82813 87816;MET064METAR GMTT 051200Z 19006KT 8000 FEW013 BKN016 14/11 Q1017 NOSIG;
0157601010999992009010512304+35733-005900FM-15+0021GMTT V0201901N00261004801CN0080001N1+01401+01201999999ADDGA1045+003901999GA2075+004801999GF107991999999999999999999MA1101691999999REMMET072METAR GMTT 051230Z 19005KT 170V230 8000 SCT013 BKN016 14/12 Q1017 NOSIG;
0157601010999992009010513004+35733-005900FM-15+0021GMTT V0202001N00261004801CN0080001N1+01501+01201999999ADDGA1045+003901999GA2075+004801999GF107991999999999999999999MA1101591999999REMMET072METAR GMTT 051300Z 20005KT 160V220 8000 SCT013 BKN016 15/12 Q1016 NOSIG;
0149601010999992009010513304+35733-005900FM-15+0021GMTT V0202001N00261004801CN0080001N1+01501+01201999999ADDGA1045+003901999GA2075+004801999GF107991999999999999999999MA1101591999999REMMET064METAR GMTT 051330Z 20005KT 8000 SCT013 BKN016 15/12 Q1016 NOSIG;
0157601010999992009010514004+35733-005900FM-15+0021GMTT V0202201N00311004801CN0112651N1+01501+01201999999ADDGA1045+003901999GA2075+004801999GF107991999999999999999999MA1101591999999REMMET072METAR GMTT 051400Z 22006KT 190V250 9999 SCT013 BKN016 15/12 Q1016 NOSIG;
0245601010999992009010515004+35733-005900SY-MT+0021GMTT V0203401N00361004801CN0080001N1+01361+01131101601ADDGA1045+002401999GA2075+004801999GF107991071021002501999999MA1101491999999MD1810201+9999REMSYN076AAXX  05154 60101 32358 73407 10136 20113 40160 58020 872// 333 83708 86816;MET064METAR GMTT 051500Z 34007KT 8000 SCT008 BKN016 14/11 Q1015 NOSIG;
0149601010999992009010515304+35733-005900FM-15+0021GMTT V0203401N00461004801CN0080001N1+01301+01101999999ADDGA1045+002401999GA2075+004801999GF107991999999999999999999MA1101491999999REMMET064METAR GMTT 051530Z 34009KT 8000 SCT008 BKN016 13/11 Q1015 NOSIG;
0149601010999992009010516004+35733-005900FM-15+0021GMTT V0203401N00461004801CN0080001N1+01301+01101999999ADDGA1045+002401999GA2075+004801999GF107991999999999999999999MA1101491999999REMMET064METAR GMTT 051600Z 34009KT 8000 SCT008 BKN016 13/11 Q1015 NOSIG;
0149601010999992009010516304+35733-005900FM-15+0021GMTT V0203401N00361004801CN0080001N1+01301+01001999999ADDGA1045+002401999GA2075+004801999GF107991999999999999999999MA1101491999999REMMET064METAR GMTT 051630Z 34007KT 8000 SCT008 BKN016 13/10 Q1015 NOSIG;
0149601010999992009010517004+35733-005900FM-15+0021GMTT V0203301N00461004801CN0080001N1+01301+01001999999ADDGA1045+002401999GA2075+004801999GF107991999999999999999999MA1101491999999REMMET064METAR GMTT 051700Z 33009KT 8000 SCT008 BKN016 13/10 Q1015 NOSIG;
0149601010999992009010517304+35733-005900FM-15+0021GMTT V0203301N00461004801CN0080001N1+01201+01001999999ADDGA1045+002401999GA2075+004801999GF107991999999999999999999MA1101591999999REMMET064METAR GMTT 051730Z 33009KT 8000 SCT008 BKN016 12/10 Q1016 NOSIG;
0264601010999992009010518004+35733-005900SY-MT+0021GMTT V0203301N00411004801CN0080001N1+01221+00981101691ADDGA1045+002401999GA2075+004801999GF107991071021002501999999KA1120M+01461MA1101591999999MD1310101+9999REMSYN082AAXX  05184 60101 32358 73308 10122 20098 40169 53010 872// 333 10146 83708 86816;MET064METAR GMTT 051800Z 33008KT 8000 SCT008 BKN016 12/10 Q1016 NOSIG;
0149601010999992009010518304+35733-005900FM-15+0021GMTT V0203301N00411004801CN0080001N1+01201+01001999999ADDGA1045+002401999GA2075+004801999GF107991999999999999999999MA1101591999999REMMET064METAR GMTT 051830Z 33008KT 8000 SCT008 BKN016 12/10 Q1016 NOSIG;
0149601010999992009010519004+35733-005900FM-15+0021GMTT V0203201N00361004801CN0080001N1+01201+00901999999ADDGA1045+002401999GA2075+004801999GF107991999999999999999999MA1101591999999REMMET064METAR GMTT 051900Z 32007KT 8000 SCT008 BKN016 12/09 Q1016 NOSIG;
0149601010999992009010520004+35733-005900FM-15+0021GMTT V0203101N00511004801CN0080001N1+01201+00801999999ADDGA1045+002401999GA2075+004801999GF107991999999999999999999MA1101591999999REMMET064METAR GMTT 052000Z 31010KT 8000 SCT008 BKN016 12/08 Q1016 NOSIG;
0149601010999992009010520304+35733-005900FM-15+0021GMTT V0203101N00571004801CN0080001N1+01201+00601999999ADDGA1045+002401999GA2075+004801999GF107991999999999999999999MA1101591999999REMMET064METAR GMTT 052030Z 31011KT 8000 SCT008 BKN016 12/06 Q1016 NOSIG;
0245601010999992009010521004+35733-005900SY-MT+0021GMTT V0203001N00461004801CN0080001N1+01161+00671101701ADDGA1045+002401999GA2075+004801999GF107991071021002501999999MA1101591999999MD1210011+9999REMSYN076AAXX  05214 60101 32358 73009 10116 20067 40170 52001 872// 333 83708 86816;MET064METAR GMTT 052100Z 30009KT 8000 SCT008 BKN016 12/07 Q1016 NOSIG;
0149601010999992009010521304+35733-005900FM-15+0021GMTT V0203101N00361004801CN0080001N1+01201+00701999999ADDGA1045+002401999GA2075+004801999GF107991999999999999999999MA1101591999999REMMET064METAR GMTT 052130Z 31007KT 8000 SCT008 BKN016 12/07 Q1016 NOSIG;
0149601010999992009010522004+35733-005900FM-15+0021GMTT V0203101N00411004801CN0080001N1+01301+00701999999ADDGA1045+002401999GA2075+004801999GF107991999999999999999999MA1101591999999REMMET064METAR GMTT 052200Z 31008KT 8000 SCT008 BKN016 13/07 Q1016 NOSIG;
0149601010999992009010522304+35733-005900FM-15+0021GMTT V0203101N00361004801CN0080001N1+01301+00701999999ADDGA1045+002401999GA2075+004801999GF107991999999999999999999MA1101591999999REMMET064METAR GMTT 052230Z 31007KT 8000 SCT008 BKN016 13/07 Q1016 NOSIG;
0149601010999992009010523004+35733-005900FM-15+0021GMTT V0203001N00411004801CN0080001N1+01201+00701999999ADDGA1045+003001999GA2075+004801999GF107991999999999999999999MA1101591999999REMMET064METAR GMTT 052300Z 30008KT 8000 SCT010 BKN016 12/07 Q1016 NOSIG;
0149601010999992009010523304+35733-005900FM-15+0021GMTT V0203301N00461004801CN0080001N1+01201+00701999999ADDGA1045+003001999GA2075+004801999GF107991999999999999999999MA1101591999999REMMET064METAR GMTT 052330Z 33009KT 8000 SCT010 BKN016 12/07 Q1016 NOSIG;
0245601010999992009010600004+35733-005900SY-MT+0021GMTT V0203201N00361004801CN0080001N1+01231+00701101601ADDGA1045+003001999GA2075+004801999GF107991071021004501999999MA1101491999999MD1810101+9999REMSYN076AAXX  06004 60101 32458 73207 10123 20070 40160 58010 872// 333 83710 86816;MET064METAR GMTT 060000Z 32007KT 8000 SCT010 BKN016 12/07 Q1015 NOSIG;
0158601010999992009010600304+35733-005900FM-15+0021GMTT V0203101N00411004801CN0080001N1+01201+00701999999ADDGA1045+003001999GA2075+004801999GF107991999999999999999999MA1101491999999REMMET073METAR GMTT 060030Z 31008KT 8000 R28///// SCT010 BKN016 12/07 Q1015 NOSIG;
0158601010999992009010601004+35733-005900FM-15+0021GMTT V0203101N00461004801CN0080001N1+01201+00701999999ADDGA1045+003001999GA2075+004801999GF107991999999999999999999MA1101491999999REMMET073METAR GMTT 060100Z 31009KT 8000 R28///// SCT010 BKN016 12/07 Q1015 NOSIG;
0084601010999992009010601304+35733-005900FM-15+0021GMTT V0203101N004612200019N9999999N1+01201+00701999999ADDMA1101401999999REMMET057METAR GMTT 060130Z AUTO 31009KT R28///// /// 12/07 Q1014;
0084601010999992009010602004+35733-005900FM-15+0021GMTT V0203101N004612200019N9999999N1+01201+00701999999ADDMA1101401999999REMMET057METAR GMTT 060200Z AUTO 31009KT R28///// /// 12/07 Q1014;
0084601010999992009010602304+35733-005900FM-15+0021GMTT V0203201N003612200019N9999999N1+01201+00701999999ADDMA1101401999999REMMET057METAR GMTT 060230Z AUTO 32007KT R28///// /// 12/07 Q1014;
0158601010999992009010603004+35733-005900SY-MT+0021GMTT V0203201N004119999999N9999999N1+01191+00621101501ADDMA1101401999999MD1810101+9999REMSYN054AAXX  06034 60101 469// /3208 10119 20062 40150 58010;MET057METAR GMTT 060300Z AUTO 32008KT R28///// /// 12/06 Q1014;
0084601010999992009010603304+35733-005900FM-15+0021GMTT V0203101N003612200019N9999999N1+01201+00701999999ADDMA1101401999999REMMET057METAR GMTT 060330Z AUTO 31007KT R28///// /// 12/07 Q1014;
0126601010999992009010604004+35733-005900FM-15+0021GMTT V0203201N00511004801CN0080001N1+01201+00601999999ADDGA1075+004801999GF107991999999999999999999MA1101391999999REMMET057METAR GMTT 060400Z 32010KT 8000 BKN016 12/06 Q1014 NOSIG;
0135601010999992009010604304+35733-005900FM-15+0021GMTT V0203101N00411004801CN0080001N1+01101+00501999999ADDGA1075+004801999GF107991999999999999999999MA1101391999999REMMET066METAR GMTT 060430Z 31008KT 8000 R28///// BKN016 11/05 Q1014 NOSIG;
0126601010999992009010605004+35733-005900FM-15+0021GMTT V0203101N00411004801CN0080001N1+01201+00601999999ADDGA1075+004801999GF107991999999999999999999MA1101291999999REMMET057METAR GMTT 060500Z 31008KT 8000 BKN016 12/06 Q1013 NOSIG;
0126601010999992009010605304+35733-005900FM-15+0021GMTT V0203101N00511004801CN0080001N1+01201+00701999999ADDGA1075+004801999GF107991999999999999999999MA1101291999999REMMET057METAR GMTT 060530Z 31010KT 8000 BKN016 12/07 Q1013 NOSIG;
0254601010999992009010606004+35733-005900SY-MT+0021GMTT V0203001N00411004801CN0080001N1+01141+00651101401ADDGA1075+004801999GF199999061021004501001001KA1120N+01131MA1101291999999MD1610101+9999REMSYN076AAXX  06064 60101 32458 63008 10114 20065 40140 56010 86200 333 20113 86816;MET057METAR GMTT 060600Z 30008KT 8000 BKN016 11/07 Q1013 NOSIG;EQDQ01+000062SCOTCV
0126601010999992009010606304+35733-005900FM-15+0021GMTT V0203101N00411004801CN0080001N1+01201+00601999999ADDGA1075+004801999GF107991999999999999999999MA1101291999999REMMET057METAR GMTT 060630Z 31008KT 8000 BKN016 12/06 Q1013 NOSIG;
0149601010999992009010607004+35733-005900FM-15+0021GMTT V0203201N00461004801CN0080001N1+01201+00601999999ADDGA1045+003901999GA2075+004801999GF107991999999999999999999MA1101291999999REMMET064METAR GMTT 060700Z 32009KT 8000 SCT013 BKN016 12/06 Q1013 NOSIG;
0176601010999992009010608004+35733-005900FM-15+0021GMTT V0203201N00411999999CN0112651N1+01101+00601999999ADDGA1025+003901999GA2045+004801999GF104991999999999999999999MA1101291999999REMMET072METAR GMTT 060800Z 32008KT 290V350 9999 FEW013 SCT016 11/06 Q1013 NOSIG;EQDP01 004803SCOCIG
0168601010999992009010608304+35733-005900FM-15+0021GMTT V0203101N00311999999CN0112651N1+01201+00601999999ADDGA1025+003901999GA2045+004801999GF104991999999999999999999MA1101291999999REMMET064METAR GMTT 060830Z 31006KT 9999 FEW013 SCT016 12/06 Q1013 NOSIG;EQDP01 004803SCOCIG
0235601010999992009010609004+35733-005900SY-MT+0021GMTT V0203101N00361004801CN0100001N1+01201+00631101491ADDGA1075+004801999GF199999051021004501001001MA1101391999999MD1310091+9999REMSYN070AAXX  06094 60101 32460 53107 10120 20063 40149 53009 85200 333 85816;MET057METAR GMTT 060900Z 31006KT 9999 BKN016 12/06 Q1014 NOSIG;EQDQ01+000052SCOTCV
0126601010999992009010609304+35733-005900FM-15+0021GMTT V0203201N00461004801CN0112651N1+01301+00601999999ADDGA1075+004801999GF107991999999999999999999MA1101391999999REMMET057METAR GMTT 060930Z 32009KT 9999 BKN016 13/06 Q1014 NOSIG;
0142601010999992009010610004+35733-005900FM-15+0021GMTT V0203201N00461004801CN0112651N1+01401+00601999999ADDGA1075+004801999GA2045+030001999MA1101391999999REMMET064METAR GMTT 061000Z 32009KT 9999 BKN016 SCT100 14/06 Q1014 NOSIG;EQDQ01+000042SCOTCV
0142601010999992009010610304+35733-005900FM-15+0021GMTT V0203301N00571004801CN0112651N1+01301+00601999999ADDGA1075+004801999GA2045+030001999MA1101391999999REMMET064METAR GMTT 061030Z 33011KT 9999 BKN016 SCT100 13/06 Q1014 NOSIG;EQDQ01+000042SCOTCV
0142601010999992009010611004+35733-005900FM-15+0021GMTT V0203301N00461004801CN0112651N1+01301+00701999999ADDGA1075+004801999GA2045+030001999MA1101391999999REMMET064METAR GMTT 061100Z 33009KT 9999 BKN016 SCT100 13/07 Q1014 NOSIG;EQDQ01+000042SCOTCV
0142601010999992009010611304+35733-005900FM-15+0021GMTT V0203301N00311004801CN0112651N1+01301+00701999999ADDGA1075+004801999GA2045+030001999MA1101391999999REMMET064METAR GMTT 061130Z 33006KT 9999 BKN016 SCT100 13/07 Q1014 NOSIG;EQDQ01+000042SCOTCV
0264601010999992009010612004+35733-005900SY-MT+0021GMTT V0203401N00211004801CN0100001N1+01261+00711101401ADDGA1075+004801999GA2045+030001999GF199999051021004501081001MA1101291999999MD1610091+9999REMSYN076AAXX  06124 60101 32460 63404 10126 20071 40140 56009 85280 333 85816 84360;MET064METAR GMTT 061200Z 34004KT 9999 BKN016 SCT100 13/07 Q1013 NOSIG;EQDQ01+000062SCOTCV
0142601010999992009010612304+35733-005900FM-15+0021GMTT V0203401N00211004801CN0112651N1+01301+00701999999ADDGA1075+004801999GA2045+030001999MA1101291999999REMMET064METAR GMTT 061230Z 34004KT 9999 BKN016 SCT100 13/07 Q1013 NOSIG;EQDQ01+000042SCOTCV
0142601010999992009010613004+35733-005900FM-15+0021GMTT V0203301N00211004801CN0112651N1+01301+00601999999ADDGA1075+004801999GA2045+030001999MA1101191999999REMMET064METAR GMTT 061300Z 33004KT 9999 BKN016 SCT100 13/06 Q1012 NOSIG;EQDQ01+000042SCOTCV
0142601010999992009010613304+35733-005900FM-15+0021GMTT V0203101N00211004801CN0112651N1+01301+00501999999ADDGA1075+004801999GA2045+030001999MA1101191999999REMMET064METAR GMTT 061330Z 31004KT 9999 BKN016 SCT100 13/05 Q1012 NOSIG;EQDQ01+000042SCOTCV
0142601010999992009010614004+35733-005900FM-15+0021GMTT V0203101N00211004801CN0112651N1+01301+00601999999ADDGA1075+004801999GA2045+030001999MA1101191999999REMMET064METAR GMTT 061400Z 31004KT 9999 BKN016 SCT100 13/06 Q1012 NOSIG;EQDQ01+000042SCOTCV
0129601010999992009010614304+35733-005900FM-15+0021GMTT V0203401N00211004801CN0112651N1+01301+00601999999ADDGA1075+004801999GF107991999999999999999999MA1101191999999REMMET060METAR GMTT 061430Z 34004KT 9999 BKN016 13/06 Q1012 TEMPO RA;
0219601010999992009010615004+35733-005900SY-MT+0021GMTT V0203301N00261004801CN0100001N1+01281+00641101201ADDGA1075+004801999GF107991071021004501999999MA1101081999999MD1610201+9999REMSYN070AAXX  06154 60101 32460 73305 10128 20064 40120 56020 872// 333 87816;MET060METAR GMTT 061500Z 33005KT 9999 BKN016 13/06 Q1011 TEMPO RA;
0129601010999992009010615304+35733-005900FM-15+0021GMTT V0203001N00311004801CN0112651N1+01301+00601999999ADDGA1075+004801999GF107991999999999999999999MA1101081999999REMMET060METAR GMTT 061530Z 30006KT 9999 BKN016 13/06 Q1011 TEMPO RA;
0126601010999992009010616004+35733-005900FM-15+0021GMTT V0203101N00311004801CN0112651N1+01201+00701999999ADDGA1075+004801999GF107991999999999999999999MA1101081999999REMMET057METAR GMTT 061600Z 31006KT 9999 BKN016 12/07 Q1011 NOSIG;
0126601010999992009010616304+35733-005900FM-15+0021GMTT V0202801N00361004801CN0112651N1+01201+00601999999ADDGA1075+004801999GF107991999999999999999999MA1101081999999REMMET057METAR GMTT 061630Z 28007KT 9999 BKN016 12/06 Q1011 NOSIG;
0126601010999992009010617004+35733-005900FM-15+0021GMTT V0202601N00211004801CN0112651N1+01201+00701999999ADDGA1075+004801999GF107991999999999999999999MA1101081999999REMMET057METAR GMTT 061700Z 26004KT 9999 BKN016 12/07 Q1011 NOSIG;
0129601010999992009010617304+35733-005900FM-15+0021GMTT V0202501N00261004801CN0112651N1+01201+00701999999ADDGA1075+004801999GF107991999999999999999999MA1101081999999REMMET060METAR GMTT 061730Z 25005KT 9999 BKN016 12/07 Q1011 TEMPO RA;
0238601010999992009010618004+35733-005900SY-MT+0021GMTT V0202601N00361004801CN0100001N1+01161+00691101201ADDGA1075+004801999GF107991071021004501999999KA1120M+01381MA1101081999999MD1410001+9999REMSYN076AAXX  06184 60101 32460 72607 10116 20069 40120 54000 872// 333 10138 87816;MET060METAR GMTT 061800Z 26007KT 9999 BKN016 12/07 Q1011 TEMPO RA;
0135601010999992009010618304+35733-005900FM-15+0021GMTT V0203401N00361004801CN0060001N1+01101+00901999999ADDGA1085+004801999GF108991999999999999999999MA1101191999999MW1631REMMET060METAR GMTT 061830Z 34007KT 6000 RA OVC016 11/09 Q1012 NOSIG;
0135601010999992009010619004+35733-005900FM-15+0021GMTT V0203201N00361004801CN0060001N1+01101+00901999999ADDGA1085+004801999GF108991999999999999999999MA1101191999999MW1631REMMET060METAR GMTT 061900Z 32007KT 6000 RA OVC016 11/09 Q1012 NOSIG;
0135601010999992009010619304+35733-005900FM-15+0021GMTT V0203001N00411004801CN0060001N1+01101+00801999999ADDGA1085+004801999GF108991999999999999999999MA1101191999999MW1631REMMET060METAR GMTT 061930Z 30008KT 6000 RA OVC016 11/08 Q1012 NOSIG;
0135601010999992009010620004+35733-005900FM-15+0021GMTT V0202401N00261004801CN0060001N1+01101+00901999999ADDGA1085+004801999GF108991999999999999999999MA1101191999999MW1631REMMET060METAR GMTT 062000Z 24005KT 6000 RA OVC016 11/09 Q1012 NOSIG;
0126601010999992009010620304+35733-005900FM-15+0021GMTT V0202801N00461004801CN0060001N1+01101+00801999999ADDGA1085+004801999GF108991999999999999999999MA1101191999999REMMET057METAR GMTT 062030Z 28009KT 6000 OVC016 11/08 Q1012 NOSIG;
0244601010999992009010621004+35733-005900SY-MT+0021GMTT V0203001N00361004801CN0060001N1+01101+00671101291ADDAY121031AY261031GA1085+004801999GF108991081021004501999999MA1101191999999MD1110091+9999MW1211REMSYN076AAXX  06214 60101 41456 83007 10110 20067 40129 51009 72126 882// 333 88816;MET057METAR GMTT 062100Z 30007KT 6000 OVC016 11/07 Q1012 NOSIG;
0149601010999992009010621304+35733-005900FM-15+0021GMTT V0203101N00461004801CN0060001N1+01101+00701999999ADDGA1025+002401999GA2075+004801999GF107991999999999999999999MA1101191999999REMMET064METAR GMTT 062130Z 31009KT 6000 FEW008 BKN016 11/07 Q1012 NOSIG;
0149601010999992009010622004+35733-005900FM-15+0021GMTT V0203601N00361004801CN0060001N1+01001+00701999999ADDGA1025+002401999GA2075+004801999GF107991999999999999999999MA1101191999999REMMET064METAR GMTT 062200Z 36007KT 6000 FEW008 BKN016 10/07 Q1012 NOSIG;
0149601010999992009010622304+35733-005900FM-15+0021GMTT V0203401N00151004801CN0060001N1+00901+00701999999ADDGA1025+002401999GA2075+004801999GF107991999999999999999999MA1101191999999REMMET064METAR GMTT 062230Z 34003KT 6000 FEW008 BKN016 09/07 Q1012 NOSIG;
0149601010999992009010623004+35733-005900FM-15+0021GMTT V0203201N00361004801CN0060001N1+01001+00601999999ADDGA1025+002401999GA2075+004801999GF107991999999999999999999MA1101191999999REMMET064METAR GMTT 062300Z 32007KT 6000 FEW008 BKN016 10/06 Q1012 NOSIG;
0149601010999992009010623304+35733-005900FM-15+0021GMTT V0203101N00411004801CN0060001N1+01101+00501999999ADDGA1025+002401999GA2075+004801999GF107991999999999999999999MA1101191999999REMMET064METAR GMTT 062330Z 31008KT 6000 FEW008 BKN016 11/05 Q1012 NOSIG;
0309601010999992009010700004+35733-005900SY-MT+0021GMTT V0203001N00361004801CN0060001N1+01021+00461101291ADDAA106003091AY161061AY221061GA1025+002401999GA2075+004801999GF199999061021002501001001MA1101191999999MD1010001+9999MW1021REMSYN088AAXX  07004 60101 11356 63007 10102 20046 40129 50000 60031 70262 86200 333 82708 86816;MET064METAR GMTT 070000Z 30007KT 6000 FEW008 BKN016 10/05 Q1012 NOSIG;EQDQ01+000062SCOTCV
0083601010999992009010701004+35733-005900AUTO +0021GMTT V0203501N002112200019N0018001N1+00801+00501999999ADDMA1101191999999REMMET056METAR GMTT 070100Z AUTO 35004KT 1800NDV /// 08/05 Q1012;
0084601010999992009010701304+35733-005900FM-15+0021GMTT V0203501N002612200019N9999999N1+00701+00401999999ADDMA1101101999999REMMET057METAR GMTT 070130Z AUTO 35005KT R28///// /// 07/04 Q1011;
0084601010999992009010702004+35733-005900FM-15+0021GMTT V0203501N002112200019N9999999N1+00701+00401999999ADDMA1101201999999REMMET057METAR GMTT 070200Z AUTO 35004KT R28///// /// 07/04 Q1012;
0084601010999992009010702304+35733-005900FM-15+0021GMTT V0203601N001012200019N9999999N1+00601+00301999999ADDMA1101201999999REMMET057METAR GMTT 070230Z AUTO 36002KT R28///// /// 06/03 Q1012;
0158601010999992009010703004+35733-005900SY-MT+0021GMTT V0209999C000019999999N9999999N1+00501+00271101301ADDMA1101201999999MD1410001+9999REMSYN054AAXX  07034 60101 469// /0000 10050 20027 40130 54000;MET057METAR GMTT 070300Z AUTO 00000KT R28///// /// 05/03 Q1012;
0084601010999992009010703304+35733-005900FM-15+0021GMTT V0209999C000012200019N9999999N1+00501+00301999999ADDMA1101201999999REMMET057METAR GMTT 070330Z AUTO 00000KT R28///// /// 05/03 Q1012;
0084601010999992009010704004+35733-005900FM-15+0021GMTT V0209999C000012200019N9999999N1+00501+00401999999ADDMA1101201999999REMMET057METAR GMTT 070400Z AUTO 00000KT R28///// /// 05/04 Q1012;
0126601010999992009010704304+35733-005900FM-15+0021GMTT V0209999C000012200019N0060001N1+00501+00401999999ADDGA1045+004801999GF104991999999999999999999MA1101081999999REMMET057METAR GMTT 070430Z 00000KT 6000 SCT016 05/04 Q1011 NOSIG;
0126601010999992009010705004+35733-005900FM-15+0021GMTT V0209999C000012200019N0060001N1+00401+00301999999ADDGA1045+004801999GF104991999999999999999999MA1101081999999REMMET057METAR GMTT 070500Z 00000KT 6000 SCT016 04/03 Q1011 NOSIG;
0126601010999992009010705304+35733-005900FM-15+0021GMTT V0209999C000012200019N0060001N1+00501+00301999999ADDGA1045+004801999GF104991999999999999999999MA1101191999999REMMET057METAR GMTT 070530Z 00000KT 6000 SCT016 05/03 Q1012 NOSIG;
0271601010999992009010706004+35733-005900SY-MT+0021GMTT V0209999C000012200019N0060001N1+00441+00321101301ADDAA124003091GA1045+004801999GF199999031021004501001001KA1120N+00411MA1101191999999MD1510001+9999REMSYN082AAXX  07064 60101 12456 30000 10044 20032 40130 55000 60034 83200 333 20041 83816;MET057METAR GMTT 070600Z 00000KT 6000 SCT016 04/03 Q1012 NOSIG;EQDQ01+000032SCOTCV
0126601010999992009010707004+35733-005900FM-15+0021GMTT V0200801N001012200019N0060001N1+00501+00401999999ADDGA1045+004801999GF104991999999999999999999MA1101191999999REMMET057METAR GMTT 070700Z 08002KT 6000 SCT016 05/04 Q1012 NOSIG;
0126601010999992009010708004+35733-005900FM-15+0021GMTT V0209999V001012200019N0080001N1+00401+00301999999ADDGA1045+004801999GF104991999999999999999999MA1101191999999REMMET057METAR GMTT 070800Z VRB02KT 8000 SCT016 04/03 Q1012 NOSIG;
0126601010999992009010708304+35733-005900FM-15+0021GMTT V0209999C000012200019N0080001N1+00501+00401999999ADDGA1045+004801999GF104991999999999999999999MA1101291999999REMMET057METAR GMTT 070830Z 00000KT 8000 SCT016 05/04 Q1013 NOSIG;
0235601010999992009010709004+35733-005900SY-MT+0021GMTT V0209999C000012200019N0080001N1+00771+00661101411ADDGA1045+004801999GF199999031021004501001001MA1101291999999MD1210111+9999REMSYN070AAXX  07094 60101 42458 30000 10077 20066 40141 52011 83200 333 83816;MET057METAR GMTT 070900Z 00000KT 8000 SCT016 08/07 Q1013 NOSIG;EQDQ01+000032SCOTCV
0126601010999992009010709304+35733-005900FM-15+0021GMTT V0203301N002612200019N0080001N1+01001+00701999999ADDGA1045+004801999GF104991999999999999999999MA1101291999999REMMET057METAR GMTT 070930Z 33005KT 8000 SCT016 10/07 Q1013 NOSIG;
0126601010999992009010710004+35733-005900FM-15+0021GMTT V0203501N003112200019N0112651N1+01101+00701999999ADDGA1045+004801999GF104991999999999999999999MA1101391999999REMMET057METAR GMTT 071000Z 35006KT 9999 SCT016 11/07 Q1014 NOSIG;
0126601010999992009010710304+35733-005900FM-15+0021GMTT V0203601N003112200019N0112651N1+01201+00501999999ADDGA1045+004801999GF104991999999999999999999MA1101391999999REMMET057METAR GMTT 071030Z 36006KT 9999 SCT016 12/05 Q1014 NOSIG;
0126601010999992009010711004+35733-005900FM-15+0021GMTT V0200101N003612200019N0112651N1+01301+00201999999ADDGA1045+004801999GF104991999999999999999999MA1101391999999REMMET057METAR GMTT 071100Z 01007KT 9999 SCT016 13/02 Q1014 NOSIG;
0126601010999992009010711304+35733-005900FM-15+0021GMTT V0203601N004112200019N0112651N1+01301+00501999999ADDGA1045+004801999GF104991999999999999999999MA1101391999999REMMET057METAR GMTT 071130Z 36008KT 9999 SCT016 13/05 Q1014 NOSIG;
0235601010999992009010712004+35733-005900SY-MT+0021GMTT V0203501N004112200019N0100001N1+01311+00081101401ADDGA1045+004801999GF199999031021004501001001MA1101291999999MD1010001+9999REMSYN070AAXX  07124 60101 32460 33508 10131 20008 40140 50000 83200 333 83816;MET057METAR GMTT 071200Z 35008KT 9999 SCT016 13/01 Q1013 NOSIG;EQDQ01+000032SCOTCV
0127601010999992009010712304+35733-005900FM-15+0021GMTT V0203501N004612200019N0112651N1+01301+00001999999ADDGA1045+004801999GF104991999999999999999999MA1101291999999REMMET058METAR GMTT 071230Z 35009KT 9999 SCT016 13/M00 Q1013 NOSIG;
0126601010999992009010713004+35733-005900FM-15+0021GMTT V0203601N003612200019N0112651N1+01301+00001999999ADDGA1045+004801999GF104991999999999999999999MA1101291999999REMMET057METAR GMTT 071300Z 36007KT 9999 SCT016 13/00 Q1013 NOSIG;
0126601010999992009010713304+35733-005900FM-15+0021GMTT V0203401N004112200019N0112651N1+01301+00401999999ADDGA1045+004801999GF104991999999999999999999MA1101191999999REMMET057METAR GMTT 071330Z 34008KT 9999 SCT016 13/04 Q1012 NOSIG;
0126601010999992009010714004+35733-005900FM-15+0021GMTT V0203201N004112200019N0112651N1+01301+00001999999ADDGA1045+004801999GF104991999999999999999999MA1101191999999REMMET057METAR GMTT 071400Z 32008KT 9999 SCT016 13/00 Q1012 NOSIG;
0135601010999992009010714304+35733-005900FM-15+0021GMTT V0203101N004112200019N0112651N1+01301-00101999999ADDGA1045+004801999GF104991999999999999999999MA1101191999999REMMET066METAR GMTT 071430Z 31008KT 280V340 9999 SCT016 13/M01 Q1012 NOSIG;
0168601010999992009010717304+35733-005900FM-15+0021GMTT V0203101N00311999999CN0112651N1+01101+00101999999ADDGA1045+004801999GA2045+030001999GF104991999999999999999999MA1101291999999REMMET064METAR GMTT 071730Z 31006KT 9999 SCT016 SCT100 11/01 Q1013 NOSIG;EQDP01 030003SCOCIG
0264601010999992009010718004+35733-005900SY-MT+0021GMTT V0202801N00261004801CN0080001N1+01011+00221101391ADDGA1025+003901999GA2075+004801999GF107991071081004501999999KA1120M+01351MA1101291999999MD1210091+9999REMSYN082AAXX  07184 60101 32458 72805 10101 20022 40139 52009 878// 333 10135 82813 86816;MET064METAR GMTT 071800Z 28005KT 8000 FEW013 BKN016 10/03 Q1013 NOSIG;
0149601010999992009010719004+35733-005900FM-15+0021GMTT V0209999V00101004801CN0080001N1+01001+00401999999ADDGA1025+003901999GA2075+004801999GF107991999999999999999999MA1101291999999REMMET064METAR GMTT 071900Z VRB02KT 8000 FEW013 BKN016 10/04 Q1013 NOSIG;
0158601010999992009010719304+35733-005900FM-15+0021GMTT V0209999C00001004801CN0080001N1+01001+00501999999ADDGA1025+003901999GA2075+004801999GF107991999999999999999999MA1101291999999REMMET073METAR GMTT 071930Z 00000KT 8000 R28///// FEW013 BKN016 10/05 Q1013 NOSIG;
0154601010999992009010720304+35733-005900FM-15+0021GMTT V0201501N00261004801CN0060001N1+00901+00601999999ADDGA1025+003901999GA2075+004801999GF107991999999999999999999MA1101291999999REMMET069METAR GMTT 072030Z 15005KT 6000 FEW013 BKN016 09/06 Q1013 RERA NOSIG;
0276601010999992009010721004+35733-005900SY-MT+0021GMTT V0201801N00261004801CN0060001N1+00941+00581101411ADDAY161031AY211031GA1025+003901999GA2075+004801999GF108991081081004501999999MA1101291999999MD1110011+9999MW1601REMSYN082AAXX  07214 60101 41456 81805 10094 20058 40141 51001 76061 888// 333 82813 87816;MET067METAR GMTT 072100Z 18005KT 6000 RA FEW013 BKN016 09/06 Q1013 NOSIG;
0126601010999992009010721304+35733-005900FM-15+0021GMTT V0201401N00361004801CN0060001N1+00901+00601999999ADDGA1075+004801999GF107991999999999999999999MA1101291999999REMMET057METAR GMTT 072130Z 14007KT 6000 BKN016 09/06 Q1013 NOSIG;
0135601010999992009010722304+35733-005900FM-15+0021GMTT V0209999C00001004801CN0060001N1+00801+00601999999ADDGA1085+004801999GF108991999999999999999999MA1101391999999MW1631REMMET060METAR GMTT 072230Z 00000KT 6000 RA OVC016 08/06 Q1014 NOSIG;
0135601010999992009010723004+35733-005900FM-15+0021GMTT V0202201N00151004801CN0060001N1+00801+00601999999ADDGA1085+004801999GF108991999999999999999999MA1101391999999MW1631REMMET060METAR GMTT 072300Z 22003KT 6000 RA OVC016 08/06 Q1014 NOSIG;
0135601010999992009010723304+35733-005900FM-15+0021GMTT V0201401N00151004801CN0060001N1+00801+00601999999ADDGA1085+004801999GF108991999999999999999999MA1101291999999MW1631REMMET060METAR GMTT 072330Z 14003KT 6000 RA OVC016 08/06 Q1013 NOSIG;
0264601010999992009010800004+35733-005900SY-MT+0021GMTT V0200701N00101004801CN0060001N1+00771+00631101411ADDAA106005191AY161061AY261061GA1085+004801999GF108991081081004501999999MA1101291999999MD1010001+9999MW1601REMSYN082AAXX  08004 60101 11456 80702 10077 20063 40141 50000 60051 76066 888// 333 88816;MET060METAR GMTT 080000Z 07002KT 6000 RA OVC016 08/06 Q1013 NOSIG;
0080601010999992009010803004+35733-005900FM-12+0021GMTT V0201801N004119999999N9999999N1+00821+00621101311ADDMD1810101+9999REMSYN054AAXX  08034 60101 46/// /1808 10082 20062 40131 58010;
0135601010999992009010804304+35733-005900FM-15+0021GMTT V0201701N00511004801CN0060001N1+00801+00601999999ADDGA1085+004801999GF108991999999999999999999MA1101081999999MW1631REMMET060METAR GMTT 080430Z 17010KT 6000 RA OVC016 08/06 Q1011 NOSIG;
0135601010999992009010805004+35733-005900FM-15+0021GMTT V0201901N00621004801CN0060001N1+00801+00601999999ADDGA1085+004801999GF108991999999999999999999MA1101191999999MW1631REMMET060METAR GMTT 080500Z 19012KT 6000 RA OVC016 08/06 Q1012 NOSIG;
0135601010999992009010805304+35733-005900FM-15+0021GMTT V0201801N00361004801CN0060001N1+00801+00601999999ADDGA1085+004801999GF108991999999999999999999MA1101191999999MW1631REMMET060METAR GMTT 080530Z 18007KT 6000 RA OVC016 08/06 Q1012 NOSIG;
0283601010999992009010806004+35733-005900SY-MT+0021GMTT V0201401N00311004801CN0060001N1+00811+00611101211ADDAA124007191AY161061AY261061GA1085+004801999GF108991081021004501999999KA1120N+00771MA1101081999999MD1810101+9999MW1601REMSYN088AAXX  08064 60101 11456 81406 10081 20061 40121 58010 60074 76066 882// 333 20077 88816;MET060METAR GMTT 080600Z 14006KT 6000 RA OVC016 08/06 Q1011 NOSIG;
0135601010999992009010806304+35733-005900FM-15+0021GMTT V0209999V00101004801CN0060001N1+00801+00601999999ADDGA1085+004801999GF108991999999999999999999MA1101191999999MW1631REMMET060METAR GMTT 080630Z VRB02KT 6000 RA OVC016 08/06 Q1012 NOSIG;
0135601010999992009010807004+35733-005900FM-15+0021GMTT V0200701N00211004801CN0060001N1+00801+00701999999ADDGA1085+004801999GF108991999999999999999999MA1101191999999MW1631REMMET060METAR GMTT 080700Z 07004KT 6000 RA OVC016 08/07 Q1012 NOSIG;
0135601010999992009010807304+35733-005900FM-15+0021GMTT V0203401N00411004801CN0060001N1+00801+00601999999ADDGA1085+004801999GF108991999999999999999999MA1101191999999MW1631REMMET060METAR GMTT 080730Z 34008KT 6000 RA OVC016 08/06 Q1012 NOSIG;
0135601010999992009010808004+35733-005900FM-15+0021GMTT V0203501N00461004801CN0060001N1+00701+00501999999ADDGA1085+004801999GF108991999999999999999999MA1101191999999MW1631REMMET060METAR GMTT 080800Z 35009KT 6000 RA OVC016 07/05 Q1012 NOSIG;
0135601010999992009010808304+35733-005900FM-15+0021GMTT V0203501N00411004801CN0060001N1+00701+00501999999ADDGA1085+004801999GF108991999999999999999999MA1101291999999MW1631REMMET060METAR GMTT 080830Z 35008KT 6000 RA OVC016 07/05 Q1013 NOSIG;
0146601010999992009010809004+35733-005900FM-12+0021GMTT V0203401N002110048019N0060001N1+00711+00561101411ADDAY161031AY261031GA1081+004801081GF108991081021004501999999MW1601REMSYN070AAXX  08094 60101 41456 83404 10071 20056 40141 76066 882// 333 88816;
0143601010999992009010809304+35733-005900FM-15+0021GMTT V0203601N00211004801CN0060001N1+00701+00601999999ADDGA1085+004801999GF108991999999999999999999MA1101291999999MW1631REMMET068METAR GMTT 080930Z 36004KT 330V040 6000 RA OVC016 07/06 Q1013 NOSIG;
0139601010999992009010810004+35733-005900FM-15+0021GMTT V0200401N00311004801CN0060001N1+00801+00601999999ADDGA1085+004801999GF108991999999999999999999MA1101391999999REMMET070METAR GMTT 081000Z 04006KT 360V080 6000 OVC016 08/06 Q1014 RERA NOSIG;
0139601010999992009010810304+35733-005900FM-15+0021GMTT V0200601N00211004801CN0060001N1+00801+00601999999ADDGA1085+004801999GF108991999999999999999999MA1101391999999REMMET070METAR GMTT 081030Z 06004KT 020V120 6000 OVC016 08/06 Q1014 RERA NOSIG;
0143601010999992009010811004+35733-005900FM-15+0021GMTT V0200301N00261004801CN0080001N1+00801+00601999999ADDGA1085+004801999GF108991999999999999999999MA1101391999999MW1631REMMET068METAR GMTT 081100Z 03005KT 360V070 8000 RA OVC016 08/06 Q1014 NOSIG;
0144601010999992009010811304+35733-005900FM-15+0021GMTT V0200701N00361004801CN0080001N1+00801+00601999999ADDGA1085+004801999GF108991999999999999999999MA1101391999999MW1631REMMET069METAR GMTT 081130Z 07007KT 8000 R28///// RA OVC016 08/06 Q1014 NOSIG;
0274601010999992009010812004+35733-005900SY-MT+0021GMTT V0200801N00261004801CN0080001N1+00891+00601101501ADDAA106004191AY161061AY261061GA1085+004801999GF108991081021004501999999MA1101391999999MD1010091+9999MW1211REMSYN082AAXX  08124 60101 11458 80805 10089 20060 40150 50009 60041 72166 882// 333 88816;MET070METAR GMTT 081200Z 08005KT 040V110 8000 OVC016 09/06 Q1014 RERA NOSIG;
0139601010999992009010812304+35733-005900FM-15+0021GMTT V0200701N00261004801CN0080001N1+00901+00501999999ADDGA1085+004801999GF108991999999999999999999MA1101291999999REMMET070METAR GMTT 081230Z 07005KT 030V120 8000 OVC016 09/05 Q1013 RERA NOSIG;
0157601010999992009010813004+35733-005900FM-15+0021GMTT V0200101N00211030001CN0112651N1+01001+00301999999ADDGA1045+004801999GA2075+030001999GF107991999999999999999999MA1101291999999REMMET072METAR GMTT 081300Z 01004KT 320V060 9999 SCT016 BKN100 10/03 Q1013 NOSIG;
0149601010999992009010814004+35733-005900FM-15+0021GMTT V0209999V00101030001CN0112651N1+01001+00201999999ADDGA1045+004801999GA2075+030001999GF107991999999999999999999MA1101291999999REMMET064METAR GMTT 081400Z VRB02KT 9999 SCT016 BKN100 10/02 Q1013 NOSIG;
0149601010999992009010814304+35733-005900FM-15+0021GMTT V0209999V00051030001CN0112651N1+01001+00201999999ADDGA1045+004801999GA2075+030001999GF107991999999999999999999MA1101191999999REMMET064METAR GMTT 081430Z VRB01KT 9999 SCT016 BKN100 10/02 Q1012 NOSIG;
0253601010999992009010815004+35733-005900SY-MT+0021GMTT V0202501N00151030001CN0100001N1+01111+00241101391ADDGA1045+004801999GA2075+030001999GF107991041021004501081999MA1101291999999MD1610101+9999REMSYN076AAXX  08154 60101 32460 72503 10111 20024 40139 56010 8428/ 333 84816 86360;MET072METAR GMTT 081500Z 25003KT 170V310 9999 SCT016 BKN100 11/02 Q1013 NOSIG;
0149601010999992009010815304+35733-005900FM-15+0021GMTT V0203001N00261030001CN0112651N1+01001+00001999999ADDGA1045+004801999GA2075+030001999GF107991999999999999999999MA1101291999999REMMET064METAR GMTT 081530Z 30005KT 9999 SCT016 BKN100 10/00 Q1013 NOSIG;
0157601010999992009010816004+35733-005900FM-15+0021GMTT V0203101N00151030001CN0112651N1+01001+00001999999ADDGA1045+004801999GA2075+030001999GF107991999999999999999999MA1101291999999REMMET072METAR GMTT 081600Z 31003KT 260V350 9999 SCT016 BKN100 10/00 Q1013 NOSIG;
0149601010999992009010816304+35733-005900FM-15+0021GMTT V0203201N00311030001CN0112651N1+00901+00101999999ADDGA1045+004801999GA2075+030001999GF107991999999999999999999MA1101291999999REMMET064METAR GMTT 081630Z 32006KT 9999 SCT016 BKN100 09/01 Q1013 NOSIG;
0168601010999992009010817004+35733-005900FM-15+0021GMTT V0203301N00151999999CN0112651N1+00801+00201999999ADDGA1045+004801999GA2045+030001999GF104991999999999999999999MA1101291999999REMMET064METAR GMTT 081700Z 33003KT 9999 SCT016 SCT100 08/02 Q1013 NOSIG;EQDP01 030003SCOCIG
0176601010999992009010817304+35733-005900FM-15+0021GMTT V0203101N00151999999CN0112651N1+00701+00301999999ADDGA1045+004801999GA2045+030001999GF104991999999999999999999MA1101391999999REMMET072METAR GMTT 081730Z 31003KT 220V330 9999 SCT016 SCT100 07/03 Q1014 NOSIG;EQDP01 030003SCOCIG
0289601010999992009010818004+35733-005900SY-MT+0021GMTT V0203501N00211030001CN0080001N1+00581+00261101501ADDAA112004191GA1045+004801999GA2045+030001999GF105991041021004501071001KA1120M+01141MA1101391999999MD1310101+9999REMSYN088AAXX  08184 60101 12458 53504 10058 20026 40150 53010 60042 84270 333 10114 84816 83360;MET072METAR GMTT 081800Z 34004KT 300V360 8000 SCT016 SCT100 06/02 Q1014 NOSIG;
0168601010999992009010818304+35733-005900FM-15+0021GMTT V0209999V00101999999CN0080001N1+00601+00301999999ADDGA1045+004801999GA2045+030001999GF104991999999999999999999MA1101391999999REMMET064METAR GMTT 081830Z VRB02KT 8000 SCT016 SCT100 06/03 Q1014 NOSIG;EQDP01 030003SCOCIG
0126601010999992009010819004+35733-005900FM-15+0021GMTT V0203401N00211004801CN0080001N1+00701+00201999999ADDGA1075+004801999GF107991999999999999999999MA1101391999999REMMET057METAR GMTT 081900Z 34004KT 8000 BKN016 07/02 Q1014 NOSIG;
0126601010999992009010819304+35733-005900FM-15+0021GMTT V0203401N00211004801CN0080001N1+00701+00201999999ADDGA1075+004801999GF107991999999999999999999MA1101491999999REMMET057METAR GMTT 081930Z 34004KT 8000 BKN016 07/02 Q1015 NOSIG;
0126601010999992009010820004+35733-005900FM-15+0021GMTT V0203601N00261004801CN0080001N1+00601+00101999999ADDGA1075+004801999GF107991999999999999999999MA1101491999999REMMET057METAR GMTT 082000Z 36005KT 8000 BKN016 06/01 Q1015 NOSIG;
0126601010999992009010820304+35733-005900FM-15+0021GMTT V0200101N00261004801CN0080001N1+00501+00101999999ADDGA1075+004801999GF107991999999999999999999MA1101491999999REMMET057METAR GMTT 082030Z 01005KT 8000 BKN016 05/01 Q1015 NOSIG;
0216601010999992009010821004+35733-005900SY-MT+0021GMTT V0200401N001012200019N0080001N1+00381+00071101611ADDGA1045+004801999GF199999031021004501001001MA1101491999999MD1210111+9999REMSYN070AAXX  08214 60101 32458 30402 10038 20007 40161 52011 83200 333 83816;MET057METAR GMTT 082100Z VRB02KT 8000 SCT016 04/01 Q1015 NOSIG;
0126601010999992009010821304+35733-005900FM-15+0021GMTT V0200601N002112200019N0080001N1+00301+00101999999ADDGA1045+004801999GF104991999999999999999999MA1101491999999REMMET057METAR GMTT 082130Z 06004KT 8000 SCT016 03/01 Q1015 NOSIG;
0127601010999992009010822004+35733-005900FM-15+0021GMTT V0209999C000012200019N0080001N1+00301+00001999999ADDGA1045+004801999GF104991999999999999999999MA1101491999999REMMET058METAR GMTT 082200Z 00000KT 8000 SCT016 03/M00 Q1015 NOSIG;
0135601010999992009010823004+35733-005900FM-15+0021GMTT V0201101N002112200019N0080001N1+00301+00001999999ADDGA1045+004801999GF104991999999999999999999MA1101591999999REMMET066METAR GMTT 082300Z 11004KT 8000 R28///// SCT016 03/00 Q1016 NOSIG;
0126601010999992009010823304+35733-005900FM-15+0021GMTT V0209999C000012200019N0080001N1+00201+00001999999ADDGA1045+004801999GF104991999999999999999999MA1101591999999REMMET057METAR GMTT 082330Z 00000KT 8000 SCT016 02/00 Q1016 NOSIG;
0235601010999992009010900004+35733-005900SY-MT+0021GMTT V0200601N002112200019N0080001N1+00171+00021101701ADDGA1045+004801999GF199999031021004501001001MA1101591999999MD1110091+9999REMSYN070AAXX  09004 60101 32458 30604 10017 20002 40170 51009 83200 333 83816;MET057METAR GMTT 090000Z 05004KT 8000 SCT016 02/00 Q1016 NOSIG;EQDQ01+000032SCOTCV
0135601010999992009010900304+35733-005900FM-15+0021GMTT V0201101N000512200019N0080001N1+00201+00001999999ADDGA1045+004801999GF104991999999999999999999MA1101591999999REMMET066METAR GMTT 090030Z 11001KT 8000 R28///// SCT016 02/00 Q1016 NOSIG;
0143601010999992009010901004+35733-005900FM-15+0021GMTT V0201001N001512200019N0080001N1+00101+00001999999ADDGA1045+004801999GF104991999999999999999999MA1101591999999REMMET074METAR GMTT 090100Z 10003KT 040V130 8000 R28///// SCT016 01/00 Q1016 NOSIG;
0116601010999992009010901304+35733-005900FM-15+0021GMTT V0201101N001019999999N9999999N1+00201+00001999999ADDKA1999M+99999MA1101501999999REMMET057METAR GMTT 090130Z AUTO 11002KT R28///// /// 02/00 Q1015;EQDQ01 -00022ATMX  
0084601010999992009010902004+35733-005900FM-15+0021GMTT V0209999V001012200019N9999999N1+00201+00101999999ADDMA1101501999999REMMET057METAR GMTT 090200Z AUTO VRB02KT R28///// /// 02/01 Q1015;
0084601010999992009010902304+35733-005900FM-15+0021GMTT V0209999V001012200019N9999999N1+00201+00001999999ADDMA1101501999999REMMET057METAR GMTT 090230Z AUTO VRB02KT R28///// /// 02/00 Q1015;
0190601010999992009010903004+35733-005900SY-MT+0021GMTT V0201001N001519999999N9999999N1+00221+00101101701ADDKA1999M+99999MA1101601999999MD1510001+9999REMSYN054AAXX  09034 60101 469// /1003 10022 20010 40170 55000;MET057METAR GMTT 090300Z AUTO 10003KT R28///// /// 02/01 Q1016;EQDQ01 +00032ATMX  
0128601010999992009010903304+35733-005900FM-15+0021GMTT V0200801N001512200019N0080001N1+00201+00101999999ADDGA1045+004801999GF104991999999999999999999MA1101591999999REMMET059METAR GMTT 090330Z 08003KT 040V110 8000 SCT016 02/01 Q1016;
0129601010999992009010904004+35733-005900FM-15+0021GMTT V0209999V001012200019N0080001N1+00101+00001999999ADDGA1045+004801999GF104991999999999999999999MA1101591999999REMMET060METAR GMTT 090400Z VRB02KT 8000 R28///// SCT016 01/00 Q1016;
0084601010999992009010904304+35733-005900FM-15+0021GMTT V0201201N001512200019N9999999N1+00201+00001999999ADDMA1101601999999REMMET057METAR GMTT 090430Z AUTO 12003KT R28///// /// 02/00 Q1016;
0125601010999992009010905004+35733-005900FM-15+0021GMTT V0201001N001519999999N9999999N1+00101+00001999999ADDKA1999M+99999MA1101601999999REMMET066METAR GMTT 090500Z AUTO 10003KT 040V110 R28///// /// 01/M00 Q1016;EQDQ01 +00032ATMX  
0120601010999992009010905304+35733-005900FM-15+0021GMTT V0209999V001012200019N0080001N1+00101+00001999999ADDGA1045+004801999GF104991999999999999999999MA1101591999999REMMET051METAR GMTT 090530Z VRB02KT 8000 SCT016 01/00 Q1016;
0275601010999992009010906004+35733-005900SY-MT+0021GMTT V0209999C000012200019N0080001N1+00061-00031101801ADDAA124004191GA1045+004801999GF199999031021004501001001KA1120N+00051MA1101691999999MD1310101+9999REMSYN082AAXX  09064 60101 15458 30000 10006 21003 40180 53010 60044 83200 333 20005 83816;MET061METAR GMTT 090600Z 00000KT 8000 R28///// SCT016 01/M00 Q1017;EQDQ01+000032SCOTCV
0138601010999992009010906304+35733-005900FM-15+0021GMTT V0200701N001512200019N0080001N1+00101+00001999999ADDGA1045+004801999GF104991999999999999999999MA1101691999999REMMET069METAR GMTT 090630Z 07003KT 050V110 8000 R28///// SCT016 01/M00 Q1017;
0120601010999992009010907004+35733-005900FM-15+0021GMTT V0209999V001012200019N0080001N1+00101+00001999999ADDGA1045+004801999GF104991999999999999999999MA1101691999999REMMET051METAR GMTT 090700Z VRB02KT 8000 SCT016 01/00 Q1017;
0120601010999992009010907304+35733-005900FM-15+0021GMTT V0200701N001012200019N0080001N1+00101+00001999999ADDGA1045+004801999GF104991999999999999999999MA1101801999999REMMET051METAR GMTT 090730Z 07002KT 8000 SCT016 01/00 Q1018;
0120601010999992009010908004+35733-005900FM-15+0021GMTT V0201001N003112200019N0080001N1+00201+00101999999ADDGA1045+004801999GF104991999999999999999999MA1101801999999REMMET051METAR GMTT 090800Z 10006KT 8000 SCT016 02/01 Q1018;
0126601010999992009010908304+35733-005900FM-15+0021GMTT V0200901N002612200019N0080001N1+00301+00101999999ADDGA1045+004801999GF104991999999999999999999MA1101801999999REMMET057METAR GMTT 090830Z 09005KT 8000 SCT016 03/01 Q1018 NOSIG;
0235601010999992009010909004+35733-005900SY-MT+0021GMTT V0200801N001012200019N0080001N1+00511+00231102001ADDGA1045+004801999GF199999031021004501001001MA1101901999999MD1310201+9999REMSYN070AAXX  09094 60101 32458 30802 10051 20023 40200 53020 83200 333 83816;MET057METAR GMTT 090900Z VRB02KT 8000 SCT016 05/02 Q1019 NOSIG;EQDQ01+000032SCOTCV
0134601010999992009010909304+35733-005900FM-15+0021GMTT V0200901N001512200019N0080001N1+00701+00301999999ADDGA1045+004801999GF104991999999999999999999MA1101901999999REMMET065METAR GMTT 090930Z 09003KT 060V130 8000 SCT016 07/03 Q1019 NOSIG;
0126601010999992009010910004+35733-005900FM-15+0021GMTT V0209999C000012200019N0080001N1+00901+00401999999ADDGA1045+004801999GF104991999999999999999999MA1101901999999REMMET057METAR GMTT 091000Z 00000KT 8000 SCT016 09/04 Q1019 NOSIG;
0126601010999992009010910304+35733-005900FM-15+0021GMTT V0201901N002612200019N0080001N1+01001+00301999999ADDGA1045+004801999GF104991999999999999999999MA1101901999999REMMET057METAR GMTT 091030Z 19005KT 8000 SCT016 10/03 Q1019 NOSIG;
0126601010999992009010911004+35733-005900FM-15+0021GMTT V0201901N004612200019N0080001N1+01101+00401999999ADDGA1045+004801999GF104991999999999999999999MA1101901999999REMMET057METAR GMTT 091100Z 19009KT 8000 SCT016 11/04 Q1019 NOSIG;
0126601010999992009010911304+35733-005900FM-15+0021GMTT V0201901N005112200019N0080001N1+01101+00301999999ADDGA1045+004801999GF104991999999999999999999MA1101901999999REMMET057METAR GMTT 091130Z 19010KT 8000 SCT016 11/03 Q1019 NOSIG;
0235601010999992009010912004+35733-005900SY-MT+0021GMTT V0202001N00511004801CN0100001N1+01051+00281102001ADDGA1075+004801999GF199999051021004501001001MA1101901999999MD1010001+9999REMSYN070AAXX  09124 60101 32460 52010 10105 20028 40200 50000 85200 333 85816;MET057METAR GMTT 091200Z 20010KT 9999 BKN016 11/03 Q1019 NOSIG;EQDQ01+000052SCOTCV
0134601010999992009010912304+35733-005900FM-15+0021GMTT V0202001N00461004801CN0112651N1+01101+00301999999ADDGA1075+004801999GF107991999999999999999999MA1101901999999REMMET065METAR GMTT 091230Z 20009KT 180V240 9999 BKN016 11/03 Q1019 NOSIG;
0126601010999992009010913004+35733-005900FM-15+0021GMTT V0202101N00511004801CN0112651N1+01201+00401999999ADDGA1075+004801999GF107991999999999999999999MA1101801999999REMMET057METAR GMTT 091300Z 21010KT 9999 BKN016 12/04 Q1018 NOSIG;
0126601010999992009010913304+35733-005900FM-15+0021GMTT V0202301N00511004801CN0112651N1+01201+00401999999ADDGA1075+004801999GF107991999999999999999999MA1101801999999REMMET057METAR GMTT 091330Z 23010KT 9999 BKN016 12/04 Q1018 NOSIG;
0126601010999992009010914004+35733-005900FM-15+0021GMTT V0202301N00411004801CN0112651N1+01101+00401999999ADDGA1075+004801999GF107991999999999999999999MA1101801999999REMMET057METAR GMTT 091400Z 23008KT 9999 BKN016 11/04 Q1018 NOSIG;
0126601010999992009010914304+35733-005900FM-15+0021GMTT V0202401N00361004801CN0112651N1+01101+00501999999ADDGA1075+004801999GF107991999999999999999999MA1101801999999REMMET057METAR GMTT 091430Z 24007KT 9999 BKN016 11/05 Q1018 NOSIG;
0245601010999992009010915004+35733-005900SY-MT+0021GMTT V0202401N00211004801CN0100001N1+01101+00421101901ADDGA1025+003901999GA2075+004801999GF107991071081004501999999MA1101801999999MD1610101+9999REMSYN076AAXX  09154 60101 32460 72404 10110 20042 40190 56010 878// 333 82813 87816;MET064METAR GMTT 091500Z 24006KT 9999 FEW013 BKN016 11/04 Q1018 NOSIG;
0157601010999992009010915304+35733-005900FM-15+0021GMTT V0203601N00211004801CN0112651N1+01001+00501999999ADDGA1025+003901999GA2075+004801999GF107991999999999999999999MA1101801999999REMMET072METAR GMTT 091530Z 36004KT 340V040 9999 FEW013 BKN016 10/05 Q1018 NOSIG;
0157601010999992009010916004+35733-005900FM-15+0021GMTT V0200101N00151004801CN0112651N1+01001+00501999999ADDGA1025+003901999GA2075+004801999GF107991999999999999999999MA1101801999999REMMET072METAR GMTT 091600Z 01003KT 350V050 9999 FEW013 BKN016 10/05 Q1018 NOSIG;
0149601010999992009010916304+35733-005900FM-15+0021GMTT V0209999C00001004801CN0112651N1+01001+00601999999ADDGA1025+003901999GA2075+004801999GF107991999999999999999999MA1101801999999REMMET064METAR GMTT 091630Z 00000KT 9999 FEW013 BKN016 10/06 Q1018 NOSIG;
0157601010999992009010917004+35733-005900FM-15+0021GMTT V0200201N00151004801CN0112651N1+01001+00601999999ADDGA1025+003901999GA2075+004801999GF107991999999999999999999MA1101801999999REMMET072METAR GMTT 091700Z 02003KT 360V090 9999 FEW013 BKN016 10/06 Q1018 NOSIG;
0149601010999992009010917304+35733-005900FM-15+0021GMTT V0200101N00211004801CN0112651N1+00901+00501999999ADDGA1025+003901999GA2075+004801999GF107991999999999999999999MA1101801999999REMMET064METAR GMTT 091730Z 01004KT 9999 FEW013 BKN016 09/05 Q1018 NOSIG;
