0097601010999992005010112304+35733-005900FM-15+0021GMTT V0202001N00411999999CY0099001N1+01601+01001999999ADDMA1103181999999MW1001REMMET045GMTT 011230Z 20008KT CAVOK 16/10 Q1032 NOSIG;EQDQ01+000000PRSWM2
0097601010999992005010113004+35733-005900FM-15+0021GMTT V0202101N00461999999CY0099001N1+01601+01001999999ADDMA1103181999999MW1001REMMET045GMTT 011300Z 21009KT CAVOK 16/10 Q1032 NOSIG;EQDQ01+000000PRSWM2
0103601010999992005010113304+35733-005900FM-15+0021GMTT V0202101N00461999999CY0099001N1+01601+01001999999ADDMA1103181999999MW1001REMMET051METAR GMTT 011330Z 21009KT CAVOK 16/10 Q1032 NOSIG;EQDQ01+000000PRSWM2
0097601010999992005010114004+35733-005900FM-15+0021GMTT V0202101N00311999999CY0099001N1+01601+01101999999ADDMA1103181999999MW1001REMMET045GMTT 011400Z 21006KT CAVOK 16/11 Q1032 NOSIG;EQDQ01+000000PRSWM2
0224601010999992005010115004+35733-005900SY-MT+0021GMTT V0202501N004119999999Y0100001N1+01651+01121103231ADDAA106000091GF100991001001999999001001MA1103181999999MD1610101+9999MW1001REMSYN054AAXX  01154 60101 32960 02508 10165 20112 40323 56010;MET045GMTT 011500Z 25008KT CAVOK 17/11 Q1032 NOSIG;EQDQ01+000000PRSWM2Q02  00002PRCP06
0097601010999992005010115304+35733-005900FM-15+0021GMTT V0202501N00411999999CY0099001N1+01601+01101999999ADDMA1103181999999MW1001REMMET045GMTT 011530Z 25008KT CAVOK 16/11 Q1032 NOSIG;EQDQ01+000000PRSWM2
0097601010999992005010116004+35733-005900FM-15+0021GMTT V0202601N00361999999CY0099001N1+01601+01101999999ADDMA1103181999999MW1001REMMET045GMTT 011600Z 26007KT CAVOK 16/11 Q1032 NOSIG;EQDQ01+000000PRSWM2
0097601010999992005010116304+35733-005900FM-15+0021GMTT V0202501N00311999999CY0099001N1+01601+01101999999ADDMA1103181999999MW1001REMMET045GMTT 011630Z 25006KT CAVOK 16/11 Q1032 NOSIG;EQDQ01+000000PRSWM2
0175601010999992005010118004+35733-005900FM-12+0021GMTT V0202101N001512200019N0100001N1+00951+00711103301ADDAA106000091GA1001+999999999GF100991001001999999001001KA1999M+01671MD1310071+9999REMSYN064AAXX  01184 60101 32960 02103 10095 20071 40330 53007 333 10167;EQDQ01  00002PRCP06
0097601010999992005010118304+35733-005900FM-15+0021GMTT V0209999C00001999999CY0099001N1+01001+00701999999ADDMA1103291999999MW1001REMMET045GMTT 011830Z 00000KT CAVOK 10/07 Q1033 NOSIG;EQDQ01+000000PRSWM2
0097601010999992005010119004+35733-005900FM-15+0021GMTT V0200901N00101999999CY0099001N1+00801+00601999999ADDMA1103291999999MW1001REMMET045GMTT 011900Z 09002KT CAVOK 08/06 Q1033 NOSIG;EQDQ01+000000PRSWM2
0097601010999992005010119304+35733-005900FM-15+0021GMTT V0200801N00211999999CY0099001N1+00701+00601999999ADDMA1103291999999MW1001REMMET045GMTT 011930Z 08004KT CAVOK 07/06 Q1033 NOSIG;EQDQ01+000000PRSWM2
0097601010999992005010120004+35733-005900FM-15+0021GMTT V0200901N00211999999CY0099001N1+00701+00501999999ADDMA1103291999999MW1001REMMET045GMTT 012000Z 09004KT CAVOK 07/05 Q1033 NOSIG;EQDQ01+000000PRSWM2
0097601010999992005010120304+35733-005900FM-15+0021GMTT V0201201N00101999999CY0099001N1+00701+00601999999ADDMA1103291999999MW1001REMMET045GMTT 012030Z 12002KT CAVOK 07/06 Q1033 NOSIG;EQDQ01+000000PRSWM2
0224601010999992005010121004+35733-005900SY-MT+0021GMTT V0201101N001519999999Y0150001N1+00661+00541103351ADDAA106000091GF100991001001999999001001MA1103291999999MD1110071+9999MW1001REMSYN054AAXX  01214 60101 32965 01103 10066 20054 40335 51007;MET045GMTT 012100Z 11003KT CAVOK 07/05 Q1033 NOSIG;EQDQ01+000000PRSWM2Q02  00002PRCP06
0105601010999992005010121304+35733-005900FM-15+0021GMTT V0200901N00261999999CY0099001N1+00701+00601999999ADDMA1103291999999MW1001REMMET053GMTT 012130Z 09005KT 080V160 CAVOK 07/06 Q1033 NOSIG;EQDQ01+000000PRSWM2
0097601010999992005010122004+35733-005900FM-15+0021GMTT V0200901N00261999999CY0099001N1+00801+00601999999ADDMA1103291999999MW1001REMMET045GMTT 012200Z 09005KT CAVOK 08/06 Q1033 NOSIG;EQDQ01+000000PRSWM2
0097601010999992005010122304+35733-005900FM-15+0021GMTT V0200901N00211999999CY0099001N1+00701+00601999999ADDMA1103391999999MW1001REMMET045GMTT 012230Z 09004KT CAVOK 07/06 Q1034 NOSIG;EQDQ01+000000PRSWM2
0096601010999992005010123004+35733-005900AUTO +0021GMTT V0200901N002619999999Y0099005N1+00701+00601999999ADDMA1103401999999REMMET050GMTT 012300Z AUTO 09005KT CAVOK 07/06 Q1034 NOSIG;EQDQ01+000000PRSWM2
0097601010999992005010123304+35733-005900FM-15+0021GMTT V0200901N00311999999CY0099001N1+00601+00501999999ADDMA1103391999999MW1001REMMET045GMTT 012330Z 09006KT CAVOK 06/05 Q1034 NOSIG;EQDQ01+000000PRSWM2
0230601010999992005010200004+35733-005900SY-MT+0021GMTT V0200901N00261999999CY0100001N1+00631+00511103421ADDAA106000091GF100991001001999999001001MA1103391999999MD1310081+9999MW1001REMSYN060AAXX  02004 60101 32960 00905 10063 20051 40342 53008 92352;MET045GMTT 020000Z 09005KT CAVOK 06/05 Q1034 NOSIG;EQDQ01+000000PRSWM2Q02  00002PRCP06
0103601010999992005010200304+35733-005900FM-15+0021GMTT V0200901N00311999999CY0099001N1+00501+00401999999ADDMA1103291999999MW1001REMMET051METAR GMTT 020030Z 09006KT CAVOK 05/04 Q1033 NOSIG;EQDQ01+000000PRSWM2
0096601010999992005010201004+35733-005900AUTO +0021GMTT V0200901N002619999999Y0099005N1+00501+00401999999ADDMA1103301999999REMMET050GMTT 020100Z AUTO 09005KT CAVOK 05/04 Q1033 NOSIG;EQDQ01+000000PRSWM2
0096601010999992005010201304+35733-005900AUTO +0021GMTT V0200901N002619999999Y0099005N1+00501+00401999999ADDMA1103301999999REMMET050GMTT 020130Z AUTO 09005KT CAVOK 05/04 Q1033 NOSIG;EQDQ01+000000PRSWM2
0097601010999992005010202004+35733-005900FM-15+0021GMTT V0200901N00311999999CY0099001N1+00501+00401999999ADDMA1103291999999MW1001REMMET045GMTT 020200Z 09006KT CAVOK 05/04 Q1033 NOSIG;EQDQ01+000000PRSWM2
0096601010999992005010202304+35733-005900AUTO +0021GMTT V0200901N002619999999Y0099005N1+00501+00401999999ADDMA1103301999999REMMET050GMTT 020230Z AUTO 09005KT CAVOK 05/04 Q1033 NOSIG;EQDQ01+000000PRSWM2
0230601010999992005010203004+35733-005900SY-MT+0021GMTT V0200901N003119999999Y0100001N1+00481+00361103351ADDAA106000091GF100991001001999999001001MA1103291999999MD1810081+9999MW1001REMSYN060AAXX  02034 60101 32960 00906 10048 20036 40335 58008 90249;MET045GMTT 020300Z 09006KT CAVOK 05/04 Q1033 NOSIG;EQDQ01+000000PRSWM2Q02  00002PRCP06
0096601010999992005010203304+35733-005900AUTO +0021GMTT V0200901N002619999999Y0099005N1+00601+00401999999ADDMA1103301999999REMMET050GMTT 020330Z AUTO 09005KT CAVOK 06/04 Q1033 NOSIG;EQDQ01+000000PRSWM2
0102601010999992005010204004+35733-005900AUTO +0021GMTT V0200901N003119999999Y0099005N1+00501+00401999999ADDMA1103301999999REMMET056METAR GMTT 020400Z AUTO 09006KT CAVOK 05/04 Q1033 NOSIG;EQDQ01+000000PRSWM2
0097601010999992005010204304+35733-005900FM-15+0021GMTT V0200801N00261999999CY0099001N1+00601+00401999999ADDMA1103291999999MW1001REMMET045GMTT 020430Z 08005KT CAVOK 06/04 Q1033 NOSIG;EQDQ01+000000PRSWM2
0096601010999992005010205004+35733-005900AUTO +0021GMTT V0200801N002619999999Y0099005N1+00501+00401999999ADDMA1103301999999REMMET050GMTT 020500Z AUTO 08005KT CAVOK 05/04 Q1033 NOSIG;EQDQ01+000000PRSWM2
0096601010999992005010205304+35733-005900AUTO +0021GMTT V0200901N003719999999Y0099005N1+00501+00401999999ADDMA1103301999999REMMET050GMTT 020530Z AUTO 09007KT CAVOK 05/04 Q1033 NOSIG;EQDQ01+000000PRSWM2
0247601010999992005010206004+35733-005900SY-MT+0021GMTT V0200901N003119999999Y0100001N1+00491+00371103341ADDAA106000091GF100991001001999999001001KA1999N+00481MA1103291999999MD1710031+9999MW1001REMSYN064AAXX  02064 60101 32960 00906 10049 20037 40334 57003 333 20048;MET045GMTT 020600Z 09006KT CAVOK 05/04 Q1033 NOSIG;EQDQ01+000000PRSWM2Q02  00002PRCP06
0097601010999992005010206304+35733-005900FM-15+0021GMTT V0200901N00361999999CY0099001N1+00601+00501999999ADDMA1103291999999MW1001REMMET045GMTT 020630Z 09007KT CAVOK 06/05 Q1033 NOSIG;EQDQ01+000000PRSWM2
0097601010999992005010207004+35733-005900FM-15+0021GMTT V0200901N00361999999CY0099001N1+00501+00401999999ADDMA1103291999999MW1001REMMET045GMTT 020700Z 09007KT CAVOK 05/04 Q1033 NOSIG;EQDQ01+000000PRSWM2
0097601010999992005010207304+35733-005900FM-15+0021GMTT V0200901N00311999999CY0099001N1+00601+00401999999ADDMA1103291999999MW1001REMMET045GMTT 020730Z 09006KT CAVOK 06/04 Q1033 NOSIG;EQDQ01+000000PRSWM2
0097601010999992005010208004+35733-005900FM-15+0021GMTT V0201001N00261999999CY0099001N1+00601+00501999999ADDMA1103391999999MW1001REMMET045GMTT 020800Z 10005KT CAVOK 06/05 Q1034 NOSIG;EQDQ01+000000PRSWM2
0097601010999992005010208304+35733-005900FM-15+0021GMTT V0200901N00311999999CY0099001N1+00701+00601999999ADDMA1103391999999MW1001REMMET045GMTT 020830Z 09006KT CAVOK 07/06 Q1034 NOSIG;EQDQ01+000000PRSWM2
0224601010999992005010209004+35733-005900SY-MT+0021GMTT V0200901N002119999999Y0100001N1+00921+00781103471ADDAA106000091GF100991001001999999001001MA1103391999999MD1310141+9999MW1001REMSYN054AAXX  02094 60101 32960 00904 10092 20078 40347 53014;MET045GMTT 020900Z 09004KT CAVOK 09/08 Q1034 NOSIG;EQDQ01+000000PRSWM2Q02  00002PRCP06
0153601010999992005010209304+35733-005900FM-15+0021GMTT V0201201N002112200019N0112651N1+01201+01001999999ADDGA1045+009001999GF104991999999999999999999MA1103491999999MW1001REMMET059GMTT 020930Z 12004KT 070V160 9999 SCT030 12/10 Q1035 NOSIG;EQDQ01+000000PRSWM2
0153601010999992005010210004+35733-005900FM-15+0021GMTT V0201601N003612200019N0112651N1+01301+00801999999ADDGA1045+006901999GF104991999999999999999999MA1103491999999MW1001REMMET059GMTT 021000Z 16007KT 120V180 9999 SCT023 13/08 Q1035 NOSIG;EQDQ01+000000PRSWM2
0145601010999992005010210304+35733-005900FM-15+0021GMTT V0201701N004612200019N0112651N1+01501+00801999999ADDGA1045+006901999GF104991999999999999999999MA1103491999999MW1001REMMET051GMTT 021030Z 17009KT 9999 SCT023 15/08 Q1035 NOSIG;EQDQ01+000000PRSWM2
0153601010999992005010211004+35733-005900FM-15+0021GMTT V0201901N004112200019N0112651N1+01601+00901999999ADDGA1045+006901999GF104991999999999999999999MA1103491999999MW1001REMMET059GMTT 021100Z 19008KT 150V220 9999 SCT023 16/09 Q1035 NOSIG;EQDQ01+000000PRSWM2
0139601010999992005010211304+35733-005900FM-15+0021GMTT V0202001N003612200019N0112651N1+01601+01001999999ADDGA1045+006901999GF104991999999999999999999MA1103491999999MW1001REMMET045GMTT 021130Z 20007KT 9999 SCT023 16/10 Q1035;EQDQ01+000000PRSWM2
0256601010999992005010212004+35733-005900SY-MT+0021GMTT V0202001N004612200019N0150001N1+01661+01141103431ADDAA106000091GA1045+006901999GF199999031051008001001001MA1103391999999MD1610041+9999MW1001REMSYN070AAXX  02124 60101 32565 32009 10166 20114 40343 56004 83500 333 83623;MET045GMTT 021200Z 20009KT 9999 SCT023 17/12 Q1034;EQDQ01+000032SCOTCVQ02  00002PRCP06
0139601010999992005010213004+35733-005900FM-15+0021GMTT V0202101N004112200019N0112651N1+01701+01201999999ADDGA1045+006901999GF104991999999999999999999MA1103291999999MW1001REMMET045GMTT 021300Z 21008KT 9999 SCT023 17/12 Q1033;EQDQ01+000000PRSWM2
0145601010999992005010214304+35733-005900FM-15+0021GMTT V0202301N003612200019N0112651N1+01701+01201999999ADDGA1045+006001999GF104991999999999999999999MA1103181999999MW1001REMMET051GMTT 021430Z 23007KT 9999 SCT020 17/12 Q1032 NOSIG;EQDQ01+000000PRSWM2
0262601010999992005010215004+35733-005900SY-MT+0021GMTT V0202301N004112200019N0150001N1+01661+01181103251ADDAA106000091GA1025+006001999GF102991021051999999001001MA1103181999999MD1610241+9999MW1001REMSYN070AAXX  02154 60101 32965 22308 10166 20118 40325 56024 82500 333 82600;MET051GMTT 021500Z 24008KT 9999 FEW020 17/12 Q1032 NOSIG;EQDQ01+000000PRSWM2Q02  00002PRCP06
0151601010999992005010215304+35733-005900FM-15+0021GMTT V0202401N003612200019N0112651N1+01601+01201999999ADDGA1025+006001999GF102991999999999999999999MA1103181999999MW1001REMMET057METAR GMTT 021530Z 24007KT 9999 FEW020 16/12 Q1032 NOSIG;EQDQ01+000000PRSWM2
0144601010999992005010216304+35733-005900FM-15+0021GMTT V0202501N004112200019N0112651N1+01501+01201999999ADDGA1025+006001999GF102991999999999999999999MA1103181999999REMMET056GMTT 021630Z AUTO 25008KT 9999 FEW020 15/12 Q1032 NOSIG;EQDQ01+000000PRSWM2
0153601010999992005010217004+35733-005900FM-15+0021GMTT V0203201N003112200019N0112651N1+01501+01201999999ADDGA1025+006001999GF102991999999999999999999MA1103181999999MW1001REMMET059GMTT 021700Z 32006KT 280V340 9999 FEW020 15/12 Q1032 NOSIG;EQDQ01+000000PRSWM2
0283601010999992005010218004+35733-005900SY-MT+0021GMTT V0203401N002112200019N0150001N1+01101+00891103301ADDAA106000091GA1021+000601999GF102991021051008001001001KA1120M+01721MA1103301999999MD1310011+9999MW1001REMSYN076AAXX  02184 60101 32565 23404 10110 20089 40330 53001 82500 333 10172 82620;MET053METAR GMTT 021800Z 34004KT 9999 FEW02-09 Q1033 NOSIG;EQDQ01+000000PRSWM2Q02  00002PRCP06
0145601010999992005010218304+35733-005900FM-15+0021GMTT V0203301N002112200019N0112651N1+01101+00901999999ADDGA1025+006001999GF102991999999999999999999MA1103291999999MW1001REMMET051GMTT 021830Z 33004KT 9999 FEW020 11/09 Q1033 NOSIG;EQDQ01+000000PRSWM2
0145601010999992005010219004+35733-005900FM-15+0021GMTT V0200901N001012200019N0112651N1+00801+00701999999ADDGA1025+006001999GF102991999999999999999999MA1103291999999MW1001REMMET051GMTT 021900Z 09002KT 9999 FEW020 08/07 Q1033 NOSIG;EQDQ01+000000PRSWM2
0145601010999992005010219304+35733-005900FM-15+0021GMTT V0200901N002112200019N0112651N1+00801+00701999999ADDGA1025+006001999GF102991999999999999999999MA1103291999999MW1001REMMET051GMTT 021930Z 09004KT 9999 FEW020 08/07 Q1033 NOSIG;EQDQ01+000000PRSWM2
0145601010999992005010220004+35733-005900FM-15+0021GMTT V0200801N001512200019N0112651N1+00801+00701999999ADDGA1025+006001999GF102991999999999999999999MA1103291999999MW1001REMMET051GMTT 022000Z 08003KT 9999 FEW020 08/07 Q1033 NOSIG;EQDQ01+000000PRSWM2
0291601010999992005010221004+35733-005900SY-MT+0021GMTT V0201001N00211004801CN0060001N1+00921+00811103321ADDAA106000091GA1045+003001999GA2075+004801999GF107991071051004501999999MA1103291999999MD1310021+9999MW1001REMSYN076AAXX  02214 60101 32456 71004 10092 20081 40332 53002 875// 333 83710 85616;MET058GMTT 022100Z 10004KT 6000 SCT010 BKN016 09/08 Q1033 NOSIG;EQDQ01+000000PRSWM2Q02  00002PRCP06
0168601010999992005010221304+35733-005900FM-15+0021GMTT V0200901N00211004801CN0060001N1+01001+00901999999ADDGA1045+003001999GA2075+004801999GF107991999999999999999999MA1103291999999MW1001REMMET058GMTT 022130Z 09004KT 6000 SCT010 BKN016 10/09 Q1033 NOSIG;EQDQ01+000000PRSWM2
0168601010999992005010222004+35733-005900FM-15+0021GMTT V0200101N00101004801CN0060001N1+01001+00901999999ADDGA1045+003001999GA2075+004801999GF107991999999999999999999MA1103291999999MW1001REMMET058GMTT 022200Z 01002KT 6000 SCT010 BKN016 10/09 Q1033 NOSIG;EQDQ01+000000PRSWM2
0168601010999992005010222304+35733-005900FM-15+0021GMTT V0200801N00101004801CN0060001N1+01101+01001999999ADDGA1045+003001999GA2075+004801999GF107991999999999999999999MA1103291999999MW1001REMMET058GMTT 022230Z 08002KT 6000 SCT010 BKN016 11/10 Q1033 NOSIG;EQDQ01+000000PRSWM2
0176601010999992005010223004+35733-005900FM-15+0021GMTT V0203301N00211004801CN0060001N1+01101+01001999999ADDGA1045+003001999GA2075+004801999GF107991999999999999999999MA1103291999999MW1001REMMET066GMTT 022300Z 33004KT 310V030 6000 SCT010 BKN016 11/10 Q1033 NOSIG;EQDQ01+000000PRSWM2
0291601010999992005010300004+35733-005900SY-MT+0021GMTT V0201001N00211004801CN0060001N1+00991+00881103301ADDAA106000091GA1045+003001999GA2075+004801999GF107991071051004501999999MA1103291999999MD1810021+9999MW1001REMSYN076AAXX  03004 60101 32456 71004 10099 20088 40330 58002 875// 333 83710 85616;MET058GMTT 030000Z 10004KT 6000 SCT010 BKN016 10/09 Q1033 NOSIG;EQDQ01+000000PRSWM2Q02  00002PRCP06
0167601010999992005010300304+35733-005900FM-15+0021GMTT V0200701N00211004801CN0060001N1+01001+00901999999ADDGA1045+003001999GA2075+004801999GF107991999999999999999999MA1103181999999REMMET063GMTT 030030Z AUTO 07004KT 6000 SCT010 BKN016 10/09 Q1032 NOSIG;EQDQ01+000000PRSWM2
0173601010999992005010301004+35733-005900FM-15+0021GMTT V0200801N00211004801CN0060001N1+00901+00801999999ADDGA1045+003001999GA2075+004801999GF107991999999999999999999MA1103181999999REMMET069METAR GMTT 030100Z AUTO 08004KT 6000 SCT010 BKN016 09/08 Q1032 NOSIG;EQDQ01+000000PRSWM2
0084601010999992005010301304+35733-005900FM-15+0021GMTT V0201001N002612200019N9999999N1+00901+00801999999ADDMA1103181999999REMMET038GMTT 030130Z AUTO 10005KT 09/08 Q1032;EQDQ01+000000PRSWM2
0173601010999992005010302004+35733-005900FM-15+0021GMTT V0200901N00211004801CN0060001N1+01001+00901999999ADDGA1045+003001999GA2075+004801999GF107991999999999999999999MA1103181999999REMMET069METAR GMTT 030200Z AUTO 09004KT 6000 SCT010 BKN016 10/09 Q1032 NOSIG;EQDQ01+000000PRSWM2
0296601010999992005010303004+35733-005900SY-MT+0021GMTT V0201101N00151004801CN0060001N1+01091+00991103241ADDAA106000091GA1045+003001999GA2075+004801999GF107991071051004501999999MA1103181999999MD1610091+9999MW1001REMSYN076AAXX  03034 60101 35456 71103 10109 20099 40324 56009 875// 333 83710 85616;MET063GMTT 030300Z AUTO 11003KT 6000 SCT010 BKN016 11/10 Q1032 NOSIG;EQDQ01+000000PRSWM2Q02  00002PRCP06
0167601010999992005010303304+35733-005900FM-15+0021GMTT V0201201N00151004801CN0060001N1+01101+01001999999ADDGA1045+003001999GA2075+004801999GF107991999999999999999999MA1103181999999REMMET063GMTT 030330Z AUTO 12003KT 6000 SCT010 BKN016 11/10 Q1032 NOSIG;EQDQ01+000000PRSWM2
0167601010999992005010304004+35733-005900FM-15+0021GMTT V0201001N00211004801CN0060001N1+01101+01001999999ADDGA1045+003001999GA2075+004801999GF107991999999999999999999MA1103181999999REMMET063GMTT 030400Z AUTO 10004KT 6000 SCT010 BKN016 11/10 Q1032 NOSIG;EQDQ01+000000PRSWM2
0167601010999992005010304304+35733-005900FM-15+0021GMTT V0201001N00211004801CN0060001N1+01101+01001999999ADDGA1045+003001999GA2075+004801999GF107991999999999999999999MA1103121999999REMMET063GMTT 030430Z AUTO 10004KT 6000 SCT010 BKN016 11/10 Q1031 NOSIG;EQDQ01+000000PRSWM2
0168601010999992005010305004+35733-005900FM-15+0021GMTT V0200701N00211004801CN0060001N1+01101+00901999999ADDGA1045+003001999GA2075+004801999GF107991999999999999999999MA1103121999999MW1001REMMET058GMTT 030500Z 07004KT 6000 SCT010 BKN016 11/09 Q1031 NOSIG;EQDQ01+000000PRSWM2
0162601010999992005010305304+35733-005900FM-15+0021GMTT V0200701N00311004801CN0060001N1+00901+00801999999ADDGA1045+003001999GA2075+004801999GF107991999999999999999999MA1103121999999MW1001REMMET052GMTT 030530Z 07006KT 6000 SCT010 BKN016 09/08 Q1031;EQDQ01+000000PRSWM2
0310601010999992005010306004+35733-005900SY-MT+0021GMTT V0200801N00311004801CN0060001N1+00811+00671103161ADDAA106000091GA1045+003001999GA2075+004801999GF107991071051004501999999KA1120N+00771MA1103121999999MD1610081+9999MW1001REMSYN082AAXX  03064 60101 32456 70806 10081 20067 40316 56008 875// 333 20077 83710 85616;MET058GMTT 030600Z 08006KT 6000 SCT010 BKN016 08/07 Q1031 NOSIG;EQDQ01+000000PRSWM2Q02  00002PRCP06
0168601010999992005010306304+35733-005900FM-15+0021GMTT V0200801N00261004801CN0060001N1+00801+00701999999ADDGA1045+003001999GA2075+004801999GF107991999999999999999999MA1103121999999MW1001REMMET058GMTT 030630Z 08005KT 6000 SCT010 BKN016 08/07 Q1031 NOSIG;EQDQ01+000000PRSWM2
0184601010999992005010307004+35733-005900FM-15+0021GMTT V0200701N00311999999CN0060001N1+00701+00601999999ADDGA1025+003001999GA2045+004801999GF104991999999999999999999MA1103121999999MW1001REMMET058GMTT 030700Z 07006KT 6000 FEW010 SCT016 07/06 Q1031 NOSIG;EQDQ01+000000PRSWM2P01 004803SCOCIG
0184601010999992005010307304+35733-005900FM-15+0021GMTT V0200601N00261999999CN0060001N1+00601+00501999999ADDGA1025+003001999GA2045+004801999GF104991999999999999999999MA1103181999999MW1001REMMET058GMTT 030730Z 06005KT 6000 FEW010 SCT016 06/05 Q1032 NOSIG;EQDQ01+000000PRSWM2P01 004803SCOCIG
0184601010999992005010308004+35733-005900FM-15+0021GMTT V0201001N00311999999CN0060001N1+00601+00501999999ADDGA1025+003001999GA2045+004801999GF104991999999999999999999MA1103181999999MW1001REMMET058GMTT 030800Z 10006KT 6000 FEW010 SCT016 06/05 Q1032 NOSIG;EQDQ01+000000PRSWM2P01 004803SCOCIG
0287601010999992005010309004+35733-005900SY-MT+0021GMTT V0200701N002612200019N0040001N1+00921+00831103271ADDAA106000091AY101031AY201031GA1025+003001999GF102991021061004501001001MA1103181999999MD1310101+9999MW1101REMSYN076AAXX  03094 60101 31440 20705 10092 20083 40327 53010 71000 82600 333 82710;MET054GMTT 030900Z 07005KT 4000 BR FEW010 09/08 Q1032 NOSIG;EQDQ01  00002PRCP06Q02    003PRSWM1
0164601010999992005010309304+35733-005900FM-15+0021GMTT V0200901N001512200019N0040001N1+01101+01001999999ADDGA1025+003001999GF102991999999999999999999MA1103291999999MW1101REMMET054GMTT 030930Z 09003KT 4000 BR FEW010 11/10 Q1033 NOSIG;EQDQ01+000003PRSWM1Q02    003PRSWM1
0153601010999992005010310004+35733-005900FM-15+0021GMTT V0201001N003112200019N0080001N1+01301+01101999999ADDGA1025+003001999GF102991999999999999999999MA1103291999999MW1001REMMET059GMTT 031000Z 10006KT 070V140 8000 FEW010 13/11 Q1033 NOSIG;EQDQ01+000000PRSWM2
0153601010999992005010310304+35733-005900FM-15+0021GMTT V0201001N002612200019N0080001N1+01501+01101999999ADDGA1025+003001999GF102991999999999999999999MA1103291999999MW1001REMMET059GMTT 031030Z 10005KT 060V130 8000 FEW010 15/11 Q1033 NOSIG;EQDQ01+000000PRSWM2
0153601010999992005010311004+35733-005900FM-15+0021GMTT V0200801N004112200019N0080001N1+01601+01101999999ADDGA1025+003001999GF102991999999999999999999MA1103291999999MW1001REMMET059GMTT 031100Z 08008KT 050V110 8000 FEW010 16/11 Q1033 NOSIG;EQDQ01+000000PRSWM2
0145601010999992005010311304+35733-005900FM-15+0021GMTT V0200601N005712200019N0080001N1+01701+01101999999ADDGA1025+004801999GF102991999999999999999999MA1103181999999MW1001REMMET051GMTT 031130Z 06011KT 8000 FEW016 17/11 Q1032 NOSIG;EQDQ01+000000PRSWM2
0145601010999992005010312004+35733-005900FM-15+0021GMTT V0200901N006712200019N0080001N1+01701+01101999999ADDGA1025+004801999GF102991999999999999999999MA1103181999999MW1001REMMET051GMTT 031200Z 09013KT 8000 FEW016 17/11 Q1032 NOSIG;EQDQ01+000000PRSWM2
0145601010999992005010312304+35733-005900FM-15+0021GMTT V0200601N006712200019N0080001N1+01701+01001999999ADDGA1025+004801999GF102991999999999999999999MA1103181999999MW1001REMMET051GMTT 031230Z 06013KT 8000 FEW016 17/10 Q1032 NOSIG;EQDQ01+000000PRSWM2
0145601010999992005010313004+35733-005900FM-15+0021GMTT V0200701N007712200019N0112651N1+01801+01001999999ADDGA1025+004801999GF102991999999999999999999MA1103121999999MW1001REMMET051GMTT 031300Z 07015KT 9999 FEW016 18/10 Q1031 NOSIG;EQDQ01+000000PRSWM2
0145601010999992005010313304+35733-005900FM-15+0021GMTT V0200701N006712200019N0112651N1+01801+01101999999ADDGA1025+004801999GF102991999999999999999999MA1103121999999MW1001REMMET051GMTT 031330Z 07013KT 9999 FEW016 18/11 Q1031 NOSIG;EQDQ01+000000PRSWM2
0145601010999992005010314004+35733-005900FM-15+0021GMTT V0200801N007212200019N0112651N1+01801+01101999999ADDGA1025+004801999GF102991999999999999999999MA1103011999999MW1001REMMET051GMTT 031400Z 08014KT 9999 FEW016 18/11 Q1030 NOSIG;EQDQ01+000000PRSWM2
0145601010999992005010314304+35733-005900FM-15+0021GMTT V0200801N007712200019N0112651N1+01701+01001999999ADDGA1025+004801999GF102991999999999999999999MA1103011999999MW1001REMMET051GMTT 031430Z 08015KT 9999 FEW016 17/10 Q1030 NOSIG;EQDQ01+000000PRSWM2
0262601010999992005010315004+35733-005900SY-MT+0021GMTT V0200701N008712200019N0100001N1+01721+00931103041ADDAA106000091GA1025+004801999GF102991021061004501001001MA1103011999999MD1610201+9999MW1001REMSYN070AAXX  03154 60101 32460 20717 10172 20093 40304 56020 82600 333 82616;MET051GMTT 031500Z 07017KT 9999 FEW016 17/09 Q1030 NOSIG;EQDQ01+000000PRSWM2Q02  00002PRCP06
0145601010999992005010315304+35733-005900FM-15+0021GMTT V0200801N009812200019N0112651N1+01701+01001999999ADDGA1025+004801999GF102991999999999999999999MA1103011999999MW1001REMMET051GMTT 031530Z 08019KT 9999 FEW016 17/10 Q1030 NOSIG;EQDQ01+000000PRSWM2
0145601010999992005010316004+35733-005900FM-15+0021GMTT V0200801N008712200019N0112651N1+01701+00901999999ADDGA1025+004801999GF102991999999999999999999MA1103011999999MW1001REMMET051GMTT 031600Z 08017KT 9999 FEW016 17/09 Q1030 NOSIG;EQDQ01+000000PRSWM2
0145601010999992005010316304+35733-005900FM-15+0021GMTT V0200701N009312200019N0112651N1+01601+00901999999ADDGA1025+004801999GF102991999999999999999999MA1103011999999MW1001REMMET051GMTT 031630Z 07018KT 9999 FEW016 16/09 Q1030 NOSIG;EQDQ01+000000PRSWM2
0145601010999992005010317004+35733-005900FM-15+0021GMTT V0200801N009312200019N0112651N1+01501+01001999999ADDGA1025+004801999GF102991999999999999999999MA1103011999999MW1001REMMET051GMTT 031700Z 08018KT 9999 FEW016 15/10 Q1030 NOSIG;EQDQ01+000000PRSWM2
0145601010999992005010317304+35733-005900FM-15+0021GMTT V0200801N008712200019N0112651N1+01401+00901999999ADDGA1025+004801999GF102991999999999999999999MA1103011999999MW1001REMMET051GMTT 031730Z 08017KT 9999 FEW016 14/09 Q1030 NOSIG;EQDQ01+000000PRSWM2
0281601010999992005010318004+35733-005900SY-MT+0021GMTT V0200801N009312200019N0100001N1+01381+00851103051ADDAA106000091GA1025+004801999GF103991021051004501001021KA1120M+01781MA1103011999999MD1210011+9999MW1001REMSYN076AAXX  03184 60101 32460 30818 10138 20085 40305 52001 82502 333 10178 82616;MET051GMTT 031800Z 08018KT 9999 FEW016 14/09 Q1030 NOSIG;EQDQ01+000000PRSWM2Q02  00002PRCP06
0151601010999992005010318304+35733-005900FM-15+0021GMTT V0200801N007212200019N0112651N1+01301+00801999999ADDGA1025+004801999GF102991999999999999999999MA1103011999999MW1001REMMET057METAR GMTT 031830Z 08014KT 9999 FEW016 13/08 Q1030 NOSIG;EQDQ01+000000PRSWM2
0145601010999992005010319004+35733-005900FM-15+0021GMTT V0200801N007712200019N0112651N1+01301+00801999999ADDGA1025+004801999GF102991999999999999999999MA1103121999999MW1001REMMET051GMTT 031900Z 08015KT 9999 FEW016 13/08 Q1031 NOSIG;EQDQ01+000000PRSWM2
0145601010999992005010319304+35733-005900FM-15+0021GMTT V0200801N008212200019N0112651N1+01301+00901999999ADDGA1025+004801999GF102991999999999999999999MA1103011999999MW1001REMMET051GMTT 031930Z 08016KT 9999 FEW016 13/09 Q1030 NOSIG;EQDQ01+000000PRSWM2
0145601010999992005010320004+35733-005900FM-15+0021GMTT V0200801N007212200019N0112651N1+01301+00901999999ADDGA1025+004801999GF102991999999999999999999MA1103121999999MW1001REMMET051GMTT 032000Z 08014KT 9999 FEW016 13/09 Q1031 NOSIG;EQDQ01+000000PRSWM2
0145601010999992005010320304+35733-005900FM-15+0021GMTT V0200801N007212200019N0112651N1+01301+00901999999ADDGA1025+004801999GF102991999999999999999999MA1103121999999MW1001REMMET051GMTT 032030Z 08014KT 9999 FEW016 13/09 Q1031 NOSIG;EQDQ01+000000PRSWM2
0262601010999992005010321004+35733-005900SY-MT+0021GMTT V0200901N006712200019N0100001N1+01341+00941103141ADDAA106000091GA1025+004801999GF103991021051004501001021MA1103121999999MD1310061+9999MW1001REMSYN070AAXX  03214 60101 32460 30913 10134 20094 40314 53006 82502 333 82616;MET051GMTT 032100Z 09013KT 9999 FEW016 13/09 Q1031 NOSIG;EQDQ01+000000PRSWM2Q02  00002PRCP06
0145601010999992005010321304+35733-005900FM-15+0021GMTT V0200901N007712200019N0112651N1+01401+00901999999ADDGA1025+004801999GF102991999999999999999999MA1103121999999MW1001REMMET051GMTT 032130Z 09015KT 9999 FEW016 14/09 Q1031 NOSIG;EQDQ01+000000PRSWM2
0145601010999992005010322004+35733-005900FM-15+0021GMTT V0200801N008212200019N0112651N1+01301+00901999999ADDGA1025+004801999GF102991999999999999999999MA1103121999999MW1001REMMET051GMTT 032200Z 08016KT 9999 FEW016 13/09 Q1031 NOSIG;EQDQ01+000000PRSWM2
0145601010999992005010323004+35733-005900FM-15+0021GMTT V0200801N008712200019N0112651N1+01301+00901999999ADDGA1025+004801999GF102991999999999999999999MA1103181999999MW1001REMMET051GMTT 032300Z 08017KT 9999 FEW016 13/09 Q1032 NOSIG;EQDQ01+000000PRSWM2
0145601010999992005010323304+35733-005900FM-15+0021GMTT V0200701N008212200019N0112651N1+01301+00901999999ADDGA1025+004801999GF102991999999999999999999MA1103181999999MW1001REMMET051GMTT 032330Z 07016KT 9999 FEW016 13/09 Q1032 NOSIG;EQDQ01+000000PRSWM2
0268601010999992005010400004+35733-005900SY-MT+0021GMTT V0200801N008712200019N0100001N1+01321+00931103201ADDAA106000091GA1025+004801999GF103991021051004501001021MA1103181999999MD1310101+9999MW1001REMSYN076AAXX  04004 60101 32460 30817 10132 20093 40320 53010 82502 92350 333 82616;MET051GMTT 040000Z 08017KT 9999 FEW016 13/09 Q1032 NOSIG;EQDQ01+000000PRSWM2Q02  00002PRCP06
0145601010999992005010400304+35733-005900FM-15+0021GMTT V0200801N008212200019N0112651N1+01301+01001999999ADDGA1025+004801999GF102991999999999999999999MA1103121999999MW1001REMMET051GMTT 040030Z 08016KT 9999 FEW016 13/10 Q1031 NOSIG;EQDQ01+000000PRSWM2
0144601010999992005010401004+35733-005900FM-15+0021GMTT V0200801N009312200019N0112651N1+01301+00901999999ADDGA1025+004801999GF102991999999999999999999MA1103121999999REMMET056GMTT 040100Z AUTO 08018KT 9999 FEW016 13/09 Q1031 NOSIG;EQDQ01+000000PRSWM2
0144601010999992005010401304+35733-005900FM-15+0021GMTT V0200801N008212200019N0112651N1+01301+00901999999ADDGA1025+004801999GF102991999999999999999999MA1103121999999REMMET056GMTT 040130Z AUTO 08016KT 9999 FEW016 13/09 Q1031 NOSIG;EQDQ01+000000PRSWM2
0145601010999992005010402004+35733-005900FM-15+0021GMTT V0200801N008212200019N0112651N1+01301+00901999999ADDGA1025+004801999GF102991999999999999999999MA1103121999999MW1001REMMET051GMTT 040200Z 08016KT 9999 FEW016 13/09 Q1031 NOSIG;EQDQ01+000000PRSWM2
0144601010999992005010402304+35733-005900FM-15+0021GMTT V0200801N007212200019N0112651N1+01301+00901999999ADDGA1025+004801999GF102991999999999999999999MA1103121999999REMMET056GMTT 040230Z AUTO 08014KT 9999 FEW016 13/09 Q1031 NOSIG;EQDQ01+000000PRSWM2
0267601010999992005010403004+35733-005900SY-MT+0021GMTT V0200801N006712200019N0100001N1+01251+00851103161ADDAA106000091GA1025+004801999GF102991021051004501001001MA1103121999999MD1610061+9999MW1001REMSYN070AAXX  04034 60101 35460 20813 10125 20085 40316 56006 82500 333 82616;MET056GMTT 040300Z AUTO 08013KT 9999 FEW016 13/09 Q1031 NOSIG;EQDQ01+000000PRSWM2Q02  00002PRCP06
0109601010999992005010403304+35733-005900AUTO +0021GMTT V0200701N007819999999N9999999N1+01301+00901999999ADDED110U20009MA1103101999999REMMET052GMTT 040330Z AUTO 07015KT R10/P2000 SKC 13/09 Q1031;EQDQ01+000000PRSWM2
0109601010999992005010404004+35733-005900AUTO +0021GMTT V0200701N007819999999N9999999N1+01301+00901999999ADDED110U20009MA1103101999999REMMET052GMTT 040400Z AUTO 07015KT R10/P2000 SKC 13/09 Q1031;EQDQ01+000000PRSWM2
0084601010999992005010404304+35733-005900FM-15+0021GMTT V0200701N007212200019N9999999N1+01201+00801999999ADDMA1103121999999REMMET038GMTT 040430Z AUTO 07014KT 12/08 Q1031;EQDQ01+000000PRSWM2
0145601010999992005010405004+35733-005900FM-15+0021GMTT V0200801N006712200019N0112651N1+01201+00801999999ADDGA1025+004801999GF102991999999999999999999MA1103121999999MW1001REMMET051GMTT 040500Z 08013KT 9999 FEW016 12/08 Q1031 NOSIG;EQDQ01+000000PRSWM2
0145601010999992005010405304+35733-005900FM-15+0021GMTT V0200801N006212200019N0112651N1+01201+00801999999ADDGA1025+004801999GF102991999999999999999999MA1103121999999MW1001REMMET051GMTT 040530Z 08012KT 9999 FEW016 12/08 Q1031 NOSIG;EQDQ01+000000PRSWM2
0281601010999992005010406004+35733-005900SY-MT+0021GMTT V0200801N005712200019N0100001N1+01201+00811103171ADDAA106000091GA1025+004801999GF102991021051004501001001KA1120N+01181MA1103121999999MD1010001+9999MW1001REMSYN076AAXX  04064 60101 32460 20811 10120 20081 40317 50000 82500 333 20118 82616;MET051GMTT 040600Z 08011KT 9999 FEW016 12/08 Q1031 NOSIG;EQDQ01+000000PRSWM2Q02  00002PRCP06
0144601010999992005010406304+35733-005900FM-15+0021GMTT V0200701N005712200019N0112651N1+01201+00801999999ADDGA1025+004801999GF102991999999999999999999MA1103121999999REMMET056GMTT 040630Z AUTO 07011KT 9999 FEW016 12/08 Q1031 NOSIG;EQDQ01+000000PRSWM2
0184601010999992005010407004+35733-005900FM-15+0021GMTT V0200801N00571999999CN0112651N1+01201+00801999999ADDGA1025+004801999GA2045+060001999GF104991999999999999999999MA1103181999999MW1001REMMET058GMTT 040700Z 08011KT 9999 FEW016 SCT200 12/08 Q1032 NOSIG;EQDQ01+000000PRSWM2P01 060003SCOCIG
0168601010999992005010407304+35733-005900FM-15+0021GMTT V0200701N00621060001CN0112651N1+01201+00801999999ADDGA1025+004801999GA2075+060001999GF107991999999999999999999MA1103181999999MW1001REMMET058GMTT 040730Z 07012KT 9999 FEW016 BKN200 12/08 Q1032 NOSIG;EQDQ01+000000PRSWM2
0168601010999992005010408004+35733-005900FM-15+0021GMTT V0200801N00571060001CN0112651N1+01201+00701999999ADDGA1025+004801999GA2075+060001999GF107991999999999999999999MA1103181999999MW1001REMMET058GMTT 040800Z 08011KT 9999 FEW016 BKN200 12/07 Q1032 NOSIG;EQDQ01+000000PRSWM2
0168601010999992005010408304+35733-005900FM-15+0021GMTT V0200801N00621060001CN0112651N1+01301+00801999999ADDGA1025+004801999GA2075+060001999GF107991999999999999999999MA1103181999999MW1001REMMET058GMTT 040830Z 08012KT 9999 FEW016 BKN200 13/08 Q1032 NOSIG;EQDQ01+000000PRSWM2
0291601010999992005010409004+35733-005900SY-MT+0021GMTT V0200801N00721060001CN0100001N1+01421+00801103291ADDAA106000091GA1025+004801999GA2075+060001999GF199999021051004501001021MA1103181999999MD1310121+9999MW1001REMSYN076AAXX  04094 60101 32460 60814 10142 20080 40329 53012 82502 333 82616 86070;MET058GMTT 040900Z 08014KT 9999 FEW016 BKN200 14/08 Q1032 NOSIG;EQDQ01+000062SCOTCVQ02  00002PRCP06
0168601010999992005010409304+35733-005900FM-15+0021GMTT V0200901N00871060001CN0112651N1+01501+00801999999ADDGA1025+004801999GA2075+060001999GF107991999999999999999999MA1103291999999MW1001REMMET058GMTT 040930Z 09017KT 9999 FEW016 BKN200 15/08 Q1033 NOSIG;EQDQ01+000000PRSWM2
0168601010999992005010410004+35733-005900FM-15+0021GMTT V0200801N00871060001CN0112651N1+01601+00801999999ADDGA1025+004801999GA2075+060001999GF107991999999999999999999MA1103291999999MW1001REMMET058GMTT 041000Z 08017KT 9999 FEW016 BKN200 16/08 Q1033 NOSIG;EQDQ01+000000PRSWM2
0168601010999992005010411004+35733-005900FM-15+0021GMTT V0200901N01031060001CN0112651N1+01701+00801999999ADDGA1025+004801999GA2075+060001999GF107991999999999999999999MA1103291999999MW1001REMMET058GMTT 041100Z 09020KT 9999 FEW016 BKN200 17/08 Q1033 NOSIG;EQDQ01+000000PRSWM2
0168601010999992005010411304+35733-005900FM-15+0021GMTT V0200901N01131060001CN0112651N1+01701+00801999999ADDGA1025+004801999GA2075+060001999GF107991999999999999999999MA1103291999999MW1001REMMET058GMTT 041130Z 09022KT 9999 FEW016 BKN200 17/08 Q1033 NOSIG;EQDQ01+000000PRSWM2
0291601010999992005010412004+35733-005900SY-MT+0021GMTT V0200901N01081060001CN0100001N1+01741+00811103301ADDAA106000091GA1025+004801999GA2075+060001999GF199999021051004501001021MA1103291999999MD1010011+9999MW1001REMSYN076AAXX  04124 60101 32460 60921 10174 20081 40330 50001 82502 333 82616 86070;MET058GMTT 041200Z 09021KT 9999 FEW016 BKN200 17/08 Q1033 NOSIG;EQDQ01+000062SCOTCVQ02  00002PRCP06
0184601010999992005010412304+35733-005900FM-15+0021GMTT V0200901N01031999999CN0112651N1+01801+00801999999ADDGA1025+004801999GA2045+060001999GF104991999999999999999999MA1103181999999MW1001REMMET058GMTT 041230Z 09020KT 9999 FEW016 SCT200 18/08 Q1032 NOSIG;EQDQ01+000000PRSWM2P01 060003SCOCIG
0184601010999992005010413004+35733-005900FM-15+0021GMTT V0200801N01031999999CN0112651N1+01801+00701999999ADDGA1025+004801999GA2045+060001999GF104991999999999999999999MA1103181999999MW1001REMMET058GMTT 041300Z 08020KT 9999 FEW016 SCT200 18/07 Q1032 NOSIG;EQDQ01+000000PRSWM2P01 060003SCOCIG
0184601010999992005010413304+35733-005900FM-15+0021GMTT V0200901N01031999999CN0112651N1+01801+00701999999ADDGA1025+004801999GA2045+060001999GF104991999999999999999999MA1103121999999MW1001REMMET058GMTT 041330Z 09020KT 9999 FEW016 SCT200 18/07 Q1031 NOSIG;EQDQ01+000000PRSWM2P01 060003SCOCIG
0097601010999992005010414004+35733-005900FM-15+0021GMTT V0200901N00981999999CY0099001N1+01801+00801999999ADDMA1103121999999MW1001REMMET045GMTT 041400Z 09019KT CAVOK 18/08 Q1031 NOSIG;EQDQ01+000000PRSWM2
0097601010999992005010414304+35733-005900FM-15+0021GMTT V0200801N00871999999CY0099001N1+01801+00801999999ADDMA1103121999999MW1001REMMET045GMTT 041430Z 08017KT CAVOK 18/08 Q1031 NOSIG;EQDQ01+000000PRSWM2
0256601010999992005010415004+35733-005900SY-MT+0021GMTT V0200801N010819999999Y0100001N1+01751+00771103121ADDAA106000091GA1031+060001001GF103991001001999999001021MA1103121999999MD1610181+9999MW1001REMSYN070AAXX  04154 60101 32960 30821 10175 20077 40312 56018 80002 333 83070;MET045GMTT 041500Z 08020KT CAVOK 18/08 Q1031 NOSIG;EQDQ01+000000PRSWM2Q02  00002PRCP06
0097601010999992005010415304+35733-005900FM-15+0021GMTT V0200801N01131999999CY0099001N1+01701+00901999999ADDMA1103121999999MW1001REMMET045GMTT 041530Z 08022KT CAVOK 17/09 Q1031 NOSIG;EQDQ01+000000PRSWM2
0097601010999992005010416004+35733-005900FM-15+0021GMTT V0200801N01181999999CY0099001N1+01701+00801999999ADDMA1103121999999MW1001REMMET045GMTT 041600Z 08023KT CAVOK 17/08 Q1031 NOSIG;EQDQ01+000000PRSWM2
0097601010999992005010416304+35733-005900FM-15+0021GMTT V0200801N01081999999CY0099001N1+01601+00901999999ADDMA1103121999999MW1001REMMET045GMTT 041630Z 08021KT CAVOK 16/09 Q1031 NOSIG;EQDQ01+000000PRSWM2
0097601010999992005010417004+35733-005900FM-15+0021GMTT V0200801N01081999999CY0099001N1+01501+00901999999ADDMA1103121999999MW1001REMMET045GMTT 041700Z 08021KT CAVOK 15/09 Q1031 NOSIG;EQDQ01+000000PRSWM2
0097601010999992005010417304+35733-005900FM-15+0021GMTT V0200801N00981999999CY0099001N1+01501+00901999999ADDMA1103121999999MW1001REMMET045GMTT 041730Z 08019KT CAVOK 15/09 Q1031 NOSIG;EQDQ01+000000PRSWM2
0275601010999992005010418004+35733-005900SY-MT+0021GMTT V0200801N009819999999Y0100001N1+01411+00901103201ADDAA106000091GA1031+060001001GF103991001001999999001021KA1120M+01811MA1103181999999MD1310031+9999MW1001REMSYN076AAXX  04184 60101 32960 30819 10141 20090 40320 53003 80002 333 10181 83070;MET045GMTT 041800Z 08019KT CAVOK 14/09 Q1032 NOSIG;EQDQ01+000000PRSWM2Q02  00002PRCP06
0097601010999992005010418304+35733-005900FM-15+0021GMTT V0200801N00871999999CY0099001N1+01401+00901999999ADDMA1103181999999MW1001REMMET045GMTT 041830Z 08017KT CAVOK 14/09 Q1032 NOSIG;EQDQ01+000000PRSWM2
0097601010999992005010419004+35733-005900FM-15+0021GMTT V0200801N00871999999CY0099001N1+01401+00801999999ADDMA1103181999999MW1001REMMET045GMTT 041900Z 08017KT CAVOK 14/08 Q1032 NOSIG;EQDQ01+000000PRSWM2
0097601010999992005010420004+35733-005900FM-15+0021GMTT V0200801N00671999999CY0099001N1+01301+00801999999ADDMA1103181999999MW1001REMMET045GMTT 042000Z 08013KT CAVOK 13/08 Q1032 NOSIG;EQDQ01+000000PRSWM2
0097601010999992005010420304+35733-005900FM-15+0021GMTT V0200801N00721999999CY0099001N1+01301+00901999999ADDMA1103291999999MW1001REMMET045GMTT 042030Z 08014KT CAVOK 13/09 Q1033 NOSIG;EQDQ01+000000PRSWM2
0256601010999992005010421004+35733-005900SY-MT+0021GMTT V0200801N007219999999Y0100001N1+01271+00871103311ADDAA106000091GA1031+060001001GF103991001001999999001021MA1103291999999MD1110111+9999MW1001REMSYN070AAXX  04214 60101 32960 30814 10127 20087 40331 51011 80002 333 83070;MET045GMTT 042100Z 08013KT CAVOK 13/09 Q1033 NOSIG;EQDQ01+000000PRSWM2Q02  00002PRCP06
0103601010999992005010421304+35733-005900FM-15+0021GMTT V0200801N00671999999CY0099001N1+01201+00901999999ADDMA1103291999999MW1001REMMET051METAR GMTT 042130Z 08013KT CAVOK 12/09 Q1033 NOSIG;EQDQ01+000000PRSWM2
0097601010999992005010422004+35733-005900FM-15+0021GMTT V0200801N00671999999CY0099001N1+01201+00901999999ADDMA1103291999999MW1001REMMET045GMTT 042200Z 08013KT CAVOK 12/09 Q1033 NOSIG;EQDQ01+000000PRSWM2
0097601010999992005010422304+35733-005900FM-15+0021GMTT V0200801N00671999999CY0099001N1+01201+00901999999ADDMA1103291999999MW1001REMMET045GMTT 042230Z 08013KT CAVOK 12/09 Q1033 NOSIG;EQDQ01+000000PRSWM2
0097601010999992005010423004+35733-005900FM-15+0021GMTT V0200801N00671999999CY0099001N1+01201+00901999999ADDMA1103291999999MW1001REMMET045GMTT 042300Z 08013KT CAVOK 12/09 Q1033 NOSIG;EQDQ01+000000PRSWM2
0097601010999992005010423304+35733-005900FM-15+0021GMTT V0200801N00671999999CY0099001N1+01201+00801999999ADDMA1103291999999MW1001REMMET045GMTT 042330Z 08013KT CAVOK 12/08 Q1033 NOSIG;EQDQ01+000000PRSWM2
0230601010999992005010500004+35733-005900SY-MT+0021GMTT V0200801N006719999999Y0100001N1+01201+00861103371ADDAA106000091GF100991001001999999001001MA1103291999999MD1110061+9999MW1001REMSYN060AAXX  05004 60101 32960 00813 10120 20086 40337 51006 92350;MET045GMTT 050000Z 08013KT CAVOK 12/09 Q1033 NOSIG;EQDQ01+000000PRSWM2Q02  00002PRCP06
0096601010999992005010500304+35733-005900AUTO +0021GMTT V0200801N006219999999Y0099005N1+01201+00901999999ADDMA1103301999999REMMET050GMTT 050030Z AUTO 08012KT CAVOK 12/09 Q1033 NOSIG;EQDQ01+000000PRSWM2
0096601010999992005010501004+35733-005900AUTO +0021GMTT V0200801N007819999999Y0099005N1+01301+00901999999ADDMA1103301999999REMMET050GMTT 050100Z AUTO 08015KT CAVOK 13/09 Q1033 NOSIG;EQDQ01+000000PRSWM2
0096601010999992005010501304+35733-005900AUTO +0021GMTT V0200801N007819999999Y0099005N1+01301+00901999999ADDMA1103301999999REMMET050GMTT 050130Z AUTO 08015KT CAVOK 13/09 Q1033 NOSIG;EQDQ01+000000PRSWM2
0097601010999992005010502004+35733-005900FM-15+0021GMTT V0200801N00721999999CY0099001N1+01301+00901999999ADDMA1103291999999MW1001REMMET045GMTT 050200Z 08014KT CAVOK 13/09 Q1033 NOSIG;EQDQ01+000000PRSWM2
0096601010999992005010502304+35733-005900AUTO +0021GMTT V0200801N006719999999Y0099005N1+01201+00901999999ADDMA1103301999999REMMET050GMTT 050230Z AUTO 08013KT CAVOK 12/09 Q1033 NOSIG;EQDQ01+000000PRSWM2
0224601010999992005010503004+35733-005900SY-MT+0021GMTT V0200801N007219999999Y0100001N1+01201+00851103331ADDAA106000091GF100991001001999999001001MA1103291999999MD1610041+9999MW1001REMSYN054AAXX  05034 60101 32960 00814 10120 20085 40333 56004;MET045GMTT 050300Z 08014KT CAVOK 12/09 Q1033 NOSIG;EQDQ01+000000PRSWM2Q02  00002PRCP06
0096601010999992005010503304+35733-005900AUTO +0021GMTT V0200801N006719999999Y0099005N1+01201+00901999999ADDMA1103301999999REMMET050GMTT 050330Z AUTO 08013KT CAVOK 12/09 Q1033 NOSIG;EQDQ01+000000PRSWM2
0097601010999992005010504004+35733-005900FM-15+0021GMTT V0200801N00671999999CY0099001N1+01201+00901999999ADDMA1103291999999MW1001REMMET045GMTT 050400Z 08013KT CAVOK 12/09 Q1033 NOSIG;EQDQ01+000000PRSWM2
0096601010999992005010504304+35733-005900AUTO +0021GMTT V0200801N007819999999Y0099005N1+01201+00901999999ADDMA1103301999999REMMET050GMTT 050430Z AUTO 08015KT CAVOK 12/09 Q1033 NOSIG;EQDQ01+000000PRSWM2
0097601010999992005010505004+35733-005900FM-15+0021GMTT V0200801N00721999999CY0099001N1+01201+00901999999ADDMA1103291999999MW1001REMMET045GMTT 050500Z 08014KT CAVOK 12/09 Q1033 NOSIG;EQDQ01+000000PRSWM2
0096601010999992005010505304+35733-005900AUTO +0021GMTT V0200801N006719999999Y0099005N1+01201+00901999999ADDMA1103201999999REMMET050GMTT 050530Z AUTO 08013KT CAVOK 12/09 Q1032 NOSIG;EQDQ01+000000PRSWM2
0220601010999992005010506004+35733-005900SY-MT+0021GMTT V0200801N006719999999Y0100001N1+01211+00851103321ADDGF100991001001999999001001KA1999N+01181MA1103291999999MD1710011+9999MW1001REMSYN064AAXX  05064 60101 42960 00813 10121 20085 40332 57001 333 20118;MET045GMTT 050600Z 08012KT CAVOK 12/09 Q1033 NOSIG;EQDQ01+000000PRSWM2
0097601010999992005010506304+35733-005900FM-15+0021GMTT V0200801N00621999999CY0099001N1+01201+00801999999ADDMA1103291999999MW1001REMMET045GMTT 050630Z 08012KT CAVOK 12/08 Q1033 NOSIG;EQDQ01+000000PRSWM2
0097601010999992005010507004+35733-005900FM-15+0021GMTT V0200801N00721999999CY0099001N1+01201+00801999999ADDMA1103291999999MW1001REMMET045GMTT 050700Z 08014KT CAVOK 12/08 Q1033 NOSIG;EQDQ01+000000PRSWM2
0097601010999992005010507304+35733-005900FM-15+0021GMTT V0200801N00621999999CY0099001N1+01201+00901999999ADDMA1103291999999MW1001REMMET045GMTT 050730Z 08012KT CAVOK 12/09 Q1033 NOSIG;EQDQ01+000000PRSWM2
0097601010999992005010508004+35733-005900FM-15+0021GMTT V0200801N00571999999CY0099001N1+01201+00901999999ADDMA1103291999999MW1001REMMET045GMTT 050800Z 08011KT CAVOK 12/09 Q1033 NOSIG;EQDQ01+000000PRSWM2
0097601010999992005010508304+35733-005900FM-15+0021GMTT V0200801N00671999999CY0099001N1+01301+00901999999ADDMA1103291999999MW1001REMMET045GMTT 050830Z 08013KT CAVOK 13/09 Q1033 NOSIG;EQDQ01+000000PRSWM2
0224601010999992005010509004+35733-005900SY-MT+0021GMTT V0200801N007219999999Y0100001N1+01391+00961103431ADDAA106000091GF100991001001999999001001MA1103391999999MD1110101+9999MW1001REMSYN054AAXX  05094 60101 32960 00814 10139 20096 40343 51010;MET045GMTT 050900Z 08014KT CAVOK 14/10 Q1034 NOSIG;EQDQ01+000000PRSWM2Q02  00002PRCP06
0103601010999992005010509304+35733-005900FM-15+0021GMTT V0200801N00821999999CY0099001N1+01501+01001999999ADDMA1103391999999MW1001REMMET051METAR GMTT 050930Z 08016KT CAVOK 15/10 Q1034 NOSIG;EQDQ01+000000PRSWM2
0097601010999992005010510004+35733-005900FM-15+0021GMTT V0200801N00771999999CY0099001N1+01501+01001999999ADDMA1103491999999MW1001REMMET045GMTT 051000Z 08015KT CAVOK 15/10 Q1035 NOSIG;EQDQ01+000000PRSWM2
0097601010999992005010510304+35733-005900FM-15+0021GMTT V0200901N00871999999CY0099001N1+01601+01001999999ADDMA1103491999999MW1001REMMET045GMTT 051030Z 09017KT CAVOK 16/10 Q1035 NOSIG;EQDQ01+000000PRSWM2
0097601010999992005010511004+35733-005900FM-15+0021GMTT V0200801N00871999999CY0099001N1+01701+01001999999ADDMA1103491999999MW1001REMMET045GMTT 051100Z 08017KT CAVOK 17/10 Q1035 NOSIG;EQDQ01+000000PRSWM2
0097601010999992005010511304+35733-005900FM-15+0021GMTT V0200801N00821999999CY0099001N1+01701+01001999999ADDMA1103391999999MW1001REMMET045GMTT 051130Z 08016KT CAVOK 17/10 Q1034 NOSIG;EQDQ01+000000PRSWM2
0224601010999992005010512004+35733-005900SY-MT+0021GMTT V0200801N007719999999Y0100001N1+01761+01001103471ADDAA106000091GF100991001001999999001001MA1103391999999MD1010061+9999MW1001REMSYN054AAXX  05124 60101 32960 00815 10176 20100 40347 50006;MET045GMTT 051200Z 08015KT CAVOK 18/10 Q1034 NOSIG;EQDQ01+000000PRSWM2Q02  00002PRCP06
0097601010999992005010512304+35733-005900FM-15+0021GMTT V0200701N00721999999CY0099001N1+01801+01001999999ADDMA1103391999999MW1001REMMET045GMTT 051230Z 07014KT CAVOK 18/10 Q1034 NOSIG;EQDQ01+000000PRSWM2
0097601010999992005010513004+35733-005900FM-15+0021GMTT V0200701N00771999999CY0099001N1+01801+01001999999ADDMA1103291999999MW1001REMMET045GMTT 051300Z 07015KT CAVOK 18/10 Q1033 NOSIG;EQDQ01+000000PRSWM2
0097601010999992005010513304+35733-005900FM-15+0021GMTT V0200801N00771999999CY0099001N1+01801+00901999999ADDMA1103291999999MW1001REMMET045GMTT 051330Z 08015KT CAVOK 18/09 Q1033 NOSIG;EQDQ01+000000PRSWM2
0097601010999992005010514004+35733-005900FM-15+0021GMTT V0200801N00771999999CY0099001N1+01801+00901999999ADDMA1103291999999MW1001REMMET045GMTT 051400Z 08015KT CAVOK 18/09 Q1033 NOSIG;EQDQ01+000000PRSWM2
0096601010999992005010514304+35733-005900AUTO +0021GMTT V0200701N008319999999Y0099005N1+01801+00901999999ADDMA1103301999999REMMET050GMTT 051430Z AUTO 07016KT CAVOK 18/09 Q1033 NOSIG;EQDQ01+000000PRSWM2
0224601010999992005010515004+35733-005900SY-MT+0021GMTT V0200801N006719999999Y0150001N1+01791+00921103321ADDAA106000091GF100991001001999999001001MA1103291999999MD1610161+9999MW1001REMSYN054AAXX  05154 60101 32965 00813 10179 20092 40332 56016;MET045GMTT 051500Z 09013KT CAVOK 18/09 Q1033 NOSIG;EQDQ01+000000PRSWM2Q02  00002PRCP06
0097601010999992005010515304+35733-005900FM-15+0021GMTT V0200701N00671999999CY0099001N1+01801+00901999999ADDMA1103291999999MW1001REMMET045GMTT 051530Z 07013KT CAVOK 18/09 Q1033 NOSIG;EQDQ01+000000PRSWM2
0105601010999992005010516004+35733-005900FM-15+0021GMTT V0200701N00671999999CY0099001N1+01701+00901999999ADDMA1103291999999MW1001REMMET053GMTT 051600Z 07013KT 040V100 CAVOK 17/09 Q1033 NOSIG;EQDQ01+000000PRSWM2
0097601010999992005010516304+35733-005900FM-15+0021GMTT V0200501N00671999999CY0099001N1+01601+01001999999ADDMA1103291999999MW1001REMMET045GMTT 051630Z 05013KT CAVOK 16/10 Q1033 NOSIG;EQDQ01+000000PRSWM2
0097601010999992005010517004+35733-005900FM-15+0021GMTT V0200601N00621999999CY0099001N1+01501+00901999999ADDMA1103291999999MW1001REMMET045GMTT 051700Z 06012KT CAVOK 15/09 Q1033 NOSIG;EQDQ01+000000PRSWM2
0097601010999992005010517304+35733-005900FM-15+0021GMTT V0200601N00511999999CY0099001N1+01401+00901999999ADDMA1103391999999MW1001REMMET045GMTT 051730Z 06010KT CAVOK 14/09 Q1034 NOSIG;EQDQ01+000000PRSWM2
0247601010999992005010518004+35733-005900SY-MT+0021GMTT V0200601N005119999999Y0150001N1+01301+00901103431ADDAA106000091GF100991001001999999001001KA1999M+01831MA1103391999999MD1210111+9999MW1001REMSYN064AAXX  05184 60101 32965 00610 10130 20090 40343 52011 333 10183;MET045GMTT 051800Z 06010KT CAVOK 13/09 Q1034 NOSIG;EQDQ01+000000PRSWM2Q02  00002PRCP06
0097601010999992005010518304+35733-005900FM-15+0021GMTT V0200601N00571999999CY0099001N1+01301+00901999999ADDMA1103391999999MW1001REMMET045GMTT 051830Z 06011KT CAVOK 13/09 Q1034 NOSIG;EQDQ01+000000PRSWM2
0097601010999992005010519004+35733-005900FM-15+0021GMTT V0200701N00511999999CY0099001N1+01201+00901999999ADDMA1103391999999MW1001REMMET045GMTT 051900Z 07010KT CAVOK 12/09 Q1034 NOSIG;EQDQ01+000000PRSWM2
0097601010999992005010519304+35733-005900FM-15+0021GMTT V0200701N00461999999CY0099001N1+01201+00901999999ADDMA1103391999999MW1001REMMET045GMTT 051930Z 07009KT CAVOK 12/09 Q1034 NOSIG;EQDQ01+000000PRSWM2
0097601010999992005010520004+35733-005900FM-15+0021GMTT V0200801N00461999999CY0099001N1+01101+00801999999ADDMA1103391999999MW1001REMMET045GMTT 052000Z 08009KT CAVOK 11/08 Q1034 NOSIG;EQDQ01+000000PRSWM2
0097601010999992005010520304+35733-005900FM-15+0021GMTT V0200701N00411999999CY0099001N1+01101+00901999999ADDMA1103391999999MW1001REMMET045GMTT 052030Z 07008KT CAVOK 11/09 Q1034 NOSIG;EQDQ01+000000PRSWM2
0224601010999992005010521004+35733-005900SY-MT+0021GMTT V0200701N003619999999Y0100001N1+01081+00881103481ADDAA106000091GF100991001001999999001001MA1103391999999MD1110051+9999MW1001REMSYN054AAXX  05214 60101 32960 00707 10108 20088 40348 51005;MET045GMTT 052100Z 07008KT CAVOK 11/09 Q1034 NOSIG;EQDQ01+000000PRSWM2Q02  00002PRCP06
0097601010999992005010521304+35733-005900FM-15+0021GMTT V0200701N00361999999CY0099001N1+01101+00901999999ADDMA1103491999999MW1001REMMET045GMTT 052130Z 07007KT CAVOK 11/09 Q1035 NOSIG;EQDQ01+000000PRSWM2
0097601010999992005010522004+35733-005900FM-15+0021GMTT V0200701N00361999999CY0099001N1+01001+00801999999ADDMA1103491999999MW1001REMMET045GMTT 052200Z 07007KT CAVOK 10/08 Q1035 NOSIG;EQDQ01+000000PRSWM2
0096601010999992005010522304+35733-005900FM-15+0021GMTT V0200701N00361999999CY0099001N1+01001+00801999999ADDMA1103491999999MW1001REMMET044GMTT 052230Z 07007KT CAVOK 10/08 Q1035 /9/8;EQDQ01+000000PRSWM2
0097601010999992005010523004+35733-005900FM-15+0021GMTT V0200701N00411999999CY0099001N1+01001+00801999999ADDMA1103491999999MW1001REMMET045GMTT 052300Z 07008KT CAVOK 10/08 Q1035 NOSIG;EQDQ01+000000PRSWM2
0097601010999992005010523304+35733-005900FM-15+0021GMTT V0200801N00261999999CY0099001N1+01001+00801999999ADDMA1103491999999MW1001REMMET045GMTT 052330Z 08005KT CAVOK 10/08 Q1035 NOSIG;EQDQ01+000000PRSWM2
0224601010999992005010600004+35733-005900SY-MT+0021GMTT V0200801N003619999999Y0100001N1+01101+00901103481ADDAA106000091GF100991001001999999001001MA1103391999999MD1010001+9999MW1001REMSYN054AAXX  06004 60101 32960 00807 10110 20090 40348 50000;MET045GMTT 060000Z 08007KT CAVOK 11/09 Q1034 NOSIG;EQDQ01+000000PRSWM2Q02  00002PRCP06
0097601010999992005010600304+35733-005900FM-15+0021GMTT V0200801N00361999999CY0099001N1+01101+00901999999ADDMA1103391999999MW1001REMMET045GMTT 060030Z 08007KT CAVOK 11/09 Q1034 NOSIG;EQDQ01+000000PRSWM2
0097601010999992005010601004+35733-005900FM-15+0021GMTT V0200901N00361999999CY0099001N1+01001+00801999999ADDMA1103391999999MW1001REMMET045GMTT 060100Z 09007KT CAVOK 10/08 Q1034 NOSIG;EQDQ01+000000PRSWM2
0097601010999992005010601304+35733-005900FM-15+0021GMTT V0200801N00511999999CY0099001N1+01101+00801999999ADDMA1103391999999MW1001REMMET045GMTT 060130Z 08010KT CAVOK 11/08 Q1034 NOSIG;EQDQ01+000000PRSWM2
0103601010999992005010602004+35733-005900FM-15+0021GMTT V0200801N00511999999CY0099001N1+00901+00701999999ADDMA1103391999999MW1001REMMET051METAR GMTT 060200Z 08010KT CAVOK 09/07 Q1034 NOSIG;EQDQ01+000000PRSWM2
0097601010999992005010602304+35733-005900FM-15+0021GMTT V0200801N00571999999CY0099001N1+00901+00801999999ADDMA1103291999999MW1001REMMET045GMTT 060230Z 08011KT CAVOK 09/08 Q1033 NOSIG;EQDQ01+000000PRSWM2
0224601010999992005010603004+35733-005900SY-MT+0021GMTT V0200801N005119999999Y0100001N1+00961+00781103381ADDAA106000091GF100991001001999999001001MA1103291999999MD1710101+9999MW1001REMSYN054AAXX  06034 60101 32960 00810 10096 20078 40338 57010;MET045GMTT 060300Z 08010KT CAVOK 10/08 Q1033 NOSIG;EQDQ01+000000PRSWM2Q02  00002PRCP06
0097601010999992005010603304+35733-005900FM-15+0021GMTT V0200801N00511999999CY0099001N1+01001+00801999999ADDMA1103291999999MW1001REMMET045GMTT 060330Z 08010KT CAVOK 10/08 Q1033 NOSIG;EQDQ01+000000PRSWM2
0097601010999992005010604004+35733-005900FM-15+0021GMTT V0200801N00461999999CY0099001N1+01001+00801999999ADDMA1103291999999MW1001REMMET045GMTT 060400Z 08009KT CAVOK 10/08 Q1033 NOSIG;EQDQ01+000000PRSWM2
0097601010999992005010604304+35733-005900FM-15+0021GMTT V0200801N00511999999CY0099001N1+01001+00801999999ADDMA1103291999999MW1001REMMET045GMTT 060430Z 08010KT CAVOK 10/08 Q1033 NOSIG;EQDQ01+000000PRSWM2
0097601010999992005010605004+35733-005900FM-15+0021GMTT V0200801N00511999999CY0099001N1+01001+00801999999ADDMA1103291999999MW1001REMMET045GMTT 060500Z 08010KT CAVOK 10/08 Q1033 NOSIG;EQDQ01+000000PRSWM2
0097601010999992005010605304+35733-005900FM-15+0021GMTT V0200801N00511999999CY0099001N1+01001+00801999999ADDMA1103291999999MW1001REMMET045GMTT 060530Z 08010KT CAVOK 10/08 Q1033 NOSIG;EQDQ01+000000PRSWM2
0247601010999992005010606004+35733-005900SY-MT+0021GMTT V0200801N00511999999CY0100001N1+01021+00851103381ADDAA106000091GF100991001001999999001001KA1999N+00841MA1103291999999MD1610041+9999MW1001REMSYN064AAXX  06064 60101 32960 00810 10102 20085 40338 56004 333 20084;MET045GMTT 060600Z 08010KT CAVOK 10/09 Q1033 NOSIG;EQDQ01+000000PRSWM2Q02  00002PRCP06
0096601010999992005010606304+35733-005900FM-16+0021GMTT V0200801N00461999999CY0099001N1+99999+99999999999ADDMA1103291999999MW1001REMMET044GMTT 060630Z 08009KT CAVOK 1/09 Q1033 NOSIG;EQDQ01+000000PRSWM2
0097601010999992005010607004+35733-005900FM-15+0021GMTT V0200801N00511999999CY0099001N1+01101+00901999999ADDMA1103291999999MW1001REMMET045GMTT 060700Z 08010KT CAVOK 11/09 Q1033 NOSIG;EQDQ01+000000PRSWM2
0097601010999992005010607304+35733-005900FM-15+0021GMTT V0200801N00511999999CY0099001N1+01101+00801999999ADDMA1103391999999MW1001REMMET045GMTT 060730Z 08010KT CAVOK 11/08 Q1034 NOSIG;EQDQ01+000000PRSWM2
0097601010999992005010608004+35733-005900FM-15+0021GMTT V0200801N00721999999CY0099001N1+01001+00801999999ADDMA1103391999999MW1001REMMET045GMTT 060800Z 08014KT CAVOK 10/08 Q1034 NOSIG;EQDQ01+000000PRSWM2
0224601010999992005010609004+35733-005900SY-MT+0021GMTT V0200801N002119999999Y0150001N1+01161+00951103481ADDAA106000091GF100991001001999999001001MA1103391999999MD1310111+9999MW1001REMSYN054AAXX  06094 60101 32965 00804 10116 20095 40348 53011;MET045GMTT 060900Z 10006KT CAVOK 11/09 Q1034 NOSIG;EQDQ01+000000PRSWM2Q02  00002PRCP06
0097601010999992005010609304+35733-005900FM-15+0021GMTT V0200801N00571999999CY0099001N1+01401+01001999999ADDMA1103391999999MW1001REMMET045GMTT 060930Z 08011KT CAVOK 14/10 Q1034 NOSIG;EQDQ01+000000PRSWM2
0097601010999992005010610004+35733-005900FM-15+0021GMTT V0200801N00821999999CY0099001N1+01501+00901999999ADDMA1103491999999MW1001REMMET045GMTT 061000Z 08016KT CAVOK 15/09 Q1035 NOSIG;EQDQ01+000000PRSWM2
0097601010999992005010610304+35733-005900FM-15+0021GMTT V0200801N00821999999CY0099001N1+01501+00901999999ADDMA1103491999999MW1001REMMET045GMTT 061030Z 08016KT CAVOK 15/09 Q1035 NOSIG;EQDQ01+000000PRSWM2
0097601010999992005010611004+35733-005900FM-15+0021GMTT V0200801N00931999999CY0099001N1+01601+00901999999ADDMA1103491999999MW1001REMMET045GMTT 061100Z 08018KT CAVOK 16/09 Q1035 NOSIG;EQDQ01+000000PRSWM2
0097601010999992005010611304+35733-005900FM-15+0021GMTT V0200901N01031999999CY0099001N1+01601+00901999999ADDMA1103491999999MW1001REMMET045GMTT 061130Z 09020KT CAVOK 16/09 Q1035 NOSIG;EQDQ01+000000PRSWM2
0224601010999992005010612004+35733-005900SY-MT+0021GMTT V0200901N010319999999Y0150001N1+01701+00951103451ADDAA106000091GF100991001001999999001001MA1103391999999MD1010031+9999MW1001REMSYN054AAXX  06124 60101 32965 00920 10170 20095 40345 50003;MET045GMTT 061200Z 09020KT CAVOK 17/10 Q1034 NOSIG;EQDQ01+000000PRSWM2Q02  00002PRCP06
0097601010999992005010612304+35733-005900FM-15+0021GMTT V0200801N00931999999CY0099001N1+01701+00901999999ADDMA1103391999999MW1001REMMET045GMTT 061230Z 08018KT CAVOK 17/09 Q1034 NOSIG;EQDQ01+000000PRSWM2
0097601010999992005010613004+35733-005900FM-15+0021GMTT V0200801N00871999999CY0099001N1+01801+00901999999ADDMA1103291999999MW1001REMMET045GMTT 061300Z 08017KT CAVOK 18/09 Q1033 NOSIG;EQDQ01+000000PRSWM2
0097601010999992005010613304+35733-005900FM-15+0021GMTT V0200801N00981999999CY0099001N1+01801+00801999999ADDMA1103291999999MW1001REMMET045GMTT 061330Z 08019KT CAVOK 18/08 Q1033 NOSIG;EQDQ01+000000PRSWM2
0097601010999992005010614004+35733-005900FM-15+0021GMTT V0200801N00871999999CY0099001N1+01801+00801999999ADDMA1103181999999MW1001REMMET045GMTT 061400Z 08017KT CAVOK 18/08 Q1032 NOSIG;EQDQ01+000000PRSWM2
0097601010999992005010614304+35733-005900FM-15+0021GMTT V0200801N00931999999CY0099001N1+01801+00801999999ADDMA1103181999999MW1001REMMET045GMTT 061430Z 08018KT CAVOK 18/08 Q1032 NOSIG;EQDQ01+000000PRSWM2
0224601010999992005010615004+35733-005900SY-MT+0021GMTT V0200701N008719999999Y0150001N1+01741+00731103251ADDAA106000091GF100991001001999999001001MA1103181999999MD1610191+9999MW1001REMSYN054AAXX  06154 60101 32965 00717 10174 20073 40325 56019;MET045GMTT 061500Z 07017KT CAVOK 17/07 Q1032 NOSIG;EQDQ01+000000PRSWM2Q02  00002PRCP06
0096601010999992005010615304+35733-005900FM-15+0021GMTT V0200801N00821999999CY0099001N1+01701+00701999999ADDMA1103181999999MW1001REMMET044GMTT 061530Z 08016KT CAVOK 17/07 Q1032 NSIG;EQDQ01+000000PRSWM2
0097601010999992005010616004+35733-005900FM-15+0021GMTT V0200701N00871999999CY0099001N1+01701+00601999999ADDMA1103181999999MW1001REMMET045GMTT 061600Z 07017KT CAVOK 17/06 Q1032 NOSIG;EQDQ01+000000PRSWM2
0097601010999992005010616304+35733-005900FM-15+0021GMTT V0200701N00821999999CY0099001N1+01601+00601999999ADDMA1103181999999MW1001REMMET045GMTT 061630Z 07016KT CAVOK 16/06 Q1032 NOSIG;EQDQ01+000000PRSWM2
0097601010999992005010617004+35733-005900FM-15+0021GMTT V0200801N00621999999CY0099001N1+01501+00601999999ADDMA1103181999999MW1001REMMET045GMTT 061700Z 08012KT CAVOK 15/06 Q1032 NOSIG;EQDQ01+000000PRSWM2
0097601010999992005010617304+35733-005900FM-15+0021GMTT V0200801N00621999999CY0099001N1+01401+00701999999ADDMA1103291999999MW1001REMMET045GMTT 061730Z 08012KT CAVOK 14/07 Q1033 NOSIG;EQDQ01+000000PRSWM2
0247601010999992005010618004+35733-005900SY-MT+0021GMTT V0200801N00571999999CY0100001N1+01301+00641103311ADDAA106000091GF100991001001999999001001KA1999M+01801MA1103291999999MD1310051+9999MW1001REMSYN064AAXX  06184 60101 32960 00811 10130 20064 40331 53005 333 10180;MET045GMTT 061800Z 08011KT CAVOK 13/06 Q1033 NOSIG;EQDQ01+000000PRSWM2Q02  00002PRCP06
0097601010999992005010618304+35733-005900FM-15+0021GMTT V0200701N00511999999CY0099001N1+01301+00701999999ADDMA1103291999999MW1001REMMET045GMTT 061830Z 07010KT CAVOK 13/07 Q1033 NOSIG;EQDQ01+000000PRSWM2
0097601010999992005010619004+35733-005900FM-15+0021GMTT V0200801N00511999999CY0099001N1+01201+00701999999ADDMA1103291999999MW1001REMMET045GMTT 061900Z 08010KT CAVOK 12/07 Q1033 NOSIG;EQDQ01+000000PRSWM2
0097601010999992005010619304+35733-005900FM-15+0021GMTT V0200801N00571999999CY0099001N1+01301+00801999999ADDMA1103291999999MW1001REMMET045GMTT 061930Z 08011KT CAVOK 13/08 Q1033 NOSIG;EQDQ01+000000PRSWM2
0097601010999992005010620004+35733-005900FM-15+0021GMTT V0200801N00621999999CY0099001N1+01201+00701999999ADDMA1103291999999MW1001REMMET045GMTT 062000Z 08012KT CAVOK 12/07 Q1033 NOSIG;EQDQ01+000000PRSWM2
0097601010999992005010620304+35733-005900FM-15+0021GMTT V0201001N00511999999CY0099001N1+01201+00701999999ADDMA1103291999999MW1001REMMET045GMTT 062030Z 10010KT CAVOK 12/07 Q1033 NOSIG;EQDQ01+000000PRSWM2
0224601010999992005010621004+35733-005900SY-MT+0021GMTT V0200901N005119999999Y0100001N1+01101+00701103381ADDAA106000091GF100991001001999999001001MA1103291999999MD1310071+9999MW1001REMSYN054AAXX  06214 60101 32960 00910 10110 20070 40338 53007;MET045GMTT 062100Z 09010KT CAVOK 11/07 Q1033 NOSIG;EQDQ01+000000PRSWM2Q02  00002PRCP06
0097601010999992005010621304+35733-005900FM-15+0021GMTT V0201001N00461999999CY0099001N1+01101+00701999999ADDMA1103291999999MW1001REMMET045GMTT 062130Z 10009KT CAVOK 11/07 Q1033 NOSIG;EQDQ01+000000PRSWM2
0097601010999992005010622004+35733-005900FM-15+0021GMTT V0201101N00411999999CY0099001N1+01101+00701999999ADDMA1103291999999MW1001REMMET045GMTT 062200Z 11008KT CAVOK 11/07 Q1033 NOSIG;EQDQ01+000000PRSWM2
0097601010999992005010622304+35733-005900FM-15+0021GMTT V0200901N00511999999CY0099001N1+01201+00701999999ADDMA1103291999999MW1001REMMET045GMTT 062230Z 09010KT CAVOK 12/07 Q1033 NOSIG;EQDQ01+000000PRSWM2
0097601010999992005010623004+35733-005900FM-15+0021GMTT V0200801N00821999999CY0099001N1+01201+00801999999ADDMA1103291999999MW1001REMMET045GMTT 062300Z 08016KT CAVOK 12/08 Q1033 NOSIG;EQDQ01+000000PRSWM2
0097601010999992005010623304+35733-005900FM-15+0021GMTT V0200801N00871999999CY0099001N1+01201+00801999999ADDMA1103291999999MW1001REMMET045GMTT 062330Z 08017KT CAVOK 12/08 Q1033 NOSIG;EQDQ01+000000PRSWM2
0224601010999992005010700004+35733-005900SY-MT+0021GMTT V0200801N008219999999Y0100001N1+01211+00801103351ADDAA106000091GF100991001001999999001001MA1103291999999MD1810031+9999MW1001REMSYN054AAXX  07004 60101 32960 00816 10121 20080 40335 58003;MET045GMTT 070000Z 08016KT CAVOK 12/08 Q1033 NOSIG;EQDQ01+000000PRSWM2Q02  00002PRCP06
0097601010999992005010700304+35733-005900FM-15+0021GMTT V0200801N00771999999CY0099001N1+01201+00801999999ADDMA1103291999999MW1001REMMET045GMTT 070030Z 08015KT CAVOK 12/08 Q1033 NOSIG;EQDQ01+000000PRSWM2
0097601010999992005010701004+35733-005900FM-15+0021GMTT V0200801N00871999999CY0099001N1+01201+00801999999ADDMA1103291999999MW1001REMMET045GMTT 070100Z 08017KT CAVOK 12/08 Q1033 NOSIG;EQDQ01+000000PRSWM2
0095601010999992005010701304+35733-005900AUTO +0021GMTT V0200801N007319999999Y0099005N1+01201+00801999999ADDMA1103201999999REMMET049GMTT 070130Z AUTO 08014KT CAVOK 12/08 Q1032NOSIG;EQDQ01+000000PRSWM2
0097601010999992005010702004+35733-005900FM-15+0021GMTT V0200801N00621999999CY0099001N1+01201+00801999999ADDMA1103181999999MW1001REMMET045GMTT 070200Z 08012KT CAVOK 12/08 Q1032 NOSIG;EQDQ01+000000PRSWM2
0084601010999992005010702304+35733-005900FM-15+0021GMTT V0200801N006212200019N9999999N1+01101+00701999999ADDMA1103181999999REMMET038GMTT 070230Z AUTO 08012KT 11/07 Q1032;EQDQ01+000000PRSWM2
0204601010999992005010703004+35733-005900SY-MT+0021GMTT V0200701N005719999999Y0100001N1+01201+00771103241ADDAA106000091GF100991001001999999001001MA1103181999999MW1001REMSYN048AAXX  07034 60101 32960 00711 10120 20077 40324;MET045GMTT 070300Z 08011KT CAVOK 12/08 Q1032 NOSIG;EQDQ01+000000PRSWM2Q02  00002PRCP06
0097601010999992005010703304+35733-005900FM-15+0021GMTT V0200801N00621999999CY0099001N1+01201+00801999999ADDMA1103181999999MW1001REMMET045GMTT 070330Z 08012KT CAVOK 12/08 Q1032 NOSIG;EQDQ01+000000PRSWM2
0097601010999992005010704004+35733-005900FM-15+0021GMTT V0200901N00461999999CY0099001N1+01201+00801999999ADDMA1103181999999MW1001REMMET045GMTT 070400Z 09009KT CAVOK 12/08 Q1032 NOSIG;EQDQ01+000000PRSWM2
0096601010999992005010704304+35733-005900AUTO +0021GMTT V0200801N005219999999Y0099005N1+01201+00901999999ADDMA1103201999999REMMET050GMTT 070430Z AUTO 08010KT CAVOK 12/09 Q1032 NOSIG;EQDQ01+000000PRSWM2
0096601010999992005010705004+35733-005900FM-15+0021GMTT V0200801N00621999999CY0099001N1+01201+00901999999ADDMA1103121999999MW1001REMMET044GMTT 070500Z 08012KT CAVOK 12/9 Q1031 NOSIG;EQDQ01+000000PRSWM2
0097601010999992005010705304+35733-005900FM-15+0021GMTT V0200801N00721999999CY0099001N1+01201+00801999999ADDMA1103121999999MW1001REMMET045GMTT 070530Z 08014KT CAVOK 12/08 Q1031 NOSIG;EQDQ01+000000PRSWM2
0247601010999992005010706004+35733-005900SY-MT+0021GMTT V0200801N006719999999Y0100001N1+01211+00801103181ADDAA106000091GF100991001001999999001001KA1999N+01081MA1103121999999MD1610071+9999MW1001REMSYN064AAXX  07064 60101 32960 00813 10121 20080 40318 56007 333 20108;MET045GMTT 070600Z 08013KT CAVOK 12/08 Q1031 NOSIG;EQDQ01+000000PRSWM2Q02  00002PRCP06
0097601010999992005010706304+35733-005900FM-15+0021GMTT V0200801N00671999999CY0099001N1+01201+00801999999ADDMA1103121999999MW1001REMMET045GMTT 070630Z 08013KT CAVOK 12/08 Q1031 NOSIG;EQDQ01+000000PRSWM2
0097601010999992005010707004+35733-005900FM-15+0021GMTT V0200801N00771999999CY0099001N1+01201+00801999999ADDMA1103181999999MW1001REMMET045GMTT 070700Z 08015KT CAVOK 12/08 Q1032 NOSIG;EQDQ01+000000PRSWM2
0097601010999992005010707304+35733-005900FM-15+0021GMTT V0200801N00871999999CY0099001N1+01201+00701999999ADDMA1103181999999MW1001REMMET045GMTT 070730Z 08017KT CAVOK 12/07 Q1032 NOSIG;EQDQ01+000000PRSWM2
0097601010999992005010708004+35733-005900FM-15+0021GMTT V0200801N00871999999CY0099001N1+01201+00801999999ADDMA1103181999999MW1001REMMET045GMTT 070800Z 08017KT CAVOK 12/08 Q1032 NOSIG;EQDQ01+000000PRSWM2
0097601010999992005010708304+35733-005900FM-15+0021GMTT V0200801N00931999999CY0099001N1+01301+00801999999ADDMA1103181999999MW1001REMMET045GMTT 070830Z 08018KT CAVOK 13/08 Q1032 NOSIG;EQDQ01+000000PRSWM2
0224601010999992005010709004+35733-005900SY-MT+0021GMTT V0200901N008719999999Y0100001N1+01371+00771103301ADDAA106000091GF100991001001999999001001MA1103291999999MD1310121+9999MW1001REMSYN054AAXX  07094 60101 32960 00917 10137 20077 40330 53012;MET045GMTT 070900Z 09017KT CAVOK 14/08 Q1033 NOSIG;EQDQ01+000000PRSWM2Q02  00002PRCP06
0097601010999992005010709304+35733-005900FM-15+0021GMTT V0200801N00871999999CY0099001N1+01401+00801999999ADDMA1103291999999MW1001REMMET045GMTT 070930Z 08017KT CAVOK 14/08 Q1033 NOSIG;EQDQ01+000000PRSWM2
0097601010999992005010710004+35733-005900FM-15+0021GMTT V0200801N00981999999CY0099001N1+01501+00801999999ADDMA1103291999999MW1001REMMET045GMTT 071000Z 08019KT CAVOK 15/08 Q1033 NOSIG;EQDQ01+000000PRSWM2
0097601010999992005010710304+35733-005900FM-15+0021GMTT V0200901N01031999999CY0099001N1+01601+00801999999ADDMA1103291999999MW1001REMMET045GMTT 071030Z 09020KT CAVOK 16/08 Q1033 NOSIG;EQDQ01+000000PRSWM2
0097601010999992005010711004+35733-005900FM-15+0021GMTT V0200801N00871999999CY0099001N1+01601+00901999999ADDMA1103291999999MW1001REMMET045GMTT 071100Z 08017KT CAVOK 16/09 Q1033 NOSIG;EQDQ01+000000PRSWM2
0097601010999992005010711304+35733-005900FM-15+0021GMTT V0200801N01031999999CY0099001N1+01701+00801999999ADDMA1103291999999MW1001REMMET045GMTT 071130Z 08020KT CAVOK 17/08 Q1033 NOSIG;EQDQ01+000000PRSWM2
0224601010999992005010712004+35733-005900SY-MT+0021GMTT V0200801N010319999999Y0100001N1+01721+00871103291ADDAA106000091GF100991001001999999001001MA1103181999999MD1810011+9999MW1001REMSYN054AAXX  07124 60101 32960 00820 10172 20087 40329 58001;MET045GMTT 071200Z 08020KT CAVOK 17/09 Q1032 NOSIG;EQDQ01+000000PRSWM2Q02  00002PRCP06
0097601010999992005010712304+35733-005900FM-15+0021GMTT V0200801N00981999999CY0099001N1+01701+00801999999ADDMA1103181999999MW1001REMMET045GMTT 071230Z 08019KT CAVOK 17/08 Q1032 NOSIG;EQDQ01+000000PRSWM2
0097601010999992005010713004+35733-005900FM-15+0021GMTT V0200801N00981999999CY0099001N1+01801+00801999999ADDMA1103181999999MW1001REMMET045GMTT 071300Z 08019KT CAVOK 18/08 Q1032 NOSIG;EQDQ01+000000PRSWM2
0097601010999992005010713304+35733-005900FM-15+0021GMTT V0200801N00981999999CY0099001N1+01801+00801999999ADDMA1103121999999MW1001REMMET045GMTT 071330Z 08019KT CAVOK 18/08 Q1031 NOSIG;EQDQ01+000000PRSWM2
0097601010999992005010714004+35733-005900FM-15+0021GMTT V0200801N00931999999CY0099001N1+01801+00801999999ADDMA1103121999999MW1001REMMET045GMTT 071400Z 08018KT CAVOK 18/08 Q1031 NOSIG;EQDQ01+000000PRSWM2
0097601010999992005010714304+35733-005900FM-15+0021GMTT V0200801N00821999999CY0099001N1+01801+00801999999ADDMA1103121999999MW1001REMMET045GMTT 071430Z 08016KT CAVOK 18/08 Q1031 NOSIG;EQDQ01+000000PRSWM2
0224601010999992005010715004+35733-005900SY-MT+0021GMTT V0200801N008719999999Y0100001N1+01741+00781103121ADDAA106000091GF100991001001999999001001MA1103121999999MD1610171+9999MW1001REMSYN054AAXX  07154 60101 32960 00817 10174 20078 40312 56017;MET045GMTT 071500Z 08017KT CAVOK 17/08 Q1031 NOSIG;EQDQ01+000000PRSWM2Q02  00002PRCP06
0097601010999992005010715304+35733-005900FM-15+0021GMTT V0200801N00981999999CY0099001N1+01701+00801999999ADDMA1103121999999MW1001REMMET045GMTT 071530Z 08019KT CAVOK 17/08 Q1031 NOSIG;EQDQ01+000000PRSWM2
0097601010999992005010716004+35733-005900FM-15+0021GMTT V0200801N01031999999CY0099001N1+01601+00801999999ADDMA1103121999999MW1001REMMET045GMTT 071600Z 08020KT CAVOK 16/08 Q1031 NOSIG;EQDQ01+000000PRSWM2
0097601010999992005010716304+35733-005900FM-15+0021GMTT V0200801N00981999999CY0099001N1+01601+00801999999ADDMA1103121999999MW1001REMMET045GMTT 071630Z 08019KT CAVOK 16/08 Q1031 NOSIG;EQDQ01+000000PRSWM2
0097601010999992005010717004+35733-005900FM-15+0021GMTT V0200801N00931999999CY0099001N1+01501+00801999999ADDMA1103121999999MW1001REMMET045GMTT 071700Z 08018KT CAVOK 15/08 Q1031 NOSIG;EQDQ01+000000PRSWM2
0097601010999992005010717304+35733-005900FM-15+0021GMTT V0200801N00871999999CY0099001N1+01401+00801999999ADDMA1103121999999MW1001REMMET045GMTT 071730Z 08017KT CAVOK 14/08 Q1031 NOSIG;EQDQ01+000000PRSWM2
0308601010999992005010718004+35733-005900SY-MT+0021GMTT V0200801N007719999999Y0150001N1+01331+00751999999ADDAA106000091GF100991001001999999001001MA1103121999999MW1001REMSYN152AAXX  07184 60101 32965 00815 10133 20075 01603 10100 10182 10184 210 32975 40291 40315 51001 52003 601 60115 82082 82360 A CILA EEE EEE GUIE LU1 PIKFI;MET045GMTT 071800Z 08015KT CAVOK 13/08 Q1031 NOSIG;EQDQ01+000000PRSWM2Q02  00002PRCP06
0097601010999992005010718304+35733-005900FM-15+0021GMTT V0200801N00821999999CY0099001N1+01301+00801999999ADDMA1103121999999MW1001REMMET045GMTT 071830Z 08016KT CAVOK 13/08 Q1031 NOSIG;EQDQ01+000000PRSWM2
0097601010999992005010719004+35733-005900FM-15+0021GMTT V0200901N00671999999CY0099001N1+01301+00801999999ADDMA1103121999999MW1001REMMET045GMTT 071900Z 09013KT CAVOK 13/08 Q1031 NOSIG;EQDQ01+000000PRSWM2
0097601010999992005010719304+35733-005900FM-15+0021GMTT V0200801N00671999999CY0099001N1+01201+00801999999ADDMA1103121999999MW1001REMMET045GMTT 071930Z 08013KT CAVOK 12/08 Q1031 NOSIG;EQDQ01+000000PRSWM2
0097601010999992005010720004+35733-005900FM-15+0021GMTT V0200901N00511999999CY0099001N1+01201+00701999999ADDMA1103121999999MW1001REMMET045GMTT 072000Z 09010KT CAVOK 12/07 Q1031 NOSIG;EQDQ01+000000PRSWM2
0097601010999992005010720304+35733-005900FM-15+0021GMTT V0201001N00411999999CY0099001N1+01101+00701999999ADDMA1103181999999MW1001REMMET045GMTT 072030Z 10008KT CAVOK 11/07 Q1032 NOSIG;EQDQ01+000000PRSWM2
0224601010999992005010721004+35733-005900SY-MT+0021GMTT V0200901N004119999999Y0100001N1+01051+00721103211ADDAA106000091GF100991001001999999001001MA1103181999999MD1310061+9999MW1001REMSYN054AAXX  07214 60101 32960 00908 10105 20072 40321 53006;MET045GMTT 072100Z 09008KT CAVOK 11/07 Q1032 NOSIG;EQDQ01+000000PRSWM2Q02  00002PRCP06
0097601010999992005010721304+35733-005900FM-15+0021GMTT V0201001N00411999999CY0099001N1+01001+00701999999ADDMA1103181999999MW1001REMMET045GMTT 072130Z 10008KT CAVOK 10/07 Q1032 NOSIG;EQDQ01+000000PRSWM2
0097601010999992005010722004+35733-005900FM-15+0021GMTT V0201101N00361999999CY0099001N1+01001+00701999999ADDMA1103181999999MW1001REMMET045GMTT 072200Z 11007KT CAVOK 10/07 Q1032 NOSIG;EQDQ01+000000PRSWM2
0097601010999992005010722304+35733-005900FM-15+0021GMTT V0200901N00461999999CY0099001N1+01001+00701999999ADDMA1103181999999MW1001REMMET045GMTT 072230Z 09009KT CAVOK 10/07 Q1032 NOSIG;EQDQ01+000000PRSWM2
0097601010999992005010723004+35733-005900FM-15+0021GMTT V0200901N00411999999CY0099001N1+01001+00701999999ADDMA1103181999999MW1001REMMET045GMTT 072300Z 09008KT CAVOK 10/07 Q1032 NOSIG;EQDQ01+000000PRSWM2
0097601010999992005010723304+35733-005900FM-15+0021GMTT V0200901N00511999999CY0099001N1+01001+00701999999ADDMA1103181999999MW1001REMMET045GMTT 072330Z 09010KT CAVOK 10/07 Q1032 NOSIG;EQDQ01+000000PRSWM2
0208601010999992005010800004+35733-005900SY-MT+0021GMTT V0200901N005119999999Y0100001N1+01041+00711103231ADDAA106000091GF100991001001999999001001MA1103181999999MD1010031+9999MW1001REMSYN054AAXX  08004 60101 32960 00910 10104 20071 40323 50003;MET045GMTT 080000Z 09010KT CAVOK 10/07 Q1032 NOSIG;EQDQ01  00002PRCP06
0078601010999992005010800304+35733-005900FM-15+0021GMTT V0200901N00511999999CY0099001N1+01101+00701999999ADDMA1103181999999MW1001REMMET045GMTT 080030Z 09010KT CAVOK 11/07 Q1032 NOSIG;
0078601010999992005010801004+35733-005900FM-15+0021GMTT V0200901N00511999999CY0099001N1+01001+00701999999ADDMA1103121999999MW1001REMMET045GMTT 080100Z 09010KT CAVOK 10/07 Q1031 NOSIG;
0077601010999992005010801304+35733-005900AUTO +0021GMTT V0200901N003719999999Y0099005N1+01001+00701999999ADDMA1103101999999REMMET050GMTT 080130Z AUTO 09007KT CAVOK 10/07 Q1031 NOSIG;
0078601010999992005010802004+35733-005900FM-15+0021GMTT V0200901N00261999999CY0099001N1+01101+00701999999ADDMA1103121999999MW1001REMMET045GMTT 080200Z 09005KT CAVOK 11/07 Q1031 NOSIG;
0078601010999992005010802304+35733-005900FM-15+0021GMTT V0200901N00261999999CY0099001N1+01001+00701999999ADDMA1103121999999MW1001REMMET045GMTT 080230Z 09005KT CAVOK 10/07 Q1031 NOSIG;
0208601010999992005010803004+35733-005900SY-MT+0021GMTT V0200901N003119999999Y0100001N1+01021+00721103181ADDAA106000091GF100991001001999999001001MA1103121999999MD1610061+9999MW1001REMSYN054AAXX  08034 60101 32960 00906 10102 20072 40318 56006;MET045GMTT 080300Z 09006KT CAVOK 10/07 Q1031 NOSIG;EQDQ01  00002PRCP06
0109601010999992005010803304+35733-005900AUTO +0021GMTT V0201001N003119999999Y0099005N1+01101+00701999999ADDKA1999M+99999MA1103101999999REMMET050GMTT 080330Z AUTO 10006KT CAVOK 11/07 Q1031 NOSIG;EQDQ01 +00062ATMX  
0078601010999992005010804004+35733-005900FM-15+0021GMTT V0200901N00311999999CY0099001N1+01001+00701999999ADDMA1103121999999MW1001REMMET045GMTT 080400Z 09006KT CAVOK 10/07 Q1031 NOSIG;
0078601010999992005010804304+35733-005900FM-15+0021GMTT V0201101N00361999999CY0099001N1+00901+00601999999ADDMA1103121999999MW1001REMMET045GMTT 080430Z 11007KT CAVOK 09/06 Q1031 NOSIG;
0078601010999992005010805004+35733-005900FM-15+0021GMTT V0201101N00261999999CY0099001N1+00901+00701999999ADDMA1103121999999MW1001REMMET045GMTT 080500Z 11005KT CAVOK 09/07 Q1031 NOSIG;
0077601010999992005010805304+35733-005900AUTO +0021GMTT V0201201N001119999999Y0099005N1+00701+00501999999ADDMA1103101999999REMMET050GMTT 080530Z AUTO 12002KT CAVOK 07/05 Q1031 NOSIG;
0231601010999992005010806004+35733-005900SY-MT+0021GMTT V0200901N001519999999Y0100001N1+00621+00431103181ADDAA106000091GF100991001001999999001001KA1999N+00621MA1103121999999MD1510011+9999MW1001REMSYN064AAXX  08064 60101 32960 00903 10062 20043 40318 55001 333 20062;MET045GMTT 080600Z 09003KT CAVOK 06/04 Q1031 NOSIG;EQDQ01  00002PRCP06
0078601010999992005010806304+35733-005900FM-15+0021GMTT V0201001N00261999999CY0099001N1+00701+00501999999ADDMA1103121999999MW1001REMMET045GMTT 080630Z 10005KT CAVOK 07/05 Q1031 NOSIG;
0078601010999992005010807004+35733-005900FM-15+0021GMTT V0201201N00151999999CY0099001N1+00601+00501999999ADDMA1103121999999MW1001REMMET045GMTT 080700Z 12003KT CAVOK 06/05 Q1031 NOSIG;
0077601010999992005010807304+35733-005900AUTO +0021GMTT V0200901N003119999999Y0099005N1+00601+00401999999ADDMA1103201999999REMMET050GMTT 080730Z AUTO 09006KT CAVOK 06/04 Q1032 NOSIG;
0078601010999992005010808004+35733-005900FM-15+0021GMTT V0200901N00361999999CY0099001N1+00801+00601999999ADDMA1103181999999MW1001REMMET045GMTT 080800Z 09007KT CAVOK 08/06 Q1032 NOSIG;
0078601010999992005010808304+35733-005900FM-15+0021GMTT V0200801N00361999999CY0099001N1+00901+00701999999ADDMA1103181999999MW1001REMMET045GMTT 080830Z 08007KT CAVOK 09/07 Q1032 NOSIG;
0208601010999992005010809004+35733-005900SY-MT+0021GMTT V0200901N00211999999CY0100001N1+01081+00791103271ADDAA106000091GF100991001001999999001001MA1103181999999MD1310061+9999MW1001REMSYN054AAXX  08094 60101 32960 00904 10108 20079 40327 53006;MET045GMTT 080900Z 09005KT CAVOK 11/08 Q1032 NOSIG;EQDQ01  00002PRCP06
0078601010999992005010809304+35733-005900FM-15+0021GMTT V0200801N00151999999CY0099001N1+01201+00801999999ADDMA1103291999999MW1001REMMET045GMTT 080930Z 08003KT CAVOK 12/08 Q1033 NOSIG;
0086601010999992005010810004+35733-005900FM-15+0021GMTT V0200801N00311999999CY0099001N1+01401+00901999999ADDMA1103291999999MW1001REMMET053GMTT 081000Z 08006KT 060V130 CAVOK 14/09 Q1033 NOSIG;
0086601010999992005010810304+35733-005900FM-15+0021GMTT V0201001N00261999999CY0099001N1+01501+00901999999ADDMA1103291999999MW1001REMMET053GMTT 081030Z 10005KT 050V140 CAVOK 15/09 Q1033 NOSIG;
0208601010999992005010812004+35733-005900SY-MT+0021GMTT V0200701N004119999999Y0150001N1+01701+00791103261ADDAA106000091GF100991001001999999001001MA1103181999999MD1810011+9999MW1001REMSYN054AAXX  08124 60101 32965 00708 10170 20079 40326 58001;MET045GMTT 081200Z 08008KT CAVOK 17/08 Q1032 NOSIG;EQDQ01  00002PRCP06
0086601010999992005010812304+35733-005900FM-15+0021GMTT V0200701N00361999999CY0099001N1+01801+00701999999ADDMA1103181999999MW1001REMMET053GMTT 081230Z 07007KT 030V110 CAVOK 18/07 Q1032 NOSIG;
0086601010999992005010813004+35733-005900FM-15+0021GMTT V0200801N00311999999CY0099001N1+01801+00801999999ADDMA1103121999999MW1001REMMET053GMTT 081300Z 08006KT 030V170 CAVOK 18/08 Q1031 NOSIG;
0086601010999992005010813304+35733-005900FM-15+0021GMTT V0201501N00211999999CY0099001N1+01801+00701999999ADDMA1103121999999MW1001REMMET053GMTT 081330Z 15004KT 090V220 CAVOK 18/07 Q1031 NOSIG;
0086601010999992005010814004+35733-005900FM-15+0021GMTT V0202401N00211999999CY0099001N1+01801+00801999999ADDMA1103011999999MW1001REMMET053GMTT 081400Z 24004KT 020V270 CAVOK 18/08 Q1030 NOSIG;
0086601010999992005010814304+35733-005900FM-15+0021GMTT V0200601N00361999999CY0099001N1+01801+00901999999ADDMA1103011999999MW1001REMMET053GMTT 081430Z 06007KT 020V110 CAVOK 18/09 Q1030 NOSIG;
0208601010999992005010815004+35733-005900SY-MT+0021GMTT V0200401N005119999999Y0150001N1+01681+00891103031ADDAA106000091GF100991001001999999001001MA1103011999999MD1810271+9999MW1001REMSYN054AAXX  08154 60101 32965 00410 10168 20089 40303 58027;MET045GMTT 081500Z 04010KT CAVOK 17/09 Q1030 NOSIG;EQDQ01  00002PRCP06
0084601010999992005010815304+35733-005900FM-15+0021GMTT V0200401N00671999999CY0099001N1+01601+00901999999ADDMA1103011999999MW1001REMMET051METAR GMTT 081530Z 04013KT CAVOK 16/09 Q1030 NOSIG;
0078601010999992005010816004+35733-005900FM-15+0021GMTT V0200401N00721999999CY0099001N1+01601+00801999999ADDMA1103011999999MW1001REMMET045GMTT 081600Z 04014KT CAVOK 16/08 Q1030 NOSIG;
0078601010999992005010816304+35733-005900FM-15+0021GMTT V0200501N00511999999CY0099001N1+01601+00801999999ADDMA1103011999999MW1001REMMET045GMTT 081630Z 05010KT CAVOK 16/08 Q1030 NOSIG;
0078601010999992005010817004+35733-005900FM-15+0021GMTT V0200401N00571999999CY0099001N1+01501+00801999999ADDMA1103011999999MW1001REMMET045GMTT 081700Z 04011KT CAVOK 15/08 Q1030 NOSIG;
0078601010999992005010817304+35733-005900FM-15+0021GMTT V0200501N00571999999CY0099001N1+01301+00801999999ADDMA1103011999999MW1001REMMET045GMTT 081730Z 05011KT CAVOK 13/08 Q1030 NOSIG;
0231601010999992005010818004+35733-005900SY-MT+0021GMTT V0200501N005119999999Y0150001N1+01211+00721103071ADDAA106000091GF100991001001999999001001KA1999M+01821MA1103011999999MD1510001+9999MW1001REMSYN064AAXX  08184 60101 32965 00510 10121 20072 40307 55000 333 10182;MET045GMTT 081800Z 05010KT CAVOK 12/07 Q1030 NOSIG;EQDQ01  00002PRCP06
0078601010999992005010818304+35733-005900FM-15+0021GMTT V0200701N00461999999CY0099001N1+01101+00701999999ADDMA1103011999999MW1001REMMET045GMTT 081830Z 07009KT CAVOK 11/07 Q1030 NOSIG;
0078601010999992005010819304+35733-005900FM-15+0021GMTT V0200901N00261999999CY0099001N1+00801+00501999999ADDMA1103011999999MW1001REMMET045GMTT 081930Z 09005KT CAVOK 08/05 Q1030 NOSIG;
0078601010999992005010820004+35733-005900FM-15+0021GMTT V0200701N00311999999CY0099001N1+00801+00501999999ADDMA1103011999999MW1001REMMET045GMTT 082000Z 07006KT CAVOK 08/05 Q1030 NOSIG;
0078601010999992005010820304+35733-005900FM-15+0021GMTT V0200601N00261999999CY0099001N1+00701+00501999999ADDMA1103121999999MW1001REMMET045GMTT 082030Z 06005KT CAVOK 07/05 Q1031 NOSIG;
0208601010999992005010821004+35733-005900SY-MT+0021GMTT V0200501N002119999999Y0150001N1+00761+00531103111ADDAA106000091GF100991001001999999001001MA1103121999999MD1810101+9999MW1001REMSYN054AAXX  08214 60101 32965 00504 10076 20053 40311 58010;MET045GMTT 082100Z 05004KT CAVOK 08/05 Q1031 NOSIG;EQDQ01  00002PRCP06
0078601010999992005010821304+35733-005900FM-15+0021GMTT V0200501N00151999999CY0099001N1+00701+00501999999ADDMA1103121999999MW1001REMMET045GMTT 082130Z 05003KT CAVOK 07/05 Q1031 NOSIG;
0078601010999992005010822004+35733-005900FM-15+0021GMTT V0200801N00261999999CY0099001N1+00701+00501999999ADDMA1103011999999MW1001REMMET045GMTT 082200Z 08005KT CAVOK 07/05 Q1030 NOSIG;
0078601010999992005010822304+35733-005900FM-15+0021GMTT V0200601N00261999999CY0099001N1+00901+00601999999ADDMA1103011999999MW1001REMMET045GMTT 082230Z 06005KT CAVOK 09/06 Q1030 NOSIG;
0078601010999992005010823004+35733-005900FM-15+0021GMTT V0200901N00151999999CY0099001N1+00801+00501999999ADDMA1103011999999MW1001REMMET045GMTT 082300Z 09003KT CAVOK 08/05 Q1030 NOSIG;
0134601010999992005010823304+35733-005900FM-15+0021GMTT V0200601N002112200019N0080001N1+00701+00401999999ADDGF100991999999999999999999MA1103011999999MW1001REMMET056GMTT 082330Z 06004KT 020V080 8000 SKC 07/04 Q1030 NOSIG;EQDQ01    003SCCGA1
0211601010999992005010900004+35730-005900SY-MT+0021GMTT V0200601N004112200019N0080001N1+00771+00561103061ADDAA106000091GF100991001001999999001001MA1103011999999MD1710051+9999MW1001REMSYN054AAXX  09004 60101 32958 00608 10077 20056 40306 57005;MET048GMTT 090000Z 07008KT 8000 SKC 08/06 Q1030 NOSIG;EQDQ01  00002PRCP06
0126601010999992005010900304+35730-005900FM-15+0021GMTT V0200701N003612200019N0080001N1+00801+00601999999ADDGF100991999999999999999999MA1103011999999MW1001REMMET048GMTT 090030Z 07007KT 8000 SKC 08/06 Q1030 NOSIG;EQDQ01    003SCCGA1
0126601010999992005010901004+35730-005900FM-15+0021GMTT V0200901N000512200019N0080001N1+00801+00501999999ADDGF100991999999999999999999MA1103011999999MW1001REMMET048GMTT 090100Z 09001KT 8000 SKC 08/05 Q1030 NOSIG;EQDQ01    003SCCGA1
0126601010999992005010901304+35730-005900FM-15+0021GMTT V0201001N002112200019N0080001N1+00701+00401999999ADDGF100991999999999999999999MA1103011999999MW1001REMMET048GMTT 090130Z 10004KT 8000 SKC 07/04 Q1030 NOSIG;EQDQ01    003SCCGA1
0126601010999992005010902004+35730-005900FM-15+0021GMTT V0200801N001512200019N0080001N1+00701+00501999999ADDGF100991999999999999999999MA1103011999999MW1001REMMET048GMTT 090200Z 08003KT 8000 SKC 07/05 Q1030 NOSIG;EQDQ01    003SCCGA1
0133601010999992005010902304+35730-005900FM-15+0021GMTT V0200901N002112200019N0080001N1+00601+00301999999ADDGF100991999999999999999999MA1103011999999REMMET061GMTT 090230Z AUTO 09004KT 070V130 8000 SKC 06/03 Q1030 NOSIG;EQDQ01    003SCCGA1
0211601010999992005010903004+35730-005900SY-MT+0021GMTT V0200801N003612200019N0080001N1+00641+00441103001ADDAA106000091GF100991001001999999001001MA1102911999999MD1610091+9999MW1001REMSYN054AAXX  09034 60101 32958 00807 10064 20044 40300 56009;MET048GMTT 090300Z 08007KT 8000 SKC 06/04 Q1029 NOSIG;EQDQ01  00002PRCP06
0126601010999992005010903304+35730-005900FM-15+0021GMTT V0200901N004112200019N0080001N1+00701+00501999999ADDGF100991999999999999999999MA1102911999999MW1001REMMET048GMTT 090330Z 09008KT 8000 SKC 07/05 Q1029 NOSIG;EQDQ01    003SCCGA1
0080601010999992005010903304+35730-005900FM-16+0021GMTT V0200901N004212200019N9999999N1+00701+00501999999ADDMA1102901999999MW1001REMMET047GMTT 090330Z 09008KT 800 SKC 07/05 Q1029 NOSIG;
0125601010999992005010904004+35730-005900FM-15+0021GMTT V0200801N004112200019N0080001N1+00701+00501999999ADDGF100991999999999999999999MA1102911999999REMMET053GMTT 090400Z AUTO 08008KT 8000 SKC 07/05 Q1029 NOSIG;EQDQ01    003SCCGA1
0125601010999992005010904304+35730-005900FM-15+0021GMTT V0200701N005112200019N0080001N1+00801+00601999999ADDGF100991999999999999999999MA1102911999999REMMET053GMTT 090430Z AUTO 07010KT 8000 SKC 08/06 Q1029 NOSIG;EQDQ01    003SCCGA1
0126601010999992005010905004+35730-005900FM-15+0021GMTT V0200701N004612200019N0080001N1+00701+00501999999ADDGF100991999999999999999999MA1102911999999MW1001REMMET048GMTT 090500Z 07009KT 8000 SKC 07/05 Q1029 NOSIG;EQDQ01    003SCCGA1
0126601010999992005010905304+35730-005900FM-15+0021GMTT V0200801N005112200019N0080001N1+00801+00501999999ADDGF100991999999999999999999MA1102911999999MW1001REMMET048GMTT 090530Z 08010KT 8000 SKC 08/05 Q1029 NOSIG;EQDQ01    003SCCGA1
0124601010999992005010906004+35730-005900FM-15+0021GMTT V0200801N004612200019N0080001N1+00801+00501999999ADDGF100991999999999999999999MA1102911999999MW1001REMMET046GMTT 090600Z 08009KT 8000 SKC 08/05 Q1029 NSG;EQDQ01    003SCCGA1
0126601010999992005010907004+35730-005900FM-15+0021GMTT V0200801N006712200019N0080001N1+00801+00601999999ADDGF100991999999999999999999MA1102911999999MW1001REMMET048GMTT 090700Z 08013KT 8000 SKC 08/06 Q1029 NOSIG;EQDQ01    003SCCGA1
0126601010999992005010907304+35730-005900FM-15+0021GMTT V0200701N006212200019N0080001N1+00901+00601999999ADDGF100991999999999999999999MA1102911999999MW1001REMMET048GMTT 090730Z 07012KT 8000 SKC 09/06 Q1029 NOSIG;EQDQ01    003SCCGA1
0126601010999992005010908004+35730-005900FM-15+0021GMTT V0200801N006212200019N0080001N1+00901+00601999999ADDGA1025+006001999GF102991999999999999999999MA1102911999999MW1001REMMET051GMTT 090800Z 08012KT 8000 FEW020 09/06 Q1029 NOSIG;
0126601010999992005010908304+35730-005900FM-15+0021GMTT V0200801N006212200019N0080001N1+01001+00601999999ADDGA1025+006001999GF102991999999999999999999MA1102911999999MW1001REMMET051GMTT 090830Z 08012KT 8000 FEW020 10/06 Q1029 NOSIG;
0246601010999992005010909004+35730-005900SY-MT+0021GMTT V0200801N006212200019N0080001N1+01101+00701103011ADDAA106000091GA1025+006001999GF102991021051008001001001MA1103011999999MD1310081+9999MW1001REMSYN070AAXX  09094 60101 32558 20812 10110 20070 40301 53008 82500 333 82620;MET051GMTT 090900Z 08012KT 8000 FEW020 11/07 Q1030 NOSIG;EQDQ01  00002PRCP06
0126601010999992005010909304+35730-005900FM-15+0021GMTT V0200801N006712200019N0080001N1+01301+00801999999ADDGA1025+006001999GF102991999999999999999999MA1103011999999MW1001REMMET051GMTT 090930Z 08013KT 8000 FEW020 13/08 Q1030 NOSIG;
0078601010999992005010910004+35730-005900FM-15+0021GMTT V0200801N00821999999CY0099001N1+01401+00801999999ADDMA1103011999999MW1001REMMET045GMTT 091000Z 08016KT CAVOK 14/08 Q1030 NOSIG;
0078601010999992005010910304+35730-005900FM-15+0021GMTT V0200801N00821999999CY0099001N1+01401+00801999999ADDMA1103011999999MW1001REMMET045GMTT 091030Z 08016KT CAVOK 14/08 Q1030 NOSIG;
0078601010999992005010911004+35730-005900FM-15+0021GMTT V0200801N00981999999CY0099001N1+01501+00801999999ADDMA1103011999999MW1001REMMET045GMTT 091100Z 08019KT CAVOK 15/08 Q1030 NOSIG;
0078601010999992005010911304+35730-005900FM-15+0021GMTT V0200801N00981999999CY0099001N1+01601+00801999999ADDMA1103011999999MW1001REMMET045GMTT 091130Z 08019KT CAVOK 16/08 Q1030 NOSIG;
0224601010999992005010912004+35730-005900SY-MT+0021GMTT V0200801N00871999999CY0100001N1+01631+00771102991ADDAA106000091GF102991001001999999001011MA1102911999999MD1810021+9999MW1001REMSYN070AAXX  09124 60101 32960 20817 10163 20077 40299 58002 80001 333 82070;MET045GMTT 091200Z 08017KT CAVOK 16/08 Q1029 NOSIG;EQDQ01  00002PRCP06
0078601010999992005010912304+35730-005900FM-15+0021GMTT V0200801N00821999999CY0099001N1+01701+00801999999ADDMA1102911999999MW1001REMMET045GMTT 091230Z 08016KT CAVOK 17/08 Q1029 NOSIG;
0078601010999992005010913004+35730-005900FM-15+0021GMTT V0200801N00721999999CY0099001N1+01701+00701999999ADDMA1102911999999MW1001REMMET045GMTT 091300Z 08014KT CAVOK 17/07 Q1029 NOSIG;
0078601010999992005010913304+35730-005900FM-15+0021GMTT V0200701N00771999999CY0099001N1+01701+00701999999ADDMA1102811999999MW1001REMMET045GMTT 091330Z 07015KT CAVOK 17/07 Q1028 NOSIG;
0078601010999992005010914004+35730-005900FM-15+0021GMTT V0200701N00771999999CY0099001N1+01701+00701999999ADDMA1102811999999MW1001REMMET045GMTT 091400Z 07015KT CAVOK 17/07 Q1028 NOSIG;
0078601010999992005010914304+35730-005900FM-15+0021GMTT V0200701N00821999999CY0099001N1+01701+00601999999ADDMA1102811999999MW1001REMMET045GMTT 091430Z 07016KT CAVOK 17/06 Q1028 NOSIG;
0240601010999992005010915004+35730-005900SY-MT+0021GMTT V0200801N007719999999Y0100001N1+01671+00611102811ADDAA106000091GA1021+060001001GF102991001001999999001011MA1102811999999MD1810241+9999MW1001REMSYN070AAXX  09154 60101 32960 20815 10167 20061 40281 58024 80001 333 82070;MET045GMTT 091500Z 08015KT CAVOK 17/06 Q1028 NOSIG;EQDQ01  00002PRCP06
0078601010999992005010915304+35730-005900FM-15+0021GMTT V0200801N00771999999CY0099001N1+01601+00601999999ADDMA1102811999999MW1001REMMET045GMTT 091530Z 08015KT CAVOK 16/06 Q1028 NOSIG;
0078601010999992005010916004+35730-005900FM-15+0021GMTT V0200801N00771999999CY0099001N1+01601+00601999999ADDMA1102811999999MW1001REMMET045GMTT 091600Z 08015KT CAVOK 16/06 Q1028 NOSIG;
0078601010999992005010916304+35730-005900FM-15+0021GMTT V0200801N00871999999CY0099001N1+01401+00601999999ADDMA1102811999999MW1001REMMET045GMTT 091630Z 08017KT CAVOK 14/06 Q1028 NOSIG;
0078601010999992005010917004+35730-005900FM-15+0021GMTT V0200801N00871999999CY0099001N1+01401+00601999999ADDMA1102811999999MW1001REMMET045GMTT 091700Z 08017KT CAVOK 14/06 Q1028 NOSIG;
0078601010999992005010917304+35730-005900FM-15+0021GMTT V0200701N00721999999CY0099001N1+01301+00501999999ADDMA1102811999999MW1001REMMET045GMTT 091730Z 07014KT CAVOK 13/05 Q1028 NOSIG;
0259601010999992005010918004+35730-005900SY-MT+0021GMTT V0200801N007719999999Y0100001N1+01201+00551102841ADDAA106000091GA1041+060001001GF104991001001999999001011KA1120M+01731MA1102811999999MD1810011+9999MW1001REMSYN076AAXX  09184 60101 32960 40815 10120 20055 40284 58001 80001 333 10173 84070;MET045GMTT 091800Z 08015KT CAVOK 12/06 Q1028 NOSIG;EQDQ01  00002PRCP06
0078601010999992005010918304+35730-005900FM-15+0021GMTT V0200801N00671999999CY0099001N1+01101+00601999999ADDMA1102811999999MW1001REMMET045GMTT 091830Z 08013KT CAVOK 11/06 Q1028 NOSIG;
0078601010999992005010919004+35730-005900FM-15+0021GMTT V0200901N00621999999CY0099001N1+01101+00601999999ADDMA1102811999999MW1001REMMET045GMTT 091900Z 09012KT CAVOK 11/06 Q1028 NOSIG;
0078601010999992005010919304+35730-005900FM-15+0021GMTT V0200801N00671999999CY0099001N1+01001+00601999999ADDMA1102911999999MW1001REMMET045GMTT 091930Z 08013KT CAVOK 10/06 Q1029 NOSIG;
0078601010999992005010920004+35730-005900FM-15+0021GMTT V0200901N00671999999CY0099001N1+01101+00601999999ADDMA1102911999999MW1001REMMET045GMTT 092000Z 09013KT CAVOK 11/06 Q1029 NOSIG;
0078601010999992005010920304+35730-005900FM-15+0021GMTT V0200801N00721999999CY0099001N1+01101+00601999999ADDMA1102911999999MW1001REMMET045GMTT 092030Z 08014KT CAVOK 11/06 Q1029 NOSIG;
0240601010999992005010921004+35730-005900SY-MT+0021GMTT V0200801N007219999999Y0100001N1+01021+00591102921ADDAA106000091GA1021+060001001GF102991001001999999001011MA1102911999999MD1110081+9999MW1001REMSYN070AAXX  09214 60101 32960 20814 10102 20059 40292 51008 80001 333 82070;MET045GMTT 092100Z 08014KT CAVOK 10/06 Q1029 NOSIG;EQDQ01  00002PRCP06
0078601010999992005010921304+35730-005900FM-15+0021GMTT V0200801N00721999999CY0099001N1+01001+00601999999ADDMA1102911999999MW1001REMMET045GMTT 092130Z 08014KT CAVOK 10/06 Q1029 NOSIG;
0078601010999992005010922004+35730-005900FM-15+0021GMTT V0200801N00671999999CY0099001N1+01001+00701999999ADDMA1102911999999MW1001REMMET045GMTT 092200Z 08013KT CAVOK 10/07 Q1029 NOSIG;
0078601010999992005010922304+35730-005900FM-15+0021GMTT V0200801N00721999999CY0099001N1+01001+00601999999ADDMA1102911999999MW1001REMMET045GMTT 092230Z 08014KT CAVOK 10/06 Q1029 NOSIG;
0078601010999992005010923004+35730-005900FM-15+0021GMTT V0200801N00721999999CY0099001N1+01001+00601999999ADDMA1102911999999MW1001REMMET045GMTT 092300Z 08014KT CAVOK 10/06 Q1029 NOSIG;
0078601010999992005010923304+35730-005900FM-15+0021GMTT V0200801N00671999999CY0099001N1+01001+00601999999ADDMA1102911999999MW1001REMMET045GMTT 092330Z 08013KT CAVOK 10/06 Q1029 NOSIG;
0208601010999992005011000004+35733-005900SY-MT+0021GMTT V0200801N006219999999Y0100001N1+01001+00581102891ADDAA106000091GF100991001001999999001001MA1102811999999MD1810031+9999MW1001REMSYN054AAXX  10004 60101 32960 00812 10100 20058 40289 58003;MET045GMTT 100000Z 08012KT CAVOK 10/06 Q1028 NOSIG;EQDQ01  00002PRCP06
0077601010999992005011000304+35733-005900AUTO +0021GMTT V0200801N006219999999Y0099005N1+01001+00601999999ADDMA1102801999999REMMET050GMTT 100030Z AUTO 08012KT CAVOK 10/06 Q1028 NOSIG;
0077601010999992005011001004+35733-005900AUTO +0021GMTT V0200801N005719999999Y0099005N1+01001+00601999999ADDMA1102801999999REMMET050GMTT 100100Z AUTO 08011KT CAVOK 10/06 Q1028 NOSIG;
0077601010999992005011001304+35733-005900AUTO +0021GMTT V0200801N005219999999Y0099005N1+01001+00601999999ADDMA1102801999999REMMET050GMTT 100130Z AUTO 08010KT CAVOK 10/06 Q1028 NOSIG;
0078601010999992005011002004+35733-005900FM-15+0021GMTT V0200801N00671999999CY0099001N1+01001+00601999999ADDMA1102811999999MW1001REMMET045GMTT 100200Z 08013KT CAVOK 10/06 Q1028 NOSIG;
0077601010999992005011002304+35733-005900AUTO +0021GMTT V0200801N006219999999Y0099005N1+01001+00601999999ADDMA1102801999999REMMET050GMTT 100230Z AUTO 08012KT CAVOK 10/06 Q1028 NOSIG;
0208601010999992005011003004+35733-005900SY-MT+0021GMTT V0200801N006219999999Y0100001N1+00891+00541102871ADDAA106000091GF100991001001999999001001MA1102811999999MD1510021+9999MW1001REMSYN054AAXX  10034 60101 32960 00812 10089 20054 40287 55002;MET045GMTT 100300Z 08012KT CAVOK 09/06 Q1028 NOSIG;EQDQ01  00002PRCP06
0077601010999992005011003304+35733-005900AUTO +0021GMTT V0200801N005719999999Y0099005N1+01001+00601999999ADDMA1102801999999REMMET050GMTT 100330Z AUTO 08011KT CAVOK 10/06 Q1028 NOSIG;
0078601010999992005011004004+35733-005900FM-15+0021GMTT V0200801N00571999999CY0099001N1+00901+00501999999ADDMA1102811999999MW1001REMMET045GMTT 100400Z 08011KT CAVOK 09/05 Q1028 NOSIG;
0077601010999992005011004304+35733-005900AUTO +0021GMTT V0200801N005719999999Y0099005N1+00901+00501999999ADDMA1102801999999REMMET050GMTT 100430Z AUTO 08011KT CAVOK 09/05 Q1028 NOSIG;
0078601010999992005011005004+35733-005900FM-15+0021GMTT V0200801N00571999999CY0099001N1+00901+00501999999ADDMA1102811999999MW1001REMMET045GMTT 100500Z 08011KT CAVOK 09/05 Q1028 NOSIG;
0078601010999992005011005304+35733-005900FM-15+0021GMTT V0200801N00461999999CY0099001N1+00801+00501999999ADDMA1102911999999MW1001REMMET045GMTT 100530Z 08009KT CAVOK 08/05 Q1029 NOSIG;
0231601010999992005011006004+35733-005900SY-MT+0021GMTT V0200801N004619999999Y0100001N1+00791+00531102921ADDAA106000091GF100991001001999999001001KA1999N+00751MA1102911999999MD1310051+9999MW1001REMSYN064AAXX  10064 60101 32960 00809 10079 20053 40292 53005 333 20075;MET045GMTT 100600Z 08009KT CAVOK 08/05 Q1029 NOSIG;EQDQ01  00002PRCP06
0078601010999992005011006304+35733-005900FM-15+0021GMTT V0200701N00411999999CY0099001N1+00701+00501999999ADDMA1102911999999MW1001REMMET045GMTT 100630Z 07008KT CAVOK 07/05 Q1029 NOSIG;
0126601010999992005011007004+35733-005900FM-15+0021GMTT V0200801N004612200019N0112651N1+00701+00501999999ADDGA1025+004801999GF102991999999999999999999MA1102911999999MW1001REMMET051GMTT 100700Z 08009KT 9999 FEW016 07/05 Q1029 NOSIG;
0126601010999992005011007304+35733-005900FM-15+0021GMTT V0200901N003112200019N0112651N1+00701+00401999999ADDGA1025+004801999GF102991999999999999999999MA1103011999999MW1001REMMET051GMTT 100730Z 09006KT 9999 FEW016 07/04 Q1030 NOSIG;
0126601010999992005011008004+35733-005900FM-15+0021GMTT V0200701N004612200019N0112651N1+00801+00501999999ADDGA1025+004801999GF102991999999999999999999MA1103011999999MW1001REMMET051GMTT 100800Z 07009KT 9999 FEW016 08/05 Q1030 NOSIG;
0078601010999992005011008304+35733-005900FM-15+0021GMTT V0200801N00461999999CY0099001N1+00901+00501999999ADDMA1103011999999MW1001REMMET045GMTT 100830Z 08009KT CAVOK 09/05 Q1030 NOSIG;
0224601010999992005011009004+35733-005900SY-MT+0021GMTT V0200801N00511999999CY0100001N1+01051+00611103111ADDAA106000091GF102991021051999999001999MA1103121999999MD1310161+9999MW1001REMSYN070AAXX  10094 60101 32960 20810 10105 20061 40311 53016 82500 333 82070;MET045GMTT 100900Z 08010KT CAVOK 11/06 Q1031 NOSIG;EQDQ01  00002PRCP06
0078601010999992005011009304+35733-005900FM-15+0021GMTT V0200801N00461999999CY0099001N1+01201+00701999999ADDMA1103121999999MW1001REMMET045GMTT 100930Z 08009KT CAVOK 12/07 Q1031 NOSIG;
0078601010999992005011010004+35733-005900FM-15+0021GMTT V0200901N00461999999CY0099001N1+01301+00701999999ADDMA1103121999999MW1001REMMET045GMTT 101000Z 09009KT CAVOK 13/07 Q1031 NOSIG;
0078601010999992005011010304+35733-005900FM-15+0021GMTT V0201001N00571999999CY0099001N1+01501+00701999999ADDMA1103121999999MW1001REMMET045GMTT 101030Z 10011KT CAVOK 15/07 Q1031 NOSIG;
0078601010999992005011011004+35733-005900FM-15+0021GMTT V0201001N00461999999CY0099001N1+01601+00701999999ADDMA1103121999999MW1001REMMET045GMTT 101100Z 10009KT CAVOK 16/07 Q1031 NOSIG;
0078601010999992005011011304+35733-005900FM-15+0021GMTT V0200901N00461999999CY0099001N1+01601+00701999999ADDMA1103121999999MW1001REMMET045GMTT 101130Z 09009KT CAVOK 16/07 Q1031 NOSIG;
0232601010999992005011012004+35733-005900SY-MT+0021GMTT V0200901N00361999999CY0100001N1+01681+00651103161ADDAA106000091GF102991001001999999001021MA1103121999999MD1010131+9999MW1001REMSYN070AAXX  10124 60101 32960 20907 10168 20065 40316 50013 80002 333 82070;MET053GMTT 101200Z 09007KT 060V130 CAVOK 17/07 Q1031 NOSIG;EQDQ01  00002PRCP06
0086601010999992005011012304+35733-005900FM-15+0021GMTT V0200801N00461999999CY0099001N1+01701+00601999999ADDMA1103121999999MW1001REMMET053GMTT 101230Z 08009KT 050V110 CAVOK 17/06 Q1031 NOSIG;
0086601010999992005011013004+35733-005900FM-15+0021GMTT V0200801N00361999999CY0099001N1+01801+00601999999ADDMA1103011999999MW1001REMMET053GMTT 101300Z 08007KT 030V120 CAVOK 18/06 Q1030 NOSIG;
0086601010999992005011013304+35733-005900FM-15+0021GMTT V0200701N00311999999CY0099001N1+01801+00501999999ADDMA1103011999999MW1001REMMET053GMTT 101330Z 07006KT 010V130 CAVOK 18/05 Q1030 NOSIG;
0078601010999992005011014004+35733-005900FM-15+0021GMTT V0202501N00461999999CY0099001N1+01801+00501999999ADDMA1103011999999MW1001REMMET045GMTT 101400Z 25009KT CAVOK 18/05 Q1030 NOSIG;
0182601010999992005011015004+35733-005900SY-MT+0021GMTT V0202401N002619999999Y0099001N1+01771+00821102981ADDAA106000091MA1102911999999MD1810181+9999MW1001REMSYN054AAXX  10154 60101 33/// /2405 10177 20082 40298 58018;MET045GMTT 101500Z 24006KT CAVOK 18/08 Q1029 NOSIG;EQDQ01  00002PRCP06
0086601010999992005011015304+35733-005900FM-15+0021GMTT V0202401N00261999999CY0099001N1+01701+00801999999ADDMA1102911999999MW1001REMMET053GMTT 101530Z 24005KT 210V310 CAVOK 17/08 Q1029 NOSIG;
0078601010999992005011016004+35733-005900FM-15+0021GMTT V0201901N00101999999CY0099001N1+01701+00601999999ADDMA1102911999999MW1001REMMET045GMTT 101600Z 19002KT CAVOK 17/06 Q1029 NOSIG;
0086601010999992005011016304+35733-005900FM-15+0021GMTT V0200701N00411999999CY0099001N1+01601+00601999999ADDMA1102911999999MW1001REMMET053GMTT 101630Z 07008KT 040V100 CAVOK 16/06 Q1029 N0SIG;
0078601010999992005011017004+35733-005900FM-15+0021GMTT V0200701N00361999999CY0099001N1+01501+00601999999ADDMA1103011999999MW1001REMMET045GMTT 101700Z 07007KT CAVOK 15/06 Q1030 N0SIG;
0078601010999992005011017304+35733-005900FM-15+0021GMTT V0200701N00411999999CY0099001N1+01401+00601999999ADDMA1103011999999MW1001REMMET045GMTT 101730Z 07008KT CAVOK 14/06 Q1030 N0SIG;
0231601010999992005011018004+35733-005900SY-MT+0021GMTT V0200701N003619999999Y0100001N1+01221+00621103041ADDAA106000091GF100991001001999999001001KA1999M+01851MA1103011999999MD1310011+9999MW1001REMSYN064AAXX  10184 60101 32960 00707 10122 20062 40304 53001 333 10185;MET045GMTT 101800Z 07007KT CAVOK 12/06 Q1030 N0SIG;EQDQ01  00002PRCP06
0078601010999992005011019004+35733-005900FM-15+0021GMTT V0200801N00461999999CY0099001N1+01001+00601999999ADDMA1103011999999MW1001REMMET045GMTT 101900Z 08009KT CAVOK 10/06 Q1030 N0SIG;
