0235601010999992006010100004+35733-005900SY-MT+0021GMTT V0202701N00621004801CN0080001N1+01461+01201102711ADDGA1075+004801999GF107991071051004501999999MA1102711999999MD1310061+9999MW1001REMSYN070AAXX  01004 60101 32458 72712 10146 20120 40271 53006 875// 333 87616;MET051GMTT 010000Z 27012KT 8000 BKN016 15/12 Q1027 NOSIG;EQDQ01+000000PRSWM2
0139601010999992006010100304+35733-005900FM-15+0021GMTT V0202601N00671004801CN0080001N1+01501+01201999999ADDGA1075+004801999GF107991999999999999999999MA1102611999999REMMET051GMTT 010030Z 26013KT 8000 BKN016 15/12 Q1026 NOSIG;EQDQ01+000000PRSWM1
0139601010999992006010101004+35733-005900FM-15+0021GMTT V0202701N00621004801CN0080001N1+01501+01201999999ADDGA1075+004801999GF107991999999999999999999MA1102611999999REMMET051GMTT 010100Z 27012KT 8000 BKN016 15/12 Q1026 NOSIG;EQDQ01+000000PRSWM1
0144601010999992006010101304+35733-005900FM-15+0021GMTT V0202701N00621004801CN0080001N1+01501+01201999999ADDGA1075+004801999GF107991999999999999999999MA1102611999999REMMET056GMTT 010130Z AUTO 27012KT 8000 BKN016 15/12 Q1026 NOSIG;EQDQ01+000000PRSWMA
0139601010999992006010102004+35733-005900FM-15+0021GMTT V0202601N00571004801CN0080001N1+01501+01201999999ADDGA1075+004801999GF107991999999999999999999MA1102611999999REMMET051GMTT 010200Z 26011KT 8000 BKN016 15/12 Q1026 NOSIG;EQDQ01+000000PRSWM1
0144601010999992006010102304+35733-005900FM-15+0021GMTT V0202701N00621004801CN0080001N1+01501+01201999999ADDGA1075+004801999GF107991999999999999999999MA1102611999999REMMET056GMTT 010230Z AUTO 27012KT 8000 BKN016 15/12 Q1026 NOSIG;EQDQ01+000000PRSWMA
0226601010999992006010103004+35733-005900SY-MT+0021GMTT V0202701N00621004801CN0080001N1+01511+01171102641ADDAY151031AY201031GA1075+004801999GF106991999999004501999999MA1102611999999MD1610081+9999REMSYN070AAXX  01034 60101 32458 62712 10151 20117 40264 56008 78650 333 86616;MET051GMTT 010300Z 27012KT 8000 BKN016 15/12 Q1026 NOSIG;
0145601010999992006010104004+35733-005900FM-15+0021GMTT V0202701N00671004801CN0080001N1+01501+01201999999ADDGA1075+004801999GF107991999999999999999999MA1102611999999REMMET057METAR GMTT 010400Z 27013KT 8000 BKN016 15/12 Q1026 NOSIG;EQDQ01+000000PRSWM1
0139601010999992006010105004+35733-005900FM-15+0021GMTT V0202701N00821004801CN0080001N1+01501+01101999999ADDGA1075+004801999GF107991999999999999999999MA1102511999999REMMET051GMTT 010500Z 27016KT 8000 BKN016 15/11 Q1025 NOSIG;EQDQ01+000000PRSWM1
0139601010999992006010105304+35733-005900FM-15+0021GMTT V0202501N00621006001CN0080001N1+01501+01101999999ADDGA1075+006001999GF107991999999999999999999MA1102511999999REMMET051GMTT 010530Z 25012KT 8000 BKN020 15/11 Q1025 NOSIG;EQDQ01+000000PRSWM1
0254601010999992006010106004+35733-005900SY-MT+0021GMTT V0202501N00721006001CN0080001N1+01531+01171102571ADDGA1075+006001999GF199999061051008001001001KA1120N+01401MA1102511999999MD1610071+9999MW1001REMSYN076AAXX  01064 60101 32558 62514 10153 20117 40257 56007 86500 333 20140 86620;MET051GMTT 010600Z 25014KT 8000 BKN020 15/12 Q1025 NOSIG;EQDQ01+000062SCOTCV
0150601010999992006010106304+35733-005900FM-15+0021GMTT V0202501N00721006001CN0080001N1+01501+01201999999ADDGA1075+006001999GF107991999999999999999999MA1102511999999REMMET062METAR GMTT 010630Z AUTO 25014KT 8000 BKN020 15/12 Q1025 NOSIG;EQDQ01+000000PRSWMA
0162601010999992006010107004+35733-005900FM-15+0021GMTT V0203301N00671006001CN0080001N1+01401+01201999999ADDGA1025+002401999GA2075+006001999GF107991999999999999999999MA1102611999999REMMET058GMTT 010700Z 33013KT 8000 FEW008 BKN020 14/12 Q1026 NOSIG;EQDQ01+000000PRSWM1
0172601010999992006010107304+35733-005900FM-15+0021GMTT V0203301N00671006001CN0080001N1+01301+01201999999ADDGA1025+002401999GA2075+006001999GF107991999999999999999999MA1102611999999MW1611REMMET062GMTT 010730Z 33013KT 8000 -RA FEW008 BKN020 13/12 Q1026 NOSIG;EQDQ01+000000PRSWM1
0162601010999992006010108004+35733-005900FM-15+0021GMTT V0203201N00721006001CN0060001N1+01301+01101999999ADDGA1025+002401999GA2075+006001999GF107991999999999999999999MA1102611999999REMMET058GMTT 010800Z 32014KT 6000 FEW008 BKN020 13/11 Q1026 NOSIG;EQDQ01+000000PRSWM1
0167601010999992006010108304+35733-005900FM-15+0021GMTT V0203101N00571006001CN0060001N1+01301+01001999999ADDGA1025+002401999GA2075+006001999GF107991999999999999999999MA1102611999999REMMET063GMTT 010830Z AUTO 31011KT 6000 FEW008 BKN020 13/10 Q1026 NOSIG;EQDQ01+000000PRSWMA
0286601010999992006010109004+35733-005900SY-MT+0021GMTT V0203201N00671006001CN0080001N1+01371+01051102731ADDAY121031AY261031GA1025+002401999GA2075+006001999GF107991999051002501001001MA1102711999999MD1110151+9999MW1021REMSYN082AAXX  01094 60101 41358 73213 10137 20105 40273 51015 70226 86500 333 82708 87520;MET058GMTT 010900Z 32013KT 8000 FEW008 BKN020 14/11 Q1027 NOSIG;EQDQ01+000062SCOTLC
0139601010999992006010109304+35733-005900FM-15+0021GMTT V0203201N00721006001CN0080001N1+01401+01001999999ADDGA1075+006001999GF107991999999999999999999MA1102711999999REMMET051GMTT 010930Z 32014KT 8000 BKN020 14/10 Q1027 NOSIG;EQDQ01+000000PRSWM1
0139601010999992006010110004+35733-005900FM-15+0021GMTT V0203201N00721006001CN0080001N1+01501+01001999999ADDGA1075+006001999GF107991999999999999999999MA1102711999999REMMET051GMTT 011000Z 32014KT 8000 BKN020 15/10 Q1027 NOSIG;EQDQ01+000000PRSWM1
0113601010999992006010110304+35733-005900FM-15+0021GMTT V0203201N007712200019N0112651N1+01601+01001999999ADDGA1045+006005999MA1102801999999REMMET051GMTT 011030Z 32015KT 9999 SCT020 16/10 Q1028 NOSIG;EQDQ01+000000PRSWM1
0113601010999992006010111004+35733-005900FM-15+0021GMTT V0203201N007212200019N0112651N1+01601+01101999999ADDGA1045+006005999MA1102801999999REMMET051GMTT 011100Z 32014KT 9999 SCT020 16/11 Q1028 NOSIG;EQDQ01+000000PRSWM1
0113601010999992006010111304+35733-005900FM-15+0021GMTT V0203101N006712200019N0112651N1+01601+01001999999ADDGA1045+006005999MA1102701999999REMMET051GMTT 011130Z 31013KT 9999 SCT020 16/10 Q1027 NOSIG;EQDQ01+000000PRSWM1
0274601010999992006010112004+35733-005900SY-MT+0021GMTT V0203101N007212200019N0100001N1+01651+01101102741ADDAA106001091AY161061AY261061GA1045+006001061GF104991041051008001001001MA1102701999999MD1010021+9999MW1021REMSYN082AAXX  01124 60101 11560 43114 10165 20110 40274 50002 60011 70266 84500 333 84620;MET051GMTT 011200Z 31014KT 9999 SCT020 16/11 Q1027 NOSIG;EQDQ01+000000PRSWM2
0113601010999992006010112304+35733-005900FM-15+0021GMTT V0203001N007212200019N0112651N1+01701+01101999999ADDGA1045+006005999MA1102601999999REMMET051GMTT 011230Z 30014KT 9999 SCT020 17/11 Q1026 NOSIG;EQDQ01+000000PRSWM1
0113601010999992006010113004+35733-005900FM-15+0021GMTT V0203001N008212200019N0112651N1+01601+01101999999ADDGA1045+006005999MA1102601999999REMMET051GMTT 011300Z 30016KT 9999 SCT020 16/11 Q1026 NOSIG;EQDQ01+000000PRSWM1
0139601010999992006010113304+35733-005900FM-15+0021GMTT V0203101N00771006001CN0112651N1+01601+01101999999ADDGA1075+006001999GF107991999999999999999999MA1102611999999REMMET051GMTT 011330Z 31015KT 9999 BKN020 16/11 Q1026 NOSIG;EQDQ01+000000PRSWM1
0139601010999992006010114004+35733-005900FM-15+0021GMTT V0203101N00721006001CN0112651N1+01601+01101999999ADDGA1075+006001999GF107991999999999999999999MA1102611999999REMMET051GMTT 011400Z 31014KT 9999 BKN020 16/11 Q1026 NOSIG;EQDQ01+000000PRSWM1
0139601010999992006010114304+35733-005900FM-15+0021GMTT V0203101N00621006001CN0112651N1+01601+01001999999ADDGA1075+006001999GF107991999999999999999999MA1102611999999REMMET051GMTT 011430Z 31012KT 9999 BKN020 16/10 Q1026 NOSIG;EQDQ01+000000PRSWM1
0235601010999992006010115004+35733-005900SY-MT+0021GMTT V0203101N00621006001CN0100001N1+01561+01021102611ADDGA1075+006001999GF199999051021008001001001MA1102611999999MD1610131+9999MW1001REMSYN070AAXX  01154 60101 32560 53112 10156 20102 40261 56013 85200 333 85820;MET051GMTT 011500Z 31012KT 9999 BKN020 16/10 Q1026 NOSIG;EQDQ01+000052SCOTCV
0139601010999992006010115304+35733-005900FM-15+0021GMTT V0203101N00511006001CN0112651N1+01501+01001999999ADDGA1075+006001999GF107991999999999999999999MA1102611999999REMMET051GMTT 011530Z 31010KT 9999 BKN020 15/10 Q1026 NOSIG;EQDQ01+000000PRSWM1
0139601010999992006010116004+35733-005900FM-15+0021GMTT V0203101N00621006001CN0112651N1+01501+01001999999ADDGA1075+006001999GF107991999999999999999999MA1102511999999REMMET051GMTT 011600Z 31012KT 9999 BKN020 15/10 Q1025 NOSIG;EQDQ01+000000PRSWM1
0139601010999992006010116304+35733-005900FM-15+0021GMTT V0203101N00571006001CN0112651N1+01401+00901999999ADDGA1075+006001999GF107991999999999999999999MA1102611999999REMMET051GMTT 011630Z 31011KT 9999 BKN020 14/09 Q1026 NOSIG;EQDQ01+000000PRSWM1
0139601010999992006010117004+35733-005900FM-15+0021GMTT V0203201N00461006001CN0112651N1+01401+00901999999ADDGA1075+006001999GF107991999999999999999999MA1102611999999REMMET051GMTT 011700Z 32009KT 9999 BKN020 14/09 Q1026 NOSIG;EQDQ01+000000PRSWM1
0139601010999992006010117304+35733-005900FM-15+0021GMTT V0203101N00511006001CN0112651N1+01301+00901999999ADDGA1075+006001999GF107991999999999999999999MA1102611999999REMMET051GMTT 011730Z 31010KT 9999 BKN020 13/09 Q1026 NOSIG;EQDQ01+000000PRSWM1
0113601010999992006010119004+35733-005900FM-15+0021GMTT V0203101N005112200019N0080001N1+01101+00801999999ADDGA1045+004805999MA1102601999999REMMET051GMTT 011900Z 31010KT 8000 SCT016 11/08 Q1026 NOSIG;EQDQ01+000000PRSWM1
0113601010999992006010119304+35733-005900FM-15+0021GMTT V0203101N004612200019N0080001N1+01101+00801999999ADDGA1045+004805999MA1102601999999REMMET051GMTT 011930Z 31009KT 8000 SCT016 11/08 Q1026 NOSIG;EQDQ01+000000PRSWM1
0113601010999992006010120004+35733-005900FM-15+0021GMTT V0203101N004112200019N0080001N1+01201+00901999999ADDGA1045+004805999MA1102701999999REMMET051GMTT 012000Z 31008KT 8000 SCT016 12/09 Q1027 NOSIG;EQDQ01+000000PRSWM1
0139601010999992006010120304+35733-005900FM-15+0021GMTT V0203001N00511004801CN0080001N1+01401+01001999999ADDGA1075+004801999GF107991999999999999999999MA1102711999999REMMET051GMTT 012030Z 30010KT 8000 BKN016 14/10 Q1027 NOSIG;EQDQ01+000000PRSWM1
0235601010999992006010121004+35733-005900SY-MT+0021GMTT V0203001N00511004801CN0080001N1+01431+01021102691ADDGA1075+004801999GF199999051051004501001001MA1102611999999MD1010031+9999MW1001REMSYN070AAXX  01214 60101 32458 53010 10143 20102 40269 50003 85500 333 85616;MET051GMTT 012100Z 30010KT 8000 BKN016 14/10 Q1026 NOSIG;EQDQ01+000052SCOTCV
0139601010999992006010121304+35733-005900FM-15+0021GMTT V0203001N00411004801CN0080001N1+01501+01001999999ADDGA1075+004801999GF107991999999999999999999MA1102611999999REMMET051GMTT 012130Z 30008KT 8000 BKN016 15/10 Q1026 NOSIG;EQDQ01+000000PRSWM1
0139601010999992006010122004+35733-005900FM-15+0021GMTT V0203301N00721004801CN0080001N1+01401+01001999999ADDGA1075+004801999GF107991999999999999999999MA1102611999999REMMET051GMTT 012200Z 33014KT 8000 BKN016 14/10 Q1026 NOSIG;EQDQ01+000000PRSWM1
0139601010999992006010122304+35733-005900FM-15+0021GMTT V0203301N00671004801CN0080001N1+01401+00901999999ADDGA1075+004801999GF107991999999999999999999MA1102611999999REMMET051GMTT 012230Z 33013KT 8000 BKN016 14/09 Q1026 NOSIG;EQDQ01+000000PRSWM1
0113601010999992006010123004+35733-005900FM-15+0021GMTT V0203401N006212200019N0080001N1+01301+00901999999ADDGA1045+004805999MA1102601999999REMMET051GMTT 012300Z 34012KT 8000 SCT016 13/09 Q1026 NOSIG;EQDQ01+000000PRSWM1
0113601010999992006010123304+35733-005900FM-15+0021GMTT V0203301N006712200019N0080001N1+01401+00901999999ADDGA1045+004805999MA1102601999999REMMET051GMTT 012330Z 33013KT 8000 SCT016 14/09 Q1026 NOSIG;EQDQ01+000000PRSWM1
0235601010999992006010200004+35733-005900SY-MT+0021GMTT V0203501N005112200019N0080001N1+01261+00881102671ADDGA1045+004801061GF103991031051004501001001MA1102601999999MD1710021+9999MW1001REMSYN070AAXX  02004 60101 32458 33510 10126 20088 40267 57002 83500 333 83616;MET051GMTT 020000Z 34010KT 8000 SCT016 13/09 Q1026 NOSIG;EQDQ01+000000PRSWM2
0113601010999992006010200304+35733-005900FM-15+0021GMTT V0203501N005112200019N0080001N1+01201+00901999999ADDGA1045+004805999MA1102601999999REMMET051GMTT 020030Z 35010KT 8000 SCT016 12/09 Q1026 NOSIG;EQDQ01+000000PRSWM1
0102601010999992006010201004+35733-005900AUTO +0021GMTT V02099999999992200019N9999999N1+01101+00801999999ADDMA1102601999999REMMET056GMTT 020100Z AUTO 00//0KT 8000 SCT016 11/08 Q1026 NOSIG;EQDQ01+000003ATOT  
0102601010999992006010201304+35733-005900AUTO +0021GMTT V0203401N004612200019N0080001N1+01001+00801999999ADDMA1102601999999REMMET056GMTT 020130Z AUTO 34009KT 8000 SCT016 10/08 Q1026 NOSIG;EQDQ01+000000PRSWMA
0084601010999992006010202004+35733-005900FM-15+0021GMTT V0203401N003612200019N9999999N1+00901+00701999999ADDMA1102611999999REMMET038GMTT 020200Z AUTO 34007KT 09/07 Q1026;EQDQ01+000000PRSWMA
0084601010999992006010202304+35733-005900FM-15+0021GMTT V0200301N001512200019N9999999N1+00801+00601999999ADDMA1102611999999REMMET038GMTT 020230Z AUTO 03003KT 08/06 Q1026;EQDQ01+000000PRSWMA
0153601010999992006010203004+35733-005900SY-MT+0021GMTT V0203601N002119999999N9999999N1+00761+00611102631ADDMA1102611999999MD1610071+9999MW1001REMSYN054AAXX  02034 60101 36/// /3604 10076 20061 40263 56007;MET046GMTT 020300Z AUTO 36004KT 320V040 08/06 Q1026;
0090601010999992006010203304+35733-005900FM-15+0021GMTT V0203601N002612200019N9999999N1+00801+00601999999ADDMA1102611999999REMMET044METAR GMTT 020330Z AUTO 36005KT 08/06 Q1026;EQDQ01+000000PRSWMA
0084601010999992006010204004+35733-005900FM-15+0021GMTT V0200401N001512200019N9999999N1+00701+00601999999ADDMA1102611999999REMMET038GMTT 020400Z AUTO 04003KT 07/06 Q1026;EQDQ01+000000PRSWMA
0090601010999992006010204304+35733-005900FM-15+0021GMTT V0201001N002112200019N9999999N1+00701+00501999999ADDMA1102611999999REMMET044METAR GMTT 020430Z AUTO 10004KT 07/05 Q1026;EQDQ01+000000PRSWMA
0084601010999992006010205004+35733-005900FM-15+0021GMTT V0201001N002112200019N9999999N1+00601+00501999999ADDMA1102611999999REMMET038GMTT 020500Z AUTO 10004KT 06/05 Q1026;EQDQ01+000000PRSWMA
0102601010999992006010205304+35733-005900AUTO +0021GMTT V0200901N002112200019N0080001N1+00601+00501999999ADDMA1102601999999REMMET056GMTT 020530Z AUTO 09004KT 8000 SCT016 06/05 Q1026 NOSIG;EQDQ01+000000PRSWMA
0271601010999992006010206004+35733-005900SY-MT+0021GMTT V0201001N002112200019N0080001N1+00691+00591102621ADDAA124001091GA1045+004801061GF103991031051004501001001KA1120N+00581MA1102601999999MD1510011+9999MW1001REMSYN082AAXX  02064 60101 12458 31004 10069 20059 40262 55001 60014 83500 333 20058 83616;MET051GMTT 020600Z 10004KT 8000 SCT016 07/06 Q1026 NOSIG;EQDQ01+000000PRSWM2
0113601010999992006010206304+35733-005900FM-15+0021GMTT V0200601N001512200019N0080001N1+00601+00501999999ADDGA1045+004805999MA1102601999999REMMET051GMTT 020630Z 06003KT 8000 SCT016 06/05 Q1026 NOSIG;EQDQ01+000000PRSWM1
0113601010999992006010207004+35733-005900FM-15+0021GMTT V0200701N002612200019N0080001N1+00501+00401999999ADDGA1045+004805999MA1102601999999REMMET051GMTT 020700Z 07005KT 8000 SCT016 05/04 Q1026 NOSIG;EQDQ01+000000PRSWM1
0121601010999992006010207304+35733-005900FM-15+0021GMTT V0200801N003112200019N0080001N1+00501+00401999999ADDGA1045+004805999MA1102601999999REMMET059GMTT 020730Z 08006KT 040V100 8000 SCT016 05/04 Q1026 NOSIG;EQDQ01+000000PRSWM1
0113601010999992006010208004+35733-005900FM-15+0021GMTT V0200901N002112200019N0080001N1+00501+00401999999ADDGA1045+004805999MA1102601999999REMMET051GMTT 020800Z 09004KT 8000 SCT016 05/04 Q1026 NOSIG;EQDQ01+000000PRSWM1
0113601010999992006010208304+35733-005900FM-15+0021GMTT V0200901N002112200019N0080001N1+00701+00601999999ADDGA1045+004805999MA1102601999999REMMET051GMTT 020830Z 09004KT 8000 SCT016 07/06 Q1026 NOSIG;EQDQ01+000000PRSWM1
0235601010999992006010209004+35733-005900SY-MT+0021GMTT V0200901N001512200019N0100001N1+00881+00801102701ADDGA1045+004801061GF103991031051004501001001MA1102701999999MD1210081+9999MW1001REMSYN070AAXX  02094 60101 32460 30903 10088 20080 40270 52008 83500 333 83616;MET051GMTT 020900Z 09003KT 9999 SCT016 09/08 Q1027 NOSIG;EQDQ01+000000PRSWM2
0113601010999992006010209304+35733-005900FM-15+0021GMTT V0200901N001512200019N0112651N1+01101+01001999999ADDGA1045+004805999MA1102701999999REMMET051GMTT 020930Z 09003KT 9999 SCT016 11/10 Q1027 NOSIG;EQDQ01+000000PRSWM1
0113601010999992006010210004+35733-005900FM-15+0021GMTT V0209999C000012200019N0112651N1+01301+01101999999ADDGA1045+004805999MA1102701999999REMMET051GMTT 021000Z 00000KT 9999 SCT016 13/11 Q1027 NOSIG;EQDQ01+000000PRSWM1
0113601010999992006010210304+35733-005900FM-15+0021GMTT V0203501N004612200019N0112651N1+01301+00801999999ADDGA1045+004805999MA1102701999999REMMET051GMTT 021030Z 35009KT 9999 SCT016 13/08 Q1027 NOSIG;EQDQ01+000000PRSWM1
0113601010999992006010211004+35733-005900FM-15+0021GMTT V0203401N004112200019N0112651N1+01401+00701999999ADDGA1045+004805999MA1102701999999REMMET051GMTT 021100Z 34008KT 9999 SCT016 14/07 Q1027 NOSIG;EQDQ01+000000PRSWM1
0113601010999992006010211304+35733-005900FM-15+0021GMTT V0203401N004112200019N0112651N1+01501+00801999999ADDGA1045+004805999MA1102701999999REMMET051GMTT 021130Z 34008KT 9999 SCT016 15/08 Q1027 NOSIG;EQDQ01+000000PRSWM1
0243601010999992006010212004+35733-005900SY-MT+0021GMTT V0203301N003612200019N0100001N1+01481+00741102711ADDGA1045+004801081GF103991031021004501001001MA1102701999999MD1010011+9999MW1001REMSYN070AAXX  02124 60101 32460 33307 10148 20074 40271 50001 83200 333 83816;MET059GMTT 021200Z 33007KT 300V360 9999 SCT016 15/07 Q1027 NOSIG;EQDQ01+000000PRSWM2
0147601010999992006010212304+35733-005900FM-15+0021GMTT V0203101N003112200019N0112651N1+01501+00801999999ADDGA1025+004801999GF102991999999999999999999MA1102611999999REMMET059GMTT 021230Z 31006KT 270V340 9999 FEW016 15/08 Q1026 NOSIG;EQDQ01+000000PRSWM1
0139601010999992006010213004+35733-005900FM-15+0021GMTT V0203101N003112200019N0112651N1+01501+00701999999ADDGA1025+004801999GF102991999999999999999999MA1102611999999REMMET051GMTT 021300Z 31006KT 9999 FEW016 15/07 Q1026 NOSIG;EQDQ01+000000PRSWM1
0147601010999992006010213304+35733-005900FM-15+0021GMTT V0203101N003112200019N0112651N1+01501+00701999999ADDGA1025+004801999GF102991999999999999999999MA1102511999999REMMET059GMTT 021330Z 31006KT 280V340 9999 FEW016 15/07 Q1025 NOSIG;EQDQ01+000000PRSWM1
0147601010999992006010214004+35733-005900FM-15+0021GMTT V0203101N003612200019N0112651N1+01501+00701999999ADDGA1025+004801999GF102991999999999999999999MA1102511999999REMMET059GMTT 021400Z 31007KT 280V350 9999 FEW016 15/07 Q1025 NOSIG;EQDQ01+000000PRSWM1
0147601010999992006010214304+35733-005900FM-15+0021GMTT V0202901N003112200019N0112651N1+01501+00801999999ADDGA1025+004801999GF102991999999999999999999MA1102511999999REMMET059GMTT 021430Z 29006KT 270V330 9999 FEW016 15/08 Q1025 NOSIG;EQDQ01+000000PRSWM1
0091601010999992006010216004+35733-005900FM-15+0021GMTT V0203101N00151999999CY0099001N1+01401+00801999999ADDMA1102511999999REMMET045GMTT 021600Z 31003KT CAVOK 14/08 Q1025 NOSIG;EQDQ01+000000PRSWM1
0091601010999992006010216304+35733-005900FM-15+0021GMTT V0203301N00151999999CY0099001N1+01501+00801999999ADDMA1102511999999REMMET045GMTT 021630Z 33003KT CAVOK 15/08 Q1025 NOSIG;EQDQ01+000000PRSWM1
0091601010999992006010217004+35733-005900FM-15+0021GMTT V0209999C00001999999CY0099001N1+01401+00801999999ADDMA1102511999999REMMET045GMTT 021700Z 00000KT CAVOK 14/08 Q1025 NOSIG;EQDQ01+000000PRSWM1
0091601010999992006010217304+35733-005900FM-15+0021GMTT V0201401N00211999999CY0099001N1+01301+00701999999ADDMA1102511999999REMMET045GMTT 021730Z 14004KT CAVOK 13/07 Q1025 NOSIG;EQDQ01+000000PRSWM1
0220601010999992006010218004+35733-005900SY-MT+0021GMTT V0201401N001519999999Y0150001N1+00821+00551102551ADDGF100991001001999999001001KA1999M+01531MA1102511999999MD1610031+9999MW1001REMSYN064AAXX  02184 60101 32965 01403 10082 20055 40255 56003 333 10153;MET045GMTT 021800Z 14002KT CAVOK 08/05 Q1025 NOSIG;EQDQ01+000000PRSWM2
0091601010999992006010218304+35733-005900FM-15+0021GMTT V0201001N00211999999CY0099001N1+00701+00501999999ADDMA1102511999999REMMET045GMTT 021830Z 10004KT CAVOK 07/05 Q1025 NOSIG;EQDQ01+000000PRSWM1
0091601010999992006010219004+35733-005900FM-15+0021GMTT V0200801N00261999999CY0099001N1+00701+00501999999ADDMA1102511999999REMMET045GMTT 021900Z 08005KT CAVOK 07/05 Q1025 NOSIG;EQDQ01+000000PRSWM1
0091601010999992006010219304+35733-005900FM-15+0021GMTT V0200901N00211999999CY0099001N1+00701+00501999999ADDMA1102611999999REMMET045GMTT 021930Z 09004KT CAVOK 07/05 Q1026 NOSIG;EQDQ01+000000PRSWM1
0091601010999992006010220004+35733-005900FM-15+0021GMTT V0201001N00211999999CY0099001N1+00701+00501999999ADDMA1102611999999REMMET045GMTT 022000Z 10004KT CAVOK 07/05 Q1026 NOSIG;EQDQ01+000000PRSWM1
0091601010999992006010220304+35733-005900FM-15+0021GMTT V0200901N00261999999CY0099001N1+00601+00501999999ADDMA1102611999999REMMET045GMTT 022030Z 09005KT CAVOK 06/05 Q1026 NOSIG;EQDQ01+000000PRSWM1
0235601010999992006010221004+35733-005900SY-MT+0021GMTT V0200801N003612200019N0100001N1+00611+00481102611ADDGA1025+004801999GF102991021051004501001001MA1102611999999MD1110061+9999MW1001REMSYN070AAXX  02214 60101 32460 20807 10061 20048 40261 51006 82500 333 82616;MET051GMTT 022100Z 08007KT 9999 FEW016 06/05 Q1026 NOSIG;EQDQ01+000000PRSWM2
0139601010999992006010221304+35733-005900FM-15+0021GMTT V0200801N003612200019N0112651N1+00701+00601999999ADDGA1025+004801999GF102991999999999999999999MA1102611999999REMMET051GMTT 022130Z 08007KT 9999 FEW016 07/06 Q1026 NOSIG;EQDQ01+000000PRSWM1
0139601010999992006010222004+35733-005900FM-15+0021GMTT V0200801N003612200019N0080001N1+00701+00601999999ADDGA1025+004801999GF102991999999999999999999MA1102611999999REMMET051GMTT 022200Z 08007KT 8000 FEW016 07/06 Q1026 NOSIG;EQDQ01+000000PRSWM1
0139601010999992006010222304+35733-005900FM-15+0021GMTT V0200801N004112200019N0080001N1+00701+00501999999ADDGA1025+004801999GF102991999999999999999999MA1102611999999REMMET051GMTT 022230Z 08008KT 8000 FEW016 07/05 Q1026 NOSIG;EQDQ01+000000PRSWM1
0139601010999992006010223004+35733-005900FM-15+0021GMTT V0200801N003612200019N0080001N1+00601+00501999999ADDGA1025+004801999GF102991999999999999999999MA1102611999999REMMET051GMTT 022300Z 08007KT 8000 FEW016 06/05 Q1026 NOSIG;EQDQ01+000000PRSWM1
0144601010999992006010223304+35733-005900FM-15+0021GMTT V0200901N003112200019N0080001N1+00601+00501999999ADDGA1025+004801999GF102991999999999999999999MA1102611999999REMMET056GMTT 022330Z AUTO 09006KT 8000 FEW016 06/05 Q1026 NOSIG;EQDQ01+000000PRSWMA
0241601010999992006010300004+35733-005900SY-MT+0021GMTT V0200801N003612200019N0080001N1+00501+00381102601ADDGA1025+004801999GF102991021051004501001001MA1102511999999MD1010021+9999MW1001REMSYN076AAXX  03004 60101 32458 20807 10050 20038 40260 50002 82500 92352 333 82616;MET051GMTT 030000Z 08007KT 8000 FEW016 05/04 Q1025 NOSIG;EQDQ01+000000PRSWM2
0102601010999992006010300304+35733-005900AUTO +0021GMTT V02099999999992200019N9999999N1+00501+00301999999ADDMA1102501999999REMMET056GMTT 030030Z AUTO 00//0KT 8000 FEW016 05/03 Q1025 NOSIG;EQDQ01+000000PRSWMA
0102601010999992006010301004+35733-005900AUTO +0021GMTT V02099999999992200019N9999999N1+00401+00301999999ADDMA1102501999999REMMET056GMTT 030100Z AUTO 00//0KT 8000 FEW016 04/03 Q1025 NOSIG;EQDQ01+000000PRSWMA
0150601010999992006010301304+35733-005900FM-15+0021GMTT V0200901N003112200019N0080001N1+00401+00301999999ADDGA1025+004801999GF102991999999999999999999MA1102511999999REMMET062METAR GMTT 030130Z AUTO 09006KT 8000 FEW016 04/03 Q1025 NOSIG;EQDQ01+000000PRSWMA
0084601010999992006010302004+35733-005900FM-15+0021GMTT V0200901N003612200019N9999999N1+00501+00401999999ADDMA1102511999999REMMET038GMTT 030200Z AUTO 09007KT 05/04 Q1025;EQDQ01+000000PRSWMA
0084601010999992006010302304+35733-005900FM-15+0021GMTT V0200901N003112200019N9999999N1+00401+00301999999ADDMA1102511999999REMMET038GMTT 030230Z AUTO 09006KT 04/03 Q1025;EQDQ01+000000PRSWMA
0227601010999992006010303004+35733-005900SY-MT+0021GMTT V0200901N003112200019N0080001N1+00381+00281102531ADDGA1025+004801999GF102991021051004501001001MA1102511999999MD1710101+9999MW1001REMSYN070AAXX  03034 60101 35458 20906 10038 20028 40253 57010 82500 333 82616;MET062METAR GMTT 030300Z AUTO 09006KT 8000 FEW016 04/03 Q1025 NOSIG;
0144601010999992006010303304+35733-005900FM-15+0021GMTT V0200801N003612200019N0080001N1+00301+00201999999ADDGA1025+004801999GF102991999999999999999999MA1102511999999REMMET056GMTT 030330Z AUTO 08007KT 8000 FEW016 03/02 Q1025 NOSIG;EQDQ01+000000PRSWMA
0144601010999992006010304004+35733-005900FM-15+0021GMTT V0201001N003612200019N0080001N1+00401+00301999999ADDGA1025+004801999GF102991999999999999999999MA1102401999999REMMET056GMTT 030400Z AUTO 10007KT 8000 FEW016 04/03 Q1024 NOSIG;EQDQ01+000000PRSWMA
0150601010999992006010304304+35733-005900FM-15+0021GMTT V0200901N003612200019N0080001N1+00501+00401999999ADDGA1025+004801999GF102991999999999999999999MA1102401999999REMMET062METAR GMTT 030430Z AUTO 09007KT 8000 FEW016 05/04 Q1024 NOSIG;EQDQ01+000000PRSWMA
0139601010999992006010305004+35733-005900FM-15+0021GMTT V0200901N003612200019N0080001N1+00401+00301999999ADDGA1025+004801999GF102991999999999999999999MA1102401999999REMMET051GMTT 030500Z 09007KT 8000 FEW016 04/03 Q1024 NOSIG;EQDQ01+000000PRSWM1
0150601010999992006010305304+35733-005900FM-15+0021GMTT V0200901N003112200019N0080001N1+00501+00401999999ADDGA1025+004801999GF102991999999999999999999MA1102511999999REMMET062METAR GMTT 030530Z AUTO 09006KT 8000 FEW016 05/04 Q1025 NOSIG;EQDQ01+000000PRSWMA
0254601010999992006010306004+35733-005900SY-MT+0021GMTT V0200901N003612200019N0080001N1+00371+00261102511ADDGA1025+004801999GF102991021051004501001001KA1120N+00331MA1102511999999MD1810021+9999MW1001REMSYN076AAXX  03064 60101 32458 20907 10037 20026 40251 58002 82500 333 20033 82616;MET051GMTT 030600Z 09007KT 8000 FEW016 04/03 Q1025 NOSIG;EQDQ01+000000PRSWM2
0139601010999992006010306304+35733-005900FM-15+0021GMTT V0201001N003612200019N0080001N1+00301+00201999999ADDGA1025+004801999GF102991999999999999999999MA1102511999999REMMET051GMTT 030630Z 10007KT 8000 FEW016 03/02 Q1025 NOSIG;EQDQ01+000000PRSWM1
0139601010999992006010307004+35733-005900FM-15+0021GMTT V0200801N004112200019N0112651N1+00301+00201999999ADDGA1025+004801999GF102991999999999999999999MA1102511999999REMMET051GMTT 030700Z 08008KT 9999 FEW016 03/02 Q1025 NOSIG;EQDQ01+000000PRSWM1
0150601010999992006010307304+35733-005900FM-15+0021GMTT V0201301N002112200019N0112651N1+00301+00201999999ADDGA1025+004801999GF102991999999999999999999MA1102511999999REMMET062METAR GMTT 030730Z AUTO 13004KT 9999 FEW016 03/02 Q1025 NOSIG;EQDQ01+000000PRSWMA
0091601010999992006010308004+35733-005900FM-15+0021GMTT V0201001N00311999999CY0099001N1+00201+00101999999ADDMA1102511999999REMMET045GMTT 030800Z 10006KT CAVOK 02/01 Q1025 NOSIG;EQDQ01+000000PRSWM1
0091601010999992006010308304+35733-005900FM-15+0021GMTT V0201001N00311999999CY0099001N1+00401+00301999999ADDMA1102511999999REMMET045GMTT 030830Z 10006KT CAVOK 04/03 Q1025 NOSIG;EQDQ01+000000PRSWM1
0237601010999992006010309004+35733-005900SY-MT+0021GMTT V0201101N002119999999Y0100001N1+00691+00611102591ADDGA1021+069001001GF102991001001999999001021MA1102511999999MD1310071+9999MW1001REMSYN070AAXX  03094 60101 32960 21104 10069 20061 40259 53007 80002 333 82073;MET053GMTT 030900Z 11004KT 090V160 CAVOK 07/06 Q1025 NOSIG;EQDQ01+000000PRSWM2
0091601010999992006010309304+35733-005900FM-15+0021GMTT V0201001N00101999999CY0099001N1+01001+00901999999ADDMA1102611999999REMMET045GMTT 030930Z 10002KT CAVOK 10/09 Q1026 NOSIG;EQDQ01+000000PRSWM1
0091601010999992006010310004+35733-005900FM-15+0021GMTT V0201101N00051999999CY0099001N1+01101+00801999999ADDMA1102611999999REMMET045GMTT 031000Z 11001KT CAVOK 11/08 Q1026 NOSIG;EQDQ01+000000PRSWM1
0091601010999992006010310304+35733-005900FM-15+0021GMTT V0209999C00001999999CY0099001N1+01201+00801999999ADDMA1102611999999REMMET045GMTT 031030Z 00000KT CAVOK 12/08 Q1026 NOSIG;EQDQ01+000000PRSWM1
0091601010999992006010311004+35733-005900FM-15+0021GMTT V0202001N00151999999CY0099001N1+01501+00901999999ADDMA1102611999999REMMET045GMTT 031100Z 20003KT CAVOK 15/09 Q1026 NOSIG;EQDQ01+000000PRSWM1
0091601010999992006010311304+35733-005900FM-15+0021GMTT V0202401N00151999999CY0099001N1+01501+01001999999ADDMA1102511999999REMMET045GMTT 031130Z 24003KT CAVOK 15/10 Q1025 NOSIG;EQDQ01+000000PRSWM1
0197601010999992006010312004+35733-005900SY-MT+0021GMTT V0202701N001519999999Y0100001N1+01571+01001102561ADDGF100991001001999999001001MA1102511999999MD1010051+9999MW1001REMSYN054AAXX  03124 60101 32960 02703 10157 20100 40256 50005;MET045GMTT 031200Z 27003KT CAVOK 16/10 Q1025 NOSIG;EQDQ01+000000PRSWM2
0099601010999992006010312304+35733-005900FM-15+0021GMTT V0202601N00211999999CY0099001N1+01601+01001999999ADDMA1102511999999REMMET053GMTT 031230Z 26004KT 230V290 CAVOK 16/10 Q1025 NOSIG;EQDQ01+000000PRSWM1
0139601010999992006010313004+35733-005900FM-15+0021GMTT V0202901N001512200019N0112651N1+01601+01001999999ADDGA1025+006001999GF102991999999999999999999MA1102401999999REMMET051GMTT 031300Z 29003KT 9999 FEW020 16/10 Q1024 NOSIG;EQDQ01+000000PRSWM1
0139601010999992006010313304+35733-005900FM-15+0021GMTT V0202701N002612200019N0112651N1+01601+00901999999ADDGA1025+006001999GF102991999999999999999999MA1102401999999REMMET051GMTT 031330Z 27005KT 9999 FEW020 16/09 Q1024 NOSIG;EQDQ01+000000PRSWM1
0147601010999992006010314004+35733-005900FM-15+0021GMTT V0203101N002612200019N0112651N1+01601+00901999999ADDGA1025+006001999GF102991999999999999999999MA1102301999999REMMET059GMTT 031400Z 31005KT 260V340 9999 FEW020 16/09 Q1023 NOSIG;EQDQ01+000000PRSWM1
0139601010999992006010314304+35733-005900FM-15+0021GMTT V0203301N003612200019N0112651N1+01601+00801999999ADDGA1025+006001999GF102991999999999999999999MA1102301999999REMMET051GMTT 031430Z 33007KT 9999 FEW020 16/08 Q1023 NOSIG;EQDQ01+000000PRSWM1
0235601010999992006010315004+35733-005900SY-MT+0021GMTT V0203301N003112200019N0150001N1+01681+00471102351ADDGA1025+006001999GF102991021021008001001001MA1102301999999MD1610201+9999MW1001REMSYN070AAXX  03154 60101 32565 23306 10168 20047 40235 56020 82200 333 82820;MET051GMTT 031500Z 33006KT 9999 FEW020 17/04 Q1023 NOSIG;EQDQ01+000000PRSWM2
0147601010999992006010315304+35733-005900FM-15+0021GMTT V0203101N002612200019N0112651N1+01601+00601999999ADDGA1025+006001999GF102991999999999999999999MA1102301999999REMMET059GMTT 031530Z 31005KT 280V340 9999 FEW020 16/06 Q1023 NOSIG;EQDQ01+000000PRSWM1
0139601010999992006010316004+35733-005900FM-15+0021GMTT V0203001N001512200019N0112651N1+01701+00501999999ADDGA1025+006001999GF102991999999999999999999MA1102301999999REMMET051GMTT 031600Z 30003KT 9999 FEW020 17/05 Q1023 NOSIG;EQDQ01+000000PRSWM1
0139601010999992006010316304+35733-005900FM-15+0021GMTT V0203101N000512200019N0112651N1+01601+00701999999ADDGA1025+006001999GF102991999999999999999999MA1102301999999REMMET051GMTT 031630Z 31001KT 9999 FEW020 16/07 Q1023 NOSIG;EQDQ01+000000PRSWM1
0139601010999992006010317004+35733-005900FM-15+0021GMTT V0209999C000012200019N0112651N1+01701+00601999999ADDGA1025+006001999GF102991999999999999999999MA1102301999999REMMET051GMTT 031700Z 00000KT 9999 FEW020 17/06 Q1023 NOSIG;EQDQ01+000000PRSWM1
0091601010999992006010317304+35733-005900FM-15+0021GMTT V0201501N00151999999CY0099001N1+01201+00601999999ADDMA1102301999999REMMET045GMTT 031730Z 15003KT CAVOK 12/06 Q1023 NOSIG;EQDQ01+000000PRSWM1
0248601010999992006010318004+35733-005900SY-MT+0021GMTT V0200901N001019999999Y0150001N1+00801+00511102311ADDGA1021+060001001GF102991001001999999001011KA1120M+01711MA1102301999999MD1610041+9999MW1001REMSYN076AAXX  03184 60101 32965 20902 10080 20051 40231 56004 80001 333 10171 82070;MET045GMTT 031800Z 09002KT CAVOK 08/05 Q1023 NOSIG;EQDQ01+000000PRSWM2
0091601010999992006010318304+35733-005900FM-15+0021GMTT V0201001N00211999999CY0099001N1+00701+00501999999ADDMA1102301999999REMMET045GMTT 031830Z 10004KT CAVOK 07/05 Q1023 NOSIG;EQDQ01+000000PRSWM1
0091601010999992006010319004+35733-005900FM-15+0021GMTT V0201001N00311999999CY0099001N1+00801+00501999999ADDMA1102301999999REMMET045GMTT 031900Z 10006KT CAVOK 08/05 Q1023 NOSIG;EQDQ01+000000PRSWM1
0091601010999992006010319304+35733-005900FM-15+0021GMTT V0200901N00261999999CY0099001N1+00601+00401999999ADDMA1102301999999REMMET045GMTT 031930Z 09005KT CAVOK 06/04 Q1023 NOSIG;EQDQ01+000000PRSWM1
0091601010999992006010320004+35733-005900FM-15+0021GMTT V0200901N00261999999CY0099001N1+00601+00401999999ADDMA1102301999999REMMET045GMTT 032000Z 09005KT CAVOK 06/04 Q1023 NOSIG;EQDQ01+000000PRSWM1
0091601010999992006010320304+35733-005900FM-15+0021GMTT V0201001N00361999999CY0099001N1+00601+00401999999ADDMA1102301999999REMMET045GMTT 032030Z 10007KT CAVOK 06/04 Q1023 NOSIG;EQDQ01+000000PRSWM1
0229601010999992006010321004+35733-005900SY-MT+0021GMTT V0200901N003619999999Y0100001N1+00611+00401102341ADDGA1021+060001001GF102991001001999999001011MA1102301999999MD1110031+9999MW1001REMSYN070AAXX  03214 60101 32960 20907 10061 20040 40234 51003 80001 333 82070;MET045GMTT 032100Z 09007KT CAVOK 06/04 Q1023 NOSIG;EQDQ01+000000PRSWM2
0091601010999992006010321304+35733-005900FM-15+0021GMTT V0200701N00361999999CY0099001N1+00701+00501999999ADDMA1102301999999REMMET045GMTT 032130Z 07007KT CAVOK 07/05 Q1023 NOSIG;EQDQ01+000000PRSWM1
0091601010999992006010322004+35733-005900FM-15+0021GMTT V0200901N00211999999CY0099001N1+00801+00501999999ADDMA1102301999999REMMET045GMTT 032200Z 09004KT CAVOK 08/05 Q1023 NOSIG;EQDQ01+000000PRSWM1
0102601010999992006010322304+35733-005900FM-15+0021GMTT V0200901N00311999999CY0099001N1+00601+00301999999ADDMA1102301999999REMMET056METAR GMTT 032230Z AUTO 09006KT CAVOK 06/03 Q1023 NOSIG;EQDQ01+000000PRSWMA
0091601010999992006010323004+35733-005900FM-15+0021GMTT V0200801N00361999999CY0099001N1+00601+00301999999ADDMA1102301999999REMMET045GMTT 032300Z 08007KT CAVOK 06/03 Q1023 NOSIG;EQDQ01+000000PRSWM1
0102601010999992006010323304+35733-005900FM-15+0021GMTT V0200901N00311999999CY0099001N1+00501+00301999999ADDMA1102201999999REMMET056METAR GMTT 032330Z AUTO 09006KT CAVOK 05/03 Q1022 NOSIG;EQDQ01+000000PRSWMA
0235601010999992006010400004+35733-005900SY-MT+0021GMTT V0200901N004119999999Y0100001N1+00561+00401102251ADDGA1021+060001001GF102991001001999999001011MA1102201999999MD1810031+9999MW1001REMSYN076AAXX  04004 60101 32960 20908 10056 20040 40225 58003 80001 92351 333 82070;MET045GMTT 040000Z 09008KT CAVOK 06/04 Q1022 NOSIG;EQDQ01+000000PRSWM2
0096601010999992006010400304+35733-005900FM-15+0021GMTT V0200901N00361999999CY0099001N1+00501+00401999999ADDMA1102201999999REMMET050GMTT 040030Z AUTO 09007KT CAVOK 05/04 Q1022 NOSIG;EQDQ01+000000PRSWMA
0096601010999992006010401004+35733-005900FM-15+0021GMTT V0200801N00411999999CY0099001N1+00501+00301999999ADDMA1102201999999REMMET050GMTT 040100Z AUTO 08008KT CAVOK 05/03 Q1022 NOSIG;EQDQ01+000000PRSWMA
0102601010999992006010401304+35733-005900FM-15+0021GMTT V0200901N00411999999CY0099001N1+00501+00301999999ADDMA1102101999999REMMET056METAR GMTT 040130Z AUTO 09008KT CAVOK 05/03 Q1021 NOSIG;EQDQ01+000000PRSWMA
0096601010999992006010402004+35733-005900FM-15+0021GMTT V0200701N00411999999CY0099001N1+00601+00301999999ADDMA1102101999999REMMET050GMTT 040200Z AUTO 07008KT CAVOK 06/03 Q1021 NOSIG;EQDQ01+000000PRSWMA
0090601010999992006010402304+35733-005900FM-15+0021GMTT V0200801N004612200019N9999999N1+00501+00301999999ADDMA1102101999999REMMET044METAR GMTT 040230Z AUTO 08009KT 05/03 Q1021;EQDQ01+000000PRSWMA
0145601010999992006010403004+35733-005900SY-MT+0021GMTT V0200901N003119999999N9999999N1+00581+00371102171ADDMA1102101999999MD1610131+9999MW1001REMSYN054AAXX  04034 60101 36/// /0906 10058 20037 40217 56013;MET038GMTT 040300Z AUTO 09006KT 06/04 Q1021;
0090601010999992006010403304+35733-005900FM-15+0021GMTT V0200801N003612200019N9999999N1+00601+00301999999ADDMA1102101999999REMMET044METAR GMTT 040330Z AUTO 08007KT 06/03 Q1021;EQDQ01+000000PRSWMA
0091601010999992006010404004+35733-005900FM-15+0021GMTT V0200801N00361999999CY0099001N1+00501+00301999999ADDMA1102101999999REMMET045GMTT 040400Z 08007KT CAVOK 05/03 Q1021 NOSIG;EQDQ01+000000PRSWM1
0091601010999992006010404304+35733-005900FM-15+0021GMTT V0200801N00261999999CY0099001N1+00501+00301999999ADDMA1102101999999REMMET045GMTT 040430Z 08005KT CAVOK 05/03 Q1021 NOSIG;EQDQ01+000000PRSWM1
0091601010999992006010405004+35733-005900FM-15+0021GMTT V0200901N00361999999CY0099001N1+00501+00301999999ADDMA1102101999999REMMET045GMTT 040500Z 09007KT CAVOK 05/03 Q1021 NOSIG;EQDQ01+000000PRSWM1
0091601010999992006010405304+35733-005900FM-15+0021GMTT V0200901N00361999999CY0099001N1+00501+00301999999ADDMA1102001999999REMMET045GMTT 040530Z 09007KT CAVOK 05/03 Q1020 NOSIG;EQDQ01+000000PRSWM1
0220601010999992006010406004+35733-005900SY-MT+0021GMTT V0201001N003119999999Y0100001N1+00571+00381102071ADDGF100991001001999999001001KA1999N+00411MA1102001999999MD1810081+9999MW1001REMSYN064AAXX  04064 60101 32960 01006 10057 20038 40207 58008 333 20041;MET045GMTT 040600Z 10006KT CAVOK 06/04 Q1020 NOSIG;EQDQ01+000000PRSWM2
0091601010999992006010406304+35733-005900FM-15+0021GMTT V0201001N00261999999CY0099001N1+00501+00301999999ADDMA1102001999999REMMET045GMTT 040630Z 10005KT CAVOK 05/03 Q1020 NOSIG;EQDQ01+000000PRSWM1
0091601010999992006010407004+35733-005900FM-15+0021GMTT V0201001N00261999999CY0099001N1+00501+00301999999ADDMA1102001999999REMMET045GMTT 040700Z 10005KT CAVOK 05/03 Q1020 NOSIG;EQDQ01+000000PRSWM1
0091601010999992006010407304+35733-005900FM-15+0021GMTT V0200901N00261999999CY0099001N1+00501+00301999999ADDMA1102001999999REMMET045GMTT 040730Z 09005KT CAVOK 05/03 Q1020 NOSIG;EQDQ01+000000PRSWM1
0091601010999992006010408004+35733-005900FM-15+0021GMTT V0201001N00151999999CY0099001N1+00501+00401999999ADDMA1102001999999REMMET045GMTT 040800Z 10003KT CAVOK 05/04 Q1020 NOSIG;EQDQ01+000000PRSWM1
0091601010999992006010408304+35733-005900FM-15+0021GMTT V0200701N00051999999CY0099001N1+00701+00501999999ADDMA1102001999999REMMET045GMTT 040830Z 07001KT CAVOK 07/05 Q1020 NOSIG;EQDQ01+000000PRSWM1
0235601010999992006010409004+35733-005900SY-MT+0021GMTT V0209999C000012200019N0100001N1+00861+00641102091ADDGA1045+004801081GF103991031021004501001001MA1102001999999MD1210021+9999MW1001REMSYN070AAXX  04094 60101 32460 30000 10086 20064 40209 52002 83200 333 83816;MET051GMTT 040900Z 00000KT 9999 SCT016 09/06 Q1020 NOSIG;EQDQ01+000000PRSWM2
0113601010999992006010409304+35733-005900FM-15+0021GMTT V0209999C000012200019N0112651N1+01201+00801999999ADDGA1045+004805999MA1102101999999REMMET051GMTT 040930Z 00000KT 9999 SCT016 12/08 Q1021 NOSIG;EQDQ01+000000PRSWM1
0113601010999992006010410004+35733-005900FM-15+0021GMTT V0209999C000012200019N0112651N1+01301+00801999999ADDGA1045+004805999MA1102101999999REMMET051GMTT 041000Z 00000KT 9999 SCT016 13/08 Q1021 NOSIG;EQDQ01+000000PRSWM1
0139601010999992006010410304+35733-005900FM-15+0021GMTT V0201001N000512200019N0112651N1+01401+00901999999ADDGA1025+004801999GF102991999999999999999999MA1102101999999REMMET051GMTT 041030Z 10001KT 9999 FEW016 14/09 Q1021 NOSIG;EQDQ01+000000PRSWM1
0139601010999992006010411004+35733-005900FM-15+0021GMTT V0200801N001512200019N0112651N1+01501+00801999999ADDGA1025+004801999GF102991999999999999999999MA1102101999999REMMET051GMTT 041100Z 08003KT 9999 FEW016 15/08 Q1021 NOSIG;EQDQ01+000000PRSWM1
0139601010999992006010411304+35733-005900FM-15+0021GMTT V0201001N001512200019N0112651N1+01601+00801999999ADDGA1025+004801999GF102991999999999999999999MA1102001999999REMMET051GMTT 041130Z 10003KT 9999 FEW016 16/08 Q1020 NOSIG;EQDQ01+000000PRSWM1
0235601010999992006010412004+35733-005900SY-MT+0021GMTT V0203501N001512200019N0150001N1+01651+00751102051ADDGA1025+004801999GF102991021021004501001001MA1102001999999MD1810041+9999MW1001REMSYN070AAXX  04124 60101 32465 23503 10165 20075 40205 58004 82200 333 82816;MET051GMTT 041200Z 36003KT 9999 FEW016 16/07 Q1020 NOSIG;EQDQ01+000000PRSWM2
0147601010999992006010412304+35733-005900FM-15+0021GMTT V0202901N002612200019N0112651N1+01701+00701999999ADDGA1025+004801999GF102991999999999999999999MA1102001999999REMMET059GMTT 041230Z 29005KT 260V330 9999 FEW016 17/07 Q1020 NOSIG;EQDQ01+000000PRSWM1
0147601010999992006010413004+35733-005900FM-15+0021GMTT V0202801N002612200019N0112651N1+01701+00801999999ADDGA1025+004801999GF102991999999999999999999MA1101901999999REMMET059GMTT 041300Z 28005KT 250V320 9999 FEW016 17/08 Q1019 NOSIG;EQDQ01+000000PRSWM1
0147601010999992006010413304+35733-005900FM-15+0021GMTT V0202901N002612200019N0112651N1+01701+00801999999ADDGA1025+006001999GF102991999999999999999999MA1101901999999REMMET059GMTT 041330Z 29005KT 260V330 9999 FEW020 17/08 Q1019 NOSIG;EQDQ01+000000PRSWM1
0139601010999992006010414004+35733-005900FM-15+0021GMTT V0209999V001512200019N0112651N1+01701+00801999999ADDGA1025+006001999GF102991999999999999999999MA1101801999999REMMET051GMTT 041400Z VRB03KT 9999 FEW020 17/08 Q1018 NOSIG;EQDQ01+000000PRSWM1
0158601010999992006010414304+35733-005900FM-15+0021GMTT V0203401N003612200019N0112651N1+01701+00701999999ADDGA1025+006001999GF102991999999999999999999MA1101801999999REMMET070METAR GMTT 041430Z AUTO 34007KT 300V040 9999 FEW020 17/07 Q1018 NOSIG;EQDQ01+000000PRSWMA
0243601010999992006010415004+35733-005900SY-MT+0021GMTT V0203401N004612200019N0150001N1+01631+00931101831ADDGA1025+006001999GF102991021051008001001001MA1101801999999MD1610251+9999MW1001REMSYN070AAXX  04154 60101 32565 23409 10163 20093 40183 56025 82500 333 82620;MET059GMTT 041500Z 33009KT 310V010 9999 FEW020 16/09 Q1018 NOSIG;EQDQ01+000000PRSWM2
0139601010999992006010415304+35733-005900FM-15+0021GMTT V0200201N002612200019N0112651N1+01601+01001999999ADDGA1025+006001999GF102991999999999999999999MA1101801999999REMMET051GMTT 041530Z 02005KT 9999 FEW020 16/10 Q1018 NOSIG;EQDQ01+000000PRSWM1
0139601010999992006010416004+35733-005900FM-15+0021GMTT V0200401N002612200019N0112651N1+01501+01001999999ADDGA1025+006001999GF102991999999999999999999MA1101801999999REMMET051GMTT 041600Z 04005KT 9999 FEW020 15/10 Q1018 NOSIG;EQDQ01+000000PRSWM1
0147601010999992006010416304+35733-005900FM-15+0021GMTT V0200301N003612200019N0112651N1+01501+01001999999ADDGA1025+006001999GF102991999999999999999999MA1101801999999REMMET059GMTT 041630Z 03007KT 360V060 9999 FEW020 15/10 Q1018 NOSIG;EQDQ01+000000PRSWM1
0139601010999992006010417004+35733-005900FM-15+0021GMTT V0200301N002612200019N0112651N1+01401+01001999999ADDGA1025+006001999GF102991999999999999999999MA1101801999999REMMET051GMTT 041700Z 03005KT 9999 FEW020 14/10 Q1018 NOSIG;EQDQ01+000000PRSWM1
0139601010999992006010417304+35733-005900FM-15+0021GMTT V0200201N002612200019N0112651N1+01101+00801999999ADDGA1025+006001999GF102991999999999999999999MA1101801999999REMMET051GMTT 041730Z 02005KT 9999 FEW020 11/08 Q1018 NOSIG;EQDQ01+000000PRSWM1
0260601010999992006010418004+35733-005900SY-MT+0021GMTT V0200201N002612200019N0150001N1+01081+00801101871ADDGA1025+006001999GF102991021051008001001001KA1120M+01801MA1101801999999MD1310041+9999MW1001REMSYN076AAXX  04184 60101 33565 20205 10108 20080 40187 53004 82500 333 10180 82620;MET057METAR GMTT 041800Z 02005KT 9999 FEW020 11/08 Q1018 NOSIG;EQDQ01+000000PRSWM2
0139601010999992006010418304+35733-005900FM-15+0021GMTT V0209999V001512200019N0112651N1+00901+00701999999ADDGA1025+006001999GF102991999999999999999999MA1101801999999REMMET051GMTT 041830Z VRB03KT 9999 FEW020 09/07 Q1018 NOSIG;EQDQ01+000000PRSWM1
0139601010999992006010419004+35733-005900FM-15+0021GMTT V0200901N001512200019N0112651N1+00801+00601999999ADDGA1025+006001999GF102991999999999999999999MA1101901999999REMMET051GMTT 041900Z 09003KT 9999 FEW020 08/06 Q1019 NOSIG;EQDQ01+000000PRSWM1
0113601010999992006010419304+35733-005900FM-15+0021GMTT V0200901N001512200019N0112651N1+00801+00601999999ADDGA1045+006005999MA1101901999999REMMET051GMTT 041930Z 09003KT 9999 SCT020 08/06 Q1019 NOSIG;EQDQ01+000000PRSWM1
0113601010999992006010420004+35733-005900FM-15+0021GMTT V0201001N001512200019N0112651N1+00901+00801999999ADDGA1045+006005999MA1101901999999REMMET051GMTT 042000Z 10003KT 9999 SCT020 09/08 Q1019 NOSIG;EQDQ01+000000PRSWM1
0235601010999992006010421004+35733-005900SY-MT+0021GMTT V0201001N003112200019N0080001N1+00761+00631101921ADDGA1045+004801061GF103991031051004501001001MA1101901999999MD1110051+9999MW1001REMSYN070AAXX  04214 60101 32458 31006 10076 20063 40192 51005 83500 333 83616;MET051GMTT 042100Z 11006KT 8000 SCT016 08/06 Q1019 NOSIG;EQDQ01+000000PRSWM2
0113601010999992006010421304+35733-005900FM-15+0021GMTT V0200701N003112200019N0080001N1+00801+00601999999ADDGA1045+004805999MA1101901999999REMMET051GMTT 042130Z 07006KT 8000 SCT016 08/06 Q1019 NOSIG;EQDQ01+000000PRSWM1
0113601010999992006010422004+35733-005900FM-15+0021GMTT V0200701N003612200019N0080001N1+00701+00601999999ADDGA1045+004805999MA1101901999999REMMET051GMTT 042200Z 07007KT 8000 SCT016 07/06 Q1019 NOSIG;EQDQ01+000000PRSWM1
0113601010999992006010422304+35733-005900FM-15+0021GMTT V0201101N003112200019N0080001N1+00701+00501999999ADDGA1045+004805999MA1101901999999REMMET051GMTT 042230Z 11006KT 8000 SCT016 07/05 Q1019 NOSIG;EQDQ01+000000PRSWM1
0113601010999992006010423004+35733-005900FM-15+0021GMTT V0200801N002612200019N0080001N1+00601+00501999999ADDGA1045+004805999MA1101901999999REMMET051GMTT 042300Z 08005KT 8000 SCT016 06/05 Q1019 NOSIG;EQDQ01+000000PRSWM1
0113601010999992006010423304+35733-005900FM-15+0021GMTT V0201101N002112200019N0080001N1+00601+00501999999ADDGA1045+004805999MA1101901999999REMMET051GMTT 042330Z 11004KT 8000 SCT016 06/05 Q1019 NOSIG;EQDQ01+000000PRSWM1
0138601010999992006010500004+35733-005900FM-12+0021GMTT V0200901N002612200019N0080001N1+00571+00451101891ADDGA1031+004801061GF103991031051004501001001MD1810031+9999REMSYN070AAXX  05004 60101 32458 30905 10057 20045 40189 58003 83500 333 83616;
0102601010999992006010500304+35733-005900AUTO +0021GMTT V0200901N003112200019N0080001N1+00601+00401999999ADDMA1101801999999REMMET056GMTT 050030Z AUTO 09006KT 8000 SCT016 06/04 Q1018 NOSIG;EQDQ01+000000PRSWMA
0113601010999992006010501004+35733-005900FM-15+0021GMTT V0201001N003612200019N0080001N1+00501+00401999999ADDGA1045+004805999MA1101801999999REMMET051GMTT 050100Z 10007KT 8000 SCT016 05/04 Q1018 NOSIG;EQDQ01+000000PRSWM1
0108601010999992006010501304+35733-005900AUTO +0021GMTT V0200901N003612200019N0080001N1+00601+00401999999ADDMA1101801999999REMMET062METAR GMTT 050130Z AUTO 09007KT 8000 SCT016 06/04 Q1018 NOSIG;EQDQ01+000000PRSWMA
0090601010999992006010502304+35733-005900FM-15+0021GMTT V0201001N002612200019N9999999N1+00501+00401999999ADDMA1101801999999REMMET044METAR GMTT 050230Z AUTO 10005KT 05/04 Q1018;EQDQ01+000000PRSWMA
0221601010999992006010503004+35733-005900SY-MT+0021GMTT V0200901N003112200019N0080001N1+00421+00321101851ADDGA1045+004801061GF103991031051004501001001MA1101801999999MD1610081+9999MW1001REMSYN070AAXX  05034 60101 35458 30906 10042 20032 40185 56008 83500 333 83616;MET056GMTT 050300Z AUTO 09006KT 8000 SCT016 04/03 Q1018 NOSIG;
0108601010999992006010503304+35733-005900AUTO +0021GMTT V0200801N002612200019N0080001N1+00401+00301999999ADDMA1101801999999REMMET062METAR GMTT 050330Z AUTO 08005KT 8000 SCT016 04/03 Q1018 NOSIG;EQDQ01+000000PRSWMA
0090601010999992006010504304+35733-005900FM-15+0021GMTT V0200901N002612200019N9999999N1+00401+00301999999ADDMA1101801999999REMMET044METAR GMTT 050430Z AUTO 09005KT 04/03 Q1018;EQDQ01+000000PRSWMA
0084601010999992006010505004+35733-005900FM-15+0021GMTT V0200901N002112200019N9999999N1+00301+00201999999ADDMA1101801999999REMMET038GMTT 050500Z AUTO 09004KT 03/02 Q1018;EQDQ01+000000PRSWMA
0113601010999992006010505304+35733-005900FM-15+0021GMTT V0200801N002112200019N0080001N1+00201+00101999999ADDGA1045+004805999MA1101801999999REMMET051GMTT 050530Z 08004KT 8000 SCT016 02/01 Q1018 NOSIG;EQDQ01+000000PRSWM1
0260601010999992006010506004+35733-005900SY-MT+0021GMTT V0200901N002112200019N0080001N1+00261+00171101841ADDGA1045+004801061GF103991031051004501001001KA1120N+00221MA1101801999999MD1610021+9999MW1001REMSYN082AAXX  05064 60101 32458 30904 10026 20017 40184 56002 83500 333 20022 30/// 83616;MET051GMTT 050600Z 09004KT 8000 SCT016 03/02 Q1018 NOSIG;EQDQ01+000000PRSWM2
0113601010999992006010506304+35733-005900FM-15+0021GMTT V0200901N002612200019N0080001N1+00301+00201999999ADDGA1045+004805999MA1101801999999REMMET051GMTT 050630Z 09005KT 8000 SCT016 03/02 Q1018 NOSIG;EQDQ01+000000PRSWM1
0113601010999992006010507004+35733-005900FM-15+0021GMTT V0200901N002612200019N0080001N1+00301+00201999999ADDGA1045+004805999MA1101801999999REMMET051GMTT 050700Z 09005KT 8000 SCT016 03/02 Q1018 NOSIG;EQDQ01+000000PRSWM1
0108601010999992006010507304+35733-005900AUTO +0021GMTT V0200901N003112200019N0080001N1+00301+00201999999ADDMA1101801999999REMMET062METAR GMTT 050730Z AUTO 09006KT 8000 SCT016 03/02 Q1018 NOSIG;EQDQ01+000000PRSWMA
0113601010999992006010508004+35733-005900FM-15+0021GMTT V0201101N001512200019N0080001N1+00401+00301999999ADDGA1045+004805999MA1101801999999REMMET051GMTT 050800Z 11003KT 8000 SCT016 04/03 Q1018 NOSIG;EQDQ01+000000PRSWM1
0121601010999992006010508304+35733-005900FM-15+0021GMTT V0201201N002112200019N0080001N1+00401+00301999999ADDGA1045+004805999MA1101901999999REMMET059GMTT 050830Z 12004KT 090V150 8000 SCT016 04/03 Q1019 NOSIG;EQDQ01+000000PRSWM1
0235601010999992006010509004+35733-005900SY-MT+0021GMTT V0201001N001512200019N0080001N1+00801+00741101921ADDGA1025+004801999GF199999011051004501001001MA1101901999999MD1310091+9999MW1001REMSYN070AAXX  05094 60101 32458 11003 10080 20074 40192 53009 81500 333 81616;MET051GMTT 050900Z 10003KT 8000 FEW016 08/07 Q1019 NOSIG;EQDQ01+000012SCOTCV
0113601010999992006010509304+35733-005900FM-15+0021GMTT V0201201N001512200019N0080001N1+01001+00901999999ADDGA1045+006005999MA1101901999999REMMET051GMTT 050930Z 12003KT 8000 SCT020 10/09 Q1019 NOSIG;EQDQ01+000000PRSWM1
0147601010999992006010510004+35733-005900FM-15+0021GMTT V0201701N00311006001CN0080001N1+01101+01001999999ADDGA1075+006001999GF107991999999999999999999MA1101901999999REMMET059GMTT 051000Z 17006KT 140V200 8000 BKN020 11/10 Q1019 NOSIG;EQDQ01+000000PRSWM1
0139601010999992006010510304+35733-005900FM-15+0021GMTT V0201801N00511006001CN0080001N1+01201+01001999999ADDGA1075+006001999GF107991999999999999999999MA1102001999999REMMET051GMTT 051030Z 18010KT 8000 BKN020 12/10 Q1020 NOSIG;EQDQ01+000000PRSWM1
0139601010999992006010511004+35733-005900FM-15+0021GMTT V0201701N00461006001CN0112651N1+01301+00901999999ADDGA1075+006001999GF107991999999999999999999MA1101901999999REMMET051GMTT 051100Z 17009KT 9999 BKN020 13/09 Q1019 NOSIG;EQDQ01+000000PRSWM1
0139601010999992006010511304+35733-005900FM-15+0021GMTT V0201801N00621006001CN0112651N1+01401+01001999999ADDGA1075+006001999GF107991999999999999999999MA1101901999999REMMET051GMTT 051130Z 18012KT 9999 BKN020 14/10 Q1019 NOSIG;EQDQ01+000000PRSWM1
0235601010999992006010512004+35733-005900SY-MT+0021GMTT V0201901N005712200019N0100001N1+01471+01001101911ADDGA1045+006001061GF103991031051008001001001MA1101901999999MD1810011+9999MW1001REMSYN070AAXX  05124 60101 32560 31911 10147 20100 40191 58001 83500 333 83620;MET051GMTT 051200Z 18010KT 9999 SCT020 15/10 Q1019 NOSIG;EQDQ01+000000PRSWM2
0113601010999992006010512304+35733-005900FM-15+0021GMTT V0202001N007212200019N0112651N1+01501+01001999999ADDGA1045+006005999MA1101801999999REMMET051GMTT 051230Z 20014KT 9999 SCT020 15/10 Q1018 NOSIG;EQDQ01+000000PRSWM1
0113601010999992006010514004+35733-005900FM-15+0021GMTT V0202001N007212200019N0112651N1+01601+01001999999ADDGA1045+006005999MA1101701999999REMMET051GMTT 051400Z 20014KT 9999 SCT020 16/10 Q1017 NOSIG;EQDQ01+000000PRSWM1
0235601010999992006010515004+35733-005900SY-MT+0021GMTT V0202101N006212200019N0100001N1+01551+01031101721ADDGA1045+006001081GF103991031021008001001001MA1101701999999MD1610191+9999MW1001REMSYN070AAXX  05154 60101 32560 32112 10155 20103 40172 56019 83200 333 83820;MET051GMTT 051500Z 21013KT 9999 SCT020 16/10 Q1017 NOSIG;EQDQ01+000000PRSWM2
0113601010999992006010515304+35733-005900FM-15+0021GMTT V0202001N006212200019N0112651N1+01601+01001999999ADDGA1045+006005999MA1101701999999REMMET051GMTT 051530Z 20012KT 9999 SCT020 16/10 Q1017 NOSIG;EQDQ01+000000PRSWM1
0113601010999992006010516004+35733-005900FM-15+0021GMTT V0202101N005112200019N0112651N1+01601+01101999999ADDGA1045+006005999MA1101701999999REMMET051GMTT 051600Z 21010KT 9999 SCT020 16/11 Q1017 NOSIG;EQDQ01+000000PRSWM1
0139601010999992006010516304+35733-005900FM-15+0021GMTT V0202401N00571006001CN0112651N1+01401+00901999999ADDGA1075+006001999GF107991999999999999999999MA1101691999999REMMET051GMTT 051630Z 24011KT 9999 BKN020 14/09 Q1017 NOSIG;EQDQ01+000000PRSWM1
0139601010999992006010517004+35733-005900FM-15+0021GMTT V0202501N00511006001CN0112651N1+01401+01001999999ADDGA1075+006001999GF107991999999999999999999MA1101691999999REMMET051GMTT 051700Z 25010KT 9999 BKN020 14/10 Q1017 NOSIG;EQDQ01+000000PRSWM1
0157601010999992006010518004+35733-005900FM-12+0021GMTT V0202401N007210060019N0100001N1+01301+00811101721ADDGA1061+006001081GF106991061021008001001001KA1120M+01601MD1510001+9999REMSYN076AAXX  05184 60101 32560 62414 10130 20081 40172 55000 86200 333 10160 86820;
0120601010999992006010518304+35733-005900FM-15+0021GMTT V0202301N00571006001CN0112651N1+01201+00801999999ADDGA1075+006001999GF107991999999999999999999MA1101691999999REMMET051GMTT 051830Z 23011KT 9999 BKN020 12/08 Q1017 NOSIG;
0120601010999992006010519304+35733-005900FM-15+0021GMTT V0202401N00721006001CN0112651N1+01401+00901999999ADDGA1075+006001999GF107991999999999999999999MA1101691999999REMMET051GMTT 051930Z 24014KT 9999 BKN020 14/09 Q1017 NOSIG;
0120601010999992006010520004+35733-005900FM-15+0021GMTT V0202601N00771006001CN0112651N1+01401+01001999999ADDGA1075+006001999GF107991999999999999999999MA1101691999999REMMET051GMTT 052000Z 26015KT 9999 BKN020 14/10 Q1017 NOSIG;
0120601010999992006010520304+35733-005900FM-15+0021GMTT V0202501N00771006001CN0112651N1+01401+00901999999ADDGA1075+006001999GF107991999999999999999999MA1101691999999REMMET051GMTT 052030Z 25015KT 9999 BKN020 14/09 Q1017 NOSIG;
0216601010999992006010521004+35733-005900SY-MT+0021GMTT V0202501N00771006001CN0100001N1+01361+00871101761ADDGA1075+006001999GF199999051021008001001001MA1101691999999MD1010041+9999MW1001REMSYN070AAXX  05214 60101 32560 52515 10136 20087 40176 50004 85200 333 85820;MET051GMTT 052100Z 25015KT 9999 BKN020 14/09 Q1017 NOSIG;
0120601010999992006010521304+35733-005900FM-15+0021GMTT V0202501N00721006001CN0112651N1+01301+00901999999ADDGA1075+006001999GF107991999999999999999999MA1101691999999REMMET051GMTT 052130Z 25014KT 9999 BKN020 13/09 Q1017 NOSIG;
0094601010999992006010522004+35733-005900FM-15+0021GMTT V0202501N007712200019N0112651N1+01301+00801999999ADDGA1045+006005999MA1101701999999REMMET051GMTT 052200Z 25015KT 9999 SCT020 13/08 Q1017 NOSIG;
0089601010999992006010522304+35733-005900AUTO +0021GMTT V0202401N008212200019N0112651N1+01301+00801999999ADDMA1101701999999REMMET062METAR GMTT 052230Z AUTO 24016KT 9999 SCT020 13/08 Q1017 NOSIG;
0113601010999992006010523304+35733-005900FM-15+0021GMTT V0202501N007712200019N0112651N1+01301+00801999999ADDGA1045+006005999MA1101701999999REMMET051GMTT 052330Z 25015KT 9999 SCT020 13/08 Q1017 NOSIG;EQDQ01+000000PRSWM1
0235601010999992006010600004+35733-005900SY-MT+0021GMTT V0202601N007212200019N0100001N1+01271+00841101681ADDGA1045+006901061GF104991041021008001001001MA1101601999999MD1810081+9999MW1001REMSYN070AAXX  06004 60101 32560 42614 10127 20084 40168 58008 84200 333 84623;MET051GMTT 060000Z 26015KT 9999 SCT023 13/08 Q1016 NOSIG;EQDQ01+000000PRSWM2
0102601010999992006010600304+35733-005900AUTO +0021GMTT V0202401N006712200019N0112651N1+01201+00801999999ADDMA1101601999999REMMET056GMTT 060030Z AUTO 24013KT 9999 SCT023 12/08 Q1016 NOSIG;EQDQ01+000000PRSWMA
0113601010999992006010601004+35733-005900FM-15+0021GMTT V0202301N005712200019N0112651N1+01201+00901999999ADDGA1045+006905999MA1101601999999REMMET051GMTT 060100Z 23011KT 9999 SCT023 12/09 Q1016 NOSIG;EQDQ01+000000PRSWM1
0094601010999992006010601304+35733-005900FM-15+0021GMTT V0201501N004112200019N0112651N1+01101+00801999999ADDGA1045+006905999MA1101501999999REMMET051GMTT 060130Z 15008KT 9999 SCT023 11/08 Q1015 NOSIG;
0094601010999992006010602004+35733-005900FM-15+0021GMTT V0201701N003612200019N0112651N1+01101+00801999999ADDGA1045+006905999MA1101501999999REMMET051GMTT 060200Z 17007KT 9999 SCT023 11/08 Q1015 NOSIG;
0089601010999992006010602304+35733-005900AUTO +0021GMTT V0201701N005112200019N0112651N1+01201+00801999999ADDMA1101501999999REMMET062METAR GMTT 060230Z AUTO 17010KT 9999 SCT023 12/08 Q1015 NOSIG;
0138601010999992006010603004+35733-005900FM-12+0021GMTT V0201701N006712200019N0100001N1+01171+00801101561ADDGA1041+006901061GF104991041021008001001001MD1610131+9999REMSYN070AAXX  06034 60101 35560 41713 10117 20080 40156 56013 84200 333 84623;
0065601010999992006010603304+35733-005900FM-15+0021GMTT V0201701N006712200019N9999999N1+01201+00801999999ADDMA1101491999999REMMET038GMTT 060330Z AUTO 17013KT 12/08 Q1015;
0120601010999992006010604304+35733-005900FM-15+0021GMTT V0201701N00571006901CN0112651N1+01201+00801999999ADDGA1075+006901999GF107991999999999999999999MA1101391999999REMMET051GMTT 060430Z 17011KT 9999 BKN023 12/08 Q1014 NOSIG;
0120601010999992006010605004+35733-005900FM-15+0021GMTT V0201701N00671006901CN0112651N1+01201+00801999999ADDGA1075+006901999GF107991999999999999999999MA1101391999999REMMET051GMTT 060500Z 17013KT 9999 BKN023 12/08 Q1014 NOSIG;
0131601010999992006010605304+35733-005900FM-15+0021GMTT V0201701N00671006901CN0080001N1+01201+00801999999ADDGA1075+006901999GF107991999999999999999999MA1101391999999REMMET062METAR GMTT 060530Z AUTO 17013KT 8000 BKN023 12/08 Q1014 NOSIG;
0238601010999992006010606004+35733-005900SY-MT+0021GMTT V0201701N00621006901CN0080001N1+01181+00811101401ADDGA1075+006901999GF199999051051008001001001KA1120N+01121MA1101391999999MD1710151+9999MW1001REMSYN076AAXX  06064 60101 32558 51712 10118 20081 40140 57015 85500 333 20112 85623;MET054GMTT 060600Z 17013KT 8000 BKN023 12/08 Q1014 TEMPO RA;
0134601010999992006010606304+35733-005900FM-15+0021GMTT V0201701N00621006901CN0080001N1+01201+00801999999ADDGA1075+006901999GF107991999999999999999999MA1101291999999REMMET065METAR GMTT 060630Z AUTO 17012KT 8000 BKN023 12/08 Q1013 TEMPO RA;
0149601010999992006010607004+35733-005900FM-15+0021GMTT V0201601N00721006001CN0080001N1+01101+00801999999ADDGA1075+006001999GF107991999999999999999999MA1101391999999MW1611REMMET055GMTT 060700Z 16014KT 8000 -RA BKN020 11/08 Q1014 NOSIG;EQDQ01+000000PRSWM1
0160601010999992006010607304+35733-005900FM-15+0021GMTT V0201601N00671006001CN0060001N1+01101+00801999999ADDAW1611GA1075+006001999GF107991999999999999999999MA1101291999999REMMET066METAR GMTT 060730Z AUTO 16013KT 6000 -RA BKN020 11/08 Q1013 NOSIG;EQDQ01+000000PRSWMA
0149601010999992006010608004+35733-005900FM-15+0021GMTT V0201701N00721006001CN0050001N1+01101+00901999999ADDGA1075+006001999GF107991999999999999999999MA1101291999999MW1611REMMET055GMTT 060800Z 17014KT 5000 -RA BKN020 11/09 Q1013 NOSIG;EQDQ01+000000PRSWM1
0177601010999992006010608304+35733-005900FM-15+0021GMTT V0201601N00821004801CN0050001N1+01101+00901999999ADDGA1045+002401999GA2075+004801999GF107991999999999999999999MA1101291999999MW1611REMMET067GMTT 060830Z 16016KT 5000 -RA SCT008 BKN016 11/09 Q1013 TEMPO 3000;EQDQ01+000000PRSWM1
0291601010999992006010609004+35733-005900SY-MT+0021GMTT V0201701N00821004801CN0050001N1+01081+00861101371ADDAY161031AY221031GA1045+002401071GA2075+004801061GF107991071051002501999999MA1101301999999MD1610041+9999MW1211REMSYN082AAXX  06094 60101 41350 71716 10108 20086 40137 56004 72162 875// 333 83708 85616;MET063GMTT 060900Z 17016KT 5000 SCT008 BKN016 11/09 Q1013 TEMPO 3000;EQDQ01+000000PRSWM2
0141601010999992006010609304+35733-005900FM-15+0021GMTT V0201601N008710048059N0050001N1+01101+00901999999ADDGA1045+002405999GA2075+004805999MA1101301999999REMMET063GMTT 060930Z 16017KT 5000 SCT008 BKN016 11/09 Q1013 TEMPO 3000;EQDQ01+000000PRSWM1
0199601010999992006010610004+35733-005900FM-15+0021GMTT V0201701N00721004801CN0050001N1+01101+00901999999ADDGA1045+002401999GA2075+004801999GA3075+024001999GF107991999999999999999999MA1101391999999MW1631REMMET073GMTT 061000Z 17014KT 5000 RA SCT008 BKN016 BKN080 11/09 Q1014 TEMPO 3000;EQDQ01+000000PRSWM1
0208601010999992006010610034+35733-005900FM-15+0021GMTT V0201701N00771004801CN0040001N1+01101+00901999999ADDGA1045+002401999GA2075+004801999GA3075+024001999GF107991999999999999999999MA1101391999999MW1631REMMET082METAR GMTT 061003Z 17015KT 4000 RA SCT008 BKN016 BKN080 11/09 Q1014 TEMPO 3000 M2;EQDQ01+000000PRSWM1
0200601010999992006010610304+35733-005900FM-15+0021GMTT V0201701N00771004801CN0040001N1+01101+00901999999ADDGA1045+002401999GA2075+004801999GA3075+024001999GF107991999999999999999999MA1101391999999MW1611REMMET074GMTT 061030Z 17015KT 4000 -RA SCT008 BKN016 BKN080 11/09 Q1014 TEMPO 3000;EQDQ01+000000PRSWM1
0200601010999992006010611004+35733-005900FM-15+0021GMTT V0202001N00671004801CN0020001N1+01001+00901999999ADDGA1045+001801999GA2075+004801999GA3075+024001999GF107991999999999999999999MA1101391999999MW1611REMMET074GMTT 061100Z 20013KT 2000 -RA SCT006 BKN016 BKN080 10/09 Q1014 TEMPO 1000;EQDQ01+000000PRSWM1
0200601010999992006010611304+35733-005900FM-15+0021GMTT V0202301N00671004801CN0030001N1+01101+01101999999ADDGA1045+001801999GA2075+004801999GA3075+024001999GF107991999999999999999999MA1101291999999MW1611REMMET074GMTT 061130Z 23013KT 3000 -RA SCT006 BKN016 BKN080 11/11 Q1013 TEMPO 5000;EQDQ01+000000PRSWM1
0347601010999992006010612004+35733-005900SY-MT+0021GMTT V0202101N00771004801CN0030001N1+01161+01091101301ADDAA106015091AY161061AY261061GA1045+001801999GA2075+004801999GA3075+024001999GF108991999051002501071999MA1101291999999MD1310071+9999MW1601MW2611REMSYN094AAXX  06124 60101 11330 82115 10116 20109 40130 53007 60151 76066 8857/ 333 83706 85616 85358;MET074GMTT 061200Z 21015KT 3000 -RA SCT006 BKN016 BKN080 12/11 Q1013 TEMPO 5000;EQDQ01+000082SCOTLC
0200601010999992006010612304+35733-005900FM-15+0021GMTT V0201901N00571004801CN0030001N1+01101+01101999999ADDGA1045+001801999GA2075+004801999GA3075+024001999GF107991999999999999999999MA1101191999999MW1611REMMET074GMTT 061230Z 19011KT 3000 -RA SCT006 BKN016 BKN080 11/11 Q1012 TEMPO 5000;EQDQ01+000000PRSWM1
0200601010999992006010613004+35733-005900FM-15+0021GMTT V0201601N00571004801CN0020001N1+01101+01001999999ADDGA1045+001801999GA2075+004801999GA3075+024001999GF107991999999999999999999MA1101191999999MW1611REMMET074GMTT 061300Z 16011KT 2000 -RA SCT006 BKN016 BKN080 11/10 Q1012 TEMPO 5000;EQDQ01+000000PRSWM1
0200601010999992006010613304+35733-005900FM-15+0021GMTT V0201601N00511004801CN0030001N1+01101+01001999999ADDGA1045+001801999GA2075+004801999GA3075+024001999GF107991999999999999999999MA1101081999999MW1611REMMET074GMTT 061330Z 16010KT 3000 -RA SCT006 BKN016 BKN080 11/10 Q1011 TEMPO 5000;EQDQ01+000000PRSWM1
0168601010999992006010613464+35733-005900FM-16+0021GMTT V0201501N005110048059N0050001N1+01101+01001999999ADDGA1045+001805999GA2075+004805999GA3075+024005999MA1101101999999REMMET074SPECI GMTT 061346Z 15010KT 5000 SCT006 BKN016 BKN080 11/10 Q1011 B2 NOSIG;EQDQ01+000000PRSWM1
0159601010999992006010614004+35733-005900FM-15+0021GMTT V0201501N005110048059N0050001N1+01101+01101999999ADDGA1045+001805999GA2075+004805999GA3075+024005999MA1101101999999REMMET065GMTT 061400Z 15010KT 5000 SCT006 BKN016 BKN080 11/11 Q1011 NOSIG;EQDQ01+000000PRSWM1
0189601010999992006010614204+35733-005900FM-15+0021GMTT V0202001N00311004801CN0030001N1+01101+01001999999ADDGA1045+001801999GA2075+004801999GA3025+006901095MA1101081999999MW1801REMMET089GMTT 061420Z 20006KT 160V240 3000 -SHRA SCT006 BKN016 FEW023CB 11/10 Q1011 M2 TEMPO 5000;EQDQ01+000000PRSWM4
0186601010999992006010614304+35733-005900FM-15+0021GMTT V0201901N00361004801CN0030001N1+01101+01001999999ADDGA1045+001801999GA2075+004801999GA3025+006901095MA1101081999999MW1801REMMET086GMTT 061430Z 19007KT 160V240 3000 -SHRA SCT006 BKN016 FEW023CB 11/10 Q1011 TEMPO 5000;EQDQ01+000022SCOTCV
0164601010999992006010614484+35733-005900FM-15+0021GMTT V0201801N00361004801CN0050001N1+01101+01101999999ADDGA1025+001801999GA2075+004801999GA3025+006901095MA1101081999999REMMET070GMTT 061448Z 18007KT 5000 FEW006 BKN016 FEW023CB 11/11 Q1011 B2 NOSIG;EQDQ01+000022SCOTCV
0317601010999992006010615004+35733-005900SY-MT+0021GMTT V0201901N00361004801CN0050001N1+01121+01061101101ADDAY181031AY261031GA1025+001801999GA2075+004801999GA3025+006901095GF107991071091002501071999MA1101081999999MD1610201+9999MW1251REMSYN088AAXX  06154 60101 41350 71907 10112 20106 40110 56020 72586 8797/ 333 82706 85816 81923;MET067GMTT 061500Z 19007KT 5000 FEW006 BKN016 FEW023CB 11/11 Q1011 NOSIG;EQDQ01+000000PRSWM2
0161601010999992006010615304+35733-005900FM-15+0021GMTT V0201801N00511004801CN0060001N1+01201+01101999999ADDGA1025+001801999GA2075+004801999GA3025+006901095MA1101021999999REMMET067GMTT 061530Z 18010KT 6000 FEW006 BKN016 FEW023CB 12/11 Q1010 NOSIG;EQDQ01+000022SCOTCV
0161601010999992006010616004+35733-005900FM-15+0021GMTT V0201801N00411004801CN0080001N1+01201+01101999999ADDGA1025+003001999GA2075+004801999GA3025+006901095MA1101021999999REMMET067GMTT 061600Z 18008KT 8000 FEW010 BKN016 FEW023CB 12/11 Q1010 NOSIG;EQDQ01+000022SCOTCV
0161601010999992006010616304+35733-005900FM-15+0021GMTT V0201801N00511004801CN0080001N1+01201+01101999999ADDGA1025+003001999GA2075+004801999GA3025+006901095MA1101021999999REMMET067GMTT 061630Z 18010KT 8000 FEW010 BKN016 FEW023CB 12/11 Q1010 NOSIG;EQDQ01+000022SCOTCV
0161601010999992006010617004+35733-005900FM-15+0021GMTT V0201801N004110048059N0080001N1+01201+01101999999ADDGA1045+001805999GA2075+004805999GA3025+006905095MA1101001999999REMMET067GMTT 061700Z 18008KT 8000 SCT006 BKN016 FEW023CB 12/11 Q1010 NOSIG;EQDQ01+000000PRSWM1
0169601010999992006010617304+35733-005900FM-15+0021GMTT V0202101N004110048059N0080001N1+01101+01001999999ADDGA1045+001805999GA2075+004805999GA3025+006905095MA1101001999999REMMET075GMTT 061730Z 21008KT 170V250 8000 SCT006 BKN016 FEW023CB 11/10 Q1010 NOSIG;EQDQ01+000000PRSWM1
0361601010999992006010618004+35733-005900SY-MT+0021GMTT V0201901N00261004801CN0080001N1+01121+00991101101ADDAA112023191AY181061AY261061GA1045+001801071GA2075+004801081GA3025+006901095GF107991071091002501999999KA1120M+01241MA1101101999999MD1510001+9999MW1021REMSYN100AAXX  06184 60101 11358 71905 10112 20099 40110 55000 60232 70286 879// 333 10124 83706 85816 81923;MET075GMTT 061800Z 19005KT 150V250 8000 SCT006 BKN016 FEW023CB 11/10 Q1011 NOSIG;EQDQ01+000000PRSWM2
0161601010999992006010618304+35733-005900FM-15+0021GMTT V0201601N00361004801CN0080001N1+01101+01001999999ADDGA1025+001801999GA2075+004801999GA3025+006901095MA1101081999999REMMET067GMTT 061830Z 16007KT 8000 FEW006 BKN016 FEW023CB 11/10 Q1011 NOSIG;EQDQ01+000022SCOTCV
0161601010999992006010619004+35733-005900FM-15+0021GMTT V0201601N00411004805CN0080001N1+01101+00901999999ADDGA1025+003001999GA2045+004801999GA3025+006901095MA1101081999999REMMET067GMTT 061900Z 16008KT 8000 FEW010 SCT016 FEW023CB 11/09 Q1011 NOSIG;EQDQ01+000022SCOTCV
0161601010999992006010619304+35733-005900FM-15+0021GMTT V0201701N00461004805CN0080001N1+01001+00901999999ADDGA1025+003001999GA2045+004801999GA3025+006901095MA1101081999999REMMET067GMTT 061930Z 17009KT 8000 FEW010 SCT016 FEW023CB 10/09 Q1011 NOSIG;EQDQ01+000022SCOTCV
0161601010999992006010620004+35733-005900FM-15+0021GMTT V0201601N00511004801CN0080001N1+01101+00901999999ADDGA1025+003001999GA2075+004801999GA3025+006901095MA1101081999999REMMET067GMTT 062000Z 16010KT 8000 FEW010 BKN016 FEW023CB 11/09 Q1011 NOSIG;EQDQ01+000022SCOTCV
0161601010999992006010620304+35733-005900FM-15+0021GMTT V0201501N00311004801CN0080001N1+01101+00901999999ADDGA1025+003001999GA2075+004801999GA3025+006901095MA1101081999999REMMET067GMTT 062030Z 15006KT 8000 FEW010 BKN016 FEW023CB 11/09 Q1011 NOSIG;EQDQ01+000022SCOTCV
0322601010999992006010621004+35733-005900SY-MT+0021GMTT V0201501N00511004801CN0060001N1+01051+00901101091ADDAY121031AY281031GA1025+003001081GA2075+004801081GA3025+006901095GF107991071091004501999999MA1101101999999MD1810011+9999MW1811REMSYN088AAXX  06214 60101 31456 71510 10105 20090 40109 58001 78128 879// 333 82810 85816 82923;MET072GMTT 062100Z 15009KT 6000 SHRA FEW010 BKN016 FEW023CB 11/09 Q1011 NOSIG;EQDQ01+000000PRSWM2
0161601010999992006010621304+35733-005900FM-15+0021GMTT V0201501N00511004801CN0060001N1+01001+00901999999ADDGA1025+003001999GA2075+004801999GA3025+006901095MA1101021999999REMMET067GMTT 062130Z 15010KT 6000 FEW010 BKN016 FEW023CB 10/09 Q1010 NOSIG;EQDQ01+000022SCOTCV
0172601010999992006010622004+35733-005900FM-15+0021GMTT V0202701N00721004801CN0060001N1+01001+00901999999ADDGA1025+003001999GA2075+004801999GA3025+006901095MA1101081999999REMMET078METAR GMTT 062200Z 27014KT 6000 RESH FEW010 BKN016 FEW023CB 10/09 Q1011 NOSIG;EQDQ01+000022SCOTCV
0161601010999992006010622304+35733-005900FM-15+0021GMTT V0203001N00981004801CN0060001N1+01101+01001999999ADDGA1025+003001999GA2075+004801999GA3025+006901095MA1101081999999REMMET067GMTT 062230Z 30019KT 6000 FEW010 BKN016 FEW023CB 11/10 Q1011 NOSIG;EQDQ01+000022SCOTCV
0161601010999992006010623004+35733-005900FM-15+0021GMTT V0203201N00411004801CN0060001N1+01001+00901999999ADDGA1025+003001999GA2075+004801999GA3025+006901095MA1101081999999REMMET067GMTT 062300Z 32008KT 6000 FEW010 BKN016 FEW023CB 10/09 Q1011 NOSIG;EQDQ01+000022SCOTCV
0161601010999992006010623304+35733-005900FM-15+0021GMTT V0203301N00211004801CN0060001N1+01001+00901999999ADDGA1025+003001999GA2075+004801999GA3025+006901095MA1101081999999REMMET067GMTT 062330Z 33004KT 6000 FEW010 BKN016 FEW023CB 10/09 Q1011 NOSIG;EQDQ01+000022SCOTCV
0334601010999992006010700004+35733-005900SY-MT+0021GMTT V0200801N00151004801CN0060001N1+01001+00901101151ADDAA106004191AY181061AY221061GA1025+003001999GA2075+004801999GA3025+006901095GF107991071091004501999999MA1101081999999MD1110061+9999MW1021REMSYN094AAXX  07004 60101 11456 70803 10100 20090 40115 51006 60041 70282 879// 333 82810 85816 82923;MET067GMTT 070000Z 09004KT 6000 FEW010 BKN016 FEW023CB 10/09 Q1011 NOSIG;EQDQ01+000000PRSWM2
0161601010999992006010700304+35733-005900FM-15+0021GMTT V0201101N00211004801CN0060001N1+01001+00901999999ADDGA1025+003001999GA2075+004801999GA3025+006901095MA1101081999999REMMET067GMTT 070030Z 11004KT 6000 FEW010 BKN016 FEW023CB 10/09 Q1011 NOSIG;EQDQ01+000022SCOTCV
0084601010999992006010701004+35733-005900AUTO +0021GMTT V02099999999992200019N9999999N1+01001+00901999999ADDMA1101101999999REMMET038GMTT 070100Z AUTO 00//0KT 10/09 Q1011;EQDQ01+000003ATOT  
0098601010999992006010701304+35733-005900FM-15+0021GMTT V0201401N002612200019N9999999N1+00901+00901999999ADDMA1101081999999REMMET052METAR GMTT 070130Z AUTO 14005KT 090V160 09/09 Q1011;EQDQ01+000000PRSWMA
0084601010999992006010702004+35733-005900FM-15+0021GMTT V0201401N001012200019N9999999N1+00901+00801999999ADDMA1101081999999REMMET038GMTT 070200Z AUTO 14002KT 09/08 Q1011;EQDQ01+000000PRSWMA
0084601010999992006010702304+35733-005900FM-15+0021GMTT V0201101N001012200019N9999999N1+00601+00601999999ADDMA1101081999999REMMET038GMTT 070230Z AUTO 11002KT 06/06 Q1011;EQDQ01+000000PRSWMA
0145601010999992006010703004+35733-005900SY-MT+0021GMTT V0201101N002619999999N9999999N1+00621+00561101151ADDMA1101081999999MD1510001+9999MW1001REMSYN054AAXX  07034 60101 46/// /1105 10062 20056 40115 55000;MET038GMTT 070300Z AUTO 11004KT 06/06 Q1011;
0084601010999992006010703304+35733-005900FM-15+0021GMTT V0200801N001512200019N9999999N1+00501+00401999999ADDMA1101081999999REMMET038GMTT 070330Z AUTO 08003KT 05/04 Q1011;EQDQ01+000000PRSWMA
0084601010999992006010704004+35733-005900FM-15+0021GMTT V0200801N002612200019N9999999N1+00801+00701999999ADDMA1101081999999REMMET038GMTT 070400Z AUTO 08005KT 08/07 Q1011;EQDQ01+000000PRSWMA
0090601010999992006010704304+35733-005900FM-15+0021GMTT V0201501N003612200019N9999999N1+00801+00801999999ADDMA1101081999999REMMET044METAR GMTT 070430Z AUTO 15007KT 08/08 Q1011;EQDQ01+000000PRSWMA
0084601010999992006010705004+35733-005900FM-15+0021GMTT V0201201N001512200019N9999999N1+00701+00701999999ADDMA1101081999999REMMET038GMTT 070500Z AUTO 12003KT 07/07 Q1011;EQDQ01+000000PRSWMA
0084601010999992006010705304+35733-005900FM-15+0021GMTT V0201601N004112200019N9999999N1+00901+00801999999ADDMA1101081999999REMMET038GMTT 070530Z AUTO 16008KT 09/08 Q1011;EQDQ01+000000PRSWMA
0353601010999992006010706004+35733-005900SY-MT+0021GMTT V0201601N00361004801CN0060001N1+00761+00691101151ADDAA124027991AY181061AY221061GA1025+003001999GA2075+004801999GA3025+006901095GF107991071091004501999999KA1120N+00491MA1101081999999MD1410001+9999MW1021REMSYN100AAXX  07064 60101 11456 71607 10076 20069 40115 54000 60284 70282 879// 333 20049 82810 85816 82923;MET067GMTT 070600Z 16007KT 6000 FEW010 BKN016 FEW023CB 08/07 Q1011 NOSIG;EQDQ01+000000PRSWM2
0161601010999992006010706304+35733-005900FM-15+0021GMTT V0201601N00311004801CN0060001N1+00801+00801999999ADDGA1025+003001999GA2075+004801999GA3025+006901095MA1101081999999REMMET067GMTT 070630Z 16006KT 6000 FEW010 BKN016 FEW023CB 08/08 Q1011 NOSIG;EQDQ01+000022SCOTCV
0161601010999992006010707004+35733-005900FM-15+0021GMTT V0201601N00411004801CN0060001N1+00801+00801999999ADDGA1025+003001999GA2075+004801999GA3025+006901095MA1101081999999REMMET067GMTT 070700Z 16008KT 6000 FEW010 BKN016 FEW023CB 08/08 Q1011 NOSIG;EQDQ01+000022SCOTCV
0155601010999992006010707304+35733-005900FM-15+0021GMTT V0200901N00151004801CN0060001N1+00701+00501999999ADDGA1025+003001999GA2075+004801999GA3025+006901095MA1101191999999REMMET061GMTT 070730Z 09003KT 6000 FEW010 BKN016 FEW023CB 07/05 Q1012;EQDQ01+000022SCOTCV
0161601010999992006010708304+35733-005900FM-15+0021GMTT V0201501N00461004801CN0060001N1+00901+00801999999ADDGA1025+003001999GA2075+004801999GA3025+006901095MA1101191999999REMMET067GMTT 070830Z 15009KT 6000 FEW010 BKN016 FEW023CB 09/08 Q1012 NOSIG;EQDQ01+000022SCOTCV
0295601010999992006010709004+35733-005900SY-MT+0021GMTT V0201701N00511004801CN0080001N1+01001+00821101251ADDGA1025+003001999GA2075+004801999GA3025+006901095GF107991071091004501999999MA1101191999999MD1310111+9999MW1001REMSYN082AAXX  07094 60101 32458 71710 10100 20082 40125 53011 879// 333 82810 85816 82923;MET067GMTT 070900Z 17010KT 8000 FEW010 BKN016 FEW023CB 10/08 Q1012 NOSIG;EQDQ01+000000PRSWM2
0174601010999992006010709304+35733-005900FM-15+0021GMTT V0201601N00361004801CN0080001N1+01001+00801999999ADDGA1025+003001999GA2075+004801999GA3025+006901095MA1101191999999REMMET080GMTT 070930Z 16007KT 120V180 8000 FEW010 BKN016 FEW023CB 10/08 Q1012 TEMPO SHRA;EQDQ01+000022SCOTCV
0174601010999992006010710004+35733-005900FM-15+0021GMTT V0201101N00211004801CN0080001N1+01001+00801999999ADDGA1025+003001999GA2075+004801999GA3025+006901095MA1101291999999REMMET080GMTT 071000Z 11004KT 060V140 8000 FEW010 BKN016 FEW023CB 10/08 Q1013 TEMPO SHRA;EQDQ01+000022SCOTCV
0166601010999992006010710304+35733-005900FM-15+0021GMTT V0201501N00361004805CN0080001N1+01201+00901999999ADDGA1025+003001999GA2045+004801999GA3025+006901095MA1101291999999REMMET072GMTT 071030Z 15007KT 8000 FEW010 SCT016 FEW023CB 12/09 Q1013 TEMPO SHRA;EQDQ01+000022SCOTCV
0161601010999992006010711004+35733-005900FM-15+0021GMTT V0201601N00621004805CN0080001N1+01301+00901999999ADDGA1025+003901999GA2045+004801999GA3025+006901095MA1101291999999REMMET067GMTT 071100Z 16012KT 8000 FEW013 SCT016 FEW023CB 13/09 Q1013 NOSIG;EQDQ01+000022SCOTCV
0161601010999992006010711304+35733-005900FM-15+0021GMTT V0201701N00721004805CN0080001N1+01201+00801999999ADDGA1025+003901999GA2045+004801999GA3025+006901095MA1101291999999REMMET067GMTT 071130Z 17014KT 8000 FEW013 SCT016 FEW023CB 12/08 Q1013 NOSIG;EQDQ01+000022SCOTCV
0295601010999992006010712004+35733-005900SY-MT+0021GMTT V0201701N00671004801CN0080001N1+01091+00781101291ADDGA1025+003901999GA2045+004801999GA3025+006901095GF107991061091004501001021MA1101191999999MD1010031+9999MW1001REMSYN082AAXX  07124 60101 32458 71713 10109 20078 40129 50003 86902 333 82813 84816 82923;MET067GMTT 071200Z 17012KT 8000 FEW013 SCT016 FEW023CB 11/08 Q1012 NOSIG;EQDQ01+000000PRSWM2
0161601010999992006010712304+35733-005900FM-15+0021GMTT V0201701N00621004805CN0080001N1+01101+00801999999ADDGA1025+003901999GA2045+004801999GA3025+006901095MA1101191999999REMMET067GMTT 071230Z 17012KT 8000 FEW013 SCT016 FEW023CB 11/08 Q1012 NOSIG;EQDQ01+000022SCOTCV
0161601010999992006010713004+35733-005900FM-15+0021GMTT V0201901N00511004801CN0080001N1+01101+00701999999ADDGA1025+003901999GA2075+004801999GA3025+006901095MA1101191999999REMMET067GMTT 071300Z 19010KT 8000 FEW013 BKN016 FEW023CB 11/07 Q1012 NOSIG;EQDQ01+000022SCOTCV
0161601010999992006010713304+35733-005900FM-15+0021GMTT V0201901N00621004801CN0080001N1+01101+00701999999ADDGA1025+003901999GA2075+004801999GA3025+006901095MA1101191999999REMMET067GMTT 071330Z 19012KT 8000 FEW013 BKN016 FEW023CB 11/07 Q1012 NOSIG;EQDQ01+000022SCOTCV
0161601010999992006010714004+35733-005900FM-15+0021GMTT V0201901N00511004801CN0080001N1+01101+00601999999ADDGA1025+003901999GA2075+004801999GA3025+006901095MA1101191999999REMMET067GMTT 071400Z 19010KT 8000 FEW013 BKN016 FEW023CB 11/06 Q1012 NOSIG;EQDQ01+000022SCOTCV
0162601010999992006010714304+35733-005900FM-15+0021GMTT V0201801N00461004801CN0080001N1+01201+00701999999ADDGA1025+003901999GA2075+004801999GF107991999999999999999999MA1101191999999REMMET058GMTT 071430Z 18009KT 8000 FEW013 BKN016 12/07 Q1012 NOSIG;EQDQ01+000000PRSWM1
0286601010999992006010715004+35733-005900SY-MT+0021GMTT V0201801N00511004801CN0080001N1+01351+00671101201ADDAY181031AY221031GA1025+003901999GA2075+004801999GF199999051081004501001001MA1101191999999MD1710091+9999MW1011REMSYN082AAXX  07154 60101 42458 51810 10135 20067 40120 57009 70182 85800 333 82813 85816;MET058GMTT 071500Z 18010KT 8000 FEW013 BKN016 14/07 Q1012 NOSIG;EQDQ01+000052SCOTCV
0136601010999992006010715304+35733-005900FM-15+0021GMTT V0201901N004110600059N0080001N1+01301+00701999999ADDGA1045+004805999GA2045+060005999MA1101201999999REMMET058GMTT 071530Z 19008KT 8000 SCT016 SCT200 13/07 Q1012 NOSIG;EQDQ01+000000PRSWM1
0136601010999992006010716004+35733-005900FM-15+0021GMTT V0201801N004110600059N0080001N1+01301+00701999999ADDGA1045+004805999GA2045+060005999MA1101201999999REMMET058GMTT 071600Z 18008KT 8000 SCT016 SCT200 13/07 Q1012 NOSIG;EQDQ01+000000PRSWM1
0136601010999992006010716304+35733-005900FM-15+0021GMTT V0201801N00511004801CN0080001N1+01201+00701999999ADDGA1075+004801999GA2045+060001999MA1101191999999REMMET058GMTT 071630Z 18010KT 8000 BKN016 SCT200 12/07 Q1012 NOSIG;EQDQ01+000042SCOTCV
0141601010999992006010717004+35733-005900FM-15+0021GMTT V0201401N002610048059N0080001N1+01101+00801999999ADDGA1045+003905999GA2075+004805999MA1101201999999REMMET063GMTT 071700Z 14005KT 8000 SCT013 BKN016 11/08 Q1012 RARA NOSIG;EQDQ01+000000PRSWM1
0162601010999992006010717304+35733-005900FM-15+0021GMTT V0202701N00261004801CN0080001N1+01101+00701999999ADDGA1025+003901999GA2075+004801999GF107991999999999999999999MA1101191999999REMMET058GMTT 071730Z 27005KT 8000 FEW013 BKN016 11/07 Q1012 NOSIG;EQDQ01+000000PRSWM1
0338601010999992006010718004+35733-005900SY-MT+0021GMTT V0200501N00211004801CN0080001N1+01011+00721101291ADDAA112000091AY181061AY261061GA1025+003901999GA2075+004801999GF107991051081004501001021KA1120M+01351MA1101191999999MD1310091+9999MW1021REMSYN094AAXX  07184 60101 11458 70504 10101 20072 40129 53009 69922 70286 85802 333 10135 82813 85816;MET058GMTT 071800Z 05004KT 8000 FEW013 BKN016 10/07 Q1012 NOSIG;EQDQ01+000000PRSWM2Q02  00002PRCP12
0185601010999992006010718304+35733-005900FM-15+0021GMTT V0201001N00151004801CN0080001N1+00901+00701999999ADDGA1025+003901999GA2045+004801999GA3075+060001999GF107991999999999999999999MA1101291999999REMMET065GMTT 071830Z 10003KT 8000 FEW013 SCT016 BKN200 09/07 Q1013 NOSIG;EQDQ01+000000PRSWM1
0136601010999992006010719004+35733-005900FM-15+0021GMTT V0201001N002110600059N0080001N1+00701+00601999999ADDGA1045+004805999GA2045+060005999MA1101301999999REMMET058GMTT 071900Z 10004KT 8000 SCT016 SCT200 07/06 Q1013 NOSIG;EQDQ01+000000PRSWM1
0136601010999992006010719304+35733-005900FM-15+0021GMTT V0200801N002110600059N0080001N1+00701+00501999999ADDGA1045+004805999GA2045+060005999MA1101301999999REMMET058GMTT 071930Z 08004KT 8000 SCT016 SCT200 07/05 Q1013 NOSIG;EQDQ01+000000PRSWM1
0136601010999992006010720004+35733-005900FM-15+0021GMTT V0201001N002110600059N0080001N1+00601+00501999999ADDGA1045+004805999GA2045+060005999MA1101301999999REMMET058GMTT 072000Z 10004KT 8000 SCT016 SCT200 06/05 Q1013 NOSIG;EQDQ01+000000PRSWM1
0113601010999992006010720304+35733-005900FM-15+0021GMTT V0201001N002112200019N0080001N1+00601+00401999999ADDGA1045+004805999MA1101401999999REMMET051GMTT 072030Z 10004KT 8000 SCT016 06/04 Q1014 NOSIG;EQDQ01+000000PRSWM1
0235601010999992006010721004+35733-005900SY-MT+0021GMTT V0200901N002612200019N0080001N1+00541+00431101431ADDGA1045+004801081GF103991031021004501001001MA1101401999999MD1310141+9999MW1001REMSYN070AAXX  07214 60101 32458 30905 10054 20043 40143 53014 83200 333 83816;MET051GMTT 072100Z 09005KT 8000 SCT016 05/04 Q1014 NOSIG;EQDQ01+000000PRSWM2
0113601010999992006010721304+35733-005900FM-15+0021GMTT V0200901N002112200019N0080001N1+00501+00401999999ADDGA1045+004805999MA1101401999999REMMET051GMTT 072130Z 09004KT 8000 SCT016 05/04 Q1014 NOSIG;EQDQ01+000000PRSWM1
0113601010999992006010722004+35733-005900FM-15+0021GMTT V0200901N002612200019N0080001N1+00501+00401999999ADDGA1045+004805999MA1101401999999REMMET051GMTT 072200Z 09005KT 8000 SCT016 05/04 Q1014 NOSIG;EQDQ01+000000PRSWM1
0113601010999992006010722304+35733-005900FM-15+0021GMTT V0200901N001512200019N0080001N1+00401+00301999999ADDGA1045+004805999MA1101401999999REMMET051GMTT 072230Z 09003KT 8000 SCT016 04/03 Q1014 NOSIG;EQDQ01+000000PRSWM1
0113601010999992006010723004+35733-005900FM-15+0021GMTT V0200901N002112200019N0080001N1+00401+00301999999ADDGA1045+004805999MA1101501999999REMMET051GMTT 072300Z 09004KT 8000 SCT016 04/03 Q1015 NOSIG;EQDQ01+000000PRSWM1
0113601010999992006010723304+35733-005900FM-15+0021GMTT V0200901N002612200019N0080001N1+00401+00301999999ADDGA1045+004805999MA1101501999999REMMET051GMTT 072330Z 09005KT 8000 SCT016 04/03 Q1015 NOSIG;EQDQ01+000000PRSWM1
0241601010999992006010800004+35733-005900SY-MT+0021GMTT V0200901N003112200019N0080001N1+00481+00391101521ADDGA1045+004801081GF103991031021004501001001MA1101501999999MD1110091+9999MW1001REMSYN076AAXX  08004 60101 32458 30906 10048 20039 40152 51009 83200 92351 333 83816;MET051GMTT 080000Z 09006KT 8000 SCT016 05/04 Q1015 NOSIG;EQDQ01+000000PRSWM2
0102601010999992006010800304+35733-005900AUTO +0021GMTT V02099999999992200019N9999999N1+00401+00301999999ADDMA1101501999999REMMET056GMTT 080030Z AUTO 00//0KT 8000 SCT016 04/03 Q1015 NOSIG;EQDQ01+000000PRSWMA
0102601010999992006010801004+35733-005900AUTO +0021GMTT V02099999999992200019N9999999N1+00401+00301999999ADDMA1101501999999REMMET056GMTT 080100Z AUTO 00//0KT 8000 SCT016 04/03 Q1015 NOSIG;EQDQ01+000000PRSWMA
0102601010999992006010801304+35733-005900AUTO +0021GMTT V02099999999992200019N9999999N1+00401+00301999999ADDMA1101501999999REMMET056GMTT 080130Z AUTO 00//0KT 8000 SCT016 04/03 Q1015 NOSIG;EQDQ01+000000PRSWMA
0102601010999992006010802004+35733-005900AUTO +0021GMTT V02099999999992200019N9999999N1+00501+00401999999ADDMA1101501999999REMMET056GMTT 080200Z AUTO 00//0KT 8000 SCT016 05/04 Q1015 NOSIG;EQDQ01+000000PRSWMA
0090601010999992006010802304+35733-005900AUTO +0021GMTT V02099999999992200019N9999999N1+00701+00601999999ADDMA1101501999999REMMET044METAR GMTT 080230Z AUTO 00//0KT 07/06 Q1015;EQDQ01+000000PRSWMA
0215601010999992006010803004+35733-005900SY-MT+0021GMTT V02099999999992200019N0080001N1+00721+00631101561ADDGA1045+004801081GF103991031021004501001001MA1101501999999MD1310041+9999MW1001REMSYN070AAXX  08034 60101 35458 3//// 10072 20063 40156 53004 83200 333 83816;MET050GMTT 080300Z AUTO 00//0KT 8000 SCT016 07/06 Q1015;
0096601010999992006010803304+35733-005900AUTO +0021GMTT V02099999999992200019N9999999N1+00801+00701999999ADDMA1101501999999REMMET050GMTT 080330Z AUTO 00//0KT 8000 SCT016 08/07 Q1015;EQDQ01+000000PRSWMA
0133601010999992006010804004+35733-005900FM-15+0021GMTT V0201501N00461004801CN0080001N1+00901+00701999999ADDGA1075+004801999GF107991999999999999999999MA1101491999999REMMET045GMTT 080400Z 15009KT 8000 BKN016 09/07 Q1015;EQDQ01+000000PRSWM1
0133601010999992006010804304+35733-005900FM-15+0021GMTT V0201701N00461004801CN0080001N1+00901+00601999999ADDGA1075+004801999GF107991999999999999999999MA1101491999999REMMET045GMTT 080430Z 17009KT 8000 BKN016 09/06 Q1015;EQDQ01+000000PRSWM1
0172601010999992006010805004+35733-005900FM-15+0021GMTT V0201601N00411004801CN0050001N1+00901+00701999999ADDGA1045+003001999GA2075+004801999GF107991999999999999999999MA1101491999999MW1611REMMET062GMTT 080500Z 16008KT 5000 -RA SCT010 BKN016 09/07 Q1015 NOSIG;EQDQ01+000000PRSWM1
0125601010999992006010805304+35733-005900AUTO +0021GMTT V02099999999992200019N9999999N1+00901+00601999999ADDAW1611MA1101601999999REMMET073METAR GMTT 080530Z AUTO 00//0KT 5000 -RA SCT010 BKN016 09/06 Q1016 NOSIG;EQDQ01+000003ATOT  
0322601010999992006010806004+35733-005900SY-MT+0021GMTT V0201501N00511004801CN0050001N1+00881+00641101631ADDAA124001091AY161061AY221061GA1045+003001081GA2075+004801081GF107991071081004501999999KA1120N+00351MA1101601999999MD1310071+9999MW1211REMSYN094AAXX  08064 60101 11450 71510 10088 20064 40163 53007 60014 72162 878// 333 20035 83810 87816;MET058GMTT 080600Z 15010KT 5000 SCT010 BKN016 09/07 Q1016 NOSIG;EQDQ01+000000PRSWM2
0115601010999992006010806304+35733-005900AUTO +0021GMTT V02099999999992200019N9999999N1+00901+00701999999ADDMA1101601999999REMMET069METAR GMTT 080630Z AUTO 00//0KT 6000 SCT010 BKN016 09/07 Q1016 NOSIG;EQDQ01+000000PRSWMA
0136601010999992006010807004+35733-005900FM-15+0021GMTT V0201301N002110048059N0080001N1+00901+00601999999ADDGA1045+003005999GA2075+004805999MA1101701999999REMMET058GMTT 080700Z 13004KT 8000 SCT010 BKN016 09/06 Q1017 NOSIG;EQDQ01+000000PRSWM1
0136601010999992006010807304+35733-005900FM-15+0021GMTT V0201501N002110048059N0080001N1+00901+00701999999ADDGA1045+003005999GA2075+004805999MA1101701999999REMMET058GMTT 080730Z 15004KT 8000 SCT010 BKN016 09/07 Q1017 NOSIG;EQDQ01+000000PRSWM1
0136601010999992006010808004+35733-005900FM-15+0021GMTT V0201601N003610048059N0080001N1+00901+00701999999ADDGA1045+003905999GA2075+004805999MA1101701999999REMMET058GMTT 080800Z 16007KT 8000 SCT013 BKN016 09/07 Q1017 NOSIG;EQDQ01+000000PRSWM1
0136601010999992006010808304+35733-005900FM-15+0021GMTT V0201701N003610048059N0080001N1+01001+00701999999ADDGA1045+003905999GA2075+004805999MA1101701999999REMMET058GMTT 080830Z 17007KT 8000 SCT013 BKN016 10/07 Q1017 NOSIG;EQDQ01+000000PRSWM1
0264601010999992006010809004+35733-005900SY-MT+0021GMTT V0201701N00361004801CN0100001N1+00981+00671101821ADDGA1045+003901081GA2075+004801061GF107991071081004501999999MA1101801999999MD1310191+9999MW1001REMSYN076AAXX  08094 60101 42460 71707 10098 20067 40182 53019 878// 333 83813 87616;MET058GMTT 080900Z 17007KT 9999 SCT013 BKN016 10/07 Q1018 NOSIG;EQDQ01+000000PRSWM2
0136601010999992006010810004+35733-005900FM-15+0021GMTT V0201601N004110048059N0112651N1+01101+00701999999ADDGA1045+003905999GA2075+004805999MA1101801999999REMMET058GMTT 081000Z 16008KT 9999 SCT013 BKN016 11/07 Q1018 NOSIG;EQDQ01+000000PRSWM1
0136601010999992006010810304+35733-005900FM-15+0021GMTT V0201701N004110048059N0112651N1+01101+00701999999ADDGA1045+003905999GA2075+004805999MA1101901999999REMMET058GMTT 081030Z 17008KT 9999 SCT013 BKN016 11/07 Q1019 NOSIG;EQDQ01+000000PRSWM1
0136601010999992006010811004+35733-005900FM-15+0021GMTT V0201701N005110048059N0112651N1+01201+00801999999ADDGA1045+003905999GA2075+004805999MA1101901999999REMMET058GMTT 081100Z 17010KT 9999 SCT013 BKN016 12/08 Q1019 NOSIG;EQDQ01+000000PRSWM1
0136601010999992006010811304+35733-005900FM-15+0021GMTT V0201701N004610048059N0112651N1+01201+00801999999ADDGA1045+003905999GA2075+004805999MA1101901999999REMMET058GMTT 081130Z 17009KT 9999 SCT013 BKN016 12/08 Q1019 NOSIG;EQDQ01+000000PRSWM1
0264601010999992006010812004+35733-005900SY-MT+0021GMTT V0201801N00411004801CN0100001N1+01261+00801101911ADDGA1045+003901081GA2075+004801061GF106991051081004501031001MA1101901999999MD1110101+9999MW1001REMSYN076AAXX  08124 60101 32460 61808 10126 20080 40191 51010 85830 333 83813 86616;MET058GMTT 081200Z 18008KT 9999 SCT013 BKN016 13/08 Q1019 NOSIG;EQDQ01+000000PRSWM2
0136601010999992006010812304+35733-005900FM-15+0021GMTT V0201901N004110048059N0112651N1+01301+00801999999ADDGA1045+003905999GA2075+004805999MA1101801999999REMMET058GMTT 081230Z 19008KT 9999 SCT013 BKN016 13/08 Q1018 NOSIG;EQDQ01+000000PRSWM1
0136601010999992006010813004+35733-005900FM-15+0021GMTT V0201801N004610060059N0112651N1+01301+00801999999ADDGA1045+003905999GA2075+006005999MA1101801999999REMMET058GMTT 081300Z 18009KT 9999 SCT013 BKN020 13/08 Q1018 NOSIG;EQDQ01+000000PRSWM1
0136601010999992006010813304+35733-005900FM-15+0021GMTT V0202001N004610060059N0112651N1+01401+00801999999ADDGA1045+003905999GA2075+006005999MA1101801999999REMMET058GMTT 081330Z 20009KT 9999 SCT013 BKN020 14/08 Q1018 NOSIG;EQDQ01+000000PRSWM1
0136601010999992006010814004+35733-005900FM-15+0021GMTT V0202001N003110060059N0112651N1+01401+00801999999ADDGA1045+003905999GA2075+006005999MA1101801999999REMMET058GMTT 081400Z 20006KT 9999 SCT013 BKN020 14/08 Q1018 NOSIG;EQDQ01+000000PRSWM1
0178601010999992006010814304+35733-005900FM-15+0021GMTT V0201701N00361999999CN0112651N1+01501+00801999999ADDGA1025+003901999GA2045+006001999GF104991999999999999999999MA1101801999999REMMET058GMTT 081430Z 17007KT 9999 FEW013 SCT020 15/08 Q1018 NOSIG;EQDQ01+000000PRSWM1P01 006003SCOCIG
0280601010999992006010815004+35733-005900SY-MT+0021GMTT V0202001N00261999999CN0100001N1+01491+00841101871ADDGA1025+003901999GA2045+006001999GF104991041081004501001001MA1101801999999MD1510051+9999MW1001REMSYN076AAXX  08154 60101 32460 42005 10149 20084 40187 55005 84800 333 82813 84620;MET058GMTT 081500Z 20005KT 9999 FEW013 SCT020 15/08 Q1018 NOSIG;EQDQ01+000000PRSWM2P01 006003SCOCIG
0178601010999992006010815304+35733-005900FM-15+0021GMTT V0201801N00311999999CN0112651N1+01501+00801999999ADDGA1025+003901999GA2045+006001999GF104991999999999999999999MA1101801999999REMMET058GMTT 081530Z 18006KT 9999 FEW013 SCT020 15/08 Q1018 NOSIG;EQDQ01+000000PRSWM1P01 006003SCOCIG
0178601010999992006010816004+35733-005900FM-15+0021GMTT V0202101N00211999999CN0112651N1+01501+00801999999ADDGA1025+003901999GA2045+006001999GF104991999999999999999999MA1101901999999REMMET058GMTT 081600Z 21004KT 9999 FEW013 SCT020 15/08 Q1019 NOSIG;EQDQ01+000000PRSWM1P01 006003SCOCIG
0109601010999992006010816304+35733-005900AUTO +0021GMTT V02099999999992200019N0112655N1+01401+00801999999ADDMA1101901999999REMMET063GMTT 081630Z AUTO 00//0KT 9999 FEW013 SCT020 14/08 Q1019 NOSIG;EQDQ01+000003ATOT  
0113601010999992006010817004+35733-005900FM-15+0021GMTT V0202101N001012200019N0112651N1+01301+00901999999ADDGA1045+006005999MA1101901999999REMMET051GMTT 081700Z 21002KT 9999 SCT020 13/09 Q1019 NOSIG;EQDQ01+000000PRSWM1
0113601010999992006010817304+35733-005900FM-15+0021GMTT V0201801N001012200019N0112651N1+01101+00701999999ADDGA1045+006005999MA1101901999999REMMET051GMTT 081730Z 18002KT 9999 SCT020 11/07 Q1019 NOSIG;EQDQ01+000000PRSWM1
0254601010999992006010818004+35733-005900SY-MT+0021GMTT V0200701N001012200019N0100001N1+00811+00601101971ADDGA1045+006001061GF103991031051008001001001KA1120M+01551MA1101901999999MD1210101+9999MW1001REMSYN076AAXX  08184 60101 32560 30702 10081 20060 40197 52010 83500 333 10155 83620;MET051GMTT 081800Z 07002KT 9999 SCT020 08/06 Q1019 NOSIG;EQDQ01+000000PRSWM2
0094601010999992006010818304+35733-005900FM-15+0021GMTT V0201001N002112200019N0112651N1+00801+00601999999ADDGA1045+006005999MA1102001999999REMMET051GMTT 081830Z 10004KT 9999 SCT020 08/06 Q1020 NOSIG;
0094601010999992006010819004+35733-005900FM-15+0021GMTT V0201001N003112200019N0112651N1+00701+00501999999ADDGA1045+006005999MA1102001999999REMMET051GMTT 081900Z 10006KT 9999 SCT020 07/05 Q1020 NOSIG;
0094601010999992006010819304+35733-005900FM-15+0021GMTT V0201001N003112200019N0112651N1+00701+00501999999ADDGA1045+006005999MA1102001999999REMMET051GMTT 081930Z 10006KT 9999 SCT020 07/05 Q1020 NOSIG;
0094601010999992006010820004+35733-005900FM-15+0021GMTT V0201001N002612200019N0080001N1+00701+00501999999ADDGA1045+004805999MA1102001999999REMMET051GMTT 082000Z 10005KT 8000 SCT016 07/05 Q1020 NOSIG;
0094601010999992006010820304+35733-005900FM-15+0021GMTT V0201001N003112200019N0080001N1+00601+00501999999ADDGA1045+004805999MA1102001999999REMMET051GMTT 082030Z 10006KT 8000 SCT016 06/05 Q1020 NOSIG;
0216601010999992006010821004+35733-005900SY-MT+0021GMTT V0201001N003112200019N0080001N1+00621+00501102101ADDGA1025+004801999GF102991021051004501001001MA1102101999999MD1110131+9999MW1001REMSYN070AAXX  08214 60101 32458 21006 10062 20050 40210 51013 82500 333 82616;MET051GMTT 082100Z 10006KT 8000 FEW016 06/05 Q1021 NOSIG;
0120601010999992006010821304+35733-005900FM-15+0021GMTT V0200801N003612200019N0080001N1+00701+00501999999ADDGA1025+004801999GF102991999999999999999999MA1102101999999REMMET051GMTT 082130Z 08007KT 8000 FEW016 07/05 Q1021 NOSIG;
0120601010999992006010822004+35733-005900FM-15+0021GMTT V0200901N003112200019N0080001N1+00701+00501999999ADDGA1025+004801999GF102991999999999999999999MA1102101999999REMMET051GMTT 082200Z 09006KT 8000 FEW016 07/05 Q1021 NOSIG;
0120601010999992006010822304+35733-005900FM-15+0021GMTT V0201001N003612200019N0080001N1+00601+00401999999ADDGA1025+004801999GF102991999999999999999999MA1102101999999REMMET051GMTT 082230Z 10007KT 8000 FEW016 06/04 Q1021 NOSIG;
0120601010999992006010823004+35733-005900FM-15+0021GMTT V0200901N004112200019N0080001N1+00601+00501999999ADDGA1025+004801999GF102991999999999999999999MA1102101999999REMMET051GMTT 082300Z 09008KT 8000 FEW016 06/05 Q1021 NOSIG;
0120601010999992006010823304+35733-005900FM-15+0021GMTT V0201001N003112200019N0080001N1+00501+00401999999ADDGA1025+004801999GF102991999999999999999999MA1102101999999REMMET051GMTT 082330Z 10006KT 8000 FEW016 05/04 Q1021 NOSIG;
0222601010999992006010900004+35733-005900SY-MT+0021GMTT V0201101N003112200019N0080001N1+00521+00391102121ADDGA1025+004801999GF102991021051004501001001MA1102101999999MD1010021+9999MW1001REMSYN076AAXX  09004 60101 32458 21106 10052 20039 40212 50002 82500 92350 333 82616;MET051GMTT 090000Z 10006KT 8000 FEW016 05/04 Q1021 NOSIG;
0083601010999992006010900304+35733-005900AUTO +0021GMTT V02099999999992200019N9999999N1+00601+00501999999ADDMA1102101999999REMMET056GMTT 090030Z AUTO 00//0KT 8000 FEW016 06/05 Q1021 NOSIG;
0089601010999992006010901004+35733-005900AUTO +0021GMTT V02099999999992200019N9999999N1+00401+00301999999ADDMA1102101999999REMMET062METAR GMTT 090100Z AUTO 00//0KT 8000 FEW016 04/03 Q1021 NOSIG;
0089601010999992006010901304+35733-005900AUTO +0021GMTT V02099999999992200019N9999999N1+00401+00301999999ADDMA1102101999999REMMET062METAR GMTT 090130Z AUTO 00//0KT 8000 FEW016 04/03 Q1021 NOSIG;
0083601010999992006010902004+35733-005900AUTO +0021GMTT V02099999999992200019N9999999N1+00601+00501999999ADDMA1102101999999REMMET056GMTT 090200Z AUTO 00//0KT 8000 FEW016 06/05 Q1021 NOSIG;
0083601010999992006010902304+35733-005900AUTO +0021GMTT V02099999999992200019N9999999N1+00701+00501999999ADDMA1102101999999REMMET056GMTT 090230Z AUTO 00//0KT 8000 FEW016 07/05 Q1021 NOSIG;
0179601010999992006010903004+35733-005900SY-MT+0021GMTT V02099999999992200019N9999999N1+00741+00541102191ADDGA1025+004805999MA1102101999999MD1310041+9999MW1001REMSYN054AAXX  09034 60101 36/// ///// 10074 20054 40219 53004;MET056GMTT 090300Z AUTO 00//0KT 8000 FEW016 07/05 Q1021 NOSIG;
0065601010999992006010903304+35733-005900AUTO +0021GMTT V02099999999992200019N9999999N1+00801+00501999999ADDMA1102201999999REMMET038GMTT 090330Z AUTO 00//0KT 08/05 Q1022;
0065601010999992006010904004+35733-005900AUTO +0021GMTT V02099999999992200019N9999999N1+00701+00501999999ADDMA1102201999999REMMET038GMTT 090400Z AUTO 00//0KT 07/05 Q1022;
0089601010999992006010904304+35733-005900AUTO +0021GMTT V02099999999992200019N9999999N1+00801+00501999999ADDMA1102101999999REMMET062METAR GMTT 090430Z AUTO 00//0KT 8000 FEW016 08/05 Q1021 NOSIG;
0083601010999992006010905004+35733-005900AUTO +0021GMTT V02099999999992200019N9999999N1+00701+00401999999ADDMA1102201999999REMMET056GMTT 090500Z AUTO 00//0KT 8000 FEW016 07/04 Q1022 NOSIG;
0089601010999992006010905304+35733-005900AUTO +0021GMTT V02099999999992200019N9999999N1+00601+00401999999ADDMA1102201999999REMMET062METAR GMTT 090530Z AUTO 00//0KT 8000 FEW016 06/04 Q1022 NOSIG;
0235601010999992006010906004+35733-005900SY-MT+0021GMTT V0200801N003112200019N0080001N1+00591+00371102231ADDGA1025+004801999GF102991021051004501001001KA1120N+00371MA1102201999999MD1310041+9999MW1001REMSYN076AAXX  09064 60101 32458 20806 10059 20037 40223 53004 82500 333 20037 82616;MET051GMTT 090600Z 08006KT 8000 FEW016 06/04 Q1022 NOSIG;
0083601010999992006010906304+35733-005900AUTO +0021GMTT V02099999999992200019N9999999N1+00601+00401999999ADDMA1102201999999REMMET056GMTT 090630Z AUTO 00//0KT 8000 FEW016 06/04 Q1022 NOSIG;
0072601010999992006010907004+35733-005900FM-15+0021GMTT V0201201N00151999999CY0099001N1+00501+00301999999ADDMA1102201999999REMMET045GMTT 090700Z 12003KT CAVOK 05/03 Q1022 NOSIG;
0072601010999992006010907304+35733-005900FM-15+0021GMTT V0201201N00101999999CY0099001N1+00501+00301999999ADDMA1102301999999REMMET045GMTT 090730Z 12002KT CAVOK 05/03 Q1023 NOSIG;
0072601010999992006010908004+35733-005900FM-15+0021GMTT V0200801N00151999999CY0099001N1+00501+00401999999ADDMA1102301999999REMMET045GMTT 090800Z 08003KT CAVOK 05/04 Q1023 NOSIG;
0072601010999992006010908304+35733-005900FM-15+0021GMTT V0201001N00101999999CY0099001N1+00701+00501999999ADDMA1102301999999REMMET045GMTT 090830Z 10002KT CAVOK 07/05 Q1023 NOSIG;
0178601010999992006010909004+35733-005900SY-MT+0021GMTT V0201101N001019999999Y0100001N1+00941+00751102401ADDGF100991001001999999001001MA1102401999999MD1310171+9999MW1001REMSYN054AAXX  09094 60101 32960 01102 10094 20075 40240 53017;MET045GMTT 090900Z 11002KT CAVOK 09/07 Q1024 NOSIG;
0072601010999992006010909304+35733-005900FM-15+0021GMTT V0200901N00311999999CY0099001N1+01201+00801999999ADDMA1102401999999REMMET045GMTT 090930Z 09006KT CAVOK 12/08 Q1024 NOSIG;
0072601010999992006010910004+35733-005900FM-15+0021GMTT V0200901N00311999999CY0099001N1+01301+00901999999ADDMA1102401999999REMMET045GMTT 091000Z 09006KT CAVOK 13/09 Q1024 NOSIG;
0072601010999992006010910304+35733-005900FM-15+0021GMTT V0201001N00461999999CY0099001N1+01401+00801999999ADDMA1102401999999REMMET045GMTT 091030Z 10009KT CAVOK 14/08 Q1024 NOSIG;
0072601010999992006010911004+35733-005900FM-15+0021GMTT V0200901N00671999999CY0099001N1+01501+00801999999ADDMA1102401999999REMMET045GMTT 091100Z 09013KT CAVOK 15/08 Q1024 NOSIG;
0072601010999992006010911304+35733-005900FM-15+0021GMTT V0200901N00721999999CY0099001N1+01601+00701999999ADDMA1102401999999REMMET045GMTT 091130Z 09014KT CAVOK 16/07 Q1024 NOSIG;
0178601010999992006010912004+35733-005900SY-MT+0021GMTT V0200801N008219999999Y0100001N1+01591+00801102431ADDGF100991001001999999001001MA1102401999999MD1010031+9999MW1001REMSYN054AAXX  09124 60101 32960 00816 10159 20080 40243 50003;MET045GMTT 091200Z 08016KT CAVOK 16/08 Q1024 NOSIG;
0072601010999992006010912304+35733-005900FM-15+0021GMTT V0200901N00821999999CY0099001N1+01601+00701999999ADDMA1102301999999REMMET045GMTT 091230Z 09016KT CAVOK 16/07 Q1023 NOSIG;
0072601010999992006010913004+35733-005900FM-15+0021GMTT V0200901N00671999999CY0099001N1+01701+00801999999ADDMA1102301999999REMMET045GMTT 091300Z 09013KT CAVOK 17/08 Q1023 NOSIG;
0072601010999992006010913304+35733-005900FM-15+0021GMTT V0200601N00671999999CY0099001N1+01701+00701999999ADDMA1102201999999REMMET045GMTT 091330Z 06013KT CAVOK 17/07 Q1022 NOSIG;
0072601010999992006010914004+35733-005900FM-15+0021GMTT V0200601N00621999999CY0099001N1+01701+00901999999ADDMA1102201999999REMMET045GMTT 091400Z 06012KT CAVOK 17/09 Q1022 NOSIG;
0077601010999992006010914304+35733-005900AUTO +0021GMTT V02099999999999999999Y0099005N1+01701+00801999999ADDMA1102201999999REMMET050GMTT 091430Z AUTO 00//0KT CAVOK 17/08 Q1022 NOSIG;
0216601010999992006010915004+35733-005900SY-MT+0021GMTT V0200801N006212200019N0150001N1+01661+00851102261ADDGA1025+006001999GF199999011051008001001001MA1102201999999MD1610181+9999MW1001REMSYN070AAXX  09154 60101 32565 10812 10166 20085 40226 56018 81500 333 81620;MET051GMTT 091500Z 08012KT 9999 FEW020 17/08 Q1022 NOSIG;
