0291601010999992002010100004+35730-005890SY-MT+0021GMTT V0200801N011810270019N0080001N1+01851+00651101601ADDAA199000091GA1021+004809999GA2071+027009999GF107991041051004501071999MA1101591999999MD1810111+9999MW1001REMSYN076AAXX  01004 60101 32458 70823 10185 20065 40160 58011 8457/ 333 84616 85459;MET058GMTT 010000Z 08024KT 8000 SCT016 BKN090 19/06 Q1016 NOSIG;EQDQ01+000000PRSWM2Q02  00002PRCP99
0168601010999992002010101004+35730-005890FM-15+0021GMTT V0200901N010810270019N0080001N1+01901+00801999999ADDGA1021+004809999GA2071+027009999GF107991999999999999999999MA1101491999999MW1001REMMET058GMTT 010100Z 09021KT 8000 SCT016 BKN090 19/08 Q1015 NOSIG;EQDQ01+000000PRSWM2
0168601010999992002010102004+35730-005890FM-15+0021GMTT V0200901N011810270019N0080001N1+01901+00801999999ADDGA1021+004809999GA2071+027009999GF107991999999999999999999MA1101491999999MW1001REMMET058GMTT 010200Z 09023KT 8000 SCT016 BKN090 19/08 Q1015 NOSIG;EQDQ01+000000PRSWM2
0302601010999992002010103004+35730-005890SY-MT+0021GMTT V0200901N013410270019N0080001N1+01881+00791101471ADDAA199000091GA1021+004809999GA2071+027009999GF107991031051004501071999MA1101391999999MD1710131+9999MW1001OC101901REMSYN076AAXX  01034 60101 32458 70926 10188 20079 40147 57013 8357/ 333 83616 86459;MET061GMTT 010300Z 09027G37KT 8000 SCT016 BKN090 19/08 Q1014 NOSIG;EQDQ01+000000PRSWM2Q02  00002PRCP99
0179601010999992002010104004+35730-005890FM-15+0021GMTT V0200901N014410270019N0080001N1+01901+00801999999ADDGA1021+004809999GA2071+027009999GF107991999999999999999999MA1101491999999MW1001OC101951REMMET061GMTT 010400Z 09028G38KT 8000 SCT016 BKN090 19/08 Q1015 NOSIG;EQDQ01+000000PRSWM2
0179601010999992002010105004+35730-005890FM-15+0021GMTT V0200901N013410270019N0080001N1+01801+00801999999ADDGA1021+004809999GA2071+027009999GF107991999999999999999999MA1101391999999MW1001OC101951REMMET061GMTT 010500Z 09026G38KT 8000 SCT016 BKN090 18/08 Q1014 NOSIG;EQDQ01+000000PRSWM2
0311601010999992002010106004+35730-005890SY-MT+0021GMTT V0200801N012910270019N0080001N1+01781+00821101471ADDAA124000191GA1021+004809999GA2071+027009999GF107991031051004501071999KA1120N+01711MA1101391999999MD1510011+9999MW1001OC101801REMSYN088AAXX  01064 60101 12458 70825 10178 20082 40147 55001 69924 8357/ 333 20171 83616 86459;MET061GMTT 010600Z 08025G35KT 8000 SCT016 BKN090 18/08 Q1014 NOSIG;EQDQ01+000000PRSWM2
0168601010999992002010107004+35730-005890FM-15+0021GMTT V0200901N014410270019N0080001N1+01701+00901999999ADDGA1021+004809999GA2071+027009999GF107991999999999999999999MA1101491999999MW1001REMMET058GMTT 010700Z 09028KT 8000 SCT016 BKN090 17/09 Q1015 NOSIG;EQDQ01+000000PRSWM2
0160601010999992002010108004+35730-005890FM-15+0021GMTT V0201001N014410270019N0080001N1+01701+01001999999ADDGA1021+004809999GA2071+027009999GF107991999999999999999999MA1101591999999MW1001OC102111REMMET061GMTT 010800Z 10028G41KT 8000 SCT016 BKN090 17/10 Q1016 NOSIG;
0286601010999992002010109004+35730-005890SY-MT+0021GMTT V0200901N013910270019N0080001N1+01701+01041101731ADDAA199000091GA1021+004809999GA2071+027009999GF107991031051004501031021MA1101691999999MD1310261+9999MW1001OC102111REMSYN076AAXX  01094 60101 32458 70927 10170 20104 40173 53026 83532 333 83616 85459;MET061GMTT 010900Z 09030G41KT 8000 SCT016 BKN090 17/10 Q1017 NOSIG;EQDQ01  00002PRCP99
0149601010999992002010110004+35730-005890FM-15+0021GMTT V0200901N014410270019N0080001N1+01701+01201999999ADDGA1021+004809999GA2071+027009999GF107991999999999999999999MA1101801999999MW1001REMMET058GMTT 011000Z 09028KT 8000 SCT016 BKN090 17/12 Q1018 NOSIG;
0149601010999992002010111004+35730-005890FM-15+0021GMTT V0201001N014410270019N0080001N1+01701+01201999999ADDGA1021+004809999GA2071+027009999GF107991999999999999999999MA1101691999999MW1001REMMET058GMTT 011100Z 10028KT 8000 SCT016 BKN090 17/12 Q1017 NOSIG;
0179601010999992002010113004+35730-005890FM-15+0021GMTT V0201001N015410270019N0080001N1+01801+01201999999ADDGA1021+004809999GA2071+027009999GF107991999999999999999999MA1101591999999MW1001OC102111REMMET061GMTT 011300Z 10030G41KT 8000 SCT016 BKN090 18/12 Q1016 NOSIG;EQDQ01+000000PRSWM2
0179601010999992002010114004+35730-005890FM-15+0021GMTT V0200901N014410270019N0080001N1+01701+01201999999ADDGA1021+004809999GA2071+027009999GF107991999999999999999999MA1101591999999MW1001OC101951REMMET061GMTT 011400Z 09028G38KT 8000 SCT016 BKN090 17/12 Q1016 NOSIG;EQDQ01+000000PRSWM2
0275601010999992002010115004+35730-005890SY-MT+0021GMTT V0201001N012910270019N0080001N1+01701+01161101691ADDAA199000091GA1021+004809999GA2071+027009999GF107991031051004501071999MA1101591999999MD1510031+9999MW1001REMSYN076AAXX  01154 60101 32458 71025 10170 20116 40169 55003 8357/ 333 83616 87459;MET058GMTT 011500Z 09025KT 8000 SCT016 BKN090 17/12 Q1016 NOSIG;EQDQ01  00002PRCP99
0149601010999992002010116004+35730-005890FM-15+0021GMTT V0201001N014910270019N0080001N1+01701+01201999999ADDGA1021+004809999GA2071+027009999GF107991999999999999999999MA1101691999999MW1001REMMET058GMTT 011600Z 10029KT 8000 SCT016 BKN090 17/12 Q1017 NOSIG;
0160601010999992002010117004+35730-005890FM-15+0021GMTT V0200901N013410270019N0080001N1+01601+01201999999ADDGA1021+004809999GA2071+027009999GF107991999999999999999999MA1101691999999MW1001OC101901REMMET061GMTT 011700Z 09026G37KT 8000 SCT016 BKN090 16/12 Q1017 NOSIG;
0305601010999992002010118004+35730-005890SY-MT+0021GMTT V0200901N011810048019N0080001N1+01611+01181101871ADDAA199000091GA1071+004809999GA2071+027009999GF107991051051004501081999KA1120M+01831MA1101801999999MD1310181+9999MW1001OC101801REMSYN082AAXX  01184 60101 32458 70923 10161 20118 40187 53018 8558/ 333 10183 85616 87459;MET061GMTT 011800Z 09023G35KT 8000 BKN016 BKN090 16/12 Q1018 NOSIG;EQDQ01  00002PRCP99
0149601010999992002010119004+35730-005890FM-15+0021GMTT V0201001N010310048019N0080001N1+01601+01201999999ADDGA1071+004809999GA2071+027009999GF107991999999999999999999MA1101901999999MW1001REMMET058GMTT 011900Z 10020KT 8000 BKN016 BKN090 16/12 Q1019 NOSIG;
0179601010999992002010120004+35730-005890FM-15+0021GMTT V0200901N012310048019N0080001N1+01601+01201999999ADDGA1071+004809999GA2071+027009999GF107991999999999999999999MA1102001999999MW1001OC101801REMMET061GMTT 012000Z 09024G35KT 8000 BKN016 BKN090 16/12 Q1020 NOSIG;EQDQ01+000000PRSWM2
0174601010999992002010121004+35730-005890FM-12+0021GMTT V0200901N008710048019N0080001N1+01551+01201102101ADDAA199000091GA1051+004809069GF107991051051004501081999MD1310261+9999REMSYN076AAXX  01214 60101 32458 70917 10155 20120 40210 53026 8558/ 333 85616 87359;EQDQ01  00002PRCP99
0168601010999992002010121304+35730-005890FM-15+0021GMTT V0201001N008210048019N0080001N1+01601+01201999999ADDGA1071+004809999GA2071+027009999GF107991999999999999999999MA1102101999999MW1001REMMET058GMTT 012130Z 10016KT 8000 BKN016 BKN090 16/12 Q1021 NOSIG;EQDQ01+000000PRSWM2
0168601010999992002010122004+35730-005890FM-15+0021GMTT V0200801N009810048019N0080001N1+01601+01201999999ADDGA1071+004809999GA2071+027009999GF107991999999999999999999MA1102001999999MW1001REMMET058GMTT 012200Z 08019KT 8000 BKN016 BKN090 16/12 Q1020 NOSIG;EQDQ01+000000PRSWM2
0176601010999992002010123004+35730-005890FM-15+0021GMTT V0200801N010810270019N0080001N1+01501+01201999999ADDGA1021+004809999GA2021+006009999GA3071+027009999GF107991999999999999999999MA1101801999999MW1001REMMET069GMTT 012300Z 08021KT 8000 ?RA FEW016 SCT020 BKN090 15/12 Q1018 NOSIG;
0316601010999992002010200004+35730-005890SY-MT+0021GMTT V0200901N013410270019N0080001N1+01561+01221101831ADDAA106000191GA1021+004809999GA2021+006009999GA3071+027009999GF108991041051004501081999MA1101801999999MD1810191+9999MW1001REMSYN094AAXX  02004 60101 12458 80926 10156 20122 40183 58019 69921 8458/ 92350 333 82616 83620 86359;MET065GMTT 020000Z 09026KT 8000 FEW016 SCT020 BKN090 16/12 Q1018 NOSIG;EQDQ01+000000PRSWM2
0172601010999992002010201004+35730-005890FM-15+0021GMTT V0200901N014910270019N0080001N1+01601+01201999999ADDGA1021+004509999GA2021+006009999GA3071+027009999GF107991999999999999999999MA1101801999999MW1001REMMET065GMTT 020100Z 09029KT 8000 FEW015 SCT020 BKN090 16/12 Q1018 NOSIG;
0172601010999992002010202004+35730-005890FM-15+0021GMTT V0201001N013910270019N0080001N1+01501+01201999999ADDGA1021+004509999GA2021+006009999GA3071+027009999GF107991999999999999999999MA1101801999999MW1001REMMET065GMTT 020200Z 10027KT 8000 FEW015 SCT020 BKN090 15/12 Q1018 NOSIG;
0304601010999992002010203004+35730-005890SY-MT+0021GMTT V0201001N01291027001CN0080001N1+01521+01191101901ADDAA199000091GA1021+004509999GA2021+006009999GA3071+027009999GF108991051051004501081999MA1101901999999MD1210071+9999MW1001REMSYN082AAXX  02034 60101 32458 81025 10152 20119 40190 52007 8558/ 333 82615 84620 85359;MET065GMTT 020300Z 10025KT 8000 FEW015 SCT020 BKN090 15/12 Q1019 NOSIG;EQDQ01  00002PRCP99
0191601010999992002010204004+35730-005890FM-15+0021GMTT V0201001N012310270019N0080001N1+01501+01201999999ADDGA1021+004509999GA2021+006009999GA3071+027009999GF107991999999999999999999MA1101801999999MW1001REMMET065GMTT 020400Z 10024KT 8000 FEW015 SCT020 BKN090 15/12 Q1018 NOSIG;EQDQ01+000000PRSWM2
0191601010999992002010205004+35730-005890FM-15+0021GMTT V0201001N010810270019N0080001N1+01601+01201999999ADDGA1021+004509999GA2021+006009999GA3071+027009999GF107991999999999999999999MA1101901999999MW1001REMMET065GMTT 020500Z 10021KT 8000 FEW015 SCT020 BKN090 16/12 Q1019 NOSIG;EQDQ01+000000PRSWM2
0329601010999992002010206004+35730-005890SY-MT+0021GMTT V0201001N00931027001CN0080001N1+01541+01211101981ADDAA124000191GA1021+004509999GA2021+006009999GA3071+027009999GF108991051051004501081999KA1120N+01511MA1101901999999MD1310081+9999MW1001REMSYN094AAXX  02064 60101 12458 81018 10154 20121 40198 53008 69924 8558/ 333 20151 82615 83620 85359;MET065GMTT 020600Z 10018KT 8000 FEW015 SCT020 BKN090 15/12 Q1019 NOSIG;EQDQ01+000000PRSWM2
0102601010999992002010207004+35730-005890FM-15+0021GMTT V02099999999992200019N9999999N1+99999+99999999999ADDMW1001REMMET065GMTT 020700Z 00//0KT 8000 FEW015 SCT020 BKN090 15/12 Q1019 NOSIG;EQDQ01+000000PRSWM2
0168601010999992002010208004+35730-005890FM-15+0021GMTT V0201001N009312200019N0080001N1+01501+01201999999ADDGA1021+006009999GA2021+027009999GF104991999999999999999999MA1102001999999MW1001REMMET058GMTT 020800Z 10018KT 8000 SCT020 SCT090 15/12 Q1020 NOSIG;EQDQ01+000000PRSWM2
0291601010999992002010209004+35730-005890SY-MT+0021GMTT V0201101N007210060019N0080001N1+01601+01251102111ADDAA199000091GA1071+006009999GA2071+027009999GF107991051051008001081999MA1102101999999MD1310131+9999MW1001REMSYN076AAXX  02094 60101 32558 71114 10160 20125 40211 53013 8558/ 333 85620 85359;MET058GMTT 020900Z 11014KT 8000 BKN020 BKN090 16/12 Q1021 NOSIG;EQDQ01+000000PRSWM2Q02  00002PRCP99
0168601010999992002010210004+35730-005890FM-15+0021GMTT V0201101N008710060019N0080001N1+01701+01301999999ADDGA1071+006009999GA2071+027009999GF107991999999999999999999MA1102101999999MW1001REMMET058GMTT 021000Z 11017KT 8000 BKN020 BKN090 17/13 Q1021 NOSIG;EQDQ01+000000PRSWM2
0168601010999992002010211004+35730-005890FM-15+0021GMTT V0201101N007710060019N0080001N1+01801+01401999999ADDGA1071+006009999GA2071+027009999GF107991999999999999999999MA1102101999999MW1001REMMET058GMTT 021100Z 11015KT 8000 BKN020 BKN090 18/14 Q1021 NOSIG;EQDQ01+000000PRSWM2
0291601010999992002010212004+35730-005890SY-MT+0021GMTT V0201101N008710270019N0080001N1+01931+01321102061ADDAA199000091GA1021+006009999GA2071+027009999GF107991041051008001081999MA1102001999999MD1810041+9999MW1001REMSYN076AAXX  02124 60101 32558 71117 10193 20132 40206 58004 8458/ 333 84620 86359;MET058GMTT 021200Z 11016KT 8000 SCT020 BKN090 19/13 Q1020 NOSIG;EQDQ01+000000PRSWM2Q02  00002PRCP99
0168601010999992002010213304+35730-005890FM-15+0021GMTT V0201201N006210270019N0080001N1+02101+01401999999ADDGA1021+006009999GA2071+027009999GF107991999999999999999999MA1102001999999MW1001REMMET058GMTT 021330Z 12012KT 8000 SCT020 BKN090 21/14 Q1020 NOSIG;EQDQ01+000000PRSWM2
0168601010999992002010214004+35730-005890FM-15+0021GMTT V0201101N003610270019N0080001N1+02001+01301999999ADDGA1021+006009999GA2071+027009999GF107991999999999999999999MA1101901999999MW1001REMMET058GMTT 021400Z 11007KT 8000 SCT020 BKN090 20/13 Q1019 NOSIG;EQDQ01+000000PRSWM2
0291601010999992002010215004+35730-005890SY-MT+0021GMTT V0201101N004110270019N0080001N1+02091+01381101971ADDAA199000091GA1021+006009999GA2071+027009999GF107991041051008001081999MA1101901999999MD1610091+9999MW1001REMSYN076AAXX  02154 60101 32558 71108 10209 20138 40197 56009 8458/ 333 84620 86359;MET058GMTT 021500Z 11008KT 8000 SCT020 BKN090 21/14 Q1019 NOSIG;EQDQ01+000000PRSWM2Q02  00002PRCP99
0168601010999992002010216004+35730-005890FM-15+0021GMTT V0201501N001512200019N0080001N1+02001+01401999999ADDGA1021+006009999GA2021+027009999GF104991999999999999999999MA1102001999999MW1001REMMET058GMTT 021600Z 15003KT 8000 SCT020 SCT090 20/14 Q1020 NOSIG;EQDQ01+000000PRSWM2
0168601010999992002010217004+35730-005890FM-15+0021GMTT V0201001N003612200019N0080001N1+01801+01301999999ADDGA1021+006009999GA2021+027009999GF104991999999999999999999MA1102001999999MW1001REMMET058GMTT 021700Z 10007KT 8000 SCT020 SCT090 18/13 Q1020 NOSIG;EQDQ01+000000PRSWM2
0310601010999992002010218004+35730-005890SY-MT+0021GMTT V0200901N00571036001CN0080001N1+01561+01221102051ADDAA199000091GA1021+006009999GA2021+027009999GF105991031051008001081001KA1120M+02131MA1102001999999MD1310051+9999MW1001REMSYN082AAXX  02184 60101 32558 50911 10156 20122 40205 53005 83580 333 10213 83620 84359;MET058GMTT 021800Z 09011KT 8000 SCT020 SCT090 16/12 Q1020 NOSIG;EQDQ01+000000PRSWM2Q02  00002PRCP99
0168601010999992002010219004+35730-005890FM-15+0021GMTT V0200901N006712200019N0080001N1+01501+01201999999ADDGA1021+006009999GA2021+027009999GF104991999999999999999999MA1102001999999MW1001REMMET058GMTT 021900Z 09013KT 8000 SCT020 SCT090 15/12 Q1020 NOSIG;EQDQ01+000000PRSWM2
0168601010999992002010220004+35730-005890FM-15+0021GMTT V0200801N005712200019N0080001N1+01601+01201999999ADDGA1021+006009999GA2021+027009999GF104991999999999999999999MA1102101999999MW1001REMMET058GMTT 022000Z 08011KT 8000 SCT020 SCT090 16/12 Q1021 NOSIG;EQDQ01+000000PRSWM2
0307601010999992002010221004+35730-005890SY-MT+0021GMTT V0201001N005110048019N0080001N1+01621+01181102131ADDAA199000091GA1071+004809999GA2021+027009999GF199999051051004501031001MA1102101999999MD1210091+9999MW1001REMSYN076AAXX  02214 60101 32458 61010 10162 20118 40213 52009 85530 333 85616 83359;MET058GMTT 022100Z 10010KT 8000 BKN016 SCT090 16/12 Q1021 NOSIG;EQDQ01+000062SCOTCVQ02+000000PRSWM2Q03  00002PRCP99
0158601010999992002010222004+35730-005890FM-15+0021GMTT V0201501N00261220001CN0080001N1+01601+01101999999ADDGA1071+004809999GA2021+027009999MA1102101999999MW1001REMMET058GMTT 022200Z 15005KT 8000 BKN016 SCT090 16/11 Q1021 NOSIG;EQDQ01+000042SCOTCVQ02+000000PRSWM2
0149601010999992002010223004+35730-005890FM-15+0021GMTT V0201501N002110270019N0080001N1+01601+01101999999ADDGA1021+004809999GA2071+027009999GF107991999999999999999999MA1102101999999MW1001REMMET058GMTT 022300Z 15004KT 8000 SCT016 BKN090 16/11 Q1021 NOSIG;
0313601010999992002010300004+35730-005890SY-MT+0021GMTT V0201501N003610270019N0080001N1+01671+01161102131ADDAA199000091GA1021+004809999GA2071+027009999GF199999041051004501081001MA1102101999999MD1010001+9999MW1001REMSYN082AAXX  03004 60101 32458 61507 10167 20116 40213 50000 84580 92350 333 84616 85359;MET058GMTT 030000Z 15006KT 8000 SCT016 BKN090 17/12 Q1021 NOSIG;EQDQ01+000062SCOTCVQ02+000000PRSWM2Q03  00002PRCP99
0149601010999992002010301004+35730-005890FM-15+0021GMTT V0201601N004610270019N0080001N1+01701+01301999999ADDGA1021+004509999GA2071+027009999GF107991999999999999999999MA1102101999999MW1001REMMET058GMTT 030100Z 16009KT 8000 SCT015 BKN090 17/13 Q1021 NOSIG;
0149601010999992002010302004+35730-005890FM-15+0021GMTT V0201601N005110060019N0080001N1+01701+01301999999ADDGA1021+004509999GA2071+006009999GF107991999999999999999999MA1102101999999MW1001REMMET058GMTT 030200Z 16010KT 8000 FEW015 BKN020 17/13 Q1021 NOSIG;
0275601010999992002010303004+35730-005890SY-MT+0021GMTT V0201701N005110060019N0080001N1+01661+01331102101ADDAA199000091GA1021+004509999GA2071+006009999GF199999061081004501001001MA1102101999999MD1610031+9999MW1001REMSYN076AAXX  03034 60101 32458 61710 10166 20133 40210 56003 86800 333 82815 85620;MET058GMTT 030300Z 17010KT 8000 FEW015 BKN020 17/13 Q1021 NOSIG;EQDQ01  00002PRCP99
0168601010999992002010304004+35730-005890FM-15+0021GMTT V0201801N005710060019N0080001N1+01601+01301999999ADDGA1021+004509999GA2071+006009999GF107991999999999999999999MA1102001999999MW1001REMMET058GMTT 030400Z 18011KT 8000 FEW015 BKN020 16/13 Q1020 NOSIG;EQDQ01+000000PRSWM2
0168601010999992002010305004+35730-005890FM-15+0021GMTT V0201801N006210060019N0080001N1+01601+01401999999ADDGA1021+004509999GA2071+006009999GF107991999999999999999999MA1101901999999MW1001REMMET058GMTT 030500Z 18012KT 8000 FEW015 BKN020 16/14 Q1019 NOSIG;EQDQ01+000000PRSWM2
0310601010999992002010306004+35730-005890SY-MT+0021GMTT V0201701N007710060019N0080001N1+01591+01361101931ADDAA199000091GA1021+004509999GA2071+006009999GF107991071081004501999999KA1120N+01501MA1101901999999MD1610171+9999MW1001REMSYN082AAXX  03064 60101 32458 71715 10159 20136 40193 56017 878// 333 20150 82815 87620;MET058GMTT 030600Z 17015KT 8000 FEW015 BKN020 16/14 Q1019 NOSIG;EQDQ01+000000PRSWM2Q02  00002PRCP99
0187601010999992002010307004+35730-005890FM-15+0021GMTT V0201701N008210060019N0060001N1+01601+01401999999ADDGA1021+004509999GA2071+006009999GF107991999999999999999999MA1102001999999MW1631REMMET061GMTT 030700Z 17016KT 6000 RA FEW015 BKN020 16/14 Q1020 NOSIG;EQDQ01+000003PRSWM1Q02    003PRSWM1
0188601010999992002010308004+35730-005890FM-15+0021GMTT V0203201N007210060019N0060001N1+01501+01401999999ADDGA1021+003009999GA2071+006009999GF107991999999999999999999MA1102101999999MW1611REMMET062GMTT 030800Z 32014KT 6000 -RA SCT010 BKN020 15/14 Q1021 NOSIG;EQDQ01+000003PRSWM1Q02    003PRSWM1
0296601010999992002010309004+35730-005890SY-MT+0021GMTT V0203301N005110060019N0060001N1+01551+01331102231ADDAY161031AY221031GA1021+003009999GA2071+006009999GF107991071081004501999999MA1102201999999MD1310201+9999MW1601MW2611REMSYN082AAXX  03094 60101 41456 73310 10155 20133 40223 53020 76062 878// 333 83810 87620;MET062GMTT 030900Z 32010KT 6000 -RA SCT010 BKN020 15/13 Q1022 NOSIG;EQDQ01    003PRSWM1
0167601010999992002010310004+35730-005890FM-15+0021GMTT V0203401N003610060019N0080001N1+01601+01301999999ADDGA1021+003009999GA2071+006009999GF107991999999999999999999MA1102201999999MW1001REMMET057GMTT 031000Z 34007KT 8000 SCT010 BKN020 16/13 Q1022 RERA;EQDQ01+000000PRSWM2
0319601010999992002010312004+35730-005890SY-MT+0021GMTT V0202001N002110060019N0080001N1+01631+01451102261ADDAA106010991AY161061AY221061GA1021+003009999GA2071+006009999GF107991071081004501999999MA1102201999999MD1010051+9999MW1021REMSYN088AAXX  03124 60101 11458 72004 10163 20145 40226 50005 60111 70262 878// 333 83810 87620;MET058GMTT 031200Z 19003KT 8000 SCT010 BKN020 16/15 Q1022 NOSIG;EQDQ01+000000PRSWM2Q02    003PRSWM1
0145601010999992002010313004+35730-005890FM-15+0021GMTT V0202201N003610060019N0080001N1+01601+01401999999ADDGA1071+006009999GF107991999999999999999999MA1102201999999MW1001REMMET051GMTT 031300Z 22007KT 8000 BKN020 16/14 Q1022 NOSIG;EQDQ01+000000PRSWM2
0168601010999992002010314004+35730-005890FM-15+0021GMTT V0202501N005110048019N0080001N1+01601+01301999999ADDGA1021+003009999GA2071+004809999GF107991999999999999999999MA1102201999999MW1001REMMET058GMTT 031400Z 25010KT 8000 FEW010 BKN016 16/13 Q1022 NOSIG;EQDQ01+000000PRSWM2
0168601010999992002010316004+35730-005890FM-15+0021GMTT V0203001N004610048019N0112651N1+01801+01201999999ADDGA1021+003009999GA2071+004809999GF107991999999999999999999MA1102201999999MW1001REMMET058GMTT 031600Z 30009KT 9999 FEW010 BKN016 18/12 Q1022 NOSIG;EQDQ01+000000PRSWM2
0168601010999992002010317004+35730-005890FM-15+0021GMTT V0202801N003610048019N0112651N1+01601+01201999999ADDGA1021+003009999GA2071+004809999GF107991999999999999999999MA1102201999999MW1001REMMET058GMTT 031700Z 28007KT 9999 FEW010 BKN016 16/12 Q1022 NOSIG;EQDQ01+000000PRSWM2
0323601010999992002010318004+35730-005890SY-MT+0021GMTT V0202801N006210048019N0100001N1+01331+01021102291ADDAA112010991AY161061AY221061GA1021+003009069GA2051+004809029GF106991061021004501001001KA1120M+01801MD1310091+9999MW1031REMSYN094AAXX  03184 60101 11460 62812 10133 20102 40229 53009 60112 70362 86200 333 10180 82710 85816;MET058GMTT 031800Z 00//0KT 9999 FEW010 BKN016 13/10 Q1022 NOSIG;EQDQ01+000000PRSWM2Q02    003PRSWM1
0168601010999992002010319004+35730-005890FM-15+0021GMTT V0202701N004110048019N0112651N1+01301+01001999999ADDGA1021+003009999GA2071+004809999GF107991999999999999999999MA1102301999999MW1001REMMET058GMTT 031900Z 27008KT 9999 FEW010 BKN016 13/10 Q1023 NOSIG;EQDQ01+000000PRSWM2
0168601010999992002010320004+35730-005890FM-15+0021GMTT V0202801N004612200019N0112651N1+01101+00901999999ADDGA1021+003009999GA2021+004809999GF104991999999999999999999MA1102301999999MW1001REMMET058GMTT 032000Z 28009KT 9999 FEW010 SCT016 11/09 Q1023 NOSIG;EQDQ01+000000PRSWM2
0275601010999992002010321004+35730-005890SY-MT+0021GMTT V0202701N003612200019N0100001N1+01111+00921102381ADDAA199000021GA1021+003009999GA2021+004809999GF104991041021004501001001MA1102301999999MD1110091+9999MW1001REMSYN076AAXX  03214 60101 32460 42707 10111 20092 40238 51009 84200 333 82710 83816;MET058GMTT 032100Z 27007KT 9999 FEW010 SCT016 11/09 Q1023 NOSIG;EQDQ01+000000PRSWM2
0168601010999992002010322004+35730-005890FM-15+0021GMTT V0203001N003612200019N0112651N1+01101+00901999999ADDGA1021+003009999GA2021+004809999GF104991999999999999999999MA1102401999999MW1001REMMET058GMTT 032200Z 30007KT 9999 FEW010 SCT016 11/09 Q1024 NOSIG;EQDQ01+000000PRSWM2
0145601010999992002010323004+35730-005890FM-15+0021GMTT V0202901N002612200019N0112651N1+01001+00901999999ADDGA1021+004809999GF104991999999999999999999MA1102301999999MW1001REMMET051GMTT 032300Z 29005KT 9999 SCT016 10/09 Q1023 NOSIG;EQDQ01+000000PRSWM2
0268601010999992002010400004+35730-005890SY-MT+0021GMTT V0200901N003112200019N0100001N1+01021+00871102291ADDAA199000091GA1021+004809999GF103991031051004501001001MA1102201999999MD1810021+9999MW1001REMSYN076AAXX  04004 60101 32460 30906 10102 20087 40229 58002 83500 92350 333 83616;MET051GMTT 040000Z 09006KT 9999 SCT016 10/09 Q1022 NOSIG;EQDQ01+000000PRSWM2Q02  00002PRCP99
0145601010999992002010401004+35730-005890FM-15+0021GMTT V0200901N003612200019N0112651N1+01001+00801999999ADDGA1021+004809999GF104991999999999999999999MA1102201999999MW1001REMMET051GMTT 040100Z 09007KT 9999 SCT016 10/08 Q1022 NOSIG;EQDQ01+000000PRSWM2
0145601010999992002010402004+35730-005890FM-15+0021GMTT V0201001N003112200019N0112651N1+00901+00801999999ADDGA1021+004809999GF104991999999999999999999MA1102201999999MW1001REMMET051GMTT 040200Z 10006KT 9999 SCT016 09/08 Q1022 NOSIG;EQDQ01+000000PRSWM2
0262601010999992002010403004+35730-005890SY-MT+0021GMTT V0200901N002612200019N0100001N1+00901+00771102251ADDAA199000091GA1021+004809999GF103991031051004501001001MA1102201999999MD1510081+9999MW1001REMSYN070AAXX  04034 60101 32460 30905 10090 20077 40225 55008 83500 333 83616;MET051GMTT 040300Z 09005KT 9999 SCT016 09/08 Q1022 NOSIG;EQDQ01+000000PRSWM2Q02  00002PRCP99
0145601010999992002010404004+35730-005890FM-15+0021GMTT V0201001N003612200019N0112651N1+00901+00701999999ADDGA1021+004809999GF102991999999999999999999MA1102201999999MW1001REMMET051GMTT 040400Z 10007KT 9999 FEW016 09/07 Q1022 NOSIG;EQDQ01+000000PRSWM2
0145601010999992002010405004+35730-005890FM-15+0021GMTT V0201101N003112200019N0112651N1+00901+00701999999ADDGA1021+004809999GF102991999999999999999999MA1102201999999MW1001REMMET051GMTT 040500Z 11006KT 9999 FEW016 09/07 Q1022 NOSIG;EQDQ01+000000PRSWM2
0271601010999992002010406004+35730-005890SY-MT+0021GMTT V0200901N004112200019N0100001N1+00901+00791102271ADDAA124010991GA1021+004809999GF102991021051004501001001KA1120N+00821MA1102201999999MD1310021+9999MW1001REMSYN082AAXX  04064 60101 12460 20908 10090 20079 40227 53002 60114 82500 333 20082 82616;MET051GMTT 040600Z 09007KT 9999 FEW016 09/08 Q1022 NOSIG;EQDQ01+000000PRSWM2
0145601010999992002010407004+35730-005890FM-15+0021GMTT V0201001N003612200019N0112651N1+00901+00801999999ADDGA1021+004809999GF102991999999999999999999MA1102201999999MW1001REMMET051GMTT 040700Z 10007KT 9999 FEW016 09/08 Q1022 NOSIG;EQDQ01+000000PRSWM2
0145601010999992002010408004+35730-005890FM-15+0021GMTT V0200901N004612200019N0112651N1+01001+00801999999ADDGA1021+004809999GF102991999999999999999999MA1102301999999MW1001REMMET051GMTT 040800Z 09009KT 9999 FEW016 10/08 Q1023 NOSIG;EQDQ01+000000PRSWM2
0262601010999992002010409004+35730-005890SY-MT+0021GMTT V0201001N003112200019N0150001N1+01191+00961102361ADDAA199000091GA1021+004809999GF102991021051004501001001MA1102301999999MD1310091+9999MW1001REMSYN070AAXX  04094 60101 32465 21006 10119 20096 40236 53009 82500 333 82616;MET051GMTT 040900Z 10006KT 9999 FEW016 12/10 Q1023 NOSIG;EQDQ01+000000PRSWM2Q02  00002PRCP99
0145601010999992002010410004+35730-005890FM-15+0021GMTT V0201001N003112200019N0112651N1+01401+01001999999ADDGA1021+004809999GF102991999999999999999999MA1102301999999MW1001REMMET051GMTT 041000Z 10006KT 9999 FEW016 14/10 Q1023 NOSIG;EQDQ01+000000PRSWM2
0145601010999992002010411004+35730-005890FM-15+0021GMTT V0200801N001012200019N0112651N1+01701+01101999999ADDGA1021+004809999GF102991999999999999999999MA1102401999999MW1001REMMET051GMTT 041100Z 08002KT 9999 FEW016 17/11 Q1024 NOSIG;EQDQ01+000000PRSWM2
0270601010999992002010412004+35730-005890SY-MT+0021GMTT V0203201N002112200019N0150001N1+01841+01181102311ADDAA199000091GA1021+004809999GF102991021021004501001001MA1102301999999MD1810051+9999MW1001REMSYN070AAXX  04124 60101 32465 23204 10184 20118 40231 58005 82200 333 82816;MET059GMTT 041200Z 32004KT 280V340 9999 FEW016 18/12 Q1023 NOSIG;EQDQ01+000000PRSWM2Q02  00002PRCP99
0145601010999992002010413004+35730-005890FM-15+0021GMTT V0203401N003612200019N0112651N1+01801+01001999999ADDGA1021+004809999GF104991999999999999999999MA1102201999999MW1001REMMET051GMTT 041300Z 34007KT 9999 SCT016 18/10 Q1022 NOSIG;EQDQ01+000000PRSWM2
0145601010999992002010414004+35730-005890FM-15+0021GMTT V0203501N005712200019N0112651N1+01801+01001999999ADDGA1021+004809999GF104991999999999999999999MA1102101999999MW1001REMMET051GMTT 041400Z 35011KT 9999 SCT016 18/10 Q1021 NOSIG;EQDQ01+000000PRSWM2
0270601010999992002010415004+35730-005890SY-MT+0021GMTT V0200101N004112200019N0150001N1+01751+01011102131ADDAA199000091GA1021+004809999GF102991021021004501001001MA1102101999999MD1610181+9999MW1001REMSYN070AAXX  04154 60101 32465 20108 10175 20101 40213 56018 82200 333 83816;MET059GMTT 041500Z 01008KT 340V040 9999 SCT016 18/10 Q1021 NOSIG;EQDQ01+000000PRSWM2Q02  00002PRCP99
0145601010999992002010416004+35730-005890FM-15+0021GMTT V0200401N004612200019N0112651N1+01701+01101999999ADDGA1021+004809999GF102991999999999999999999MA1102101999999MW1001REMMET051GMTT 041600Z 04009KT 9999 FEW016 17/11 Q1021 NOSIG;EQDQ01+000000PRSWM2
0168601010999992002010417004+35730-005890FM-15+0021GMTT V0200401N004112200019N0112651N1+01501+01001999999ADDGA1021+004809999GA2021+069009999GF104991999999999999999999MA1102101999999MW1001REMMET058GMTT 041700Z 04008KT 9999 FEW016 SCT233 15/10 Q1021 NOSIG;EQDQ01+000000PRSWM2
0275601010999992002010418004+35730-005890SY-MT+0021GMTT V0200801N005112200019N0150001N1+01431+00781102101ADDAA199000091GA1041+069009019GF104991001001999999001021KA1120M+01861MA1102101999999MD1810031+9999MW1001REMSYN076AAXX  04184 60101 32965 40810 10143 20078 40210 58003 80002 333 10186 84073;MET045GMTT 041800Z 08010KT CAVOK 14/08 Q1021 NOSIG;EQDQ01+000000PRSWM2Q02  00002PRCP99
0097601010999992002010419004+35730-005890FM-15+0021GMTT V0200901N00511220001CN0099001N1+01301+00801999999ADDMA1102101999999MW1001REMMET045GMTT 041900Z 09010KT CAVOK 13/08 Q1021 NOSIG;EQDQ01+000000PRSWM2
0097601010999992002010420004+35730-005890FM-15+0021GMTT V0200901N00461220001CN0099001N1+01301+00901999999ADDMA1102101999999MW1001REMMET045GMTT 042000Z 09009KT CAVOK 13/09 Q1021 NOSIG;EQDQ01+000000PRSWM2
0256601010999992002010421004+35730-005890SY-MT+0021GMTT V0200901N006710690019N0100001N1+01211+00861102161ADDAA199000091GA1061+069009019GF106991001001999999001021MA1102101999999MD1110061+9999MW1001REMSYN070AAXX  04214 60101 32960 60913 10121 20086 40216 51006 80002 333 86073;MET045GMTT 042100Z 09013KT CAVOK 12/09 Q1021 NOSIG;EQDQ01+000000PRSWM2Q02  00002PRCP99
0097601010999992002010422004+35730-005890FM-15+0021GMTT V0200801N00771220001CN0099001N1+01301+00901999999ADDMA1102101999999MW1001REMMET045GMTT 042200Z 08015KT CAVOK 13/09 Q1021 NOSIG;EQDQ01+000000PRSWM2
0097601010999992002010423004+35730-005890FM-15+0021GMTT V0201001N00671220001CN0099001N1+01401+00801999999ADDMA1102101999999MW1001REMMET045GMTT 042300Z 10013KT CAVOK 14/08 Q1021 NOSIG;EQDQ01+000000PRSWM2
0256601010999992002010500004+35730-005890SY-MT+0021GMTT V0200801N007212200019N0100001N1+01331+00871102101ADDAA199000091GA1021+069009019GF102991001001999999001021MA1102101999999MD1710061+9999MW1001REMSYN070AAXX  05004 60101 32960 20814 10133 20087 40210 57006 80002 333 82073;MET045GMTT 050000Z 08014KT CAVOK 13/09 Q1021 NOSIG;EQDQ01+000000PRSWM2Q02  00002PRCP99
0097601010999992002010501004+35730-005890FM-15+0021GMTT V0200901N00771220001CN0099001N1+01301+00901999999ADDMA1102001999999MW1001REMMET045GMTT 050100Z 09015KT CAVOK 13/09 Q1020 NOSIG;EQDQ01+000000PRSWM2
0097601010999992002010502004+35730-005890FM-15+0021GMTT V0201001N00771220001CN0099001N1+01401+00901999999ADDMA1102001999999MW1001REMMET045GMTT 050200Z 10015KT CAVOK 14/09 Q1020 NOSIG;EQDQ01+000000PRSWM2
0224601010999992002010503004+35730-005890SY-MT+0021GMTT V0201001N009312200019N0100001N1+01341+00771102081ADDAA199000091GF100991001001999999001001MA1102001999999MD1610061+9999MW1001REMSYN054AAXX  05034 60101 32960 01018 10134 20077 40208 56006;MET045GMTT 050300Z 10018KT CAVOK 14/08 Q1020 NOSIG;EQDQ01+000000PRSWM2Q02  00002PRCP99
0106601010999992002010504004+35730-005890FM-15+0021GMTT V02099999999999999999N9999999N1+99999+99999999999ADDKA1999M+00181MW1001REMMET056METAR GMTT 050400Z AUTO 10018KT CAVOK 14/08 Q1020 NOSIG;EQDQ01+000000PRSWM2
0106601010999992002010505004+35730-005890FM-15+0021GMTT V02099999999999999999N9999999N1+99999+99999999999ADDKA1999M-00201MW1001REMMET056METAR GMTT 050500Z AUTO 11020KT CAVOK 14/08 Q1020 NOSIG;EQDQ01+000000PRSWM2
0247601010999992002010506004+35730-005890SY-MT+0021GMTT V0201001N010312200019N0100001N1+01381+00831102051ADDAA199000091GF100991001001999999001001KA1999N+01211MA1102001999999MD1510031+9999MW1001REMSYN064AAXX  05064 60101 32960 01020 10138 20083 40205 55003 333 20121;MET045GMTT 050600Z 10021KT CAVOK 14/08 Q1020 NOSIG;EQDQ01+000000PRSWM2Q02  00002PRCP99
0097601010999992002010507004+35730-005890FM-15+0021GMTT V0201001N01231220001CN0099001N1+01401+00901999999ADDMA1102001999999MW1001REMMET045GMTT 050700Z 10024KT CAVOK 14/09 Q1020 NOSIG;EQDQ01+000000PRSWM2
0097601010999992002010508004+35730-005890FM-15+0021GMTT V0201001N01131220001CN0099001N1+01401+00901999999ADDMA1102101999999MW1001REMMET045GMTT 050800Z 10022KT CAVOK 14/09 Q1021 NOSIG;EQDQ01+000000PRSWM2
0318601010999992002010509004+35730-005890SY-MT+0021GMTT V0201101N013410600019N0150001N1+01501+00891102161ADDAA199000091GA1021+003909999GA2071+060009999GF199999031021004501001021MA1102101999999MD1210111+9999MW1001OC101851REMSYN076AAXX  05094 60101 32465 51126 10150 20089 40216 52011 83202 333 83813 85070;MET061GMTT 050900Z 11026G36KT 9999 SCT013 BKN200 15/09 Q1021 NOSIG;EQDQ01+000052SCOTCVQ02+000000PRSWM2Q03  00002PRCP99
0168601010999992002010510004+35730-005890FM-15+0021GMTT V0201001N011810600019N0112651N1+01601+01001999999ADDGA1021+003909999GA2071+060009999GF107991999999999999999999MA1102301999999MW1001REMMET058GMTT 051000Z 10023KT 9999 SCT013 BKN200 16/10 Q1023 NOSIG;EQDQ01+000000PRSWM2
0168601010999992002010511004+35730-005890FM-15+0021GMTT V0201101N013410600019N0112651N1+01601+01101999999ADDGA1021+003909999GA2071+060009999GF107991999999999999999999MA1102301999999MW1001REMMET058GMTT 051100Z 11026KT 9999 SCT013 BKN200 16/11 Q1023 NOSIG;EQDQ01+000000PRSWM2
0291601010999992002010512004+35730-005890SY-MT+0021GMTT V0201001N013910600019N0150001N1+01671+01091102261ADDAA199000091GA1021+003909999GA2071+060009999GF107991031021004501001021MA1102201999999MD1010111+9999MW1001REMSYN076AAXX  05124 60101 32465 71027 10167 20109 40226 50011 83202 333 83813 87070;MET058GMTT 051200Z 10027KT 9999 SCT013 BKN200 17/11 Q1022 NOSIG;EQDQ01+000000PRSWM2Q02  00002PRCP99
0179601010999992002010513004+35730-005890FM-15+0021GMTT V0200901N015410600019N0112651N1+01701+01101999999ADDGA1021+003909999GA2071+060009999GF107991999999999999999999MA1102101999999MW1001OC102061REMMET061GMTT 051300Z 09030G40KT 9999 SCT013 BKN200 17/11 Q1021 NOSIG;EQDQ01+000000PRSWM2
0179601010999992002010514004+35730-005890FM-15+0021GMTT V0200901N016510600019N0112651N1+01801+01001999999ADDGA1021+003909999GA2071+060009999GF107991999999999999999999MA1102101999999MW1001OC102311REMMET061GMTT 051400Z 09032G45KT 9999 SCT013 BKN200 18/10 Q1021 NOSIG;EQDQ01+000000PRSWM2
0302601010999992002010515004+35730-005890SY-MT+0021GMTT V0201001N013910600019N0150001N1+01691+00921102161ADDAA199000091GA1021+003909999GA2071+060009999GF107991031021004501001021MA1102101999999MD1510111+9999MW1001OC102061REMSYN076AAXX  05154 60101 32465 71027 10169 20092 40216 55011 83202 333 83813 86070;MET061GMTT 051500Z 10028G40KT 9999 SCT013 BKN200 17/09 Q1021 NOSIG;EQDQ01+000000PRSWM2Q02  00002PRCP99
0179601010999992002010516004+35730-005890FM-15+0021GMTT V0200901N015910600019N0112651N1+01601+01001999999ADDGA1021+003909999GA2071+060009999GF107991999999999999999999MA1102101999999MW1001OC102111REMMET061GMTT 051600Z 09031G41KT 9999 SCT013 BKN200 16/10 Q1021 NOSIG;EQDQ01+000000PRSWM2
0179601010999992002010517004+35730-005890FM-15+0021GMTT V0201001N015410600019N0112651N1+01501+00901999999ADDGA1021+003909999GA2071+060009999GF107991999999999999999999MA1102201999999MW1001OC102111REMMET061GMTT 051700Z 10030G41KT 9999 SCT013 BKN200 15/09 Q1022 NOSIG;EQDQ01+000000PRSWM2
0310601010999992002010518004+35730-005890SY-MT+0021GMTT V0201001N011810600019N0150001N1+01481+00941102251ADDAA199000091GA1021+003909999GA2071+060009999GF107991031021004501001021KA1120M+01781MA1102201999999MD1210091+9999MW1001REMSYN082AAXX  05184 60101 32465 71023 10148 20094 40225 52009 83202 333 10178 83813 86070;MET058GMTT 051800Z 10023KT 9999 SCT013 BKN200 15/09 Q1022 NOSIG;EQDQ01+000000PRSWM2Q02  00002PRCP99
0168601010999992002010519004+35730-005890FM-15+0021GMTT V0200901N012910600019N0112651N1+01501+00901999999ADDGA1021+003909999GA2071+060009999GF107991999999999999999999MA1102301999999MW1001REMMET058GMTT 051900Z 09025KT 9999 SCT013 BKN200 15/09 Q1023 NOSIG;EQDQ01+000000PRSWM2
0168601010999992002010520004+35730-005890FM-15+0021GMTT V0201001N013910600019N0112651N1+01501+01001999999ADDGA1021+003909999GA2071+060009999GF107991999999999999999999MA1102301999999MW1001REMMET058GMTT 052000Z 10027KT 9999 SCT013 BKN200 15/10 Q1023 NOSIG;EQDQ01+000000PRSWM2
0291601010999992002010521004+35730-005890SY-MT+0021GMTT V0200901N01291090001CN0150001N1+01471+00981102381ADDAA199000091GA1021+003909999GA2021+060009999GF105991021021004501001021MA1102301999999MD1210131+9999MW1001REMSYN076AAXX  05214 60101 32465 50925 10147 20098 40238 52013 82202 333 82813 84070;MET058GMTT 052100Z 09025KT 9999 FEW013 SCT200 15/10 Q1023 NOSIG;EQDQ01+000000PRSWM2Q02  00002PRCP99
0179601010999992002010522004+35730-005890FM-15+0021GMTT V0200901N013912200019N0112651N1+01501+01001999999ADDGA1021+003909999GA2021+060009999GF104991999999999999999999MA1102401999999MW1001OC101901REMMET061GMTT 052200Z 09027G37KT 9999 FEW013 SCT200 15/10 Q1024 NOSIG;EQDQ01+000000PRSWM2
0179601010999992002010523004+35730-005890FM-15+0021GMTT V0200901N013412200019N0112651N1+01401+01001999999ADDGA1021+003909999GA2021+060009999GF104991999999999999999999MA1102401999999MW1001OC101851REMMET061GMTT 052300Z 09026G36KT 9999 FEW013 SCT200 14/10 Q1024 NOSIG;EQDQ01+000000PRSWM2
0291601010999992002010600004+35730-005890SY-MT+0021GMTT V0200901N01341090001CN0150001N1+01411+00961102341ADDAA199000091GA1021+003909999GA2021+060009999GF105991021021004501001021MA1102301999999MD1510041+9999MW1001REMSYN076AAXX  06004 60101 32465 50926 10141 20096 40234 55004 82202 333 82813 84070;MET058GMTT 060000Z 09026KT 9999 FEW013 SCT200 14/10 Q1023 NOSIG;EQDQ01+000000PRSWM2Q02  00002PRCP99
0179601010999992002010601004+35730-005890FM-15+0021GMTT V0200901N011812200019N0112651N1+01401+01001999999ADDGA1021+003909999GA2021+060009999GF104991999999999999999999MA1102201999999MW1001OC101701REMMET061GMTT 060100Z 09023G33KT 9999 FEW013 SCT200 14/10 Q1022 NOSIG;EQDQ01+000000PRSWM2
0168601010999992002010602004+35730-005890FM-15+0021GMTT V0200901N011812200019N0112651N1+01401+01001999999ADDGA1021+003909999GA2021+060009999GF104991999999999999999999MA1102201999999MW1001REMMET058GMTT 060200Z 09023KT 9999 FEW013 SCT200 14/10 Q1022 NOSIG;EQDQ01+000000PRSWM2
0291601010999992002010603004+35730-005890SY-MT+0021GMTT V0200901N011312200019N0100001N1+01381+00971102281ADDAA199000091GA1021+003909999GA2021+060009999GF103991011021004501001021MA1102201999999MD1610061+9999MW1001REMSYN076AAXX  06034 60101 32460 30922 10138 20097 40228 56006 81202 333 81813 83070;MET058GMTT 060300Z 09022KT 9999 FEW013 SCT200 14/10 Q1022 NOSIG;EQDQ01+000000PRSWM2Q02  00002PRCP99
0168601010999992002010604004+35730-005890FM-15+0021GMTT V0200901N013412200019N0112651N1+01401+01001999999ADDGA1021+003909999GA2021+060009999GF104991999999999999999999MA1102201999999MW1001REMMET058GMTT 060400Z 09026KT 9999 FEW013 SCT200 14/10 Q1022 NOSIG;EQDQ01+000000PRSWM2
0168601010999992002010605004+35730-005890FM-15+0021GMTT V0200901N012312200019N0112651N1+01401+01001999999ADDGA1021+003909999GA2021+060009999GF104991999999999999999999MA1102201999999MW1001REMMET058GMTT 060500Z 09024KT 9999 FEW013 SCT200 14/10 Q1022 NOSIG;EQDQ01+000000PRSWM2
0310601010999992002010606004+35730-005890SY-MT+0021GMTT V0200901N01291090001CN0100001N1+01411+00961102231ADDAA199000091GA1021+004809999GA2021+060009999GF105991021021004501001021KA1120N+01381MA1102201999999MD1510051+9999MW1001REMSYN082AAXX  06064 60101 33460 50925 10141 20096 40223 55005 82202 333 20138 82816 84070;MET058GMTT 060600Z 09025KT 9999 FEW016 SCT200 14/10 Q1022 NOSIG;EQDQ01+000000PRSWM2Q02  00002PRCP99
0168601010999992002010607004+35730-005890FM-15+0021GMTT V0200901N012310600019N0112651N1+01401+00901999999ADDGA1021+004809999GA2071+060009999GF107991999999999999999999MA1102201999999MW1001REMMET058GMTT 060700Z 09024KT 9999 FEW016 BKN200 14/09 Q1022 NOSIG;EQDQ01+000000PRSWM2
0179601010999992002010608004+35730-005890FM-15+0021GMTT V0200901N014910600019N0112651N1+01401+01001999999ADDGA1021+004809999GA2071+060009999GF107991999999999999999999MA1102201999999MW1001OC102211REMMET061GMTT 060800Z 09029G43KT 9999 SCT016 BKN200 14/10 Q1022 NOSIG;EQDQ01+000000PRSWM2
0302601010999992002010609004+35730-005890SY-MT+0021GMTT V0200901N014910600019N0100001N1+01471+00951102291ADDAA199000091GA1021+004809999GA2071+060009999GF107991031021004501001021MA1102201999999MD1310061+9999MW1001OC102061REMSYN076AAXX  06094 60101 32460 70929 10147 20095 40229 53006 83202 333 83816 86070;MET061GMTT 060900Z 09030G40KT 9999 SCT016 BKN200 15/10 Q1022 NOSIG;EQDQ01+000000PRSWM2Q02  00002PRCP99
0179601010999992002010610004+35730-005890FM-15+0021GMTT V0200901N015410600019N0112651N1+01501+01001999999ADDGA1021+004809999GA2071+060009999GF107991999999999999999999MA1102301999999MW1001OC102061REMMET061GMTT 061000Z 09030G40KT 9999 SCT016 BKN200 15/10 Q1023 NOSIG;EQDQ01+000000PRSWM2
0179601010999992002010611004+35730-005890FM-15+0021GMTT V0200901N015910600019N0112651N1+01601+01001999999ADDGA1021+004809999GA2071+060009999GF107991999999999999999999MA1102301999999MW1001OC102111REMMET061GMTT 061100Z 09031G41KT 9999 SCT016 BKN200 16/10 Q1023 NOSIG;EQDQ01+000000PRSWM2
0302601010999992002010612004+35730-005890SY-MT+0021GMTT V0200901N017010600019N0100001N1+01601+01021102221ADDAA199000091GA1021+004809999GA2071+060009999GF107991031021004501001021MA1102201999999MD1810071+9999MW1001OC102211REMSYN076AAXX  06124 60101 32460 70933 10160 20102 40222 58007 83202 333 83816 86070;MET061GMTT 061200Z 09033G43KT 9999 SCT016 BKN200 16/10 Q1022 NOSIG;EQDQ01+000000PRSWM2Q02  00002PRCP99
0179601010999992002010613004+35730-005890FM-15+0021GMTT V0200901N017510600019N0112651N1+01601+01001999999ADDGA1021+004809999GA2071+060009999GF107991999999999999999999MA1102101999999MW1001OC102261REMMET061GMTT 061300Z 09034G44KT 9999 SCT016 BKN200 16/10 Q1021 NOSIG;EQDQ01+000000PRSWM2
0179601010999992002010614004+35730-005890FM-15+0021GMTT V0201001N015910600019N0112651N1+01601+01001999999ADDGA1021+004809999GA2071+060009999GF107991999999999999999999MA1102001999999MW1001OC102111REMMET061GMTT 061400Z 10031G41KT 9999 SCT016 BKN200 16/10 Q1020 NOSIG;EQDQ01+000000PRSWM2
0302601010999992002010615004+35730-005890SY-MT+0021GMTT V0200901N016410600019N0100001N1+01551+00831102051ADDAA199000091GA1021+004809999GA2071+060009999GF107991021021004501001021MA1102001999999MD1610171+9999MW1001OC102211REMSYN076AAXX  06154 60101 32460 70932 10155 20083 40205 56017 82202 333 82816 87070;MET061GMTT 061500Z 09032G43KT 9999 FEW016 BKN200 16/09 Q1020 NOSIG;EQDQ01+000000PRSWM2Q02  00002PRCP99
0179601010999992002010616004+35730-005890FM-15+0021GMTT V0200901N015910600019N0112651N1+01501+00901999999ADDGA1021+004809999GA2071+060009999GF107991999999999999999999MA1102001999999MW1001OC102211REMMET061GMTT 061600Z 09031G43KT 9999 FEW016 BKN200 15/09 Q1020 NOSIG;EQDQ01+000000PRSWM2
0179601010999992002010617004+35730-005890FM-15+0021GMTT V0201001N014910600019N0112651N1+01501+00801999999ADDGA1021+004809999GA2071+060009999GF107991999999999999999999MA1102001999999MW1001OC102161REMMET061GMTT 061700Z 10029G42KT 9999 FEW016 BKN200 15/08 Q1020 NOSIG;EQDQ01+000000PRSWM2
0310601010999992002010618004+35730-005890SY-MT+0021GMTT V0200901N013910600019N0100001N1+01411+00821102021ADDAA199000091GA1021+004809999GA2071+060009999GF107991021021004501001021KA1120M+01641MA1102001999999MD1810031+9999MW1001REMSYN082AAXX  06184 60101 32460 70927 10141 20082 40202 58003 82202 333 10164 82816 87070;MET058GMTT 061800Z 09027KT 9999 FEW016 BKN200 14/08 Q1020 NOSIG;EQDQ01+000000PRSWM2Q02  00002PRCP99
0168601010999992002010619004+35730-005890FM-15+0021GMTT V0200901N013410600019N0112651N1+01401+00801999999ADDGA1021+004809999GA2071+060009999GF107991999999999999999999MA1102001999999MW1001REMMET058GMTT 061900Z 09026KT 9999 FEW016 BKN200 14/08 Q1020 NOSIG;EQDQ01+000000PRSWM2
0168601010999992002010620004+35730-005890FM-15+0021GMTT V0200901N012910600019N0112651N1+01401+00801999999ADDGA1021+004809999GA2071+060009999GF107991999999999999999999MA1102001999999MW1001REMMET058GMTT 062000Z 09025KT 9999 FEW016 BKN200 14/08 Q1020 NOSIG;EQDQ01+000000PRSWM2
0273601010999992002010621004+35730-005890SY-MT+0021GMTT V0200901N013412200019N0100001N1+01381+00781102031ADDAA199000091GA1021+004809999GF102991021021004501001001MA1102001999999MD1010021+9999MW1001OC102061REMSYN070AAXX  06214 60101 32460 20926 10138 20078 40203 50002 82200 333 82816;MET054GMTT 062100Z 09028G40KT 9999 FEW016 14/08 Q1020 NOSIG;EQDQ01+000000PRSWM2Q02  00002PRCP99
0156601010999992002010622004+35730-005890FM-15+0021GMTT V0200901N015412200019N0112651N1+01401+00801999999ADDGA1021+004809999GF102991999999999999999999MA1102001999999MW1001OC102061REMMET054GMTT 062200Z 09030G40KT 9999 FEW016 14/08 Q1020 NOSIG;EQDQ01+000000PRSWM2
0156601010999992002010623004+35730-005890FM-15+0021GMTT V0201001N012912200019N0112651N1+01401+00801999999ADDGA1021+004809999GF102991999999999999999999MA1102001999999MW1001OC101801REMMET054GMTT 062300Z 10025G35KT 9999 FEW016 14/08 Q1020 NOSIG;EQDQ01+000000PRSWM2
0273601010999992002010700004+35730-005890SY-MT+0021GMTT V0200901N012912200019N0100001N1+01351+00821101971ADDAA199000091GA1021+004809999GF102991021021004501001001MA1101901999999MD1810071+9999MW1001OC101751REMSYN070AAXX  07004 60101 32460 20925 10135 20082 40197 58007 82200 333 82816;MET054GMTT 070000Z 09024G34KT 9999 FEW016 14/08 Q1019 NOSIG;EQDQ01+000000PRSWM2Q02  00002PRCP99
0156601010999992002010701004+35730-005890FM-15+0021GMTT V0200901N013412200019N0112651N1+01401+00801999999ADDGA1021+004809999GF102991999999999999999999MA1101801999999MW1001OC101851REMMET054GMTT 070100Z 09026G36KT 9999 FEW016 14/08 Q1018 NOSIG;EQDQ01+000000PRSWM2
0156601010999992002010702004+35730-005890FM-15+0021GMTT V0201001N012312200019N0112651N1+01401+00801999999ADDGA1021+004809999GF102991999999999999999999MA1101801999999MW1001OC101751REMMET054GMTT 070200Z 10024G34KT 9999 FEW016 14/08 Q1018 NOSIG;EQDQ01+000000PRSWM2
0273601010999992002010703004+35730-005890SY-MT+0021GMTT V0201001N013412200019N0100001N1+01361+00851101841ADDAA199000091GA1021+004809999GF102991021021004501001001MA1101801999999MD1610131+9999MW1001OC102011REMSYN070AAXX  07034 60101 32460 21026 10136 20085 40184 56013 82200 333 82816;MET054GMTT 070300Z 10026G39KT 9999 FEW016 14/08 Q1018 NOSIG;EQDQ01+000000PRSWM2Q02  00002PRCP99
0156601010999992002010704004+35730-005890FM-15+0021GMTT V0201001N012912200019N0112651N1+01401+00801999999ADDGA1021+004809999GF102991999999999999999999MA1101691999999MW1001OC101801REMMET054GMTT 070400Z 10025G35KT 9999 FEW016 14/08 Q1017 NOSIG;EQDQ01+000000PRSWM2
0156601010999992002010705004+35730-005890FM-15+0021GMTT V0201001N010312200019N0112651N1+01401+00801999999ADDGA1021+004809999GF102991999999999999999999MA1101691999999MW1001OC101541REMMET054GMTT 070500Z 10020G30KT 9999 FEW016 14/08 Q1017 NOSIG;EQDQ01+000000PRSWM2
0281601010999992002010706004+35730-005890SY-MT+0021GMTT V0201001N011312200019N0100001N1+01341+00601101731ADDAA199000091GA1021+004809999GF102991021021004501001001KA1120N+01341MA1101691999999MD1510111+9999MW1001REMSYN076AAXX  07064 60101 32460 21022 10134 20060 40173 55011 82200 333 20134 82816;MET051GMTT 070600Z 10022KT 9999 FEW016 14/06 Q1017 NOSIG;EQDQ01+000000PRSWM2Q02  00002PRCP99
0156601010999992002010707004+35730-005890FM-15+0021GMTT V0200801N011312200019N0112651N1+01301+00501999999ADDGA1021+004809999GF102991999999999999999999MA1101691999999MW1001OC101651REMMET054GMTT 070700Z 08022G32KT 9999 FEW016 13/05 Q1017 NOSIG;EQDQ01+000000PRSWM2
0168601010999992002010708004+35730-005890FM-15+0021GMTT V0201001N010310600019N0112651N1+01301+00501999999ADDGA1021+004809999GA2071+060009999GF107991999999999999999999MA1101691999999MW1001REMMET058GMTT 070800Z 10020KT 9999 FEW016 BKN200 13/05 Q1017 NOSIG;EQDQ01+000000PRSWM2
0307601010999992002010709004+35730-005890SY-MT+0021GMTT V0201001N010310600019N0100001N1+01391+00511101821ADDAA199000091GA1021+004809999GA2071+060009999GF199999021021004501001021MA1101801999999MD1310091+9999MW1001REMSYN076AAXX  07094 60101 32460 61020 10139 20051 40182 53009 82202 333 82816 85070;MET058GMTT 070900Z 10020KT 9999 FEW016 BKN200 14/05 Q1018 NOSIG;EQDQ01+000062SCOTCVQ02+000000PRSWM2Q03  00002PRCP99
0168601010999992002010710004+35730-005890FM-15+0021GMTT V0201001N011810600019N0112651N1+01501+00501999999ADDGA1021+004809999GA2071+060009999GF107991999999999999999999MA1101801999999MW1001REMMET058GMTT 071000Z 10023KT 9999 FEW016 BKN200 15/05 Q1018 NOSIG;EQDQ01+000000PRSWM2
0168601010999992002010711004+35730-005890FM-15+0021GMTT V0201001N012310600019N0112651N1+01501+00501999999ADDGA1021+004809999GA2071+060009999GF107991999999999999999999MA1101901999999MW1001REMMET058GMTT 071100Z 10024KT 9999 FEW016 BKN200 15/05 Q1019 NOSIG;EQDQ01+000000PRSWM2
0307601010999992002010712004+35730-005890SY-MT+0021GMTT V0201001N013410600019N0150001N1+01631+00621101831ADDAA199000091GA1021+004809999GA2071+060009999GF199999011051004501001021MA1101801999999MD1010011+9999MW1001REMSYN076AAXX  07124 60101 32465 61026 10163 20062 40183 50001 81502 333 81616 85070;MET058GMTT 071200Z 09027KT 9999 FEW016 BKN200 16/06 Q1018 NOSIG;EQDQ01+000062SCOTCVQ02+000000PRSWM2Q03  00002PRCP99
0168601010999992002010713004+35730-005890FM-15+0021GMTT V0200901N012910600019N0112651N1+01601+00701999999ADDGA1021+004809999GA2071+060009999GF107991999999999999999999MA1101691999999MW1001REMMET058GMTT 071300Z 09025KT 9999 FEW016 BKN200 16/07 Q1017 NOSIG;EQDQ01+000000PRSWM2
0168601010999992002010714004+35730-005890FM-15+0021GMTT V0200901N011810600019N0112651N1+01601+00701999999ADDGA1021+004809999GA2071+060009999GF107991999999999999999999MA1101691999999MW1001REMMET058GMTT 071400Z 09023KT 9999 FEW016 BKN200 16/07 Q1017 NOSIG;EQDQ01+000000PRSWM2
0291601010999992002010715004+35730-005890SY-MT+0021GMTT V0201001N010310600019N0150001N1+01521+00631101701ADDAA199000091GA1021+004809999GA2071+060009999GF107991011051004501001021MA1101691999999MD1610131+9999MW1001REMSYN076AAXX  07154 60101 32465 71020 10152 20063 40170 56013 81502 333 81616 87070;MET058GMTT 071500Z 10020KT 9999 FEW016 BKN200 15/06 Q1017 NOSIG;EQDQ01+000000PRSWM2Q02  00002PRCP99
0168601010999992002010716004+35730-005890FM-15+0021GMTT V0200901N010810600019N0112651N1+01401+00701999999ADDGA1021+006909999GA2071+060009999GF107991999999999999999999MA1101691999999MW1001REMMET058GMTT 071600Z 09021KT 9999 SCT023 BKN200 14/07 Q1017 NOSIG;EQDQ01+000000PRSWM2
0168601010999992002010717004+35730-005890FM-15+0021GMTT V0201001N009810600019N0112651N1+01401+00701999999ADDGA1021+006909999GA2071+060009999GF107991999999999999999999MA1101691999999MW1001REMMET058GMTT 071700Z 10019KT 9999 SCT023 BKN200 14/07 Q1017 NOSIG;EQDQ01+000000PRSWM2
0310601010999992002010718004+35730-005890SY-MT+0021GMTT V0201001N010310600019N0150001N1+01351+00681101751ADDAA199000091GA1021+006909999GA2071+060009999GF107991011051008001001021KA1120M+01631MA1101691999999MD1210051+9999MW1001REMSYN082AAXX  07184 60101 32565 71020 10135 20068 40175 52005 81502 333 10163 83623 87070;MET058GMTT 071800Z 10020KT 9999 SCT023 BKN200 14/07 Q1017 NOSIG;EQDQ01+000000PRSWM2Q02  00002PRCP99
0168601010999992002010719004+35730-005890FM-15+0021GMTT V0200901N009810600019N0112651N1+01301+00601999999ADDGA1021+006909999GA2071+060009999GF107991999999999999999999MA1101691999999MW1001REMMET058GMTT 071900Z 09019KT 9999 SCT023 BKN200 13/06 Q1017 NOSIG;EQDQ01+000000PRSWM2
0168601010999992002010720004+35730-005890FM-15+0021GMTT V0201001N008710600019N0112651N1+01301+00701999999ADDGA1021+006909999GA2071+060009999GF107991999999999999999999MA1101801999999MW1001REMMET058GMTT 072000Z 10017KT 9999 SCT023 BKN200 13/07 Q1018 NOSIG;EQDQ01+000000PRSWM2
0278601010999992002010721004+35730-005890SY-MT+0021GMTT V0200901N009310069019N0100001N1+01301+00691101821ADDAA199000091GA1071+006909999GF199999061051008001001001MA1101801999999MD1210071+9999MW1001REMSYN070AAXX  07214 60101 32560 60918 10130 20069 40182 52007 86500 333 86623;MET051GMTT 072100Z 09018KT 9999 BKN023 13/07 Q1018 NOSIG;EQDQ01+000062SCOTCVQ02+000000PRSWM2Q03  00002PRCP99
0145601010999992002010722004+35730-005890FM-15+0021GMTT V0201001N008710069019N0112651N1+01301+00701999999ADDGA1071+006909999GF107991999999999999999999MA1101801999999MW1001REMMET051GMTT 072200Z 10017KT 9999 BKN023 13/07 Q1018 NOSIG;EQDQ01+000000PRSWM2
0145601010999992002010723004+35730-005890FM-15+0021GMTT V0200901N008212200019N0080001N1+01301+00701999999ADDGA1021+006009999GF104991999999999999999999MA1101801999999MW1001REMMET051GMTT 072300Z 09016KT 8000 SCT020 13/07 Q1018 NOSIG;EQDQ01+000000PRSWM2
0262601010999992002010800004+35730-005890SY-MT+0021GMTT V0200901N008712200019N0080001N1+01261+00721101841ADDAA199000091GA1021+006009999GF104991041051008001001001MA1101801999999MD1010021+9999MW1001REMSYN070AAXX  08004 60101 32558 40917 10126 20072 40184 50002 84500 333 84620;MET051GMTT 080000Z 09017KT 8000 SCT020 13/07 Q1018 NOSIG;EQDQ01+000000PRSWM2Q02  00002PRCP99
0145601010999992002010801004+35730-005890FM-15+0021GMTT V0200901N008710060019N0080001N1+01301+00801999999ADDGA1071+006009999GF107991999999999999999999MA1101801999999MW1001REMMET051GMTT 080100Z 09017KT 8000 BKN020 13/08 Q1018 NOSIG;EQDQ01+000000PRSWM2
0145601010999992002010802004+35730-005890FM-15+0021GMTT V0200901N008710060019N0080001N1+01301+00801999999ADDGA1071+006009999GF107991999999999999999999MA1101801999999MW1001REMMET051GMTT 080200Z 09017KT 8000 BKN020 13/08 Q1018 NOSIG;EQDQ01+000000PRSWM2
0283601010999992002010803004+35730-005890SY-MT+0021GMTT V0200901N008210060019N0080001N1+01301+00761101821ADDAA199000091GA1071+006009999GF199999061051008001001001MA1101801999999MD1510021+9999MW1001REMSYN070AAXX  08034 60101 32558 60916 10130 20076 40182 55002 86500 333 86620;MET056GMTT 080300Z 09016KT 8000 BKN020 13/08 Q1018 RESH NOSIG;EQDQ01+000062SCOTCVQ02+000000PRSWM2Q03  00002PRCP99
0145601010999992002010804004+35730-005890FM-15+0021GMTT V0201001N007710060019N0080001N1+01301+00801999999ADDGA1071+006009999GF107991999999999999999999MA1101801999999MW1001REMMET051GMTT 080400Z 10015KT 8000 BKN020 13/08 Q1018 NOSIG;EQDQ01+000000PRSWM2
0145601010999992002010805004+35730-005890FM-15+0021GMTT V0200901N006710060019N0080001N1+01301+00701999999ADDGA1071+006009999GF107991999999999999999999MA1101691999999MW1001REMMET051GMTT 080500Z 09013KT 8000 BKN020 13/07 Q1017 NOSIG;EQDQ01+000000PRSWM2
0326601010999992002010806004+35730-005890SY-MT+0021GMTT V0200801N006710060019N0080001N1+01281+00791101811ADDAA199000091GA1021+004809999GA2071+006009999GF199999061081004501001001KA1120N+01251MA1101801999999MD1510011+9999MW1001REMSYN082AAXX  08064 60101 32458 60813 10128 20079 40181 55001 86800 333 20125 82816 85620;MET058GMTT 080600Z 08013KT 8000 FEW016 BKN020 13/08 Q1018 NOSIG;EQDQ01+000062SCOTCVQ02+000000PRSWM2Q03  00002PRCP99
0168601010999992002010807004+35730-005890FM-15+0021GMTT V0200901N006210060019N0080001N1+01301+00801999999ADDGA1021+004809999GA2071+006009999GF107991999999999999999999MA1101801999999MW1001REMMET058GMTT 080700Z 09012KT 8000 SCT016 BKN020 13/08 Q1018 NOSIG;EQDQ01+000000PRSWM2
0168601010999992002010808004+35730-005890FM-15+0021GMTT V0201001N005110060019N0080001N1+01301+00801999999ADDGA1021+004809999GA2071+006009999GF107991999999999999999999MA1101801999999MW1001REMMET058GMTT 080800Z 10010KT 8000 SCT016 BKN020 13/08 Q1018 NOSIG;EQDQ01+000000PRSWM2
0291601010999992002010809004+35730-005890SY-MT+0021GMTT V0201001N004610060019N0080001N1+01301+00801101971ADDAA199000091GA1021+004809999GA2071+006009999GF107991071081004501999999MA1101901999999MD1310081+9999MW1001REMSYN076AAXX  08094 60101 32458 71009 10130 20080 40197 53008 878// 333 83816 86620;MET058GMTT 080900Z 10009KT 8000 SCT016 BKN020 13/08 Q1019 NOSIG;EQDQ01+000000PRSWM2Q02  00002PRCP99
0168601010999992002010810004+35730-005890FM-15+0021GMTT V0201001N006710060019N0080001N1+01401+00801999999ADDGA1021+004809999GA2071+006009999GF107991999999999999999999MA1102001999999MW1001REMMET058GMTT 081000Z 10013KT 8000 SCT016 BKN020 14/08 Q1020 NOSIG;EQDQ01+000000PRSWM2
0168601010999992002010811004+35730-005890FM-15+0021GMTT V0201101N005710060019N0080001N1+01501+00801999999ADDGA1021+004809999GA2071+006009999GF107991999999999999999999MA1102101999999MW1001REMMET058GMTT 081100Z 11011KT 8000 SCT016 BKN020 15/08 Q1021 NOSIG;EQDQ01+000000PRSWM2
0291601010999992002010812004+35730-005890SY-MT+0021GMTT V0201001N005710060019N0080001N1+01611+00821102111ADDAA199000091GA1021+004809999GA2071+006009999GF107991071081004501999999MA1102101999999MD1010141+9999MW1001REMSYN076AAXX  08124 60101 32458 71011 10161 20082 40211 50014 878// 333 83816 86620;MET058GMTT 081200Z 10011KT 8000 SCT016 BKN020 16/08 Q1021 NOSIG;EQDQ01+000000PRSWM2Q02  00002PRCP99
0191601010999992002010813004+35730-005890FM-15+0021GMTT V0201101N006710600019N0080001N1+01601+00801999999ADDGA1021+004809999GA2021+006009999GA3071+060009999GF107991999999999999999999MA1102001999999MW1001REMMET065GMTT 081300Z 11013KT 8000 FEW016 SCT020 BKN200 16/08 Q1020 NOSIG;EQDQ01+000000PRSWM2
0191601010999992002010814004+35730-005890FM-15+0021GMTT V0201001N005710600019N0080001N1+01601+00901999999ADDGA1021+004809999GA2021+006009999GA3071+060009999GF107991999999999999999999MA1102001999999MW1001REMMET065GMTT 081400Z 10011KT 8000 FEW016 SCT020 BKN200 16/09 Q1020 NOSIG;EQDQ01+000000PRSWM2
0320601010999992002010815004+35730-005890SY-MT+0021GMTT V0200901N006210600019N0080001N1+01541+00921102101ADDAA199000091GA1021+004809999GA2021+006009999GA3071+060009999GF107991041081004501001021MA1102101999999MD1510011+9999MW1001REMSYN082AAXX  08154 60101 32458 70912 10154 20092 40210 55001 84802 333 82816 83620 87070;MET065GMTT 081500Z 09012KT 8000 FEW016 SCT020 BKN200 15/09 Q1021 NOSIG;EQDQ01+000000PRSWM2Q02  00002PRCP99
0191601010999992002010816004+35730-005890FM-15+0021GMTT V0200901N007210600019N0080001N1+01501+00901999999ADDGA1021+004809999GA2021+006009999GA3071+060009999GF107991999999999999999999MA1102101999999MW1001REMMET065GMTT 081600Z 09014KT 8000 FEW016 SCT020 BKN200 15/09 Q1021 NOSIG;EQDQ01+000000PRSWM2
0168601010999992002010817004+35730-005890FM-15+0021GMTT V0201001N006712200019N0080001N1+01501+00901999999ADDGA1021+004809999GA2021+006009999GF104991999999999999999999MA1102101999999MW1001REMMET058GMTT 081700Z 10013KT 8000 SCT016 SCT020 15/09 Q1021 NOSIG;EQDQ01+000000PRSWM2
0310601010999992002010818004+35730-005890SY-MT+0021GMTT V0201001N00621009001CN0080001N1+01431+00901102161ADDAA199000091GA1021+004809999GA2021+006009999GF107991051081004501081999KA1120M+01691MA1102101999999MD1110081+9999MW1001REMSYN082AAXX  08184 60101 32458 71012 10143 20090 40216 51008 8588/ 333 10169 83816 84620;MET058GMTT 081800Z 10012KT 8000 SCT016 SCT020 14/09 Q1021 NOSIG;EQDQ01+000000PRSWM2Q02  00002PRCP99
0168601010999992002010819004+35730-005890FM-15+0021GMTT V0201001N006212200019N0080001N1+01401+00901999999ADDGA1021+004809999GA2021+006009999GF104991999999999999999999MA1102201999999MW1001REMMET058GMTT 081900Z 10012KT 8000 SCT016 SCT020 14/09 Q1022 NOSIG;EQDQ01+000000PRSWM2
0168601010999992002010820004+35730-005890FM-15+0021GMTT V0200901N008712200019N0080001N1+01401+00901999999ADDGA1021+004809999GA2021+006009999GF104991999999999999999999MA1102201999999MW1001REMMET058GMTT 082000Z 09017KT 8000 SCT016 SCT020 14/09 Q1022 NOSIG;EQDQ01+000000PRSWM2
0291601010999992002010821004+35730-005890SY-MT+0021GMTT V0200901N00871009001CN0080001N1+01331+00861102281ADDAA199000091GA1021+004809999GA2021+006009999GF107991051081004501081999MA1102201999999MD1110121+9999MW1001REMSYN076AAXX  08214 60101 32458 70917 10133 20086 40228 51012 8588/ 333 83816 84620;MET058GMTT 082100Z 09017KT 8000 SCT016 SCT020 13/09 Q1022 NOSIG;EQDQ01+000000PRSWM2Q02  00002PRCP99
0168601010999992002010822004+35730-005890FM-15+0021GMTT V0200901N007712200019N0080001N1+01301+00901999999ADDGA1021+004809999GA2021+006009999GF104991999999999999999999MA1102301999999MW1001REMMET058GMTT 082200Z 09015KT 8000 SCT016 SCT020 13/09 Q1023 NOSIG;EQDQ01+000000PRSWM2
0168601010999992002010823004+35730-005890FM-15+0021GMTT V0200901N008212200019N0080001N1+01301+00901999999ADDGA1021+004809999GA2021+006009999GF104991999999999999999999MA1102301999999MW1001REMMET058GMTT 082300Z 09016KT 8000 SCT016 SCT020 13/09 Q1023 NOSIG;EQDQ01+000000PRSWM2
0291601010999992002010900004+35730-005890SY-MT+0021GMTT V0200901N00771009001CN0080001N1+01281+00871102331ADDAA199000091GA1021+004809999GA2021+006009999GF107991051081004501081999MA1102301999999MD1010051+9999MW1001REMSYN076AAXX  09004 60101 32458 70915 10128 20087 40233 50005 8588/ 333 83816 84620;MET058GMTT 090000Z 09015KT 8000 SCT016 SCT020 13/09 Q1023 NOSIG;EQDQ01+000000PRSWM2Q02  00002PRCP99
0168601010999992002010901004+35730-005890FM-15+0021GMTT V0201001N006712200019N0080001N1+01301+00901999999ADDGA1021+004809999GA2021+006009999GF104991999999999999999999MA1102301999999MW1001REMMET058GMTT 090100Z 10013KT 8000 FEW016 SCT020 13/09 Q1023 NOSIG;EQDQ01+000000PRSWM2
0168601010999992002010902004+35730-005890FM-15+0021GMTT V0200901N007712200019N0080001N1+01301+00901999999ADDGA1021+004809999GA2021+006009999GF104991999999999999999999MA1102401999999MW1001REMMET058GMTT 090200Z 09015KT 8000 FEW016 SCT020 13/09 Q1024 NOSIG;EQDQ01+000000PRSWM2
0291601010999992002010903004+35730-005890SY-MT+0021GMTT V0200901N008712200019N0080001N1+01301+00881102431ADDAA199000091GA1021+004809999GA2021+006009999GF103991031081004501001001MA1102401999999MD1110101+9999MW1001REMSYN076AAXX  09034 60101 32458 30917 10130 20088 40243 51010 83800 333 82816 83620;MET058GMTT 090300Z 09016KT 8000 FEW016 SCT020 13/09 Q1024 NOSIG;EQDQ01+000000PRSWM2Q02  00002PRCP99
0168601010999992002010904004+35730-005890FM-15+0021GMTT V0200901N009312200019N0080001N1+01301+00901999999ADDGA1021+004809999GA2021+006009999GF104991999999999999999999MA1102401999999MW1001REMMET058GMTT 090400Z 09018KT 8000 FEW016 SCT020 13/09 Q1024 NOSIG;EQDQ01+000000PRSWM2
0145601010999992002010905004+35730-005890FM-15+0021GMTT V0200901N009312200019N0112651N1+01301+00801999999ADDGA1021+006009999GF102991999999999999999999MA1102401999999MW1001REMMET051GMTT 090500Z 09018KT 9999 FEW020 13/08 Q1024 NOSIG;EQDQ01+000000PRSWM2
0281601010999992002010906004+35730-005890SY-MT+0021GMTT V0200901N010312200019N0100001N1+01301+00921102461ADDAA199000091GA1021+006009999GF102991021051008001001001KA1120N+01251MA1102401999999MD1110031+9999MW1001REMSYN076AAXX  09064 60101 32560 20920 10130 20092 40246 51003 82500 333 20125 82620;MET051GMTT 090600Z 09020KT 9999 FEW020 13/09 Q1024 NOSIG;EQDQ01+000000PRSWM2Q02  00002PRCP99
0145601010999992002010907004+35730-005890FM-15+0021GMTT V0200901N009812200019N0112651N1+01301+00901999999ADDGA1021+006009999GF102991999999999999999999MA1102511999999MW1001REMMET051GMTT 090700Z 09019KT 9999 FEW020 13/09 Q1025 NOSIG;EQDQ01+000000PRSWM2
0168601010999992002010908004+35730-005890FM-15+0021GMTT V0200901N008712200019N0112651N1+01301+00901999999ADDGA1021+006009999GA2021+060009999GF104991999999999999999999MA1102511999999MW1001REMMET058GMTT 090800Z 09017KT 9999 SCT020 SCT200 13/09 Q1025 NOSIG;EQDQ01+000000PRSWM2
0291601010999992002010909004+35730-005890SY-MT+0021GMTT V0200901N008712200019N0100001N1+01381+00941102631ADDAA199000091GA1021+006009999GA2021+060009999GF104991031051008001001021MA1102611999999MD1110171+9999MW1001REMSYN076AAXX  09094 60101 32560 40917 10138 20094 40263 51017 83502 333 83620 83070;MET058GMTT 090900Z 09017KT 9999 SCT020 SCT200 14/09 Q1026 NOSIG;EQDQ01+000000PRSWM2Q02  00002PRCP99
0168601010999992002010910004+35730-005890FM-15+0021GMTT V0200901N010312200019N0112651N1+01601+01001999999ADDGA1021+006009999GA2021+060009999GF104991999999999999999999MA1102711999999MW1001REMMET058GMTT 091000Z 09020KT 9999 FEW020 SCT200 16/10 Q1027 NOSIG;EQDQ01+000000PRSWM2
0111601010999992002010910104+35730-005890FM-16+0021GMTT V0201001N00981220001CN0099001N1+01601+01001999999ADDMA1102711999999MW1001OC101541REMMET051SPECI GMTT 091010Z 10019G30KT CAVOK 16/10 Q1027 M0;EQDQ01+000000PRSWM2
0097601010999992002010911004+35730-005890FM-15+0021GMTT V0201001N01081220001CN0099001N1+01701+00901999999ADDMA1102711999999MW1001REMMET045GMTT 091100Z 10021KT CAVOK 17/09 Q1027 NOSIG;EQDQ01+000000PRSWM2
0256601010999992002010912004+35730-005890SY-MT+0021GMTT V0201001N010812200019N0100001N1+01731+00971102711ADDAA199000091GA1031+060009019GF103991001001999999001021MA1102711999999MD1010081+9999MW1001REMSYN070AAXX  09124 60101 32960 31021 10173 20097 40271 50008 80002 333 83070;MET045GMTT 091200Z 10021KT CAVOK 17/09 Q1027 NOSIG;EQDQ01+000000PRSWM2Q02  00002PRCP99
0097601010999992002010913004+35730-005890FM-15+0021GMTT V0200901N01031220001CN0099001N1+01801+01001999999ADDMA1102611999999MW1001REMMET045GMTT 091300Z 09020KT CAVOK 18/10 Q1026 NOSIG;EQDQ01+000000PRSWM2
0097601010999992002010914004+35730-005890FM-15+0021GMTT V0200901N01131220001CN0099001N1+01801+01001999999ADDMA1102611999999MW1001REMMET045GMTT 091400Z 09022KT CAVOK 18/10 Q1026 NOSIG;EQDQ01+000000PRSWM2
0291601010999992002010915004+35730-005890SY-MT+0021GMTT V0200901N010312200019N0100001N1+01751+00921102631ADDAA199000091GA1021+004809999GA2021+060009999GF103991011051004501001021MA1102611999999MD1510081+9999MW1001REMSYN076AAXX  09154 60101 32460 30920 10175 20092 40263 55008 81502 333 81616 83070;MET058GMTT 091500Z 09020KT 9999 FEW016 SCT200 18/09 Q1026 NOSIG;EQDQ01+000000PRSWM2Q02  00002PRCP99
0168601010999992002010916004+35730-005890FM-15+0021GMTT V0200901N011312200019N0112651N1+01601+01001999999ADDGA1021+004809999GA2021+060009999GF104991999999999999999999MA1102611999999MW1001REMMET058GMTT 091600Z 09022KT 9999 FEW016 SCT200 16/10 Q1026 NOSIG;EQDQ01+000000PRSWM2
0168601010999992002010917004+35730-005890FM-15+0021GMTT V0200901N010312200019N0112651N1+01501+01001999999ADDGA1021+004809999GA2021+060009999GF104991999999999999999999MA1102611999999MW1001REMMET058GMTT 091700Z 09020KT 9999 FEW016 SCT200 15/10 Q1026 NOSIG;EQDQ01+000000PRSWM2
0310601010999992002010918004+35730-005890SY-MT+0021GMTT V0200901N009312200019N0100001N1+01411+00971102661ADDAA199000091GA1021+004809999GA2021+060009999GF103991011051004501001021KA1120M+01801MA1102611999999MD1010021+9999MW1001REMSYN082AAXX  09184 60101 32460 30918 10141 20097 40266 50002 81502 333 10180 81616 83070;MET058GMTT 091800Z 09018KT 9999 FEW016 SCT200 14/10 Q1026 NOSIG;EQDQ01+000000PRSWM2Q02  00002PRCP99
0168601010999992002010919004+35730-005890FM-15+0021GMTT V0201001N008712200019N0112651N1+01401+01001999999ADDGA1021+004809999GA2021+060009999GF104991999999999999999999MA1102711999999MW1001REMMET058GMTT 091900Z 10017KT 9999 FEW016 SCT200 14/10 Q1027 NOSIG;EQDQ01+000000PRSWM2
0168601010999992002010920004+35730-005890FM-15+0021GMTT V0200801N009312200019N0112651N1+01401+01001999999ADDGA1021+004809999GA2021+060009999GF104991999999999999999999MA1102711999999MW1001REMMET058GMTT 092000Z 08018KT 9999 FEW016 SCT200 14/10 Q1027 NOSIG;EQDQ01+000000PRSWM2
0256601010999992002010921004+35730-005890SY-MT+0021GMTT V0200901N009812200019N0100001N1+01391+01001102741ADDAA199000091GA1031+060009019GF103991001001999999001021MA1102711999999MD1010071+9999MW1001REMSYN070AAXX  09214 60101 32960 30919 10139 20100 40274 50007 80002 333 83070;MET045GMTT 092100Z 09019KT CAVOK 14/10 Q1027 NOSIG;EQDQ01+000000PRSWM2Q02  00002PRCP99
0097601010999992002010922004+35730-005890FM-15+0021GMTT V0200901N00981220001CN0099001N1+01401+01001999999ADDMA1102711999999MW1001REMMET045GMTT 092200Z 09019KT CAVOK 14/10 Q1027 NOSIG;EQDQ01+000000PRSWM2
0097601010999992002010923004+35730-005890FM-15+0021GMTT V0200901N00981220001CN0099001N1+01401+01001999999ADDMA1102811999999MW1001REMMET045GMTT 092300Z 09019KT CAVOK 14/10 Q1028 NOSIG;EQDQ01+000000PRSWM2
0262601010999992002011000004+35730-005890SY-MT+0021GMTT V0200901N009812200019N0100001N1+01361+00961102801ADDAA199000091GA1031+060009019GF103991001001999999001021MA1102811999999MD1110061+9999MW1001REMSYN076AAXX  10004 60101 32960 30919 10136 20096 40280 51006 80002 92352 333 83070;MET045GMTT 100000Z 09019KT CAVOK 14/10 Q1028 NOSIG;EQDQ01+000000PRSWM2Q02  00002PRCP99
0097601010999992002011001004+35730-005890FM-15+0021GMTT V0201001N00821220001CN0099001N1+01301+00901999999ADDMA1102711999999MW1001REMMET045GMTT 100100Z 10016KT CAVOK 13/09 Q1027 NOSIG;EQDQ01+000000PRSWM2
0097601010999992002011002004+35730-005890FM-15+0021GMTT V0200901N00931220001CN0099001N1+01301+00901999999ADDMA1102711999999MW1001REMMET045GMTT 100200Z 09018KT CAVOK 13/09 Q1027 NOSIG;EQDQ01+000000PRSWM2
0256601010999992002011003004+35730-005890SY-MT+0021GMTT V0201001N009812200019N0100001N1+01361+00911102771ADDAA199000091GA1031+060009019GF103991001001999999001021MA1102711999999MD1710031+9999MW1001REMSYN070AAXX  10034 60101 32960 31019 10136 20091 40277 57003 80002 333 83070;MET045GMTT 100300Z 10019KT CAVOK 14/09 Q1027 NOSIG;EQDQ01+000000PRSWM2Q02  00002PRCP99
0097601010999992002011004004+35730-005890FM-15+0021GMTT V0201001N01031220001CN0099001N1+01301+00901999999ADDMA1102711999999MW1001REMMET045GMTT 100400Z 10020KT CAVOK 13/09 Q1027 NOSIG;EQDQ01+000000PRSWM2
0097601010999992002011005004+35730-005890FM-15+0021GMTT V0201001N00871220001CN0099001N1+01301+00901999999ADDMA1102711999999MW1001REMMET045GMTT 100500Z 10017KT CAVOK 13/09 Q1027 NOSIG;EQDQ01+000000PRSWM2
0275601010999992002011006004+35730-005890SY-MT+0021GMTT V0201001N009312200019N0100001N1+01341+00901102791ADDAA199000091GA1031+060009019GF103991001001999999001021KA1120N+01311MA1102711999999MD1310031+9999MW1001REMSYN076AAXX  10064 60101 32960 31018 10134 20090 40279 53003 80002 333 20131 83070;MET045GMTT 100600Z 10018KT CAVOK 13/09 Q1027 NOSIG;EQDQ01+000000PRSWM2Q02  00002PRCP99
0097601010999992002011007004+35730-005890FM-15+0021GMTT V0201001N00871220001CN0099001N1+01301+00901999999ADDMA1102811999999MW1001REMMET045GMTT 100700Z 10017KT CAVOK 13/09 Q1028 NOSIG;EQDQ01+000000PRSWM2
0168601010999992002011008004+35730-005890FM-15+0021GMTT V0201001N009312200019N0112651N1+01301+00901999999ADDGA1021+004809999GA2021+060009999GF104991999999999999999999MA1102811999999MW1001REMMET058GMTT 100800Z 10018KT 9999 FEW016 SCT200 13/09 Q1028 NOSIG;EQDQ01+000000PRSWM2
0291601010999992002011009004+35730-005890SY-MT+0021GMTT V0200901N008710600019N0100001N1+01411+00931102891ADDAA199000091GA1021+004809999GA2071+060009999GF107991021051004501001021MA1102811999999MD1110101+9999MW1001REMSYN076AAXX  10094 60101 32460 70917 10141 20093 40289 51010 82502 333 82616 87070;MET058GMTT 100900Z 09017KT 9999 FEW016 BKN200 14/09 Q1028 NOSIG;EQDQ01+000000PRSWM2Q02  00002PRCP99
0168601010999992002011010004+35730-005890FM-15+0021GMTT V0200901N009810600019N0112651N1+01501+01001999999ADDGA1021+004809999GA2071+060009999GF107991999999999999999999MA1102911999999MW1001REMMET058GMTT 101000Z 09019KT 9999 FEW016 BKN200 15/10 Q1029 NOSIG;EQDQ01+000000PRSWM2
0168601010999992002011011004+35730-005890FM-15+0021GMTT V0201001N008210600019N0112651N1+01601+01001999999ADDGA1021+004809999GA2071+060009999GF107991999999999999999999MA1103011999999MW1001REMMET058GMTT 101100Z 10016KT 9999 FEW016 BKN200 16/10 Q1030 NOSIG;EQDQ01+000000PRSWM2
0291601010999992002011012004+35730-005890SY-MT+0021GMTT V0201001N009810600019N0100001N1+01701+01011102941ADDAA199000091GA1021+004809999GA2071+060009999GF107991021051004501001021MA1102911999999MD1010051+9999MW1001REMSYN076AAXX  10124 60101 32460 71019 10170 20101 40294 50005 82502 333 82616 87070;MET058GMTT 101200Z 10019KT 9999 FEW016 BKN200 17/10 Q1029 NOSIG;EQDQ01+000000PRSWM2Q02  00002PRCP99
0168601010999992002011014004+35730-005890FM-15+0021GMTT V0200901N010810600019N0112651N1+01801+00901999999ADDGA1021+004809999GA2071+060009999GF107991999999999999999999MA1102711999999MW1001REMMET058GMTT 101400Z 09021KT 9999 FEW016 BKN200 18/09 Q1027 NOSIG;EQDQ01+000000PRSWM2
0291601010999992002011015004+35730-005890SY-MT+0021GMTT V0200901N010810600019N0100001N1+01731+00911102701ADDAA199000091GA1021+004809999GA2071+060009999GF107991011051004501001021MA1102711999999MD1610241+9999MW1001REMSYN076AAXX  10154 60101 32460 70921 10173 20091 40270 56024 81502 333 81616 87070;MET058GMTT 101500Z 09021KT 9999 FEW016 BKN200 17/09 Q1027 NOSIG;EQDQ01+000000PRSWM2Q02  00002PRCP99
0168601010999992002011016004+35730-005890FM-15+0021GMTT V0200901N009810600019N0112651N1+01601+01001999999ADDGA1021+004809999GA2071+060009999GF107991999999999999999999MA1102811999999MW1001REMMET058GMTT 101600Z 09019KT 9999 FEW016 BKN200 16/10 Q1028 NOSIG;EQDQ01+000000PRSWM2
0168601010999992002011017004+35730-005890FM-15+0021GMTT V0200901N009310600019N0112651N1+01501+00901999999ADDGA1021+004809999GA2071+060009999GF107991999999999999999999MA1102811999999MW1001REMMET058GMTT 101700Z 09018KT 9999 FEW016 BKN200 15/09 Q1028 NOSIG;EQDQ01+000000PRSWM2
0304601010999992002011018004+35730-005890SY-MT+0021GMTT V0200901N008710600019N0100001N1+01471+00921102821ADDAA199000091GA1021+004809999GA2071+060009999GF107991011051004501001021KA1120M+01781MA1102811999999MD1010111+9999MW1001REMSYN082AAXX  10184 60101 32460 70917 10147 20092 40282 50011 81502 333 10178 81616 87070;MET052GMTT 101800Z 09017KT 9999 FEW016 BKN200 15/09 Q1028;EQDQ01+000000PRSWM2Q02  00002PRCP99
0162601010999992002011019004+35730-005890FM-15+0021GMTT V0201001N008710600019N0112651N1+01401+00901999999ADDGA1021+004809999GA2071+060009999GF107991999999999999999999MA1102911999999MW1001REMMET052GMTT 101900Z 10017KT 9999 FEW016 BKN200 14/09 Q1029;EQDQ01+000000PRSWM2
0162601010999992002011020004+35730-005890FM-15+0021GMTT V0200901N007210600019N0112651N1+01401+01001999999ADDGA1021+004809999GA2071+060009999GF107991999999999999999999MA1102911999999MW1001REMMET052GMTT 102000Z 09014KT 9999 FEW016 BKN200 14/10 Q1029;EQDQ01+000000PRSWM2
0256601010999992002011021004+35730-005890SY-MT+0021GMTT V0200901N008712200019N0100001N1+01341+00961102921ADDAA199000091GA1041+060009019GF104991001001999999001021MA1102911999999MD1310101+9999MW1001REMSYN070AAXX  10214 60101 32960 40917 10134 20096 40292 53010 80002 333 84070;MET045GMTT 102100Z 09017KT CAVOK 13/10 Q1029 NOSIG;EQDQ01+000000PRSWM2Q02  00002PRCP99
0097601010999992002011022004+35730-005890FM-15+0021GMTT V0200901N00771220001CN0099001N1+01301+00901999999ADDMA1102911999999MW1001REMMET045GMTT 102200Z 09015KT CAVOK 13/09 Q1029 NOSIG;EQDQ01+000000PRSWM2
0097601010999992002011023004+35730-005890FM-15+0021GMTT V0200801N00771220001CN0099001N1+01301+01001999999ADDMA1103011999999MW1001REMMET045GMTT 102300Z 08015KT CAVOK 13/10 Q1030 NOSIG;EQDQ01+000000PRSWM2
0256601010999992002011100004+35730-005890SY-MT+0021GMTT V0201001N007712200019N0100001N1+01361+00981102991ADDAA199000091GA1041+060009019GF104991001001999999001021MA1102911999999MD1010071+9999MW1001REMSYN070AAXX  11004 60101 32960 41015 10136 20098 40299 50007 80002 333 84070;MET045GMTT 110000Z 10015KT CAVOK 14/10 Q1029 NOSIG;EQDQ01+000000PRSWM2Q02  00002PRCP99
0097601010999992002011101004+35730-005890FM-15+0021GMTT V0201001N00821220001CN0099001N1+01301+01001999999ADDMA1102911999999MW1001REMMET045GMTT 110100Z 10016KT CAVOK 13/10 Q1029 NOSIG;EQDQ01+000000PRSWM2
0097601010999992002011102004+35730-005890FM-15+0021GMTT V0201001N00721220001CN0099001N1+01301+01001999999ADDMA1102911999999MW1001REMMET045GMTT 110200Z 10014KT CAVOK 13/10 Q1029 NOSIG;EQDQ01+000000PRSWM2
0256601010999992002011103004+35730-005890SY-MT+0021GMTT V0201001N008212200019N0100001N1+01341+01021102931ADDAA199000091GA1041+060009019GF104991001001999999001021MA1102911999999MD1810061+9999MW1001REMSYN070AAXX  11034 60101 32960 41016 10134 20102 40293 58006 80002 333 84070;MET045GMTT 110300Z 10016KT CAVOK 13/10 Q1029 NOSIG;EQDQ01+000000PRSWM2Q02  00002PRCP99
0097601010999992002011104004+35730-005890FM-15+0021GMTT V0201001N00771220001CN0099001N1+01401+01001999999ADDMA1102911999999MW1001REMMET045GMTT 110400Z 10015KT CAVOK 14/10 Q1029 NOSIG;EQDQ01+000000PRSWM2
0097601010999992002011105004+35730-005890FM-15+0021GMTT V0201001N00721220001CN0099001N1+01301+01001999999ADDMA1102911999999MW1001REMMET045GMTT 110500Z 10014KT CAVOK 13/10 Q1029 NOSIG;EQDQ01+000000PRSWM2
0275601010999992002011106004+35730-005890SY-MT+0021GMTT V0201001N007712200019N0100001N1+01321+00971102941ADDAA199000091GA1041+060009019GF104991001001999999001021KA1120N+01301MA1102911999999MD1010011+9999MW1001REMSYN076AAXX  11064 60101 32960 41015 10132 20097 40294 50001 80002 333 20130 84070;MET045GMTT 110600Z 10015KT CAVOK 13/10 Q1029 NOSIG;EQDQ01+000000PRSWM2Q02  00002PRCP99
0097601010999992002011107004+35730-005890FM-15+0021GMTT V0201001N00771220001CN0099001N1+01301+01001999999ADDMA1102911999999MW1001REMMET045GMTT 110700Z 10015KT CAVOK 13/10 Q1029 NOSIG;EQDQ01+000000PRSWM2
0097601010999992002011108004+35730-005890FM-15+0021GMTT V0200901N00771220001CN0099001N1+01301+01001999999ADDMA1103011999999MW1001REMMET045GMTT 110800Z 09015KT CAVOK 13/10 Q1030 NOSIG;EQDQ01+000000PRSWM2
0256601010999992002011109004+35730-005890SY-MT+0021GMTT V0200901N008212200019N0100001N1+01381+01011103091ADDAA199000091GA1041+060009019GF104991001001999999001021MA1103011999999MD1310151+9999MW1001REMSYN070AAXX  11094 60101 32960 40916 10138 20101 40309 53015 80002 333 84070;MET045GMTT 110900Z 09016KT CAVOK 14/10 Q1030 NOSIG;EQDQ01+000000PRSWM2Q02  00002PRCP99
0097601010999992002011110004+35730-005890FM-15+0021GMTT V0200901N00871220001CN0099001N1+01601+01001999999ADDMA1103121999999MW1001REMMET045GMTT 111000Z 09017KT CAVOK 16/10 Q1031 NOSIG;EQDQ01+000000PRSWM2
0097601010999992002011111004+35730-005890FM-15+0021GMTT V0201001N00821220001CN0099001N1+01801+01101999999ADDMA1103121999999MW1001REMMET045GMTT 111100Z 10016KT CAVOK 18/11 Q1031 NOSIG;EQDQ01+000000PRSWM2
0230601010999992002011112004+35730-005890SY-MT+0021GMTT V0201001N009812200019N0150001N1+01781+01101103121ADDAA199000091GF104991001001999999001021MA1103121999999MD1010031+9999MW1001REMSYN060AAXX  11124 60101 33965 41019 10178 20110 40312 50003 80002;MET045GMTT 111200Z 09019KT CAVOK 18/11 Q1031 CAVOK;EQDQ01+000000PRSWM2Q02  00002PRCP99
0097601010999992002011113004+35730-005890FM-15+0021GMTT V0201001N00981220001CN0099001N1+01801+01001999999ADDMA1103011999999MW1001REMMET045GMTT 111300Z 10019KT CAVOK 18/10 Q1030 CAVOK;EQDQ01+000000PRSWM2
0097601010999992002011114004+35730-005890FM-15+0021GMTT V0200901N00981220001CN0099001N1+01801+01101999999ADDMA1102911999999MW1001REMMET045GMTT 111400Z 09019KT CAVOK 18/11 Q1029 CAVOK;EQDQ01+000000PRSWM2
0256601010999992002011115004+35730-005890SY-MT+0021GMTT V0201001N008210600019N0150001N1+01761+01071102921ADDAA199000091GA1061+060009019GF106991001001999999001021MA1102911999999MD1610201+9999MW1001REMSYN070AAXX  11154 60101 32965 61016 10176 20107 40292 56020 80002 333 86070;MET045GMTT 111500Z 10016KT CAVOK 18/11 Q1029 CAVOK;EQDQ01+000000PRSWM2Q02  00002PRCP99
0168601010999992002011116004+35730-005890FM-15+0021GMTT V0200901N007710600019N0080001N1+01701+01001999999ADDGA1021+030009999GA2071+060009999GF107991999999999999999999MA1102911999999MW1001REMMET058GMTT 111600Z 09015KT 8000 SCT100 BKN200 17/10 Q1029 CAVOK;EQDQ01+000000PRSWM2
0168601010999992002011117004+35730-005890FM-15+0021GMTT V0200801N006710600019N0080001N1+01601+01001999999ADDGA1021+030009999GA2071+060009999GF107991999999999999999999MA1102811999999MW1001REMMET058GMTT 111700Z 08013KT 8000 SCT100 BKN200 16/10 Q1028 NOSIG;EQDQ01+000000PRSWM2
0326601010999992002011118004+35730-005890SY-MT+0021GMTT V0200801N007710600019N0080001N1+01491+00961102881ADDAA199000091GA1021+030009999GA2071+060009999GF199999031001999999031021KA1120M+01851MA1102811999999MD1810031+9999MW1001REMSYN082AAXX  11184 60101 32958 60815 10149 20096 40288 58003 83032 333 10185 83360 86070;MET058GMTT 111800Z 07015KT 8000 SCT100 BKN200 15/10 Q1028 NOSIG;EQDQ01+000062SCOTCVQ02+000000PRSWM2Q03  00002PRCP99
0168601010999992002011119004+35730-005890FM-15+0021GMTT V0200901N009310600019N0080001N1+01501+01001999999ADDGA1021+030009999GA2071+060009999GF107991999999999999999999MA1102811999999MW1001REMMET058GMTT 111900Z 09018KT 8000 SCT100 BKN200 15/10 Q1028 NOSIG;EQDQ01+000000PRSWM2
0168601010999992002011120004+35730-005890FM-15+0021GMTT V0200901N008710270019N0080001N1+01501+01001999999ADDGA1021+004809999GA2071+027009999GF107991999999999999999999MA1102911999999MW1001REMMET058GMTT 112000Z 09017KT 8000 FEW016 BKN093 15/10 Q1029 NOSIG;EQDQ01+000000PRSWM2
0307601010999992002011121004+35730-005890SY-MT+0021GMTT V0201001N009310270019N0080001N1+01501+01051102941ADDAA199000091GA1021+004809999GA2071+027009999GF199999021051004501031001MA1102911999999MD1110061+9999MW1001REMSYN076AAXX  11214 60101 32458 61018 10150 20105 40294 51006 82530 333 82616 85359;MET058GMTT 112100Z 10018KT 8000 FEW016 BKN093 15/11 Q1029 NOSIG;EQDQ01+000062SCOTCVQ02+000000PRSWM2Q03  00002PRCP99
0168601010999992002011122004+35730-005890FM-15+0021GMTT V0201001N008210600019N0080001N1+01501+01001999999ADDGA1021+030009999GA2071+060009999GF107991999999999999999999MA1102911999999MW1001REMMET058GMTT 112200Z 10016KT 8000 SCT100 BKN200 15/10 Q1029 NOSIG;EQDQ01+000000PRSWM2
0097601010999992002011123004+35730-005890FM-15+0021GMTT V0201001N00821220001CN0099001N1+01401+01001999999ADDMA1102911999999MW1001REMMET045GMTT 112300Z 10016KT CAVOK 14/10 Q1029 NOSIG;EQDQ01+000000PRSWM2
0278601010999992002011200004+35730-005890SY-MT+0021GMTT V0201001N007210600019N0100001N1+01381+01001103021ADDAA199000091GA1021+030009079GA2041+060009019GF105991021001999999031021MA1103011999999MD1110081+9999MW1001REMSYN076AAXX  12004 60101 32960 51014 10138 20100 40302 51008 82032 333 82360 84070;MET045GMTT 120000Z 10014KT CAVOK 14/10 Q1030 NOSIG;EQDQ01+000000PRSWM2Q02  00002PRCP99
0097601010999992002011201004+35730-005890FM-15+0021GMTT V0201101N00571220001CN0099001N1+01401+01001999999ADDMA1103011999999MW1001REMMET045GMTT 120100Z 11011KT CAVOK 14/10 Q1030 NOSIG;EQDQ01+000000PRSWM2
0246601010999992002011202004+35730-005890SY-MT+0021GMTT V0201001N00721220001CN0100001N1+01401+01001102991ADDAA199000091GF102991001001999999001021MA1102911999999MD1710041+9999MW1001REMSYN076AAXX  12024 60101 32960 21014 10130 2085/ 40299 57004 80002 333 2013/ 882//;MET045GMTT 120200Z 09016KT CAVOK 14/10 Q1029 NOSIG;EQDQ01+000000PRSWM2Q02  00002PRCP99
0256601010999992002011203004+35730-005890SY-MT+0021GMTT V0200901N007212200019N0100001N1+01341+01011103021ADDAA199000091GA1021+060009019GF102991001001999999001021MA1103011999999MD1310011+9999MW1001REMSYN070AAXX  12034 60101 32960 20914 10134 20101 40302 53001 80002 333 82070;MET045GMTT 120300Z 09014KT CAVOK 13/10 Q1030 NOSIG;EQDQ01+000000PRSWM2Q02  00002PRCP99
0087601010999992002011204004+35730-005890FM-15+0021GMTT V02099999999992200019N9999999N1+99999+99999999999ADDMW1001REMMET050GMTT 120400Z AUTO 09014KT CAVOK 13/10 Q1030 NOSIG;EQDQ01+000000PRSWM2
0097601010999992002011205004+35730-005890FM-15+0021GMTT V0200901N00771220001CN0099001N1+01301+00901999999ADDMA1102911999999MW1001REMMET045GMTT 120500Z 09015KT CAVOK 13/09 Q1029 NOSIG;EQDQ01+000000PRSWM2
0275601010999992002011206004+35730-005890SY-MT+0021GMTT V0201001N007212200019N0100001N1+01301+00931102991ADDAA199000091GA1021+060009019GF102991001001999999001021KA1120N+01301MA1102911999999MD1710041+9999MW1001REMSYN076AAXX  12064 60101 32960 21014 10130 20093 40299 57004 80002 333 20130 82070;MET045GMTT 120600Z 10014KT CAVOK 13/09 Q1029 NOSIG;EQDQ01+000000PRSWM2Q02  00002PRCP99
0097601010999992002011207004+35730-005890FM-15+0021GMTT V0201001N00621220001CN0099001N1+01301+00901999999ADDMA1103011999999MW1001REMMET045GMTT 120700Z 10012KT CAVOK 13/09 Q1030 NOSIG;EQDQ01+000000PRSWM2
0097601010999992002011208004+35730-005890FM-15+0021GMTT V0201001N00511220001CN0099001N1+01301+00901999999ADDMA1103011999999MW1001REMMET045GMTT 120800Z 10010KT CAVOK 13/09 Q1030 NOSIG;EQDQ01+000000PRSWM2
0256601010999992002011209004+35730-005890SY-MT+0021GMTT V0201001N005112200019N0100001N1+01381+00991103141ADDAA199000091GA1041+060009019GF104991001001999999001021MA1103121999999MD1210151+9999MW1001REMSYN070AAXX  12094 60101 32960 41010 10138 20099 40314 52015 80002 333 84070;MET045GMTT 120900Z 10010KT CAVOK 14/10 Q1031 NOSIG;EQDQ01+000000PRSWM2Q02  00002PRCP99
0097601010999992002011210004+35730-005890FM-15+0021GMTT V0201001N00771220001CN0099001N1+01601+01101999999ADDMA1103121999999MW1001REMMET045GMTT 121000Z 10015KT CAVOK 16/11 Q1031 NOSIG;EQDQ01+000000PRSWM2
0097601010999992002011211004+35730-005890FM-15+0021GMTT V0201001N00671220001CN0099001N1+01701+01101999999ADDMA1103181999999MW1001REMMET045GMTT 121100Z 10013KT CAVOK 17/11 Q1032 NOSIG;EQDQ01+000000PRSWM2
0256601010999992002011212004+35730-005890SY-MT+0021GMTT V0200901N007212200019N0100001N1+01861+01131103171ADDAA199000091GA1021+060009019GF102991001001999999001021MA1103121999999MD1010031+9999MW1001REMSYN070AAXX  12124 60101 32960 20914 10186 20113 40317 50003 80002 333 82070;MET045GMTT 121200Z 09014KT CAVOK 19/11 Q1031 NOSIG;EQDQ01+000000PRSWM2Q02  00002PRCP99
0097601010999992002011213004+35730-005890FM-15+0021GMTT V0200901N00671220001CN0099001N1+01901+01201999999ADDMA1103011999999MW1001REMMET045GMTT 121300Z 09013KT CAVOK 19/12 Q1030 NOSIG;EQDQ01+000000PRSWM2
0097601010999992002011214004+35730-005890FM-15+0021GMTT V0201001N00671220001CN0099001N1+01901+01201999999ADDMA1103011999999MW1001REMMET045GMTT 121400Z 10013KT CAVOK 19/12 Q1030 NOSIG;EQDQ01+000000PRSWM2
0256601010999992002011215004+35730-005890SY-MT+0021GMTT V0200901N006212200019N0100001N1+01851+01051103001ADDAA199000091GA1021+060009019GF102991001001999999001021MA1103011999999MD1610171+9999MW1001REMSYN070AAXX  12154 60101 32960 20912 10185 20105 40300 56017 80002 333 82070;MET045GMTT 121500Z 09012KT CAVOK 19/11 Q1030 NOSIG;EQDQ01+000000PRSWM2Q02  00002PRCP99
0097601010999992002011216004+35730-005890FM-15+0021GMTT V0201001N00621220001CN0099001N1+01801+01001999999ADDMA1103011999999MW1001REMMET045GMTT 121600Z 10012KT CAVOK 18/10 Q1030 NOSIG;EQDQ01+000000PRSWM2
0097601010999992002011217004+35730-005890FM-15+0021GMTT V0201001N00671220001CN0099001N1+01601+01001999999ADDMA1103011999999MW1001REMMET045GMTT 121700Z 10013KT CAVOK 16/10 Q1030 NOSIG;EQDQ01+000000PRSWM2
0281601010999992002011218004+35730-005890SY-MT+0021GMTT V0200901N005112200019N0080001N1+01461+00921103061ADDAA199000091GA1021+060009999GF103991001001999999001021KA1120M+01911MA1103011999999MD1210051+9999MW1001REMSYN076AAXX  12184 60101 32958 30910 10146 20092 40306 52005 80002 333 10191 83070;MET051GMTT 121800Z 09010KT 8000 SCT200 15/09 Q1030 NOSIG;EQDQ01+000000PRSWM2Q02  00002PRCP99
0145601010999992002011219004+35730-005890FM-15+0021GMTT V0201001N006712200019N0080001N1+01301+00901999999ADDGA1021+060009999GF104991999999999999999999MA1103011999999MW1001REMMET051GMTT 121900Z 10013KT 8000 SCT200 13/09 Q1030 NOSIG;EQDQ01+000000PRSWM2
0145601010999992002011220004+35730-005890FM-15+0021GMTT V0201001N005112200019N0080001N1+01401+00901999999ADDGA1021+060009999GF104991999999999999999999MA1103121999999MW1001REMMET051GMTT 122000Z 10010KT 8000 SCT200 14/09 Q1031 NOSIG;EQDQ01+000000PRSWM2
0262601010999992002011221004+35730-005890SY-MT+0021GMTT V0201001N004612200019N0080001N1+01301+00911103151ADDAA199000091GA1021+060009999GF103991001001999999001021MA1103121999999MD1310101+9999MW1001REMSYN070AAXX  12214 60101 32958 31009 10130 20091 40315 53010 80002 333 83070;MET051GMTT 122100Z 10009KT 8000 SCT200 13/09 Q1031 NOSIG;EQDQ01+000000PRSWM2Q02  00002PRCP99
0145601010999992002011222004+35730-005890FM-15+0021GMTT V0201001N004112200019N0080001N1+01301+00901999999ADDGA1021+060009999GF104991999999999999999999MA1103121999999MW1001REMMET051GMTT 122200Z 10008KT 8000 SCT200 13/09 Q1031 NOSIG;EQDQ01+000000PRSWM2
0145601010999992002011223004+35730-005890FM-15+0021GMTT V0201001N006712200019N0080001N1+01201+00901999999ADDGA1021+060009999GF104991999999999999999999MA1103121999999MW1001REMMET051GMTT 122300Z 10013KT 8000 SCT200 12/09 Q1031 NOSIG;EQDQ01+000000PRSWM2
0262601010999992002011300004+35730-005890SY-MT+0021GMTT V0201101N004612200019N0080001N1+01231+00881103151ADDAA199000091GA1021+060009999GF103991001001999999001021MA1103121999999MD1410001+9999MW1001REMSYN070AAXX  13004 60101 32958 31109 10123 20088 40315 54000 80002 333 83070;MET051GMTT 130000Z 11009KT 8000 SCT200 12/09 Q1031 NOSIG;EQDQ01+000000PRSWM2Q02  00002PRCP99
0145601010999992002011301004+35730-005890FM-15+0021GMTT V0201101N006712200019N0080001N1+01201+00901999999ADDGA1021+060009999GF104991999999999999999999MA1103121999999MW1001REMMET051GMTT 130100Z 11013KT 8000 SCT200 12/09 Q1031 NOSIG;EQDQ01+000000PRSWM2
0134601010999992002011302004+35730-005890FM-15+0021GMTT V0200501N003112200019N0080001N1+01201+00901999999ADDGF100991999999999999999999MA1103121999999MW1001REMMET056GMTT 130200Z 05006KT 010V090 8000 SKC 12/09 Q1031 NOSIG;EQDQ01+000000PRSWM2
0204601010999992002011303004+35730-005890SY-MT+0021GMTT V0200801N003112200019N0500001N1+01011+00781103131ADDAA199000091GF100991001001999999001001MA1103121999999MW1001REMSYN048AAXX  13034 60101 32999 00806 10101 20078 40313;MET045GMTT 130300Z 08006KT CAVOK 10/08 Q1031 NOSIG;EQDQ01+000000PRSWM2Q02  00002PRCP99
0097601010999992002011304004+35730-005890FM-15+0021GMTT V0200901N00511220001CN0099001N1+01101+00901999999ADDMA1103121999999MW1001REMMET045GMTT 130400Z 09010KT CAVOK 11/09 Q1031 NOSIG;EQDQ01+000000PRSWM2
0126601010999992002011305004+35730-005890FM-15+0021GMTT V0200901N005712200019N0080001N1+01101+00901999999ADDGF100991999999999999999999MA1103121999999MW1001REMMET048GMTT 130500Z 09011KT 8000 SKC 11/09 Q1031 NOSIG;EQDQ01+000000PRSWM2
0250601010999992002011306004+35730-005890SY-MT+0021GMTT V0200901N005712200019N0080001N1+01071+00841103081ADDAA199000091GF100991001001999999001001KA1999N+00981MA1103011999999MD1810051+9999MW1001REMSYN064AAXX  13064 60101 32958 00911 10107 20084 40308 58005 333 20098;MET048GMTT 130600Z 09011KT 8000 SKC 11/08 Q1030 NOSIG;EQDQ01+000000PRSWM2Q02  00002PRCP99
0126601010999992002011307004+35730-005890FM-15+0021GMTT V0200901N005712200019N0080001N1+01101+00901999999ADDGF100991999999999999999999MA1103121999999MW1001REMMET048GMTT 130700Z 09011KT 8000 SKC 11/09 Q1031 NOSIG;EQDQ01+000000PRSWM2
0145601010999992002011308004+35730-005890FM-15+0021GMTT V0200901N005712200019N0080001N1+01201+00901999999ADDGA1021+060009999GF104991999999999999999999MA1103121999999MW1001REMMET051GMTT 130800Z 09011KT 8000 SCT200 12/09 Q1031 NOSIG;EQDQ01+000000PRSWM2
0262601010999992002011309004+35730-005890SY-MT+0021GMTT V0201001N005112200019N0080001N1+01271+00971103171ADDAA199000091GA1021+060009999GF103991001001999999001011MA1103121999999MD1310091+9999MW1001REMSYN070AAXX  13094 60101 32958 31010 10127 20097 40317 53009 80001 333 83070;MET051GMTT 130900Z 09011KT 8000 SCT200 13/10 Q1031 NOSIG;EQDQ01+000000PRSWM2Q02  00002PRCP99
0097601010999992002011310004+35730-005890FM-15+0021GMTT V0201001N00571220001CN0099001N1+01401+01101999999ADDMA1103121999999MW1001REMMET045GMTT 131000Z 10011KT CAVOK 14/11 Q1031 NOSIG;EQDQ01+000000PRSWM2
0097601010999992002011311004+35730-005890FM-15+0021GMTT V0201001N00511220001CN0099001N1+01601+01101999999ADDMA1103181999999MW1001REMMET045GMTT 131100Z 10010KT CAVOK 16/11 Q1032 NOSIG;EQDQ01+000000PRSWM2
0256601010999992002011312004+35730-005890SY-MT+0021GMTT V0200501N003110600019N0100001N1+01781+01031103201ADDAA199000091GA1051+060009019GF105991001001999999001021MA1103181999999MD1010031+9999MW1001REMSYN070AAXX  13124 60101 32960 50506 10178 20103 40320 50003 80002 333 85070;MET045GMTT 131200Z 05006KT CAVOK 18/11 Q1032 NOSIG;EQDQ01+000000PRSWM2Q02  00002PRCP99
0097601010999992002011313004+35730-005890FM-15+0021GMTT V0200701N00671220001CN0099001N1+01701+01201999999ADDMA1103011999999MW1001REMMET045GMTT 131300Z 07013KT CAVOK 17/12 Q1030 NOSIG;EQDQ01+000000PRSWM2
0097601010999992002011314004+35730-005890FM-15+0021GMTT V0200601N00511220001CN0099001N1+01701+01201999999ADDMA1103011999999MW1001REMMET045GMTT 131400Z 06010KT CAVOK 17/12 Q1030 NOSIG;EQDQ01+000000PRSWM2
0286601010999992002011315004+35730-005890SY-MT+0021GMTT V0200301N002610600019N0100001N1+01781+01201102961ADDAA199000091GA1041+030009079GA2061+060009019GF107991041001999999081021MA1102911999999MD1810231+9999MW1001REMSYN076AAXX  13154 60101 32960 70305 10178 20120 40296 58023 84082 333 84360 86070;MET053GMTT 131500Z 03005KT 360V070 CAVOK 18/12 Q1029 NOSIG;EQDQ01+000000PRSWM2Q02  00002PRCP99
0097601010999992002011316004+35730-005890FM-15+0021GMTT V0200301N00361220001CN0099001N1+01701+01201999999ADDMA1102911999999MW1001REMMET045GMTT 131600Z 03007KT CAVOK 17/12 Q1029 NOSIG;EQDQ01+000000PRSWM2
0176601010999992002011317004+35730-005890FM-15+0021GMTT V0200301N002110069019N0112651N1+01601+01101999999ADDGA1071+006909999GA2071+030009999GF107991999999999999999999MA1102911999999MW1001REMMET066GMTT 131700Z 03004KT 010V070 9999 BKN023 BKN100 16/11 Q1029 NOSIG;EQDQ01+000000PRSWM2
0329601010999992002011318004+35730-005890SY-MT+0021GMTT V0200201N007210069019N0100001N1+01511+01131102951ADDAA199000091GA1071+006909999GA2071+030009999GF107991051051008001081999KA1120M+01811MA1102911999999MD1510011+9999MW1001OC101081REMSYN082AAXX  13184 60101 32560 70214 10151 20113 40295 55001 8558/ 333 10181 85623 86360;MET069GMTT 131800Z 36010G21KT 340V060 9999 BKN023 BKN100 15/11 Q1029 NOSIG;EQDQ01+000000PRSWM2Q02  00002PRCP99
0166601010999992002011319004+35730-005890FM-15+0021GMTT V0200301N00311220001CN0112651N1+01401+01101999999ADDGA1071+006909999GA2021+030009999MA1102911999999MW1001REMMET066GMTT 131900Z 03006KT 350V100 9999 BKN023 SCT100 14/11 Q1029 NOSIG;EQDQ01+000042SCOTCVQ02+000000PRSWM2
0158601010999992002011320004+35730-005890FM-15+0021GMTT V0201001N00151220001CN0112651N1+01401+01101999999ADDGA1071+006909999GA2021+030009999MA1102911999999MW1001REMMET058GMTT 132000Z 10003KT 9999 BKN023 SCT100 14/11 Q1029 NOSIG;EQDQ01+000042SCOTCVQ02+000000PRSWM2
0291601010999992002011321004+35730-005890SY-MT+0021GMTT V0201001N001512200019N0100001N1+01221+00981102941ADDAA199000091GA1021+006009999GA2021+060009999GF104991021051008001001021MA1102911999999MD1810011+9999MW1001REMSYN076AAXX  13214 60101 32560 41003 10122 20098 40294 58001 82502 333 82620 83070;MET058GMTT 132100Z 10003KT 9999 FEW020 SCT200 12/10 Q1029 NOSIG;EQDQ01+000000PRSWM2Q02  00002PRCP99
0149601010999992002011322304+35730-005890FM-15+0021GMTT V0200901N001512200019N0112651N1+01101+00901999999ADDGA1021+006009999GA2021+060009999GF104991999999999999999999MA1102911999999MW1001REMMET058GMTT 132230Z 09003KT 9999 FEW020 SCT200 11/09 Q1029 NOSIG;
0149601010999992002011323004+35730-005890FM-15+0021GMTT V0200901N001012200019N0112651N1+01101+00901999999ADDGA1021+006009999GA2021+060009999GF104991999999999999999999MA1102911999999MW1001REMMET058GMTT 132300Z 09002KT 9999 FEW020 SCT200 11/09 Q1029 NOSIG;
0233601010999992002011400004+35730-005890SY-MT+0021GMTT V0201101N001012200019N0080001N1+00931+00791102911ADDAA199000091GF100991001001999999001001MA1102911999999MD1810031+9999MW1001REMSYN060AAXX  14004 60101 32958 01102 10093 20079 40291 58003 92352;MET048GMTT 140000Z 11002KT 8000 SKC 09/08 Q1029 NOSIG;EQDQ01+000000PRSWM2Q02  00002PRCP99
0107601010999992002011401004+35730-005890FM-15+0021GMTT V02099999999992200019N0080001N1+00801+00701999999ADDGF100991999999999999999999MA1102811999999MW1001REMMET048GMTT 140100Z 00000KT 8000 SKC 08/07 Q1028 NOSIG;
0107601010999992002011402004+35730-005890FM-15+0021GMTT V0201001N001512200019N0080001N1+00901+00801999999ADDGF100991999999999999999999MA1102811999999MW1001REMMET048GMTT 140200Z 10003KT 8000 SKC 09/08 Q1028 NOSIG;
0236601010999992002011403004+35730-005890SY-MT+0021GMTT V0200101N003612200019N0080001N1+00901+00781102851ADDAA199000091GF100991001001999999001001MA1102811999999MD1510061+9999MW1001REMSYN054AAXX  14034 60101 32958 00107 10090 20078 40285 55006;MET057GMTT 140300Z 02006KT 330V090 8000 SKC 09/08 Q1028 NOSQIG;EQDQ01+000000PRSWM2Q02  00002PRCP99
0127601010999992002011404004+35730-005890FM-15+0021GMTT V0200201N001512200019N0080001N1+00901+00801999999ADDGF100991999999999999999999MA1102811999999MW1001REMMET049GMTT 140400Z 02003KT 8000 SKC 09/08 Q1028 NOSQIG;EQDQ01+000000PRSWM2
0127601010999992002011405004+35730-005890FM-15+0021GMTT V0200201N004112200019N0080001N1+01201+01101999999ADDGF100991999999999999999999MA1102811999999MW1001REMMET049GMTT 140500Z 02008KT 8000 SKC 12/11 Q1028 NOSQIG;EQDQ01+000000PRSWM2
0251601010999992002011406004+35730-005890SY-MT+0021GMTT V0200301N001012200019N0080001N1+01001+00791102801ADDAA199000091GF100991001001999999001001KA1999N+00831MA1102711999999MD1610051+9999MW1001REMSYN064AAXX  14064 60101 32958 00302 10100 20079 40280 56005 333 20083;MET049GMTT 140600Z 02003KT 8000 SKC 10/08 Q1027 NOSQIG;EQDQ01+000000PRSWM2Q02  00002PRCP99
0127601010999992002011407004+35730-005890FM-15+0021GMTT V0200801N001012200019N0080001N1+00901+00701999999ADDGF100991999999999999999999MA1102811999999MW1001REMMET049GMTT 140700Z 08002KT 8000 SKC 09/07 Q1028 NOSQIG;EQDQ01+000000PRSWM2
0154601010999992002011408004+35730-005890FM-15+0021GMTT V0200801N002112200019N0060001N1+00801+00701999999ADDGA1021+060009999GF102991999999999999999999MA1102811999999MW1001REMMET060GMTT 140800Z 08004KT 350V160 6000 FEW200 08/07 Q1028 NOSQIG;EQDQ01+000000PRSWM2
0262601010999992002011409004+35730-005890SY-MT+0021GMTT V0203501N005712200019N0080001N1+01111+00981102871ADDAA199000091GA1021+060009999GF102991001001999999001021MA1102811999999MD1210071+9999MW1001REMSYN070AAXX  14094 60101 32958 23511 10111 20098 40287 52007 80002 333 82070;MET051GMTT 140900Z 35011KT 8000 FEW200 11/09 Q1028 NOSIG;EQDQ01+000000PRSWM2Q02  00002PRCP99
0097601010999992002011410004+35730-005890FM-15+0021GMTT V0203401N00571220001CN0099001N1+01601+01201999999ADDMA1102911999999MW1001REMMET045GMTT 141000Z 34011KT CAVOK 16/12 Q1029 NOSIG;EQDQ01+000000PRSWM2
0145601010999992002011411004+35730-005890FM-15+0021GMTT V0203301N006212200019N0112651N1+01701+01201999999ADDGA1021+004809999GF102991999999999999999999MA1102911999999MW1001REMMET051GMTT 141100Z 33012KT 9999 FEW016 17/12 Q1029 NOSIG;EQDQ01+000000PRSWM2
0278601010999992002011412004+35730-005890SY-MT+0021GMTT V0203301N005712200019N0100001N1+01731+01231102881ADDAA199000091GA1021+004809999GF199999011051004501001001MA1102811999999MD1010011+9999MW1001REMSYN070AAXX  14124 60101 32460 13311 10173 20123 40288 50001 81500 333 81616;MET051GMTT 141200Z 33011KT 9999 FEW016 17/12 Q1028 NOSIG;EQDQ01+000012SCOTCVQ02+000000PRSWM2Q03  00002PRCP99
0145601010999992002011413004+35730-005890FM-15+0021GMTT V0203201N004612200019N0112651N1+01801+01101999999ADDGA1021+004809999GF102991999999999999999999MA1102711999999MW1001REMMET051GMTT 141300Z 32009KT 9999 FEW016 18/11 Q1027 NOSIG;EQDQ01+000000PRSWM2
0145601010999992002011414004+35730-005890FM-15+0021GMTT V0203201N004112200019N0112651N1+01801+01201999999ADDGA1021+004809999GF102991999999999999999999MA1102711999999MW1001REMMET051GMTT 141400Z 32008KT 9999 FEW016 18/12 Q1027 NOSIG;EQDQ01+000000PRSWM2
0262601010999992002011415004+35730-005890SY-MT+0021GMTT V0203201N004612200019N0100001N1+01721+01091102691ADDAA199000091GA1021+004809999GF102991021051004501001001MA1102611999999MD1610191+9999MW1001REMSYN070AAXX  14154 60101 32460 23209 10172 20109 40269 56019 82500 333 82616;MET051GMTT 141500Z 32009KT 9999 FEW016 17/11 Q1026 NOSIG;EQDQ01+000000PRSWM2Q02  00002PRCP99
0145601010999992002011416004+35730-005890FM-15+0021GMTT V0203201N005712200019N0112651N1+01701+01001999999ADDGA1021+004809999GF102991999999999999999999MA1102611999999MW1001REMMET051GMTT 141600Z 32011KT 9999 FEW016 17/10 Q1026 NOSIG;EQDQ01+000000PRSWM2
0145601010999992002011417004+35730-005890FM-15+0021GMTT V0203201N004612200019N0112651N1+01601+01101999999ADDGA1021+004809999GF102991999999999999999999MA1102711999999MW1001REMMET051GMTT 141700Z 32009KT 9999 FEW016 16/11 Q1027 NOSIG;EQDQ01+000000PRSWM2
0145601010999992002011418304+35730-005890FM-15+0021GMTT V0203401N004112200019N0112651N1+01301+01001999999ADDGA1021+004809999GF102991999999999999999999MA1102711999999MW1001REMMET051GMTT 141830Z 34008KT 9999 FEW016 13/10 Q1027 NOSIG;EQDQ01+000000PRSWM2
0145601010999992002011419004+35730-005890FM-15+0021GMTT V0203201N003112200019N0112651N1+01201+01001999999ADDGA1021+004809999GF102991999999999999999999MA1102711999999MW1001REMMET051GMTT 141900Z 32006KT 9999 FEW016 12/10 Q1027 NOSIG;EQDQ01+000000PRSWM2
0153601010999992002011420004+35730-005890FM-15+0021GMTT V0200901N002112200019N0112651N1+01101+00901999999ADDGA1021+004809999GF102991999999999999999999MA1102711999999MW1001REMMET059GMTT 142000Z 09004KT 340V130 9999 FEW016 11/09 Q1027 NOSIG;EQDQ01+000000PRSWM2
0262601010999992002011421004+35730-005890SY-MT+0021GMTT V0200901N002612200019N0080001N1+00991+00831102701ADDAA199000091GA1021+004509999GF102991021051004501001001MA1102711999999MD1710021+9999MW1001REMSYN070AAXX  14214 60101 32458 20905 10099 20083 40270 57002 82500 333 82615;MET051GMTT 142100Z 09005KT 8000 FEW015 10/08 Q1027 NOSIG;EQDQ01+000000PRSWM2Q02  00002PRCP99
0145601010999992002011422004+35730-005890FM-15+0021GMTT V0200901N003612200019N0080001N1+01001+00801999999ADDGA1021+003909999GF102991999999999999999999MA1102711999999MW1001REMMET051GMTT 142200Z 09007KT 8000 FEW013 10/08 Q1027 NOSIG;EQDQ01+000000PRSWM2
0145601010999992002011423004+35730-005890FM-15+0021GMTT V0200901N004112200019N0080001N1+01001+00901999999ADDGA1021+003909999GF102991999999999999999999MA1102711999999MW1001REMMET051GMTT 142300Z 09008KT 8000 FEW013 10/09 Q1027 NOSIG;EQDQ01+000000PRSWM2
0268601010999992002011500004+35730-005890SY-MT+0021GMTT V0201001N003112200019N0070001N1+00901+00751102701ADDAA199000091GA1021+003909999GF102991021051004501001001MA1102711999999MD1010001+9999MW1001REMSYN076AAXX  15004 60101 33457 21006 10090 20075 40270 50000 82500 92350 333 82613;MET051GMTT 150000Z 10006KT 7000 FEW013 09/08 Q1027 NOSIG;EQDQ01+000000PRSWM2Q02  00002PRCP99
0145601010999992002011501004+35730-005890FM-15+0021GMTT V0201001N003612200019N0070001N1+00901+00701999999ADDGA1021+003909999GF102991999999999999999999MA1102611999999MW1001REMMET051GMTT 150100Z 10007KT 7000 FEW013 09/07 Q1026 NOSIG;EQDQ01+000000PRSWM2
0145601010999992002011502004+35730-005890FM-15+0021GMTT V0201001N002112200019N0070001N1+00901+00801999999ADDGA1021+003909999GF102991999999999999999999MA1102511999999MW1001REMMET051GMTT 150200Z 10004KT 7000 FEW013 09/08 Q1025 NOSIG;EQDQ01+000000PRSWM2
