0175601010999991999010100004+35730-005900SY-MT+0021GMTT V0203001N012310060019N0080001N1+01301+00431100591ADDAA199002091GA1021+002409999GA2021+003909999GA3021+006009099GF107991999999004501999999MA1101492999999MD1310091+9999MW1001REMMET008NEW NSG;EQDQ01+101493APOA  Q02+000000PRSWM2
0135601010999991999010100304+35730-005900FM-15+0021GMTT V0203001N010312200019N0080001N1+01301+00401999999ADDGA1021+002409999GA2021+003909999GA3021+006909099GF102991999999999999999999MA1100512999999MW1001REMMET009NEW RESH;EQDQ01+000000PRSWM2
0134601010999991999010101304+35730-005900FM-15+0021GMTT V0203001N012312200019N0080001N1+01001+00801999999ADDGA1021+002409999GA2021+003909999GA3021+006909099GF102991999999999999999999MA1100611999999MW1001REMMET008NEW NSG;EQDQ01+000000PRSWM2
0209601010999991999010103004+35730-005900SY-MT+0021GMTT V0203201N011310060019N0080001N1+01211+00551100681ADDAY181031AY221031GA1021+002409999GA2021+003909999GA3021+006009099GF107991071091002501999999MA1100611999999MD1310091+9999MW1021REMSYN023 333 82708 84813 82920;MET008NEW NSG;EQDQ01+000000PRSWM2Q02    003PRSWM1
0134601010999991999010103304+35730-005900FM-15+0021GMTT V0203201N011312200019N0080001N1+01201+00601999999ADDGA1021+002409999GA2021+003909999GA3021+006009099GF102991999999999999999999MA1100611999999MW1001REMMET008NEW NSG;EQDQ01+000000PRSWM2
0134601010999991999010104304+35730-005900FM-15+0021GMTT V0203201N011312200019N0080001N1+01201+00701999999ADDGA1021+002409999GA2021+003909999GA3021+006009099GF102991999999999999999999MA1100611999999MW1001REMMET008NEW NSG;EQDQ01+000000PRSWM2
0233601010999991999010106004+35730-005900SY-MT+0021GMTT V0203201N011310060019N0080001N1+01201+00441100861ADDAA199015091AY121061AY281061GA1021+002409999GA2021+003909999GA3021+006009099GF106991061091002501001001KA1120N+00931MA1100711999999MD1310181+9999MW1021REMSYN023 333 20093 84813 82920;MET008NEW NSG;EQDQ01+000000PRSWM2Q02    003PRSWM1
0118601010999991999010106304+35730-005900FM-15+0021GMTT V0203201N010312200019N0080001N1+01201+00401999999ADDGA1021+003909999GA2021+006909099GF102991999999999999999999MA1100811999999MW1001REMMET008NEW NSG;EQDQ01+000000PRSWM2
0104601010999991999010108004+35730-005900FM-15+0021GMTT V0203201N010312200019N0112651N1+01201+00401999999ADDGA1021+003909999GF104991999999999999999999MA1101021999999MW1001REMMET010NEW NOSIG;EQDQ01+000000PRSWM2
0162601010999991999010109004+35730-005900SY-MT+0021GMTT V0203201N009312200019N0100001N1+01201+00301101081ADDAA199000091GA1021+003909999GF104991041021004501001001MA1101021999999MD1210221+9999MW1001REMSYN011 333 84813;MET010NEW NOSIG;EQDQ01+000000PRSWM2Q02  00002PRCP99
0104601010999991999010109304+35730-005900FM-15+0021GMTT V0203001N008212200019N0112651N1+01201+00301999999ADDGA1021+003909999GF104991999999999999999999MA1101021999999MW1001REMMET010NEW NOSIG;EQDQ01+000000PRSWM2
0104601010999991999010110304+35730-005900FM-15+0021GMTT V0203001N009312200019N0112651N1+01401+00401999999ADDGA1021+003909999GF104991999999999999999999MA1101081999999MW1001REMMET010NEW NOSIG;EQDQ01+000000PRSWM2
0162601010999991999010112004+35730-005900SY-MT+0021GMTT V0203001N009312200019N0150001N1+01441+00431101281ADDAA199000091GA1021+003909999GF104991041021004501001001MA1101191999999MD1210201+9999MW1001REMSYN011 333 84813;MET010NEW NOSIG;EQDQ01+000000PRSWM2Q02  00002PRCP99
0104601010999991999010112304+35730-005900FM-15+0021GMTT V0203001N009312200019N0112651N1+01401+00401999999ADDGA1021+003909999GF104991999999999999999999MA1101191999999MW1001REMMET010NEW NOSIG;EQDQ01+000000PRSWM2
0104601010999991999010113304+35730-005900FM-15+0021GMTT V0203001N010312200019N0112651N1+01401+00401999999ADDGA1021+003909999GF104991999999999999999999MA1101191999999MW1001REMMET010NEW NOSIG;EQDQ01+000000PRSWM2
0178601010999991999010115004+35730-005900SY-MT+0021GMTT V0202801N011319999999N0100001N1+01481+00351101321ADDAA199000091GA1021+004509999GF105991999021004501001001MA1101191999999MD1310041+9999MW1001REMSYN011 333 84815;MET010NEW NOSIG;EQDQ01+000042SCOTLCQ02+000000PRSWM2Q03  00002PRCP99
0105601010999991999010115304+35730-005900FM-15+0021GMTT V0202801N011312200019N0112651N1+99999+99999999999ADDGA1021+004809999GF104991999999999999999999MW1001REMMET026NEW TCU 15/04 Q1013 NOSIG;EQDQ01+000000PRSWM2
0105601010999991999010116304+35730-005900FM-15+0021GMTT V0202801N010312200019N0112651N1+99999+99999999999ADDGA1021+004809999GF104991999999999999999999MW1001REMMET026NEW TCU 14/04 Q1013 NOSIG;EQDQ01+000000PRSWM2
0181601010999991999010118004+35730-005900SY-MT+0021GMTT V0203201N010312200019N0100001N1+01301+00481101541ADDAA199000091GA1021+004809999GF103991031081004501001001KA1120M+01541MA1101491999999MD1210201+9999MW1001REMSYN017 333 10154 83816;MET010NEW NOSIG;EQDQ01+000000PRSWM2Q02  00002PRCP99
0104601010999991999010118304+35730-005900FM-15+0021GMTT V0202801N007212200019N0112651N1+01301+00501999999ADDGA1021+004809999GF104991999999999999999999MA1101491999999MW1001REMMET010NEW NOSIG;EQDQ01+000000PRSWM2
0104601010999991999010119304+35730-005900FM-15+0021GMTT V0202601N007212200019N0112651N1+01301+00601999999ADDGA1021+004809999GF102991999999999999999999MA1101591999999MW1001REMMET010NEW NOSIG;EQDQ01+000000PRSWM2
0162601010999991999010121004+35730-005900SY-MT+0021GMTT V0203201N006212200019N0100001N1+01151+00681101841ADDAA199000091GA1021+004509999GF103991031021004501001001MA1101801999999MD1310301+9999MW1001REMSYN011 333 83815;MET010NEW NOSIG;EQDQ01+000000PRSWM2Q02  00002PRCP99
0104601010999991999010121304+35730-005900FM-15+0021GMTT V0203201N005112200019N0112651N1+01201+00701999999ADDGA1021+004509999GF104991999999999999999999MA1101801999999MW1001REMMET010NEW NOSIG;EQDQ01+000000PRSWM2
0104601010999991999010122304+35730-005900FM-15+0021GMTT V0202401N004112200019N0112651N1+01201+00701999999ADDGA1021+004509999GF104991999999999999999999MA1101901999999MW1001REMMET010NEW NOSIG;EQDQ01+000000PRSWM2
0178601010999991999010200004+35730-005900SY-MT+0021GMTT V0201601N002110045019N0100001N1+00951+00741102021ADDAA199000091GA1071+004509999GF199999051051004501001001MA1101901999999MD1310181+9999MW1001REMSYN011 333 85615;MET010NEW NOSIG;EQDQ01+000052SCOTCVQ02+000000PRSWM2Q03  00002PRCP99
0104601010999991999010201004+35730-005900FM-15+0021GMTT V0201601N005712200019N0112651N1+00901+00701999999ADDGA1021+004509999GF104991999999999999999999MA1102001999999MW1001REMMET010NEW NOSIG;EQDQ01+000000PRSWM2
0104601010999991999010202004+35730-005900FM-15+0021GMTT V0202001N005112200019N0112651N1+00901+00701999999ADDGA1021+004509999GF104991999999999999999999MA1102001999999MW1001REMMET010NEW NOSIG;EQDQ01+000000PRSWM2
0162601010999991999010203004+35730-005900SY-MT+0021GMTT V0202001N005112200019N0100001N1+00861+00741102061ADDAA199000091GA1021+004509999GF102991021051004501001001MA1102001999999MD1310041+9999MW1001REMSYN011 333 82615;MET010NEW NOSIG;EQDQ01+000000PRSWM2Q02  00002PRCP99
0104601010999991999010203304+35730-005900FM-15+0021GMTT V0202001N005112200019N0112651N1+00901+00701999999ADDGA1021+004509999GF102991999999999999999999MA1102001999999MW1001REMMET010NEW NOSIG;EQDQ01+000000PRSWM2
0104601010999991999010204304+35730-005900FM-15+0021GMTT V0202001N005712200019N0112651N1+00901+00701999999ADDGA1021+004509999GF102991999999999999999999MA1102101999999MW1001REMMET010NEW NOSIG;EQDQ01+000000PRSWM2
0181601010999991999010206004+35730-005900SY-MT+0021GMTT V0201001N005112200019N0100001N1+01001+00611102101ADDAA199000091GA1021+004509999GF102991021051004501001001KA1120N+00731MA1102101999999MD1110021+9999MW1001REMSYN017 333 20073 82615;MET010NEW NOSIG;EQDQ01+000000PRSWM2Q02  00002PRCP99
0104601010999991999010206304+35730-005900FM-15+0021GMTT V0202001N005112200019N0112651N1+01001+00601999999ADDGA1021+004509999GF102991999999999999999999MA1102101999999MW1001REMMET010NEW NOSIG;EQDQ01+000000PRSWM2
0104601010999991999010207304+35730-005900FM-15+0021GMTT V0202001N005112200019N0112651N1+01001+00601999999ADDGA1021+004509999GF102991999999999999999999MA1102101999999MW1001REMMET010NEW NOSIG;EQDQ01+000000PRSWM2
0162601010999991999010209004+35730-005900SY-MT+0021GMTT V0201201N001512200019N0100001N1+01061+00571102331ADDAA199000091GA1021+004509999GF102991021021004501001021MA1102201999999MD1210231+9999MW1001REMSYN011 333 82815;MET010NEW NOSIG;EQDQ01+000000PRSWM2Q02  00002PRCP99
0104601010999991999010209304+35730-005900FM-15+0021GMTT V0201801N004112200019N0112651N1+01101+00601999999ADDGA1021+004509999GF102991999999999999999999MA1102301999999MW1001REMMET010NEW NOSIG;EQDQ01+000000PRSWM2
0104601010999991999010210304+35730-005900FM-15+0021GMTT V0201801N005112200019N0112651N1+01401+00701999999ADDGA1021+004509999GF102991999999999999999999MA1102401999999MW1001REMMET010NEW NOSIG;EQDQ01+000000PRSWM2
0168601010999991999010212004+35730-005900SY-MT+0021GMTT V0201801N005112200019N0100001N1+01591+00701102501ADDAA199000091GA1021+004809999GF103991021021004501001021MA1102401999999MD1210141+9999MW1001REMSYN017 333 82616 83073;MET010NEW NOSIG;EQDQ01+000000PRSWM2Q02  00002PRCP99
0090601010999991999010213004+35730-005900FM-15+0021GMTT V02099999999992200019N9999999N1+99999+99999999999ADDMW1001REMMET053NEW 021300Z ///// 9999 FEW016 SCT233 17/07 Q1025 NSG;EQDQ01+000000PRSWM2
0120601010999991999010214004+35730-005900FM-15+0021GMTT V0202601N006212200019N0112651N1+01701+00801999999ADDGA1021+004809999GA2021+069009999GF104991999999999999999999MA1102401999999MW1001REMMET010NEW NOSIG;EQDQ01+000000PRSWM2
0120601010999991999010214304+35730-005900FM-15+0021GMTT V0202601N006212200019N0112651N1+01701+00801999999ADDGA1021+004809999GA2021+069009999GF104991999999999999999999MA1102401999999MW1001REMMET010NEW NOSIG;EQDQ01+000000PRSWM2
0120601010999991999010215304+35730-005900FM-15+0021GMTT V0202601N005112200019N0112651N1+01601+00801999999ADDGA1021+004809999GA2021+069009999GF104991999999999999999999MA1102401999999MW1001REMMET010NEW NOSIG;EQDQ01+000000PRSWM2
0120601010999991999010216304+35730-005900FM-15+0021GMTT V0202601N005112200019N0112651N1+01601+00801999999ADDGA1021+004809999GA2021+069009999GF104991999999999999999999MA1102401999999MW1001REMMET010NEW NOSIG;EQDQ01+000000PRSWM2
0120601010999991999010217304+35730-005900FM-15+0021GMTT V0202401N003112200019N0112651N1+01601+01001999999ADDGA1021+004809999GA2021+069009999GF104991999999999999999999MA1102511999999MW1001REMMET010NEW NOSIG;EQDQ01+000000PRSWM2
0120601010999991999010219004+35730-005900FM-15+0021GMTT V0202401N002612200019N0112651N1+01401+01001999999ADDGA1021+004809999GA2021+069009999GF104991999999999999999999MA1102611999999MW1001REMMET010NEW NOSIG;EQDQ01+000000PRSWM2
0120601010999991999010220004+35730-005900FM-15+0021GMTT V0202401N002612200019N0112651N1+01301+01001999999ADDGA1021+004809999GA2021+069009999GF104991999999999999999999MA1102611999999MW1001REMMET010NEW NOSIG;EQDQ01+000000PRSWM2
0109601010999991999010220304+35730-005900FM-16+0021GMTT V0202401N002612200019N0112651N1+99999+99999999999ADDGA1021+004809999GF102991999999999999999999MW1001REMMET030NEW CCT 233 13/10 Q1026 NOSIG;EQDQ01+000000PRSWM2
0178601010999991999010221004+35730-005900SY-MT+0021GMTT V0200801N002112200019N0100001N1+00921+00781102711ADDAA199000091GA1021+004809999GF102991999051004501001001MA1102711999999MD1210111+9999MW1001REMSYN011 333 81616;MET010NEW NOSIG;EQDQ01+000012SCOTLCQ02+000000PRSWM2Q03  00002PRCP99
0104601010999991999010221304+35730-005900FM-15+0021GMTT V0200801N002612200019N0112651N1+00901+00801999999ADDGA1021+004809999GF102991999999999999999999MA1102711999999MW1001REMMET010NEW NOSIG;EQDQ01+000000PRSWM2
0104601010999991999010222304+35730-005900FM-15+0021GMTT V0200801N002612200019N0112651N1+00901+00701999999ADDGA1021+004809999GF102991999999999999999999MA1102711999999MW1001REMMET010NEW NOSIG;EQDQ01+000000PRSWM2
0135601010999991999010300004+35730-005900SY-MT+0021GMTT V0201001N004112200019N0100001N1+00901+00771102841ADDAA199000091GF100991001001999999001001MA1102711999999MD1210081+9999MW1001REMMET016NEW CAVOK NOSIG;EQDQ01+000000PRSWM2Q02  00002PRCP99
0068601010999991999010300304+35730-005900FM-15+0021GMTT V0200801N00261220001CN0099001N1+00901+00801999999ADDMA1102811999999MW1001REMMET016NEW CAVOK NOSIG;EQDQ01+000000PRSWM2
0068601010999991999010301304+35730-005900FM-15+0021GMTT V0200801N00261220001CN0099001N1+00901+00701999999ADDMA1102811999999MW1001REMMET016NEW CAVOK NOSIG;EQDQ01+000000PRSWM2
0152601010999991999010303004+35730-005900SY-MT+0021GMTT V0201001N004119999999N0100001N1+00821+00671102811ADDAA199000091GF105991999999999999999999MA1102811999999MD1010031+9999MW1001REMSYN011 333 85073;MET016NEW CAVOK NOSIG;EQDQ01+000000PRSWM2Q02  00002PRCP99
0068601010999991999010303304+35730-005900FM-15+0021GMTT V0201001N00411220001CN0099001N1+00801+00701999999ADDMA1102811999999MW1001REMMET016NEW CAVOK NOSIG;EQDQ01+000000PRSWM2
0068601010999991999010304304+35730-005900FM-15+0021GMTT V0201201N00411220001CN0099001N1+00801+00601999999ADDMA1102811999999MW1001REMMET016NEW CAVOK NOSIG;EQDQ01+000000PRSWM2
0171601010999991999010306004+35730-005900SY-MT+0021GMTT V0201001N002112200019N0100001N1+00701+00591102811ADDAA199000091GF103991001001999999001021KA1120N+00601MA1102811999999MD1510001+9999MW1001REMSYN017 333 20060 83073;MET016NEW CAVOK NOSIG;EQDQ01+000000PRSWM2Q02  00002PRCP99
0068601010999991999010306304+35730-005900FM-15+0021GMTT V0200801N00211220001CN0099001N1+00701+00601999999ADDMA1102811999999MW1001REMMET016NEW CAVOK NOSIG;EQDQ01+000000PRSWM2
0068601010999991999010307304+35730-005900FM-15+0021GMTT V0201001N00211220001CN0099001N1+00901+00601999999ADDMA1102811999999MW1001REMMET016NEW CAVOK NOSIG;EQDQ01+000000PRSWM2
0068601010999991999010310004+35730-005900FM-15+0021GMTT V0201001N00311220001CN0099001N1+01101+00901999999ADDMA1102911999999MW1001REMMET016NEW CAVOK NOSIG;EQDQ01+000000PRSWM2
0068601010999991999010310304+35730-005900FM-15+0021GMTT V0201001N00311220001CN0099001N1+01101+00901999999ADDMA1102911999999MW1001REMMET016NEW CAVOK NOSIG;EQDQ01+000000PRSWM2
0152601010999991999010312004+35730-005900SY-MT+0021GMTT V0202401N001512200019N0100001N1+01771+01041102951ADDAA199000091GF102991001001999999001021MA1102911999999MD1210051+9999MW1001REMSYN011 333 82073;MET016NEW CAVOK NOSIG;EQDQ01+000000PRSWM2Q02  00002PRCP99
0068601010999991999010312304+35730-005900FM-15+0021GMTT V0202401N00151220001CN0099001N1+01801+01001999999ADDMA1102911999999MW1001REMMET016NEW CAVOK NOSIG;EQDQ01+000000PRSWM2
0069601010999991999010313304+35730-005900FM-15+0021GMTT V0202401N00411220001CN0099001N1+01801+01001999999ADDMW1001REMMET016NEW CAVOK NOSIG;EQDQ01+101903APOA  Q02+000000PRSWM2
0172601010999991999010315004+35730-005900SY-MT+0021GMTT V0202801N00211090001CN0150001N1+01651+01131102761ADDAA199000091GA1011+004809069GF106991011051004501001021MA1102811999999MD1810191+9999MW1001REMSYN017 333 81616 86073;MET014NEW CAVOK NSG;EQDQ01+000000PRSWM2Q02  00002PRCP99
0118601010999991999010315304+35730-005900FM-15+0021GMTT V0202801N001510690019N0112651N1+01701+01101999999ADDGA1021+004809999GA2071+069009999GF107991999999999999999999MA1102711999999MW1001REMMET008NEW NSG;EQDQ01+000000PRSWM2
0066601010999991999010316304+35730-005900FM-15+0021GMTT V0203001N00211220001CN0099001N1+01601+01101999999ADDMA1102711999999MW1001REMMET014NEW CAVOK NSG;EQDQ01+000000PRSWM2
0169601010999991999010318004+35730-005900SY-MT+0021GMTT V0203201N002619999999N0150001N1+01451+01171102761ADDAA199000091GF106991001001999999001021KA1120M+01771MA1102711999999MD1510001+9999MW1001REMSYN017 333 10177 86073;MET014NEW CAVOK NSG;EQDQ01+000000PRSWM2Q02  00002PRCP99
0066601010999991999010319004+35730-005900FM-15+0021GMTT V0203201N00621220001CN0099001N1+01301+01101999999ADDMA1102711999999MW1001REMMET014NEW CAVOK NSG;EQDQ01+000000PRSWM2
0067601010999991999010319304+35730-005900FM-15+0021GMTT V0203201N00511220001CN0099001N1+01301+01101999999ADDMA1102711999999MW1001REMMET015NEW CAVOK NSG+;EQDQ01+000000PRSWM2
0150601010999991999010321004+35730-005900SY-MT+0021GMTT V0201201N002119999999N0100001N1+00941+00801999999ADDAA199000091GF106991001001999999001021MA1102811999999MD1210041+9999MW1001REMSYN011 333 86073;MET014NEW CAVOK NSG;EQDQ01+000000PRSWM2Q02  00002PRCP99
0068601010999991999010321304+35730-005900FM-15+0021GMTT V0201201N00211220001CN0099001N1+00901+00801999999ADDMA1102811999999MW1001REMMET016NEW CAVOK NOSIG;EQDQ01+000000PRSWM2
0068601010999991999010322304+35730-005900FM-15+0021GMTT V0201201N00211220001CN0099001N1+00901+00801999999ADDMA1102811999999MW1001REMMET016NEW CAVOK NOSIG;EQDQ01+000000PRSWM2
0152601010999991999010400004+35730-005900SY-MT+0021GMTT V0201201N002112200019N0100001N1+00801+00691102771ADDAA199000091GF103991001001999999001021MA1102811999999MD1810041+9999MW1001REMSYN011 333 83073;MET016NEW CAVOK NOSIG;EQDQ01+000000PRSWM2Q02  00002PRCP99
0068601010999991999010400304+35730-005900FM-15+0021GMTT V0201201N00151220001CN0099001N1+00801+00701999999ADDMA1102711999999MW1001REMMET016NEW CAVOK NOSIG;EQDQ01+000000PRSWM2
0068601010999991999010401304+35730-005900FM-15+0021GMTT V0201201N00151220001CN0099001N1+00801+00701999999ADDMA1102711999999MW1001REMMET016NEW CAVOK NOSIG;EQDQ01+000000PRSWM2
0152601010999991999010403004+35730-005900SY-MT+0021GMTT V0209999C000012200019N0100001N1+00691+00471102711ADDAA199000091GF103991001001999999001021MA1102711999999MD1810061+9999MW1001REMSYN011 333 83073;MET016NEW CAVOK NOSIG;EQDQ01+000000PRSWM2Q02  00002PRCP99
0068601010999991999010404004+35730-005900FM-15+0021GMTT V0209999C00001220001CN0099001N1+00701+00501999999ADDMA1102611999999MW1001REMMET016NEW CAVOK NOSIG;EQDQ01+000000PRSWM2
0068601010999991999010404304+35730-005900FM-15+0021GMTT V0209999C00001220001CN0099001N1+00701+00501999999ADDMA1102611999999MW1001REMMET016NEW CAVOK NOSIG;EQDQ01+000000PRSWM2
0171601010999991999010406004+35730-005900SY-MT+0021GMTT V0201001N002612200019N0100001N1+00651+00581102411ADDAA199000091GF103991001001999999001021KA1120N+00621MA1102611999999MD1710301+9999MW1001REMSYN017 333 20062 83073;MET016NEW CAVOK NOSIG;EQDQ01+000000PRSWM2Q02  00002PRCP99
0068601010999991999010407004+35730-005900FM-15+0021GMTT V0201001N00211220001CN0099001N1+00701+00601999999ADDMA1102401999999MW1001REMMET016NEW CAVOK NOSIG;EQDQ01+000000PRSWM2
0120601010999991999010407304+35730-005900FM-15+0021GMTT V0201001N001512200019N0070001N1+00701+00601999999ADDGA1021+004809999GA2021+069009999GF104991999999999999999999MA1102401999999MW1001REMMET010NEW NOSIG;EQDQ01+000000PRSWM2
0182601010999991999010409004+35730-005900SY-MT+0021GMTT V0201201N001512200019N0080001N1+00701+00631102411ADDAA199000091GA1021+004809999GA2021+069009999GF103991011051004501001021MA1102401999999MD1410001+9999MW1001REMSYN017 333 81616 83073;MET008NEW NSG;EQDQ01+000000PRSWM2Q02  00002PRCP99
0118601010999991999010409304+35730-005900FM-15+0021GMTT V0201201N002112200019N0080001N1+00901+00801999999ADDGA1021+004809999GA2021+069009999GF104991999999999999999999MA1102401999999MW1001REMMET008NEW NSG;EQDQ01+000000PRSWM2
0066601010999991999010410304+35730-005900FM-15+0021GMTT V0201001N00211220001CN0099001N1+01201+00901999999ADDMA1102401999999MW1001REMMET014NEW CAVOK NSG;EQDQ01+000000PRSWM2
0066601010999991999010412004+35730-005900FM-15+0021GMTT V0202801N00151220001CN0099001N1+01801+00901999999ADDMA1102401999999MW1001REMMET014NEW CAVOK NSG;EQDQ01+000000PRSWM2
0066601010999991999010412304+35730-005900FM-15+0021GMTT V0202801N00211220001CN0099001N1+01801+00901999999ADDMA1102401999999MW1001REMMET014NEW CAVOK NSG;EQDQ01+000000PRSWM2
0066601010999991999010413004+35730-005900FM-15+0021GMTT V0202801N00211220001CN0099001N1+01901+00901999999ADDMA1102301999999MW1001REMMET014NEW CAVOK NSG;EQDQ01+000000PRSWM2
0066601010999991999010413304+35730-005900FM-15+0021GMTT V0202401N00311220001CN0099001N1+01901+00901999999ADDMA1102301999999MW1001REMMET014NEW CAVOK NSG;EQDQ01+000000PRSWM2
0150601010999991999010415004+35730-005900SY-MT+0021GMTT V0202801N005112200019N0150001N1+01831+00971102271ADDAA199000091GF103991001001999999001021MA1102201999999MD1610131+9999MW1001REMSYN011 333 84073;MET014NEW CAVOK NSG;EQDQ01+000000PRSWM2Q02  00002PRCP99
0066601010999991999010416004+35730-005900FM-15+0021GMTT V0203201N00261220001CN0099001N1+01701+01201999999ADDMA1102201999999MW1001REMMET014NEW CAVOK NSG;EQDQ01+000000PRSWM2
0066601010999991999010416304+35730-005900FM-15+0021GMTT V0202201N00151220001CN0099001N1+01701+01201999999ADDMA1102201999999MW1001REMMET014NEW CAVOK NSG;EQDQ01+000000PRSWM2
0169601010999991999010418004+35730-005900SY-MT+0021GMTT V0209999C000012200019N0150001N1+01531+01211102281ADDAA199000091GF103991001001999999001021KA1120M+01881MA1102201999999MD1310021+9999MW1001REMSYN017 333 10188 83073;MET014NEW CAVOK NSG;EQDQ01+000000PRSWM2Q02  00002PRCP99
0066601010999991999010418304+35730-005900FM-15+0021GMTT V0201001N00101220001CN0099001N1+01501+01201999999ADDMA1102201999999MW1001REMMET014NEW CAVOK NSG;EQDQ01+000000PRSWM2
0066601010999991999010419304+35730-005900FM-15+0021GMTT V0201201N00261220001CN0099001N1+01401+01101999999ADDMA1102201999999MW1001REMMET014NEW CAVOK NSG;EQDQ01+000000PRSWM2
0133601010999991999010421004+35730-005900SY-MT+0021GMTT V0201001N002112200019N0100001N1+01041+00881102231ADDAA199000091GF100991001001999999001001MA1102201999999MD1610051+9999MW1001REMMET014NEW CAVOK NSG;EQDQ01+000000PRSWM2Q02  00002PRCP99
0118601010999991999010422004+35730-005900FM-15+0021GMTT V0200801N005110600019N0112651N1+01001+00901999999ADDGA1021+003009999GA2071+060009999GF107991999999999999999999MA1102201999999MW1001REMMET008NEW NSG;EQDQ01+000000PRSWM2
0118601010999991999010422304+35730-005900FM-15+0021GMTT V0200801N005110600019N0112651N1+01001+00901999999ADDGA1021+003009999GA2071+060009999GF107991999999999999999999MA1102201999999MW1001REMMET008NEW NSG;EQDQ01+000000PRSWM2
0198601010999991999010500004+35730-005900SY-MT+0021GMTT V0201001N004110600019N0100001N1+01031+00871102121ADDAA199000091GA1021+003009999GA2071+060009999GF199999031061004501001021MA1102201999999MD1610111+9999MW1001REMSYN017 333 83710 85070;MET008NEW NSG;EQDQ01+000052SCOTCVQ02+000000PRSWM2Q03  00002PRCP99
0118601010999991999010500304+35730-005900FM-15+0021GMTT V0200801N005110600019N0112651N1+01001+00901999999ADDGA1021+003009999GA2071+060009999GF107991999999999999999999MA1102101999999MW1001REMMET008NEW NSG;EQDQ01+000000PRSWM2
0118601010999991999010501304+35730-005900FM-15+0021GMTT V0201001N004110600019N0112651N1+01001+00901999999ADDGA1021+003009999GA2071+060009999GF107991999999999999999999MA1102101999999MW1001REMMET008NEW NSG;EQDQ01+000000PRSWM2
0150601010999991999010503004+35730-005900SY-MT+0021GMTT V0200801N008212200019N0100001N1+01041+00771102031ADDAA199000091GF103991001001999999001021MA1102001999999MD1810071+9999MW1001REMSYN011 333 83070;MET014NEW CAVOK NSG;EQDQ01+000000PRSWM2Q02  00002PRCP99
0066601010999991999010503304+35730-005900FM-15+0021GMTT V0200801N00821220001CN0099001N1+01001+00801999999ADDMA1102001999999MW1001REMMET014NEW CAVOK NSG;EQDQ01+000000PRSWM2
0066601010999991999010504304+35730-005900FM-15+0021GMTT V0200801N00821220001CN0099001N1+01001+00901999999ADDMA1102001999999MW1001REMMET014NEW CAVOK NSG;EQDQ01+000000PRSWM2
0163601010999991999010506004+35730-005900SY-MT+0021GMTT V0201201N005112200019N0100001N1+00951+00741101801ADDAA199000091GF100991001001999999001001KA1999N+00861MA1101801999999MD1610141+9999MW1001REMSYN011 333 20086;MET014NEW CAVOK NSG;EQDQ01+000000PRSWM2Q02  00002PRCP99
0066601010999991999010506304+35730-005900FM-15+0021GMTT V0201001N00621220001CN0099001N1+01001+00701999999ADDMA1101801999999MW1001REMMET014NEW CAVOK NSG;EQDQ01+000000PRSWM2
0068601010999991999010508004+35730-005900FM-15+0021GMTT V0201001N00311220001CN0099001N1+01001+00701999999ADDMA1101691999999MW1001REMMET016NEW CAVOK NOSIG;EQDQ01+000000PRSWM2
0135601010999991999010509004+35730-005900SY-MT+0021GMTT V0201001N008212200019N0100001N1+01271+00851101721ADDAA199000091GF100991001001999999001001MA1101691999999MD1710081+9999MW1001REMMET016NEW CAVOK NOSIG;EQDQ01+000000PRSWM2Q02  00002PRCP99
0068601010999991999010509304+35730-005900FM-15+0021GMTT V0201001N00821220001CN0099001N1+01301+00901999999ADDMA1101691999999MW1001REMMET016NEW CAVOK NOSIG;EQDQ01+000000PRSWM2
0068601010999991999010511004+35730-005900FM-15+0021GMTT V0201001N01031220001CN0099001N1+01601+01001999999ADDMA1101691999999MW1001REMMET016NEW CAVOK NOSIG;EQDQ01+000000PRSWM2
0135601010999991999010512004+35730-005900SY-MT+0021GMTT V0201001N010312200019N0150001N1+01821+00991101691ADDAA199000091GF100991001001999999001001MA1101691999999MD1810021+9999MW1001REMMET016NEW CAVOK NOSIG;EQDQ01+000000PRSWM2Q02  00002PRCP99
0089601010999991999010512304+35730-005900FM-15+0021GMTT V02099999999999999999N0005121N1+99999+99999999999ADDKA1999M+00201MW1001REMMET039NEW Z 10020EKT CAVOK 18/10 Q1016 NOSIG;EQDQ01+000000PRSWM2
0068601010999991999010513304+35730-005900FM-15+0021GMTT V0201001N00931220001CN0099001N1+01801+01001999999ADDMA1101591999999MW1001REMMET016NEW CAVOK NOSIG;EQDQ01+000000PRSWM2
0135601010999991999010515004+35730-005900SY-MT+0021GMTT V0201201N008212200019N0200001N1+01981+00971101511ADDAA199000091GF100991001001999999001001MA1101491999999MD1710181+9999MW1001REMMET016NEW CAVOK NOSIG;EQDQ01+000000PRSWM2Q02  00002PRCP99
0068601010999991999010515304+35730-005900FM-15+0021GMTT V0200801N00821220001CN0099001N1+02001+01001999999ADDMA1101491999999MW1001REMMET016NEW CAVOK NOSIG;EQDQ01+000000PRSWM2
0068601010999991999010516304+35730-005900FM-15+0021GMTT V0200801N00931220001CN0099001N1+01901+00901999999ADDMA1101491999999MW1001REMMET016NEW CAVOK NOSIG;EQDQ01+000000PRSWM2
0165601010999991999010518004+35730-005900SY-MT+0021GMTT V0200801N010312200019N0100001N1+01501+00851101541ADDAA199000091GF100991001001999999001001KA1999M+02001MA1101491999999MD1310021+9999MW1001REMSYN011 333 10200;MET016NEW CAVOK NOSIG;EQDQ01+000000PRSWM2Q02  00002PRCP99
0068601010999991999010518304+35730-005900FM-15+0021GMTT V0200801N00721220001CN0099001N1+01501+00901999999ADDMA1101491999999MW1001REMMET016NEW CAVOK NOSIG;EQDQ01+000000PRSWM2
0068601010999991999010519304+35730-005900FM-15+0021GMTT V0200801N00821220001CN0099001N1+01501+00801999999ADDMA1101491999999MW1001REMMET016NEW CAVOK NOSIG;EQDQ01+000000PRSWM2
0135601010999991999010521004+35730-005900SY-MT+0021GMTT V0201001N007212200019N0150001N1+01221+00781101591ADDAA199000091GF100991001001999999001001MA1101491999999MD1110051+9999MW1001REMMET016NEW CAVOK NOSIG;EQDQ01+000000PRSWM2Q02  00002PRCP99
0066601010999991999010521304+35730-005900FM-15+0021GMTT V0201001N00511220001CN0099001N1+01201+00801999999ADDMA1101491999999MW1001REMMET014NEW CAVOK NSG;EQDQ01+000000PRSWM2
0066601010999991999010523004+35730-005900FM-15+0021GMTT V0201001N00511220001CN0099001N1+01201+00901999999ADDMA1101591999999MW1001REMMET014NEW CAVOK NSG;EQDQ01+000000PRSWM2
0133601010999991999010600004+35730-005900SY-MT+0021GMTT V0201201N008212200019N0150001N1+01261+00841101561ADDAA199000091GF100991001001999999001001MA1101591999999MD1810041+9999MW1001REMMET014NEW CAVOK NSG;EQDQ01+000000PRSWM2Q02  00002PRCP99
0066601010999991999010601004+35730-005900FM-15+0021GMTT V0201001N00821220001CN0099001N1+01201+00801999999ADDMA1101491999999MW1001REMMET014NEW CAVOK NSG;EQDQ01+000000PRSWM2
0066601010999991999010602004+35730-005900FM-15+0021GMTT V0201001N00821220001CN0099001N1+01201+00801999999ADDMA1101491999999MW1001REMMET014NEW CAVOK NSG;EQDQ01+000000PRSWM2
0133601010999991999010603004+35730-005900SY-MT+0021GMTT V0201001N009312200019N0150001N1+01251+00831101501ADDAA199000091GF100991001001999999001001MA1101491999999MD1610061+9999MW1001REMMET014NEW CAVOK NSG;EQDQ01+000000PRSWM2Q02  00002PRCP99
0066601010999991999010604004+35730-005900FM-15+0021GMTT V0201001N00771220001CN0099001N1+01201+00801999999ADDMA1101391999999MW1001REMMET014NEW CAVOK NSG;EQDQ01+000000PRSWM2
0066601010999991999010605004+35730-005900FM-15+0021GMTT V0201001N00821220001CN0099001N1+01201+00901999999ADDMA1101391999999MW1001REMMET014NEW CAVOK NSG;EQDQ01+000000PRSWM2
0163601010999991999010606004+35730-005900SY-MT+0021GMTT V0201001N009312200019N0150001N1+01151+00851101431ADDAA199000091GF100991001001999999001001KA1999N+01101MA1101391999999MD1610071+9999MW1001REMSYN011 333 20110;MET014NEW CAVOK NSG;EQDQ01+000000PRSWM2Q02  00002PRCP99
0066601010999991999010606304+35730-005900FM-15+0021GMTT V0201001N00931220001CN0099001N1+01201+00901999999ADDMA1101391999999MW1001REMMET014NEW CAVOK NSG;EQDQ01+000000PRSWM2
0066601010999991999010607304+35730-005900FM-15+0021GMTT V0201001N00931220001CN0099001N1+01201+00901999999ADDMA1101491999999MW1001REMMET014NEW CAVOK NSG;EQDQ01+000000PRSWM2
0162601010999991999010609004+35730-005900SY-MT+0021GMTT V0201001N009312200019N0150001N1+01301+00911101601ADDAA199000091GA1021+004809999GF102991021051004501001001MA1101491999999MD1310171+9999MW1001REMSYN011 333 82616;MET010NEW NOSIG;EQDQ01+000000PRSWM2Q02  00002PRCP99
0066601010999991999010609304+35730-005900FM-15+0021GMTT V0201001N009312200019N0112651N1+99999+99999999999ADDMW1001REMMET029NEW FEW(16 14/09 Q1016 NOSIG;EQDQ01+000000PRSWM2
0104601010999991999010610304+35730-005900FM-15+0021GMTT V0201001N009312200019N0112651N1+01701+01001999999ADDGA1021+004809999GF102991999999999999999999MA1101691999999MW1001REMMET010NEW NOSIG;EQDQ01+000000PRSWM2
0135601010999991999010612004+35730-005900SY-MT+0021GMTT V0201001N010312200019N0150001N1+01901+00911101811ADDAA199000091GF100991001001999999001001MA1101801999999MD1110221+9999MW1001REMMET016NEW CAVOK NOQIG;EQDQ01+000000PRSWM2Q02  00002PRCP99
0066601010999991999010613004+35730-005900FM-15+0021GMTT V0201001N00931220001CN0099001N1+02001+00901999999ADDMA1101691999999MW1001REMMET014NEW CAVOK NSG;EQDQ01+000000PRSWM2
0056601010999991999010613304+35730-005900FM-15+0021GMTT V0201001N00931220001CN0099001N1+02001+00901999999ADDMW1001REMMET019NEW CAVOK 1017 NSG;EQDQ01+000000PRSWM2
0135601010999991999010615004+35730-005900SY-MT+0021GMTT V0200801N009312200019N0150001N1+01911+00951101751ADDAA199000091GF100991001001999999001001MA1101691999999MD1710061+9999MW1001REMMET016NEW CAVOK NOSIG;EQDQ01+000000PRSWM2Q02  00002PRCP99
0068601010999991999010615304+35730-005900FM-15+0021GMTT V0200801N00931220001CN0099001N1+01901+01001999999ADDMA1101691999999MW1001REMMET016NEW CAVOK NOSIG;EQDQ01+000000PRSWM2
0068601010999991999010616304+35730-005900FM-15+0021GMTT V0200801N00931220001CN0099001N1+01801+01101999999ADDMA1101691999999MW1001REMMET016NEW CAVOK NOSIG;EQDQ01+000000PRSWM2
0165601010999991999010618004+35730-005900SY-MT+0021GMTT V0200801N008212200019N0150001N1+01561+01041101861ADDAA199000091GF100991001001999999001001KA1999M+02031MA1101691999999MD1210111+9999MW1001REMSYN011 333 10203;MET016NEW CAVOK NOSIG;EQDQ01+000000PRSWM2Q02  00002PRCP99
0068601010999991999010618304+35730-005900FM-15+0021GMTT V0200801N00151220001CN0099001N1+01601+01001999999ADDMA1101801999999MW1001REMMET016NEW CAVOK NOSIG;EQDQ01+000000PRSWM2
0068601010999991999010619304+35730-005900FM-15+0021GMTT V0200801N00821220001CN0099001N1+01501+01101999999ADDMA1101901999999MW1001REMMET016NEW CAVOK NOSIG;EQDQ01+000000PRSWM2
0135601010999991999010621004+35730-005900SY-MT+0021GMTT V0200801N007212200019N0100001N1+01301+00871102001ADDAA199000091GF100991001001999999001001MA1102001999999MD1210131+9999MW1001REMMET016NEW CAVOK NOSIG;EQDQ01+000000PRSWM2Q02  00002PRCP99
0068601010999991999010621304+35730-005900FM-15+0021GMTT V0200801N00621220001CN0099001N1+01301+00901999999ADDMA1102001999999MW1001REMMET016NEW CAVOK NOSIG;EQDQ01+000000PRSWM2
0068601010999991999010622304+35730-005900FM-15+0021GMTT V0200801N00621220001CN0099001N1+01301+00901999999ADDMA1102001999999MW1001REMMET016NEW CAVOK NOSIG;EQDQ01+000000PRSWM2
0135601010999991999010700004+35730-005900SY-MT+0021GMTT V0200801N006212200019N0100001N1+01261+00731102071ADDAA199000091GF100991001001999999001001MA1102001999999MD1310071+9999MW1001REMMET016NEW CAVOK NOSIG;EQDQ01+000000PRSWM2Q02  00002PRCP99
0068601010999991999010700304+35730-005900FM-15+0021GMTT V0200801N00511220001CN0099001N1+01301+00701999999ADDMA1102001999999MW1001REMMET016NEW CAVOK NOSIG;EQDQ01+000000PRSWM2
0068601010999991999010701304+35730-005900FM-15+0021GMTT V0201001N00931220001CN0099001N1+01201+00801999999ADDMA1102001999999MW1001REMMET016NEW CAVOK NOSIG;EQDQ01+000000PRSWM2
0135601010999991999010703004+35730-005900SY-MT+0021GMTT V0201001N009312200019N0100001N1+01271+00831102111ADDAA199000091GF100991001001999999001001MA1102001999999MD1310041+9999MW1001REMMET016NEW CAVOK NOSIG;EQDQ01+000000PRSWM2Q02  00002PRCP99
0068601010999991999010703304+35730-005900FM-15+0021GMTT V0201001N01031220001CN0099001N1+01301+00801999999ADDMA1102101999999MW1001REMMET016NEW CAVOK NOSIG;EQDQ01+000000PRSWM2
0068601010999991999010704304+35730-005900FM-15+0021GMTT V0201201N01031220001CN0099001N1+01201+00801999999ADDMA1102101999999MW1001REMMET016NEW CAVOK NOSIG;EQDQ01+000000PRSWM2
0165601010999991999010706004+35730-005900SY-MT+0021GMTT V0201001N010312200019N0100001N1+01131+00871102111ADDAA199000091GF100991001001999999001001KA1999N+01111MA1102101999999MD1410001+9999MW1001REMSYN011 333 20111;MET016NEW CAVOK NOSIG;EQDQ01+000000PRSWM2Q02  00002PRCP99
0068601010999991999010706304+35730-005900FM-15+0021GMTT V0201001N00821220001CN0099001N1+01101+00901999999ADDMA1102101999999MW1001REMMET016NEW CAVOK NOSIG;EQDQ01+000000PRSWM2
0068601010999991999010707304+35730-005900FM-15+0021GMTT V0201001N00931220001CN0099001N1+01201+00901999999ADDMA1102101999999MW1001REMMET016NEW CAVOK NOSIG;EQDQ01+000000PRSWM2
0135601010999991999010709004+35730-005900SY-MT+0021GMTT V0201001N008212200019N0100001N1+01241+00931102271ADDAA199000091GF100991001001999999001001MA1102101999999MD1310161+9999MW1001REMMET016NEW CAVOK NOSIG;EQDQ01+000000PRSWM2Q02  00002PRCP99
0068601010999991999010709304+35730-005900FM-15+0021GMTT V0201001N00821220001CN0099001N1+01201+00901999999ADDMA1102201999999MW1001REMMET016NEW CAVOK NOSIG;EQDQ01+000000PRSWM2
0068601010999991999010710304+35730-005900FM-15+0021GMTT V0201001N00821220001CN0099001N1+01501+01001999999ADDMA1102301999999MW1001REMMET016NEW CAVOK NOSIG;EQDQ01+000000PRSWM2
0135601010999991999010712004+35730-005900SY-MT+0021GMTT V0201001N005112200019N0150001N1+01851+00891102391ADDAA199000091GF100991001001999999001001MA1102301999999MD1110121+9999MW1001REMMET016NEW CAVOK NOSIG;EQDQ01+000000PRSWM2Q02  00002PRCP99
0068601010999991999010712304+35730-005900FM-15+0021GMTT V0201001N00511220001CN0099001N1+01901+00901999999ADDMA1102301999999MW1001REMMET016NEW CAVOK NOSIG;EQDQ01+000000PRSWM2
0068601010999991999010713304+35730-005900FM-15+0021GMTT V0200801N00721220001CN0099001N1+01901+00901999999ADDMA1102301999999MW1001REMMET016NEW CAVOK NOSIG;EQDQ01+000000PRSWM2
0133601010999991999010715004+35730-005900SY-MT+0021GMTT V0200601N008212200019N0200001N1+01771+01041102221ADDAA199000091GF100991001001999999001001MA1102301999999MD1810171+9999MW1001REMMET014NEW CAVOK NSG;EQDQ01+000000PRSWM2Q02  00002PRCP99
0066601010999991999010715304+35730-005900FM-15+0021GMTT V0200601N00821220001CN0099001N1+01801+01001999999ADDMA1102201999999MW1001REMMET014NEW CAVOK NSG;EQDQ01+000000PRSWM2
0066601010999991999010716304+35730-005900FM-15+0021GMTT V0200601N00511220001CN0099001N1+01801+01101999999ADDMA1102101999999MW1001REMMET014NEW CAVOK NSG;EQDQ01+000000PRSWM2
0163601010999991999010718004+35730-005900SY-MT+0021GMTT V0200601N007212200019N0150001N1+01551+00861102271ADDAA199000091GF100991001001999999001001KA1999M+01951MA1102201999999MD1310051+9999MW1001REMSYN011 333 10195;MET014NEW CAVOK NSG;EQDQ01+000000PRSWM2Q02  00002PRCP99
0066601010999991999010719004+35730-005900FM-15+0021GMTT V0200801N00411220001CN0099001N1+01401+01001999999ADDMA1102201999999MW1001REMMET014NEW CAVOK NSG;EQDQ01+000000PRSWM2
0066601010999991999010720004+35730-005900FM-15+0021GMTT V0200601N00261220001CN0099001N1+01301+01001999999ADDMA1102201999999MW1001REMMET014NEW CAVOK NSG;EQDQ01+000000PRSWM2
0135601010999991999010721004+35730-005900SY-MT+0021GMTT V0201201N003112200019N0100001N1+01421+00141102321ADDAA199000091GF100991001001999999001001MA1102301999999MD1310051+9999MW1001REMMET016NEW CAVOK NOSIG;EQDQ01+000000PRSWM2Q02  00002PRCP99
0068601010999991999010721304+35730-005900FM-15+0021GMTT V0200801N00511220001CN0099001N1+01401+00101999999ADDMA1102301999999MW1001REMMET016NEW CAVOK NOSIG;EQDQ01+000000PRSWM2
0068601010999991999010722304+35730-005900FM-15+0021GMTT V0200601N00621220001CN0099001N1+01501+00601999999ADDMA1102301999999MW1001REMMET016NEW CAVOK NOSIG;EQDQ01+000000PRSWM2
0135601010999991999010800004+35730-005900SY-MT+0021GMTT V0200601N005112200019N0100001N1+01351+01071102311ADDAA199000091GF100991001001999999001001MA1102301999999MD1110071+9999MW1001REMMET016NEW CAVOK NOSIG;EQDQ01+000000PRSWM2Q02  00002PRCP99
0068601010999991999010800304+35730-005900FM-15+0021GMTT V0200601N00511220001CN0099001N1+01401+01101999999ADDMA1102301999999MW1001REMMET016NEW CAVOK NOSIG;EQDQ01+000000PRSWM2
0068601010999991999010801304+35730-005900FM-15+0021GMTT V0200601N00411220001CN0099001N1+01301+01101999999ADDMA1102301999999MW1001REMMET016NEW CAVOK NOSIG;EQDQ01+000000PRSWM2
0135601010999991999010803004+35730-005900SY-MT+0021GMTT V0200801N001512200019N0100001N1+01141+00941102341ADDAA199000091GF100991001001999999001001MA1102301999999MD1810051+9999MW1001REMMET016NEW CAVOK NOSIG;EQDQ01+000000PRSWM2Q02  00002PRCP99
0068601010999991999010803304+35730-005900FM-15+0021GMTT V0200801N00151220001CN0099001N1+01101+00901999999ADDMA1102301999999MW1001REMMET016NEW CAVOK NOSIG;EQDQ01+000000PRSWM2
0068601010999991999010804304+35730-005900FM-15+0021GMTT V0200801N00151220001CN0099001N1+01001+00801999999ADDMA1102301999999MW1001REMMET016NEW CAVOK NOSIG;EQDQ01+000000PRSWM2
0165601010999991999010806004+35730-005900SY-MT+0021GMTT V0209999C000012200019N0100001N1+00651+00491102281ADDAA199000091GF100991001001999999001001KA1999N+00651MA1102201999999MD1610061+9999MW1001REMSYN011 333 20065;MET016NEW CAVOK NOSIG;EQDQ01+000000PRSWM2Q02  00002PRCP99
0068601010999991999010806304+35730-005900FM-15+0021GMTT V0209999C00001220001CN0099001N1+00701+00501999999ADDMA1102201999999MW1001REMMET016NEW CAVOK NOSIG;EQDQ01+000000PRSWM2
0068601010999991999010807304+35730-005900FM-15+0021GMTT V0209999C00001220001CN0099001N1+00701+00501999999ADDMA1102201999999MW1001REMMET016NEW CAVOK NOSIG;EQDQ01+000000PRSWM2
0150601010999991999010809004+35730-005900SY-MT+0021GMTT V0201201N002619999999N0100001N1+00681+00501102401ADDAA199000091GF105991001001999999001021MA1102301999999MD1310111+9999MW1001REMSYN011 333 85073;MET014NEW CAVOK NSG;EQDQ01+000000PRSWM2Q02  00002PRCP99
0066601010999991999010809304+35730-005900FM-15+0021GMTT V0201201N00261220001CN0099001N1+00701+00501999999ADDMA1102401999999MW1001REMMET014NEW CAVOK NSG;EQDQ01+000000PRSWM2
0066601010999991999010810304+35730-005900FM-15+0021GMTT V0209999C00001220001CN0099001N1+01101+00701999999ADDMA1102401999999MW1001REMMET014NEW CAVOK NSG;EQDQ01+000000PRSWM2
0150601010999991999010812004+35730-005900SY-MT+0021GMTT V0202401N003112200019N0100001N1+01751+01061102471ADDAA199000091GF104991001001999999001021MA1102401999999MD1010081+9999MW1001REMSYN011 333 84073;MET014NEW CAVOK NSG;EQDQ01+000000PRSWM2Q02  00002PRCP99
0066601010999991999010812304+35730-005900FM-15+0021GMTT V0202401N00311220001CN0099001N1+01801+01101999999ADDMA1102401999999MW1001REMMET014NEW CAVOK NSG;EQDQ01+000000PRSWM2
0068601010999991999010814004+35730-005900FM-15+0021GMTT V0202401N00411220001CN0099001N1+01801+01001999999ADDMA1102301999999MW1001REMMET016NEW CAVOK NOSIG;EQDQ01+000000PRSWM2
0152601010999991999010815004+35730-005900SY-MT+0021GMTT V0202401N002112200019N0100001N1+01851+01081102231ADDAA199000091GF103991001001999999001021MA1102201999999MD1710241+9999MW1001REMSYN011 333 83073;MET016NEW CAVOK NOSIG;EQDQ01+000000PRSWM2Q02  00002PRCP99
0068601010999991999010815304+35730-005900FM-15+0021GMTT V0202801N00211220001CN0099001N1+01901+01101999999ADDMA1102201999999MW1001REMMET016NEW CAVOK NOSIG;EQDQ01+000000PRSWM2
0068601010999991999010817004+35730-005900FM-15+0021GMTT V0203001N00511220001CN0099001N1+01801+01201999999ADDMA1102101999999MW1001REMMET016NEW CAVOK NOSIG;EQDQ01+000000PRSWM2
0171601010999991999010818004+35730-005900SY-MT+0021GMTT V0203001N005119999999N0100001N1+01481+00931102181ADDAA199000091GF106991001001999999001021KA1120M+01851MA1102101999999MD1610051+9999MW1001REMSYN017 333 10185 86073;MET016NEW CAVOK NOSIG;EQDQ01+000000PRSWM2Q02  00002PRCP99
0068601010999991999010818304+35730-005900FM-15+0021GMTT V0203001N00511220001CN0099001N1+01501+00901999999ADDMA1102101999999MW1001REMMET016NEW CAVOK NOSIG;EQDQ01+000000PRSWM2
0068601010999991999010819304+35730-005900FM-15+0021GMTT V0202801N00461220001CN0099001N1+01501+00901999999ADDMA1102101999999MW1001REMMET016NEW CAVOK NOSIG;EQDQ01+000000PRSWM2
0152601010999991999010821004+35730-005900SY-MT+0021GMTT V0200801N002112200019N0100001N1+01131+00851102181ADDAA199000091GF103991001001999999001021MA1102101999999MD1410001+9999MW1001REMSYN011 333 83073;MET016NEW CAVOK NOSIG;EQDQ01+000000PRSWM2Q02  00002PRCP99
0066601010999991999010822004+35730-005900FM-15+0021GMTT V0200801N00261220001CN0099001N1+01101+00901999999ADDMA1102201999999MW1001REMMET014NEW CAVOK NSG;EQDQ01+000000PRSWM2
0066601010999991999010823004+35730-005900FM-15+0021GMTT V0200801N00211220001CN0099001N1+01001+00801999999ADDMA1102201999999MW1001REMMET014NEW CAVOK NSG;EQDQ01+000000PRSWM2
0182601010999991999010900004+35730-005900SY-MT+0021GMTT V0200801N002119999999N0100001N1+00901+00731102151ADDAA199000091GA1021+004809999GA2021+069009999GF105991031051999999001021MA1102101999999MD1610031+9999MW1001REMSYN017 333 83616 83073;MET008NEW NSG;EQDQ01+000000PRSWM2Q02  00002PRCP99
0118601010999991999010900304+35730-005900FM-15+0021GMTT V0201001N002112200019N0112651N1+00901+00701999999ADDGA1021+004809999GA2021+069009999GF104991999999999999999999MA1102101999999MW1001REMMET008NEW NSG;EQDQ01+000000PRSWM2
0134601010999991999010902004+35730-005900FM-15+0021GMTT V0200801N003110300019N0112651N1+00801+00601999999ADDGA1021+003009999GA2021+004509999GA3071+030009999GF107991999999999999999999MA1101901999999MW1001REMMET008NEW NSG;EQDQ01+000000PRSWM2
0198601010999991999010903004+35730-005900SY-MT+0021GMTT V0200801N002110300019N0100001N1+00841+00621101971ADDAA199000091GA1021+003009999GA2021+004509999GA3071+030009999GF107991051081004501031999MA1102001999999MD1710131+9999MW1001REMSYN017 333 85815 85359;MET008NEW NSG;EQDQ01+000000PRSWM2Q02  00002PRCP99
0118601010999991999010903304+35730-005900FM-15+0021GMTT V0200801N003110045019N0112651N1+00801+00601999999ADDGA1071+004509999GA2071+027009999GF107991999999999999999999MA1101901999999MW1001REMMET008NEW NSG;EQDQ01+000000PRSWM2
0201601010999991999010906004+35730-005900SY-MT+0021GMTT V0200801N002110045019N0100001N1+01021+00851101801ADDAA199000091GA1071+004509999GA2071+027009999GF107991051081004501031999KA1120N+00801MA1101801999999MD1710151+9999MW1001REMSYN023 333 20080 85815 86359;MET008NEW NSG;EQDQ01+000000PRSWM2Q02  00002PRCP99
0118601010999991999010907004+35730-005900FM-15+0021GMTT V0201201N003110045019N0112651N1+01001+00801999999ADDGA1071+004509999GA2071+024009999GF107991999999999999999999MA1101801999999MW1001REMMET008NEW NSG;EQDQ01+000000PRSWM2
0120601010999991999010908004+35730-005900FM-15+0021GMTT V0209999C000010270019N0070001N1+01201+01001999999ADDGA1021+004809999GA2071+027009999GF107991999999999999999999MA1101691999999MW1001REMMET010NEW NOSIG;EQDQ01+000000PRSWM2
0184601010999991999010909004+35730-005900SY-MT+0021GMTT V0209999C000010270019N0070001N1+01231+01041101751ADDAA199000091GA1021+004809999GA2071+027009999GF107991041021004501081999MA1101691999999MD1710051+9999MW1001REMSYN017 333 84816 86359;MET010NEW NOSIG;EQDQ01+000000PRSWM2Q02  00002PRCP99
0120601010999991999010909304+35730-005900FM-15+0021GMTT V0209999C000010270019N0070001N1+01201+01001999999ADDGA1021+004809999GA2071+027009999GF107991999999999999999999MA1101691999999MW1001REMMET010NEW NOSIG;EQDQ01+000000PRSWM2
0120601010999991999010911004+35730-005900FM-15+0021GMTT V0201801N004110048019N0080001N1+01501+01201999999ADDGA1071+004809999GA2071+027009999GF107991999999999999999999MA1101591999999MW1001REMMET010NEW NOSIG;EQDQ01+000000PRSWM2
0184601010999991999010912004+35730-005900SY-MT+0021GMTT V0202001N005110048019N0080001N1+01531+01211101621ADDAA199000091GA1071+004809999GA2071+027009999GF108991051021004501081999MA1101591999999MD1710101+9999MW1001REMSYN017 333 85816 86359;MET010NEW NOSIG;EQDQ01+000000PRSWM2Q02  00002PRCP99
0120601010999991999010913004+35730-005900FM-15+0021GMTT V0202001N005110048019N0080001N1+01501+01201999999ADDGA1071+004809999GA2071+027009999GF107991999999999999999999MA1101591999999MW1001REMMET010NEW NOSIG;EQDQ01+000000PRSWM2
0134601010999991999010914004+35730-005900FM-15+0021GMTT V0202001N007210048019N0080001N1+01601+01201999999ADDGA1021+003909999GA2071+004809999GA3071+027009999GF107991999999999999999999MA1101491999999MW1001REMMET008NEW NSG;EQDQ01+000000PRSWM2
0204601010999991999010915004+35730-005900SY-MT+0021GMTT V0202401N007710048019N0060001N1+01641+01401101311ADDAA199000091GA1021+003909999GA2071+004809999GA3071+027009999GF108991061081004501081999MA1101491999999MD1710311+9999MW1001REMSYN023 333 83813 86616 87359;MET008NEW NSG;EQDQ01+000000PRSWM2Q02  00002PRCP99
0136601010999991999010915304+35730-005900FM-15+0021GMTT V0202401N007210048019N0060001N1+01601+01401999999ADDGA1021+003909999GA2071+004809999GA3071+027009999GF107991999999999999999999MA1101291999999MW1001REMMET010NEW NOSIG;EQDQ01+000000PRSWM2
0120601010999991999010916304+35730-005900FM-15+0021GMTT V0202401N008210048019N0080001N1+01701+01401999999ADDGA1021+003009999GA2071+004809999GF107991999999999999999999MA1101191999999MW1001REMMET010NEW NOSIG;EQDQ01+000000PRSWM2
0219601010999991999010918004+35730-005900SY-MT+0021GMTT V0202401N008210048019N0080001N1+01601+01341101261ADDAA199000091GA1021+003009999GA2071+004809999GF199999051081004501081001KA1120M+01701MA1101191999999MD1710051+9999MW1001REMSYN023 333 10170 84816 85516;MET010NEW NOSIG;EQDQ01+000062SCOTCVQ02+000000PRSWM2Q03  00002PRCP99
0121601010999991999010919004+35730-005900FM-15+0021GMTT V0202801N010310048019N0060001N1+01601+01301999999ADDGA1021+003009999GA2071+004809999GF107991999999999999999999MA1101081999999MW1001REMMET011NEW N RERA;EQDQ01+000000PRSWM2
0128601010999991999010919304+35730-005900FM-15+0021GMTT V0202801N011310048019N0060001N1+01601+01301999999ADDGA1021+003009999GA2071+004809999GF107991999999999999999999MA1101081999999MW1001OC101651REMMET010NEW NOSIG;EQDQ01+000000PRSWM2
0203601010999991999010921004+35730-005900SY-MT+0021GMTT V0202801N011310048019N0060001N1+01401+01161101261ADDAY121031AY281031GA1021+003009999GA2071+004809999GF107991071091004501999999MA1101081999999MD1510001+9999MW1031OC101651REMSYN023 333 83810 86616 82923;MET010NEW NOSIG;EQDQ01+000000PRSWM2Q02    003PRSWM1
0139601010999991999010922004+35730-005900FM-15+0021GMTT V0203201N01131220001CN0060001N1+01301+01101999999ADDGA1021+003009999GA2071+004509999GA3021+006909099MA1101191999999MW1001OC101651REMMET015NEW TEMPO SHRA;EQDQ01+000022SCOTCVQ02+000000PRSWM2
0144601010999991999010923004+35730-005900FM-15+0021GMTT V0203201N01031220001CN0060001N1+01301+01101999999ADDGA1021+003009999GA2071+004509999GA3021+006909099MW1801OC101541REMMET019NEW QNH 1012 NOSIG;EQDQ01+000022SCOTCVQ02+000003PRSWM1Q03    003PRSWM1
0178601010999991999011100004+35730-005900SY-MT+0021GMTT V0201801N006212200019N0080001N1+00971+00691101261ADDAA199000191AY161061AY261061GA1021+004809999GF103991031021004501001001MA1101291999999MD1710091+9999MW1211REMSYN011 333 83816;MET010NEW NOSIG;EQDQ01+000000PRSWM2Q02    003PRSWM1
0104601010999991999011100304+35730-005900FM-15+0021GMTT V0201401N005112200019N0080001N1+01001+00701999999ADDGA1021+004809999GF104991999999999999999999MA1101191999999MW1001REMMET010NEW NOSIG;EQDQ01+000000PRSWM2
0104601010999991999011101304+35730-005900FM-15+0021GMTT V0201601N005112200019N0080001N1+01001+00701999999ADDGA1021+004809999GF104991999999999999999999MA1101081999999MW1001REMMET010NEW NOSIG;EQDQ01+000000PRSWM2
0146601010999991999011103004+35730-005900SY-MT+0021GMTT V0201601N007212200019N0080001N1+00971+00691101061ADDAA199000021GA1021+004809999GF103991031021004501001001MA1101081999999MD1710201+9999MW1001REMSYN011 333 83816;MET010NEW NOSIG;EQDQ01+000000PRSWM2
0104601010999991999011103304+35730-005900FM-15+0021GMTT V0201601N007212200019N0080001N1+01001+00701999999ADDGA1021+004809999GF104991999999999999999999MA1101021999999MW1001REMMET010NEW NOSIG;EQDQ01+000000PRSWM2
0104601010999991999011104304+35730-005900FM-15+0021GMTT V0201601N007212200019N0080001N1+01001+00701999999ADDGA1021+004809999GF104991999999999999999999MA1101021999999MW1001REMMET010NEW NOSIG;EQDQ01+000000PRSWM2
0165601010999991999011106004+35730-005900SY-MT+0021GMTT V0201401N005112200019N0080001N1+01101+00561100841ADDAA199000191GA1021+004809999GF104991041021004501001001KA1120N+00901MA1100811999999MD1610221+9999MW1001REMSYN017 333 20090 84816;MET010NEW NOSIG;EQDQ01+000000PRSWM2
0104601010999991999011106304+35730-005900FM-15+0021GMTT V0201201N006212200019N0080001N1+01101+00601999999ADDGA1021+004809999GF104991999999999999999999MA1100811999999MW1001REMMET010NEW NOSIG;EQDQ01+000000PRSWM2
0104601010999991999011107304+35730-005900FM-15+0021GMTT V0201201N006212200019N0080001N1+01101+00601999999ADDGA1021+004809999GF104991999999999999999999MA1100811999999MW1001REMMET010NEW NOSIG;EQDQ01+000000PRSWM2
0166601010999991999011109004+35730-005900SY-MT+0021GMTT V0201601N006210270019N0100001N1+01181+00431100871ADDAA199000021GA1021+004809999GA2071+027009999GF107991041021004501081999MA1100811999999MD1310031+9999MW1001REMSYN017 333 82816 83360;MET008NEW NSG;EQDQ01+000000PRSWM2
0120601010999991999011109304+35730-005900FM-15+0021GMTT V0201601N006212200019N0112651N1+01201+00401999999ADDGA1021+004809999GA2021+030009999GF104991999999999999999999MA1100811999999MW1001REMMET010NEW NOSIG;EQDQ01+000000PRSWM2
0120601010999991999011110304+35730-005900FM-15+0021GMTT V0201601N008212200019N0112651N1+01201+00401999999ADDGA1021+004809999GA2021+030009999GF104991999999999999999999MA1100911999999MW1001REMMET010NEW NOSIG;EQDQ01+000000PRSWM2
0168601010999991999011112004+35730-005900SY-MT+0021GMTT V0201601N00721036001CN0100001N1+01401+00211100871ADDAA199000021GA1021+004809999GA2021+030009999GF108991041021004501081999MA1100911999999MD1010001+9999MW1001REMSYN017 333 84816 86360;MET010NEW NOSIG;EQDQ01+000000PRSWM2
0120601010999991999011112304+35730-005900FM-15+0021GMTT V0201401N007210300019N0112651N1+01401+00201999999ADDGA1021+004809999GA2071+030009999GF107991999999999999999999MA1100811999999MW1001REMMET010NEW NOSIG;EQDQ01+000000PRSWM2
0120601010999991999011113304+35730-005900FM-15+0021GMTT V0201601N007210300019N0112651N1+01401+00201999999ADDGA1021+004809999GA2071+030009999GF107991999999999999999999MA1100811999999MW1001REMMET010NEW NOSIG;EQDQ01+000000PRSWM2
0182601010999991999011115004+35730-005900SY-MT+0021GMTT V0201801N005110300019N0100001N1+01491+00331100701ADDAA199000091GA1021+004809999GA2071+030009999GF108991041021004501081999MA1100711999999MD1810171+9999MW1001REMSYN017 333 84816 86360;MET008NEW NSG;EQDQ01+000000PRSWM2Q02  00002PRCP99
0118601010999991999011115304+35730-005900FM-15+0021GMTT V0201801N005110300019N0112651N1+01501+00301999999ADDGA1021+004809999GA2071+030009999GF107991999999999999999999MA1100711999999MW1001REMMET008NEW NSG;EQDQ01+000000PRSWM2
0118601010999991999011116304+35730-005900FM-15+0021GMTT V0201801N002110300019N0112651N1+01501+00301999999ADDGA1021+004809999GA2071+030009999GF107991999999999999999999MA1100711999999MW1001REMMET008NEW NSG;EQDQ01+000000PRSWM2
0201601010999991999011118004+35730-005900SY-MT+0021GMTT V0201201N003110048019N0100001N1+01251+00621100711ADDAA199000091GA1071+004809999GA2071+030009999GF107991051021004501081999KA1120M+01521MA1100711999999MD1010011+9999MW1001REMSYN023 333 10152 85816 95360;MET008NEW NSG;EQDQ01+000000PRSWM2Q02  00002PRCP99
0150601010999991999011118304+35730-005900FM-15+0021GMTT V0201201N003110048019N0080001N1+01301+00801999999ADDGA1021+003909999GA2071+004809999GA3071+027009999GF107991999999999999999999MA1100711999999MW1611REMMET008NEW NSG;EQDQ01+000003PRSWM1Q02    003PRSWM1
0114601010999991999011120004+35730-005900FM-15+0021GMTT V0201001N004112200019N0080001N1+99999+99999999999ADDGA1021+003909999GF104991999999999999999999MW1001REMMET035NEW VBKN016 BKN100 12/09 Q1007 NSG;EQDQ01+000000PRSWM2
0203601010999991999011121004+35730-005900SY-MT+0021GMTT V0201001N006210048019N0100001N1+01281+00661100791ADDAY161031AY221031GA1021+003009999GA2071+004809999GA3071+030009999GF107991051021004501081999MA1100711999999MD1710081+9999MW1211REMSYN017 333 85816 85360;MET008NEW NSG;EQDQ01+000000PRSWM2Q02    003PRSWM1
0120601010999991999011121304+35730-005900FM-15+0021GMTT V0201001N006210048019N0112651N1+01301+00701999999ADDGA1071+004809999GA2071+030009999GF107991999999999999999999MA1100711999999MW1001REMMET010NEW NOSIG;EQDQ01+000000PRSWM2
0120601010999991999011122304+35730-005900FM-15+0021GMTT V0201001N005110048019N0112651N1+01201+00601999999ADDGA1071+004809999GA2071+030009999GF107991999999999999999999MA1100711999999MW1001REMMET010NEW NOSIG;EQDQ01+000000PRSWM2
0195601010999991999011200004+35730-005900SY-MT+0021GMTT V0201001N007210048019N0100001N1+01271+00761100941ADDAA199000191AY161061AY221061GA1071+004809999GA2071+030009999GF107991051021004501081999MA1100811999999MD1310151+9999MW1021REMSYN017 333 85815 85360;MET005NEW ;EQDQ01+000000PRSWM2Q02    003PRSWM1
0120601010999991999011201004+35730-005900FM-15+0021GMTT V0201001N006210045019N0112651N1+01201+00801999999ADDGA1071+004509999GA2071+030009999GF107991999999999999999999MA1100911999999MW1001REMMET010NEW NOSIG;EQDQ01+000000PRSWM2
0120601010999991999011201304+35730-005900FM-15+0021GMTT V0201001N006210045019N0112651N1+01201+00801999999ADDGA1071+004509999GA2071+030009999GF107991999999999999999999MA1100911999999MW1001REMMET010NEW NOSIG;EQDQ01+000000PRSWM2
0168601010999991999011203004+35730-005900SY-MT+0021GMTT V0201001N008210045019N0100001N1+01271+00761100991ADDAA199000021GA1071+004509999GA2071+030009999GF107991051021004501081999MA1100911999999MD1310051+9999MW1001REMSYN017 333 85815 85360;MET010NEW NOSIG;EQDQ01+000000PRSWM2
0147601010999991999011203304+35730-005900FM-15+0021GMTT V0201001N008210045019N0080001N1+01201+00801999999ADDGA1071+004509999GA2021+006909099GA3071+030009999GF107991999999999999999999MA1100911999999MW1811REMMET005NEW ;EQDQ01+000003PRSWM1Q02    003PRSWM1
0136601010999991999011205004+35730-005900FM-15+0021GMTT V0200801N008210048019N0080001N1+01201+00801999999ADDGA1071+004809999GA2071+030009999GF107991999999999999999999MA1100911999999MW1631REMMET010NEW NOSIG;EQDQ01+000003PRSWM1Q02    003PRSWM1
0209601010999991999011206004+35730-005900SY-MT+0021GMTT V0200801N006210048019N0080001N1+01221+01091101001ADDAA199007991AY161061AY261061GA1071+004809999GA2071+030009999GF108991051021004501071999KA1120N+01151MA1101021999999MD1310011+9999MW1601MW2611REMSYN023 333 20115 85816 85460;MET010NEW NOSIG;EQDQ01    003PRSWM1
0086601010999991999011206304+35730-005900FM-15+0021GMTT V02099999999992200019N9999999N1+99999+99999999999ADDMW1001REMMET049NEW 2KT 8000 -RA BKN016 BKN100 12/11 Q1010 NOSIG;EQDQ01+000000PRSWM2
0150601010999991999011208004+35730-005900FM-15+0021GMTT V0200801N006210270019N0060001N1+01201+01101999999ADDGA1021+003909999GA2021+004809029GA3071+027009999GF107991999999999999999999MA1101081999999MW1611REMMET008NEW NSG;EQDQ01+000003PRSWM1Q02    003PRSWM1
0199601010999991999011209004+35730-005900SY-MT+0021GMTT V0201201N003110270019N0030001N1+01201+01111101231ADDAY161031AY261031GA1021+003909999GA2021+004809029GA3071+027009999GF108991051021004501071999MA1101081999999MD1310231+9999MW1601MW2611REMSYN023 333 83813 83816 85459;MET008NEW NSG;EQDQ01    003PRSWM1
0150601010999991999011209304+35730-005900FM-15+0021GMTT V0201001N007210270019N0030001N1+01201+01101999999ADDGA1021+003009999GA2021+004809029GA3071+027009999GF107991999999999999999999MA1101191999999MW1631REMMET008NEW NSG;EQDQ01+000003PRSWM1Q02    003PRSWM1
0150601010999991999011211004+35730-005900FM-15+0021GMTT V0201601N001510039019N0050001N1+01101+00901999999ADDGA1071+003909999GA2021+004809029GA3071+027009999GF107991999999999999999999MA1101391999999MW1631REMMET008NEW NSG;EQDQ01+000003PRSWM1Q02    003PRSWM1
0204601010999991999011212004+35730-005900SY-MT+0021GMTT V0201401N001010039019N0060001N1+01051+00951101461ADDAA199026991AY161061AY261061GA1071+003909999GA2021+004809029GA3071+027009999GF108991061021004501071999MA1101391999999MD1110231+9999MW1611REMSYN023 333 85813 83816 85459;MET008NEW NSG;EQDQ01    003PRSWM1
0150601010999991999011212304+35730-005900FM-15+0021GMTT V0202001N001510039019N0060001N1+01101+01001999999ADDGA1071+003909999GA2021+004809029GA3071+027009999GF107991999999999999999999MA1101391999999MW1631REMMET008NEW NSG;EQDQ01+000003PRSWM1Q02    003PRSWM1
0134601010999991999011214004+35730-005900FM-15+0021GMTT V0200601N006210270019N0112651N1+01101+01001999999ADDGA1021+003909999GA2021+004809999GA3071+027009999GF107991999999999999999999MA1101391999999MW1001REMMET008NEW NSG;EQDQ01+000000PRSWM2
0209601010999991999011215004+35730-005900SY-MT+0021GMTT V0200801N006210270019N0100001N1+01331+01121101391ADDAY121031AY261031GA1021+003909999GA2021+004809999GA3071+027009999GF107991041021004501071999MA1101291999999MD1810071+9999MW1021REMSYN023 333 82813 83816 85459;MET008NEW NSG;EQDQ01+000000PRSWM2Q02    003PRSWM1
0134601010999991999011216004+35730-005900FM-15+0021GMTT V0200801N006710270019N0112651N1+01401+01101999999ADDGA1021+003909999GA2021+004809999GA3071+027009999GF107991999999999999999999MA1101391999999MW1001REMMET008NEW NSG;EQDQ01+000000PRSWM2
0134601010999991999011216304+35730-005900FM-15+0021GMTT V0200801N006712200019N0112651N1+01401+01101999999ADDGA1021+003909999GA2021+004809999GA3021+027009999GF104991999999999999999999MA1101391999999MW1001REMMET008NEW NSG;EQDQ01+000000PRSWM2
0243601010999991999011218004+35730-005900SY-MT+0021GMTT V0200801N00511036001CN0100001N1+01321+01041101481ADDAA199031091AY121061AY261061GA1011+003909089GA2031+004809089GF106991031021004501071021KA1120M+01441MD1310091+9999MW1021REMSYN029 333 10144 81813 83816 83359;MET043NEW 9FEW013 SCT016 QSCT090 14/10 Q1014 NSG;EQDQ01+000000PRSWM2Q02    003PRSWM1
0134601010999991999011218304+35730-005900FM-15+0021GMTT V0200801N006212200019N0112651N1+01301+01001999999ADDGA1021+003909999GA2021+004809999GA3021+027009999GF104991999999999999999999MA1101391999999MW1001REMMET008NEW NSG;EQDQ01+000000PRSWM2
0118601010999991999011219304+35730-005900FM-15+0021GMTT V0200801N005112200019N0112651N1+01201+01001999999ADDGA1021+003909999GA2021+004809999GF104991999999999999999999MA1101491999999MW1001REMMET008NEW NSG;EQDQ01+000000PRSWM2
0166601010999991999011221004+35730-005900SY-MT+0021GMTT V0200801N00511090001CN0100001N1+01181+00791101751ADDAA199000021GA1021+004809999GA2021+069009999GF106991031021004501001021MA1101591999999MD1310271+9999MW1001REMSYN017 333 83816 83070;MET008NEW NSG;EQDQ01+000000PRSWM2
0118601010999991999011221304+35730-005900FM-15+0021GMTT V0200801N005112200019N0112651N1+01201+00801999999ADDGA1021+004809999GA2021+060009999GF104991999999999999999999MA1101691999999MW1001REMMET008NEW NSG;EQDQ01+000000PRSWM2
0118601010999991999011222304+35730-005900FM-15+0021GMTT V0201201N004112200019N0112651N1+01201+00801999999ADDGA1021+004809999GA2021+060009999GF104991999999999999999999MA1101691999999MW1001REMMET008NEW NSG;EQDQ01+000000PRSWM2
0160601010999991999011300004+35730-005900SY-MT+0021GMTT V0200801N005110042019N0100001N1+01201+00911101721ADDAA199000021GA1021+004809999GA2021+060009999GF105991051021004501001001MA1101801999999MD1810031+9999MW1001REMSYN011 333 85816;MET008NEW NSG;EQDQ01+000000PRSWM2
0102601010999991999011300304+35730-005900FM-15+0021GMTT V0200801N005110048019N0112651N1+01201+00901999999ADDGA1071+004809999GF107991999999999999999999MA1101691999999MW1001REMMET008NEW NSG;EQDQ01+000000PRSWM2
0102601010999991999011302004+35730-005900FM-15+0021GMTT V0200801N005110048019N0112651N1+01201+00801999999ADDGA1071+004809999GF107991999999999999999999MA1101691999999MW1001REMMET008NEW NSG;EQDQ01+000000PRSWM2
0160601010999991999011303004+35730-005900SY-MT+0021GMTT V0200801N00511004201CN0100001N1+01201+00901101721ADDAA199000091GA1021+004809999GF105991051021004501001001MA1101691999999MD1410001+9999MW1001REMSYN011 333 85816;MET008NEW NSG;EQDQ01+000000PRSWM2Q02  00002PRCP99
0102601010999991999011303304+35730-005900FM-15+0021GMTT V0200801N006210048019N0112651N1+01201+00901999999ADDGA1071+004809999GF107991999999999999999999MA1101691999999MW1001REMMET008NEW NSG;EQDQ01+000000PRSWM2
0102601010999991999011305004+35730-005900FM-15+0021GMTT V0200801N006210048019N0112651N1+01201+01001999999ADDGA1071+004809999GF107991999999999999999999MA1101691999999MW1001REMMET008NEW NSG;EQDQ01+000000PRSWM2
0179601010999991999011306004+35730-005900SY-MT+0021GMTT V0200801N006210048019N0100001N1+01221+00951101751ADDAA199031091GA1071+004809999GF199999051021004501001001KA1120N+01111MA1101691999999MD1110031+9999MW1001REMSYN017 333 20111 85816;MET008NEW NSG;EQDQ01+000052SCOTCVQ02+000000PRSWM2
0102601010999991999011306304+35730-005900FM-15+0021GMTT V0200801N006210048019N0112651N1+01201+01001999999ADDGA1071+004809999GF107991999999999999999999MA1101691999999MW1001REMMET008NEW NSG;EQDQ01+000000PRSWM2
0104601010999991999011308004+35730-005900FM-15+0021GMTT V0200801N002112200019N0112651N1+01201+00901999999ADDGA1021+004809999GF104991999999999999999999MA1101801999999MW1001REMMET010NEW NOSIG;EQDQ01+000000PRSWM2
0162601010999991999011309004+35730-005900SY-MT+0021GMTT V0200801N008212200019N0100001N1+01341+00981101871ADDAA199000091GA1021+004809999GF103991031021004501001001MA1101801999999MD1310121+9999MW1001REMSYN011 333 83816;MET010NEW NOSIG;EQDQ01+000000PRSWM2Q02  00002PRCP99
0104601010999991999011309304+35730-005900FM-15+0021GMTT V0200801N008212200019N0112651N1+01301+01001999999ADDGA1021+004809999GF104991999999999999999999MA1101801999999MW1001REMMET010NEW NOSIG;EQDQ01+000000PRSWM2
0104601010999991999011310304+35730-005900FM-15+0021GMTT V0200801N008212200019N0112651N1+01501+01001999999ADDGA1021+004809999GF102991999999999999999999MA1101901999999MW1001REMMET010NEW NOSIG;EQDQ01+000000PRSWM2
0162601010999991999011312004+35730-005900SY-MT+0021GMTT V0200801N011312200019N0100001N1+01571+01001101881ADDAA199000091GA1021+004809999GF104991041021004501001001MA1101901999999MD1010011+9999MW1001REMSYN011 333 84816;MET010NEW NOSIG;EQDQ01+000000PRSWM2Q02  00002PRCP99
0105601010999991999011312304+35730-005900FM-15+0021GMTT V0200801N011312200019N0112651N1+01601+01001999999ADDGA1021+004809999GF104991999999999999999999MA1101801999999MW1001REMMET011NEW NPOSIG;EQDQ01+000000PRSWM2
0104601010999991999011313304+35730-005900FM-15+0021GMTT V0200801N011312200019N0112651N1+01701+01001999999ADDGA1021+004809999GF104991999999999999999999MA1101022999999MW1001REMMET010NEW NOSIG;EQDQ01+000000PRSWM2
0162601010999991999011315004+35730-005900SY-MT+0021GMTT V0200801N012312200019N0100001N1+01661+01011101631ADDAA199000091GA1021+004809999GF104991041021004501001001MA1101801999999MD1810251+9999MW1001REMSYN011 333 84816;MET010NEW NOSIG;EQDQ01+000000PRSWM2Q02  00002PRCP99
0104601010999991999011315304+35730-005900FM-15+0021GMTT V0200801N012312200019N0112651N1+01701+01001999999ADDGA1021+004809999GF104991999999999999999999MA1101591999999MW1001REMMET010NEW NOSIG;EQDQ01+000000PRSWM2
0104601010999991999011316304+35730-005900FM-15+0021GMTT V0200801N011312200019N0112651N1+01601+00901999999ADDGA1021+004809999GF104991999999999999999999MA1101491999999MW1001REMMET010NEW NOSIG;EQDQ01+000000PRSWM2
0179601010999991999011318004+35730-005900SY-MT+0021GMTT V0200601N009312200019N0100001N1+01421+00961101591ADDAA199000091GA1021+004809999GF104991041021004501001001KA1120M+01701MA1101491999999MD1510041+9999MW1001REMSYN017 333 10170 84816;MET008NEW NSG;EQDQ01+000000PRSWM2Q02  00002PRCP99
0102601010999991999011319004+35730-005900FM-15+0021GMTT V0200601N008212200019N0112651N1+01401+01001999999ADDGA1021+004809999GF104991999999999999999999MA1101491999999MW1001REMMET008NEW NSG;EQDQ01+000000PRSWM2
0102601010999991999011320004+35730-005900FM-15+0021GMTT V0200801N006212200019N0112651N1+01301+01001999999ADDGA1021+004809999GF104991999999999999999999MA1101591999999MW1001REMMET008NEW NSG;EQDQ01+000000PRSWM2
0160601010999991999011321004+35730-005900SY-MT+0021GMTT V0200801N006712200019N0100001N1+01301+01041101601ADDAA199000091GA1021+004809999GF102991021021004501001001MA1101591999999MD1310011+9999MW1001REMSYN011 333 82816;MET008NEW NSG;EQDQ01+000000PRSWM2Q02  00002PRCP99
0102601010999991999011322004+35730-005900FM-15+0021GMTT V0200801N004112200019N0112651N1+01301+01101999999ADDGA1021+004809999GF102991999999999999999999MA1101591999999MW1001REMMET008NEW NSG;EQDQ01+000000PRSWM2
0102601010999991999011323004+35730-005900FM-15+0021GMTT V0200801N005112200019N0112651N1+01301+01101999999ADDGA1021+004809999GF102991999999999999999999MA1101591999999MW1001REMMET008NEW NSG;EQDQ01+000000PRSWM2
0144601010999991999011400004+35730-005900SY-MT+0021GMTT V0200801N006212200019N0100001N1+01341+00951101601ADDAA199000091GA1021+004809999GF102991021021004501001001MA1101591999999MD1410001+9999MW1001REMSYN011 333 82816;MET008NEW NSG;EQDQ01  00002PRCP99
0083601010999991999011401004+35730-005900FM-15+0021GMTT V0200801N006212200019N0112651N1+01301+01001999999ADDGA1021+004809999GF102991999999999999999999MA1101591999999MW1001REMMET008NEW NSG;
0099601010999991999011402004+35730-005900FM-15+0021GMTT V0200801N005112200019N0112651N1+01401+01001999999ADDGA1021+004809999GA2021+069009999GF104991999999999999999999MA1101491999999MW1001REMMET008NEW NSG;
0166601010999991999011403004+35730-005900SY-MT+0021GMTT V0200801N009312200019N0100001N1+01421+00961101501ADDAA199000091GA1021+004809999GA2021+069009999GF104991021021004501001021MA1101491999999MD1710101+9999MW1001REMSYN017 333 82816 83073;MET008NEW NSG;EQDQ01  00002PRCP99
0099601010999991999011403304+35730-005900FM-15+0021GMTT V0200801N008212200019N0112651N1+01401+01001999999ADDGA1021+004809999GA2021+069009999GF104991999999999999999999MA1101491999999MW1001REMMET008NEW NSG;
0099601010999991999011404304+35730-005900FM-15+0021GMTT V0200801N006212200019N0112651N1+01401+01001999999ADDGA1021+004809999GA2021+069009999GF104991999999999999999999MA1101491999999MW1001REMMET008NEW NSG;
0185601010999991999011406004+35730-005900SY-MT+0021GMTT V0200801N007212200019N0100001N1+01341+01001101391ADDAA199000091GA1021+004809999GA2021+069009999GF104991021021004501001021KA1120N+01281MA1101391999999MD1710111+9999MW1001REMSYN023 333 20128 82816 83073;MET008NEW NSG;EQDQ01  00002PRCP99
0099601010999991999011406304+35730-005900FM-15+0021GMTT V0200801N007212200019N0112651N1+01301+01001999999ADDGA1021+004809999GA2021+069009999GF104991999999999999999999MA1101291999999MW1001REMMET008NEW NSG;
0087601010999991999011408004+35730-005900FM-15+0021GMTT V0200801N003112200019N0112651N1+99999+99999999999ADDGA1021+004809999GF104991999999999999999999MW1001REMMET027NEW T233 12/09 Q1014 NOSIG;
0182601010999991999011409004+35730-005900SY-MT+0021GMTT V0200801N00511090001CN0100001N1+01241+00931101481ADDAA199000091GA1031+004809089GF105991031021004501001021MD1110091+9999MW1001REMSYN017 333 83816 83073;MET055NEW 140830Z ///// 9999 SCT016 SCT200 12/09 Q1014 NOSIG;EQDQ01  00002PRCP99
0101601010999991999011409304+35730-005900FM-15+0021GMTT V0201001N005112200019N0112651N1+01201+00901999999ADDGA1021+004809999GA2021+069009999GF104991999999999999999999MA1101391999999MW1001REMMET010NEW NOSIG;
0101601010999991999011410304+35730-005900FM-15+0021GMTT V0201001N004112200019N0112651N1+01501+00801999999ADDGA1021+004809999GA2021+069009999GF104991999999999999999999MA1101391999999MW1001REMMET010NEW NOSIG;
0168601010999991999011412004+35730-005900SY-MT+0021GMTT V0200601N00621090001CN0100001N1+01621+01061101521ADDAA199000091GA1021+004809999GA2021+069009999GF105991031021004501001021MA1101491999999MD1310041+9999MW1001REMSYN017 333 83816 83073;MET010NEW NOSIG;EQDQ01  00002PRCP99
0079601010999991999011412304+35730-005900FM-15+0021GMTT V0200601N00621220001CN0112651N1+01601+01101999999ADDGA1071+004809999GA2021+069009999MW1611REMMET010NEW NOSIG;EQDQ01    003PRSWM1
0101601010999991999011414004+35730-005900FM-15+0021GMTT V0200801N007210048019N0080001N1+01501+01101999999ADDGA1021+003009999GA2071+004809999GF107991999999999999999999MA1101391999999MW1001REMMET010NEW NOSIG;
0173601010999991999011415004+35730-005900SY-MT+0021GMTT V0200601N007210048019N0080001N1+01501+01131101401ADDAY161031AY221031GA1021+003009999GA2071+004809999GF107991071021004501999999MA1101391999999MD1610121+9999MW1021REMSYN017 333 83710 86816;MET010NEW NOSIG;EQDQ01    003PRSWM1
0101601010999991999011415304+35730-005900FM-15+0021GMTT V0200601N007210048019N0080001N1+01501+01101999999ADDGA1021+003009999GA2071+004809999GF107991999999999999999999MA1101391999999MW1001REMMET010NEW NOSIG;
0101601010999991999011416304+35730-005900FM-15+0021GMTT V0200601N007210048019N0080001N1+01501+01101999999ADDGA1021+003009999GA2071+004809999GF107991999999999999999999MA1101391999999MW1001REMMET010NEW NOSIG;
0189601010999991999011418004+35730-005900SY-MT+0021GMTT V0200801N002110048019N0080001N1+01321+01001999999ADDAA199000191AY161061AY221061GA1021+003009999GA2071+004809999GF107991071021004501999999KA1120M+01631MA1101391999999MW1021REMSYN023 333 10163 82610 87816;MET010NEW NOSIG;EQDQ01    003PRSWM1
0101601010999991999011418304+35730-005900FM-15+0021GMTT V0200801N002110048019N0080001N1+01301+01001999999ADDGA1021+003009999GA2071+004809999GF107991999999999999999999MA1101391999999MW1001REMMET010NEW NOSIG;
0103601010999991999011419304+35730-005900FM-15+0021GMTT V0201001N002110048019N0080001N1+01301+01001999999ADDGA1021+003009999GA2071+004809999GF107991999999999999999999MA1101391999999MW1001REMMET012NEW NOPSIHG;
0101601010999991999011420304+35730-005900FM-15+0021GMTT V0200801N002110048019N0080001N1+01201+01001999999ADDGA1021+003009999GA2071+004809999GF107991999999999999999999MA1101391999999MW1001REMMET010NEW NOSIG;
0096601010999991999011421004+35730-005900FM-12+0021GMTT V0201201N00151004201CN0100001N1+01201+00971101521ADDAA199000021GA1021+005709079GF105991051021004501001001MD1310051+9999REMSYN017 333 82719 84816;
0099601010999991999011421304+35730-005900FM-15+0021GMTT V0201201N001012200019N0112651N1+01201+01001999999ADDGA1021+003009999GA2021+004809999GF104991999999999999999999MA1101491999999MW1001REMMET008NEW NSG;
0099601010999991999011423004+35730-005900FM-15+0021GMTT V0201201N002112200019N0112651N1+01101+00901999999ADDGA1021+003009999GA2021+004809999GF104991999999999999999999MA1101491999999MW1001REMMET008NEW NSG;
0159601010999991999011500004+35730-005900SY-MT+0021GMTT V0200801N003612200019N0080001N1+00831+00611101711ADDAA199000021GA1021+003009999GA2021+004809999GF199999001001999999001001MA1101491999999MD1210151+9999MW1001REMMET008NEW NSG;EQDQ01+000002SCOTCVQ02+000000PRSWM2
0086601010999991999011502004+35730-005900FM-15+0021GMTT V0201001N001512200019N0080001N1+00801+00601999999ADDGF100991999999999999999999MA1101691999999MW1001REMMET008NEW NSG;EQDQ01+000000PRSWM2
0086601010999991999011502304+35730-005900FM-15+0021GMTT V0201001N001012200019N0080001N1+00801+00601999999ADDGF100991999999999999999999MA1101691999999MW1001REMMET008NEW NSG;EQDQ01+000000PRSWM2
0127601010999991999011503004+35730-005900SY-MT+0021GMTT V0201001N001512200019N0080001N1+00761+00581101731ADDAA199000091GF100991001001999999001001MA1101691999999MD1310031+9999MW1001REMMET008NEW NSG;EQDQ01+000000PRSWM2Q02  00002PRCP99
0086601010999991999011504004+35730-005900FM-15+0021GMTT V0201201N001512200019N0080001N1+00801+00601999999ADDGF100991999999999999999999MA1101691999999MW1001REMMET008NEW NSG;EQDQ01+000000PRSWM2
0086601010999991999011504304+35730-005900FM-15+0021GMTT V0201001N002112200019N0080001N1+00801+00601999999ADDGF100991999999999999999999MA1101691999999MW1001REMMET008NEW NSG;EQDQ01+000000PRSWM2
0141601010999991999011506004+35730-005900SY-MT+0021GMTT V0200801N001012200019N0080001N1+00741+00631101781ADDAA199000191GF100991001001999999001001KA1999N+00641MA1101691999999MD1310061+9999MW1001REMSYN011 333 20064;MET008NEW NSG;EQDQ01+000000PRSWM2
0086601010999991999011507304+35730-005900FM-15+0021GMTT V0201201N001512200019N0080001N1+00701+00601999999ADDGF100991999999999999999999MA1101801999999MW1001REMMET008NEW NSG;EQDQ01+000000PRSWM2
0184601010999991999011509004+35730-005900SY-MT+0021GMTT V0200801N001512200019N0100001N1+00781+00551101991ADDAA199000091GA1021+004809999GA2021+069009999GF104991021021004501001021MA1101901999999MD1310211+9999MW1001REMSYN017 333 82816 83073;MET010NEW NOSIG;EQDQ01+000000PRSWM2Q02  00002PRCP99
0120601010999991999011510004+35730-005900FM-15+0021GMTT V0201201N001012200019N0080001N1+01101+00901999999ADDGA1021+003909999GA2021+069009999GF104991999999999999999999MA1102001999999MW1001REMMET010NEW NOSIG;EQDQ01+000000PRSWM2
0104601010999991999011512004+35730-005900FM-15+0021GMTT V0202201N002612200019N0112651N1+01601+01001999999ADDGA1021+003909999GF102991999999999999999999MA1102101999999MW1001REMMET010NEW NOSIG;EQDQ01+000000PRSWM2
0120601010999991999011512304+35730-005900FM-15+0021GMTT V0200801N001512200019N0112651N1+01601+01001999999ADDGA1021+004809999GA2021+069009999GF104991999999999999999999MA1102101999999MW1001REMMET010NEW NOSIG;EQDQ01+000000PRSWM2
0120601010999991999011513304+35730-005900FM-15+0021GMTT V0202201N001512200019N0112651N1+01701+01001999999ADDGA1021+004809999GA2021+069009999GF104991999999999999999999MA1102101999999MW1001REMMET010NEW NOSIG;EQDQ01+000000PRSWM2
0182601010999991999011515004+35730-005900SY-MT+0021GMTT V0203001N002612200019N0100001N1+01611+01141102101ADDAA199000091GA1021+003909999GA2021+004809999GF104991041021004501001001MA1102101999999MD1610081+9999MW1001REMSYN017 333 82813 83816;MET008NEW NSG;EQDQ01+000000PRSWM2Q02  00002PRCP99
0118601010999991999011515304+35730-005900FM-15+0021GMTT V0203001N002112200019N0112651N1+01601+01101999999ADDGA1021+003909999GA2021+004809999GF104991999999999999999999MA1102101999999MW1001REMMET008NEW NSG;EQDQ01+000000PRSWM2
0102601010999991999011516304+35730-005900FM-15+0021GMTT V0202801N002112200019N0112651N1+01601+01101999999ADDGA1021+004809999GF104991999999999999999999MA1102101999999MW1001REMMET008NEW NSG;EQDQ01+000000PRSWM2
0179601010999991999011518004+35730-005900SY-MT+0021GMTT V0209999C000012200019N0100001N1+01511+01141102151ADDAA199000091GA1021+004809999GF104991041081004501001001KA1120M+01631MA1102101999999MD1110051+9999MW1001REMSYN017 333 10163 84816;MET008NEW NSG;EQDQ01+000000PRSWM2Q02  00002PRCP99
0102601010999991999011518304+35730-005900FM-15+0021GMTT V0209999C000012200019N0112651N1+01501+01101999999ADDGA1021+004809999GF104991999999999999999999MA1102101999999MW1001REMMET008NEW NSG;EQDQ01+000000PRSWM2
0102601010999991999011520004+35730-005900FM-15+0021GMTT V0209999C000012200019N0112651N1+01301+01101999999ADDGA1021+004809999GF104991999999999999999999MA1102101999999MW1001REMMET008NEW NSG;EQDQ01+000000PRSWM2
0160601010999991999011521004+35730-005900SY-MT+0021GMTT V0201201N001012200019N0100001N1+00941+00801102281ADDAA199000091GA1021+004809999GF102991021021004501001001MA1102101999999MD1310131+9999MW1001REMSYN011 333 82816;MET008NEW NSG;EQDQ01+000000PRSWM2Q02  00002PRCP99
0104601010999991999011521304+35730-005900FM-15+0021GMTT V0201201N001012200019N0112651N1+00901+00801999999ADDGA1021+004809999GF102991999999999999999999MA1102201999999MW1001REMMET010NEW NOSIG;EQDQ01+000000PRSWM2
0104601010999991999011522304+35730-005900FM-15+0021GMTT V0201201N002112200019N9999999N1+00901+00801999999ADDGA1021+004809999GF102991999999999999999999MA1102201999999MW1001REMMET010NEW NOSIG;EQDQ01+000000PRSWM2
0104601010999991999011523304+35730-005900FM-15+0021GMTT V0209999C000012200019N0112651N1+00901+00801999999ADDGA1021+004509999GF104991999999999999999999MA1102201999999MW1001REMMET010NEW NOSIG;EQDQ01+000000PRSWM2
0104601010999991999011601004+35730-005900FM-15+0021GMTT V0209999C000012200019N0112651N1+00801+00701999999ADDGA1021+004809999GF102991999999999999999999MA1102401999999MW1001REMMET010NEW NOSIG;EQDQ01+000000PRSWM2
0104601010999991999011601304+35730-005900FM-15+0021GMTT V0209999C000012200019N0112651N1+00801+00701999999ADDGA1021+004809999GF102991999999999999999999MA1102401999999MW1001REMMET010NEW NOSIG;EQDQ01+000000PRSWM2
0162601010999991999011603004+35730-005900SY-MT+0021GMTT V0209999C000012200019N0100001N1+00771+00661102371ADDAA199000091GA1021+004809999GF102991021021004501001001MA1102301999999MD1810031+9999MW1001REMSYN011 333 82816;MET010NEW NOSIG;EQDQ01+000000PRSWM2Q02  00002PRCP99
0104601010999991999011603304+35730-005900FM-15+0021GMTT V0209999C000012200019N0112651N1+00801+00701999999ADDGA1021+004809999GF102991999999999999999999MA1102301999999MW1001REMMET010NEW NOSIG;EQDQ01+000000PRSWM2
0104601010999991999011604304+35730-005900FM-15+0021GMTT V0209999C000012200019N0112651N1+00701+00601999999ADDGA1021+004809999GF102991999999999999999999MA1102301999999MW1001REMMET010NEW NOSIG;EQDQ01+000000PRSWM2
0181601010999991999011606004+35730-005900SY-MT+0021GMTT V0201001N003112200019N0100001N1+00761+00631102361ADDAA199000091GA1021+004809999GF102991021021004501001001KA1120N+00721MA1102301999999MD1810011+9999MW1001REMSYN017 333 20072 82816;MET010NEW NOSIG;EQDQ01+000000PRSWM2Q02  00002PRCP99
0104601010999991999011606304+35730-005900FM-15+0021GMTT V0201001N003112200019N0112651N1+00801+00601999999ADDGA1021+004809999GF102991999999999999999999MA1102301999999MW1001REMMET010NEW NOSIG;EQDQ01+000000PRSWM2
0104601010999991999011607304+35730-005900FM-15+0021GMTT V0201001N003112200019N0112651N1+00801+00601999999ADDGA1021+004809999GF102991999999999999999999MA1102301999999MW1001REMMET010NEW NOSIG;EQDQ01+000000PRSWM2
0160601010999991999011609004+35730-005900SY-MT+0021GMTT V0201001N002112200019N0100001N1+00871+00761102401ADDAA199000091GA1021+004809999GF102991021051004501001001MA1102301999999MD1310041+9999MW1001REMSYN011 333 82616;MET008NEW NSG;EQDQ01+000000PRSWM2Q02  00002PRCP99
0102601010999991999011609304+35730-005900FM-15+0021GMTT V0201201N002112200019N0112651N1+00901+00801999999ADDGA1021+004809999GF102991999999999999999999MA1102401999999MW1001REMMET008NEW NSG;EQDQ01+000000PRSWM2
0102601010999991999011610304+35730-005900FM-15+0021GMTT V0201201N002112200019N0112651N1+01301+01001999999ADDGA1021+004809999GF102991999999999999999999MA1102401999999MW1001REMMET008NEW NSG;EQDQ01+000000PRSWM2
0160601010999991999011612004+35730-005900SY-MT+0021GMTT V0203201N002112200019N0100001N1+01571+01021102481ADDAA199000091GA1021+004809999GF103991031021004501001001MA1102511999999MD1010081+9999MW1001REMSYN011 333 83816;MET008NEW NSG;EQDQ01+000000PRSWM2Q02  00002PRCP99
0102601010999991999011612304+35730-005900FM-15+0021GMTT V0203201N002112200019N0112651N1+01601+01001999999ADDGA1021+004809999GF104991999999999999999999MA1102401999999MW1001REMMET008NEW NSG;EQDQ01+000000PRSWM2
0104601010999991999011614004+35730-005900FM-15+0021GMTT V0203201N003112200019N0112651N1+01601+01001999999ADDGA1021+004809999GF104991999999999999999999MA1102401999999MW1001REMMET010NEW NOSIG;EQDQ01+000000PRSWM2
0162601010999991999011615004+35730-005900SY-MT+0021GMTT V0203201N003112200019N0100001N1+01651+01021102321ADDAA199000091GA1021+004809999GF102991021021004501001001MA1102401999999MD1710161+9999MW1001REMSYN011 333 82816;MET010NEW NOSIG;EQDQ01+000000PRSWM2Q02  00002PRCP99
0104601010999991999011615304+35730-005900FM-15+0021GMTT V0209999C000012200019N0112651N1+01701+01001999999ADDGA1021+004809999GF102991999999999999999999MA1102301999999MW1001REMMET010NEW NOSIG;EQDQ01+000000PRSWM2
0114601010999991999011617004+35730-005900FM-15+0021GMTT V0202401N003112200019N0112651N1+01601+99999999999ADDGA1021+004809999GF102991999999999999999999MA1102201999999MW1001REMMET020NEW 111 Q1022 NOSIG;EQDQ01+000000PRSWM2
0175601010999991999011618004+35730-005900SY-MT+0021GMTT V0202601N002112200019N0100001N1+01401+01131102301ADDAA199000091GA1021+004809999GF102991021051004501001001KA1999M+01721MA1102201999999MD1610021+9999MW1001REMSYN011 333 10172;MET010NEW NOSIG;EQDQ01+000000PRSWM2Q02  00002PRCP99
0104601010999991999011618304+35730-005900FM-15+0021GMTT V0202601N002112200019N0112651N1+01401+01101999999ADDGA1021+004809999GF102991999999999999999999MA1102301999999MW1001REMMET010NEW NOSIG;EQDQ01+000000PRSWM2
0104601010999991999011619304+35730-005900FM-15+0021GMTT V0201001N001512200019N0112651N1+01201+01001999999ADDGA1021+004809999GF102991999999999999999999MA1102301999999MW1001REMMET010NEW NOSIG;EQDQ01+000000PRSWM2
0160601010999991999011621004+35730-005900SY-MT+0021GMTT V0201201N002112200019N0100001N1+01181+01031102341ADDAA199000091GA1021+004809999GF102991021051004501001001MA1102301999999MD1110041+9999MW1001REMSYN011 333 82616;MET008NEW NSG;EQDQ01+000000PRSWM2Q02  00002PRCP99
0102601010999991999011621304+35730-005900FM-15+0021GMTT V0201201N001512200019N0112651N1+01201+01001999999ADDGA1021+004809999GF102991999999999999999999MA1102301999999MW1001REMMET008NEW NSG;EQDQ01+000000PRSWM2
0102601010999991999011622304+35730-005900FM-15+0021GMTT V0201401N003112200019N0112651N1+01201+01001999999ADDGA1021+004809999GF104991999999999999999999MA1102301999999MW1001REMMET008NEW NSG;EQDQ01+000000PRSWM2
0166601010999991999011700004+35730-005900SY-MT+0021GMTT V0201401N005110360019N0100001N1+01231+00981102241ADDAA199000091GA1021+004809999GF105991041051004501081001MA1102201999999MD1810041+9999MW1001REMSYN017 333 84616 83360;MET008NEW NSG;EQDQ01+000000PRSWM2Q02  00002PRCP99
0118601010999991999011700304+35730-005900FM-15+0021GMTT V0201401N004112200019N0112651N1+01201+01001999999ADDGA1021+004809999GA2021+030009999GF104991999999999999999999MA1102201999999MW1001REMMET008NEW NSG;EQDQ01+000000PRSWM2
0118601010999991999011701304+35730-005900FM-15+0021GMTT V0201601N005112200019N0112651N1+01201+01001999999ADDGA1021+004809999GA2021+030009999GF104991999999999999999999MA1102201999999MW1001REMMET008NEW NSG;EQDQ01+000000PRSWM2
0198601010999991999011703004+35730-005900SY-MT+0021GMTT V0201401N006210270019N0100001N1+01201+01021102171ADDAA199000091GA1021+004809999GA2071+027009999GF199999041051004501081001MA1102101999999MD1610071+9999MW1001REMSYN017 333 84616 85359;MET008NEW NSG;EQDQ01+000062SCOTCVQ02+000000PRSWM2Q03  00002PRCP99
0118601010999991999011703304+35730-005900FM-15+0021GMTT V0201401N008210270019N0112651N1+01201+01001999999ADDGA1021+004809999GA2071+027009999GF107991999999999999999999MA1102101999999MW1001REMMET008NEW NSG;EQDQ01+000000PRSWM2
0118601010999991999011704304+35730-005900FM-15+0021GMTT V0201601N008210048019N0112651N1+01201+01001999999ADDGA1071+004809999GA2071+024009999GF107991999999999999999999MA1102101999999MW1001REMMET008NEW NSG;EQDQ01+000000PRSWM2
0203601010999991999011706004+35730-005900SY-MT+0021GMTT V0201801N00931009001CN0080001N1+01271+01041101981ADDAA199000091GA1021+003909999GF107991051081004501081999KA1120N+01101MD1710121+9999MW1001REMSYN029 333 20110 83813 85616 86358;MET035NEW BKEN015 BKN080 13/10 Q1019 NSG;EQDQ01+000000PRSWM2Q02  00002PRCP99
0135601010999991999011706304+35730-005900FM-15+0021GMTT V0201801N010310045019N0080001N1+01301+01001999999ADDGA1021+003909999GA2071+004509999GA3071+024009999GF107991999999999999999999MA1101901999999MW1001REMMET009NEW RERA;EQDQ01+000000PRSWM2
0152601010999991999011708004+35730-005900FM-15+0021GMTT V0203001N012310039019N0040001N1+01201+01101999999ADDGA1021+002409999GA2071+003909999GA3071+027009999GF107991999999999999999999MA1101901999999MW1631REMMET010NEW NOSIG;EQDQ01+000003PRSWM1Q02    003PRSWM1
0201601010999991999011709004+35730-005900SY-MT+0021GMTT V0203001N008210039019N0060001N1+01261+01111102001ADDAY161031AY221031GA1021+002409999GA2071+003909999GA3071+027009999GF108991061021002501081999MA1101901999999MD1310021+9999MW1211MW2611REMSYN023 333 83708 85813 86359;MET010NEW NOSIG;EQDQ01    003PRSWM1
0136601010999991999011709304+35730-005900FM-15+0021GMTT V0203201N008210039019N0080001N1+01301+01101999999ADDGA1021+002409999GA2071+003909999GA3071+027009999GF107991999999999999999999MA1102001999999MW1001REMMET010NEW NOSIG;EQDQ01+000000PRSWM2
0130601010999991999011710304+35730-005900FM-15+0021GMTT V0203201N006210039019N0080001N1+01301+00901999999ADDGA1021+002409999GA2071+003909999GA3071+027009999GF107991999999999999999999MW1001REMMET019NEW Q0 Q1020 NOSIG;EQDQ01+000000PRSWM2
0222601010999991999011712004+35730-005900SY-MT+0021GMTT V0203001N012310039019N0080001N1+01371+00951102081ADDAA199006191AY161061AY261061GA1021+002409999GA2071+003909999GA3071+027009999GF107991051021002501081999MA1102001999999MD1210081+9999MW1021REMSYN023 333 82708 85813 86359;MET010NEW NOSIG;EQDQ01+000000PRSWM2Q02    003PRSWM1
0152601010999991999011712304+35730-005900FM-15+0021GMTT V0203001N011310039019N0080001N1+01401+01001999999ADDGA1021+002409999GA2071+003909999GA3071+027009999GF107991999999999999999999MA1102001999999MW1631REMMET010NEW NOSIG;EQDQ01+000003PRSWM1Q02    003PRSWM1
0136601010999991999011713304+35730-005900FM-15+0021GMTT V0203001N011310039019N0080001N1+01401+01001999999ADDGA1021+002409999GA2071+003909999GA3071+027009999GF107991999999999999999999MA1102001999999MW1001REMMET010NEW NOSIG;EQDQ01+000000PRSWM2
0207601010999991999011715004+35730-005900SY-MT+0021GMTT V0202801N009310045019N0100001N1+01351+00701101961ADDAY161031AY221031GA1021+003609999GA2071+004509999GA3021+006909099GF108991051091004501031999MD1710121+9999MW1251REMSYN023 333 82813 85815 82923;MET021NEW 1407 Q1019 NOSIG;EQDQ01+000000PRSWM2Q02    003PRSWM1
0126601010999991999011715304+35730-005900FM-15+0021GMTT V0202801N01031220001CN0112651N1+01401+00701999999ADDGA1021+003609999GA2071+004509999GA3021+006909099MA1101901999999MW1001REMMET010NEW NOSIG;EQDQ01+000022SCOTCVQ02+000000PRSWM2
0150601010999991999011716304+35730-005900FM-15+0021GMTT V0203001N01591220001CN0060001N1+01401+00501999999ADDGA1021+003009999GA2071+003909999GA3021+006909099MA1101901999999MW1801OC102111REMMET010NEW NOSIG;EQDQ01+000042SCOTCVQ02+000003PRSWM1Q03    003PRSWM1
0257601010999991999011718004+35730-005900SY-MT+0021GMTT V0202801N007210039019N0100001N1+01081+00591102021ADDAA199007191AY181061AY261061GA1021+003009999GA2071+003909999GA3021+006909099GF199999051091004501001001KA1120M+01441MA1102001999999MD1210061+9999MW1011REMSYN029 333 10144 82810 85813 82923;MET010NEW NOSIG;EQDQ01+000062SCOTCVQ02+000000PRSWM2Q03    003PRSWM1
0133601010999991999011719004+35730-005900FM-15+0021GMTT V0202601N01031220001CN0080001N1+01101+00601999999ADDGA1021+003009999GA2071+003909999GA3021+006909099MA1101901999999MW1001OC101541REMMET009NEW RESH;EQDQ01+000022SCOTCVQ02+000000PRSWM2
0135601010999991999011720004+35730-005900FM-15+0021GMTT V0202601N01031220001CN0080001N1+01001+00601999999ADDGA1021+003009999GA2071+003909999GA3021+006909999MA1102001999999MW1001OC101541REMMET011NEW NOSI G;EQDQ01+000022SCOTCVQ02+000000PRSWM2
0233601010999991999011721004+35730-005900SY-MT+0021GMTT V0203001N011310045019N0080001N1+01021+00561102101ADDAA199000021AY121031AY281031GA1021+003909999GA2071+004509999GA3021+006909099GF199999051091004501001001MA1102101999999MD1110151+9999MW1011REMSYN023 333 82813 84615 82923;MET005NEW ;EQDQ01+000052SCOTCVQ02+000000PRSWM2Q03    003PRSWM1
0139601010999991999011722004+35730-005900FM-15+0021GMTT V0203201N01131220001CN0080001N1+01001+00601999999ADDGA1021+003909999GA2071+003909999GA3021+006909099MA1102101999999MW1001OC101651REMMET015NEW TEMPO SHRA;EQDQ01+000022SCOTCVQ02+000000PRSWM2
0128601010999991999011722304+35730-005900FM-15+0021GMTT V0203201N011312200019N0080001N1+01001+00601999999ADDGA1021+004509999GA2021+006909099GF102991999999999999999999MA1102201999999MW1001OC101651REMMET010NEW NOSIG;EQDQ01+000000PRSWM2
0192601010999991999011800004+35730-005900SY-MT+0021GMTT V0203001N010312200019N0100001N1+00961+00391102381ADDAA199002091AY111061AY281061GA1021+003909999GA2021+004509999GF104991041081004501001001MA1102201999999MD1110281+9999MW1011OC101541REMSYN017 333 82813 83616;MET010NEW NOSIG;EQDQ01    003PRSWM1
0101601010999991999011800304+35730-005900FM-15+0021GMTT V0203201N010312200019N0112651N1+01001+00301999999ADDGA1021+003909999GA2021+004809999GF104991999999999999999999MA1102301999999MW1001REMMET010NEW NOSIG;
0101601010999991999011801304+35730-005900FM-15+0021GMTT V0203201N009312200019N0112651N1+01001+00401999999ADDGA1021+003909999GA2021+004809999GF104991999999999999999999MA1102401999999MW1001REMMET010NEW NOSIG;
0101601010999991999011802304+35730-005900FM-15+0021GMTT V0203201N009312200019N0112651N1+00901+00401999999ADDGA1021+003909999GA2021+004809999GF104991999999999999999999MA1102401999999MW1001REMMET010NEW NOSIG;
0101601010999991999011803304+35730-005900FM-15+0021GMTT V0203201N006212200019N0112651N1+00901+00401999999ADDGA1021+003909999GA2021+004809999GF104991999999999999999999MA1102401999999MW1001REMMET010NEW NOSIG;
0101601010999991999011804304+35730-005900FM-15+0021GMTT V0203201N006212200019N0112651N1+00901+00401999999ADDGA1021+003909999GA2021+004809999GF104991999999999999999999MA1102401999999MW1001REMMET010NEW NOSIG;
0168601010999991999011806004+35730-005900SY-MT+0021GMTT V0203201N006212200019N0100001N1+00931+00461102631ADDAA199008991GA1021+003909999GA2021+004809999GF104991041081004501001001KA1120N+00761MA1102511999999MD1110161+9999MW1001REMSYN023 333 20076 82813 83616;MET010NEW NOSIG;
0101601010999991999011806304+35730-005900FM-15+0021GMTT V0203201N006212200019N0112651N1+00901+00501999999ADDGA1021+003909999GA2021+004809999GF104991999999999999999999MA1102611999999MW1001REMMET010NEW NOSIG;
0086601010999991999011807304+35730-005900FM-15+0021GMTT V0203201N006212200019N0112651N1+99999+99999999999ADDGA1021+003909999GF102991999999999999999999MW1001REMMET026NEW 016 08/04 Q1026 NOSIG;
0162601010999991999011809004+35730-005900SY-MT+0021GMTT V0203401N004112200019N0150001N1+00761+00391102881ADDAA199000091GA1021+003909999GA2021+004809999GF103991021081004501001011MA1102811999999MD1110241+9999MW1001REMSYN011 333 81813;MET010NEW NOSIG;EQDQ01  00002PRCP99
0085601010999991999011809304+35730-005900FM-15+0021GMTT V0203401N004112200019N0112651N1+00801+00401999999ADDGA1021+003909999GF102991999999999999999999MA1102811999999MW1001REMMET010NEW NOSIG;
0085601010999991999011810304+35730-005900FM-15+0021GMTT V0203401N004112200019N0112651N1+01101+00301999999ADDGA1021+004809999GF102991999999999999999999MA1102911999999MW1001REMMET010NEW NOSIG;
0146601010999991999011812004+35730-005900SY-MT+0021GMTT V0203201N003112200019N0150001N1+01201+00451102961ADDAA199000091GA1021+004809999GF103991031021004501001001MA1102911999999MD1010091+9999MW1001REMSYN011 333 83816;MET010NEW NOSIG;EQDQ01  00002PRCP99
0085601010999991999011812304+35730-005900FM-15+0021GMTT V0203201N004112200019N0112651N1+01201+00501999999ADDGA1021+004809999GF104991999999999999999999MA1102911999999MW1001REMMET010NEW NOSIG;
0085601010999991999011813304+35730-005900FM-15+0021GMTT V0203201N004112200019N0112651N1+01201+00501999999ADDGA1021+004809999GF102991999999999999999999MA1102911999999MW1001REMMET010NEW NOSIG;
0146601010999991999011815004+35730-005900SY-MT+0021GMTT V0203201N004112200019N0150001N1+01261+00471102821ADDAA199000091GA1021+004809999GF102991021021004501001001MA1102811999999MD1810141+9999MW1001REMSYN011 333 82816;MET010NEW NOSIG;EQDQ01  00002PRCP99
0085601010999991999011816004+35730-005900FM-15+0021GMTT V0203201N004112200019N0112651N1+01201+00501999999ADDGA1021+004809999GF102991999999999999999999MA1102811999999MW1001REMMET010NEW NOSIG;
0085601010999991999011816304+35730-005900FM-15+0021GMTT V0203201N003112200019N0112651N1+01201+00501999999ADDGA1021+004809999GF102991999999999999999999MA1102811999999MW1001REMMET010NEW NOSIG;
0159601010999991999011818004+35730-005900SY-MT+0021GMTT V0203201N004112200019N0150001N1+01011+00441102791ADDAA199000091GA1021+004809999GF199999001001999999001001KA1999M+01261MA1102811999999MD1710031+9999MW1001REMSYN011 333 10126;MET010NEW NOSIG;EQDQ01  00002PRCP99
0049601010999991999011818304+35730-005900FM-15+0021GMTT V0203201N00211220001CN0099001N1+01001+00401999999ADDMA1102711999999MW1001REMMET016NEW CAVOK NOSIG;
0049601010999991999011819304+35730-005900FM-15+0021GMTT V0203601N00311220001CN0099001N1+00801+00401999999ADDMA1102811999999MW1001REMMET016NEW CAVOK NOSIG;
0119601010999991999011821004+35730-005900SY-MT+0021GMTT V0203401N004112200019N0100001N1+00751+00531102911ADDAA199000091GF100991001001999999001001MA1102811999999MD1110111+9999MW1001REMMET016NEW CAVOK NOSIG;EQDQ01  00002PRCP99
0049601010999991999011821304+35730-005900FM-15+0021GMTT V0203201N00411220001CN0099001N1+00801+00501999999ADDMA1102911999999MW1001REMMET016NEW CAVOK NOSIG;
0049601010999991999011822304+35730-005900FM-15+0021GMTT V0201201N00411220001CN0099001N1+00701+00501999999ADDMA1102911999999MW1001REMMET016NEW CAVOK NOSIG;
0135601010999991999011900004+35730-005900SY-MT+0021GMTT V0201201N002112200019N0100001N1+00471+00371102951ADDAA199000091GF100991001001999999001001MA1102911999999MD1310041+9999MW1001REMMET016NEW CAVOK NOSIG;EQDQ01+000000PRSWM2Q02  00002PRCP99
0068601010999991999011900304+35730-005900FM-15+0021GMTT V0201201N00211220001CN0099001N1+00501+00401999999ADDMA1102911999999MW1001REMMET016NEW CAVOK NOSIG;EQDQ01+000000PRSWM2
0068601010999991999011902004+35730-005900FM-15+0021GMTT V0201201N00311220001CN0099001N1+00401+00301999999ADDMA1102911999999MW1001REMMET016NEW CAVOK NOSIG;EQDQ01+000000PRSWM2
0135601010999991999011903004+35730-005900SY-MT+0021GMTT V0201201N002112200019N0100001N1+00371+00191102871ADDAA199000091GF100991001001999999001001MA1102911999999MD1710081+9999MW1001REMMET016NEW CAVOK NOSIG;EQDQ01+000000PRSWM2Q02  00002PRCP99
0068601010999991999011903304+35730-005900FM-15+0021GMTT V0201201N00101220001CN0099001N1+00401+00201999999ADDMA1102811999999MW1001REMMET016NEW CAVOK NOSIG;EQDQ01+000000PRSWM2
0068601010999991999011904304+35730-005900FM-15+0021GMTT V0200801N00211220001CN0099001N1+00401+00201999999ADDMA1102811999999MW1001REMMET016NEW CAVOK NOSIG;EQDQ01+000000PRSWM2
0165601010999991999011906004+35730-005900SY-MT+0021GMTT V0209999C000012200019N0100001N1+00251+00081102771ADDAA199000091GF100991001001999999001001KA1999N+00181MA1102811999999MD1710101+9999MW1001REMSYN011 333 20018;MET016NEW CAVOK NOSIG;EQDQ01+000000PRSWM2Q02  00002PRCP99
0060601010999991999011906304+35730-005900FM-15+0021GMTT V0209999C00001220001CN0099001N1+00301+00101999999ADDMW1001REMMET023NEW CAVOK Q10(27 NOSIG;EQDQ01+000000PRSWM2
0068601010999991999011907304+35730-005900FM-15+0021GMTT V0209999C00001220001CN0099001N1+00301+00101999999ADDMA1102711999999MW1001REMMET016NEW CAVOK NOSIG;EQDQ01+000000PRSWM2
0172601010999991999011909004+35730-005900SY-MT+0021GMTT V0209999C000012200019N0100001N1+00311+00161102771ADDAA199000091GF102991021051004501001001MD1510001+9999MW1001REMSYN011 333 82816;MET051NEW 190830 Z 00000KT 9999 FEW016 02/01 Q1027 NOSIG;EQDQ01+000000PRSWM2Q02  00002PRCP99
0104601010999991999011909304+35730-005900FM-15+0021GMTT V0209999C000012200019N0112651N1+00301+00201999999ADDGA1021+004809999GF102991999999999999999999MA1102711999999MW1001REMMET010NEW NOSIG;EQDQ01+000000PRSWM2
0104601010999991999011910304+35730-005900FM-15+0021GMTT V0201601N002112200019N0112651N1+00601+00501999999ADDGA1021+004809999GF102991999999999999999999MA1102711999999MW1001REMMET010NEW NOSIG;EQDQ01+000000PRSWM2
0198601010999991999011912004+35730-005900SY-MT+0021GMTT V0202201N002112200019N0150001N1+01361+00451102751ADDAA199000091GA1021+004809999GF102991011051004501001021MA1102811999999MD1810011+9999MW1001REMSYN047 22204 10136 20045 40275 58001 81502 333 81616;MET010NEW NOSIG;EQDQ01+000000PRSWM2Q02  00002PRCP99
0120601010999991999011913004+35730-005900FM-15+0021GMTT V0202001N003112200019N0112651N1+01501+00601999999ADDGA1021+004809999GA2021+069009999GF104991999999999999999999MA1102711999999MW1001REMMET010NEW NOSIG;EQDQ01+000000PRSWM2
0118601010999991999011913304+35730-005900FM-15+0021GMTT V0202401N003112200019N0112651N1+01501+00601999999ADDGA1021+004809999GA2021+069009999GF104991999999999999999999MA1102711999999MW1001REMMET008NEW NSG;EQDQ01+000000PRSWM2
0150601010999991999011915004+35730-005900SY-MT+0021GMTT V0202401N004112200019N0150001N1+01421+00651102551ADDAA199000091GF103991001001999999001021MA1102611999999MD1710201+9999MW1001REMSYN011 333 83073;MET014NEW CAVOK NSG;EQDQ01+000000PRSWM2Q02  00002PRCP99
0066601010999991999011915304+35730-005900FM-15+0021GMTT V0202601N00311220001CN0099001N1+01401+00701999999ADDMA1102511999999MW1001REMMET014NEW CAVOK NSG;EQDQ01+000000PRSWM2
0066601010999991999011916304+35730-005900FM-15+0021GMTT V0202401N00411220001CN0099001N1+01401+00401999999ADDMA1102511999999MW1001REMMET014NEW CAVOK NSG;EQDQ01+000000PRSWM2
0169601010999991999011918004+35730-005900SY-MT+0021GMTT V0202001N001012200019N0150001N1+01201+00431102431ADDAA199000091GF103991001001999999001021KA1120M+01451MA1102511999999MD1810121+9999MW1001REMSYN017 333 10145 83073;MET014NEW CAVOK NSG;EQDQ01+000000PRSWM2Q02  00002PRCP99
0066601010999991999011918304+35730-005900FM-15+0021GMTT V0202001N00101220001CN0099001N1+01201+00401999999ADDMA1102401999999MW1001REMMET014NEW CAVOK NSG;EQDQ01+000000PRSWM2
0066601010999991999011920004+35730-005900FM-15+0021GMTT V0201201N00211220001CN0099001N1+01101+00701999999ADDMA1102401999999MW1001REMMET014NEW CAVOK NSG;EQDQ01+000000PRSWM2
0063601010999991999011920304+35730-005900FM-16+0021GMTT V0201201N00211220001CN0099001N1+99999+99999999999ADDMW1001REMMET026NEW CAVOK 11M07 Q1024 NSG;EQDQ01+000000PRSWM2
0152601010999991999011921004+35730-005900SY-MT+0021GMTT V0201001N001512200019N0100001N1+00541+00381102561ADDAA199000091GF103991001001999999001021MA1102511999999MD1810011+9999MW1001REMSYN011 333 83073;MET016NEW CAVOK NOSIG;EQDQ01+000000PRSWM2Q02  00002PRCP99
0068601010999991999011921304+35730-005900FM-15+0021GMTT V0201001N00151220001CN0099001N1+00501+00401999999ADDMA1102511999999MW1001REMMET016NEW CAVOK NOSIH;EQDQ01+000000PRSWM2
0068601010999991999011922304+35730-005900FM-15+0021GMTT V0201201N00151220001CN0099001N1+00501+00401999999ADDMA1102511999999MW1001REMMET016NEW CAVOK NOSIG;EQDQ01+000000PRSWM2
0135601010999991999012000004+35730-005900SY-MT+0021GMTT V0201001N002112200019N0100001N1+00501+00381102591ADDAA199000091GF100991001001999999001001MA1102511999999MD1210031+9999MW1001REMMET016NEW CAVOK NOSIG;EQDQ01+000000PRSWM2Q02  00002PRCP99
0068601010999991999012001004+35730-005900FM-15+0021GMTT V0209999C00001220001CN0099001N1+00501+00401999999ADDMA1102511999999MW1001REMMET016NEW CAVOK NOSIG;EQDQ01+000000PRSWM2
0068601010999991999012001304+35730-005900FM-15+0021GMTT V0209999C00001220001CN0099001N1+00501+00401999999ADDMA1102511999999MW1001REMMET016NEW CAVOK NOSIG;EQDQ01+000000PRSWM2
0135601010999991999012003004+35730-005900SY-MT+0021GMTT V0209999C000012200019N0100001N1+00481+00361102531ADDAA199000091GF100991001001999999001001MA1102511999999MD1810061+9999MW1001REMMET016NEW CAVOK NOSIG;EQDQ01+000000PRSWM2Q02  00002PRCP99
0068601010999991999012003304+35730-005900FM-15+0021GMTT V0209999C00001220001CN0099001N1+00501+00401999999ADDMA1102511999999MW1001REMMET016NEW CAVOK NOSIG;EQDQ01+000000PRSWM2
0069601010999991999012004304+35730-005900FM-15+0021GMTT V0209999C00001220001CN0099001N1+00501+00301999999ADDMA1102511999999MW1001REMMET017NEW CAVOK NOSIGF;EQDQ01+000000PRSWM2
0165601010999991999012006004+35730-005900SY-MT+0021GMTT V0200801N004112200019N0100001N1+00561+00301102401ADDAA199000091GF100991001001999999001001KA1999N+00321MA1102511999999MD1710131+9999MW1001REMSYN011 333 20032;MET016NEW CAVOK NOSIG;EQDQ01+000000PRSWM2Q02  00002PRCP99
0068601010999991999012007004+35730-005900FM-15+0021GMTT V0200801N00511220001CN0099001N1+00501+00301999999ADDMA1102401999999MW1001REMMET016NEW CAVOK NOSIG;EQDQ01+000000PRSWM2
0068601010999991999012007304+35730-005900FM-15+0021GMTT V0200801N00511220001CN0099001N1+00501+00301999999ADDMA1102401999999MW1001REMMET016NEW CAVOK NOSIG;EQDQ01+000000PRSWM2
0166601010999991999012009004+35730-005900SY-MT+0021GMTT V0200801N003112200019N0100001N1+00821+00511102471ADDAA199000091GA1021+004809999GF104991021021004501081001MA1102401999999MD1310071+9999MW1001REMSYN017 333 82816 83359;MET008NEW NSG;EQDQ01+000000PRSWM2Q02  00002PRCP99
0118601010999991999012009304+35730-005900FM-15+0021GMTT V0201001N004112200019N0112651N1+00801+00501999999ADDGA1021+004809999GA2021+027009999GF104991999999999999999999MA1102401999999MW1001REMMET008NEW NSG;EQDQ01+000000PRSWM2
0118601010999991999012011004+35730-005900FM-15+0021GMTT V0201601N003112200019N0112651N1+01401+00701999999ADDGA1021+004809999GA2021+060009999GF104991999999999999999999MA1102511999999MW1001REMMET008NEW NSG;EQDQ01+000000PRSWM2
0182601010999991999012012004+35730-005900SY-MT+0021GMTT V0202401N003112200019N0150001N1+01501+00501102511ADDAA199000091GA1021+004809999GA2021+060009999GF103991011051004501001021MA1102511999999MD1010051+9999MW1001REMSYN017 333 81616 83070;MET008NEW NSG;EQDQ01+000000PRSWM2Q02  00002PRCP99
0118601010999991999012012304+35730-005900FM-15+0021GMTT V0202401N003112200019N0112651N1+01501+00501999999ADDGA1021+004809999GA2021+060009999GF104991999999999999999999MA1102511999999MW1001REMMET008NEW NSG;EQDQ01+000000PRSWM2
