0145601010999991998010100004+35733-005900SY-MT+0021GMTT V0203401N01131220001CN0100001N1+01251+00421101871ADDAA106000091AG10000GA1021+004809999GF103991031051004501001001MA1101801999999MD1210091+9999REMSYN011 333 83616;MET008NEW NOSIEQDQ01+000000PRSWM2
0103601010999991998010100304+35733-005900FM-15+0021GMTT V0203401N00931220001CN0112651N1+01301+00401999999ADDAG10999GA1021+004809999GF104991999999999999999999MA1101801999999REMMET008NEW NOSIEQDQ01+000000PRSWM2
0103601010999991998010101304+35733-005900FM-15+0021GMTT V0203201N00931220001CN0112651N1+01301+00401999999ADDAG10999GA1021+004809999GF104991999999999999999999MA1101901999999REMMET008NEW NOSIEQDQ01+000000PRSWM2
0145601010999991998010103004+35733-005900SY-MT+0021GMTT V0203401N00821220001CN0100001N1+01231+00651102001ADDAA106000091AG10000GA1021+004809999GF103991031051004501001001MA1101901999999MD1310131+9999REMSYN011 333 83616;MET008NEW NOSIEQDQ01+000000PRSWM2
0103601010999991998010104304+35733-005900FM-15+0021GMTT V0202801N00511220001CN0112651N1+01201+00701999999ADDAG10999GA1021+004809999GF104991999999999999999999MA1102001999999REMMET008NEW NOSIEQDQ01+000000PRSWM2
0175601010999991998010106004+35733-005900SY-MT+0021GMTT V0203201N00721220001CN0100001N1+01181+00591102001ADDAA106000091AA224008091AG10000GA1021+004809999GF103991031051004501001001KA1120N+01051MA1102001999999MD1410001+9999REMSYN017 333 20105 83616;MET008NEW NOSIEQDQ01+000000PRSWM2
0103601010999991998010106304+35733-005900FM-15+0021GMTT V0203201N00721220001CN0112651N1+01201+00601999999ADDAG10999GA1021+004809999GF104991999999999999999999MA1102001999999REMMET008NEW NOSIEQDQ01+000000PRSWM2
0103601010999991998010107304+35733-005900FM-15+0021GMTT V0202801N00621220001CN0112651N1+01201+00601999999ADDAG10999GA1021+004809999GF104991999999999999999999MA1102001999999REMMET008NEW NOSIEQDQ01+000000PRSWM2
0145601010999991998010109004+35733-005900SY-MT+0021GMTT V0203201N01031220001CN0150001N1+01251+00611102191ADDAA106000091AG10000GA1021+004809999GF104991041021004501001001MA1102001999999MD1310191+9999REMSYN011 333 84816;MET008NEW NOSIEQDQ01+000000PRSWM2
0103601010999991998010109304+35733-005900FM-15+0021GMTT V0203401N01031220001CN0112651N1+01301+00601999999ADDAG10999GA1021+004809999GF104991999999999999999999MA1102101999999REMMET008NEW NSG;EQDQ01+000000PRSWM2
0103601010999991998010110304+35733-005900FM-15+0021GMTT V0203201N00721220001CN0112651N1+01301+00601999999ADDAG10999GA1021+004809999GF104991999999999999999999MA1102301999999REMMET008NEW NSG;EQDQ01+000000PRSWM2
0161601010999991998010112004+35733-005900SY-MT+0021GMTT V0203201N00821004801CN0150001N1+01411+00671102311ADDAA106000091AG10000GA1071+004809999GF199999041021004501001021MA1102301999999MD1010121+9999REMSYN011 333 84816;MET008NEW NSG;EQDQ01+000052SCOTCVQ02+000000PRSWM2
0103601010999991998010112304+35733-005900FM-15+0021GMTT V0203201N00721220001CN0112651N1+01401+00701999999ADDAG10999GA1021+004809999GF104991999999999999999999MA1102301999999REMMET008NEW NSG;EQDQ01+000000PRSWM2
0103601010999991998010114004+35733-005900FM-15+0021GMTT V0203201N00931220001CN0112651N1+01501+00601999999ADDAG10999GA1021+004809999GF104991999999999999999999MA1102301999999REMMET008NEW NSG;EQDQ01+000000PRSWM2
0145601010999991998010115004+35733-005900SY-MT+0021GMTT V0203201N00621220001CN0200001N1+01481+00681102261ADDAA106000091AG10000GA1021+004809999GF104991031021004501001021MA1102201999999MD1610051+9999REMSYN011 333 83816;MET008NEW NSG;EQDQ01+000000PRSWM2
0103601010999991998010115304+35733-005900FM-15+0021GMTT V0203201N00621220001CN0112651N1+01501+00701999999ADDAG10999GA1021+004809999GF104991999999999999999999MA1102201999999REMMET008NEW NOSIEQDQ01+000000PRSWM2
0103601010999991998010116304+35733-005900FM-15+0021GMTT V0203201N00511220001CN0112651N1+01501+00701999999ADDAG10999GA1021+004809999GF104991999999999999999999MA1102201999999REMMET008NEW NOSIEQDQ01+000000PRSWM2
0164601010999991998010118004+35733-005900SY-MT+0021GMTT V0203201N00721220001CN0150001N1+01271+00711102361ADDAA106000091AG10000GA1021+004809999GF104991031021004501001021KA1120M+01501MA1102301999999MD1310101+9999REMSYN017 333 10150 83816;MET008NEW NOSIEQDQ01+000000PRSWM2
0103601010999991998010119004+35733-005900FM-15+0021GMTT V0203201N00621220001CN0112651N1+01301+00701999999ADDAG10999GA1021+004809999GF102991999999999999999999MA1102301999999REMMET008NEW NOSIEQDQ01+000000PRSWM2
0103601010999991998010120004+35733-005900FM-15+0021GMTT V0203201N00511220001CN0112651N1+01301+00801999999ADDAG10999GA1021+004809999GF102991999999999999999999MA1102301999999REMMET008NEW NOSIEQDQ01+000000PRSWM2
0145601010999991998010121004+35733-005900SY-MT+0021GMTT V0203001N00721220001CN0150001N1+01251+00751102381ADDAA106000091AG10000GA1021+004809999GF104991031021008001001021MA1102301999999MD1110021+9999REMSYN011 333 83816;MET008NEW NOSIEQDQ01+000000PRSWM2
0103601010999991998010121304+35733-005900FM-15+0021GMTT V0203201N00621220001CN0112651N1+01301+00801999999ADDAG10999GA1021+004809999GF104991999999999999999999MA1102301999999REMMET008NEW NSG;EQDQ01+000000PRSWM2
0103601010999991998010122304+35733-005900FM-15+0021GMTT V0202801N00621220001CN0112651N1+01201+00801999999ADDAG10999GA1021+004809999GF104991999999999999999999MA1102401999999REMMET008NEW NSG;EQDQ01+000000PRSWM2
0145601010999991998010200004+35733-005900SY-MT+0021GMTT V0202801N00411220001CN0100001N1+01241+01041102721ADDAA106000091AG10000GA1021+004809999GF104991031021008001001021MA1102611999999MD1210121+9999REMSYN011 333 83816;MET008NEW NSG;EQDQ01+000000PRSWM2
0103601010999991998010200304+35733-005900FM-15+0021GMTT V0202801N00511220001CN0112651N1+01201+01001999999ADDAG10999GA1021+004809999GF104991999999999999999999MA1102711999999REMMET008NEW NSG;EQDQ01+000000PRSWM2
0103601010999991998010201304+35733-005900FM-15+0021GMTT V0203001N00511220001CN0112651N1+01201+01101999999ADDAG10999GA1021+004809999GF104991999999999999999999MA1102711999999REMMET008NEW NSG;EQDQ01+000000PRSWM2
0145601010999991998010203004+35733-005900SY-MT+0021GMTT V0203201N00511220001CN0100001N1+01201+01061102771ADDAA106000091AG10000GA1021+004809999GF103991031021008001001021MA1102711999999MD1210051+9999REMSYN011 333 83816;MET008NEW NSG;EQDQ01+000000PRSWM2
0103601010999991998010204004+35733-005900FM-15+0021GMTT V0203201N00411220001CN0112651N1+01201+01001999999ADDAG10999GA1021+004809999GF104991999999999999999999MA1102711999999REMMET008NEW NSG;EQDQ01+000000PRSWM2
0103601010999991998010205004+35733-005900FM-15+0021GMTT V0203201N00311220001CN0112651N1+01201+00901999999ADDAG10999GA1021+004809999GF104991999999999999999999MA1102711999999REMMET008NEW NSG;EQDQ01+000000PRSWM2
0170601010999991998010206004+35733-005900SY-MT+0021GMTT V0202201N00411090001CN0100001N1+01171+00871102711ADDAA106000091AG10000GA1021+004809999GF106991041021008001001021KA1120N+01001MA1102711999999MD1010001+9999REMSYN023 333 20100 84816 83070;MET008NEW NSG;EQDQ01+000000PRSWM2
0119601010999991998010206304+35733-005900FM-15+0021GMTT V0202401N00511220001CN0112651N1+01201+00901999999ADDAG10999GA1021+004809999GA2021+069009999GF104991999999999999999999MA1102711999999REMMET008NEW NSG;EQDQ01+000000PRSWM2
0103601010999991998010208004+35733-005900FM-15+0021GMTT V0202001N005110048019N0112651N1+01301+00901999999ADDAG10999GA1071+004809999GF107991999999999999999999MA1102711999999REMMET008NEW NSG;EQDQ01+000000PRSWM2
0167601010999991998010209004+35733-005900SY-MT+0021GMTT V0202001N00411004801CN0100001N1+01211+00901102701ADDAA106000091AG10000GA1071+004809999GA2021+069009999GF107991041021004501001021MA1102711999999MD1810011+9999REMSYN017 333 84816 85073;MET008NEW NSG;EQDQ01+000000PRSWM2
0119601010999991998010209304+35733-005900FM-15+0021GMTT V0202001N003110690019N0112651N1+01201+00901999999ADDAG10999GA1021+004809999GA2071+069009999GF107991999999999999999999MA1102711999999REMMET008NEW NOSIEQDQ01+000000PRSWM2
0110601010999991998010210304+35733-005900FM-15+0021GMTT V0202001N00311220001CN0112651N1+99999+99999999999ADDAG10999GA1021+004809999GF104991999999999999999999REMMET030NEW BJKN233 13/09 Q1028 NOSIG;EQDQ01+000000PRSWM2
0167601010999991998010212004+35733-005900SY-MT+0021GMTT V0202001N00621090001CN0100001N1+01511+01031102801ADDAA106000091AG10000GA1021+004809999GA2021+069009999GF106991041021004501001021MA1102811999999MD1010101+9999REMSYN017 333 84816 84073;MET008NEW NOSIEQDQ01+000000PRSWM2
0119601010999991998010212304+35733-005900FM-15+0021GMTT V0202001N00621220001CN0112651N1+01501+01001999999ADDAG10999GA1021+004809999GA2021+069009999GF104991999999999999999999MA1102811999999REMMET008NEW NOSIEQDQ01+000000PRSWM2
0119601010999991998010213304+35733-005900FM-15+0021GMTT V0202201N00721220001CN0112651N1+01501+01001999999ADDAG10999GA1021+004809999GA2021+069009999GF104991999999999999999999MA1102711999999REMMET008NEW NOSIEQDQ01+000000PRSWM2
0167601010999991998010215004+35733-005900SY-MT+0021GMTT V0202201N00621004201CN0100001N1+01621+01221102741ADDAA106000091AG10000GA1021+004809999GA2021+069009999GF107991051021004501001021MA1102711999999MD1710061+9999REMSYN017 333 85816 8407/;MET008NEW NOSIEQDQ01+000000PRSWM2
0108601010999991998010215304+35733-005900FM-15+0021GMTT V0202201N006210048019N0112651N1+99999+99999999999ADDAG10999GA1071+004809999GF107991999999999999999999REMMET028NEW SC233 16/12 Q1027 NOSIG;EQDQ01+000000PRSWM2
0109601010999991998010216304+35733-005900FM-15+0021GMTT V0202201N00621220001CN0112651N1+01601+01201999999ADDAG10999GA1071+004809999GA2021+069009999MA1102711999999REMMET008NEW NOSIEQDQ01+000042SCOTCVQ02+000000PRSWM2
0186601010999991998010218004+35733-005900SY-MT+0021GMTT V0202401N00511004801CN0100001N1+01501+01131102781ADDAA106000091AG10000GA1071+004809999GA2021+069009999GF108991061021004501001021KA1120M+01621MA1102711999999MD1110051+9999REMSYN023 333 10162 86816 84073;MET008NEW NOSIEQDQ01+000000PRSWM2
0109601010999991998010218304+35733-005900FM-15+0021GMTT V0202401N00511220001CN0112651N1+01501+01101999999ADDAG10999GA1071+004809999GA2021+069009999MA1102711999999REMMET008NEW NOSIEQDQ01+000042SCOTCVQ02+000000PRSWM2
0109601010999991998010219304+35733-005900FM-15+0021GMTT V0202601N00511220001CN0112651N1+01501+01201999999ADDAG10999GA1071+004809999GA2021+069009999MA1102811999999REMMET008NEW NOSIEQDQ01+000042SCOTCVQ02+000000PRSWM2
0161601010999991998010221004+35733-005900SY-MT+0021GMTT V0202401N00311004801CN0080001N1+01461+01121102881ADDAA106000091AG10000GA1071+004809999GA2021+069009999GF107991071021004501999999MA1102811999999MD1110101+9999REMSYN011 333 87816;MET008NEW NOSIEQDQ01+000000PRSWM2
0103601010999991998010221304+35733-005900FM-15+0021GMTT V0202401N003110039019N0080001N1+01501+01101999999ADDAG10999GA1071+003909999GF107991999999999999999999MA1102811999999REMMET008NEW NOSIEQDQ01+000000PRSWM2
0103601010999991998010222304+35733-005900FM-15+0021GMTT V0202001N003110045019N0080001N1+01401+01101999999ADDAG10999GA1071+004509999GF107991999999999999999999MA1102911999999REMMET008NEW NOSIEQDQ01+000000PRSWM2
0167601010999991998010300004+35733-005900SY-MT+0021GMTT V0202001N00511004501CN0080001N1+01441+01181102921ADDAA106999929AG10000AY121061AY221061GA1071+004509999GF108991081051004501999999MA1102911999999MD1310041+9999MW1601REMSYN011 333 88615;MET008NEW NOSIEQDQ01+000000PRSWM2
0106601010999991998010300304+35733-005900FM-15+0021GMTT V0202001N004110045019N0060001N1+01401+01201999999ADDAG10999GA1021+002409999GA2071+004509999GF107991999999999999999999MA1102911999999MW1611REMMET008NEW NOSI
0106601010999991998010301304+35733-005900FM-15+0021GMTT V0202001N004110045019N0060001N1+01401+01301999999ADDAG10999GA1021+002409999GA2071+004509999GF107991999999999999999999MA1102911999999MW1511REMMET008NEW NOSI
0165601010999991998010303004+35733-005900SY-MT+0021GMTT V0202001N00411004501CN0060001N1+01301+01151102921ADDAG10000AY151031AY221031GA1021+002409999GA2081+004509999GF108991081051002501999999MA1102911999999MD1410001+9999MW1251MW2511REMSYN017 333 84708 88615;MET008NEW NOSI
0119601010999991998010303304+35733-005900FM-15+0021GMTT V0202001N004110045019N0060001N1+01301+01201999999ADDAG10999GA1021+002409999GA2081+004509999GF108991999999999999999999MA1102911999999REMMET008NEW NOSIEQDQ01+000000PRSWM2
0119601010999991998010304304+35733-005900FM-15+0021GMTT V0202001N004110045019N0060001N1+01301+01201999999ADDAG10999GA1021+002409999GA2071+004509999GF107991999999999999999999MA1102911999999REMMET008NEW NOSIEQDQ01+000000PRSWM2
0219601010999991998010306004+35733-005900SY-MT+0021GMTT V0202001N00311004501CN0100001N1+01341+01151102921ADDAA106000091AA224000591AG10000AY151061AY221061GA1021+002409999GA2071+004509999GF107991071051002501999999KA1120N+01301MA1102911999999MD1410001+9999MW1021REMSYN023 333 20130 82706 87615;MET008NEW NOSIEQDQ01+000000PRSWM2
0119601010999991998010306304+35733-005900FM-15+0021GMTT V0202001N004110045019N0112651N1+01301+01201999999ADDAG10999GA1021+002409999GA2071+004509999GF107991999999999999999999MA1102911999999REMMET008NEW NOSIEQDQ01+000000PRSWM2
0119601010999991998010307304+35733-005900FM-15+0021GMTT V0202001N004110045019N0112651N1+01301+01201999999ADDAG10999GA1021+002409999GA2071+004509999GF107991999999999999999999MA1102911999999REMMET008NEW NOSIEQDQ01+000000PRSWM2
0151601010999991998010309004+35733-005900SY-MT+0021GMTT V0202001N00311004501CN0100001N1+01431+01251102981ADDAA106000091AG10000GA1071+004509999GF107991071051004501999999MA1102911999999MD1210061+9999REMSYN017 333 82612 86615;MET008NEW NOSIEQDQ01+000000PRSWM2
0119601010999991998010309304+35733-005900FM-15+0021GMTT V0202001N003110045019N0112651N1+01401+01301999999ADDAG10999GA1021+003609999GA2071+004509999GF107991999999999999999999MA1102911999999REMMET008NEW NOSIEQDQ01+000000PRSWM2
0119601010999991998010310304+35733-005900FM-15+0021GMTT V0202201N004110045019N0112651N1+01501+01301999999ADDAG10999GA1021+003909999GA2071+004509999GF107991999999999999999999MA1103011999999REMMET008NEW NOSIEQDQ01+000000PRSWM2
0167601010999991998010312004+35733-005900SY-MT+0021GMTT V0202201N00361004801CN0100001N1+01721+01331103001ADDAA106000091AG10000GA1071+004809999GA2021+006909999GF107991071051004501999999MA1103011999999MD1010021+9999REMSYN017 333 86616 83623;MET008NEW NOSIEQDQ01+000000PRSWM2
0109601010999991998010312304+35733-005900FM-15+0021GMTT V0202201N00361220001CN0112651N1+01701+01301999999ADDAG10999GA1071+004809999GA2021+006909999MA1103011999999REMMET008NEW NOSIEQDQ01+000042SCOTCVQ02+000000PRSWM2
0103601010999991998010313304+35733-005900FM-15+0021GMTT V0202401N00311220001CN0112651N1+01701+99999999999ADDAG10999GA1071+004809999GA2021+006909999REMMET017NEW 13 Q1028 NSG;EQDQ01+000042SCOTCVQ02+000000PRSWM2
0167601010999991998010315004+35733-005900SY-MT+0021GMTT V0202601N00211004801CN0100001N1+01741+01351102741ADDAA106000091AG10000GA1071+004809999GA2021+006909999GF107991071081004501999999MA1102811999999MD1710261+9999REMSYN017 333 82813 87616;MET008NEW NOSIEQDQ01+000000PRSWM2
0119601010999991998010315304+35733-005900FM-15+0021GMTT V0202601N001510048019N0112651N1+01701+01501999999ADDAG10999GA1021+003909999GA2071+004809999GF107991999999999999999999MA1102711999999REMMET008NEW NOSIEQDQ01+000000PRSWM2
0119601010999991998010316304+35733-005900FM-15+0021GMTT V0202601N001010048019N0112651N1+01701+01301999999ADDAG10999GA1021+003909999GA2071+004809999GF107991999999999999999999MA1102711999999REMMET008NEW NOSIEQDQ01+000000PRSWM2
0119601010999991998010318304+35733-005900FM-15+0021GMTT V0209991C000010048019N0080001N1+01601+01401999999ADDAG10999GA1021+003909999GA2071+004809999GF107991999999999999999999MA1102711999999REMMET008NEW NOSIEQDQ01+000000PRSWM2
0119601010999991998010319304+35733-005900FM-15+0021GMTT V0202801N001510048019N0080001N1+01601+01401999999ADDAG10999GA1021+003909999GA2071+004809999GF107991999999999999999999MA1102711999999REMMET008NEW NOSIEQDQ01+000000PRSWM2
0183601010999991998010321004+35733-005900SY-MT+0021GMTT V0203001N00261004801CN0100001N1+01581+01351102701ADDAA106000091AG10000GA1021+003009999GA2081+004809999GF199999051081004501001001MA1102711999999MD1810021+9999REMSYN017 333 82813 84616;MET008NEW NPSOEQDQ01+000052SCOTCVQ02+000000PRSWM2
0119601010999991998010321304+35733-005900FM-15+0021GMTT V0203001N002610048019N0112651N1+01601+01401999999ADDAG10999GA1021+003909999GA2071+004809999GF107991999999999999999999MA1102711999999REMMET008NEW NOSIEQDQ01+000000PRSWM2
0119601010999991998010322304+35733-005900FM-15+0021GMTT V0209991C000010048019N0112651N1+01601+01401999999ADDAG10999GA1021+003909999GA2071+004809999GF107991999999999999999999MA1102611999999REMMET008NEW NOSIEQDQ01+000000PRSWM2
0145601010999991998010400004+35733-005900SY-MT+0021GMTT V0209991C00001220001CN0100001N1+01311+01201102661ADDAA106000091AG10000GA1021+004809999GF102991021051004501001001MA1102611999999MD1710041+9999REMSYN011 333 82616;MET008NEW NOSIEQDQ01+000000PRSWM2
0119601010999991998010400304+35733-005900FM-15+0021GMTT V0209999999999999999CN9999999N9+99999+99999999999ADDAG10999REMMET065NEW 040030Z OOOOOKT 5000 FEW006 SCT012 13/12 Q1026 TEMPO 2000 BR;EQDQ01+000002VOVAR Q02+000000PRSWM2
0129601010999991998010404004+35733-005900FM-15+0021GMTT V0209991C000010039019N0060001N1+01201+01101999999ADDAG10999GA1021+002409999GA2071+003909999GF107991999999999999999999MA1102511999999REMMET018NEW TEMPO 3000 BR;EQDQ01+000000PRSWM2
0116601010999991998010405004+35733-005900FM-15+0021GMTT V0209991C000010039019N0060001N1+01901+01101999999ADDAG10999GA1021+002409999GA2071+003909999GF107991999999999999999999MA1102511999999REMMET005NEW ;EQDQ01+000000PRSWM2
0119601010999991998010406304+35733-005900FM-15+0021GMTT V0209991C000010039019N0060001N1+01401+01301999999ADDAG10999GA1021+002409999GA2071+003909999GF107991999999999999999999MA1102511999999REMMET008NEW NOSIEQDQ01+000000PRSWM2
0135601010999991998010407304+35733-005900FM-15+0021GMTT V0209991C000010039019N9999999N9+01401+01301999999ADDAG10999GA1021+002409999GA2071+003909999GF107991999999999999999999MA1102511999999REMMET008NEW NOSIEQDQ01+000002VOVAR Q02+000000PRSWM2
0167601010999991998010409004+35733-005900SY-MT+0021GMTT V0209991C00001003901CN0060001N1+01451+01331102661ADDAA106000091AG10000GA1021+002409999GA2071+003909999GF107991071051004501999999MA1102611999999MD1310071+9999REMSYN017 333 82710 87616;MET008NEW NOSIEQDQ01+000000PRSWM2
0119601010999991998010409304+35733-005900FM-15+0021GMTT V0209991C000010048019N0060001N1+01501+01301999999ADDAG10999GA1021+003009999GA2071+004809999GF107991999999999999999999MA1102611999999REMMET008NEW NOSIEQDQ01+000000PRSWM2
0119601010999991998010410304+35733-005900FM-15+0021GMTT V0202201N001010048019N0060001N1+01501+01401999999ADDAG10999GA1021+003909999GA2071+004809999GF107991999999999999999999MA1102611999999REMMET008NEW NOSIEQDQ01+000000PRSWM2
0167601010999991998010412004+35733-005900SY-MT+0021GMTT V0202401N00101003901CN0060001N1+01621+01411102791ADDAA106000091AG10000GA1021+001809999GA2071+003909999GF107991071021002501999999MA1102711999999MD1110131+9999REMSYN017 333 82706 87813;MET008NEW NOSIEQDQ01+000000PRSWM2
0119601010999991998010412304+35733-005900FM-15+0021GMTT V0202201N001010039019N0060001N1+01601+01401999999ADDAG10999GA1021+001809999GA2071+003909999GF107991999999999999999999MA1102711999999REMMET008NEW NOSIEQDQ01+000000PRSWM2
0119601010999991998010413304+35733-005900FM-15+0021GMTT V0202201N001010048019N0060001N1+01601+01401999999ADDAG10999GA1021+001809999GA2071+004809999GF107991999999999999999999MA1102611999999REMMET008NEW NOSIEQDQ01+000000PRSWM2
0189601010999991998010415004+35733-005900SY-MT+0021GMTT V0202401N00101006001CN0080001N1+01661+01421102501ADDAA106000091AG10000GA1021+002409999GA2021+003909999GA3071+006009999GF107991071081002501999999MA1102511999999MD1710291+9999REMSYN023 333 82708 83813 85620;MET008NEW NSG;EQDQ01+000000PRSWM2
0135601010999991998010415304+35733-005900FM-15+0021GMTT V0202201N002610060019N0080001N1+01701+01401999999ADDAG10999GA1021+002409999GA2021+003909999GA3071+006009999GF107991999999999999999999MA1102511999999REMMET008NEW NSG;EQDQ01+000000PRSWM2
0135601010999991998010416304+35733-005900FM-15+0021GMTT V0202401N002110060019N0070001N1+01701+01501999999ADDAG10999GA1021+002409999GA2021+003909999GA3071+006009999GF107991999999999999999999MA1102511999999REMMET008NEW NSG;EQDQ01+000000PRSWM2
0202601010999991998010418004+35733-005900SY-MT+0021GMTT V0202401N00151006001CN0060001N1+01601+01441102501ADDAA106000091AG10000GA1021+002409999GA2021+003909999GA3071+006009999GF107991061021002501001021KA1120M+01661MA1102511999999MD1410001+9999REMSYN023 333 10166 82708 85813;MET008NEW NSG;EQDQ01+000000PRSWM2
0119601010999991998010419004+35733-005900FM-15+0021GMTT V0202401N003110039019N0060001N1+01601+01401999999ADDAG10999GA1021+002409999GA2071+003909999GF107991999999999999999999MA1102511999999REMMET008NEW NSG;EQDQ01+000000PRSWM2
0119601010999991998010419304+35733-005900FM-15+0021GMTT V0202401N002110039019N0060001N1+01601+01401999999ADDAG10999GA1021+002409999GA2071+003909999GF107991999999999999999999MA1102511999999REMMET008NEW NSG;EQDQ01+000000PRSWM2
0119601010999991998010420304+35733-005900FM-15+0021GMTT V0202401N002110039019N0060001N1+01601+01401999999ADDAG10000GA1021+002409999GA2071+003909999GF107991999999999999999999MA1102511999999REMMET008NEW NSG;EQDQ01+000000PRSWM2
0119601010999991998010421304+35733-005900FM-15+0021GMTT V0209991C000010039019N0060001N1+01401+01401999999ADDAG10999GA1021+002409999GA2071+003909999GF107991999999999999999999MA1102511999999REMMET008NEW NOQSEQDQ01+000000PRSWM2
0114601010999991998010422304+35733-005900FM-15+0021GMTT V0200421N99999999999CN9999999N9+99999+99999999999ADDAG10999REMMET044NEW 0KT 6000 FEW008 BKN013 14/13 Q1026 NOSIGEQDQ01+011831WOSPD Q02+000002VOVAR Q03+000000PRSWM2
0183601010999991998010500004+35733-005900SY-MT+0021GMTT V0209991C00001003901CN0060001N1+01451+01361102521ADDAA106000091AG10000GA1021+002409999GA2071+003909999GF199999051021002501001001MA1102611999999MD1610041+9999REMSYN017 333 82708 85813;MET008NEW NOSIEQDQ01+000052SCOTCVQ02+000000PRSWM2
0119601010999991998010502004+35733-005900FM-15+0021GMTT V0209991C000010039019N0060001N1+01401+01301999999ADDAG10999GA1021+002409999GA2071+003909999GF107991999999999999999999MA1102511999999REMMET008NEW NOSIEQDQ01+000000PRSWM2
0183601010999991998010503004+35733-005900SY-MT+0021GMTT V0209991C00001220001CN0060001N1+01141+01101102421ADDAA106000091AG10000GA1021+002409999GA2071+003909999GF199999031021002501001001MA1102511999999MD1810101+9999REMSYN017 333 82708 83813;MET008NEW NOSIEQDQ01+000032SCOTCVQ02+000000PRSWM2
0119601010999991998010503304+35733-005900FM-15+0021GMTT V0209991C00001220001CN0060001N1+01101+01101999999ADDAG10999GA1021+002409999GA2021+003909999GF104991999999999999999999MA1102401999999REMMET008NEW NOSIEQDQ01+000000PRSWM2
0119601010999991998010504304+35733-005900FM-15+0021GMTT V0209991C000010048019N0060001N1+01101+01101999999ADDAG10999GA1021+002409999GA2071+004809999GF107991999999999999999999MA1102401999999REMMET008NEW NOSIEQDQ01+000000PRSWM2
0235601010999991998010506004+35733-005900SY-MT+0021GMTT V0209991C00001004801CN0050001N1+01271+01201102421ADDAA106999999AA224000391AG10001AY161061AY261061GA1021+002409999GA2071+004809999GF108991081021002501999999KA1120N+01101MA1102401999999MD1410001+9999MW1211REMSYN023 333 20110 83708 87816;MET008NEW RERAEQDQ01+000000PRSWM2Q02  00002PRCP06
0124601010999991998010506304+35733-005900FM-15+0021GMTT V0209991C000010048019N0050001N1+01301+01201999999ADDAG10999GA1021+002409999GA2071+004809999GF107991999999999999999999MA1102401999999REMMET013NEW TEMPO RA;EQDQ01+000000PRSWM2
0124601010999991998010507304+35733-005900FM-15+0021GMTT V0202001N001510048019N0050001N1+01301+01201999999ADDAG10999GA1021+002409999GA2071+004809999GF107991999999999999999999MA1102401999999REMMET013NEW TEMPO RA;EQDQ01+000000PRSWM2
0172601010999991998010509004+35733-005900SY-MT+0021GMTT V0209991C00001004801CN0060001N1+01351+01301102581ADDAA106000091AG10000GA1021+002409999GA2071+004809999GF107991061021002501001021MA1102511999999MD1310161+9999REMSYN017 333 82708 86816;MET013NEW TEMPO RA;EQDQ01+000000PRSWM2
0119601010999991998010509304+35733-005900FM-15+0021GMTT V0209991C000010048019N0060001N1+01401+01301999999ADDAG10999GA1021+002409999GA2071+004809999GF107991999999999999999999MA1102511999999REMMET008NEW NSG;EQDQ01+000000PRSWM2
0119601010999991998010510304+35733-005900FM-15+0021GMTT V0202001N003110048019N0070001N1+01501+01401999999ADDAG10999GA1021+002409999GA2071+004809999GF107991999999999999999999MA1102611999999REMMET008NEW NSG;EQDQ01+000000PRSWM2
0167601010999991998010512004+35733-005900SY-MT+0021GMTT V0202201N00261004801CN0070001N1+01761+01501102591ADDAA106000091AG10000GA1021+002409999GA2071+004809999GF107991061021002501031999MA1102511999999MD1010011+9999REMSYN017 333 83708 86816;MET008NEW NSG;EQDQ01+000000PRSWM2
0119601010999991998010512304+35733-005900FM-15+0021GMTT V0202201N002110048019N0070001N1+01801+01501999999ADDAG10999GA1021+002409999GA2071+004809999GF107991999999999999999999MA1102511999999REMMET008NEW NSG;EQDQ01+000000PRSWM2
0116601010999991998010514004+35733-005900FM-15+0021GMTT V0202401N002110048019N0080001N1+99999+99999999999ADDAG10999GA1021+002409999GA2071+004809999GF107991999999999999999999REMMET020NEW 18M15 Q1024 NSG;EQDQ01+000000PRSWM2
0167601010999991998010515004+35733-005900SY-MT+0021GMTT V0202401N00211004801CN0080001N1+01751+01491102441ADDAA106000091AG10000GA1021+003009999GA2071+004809999GF107991061021004501031999MA1102401999999MD1810151+9999REMSYN017 333 83710 86816;MET008NEW NSG;EQDQ01+000000PRSWM2
0107601010999991998010515304+35733-005900FM-15+0021GMTT V0202201N00261220001CN0080001N1+99999+99999999999ADDAG10999GA1021+003009999GF104991999999999999999999REMMET027NEW BLN016 18/15 Q1024 NSG;EQDQ01+000000PRSWM2
0109601010999991998010516304+35733-005900FM-15+0021GMTT V0202401N00211220001CN0080001N1+01701+01501999999ADDAG10999GA1071+004809999GA2021+030009999MA1102401999999REMMET008NEW NSG;EQDQ01+000042SCOTCVQ02+000000PRSWM2
0119601010999991998010518304+35733-005900FM-15+0021GMTT V0209991C000010078019N0080001N1+01701+01401999999ADDAG10999GA1021+004809999GA2071+007809999GF107991999999999999999999MA1102401999999REMMET008NEW NSG;EQDQ01+000000PRSWM2
0119601010999991998010519304+35733-005900FM-15+0021GMTT V0209991C000010078019N0080001N1+01601+01401999999ADDAG10999GA1021+004809999GA2071+007809999GF107991999999999999999999MA1102511999999REMMET008NEW NSG;EQDQ01+000000PRSWM2
0163601010999991998010521004+35733-005900SY-MT+0021GMTT V0201001N00211220001CN0080001N1+01361+01251102541ADDAA106000091AG10000GA1021+004809999GA2071+007809999GF199999031021004501001001MA1102511999999REMSYN011 333 83816;MET008NEW NSG;EQDQ01+000032SCOTCVQ02+000000PRSWM2
0103601010999991998010521304+35733-005900FM-15+0021GMTT V0201001N00211220001CN0080001N1+01401+01301999999ADDAG10999GA1021+004809999GF104991999999999999999999MA1102511999999REMMET008NEW NSG;EQDQ01+000000PRSWM2
0103601010999991998010523004+35733-005900FM-15+0021GMTT V0201001N00211220001CN0080001N1+01301+01201999999ADDAG10999GA1021+004809999GF104991999999999999999999MA1102511999999REMMET008NEW NSG;EQDQ01+000000PRSWM2
0161601010999991998010600004+35733-005900SY-MT+0021GMTT V0209991C00001220001CN0003001N1+01151+01151102551ADDAA106000091AG10000GA1021+004809999GF103991031071002501001001MA1102511999999MD1310011+9999REMSYN011 333 83708;MET008NEW NSG;EQDQ01+000000PRSWM2Q02+000452PRSWM1
0090601010999991998010600304+35733-005900FM-15+0021GMTT V0209991C00001220001CN0003001N1+01201+01201999999ADDAG10999GA1021+002409999GF104991999999999999999999MA1102511999999MW1441REMMET008NEW NSG;
0090601010999991998010601304+35733-005900FM-15+0021GMTT V0209991C00001220001CN0003001N1+01201+01201999999ADDAG10999GA1021+002409999GF104991999999999999999999MA1102511999999MW1441REMMET008NEW NSG;
0103601010999991998010603304+35733-005900FM-15+0021GMTT V0201001N00151220001CN0050001N1+01201+01101999999ADDAG10999GA1021+003009999GF104991999999999999999999MA1102511999999REMMET008NEW NSG;EQDQ01+000000PRSWM2
0103601010999991998010604304+35733-005900FM-15+0021GMTT V0201001N00211220001CN0069001N1+01201+01101999999ADDAG10999GA1021+003009999GF104991999999999999999999MA1102511999999REMMET008NEW NSG;EQDQ01+000000PRSWM2
0186601010999991998010606004+35733-005900SY-MT+0021GMTT V0201201N00101220001CN0060001N1+01281+01231102501ADDAA106000091AG10000AY141061AY241061GA1021+003009999GF104991041061004501001001KA1120N+00961MA1102511999999MD1810051+9999MW1021REMSYN017 333 20096 84710;MET008NEW NSG;EQDQ01+000000PRSWM2
0103601010999991998010606304+35733-005900FM-15+0021GMTT V0201201N00101220001CN0060001N1+01301+01201999999ADDAG10999GA1021+003009999GF104991999999999999999999MA1102511999999REMMET008NEW NSG;EQDQ01+000000PRSWM2
0090601010999991998010608004+35733-005900FM-15+0021GMTT V0201201N001510024019N0030001N1+01301+01201999999ADDAG10999GA1071+002409999GF107991999999999999999999MA1102511999999MW1101REMMET008NEW NSG;
0189601010999991998010609004+35733-005900SY-MT+0021GMTT V0201001N00211220001CN0001001N1+01081+01021102561ADDAA106000091AG10000AY141031AY211031GA1021+002409999GA2071+004809999GF199999041061004501001001MA1102511999999MD1310061+9999MW1101MW2441REMSYN011 333 84710;MET008NEW NSG;EQDQ01+000042SCOTCV
0102601010999991998010609304+35733-005900FM-15+0021GMTT V0201001N00101220001CN0001001N1+01101+01001999999ADDAG10999GA1021+003009999GF104991999999999999999999MA1102511999999MW1441REMMET020NEW TEMPO VIS 1000M;
0089601010999991998010609504+35733-005900FM-15+0021GMTT V0201201N00101220001CN0040001N1+01201+01201999999ADDAG10000GA1021+001509999GF104991999999999999999999MA1102611999999MW1101REMMET007NEW B2;
0103601010999991998010610304+35733-005900FM-15+0021GMTT V0209991C00001220001CN0070001N1+01201+01201999999ADDAG10999GA1021+001509999GF104991999999999999999999MA1102611999999REMMET008NEW NOSIEQDQ01+000000PRSWM2
0166601010999991998010612004+35733-005900SY-MT+0021GMTT V0202801N00101220001CN0080001N1+01681+01401102641ADDAA106000091AG10000AY141061AY211061GF102991021061002501001001MD1010081+9999MW1011REMSYN011 333 82708;MET038NEW 0KT 8000 SCT008 16/14 Q1026 NOSIG;EQDQ01+000000PRSWM2
0103601010999991998010612304+35733-005900FM-15+0021GMTT V0202801N00101220001CN0080001N1+01701+01401999999ADDAG10999GA1021+002409999GF102991999999999999999999MA1102611999999REMMET008NEW NOSIEQDQ01+000000PRSWM2
0103601010999991998010613304+35733-005900FM-15+0021GMTT V0203001N00311220001CN0080001N1+01701+01401999999ADDAG10999GA1021+002409999GF102991999999999999999999MA1102511999999REMMET008NEW NOSIEQDQ01+000000PRSWM2
0103601010999991998010615304+35733-005900FM-15+0021GMTT V0203401N00411220001CN0112651N1+01901+00901999999ADDAG10999GA1021+004809999GF102991999999999999999999MA1102401999999REMMET008NEW NOSIEQDQ01+000000PRSWM2
0071601010999991998010616304+35733-005900FM-15+0021GMTT V0203401N00211999991CY0099001N1+01801+01201999999ADDAG10999MA1102511999999REMMET018NEW CAVOK B NOSIG;EQDQ01+000000PRSWM2
0080601010999991998010617304+35733-005900FM-15+0021GMTT V0209991C00001999991CY0099001N1+01701+01201999999ADDAA106000091AG10000MA1102511999999REMMET016NEW CAVOK NOSIG;EQDQ01+000000PRSWM2
0069601010999991998010618304+35733-005900FM-15+0021GMTT V0209991C00001999991CY0099001N1+01601+01301999999ADDAG10999MA1102511999999REMMET016NEW CAVOK NOSIG;EQDQ01+000000PRSWM2
0069601010999991998010620004+35733-005900FM-15+0021GMTT V0209991C00001999991CY0099001N1+01501+01301999999ADDAG10999MA1102511999999REMMET016NEW CAVOK NOSIG;EQDQ01+000000PRSWM2
0120601010999991998010621004+35733-005900SY-MT+0021GMTT V0201201N00101220001CN0100001N1+01461+01311102601ADDAA106000091AG10000GF100991001001999999001001MA1102511999999MD1110051+9999REMMET016NEW CAVOK NOSIG;EQDQ01+000000PRSWM2
0067601010999991998010621304+35733-005900FM-15+0021GMTT V0201201N00101999991CY0099001N1+01501+01301999999ADDAG10999MA1102611999999REMMET014NEW CAVOK NSG;EQDQ01+000000PRSWM2
0067601010999991998010622304+35733-005900FM-15+0021GMTT V0209991C00001999991CY0099001N1+01401+01201999999ADDAG10999MA1102611999999REMMET014NEW CAVOK NSG;EQDQ01+000000PRSWM2
0118601010999991998010700004+35733-005900SY-MT+0021GMTT V0209991C00001220001CN0100001N1+00871+00791102631ADDAA106000091AG10000GF100991001001999999001001MA1102611999999MD1310061+9999REMMET014NEW CAVOK NSG;EQDQ01+000000PRSWM2
0067601010999991998010700304+35733-005900FM-15+0021GMTT V0209991C00001999991CY0099001N1+00901+00801999999ADDAG10999MA1102611999999REMMET014NEW CAVOK NSG;EQDQ01+000000PRSWM2
0067601010999991998010702004+35733-005900FM-15+0021GMTT V0201001N00101999991CY0099001N1+00801+00701999999ADDAG10999MA1102511999999REMMET014NEW CAVOK NSG;EQDQ01+000000PRSWM2
0118601010999991998010703004+35733-005900SY-MT+0021GMTT V0201001N00261220001CN0100001N1+00871+00771102491ADDAA106000091AG10000GF100991001001999999001001MA1102511999999MD1610141+9999REMMET014NEW CAVOK NSG;EQDQ01+000000PRSWM2
0067601010999991998010703304+35733-005900FM-15+0021GMTT V0200801N00101999991CY0099001N1+00901+00801999999ADDAG10999MA1102401999999REMMET014NEW CAVOK NSG;EQDQ01+000000PRSWM2
0067601010999991998010704304+35733-005900FM-15+0021GMTT V0201001N00101999991CY0099001N1+00901+00801999999ADDAG10999MA1102401999999REMMET014NEW CAVOK NSG;EQDQ01+000000PRSWM2
0148601010999991998010706004+35733-005900SY-MT+0021GMTT V0209991C00001220001CN0100001N1+00751+00681102481ADDAA106000091AG10000GF100991001001999999001001KA1999N+00611MA1102401999999MD1810091+9999REMSYN011 333 20061;MET014NEW CAVOK NSG;EQDQ01+000000PRSWM2
0067601010999991998010706304+35733-005900FM-15+0021GMTT V0209991C00001999991CY0099001N1+00801+00701999999ADDAG10999MA1102401999999REMMET014NEW CAVOK NSG;EQDQ01+000000PRSWM2
0067601010999991998010708004+35733-005900FM-15+0021GMTT V0201401N00151999991CY0099001N1+01001+00901999999ADDAG10999MA1102401999999REMMET014NEW CAVOK NSG;EQDQ01+000000PRSWM2
0189601010999991998010709004+35733-005900SY-MT+0021GMTT V0209991C00001069001CN0100001N1+00951+00891102571ADDAA106000091AG10000GA1021+004809999GA2021+030009999GA3071+069009999GF107991021051004501031021MA1102511999999MD1310091+9999REMSYN023 333 82616 84360 85073;MET008NEW NOSIEQDQ01+000000PRSWM2
0135601010999991998010709304+35733-005900FM-15+0021GMTT V0209991C000010690019N0112651N1+01001+00901999999ADDAG10999GA1021+004809999GA2021+030009999GA3071+069009999GF107991999999999999999999MA1102511999999REMMET008NEW NOSIEQDQ01+000000PRSWM2
0131601010999991998010711004+35733-005900FM-15+0021GMTT V0201401N00311030001CN0112651N1+01301+99999999999ADDAG10999GA1021+004809999GA2071+030009999GA3071+069009999GF107991999999999999999999REMMET019NEW 10 Q1026 NOSIG;EQDQ01+000000PRSWM2
0185601010999991998010712004+35733-005900SY-MT+0021GMTT V0201001N00211030001CN0100001N1+01651+01301102711ADDAA106000091AG10000GA1021+004809999GA2071+030009999GA3071+069009999GF108991021051004501031021MD1310151+9999REMSYN023 333 82616 85360 85073;MET019NEW 10 Q1026 NOSIG;EQDQ01+000000PRSWM2
0131601010999991998010712304+35733-005900FM-15+0021GMTT V0201001N00211030001CN0112651N1+01701+99999999999ADDAG10999GA1021+004809999GA2071+030009999GA3071+069009999GF107991999999999999999999REMMET019NEW 13 Q1026 NOSIG;EQDQ01+000000PRSWM2
0115601010999991998010713304+35733-005900FM-15+0021GMTT V0200801N005110030019N0112651N1+99999+99999999999ADDAG10999GA1071+003009999GA2021+004809999GF107991999999999999999999REMMET019NEW 233 17/14 Q1025EQDQ01+000000PRSWM2
0135601010999991998010714004+35733-005900FM-15+0021GMTT V0201001N00511030001CN0112651N1+01701+01401999999ADDAG10999GA1021+004809999GA2071+030009999GA3071+069009999GF107991999999999999999999MA1102401999999REMMET008NEW NOSIEQDQ01+000000PRSWM2
0189601010999991998010715004+35733-005900SY-MT+0021GMTT V0201201N00511030001CN0100001N1+01741+01191102391ADDAA106000091AG10000GA1021+004809999GA2071+030009999GA3071+069009999GF108991021051004501031021MA1102401999999MD1710191+9999REMSYN023 333 82616 83360 87073;MET008NEW NOSIEQDQ01+000000PRSWM2
0131601010999991998010716004+35733-005900FM-15+0021GMTT V0201201N006210600019N0112651N1+01701+99999999999ADDAG10999GA1021+004809999GA2021+030009999GA3071+060009999GF107991999999999999999999REMMET019NEW 12 Q1023 NOSIG;EQDQ01+000000PRSWM2
0135601010999991998010716304+35733-005900FM-15+0021GMTT V0201201N002110600019N0112651N1+01701+01201999999ADDAG10999GA1021+004809999GA2021+030009999GA3071+060009999GF107991999999999999999999MA1102301999999REMMET008NEW NOSIEQDQ01+000000PRSWM2
0208601010999991998010718004+35733-005900SY-MT+0021GMTT V0200801N00211060001CN0100001N1+01501+01191102471ADDAA106000091AG10000GA1021+004809999GA2021+030009999GA3071+060009999GF108991021051004501031021KA1120M+01831MA1102401999999MD1310081+9999REMSYN029 333 10183 82616 83360 86070;MET008NEW NOSIEQDQ01+000000PRSWM2
0135601010999991998010718304+35733-005900FM-15+0021GMTT V0200801N002110600019N0112651N1+01501+01201999999ADDAG10999GA1021+004809999GA2021+030009999GA3071+060009999GF107991999999999999999999MA1102401999999REMMET008NEW NOSIEQDQ01+000000PRSWM2
0135601010999991998010720004+35733-005900FM-15+0021GMTT V0201001N005110600019N0112651N1+01401+01201999999ADDAG10999GA1021+004809999GA2021+030009999GA3071+060009999GF107991999999999999999999MA1102511999999REMMET008NEW NOSIEQDQ01+000000PRSWM2
0183601010999991998010721004+35733-005900SY-MT+0021GMTT V0200801N00511060001CN0100001N1+01351+00971102481ADDAA106000091AG10000GA1021+004809999GA2021+030009999GA3021+060009999GF108991021051004501031021MA1102511999999MD1010011+9999REMSYN017 333 82616 86073;MET008NEW NOSIEQDQ01+000000PRSWM2
0119601010999991998010721304+35733-005900FM-15+0021GMTT V0200801N004110600019N0112651N1+01401+01001999999ADDAG10999GA1021+004809999GA2071+060009999GF107991999999999999999999MA1102401999999REMMET008NEW NOSIEQDQ01+000000PRSWM2
0159601010999991998010800004+35733-005900SY-MT+0021GMTT V0201001N00721220001CN0100001N1+01361+01161102521ADDAA106000091AG10000GA1021+030009039GF103991021001999999031021MA1102511999999MD1310041+9999REMSYN017 333 82360 83070;MET016NEW CAVOK NOSIG;EQDQ01+000000PRSWM2
0069601010999991998010800304+35733-005900FM-15+0021GMTT V0200801N00511999991CY0099001N1+01401+01201999999ADDAG10999MA1102511999999REMMET016NEW CAVOK NOSIG;EQDQ01+000000PRSWM2
0069601010999991998010801304+35733-005900FM-15+0021GMTT V0200801N00511999991CY0099001N1+01401+01201999999ADDAG10999MA1102511999999REMMET016NEW CAVOK NOSIG;EQDQ01+000000PRSWM2
0159601010999991998010803004+35733-005900SY-MT+0021GMTT V0200801N00511220001CN0100001N1+01331+01141102461ADDAA106000091AG10000GA1011+006009059GF103991011051008001031021MA1102511999999MD1810061+9999REMSYN017 333 81620 83073;MET016NEW CAVOK NOSIG;EQDQ01+000000PRSWM2
0115601010999991998010804004+35733-005900FM-15+0021GMTT V0200801N00621220001CN0112651N1+01401+99999999999ADDAG10999GA1021+006009999GA2021+069009999GF104991999999999999999999REMMET019NEW 12 Q1024 NOSIG;EQDQ01+000000PRSWM2
0119601010999991998010805004+35733-005900FM-15+0021GMTT V0200801N00511220001CN0112651N1+01201+01101999999ADDAG10999GA1021+006009999GA2021+069009999GF104991999999999999999999MA1102401999999REMMET008NEW B NOEQDQ01+000000PRSWM2
0176601010999991998010806004+35733-005900SY-MT+0021GMTT V0201001N00621220001CN0100001N1+01371+01191102461ADDAA106000091AG10000GA1021+006009999GA2021+069009999GF103991999999008001999999KA1120N+00981REMSYN017 333 20098 88706;MET017NEW Q10(24 NOSIG;EQDQ01+000082SCOTLCQ02+000000PRSWM2
0119601010999991998010806304+35733-005900FM-15+0021GMTT V0200801N00511220001CN0112651N1+01401+01201999999ADDAG10999GA1021+006009999GA2021+069009999GF104991999999999999999999MA1102401999999REMMET008NEW NOSIEQDQ01+000000PRSWM2
0119601010999991998010808004+35733-005900FM-15+0021GMTT V0201001N00621220001CN0112651N1+01401+01201999999ADDAG10999GA1021+006009999GA2021+030009999GF104991999999999999999999MA1102401999999REMMET008NEW B NOEQDQ01+000000PRSWM2
0167601010999991998010809004+35733-005900SY-MT+0021GMTT V0201001N00621036001CN0100001N1+01401+01221102521ADDAA106000091AG10000GA1021+004809999GA2021+030009999GF106991021021004501081021MA1102511999999MD1310061+9999REMSYN017 333 82816 83360;MET008NEW NOSIEQDQ01+000000PRSWM2
0119601010999991998010809304+35733-005900FM-15+0021GMTT V0201201N00721220001CN0112651N1+01501+01201999999ADDAG10999GA1021+004809999GA2021+030009999GF104991999999999999999999MA1102511999999REMMET008NEW NOSIEQDQ01+000000PRSWM2
0119601010999991998010810304+35733-005900FM-15+0021GMTT V0201001N007710600019N0112651N1+01601+01201999999ADDAG10999GA1021+006009999GA2071+060009999GF107991999999999999999999MA1102611999999REMMET008NEW NOSIEQDQ01+000000PRSWM2
0119601010999991998010813004+35733-005900FM-15+0021GMTT V0201201N007210600019N0112651N1+01901+01201999999ADDAG10999GA1021+006009999GA2071+060009999GF107991999999999999999999MA1102511999999REMMET008NEW NOSIEQDQ01+000000PRSWM2
0119601010999991998010813304+35733-005900FM-15+0021GMTT V0201201N006210600019N0080001N1+01901+01201999999ADDAG10999GA1021+006009999GA2071+060009999GF107991999999999999999999MA1102511999999REMMET008NEW NOSIEQDQ01+000000PRSWM2
0167601010999991998010815004+35733-005900SY-MT+0021GMTT V0201001N00821060001CN0080001N1+01711+01341102481ADDAA106000091AG10000GA1021+004809999GA2071+060009999GF107991021021004501031021MA1102511999999MD1610141+9999REMSYN017 333 82816 87070;MET008NEW NSG;EQDQ01+000000PRSWM2
0119601010999991998010815304+35733-005900FM-15+0021GMTT V0201201N008210600019N0080001N1+01701+01301999999ADDAG10999GA1021+004809999GA2071+060009999GF107991999999999999999999MA1102401999999REMMET008NEW NSG;EQDQ01+000000PRSWM2
0119601010999991998010816304+35733-005900FM-15+0021GMTT V0201001N009310600019N0080001N1+01801+01301999999ADDAG10999GA1021+004809999GA2071+060009999GF107991999999999999999999MA1102401999999REMMET008NEW NSG;EQDQ01+000000PRSWM2
0154601010999991998010818004+35733-005900SY-MT+0021GMTT V0201001N008219999999N0100001N1+01601+01241999999ADDAA106000091AG10000GF105991001001999999021999KA1120M+01961MA1102511999999MD1310101+9999REMSYN017 333 10196 85070;MET014NEW CAVOK NSG;EQDQ01+000000PRSWM2
0067601010999991998010818304+35733-005900FM-15+0021GMTT V0201001N00821999991CY0099001N1+01601+01201999999ADDAG10999MA1102511999999REMMET014NEW CAVOK NSG;EQDQ01+000000PRSWM2
0067601010999991998010819304+35733-005900FM-15+0021GMTT V0200801N00621999991CY0099001N1+01601+01201999999ADDAG10999MA1102511999999REMMET014NEW CAVOK NSG;EQDQ01+000000PRSWM2
0137601010999991998010821004+35733-005900SY-MT+0021GMTT V0201001N00721220001CN0100001N1+01421+01201102631ADDAA106000091AG10000GF103991001001999999001021MA1102611999999MD1310051+9999REMSYN011 333 83073;MET016NEW CAVOK NOSIG;EQDQ01+000000PRSWM2
0069601010999991998010821304+35733-005900FM-15+0021GMTT V0201001N00721999991CY0099001N1+01401+01201999999ADDAG10999MA1102611999999REMMET016NEW CAVOK NOSIG;EQDQ01+000000PRSWM2
0114601010999991998010900004+35733-005900SY-MT+0021GMTT V0201001N00821220001CN0100001N1+01401+01161102621ADDAA106000091AG10000GF100991001001999999001001MD1710011+9999REMMET025NEW CAVOK 12 Q1026 NOSIG;EQDQ01+000000PRSWM2
0069601010999991998010900304+35733-005900FM-15+0021GMTT V0201001N00821999991CY0099001N1+01401+01201999999ADDAG10999MA1102611999999REMMET016NEW CAVOK NOSIG;EQDQ01+000000PRSWM2
0063601010999991998010901304+35733-005900FM-15+0021GMTT V0201001N00931999991CY0099001N1+01501+99999999999ADDAG10999REMMET025NEW CAVOK 12 Q1026 NOSIG;EQDQ01+000000PRSWM2
0120601010999991998010903004+35733-005900SY-MT+0021GMTT V0201001N00721220001CN0100001N1+01451+01171102541ADDAA106000091AG10000GF100991001001999999001001MA1102611999999MD1810081+9999REMMET016NEW CAVOK NOSIG;EQDQ01+000000PRSWM2
0069601010999991998010903304+35733-005900FM-15+0021GMTT V0201001N00621999991CY0099001N1+01501+01201999999ADDAG10999MA1102511999999REMMET016NEW CAVOK NOSIG;EQDQ01+000000PRSWM2
0069601010999991998010904304+35733-005900FM-15+0021GMTT V0201001N00821999991CY0099001N1+01501+01201999999ADDAG10999MA1102511999999REMMET016NEW CAVOK NOSIG;EQDQ01+000000PRSWM2
0150601010999991998010906004+35733-005900SY-MT+0021GMTT V0201001N00931220001CN0100001N1+01471+01101102421ADDAA106000091AG10000GF100991001001999999001001KA1999N+01341MA1102401999999MD1710121+9999REMSYN011 333 20134;MET016NEW CAVOK NOSIG;EQDQ01+000000PRSWM2
0069601010999991998010906304+35733-005900FM-15+0021GMTT V0201001N01031999991CY0099001N1+01501+01101999999ADDAG10999MA1102401999999REMMET016NEW CAVOK NOSIG;EQDQ01+000000PRSWM2
0119601010999991998010908004+35733-005900FM-15+0021GMTT V0201001N010310690019N0112651N1+01501+01101999999ADDAG10999GA1021+004809999GA2071+069009999GF107991999999999999999999MA1102401999999REMMET008NEW NOSIEQDQ01+000000PRSWM2
0183601010999991998010909004+35733-005900SY-MT+0021GMTT V0201201N01031069001CN0100001N1+01521+01131102511ADDAA106000091AG10000GA1021+004809999GA2071+069009999GF199999021051004501001021MA1102511999999MD1310091+9999REMSYN017 333 82616 85073;MET008NEW NSG;EQDQ01+000052SCOTCVQ02+000000PRSWM2
0126601010999991998010909454+35733-005900FM-15+0021GMTT V0201001N011310690019N0112651N1+01601+01201999999ADDAG10000GA1021+004809999GA2071+069009999GF107991999999999999999999MA1102511999999OC101651REMMET007NEW M0;EQDQ01+000000PRSWM2
0127601010999991998010910004+35733-005900FM-15+0021GMTT V0201001N011310690019N0112651N1+01601+01201999999ADDAG10999GA1021+004809999GA2071+069009999GF107991999999999999999999MA1102511999999OC101651REMMET008NEW NSG;EQDQ01+000000PRSWM2
0127601010999991998010910304+35733-005900FM-15+0021GMTT V0201201N011310690019N0112651N1+01601+01201999999ADDAG10999GA1021+004809999GA2071+069009999GF107991999999999999999999MA1102511999999OC101651REMMET008NEW NSG;EQDQ01+000000PRSWM2
0175601010999991998010912004+35733-005900SY-MT+0021GMTT V0201001N01231069001CN0100001N1+01761+01201102461ADDAA106000091AG10000GA1021+004809999GA2071+069009999GF107991021051004501001021MA1102401999999MD1810051+9999OC101751REMSYN017 333 82616 87073;MET008NEW NSG;EQDQ01+000000PRSWM2
0127601010999991998010912304+35733-005900FM-15+0021GMTT V0201001N012310690019N0112651N1+01801+01201999999ADDAG10999GA1021+004809999GA2071+069009999GF107991999999999999999999MA1102401999999OC101751REMMET008NEW NSG;EQDQ01+000000PRSWM2
0127601010999991998010913304+35733-005900FM-15+0021GMTT V0201001N012310690019N0112651N1+01801+01201999999ADDAG10999GA1021+004809999GA2071+069009999GF107991999999999999999999MA1102301999999OC101751REMMET008NEW NSG;EQDQ01+000000PRSWM2
0175601010999991998010915004+35733-005900SY-MT+0021GMTT V0201001N01291069001CN0100001N1+01811+01171102231ADDAA106000091AG10000GA1021+004809999GA2071+069009999GF107991021051004501001021MA1102301999999MD1610231+9999OC101801REMSYN017 333 82616 87073;MET008NEW NOSIEQDQ01+000000PRSWM2
0127601010999991998010916004+35733-005900FM-15+0021GMTT V0201001N011310690019N0112651N1+01801+01201999999ADDAG10999GA1021+004809999GA2071+069009999GF107991999999999999999999MA1102201999999OC101651REMMET008NEW NOSIEQDQ01+000000PRSWM2
0127601010999991998010917004+35733-005900FM-15+0021GMTT V0201001N010310690019N0112651N1+01701+01201999999ADDAG10999GA1021+004809999GA2071+069009999GF107991999999999999999999MA1102201999999OC101541REMMET008NEW NSG;EQDQ01+000000PRSWM2
0194601010999991998010918004+35733-005900SY-MT+0021GMTT V0201001N01131069001CN0100001N1+01521+01151102231ADDAA106000091AG10000GA1021+004809999GA2071+069009999GF107991021051004501001021KA1120M+01841MA1102201999999MD1410001+9999OC101541REMSYN023 333 10184 82616 87070;MET008NEW NSG;EQDQ01+000000PRSWM2
0119601010999991998010918304+35733-005900FM-15+0021GMTT V0201001N011310600019N0112651N1+01501+01201999999ADDAG10999GA1021+004809999GA2071+060009999GF107991999999999999999999MA1102201999999REMMET008NEW NSG;EQDQ01+000000PRSWM2
0119601010999991998010919304+35733-005900FM-15+0021GMTT V0201001N007710690019N0112651N1+01501+01201999999ADDAG10999GA1021+004809999GA2071+069009999GF107991999999999999999999MA1102201999999REMMET008NEW NSG;EQDQ01+000000PRSWM2
0177601010999991998010921004+35733-005900SY-MT+0021GMTT V0201001N01031069001CN0100001N1+01431+01071102271ADDAA106000091AG10000GA1021+004809999GA2071+069009999GF107991001001999999001071MA1102201999999MD1410001+9999REMSYN011 333 87273;MET008NEW NSG;EQDQ01+000992SCOLCBQ02+000000PRSWM2
0067601010999991998010921304+35733-005900FM-15+0021GMTT V0201001N01031999991CY0099001N1+01401+01101999999ADDAG10999MA1102201999999REMMET014NEW CAVOK NSG;EQDQ01+000000PRSWM2
0067601010999991998010923004+35733-005900FM-15+0021GMTT V0201001N00821999991CY0099001N1+99999+99999999999ADDAG10999REMMET029NEW CAVOK OK 15/12 Q1022 NSG;EQDQ01+000000PRSWM2
0135601010999991998011000004+35733-005900SY-MT+0021GMTT V0201001N009310900019N0100001N1+01511+01241102121ADDAA106000091AG10000GF107991001001999999001071MA1102201999999MD1810121+9999REMSYN011 333 87273;MET014NEW CAVOK NSG;EQDQ01+000000PRSWM2
0067601010999991998011000304+35733-005900FM-15+0021GMTT V0201001N00931999991CY0099001N1+01501+01201999999ADDAG10999MA1102101999999REMMET014NEW CAVOK NSG;EQDQ01+000000PRSWM2
0067601010999991998011001304+35733-005900FM-15+0021GMTT V0201001N00931999991CY0099001N1+01501+01201999999ADDAG10999MA1102101999999REMMET014NEW CAVOK NSG;EQDQ01+000000PRSWM2
0135601010999991998011003004+35733-005900SY-MT+0021GMTT V0201001N00931220001CN0100001N1+01501+01231102001ADDAA106000091AG10000GF103991001001999999001021MA1102001999999MD1710121+9999REMSYN011 333 83073;MET014NEW CAVOK NSG;EQDQ01+000000PRSWM2
0067601010999991998011004304+35733-005900FM-15+0021GMTT V0201001N00821999991CY0099001N1+01501+01201999999ADDAG10999MA1102001999999REMMET014NEW CAVOK NSG;EQDQ01+000000PRSWM2
0154601010999991998011006004+35733-005900SY-MT+0021GMTT V0201001N00931220001CN0100001N1+01521+01231101911ADDAA106000091AG10000GF103991001001999999001021KA1120N+01431MA1101901999999MD1810091+9999REMSYN017 333 20143 83073;MET014NEW CAVOK NSG;EQDQ01+000000PRSWM2
0067601010999991998011007004+35733-005900FM-15+0021GMTT V0201001N00871999991CY0099001N1+01501+01201999999ADDAG10999MA1101901999999REMMET014NEW CAVOK NSG;EQDQ01+000000PRSWM2
0067601010999991998011007304+35733-005900FM-15+0021GMTT V0201001N00931999991CY0099001N1+01501+01201999999ADDAG10999MA1101901999999REMMET014NEW CAVOK NSG;EQDQ01+000000PRSWM2
0167601010999991998011009004+35733-005900SY-MT+0021GMTT V0201201N01131220001CN0100001N1+01581+01261101941ADDAA106000091AG10000GA1021+004509999GA2021+069009999GF104991021051004501001021MA1101901999999MD1310031+9999REMSYN017 333 82615 83073;MET008NEW NOSIEQDQ01+000000PRSWM2
0127601010999991998011009304+35733-005900FM-15+0021GMTT V0201201N01031220001CN0112651N1+01601+01301999999ADDAG10999GA1021+004509999GA2021+069009999GF104991999999999999999999MA1101901999999OC101541REMMET008NEW NOSIEQDQ01+000000PRSWM2
0127601010999991998011010304+35733-005900FM-15+0021GMTT V0201201N01131220001CN0112651N1+01601+01301999999ADDAG10999GA1021+004509999GA2021+069009999GF104991999999999999999999MA1101901999999OC101751REMMET008NEW NPSIEQDQ01+000000PRSWM2
0175601010999991998011012004+35733-005900SY-MT+0021GMTT V0201201N01231220001CN0100001N1+01831+01321101941ADDAA106000091AG10000GA1021+004509999GA2021+069009999GF104991021051004501001021MA1101901999999MD1010001+9999OC101751REMSYN017 333 82615 83073;MET008NEW NOSIEQDQ01+000000PRSWM2
0127601010999991998011012304+35733-005900FM-15+0021GMTT V0201201N01231220001CN0112651N1+01801+01301999999ADDAG10999GA1021+004509999GA2021+069009999GF104991999999999999999999MA1101901999999OC101751REMMET008NEW NOSIEQDQ01+000000PRSWM2
0119601010999991998011013304+35733-005900FM-15+0021GMTT V0201001N01031220001CN0112651N1+01801+01301999999ADDAG10999GA1021+004509999GA2021+069009999GF104991999999999999999999MA1101801999999REMMET008NEW NOSIEQDQ01+000000PRSWM2
0160601010999991998011015004+35733-005900SY-MT+0021GMTT V0201201N01231220001CN0100001N1+01811+01281101751ADDAA106000091AG10000GA1021+000159999GF104991021051004501001021MD1610181+9999REMSYN017 333 82615 83073;MET032NEW (15 SCT233 18/13 Q1017 NOSIGEQDQ01+000000PRSWM2
0119601010999991998011015304+35733-005900FM-15+0021GMTT V0201001N01131220001CN0112651N1+01801+01301999999ADDAG10999GA1021+004509999GA2021+069009999GF104991999999999999999999MA1101691999999REMMET008NEW NOSIEQDQ01+000000PRSWM2
0119601010999991998011016304+35733-005900FM-15+0021GMTT V0201201N01131220001CN0112651N1+01801+01301999999ADDAG10999GA1021+003009999GA2021+004509999GF104991999999999999999999MA1101591999999REMMET008NEW NOSIEQDQ01+000000PRSWM2
0119601010999991998011017004+35733-005900FM-15+0021GMTT V0201201N01131220001CN0112651N1+01801+01301999999ADDAG10999GA1021+004509999GA2021+030009999GF104991999999999999999999MA1101591999999REMMET008NEW NOSIEQDQ01+000000PRSWM2
0186601010999991998011018004+35733-005900SY-MT+0021GMTT V0201201N00931036001CN0100001N1+01621+01131101711ADDAA106000091AG10000GA1021+004509999GA2021+030009999GF107991021051004501081021KA1120M+01931MA1101591999999MD1510041+9999REMSYN023 333 10193 82615 83360;MET008NEW NOSIEQDQ01+000000PRSWM2
0106601010999991998011018304+35733-005900FM-15+0021GMTT V0201201N00931220001CN0112651N1+99999+99999999999ADDAG10999GA1021+003609999GF102991999999999999999999REMMET026NEW 100 16/11 Q1017 NOSIG;EQDQ01+000000PRSWM2
0119601010999991998011019304+35733-005900FM-15+0021GMTT V0201201N00931220001CN0112651N1+01601+01101999999ADDAG10999GA1021+004509999GA2021+030009999GF104991999999999999999999MA1101691999999REMMET008NEW NOSIEQDQ01+000000PRSWM2
0167601010999991998011021004+35733-005900SY-MT+0021GMTT V0201001N00821036001CN0100001N1+01481+01111101741ADDAA106000091AG10000GA1021+004509999GA2021+030009999GF107991021051004501081021MA1101691999999MD1310031+9999REMSYN017 333 82615 83360;MET008NEW NOSIEQDQ01+000000PRSWM2
0119601010999991998011022304+35733-005900FM-15+0021GMTT V0201001N00821220001CN0112651N1+01501+01101999999ADDAG10999GA1021+004509999GA2021+030009999GF104991999999999999999999MA1101691999999REMMET008NEW NOSIEQDQ01+000000PRSWM2
0167601010999991998011100004+35733-005900SY-MT+0021GMTT V0201001N01031090001CN0100001N1+01501+01131101661ADDAA106000091AG10000GA1021+004509999GA2021+030009999GF105991021051004501031021MA1101691999999MD1310091+9999REMSYN017 333 82615 84073;MET008NEW NOSIEQDQ01+000000PRSWM2
0119601010999991998011100304+35733-005900FM-15+0021GMTT V0201001N01031220001CN0112651N1+01501+01101999999ADDAG10999GA1021+004509999GA2021+069009999GF104991999999999999999999MA1101591999999REMMET008NEW NOSIEQDQ01+000000PRSWM2
0119601010999991998011101304+35733-005900FM-15+0021GMTT V0201001N00931220001CN0112651N1+01501+01101999999ADDAG10999GA1021+004509999GA2021+069009999GF104991999999999999999999MA1101591999999REMMET008NEW NOSIEQDQ01+000000PRSWM2
0167601010999991998011103004+35733-005900SY-MT+0021GMTT V0201001N00621036001CN0100001N1+01421+01131101661ADDAA106000091AG10000GA1021+004509999GA2021+069009999GF106991021051004501081021MA1101591999999MD1410001+9999REMSYN017 333 82615 84360;MET008NEW NOSIEQDQ01+000000PRSWM2
0119601010999991998011103304+35733-005900FM-15+0021GMTT V0201001N006210300019N0112651N1+01401+01101999999ADDAG10999GA1021+004509999GA2071+030009999GF107991999999999999999999MA1101591999999REMMET008NEW NOSIEQDQ01+000000PRSWM2
0119601010999991998011104304+35733-005900FM-15+0021GMTT V0201001N00621220001CN0112651N1+01301+01101999999ADDAG10999GA1021+004509999GA2021+030009999GF104991999999999999999999MA1101591999999REMMET008NEW NOSIEQDQ01+000000PRSWM2
0186601010999991998011106004+35733-005900SY-MT+0021GMTT V0201001N00621030001CN0100001N1+01301+01071101701ADDAA106000091AG10000GA1021+004509999GA2071+030009999GF107991021051004501081021KA1120N+01251MA1101691999999MD1110041+9999REMSYN023 333 20125 82615 84360;MET008NEW NOSIEQDQ01+000000PRSWM2
0119601010999991998011106304+35733-005900FM-15+0021GMTT V0201001N006210270019N0112651N1+01301+01101999999ADDAG10999GA1021+004509999GA2071+027009999GF107991999999999999999999MA1101691999999REMMET008NEW NOSIEQDQ01+000000PRSWM2
0119601010999991998011107304+35733-005900FM-15+0021GMTT V0201001N006710270019N0112651N1+01301+01101999999ADDAG10999GA1021+004509999GA2071+027009999GF107991999999999999999999MA1101691999999REMMET008NEW NOSIEQDQ01+000000PRSWM2
0167601010999991998011109004+35733-005900SY-MT+0021GMTT V0201201N00461027001CN0100001N1+01371+01131101841ADDAA106000091AG10000GA1021+004509999GA2071+027009999GF107991031051004501071999MA1101801999999MD1310141+9999REMSYN017 333 83615 87358;MET008NEW NOSIEQDQ01+000000PRSWM2
0119601010999991998011109304+35733-005900FM-15+0021GMTT V0201201N004610270019N0112651N1+01401+01101999999ADDAG10999GA1021+004509999GA2071+027009999GF107991999999999999999999MA1101801999999REMMET008NEW NOSIEQDQ01+000000PRSWM2
0174601010999991998011112004+35733-005900SY-MT+0021GMTT V0201401N00411027001CN0100001N1+01741+01321102021ADDAA106000091AG10000GA1021+004509999GA2071+027009999GF107991031051004501071021MA1101801999999MD1310181+9999REMSYN017 333 83615 85359;MET015NEW NOWI NOSIG;EQDQ01+000000PRSWM2
0122601010999991998011113004+35733-005900FM-15+0021GMTT V0201601N004110270019N0080001N1+01701+01501999999ADDAG10999GA1021+004509999GA2021+004809999GA3071+027009999GF107991999999999999999999MA1102001999999MW1611REMMET008NEW NOSI
0178601010999991998011115004+35733-005900SY-MT+0021GMTT V0201201N00621027001CN0100001N1+01701+01261101781ADDAG10001AY181031AY221031GA1021+004509999GA2071+027009999GF107991031051004501071999MA1101901999999MD1810241+9999MW1011REMSYN017 333 83615 87358;MET008NEW NOSIEQDQ01+000000PRSWM2
0119601010999991998011115304+35733-005900FM-15+0021GMTT V0201001N006210270019N0112651N1+01701+01301999999ADDAG10999GA1021+004509999GA2071+027009999GF107991999999999999999999MA1101691999999REMMET008NEW NOSIEQDQ01+000000PRSWM2
0119601010999991998011116304+35733-005900FM-15+0021GMTT V0201201N004110270019N0112651N1+01701+01301999999ADDAG10999GA1021+004509999GA2071+027009999GF107991999999999999999999MA1101591999999REMMET008NEW NOSIEQDQ01+000000PRSWM2
0213601010999991998011118004+35733-005900SY-MT+0021GMTT V0202801N00511027001CN0100001N1+01651+01241101701ADDAA106000091AA299000191AG10001AY181061AY221061GA1021+004509999GA2071+027009999GF107991031051004501071999KA1120M+01741MD1810081+9999MW1021REMSYN023 333 10174 83615 87358;MET017NEW Q10(16 NOSIG;EQDQ01+000000PRSWM2
0115601010999991998011118304+35733-005900FM-15+0021GMTT V0200401N005110270019N0112651N1+01701+99999999999ADDAG10999GA1021+004509999GA2071+027009999GF107991999999999999999999REMMET019NEW 12 Q1017 NOSIG;EQDQ01+000000PRSWM2
0119601010999991998011120004+35733-005900FM-15+0021GMTT V0200801N002110270019N0112651N1+01601+01201999999ADDAG10999GA1021+004509999GA2071+027009999GF107991999999999999999999MA1101801999999REMMET008NEW NOSIEQDQ01+000000PRSWM2
0183601010999991998011121004+35733-005900SY-MT+0021GMTT V0201201N00311027001CN0100001N1+01351+01201101801ADDAA106000091AG10000GA1021+004509999GA2071+027009999GF199999999999004501999999MA1101801999999MD1210141+9999REMSYN017 333 83616 84359;MET008NEW NOSIEQDQ01+000062SCOTCVQ02+000000PRSWM2
0119601010999991998011121304+35733-005900FM-15+0021GMTT V0201201N00311220001CN0112651N1+01401+01201999999ADDAG10999GA1021+004509999GA2021+027009999GF104991999999999999999999MA1101801999999REMMET008NEW NOSIEQDQ01+000000PRSWM2
0119601010999991998011122304+35733-005900FM-15+0021GMTT V0201201N00411220001CN0112651N1+01301+01101999999ADDAG10999GA1021+004509999GA2021+027009999GF104991999999999999999999MA1101801999999REMMET008NEW NOSIEQDQ01+000000PRSWM2
0167601010999991998011200004+35733-005900SY-MT+0021GMTT V0201201N00511036001CN0100001N1+01281+01131101801ADDAA106000091AG10000GA1021+004509999GA2021+027009999GF106991031051004501071001MA1101801999999MD1810041+9999REMSYN017 333 83615 84359;MET008NEW NOSIEQDQ01+000000PRSWM2
0119601010999991998011200304+35733-005900FM-15+0021GMTT V0201201N00511220001CN0112651N1+01301+01101999999ADDAG10999GA1021+004509999GA2021+027009999GF104991999999999999999999MA1101801999999REMMET008NEW NOSIEQDQ01+000000PRSWM2
0119601010999991998011201304+35733-005900FM-15+0021GMTT V0201201N00311220001CN0112651N1+01301+01101999999ADDAG10999GA1021+004509999GA2021+027009999GF104991999999999999999999MA1101691999999REMMET008NEW NOSIEQDQ01+000000PRSWM2
0167601010999991998011203004+35733-005900SY-MT+0021GMTT V0201201N00411036001CN0100001N1+01231+01081101721ADDAA106000091AG10000GA1021+004509999GA2021+027009999GF106991031051004501071001MA1101691999999MD1610081+9999REMSYN017 333 83615 84359;MET008NEW NOSIEQDQ01+000000PRSWM2
0119601010999991998011203304+35733-005900FM-15+0021GMTT V0201001N00411220001CN0112651N1+01201+01101999999ADDAG10999GA1021+004509999GA2021+027009999GF104991999999999999999999MA1101691999999REMMET008NEW NOSIEQDQ01+000000PRSWM2
0119601010999991998011204304+35733-005900FM-15+0021GMTT V0201001N00411220001CN0112651N1+01201+01101999999ADDAG10999GA1021+004509999GA2021+027009999GF104991999999999999999999MA1101591999999REMMET008NEW NOSIEQDQ01+000000PRSWM2
0197601010999991998011206004+35733-005900SY-MT+0021GMTT V0201401N00511036001CN0080001N1+01361+01101101581ADDAA106000091AA224000191AG10000GA1021+004509999GA2021+027009999GF107991031051004501071021KA1120N+01231MA1101591999999MD1710141+9999REMSYN023 333 20123 83615 83359;MET008NEW NOSIEQDQ01+000000PRSWM2
0116601010999991998011207004+35733-005900FM-16+0021GMTT V0201401N00511220001CN0080001N1+99999+99999999999ADDAG10999GA1021+004509999GA2021+027009999GF104991999999999999999999REMMET020NEW 14=/11 Q1015 NOSEQDQ01+000000PRSWM2
0119601010999991998011207304+35733-005900FM-15+0021GMTT V0201401N00621004501CN0080001N1+01401+01101999999ADDAG10999GA1071+004509999GA2071+027009999GF107991999999999999999999MA1101491999999REMMET008NEW NOSIEQDQ01+000000PRSWM2
0167601010999991998011209004+35733-005900SY-MT+0021GMTT V0201001N00411036001CN0080001N1+01541+01201101561ADDAA106000091AG10000GA1021+004509999GA2021+069009999GF107991031051004501071021MA1101491999999MD1710021+9999REMSYN017 333 83615 84073;MET008NEW NOSIEQDQ01+000000PRSWM2
0119601010999991998011209304+35733-005900FM-15+0021GMTT V0201001N00411220001CN0080001N1+01501+01201999999ADDAG10999GA1021+004509999GA2021+069009999GF104991999999999999999999MA1101491999999REMMET008NEW NOSIEQDQ01+000000PRSWM2
0167601010999991998011212004+35733-005900SY-MT+0021GMTT V0202601N00411069001CN0080001N1+01801+01161101821ADDAA106000091AG10000GA1021+004509999GA2071+069009999GF107991031051004501071021MA1101691999999MD1110261+9999REMSYN017 333 83615 84073;MET008NEW NOSIEQDQ01+000000PRSWM2
0106601010999991998011212304+35733-005900FM-15+0021GMTT V0202601N004110270019N0080001N1+01801+01201999999ADDAG10999GA1021+004509999GA2081+027009999GF108991999999999999999999MA1101801999999MW1611REMMET008NEW NOSI
0106601010999991998011213304+35733-005900FM-15+0021GMTT V0201201N006210270019N0080001N1+01801+01201999999ADDAG10999GA1021+004509999GA2081+027009999GF108991999999999999999999MA1101801999999MW1611REMMET008NEW NOSI
0178601010999991998011215004+35733-005900SY-MT+0021GMTT V0201801N00721027001CN0060001N1+01671+01121101631ADDAG10001AY161031AY221031GA1021+004509999GA2071+027009999GF108991051051004501071999MA1101691999999MD1810191+9999MW1031REMSYN017 333 85615 86359;MET008NEW NSG;EQDQ01+000000PRSWM2
0106601010999991998011215304+35733-005900FM-15+0021GMTT V0202001N00931004501CN0060001N1+01701+01101999999ADDAG10999GA1071+004509999GA2071+027009999GF107991999999999999999999MA1101591999999MW1611REMMET008NEW NSG;
0135601010999991998011216304+35733-005900FM-15+0021GMTT V0202001N006210270019N0060001N1+01601+01001999999ADDAG10999GA1021+004509999GA2021+006909099GA3071+027009999GF107991999999999999999999MA1101591999999REMMET008NEW NSG;EQDQ01+000000PRSWM2
0133601010999991998011217304+35733-005900FM-15+0021GMTT V0202001N00931004501CN0060001N1+01601+01101999999ADDAA106999999AG10002GA1071+004509999GA2071+027009999GF107991999999999999999999MA1101591999999MW1631REMMET005NEW ;EQDQ01  00002PRCP06
0116601010999991998011218304+35733-005900FM-15+0021GMTT V0201801N00931002401CN0060001N1+01601+01201999999ADDAG10999GA1071+002409999GA2071+004509999GF107991999999999999999999MA1101591999999REMMET005NEW ;EQDQ01+000000PRSWM2
0116601010999991998011219004+35733-005900FM-15+0021GMTT V0202001N00931004501CN0070001N1+01501+01201999999ADDAG10999GA1071+004509999GA2071+027009999GF107991999999999999999999MA1101591999999REMMET005NEW ;EQDQ01+000000PRSWM2
0132601010999991998011220304+35733-005900FM-15+0021GMTT V0201801N01031004501CN0070001N1+01401+01201999999ADDAG10000GA1021+002409999GA2071+004509999GA3071+024009999GF107991999999999999999999MA1101591999999REMMET005NEW ;EQDQ01+000000PRSWM2
0114601010999991998011221004+35733-005900FM-12+0021GMTT V0201801N00621004501CN0060001N1+01451+01271101871ADDAG10001AY161031AY261031GA1051+004509059GF108991051051004501071999MD1110191+9999MW1611REMSYN017 333 85615 86359;
0106601010999991998011221304+35733-005900FM-15+0021GMTT V0201801N00981004501CN0060001N1+01501+01301999999ADDAG10999GA1071+004509999GA2071+027009999GF107991999999999999999999MA1101801999999MW1611REMMET008NEW NOSI
0119601010999991998011222304+35733-005900FM-15+0021GMTT V0201801N00931004501CN0060001N1+01401+01201999999ADDAG10999GA1071+004509999GA2071+027009999GF107991999999999999999999MA1101801999999REMMET008NEW RERAEQDQ01+000000PRSWM2
0189601010999991998011300004+35733-005900SY-MT+0021GMTT V0201801N00621027001CN0060001N1+01501+01321101911ADDAA106007091AG10001AY161061AY261061GA1071+027009999GF199999041021004501071001MA1101801999999MD1110041+9999MW1031REMSYN017 333 84813 85359;MET008NEW NOSIEQDQ01+000062SCOTCVQ02+000000PRSWM2
0119601010999991998011300304+35733-005900FM-15+0021GMTT V0201801N006210270019N0060001N1+01501+01301999999ADDAG10999GA1021+003909999GA2071+027009999GF107991999999999999999999MA1101901999999REMMET008NEW NOSIEQDQ01+000000PRSWM2
0106601010999991998011302004+35733-005900FM-15+0021GMTT V0201601N005110270019N0060001N1+01401+01301999999ADDAG10999GA1021+003909999GA2071+027009999GF107991999999999999999999MA1101901999999MW1611REMMET008NEW NOSI
0119601010999991998011302304+35733-005900FM-15+0021GMTT V0201801N005110270019N0060001N1+01401+01301999999ADDAG10000GA1021+003909999GA2071+027009999GF107991999999999999999999MA1101901999999REMMET008NEW RERAEQDQ01+000000PRSWM2
0119601010999991998011304004+35733-005900FM-15+0021GMTT V0201801N002110270019N0060001N1+01501+01401999999ADDAG10999GA1021+003909999GA2071+027009999GF107991999999999999999999MA1101901999999REMMET008NEW NOSIEQDQ01+000000PRSWM2
0119601010999991998011304304+35733-005900FM-15+0021GMTT V0202401N007710270019N0080001N1+01501+01401999999ADDAG10999GA1021+003909999GA2071+027009999GF107991999999999999999999MA1101901999999REMMET008NEW NOSIEQDQ01+000000PRSWM2
0119601010999991998011308004+35733-005900FM-15+0021GMTT V0202801N00511220001CN0112651N1+01401+01201999999ADDAG10999GA1021+006009999GA2021+024009999GF104991999999999999999999MA1102001999999REMMET008NEW NOSIEQDQ01+000000PRSWM2
0178601010999991998011309004+35733-005900SY-MT+0021GMTT V0203001N00721004801CN0100001N1+01501+01051102161ADDAG10001AY181031AY221031GA1071+004809999GA2021+024009999GF107991051021008001031021MA1102001999999MD1310281+9999MW1031REMSYN017 333 85820 83358;MET008NEW NOSIEQDQ01+000000PRSWM2
0109601010999991998011309304+35733-005900FM-15+0021GMTT V0203001N00721220001CN0112651N1+01501+01101999999ADDAG10999GA1071+006009999GA2021+024009999MA1102101999999REMMET008NEW NSG;EQDQ01+000042SCOTCVQ02+000000PRSWM2
0119601010999991998011310304+35733-005900FM-15+0021GMTT V0203201N00621220001CN0112651N1+01601+01101999999ADDAG10999GA1021+006009999GA2021+024009999GF104991999999999999999999MA1102201999999REMMET008NEW NSG;EQDQ01+000000PRSWM2
0189601010999991998011312004+35733-005900SY-MT+0021GMTT V0201801N00621004201CN0060001N1+01451+01211101871ADDAA106999999AG10001AY161061AY261061GA1021+006009999GF108991051051004501071999MA1102301999999MD1110191+9999MW1611REMSYN017 333 85615 86359;MET008NEW NSG;EQDQ01+000000PRSWM2Q02  00002PRCP06
0103601010999991998011312304+35733-005900FM-15+0021GMTT V0203201N00721220001CN0112651N1+01701+01001999999ADDAG10999GA1021+004809999GF104991999999999999999999MA1102301999999REMMET008NEW NSG;EQDQ01+000000PRSWM2
0103601010999991998011313304+35733-005900FM-15+0021GMTT V0203201N00721220001CN0112651N1+01701+01101999999ADDAG10999GA1021+006009999GF104991999999999999999999MA1102301999999REMMET008NEW NSG;EQDQ01+000000PRSWM2
0155601010999991998011315004+35733-005900SY-MT+0021GMTT V0203201N00621006001CN0150001N1+01641+01041102241ADDAA106000091AG10000GA1071+006009999GF199999061021004501001001MD1610071+9999REMSYN011 333 86820;MET017NEW 10 Q1022 NSG;EQDQ01+000062SCOTCVQ02+000000PRSWM2
0097601010999991998011315304+35733-005900FM-15+0021GMTT V0209999999999999999CN9999999N9+99999+99999999999ADDAG10999REMMET043NEW 131530 Z32012KT 9999 BKN020 16/10 Q1022EQDQ01+000002VOVAR Q02+000000PRSWM2
0103601010999991998011317004+35733-005900FM-15+0021GMTT V0203201N006210060019N0112651N1+01501+01001999999ADDAG10999GA1071+006009999GF107991999999999999999999MA1102301999999REMMET008NEW NSG;EQDQ01+000000PRSWM2
0103601010999991998011318304+35733-005900FM-15+0021GMTT V0203201N005110060019N0112651N1+01301+00901999999ADDAG10999GA1071+006009999GF107991999999999999999999MA1102301999999REMMET008NEW NSG;EQDQ01+000000PRSWM2
0098601010999991998011320004+35733-005900FM-15+0021GMTT V0203201N006210060019N0112651N1+01301+99999999999ADDAG10999GA1071+006009999GF107991999999999999999999REMMET018NEW 09 Q1024 RESH;EQDQ01+000000PRSWM2
0183601010999991998011321004+35733-005900SY-MT+0021GMTT V0202801N00621006001CN0150001N1+01301+00991102561ADDAA106000091AG10001AY181031AY221031GA1071+006009999GF199999061021004501001001MA1102401999999MD1310171+9999MW1021REMSYN011 333 86820;MET008NEW RESGEQDQ01+000062SCOTCVQ02+000000PRSWM2
0103601010999991998011322004+35733-005900FM-15+0021GMTT V0203201N005110060019N0112651N1+01301+01001999999ADDAG10999GA1071+006009999GF107991999999999999999999MA1102511999999REMMET008NEW NSG;EQDQ01+000000PRSWM2
0103601010999991998011322304+35733-005900FM-15+0021GMTT V0203201N005110060019N0112651N1+01301+01001999999ADDAG10999GA1071+006009999GF107991999999999999999999MA1102511999999REMMET008NEW NSG;EQDQ01+000000PRSWM2
0183601010999991998011400004+35733-005900SY-MT+0021GMTT V0203201N00511220001CN0100001N1+01161+00841102701ADDAA106000191AG10000AY121061AY281061GA1071+006009999GF199999041021008001001001MA1102611999999MD1210141+9999MW1011REMSYN011 333 84816;MET008NEW NSG;EQDQ01+000042SCOTCVQ02+000000PRSWM2
0103601010999991998011400304+35733-005900FM-15+0021GMTT V0203001N00411220001CN0112651N1+01201+00801999999ADDAG10999GA1021+004809999GF104991999999999999999999MA1102711999999REMMET008NEW NSG;EQDQ01+000000PRSWM2
0103601010999991998011401304+35733-005900FM-15+0021GMTT V0203001N00411220001CN0112651N1+01101+00801999999ADDAG10999GA1021+004809999GF104991999999999999999999MA1102711999999REMMET008NEW NSG;EQDQ01+000000PRSWM2
0145601010999991998011403004+35733-005900SY-MT+0021GMTT V0200401N00261220001CN0100001N1+01121+00811102731ADDAA106000091AG10000GA1021+004809999GF104991041021008001001001MA1102711999999MD1110031+9999REMSYN011 333 84816;MET008NEW NSG;EQDQ01+000000PRSWM2
0103601010999991998011403304+35733-005900FM-15+0021GMTT V0200401N00211220001CN0112651N1+01101+00801999999ADDAG10999GA1021+004809999GF104991999999999999999999MA1102711999999REMMET008NEW NSG;EQDQ01+000000PRSWM2
0103601010999991998011404304+35733-005900FM-15+0021GMTT V0200401N00211220001CN0112651N1+01101+00901999999ADDAG10999GA1021+004809999GF104991999999999999999999MA1102711999999REMMET008NEW NSG;EQDQ01+000000PRSWM2
0175601010999991998011406004+35733-005900SY-MT+0021GMTT V0201201N00211220001CN0100001N1+00801+00591102821ADDAA106000091AA224012091AG10000GA1021+004809999GF104991041021008001001001KA1120N+00791MA1102811999999MD1110041+9999REMSYN017 333 20079 84816;MET008NEW NSG;EQDQ01+000000PRSWM2
0103601010999991998011407004+35733-005900FM-15+0021GMTT V0201201N00151220001CN0112651N1+00801+00601999999ADDAG10999GA1021+004809999GF104991999999999999999999MA1102811999999REMMET008NEW NSG;EQDQ01+000000PRSWM2
0103601010999991998011407304+35733-005900FM-15+0021GMTT V0201001N00151220001CN0112651N1+00801+00601999999ADDAG10999GA1021+004809999GF104991999999999999999999MA1102811999999REMMET008NEW NSG;EQDQ01+000000PRSWM2
0145601010999991998011409004+35733-005900SY-MT+0021GMTT V0201201N00101220001CN0100001N1+00971+00911102881ADDAA106000091AG10000GA1021+006009999GF102991021051004501001001MA1102811999999MD1310041+9999REMSYN011 333 82616;MET008NEW NSG;EQDQ01+000000PRSWM2
0103601010999991998011409304+35733-005900FM-15+0021GMTT V0201201N00101220001CN0112651N1+01001+00901999999ADDAG10999GA1021+004809999GF102991999999999999999999MA1102811999999REMMET008NEW NOSIEQDQ01+000000PRSWM2
0103601010999991998011410304+35733-005900FM-15+0021GMTT V0200401N00311220001CN0112651N1+01301+00901999999ADDAG10999GA1021+004809999GF102991999999999999999999MA1102911999999REMMET008NEW NOSIEQDQ01+000000PRSWM2
0145601010999991998011412004+35733-005900SY-MT+0021GMTT V0200401N00211220001CN0100001N1+01451+00721103001ADDAA106000091AG10000GA1021+004809999GF102991021051004501001001MA1103011999999MD1010121+9999REMSYN011 333 82616;MET008NEW NOSIEQDQ01+000000PRSWM2
0103601010999991998011412304+35733-005900FM-15+0021GMTT V0200201N00411220001CN0112651N1+01501+00701999999ADDAG10999GA1021+004809999GF102991999999999999999999MA1103011999999REMMET008NEW NOSIEQDQ01+000000PRSWM2
0183601010999991998011415004+35733-005900SY-MT+0021GMTT V0203401N00211069001CN0150001N1+01471+00571102961ADDAA106000091AG10000GA1021+004809999GA2071+069009999GF199999011051004501001021MA1103011999999MD1710041+9999REMSYN017 333 81616 86073;MET008NEW NOSIEQDQ01+000062SCOTCVQ02+000000PRSWM2
0119601010999991998011415304+35733-005900FM-15+0021GMTT V0203401N003110690019N0112651N1+01501+00601999999ADDAG10999GA1021+004809999GA2071+069009999GF107991999999999999999999MA1103011999999REMMET008NEW NOSIEQDQ01+000000PRSWM2
0119601010999991998011416304+35733-005900FM-15+0021GMTT V0203601N002610690019N0112651N1+01501+00601999999ADDAG10999GA1021+004809999GA2071+069009999GF107991999999999999999999MA1102911999999REMMET008NEW NOSIEQDQ01+000000PRSWM2
0202601010999991998011418004+35733-005900SY-MT+0021GMTT V0203601N00261069001CN0100001N1+01151+00851102981ADDAA106000091AG10000GA1021+004809999GA2071+069009999GF199999011051004501001021KA1120M+01561MA1102911999999MD1310021+9999REMSYN023 333 10156 81616 85073;MET008NEW NOSIEQDQ01+000052SCOTCVQ02+000000PRSWM2
0119601010999991998011418304+35733-005900FM-15+0021GMTT V0200201N002610690019N0112651N1+01201+00901999999ADDAG10999GA1021+004809999GA2071+069009999GF107991999999999999999999MA1102911999999REMMET008NEW NOSIEQDQ01+000000PRSWM2
0119601010999991998011419304+35733-005900FM-15+0021GMTT V0200201N002610690019N0112651N1+01001+00801999999ADDAG10999GA1021+004809999GA2071+069009999GF107991999999999999999999MA1102911999999REMMET008NEW NOSIEQDQ01+000000PRSWM2
0176601010999991998011421004+35733-005900SY-MT+0021GMTT V0203601N00101220001CN0100001N1+00931+00721103071ADDAA106000091AG10000GA1021+004809999GA2071+069009999GF199999001001999999001001MA1103011999999MD1310081+9999REMMET008NEW NOSIEQDQ01+000002SCOTCVQ02+000992SCOLCBQ03+000000PRSWM2
0067601010999991998011421304+35733-005900FM-15+0021GMTT V0203401N00211999991CY0099001N1+00901+00701999999ADDAG10999MA1103011999999REMMET014NEW CAVOK NSG;EQDQ01+000000PRSWM2
0067601010999991998011423004+35733-005900FM-15+0021GMTT V0203401N00211999991CY0099001N1+00901+00701999999ADDAG10999MA1103011999999REMMET014NEW CAVOK NSG;EQDQ01+000000PRSWM2
0118601010999991998011500004+35733-005900SY-MT+0021GMTT V0203601N00211220001CN0100001N1+00831+00681103061ADDAA106000091AG10000GF100991001001999999001001MA1103011999999MD1110031+9999REMMET014NEW CAVOK NSG;EQDQ01+000000PRSWM2
0067601010999991998011500304+35733-005900FM-15+0021GMTT V0200401N00261999991CY0099001N1+00801+00701999999ADDAG10999MA1103011999999REMMET014NEW CAVOK NSG;EQDQ01+000000PRSWM2
0067601010999991998011501304+35733-005900FM-15+0021GMTT V0200201N00361999991CY0099001N1+00701+00501999999ADDAG10999MA1103011999999REMMET014NEW CAVOK NSG;EQDQ01+000000PRSWM2
0118601010999991998011503004+35733-005900SY-MT+0021GMTT V0200801N00101220001CN0100001N1+00601+00501102961ADDAA106000091AG10000GF100991001001999999001001MA1103011999999MD1810111+9999REMMET014NEW CAVOK NSG;EQDQ01+000000PRSWM2
0067601010999991998011503304+35733-005900FM-15+0021GMTT V0200801N00211999991CY0099001N1+00601+00501999999ADDAG10999MA1102911999999REMMET014NEW CAVOK NSG;EQDQ01+000000PRSWM2
0067601010999991998011504304+35733-005900FM-15+0021GMTT V0200601N00151999991CY0099001N1+00601+00501999999ADDAG10999MA1102911999999REMMET014NEW CAVOK NSG;EQDQ01+000000PRSWM2
0154601010999991998011506004+35733-005900SY-MT+0021GMTT V0201201N001510900019N0100001N1+00511+00441102921ADDAA106000091AG10000GF105991001001999999001021KA1120N+00461MA1102911999999MD1810091+9999REMSYN017 333 20046 85073;MET014NEW CAVOK NSG;EQDQ01+000000PRSWM2
0058601010999991998011506304+35733-005900FM-15+0021GMTT V0201201N00101999991CY0099001N1+00501+99999999999ADDAG10999REMMET020NEW CAVOK 04 Q1029 NEQDQ01+000000PRSWM2
0067601010999991998011507304+35733-005900FM-15+0021GMTT V0201001N00101999991CY0099001N1+00501+00401999999ADDAG10999MA1102911999999REMMET014NEW CAVOK NSG;EQDQ01+000000PRSWM2
0157601010999991998011509004+35733-005900SY-MT+0021GMTT V0201401N001510900019N0100001N1+00551+00431103031ADDAA106000091AG10000GA1011+004809059GF105991011051004501001021MA1102911999999MD1310081+9999REMSYN017 333 81616 85073;MET014NEW CAVOK NSG;EQDQ01+000000PRSWM2
0119601010999991998011509304+35733-005900FM-15+0021GMTT V0201401N001510690019N0112651N1+00601+00401999999ADDAG10999GA1021+004809999GA2071+069009999GF107991999999999999999999MA1103011999999REMMET008NEW NOSIEQDQ01+000000PRSWM2
0119601010999991998011510304+35733-005900FM-15+0021GMTT V0209991C000010690019N0112651N1+01101+00801999999ADDAG10999GA1021+004809999GA2071+069009999GF107991999999999999999999MA1103011999999REMMET008NEW NOSIEQDQ01+000000PRSWM2
0130601010999991998011511304+35733-005900FM-15+0021GMTT V0201201N001510690019N0112651N1+01301+00801999999ADDAA106000091AG10000GA1021+004809999GA2071+069009999GF107991999999999999999999MA1103011999999REMMET008NEW NOSIEQDQ01+000000PRSWM2
0119601010999991998011512304+35733-005900FM-15+0021GMTT V0201201N001510690019N0112651N1+01501+00801999999ADDAG10999GA1021+004809999GA2071+069009999GF107991999999999999999999MA1103011999999REMMET008NEW NOSIEQDQ01+000000PRSWM2
0193601010999991998011515004+35733-005900SY-MT+0021GMTT V0200801N00511069001CN0150001N1+01621+00921102881ADDAA106000091AG10000GA1021+004809999GA2071+069009999GF199999001001999999001021MA1102911999999MD1610061+9999REMSYN011 333 86073;MET008NEW NOSIEQDQ01+000062SCOTCVQ02+000992SCOLCBQ03+000000PRSWM2
0069601010999991998011515304+35733-005900FM-15+0021GMTT V0200801N00511999991CY0099001N1+01601+00901999999ADDAG10999MA1102811999999REMMET016NEW CAVOK NOSIG;EQDQ01+000000PRSWM2
0069601010999991998011516304+35733-005900FM-15+0021GMTT V0200601N00411999991CY0099001N1+01601+01001999999ADDAG10999MA1102811999999REMMET016NEW CAVOK NOSIG;EQDQ01+000000PRSWM2
0156601010999991998011518004+35733-005900SY-MT+0021GMTT V0200601N00411220001CN0150001N1+01411+00861102861ADDAA106000091AG10000GF103991001001999999001021KA1120M+01641MA1102811999999MD1610021+9999REMSYN017 333 10164 83073;MET016NEW CAVOK NOSIG;EQDQ01+000000PRSWM2
0069601010999991998011518304+35733-005900FM-15+0021GMTT V0200601N00311999991CY0099001N1+01401+00901999999ADDAG10999MA1102811999999REMMET016NEW CAVOK NOSIG;EQDQ01+000000PRSWM2
0069601010999991998011519304+35733-005900FM-15+0021GMTT V0200401N00151999991CY0099001N1+01401+01001999999ADDAG10999MA1102911999999REMMET016NEW CAVOK NOSIG;EQDQ01+000000PRSWM2
0114601010999991998011521004+35733-005900SY-MT+0021GMTT V0209991C00001220001CN0100001N1+00751+00551102971ADDAA106000091AG10000GF100991001001999999001001MD1110101+9999REMMET025NEW CAVOK 07 Q1029 NOSIG;EQDQ01+000000PRSWM2
0066601010999991998011522004+35733-005900FM-15+0021GMTT V0209991C00001999999CN0112651N1+99999+99999999999ADDAG10999REMMET028NEW CAVOK 07/06 Q1029 NOSIG;EQDQ01+000000PRSWM2
0069601010999991998011522304+35733-005900FM-15+0021GMTT V0209991C00001999991CY0099001N1+00701+00601999999ADDAG10999MA1102911999999REMMET016NEW CAVOK NOSIG;EQDQ01+000000PRSWM2
0120601010999991998011600004+35733-005900SY-MT+0021GMTT V0209991C00001220001CN0100001N1+00601+00531102991ADDAA106000091AG10000GF100991001001999999001001MA1103011999999MD1210021+9999REMMET016NEW CAVOK NOSIG;EQDQ01+000000PRSWM2
0069601010999991998011600304+35733-005900FM-15+0021GMTT V0209991C00001999991CY0099001N1+00601+00501999999ADDAG10999MA1102911999999REMMET016NEW CAVOK NOSIG;EQDQ01+000000PRSWM2
0069601010999991998011601304+35733-005900FM-15+0021GMTT V0209991C00001999991CY0099001N1+00601+00501999999ADDAG10999MA1102911999999REMMET016NEW CAVOK NOSIG;EQDQ01+000000PRSWM2
0120601010999991998011603004+35733-005900SY-MT+0021GMTT V0209991C00001220001CN0100001N1+00561+00471102951ADDAA106000091AG10000GF100991001001999999001001MA1102911999999MD1810041+9999REMMET016NEW CAVOK NOSIG;EQDQ01+000000PRSWM2
0069601010999991998011604004+35733-005900FM-15+0021GMTT V0209991C00001999991CY0099001N1+00601+00501999999ADDAG10999MA1102911999999REMMET016NEW CAVOK NOSIG;EQDQ01+000000PRSWM2
0069601010999991998011604304+35733-005900FM-15+0021GMTT V0209991C00001999991CY0099001N1+00601+00501999999ADDAG10999MA1102911999999REMMET016NEW CAVOK NOSIG;EQDQ01+000000PRSWM2
0136601010999991998011606004+35733-005900SY-MT+0021GMTT V0201201N00151220001CN0100001N1+00441+00371999999ADDAA106000091AG10000GF100991001001999999001001KA1999N+00361MA1102911999999REMSYN011 333 20036;MET016NEW CAVOK NOSIG;EQDQ01+000000PRSWM2
0069601010999991998011606304+35733-005900FM-15+0021GMTT V0201201N00151999991CY0099001N1+00401+00401999999ADDAG10999MA1102811999999REMMET016NEW CAVOK NOSIG;EQDQ01+000000PRSWM2
0069601010999991998011607304+35733-005900FM-15+0021GMTT V0203201N00411999991CY0099001N1+00401+00301999999ADDAG10999MA1102911999999REMMET016NEW CAVOK NOSIG;EQDQ01+000000PRSWM2
0137601010999991998011609004+35733-005900SY-MT+0021GMTT V0203401N00821220001CN0150001N1+01201+00801102981ADDAA106000091AG10000GF102991001001999999001021MA1102911999999MD1310101+9999REMSYN011 333 82073;MET016NEW CAVOK NOSIG;EQDQ01+000000PRSWM2
0069601010999991998011610004+35733-005900FM-15+0021GMTT V0203401N00621999991CY0099001N1+01301+00801999999ADDAG10999MA1103011999999REMMET016NEW CAVOK NOSIG;EQDQ01+000000PRSWM2
0069601010999991998011610304+35733-005900FM-15+0021GMTT V0203401N00621999991CY0099001N1+01301+00801999999ADDAG10999MA1103011999999REMMET016NEW CAVOK NOSIG;EQDQ01+000000PRSWM2
0137601010999991998011612004+35733-005900SY-MT+0021GMTT V0203201N00511220001CN0150001N1+01501+00911103061ADDAA106000091AG10000GF102991001001999999001021MA1103121999999MD1110081+9999REMSYN011 333 82073;MET016NEW CAVOK NOSIG;EQDQ01+000000PRSWM2
0103601010999991998011612304+35733-005900FM-15+0021GMTT V0203201N00511220001CN0112651N1+01501+00901999999ADDAG10999GA1021+006009999GF102991999999999999999999MA1103011999999REMMET008NEW NOSIEQDQ01+000000PRSWM2
0103601010999991998011613304+35733-005900FM-15+0021GMTT V0202801N00511220001CN0112651N1+01601+01001999999ADDAG10999GA1021+006009999GF102991999999999999999999MA1103011999999REMMET008NEW NOSIEQDQ01+000000PRSWM2
0145601010999991998011615004+35733-005900SY-MT+0021GMTT V0203201N00621220001CN0100001N1+01571+00911102871ADDAA106000091AG10000GA1021+006009999GF102991021021004501001001MA1102811999999MD1510191+9999REMSYN011 333 82815;MET008NEW NSG;EQDQ01+000000PRSWM2
0103601010999991998011615304+35733-005900FM-15+0021GMTT V0203201N00721220001CN0112651N1+01601+00901999999ADDAG10999GA1021+004509999GF104991999999999999999999MA1102811999999REMMET008NEW NSG;EQDQ01+000000PRSWM2
0103601010999991998011616304+35733-005900FM-15+0021GMTT V0203001N00621220001CN0112651N1+01601+00901999999ADDAG10999GA1021+004809999GF104991999999999999999999MA1102811999999REMMET008NEW NSG;EQDQ01+000000PRSWM2
0103601010999991998011618304+35733-005900FM-15+0021GMTT V0203201N00511220001CN0112651N1+01401+01001999999ADDAG10999GA1021+004809999GF104991999999999999999999MA1102911999999REMMET008NEW NSG;EQDQ01+000000PRSWM2
0161601010999991998011621004+35733-005900SY-MT+0021GMTT V0203401N00511220001CN0100001N1+01121+00881102901ADDAA106000091AG10000GA1021+004809999GF199999011041004501001001MA1102911999999MD1810011+9999REMSYN011 333 81816;MET008NEW NSG;EQDQ01+000012SCOTCVQ02+000000PRSWM2
0103601010999991998011621304+35733-005900FM-15+0021GMTT V0203201N00511220001CN0112651N1+01101+00901999999ADDAG10999GA1021+004809999GF102991999999999999999999MA1102911999999REMMET008NEW NOSIEQDQ01+000000PRSWM2
0103601010999991998011622304+35733-005900FM-15+0021GMTT V0203201N00511220001CN0112651N1+01101+00901999999ADDAG10999GA1021+004809999GF102991999999999999999999MA1102911999999REMMET008NEW NOSIEQDQ01+000000PRSWM2
0120601010999991998011700004+35733-005900SY-MT+0021GMTT V0203201N00411220001CN0100001N1+01191+00921102881ADDAA106000091AG10000GF100991001001999999001001MA1102911999999MD1810021+9999REMMET016NEW CAVOK NOSIG;EQDQ01+000000PRSWM2
0069601010999991998011700304+35733-005900FM-15+0021GMTT V0203201N00411999991CY0099001N1+01201+00901999999ADDAG10999MA1102811999999REMMET016NEW CAVOK NOSIG;EQDQ01+000000PRSWM2
0069601010999991998011701304+35733-005900FM-15+0021GMTT V0203201N00411999991CY0099001N1+01101+00901999999ADDAG10999MA1102811999999REMMET016NEW CAVOK NOSIG;EQDQ01+000000PRSWM2
0120601010999991998011703004+35733-005900SY-MT+0021GMTT V0209991C00001220001CN0100001N1+00741+00471102791ADDAA106000091AG10000GF100991001001999999001001MA1102711999999MD1710101+9999REMMET016NEW CAVOK NOSIG;EQDQ01+000000PRSWM2
0069601010999991998011703304+35733-005900FM-15+0021GMTT V0209991C00001999991CY0099001N1+00701+00501999999ADDAG10999MA1102711999999REMMET016NEW CAVOK NOSIG;EQDQ01+000000PRSWM2
0069601010999991998011704304+35733-005900FM-15+0021GMTT V0201201N00101999991CY0099001N1+00801+00501999999ADDAG10999MA1102711999999REMMET016NEW CAVOK NOSIG;EQDQ01+000000PRSWM2
0150601010999991998011706004+35733-005900SY-MT+0021GMTT V0201201N00101220001CN0100001N1+00641+00551102721ADDAA106000091AG10000GF100991001001999999001001KA1999N+00351MA1102711999999MD1710071+9999REMSYN011 333 20035;MET016NEW CAVOK NOSIG;EQDQ01+000000PRSWM2
0069601010999991998011706304+35733-005900FM-15+0021GMTT V0200801N00101999991CY0099001N1+00601+00601999999ADDAG10999MA1102711999999REMMET016NEW CAVOK NOSIG;EQDQ01+000000PRSWM2
0069601010999991998011707304+35733-005900FM-15+0021GMTT V0200801N00101999991CY0099001N1+00601+00501999999ADDAG10999MA1102711999999REMMET016NEW CAVOK NOSIG;EQDQ01+000000PRSWM2
0137601010999991998011709004+35733-005900SY-MT+0021GMTT V0201201N00151220001CN0150001N1+00971+00891102751ADDAA106000091AG10000GF103991021051004501001021MA1102711999999MD1310041+9999REMSYN011 333 82616;MET016NEW CAVOK NOSIG;EQDQ01+000000PRSWM2
0103601010999991998011709304+35733-005900FM-15+0021GMTT V0201201N00211220001CN0112651N1+01001+00901999999ADDAG10999GA1021+004809999GF102991999999999999999999MA1102711999999REMMET008NEW NSG;EQDQ01+000000PRSWM2
0103601010999991998011710304+35733-005900FM-15+0021GMTT V0201001N00151220001CN0112651N1+01201+01101999999ADDAG10999GA1021+004809999GF102991999999999999999999MA1102711999999REMMET008NEW NSG;EQDQ01+000000PRSWM2
0167601010999991998011712004+35733-005900SY-MT+0021GMTT V0201601N00211090001CN0150001N1+01641+01031102781ADDAA106000091AG10000GA1021+004809999GA2021+069009999GF105991021051004501001021MA1102711999999MD1010031+9999REMSYN017 333 82616 84073;MET008NEW NSG;EQDQ01+000000PRSWM2
0119601010999991998011712304+35733-005900FM-15+0021GMTT V0201401N00211220001CN0112651N1+01601+01001999999ADDAG10999GA1021+004809999GA2021+069009999GF104991999999999999999999MA1102711999999REMMET008NEW NSG;EQDQ01+000000PRSWM2
0119601010999991998011713304+35733-005900FM-15+0021GMTT V0201201N002610690019N0112651N1+01701+01101999999ADDAG10999GA1021+004809999GA2071+069009999GF107991999999999999999999MA1102711999999REMMET008NEW NSG;EQDQ01+000000PRSWM2
0119601010999991998011716004+35733-005900FM-15+0021GMTT V0202801N00151004801CN0112651N1+01601+01201999999ADDAG10999GA1071+004809999GA2071+069009999GF107991999999999999999999MA1102611999999REMMET008NEW NSG;EQDQ01+000000PRSWM2
0119601010999991998011716304+35733-005900FM-15+0021GMTT V0202801N00211004801CN0112651N1+01601+01201999999ADDAG10999GA1071+004809999GA2071+069009999GF107991999999999999999999MA1102611999999REMMET008NEW NOSIEQDQ01+000000PRSWM2
0119601010999991998011718304+35733-005900FM-15+0021GMTT V0209991C000010690019N0112651N1+01401+01201999999ADDAG10999GA1021+004809999GA2071+069009999GF107991999999999999999999MA1102611999999REMMET008NEW NOSIEQDQ01+000000PRSWM2
0119601010999991998011719304+35733-005900FM-15+0021GMTT V0209991C000010690019N0112651N1+01401+01201999999ADDAG10999GA1021+004809999GA2071+069009999GF107991999999999999999999MA1102611999999REMMET008NEW NOSIEQDQ01+000000PRSWM2
0183601010999991998011721004+35733-005900SY-MT+0021GMTT V0209991C00001069001CN0080001N1+01051+00951102681ADDAA106000091AG10000GA1021+004809999GA2071+069009999GF199999021021004501001021MA1102611999999MD1210051+9999REMSYN017 333 82816 86070;MET008NEW NOSIEQDQ01+000062SCOTCVQ02+000000PRSWM2
0119601010999991998011722304+35733-005900FM-15+0021GMTT V0201201N002110600019N0060001N1+01101+01001999999ADDAG10999GA1021+003009999GA2071+060009999GF107991999999999999999999MA1102711999999REMMET008NEW NSG;EQDQ01+000000PRSWM2
0183601010999991998011800004+35733-005900SY-MT+0021GMTT V0201201N00101060001CN0060001N1+00931+00871102671ADDAA106000091AG10000GA1021+003009999GA2071+060009999GF199999031061004501001021MA1102711999999MD1410001+9999REMSYN017 333 83710 85070;MET008NEW NSG;EQDQ01+000062SCOTCVQ02+000000PRSWM2
0119601010999991998011800304+35733-005900FM-15+0021GMTT V0201201N001010600019N0060001N1+00901+00901999999ADDAG10999GA1021+003009999GA2071+060009999GF107991999999999999999999MA1102611999999REMMET008NEW NSG;EQDQ01+000000PRSWM2
0119601010999991998011801304+35733-005900FM-15+0021GMTT V0201201N001010600019N0060001N1+00901+00901999999ADDAG10999GA1021+003009999GA2071+060009999GF107991999999999999999999MA1102611999999REMMET008NEW NSG;EQDQ01+000000PRSWM2
0090601010999991998011802554+35733-005900FM-15+0021GMTT V0201001N001010018019N0003001N1+00701+00701999999ADDAG10999GA1071+001809999GF107991999999999999999999MA1102711999999MW1441REMMET008NEW FG ;
0199601010999991998011803004+35733-005900SY-MT+0021GMTT V0201001N00101060001CN0003001N1+00701+00701102711ADDAA106000091AG10000AY141031AY241031GA1021+003009999GA2071+060009999GF107991071061001501999999MA1102611999999MD1310031+9999MW1441REMSYN011 333 87706;MET008NEW NSG;EQDQ01+000000PRSWM2Q02+000452PRSWM1
0090601010999991998011803304+35733-005900FM-15+0021GMTT V0201001N001010018019N0003001N1+00701+00701999999ADDAG10999GA1071+001809999GF107991999999999999999999MA1102711999999MW1441REMMET008NEW FG ;
0089601010999991998011804304+35733-005900FM-15+0021GMTT V0201001N001510018019N0003001N1+00701+00701999999ADDAG10999GA1071+001809999GF107991999999999999999999MA1102711999999MW1441REMMET007NEW NSG
0173601010999991998011806004+35733-005900SY-MT+0021GMTT V0201001N00211220001CN0006001N1+00881+00881102721ADDAA106000091AG10000AY141061AY241061GA1021+003009999GF104991041061004501001001KA1120N+00321MA1102711999999MD1510001+9999MW1421MW2441REMSYN017 333 20032 84710;MET008NEW NSG;
0090601010999991998011806304+35733-005900FM-15+0021GMTT V0201001N00211220001CN0040001N1+00901+00901999999ADDAG10999GA1021+003009999GF104991999999999999999999MA1102711999999MW1101REMMET008NEW NSG;
0119601010999991998011808004+35733-005900FM-15+0021GMTT V0201401N00211220001CN0080001N1+00801+00801999999ADDAG10999GA1021+003009999GA2021+060009999GF104991999999999999999999MA1102711999999REMMET008NEW NSG;EQDQ01+000000PRSWM2
0167601010999991998011809004+35733-005900SY-MT+0021GMTT V0209991C00001090001CN0080001N1+01021+00981102821ADDAA106000091AG10000GA1021+003909999GA2021+060009999GF105991021051004501001021MA1102711999999MD1310101+9999REMSYN017 333 82613 84073;MET008NEW NSG;EQDQ01+000000PRSWM2
0119601010999991998011809304+35733-005900FM-15+0021GMTT V0209991C00001220001CN0080001N1+01001+01001999999ADDAG10999GA1021+003909999GA2021+069009999GF104991999999999999999999MA1102711999999REMMET008NEW NOSIEQDQ01+000000PRSWM2
0119601010999991998011811004+35733-005900FM-15+0021GMTT V0202001N00311220001CN0112651N1+01501+01001999999ADDAG10999GA1021+003909999GA2021+069009999GF104991999999999999999999MA1102911999999REMMET008NEW NOSIEQDQ01+000000PRSWM2
0167601010999991998011812004+35733-005900SY-MT+0021GMTT V0202201N00311220001CN0100001N1+01571+01061102871ADDAA106000091AG10000GA1021+003909999GA2021+069009999GF104991021051004501001021MA1102911999999MD1010051+9999REMSYN017 333 82613 83073;MET008NEW NOSIEQDQ01+000000PRSWM2
0119601010999991998011812304+35733-005900FM-15+0021GMTT V0202201N00311220001CN0112651N1+01601+01101999999ADDAG10999GA1021+003909999GA2021+069009999GF104991999999999999999999MA1102811999999REMMET008NEW NOSIEQDQ01+000000PRSWM2
0115601010999991998011814004+35733-005900FM-15+0021GMTT V0202201N00311220001CN0112651N1+01601+99999999999ADDAG10999GA1021+003909999GA2021+069009999GF104991999999999999999999REMMET019NEW 11 Q1027 NOSIG;EQDQ01+000000PRSWM2
0145601010999991998011815004+35733-005900SY-MT+0021GMTT V0203001N00211004801CN0100001N1+01661+01201102781ADDAA106000091AG10000GA1071+004809999GF107991071051004501999999MA1102811999999MD1610091+9999REMSYN011 333 87616;MET008NEW NOSIEQDQ01+000000PRSWM2
0098601010999991998011815304+35733-005900FM-15+0021GMTT V0209999999999999999CN9999999N9+99999+99999999999ADDAG10999REMMET044NEW 181530Z ///// 9999 BKN016 17/12 Q1028 NOEQDQ01+000002VOVAR Q02+000000PRSWM2
0103601010999991998011816304+35733-005900FM-15+0021GMTT V0203201N004110048019N0112651N1+01501+01101999999ADDAG10999GA1071+004809999GF107991999999999999999999MA1102711999999REMMET008NEW NOSIEQDQ01+000000PRSWM2
0164601010999991998011818004+35733-005900SY-MT+0021GMTT V0203201N00361004801CN0100001N1+01351+01111102791ADDAA106000091AG10000GA1071+004809999GF107991071051004501999999KA1120M+01671MA1102711999999MD1310041+9999REMSYN017 333 10167 87616;MET008NEW NOSIEQDQ01+000000PRSWM2
0097601010999991998011819004+35733-005900FM-15+0021GMTT V0203201N002110045019N0112651N1+01401+01101999999ADDAG10999GA1071+004509999GF107991999999999999999999REMMET017NEW Q10(27 NOSIG;EQDQ01+000000PRSWM2
0103601010999991998011819304+35733-005900FM-15+0021GMTT V0203201N002110045019N0112651N1+01401+01101999999ADDAG10999GA1071+004509999GF107991999999999999999999MA1102711999999REMMET008NEW NOSIEQDQ01+000000PRSWM2
0161601010999991998011821004+35733-005900SY-MT+0021GMTT V0209991V00151220001CN0100001N1+00961+00841102901ADDAA106000091AG10000GA1071+004509999GF199999021051004501001001MA1102811999999MD1110111+9999REMSYN011 333 82615;MET008NEW NOSIEQDQ01+000022SCOTCVQ02+000000PRSWM2
0103601010999991998011821304+35733-005900FM-15+0021GMTT V0209991V00151220001CN0112651N1+01001+00801999999ADDAG10999GA1021+004509999GF102991999999999999999999MA1102911999999REMMET008NEW NOSIEQDQ01+000000PRSWM2
0103601010999991998011822304+35733-005900FM-15+0021GMTT V0201001N00151220001CN0112651N1+00901+00801999999ADDAG10999GA1021+004509999GF102991999999999999999999MA1102911999999REMMET008NEW NOSIEQDQ01+000000PRSWM2
0161601010999991998011900004+35733-005900SY-MT+0021GMTT V0201201N00101220001CN0080001N1+00711+00641102931ADDAA106000091AG10000GA1021+004509999GF199999011051004501001001MA1102911999999MD1110031+9999REMSYN011 333 81615;MET008NEW NOSIEQDQ01+000012SCOTCVQ02+000000PRSWM2
0103601010999991998011900304+35733-005900FM-15+0021GMTT V0201201N00101220001CN0080001N1+00701+00601999999ADDAG10999GA1021+004509999GF102991999999999999999999MA1102911999999REMMET008NEW NOSIEQDQ01+000000PRSWM2
0095601010999991998011902004+35733-005900FM-15+0021GMTT V0201201N00211220001CN0080001N1+00801+00701999999ADDAG10999GA1021+004509999GF102991999999999999999999REMMET015NEW 1029 NOSIG;EQDQ01+000000PRSWM2
0145601010999991998011903004+35733-005900SY-MT+0021GMTT V0201201N00151220001CN0080001N1+00761+00691102911ADDAA106000091AG10000GA1021+004509999GF102991021051004501001001MA1102911999999MD1610021+9999REMSYN011 333 82615;MET008NEW NOSIEQDQ01+000000PRSWM2
0103601010999991998011904004+35733-005900FM-15+0021GMTT V0201801N00101220001CN0080001N1+00801+00701999999ADDAG10999GA1021+004509999GF102991999999999999999999MA1102911999999REMMET008NEW NOSIEQDQ01+000000PRSWM2
0103601010999991998011904304+35733-005900FM-15+0021GMTT V0201001N00101220001CN0080001N1+00801+00701999999ADDAG10999GA1021+004509999GF102991999999999999999999MA1102911999999REMMET008NEW NOSIEQDQ01+000000PRSWM2
0164601010999991998011906004+35733-005900SY-MT+0021GMTT V0201201N00101004501CN0080001N1+01151+01001102921ADDAA106000091AG10000GA1071+004509999GF107991071051004501999999KA1120N+00681MA1102911999999MD1410001+9999REMSYN017 333 20068 87616;MET008NEW NOSIEQDQ01+000000PRSWM2
0103601010999991998011907304+35733-005900FM-15+0021GMTT V0202001N004110048019N0080001N1+01201+01001999999ADDAG10999GA1071+004809999GF107991999999999999999999MA1102911999999REMMET008NEW NOSIEQDQ01+000000PRSWM2
0151601010999991998011909004+35733-005900SY-MT+0021GMTT V0202201N004110048019N0080001N1+01231+01001103031ADDAA106000091AG10000GA1071+004809999GF107991051021004501999999MA1102911999999MD1310121+9999REMSYN017 333 82012 82602;MET008NEW NOSIEQDQ01+000000PRSWM2
0103601010999991998011909304+35733-005900FM-15+0021GMTT V0202201N003110048019N0080001N1+01201+01001999999ADDAG10999GA1071+004809999GF107991999999999999999999MA1103011999999REMMET008NEW NOSIEQDQ01+000000PRSWM2
0103601010999991998011910304+35733-005900FM-15+0021GMTT V0202201N003110048019N0112651N1+01301+01001999999ADDAG10999GA1071+004809999GF107991999999999999999999MA1103011999999REMMET008NEW NOSIEQDQ01+000000PRSWM2
0103601010999991998011912304+35733-005900FM-15+0021GMTT V0202001N003110045019N0112651N1+01601+01201999999ADDAG10999GA1071+004509999GF107991999999999999999999MA1103121999999REMMET008NEW NOSIEQDQ01+000000PRSWM2
0183601010999991998011915004+35733-005900SY-MT+0021GMTT V0202801N00151006901CN0100001N1+01721+01271102871ADDAA106000091AG10000GA1021+004809999GA2071+006909999GF199999061081004501001001MA1102911999999MD1710241+9999REMSYN017 333 82816 85616;MET008NEW NOSIEQDQ01+000062SCOTCVQ02+000000PRSWM2
0119601010999991998011915304+35733-005900FM-15+0021GMTT V0202401N00211220001CN0112651N1+01701+01301999999ADDAG10999GA1021+004809999GA2021+006009999GF104991999999999999999999MA1102811999999REMMET008NEW NOSIEQDQ01+000000PRSWM2
0119601010999991998011916304+35733-005900FM-15+0021GMTT V0202401N00211220001CN0112651N1+01701+01301999999ADDAG10999GA1021+004809999GA2021+006909999GF104991999999999999999999MA1102811999999REMMET008NEW NOSIEQDQ01+000000PRSWM2
0160601010999991998011918004+35733-005900SY-MT+0021GMTT V0202401N00311004201CN0100001N1+01451+01361102881ADDAA106000091AG10000GA1021+004809999GF105991051021004501001001KA1120M+01731MD1310011+9999REMSYN017 333 10173 85816;MET019NEW 13 Q1028 NOSIG;EQDQ01+000000PRSWM2
0103601010999991998011918304+35733-005900FM-15+0021GMTT V0202401N004110048019N0112651N1+01501+01401999999ADDAG10999GA1071+004809999GF107991999999999999999999MA1102811999999REMMET008NEW NOSIEQDQ01+000000PRSWM2
0103601010999991998011919304+35733-005900FM-15+0021GMTT V0202401N00411220001CN0112651N1+01501+01401999999ADDAG10999GA1021+004809999GF104991999999999999999999MA1102911999999REMMET008NEW NOSIEQDQ01+000000PRSWM2
0145601010999991998011921004+35733-005900SY-MT+0021GMTT V0202801N00311220001CN0100001N1+01361+01251102911ADDAA106000091AG10000GA1021+004809999GF102991021051004501001001MA1102911999999MD1110031+9999REMSYN011 333 82616;MET008NEW NOSIEQDQ01+000000PRSWM2
0103601010999991998011921304+35733-005900FM-15+0021GMTT V0202801N00311220001CN0112651N1+01401+01301999999ADDAG10999GA1021+004809999GF102991999999999999999999MA1102911999999REMMET008NEW NSG;EQDQ01+000000PRSWM2
0160601010999991998012000004+35733-005900SY-MT+0021GMTT V0203201N00311220001CN0100001N1+01321+01231102941ADDAA106000091AG10000GA1021+004809999GF199999001001999999001001MA1102911999999MD1110031+9999REMMET008NEW NSG;EQDQ01+000002SCOTCVQ02+000992SCOLCBQ03+000000PRSWM2
0067601010999991998012000304+35733-005900FM-15+0021GMTT V0203201N00311999991CY0099001N1+01301+01201999999ADDAG10999MA1102911999999REMMET014NEW CAVOK NSG;EQDQ01+000000PRSWM2
0067601010999991998012001304+35733-005900FM-15+0021GMTT V0203201N00311999991CY0099001N1+01301+01201999999ADDAG10999MA1102911999999REMMET014NEW CAVOK NSG;EQDQ01+000000PRSWM2
0118601010999991998012003004+35733-005900SY-MT+0021GMTT V0203201N00411220001CN0100001N1+01321+01251102801ADDAA106000091AG10000GF100991001001999999001001MA1102911999999MD1810141+9999REMMET014NEW CAVOK NSG;EQDQ01+000000PRSWM2
0067601010999991998012003304+35733-005900FM-15+0021GMTT V0203201N00411999991CY0099001N1+01301+01301999999ADDAG10999MA1102811999999REMMET014NEW CAVOK NSG;EQDQ01+000000PRSWM2
0067601010999991998012004304+35733-005900FM-15+0021GMTT V0203201N00411999991CY0099001N1+01301+01301999999ADDAG10999MA1102811999999REMMET014NEW CAVOK NSG;EQDQ01+000000PRSWM2
