0133601010999991984010100004+35717-005900FM-12+0015GMTT V0203601N00311004801CN0100001N9+01461+01171102801ADDAA106000091AG14000AY101061GA1051+004809089GA2031+024009039GF106991051021004501031001MD1410001+9999MW1021REMSYN017333   85816 83358
0091601010999991984010101004+35717-005900FM-15+0015GMTT V0203001N00201004801CN0112001N1+01501+01201999999ADDAG11999GA1051+004809089GA2031+024009039MA1102811999999REMMET006NOSIG?EQDQ01+000000PRSWM2
0089601010999991984010102004+35717-005900FM-15+0015GMTT V0201201N00201004501CN0112001N1+01401+01201999999ADDAG11999GA1051+004509089GA2031+024009039MA1102711999999REMMET004NSG?EQDQ01+000000PRSWM2
0089601010999991984010102304+35717-005900FM-15+0015GMTT V0201201N00201004501CN0112001N1+01401+01201999999ADDAG12000GA1051+004509089GA2031+024009039MA1102711999999REMMET004NSG?EQDQ01+000000PRSWM2
0177601010999991984010103004+35717-005900SY-MT+0015GMTT V0202601N00301004801CN0112001N1+01401+01201102761ADDAA106000091AG14000AY101031GA1051+004809089GA2031+024009039GF106991061021004501031001MA1102711999999MD1810041+9999MW1021REMSYN017333   85816 83358MET004NSG?EQDQ01+000000PRSWM2
0089601010999991984010103304+35717-005900FM-15+0015GMTT V0202601N00301004801CN0112001N1+01401+01201999999ADDAG12999GA1051+004809089GA2031+024009039MA1102711999999REMMET004NSG?EQDQ01+000000PRSWM2
0089601010999991984010104004+35717-005900FM-15+0015GMTT V0202201N00301004801CN0112001N1+01401+01201999999ADDAG12999GA1051+004809089GA2031+024009999MA1102711999999REMMET004NSG?EQDQ01+000000PRSWM2
0074601010999991984010104304+35717-005900FM-15+0015GMTT V0202201N00301004801CN0112001N1+01401+01201999999ADDAG12999GA1051+004809089MA1102711999999REMMET005NSG??EQDQ01+000000PRSWM2
0089601010999991984010105304+35717-005900FM-15+0015GMTT V0203001N00251004801CN0112001N1+01501+01101999999ADDAG12000GA1051+004809089GA2031+024009039MA1102711999999REMMET004NSG?EQDQ01+000000PRSWM2
0234601010999991984010106004+35717-005900SY-MT+0015GMTT V0200601N00301004801CN0099001N1+01401+01101102741ADDAA106000091AG14000AY101061GA1051+004809089GA2031+024009039GF106991061021004501031001KA1120N+01371MA1102711999999MD1810021+9999MW1021REMSYN023333   20137 85816 83358MET042CAVOK 9999 5CUSC016 3AC080 14/11 1027 NSG?EQDQ01+000000PRSWM2
0089601010999991984010106304+35717-005900FM-15+0015GMTT V0200601N00301004801CN0112001N1+01401+01101999999ADDAG12999GA1051+004809089GA2031+024009039MA1102711999999REMMET004NSG?EQDQ01+000000PRSWM2
0076601010999991984010107004+35717-005900FM-15+0015GMTT V0200601N00251004801CN0112001N1+01401+01101999999ADDAG12999GA1051+004809089GA2031+024009039MA1102711999999EQDQ01+000000PRSWM2
0076601010999991984010107304+35717-005900FM-15+0015GMTT V0200601N00301004801CN0112001N1+01401+01101999999ADDAG12999GA1051+004809089GA2031+024009039MA1102711999999EQDQ01+000000PRSWM2
0091601010999991984010108004+35717-005900FM-15+0015GMTT V0209991C00001006901CN0112001N1+01301+01101999999ADDAG12999GA1031+004509089GA2071+006909059MA1102711999999REMMET006NOSIG?EQDQ01+000000PRSWM2
0091601010999991984010108304+35717-005900FM-15+0015GMTT V0209991C00001006901CN0112001N1+01301+01101999999ADDAG12000GA1031+004509089GA2071+006909059MA1102711999999REMMET006NOSIG?EQDQ01+000000PRSWM2
0179601010999991984010109004+35717-005900SY-MT+0015GMTT V0209991C00001006901CN0112001N1+01401+01201102701ADDAA106000091AG14000AY101031GA1031+004509089GA2071+006909059GF108991081021004501999999MA1102711999999MD1610041+9999MW1021REMSYN017333   83815 87623MET006NOSIG?EQDQ01+000000PRSWM2
0076601010999991984010110004+35717-005900FM-15+0015GMTT V0209991C00001220001CN0112001N1+01501+01301999999ADDAG12999GA1031+004509089MA1102711999999REMMET007NPOSIG?EQDQ01+000000PRSWM2
0091601010999991984010111004+35717-005900FM-15+0015GMTT V0209991C00001006901CN0112001N1+01501+01201999999ADDAG12999GA1041+004509089GA2071+006909059MA1102711999999REMMET006NOSIG?EQDQ01+000000PRSWM2
0091601010999991984010111304+35717-005900FM-15+0015GMTT V0209991C00001006901CN0112001N1+01501+01201999999ADDAG12000GA1041+004509089GA2071+006909059MA1102711999999REMMET006NOSIG?EQDQ01+000000PRSWM2
0179601010999991984010112004+35717-005900SY-MT+0015GMTT V0200401N00101006901CN0112001N1+01501+01101102741ADDAA106000091AG14000AY101061GA1031+004509089GA2071+006909059GF108991081081004501999999MA1102711999999MD1010041+9999MW1021REMSYN017333   83815 87623MET006NOSIG?EQDQ01+000000PRSWM2
0091601010999991984010112304+35717-005900FM-15+0015GMTT V0200401N00101006901CN0112001N1+01501+01101999999ADDAG12999GA1031+004509089GA2071+006909059MA1102711999999REMMET006NOSIG?EQDQ01+000000PRSWM2
0091601010999991984010113004+35717-005900FM-15+0015GMTT V0209991C00001006901CN0112001N1+01601+01101999999ADDAG12999GA1031+004509089GA2071+006909059MA1102711999999REMMET006NOSIG?EQDQ01+000000PRSWM2
0091601010999991984010113304+35717-005900FM-15+0015GMTT V0209991C00001006901CN0112001N1+01601+01101999999ADDAG12999GA1031+004509089GA2071+006909059MA1102711999999REMMET006NOSIG?EQDQ01+000000PRSWM2
0091601010999991984010114004+35717-005900FM-15+0015GMTT V0203601N00151006901CN0112001N1+01601+01001999999ADDAG12999GA1031+004509089GA2071+006909059MA1102611999999REMMET006NOSIG?EQDQ01+000000PRSWM2
0092601010999991984010114304+35717-005900FM-15+0015GMTT V0203601N00151006901CN0112001N1+01601+01001999999ADDAG12000GA1031+004509089GA2071+006909059MA1102611999999REMMET007N OSIG?EQDQ01+000000PRSWM2
0179601010999991984010115004+35717-005900SY-MT+0015GMTT V0209991C00001006901CN0112001N1+01601+01101102591ADDAA106000091AG14000AY101031GA1031+004509089GA2061+006909059GF107991071081004501999999MA1102511999999MD1610151+9999MW1021REMSYN017333   83815 86623MET006NOSIG?EQDQ01+000000PRSWM2
0063601010999991984010115304+35717-005900FM-15+0015GMTT V0209991C00001220001CN0112001N1+01601+01101999999ADDAG12999GA1031+004809089REMMET009102 OSIG?EQDQ01+000000PRSWM2
0065601010999991984010116004+35717-005900FM-15+0015GMTT V0209991C00001220001CN0112001N1+01701+99999999999ADDAG12999GA1031+006909059REMMET011P QPW NOSI?EQDQ01+000000PRSWM2
0174601010999991984010118004+35717-005900SY-MT+0015GMTT V0203601N00151220001CN0100001N1+01341+00981102591ADDAA106000091AG14000AY101061GA1031+006909059GF103991031051008001001001KA1120M+01651MA1102511999999MD1510001+9999MW1021REMSYN017333   10165 83623MET004NSG?EQDQ01+000000PRSWM2
0073601010999991984010119004+35717-005900FM-15+0015GMTT V0203601N00151220001CN0112001N1+01301+01001999999ADDAG12999GA1021+006909059MA1102611999999REMMET004NSG?EQDQ01+000000PRSWM2
0073601010999991984010119304+35717-005900FM-15+0015GMTT V0203601N00151220001CN0112001N1+01301+01001999999ADDAG12999GA1021+006909059MA1102611999999REMMET004NSG?EQDQ01+000000PRSWM2
0073601010999991984010120004+35717-005900FM-15+0015GMTT V0200801N00151220001CN0112001N1+01201+01001999999ADDAG12999GA1021+006909059MA1102611999999REMMET004NSG?EQDQ01+000000PRSWM2
0073601010999991984010120304+35717-005900FM-15+0015GMTT V0200801N00151220001CN0112001N1+01201+01001999999ADDAG12000GA1021+006909059MA1102611999999REMMET004NSG?EQDQ01+000000PRSWM2
0130601010999991984010121004+35717-005900SY-MT+0015GMTT V0209991C00001220001CN0099001N1+00901+00801102671ADDAA106000091AG14000AY101031GF100991001001999999001001MA1102611999999MD1310081+9999MW1021REMMET012CAVOK NOSIG?EQDQ01+000000PRSWM2
0065601010999991984010121304+35717-005900FM-15+0015GMTT V0209991C00001999991CY0099001N1+00901+00801999999ADDAG12999MA1102611999999REMMET012CAVOK NOSIG?EQDQ01+000000PRSWM2
0065601010999991984010122004+35717-005900FM-15+0015GMTT V0209991C00001999991CY0099001N1+00801+00801999999ADDAG12999MA1102711999999REMMET012CAVOK NOSIG?EQDQ01+000000PRSWM2
0065601010999991984010122304+35717-005900FM-15+0015GMTT V0209991C00001999991CY0099001N1+00801+00801999999ADDAG12999MA1102711999999REMMET012CAVOK NOSIG?EQDQ01+000000PRSWM2
0108601010999991984010123004+35717-005900FM-15+0015GMTT V0209991C00001999991CY0099001N1+99999+99999999999ADDAG12999REMMET070CAVOK 08PU QPWU NOSIG        ?     GMME10004 8000SJC 60/08 1025 NOSIG?EQDQ01+000000PRSWM2
0130601010999991984010200004+35717-005900SY-MT+0015GMTT V0209991C00001220001CN0099001N1+00801+00701102731ADDAA106000091AG14000AY101061GF100991001001999999001001MA1102711999999MD1110041+9999MW1021REMMET012CAVOK NOSIG?EQDQ01+000000PRSWM2
0065601010999991984010200304+35717-005900FM-15+0015GMTT V0209991C00001999991CY0099001N1+00801+00701999999ADDAG11999MA1102711999999REMMET012CAVOK NOSIG?EQDQ01+000000PRSWM2
0065601010999991984010201004+35717-005900FM-15+0015GMTT V0209991C00001999991CY0099001N1+00801+00701999999ADDAG11999MA1102711999999REMMET012CAVOK NOSIG?EQDQ01+000000PRSWM2
0065601010999991984010201304+35717-005900FM-15+0015GMTT V0209991C00001999991CY0099001N1+00801+00701999999ADDAG11999MA1102711999999REMMET012CAVOK NOSIG?EQDQ01+000000PRSWM2
0065601010999991984010202304+35717-005900FM-15+0015GMTT V0209991C00001999991CY0099001N1+00801+00701999999ADDAG12000MA1102711999999REMMET012CAVOK NOSIG?EQDQ01+000000PRSWM2
0146601010999991984010203004+35717-005900SY-MT+0015GMTT V0209991C00001220001CN0099001N1+00801+00701102711ADDAA106000091AG14000AY101031GF100991999001999999001001MA1102711999999MD1610021+9999MW1021REMMET012CAVOK NOSIG?EQDQ01+000942SCOLCBQ02+000000PRSWM2
0065601010999991984010203304+35717-005900FM-15+0015GMTT V0209991C00001999991CY0099001N1+00801+00701999999ADDAG12999MA1102711999999REMMET012CAVOK NOSIG?EQDQ01+000000PRSWM2
0065601010999991984010204304+35717-005900FM-15+0015GMTT V0209991C00001999991CY0099001N1+00801+00701999999ADDAG12999MA1102711999999REMMET012CAVOK NOSIG?EQDQ01+000000PRSWM2
0055601010999991984010205004+35717-005900FM-15+0015GMTT V0209999999999999991CY0099001N1+00801+99999999999ADDAG12999REMMET017CAVOK U YPWYNLQU?EQDQ01+000000PRSWM2
0065601010999991984010205304+35717-005900FM-15+0015GMTT V0209991C00001999991CY0099001N1+00801+00701999999ADDAG12000MA1102611999999REMMET012CAVOK NOSIG?EQDQ01+000000PRSWM2
0182601010999991984010206004+35717-005900SY-MT+0015GMTT V0201001N00151220001CN0099001N1+00701+00701102641ADDAA106000091AG12000AY101061GA1031+069009009GF103991001001999999001021KA1120N+00701MA1102611999999MD1810071+9999MW1021REMSYN017333   20070 83073MET012CAVOK NOSIG?EQDQ01+000000PRSWM2
0065601010999991984010206304+35717-005900FM-15+0015GMTT V0201001N00151999991CY0099001N1+00701+00701999999ADDAG12999MA1102611999999REMMET012CAVOK NOSIG?EQDQ01+000000PRSWM2
0065601010999991984010207004+35717-005900FM-15+0015GMTT V0201001N00151999991CY0099001N1+00701+00701999999ADDAG12999MA1102611999999REMMET012CAVOK NOSIG?EQDQ01+000000PRSWM2
0073601010999991984010208004+35717-005900FM-15+0015GMTT V0201001N00151220001CN0080001N1+00701+00701999999ADDAG12999GA1021+006009059MA1102611999999REMMET004NSG?EQDQ01+000000PRSWM2
0097601010999991984010209004+35717-005900FM-12+0015GMTT V0201001N00311220001CN0080001N9+00751+00711102761ADDAA106000091AG14000AY101031GA1021+004809059GF103991021051004501001021MW1021REMSYN011333   82616
0075601010999991984010210004+35717-005900FM-15+0015GMTT V0201001N00301220001CN0080001N1+00801+00701999999ADDAG12999GA1021+004809059MA1102711999999REMMET006NOSIG?EQDQ01+000000PRSWM2
0059601010999991984010210304+35717-005900FM-15+0015GMTT V0201001N00301220001CN0080001N1+00801+00701999999ADDAG12999MA1102711999999REMMET006NOSIG?EQDQ01+000000PRSWM2
0075601010999991984010211004+35717-005900FM-15+0015GMTT V0201001N00301220001CN0080001N1+01301+01101999999ADDAG12999GA1021+004809059MA1102811999999REMMET006NOSIG?EQDQ01+000000PRSWM2
0075601010999991984010211304+35717-005900FM-15+0015GMTT V0201001N00151220001CN0080001N1+01301+01101999999ADDAG12000GA1021+004809059MA1102811999999REMMET006NOSIG?EQDQ01+000000PRSWM2
0157601010999991984010212004+35717-005900SY-MT+0015GMTT V0209991C00001220001CN0080001N1+01461+01081102801ADDAA106000091AG14000AY101061GA1021+004809059GF103991021051008001001021MA1102811999999MD1010051+9999MW1021REMSYN011333   82616MET006NOSIG?EQDQ01+000000PRSWM2
0089601010999991984010214304+35717-005900FM-15+0015GMTT V0203401N00151220001CN0080001N1+01601+01101999999ADDAG12000GA1011+004809059GA2031+069009009MA1102611999999REMMET004NSG?EQDQ01+000000PRSWM2
0177601010999991984010215004+35717-005900SY-MT+0015GMTT V0203601N00411220001CN0080001N1+01471+00981102631ADDAA106000091AG14000AY101031GA1011+004809059GA2031+069009009GF103991011051004501001021MA1102611999999MD1810171+9999MW1021REMSYN017333   81616 83073MET004NSG?EQDQ01+000000PRSWM2
0089601010999991984010215304+35717-005900FM-15+0015GMTT V0203601N00301220001CN0080001N1+01501+01001999999ADDAG12999GA1011+004809059GA2031+069009009MA1102611999999REMMET004NSG?EQDQ01+000000PRSWM2
0075601010999991984010216004+35717-005900FM-15+0015GMTT V0203601N00301220001CN0080001N1+01501+01001999999ADDAG12999GA1031+069009009MA1102611999999REMMET006NOSIG?EQDQ01+000000PRSWM2
0075601010999991984010216304+35717-005900FM-15+0015GMTT V0203401N00251220001CN0080001N1+01501+01001999999ADDAG12999GA1031+069009009MA1102611999999REMMET006NOSIG?EQDQ01+000000PRSWM2
0044601010999991984010217004+35717-005900FM-15+0015GMTT V0203601N001519999999N0080001N1+01401+01001999999ADDAG12999MA1102611999999EQDQ01+000000PRSWM2
0198601010999991984010218004+35717-005900SY-MT+0015GMTT V0203601N00311069001CN0080001N1+01211+01021102661ADDAA106000091AG14000AY101061GA1011+004809059GA2061+069009009GF106991011051004501001021KA1120M+01551MA1102611999999MD1210031+9999MW1021REMSYN023333   10155 81816 86073MET006NOSIG?EQDQ01+000000PRSWM2
0091601010999991984010219004+35717-005900FM-15+0015GMTT V0209991C00001069001CN0080001N1+01201+01001999999ADDAG12999GA1011+004809059GA2061+069009009MA1102611999999REMMET006NOSIG?EQDQ01+000000PRSWM2
0091601010999991984010220004+35717-005900FM-15+0015GMTT V0209991C00001069001CN0080001N1+01101+01001999999ADDAG12999GA1011+004809059GA2061+069009009MA1102611999999REMMET006NOSIG?EQDQ01+000000PRSWM2
0172601010999991984010221004+35717-005900SY-MT+0015GMTT V0209991C00001069001CN0099001N1+00801+00801102741ADDAA106000091AG14000AY101031GA1061+069009009GF106991001001999999001021MA1102711999999MD1210081+9999MW1021REMSYN011333   86073MET005CAVOKEQDQ01+000002APC3  Q02+000000PRSWM2
0060601010999991984010221304+35717-005900FM-15+0015GMTT V0209991C00001069001CN0080001N1+00801+00801999999ADDAG12999GA1061+069009009MA1102711999999EQDQ01+000000PRSWM2
0060601010999991984010222004+35717-005900FM-15+0015GMTT V0209991C00001069001CN0080001N1+00801+00701999999ADDAG12999GA1061+069009009MA1102711999999EQDQ01+000000PRSWM2
0060601010999991984010222304+35717-005900FM-15+0015GMTT V0209991C00001069001CN0080001N1+00801+00701999999ADDAG12999GA1061+069009009MA1102711999999EQDQ01+000000PRSWM2
0060601010999991984010223004+35717-005900FM-15+0015GMTT V0209991C00001069001CN0080001N1+00801+00701999999ADDAG12999GA1061+069009009MA1102711999999EQDQ01+000000PRSWM2
0060601010999991984010223304+35717-005900FM-15+0015GMTT V0209991C00001069001CN0080001N1+00801+00701999999ADDAG12000GA1061+069009009MA1102711999999EQDQ01+000000PRSWM2
0145601010999991984010300004+35717-005900SY-MT+0015GMTT V0200601N00101220001CN0080001N1+00631+00561102831ADDAA106000091AG14000AY101061GA1031+069009009GF103991001001999999001021MA1102811999999MD1210081+9999MW1021REMSYN011333   83073EQDQ01+000000PRSWM2
0060601010999991984010300304+35717-005900FM-15+0015GMTT V0200601N00101220001CN0080001N1+00601+00601999999ADDAG11999GA1031+069009009MA1102811999999EQDQ01+000000PRSWM2
0060601010999991984010301004+35717-005900FM-15+0015GMTT V0201001N00201220001CN0080001N1+00601+00601999999ADDAG11999GA1031+069009009MA1102811999999EQDQ01+000000PRSWM2
0060601010999991984010301304+35717-005900FM-15+0015GMTT V0201001N00201220001CN0080001N1+00601+00601999999ADDAG11999GA1031+069009009MA1102811999999EQDQ01+000000PRSWM2
0145601010999991984010303004+35717-005900SY-MT+0015GMTT V0201001N00151220001CN0080001N1+00571+00501102811ADDAA106000091AG14000AY101031GA1031+069009009GF103991001001999999001021MA1101802999999MD1610021+9999MW1021REMSYN011333   83073EQDQ01+000000PRSWM2
0060601010999991984010303304+35717-005900FM-15+0015GMTT V0201001N00151220001CN0080001N1+00601+00501999999ADDAG12999GA1031+069009009MA1101801999999EQDQ01+000000PRSWM2
0060601010999991984010304004+35717-005900FM-15+0015GMTT V0201001N00101220001CN0080001N1+00601+00501999999ADDAG12999GA1031+069009009MA1102812999999EQDQ01+000000PRSWM2
0060601010999991984010304304+35717-005900FM-15+0015GMTT V0201001N00101220001CN0080001N1+00601+00501999999ADDAG12999GA1031+069009009MA1102811999999EQDQ01+000000PRSWM2
0202601010999991984010306004+35717-005900SY-MT+0015GMTT V0201201N00101069001CN0080001N1+00851+00811102771ADDAA106000091AG14000AY101061GA1021+004809059GA2051+069009009GF106991021051999999001021KA1120N+00571MA1102711999999MD1810041+9999MW1021REMSYN023333   20057 82616 85073EQDQ01+000992SCOLCBQ02+000000PRSWM2
0076601010999991984010306304+35717-005900FM-15+0015GMTT V0201201N00101069001CN0080001N1+00901+00801999999ADDAG12999GA1021+004809059GA2051+069009009MA1102711999999EQDQ01+000000PRSWM2
0076601010999991984010307004+35717-005900FM-15+0015GMTT V0201201N00101069001CN0080001N1+00901+00801999999ADDAG12999GA1021+004809059GA2051+069009009MA1102711999999EQDQ01+000000PRSWM2
0089601010999991984010308004+35717-005900FM-15+0015GMTT V0201001N00101004801CN0070001N1+00901+00901999999ADDAG12999GA1051+004809059GA2041+069009009MA1102811999999REMMET004NSG?EQDQ01+000000PRSWM2
0089601010999991984010308304+35717-005900FM-15+0015GMTT V0201001N00151004801CN0070001N1+00901+00901999999ADDAG12000GA1051+004809059GA2041+069009009MA1102811999999REMMET004NSG?EQDQ01+000000PRSWM2
0155601010999991984010309004+35717-005900SY-MT+0015GMTT V0201001N00101004801CN0070001N1+00901+00901102871ADDAA106000091AG14000AY101031GA1071+004809059GF107991061051004501001021MA1102811999999MD1310101+9999MW1021REMSYN011333   87616MET004NSG?EQDQ01+000000PRSWM2
0073601010999991984010310004+35717-005900FM-15+0015GMTT V0200401N00101006001CN0080001N1+01101+00901999999ADDAG12999GA1081+006009059MA1102911999999REMMET004NSG?EQDQ01+000000PRSWM2
0071601010999991984010311004+35717-005900FM-15+0015GMTT V0203601N00251000601CN0080001N1+99999+99999999999ADDAG12999GA1081+000609059REMMET017QWXQP QPEP NOSIG?EQDQ01+000000PRSWM2
0155601010999991984010312004+35717-005900SY-MT+0015GMTT V0203001N00301006001CN0080001N1+01301+01001102991ADDAA106000091AG14000AY101061GA1071+006009059GF107991071051008001999999MA1102911999999MD1010131+9999MW1021REMSYN011333   87620MET004NSG?EQDQ01+000000PRSWM2
0097601010999991984010315004+35717-005900FM-12+0015GMTT V0200101N01591220001CN0150001N9+99999+99999102861ADDAA106000091AG14000AY101031GA1011+006009059GF101991011051008001001001MW1021REMSYN011333   81620
0075601010999991984010316004+35717-005900FM-15+0015GMTT V0203001N00411220001CN0112001N1+01301+00901999999ADDAG12999GA1011+006009059MA1102811999999REMMET006NOSIG?EQDQ01+000000PRSWM2
0060601010999991984010316304+35717-005900FM-15+0015GMTT V0203001N00411006001CN0112001N1+01301+00901999999ADDAG12999GA1051+006009059MA1102811999999EQDQ01+000000PRSWM2
0107601010999991984010317004+35717-005900FM-15+0015GMTT V0203001N00511009001CN0112001N1+01301+00901999999ADDAG12999GA1011+006009059GA2041+006009059GA3071+009009059MA1102811999999REMMET006NOSIG?EQDQ01+000000PRSWM2
0174601010999991984010318004+35717-005900SY-MT+0015GMTT V0202801N00511006901CN0112001N1+01201+01101102861ADDAA106000091AG14000AY101061GA1071+006909059GF107991071051008001999999KA1120M+01341MA1102811999999MD1410001+9999MW1021REMSYN017333   10134 87623MET004NSG?EQDQ01+000000PRSWM2
0073601010999991984010318304+35717-005900FM-15+0015GMTT V0202801N00511006901CN0112001N1+01201+01101999999ADDAG12999GA1071+006909059MA1102811999999REMMET004NSG?EQDQ01+000000PRSWM2
0075601010999991984010319004+35717-005900FM-15+0015GMTT V0202801N00611006901CN0112001N1+01301+00901999999ADDAG12999GA1071+006909059MA1102811999999REMMET006NOSIG?EQDQ01+000000PRSWM2
0075601010999991984010319304+35717-005900FM-15+0015GMTT V0202801N00611006901CN0112001N1+01301+00901999999ADDAG12999GA1071+006909059MA1102811999999REMMET006NOSIG?EQDQ01+000000PRSWM2
0075601010999991984010320004+35717-005900FM-15+0015GMTT V0202801N00561006901CN0112001N1+01301+00901999999ADDAG12999GA1071+006909059MA1102811999999REMMET006NOSIG?EQDQ01+000000PRSWM2
0157601010999991984010321004+35717-005900SY-MT+0015GMTT V0203001N00621006901CN0100001N1+01251+00951102861ADDAA106000091AG14000AY101031GA1071+006909059GF107991071051008001999999MA1102811999999MD1510001+9999MW1021REMSYN011333   87623MET006NOSIG?EQDQ01+000000PRSWM2
0075601010999991984010321304+35717-005900FM-15+0015GMTT V0203001N00561006901CN0112001N1+01301+01001999999ADDAG12999GA1071+006909059MA1102611999999REMMET006NOSIG?EQDQ01+000000PRSWM2
0075601010999991984010322004+35717-005900FM-15+0015GMTT V0203001N00561006901CN0112001N1+01401+01001999999ADDAG12999GA1071+006909059MA1102811999999REMMET006NOSIG?EQDQ01+000000PRSWM2
0075601010999991984010322304+35717-005900FM-15+0015GMTT V0202801N00611006901CN0112001N1+01401+01001999999ADDAG12999GA1071+006909059MA1102811999999REMMET006NOSIG?EQDQ01+000000PRSWM2
0075601010999991984010323004+35717-005900FM-15+0015GMTT V0203401N00771006901CN0112001N1+01401+00901999999ADDAG12999GA1071+006909059MA1102811999999REMMET006NOSIG?EQDQ01+000000PRSWM2
0075601010999991984010323304+35717-005900FM-15+0015GMTT V0203401N00721006901CN0112001N1+01401+00901999999ADDAG12000GA1071+006909059MA1102811999999REMMET006NOSIG?EQDQ01+000000PRSWM2
0157601010999991984010400004+35717-005900SY-MT+0015GMTT V0202801N00411006901CN0112001N1+01401+00901102871ADDAA106000091AG12000AY101061GA1071+006909059GF107991071051008001999999MA1102811999999MD1110011+9999MW1021REMSYN011333   87623MET006NOSIG?EQDQ01+000000PRSWM2
0075601010999991984010400304+35717-005900FM-15+0015GMTT V0202801N00411006901CN0112001N1+01401+00901999999ADDAG11999GA1071+006909059MA1102811999999REMMET006NOSIG?EQDQ01+000000PRSWM2
0075601010999991984010401004+35717-005900FM-15+0015GMTT V0202601N00611006901CN0112001N1+01401+00901999999ADDAG11999GA1071+006909059MA1102811999999REMMET006NOSIG?EQDQ01+000000PRSWM2
0075601010999991984010401304+35717-005900FM-15+0015GMTT V0202601N00611006901CN0112001N1+01401+00901999999ADDAG11999GA1071+006909059MA1102811999999REMMET006NOSIG?EQDQ01+000000PRSWM2
0073601010999991984010402304+35717-005900FM-15+0015GMTT V0203401N00411006901CN0112001N1+01401+00901999999ADDAG12000GA1071+006909059MA1102811999999REMMET004NSG?EQDQ01+000000PRSWM2
0155601010999991984010403004+35717-005900SY-MT+0015GMTT V0202601N00511006901CN0112001N1+01401+00901102801ADDAA106000091AG14000AY101031GA1071+006909059GF107991071051008001999999MA1102811999999MD1610071+9999MW1021REMSYN011333   87623MET004NSG?EQDQ01+000000PRSWM2
0089601010999991984010403304+35717-005900FM-15+0015GMTT V0202601N00511006901CN0112001N1+01401+00901999999ADDAG12999GA1071+006909059GA2071+006909059MA1102811999999REMMET004NSG?EQDQ01+000000PRSWM2
0073601010999991984010404004+35717-005900FM-15+0015GMTT V0202601N00511006901CN0112001N1+01401+00901999999ADDAG12999GA1071+006909059MA1102711999999REMMET004NSG?EQDQ01+000000PRSWM2
0073601010999991984010404304+35717-005900FM-15+0015GMTT V0202601N00511006901CN0112001N1+01401+00901999999ADDAG12999GA1071+006909059MA1102711999999REMMET004NSG?EQDQ01+000000PRSWM2
0073601010999991984010405004+35717-005900FM-15+0015GMTT V0201801N00301006901CN0112001N1+01201+00901999999ADDAG12999GA1071+006909059MA1102711999999REMMET004NSG?EQDQ01+000000PRSWM2
0185601010999991984010406004+35717-005900SY-MT+0015GMTT V0201601N00511006901CN0112001N1+01201+01001102671ADDAA106000091AA224000591AG14000AY101061GA1071+006909059GF107991071051008001999999KA1120N+01061MA1102611999999MD1810131+9999MW1021REMSYN017333   20106 87623MET004NSG?EQDQ01+000000PRSWM2
0076601010999991984010407004+35717-005900FM-15+0015GMTT V0203401N00151006001CN0070001N1+01101+01001999999ADDAG12999GA1031+002409079GA2071+006009059MA1102711999999MW1211REMMET004NSG?
0091601010999991984010407304+35717-005900FM-15+0015GMTT V0203401N00461006001CN0080001N1+01101+01001999999ADDAG12999GA1031+002409079GA2071+006009059MA1102711999999REMMET006NOSIG?EQDQ01+000000PRSWM2
0107601010999991984010408004+35717-005900FM-15+0015GMTT V0203401N00971003901CN0112001N1+01301+01001999999ADDAG12999GA1021+001809079GA2031+003909089GA3061+006009059MA1102711999999REMMET006NOSIG?EQDQ01+000000PRSWM2
0144601010999991984010409004+35717-005900FM-12+0015GMTT V0203001N00931006001CN0100001N9+01251+00821102741ADDAG12002AY161031GA1011+001809079GA2031+003909089GA3061+006009059GF107991071081002501999999MD1010001+9999MW1011REMSYN023333   81706 83813 86620
0091601010999991984010410304+35717-005900FM-15+0015GMTT V0203401N00821006001CN0112001N1+01201+00901999999ADDAG12999GA1021+003909089GA2061+006009059MA1102811999999REMMET006NOSIG?EQDQ01+000000PRSWM2
0091601010999991984010411004+35717-005900FM-15+0015GMTT V0203601N00821006001CN0112001N1+01201+00801999999ADDAG12999GA1031+003909089GA2051+006009059MA1102911999999REMMET006NOSIG?EQDQ01+000000PRSWM2
0073601010999991984010412304+35717-005900FM-15+0015GMTT V0203601N00721004801CN0112001N1+01201+00801999999ADDAG12999GA1051+004809089MA1102911999999REMMET004NSG?EQDQ01+000000PRSWM2
0075601010999991984010413004+35717-005900FM-15+0015GMTT V0203601N00611220001CN0112001N1+01201+00701999999ADDAG12999GA1041+004809089MA1102811999999REMMET006NOSIG?EQDQ01+000000PRSWM2
0073601010999991984010414004+35717-005900FM-15+0015GMTT V0203401N00721220001CN0112001N1+01301+00701999999ADDAG12999GA1031+004809059MA1102711999999REMMET004NSG?EQDQ01+000000PRSWM2
0155601010999991984010415004+35717-005900SY-MT+0015GMTT V0203001N00511220001CN0112001N1+01201+00701102711ADDAA106000091AG14000AY101031GA1031+004809059GF103991031051004501001001MA1102711999999MD1810151+9999MW1021REMSYN011333   83616MET004NSG?EQDQ01+000000PRSWM2
0075601010999991984010416004+35717-005900FM-15+0015GMTT V0203401N00511220001CN0112001N1+01301+00801999999ADDAG12999GA1031+004809059MA1102711999999REMMET006NOSIG?EQDQ01+000000PRSWM2
0075601010999991984010417004+35717-005900FM-15+0015GMTT V0203601N00611220001CN0112001N1+01201+00801999999ADDAG12999GA1041+004809059MA1102711999999REMMET006NOSIG?EQDQ01+000000PRSWM2
0075601010999991984010417304+35717-005900FM-15+0015GMTT V0203601N00511220001CN0112001N1+01201+00801999999ADDAG12000GA1041+004809059MA1102711999999REMMET006NOSIG?EQDQ01+000000PRSWM2
0130601010999991984010418004+35717-005900FM-12+0015GMTT V0200201N00621220001CN0150001N9+01231+00771102791ADDAA199002091AG10000AY101061GA1041+004809059GF104991041051004501001001KA1120M+01461MD1310081+9999MW1021REMSYN017333   10146 84616
0060601010999991984010419004+35717-005900FM-15+0015GMTT V0200201N00721220001CN0112001N1+01101+00801999999ADDAG12999GA1031+004809059MA1102811999999EQDQ01+000000PRSWM2
0075601010999991984010420304+35717-005900FM-15+0015GMTT V0200201N00611220001CN0112001N1+01101+00801999999ADDAG12000GA1021+004809059MA1102811999999REMMET006NOSIG?EQDQ01+000000PRSWM2
0130601010999991984010421004+35717-005900SY-MT+0015GMTT V0200401N00621220001CN0100001N1+01141+00491103041ADDAA106000091AG14000AY101031GF100991001001999999001001MA1103011999999MD1310211+9999MW1021REMMET012CAVOK NOSIG?EQDQ01+000000PRSWM2
0065601010999991984010421304+35717-005900FM-15+0015GMTT V0200401N00721999991CY0099001N1+01101+00501999999ADDAG12999MA1103011999999REMMET012CAVOK NOSIG?EQDQ01+000000PRSWM2
0065601010999991984010422004+35717-005900FM-15+0015GMTT V0200401N00821999991CY0099001N1+01101+00501999999ADDAG12999MA1103011999999REMMET012CAVOK NOSIG?EQDQ01+000000PRSWM2
0065601010999991984010422304+35717-005900FM-15+0015GMTT V0200401N00821999991CY0099001N1+01101+00501999999ADDAG12999MA1103011999999REMMET012CAVOK NOSIG?EQDQ01+000000PRSWM2
0065601010999991984010423004+35717-005900FM-15+0015GMTT V0200401N00821999991CY0099001N1+01001+00501999999ADDAG12999MA1103011999999REMMET012CAVOK NOSIG?EQDQ01+000000PRSWM2
0058601010999991984010423304+35717-005900FM-15+0015GMTT V0200201N00561999991CY0099001N1+01001+00501999999ADDAG12000MA1103011999999REMMET005CAVOKEQDQ01+000000PRSWM2
0130601010999991984010500004+35717-005900SY-MT+0015GMTT V0200201N00611220001CN0099001N1+01101+00601103071ADDAA106000091AG14000AY101061GF100991001001999999001001MA1103011999999MD1310071+9999MW1021REMMET012CAVOK NOSIG?EQDQ01+000000PRSWM2
0065601010999991984010501004+35717-005900FM-15+0015GMTT V0200601N00301999991CY0099001N1+01101+00501999999ADDAG11999MA1103011999999REMMET012CAVOK NOSIG?EQDQ01+000000PRSWM2
0058601010999991984010501304+35717-005900FM-15+0015GMTT V0200401N00301999991CY0099001N1+01101+00501999999ADDAG11999MA1103011999999REMMET005CAVOKEQDQ01+000000PRSWM2
0123601010999991984010503004+35717-005900SY-MT+0015GMTT V0200601N00301220001CN0099001N1+01001+00501103071ADDAA106000091AG14000AY101031GF100991001001999999001001MA1103011999999MD1410001+9999MW1021REMMET005CAVOKEQDQ01+000000PRSWM2
0058601010999991984010503304+35717-005900FM-15+0015GMTT V0200601N00301999991CY0099001N1+01001+00501999999ADDAG12999MA1103011999999REMMET005CAVOKEQDQ01+000000PRSWM2
0058601010999991984010504004+35717-005900FM-15+0015GMTT V0200601N00301999991CY0099001N1+01001+00501999999ADDAG12999MA1103011999999REMMET005CAVOKEQDQ01+000000PRSWM2
0212601010999991984010506004+35717-005900SY-MT+0015GMTT V0201001N00411220001CN0099001N1+00401+00301103081ADDAA106000091AA224002091AG14000AY101061GA1041+004809059GF199999041999012501001001KA1120N+00341MA1103011999999MD1310011+9999MW1021REMSYN011333   20034MET005CAVOKEQDQ01+000002SCOTCVQ02+000002SCOLCGQ03+000000PRSWM2
0058601010999991984010506304+35717-005900FM-15+0015GMTT V0201001N00411999991CY0099001N1+00401+00301999999ADDAG12999MA1103011999999REMMET005CAVOKEQDQ01+000000PRSWM2
0065601010999991984010507304+35717-005900FM-15+0015GMTT V0201001N00301999991CY0099001N1+00401+00301999999ADDAG12999MA1103011999999REMMET012CAVOK NOSIG?EQDQ01+000000PRSWM2
0065601010999991984010508004+35717-005900FM-15+0015GMTT V0201001N00301999991CY0099001N1+00401+00201999999ADDAG12999MA1103011999999REMMET012CAVOK NOSIG?EQDQ01+000000PRSWM2
0130601010999991984010509004+35717-005900SY-MT+0015GMTT V0209991C00001220001CN0099001N1+00601+00301103151ADDAA106000091AG14000AY101031GF100991001001999999001001MA1103121999999MD1210071+9999MW1021REMMET012CAVOK NOSIG?EQDQ01+000000PRSWM2
0065601010999991984010510004+35717-005900FM-15+0015GMTT V0201001N00251999991CY0099001N1+00901+00901999999ADDAG12999MA1103121999999REMMET012CAVOK NOSIG?EQDQ01+000000PRSWM2
0065601010999991984010510304+35717-005900FM-15+0015GMTT V0201001N00251999991CY0099001N1+00901+00501999999ADDAG12999MA1103121999999REMMET012CAVOK NOSIG?EQDQ01+000000PRSWM2
0065601010999991984010511004+35717-005900FM-15+0015GMTT V0201001N00251999991CY0099001N1+01201+00601999999ADDAG12999MA1103181999999REMMET012CAVOK NOSIG?EQDQ01+000000PRSWM2
0123601010999991984010512004+35717-005900SY-MT+0015GMTT V0203401N00201220001CN0099001N1+01401+00701103181ADDAA106000091AG14000AY101061GF100991001001999999001001MA1103121999999MD1010041+9999MW1021REMMET005CAVOKEQDQ01+000000PRSWM2
0063601010999991984010513004+35717-005900FM-15+0015GMTT V0203401N00411999991CY0099001N1+01401+00701999999ADDAG12999MA1103121999999REMMET010CAVOK NSG?EQDQ01+000000PRSWM2
0057601010999991984010513304+35717-005900FM-15+0015GMTT V0203401N00411999991CY0099001N1+01401+99999999999ADDAG12999REMMET019CAVOK 071031 NOSIG?EQDQ01+000000PRSWM2
0065601010999991984010514004+35717-005900FM-15+0015GMTT V0203401N00411999991CY0099001N1+01401+00701999999ADDAG12999MA1103121999999REMMET012CAVOK NOSIG?EQDQ01+000000PRSWM2
0063601010999991984010514304+35717-005900FM-15+0015GMTT V0203001N00251999991CY0099001N1+01401+00701999999ADDAG12000MA1103121999999REMMET010CAVOK NSG?EQDQ01+000000PRSWM2
0161601010999991984010515004+35717-005900SY-MT+0015GMTT V0203401N00511220001CN0150001N1+01401+00701103001ADDAA106000091AG14000AY101031GA1021+039009039GF102991021001999999031001MA1103011999999MD1710181+9999MW1021REMSYN011333   82363MET010CAVOK NSG?EQDQ01+000000PRSWM2
0065601010999991984010515304+35717-005900FM-15+0015GMTT V0203401N00301999991CY0099001N1+01401+00701999999ADDAG12999MA1103011999999REMMET012CAVOK NOSIG?EQDQ01+000000PRSWM2
0065601010999991984010516004+35717-005900FM-15+0015GMTT V0203001N00411999991CY0099001N1+01401+00601999999ADDAG12999MA1103011999999REMMET012CAVOK NOSIG?EQDQ01+000000PRSWM2
0058601010999991984010517004+35717-005900FM-15+0015GMTT V0203401N00201999991CY0099001N1+01301+00501999999ADDAG12999MA1103011999999REMMET005CAVOKEQDQ01+000000PRSWM2
0160601010999991984010518004+35717-005900SY-MT+0015GMTT V0209991C00001220001CN0150001N1+00991+00601103051ADDAA106000091AG14000AY101061GF100991001001999999001001KA1120M+01501MA1103011999999MD1310041+9999MW1021REMSYN011333   10150MET012CAVOK NOSIG?EQDQ01+000000PRSWM2
0065601010999991984010518304+35717-005900FM-15+0015GMTT V0209991C00001999991CY0099001N1+01001+00601999999ADDAG12999MA1103011999999REMMET012CAVOK NOSIG?EQDQ01+000000PRSWM2
0065601010999991984010519004+35717-005900FM-15+0015GMTT V0203601N00151999991CY0099001N1+00801+00501999999ADDAG12999MA1103121999999REMMET012CAVOK NOSIG?EQDQ01+000000PRSWM2
0065601010999991984010519304+35717-005900FM-15+0015GMTT V0203601N00201999991CY0099001N1+00801+00601999999ADDAG12999MA1103121999999REMMET012CAVOK NOSIG?EQDQ01+000000PRSWM2
0130601010999991984010521004+35717-005900SY-MT+0015GMTT V0200201N00511220001CN0150001N1+00841+00551103101ADDAA106000091AG14000AY101031GF100991001001999999001001MA1103121999999MD1110051+9999MW1021REMMET012CAVOK NOSIG?EQDQ01+000000PRSWM2
0067601010999991984010521304+35717-005900FM-15+0015GMTT V0200201N00511999991CY0099001N1+99999+99999999999ADDAG12999REMMET029CAVOK CAVOK 08/06 1031 NOSIG?EQDQ01+000000PRSWM2
0065601010999991984010522304+35717-005900FM-15+0015GMTT V0209991C00001999991CY0099001N1+00801+00601999999ADDAG12999MA1103121999999REMMET012CAVOK NOSIG?EQDQ01+000000PRSWM2
0065601010999991984010523004+35717-005900FM-15+0015GMTT V0200201N00511999991CY0099001N1+01101+00501999999ADDAG12999MA1103121999999REMMET012CAVOK NOSIG?EQDQ01+000000PRSWM2
0065601010999991984010523304+35717-005900FM-15+0015GMTT V0200201N00511999991CY0099001N1+01101+00501999999ADDAG12000MA1103121999999REMMET012CAVOK NOSIG?EQDQ01+000000PRSWM2
0130601010999991984010600004+35717-005900SY-MT+0015GMTT V0203601N00511220001CN0099001N1+01101+00501103161ADDAA106000091AG14000AY101061GF100991001001999999001001MA1103121999999MD1110031+9999MW1021REMMET012CAVOK NOSIG?EQDQ01+000000PRSWM2
0065601010999991984010601004+35717-005900FM-15+0015GMTT V0203601N00721999991CY0099001N1+01001+00501999999ADDAG11999MA1103121999999REMMET012CAVOK NPSIG?EQDQ01+000000PRSWM2
0065601010999991984010601304+35717-005900FM-15+0015GMTT V0203601N00721999991CY0099001N1+01001+00501999999ADDAG11999MA1103121999999REMMET012CAVOK NPSIG?EQDQ01+000000PRSWM2
0063601010999991984010602004+35717-005900FM-15+0015GMTT V0200401N00411999991CY0099001N1+00901+00501999999ADDAG11999MA1103121999999REMMET010CAVOK NSG?EQDQ01+000000PRSWM2
0063601010999991984010602304+35717-005900FM-15+0015GMTT V0200401N00411999991CY0099001N1+00901+00501999999ADDAG12000MA1103121999999REMMET010CAVOK NSG?EQDQ01+000000PRSWM2
0128601010999991984010603004+35717-005900SY-MT+0015GMTT V0200401N00311220001CN0150001N1+00541+00451103091ADDAA106000091AG14000AY101031GF100991001001999999001001MA1103011999999MD1610071+9999MW1021REMMET010CAVOK NSG?EQDQ01+000000PRSWM2
0063601010999991984010603304+35717-005900FM-15+0015GMTT V0200401N00301999991CY0099001N1+00501+00501999999ADDAG12999MA1103011999999REMMET010CAVOK NSG?EQDQ01+000000PRSWM2
0063601010999991984010604004+35717-005900FM-15+0015GMTT V0209991C00001999991CY0099001N1+00401+00301999999ADDAG12999MA1103011999999REMMET010CAVOK NSG?EQDQ01+000000PRSWM2
0063601010999991984010604304+35717-005900FM-15+0015GMTT V0209991C00001999991CY0099001N1+00401+00301999999ADDAG12999MA1103011999999REMMET010CAVOK NSG?EQDQ01+000000PRSWM2
0063601010999991984010605004+35717-005900FM-15+0015GMTT V0201001N00201999991CY0099001N1+00401+00301999999ADDAG12999MA1103011999999REMMET010CAVOK NSG?EQDQ01+000000PRSWM2
0063601010999991984010605304+35717-005900FM-15+0015GMTT V0201001N00201999991CY0099001N1+00401+00301999999ADDAG12000MA1103011999999REMMET010CAVOK NSG?EQDQ01+000000PRSWM2
0158601010999991984010606004+35717-005900SY-MT+0015GMTT V0201001N00361220001CN0099001N1+00401+00301103031ADDAA106000091AG14000AY101061GF100991001001999999001001KA1120N+00241MA1103011999999MD1810061+9999MW1021REMSYN011333   20024MET010CAVOK NSG?EQDQ01+000000PRSWM2
0063601010999991984010607004+35717-005900FM-15+0015GMTT V0201001N00301999991CY0099001N1+00401+00301999999ADDAG12999MA1103011999999REMMET010CAVOK NSG?EQDQ01+000000PRSWM2
0065601010999991984010607304+35717-005900FM-15+0015GMTT V0201001N00301999991CY0099001N1+00401+00301999999ADDAG12999MA1103011999999REMMET012CAVOK NOSIG?EQDQ01+000000PRSWM2
0065601010999991984010608004+35717-005900FM-15+0015GMTT V0201001N00151999991CY0099001N1+00401+00301999999ADDAG12999MA1103011999999REMMET012CAVOK NOSIG?EQDQ01+000000PRSWM2
0058601010999991984010608304+35717-005900FM-15+0015GMTT V0209991C00001999991CY0099001N1+99999+99999999999ADDAG12000REMMET020CAVOK 03 1030 NOSIG?EQDQ01+000000PRSWM2
0130601010999991984010609004+35717-005900SY-MT+0015GMTT V0209991C00001220001CN0150001N1+00451+00331103111ADDAA106000091AG14000AY101031GF100991001001999999001001MA1103121999999MD1310081+9999MW1021REMMET012CAVOK NOSIG?EQDQ01+000000PRSWM2
0065601010999991984010610004+35717-005900FM-15+0015GMTT V0201401N00361999991CY0099001N1+00901+00701999999ADDAG12999MA1103121999999REMMET012CAVOK NOSIG?EQDQ01+000000PRSWM2
0065601010999991984010610304+35717-005900FM-15+0015GMTT V0201601N00301999991CY0099001N1+00901+00701999999ADDAG12999MA1103121999999REMMET012CAVOK NOSIG?EQDQ01+000000PRSWM2
0065601010999991984010611004+35717-005900FM-15+0015GMTT V0201801N00461999991CY0099001N1+01201+00701999999ADDAG12999MA1103121999999REMMET012CAVOK NOSIG?EQDQ01+000000PRSWM2
0161601010999991984010612004+35717-005900SY-MT+0015GMTT V0201801N00511220001CN0099001N1+01201+00801103141ADDAA106000091AG14000AY101061GA1021+069009009GF102991001001999999001021MA1103121999999MD1010041+9999MW1021REMSYN011333   82073MET010CAVOK NSG?EQDQ01+000000PRSWM2
0052601010999991984010612304+35717-005900FM-15+0015GMTT V0201801N00411999991CY0099001N1+01201+00701999999ADDAG12999REMMET014CAVOK 1EQ NSG?EQDQ01+000000PRSWM2
0063601010999991984010613004+35717-005900FM-15+0015GMTT V0201801N00611999991CY0099001N1+01301+00801999999ADDAG12999MA1103121999999REMMET010CAVOK NSG?EQDQ01+000000PRSWM2
0063601010999991984010614004+35717-005900FM-15+0015GMTT V0202401N00611999991CY0099001N1+01301+00701999999ADDAG12999MA1103011999999REMMET010CAVOK NSG?EQDQ01+000000PRSWM2
0161601010999991984010615004+35717-005900SY-MT+0015GMTT V0202601N00621220001CN0150001N1+01351+00691103001ADDAA106000091AG14000AY101031GA1031+069009009GF103991001001999999001021MA1103011999999MD1810141+9999MW1021REMSYN011333   83073MET010CAVOK NSG?EQDQ01+000000PRSWM2
0063601010999991984010615304+35717-005900FM-15+0015GMTT V0202601N00611999991CY0099001N1+01401+00701999999ADDAG12999MA1103011999999REMMET010CAVOK NSG?EQDQ01+000000PRSWM2
0065601010999991984010616004+35717-005900FM-15+0015GMTT V0202601N00411999991CY0099001N1+01401+00801999999ADDAG12999MA1102911999999REMMET012CAVOK NOSIG?EQDQ01+000000PRSWM2
0065601010999991984010617004+35717-005900FM-15+0015GMTT V0203001N00301999991CY0099001N1+01301+00801999999ADDAG12999MA1102911999999REMMET012CAVOK NOSIG?EQDQ01+000000PRSWM2
0063601010999991984010617304+35717-005900FM-15+0015GMTT V0203001N00151999991CY0099001N1+01301+00801999999ADDAG12000MA1102911999999REMMET010CAVOK NSG?EQDQ01+000000PRSWM2
0180601010999991984010618004+35717-005900SY-MT+0015GMTT V0209991C00001220001CN0099001N1+01201+00801102961ADDAA106000091AG14000AY101061GA1031+069009009GF103991001001999999001021KA1120M+01411MA1102911999999MD1610041+9999MW1021REMSYN017333   10141 83073MET010CAVOK NSG?EQDQ01+000000PRSWM2
0063601010999991984010618304+35717-005900FM-15+0015GMTT V0209991C00001999991CY0099001N1+01201+00801999999ADDAG12999MA1102911999999REMMET010CAVOK NSG?EQDQ01+000000PRSWM2
0063601010999991984010619004+35717-005900FM-15+0015GMTT V0209991C00001999991CY0099001N1+01101+00901999999ADDAG12999MA1102911999999REMMET010CAVOK NSG?EQDQ01+000000PRSWM2
0063601010999991984010619304+35717-005900FM-15+0015GMTT V0209991C00001999991CY0099001N1+01101+00901999999ADDAG12999MA1102911999999REMMET010CAVOK NSG?EQDQ01+000000PRSWM2
0063601010999991984010620304+35717-005900FM-15+0015GMTT V0209991C00001999991CY0099001N1+01101+00901999999ADDAG12000MA1102911999999REMMET010CAVOK NSG?EQDQ01+000000PRSWM2
0161601010999991984010621004+35717-005900SY-MT+0015GMTT V0209991C00001220001CN0099001N1+01101+00801103031ADDAA106000091AG14000AY101031GA1031+069009009GF103991001001999999001021MA1103011999999MD1310071+9999MW1021REMSYN011333   83073MET010CAVOK NSG?EQDQ01+000000PRSWM2
0063601010999991984010621304+35717-005900FM-15+0015GMTT V0209991C00001999991CY0099001N1+01101+00801999999ADDAG12999MA1103011999999REMMET010CAVOK NSG?EQDQ01+000000PRSWM2
0075601010999991984010622004+35717-005900FM-15+0015GMTT V0201601N00101004801CN0112001N1+01101+00601999999ADDAG12999GA1051+004809059MA1103121999999REMMET006NOSIG?EQDQ01+000000PRSWM2
0065601010999991984010622304+35717-005900FM-15+0015GMTT V0209991C00001999991CY0099001N1+01101+00901999999ADDAG12999MA1103011999999REMMET012CAVOK NOSIG?EQDQ01+000000PRSWM2
0065601010999991984010623004+35717-005900FM-15+0015GMTT V0209991C00001999991CY0099001N1+01101+00901999999ADDAG12999MA1103011999999REMMET012CAVOK NOSIG?EQDQ01+000000PRSWM2
0065601010999991984010623304+35717-005900FM-15+0015GMTT V0201601N00251999991CY0099001N1+01101+00901999999ADDAG12000MA1103011999999REMMET012CAVOK NOSIG?EQDQ01+000000PRSWM2
0200601010999991984010700004+35717-005900SY-MT+0015GMTT V0201601N00511069001CN0099001N1+01151+00871102911ADDAA106000091AG14000AY101061GA1021+006009059GA2051+069009009GF106991021051008001001021MD1810041+9999MW1021REMSYN017333   82620 85073MET042CAVOK 9999 2SC020 5CI233 12/09 1029 NOSIG?EQDQ01+000000PRSWM2
0091601010999991984010700304+35717-005900FM-15+0015GMTT V0201601N00511069001CN0112001N1+01201+00901999999ADDAG11999GA1021+006009059GA2051+069009009MA1102911999999REMMET006NOSIG?EQDQ01+000000PRSWM2
0091601010999991984010701004+35717-005900FM-15+0015GMTT V0201801N00611069001CN0112001N1+01201+00901999999ADDAG11999GA1021+006009059GA2051+069009009MA1102911999999REMMET006NOSIG?EQDQ01+000000PRSWM2
0091601010999991984010702004+35717-005900FM-15+0015GMTT V0201801N00771069001CN0112001N1+01201+00801999999ADDAG11999GA1021+006009059GA2051+069009009MA1102811999999REMMET006NOSIG?EQDQ01+000000PRSWM2
0091601010999991984010702304+35717-005900FM-15+0015GMTT V0201801N00771069001CN0112001N1+01201+00801999999ADDAG12000GA1021+006009059GA2051+069009009MA1102811999999REMMET006NOSIG?EQDQ01+000000PRSWM2
0179601010999991984010703004+35717-005900SY-MT+0015GMTT V0201801N00771069001CN0150001N1+01771+00761102791ADDAA106000091AG14000AY101031GA1021+006009059GA2051+069009009GF106991021051008001001021MA1102711999999MD1810121+9999MW1021REMSYN017333   82620 85073MET006NOSIG?EQDQ01+000000PRSWM2
0091601010999991984010703304+35717-005900FM-15+0015GMTT V0201801N00771069001CN0112001N1+01201+00801999999ADDAG12999GA1021+006009059GA2051+069009009MA1102711999999REMMET006NOSIG?EQDQ01+000000PRSWM2
0078601010999991984010704004+35717-005900FM-15+0015GMTT V0201801N00771069001CN0112001N1+01101+00901999999ADDAG12999GA1041+006009059GA2051+069009009MA1102711999999MW1501REMMET006NOSIG?
0078601010999991984010704304+35717-005900FM-15+0015GMTT V0201801N00771069001CN0112001N1+01101+00901999999ADDAG12999GA1041+006009059GA2051+069009009MA1102711999999MW1501REMMET006NOSIG?
0092601010999991984010705004+35717-005900FM-15+0015GMTT V0201801N00771006001CN0112001N1+01001+00901999999ADDAG12999GA1021+003009079GA2031+006009059GA3051+069009009MA1102711999999MW1501REMMET004NSG?
0092601010999991984010705304+35717-005900FM-15+0015GMTT V0201801N00771006001CN0112001N1+01001+00901999999ADDAG12000GA1021+003009079GA2031+006009059GA3051+069009009MA1102711999999MW1501REMMET004NSG?
0245601010999991984010706004+35717-005900SY-MT+0015GMTT V0201801N00771006001CN0112001N1+01101+01001102761ADDAA106999999AA224000191AG14000AY151061GA1021+003009079GA2031+006009059GA3051+069009009GF107991041051002501001021KA1120N+00781MA1102711999999MD1710081+9999MW1201REMSYN029333   20078 82710 83620 85073MET004NSG?EQDQ01+000000PRSWM2Q02  00002PRCP06
0105601010999991984010707004+35717-005900FM-15+0015GMTT V0201801N00611006001CN0112001N1+01101+00901999999ADDAG12999GA1021+003009079GA2031+006009059GA3051+069009009MA1102711999999REMMET004NSG?EQDQ01+000000PRSWM2
0105601010999991984010707304+35717-005900FM-15+0015GMTT V0201801N00611006001CN0112001N1+01101+00901999999ADDAG12999GA1021+003009079GA2031+006009059GA3051+069009009MA1102711999999REMMET004NSG?EQDQ01+000000PRSWM2
0105601010999991984010708004+35717-005900FM-15+0015GMTT V0201801N00611003901CN0112001N1+01101+01001999999ADDAG12999GA1021+003009079GA2031+003909089GA3061+006009059MA1102711999999REMMET004NSG?EQDQ01+000000PRSWM2
0144601010999991984010709004+35717-005900FM-12+0015GMTT V0201801N00621006001CN0100001N9+01061+01001102821ADDAG12002AY161031GA1011+003009079GA2031+003909089GA3061+006009059GF107991071081004501999999MD1310061+9999MW1011REMSYN023333   81710 83813 86620
0105601010999991984010709304+35717-005900FM-15+0015GMTT V0201801N00611006001CN0112001N1+01101+01001999999ADDAG12999GA1011+003009079GA2031+003909089GA3061+006009059MA1102811999999REMMET004NSG?EQDQ01+000000PRSWM2
0105601010999991984010710004+35717-005900FM-15+0015GMTT V0201801N00611006001CN0112001N1+01101+01001999999ADDAG12999GA1011+003009079GA2031+003909089GA3061+006009059MA1102811999999REMMET004NSG?EQDQ01+000000PRSWM2
0079601010999991984010711004+35717-005900FM-15+0015GMTT V0201801N00611003901CN0080001N1+01101+01101999999ADDAG12999GA1031+003009079GA2031+003909089GA3061+006009059MA1102811999999MW1501
0155601010999991984010712004+35717-005900FM-12+0015GMTT V0201801N00721003901CN0100001N9+01201+01111102821ADDAA106000391AG10000AY161061GA1021+002409079GA2031+003909089GA3061+006009059GF107991071081002501999999MD1010001+9999MW1201REMSYN023333   82708 83813 86620
0105601010999991984010713004+35717-005900FM-15+0015GMTT V0202801N00611006001CN0112001N1+01201+01101999999ADDAG12999GA1011+002409079GA2031+003909089GA3061+006009059MA1102811999999REMMET004NSG?EQDQ01+000000PRSWM2
0092601010999991984010714004+35717-005900FM-15+0015GMTT V0202801N00611006001CN0112001N1+01501+01201999999ADDAG12999GA1011+002409079GA2031+003909089GA3061+006009059MA1102711999999EQDQ01+000000PRSWM2
0145601010999991984010715004+35717-005900SY-MT+0015GMTT V0202601N00821220001CN0100001N1+01581+01201102591ADDAA106000091AG14000AY101031GF106991061081002501001001MD1810231+9999MW1021REMSYN017333   81708 85620MET0195008SC020 16/12 TP?EQDQ01+000000PRSWM2
0092601010999991984010716004+35717-005900FM-15+0015GMTT V0202601N00821006001CN0112001N1+01501+01201999999ADDAG12999GA1011+002409079GA2031+004809089GA3061+006009059MA1102511999999EQDQ01+000000PRSWM2
0115601010999991984010716304+35717-005900FM-15+0015GMTT V0202601N99999006001CN9999999N9+01501+99999999999ADDAG12999GA1011+002409999GA2031+004809089GA3061+006009059MW1211REMMET007121025?EQDQ01+005973WOSPD Q02+000002VOVAR 
0079601010999991984010717004+35717-005900FM-15+0015GMTT V0202601N00821006001CN0112001N1+01401+01201999999ADDAG12999GA1011+002409079GA2031+004809089GA3061+006009059MA1102511999999MW1211
0174601010999991984010718004+35717-005900FM-12+0015GMTT V0202601N00621006001CN0100001N9+01411+01341102621ADDAA199000391AG10002AY161061GA1011+002409079GA2031+004809089GA3061+006009059GF107991071081002501999999KA1120M+01581MD1310031+9999MW1021REMSYN029333   10158 81708 83816 86620
0076601010999991984010719304+35717-005900FM-15+0015GMTT V0202601N00511006001CN0112001N1+01401+01201999999ADDAG12999GA1041+003909089GA2061+006009059MA1102611999999EQDQ01+000000PRSWM2
0076601010999991984010720004+35717-005900FM-15+0015GMTT V0202601N00511006001CN0112001N1+01301+01201999999ADDAG12999GA1041+003909089GA2061+006009059MA1102611999999EQDQ01+000000PRSWM2
0179601010999991984010721004+35717-005900SY-MT+0015GMTT V0202201N00621006001CN0100001N1+01291+01161102601ADDAA106000091AG14000AY101031GA1041+003909089GA2051+006009059GF106991061081002501001001MA1102611999999MD1610041+9999MW1021REMSYN017333   84813 85620MET006NOSIG?EQDQ01+000000PRSWM2
0091601010999991984010721304+35717-005900FM-15+0015GMTT V0201801N00611006001CN0112001N1+01301+01201999999ADDAG12999GA1041+003909089GA2051+006009059MA1102611999999REMMET006NOSIG?EQDQ01+000000PRSWM2
0091601010999991984010722004+35717-005900FM-15+0015GMTT V0201801N00611006001CN0112001N1+01301+01201999999ADDAG12999GA1041+003909089GA2051+006009059MA1102611999999REMMET006NOSIG?EQDQ01+000000PRSWM2
0091601010999991984010722304+35717-005900FM-15+0015GMTT V0201801N00611006001CN0112001N1+01301+01201999999ADDAG12999GA1041+003909089GA2051+006009059MA1102611999999REMMET006NOSIG?EQDQ01+000000PRSWM2
0091601010999991984010723004+35717-005900FM-15+0015GMTT V0201801N00721006001CN0112001N1+01301+01201999999ADDAG12999GA1041+003909089GA2061+006009059MA1102511999999REMMET006NOSIG?EQDQ01+000000PRSWM2
0091601010999991984010723304+35717-005900FM-15+0015GMTT V0201801N00721006001CN0112001N1+01301+01201999999ADDAG12000GA1041+003909089GA2061+006009059MA1102511999999REMMET006NOSIG?EQDQ01+000000PRSWM2
0180601010999991984010800004+35717-005900SY-MT+0015GMTT V0201801N00721004801CN0112001N1+01201+01101102501ADDAA106000091AG14000AY101061GA1031+003909089GA2061+004809059GF107991071081002501001021MA1102511999999MD1810081+9999MW1021REMSYN017333   83813 86616MET007XNOSIG?EQDQ01+000000PRSWM2
0091601010999991984010800304+35717-005900FM-15+0015GMTT V0201801N00721004801CN0112001N1+01201+01101999999ADDAG11999GA1031+003909089GA2061+004809059MA1102511999999REMMET006NOSIG?EQDQ01+000000PRSWM2
0107601010999991984010801004+35717-005900FM-15+0015GMTT V0201801N00611003901CN0080001N1+01201+01101999999ADDAG11999GA1021+003009079GA2031+003909089GA3061+004809059MA1102401999999REMMET006NOSIG?EQDQ01+000000PRSWM2
0094601010999991984010801304+35717-005900FM-15+0015GMTT V0201801N00661003901CN0112001N1+01201+01101999999ADDAG11999GA1031+003009079GA2031+003909089GA3061+004809059MA1102401999999MW1601REMMET006NOSIG?
0079601010999991984010802004+35717-005900FM-15+0015GMTT V0202001N00611003901CN0080001N1+01201+01101999999ADDAG11999GA1031+003009079GA2031+003909089GA3061+004809059MA1102401999999MW1251
0199601010999991984010803004+35717-005900SY-MT+0015GMTT V0201801N00511003901CN0080001N1+01201+01101102421ADDAA106000091AG14002AY161031GA1031+003009079GA2031+003909089GA3061+004809059GF107991071081002501999999MA1102401999999MD1810081+9999MW1021REMSYN023333   83710 83813 86616MET004NSG?EQDQ01+000000PRSWM2
0105601010999991984010803304+35717-005900FM-15+0015GMTT V0201801N00511003901CN0080001N1+01201+01101999999ADDAG12999GA1031+003009079GA2031+003909089GA3061+004809059MA1102401999999REMMET004NSG?EQDQ01+000000PRSWM2
0105601010999991984010804004+35717-005900FM-15+0015GMTT V0201801N00511003901CN0112001N1+01201+01101999999ADDAG12999GA1021+003009079GA2031+003909089GA3061+004809059MA1102401999999REMMET004NSG?EQDQ01+000000PRSWM2
0097601010999991984010804304+35717-005900FM-15+0015GMTT V0201801N00511003901CN0112001N1+01201+99999999999ADDAG12999GA1021+003009079GA2031+003909089GA3061+004809059REMMET011111024 NSG?EQDQ01+000000PRSWM2
0105601010999991984010805004+35717-005900FM-15+0015GMTT V0202001N00511003901CN0112001N1+01201+01001999999ADDAG12999GA1021+003009079GA2031+003909089GA3061+004809059MA1102401999999REMMET004NSG?EQDQ01+000000PRSWM2
0096601010999991984010805304+35717-005900FM-15+0015GMTT V0202001N00511003901CN0112001N1+01201+99999999999ADDAG12000GA1021+003009079GA2031+003909089GA3061+004809059REMMET010101024NSG?EQDQ01+000000PRSWM2
0196601010999991984010806004+35717-005900SY-MT+0015GMTT V0201801N00721004801CN0112001N1+01201+01101102231ADDAA124001091AG12000AY151061GA1031+003909089GA2061+004809059GF107991071081002501999999KA1120N+01181MA1102201999999MD1710091+9999MW1021REMSYN023333   20118 83813 86616MET004NSG?EQDQ01+000000PRSWM2
0089601010999991984010806304+35717-005900FM-15+0015GMTT V0201801N00721004801CN0112001N1+01201+01101999999ADDAG12999GA1031+003909089GA2061+004809059MA1102201999999REMMET004NSG?EQDQ01+000000PRSWM2
0063601010999991984010807004+35717-005900FM-15+0015GMTT V0202001N00661004801CN0080001N1+01201+01101999999ADDAG12999GA1031+003909059GA2061+004809059MA1102201999999MW1601
0144601010999991984010809004+35717-005900FM-12+0015GMTT V0201801N00621003301CN0070001N9+01241+01171102071ADDAG12002AY161031GA1031+001509079GA2041+003309089GA3071+006009059GF107991071081002501999999MD1610121+9999MW1011REMSYN023333   83705 84811 87620
0099601010999991984010809304+35717-005900FM-15+0015GMTT V0201801N00611006001CN9999999N9+01201+99999999999ADDAG12999GA1031+003309089GA2071+006009059REMMET013111020 NOSIG?EQDQ01+000002VOVAR Q02+000000PRSWM2
0092601010999991984010810004+35717-005900FM-15+0015GMTT V0201801N00611003301CN0070001N1+01301+01201999999ADDAG12999GA1031+001509079GA2031+003309089GA3071+006009059MA1102001999999EQDQ01+000000PRSWM2
0092601010999991984010810304+35717-005900FM-15+0015GMTT V0201801N00561003301CN0080001N1+01301+01101999999ADDAG12999GA1031+001509079GA2031+003309089GA3051+006009059MA1102001999999EQDQ01+000000PRSWM2
0099601010999991984010811004+35717-005900FM-15+0015GMTT V0201801N00561003301CN0112001N1+01301+99999999999ADDAG12999GA1021+001509999GA2031+003309059GA3051+006009059REMMET013111020 NOSIG?EQDQ01+000000PRSWM2
0092601010999991984010811304+35717-005900FM-15+0015GMTT V0201801N00561003301CN0112001N1+01301+01101999999ADDAG12000GA1021+001809079GA2031+003309089GA3051+004809059MA1102001999999EQDQ01+000000PRSWM2
0159601010999991984010812004+35717-005900SY-MT+0015GMTT V0201801N00721009001CN0100001N1+01521+01321101991ADDAA106002091AG13000AY121061GA1031+000309089GF107991071081004501999999MD1810081+9999MW1011REMSYN017333   83811 86620MET017YC020 TYQE QPQOV?EQDQ01+000000PRSWM2
0091601010999991984010813004+35717-005900FM-15+0015GMTT V0201801N00721006001CN0112001N1+01501+01101999999ADDAG12999GA1041+003309089GA2051+006009059MA1101901999999REMMET006NOSIG?EQDQ01+000000PRSWM2
0091601010999991984010813304+35717-005900FM-15+0015GMTT V0209999999999006001CN0112001N1+01501+01101999999ADDAG12999GA1041+003009089GA2061+006009059MA1101801999999REMMET006NOSIG?EQDQ01+000000PRSWM2
0091601010999991984010814004+35717-005900FM-15+0015GMTT V0201801N00821006001CN0112001N1+01501+01101999999ADDAG12999GA1041+003009089GA2051+006009059MA1101801999999REMMET006NOSIG?EQDQ01+000000PRSWM2
0179601010999991984010815004+35717-005900SY-MT+0015GMTT V0201801N00721006001CN0112001N1+01501+01301101641ADDAA106000091AG14000AY101031GA1031+003009089GA2051+006009059GF107991061081004501999999MA1101591999999MD1810351+9999MW1021REMSYN017333   83810 85620MET006NOSIG?EQDQ01+000000PRSWM2
0091601010999991984010816304+35717-005900FM-15+0015GMTT V0201601N00611006001CN0112001N1+99999+99999999999ADDAG12999GA1041+003009089GA2061+006009059MA1101491999999REMMET006NOSIG?EQDQ01+000000PRSWM2
0091601010999991984010817004+35717-005900FM-15+0015GMTT V0201601N00611006001CN0112001N1+01401+01301999999ADDAG12999GA1031+003009089GA2061+006009059MA1101491999999REMMET006NOSIG?EQDQ01+000000PRSWM2
0167601010999991984010818004+35717-005900SY-MT+0015GMTT V0201601N00511006001CN0080001N1+01301+01201101521ADDAA199002091AG12002AY161061GA1031+003009089GA2061+006009059GF107991061081004501081999KA1120M+01571MA1101491999999MD1810121+9999MW1211REMSYN023333   10157 83810 86620
0063601010999991984010818304+35717-005900FM-15+0015GMTT V0201601N00511006001CN0080001N1+01301+01201999999ADDAG12999GA1031+003009089GA2061+006009059MA1101491999999MW1211
0090601010999991984010819004+35717-005900FM-15+0015GMTT V0201601N00511006001CN0112001N1+01301+01201999999ADDAG12999GA1041+003009089GA2051+006009059MA1101491999999REMMET00510--?EQDQ01+000000PRSWM2
0091601010999991984010819304+35717-005900FM-15+0015GMTT V0201601N00511006001CN0112001N1+01301+01201999999ADDAG12999GA1041+003009089GA2051+006009059MA1101491999999REMMET006NOSIG?EQDQ01+000000PRSWM2
0094601010999991984010821004+35717-005900FM-15+0015GMTT V0201801N00411004801CN0080001N1+01301+01201999999ADDAG12002GA1041+003009089GA2051+004809059GA3061+024009039MA1101491999999MW1601REMMET006NOSIG?
0094601010999991984010822004+35717-005900FM-15+0015GMTT V0201601N00511004801CN0080001N1+01201+01201999999ADDAG12999GA1041+003009089GA2061+004809059GA3071+024009039MA1101491999999MW1621REMMET006NOSIG?
0094601010999991984010822304+35717-005900FM-15+0015GMTT V0201601N00511004801CN0080001N1+01201+01201999999ADDAG12999GA1041+003009089GA2061+004809059GA3071+024009039MA1101491999999MW1621REMMET006NOSIG?
0094601010999991984010823004+35717-005900FM-15+0015GMTT V0201601N00411004801CN0080001N1+01201+01201999999ADDAG12999GA1041+003009089GA2061+004809059GA3071+024009039MA1101491999999MW1621REMMET006NOSIG?
0094601010999991984010823304+35717-005900FM-15+0015GMTT V0201601N00411004801CN0080001N1+01201+01201999999ADDAG12003GA1041+003009089GA2061+004809089GA3071+024009039MA1101491999999MW1621REMMET006NOSIG?
0182601010999991984010900004+35717-005900SY-MT+0015GMTT V0201601N00511004801CN0080001N1+01201+01101101521ADDAA106007091AG12002AY161061GA1041+003009089GA2061+004809059GA3071+024009039GF108991061081004501071999MA1101491999999MD1010001+9999MW1601REMSYN023333   84810 86616 87458MET006NOSIG?
0081601010999991984010900304+35717-005900FM-15+0015GMTT V0201601N00461004801CN9999999N9+01201+01101999999ADDAG11999GA1061+004809059MA1101491999999MW1101REMMET006NOSIG?EQDQ01+000002VOVAR 
0094601010999991984010901004+35717-005900FM-15+0015GMTT V0201601N00511004801CN0080001N1+01201+01101999999ADDAG11999GA1041+003009089GA2061+004809059GA3071+024009039MA1101491999999MW1601REMMET006NOSIG?
0094601010999991984010901304+35717-005900FM-15+0015GMTT V0201601N00511004801CN0080001N1+01201+01101999999ADDAG11999GA1041+003009089GA2051+004809059GA3061+024009039MA1101491999999MW1211REMMET006NOSIG?
0094601010999991984010902004+35717-005900FM-15+0015GMTT V0201601N00511004801CN0080001N1+01201+01101999999ADDAG11999GA1041+003009089GA2051+004809059GA3061+024009039MA1101491999999MW1211REMMET006NOSIG?
0094601010999991984010902304+35717-005900FM-15+0015GMTT V0201601N00511004801CN0080001N1+01201+01101999999ADDAG12002GA1041+003009089GA2051+004809059GA3061+024009039MA1101491999999MW1211REMMET006NOSIG?
0172601010999991984010903004+35717-005900SY-MT+0015GMTT V0201601N00621004801CN0080001N1+01191+99999101501ADDAA106000091AG14002AY161031GA1031+003009089GA2051+004809059GF106991051081004501071001MA1101491999999MD1610021+9999MW1011REMMET006NOSIG?EQDQ01+027433ATOD  Q02+000000PRSWM2
0091601010999991984010903304+35717-005900FM-15+0015GMTT V0201601N00611004801CN0080001N1+01201+01101999999ADDAG12999GA1031+003009089GA2051+004809059MA1101491999999REMMET006NOSIG?EQDQ01+000000PRSWM2
0091601010999991984010904004+35717-005900FM-15+0015GMTT V0201601N00411004801CN0080001N1+01201+01101999999ADDAG12999GA1031+003009089GA2051+004809059MA1101391999999REMMET006NOSIG?EQDQ01+000000PRSWM2
0091601010999991984010904304+35717-005900FM-15+0015GMTT V0201601N00411004801CN0080001N1+01201+01101999999ADDAG12999GA1031+003009089GA2051+004809059MA1101391999999REMMET006NOSIG?EQDQ01+000000PRSWM2
0091601010999991984010905004+35717-005900FM-15+0015GMTT V0201601N00301004801CN9999999N9+99999+99999999999ADDAG12999GA1051+004809059MA1101391999999REMMET006NOSIG?EQDQ01+000002VOVAR Q02+000000PRSWM2
0091601010999991984010905304+35717-005900FM-15+0015GMTT V0201601N00301004801CN9999999N9+99999+99999999999ADDAG12000GA1051+004809059MA1101391999999REMMET006NOSIG?EQDQ01+000002VOVAR Q02+000000PRSWM2
0187601010999991984010906004+35717-005900SY-MT+0015GMTT V0201601N00511004801CN0080001N1+01221+01161101481ADDAA124010091AG12002AY161061GA1031+003009089GA2051+004809059GF106991051081004501071001KA1120N+01181MD1610021+9999MW1021REMSYN017333   20118 5616/MET01612X12 101 NOSIG?EQDQ01+000000PRSWM2
0120601010999991984010907004+35717-005900FM-15+0015GMTT V0201601N00511004801CN0080001N1+01201+01201999999ADDAG12999GA1031+003009089GA2051+004809059REMMET0501QRV       ?     :..3 18003 8000 4SC01 QPQT NOSIG?EQDQ01+000000PRSWM2
0076601010999991984010908004+35717-005900FM-15+0015GMTT V0201601N00411004801CN0080001N1+01301+01201999999ADDAG12999GA1031+003009089GA2061+004809059MA1101391999999EQDQ01+000000PRSWM2
0076601010999991984010908304+35717-005900FM-15+0015GMTT V0201601N00411004801CN0080001N1+01301+01201999999ADDAG12000GA1031+003009089GA2061+004809059MA1101391999999EQDQ01+000000PRSWM2
0201601010999991984010909004+35717-005900SY-MT+0015GMTT V0201601N00511004501CN0080001N1+01201+01201101601ADDAA106000091AG14000AY101031GA1021+001809079GA2041+004509089GA3051+007809059GF107991071081001501999999MA1101591999999MD1310121+9999MW1021REMSYN023333   82706 84815 85626MET006NOSIG?EQDQ01+000000PRSWM2
0107601010999991984010909304+35717-005900FM-15+0015GMTT V0201601N00511004501CN0080001N1+01201+01201999999ADDAG12999GA1021+001809079GA2041+004509089GA3051+007809059MA1101591999999REMMET006NOSIG?EQDQ01+000000PRSWM2
0107601010999991984010910004+35717-005900FM-15+0015GMTT V0201601N00511004501CN0080001N1+01401+01301999999ADDAG12999GA1021+001809079GA2041+004509089GA3051+007809059MA1101591999999REMMET006NOSIG?EQDQ01+000000PRSWM2
0107601010999991984010910304+35717-005900FM-15+0015GMTT V0201601N00511004501CN0112001N1+01401+01301999999ADDAG11999GA1021+001809079GA2041+004509089GA3051+007809059MA1101591999999REMMET006NOSIG?EQDQ01+000000PRSWM2
0107601010999991984010911004+35717-005900FM-15+0015GMTT V0201601N00611004501CN0080001N1+01401+01301999999ADDAG12999GA1021+001809079GA2041+004509089GA3051+007809059MA1101591999999REMMET006NOSIG?EQDQ01+000000PRSWM2
0094601010999991984010911304+35717-005900FM-15+0015GMTT V0201801N00511004501CN0050001N1+01401+01301999999ADDAG12003GA1031+001809079GA2041+004509089GA3051+006009059MA1101591999999MW1611REMMET006NOSIG?
0155601010999991984010912004+35717-005900FM-12+0015GMTT V0201601N00411004501CN0050001N9+01351+01281101701ADDAA106004091AG10005AY161061GA1031+001809079GA2041+004509089GA3061+006009059GF107991071081001501999999MD1210101+9999MW1631REMSYN023333   83706 84815 86620
0092601010999991984010912304+35717-005900FM-15+0015GMTT V0201801N00511004501CN0060001N1+01401+01301999999ADDAG12999GA1031+001809079GA2041+004509089GA3061+006009059MA1101691999999MW1211REMMET004NSG?
0092601010999991984010913004+35717-005900FM-15+0015GMTT V0203401N00511004501CN0060001N1+01401+01301999999ADDAG12999GA1031+001809079GA2041+004509089GA3061+006009059MA1101591999999MW1211REMMET004NSG?
0105601010999991984010913304+35717-005900FM-15+0015GMTT V0203401N00511004501CN0070001N1+01401+01301999999ADDAG12999GA1031+001809079GA2041+004509089GA3061+006009059MA1101591999999REMMET004NSG?EQDQ01+000000PRSWM2
0107601010999991984010914004+35717-005900FM-15+0015GMTT V0203401N00361004501CN0080001N1+01401+01301999999ADDAG12999GA1021+001809079GA2041+004509089GA3061+006009059MA1101591999999REMMET006NOSIG?EQDQ01+000000PRSWM2
0091601010999991984010914304+35717-005900FM-15+0015GMTT V0203001N00301004501CN0112001N1+01401+01301999999ADDAG12000GA1021+001809079GA2041+004509089MA1101591999999REMMET006NOSIG?EQDQ01+000000PRSWM2
0091601010999991984010915004+35717-005900FM-15+0015GMTT V0203001N00511004501CN0090001N1+01401+01201999999ADDAG12000GA1011+001809079GA2051+004509089MA1101491999999REMMET006NOSIG?EQDQ01+000000PRSWM2
0075601010999991984010916004+35717-005900FM-15+0015GMTT V0203401N00511220001CN0112001N1+01401+01101999999ADDAG12999GA1041+004509089MA1101491999999REMMET006NOSIG?EQDQ01+000000PRSWM2
0075601010999991984010916304+35717-005900FM-15+0015GMTT V0200401N00411220001CN0112001N1+01401+01101999999ADDAG12999GA1031+004509089MA1101491999999REMMET006NOSIG?EQDQ01+000000PRSWM2
0061601010999991984010917004+35717-005900FM-15+0015GMTT V0200601N002019999999N0112001N1+99999+99999999999ADDAG12999REMMET0233CUQT QRXQQ QPQT NOSIG?EQDQ01+000000PRSWM2
0176601010999991984010918004+35717-005900SY-MT+0015GMTT V0200801N00411220001CN0112001N1+01201+01001101661ADDAA106004091AG12002AY161061GA1021+004509089GF103991031081004501001001KA1120M+01441MA1101591999999MD1310101+9999MW1011REMSYN017333   10144 82815MET006NOSIG?EQDQ01+000000PRSWM2
0075601010999991984010918304+35717-005900FM-15+0015GMTT V0200801N00411220001CN0112001N1+01201+01001999999ADDAG12999GA1031+004509089MA1101591999999REMMET006NOSIG?EQDQ01+000000PRSWM2
0075601010999991984010919004+35717-005900FM-15+0015GMTT V0200801N00411220001CN0112001N1+01201+01001999999ADDAG12999GA1031+004509089MA1101691999999REMMET006NOSIG?EQDQ01+000000PRSWM2
0075601010999991984010919304+35717-005900FM-15+0015GMTT V0200801N00511004501CN0112001N1+01201+01001999999ADDAG12999GA1051+004509089MA1101691999999REMMET006NOSIG?EQDQ01+000000PRSWM2
0060601010999991984010920004+35717-005900FM-15+0015GMTT V0200801N00611004501CN0112001N1+01101+00901999999ADDAG12999GA1051+004509089MA1101691999999EQDQ01+000000PRSWM2
0060601010999991984010920304+35717-005900FM-15+0015GMTT V0200801N00611004501CN0112001N1+01101+00901999999ADDAG12000GA1051+004509089MA1101691999999EQDQ01+000000PRSWM2
0157601010999991984010921004+35717-005900SY-MT+0015GMTT V0200801N00511220001CN0112001N1+01201+00901101901ADDAA106000091AG14000AY101031GA1021+004509089GF102991021021004501001001MA1101901999999MD1310241+9999MW1021REMSYN011333   82815MET006NOSIG?EQDQ01+000000PRSWM2
0075601010999991984010921304+35717-005900FM-15+0015GMTT V0200801N00511220001CN0112001N1+01201+00901999999ADDAG12999GA1021+004509089MA1101901999999REMMET006NOSIG?EQDQ01+000000PRSWM2
0075601010999991984010922004+35717-005900FM-15+0015GMTT V0200801N00611220001CN0112001N1+01101+00901999999ADDAG12999GA1021+004509089MA1101901999999REMMET006NOSIG?EQDQ01+000000PRSWM2
0075601010999991984010922304+35717-005900FM-15+0015GMTT V0200801N00611220001CN0112001N1+01101+00901999999ADDAG12999GA1021+004509089MA1101901999999REMMET006NOSIG?EQDQ01+000000PRSWM2
0075601010999991984010923304+35717-005900FM-15+0015GMTT V0200801N00611220001CN0112001N1+01101+00801999999ADDAG12000GA1021+004509089MA1102001999999REMMET006NOSIG?EQDQ01+000000PRSWM2
0105601010999991984011000004+35717-005900FM-15+0015GMTT V0200801N00821220001CN0099001N1+01101+00801999999ADDAG12000GA1021+004809089MA1102001999999REMMET036CAVOK 9999 2CUSC016 11/08 1020 NSOG?EQDQ01+000000PRSWM2
0074601010999991984011000304+35717-005900FM-15+0015GMTT V0200801N00821220001CN0112001N1+01101+00801999999ADDAG11999GA1021+004809089MA1102001999999REMMET005NSOG?EQDQ01+000000PRSWM2
0075601010999991984011001004+35717-005900FM-15+0015GMTT V0200801N00721220001CN0112001N1+01001+00801999999ADDAG11999GA1021+004509089MA1101901999999REMMET006NOSIG?EQDQ01+000000PRSWM2
0075601010999991984011001304+35717-005900FM-15+0015GMTT V0200801N00721220001CN0112001N1+01001+00801999999ADDAG11999GA1021+004509089MA1101901999999REMMET006NOSIG?EQDQ01+000000PRSWM2
0075601010999991984011002004+35717-005900FM-15+0015GMTT V0200801N00771220001CN0112001N1+01001+00801999999ADDAG11999GA1021+004509089MA1101901999999REMMET006NOSIG?EQDQ01+000000PRSWM2
0075601010999991984011002304+35717-005900FM-15+0015GMTT V0200801N00771220001CN0112001N1+01001+00801999999ADDAG12000GA1021+004509089MA1101901999999REMMET006NOSIG?EQDQ01+000000PRSWM2
0157601010999991984011003004+35717-005900SY-MT+0015GMTT V0200801N00611220001CN0112001N1+01001+00701101991ADDAA106000091AG14000AY101031GA1021+004509089GF102991021021004501001001MA1101901999999MD1510011+9999MW1021REMSYN011333   82815MET006NOSIG?EQDQ01+000000PRSWM2
0075601010999991984011003304+35717-005900FM-15+0015GMTT V0200801N00611220001CN0112001N1+01001+00701999999ADDAG12999GA1021+004509089MA1101901999999REMMET006NOSIG?EQDQ01+000000PRSWM2
0075601010999991984011004004+35717-005900FM-15+0015GMTT V0201001N00821220001CN0112001N1+01001+00801999999ADDAG12999GA1021+004509089MA1102001999999REMMET006NOSIG?EQDQ01+000000PRSWM2
0075601010999991984011004304+35717-005900FM-15+0015GMTT V0201001N00821220001CN0112001N1+01001+00801999999ADDAG12999GA1021+004509089MA1102001999999REMMET006NOSIG?EQDQ01+000000PRSWM2
0075601010999991984011005004+35717-005900FM-15+0015GMTT V0201001N00721220001CN0112001N1+01001+00801999999ADDAG12999GA1021+004509089MA1102001999999REMMET006NOSIG?EQDQ01+000000PRSWM2
0075601010999991984011005304+35717-005900FM-15+0015GMTT V0201001N00721220001CN0112001N1+01001+00801999999ADDAG12000GA1021+004509089MA1102001999999REMMET006NOSIG?EQDQ01+000000PRSWM2
0176601010999991984011006004+35717-005900SY-MT+0015GMTT V0201001N00611220001CN0112001N1+00901+00701102031ADDAA106000091AG14000AY101061GA1021+004509089GF102991021021004501001001KA1120N+00901MA1102001999999MD1310041+9999MW1021REMSYN017333   20090 8285/MET006NOSIG?EQDQ01+000000PRSWM2
0073601010999991984011008004+35717-005900FM-15+0015GMTT V0200601N00511220001CN0112001N1+00801+00501999999ADDAG12999GA1031+004509089MA1102201999999REMMET004NSG?EQDQ01+000000PRSWM2
0075601010999991984011008304+35717-005900FM-15+0015GMTT V0200801N00511220001CN0112001N1+00801+00501999999ADDAG12000GA1031+004509089MA1102201999999REMMET006NOSIG?EQDQ01+000000PRSWM2
0157601010999991984011009004+35717-005900SY-MT+0015GMTT V0200801N00251220001CN0112001N1+00901+00601102031ADDAA106000091AG14000AY101031GA1031+004509089GF103991031021004501001001MA1102301999999MD1310271+9999MW1021REMSYN011333   83815MET006NOSIG?EQDQ01+000000PRSWM2
0075601010999991984011009304+35717-005900FM-15+0015GMTT V0200801N00251220001CN0112001N1+00901+00601999999ADDAG12999GA1031+004509089MA1102301999999REMMET006NOSIG?EQDQ01+000000PRSWM2
0075601010999991984011010004+35717-005900FM-15+0015GMTT V0200801N00611220001CN0112001N1+01201+00901999999ADDAG12999GA1031+004509089MA1102301999999REMMET006NOSIG?EQDQ01+000000PRSWM2
0060601010999991984011010304+35717-005900FM-15+0015GMTT V0201001N00921220001CN0112001N1+01201+00901999999ADDAG12999GA1031+004509089MA1102301999999EQDQ01+000000PRSWM2
0075601010999991984011011004+35717-005900FM-15+0015GMTT V0200801N00921220001CN0112001N1+01301+00801999999ADDAG12999GA1031+004509089MA1102301999999REMMET006NOSIG?EQDQ01+000000PRSWM2
0073601010999991984011011304+35717-005900FM-15+0015GMTT V0200801N01021220001CN0112001N1+01301+00801999999ADDAG12000GA1031+004509089MA1102301999999REMMET004NSG?EQDQ01+000000PRSWM2
0145601010999991984011012004+35717-005900SY-MT+0015GMTT V0200801N01021220001CN0112001N1+01301+00901102381ADDAA106000091AG14000AY101061GA1041+004509089GF104991041021004501001001MA1102301999999MD1010081+9999MW1021REMSYN011333   84815EQDQ01+000000PRSWM2
0062601010999991984011012304+35717-005900FM-15+0015GMTT V0200801N01231220001CN0112001N1+99999+99999999999ADDAG12999REMMET0244CUSCPQT QEXPO QPWE NSG?EQDQ01+000000PRSWM2
0073601010999991984011014004+35717-005900FM-15+0015GMTT V0200801N01021220001CN0112001N1+01301+00901999999ADDAG12999GA1041+004509089MA1102301999999REMMET004NSG?EQDQ01+000000PRSWM2
0073601010999991984011014304+35717-005900FM-15+0015GMTT V0200801N01131220001CN0112001N1+01301+00901999999ADDAG12000GA1041+004509089MA1102301999999REMMET004NSG?EQDQ01+000000PRSWM2
0111601010999991984011015004+35717-005900FM-12+0015GMTT V0200801N01231220001CN0150001N9+01361+00651102311ADDAA106000091AG14000AY101031GA1041+004509089GF104991041021004501001001MD1810071+9999MW1021REMSYN011333   84815
0060601010999991984011015304+35717-005900FM-15+0015GMTT V0200801N01131220001CN0112001N1+01401+00701999999ADDAG12999GA1041+000309089MA1102301999999EQDQ01+000000PRSWM2
0068601010999991984011016004+35717-005900FM-15+0015GMTT V0200801N01131220001CN0112001N1+01301+00601999999ADDAG12999GA1041+004509089MA1102301999999OC101641EQDQ01+000000PRSWM2
0068601010999991984011016304+35717-005900FM-15+0015GMTT V0200801N01021004501CN0112001N1+01301+00601999999ADDAG12999GA1051+004509089MA1102301999999OC101541EQDQ01+000000PRSWM2
0068601010999991984011017004+35717-005900FM-15+0015GMTT V0200801N01021004501CN0112001N1+01201+00601999999ADDAG12999GA1051+004509089MA1102301999999OC101541EQDQ01+000000PRSWM2
0068601010999991984011017304+35717-005900FM-15+0015GMTT V0200801N00771004501CN0112001N1+01201+00601999999ADDAG12000GA1051+004509089MA1102301999999OC101331EQDQ01+000000PRSWM2
0149601010999991984011018004+35717-005900FM-12+0015GMTT V0200801N00621220001CN0150001N9+01061+00521102431ADDAA106000091AG14000AY101061GA1031+004509089GF103991999031004501021001KA1120M+01391MD1310121+9999MW1021REMSYN017333   10139 83815EQDQ01+000002SCOTLC
0075601010999991984011019004+35717-005900FM-15+0015GMTT V0200801N00661220001CN0112001N1+01001+00501999999ADDAG12999GA1021+004809089MA1102511999999REMMET006NOSIG?EQDQ01+000000PRSWM2
0060601010999991984011020004+35717-005900FM-15+0015GMTT V0200801N00611220001CN0112001N1+00901+00401999999ADDAG12999GA1021+004809089MA1102511999999EQDQ01+000000PRSWM2
0075601010999991984011020304+35717-005900FM-15+0015GMTT V0200801N00411220001CN0112001N1+00901+00401999999ADDAG12000GA1021+004809089MA1102511999999REMMET006NOSIG?EQDQ01+000000PRSWM2
0157601010999991984011021004+35717-005900SY-MT+0015GMTT V0200801N00511220001CN0112001N1+00901+00601102581ADDAA106000091AG14000AY101031GA1011+003909059GF101991011051004501001001MA1102511999999MD1210151+9999MW1021REMSYN011333   81813MET006NOSIG?EQDQ01+000000PRSWM2
0075601010999991984011022004+35717-005900FM-15+0015GMTT V0200801N00511220001CN0112001N1+00901+00601999999ADDAG12999GA1011+003909059MA1102611999999REMMET006NOSIG?EQDQ01+000000PRSWM2
0075601010999991984011022304+35717-005900FM-15+0015GMTT V0200801N00511220001CN0112001N1+00901+00601999999ADDAG12999GA1011+003909059MA1102611999999REMMET006NOSIG?EQDQ01+000000PRSWM2
0075601010999991984011023004+35717-005900FM-15+0015GMTT V0200801N00511220001CN0112001N1+00901+00501999999ADDAG12999GA1011+003909059MA1102611999999REMMET006NOSIG?EQDQ01+000000PRSWM2
0130601010999991984011100004+35717-005900SY-MT+0015GMTT V0200801N00611220001CN0099001N1+00901+00701102631ADDAA106000091AG14000AY101061GF100991001001999999001001MA1102611999999MD1210041+9999MW1021REMMET012CAVOK NOSIG?EQDQ01+000000PRSWM2
0065601010999991984011100304+35717-005900FM-15+0015GMTT V0200801N00611999991CY0099001N1+00901+00701999999ADDAG11999MA1102611999999REMMET012CAVOK NOSIG?EQDQ01+000000PRSWM2
0065601010999991984011101004+35717-005900FM-15+0015GMTT V0200801N00611999991CY0099001N1+00801+00601999999ADDAG11999MA1102611999999REMMET012CAVOK NOSIG?EQDQ01+000000PRSWM2
0065601010999991984011101304+35717-005900FM-15+0015GMTT V0200801N00611999991CY0099001N1+00801+00601999999ADDAG11999MA1102611999999REMMET012CAVOK NOSIG?EQDQ01+000000PRSWM2
0065601010999991984011102304+35717-005900FM-15+0015GMTT V0200801N00511999991CY0099001N1+00801+00601999999ADDAG12000MA1102611999999REMMET012CAVOK NOSIG?EQDQ01+000000PRSWM2
0121601010999991984011103004+35717-005900SY-MT+0015GMTT V0201201N00511220001CN0099001N1+00801+00601102641ADDAA106000091AG14000AY101031GF100991001001999999001001MD1010011+9999MW1021REMMET018CAVOK 6026 NOSIGV?EQDQ01+000000PRSWM2
0065601010999991984011103304+35717-005900FM-15+0015GMTT V0201201N00511999991CY0099001N1+00801+00601999999ADDAG12999MA1102611999999REMMET012CAVOK NOSIG?EQDQ01+000000PRSWM2
0065601010999991984011104004+35717-005900FM-15+0015GMTT V0200801N00511999991CY0099001N1+00801+00501999999ADDAG12999MA1102611999999REMMET012CAVOK NOSIG?EQDQ01+000000PRSWM2
0065601010999991984011105004+35717-005900FM-15+0015GMTT V0201001N00511999991CY0099001N1+00801+00601999999ADDAG12999MA1102611999999REMMET012CAVOK NOSIG?EQDQ01+000000PRSWM2
0065601010999991984011105304+35717-005900FM-15+0015GMTT V0201001N00511999991CY0099001N1+00801+00601999999ADDAG12000MA1102611999999REMMET012CAVOK NOSIG?EQDQ01+000000PRSWM2
0108601010999991984011106004+35717-005900FM-12+0015GMTT V0200801N00511220001CN0100001N9+00561+00401102601ADDAA106000091AG14000AY101061GF100991001001999999001001KA1120N+00541MD1610041+9999MW1021REMSYN011333   20054
0065601010999991984011106304+35717-005900FM-15+0015GMTT V0200801N00511999991CY0099001N1+00601+00501999999ADDAG12999MA1102611999999REMMET012CAVOK NOSIG?EQDQ01+000000PRSWM2
0065601010999991984011107304+35717-005900FM-15+0015GMTT V0200801N00411999991CY0099001N1+00601+00401999999ADDAG12999MA1102611999999REMMET012CAVOK NOSIG?EQDQ01+000000PRSWM2
0075601010999991984011108004+35717-005900FM-15+0015GMTT V0200801N00361220001CN0112001N1+00601+00401999999ADDAG12999GA1021+004509089MA1102611999999REMMET006NOSIG?EQDQ01+000000PRSWM2
0075601010999991984011108304+35717-005900FM-15+0015GMTT V0200801N00361220001CN0112001N1+00601+00401999999ADDAG12000GA1021+004509089MA1102611999999REMMET006NOSIG?EQDQ01+000000PRSWM2
0111601010999991984011109004+35717-005900FM-12+0015GMTT V0200801N00411220001CN0150001N9+00861+00531102791ADDAA106000091AG14000AY101031GA1021+004509089GF102991021021004501001001MD1310191+9999MW1021REMSYN011333   82815
0060601010999991984011110004+35717-005900FM-15+0015GMTT V0200801N00611220001CN0112001N1+01101+00701999999ADDAG12999GA1021+004509089MA1102811999999EQDQ01+000000PRSWM2
0060601010999991984011111004+35717-005900FM-15+0015GMTT V0200801N00411220001CN0112001N1+01301+00801999999ADDAG12999GA1021+004509089MA1102811999999EQDQ01+000000PRSWM2
0060601010999991984011111304+35717-005900FM-15+0015GMTT V0201001N00511220001CN0112001N1+01301+00801999999ADDAG12000GA1021+004809089MA1102811999999EQDQ01+000000PRSWM2
0155601010999991984011112004+35717-005900SY-MT+0015GMTT V0201001N00511220001CN0200001N1+01381+00791999999ADDAA106000091AG14000AY101061GA1021+004809089GF102991021021004501001001MA1102811999999MD1010091+9999MW1021REMSYN011333   82816MET004NSG?EQDQ01+000000PRSWM2
0073601010999991984011112304+35717-005900FM-15+0015GMTT V0201001N00511220001CN0112001N1+01401+00801999999ADDAG12999GA1021+004809089MA1102811999999REMMET004NSG?EQDQ01+000000PRSWM2
0073601010999991984011113004+35717-005900FM-15+0015GMTT V0200601N00511220001CN0112001N1+01401+00801999999ADDAG12999GA1021+004809089MA1102811999999REMMET004NSG?EQDQ01+000000PRSWM2
0060601010999991984011114304+35717-005900FM-15+0015GMTT V0200601N00611220001CN0112001N1+01401+00801999999ADDAG12000GA1021+004809089MA1102711999999EQDQ01+000000PRSWM2
0157601010999991984011115004+35717-005900SY-MT+0015GMTT V0200601N00611220001CN0112001N1+01401+00801102701ADDAA106000091AG14000AY101031GA1011+004809059GF101991011051004501001001MA1102711999999MD1610171+9999MW1021REMSYN011333   81616MET006NOSIG?EQDQ01+000000PRSWM2
0075601010999991984011115304+35717-005900FM-15+0015GMTT V0200601N00611220001CN0112001N1+01401+00801999999ADDAG12999GA1011+004809059MA1102711999999REMMET006NOSIG?EQDQ01+000000PRSWM2
0075601010999991984011116004+35717-005900FM-15+0015GMTT V0200601N00511220001CN0112001N1+01401+00801999999ADDAG12999GA1021+004809089MA1102711999999REMMET006NOSIG?EQDQ01+000000PRSWM2
0075601010999991984011116304+35717-005900FM-15+0015GMTT V0200601N00511220001CN0112001N1+01401+00801999999ADDAG12999GA1021+004809089MA1102711999999REMMET006NOSIG?EQDQ01+000000PRSWM2
0075601010999991984011117004+35717-005900FM-15+0015GMTT V0200601N00411220001CN0112001N1+01301+00701999999ADDAG12999GA1021+004809089MA1102711999999REMMET006NOSIG?EQDQ01+000000PRSWM2
0075601010999991984011117304+35717-005900FM-15+0015GMTT V0200601N00411220001CN0112001N1+01301+00701999999ADDAG12000GA1021+004809089MA1102711999999REMMET006NOSIG?EQDQ01+000000PRSWM2
0130601010999991984011118004+35717-005900FM-12+0015GMTT V0200601N00211220001CN0200001N9+01081+00711102761ADDAA106000091AG14000AY101061GA1021+004809089GF102991021021004501001001KA1120M+01471MD1310061+9999MW1021REMSYN017333   10147 82816
0075601010999991984011119004+35717-005900FM-15+0015GMTT V0200801N00301220001CN0112001N1+01101+00701999999ADDAG12999GA1021+004809089MA1102711999999REMMET006NOSIG?EQDQ01+000000PRSWM2
0059601010999991984011119304+35717-005900FM-15+0015GMTT V0200401N00151220001CN0112001N1+01101+00701999999ADDAG12999MA1102711999999REMMET006NOSIG?EQDQ01+000000PRSWM2
0075601010999991984011120004+35717-005900FM-15+0015GMTT V0200401N00151220001CN0112001N1+01001+00601999999ADDAG12999GA1021+004809089MA1102811999999REMMET006NOSIG?EQDQ01+000000PRSWM2
0075601010999991984011120304+35717-005900FM-15+0015GMTT V0209991C00001220001CN0112001N1+01001+00601999999ADDAG12000GA1021+004809089MA1102811999999REMMET006NOSIG?EQDQ01+000000PRSWM2
0157601010999991984011121004+35717-005900SY-MT+0015GMTT V0203601N00511220001CN0150001N1+00661+00521102951ADDAA106000091AG14000AY101031GA1011+004809089GF101991011021004501001001MA1102911999999MD1310181+9999MW1021REMSYN011333   81816MET006NOSIG?EQDQ01+000000PRSWM2
0065601010999991984011122004+35717-005900FM-15+0015GMTT V0209991C00001999991CY0099001N1+00601+00401999999ADDAG12999MA1102911999999REMMET012CAVOK NOSIG?EQDQ01+000000PRSWM2
0065601010999991984011122304+35717-005900FM-15+0015GMTT V0209991C00001999991CY0099001N1+00601+00401999999ADDAG12999MA1102911999999REMMET012CAVOK NOSIG?EQDQ01+000000PRSWM2
0065601010999991984011123004+35717-005900FM-15+0015GMTT V0209991C00001999991CY0099001N1+00601+00401999999ADDAG12999MA1102911999999REMMET012CAVOK NOSIG?EQDQ01+000000PRSWM2
0065601010999991984011123304+35717-005900FM-15+0015GMTT V0209991C00001999991CY0099001N1+00601+00401999999ADDAG12000MA1102911999999REMMET012CAVOK NOSIG?EQDQ01+000000PRSWM2
0130601010999991984011200004+35717-005900SY-MT+0015GMTT V0209991C00001220001CN0100001N1+00501+00331102991ADDAA106000091AG14000AY101061GF100991001001999999001001MA1102911999999MD1310041+9999MW1021REMMET012CAVOK NOSIG?EQDQ01+000000PRSWM2
0065601010999991984011200304+35717-005900FM-15+0015GMTT V0209991C00001999991CY0099001N1+00501+00301999999ADDAG11999MA1102911999999REMMET012CAVOK NOSIG?EQDQ01+000000PRSWM2
0058601010999991984011201304+35717-005900FM-15+0015GMTT V0200801N00151999991CY0099001N1+00501+00301999999ADDAG11999MA1102911999999REMMET005CAVOKEQDQ01+000000PRSWM2
0065601010999991984011202004+35717-005900FM-15+0015GMTT V0200801N00151999991CY0099001N1+00301+00201999999ADDAG11999MA1103011999999REMMET012CAVOK NOSIG?EQDQ01+000000PRSWM2
0065601010999991984011202304+35717-005900FM-15+0015GMTT V0200801N00151999991CY0099001N1+00301+00201999999ADDAG12000MA1103011999999REMMET012CAVOK NOSIG?EQDQ01+000000PRSWM2
0130601010999991984011203004+35717-005900SY-MT+0015GMTT V0201001N00151220001CN0099001N1+00301+00301103001ADDAA106000091AG14000AY101031GF100991001001999999001001MA1103011999999MD1210011+9999MW1021REMMET012CAVOK NOSIG?EQDQ01+000000PRSWM2
0065601010999991984011203304+35717-005900FM-15+0015GMTT V0201001N00151999991CY0099001N1+00301+00301999999ADDAG12999MA1103011999999REMMET012CAVOK NOSIG?EQDQ01+000000PRSWM2
0065601010999991984011204004+35717-005900FM-15+0015GMTT V0201001N00151999991CY0099001N1+00301+00201999999ADDAG12999MA1103011999999REMMET012CAVOK NOSIG?EQDQ01+000000PRSWM2
0065601010999991984011205004+35717-005900FM-15+0015GMTT V0201001N00251999991CY0099001N1+00301+00201999999ADDAG12999MA1102911999999REMMET012CAVOK NOSIG?EQDQ01+000000PRSWM2
0108601010999991984011206004+35717-005900FM-12+0015GMTT V0201001N00151220001CN0100001N9+00281+00151102971ADDAA106000091AG14000AY101061GF100991001001999999001001KA1120N+00211MD1810031+9999MW1021REMSYN011333   20021
0065601010999991984011206304+35717-005900FM-15+0015GMTT V0201001N00151999991CY0099001N1+00301+00201999999ADDAG12999MA1102911999999REMMET012CAVOK NOSIG?EQDQ01+000000PRSWM2
0065601010999991984011207004+35717-005900FM-15+0015GMTT V0201001N00151999991CY0099001N1+00301+00101999999ADDAG12999MA1103011999999REMMET012CAVOK NOSIG?EQDQ01+000000PRSWM2
0060601010999991984011207304+35717-005900FM-15+0015GMTT V0201001N00201220001CN0112001N1+00301+00101999999ADDAG12999GA1021+006009059MA1103011999999EQDQ01+000000PRSWM2
0060601010999991984011208004+35717-005900FM-15+0015GMTT V0201001N00151220001CN0112001N1+00301+00101999999ADDAG12999GA1021+004809059MA1103011999999EQDQ01+000000PRSWM2
0060601010999991984011208304+35717-005900FM-15+0015GMTT V0201801N00151004801CN0112001N1+00301+00101999999ADDAG12000GA1051+004809059MA1103011999999EQDQ01+000000PRSWM2
0111601010999991984011209004+35717-005900FM-12+0015GMTT V0201601N00211004801CN0100001N9+00541+00401103111ADDAA106000091AG14000AY101031GA1051+004809059GF105991051051004501001001MD1310141+9999MW1021REMSYN011333   85616
0075601010999991984011210304+35717-005900FM-15+0015GMTT V0201801N00411004801CN0112001N1+01001+00701999999ADDAG12999GA1061+004809059MA1103181999999REMMET006NOSIG?EQDQ01+000000PRSWM2
0075601010999991984011211004+35717-005900FM-15+0015GMTT V0201801N00411004801CN0112001N1+01201+00801999999ADDAG12999GA1061+004809089MA1103181999999REMMET006NOSIG?EQDQ01+000000PRSWM2
0075601010999991984011211304+35717-005900FM-15+0015GMTT V0201801N00411004801CN0112001N1+01201+00801999999ADDAG12000GA1061+004809089MA1103181999999REMMET006NOSIG?EQDQ01+000000PRSWM2
0157601010999991984011212004+35717-005900SY-MT+0015GMTT V0201801N00511004801CN0150001N1+01331+00951103261ADDAA106000091AG14000AY101061GA1051+004809089GF105991051021008001001001MA1103181999999MD1010161+9999MW1021REMSYN011333   85816MET006NOSIG?EQDQ01+000000PRSWM2
0075601010999991984011212304+35717-005900FM-15+0015GMTT V0201801N00611004801CN0112001N1+01301+01001999999ADDAG12999GA1051+004809089MA1103181999999REMMET006NOSIG?EQDQ01+000000PRSWM2
0060601010999991984011213004+35717-005900FM-15+0015GMTT V0202001N00511220001CN0112001N1+01401+01001999999ADDAG12999GA1041+004809089MA1103181999999EQDQ01+000000PRSWM2
0060601010999991984011214004+35717-005900FM-15+0015GMTT V0202401N00511004801CN0112001N1+01401+01001999999ADDAG12999GA1051+004809089MA1103121999999EQDQ01+000000PRSWM2
0060601010999991984011214304+35717-005900FM-15+0015GMTT V0202401N00511004801CN0112001N1+01401+01001999999ADDAG12000GA1051+004809089MA1103121999999EQDQ01+000000PRSWM2
0145601010999991984011215004+35717-005900SY-MT+0015GMTT V0202401N00411004501CN0112001N1+01401+01101103121ADDAA106000091AG14000AY101031GA1061+004509089GF106991051021004501001021MA1103121999999MD1810141+9999MW1021REMSYN011333   86815EQDQ01+000000PRSWM2
0060601010999991984011215304+35717-005900FM-15+0015GMTT V0202001N00511004501CN0112001N1+01401+01101999999ADDAG12999GA1061+004509089MA1103121999999EQDQ01+000000PRSWM2
0091601010999991984011217304+35717-005900FM-15+0015GMTT V0202601N00511004501CN0112001N1+01301+01101999999ADDAG12000GA1061+004509089GA2031+069009009MA1103011999999REMMET006NOSIG?EQDQ01+000000PRSWM2
0198601010999991984011218004+35717-005900SY-MT+0015GMTT V0202601N00611033001CN0112001N1+01301+01101103121ADDAA106000091AG14000AY101061GA1051+033009029GA2031+069009009GF106991051021004501001021KA1120M+01441MA1103121999999MD1510001+9999MW1021REMSYN023333   10144 85815 83073MET006NOSIG?EQDQ01+000000PRSWM2
0091601010999991984011218304+35717-005900FM-15+0015GMTT V0203001N00361004501CN0112001N1+01301+01101999999ADDAG12999GA1061+004509089GA2031+069009009MA1103121999999REMMET006NOSIG?EQDQ01+000000PRSWM2
0091601010999991984011219004+35717-005900FM-15+0015GMTT V0202601N00411004501CN0112001N1+01201+01001999999ADDAG12999GA1061+004509089GA2031+069009009MA1103121999999REMMET006NOSIG?EQDQ01+000000PRSWM2
0091601010999991984011219304+35717-005900FM-15+0015GMTT V0202601N00301004501CN0112001N1+01201+01001999999ADDAG12999GA1051+004509089GA2031+069009009MA1103121999999REMMET006NOSIG?EQDQ01+000000PRSWM2
0091601010999991984011220004+35717-005900FM-15+0015GMTT V0202601N00301004501CN0112001N1+01201+01001999999ADDAG12999GA1051+004509089GA2031+069009009MA1103121999999REMMET006NOSIG?EQDQ01+000000PRSWM2
0157601010999991984011221004+35717-005900SY-MT+0015GMTT V0203001N00511004501CN0112001N1+01201+01001103161ADDAA106000091AG14000AY101031GA1051+004509089GF106991051021004501001021MA1103121999999MD1510001+9999MW1021REMSYN011333   85815MET006NOSIG?EQDQ01+000000PRSWM2
0075601010999991984011223004+35717-005900FM-15+0015GMTT V0209991C00001220001CN0112001N1+01101+00901999999ADDAG12999GA1041+004509089MA1103121999999REMMET006NOSIG?EQDQ01+000000PRSWM2
0075601010999991984011223304+35717-005900FM-15+0015GMTT V0209991C00001220001CN0112001N1+01101+00901999999ADDAG12000GA1041+004509089MA1103121999999REMMET006NOSIG?EQDQ01+000000PRSWM2
0173601010999991984011300004+35717-005900SY-MT+0015GMTT V0209991C00001220001CN0100001N1+01031+00851103281ADDAA106000091AG14000AY101061GA1021+004509089GF102991021021999999001001MA1103181999999MD1310081+9999MW1021REMSYN011333   82815MET006NOSIG?EQDQ01+000992SCOLCBQ02+000000PRSWM2
0075601010999991984011301004+35717-005900FM-15+0015GMTT V0209991C00001220001CN0112001N1+01001+00801999999ADDAG11999GA1021+004509089MA1103181999999REMMET006NOSIG?EQDQ01+000000PRSWM2
0075601010999991984011301304+35717-005900FM-15+0015GMTT V0209991C00001220001CN0112001N1+01001+00801999999ADDAG11999GA1021+004509089MA1103181999999REMMET006NOSIG?EQDQ01+000000PRSWM2
0065601010999991984011302004+35717-005900FM-15+0015GMTT V0209991C00001999991CY0099001N1+01001+00801999999ADDAG11999MA1103181999999REMMET012CAVOK NOSIG?EQDQ01+000000PRSWM2
0130601010999991984011303004+35717-005900SY-MT+0015GMTT V0209991C00001220001CN0100001N1+00791+00621103281ADDAA106000091AG14000AY101031GF100991001001999999001001MA1103181999999MD1010001+9999MW1021REMMET012CAVOK NOSIG?EQDQ01+000000PRSWM2
0065601010999991984011303304+35717-005900FM-15+0015GMTT V0209991C00001999991CY0099001N1+00801+00601999999ADDAG12999MA1103181999999REMMET012CAVOK NOSIG?EQDQ01+000000PRSWM2
0065601010999991984011304004+35717-005900FM-15+0015GMTT V0209991C00001999991CY0099001N1+00701+00601999999ADDAG12999MA1103181999999REMMET012CAVOK NOSIG?EQDQ01+000000PRSWM2
0065601010999991984011304304+35717-005900FM-15+0015GMTT V0209991C00001999991CY0099001N1+00701+00601999999ADDAG12999MA1103181999999REMMET012CAVOK NOSIG?EQDQ01+000000PRSWM2
0065601010999991984011305004+35717-005900FM-15+0015GMTT V0209991C00001999991CY0099001N1+00901+00701999999ADDAG12999MA1103181999999REMMET012CAVOK NOSIG?EQDQ01+000000PRSWM2
0065601010999991984011305304+35717-005900FM-15+0015GMTT V0209991C00001999991CY0099001N1+00901+00701999999ADDAG12000MA1103181999999REMMET012CAVOK NOSIG?EQDQ01+000000PRSWM2
0142601010999991984011306004+35717-005900SY-MT+0015GMTT V0209991C00001220001CN0100001N1+00811+00661103251ADDAA106000091AG14000AY101061GF100991001001999999001001KA1120N+00641MD1610031+9999MW1021REMSYN011333   20064MET009CAVOK 0K?EQDQ01+000000PRSWM2
0054601010999991984011307004+35717-005900FM-15+0015GMTT V0209991C00001999991CY0099001N1+00801+00701999999ADDAG12999REMMET016CAVOK 132 NOSIG?EQDQ01+000000PRSWM2
0065601010999991984011307304+35717-005900FM-15+0015GMTT V0203001N00511999991CY0099001N1+00701+00501999999ADDAG12999MA1103181999999REMMET012CAVOK NOSIG?EQDQ01+000000PRSWM2
0065601010999991984011308004+35717-005900FM-15+0015GMTT V0203001N00411999991CY0099001N1+00801+00601999999ADDAG12999MA1103181999999REMMET012CAVOK NOSIG?EQDQ01+000000PRSWM2
0075601010999991984011309004+35717-005900FM-12+0015GMTT V0203001N00311220001CN0100001N9+00851+00701103311ADDAA106000091AG14000AY101031GF100991001001999999001001MD1310061+9999MW1021
0065601010999991984011310004+35717-005900FM-15+0015GMTT V0202801N00301999991CY0099001N1+01201+01001999999ADDAG12999MA1103291999999REMMET012CAVOK NOSIG?EQDQ01+000000PRSWM2
0065601010999991984011310304+35717-005900FM-15+0015GMTT V0202801N00301999991CY0099001N1+01201+01001999999ADDAG12999MA1103291999999REMMET012CAVOK NOSIG?EQDQ01+000000PRSWM2
0065601010999991984011311004+35717-005900FM-15+0015GMTT V0202401N00301999991CY0099001N1+01401+01001999999ADDAG12999MA1103391999999REMMET012CAVOK NOSIG?EQDQ01+000000PRSWM2
0065601010999991984011311304+35717-005900FM-15+0015GMTT V0202401N00301999991CY0099001N1+01401+01001999999ADDAG12000MA1103391999999REMMET012CAVOK NOSIG?EQDQ01+000000PRSWM2
0156601010999991984011312004+35717-005900SY-MT+0015GMTT V0202401N00411220001CN0099001N1+01401+01001103441ADDAA106000091AG12000AY101061GA1021+999999079GF102991001001999999001021MA1103391999999MD1110141+9999MW1021REMSYN011333   8273/MET005CAVOKEQDQ01+000000PRSWM2
0065601010999991984011313004+35717-005900FM-15+0015GMTT V0202401N00411999991CY0099001N1+01401+01001999999ADDAG12999MA1103391999999REMMET012CAVOK NOSIG?EQDQ01+000000PRSWM2
0142601010999991984011315004+35717-005900SY-MT+0015GMTT V0202201N00301220001CN0099001N1+01401+01001103261ADDAA106000091AG14000AY101031GA1021+069009009GF102991001001999999001021MA1103181999999MW1021REMSYN011333   82073MET005CAVOKEQDQ01+000000PRSWM2
0066601010999991984011315304+35717-005900FM-15+0015GMTT V0202201N00301999991CY0099001N1+01401+01001999999ADDAG12999MA1103181999999REMMET013CAVOK NOSIGV?EQDQ01+000000PRSWM2
0065601010999991984011316004+35717-005900FM-15+0015GMTT V0202401N00411999991CY0099001N1+01401+01001999999ADDAG12999MA1103181999999REMMET012CAVOK NOSIG?EQDQ01+000000PRSWM2
0065601010999991984011316304+35717-005900FM-15+0015GMTT V0202401N00411999991CY0099001N1+01401+01001999999ADDAG12999MA1103181999999REMMET012CAVOK NOSIG?EQDQ01+000000PRSWM2
0058601010999991984011317004+35717-005900FM-15+0015GMTT V0202601N00411999991CY0099001N1+01301+01001999999ADDAG12999MA1103181999999REMMET005CAVOKEQDQ01+000000PRSWM2
0130601010999991984011318004+35717-005900FM-12+0015GMTT V0203001N00411220001CN0150001N9+01201+00931103241ADDAA106000091AG14000AY101061GA1021+069009009GF102991001001999999001021KA1120M+01481MD1510021+9999MW1021REMSYN017333   10148 82073
0065601010999991984011318304+35717-005900FM-15+0015GMTT V0203401N00201999991CY0099001N1+01201+00901999999ADDAG12999MA1103181999999REMMET012CAVOK NOSIG?EQDQ01+000000PRSWM2
0065601010999991984011319004+35717-005900FM-15+0015GMTT V0209991C00001999991CY0099001N1+01001+00801999999ADDAG12999MA1103181999999REMMET012CAVOK NOSIG?EQDQ01+000000PRSWM2
0065601010999991984011319304+35717-005900FM-15+0015GMTT V0209991C00001999991CY0099001N1+01001+00801999999ADDAG12999MA1103181999999REMMET012CAVOK NOSIG?EQDQ01+000000PRSWM2
0065601010999991984011320004+35717-005900FM-15+0015GMTT V0209991C00001999991CY0099001N1+00901+00701999999ADDAG12999MA1103181999999REMMET012CAVOK NOSIG?EQDQ01+000000PRSWM2
0065601010999991984011320304+35717-005900FM-15+0015GMTT V0209999999999999991CY0099001N1+00901+00701999999ADDAG12000MA1103181999999REMMET012CAVOK NOSIG?EQDQ01+000000PRSWM2
0075601010999991984011321004+35717-005900FM-12+0015GMTT V0209991C00001220001CN0100001N9+00801+00631103291ADDAA106000091AG14000AY101031GF100991001001999999001001MD1110051+9999MW1021
0058601010999991984011322004+35717-005900FM-15+0015GMTT V0201001N00411999991CY0099001N1+99999+99999999999ADDAG12999MA1103181999999REMMET005CAVOKEQDQ01+000000PRSWM2
0058601010999991984011322304+35717-005900FM-15+0015GMTT V0201001N00411999991CY0099001N1+99999+99999999999ADDAG12999MA1103181999999REMMET005CAVOKEQDQ01+000000PRSWM2
0058601010999991984011323004+35717-005900FM-15+0015GMTT V0209991C00001999991CY0099001N1+00701+00601999999ADDAG12999MA1103181999999REMMET005CAVOKEQDQ01+000000PRSWM2
0058601010999991984011323304+35717-005900FM-15+0015GMTT V0209991C00001999991CY0099001N1+00701+00601999999ADDAG12000MA1103181999999REMMET005CAVOKEQDQ01+000000PRSWM2
0123601010999991984011400004+35717-005900SY-MT+0015GMTT V0201001N00251220001CN0099001N1+00601+00601103281ADDAA106000091AG14000AY101061GF100991001001999999001001MA1103181999999MD1810011+9999MW1021REMMET005CAVOKEQDQ01+000000PRSWM2
0058601010999991984011400304+35717-005900FM-15+0015GMTT V0201001N00251999991CY0099001N1+00601+00601999999ADDAG11999MA1103181999999REMMET005CAVOKEQDQ01+000000PRSWM2
0058601010999991984011401004+35717-005900FM-15+0015GMTT V0201001N00201999991CY0099001N1+00601+00601999999ADDAG11999MA1103181999999REMMET005CAVOKEQDQ01+000000PRSWM2
0058601010999991984011401304+35717-005900FM-15+0015GMTT V0201001N00201999991CY0099001N1+00601+00601999999ADDAG11999MA1103181999999REMMET005CAVOKEQDQ01+000000PRSWM2
0063601010999991984011402004+35717-005900FM-15+0015GMTT V0201001N00101999991CY0099001N1+00601+00501999999ADDAG11999MA1103121999999REMMET010CAVOK NSG?EQDQ01+000000PRSWM2
0128601010999991984011403004+35717-005900SY-MT+0015GMTT V0201201N00101220001CN0099001N1+00501+00501103161ADDAA106000091AG14000AY101031GF100991001001999999001001MA1103121999999MD1610121+9999MW1021REMMET010CAVOK NSG?EQDQ01+000000PRSWM2
0063601010999991984011403304+35717-005900FM-15+0015GMTT V0201201N00101999991CY0099001N1+00501+00501999999ADDAG12999MA1103121999999REMMET010CAVOK NSG?EQDQ01+000000PRSWM2
0063601010999991984011404004+35717-005900FM-15+0015GMTT V0209991C00001999991CY0099001N1+00501+00401999999ADDAG12999MA1103121999999REMMET010CAVOK NSG?EQDQ01+000000PRSWM2
0063601010999991984011404304+35717-005900FM-15+0015GMTT V0209991C00001999991CY0099001N1+00501+00401999999ADDAG12999MA1103121999999REMMET010CAVOK NSG?EQDQ01+000000PRSWM2
0063601010999991984011405004+35717-005900FM-15+0015GMTT V0209991C00001999991CY0099001N1+00401+00401999999ADDAG12999MA1103121999999REMMET010CAVOK NSG?EQDQ01+000000PRSWM2
0063601010999991984011405304+35717-005900FM-15+0015GMTT V0209991C00001999991CY0099001N1+00401+00401999999ADDAG12000MA1103121999999REMMET010CAVOK NSG?EQDQ01+000000PRSWM2
0158601010999991984011406004+35717-005900SY-MT+0015GMTT V0209991C00001220001CN0099001N1+00401+00401103051ADDAA106000091AG14000AY101061GF100991001001999999001001KA1120N+00331MA1103011999999MD1810111+9999MW1021REMSYN011333   20033MET010CAVOK NSG?EQDQ01+000000PRSWM2
0058601010999991984011407004+35717-005900FM-15+0015GMTT V0201201N00101999991CY0099001N1+00401+00401999999ADDAG12999MA1103011999999REMMET005CAVOKEQDQ01+000000PRSWM2
0060601010999991984011408004+35717-005900FM-15+0015GMTT V0201001N00201220001CN0112001N1+00501+00401999999ADDAG12999GA1041+004509059MA1103011999999EQDQ01+000000PRSWM2
0060601010999991984011408304+35717-005900FM-15+0015GMTT V0201001N00201220001CN0112001N1+00501+00401999999ADDAG12000GA1041+004509059MA1103011999999EQDQ01+000000PRSWM2
0142601010999991984011409004+35717-005900SY-MT+0015GMTT V0201001N00101220001CN0100001N1+00601+00561103081ADDAA106000091AG14000AY101031GA1041+004509059GF104991041051004501001001MD1210031+9999MW1021REMSYN011333   84615MET00610230?EQDQ01+000000PRSWM2
0060601010999991984011409304+35717-005900FM-15+0015GMTT V0209991C00001220001CN0112001N1+00601+00601999999ADDAG12999GA1041+004509059MA1103011999999EQDQ01+000000PRSWM2
0075601010999991984011410004+35717-005900FM-15+0015GMTT V0209991C00001220001CN0112001N1+01001+00901999999ADDAG12999GA1041+004509059MA1103121999999REMMET006NOSIG?EQDQ01+000000PRSWM2
0075601010999991984011410304+35717-005900FM-15+0015GMTT V0201801N00201220001CN0112001N1+01001+00901999999ADDAG12999GA1021+004509059MA1103121999999REMMET006:,98:?EQDQ01+000000PRSWM2
0145601010999991984011412004+35717-005900SY-MT+0015GMTT V0201001N00151220001CN0100001N1+01371+01091103151ADDAA106000091AG14000AY101061GA1031+004509059GF103991031051004501001001MA1103121999999MD1110081+9999MW1021REMSYN011333   83615EQDQ01+000000PRSWM2
0060601010999991984011412304+35717-005900FM-15+0015GMTT V0201001N00151220001CN0112001N1+01401+01101999999ADDAG12999GA1031+004509059MA1103121999999EQDQ01+000000PRSWM2
0060601010999991984011413004+35717-005900FM-15+0015GMTT V0201001N00201220001CN0112001N1+01401+01101999999ADDAG12999GA1031+004509059MA1103121999999EQDQ01+000000PRSWM2
0073601010999991984011413304+35717-005900FM-15+0015GMTT V0202601N00511004801CN0112001N1+01401+01101999999ADDAG12999GA1051+004809089MA1103121999999REMMET004NSG?EQDQ01+000000PRSWM2
0075601010999991984011414004+35717-005900FM-15+0015GMTT V0202401N00411220001CN0112001N1+01401+00901999999ADDAG12999GA1041+004809089MA1103011999999REMMET006NOSIG?EQDQ01+000000PRSWM2
0075601010999991984011414304+35717-005900FM-15+0015GMTT V0202401N00411220001CN0112001N1+01401+00901999999ADDAG12000GA1031+004809089MA1103011999999REMMET006NOSIG?EQDQ01+000000PRSWM2
0157601010999991984011415004+35717-005900SY-MT+0015GMTT V0202601N01031004801CN0100001N1+01411+01011102951ADDAA106000091AG14000AY101031GA1051+004809089GF105991051021004501001001MA1102911999999MD1710201+9999MW1021REMSYN011333   85816MET006NOSIG?EQDQ01+000000PRSWM2
0091601010999991984011416304+35717-005900FM-15+0015GMTT V0203001N00611004801CN0112001N1+99999+00801999999ADDAG12999GA1061+004809089MA1102911999999REMMET006NOSIG?EQDQ01+030623ATOT  Q02+000000PRSWM2
0075601010999991984011417004+35717-005900FM-15+0015GMTT V0203001N00661004801CN0112001N1+01301+00901999999ADDAG12999GA1061+004809089MA1102911999999REMMET006NOSIG?EQDQ01+000000PRSWM2
0176601010999991984011418004+35717-005900SY-MT+0015GMTT V0203001N00721004801CN0100001N1+01301+00971102991ADDAA106000091AG14000AY101061GA1071+004809089GF107991071021008001999999KA1120M+01441MA1102911999999MD1310041+9999MW1021REMSYN017333   10144 87816MET006NOSIG?EQDQ01+000000PRSWM2
0075601010999991984011419004+35717-005900FM-15+0015GMTT V0203201N00611004801CN0112001N1+01301+01001999999ADDAG12999GA1071+004809089MA1103011999999REMMET006NOSIG?EQDQ01+000000PRSWM2
0091601010999991984011419304+35717-005900FM-15+0015GMTT V0203201N00511004801CN0112001N1+01301+99999999999ADDAG12999GA1071+004809089MA1103011999999REMMET006NOSIG?EQDQ01+027423ATOD  Q02+000000PRSWM2
0060601010999991984011420004+35717-005900FM-15+0015GMTT V0203201N00511004801CN0112001N1+01401+01001999999ADDAG12999GA1071+004809089MA1103011999999EQDQ01+000000PRSWM2
