0290601010999992011010100004+35733-005900SY-MT+0021GMTT V0202701N004110048019N0060001N1+01511+01331102161ADDAA106006191AY181061AY221061GA1041+003001999GA2071+004801999GF107991071081004501999999MA1102101999999MD1010031+9999MW1021REMSYN088AAXX  01004 60101 11456 72708 10151 20133 40216 50003 60061 70282 878// 333 83810 86816;MET064METAR GMTT 010000Z 27008KT 6000 SCT010 BKN016 15/13 Q1021 NOSIG;
0126601010999992011010100304+35733-005900FM-15+0021GMTT V0202701N004110048019N0080001N1+01501+01301999999ADDGA1071+004801999GF107991999999999999999999MA1102101999999REMMET057METAR GMTT 010030Z 27008KT 8000 BKN016 15/13 Q1021 NOSIG;
0126601010999992011010101004+35733-005900FM-15+0021GMTT V0202601N004110048019N0080001N1+01501+01301999999ADDGA1071+004801999GF107991999999999999999999MA1102101999999REMMET057METAR GMTT 010100Z 26008KT 8000 BKN016 15/13 Q1021 NOSIG;
0153601010999992011010101304+35733-005900FM-15+0021GMTT V0202501N003110048019N0021001N1+01501+01301999999ADDED128U20009GA1071+004801999GF107991999999999999999999MA1102101999999REMMET073METAR GMTT 010130Z 25006KT 2100 0700 R28/P2000U BKN016 15/13 Q1021 NOSIG;
0153601010999992011010102004+35733-005900FM-15+0021GMTT V0202601N002110048019N0024001N1+01401+01201999999ADDED128U20009GA1071+004801999GF107991999999999999999999MA1102101999999REMMET073METAR GMTT 010200Z 26004KT 2400 0700 R28/P2000U BKN016 14/12 Q1021 NOSIG;
0110601010999992011010102304+35733-005900AUTO +0021GMTT V0202601N003619999999N0034001N1+01401+01201999999ADDED128U20009MA1102101999999REMMET072METAR GMTT 010230Z AUTO 26007KT 3400NDV 0700 R28/P2000U /// 14/12 Q1021;
0184601010999992011010103004+35733-005900SY-MT+0021GMTT V0202601N004119999999N0007001N1+01461+01261102141ADDED128U20009MA1102101999999MD1810011+9999REMSYN054AAXX  01034 60101 46907 /2608 10146 20126 40214 58001;MET072METAR GMTT 010300Z AUTO 26008KT 3400NDV 0700 R28/P2000D /// 15/13 Q1021;
0110601010999992011010103304+35733-005900AUTO +0021GMTT V0202601N002619999999N0034001N1+01401+01201999999ADDED128U20009MA1102101999999REMMET072METAR GMTT 010330Z AUTO 26005KT 3400NDV 0700 R28/P2000U /// 14/12 Q1021;
0110601010999992011010104004+35733-005900AUTO +0021GMTT V0202601N003619999999N0034001N1+01501+01301999999ADDED128U20009MA1102101999999REMMET072METAR GMTT 010400Z AUTO 26007KT 3400NDV 0700 R28/P2000U /// 15/13 Q1021;
0110601010999992011010104304+35733-005900AUTO +0021GMTT V0202601N003619999999N0034001N1+01501+01301999999ADDED128U20009MA1102101999999REMMET072METAR GMTT 010430Z AUTO 26007KT 3400NDV 0750 R28/P2000N /// 15/13 Q1021;
0153601010999992011010105004+35733-005900FM-15+0021GMTT V0202501N003612200019N0035001N1+01501+01301999999ADDED128U20009GA1041+004801999GF104991999999999999999999MA1102101999999REMMET073METAR GMTT 010500Z 25007KT 3500 0700 R28/P2000D SCT016 15/13 Q1021 NOSIG;
0161601010999992011010105304+35733-005900FM-15+0021GMTT V0202401N002612200019N0035001N1+01501+01301999999ADDED128U20009GA1041+004801999GF104991999999999999999999MA1102101999999REMMET081METAR GMTT 010530Z 24005KT 190V260 3500 0700 R28/P2000U SCT016 15/13 Q1021 NOSIG;
0252601010999992011010106004+35733-005900SY-MT+0021GMTT V0202001N002612200019N0070001N1+01401+01201102151ADDAA124008991GA1041+004801999GF104991041021004501001001KA1999N+01381MA1102101999999MD1310011+9999REMSYN082AAXX  01064 60101 12457 42005 10140 20120 40215 53001 60094 84200 333 20138 84816;MET057METAR GMTT 010600Z 20005KT 7000 SCT016 14/12 Q1021 NOSIG;
0134601010999992011010106304+35733-005900FM-15+0021GMTT V0201901N003112200019N0070001N1+01401+01301999999ADDGA1041+004801999GF104991999999999999999999MA1102101999999REMMET065METAR GMTT 010630Z 19006KT 160V220 7000 SCT016 14/13 Q1021 NOSIG;
0126601010999992011010107004+35733-005900FM-15+0021GMTT V0201901N003112200019N0070001N1+01401+01201999999ADDGA1041+004801999GF104991999999999999999999MA1102101999999REMMET057METAR GMTT 010700Z 19006KT 7000 SCT016 14/12 Q1021 NOSIG;
0126601010999992011010107304+35733-005900FM-15+0021GMTT V0201901N002612200019N0070001N1+01401+01201999999ADDGA1041+004801999GF104991999999999999999999MA1102101999999REMMET057METAR GMTT 010730Z 19005KT 7000 SCT016 14/12 Q1021 NOSIG;
0134601010999992011010108004+35733-005900FM-15+0021GMTT V0202001N002110048019N0070001N1+01401+01301999999ADDGA1071+004801999GF107991999999999999999999MA1102201999999REMMET065METAR GMTT 010800Z 20004KT 170V280 7000 BKN016 14/13 Q1022 NOSIG;
0143601010999992011010108304+35733-005900FM-15+0021GMTT V0201801N001510048019N0070001N1+01401+01301999999ADDGA1071+004801999GF107991999999999999999999MA1102201999999MW1631REMMET068METAR GMTT 010830Z 18003KT 120V240 7000 RA BKN016 14/13 Q1022 NOSIG;
0292601010999992011010109004+35733-005900SY-MT+0021GMTT V0201901N002110048019N0080001N1+01451+01291102281ADDAY161031AY221031GA1041+003001999GA2071+004801999GF199999061081004501001001MA1102201999999MD1310131+9999MW1211REMSYN082AAXX  01094 60101 41458 61904 10145 20129 40228 53013 72162 86800 333 83810 85816;MET064METAR GMTT 010900Z 19004KT 8000 SCT010 BKN016 15/13 Q1022 NOSIG;EQDQ01+000062SCOTCV
0149601010999992011010109304+35733-005900FM-15+0021GMTT V0202001N004110048019N0080001N1+01501+01301999999ADDGA1041+003001999GA2071+004801999GF107991999999999999999999MA1102201999999REMMET064METAR GMTT 010930Z 20008KT 8000 SCT010 BKN016 15/13 Q1022 NOSIG;
0157601010999992011010110004+35733-005900FM-15+0021GMTT V0202201N003110048019N0080001N1+01501+01401999999ADDGA1041+003001999GA2071+004801999GF107991999999999999999999MA1102301999999REMMET072METAR GMTT 011000Z 22006KT 190V250 8000 SCT010 BKN016 15/14 Q1023 NOSIG;
0157601010999992011010110304+35733-005900FM-15+0021GMTT V0202101N003610048019N0080001N1+01701+01401999999ADDGA1041+003001999GA2071+004801999GF107991999999999999999999MA1102301999999REMMET072METAR GMTT 011030Z 21007KT 180V250 8000 SCT010 BKN016 17/14 Q1023 NOSIG;
0157601010999992011010111004+35733-005900FM-15+0021GMTT V0202501N003610048019N0080001N1+01601+01401999999ADDGA1041+003001999GA2071+004801999GF107991999999999999999999MA1102301999999REMMET072METAR GMTT 011100Z 25007KT 220V280 8000 SCT010 BKN016 16/14 Q1023 NOSIG;
0149601010999992011010111304+35733-005900FM-15+0021GMTT V0202801N004110048019N0112651N1+01701+01401999999ADDGA1041+003001999GA2071+004801999GF107991999999999999999999MA1102301999999REMMET064METAR GMTT 011130Z 28008KT 9999 SCT010 BKN016 17/14 Q1023 NOSIG;
0309601010999992011010112004+35733-005900SY-MT+0021GMTT V0202701N005710048019N0100001N1+01761+01431102301ADDAA106000591AY161061AY221061GA1021+003001999GA2071+004801999GF199999051081004501001001MA1102201999999MD1010021+9999MW1021REMSYN088AAXX  01124 60101 11460 52711 10176 20143 40230 50002 69941 70262 85800 333 82810 85816;MET064METAR GMTT 011200Z 27011KT 9999 FEW010 BKN016 18/14 Q1022 NOSIG;EQDQ01+000052SCOTCV
0157601010999992011010112304+35733-005900FM-15+0021GMTT V0202901N005110048019N0112651N1+01801+01501999999ADDGA1021+003001999GA2071+004801999GF107991999999999999999999MA1102201999999REMMET072METAR GMTT 011230Z 29010KT 270V330 9999 FEW010 BKN016 18/15 Q1022 NOSIG;
0149601010999992011010113004+35733-005900FM-15+0021GMTT V0203101N005110048019N0112651N1+01801+01401999999ADDGA1021+003001999GA2071+004801999GF107991999999999999999999MA1102201999999REMMET064METAR GMTT 011300Z 31010KT 9999 FEW010 BKN016 18/14 Q1022 NOSIG;
0149601010999992011010113304+35733-005900FM-15+0021GMTT V0203001N004610048019N0112651N1+01701+01301999999ADDGA1021+003001999GA2071+004801999GF107991999999999999999999MA1102201999999REMMET064METAR GMTT 011330Z 30009KT 9999 FEW010 BKN016 17/13 Q1022 NOSIG;
0149601010999992011010114004+35733-005900FM-15+0021GMTT V0202901N005110048019N0112651N1+01801+01401999999ADDGA1021+003001999GA2071+004801999GF107991999999999999999999MA1102101999999REMMET064METAR GMTT 011400Z 29010KT 9999 FEW010 BKN016 18/14 Q1021 NOSIG;
0152601010999992011010114304+35733-005900FM-15+0021GMTT V0202901N004610048019N0112651N1+01801+01301999999ADDGA1041+003001021GA2071+004801999GF107991999999999999999999MA1102101999999REMMET067METAR GMTT 011430Z 29009KT 9999 SCT010TCU BKN016 18/13 Q1021 NOSIG;
0267601010999992011010115004+35733-005900SY-MT+0021GMTT V0202801N004610048019N0100001N1+01741+01331102161ADDGA1041+003001021GA2071+004801999GF199999061081004501001001MA1102101999999MD1810131+9999REMSYN076AAXX  01154 60101 32460 62809 10174 20133 40216 58013 86800 333 83810 86816;MET067METAR GMTT 011500Z 28009KT 9999 SCT010TCU BKN016 17/13 Q1021 NOSIG;EQDQ01+000062SCOTCV
0152601010999992011010115304+35733-005900FM-15+0021GMTT V0202801N003610048019N0112651N1+01701+01301999999ADDGA1041+003001021GA2071+004801999GF107991999999999999999999MA1102101999999REMMET067METAR GMTT 011530Z 28007KT 9999 SCT010TCU BKN016 17/13 Q1021 NOSIG;
0152601010999992011010116004+35733-005900FM-15+0021GMTT V0202801N004610048019N0112651N1+01701+01301999999ADDGA1041+003001021GA2071+004801999GF107991999999999999999999MA1102101999999REMMET067METAR GMTT 011600Z 28009KT 9999 SCT010TCU BKN016 17/13 Q1021 NOSIG;
0152601010999992011010116304+35733-005900FM-15+0021GMTT V0202801N004610048019N0112651N1+01701+01301999999ADDGA1041+003001021GA2071+004801999GF107991999999999999999999MA1102101999999REMMET067METAR GMTT 011630Z 28009KT 9999 SCT010TCU BKN016 17/13 Q1021 NOSIG;
0152601010999992011010117004+35733-005900FM-15+0021GMTT V0202901N003610048019N0112651N1+01601+01201999999ADDGA1041+003001021GA2071+004801999GF107991999999999999999999MA1102101999999REMMET067METAR GMTT 011700Z 29007KT 9999 SCT010TCU BKN016 16/12 Q1021 NOSIG;
0152601010999992011010117304+35733-005900FM-15+0021GMTT V0202801N002610048019N0112651N1+01501+01201999999ADDGA1041+003001021GA2071+004801999GF107991999999999999999999MA1102101999999REMMET067METAR GMTT 011730Z 28005KT 9999 SCT010TCU BKN016 15/12 Q1021 NOSIG;
0303601010999992011010118004+35733-005900SY-MT+0021GMTT V0202901N003110048019N0100001N1+01451+01181102171ADDAA112000591GA1041+003001021GA2071+004801999GF199999061081004501001001KA1120M+01821MA1102101999999MD1310021+9999REMSYN088AAXX  01184 60101 12460 62906 10145 20118 40217 53002 69942 86800 333 10182 83810 86816;MET067METAR GMTT 011800Z 29006KT 9999 SCT010TCU BKN016 15/12 Q1021 NOSIG;EQDQ01+000062SCOTCV
0152601010999992011010118304+35733-005900FM-15+0021GMTT V0202901N002610048019N0112651N1+01501+01301999999ADDGA1041+003001021GA2071+004801999GF107991999999999999999999MA1102101999999REMMET067METAR GMTT 011830Z 29005KT 9999 SCT010TCU BKN016 15/13 Q1021 NOSIG;
0152601010999992011010119004+35733-005900FM-15+0021GMTT V0202801N003610048019N0112651N1+01501+01301999999ADDGA1041+003001021GA2071+004801999GF107991999999999999999999MA1102101999999REMMET067METAR GMTT 011900Z 28007KT 9999 SCT010TCU BKN016 15/13 Q1021 NOSIG;
0152601010999992011010119304+35733-005900FM-15+0021GMTT V0203301N002610048019N0112651N1+01501+01301999999ADDGA1041+003001021GA2071+004801999GF107991999999999999999999MA1102101999999REMMET067METAR GMTT 011930Z 33005KT 9999 SCT010TCU BKN016 15/13 Q1021 NOSIG;
0152601010999992011010120004+35733-005900FM-15+0021GMTT V0203001N002610048019N0112651N1+01501+01301999999ADDGA1041+003001021GA2071+004801999GF107991999999999999999999MA1102201999999REMMET067METAR GMTT 012000Z 30005KT 9999 SCT010TCU BKN016 15/13 Q1022 NOSIG;
0152601010999992011010120304+35733-005900FM-15+0021GMTT V0203001N003110048019N0112651N1+01501+01201999999ADDGA1041+003001021GA2071+004801999GF107991999999999999999999MA1102201999999REMMET067METAR GMTT 012030Z 30006KT 9999 SCT010TCU BKN016 15/12 Q1022 NOSIG;
0267601010999992011010121004+35733-005900SY-MT+0021GMTT V0203001N003110048019N0100001N1+01511+01241102211ADDGA1041+003001021GA2071+004801999GF199999061081004501001001MA1102201999999MD1110041+9999REMSYN076AAXX  01214 60101 32460 63006 10151 20124 40221 51004 86800 333 83810 86816;MET067METAR GMTT 012100Z 30006KT 9999 SCT010TCU BKN016 15/12 Q1022 NOSIG;EQDQ01+000062SCOTCV
0149601010999992011010121304+35733-005900FM-15+0021GMTT V0202901N003610060019N0080001N1+01501+01301999999ADDGA1041+003901999GA2071+006001999GF107991999999999999999999MA1102201999999REMMET064METAR GMTT 012130Z 29007KT 8000 SCT013 BKN020 15/13 Q1022 NOSIG;
0149601010999992011010122004+35733-005900FM-15+0021GMTT V0202801N003110060019N0080001N1+01501+01301999999ADDGA1041+003901999GA2071+006001999GF107991999999999999999999MA1102101999999REMMET064METAR GMTT 012200Z 28006KT 8000 SCT013 BKN020 15/13 Q1021 NOSIG;
0149601010999992011010122304+35733-005900FM-15+0021GMTT V0202801N004110060019N0080001N1+01501+01301999999ADDGA1041+003901999GA2071+006001999GF107991999999999999999999MA1102201999999REMMET064METAR GMTT 012230Z 28008KT 8000 SCT013 BKN020 15/13 Q1022 NOSIG;
0149601010999992011010123304+35733-005900FM-15+0021GMTT V0202801N004110060019N0080001N1+01501+01301999999ADDGA1041+003901999GA2071+006001999GF107991999999999999999999MA1102101999999REMMET064METAR GMTT 012330Z 28008KT 8000 SCT013 BKN020 15/13 Q1021 NOSIG;
0235601010999992011010200004+35733-005900SY-MT+0021GMTT V0202901N003110048019N0080001N1+01491+01221102161ADDGA1071+004801999GF199999061021004501001001MA1102101999999MD1810051+9999REMSYN070AAXX  02004 60101 32458 62906 10149 20122 40216 58005 86200 333 86816;MET057METAR GMTT 020000Z 29006KT 8000 BKN016 15/12 Q1021 NOSIG;EQDQ01+000062SCOTCV
0080601010999992011010203004+35733-005900FM-12+0021GMTT V0203001N003619999999N9999999N1+01511+01261102141ADDMD1810011+9999REMSYN054AAXX  02034 60101 46/// /3007 10151 20126 40214 58001;
0126601010999992011010205004+35733-005900FM-15+0021GMTT V0209999V000510048019N0080001N1+01301+01101999999ADDGA1071+004801999GF107991999999999999999999MA1102001999999REMMET057METAR GMTT 020500Z VRB01KT 8000 BKN016 13/11 Q1020 NOSIG;
0126601010999992011010205304+35733-005900FM-15+0021GMTT V0200501N001010048019N0080001N1+01301+01201999999ADDGA1071+004801999GF107991999999999999999999MA1102001999999REMMET057METAR GMTT 020530Z 05002KT 8000 BKN016 13/12 Q1020 NOSIG;
0271601010999992011010206004+35733-005900SY-MT+0021GMTT V0201501N001510048019N0080001N1+01351+01211102081ADDAA124000591GA1071+004801999GF199999061021004501001001KA1999N+01201MA1102001999999MD1510061+9999REMSYN082AAXX  02064 60101 12458 61503 10135 20121 40208 55006 69944 86200 333 20120 86816;MET057METAR GMTT 020600Z 15003KT 8000 BKN016 14/12 Q1020 NOSIG;EQDQ01+000062SCOTCV
0126601010999992011010206304+35733-005900FM-15+0021GMTT V0201101N001510048019N0080001N1+01401+01201999999ADDGA1071+004801999GF107991999999999999999999MA1102001999999REMMET057METAR GMTT 020630Z 11003KT 8000 BKN016 14/12 Q1020 NOSIG;
0126601010999992011010207004+35733-005900FM-15+0021GMTT V0201501N001010048019N0080001N1+01401+01201999999ADDGA1071+004801999GF107991999999999999999999MA1102101999999REMMET057METAR GMTT 020700Z 15002KT 8000 BKN016 14/12 Q1021 NOSIG;
0149601010999992011010207304+35733-005900FM-15+0021GMTT V0209999V000510048019N0080001N1+01401+01201999999ADDGA1041+003901999GA2071+004801999GF107991999999999999999999MA1102101999999REMMET064METAR GMTT 020730Z VRB01KT 8000 SCT013 BKN016 14/12 Q1021 NOSIG;
0149601010999992011010208004+35733-005900FM-15+0021GMTT V0209999V001010048019N0112651N1+01401+01201999999ADDGA1041+003901999GA2071+004801999GF107991999999999999999999MA1102101999999REMMET064METAR GMTT 020800Z VRB02KT 9999 SCT013 BKN016 14/12 Q1021 NOSIG;
0152601010999992011010208304+35733-005900FM-15+0021GMTT V0209999C000010048019N0112651N1+01401+01301999999ADDGA1041+003901021GA2071+004801999GF107991999999999999999999MA1102101999999REMMET067METAR GMTT 020830Z 00000KT 9999 SCT013TCU BKN016 14/13 Q1021 NOSIG;
0248601010999992011010209004+35733-005900SY-MT+0021GMTT V0200201N000510048019N0100001N1+01421+01281102171ADDGA1041+003901021GA2071+004801999GF107991071081004501999999MA1102101999999MD1310081+9999REMSYN076AAXX  02094 60101 32460 70201 10142 20128 40217 53008 878// 333 83813 86816;MET067METAR GMTT 020900Z VRB01KT 9999 SCT013TCU BKN016 14/13 Q1021 NOSIG;
0152601010999992011010209304+35733-005900FM-15+0021GMTT V0209999V000510048019N0112651N1+01401+01301999999ADDGA1041+003901021GA2071+004801999GF107991999999999999999999MA1102201999999REMMET067METAR GMTT 020930Z VRB01KT 9999 SCT013TCU BKN016 14/13 Q1022 NOSIG;
0152601010999992011010210004+35733-005900FM-15+0021GMTT V0201901N001010048019N0112651N1+01401+01301999999ADDGA1041+003901021GA2071+004801999GF107991999999999999999999MA1102201999999REMMET067METAR GMTT 021000Z 19002KT 9999 SCT013TCU BKN016 14/13 Q1022 NOSIG;
0152601010999992011010211004+35733-005900FM-15+0021GMTT V0209999V001010048019N0112651N1+01501+01301999999ADDGA1041+003901021GA2071+004801999GF107991999999999999999999MA1102201999999REMMET067METAR GMTT 021100Z VRB02KT 9999 SCT013TCU BKN016 15/13 Q1022 NOSIG;
0160601010999992011010211304+35733-005900FM-15+0021GMTT V0203001N002110048019N0112651N1+01601+01301999999ADDGA1041+003901021GA2071+004801999GF107991999999999999999999MA1102201999999REMMET075METAR GMTT 021130Z 30004KT 270V350 9999 SCT013TCU BKN016 16/13 Q1022 NOSIG;
0256601010999992011010212004+35733-005900SY-MT+0021GMTT V0203201N003110048019N0100001N1+01611+01281102241ADDGA1041+003901021GA2071+004801999GF107991071081004501999999MA1102201999999MD1010061+9999REMSYN076AAXX  02124 60101 32460 73206 10161 20128 40224 50006 878// 333 83813 86816;MET075METAR GMTT 021200Z 32006KT 290V350 9999 SCT013TCU BKN016 16/13 Q1022 NOSIG;
0160601010999992011010212304+35733-005900FM-15+0021GMTT V0203101N004110048019N0112651N1+01701+01301999999ADDGA1041+003901021GA2071+004801999GF107991999999999999999999MA1102101999999REMMET075METAR GMTT 021230Z 31008KT 280V340 9999 SCT013TCU BKN016 17/13 Q1021 NOSIG;
0152601010999992011010213004+35733-005900FM-15+0021GMTT V0203401N004110048019N0112651N1+01701+01301999999ADDGA1041+003901021GA2071+004801999GF107991999999999999999999MA1102101999999REMMET067METAR GMTT 021300Z 34008KT 9999 SCT013TCU BKN016 17/13 Q1021 NOSIG;
0160601010999992011010213304+35733-005900FM-15+0021GMTT V0203301N003610048019N0112651N1+01601+01301999999ADDGA1041+003901021GA2071+004801999GF107991999999999999999999MA1102101999999REMMET075METAR GMTT 021330Z 33007KT 290V350 9999 SCT013TCU BKN016 16/13 Q1021 NOSIG;
0152601010999992011010214004+35733-005900FM-15+0021GMTT V0203401N004110048019N0112651N1+01601+01301999999ADDGA1041+003901021GA2071+004801999GF107991999999999999999999MA1102001999999REMMET067METAR GMTT 021400Z 34008KT 9999 SCT013TCU BKN016 16/13 Q1020 NOSIG;
0160601010999992011010214304+35733-005900FM-15+0021GMTT V0203301N003110048019N0112651N1+01601+01301999999ADDGA1041+003901021GA2071+004801999GF107991999999999999999999MA1102001999999REMMET075METAR GMTT 021430Z 33006KT 300V360 9999 SCT013TCU BKN016 16/13 Q1020 NOSIG;
0248601010999992011010215004+35733-005900SY-MT+0021GMTT V0203301N003610048019N0100001N1+01651+01341102071ADDGA1041+003901021GA2071+004801999GF107991071081004501999999MA1102001999999MD1810151+9999REMSYN076AAXX  02154 60101 32460 73307 10165 20134 40207 58015 878// 333 83813 86816;MET067METAR GMTT 021500Z 33007KT 9999 SCT013TCU BKN016 17/13 Q1020 NOSIG;
0152601010999992011010215304+35733-005900FM-15+0021GMTT V0203201N004110048019N0112651N1+01701+01301999999ADDGA1041+003901021GA2071+004801999GF107991999999999999999999MA1102001999999REMMET067METAR GMTT 021530Z 32008KT 9999 SCT013TCU BKN016 17/13 Q1020 NOSIG;
0134601010999992011010216004+35733-005900FM-15+0021GMTT V0203101N003110048019N0112651N1+01601+01301999999ADDGA1071+004801999GF107991999999999999999999MA1102001999999REMMET065METAR GMTT 021600Z 31006KT 280V340 9999 BKN016 16/13 Q1020 NOSIG;
0134601010999992011010216304+35733-005900FM-15+0021GMTT V0203201N003110048019N0112651N1+01601+01201999999ADDGA1071+004801999GF107991999999999999999999MA1102101999999REMMET065METAR GMTT 021630Z 32006KT 290V350 9999 BKN016 16/12 Q1021 NOSIG;
0149601010999992011010217004+35733-005900FM-15+0021GMTT V0203101N002610600019N0112651N1+01501+01201999999ADDGA1041+004801999GA2071+060001999GF107991999999999999999999MA1102101999999REMMET064METAR GMTT 021700Z 31005KT 9999 SCT016 BKN200 15/12 Q1021 NOSIG;
0149601010999992011010217304+35733-005900FM-15+0021GMTT V0203001N002110600019N0112651N1+01401+01101999999ADDGA1041+004801999GA2071+060001999GF107991999999999999999999MA1102101999999REMMET064METAR GMTT 021730Z 30004KT 9999 SCT016 BKN200 14/11 Q1021 NOSIG;
0316601010999992011010218004+35733-005900SY-MT+0021GMTT V0203101N002110600019N0100001N1+01371+01141102161ADDAA112000091GA1041+004801999GA2071+060001999GF199999031081004501001021KA1120M+01731MA1102101999999MD1110091+9999REMSYN088AAXX  02184 60101 12460 63104 10137 20114 40216 51009 69922 83802 333 10173 83816 85070;MET064METAR GMTT 021800Z 31004KT 9999 SCT016 BKN200 14/11 Q1021 NOSIG;EQDQ01+000062SCOTCVQ02  00002PRCP12
0149601010999992011010218304+35733-005900FM-15+0021GMTT V0203301N001510600019N0080001N1+01301+01101999999ADDGA1041+004801999GA2071+060001999GF107991999999999999999999MA1102101999999REMMET064METAR GMTT 021830Z 33003KT 8000 SCT016 BKN200 13/11 Q1021 NOSIG;
0149601010999992011010219004+35733-005900FM-15+0021GMTT V0203401N001510600019N0080001N1+01201+01001999999ADDGA1041+004801999GA2071+060001999GF107991999999999999999999MA1102101999999REMMET064METAR GMTT 021900Z 34003KT 8000 SCT016 BKN200 12/10 Q1021 NOSIG;
0149601010999992011010219304+35733-005900FM-15+0021GMTT V0209999C000010600019N0080001N1+01101+00901999999ADDGA1041+004801999GA2071+060001999GF107991999999999999999999MA1102101999999REMMET064METAR GMTT 021930Z 00000KT 8000 SCT016 BKN200 11/09 Q1021 NOSIG;
0149601010999992011010220004+35733-005900FM-15+0021GMTT V0200901N001010600019N0080001N1+01101+00901999999ADDGA1041+004801999GA2071+060001999GF107991999999999999999999MA1102101999999REMMET064METAR GMTT 022000Z 09002KT 8000 SCT016 BKN200 11/09 Q1021 NOSIG;
0157601010999992011010220304+35733-005900FM-15+0021GMTT V0200901N001510600019N0080001N1+01101+00901999999ADDGA1041+004801999GA2071+060001999GF107991999999999999999999MA1102101999999REMMET072METAR GMTT 022030Z 09003KT 050V120 8000 SCT016 BKN200 11/09 Q1021 NOSIG;
0245601010999992011010221004+35733-005900SY-MT+0021GMTT V0209999C000010600019N0080001N1+01051+00911102231ADDGA1041+004801999GA2071+060001999GF199999031081004501001021MA1102201999999MD1310071+9999REMSYN076AAXX  02214 60101 32458 60000 10105 20091 40223 53007 83802 333 83816 85070;MET064METAR GMTT 022100Z 00000KT 8000 SCT016 BKN200 11/09 Q1022 NOSIG;
0149601010999992011010221304+35733-005900FM-15+0021GMTT V0200901N001510600019N0080001N1+01001+00801999999ADDGA1041+004801999GA2071+060001999GF107991999999999999999999MA1102201999999REMMET064METAR GMTT 022130Z 09003KT 8000 SCT016 BKN200 10/08 Q1022 NOSIG;
0149601010999992011010222004+35733-005900FM-15+0021GMTT V0209999V000510600019N0080001N1+01001+00901999999ADDGA1041+004801999GA2071+060001999GF107991999999999999999999MA1102201999999REMMET064METAR GMTT 022200Z VRB01KT 8000 SCT016 BKN200 10/09 Q1022 NOSIG;
0149601010999992011010222304+35733-005900FM-15+0021GMTT V0200901N001510600019N0080001N1+01001+00901999999ADDGA1041+004801999GA2071+060001999GF107991999999999999999999MA1102201999999REMMET064METAR GMTT 022230Z 09003KT 8000 SCT016 BKN200 10/09 Q1022 NOSIG;
0149601010999992011010223004+35733-005900FM-15+0021GMTT V0209999C000010600019N0080001N1+01001+00901999999ADDGA1041+004801999GA2071+060001999GF107991999999999999999999MA1102201999999REMMET064METAR GMTT 022300Z 00000KT 8000 SCT016 BKN200 10/09 Q1022 NOSIG;
0149601010999992011010223304+35733-005900FM-15+0021GMTT V0200801N001510600019N0080001N1+01001+00901999999ADDGA1041+004801999GA2071+060001999GF107991999999999999999999MA1102201999999REMMET064METAR GMTT 022330Z 08003KT 8000 SCT016 BKN200 10/09 Q1022 NOSIG;
0264601010999992011010300004+35733-005900SY-MT+0021GMTT V0201001N003110600019N0080001N1+00971+00861102201ADDGA1041+004801999GA2071+060001999GF199999031021004501001021MA1102101999999MD1610031+9999REMSYN076AAXX  03004 60101 32458 61006 10097 20086 40220 56003 83202 333 83816 85070;MET064METAR GMTT 030000Z 10006KT 8000 SCT016 BKN200 10/09 Q1021 NOSIG;EQDQ01+000062SCOTCV
0149601010999992011010300304+35733-005900FM-15+0021GMTT V0201001N002110600019N0080001N1+01001+00901999999ADDGA1041+004801999GA2071+060001999GF107991999999999999999999MA1102101999999REMMET064METAR GMTT 030030Z 10004KT 8000 SCT016 BKN200 10/09 Q1021 NOSIG;
0149601010999992011010301004+35733-005900FM-15+0021GMTT V0209999V000510600019N0080001N1+01001+00901999999ADDGA1041+004801999GA2071+060001999GF107991999999999999999999MA1102101999999REMMET064METAR GMTT 030100Z VRB01KT 8000 SCT016 BKN200 10/09 Q1021 NOSIG;
0176601010999992011010301304+35733-005900FM-15+0021GMTT V0201101N002110600019N0040001N1+01001+00901999999ADDED128U20009GA1041+004801999GA2071+060001999GF107991999999999999999999MA1102001999999REMMET080METAR GMTT 030130Z 11004KT 4000 0800 R28/P2000D SCT016 BKN200 10/09 Q1020 NOSIG;
0184601010999992011010302004+35733-005900FM-15+0021GMTT V0201001N001510600019N0033001N1+01001+00801999999ADDED128U20009GA1041+004801999GA2071+060001999GF107991999999999999999999MA1102001999999REMMET088METAR GMTT 030200Z 10003KT 330V130 3300 0800 R28/P2000U SCT016 BKN200 10/08 Q1020 NOSIG;
0176601010999992011010302304+35733-005900FM-15+0021GMTT V0209999V000510600019N0039001N1+01001+00901999999ADDED128U20009GA1041+004801999GA2071+060001999GF107991999999999999999999MA1102101999999REMMET080METAR GMTT 030230Z VRB01KT 3900 0800 R28/P2000D SCT016 BKN200 10/09 Q1021 NOSIG;
0184601010999992011010303004+35733-005900SY-MT+0021GMTT V0200901N002119999999N0008001N1+01041+00931102131ADDED128U20009MA1102101999999MD1810071+9999REMSYN054AAXX  03034 60101 46908 /0904 10104 20093 40213 58007;MET072METAR GMTT 030300Z AUTO 09004KT 3900NDV 0800 R28/P2000U /// 10/09 Q1021;
0110601010999992011010303304+35733-005900AUTO +0021GMTT V0209999V000519999999N0040001N1+01001+00901999999ADDED128U20009MA1102001999999REMMET072METAR GMTT 030330Z AUTO VRB01KT 4000NDV 0800 R28/P2000D /// 10/09 Q1020;
0110601010999992011010304004+35733-005900AUTO +0021GMTT V0209999V001019999999N0038001N1+00901+00801999999ADDED128U20009MA1102001999999REMMET072METAR GMTT 030400Z AUTO VRB02KT 3800NDV 0800 R28/P2000N /// 09/08 Q1020;
0110601010999992011010304304+35733-005900AUTO +0021GMTT V0209999V001019999999N0038001N1+00901+00801999999ADDED128U20009MA1102001999999REMMET072METAR GMTT 030430Z AUTO VRB02KT 3800NDV 0800 R28/P2000D /// 09/08 Q1020;
0157601010999992011010305004+35733-005900FM-15+0021GMTT V0201001N001510600019N0080001N1+00901+00801999999ADDGA1041+004801999GA2071+060001999GF107991999999999999999999MA1102001999999REMMET072METAR GMTT 030500Z 10003KT 070V130 8000 SCT016 BKN200 09/08 Q1020 NOSIG;
0149601010999992011010305304+35733-005900FM-15+0021GMTT V0201101N001510600019N0080001N1+00901+00801999999ADDGA1041+004801999GA2071+060001999GF107991999999999999999999MA1102001999999REMMET064METAR GMTT 030530Z 11003KT 8000 SCT016 BKN200 09/08 Q1020 NOSIG;
0300601010999992011010306004+35733-005900SY-MT+0021GMTT V0200901N001010600019N0080001N1+00831+00721102061ADDAA124000591GA1041+004801999GA2071+060001999GF199999031021004501001001KA1999N+00831MA1102001999999MD1810071+9999REMSYN088AAXX  03064 60101 12458 60902 10083 20072 40206 58007 69944 83200 333 20083 83816 85070;MET064METAR GMTT 030600Z VRB02KT 8000 SCT016 BKN200 08/07 Q1020 NOSIG;EQDQ01+000062SCOTCV
0149601010999992011010306304+35733-005900FM-15+0021GMTT V0209999V001010600019N0080001N1+00801+00701999999ADDGA1041+004801999GA2071+060001999GF107991999999999999999999MA1102001999999REMMET064METAR GMTT 030630Z VRB02KT 8000 SCT016 BKN200 08/07 Q1020 NOSIG;
0149601010999992011010307004+35733-005900FM-15+0021GMTT V0209999V001010600019N0080001N1+00901+00801999999ADDGA1041+004801999GA2071+060001999GF107991999999999999999999MA1102001999999REMMET064METAR GMTT 030700Z VRB02KT 8000 SCT016 BKN200 09/08 Q1020 NOSIG;
0149601010999992011010307304+35733-005900FM-15+0021GMTT V0209999C000010600019N0080001N1+00901+00801999999ADDGA1041+004801999GA2071+060001999GF107991999999999999999999MA1102001999999REMMET064METAR GMTT 030730Z 00000KT 8000 SCT016 BKN200 09/08 Q1020 NOSIG;
0149601010999992011010308004+35733-005900FM-15+0021GMTT V0200801N001010600019N0080001N1+00901+00801999999ADDGA1041+004801999GA2071+060001999GF107991999999999999999999MA1102001999999REMMET064METAR GMTT 030800Z 08002KT 8000 SCT016 BKN200 09/08 Q1020 NOSIG;
0149601010999992011010308304+35733-005900FM-15+0021GMTT V0201001N001010600019N0080001N1+00901+00901999999ADDGA1041+004801999GA2071+060001999GF107991999999999999999999MA1102101999999REMMET064METAR GMTT 030830Z 10002KT 8000 SCT016 BKN200 09/09 Q1021 NOSIG;
0144601010999992011010309004+35733-005900FM-12+0021GMTT V0201101N002119999999N0080001N1+01081+00991102161ADDGA1031+004801081GF106991031021004501001001MD1310101+9999REMSYN076AAXX  03094 60101 32458 61104 10108 20099 40216 53010 83200 333 83816 85070;
0149601010999992011010309304+35733-005900FM-15+0021GMTT V0209999V001010600019N0080001N1+01201+01101999999ADDGA1041+004801999GA2071+060001999GF107991999999999999999999MA1102101999999REMMET064METAR GMTT 030930Z VRB02KT 8000 SCT016 BKN200 12/11 Q1021 NOSIG;
0157601010999992011010310004+35733-005900FM-15+0021GMTT V0201101N001510600019N0080001N1+01201+01101999999ADDGA1041+004801999GA2071+060001999GF107991999999999999999999MA1102201999999REMMET072METAR GMTT 031000Z 11003KT 070V140 8000 SCT016 BKN200 12/11 Q1022 NOSIG;
0149601010999992011010310304+35733-005900FM-15+0021GMTT V0201101N001510600019N0080001N1+01401+01301999999ADDGA1041+004801999GA2071+060001999GF107991999999999999999999MA1102201999999REMMET064METAR GMTT 031030Z 11003KT 8000 SCT016 BKN200 14/13 Q1022 NOSIG;
0180601010999992011010311004+35733-005900FM-15+0021GMTT V0201301N00151030001CN0080001N1+01501+01301999999ADDGA1041+004801999GA2041+030001999GA3071+060001999GF107991999999999999999999MA1102201999999REMMET079METAR GMTT 031100Z 13003KT 080V180 8000 SCT016 SCT100 BKN200 15/13 Q1022 NOSIG;
0274601010999992011010312004+35733-005900SY-MT+0021GMTT V0202001N000510300019N0080001N1+01551+01191102181ADDGA1041+004801999GA2041+030001999GA3071+060001999GF107991031021004501031021MA1102101999999MD1010041+9999REMSYN082AAXX  03124 60101 32458 72001 10155 20119 40218 50004 83232 333 83816 84360 85070;MET071METAR GMTT 031200Z VRB01KT 8000 SCT016 SCT100 BKN200 16/12 Q1021 NOSIG;
0172601010999992011010312304+35733-005900FM-15+0021GMTT V0209999V00101030001CN0080001N1+01601+01301999999ADDGA1041+004801999GA2041+030001999GA3071+060001999GF107991999999999999999999MA1102101999999REMMET071METAR GMTT 031230Z VRB02KT 8000 SCT016 SCT100 BKN200 16/13 Q1021 NOSIG;
0180601010999992011010313004+35733-005900FM-15+0021GMTT V0202801N00151030001CN0080001N1+01601+01201999999ADDGA1041+004801999GA2041+030001999GA3071+060001999GF107991999999999999999999MA1102101999999REMMET079METAR GMTT 031300Z 28003KT 250V310 8000 SCT016 SCT100 BKN200 16/12 Q1021 NOSIG;
0172601010999992011010313304+35733-005900FM-15+0021GMTT V0202701N00261030001CN0080001N1+01601+01201999999ADDGA1041+004801999GA2041+030001999GA3071+060001999GF107991999999999999999999MA1102001999999REMMET071METAR GMTT 031330Z 27005KT 8000 SCT016 SCT100 BKN200 16/12 Q1020 NOSIG;
0172601010999992011010314004+35733-005900FM-15+0021GMTT V0202701N00311030001CN0080001N1+01601+01201999999ADDGA1041+004801999GA2041+030001999GA3071+060001999GF107991999999999999999999MA1102001999999REMMET071METAR GMTT 031400Z 27006KT 8000 SCT016 SCT100 BKN200 16/12 Q1020 NOSIG;
0149601010999992011010314304+35733-005900FM-15+0021GMTT V0202701N003110300019N0080001N1+01601+01301999999ADDGA1041+004801999GA2071+030001999GF107991999999999999999999MA1102001999999REMMET064METAR GMTT 031430Z 27006KT 8000 SCT016 BKN100 16/13 Q1020 NOSIG;
0253601010999992011010315004+35733-005900SY-MT+0021GMTT V0202601N002110300019N0080001N1+01601+01241102071ADDGA1041+004801999GA2071+030001999GF107991031021004501031999MA1102001999999MD1610101+9999REMSYN076AAXX  03154 60101 32458 72604 10160 20124 40207 56010 8323/ 333 83816 86360;MET072METAR GMTT 031500Z 26004KT 220V280 8000 SCT016 BKN100 16/12 Q1020 NOSIG;
0149601010999992011010315304+35733-005900FM-15+0021GMTT V0209999V001012200019N0080001N1+01701+01301999999ADDGA1041+004801999GA2041+030001999GF104991999999999999999999MA1102001999999REMMET064METAR GMTT 031530Z VRB02KT 8000 SCT016 SCT100 17/13 Q1020 NOSIG;
0157601010999992011010316004+35733-005900FM-15+0021GMTT V0203101N001512200019N0080001N1+01701+01201999999ADDGA1041+004801999GA2041+030001999GF104991999999999999999999MA1102001999999REMMET072METAR GMTT 031600Z 31003KT 270V350 8000 SCT016 SCT100 17/12 Q1020 NOSIG;
0149601010999992011010316304+35733-005900FM-15+0021GMTT V0203101N002110300019N0080001N1+01601+01201999999ADDGA1041+004801999GA2071+030001999GF107991999999999999999999MA1102101999999REMMET064METAR GMTT 031630Z 31004KT 8000 SCT016 BKN100 16/12 Q1021 NOSIG;
0149601010999992011010317004+35733-005900FM-15+0021GMTT V0200101N002112200019N0080001N1+01501+01201999999ADDGA1041+004801999GA2041+030001999GF104991999999999999999999MA1102101999999REMMET064METAR GMTT 031700Z 01004KT 8000 SCT016 SCT100 15/12 Q1021 NOSIG;
0149601010999992011010317304+35733-005900FM-15+0021GMTT V0200101N001512200019N0080001N1+01301+01101999999ADDGA1041+004801999GA2041+060001999GF104991999999999999999999MA1102101999999REMMET064METAR GMTT 031730Z 01003KT 8000 SCT016 SCT200 13/11 Q1021 NOSIG;
0264601010999992011010318004+35733-005900SY-MT+0021GMTT V0203501N001510600019N0080001N1+01161+00971102161ADDGA1041+004801999GA2041+060001999GF106991031021004501031021KA1120M+01781MA1102101999999MD1210081+9999REMSYN082AAXX  03184 60101 32458 63503 10116 20097 40216 52008 83232 333 10178 83816 84070;MET064METAR GMTT 031800Z 35003KT 8000 SCT016 SCT200 12/10 Q1021 NOSIG;
0149601010999992011010318304+35733-005900FM-15+0021GMTT V0200601N001512200019N0080001N1+01101+00901999999ADDGA1041+004801999GA2041+060001999GF104991999999999999999999MA1102101999999REMMET064METAR GMTT 031830Z 06003KT 8000 SCT016 SCT200 11/09 Q1021 NOSIG;
0149601010999992011010319004+35733-005900FM-15+0021GMTT V0200401N001512200019N0080001N1+01001+00901999999ADDGA1041+004801999GA2041+060001999GF104991999999999999999999MA1102101999999REMMET064METAR GMTT 031900Z 04003KT 8000 SCT016 SCT200 10/09 Q1021 NOSIG;
0149601010999992011010319304+35733-005900FM-15+0021GMTT V0201001N001012200019N0080001N1+01001+00901999999ADDGA1041+004801999GA2041+060001999GF104991999999999999999999MA1102101999999REMMET064METAR GMTT 031930Z 10002KT 8000 SCT016 SCT200 10/09 Q1021 NOSIG;
0149601010999992011010320004+35733-005900FM-15+0021GMTT V0200701N001512200019N0080001N1+01001+00901999999ADDGA1041+004801999GA2041+060001999GF104991999999999999999999MA1102101999999REMMET064METAR GMTT 032000Z 07003KT 8000 SCT016 SCT200 10/09 Q1021 NOSIG;
0149601010999992011010320304+35733-005900FM-15+0021GMTT V0200901N001512200019N0080001N1+01001+00901999999ADDGA1041+004801999GA2041+060001999GF104991999999999999999999MA1102101999999REMMET064METAR GMTT 032030Z 09003KT 8000 SCT016 SCT200 10/09 Q1021 NOSIG;
0245601010999992011010321004+35733-005900SY-MT+0021GMTT V0200501N001010600019N0080001N1+00941+00821102201ADDGA1041+004801999GA2041+060001999GF105991031021004501001021MA1102101999999MD1310031+9999REMSYN076AAXX  03214 60101 32458 50502 10094 20082 40220 53003 83202 333 83816 84070;MET064METAR GMTT 032100Z VRB02KT 8000 SCT016 SCT200 09/08 Q1021 NOSIG;
0149601010999992011010321304+35733-005900FM-15+0021GMTT V0200601N002612200019N0080001N1+01001+00901999999ADDGA1041+004801999GA2041+060001999GF104991999999999999999999MA1102101999999REMMET064METAR GMTT 032130Z 06005KT 8000 SCT016 SCT200 10/09 Q1021 NOSIG;
0149601010999992011010322004+35733-005900FM-15+0021GMTT V0209999C000012200019N0080001N1+00901+00801999999ADDGA1041+004801999GA2041+060001999GF104991999999999999999999MA1102201999999REMMET064METAR GMTT 032200Z 00000KT 8000 SCT016 SCT200 09/08 Q1022 NOSIG;
0149601010999992011010322304+35733-005900FM-15+0021GMTT V0209999V000512200019N0080001N1+00901+00801999999ADDGA1041+004801999GA2041+060001999GF104991999999999999999999MA1102201999999REMMET064METAR GMTT 032230Z VRB01KT 8000 SCT016 SCT200 09/08 Q1022 NOSIG;
0149601010999992011010323004+35733-005900FM-15+0021GMTT V0200701N001512200019N0080001N1+00801+00701999999ADDGA1041+004801999GA2041+060001999GF104991999999999999999999MA1102201999999REMMET064METAR GMTT 032300Z 07003KT 8000 SCT016 SCT200 08/07 Q1022 NOSIG;
0149601010999992011010323304+35733-005900FM-15+0021GMTT V0209999C000012200019N0080001N1+00801+00701999999ADDGA1041+004801999GA2041+060001999GF104991999999999999999999MA1102201999999REMMET064METAR GMTT 032330Z 00000KT 8000 SCT016 SCT200 08/07 Q1022 NOSIG;
0253601010999992011010400004+35733-005900SY-MT+0021GMTT V0200901N001512200019N0080001N1+00841+00731102221ADDGA1041+004801999GA2041+060001999GF105991031021004501001021MA1102201999999MD1310061+9999REMSYN076AAXX  04004 60101 32458 50903 10084 20073 40222 53006 83202 333 83816 84070;MET072METAR GMTT 040000Z 09003KT 040V130 8000 SCT016 SCT200 08/07 Q1022 NOSIG;
0149601010999992011010400304+35733-005900FM-15+0021GMTT V0209999V001012200019N0080001N1+00801+00701999999ADDGA1041+004801999GA2041+060001999GF104991999999999999999999MA1102101999999REMMET064METAR GMTT 040030Z VRB02KT 8000 SCT016 SCT200 08/07 Q1021 NOSIG;
0149601010999992011010401004+35733-005900FM-15+0021GMTT V0200801N001012200019N0080001N1+00801+00701999999ADDGA1041+004801999GA2041+060001999GF104991999999999999999999MA1102101999999REMMET064METAR GMTT 040100Z 08002KT 8000 SCT016 SCT200 08/07 Q1021 NOSIG;
0176601010999992011010401304+35733-005900FM-15+0021GMTT V0209999C000012200019N0040001N1+00901+00801999999ADDED128U20009GA1041+004801999GA2041+060001999GF104991999999999999999999MA1102101999999REMMET080METAR GMTT 040130Z 00000KT 4000 0900 R28/P2000D SCT016 SCT200 09/08 Q1021 NOSIG;
0176601010999992011010402004+35733-005900FM-15+0021GMTT V0200901N003612200019N0043001N1+01001+00901999999ADDED128U20009GA1041+004801999GA2041+060001999GF104991999999999999999999MA1102001999999REMMET080METAR GMTT 040200Z 09007KT 4300 0900 R28/P2000D SCT016 SCT200 10/09 Q1020 NOSIG;
0110601010999992011010402304+35733-005900AUTO +0021GMTT V0200201N001019999999N0037001N1+00901+00801999999ADDED128U20009MA1102001999999REMMET072METAR GMTT 040230Z AUTO 02002KT 3700NDV 0800 R28/P2000D /// 09/08 Q1020;
0184601010999992011010403004+35733-005900SY-MT+0021GMTT V0209999C000019999999N0008001N1+00821+00701102091ADDED128U20009MA1102001999999MD1810131+9999REMSYN054AAXX  04034 60101 46908 /0000 10082 20070 40209 58013;MET072METAR GMTT 040300Z AUTO 00000KT 3200NDV 0800 R28/P2000U /// 08/07 Q1020;
0176601010999992011010403304+35733-005900FM-15+0021GMTT V0209999V001012200019N0044001N1+00901+00801999999ADDED128U20009GA1041+004801999GA2041+060001999GF104991999999999999999999MA1102001999999REMMET080METAR GMTT 040330Z VRB02KT 4400 0900 R28/P2000U SCT016 SCT200 09/08 Q1020 NOSIG;
0176601010999992011010404004+35733-005900FM-15+0021GMTT V0209999V001012200019N0050001N1+00801+00701999999ADDED128U20009GA1041+004801999GA2041+060001999GF104991999999999999999999MA1102001999999REMMET080METAR GMTT 040400Z VRB02KT 5000 0900 R28/P2000U SCT016 SCT200 08/07 Q1020 NOSIG;
0110601010999992011010404304+35733-005900AUTO +0021GMTT V0209999V001019999999N0050001N1+00801+00701999999ADDED128U20009MA1102001999999REMMET072METAR GMTT 040430Z AUTO VRB02KT 5000NDV 1000 R28/P2000D /// 08/07 Q1020;
0110601010999992011010405004+35733-005900AUTO +0021GMTT V0201301N000519999999N0048001N1+00801+00701999999ADDED128U20009MA1102001999999REMMET072METAR GMTT 040500Z AUTO 13001KT 4800NDV 0900 R28/P2000D /// 08/07 Q1020;
0110601010999992011010405304+35733-005900AUTO +0021GMTT V0209999V001019999999N0040001N1+00801+00701999999ADDED128U20009MA1102001999999REMMET072METAR GMTT 040530Z AUTO VRB02KT 4000NDV 1000 R28/P2000N /// 08/07 Q1020;
0323601010999992011010406004+35733-005900SY-MT+0021GMTT V0201101N001012200019N0080001N1+00731+00621102071ADDAA124000091AY161061AY221061GA1041+004801999GF199999031021004501001001KA1999N+00731MA1102001999999MD1810011+9999MW1021REMSYN088AAXX  04064 60101 11458 31102 10073 20062 40207 58001 69924 70262 83200 333 20073 83816;MET065METAR GMTT 040600Z 10003KT 070V140 8000 SCT016 07/06 Q1020 NOSIG;EQDQ01+000032SCOTCVQ02  00002PRCP24
0126601010999992011010406304+35733-005900FM-15+0021GMTT V0200801N001012200019N0080001N1+00801+00701999999ADDGA1041+004801999GF104991999999999999999999MA1102001999999REMMET057METAR GMTT 040630Z 08002KT 8000 SCT016 08/07 Q1020 NOSIG;
0126601010999992011010407004+35733-005900FM-15+0021GMTT V0201101N002612200019N0080001N1+00801+00701999999ADDGA1041+004801999GF104991999999999999999999MA1102001999999REMMET057METAR GMTT 040700Z 11005KT 8000 SCT016 08/07 Q1020 NOSIG;
0149601010999992011010407304+35733-005900FM-15+0021GMTT V0201001N002110600019N0080001N1+00801+00701999999ADDGA1041+004801999GA2071+060001999GF107991999999999999999999MA1102001999999REMMET064METAR GMTT 040730Z 10004KT 8000 SCT016 BKN200 08/07 Q1020 NOSIG;
0149601010999992011010408004+35733-005900FM-15+0021GMTT V0201001N003110600019N0080001N1+00801+00701999999ADDGA1041+004801999GA2071+060001999GF107991999999999999999999MA1102001999999REMMET064METAR GMTT 040800Z 10006KT 8000 SCT016 BKN200 08/07 Q1020 NOSIG;
0149601010999992011010408304+35733-005900FM-15+0021GMTT V0200901N002610600019N0080001N1+00901+00801999999ADDGA1041+004801999GA2071+060001999GF107991999999999999999999MA1102001999999REMMET064METAR GMTT 040830Z 09005KT 8000 SCT016 BKN200 09/08 Q1020 NOSIG;
0274601010999992011010409004+35733-005900SY-MT+0021GMTT V0201001N003110300019N0080001N1+00981+00841102071ADDGA1041+004801999GA2041+030001999GA3071+060001999GF107991031021004501031021MA1102001999999MD1510011+9999REMSYN082AAXX  04094 60101 32458 71006 10098 20084 40207 55001 83232 333 83816 83360 86070;MET071METAR GMTT 040900Z 10006KT 8000 SCT016 SCT100 BKN200 10/08 Q1020 NOSIG;
0149601010999992011010409304+35733-005900FM-15+0021GMTT V0200901N002110300019N0080001N1+01101+00901999999ADDGA1041+004801999GA2071+030001999GF107991999999999999999999MA1102001999999REMMET064METAR GMTT 040930Z 09004KT 8000 SCT016 BKN100 11/09 Q1020 NOSIG;
0149601010999992011010410004+35733-005900FM-15+0021GMTT V0209999V001010300019N0080001N1+01201+01001999999ADDGA1041+004801999GA2071+030001999GF107991999999999999999999MA1102101999999REMMET064METAR GMTT 041000Z VRB02KT 8000 SCT016 BKN100 12/10 Q1021 NOSIG;
0157601010999992011010410304+35733-005900FM-15+0021GMTT V0200901N001510300019N0080001N1+01401+01001999999ADDGA1041+004801999GA2071+030001999GF107991999999999999999999MA1102101999999REMMET072METAR GMTT 041030Z 09003KT 060V120 8000 SCT016 BKN100 14/10 Q1021 NOSIG;
0149601010999992011010411004+35733-005900FM-15+0021GMTT V0209999V000512200019N0080001N1+01601+01101999999ADDGA1021+004801999GA2041+030001999GF104991999999999999999999MA1102001999999REMMET064METAR GMTT 041100Z VRB01KT 8000 FEW016 SCT100 16/11 Q1020 NOSIG;
0149601010999992011010411304+35733-005900FM-15+0021GMTT V0209999C000010300019N0080001N1+01801+01001999999ADDGA1021+004801999GA2071+030001999GF107991999999999999999999MA1102001999999REMMET064METAR GMTT 041130Z 00000KT 8000 FEW016 BKN100 18/10 Q1020 NOSIG;
0264601010999992011010412004+35733-005900SY-MT+0021GMTT V0201401N001010300019N0100001N1+01861+00941102031ADDGA1021+004801999GA2071+030001999GF199999021021004501031001MA1102001999999MD1810031+9999REMSYN076AAXX  04124 60101 32460 61402 10186 20094 40203 58003 82230 333 82816 85360;MET064METAR GMTT 041200Z VRB02KT 9999 FEW016 BKN100 19/09 Q1020 NOSIG;EQDQ01+000062SCOTCV
0149601010999992011010412304+35733-005900FM-15+0021GMTT V0209999V001010300019N0112651N1+01801+00901999999ADDGA1021+004801999GA2071+030001999GF107991999999999999999999MA1101901999999REMMET064METAR GMTT 041230Z VRB02KT 9999 FEW016 BKN100 18/09 Q1019 NOSIG;
0149601010999992011010413004+35733-005900FM-15+0021GMTT V0209999V000512200019N0112651N1+01801+00901999999ADDGA1021+004801999GA2041+060001999GF104991999999999999999999MA1101901999999REMMET064METAR GMTT 041300Z VRB01KT 9999 FEW016 SCT200 18/09 Q1019 NOSIG;
0157601010999992011010413304+35733-005900FM-15+0021GMTT V0203301N001512200019N0112651N1+01801+01101999999ADDGA1021+004801999GA2041+060001999GF104991999999999999999999MA1101801999999REMMET072METAR GMTT 041330Z 33003KT 270V020 9999 FEW016 SCT200 18/11 Q1018 NOSIG;
0149601010999992011010414004+35733-005900FM-15+0021GMTT V0203401N003112200019N0112651N1+01701+01101999999ADDGA1021+004801999GA2041+060001999GF104991999999999999999999MA1101801999999REMMET064METAR GMTT 041400Z 34006KT 9999 FEW016 SCT200 17/11 Q1018 NOSIG;
0157601010999992011010414304+35733-005900FM-15+0021GMTT V0203401N002112200019N0112651N1+01801+01201999999ADDGA1021+004801999GA2041+060001999GF104991999999999999999999MA1101801999999REMMET072METAR GMTT 041430Z 34004KT 300V360 9999 FEW016 SCT200 18/12 Q1018 NOSIG;
0245601010999992011010415004+35733-005900SY-MT+0021GMTT V0203201N001012200019N0100001N1+01811+01251101851ADDGA1021+004801999GA2041+060001999GF104991021021004501001021MA1101801999999MD1810181+9999REMSYN076AAXX  04154 60101 42460 43202 10181 20125 40185 58018 82202 333 82816 83070;MET064METAR GMTT 041500Z VRB02KT 9999 FEW016 SCT200 18/13 Q1018 NOSIG;
0149601010999992011010415304+35733-005900FM-15+0021GMTT V0209999V001012200019N0112651N1+01801+01201999999ADDGA1021+004801999GA2041+060001999GF104991999999999999999999MA1101801999999REMMET064METAR GMTT 041530Z VRB02KT 9999 FEW016 SCT200 18/12 Q1018 NOSIG;
0149601010999992011010416004+35733-005900FM-15+0021GMTT V0200601N001012200019N0112651N1+01801+01101999999ADDGA1021+004801999GA2041+060001999GF104991999999999999999999MA1101801999999REMMET064METAR GMTT 041600Z 06002KT 9999 FEW016 SCT200 18/11 Q1018 NOSIG;
0149601010999992011010416304+35733-005900FM-15+0021GMTT V0209999V001012200019N0112651N1+01801+01201999999ADDGA1021+004801999GA2041+060001999GF104991999999999999999999MA1101801999999REMMET064METAR GMTT 041630Z VRB02KT 9999 FEW016 SCT200 18/12 Q1018 NOSIG;
0149601010999992011010417004+35733-005900FM-15+0021GMTT V0201101N002112200019N0112651N1+01601+01101999999ADDGA1021+004801999GA2041+060001999GF104991999999999999999999MA1101801999999REMMET064METAR GMTT 041700Z 11004KT 9999 FEW016 SCT200 16/11 Q1018 NOSIG;
0229601010999992011010418004+35733-005900SY-MT+0021GMTT V0200501N001512200019N0100001N1+01181+00861101871ADDGA1041+060001001GF104991001001999999001021KA1120M+01921MA1101801999999MD1310011+9999REMSYN076AAXX  04184 60101 32960 40503 10118 20086 40187 53001 80002 333 10192 84070;MET051METAR GMTT 041800Z 05003KT CAVOK 12/09 Q1018 NOSIG;
0086601010999992011010418304+35733-005900FM-15+0021GMTT V0200801N001519999999Y0099001N1+01101+00901999999ADDMA1101801999999REMMET059METAR GMTT 041830Z 08003KT 030V110 CAVOK 11/09 Q1018 NOSIG;
0078601010999992011010419004+35733-005900FM-15+0021GMTT V0201101N000519999999Y0099001N1+01101+00801999999ADDMA1101801999999REMMET051METAR GMTT 041900Z 11001KT CAVOK 11/08 Q1018 NOSIG;
0078601010999992011010419304+35733-005900FM-15+0021GMTT V0200901N000519999999Y0099001N1+01001+00801999999ADDMA1101801999999REMMET051METAR GMTT 041930Z 09001KT CAVOK 10/08 Q1018 NOSIG;
0078601010999992011010420004+35733-005900FM-15+0021GMTT V0201101N002119999999Y0099001N1+01001+00901999999ADDMA1101801999999REMMET051METAR GMTT 042000Z 11004KT CAVOK 10/09 Q1018 NOSIG;
0126601010999992011010420304+35733-005900FM-15+0021GMTT V0201101N002112200019N0080001N1+01001+00901999999ADDGF100991999999999999999999MA1101801999999REMMET054METAR GMTT 042030Z 11004KT 8000 NSC 10/09 Q1018 NOSIG;EQDQ01    003SCCGA1
0203601010999992011010421004+35733-005900SY-MT+0021GMTT V0201001N002112200019N0080001N1+01021+00861101871ADDGF104991001001999999001021MA1101801999999MD1010021+9999REMSYN076AAXX  04214 60101 42958 41004 10102 20086 40187 50002 80002 92049 333 84070;MET054METAR GMTT 042100Z 10004KT 8000 NSC 10/09 Q1018 NOSIG;
0126601010999992011010421304+35733-005900FM-15+0021GMTT V0201001N003112200019N0080001N1+01101+00901999999ADDGF100991999999999999999999MA1101801999999REMMET054METAR GMTT 042130Z 10006KT 8000 NSC 11/09 Q1018 NOSIG;EQDQ01    003SCCGA1
0126601010999992011010422004+35733-005900FM-15+0021GMTT V0201001N003112200019N0080001N1+01101+00901999999ADDGF100991999999999999999999MA1101801999999REMMET054METAR GMTT 042200Z 10006KT 8000 NSC 11/09 Q1018 NOSIG;EQDQ01    003SCCGA1
0126601010999992011010422304+35733-005900FM-15+0021GMTT V0200901N002612200019N0080001N1+01101+01001999999ADDGF100991999999999999999999MA1101801999999REMMET054METAR GMTT 042230Z 09005KT 8000 NSC 11/10 Q1018 NOSIG;EQDQ01    003SCCGA1
0126601010999992011010423004+35733-005900FM-15+0021GMTT V0209999V001012200019N0080001N1+01101+00901999999ADDGF100991999999999999999999MA1101801999999REMMET054METAR GMTT 042300Z VRB02KT 8000 NSC 11/09 Q1018 NOSIG;EQDQ01    003SCCGA1
0126601010999992011010423304+35733-005900FM-15+0021GMTT V0200901N001012200019N0080001N1+01001+00801999999ADDGF100991999999999999999999MA1101801999999REMMET054METAR GMTT 042330Z 09002KT 8000 NSC 10/08 Q1018 NOSIG;EQDQ01    003SCCGA1
0197601010999992011010500004+35733-005900SY-MT+0021GMTT V0200901N001012200019N0080001N1+00981+00841101871ADDGF104991001001999999001021MA1101801999999MD1410001+9999REMSYN070AAXX  05004 60101 32958 40902 10098 20084 40187 54000 80002 333 84070;MET054METAR GMTT 050000Z VRB02KT 8000 NSC 10/08 Q1018 NOSIG;
0153601010999992011010502304+35733-005900FM-15+0021GMTT V0209999V001012200019N0070001N1+00801+00701999999ADDED128U20009GF100991999999999999999999MA1101691999999REMMET070METAR GMTT 050230Z VRB02KT 7000 1100 R28/P2000D NSC 08/07 Q1017 NOSIG;EQDQ01    003SCCGA1
0232601010999992011010503004+35733-005900SY-MT+0021GMTT V0201001N001512200019N0011001N1+00881+00761101771ADDED128U20009GF104991001001999999001021MA1101691999999MD1810091+9999REMSYN070AAXX  05034 60101 45911 41003 10088 20076 40177 58009 80002 333 84070;MET078METAR GMTT 050300Z 10003KT 040V120 4400 1100 R28/P2000U NSC 09/08 Q1017 NOSIG;
0110601010999992011010503304+35733-005900AUTO +0021GMTT V0209999V001019999999N0060001N1+00801+00701999999ADDED128U20009MA1101691999999REMMET072METAR GMTT 050330Z AUTO VRB02KT 6000NDV 1100 R28/P2000U /// 08/07 Q1017;
0110601010999992011010504004+35733-005900AUTO +0021GMTT V0209999V000519999999N0080001N1+01001+00901999999ADDED128U20009MA1101691999999REMMET072METAR GMTT 050400Z AUTO VRB01KT 8000NDV 1000 R28/P2000U /// 10/09 Q1017;
0118601010999992011010504304+35733-005900AUTO +0021GMTT V0201901N003619999999N0060001N1+01401+01001999999ADDED128U20009MA1101691999999REMMET080METAR GMTT 050430Z AUTO 19007KT 150V220 6000NDV 1100 R28/P2000U /// 14/10 Q1017;
0149601010999992011010505004+35733-005900FM-15+0021GMTT V0202001N003612200019N0080001N1+01301+00901999999ADDGA1021+004801999GA2041+060001999GF104991999999999999999999MA1101691999999REMMET064METAR GMTT 050500Z 20007KT 8000 FEW016 SCT200 13/09 Q1017 NOSIG;
0149601010999992011010505304+35733-005900FM-15+0021GMTT V0201901N004612200019N0080001N1+01401+01001999999ADDGA1041+004801999GA2041+060001999GF104991999999999999999999MA1101691999999REMMET064METAR GMTT 050530Z 19009KT 8000 SCT016 SCT200 14/10 Q1017 NOSIG;
0264601010999992011010506004+35733-005900SY-MT+0021GMTT V0201901N004110600019N0080001N1+01381+00951101731ADDGA1041+004801999GA2041+060001999GF105991031051004501001021KA1999N+00791MA1101691999999MD1610031+9999REMSYN082AAXX  05064 60101 32458 51908 10138 20095 40173 56003 83502 333 20079 83616 84070;MET064METAR GMTT 050600Z 19008KT 8000 SCT016 SCT200 14/09 Q1017 NOSIG;
0149601010999992011010506304+35733-005900FM-15+0021GMTT V0201901N003612200019N0080001N1+01401+01001999999ADDGA1041+004801999GA2041+060001999GF104991999999999999999999MA1101691999999REMMET064METAR GMTT 050630Z 19007KT 8000 SCT016 SCT200 14/10 Q1017 NOSIG;
0149601010999992011010507004+35733-005900FM-15+0021GMTT V0201901N004112200019N0080001N1+01401+00901999999ADDGA1041+004801999GA2041+060001999GF104991999999999999999999MA1101691999999REMMET064METAR GMTT 050700Z 19008KT 8000 SCT016 SCT200 14/09 Q1017 NOSIG;
0149601010999992011010507304+35733-005900FM-15+0021GMTT V0201901N005110600019N0080001N1+01401+00901999999ADDGA1041+004801999GA2071+060001999GF107991999999999999999999MA1101691999999REMMET064METAR GMTT 050730Z 19010KT 8000 SCT016 BKN200 14/09 Q1017 NOSIG;
0149601010999992011010508004+35733-005900FM-15+0021GMTT V0201801N005110600019N0080001N1+01401+00901999999ADDGA1041+004801999GA2071+060001999GF107991999999999999999999MA1101691999999REMMET064METAR GMTT 050800Z 18010KT 8000 SCT016 BKN200 14/09 Q1017 NOSIG;
0149601010999992011010508304+35733-005900FM-15+0021GMTT V0201901N005710600019N0080001N1+01401+00901999999ADDGA1041+004801999GA2071+060001999GF107991999999999999999999MA1101801999999REMMET064METAR GMTT 050830Z 19011KT 8000 SCT016 BKN200 14/09 Q1018 NOSIG;
0224601010999992011010509004+35733-005900SY-MT+0021GMTT V0201901N005710048019N0080001N1+01461+00961101841ADDGA1071+004801999GF107991071021004501999999MA1101801999999MD1310091+9999REMSYN070AAXX  05094 60101 42458 71911 10146 20096 40184 53009 872// 333 87816;MET065METAR GMTT 050900Z 19011KT 150V210 8000 BKN016 15/10 Q1018 NOSIG;
0126601010999992011010509304+35733-005900FM-15+0021GMTT V0201901N005110048019N0080001N1+01501+01001999999ADDGA1071+004801999GF107991999999999999999999MA1101801999999REMMET057METAR GMTT 050930Z 19010KT 8000 BKN016 15/10 Q1018 NOSIG;
0126601010999992011010510004+35733-005900FM-15+0021GMTT V0201901N005110048019N0080001N1+01601+01101999999ADDGA1071+004801999GF107991999999999999999999MA1101801999999REMMET057METAR GMTT 051000Z 19010KT 8000 BKN016 16/11 Q1018 NOSIG;
0126601010999992011010510304+35733-005900FM-15+0021GMTT V0201901N006210048019N0080001N1+01601+01101999999ADDGA1071+004801999GF107991999999999999999999MA1101801999999REMMET057METAR GMTT 051030Z 19012KT 8000 BKN016 16/11 Q1018 NOSIG;
0126601010999992011010511004+35733-005900FM-15+0021GMTT V0202001N005710048019N0080001N1+01701+01201999999ADDGA1071+004801999GF107991999999999999999999MA1101901999999REMMET057METAR GMTT 051100Z 20011KT 8000 BKN016 17/12 Q1019 NOSIG;
0126601010999992011010511304+35733-005900FM-15+0021GMTT V0202001N006710048019N0080001N1+01701+01201999999ADDGA1071+004801999GF107991999999999999999999MA1101901999999REMMET057METAR GMTT 051130Z 20013KT 8000 BKN016 17/12 Q1019 NOSIG;
0216601010999992011010512004+35733-005900SY-MT+0021GMTT V0202001N006710048019N0080001N1+01701+01291101891ADDGA1071+004801999GF107991071021004501999999MA1101801999999MD1010041+9999REMSYN070AAXX  05124 60101 32458 72013 10170 20129 40189 50004 872// 333 87816;MET057METAR GMTT 051200Z 20013KT 8000 BKN016 17/13 Q1018 NOSIG;
0126601010999992011010513004+35733-005900FM-15+0021GMTT V0202001N007210048019N0080001N1+01701+01301999999ADDGA1071+004801999GF107991999999999999999999MA1101801999999REMMET057METAR GMTT 051300Z 20014KT 8000 BKN016 17/13 Q1018 NOSIG;
0126601010999992011010513304+35733-005900FM-15+0021GMTT V0202201N004610048019N0080001N1+01801+01401999999ADDGA1071+004801999GF107991999999999999999999MA1101691999999REMMET057METAR GMTT 051330Z 22009KT 8000 BKN016 18/14 Q1017 NOSIG;
0126601010999992011010514004+35733-005900FM-15+0021GMTT V0202201N005710048019N0080001N1+01801+01401999999ADDGA1071+004801999GF107991999999999999999999MA1101691999999REMMET057METAR GMTT 051400Z 22011KT 8000 BKN016 18/14 Q1017 NOSIG;
0126601010999992011010514304+35733-005900FM-15+0021GMTT V0202101N006710048019N0080001N1+01801+01401999999ADDGA1071+004801999GF107991999999999999999999MA1101691999999REMMET057METAR GMTT 051430Z 21013KT 8000 BKN016 18/14 Q1017 NOSIG;
0216601010999992011010515004+35733-005900SY-MT+0021GMTT V0202201N005710048019N0080001N1+01781+01351101761ADDGA1071+004801999GF107991071021004501999999MA1101691999999MD1810141+9999REMSYN070AAXX  05154 60101 32458 72211 10178 20135 40176 58014 872// 333 87816;MET057METAR GMTT 051500Z 22011KT 8000 BKN016 18/14 Q1017 NOSIG;
0126601010999992011010515304+35733-005900FM-15+0021GMTT V0202201N006710048019N0080001N1+01801+01401999999ADDGA1071+004801999GF107991999999999999999999MA1101691999999REMMET057METAR GMTT 051530Z 22013KT 8000 BKN016 18/14 Q1017 NOSIG;
0126601010999992011010516004+35733-005900FM-15+0021GMTT V0202201N007212200019N0080001N1+01801+01401999999ADDGA1041+004801999GF104991999999999999999999MA1101691999999REMMET057METAR GMTT 051600Z 22014KT 8000 SCT016 18/14 Q1017 NOSIG;
0126601010999992011010516304+35733-005900FM-15+0021GMTT V0202201N007212200019N0080001N1+01801+01401999999ADDGA1041+004801999GF104991999999999999999999MA1101691999999REMMET057METAR GMTT 051630Z 22014KT 8000 SCT016 18/14 Q1017 NOSIG;
0126601010999992011010517004+35733-005900FM-15+0021GMTT V0202201N005712200019N0080001N1+01701+01401999999ADDGA1041+004801999GF104991999999999999999999MA1101801999999REMMET057METAR GMTT 051700Z 22011KT 8000 SCT016 17/14 Q1018 NOSIG;
0126601010999992011010517304+35733-005900FM-15+0021GMTT V0202201N005710048019N0080001N1+01701+01401999999ADDGA1071+004801999GF107991999999999999999999MA1101801999999REMMET057METAR GMTT 051730Z 22011KT 8000 BKN016 17/14 Q1018 NOSIG;
0235601010999992011010518004+35733-005900SY-MT+0021GMTT V0202201N005710048019N0080001N1+01671+01421101851ADDGA1071+004801999GF107991071021004501999999KA1120M+01851MA1101801999999MD1310111+9999REMSYN076AAXX  05184 60101 32458 72211 10167 20142 40185 53011 872// 333 10185 87816;MET057METAR GMTT 051800Z 22011KT 8000 BKN016 17/14 Q1018 NOSIG;
0126601010999992011010518304+35733-005900FM-15+0021GMTT V0202101N005110048019N0080001N1+01701+01401999999ADDGA1071+004801999GF107991999999999999999999MA1101801999999REMMET057METAR GMTT 051830Z 21010KT 8000 BKN016 17/14 Q1018 NOSIG;
0126601010999992011010519004+35733-005900FM-15+0021GMTT V0202001N004610048019N0080001N1+01701+01401999999ADDGA1071+004801999GF107991999999999999999999MA1101801999999REMMET057METAR GMTT 051900Z 20009KT 8000 BKN016 17/14 Q1018 NOSIG;
0126601010999992011010519304+35733-005900FM-15+0021GMTT V0202001N004110048019N0080001N1+01601+01401999999ADDGA1071+004801999GF107991999999999999999999MA1101801999999REMMET057METAR GMTT 051930Z 20008KT 8000 BKN016 16/14 Q1018 NOSIG;
0126601010999992011010520004+35733-005900FM-15+0021GMTT V0202001N005110048019N0080001N1+01601+01401999999ADDGA1071+004801999GF107991999999999999999999MA1101801999999REMMET057METAR GMTT 052000Z 20010KT 8000 BKN016 16/14 Q1018 NOSIG;
0126601010999992011010520304+35733-005900FM-15+0021GMTT V0202001N006210048019N0080001N1+01601+01401999999ADDGA1071+004801999GF107991999999999999999999MA1101801999999REMMET057METAR GMTT 052030Z 20012KT 8000 BKN016 16/14 Q1018 NOSIG;
0224601010999992011010521004+35733-005900SY-MT+0021GMTT V0202201N005110048019N0080001N1+01621+01391101911ADDGA1071+004801999GF107991071021004501999999MA1101901999999MD1310061+9999REMSYN070AAXX  05214 60101 32458 72210 10162 20139 40191 53006 872// 333 87816;MET065METAR GMTT 052100Z 22010KT 190V250 8000 BKN016 16/14 Q1019 NOSIG;
0126601010999992011010521304+35733-005900FM-15+0021GMTT V0202101N004610048019N0080001N1+01601+01401999999ADDGA1071+004801999GF107991999999999999999999MA1101901999999REMMET057METAR GMTT 052130Z 21009KT 8000 BKN016 16/14 Q1019 NOSIG;
0126601010999992011010522004+35733-005900FM-15+0021GMTT V0202001N004110048019N0080001N1+01501+01301999999ADDGA1071+004801999GF107991999999999999999999MA1101901999999REMMET057METAR GMTT 052200Z 20008KT 8000 BKN016 15/13 Q1019 NOSIG;
0126601010999992011010522304+35733-005900FM-15+0021GMTT V0201901N004110048019N0080001N1+01501+01301999999ADDGA1071+004801999GF107991999999999999999999MA1101901999999REMMET057METAR GMTT 052230Z 19008KT 8000 BKN016 15/13 Q1019 NOSIG;
0126601010999992011010523004+35733-005900FM-15+0021GMTT V0201901N004110048019N0080001N1+01501+01301999999ADDGA1071+004801999GF107991999999999999999999MA1101901999999REMMET057METAR GMTT 052300Z 19008KT 8000 BKN016 15/13 Q1019 NOSIG;
0216601010999992011010600004+35733-005900SY-MT+0021GMTT V0202001N004610048019N0080001N1+01521+01321101951ADDGA1071+004801999GF107991071021004501999999MA1101901999999MD1110031+9999REMSYN070AAXX  06004 60101 32458 72009 10152 20132 40195 51003 872// 333 87816;MET057METAR GMTT 060000Z 20009KT 8000 BKN016 15/13 Q1019 NOSIG;
0126601010999992011010600304+35733-005900FM-15+0021GMTT V0201901N004110048019N0080001N1+01501+01301999999ADDGA1071+004801999GF107991999999999999999999MA1101901999999REMMET057METAR GMTT 060030Z 19008KT 8000 BKN016 15/13 Q1019 NOSIG;
0126601010999992011010601004+35733-005900FM-15+0021GMTT V0201901N004610048019N0080001N1+01501+01301999999ADDGA1071+004801999GF107991999999999999999999MA1101901999999REMMET057METAR GMTT 060100Z 19009KT 8000 BKN016 15/13 Q1019 NOSIG;
0153601010999992011010601304+35733-005900FM-15+0021GMTT V0201801N003610048019N0039001N1+01601+01301999999ADDED128U20009GA1071+004801999GF107991999999999999999999MA1101901999999REMMET073METAR GMTT 060130Z 18007KT 3900 0750 R28/P2000D BKN016 16/13 Q1019 NOSIG;
0153601010999992011010602004+35733-005900FM-15+0021GMTT V0201901N003610048019N0042001N1+01501+01301999999ADDED128U20009GA1071+004801999GF107991999999999999999999MA1101901999999REMMET073METAR GMTT 060200Z 19007KT 4200 0750 R28/P2000U BKN016 15/13 Q1019 NOSIG;
0153601010999992011010602304+35733-005900FM-15+0021GMTT V0201901N003610048019N0039001N1+01501+01201999999ADDED128U20009GA1071+004801999GF107991999999999999999999MA1101801999999REMMET073METAR GMTT 060230Z 19007KT 3900 0750 R28/P2000D BKN016 15/12 Q1018 NOSIG;
0184601010999992011010603004+35733-005900SY-MT+0021GMTT V0201901N003619999999N0007001N1+01501+01181101901ADDED128U20009MA1101801999999MD1810051+9999REMSYN054AAXX  06034 60101 46907 /1907 10150 20118 40190 58005;MET072METAR GMTT 060300Z AUTO 19007KT 4200NDV 0750 R28/P2000U /// 15/12 Q1018;
0118601010999992011010603304+35733-005900AUTO +0021GMTT V0201901N004619999999N0045001N1+01501+01201999999ADDED128U20009MA1101801999999REMMET080METAR GMTT 060330Z AUTO 19009KT 150V210 4500NDV 0750 R28/P2000U /// 15/12 Q1018;
0110601010999992011010604004+35733-005900AUTO +0021GMTT V0201901N004119999999N0044001N1+01501+01101999999ADDED128U20009MA1101801999999REMMET072METAR GMTT 060400Z AUTO 19008KT 4400NDV 0750 R28/P2000N /// 15/11 Q1018;
0110601010999992011010604304+35733-005900AUTO +0021GMTT V0201901N003619999999N0047001N1+01501+01101999999ADDED128U20009MA1101801999999REMMET072METAR GMTT 060430Z AUTO 19007KT 4700NDV 0750 R28/P2000D /// 15/11 Q1018;
0110601010999992011010605004+35733-005900AUTO +0021GMTT V0201901N003619999999N0049001N1+01501+01101999999ADDED128U20009MA1101801999999REMMET072METAR GMTT 060500Z AUTO 19007KT 4900NDV 0750 R28/P2000D /// 15/11 Q1018;
0110601010999992011010605304+35733-005900AUTO +0021GMTT V0201801N002619999999N0050001N1+01401+01001999999ADDED128U20009MA1101801999999REMMET072METAR GMTT 060530Z AUTO 18005KT 5000NDV 0750 R28/P2000D /// 14/10 Q1018;
0254601010999992011010606004+35733-005900SY-MT+0021GMTT V0201601N002110048019N0080001N1+01351+00971101821ADDGA1071+004801999GF199999061021004501001001KA1999N+01351MA1101801999999MD1810081+9999REMSYN076AAXX  06064 60101 32458 61604 10135 20097 40182 58008 86200 333 20135 86816;MET057METAR GMTT 060600Z 16004KT 8000 BKN016 14/10 Q1018 NOSIG;EQDQ01+000062SCOTCV
0126601010999992011010606304+35733-005900FM-15+0021GMTT V0209999V000510048019N0080001N1+01101+00801999999ADDGA1071+004801999GF107991999999999999999999MA1101801999999REMMET057METAR GMTT 060630Z VRB01KT 8000 BKN016 11/08 Q1018 NOSIG;
0126601010999992011010607004+35733-005900FM-15+0021GMTT V0209999V001010048019N0080001N1+01101+00801999999ADDGA1071+004801999GF107991999999999999999999MA1101801999999REMMET057METAR GMTT 060700Z VRB02KT 8000 BKN016 11/08 Q1018 NOSIG;
0126601010999992011010607304+35733-005900FM-15+0021GMTT V0201201N001512200019N0080001N1+01001+00801999999ADDGF100991999999999999999999MA1101801999999REMMET054METAR GMTT 060730Z 12003KT 8000 NSC 10/08 Q1018 NOSIG;EQDQ01    003SCCGA1
0134601010999992011010608004+35733-005900FM-15+0021GMTT V0201501N001512200019N0080001N1+01101+00901999999ADDGF100991999999999999999999MA1101801999999REMMET062METAR GMTT 060800Z 15003KT 110V190 8000 NSC 11/09 Q1018 NOSIG;EQDQ01    003SCCGA1
0126601010999992011010608304+35733-005900FM-15+0021GMTT V0209999V000512200019N0080001N1+01101+00901999999ADDGF100991999999999999999999MA1101801999999REMMET054METAR GMTT 060830Z VRB01KT 8000 NSC 11/09 Q1018 NOSIG;EQDQ01    003SCCGA1
0211601010999992011010609004+35733-005900SY-MT+0021GMTT V0202001N001512200019N0080001N1+01291+00971101911ADDGF104991001001999999001021MA1101801999999MD1310091+9999REMSYN076AAXX  06094 60101 32958 42003 10129 20097 40191 53009 80002 90849 333 84070;MET062METAR GMTT 060900Z 20003KT 160V280 8000 NSC 13/10 Q1018 NOSIG;
0134601010999992011010609304+35733-005900FM-15+0021GMTT V0201801N002112200019N0080001N1+01501+00901999999ADDGF100991999999999999999999MA1101901999999REMMET062METAR GMTT 060930Z 18004KT 150V220 8000 NSC 15/09 Q1019 NOSIG;EQDQ01    003SCCGA1
0078601010999992011010610004+35733-005900FM-15+0021GMTT V0201801N003619999999Y0099001N1+01601+00901999999ADDMA1101901999999REMMET051METAR GMTT 061000Z 18007KT CAVOK 16/09 Q1019 NOSIG;
0086601010999992011010610304+35733-005900FM-15+0021GMTT V0201801N003619999999Y0099001N1+01601+00801999999ADDMA1101901999999REMMET059METAR GMTT 061030Z 18007KT 160V230 CAVOK 16/08 Q1019 NOSIG;
0078601010999992011010611004+35733-005900FM-15+0021GMTT V0201901N004119999999Y0099001N1+01701+00901999999ADDMA1101901999999REMMET051METAR GMTT 061100Z 19008KT CAVOK 17/09 Q1019 NOSIG;
0086601010999992011010611304+35733-005900FM-15+0021GMTT V0201901N004119999999Y0099001N1+01801+00901999999ADDMA1101901999999REMMET059METAR GMTT 061130Z 19008KT 160V230 CAVOK 18/09 Q1019 NOSIG;
0210601010999992011010612004+35733-005900SY-MT+0021GMTT V0202001N004610600019Y0100001N1+01821+00791101911ADDGA1071+060001001GF107991001001999999001021MA1101901999999MD1010001+9999REMSYN070AAXX  06124 60101 32960 72009 10182 20079 40191 50000 80002 333 87070;MET051METAR GMTT 061200Z 20009KT CAVOK 18/08 Q1019 NOSIG;
0086601010999992011010612304+35733-005900FM-15+0021GMTT V0202101N004619999999Y0099001N1+01901+00801999999ADDMA1101801999999REMMET059METAR GMTT 061230Z 21009KT 180V240 CAVOK 19/08 Q1018 NOSIG;
0078601010999992011010613004+35733-005900FM-15+0021GMTT V0202101N004619999999Y0099001N1+02001+00901999999ADDMA1101801999999REMMET051METAR GMTT 061300Z 21009KT CAVOK 20/09 Q1018 NOSIG;
0078601010999992011010613304+35733-005900FM-15+0021GMTT V0202201N004619999999Y0099001N1+02001+00701999999ADDMA1101691999999REMMET051METAR GMTT 061330Z 22009KT CAVOK 20/07 Q1017 NOSIG;
0078601010999992011010614004+35733-005900FM-15+0021GMTT V0202301N005119999999Y0099001N1+02001+00801999999ADDMA1101691999999REMMET051METAR GMTT 061400Z 23010KT CAVOK 20/08 Q1017 NOSIG;
0078601010999992011010614304+35733-005900FM-15+0021GMTT V0202601N004119999999Y0099001N1+01901+01201999999ADDMA1101691999999REMMET051METAR GMTT 061430Z 26008KT CAVOK 19/12 Q1017 NOSIG;
0229601010999992011010615004+35733-005900SY-MT+0021GMTT V0202501N003610600019Y0100001N1+01941+01191101741ADDGA1071+060001001GF199999001001999999001021MA1101691999999MD1810161+9999REMSYN070AAXX  06154 60101 32960 62507 10194 20119 40174 58016 80002 333 87070;MET051METAR GMTT 061500Z 25007KT CAVOK 19/12 Q1017 NOSIG;EQDQ01+000062SCOTCV
0086601010999992011010615304+35733-005900FM-15+0021GMTT V0202201N004119999999Y0099001N1+01901+00901999999ADDMA1101691999999REMMET059METAR GMTT 061530Z 22008KT 190V250 CAVOK 19/09 Q1017 NOSIG;
0086601010999992011010616004+35733-005900FM-15+0021GMTT V0202201N004119999999Y0099001N1+01901+00901999999ADDMA1101691999999REMMET059METAR GMTT 061600Z 22008KT 180V240 CAVOK 19/09 Q1017 NOSIG;
0078601010999992011010616304+35733-005900FM-15+0021GMTT V0202201N004119999999Y0099001N1+01801+00901999999ADDMA1101691999999REMMET051METAR GMTT 061630Z 22008KT CAVOK 18/09 Q1017 NOSIG;
0078601010999992011010617004+35733-005900FM-15+0021GMTT V0202201N003119999999Y0099001N1+01701+00901999999ADDMA1101691999999REMMET051METAR GMTT 061700Z 22006KT CAVOK 17/09 Q1017 NOSIG;
0078601010999992011010617304+35733-005900FM-15+0021GMTT V0202101N002119999999Y0099001N1+01601+00901999999ADDMA1101691999999REMMET051METAR GMTT 061730Z 21004KT CAVOK 16/09 Q1017 NOSIG;
0213601010999992011010618004+35733-005900SY-MT+0021GMTT V0201901N002619999999Y0100001N1+01541+00891101731ADDGF107991001001999999001021KA1120M+02021MA1101691999999MD1610011+9999REMSYN076AAXX  06184 60101 32960 71905 10154 20089 40173 56001 80002 333 10202 86070;MET051METAR GMTT 061800Z 19005KT CAVOK 15/09 Q1017 NOSIG;
0078601010999992011010618304+35733-005900FM-15+0021GMTT V0201901N004119999999Y0099001N1+01601+00801999999ADDMA1101691999999REMMET051METAR GMTT 061830Z 19008KT CAVOK 16/08 Q1017 NOSIG;
0086601010999992011010619004+35733-005900FM-15+0021GMTT V0201901N004119999999Y0099001N1+01601+00701999999ADDMA1101691999999REMMET059METAR GMTT 061900Z 19008KT 160V220 CAVOK 16/07 Q1017 NOSIG;
0078601010999992011010619304+35733-005900FM-15+0021GMTT V0201901N003619999999Y0099001N1+01601+00701999999ADDMA1101691999999REMMET051METAR GMTT 061930Z 19007KT CAVOK 16/07 Q1017 NOSIG;
0078601010999992011010620004+35733-005900FM-15+0021GMTT V0201901N003619999999Y0099001N1+01501+00601999999ADDMA1101691999999REMMET051METAR GMTT 062000Z 19007KT CAVOK 15/06 Q1017 NOSIG;
0078601010999992011010620304+35733-005900FM-15+0021GMTT V0201901N004619999999Y0099001N1+01501+00501999999ADDMA1101691999999REMMET051METAR GMTT 062030Z 19009KT CAVOK 15/05 Q1017 NOSIG;
0210601010999992011010621004+35733-005900SY-MT+0021GMTT V0201901N004110600019Y0100001N1+01551+00481101791ADDGA1051+060001001GF105991001001999999001021MA1101691999999MD1210061+9999REMSYN070AAXX  06214 60101 32960 51908 10155 20048 40179 52006 80002 333 85070;MET051METAR GMTT 062100Z 19008KT CAVOK 16/05 Q1017 NOSIG;
0086601010999992011010621304+35733-005900FM-15+0021GMTT V0201901N003619999999Y0099001N1+01501+00501999999ADDMA1101801999999REMMET059METAR GMTT 062130Z 19007KT 160V220 CAVOK 15/05 Q1018 NOSIG;
0078601010999992011010622004+35733-005900FM-15+0021GMTT V0201901N003619999999Y0099001N1+01501+00401999999ADDMA1101801999999REMMET051METAR GMTT 062200Z 19007KT CAVOK 15/04 Q1018 NOSIG;
0078601010999992011010622304+35733-005900FM-15+0021GMTT V0201801N004119999999Y0099001N1+01501+00301999999ADDMA1101801999999REMMET051METAR GMTT 062230Z 18008KT CAVOK 15/03 Q1018 NOSIG;
0078601010999992011010623004+35733-005900FM-15+0021GMTT V0201801N004119999999Y0099001N1+01501+00301999999ADDMA1101801999999REMMET051METAR GMTT 062300Z 18008KT CAVOK 15/03 Q1018 NOSIG;
0078601010999992011010623304+35733-005900FM-15+0021GMTT V0201801N003619999999Y0099001N1+01601+00301999999ADDMA1101801999999REMMET051METAR GMTT 062330Z 18007KT CAVOK 16/03 Q1018 NOSIG;
0194601010999992011010700004+35733-005900SY-MT+0021GMTT V0201801N003619999999Y0100001N1+01591+00271101811ADDGF105991001001999999001021MA1101801999999MD1010021+9999REMSYN070AAXX  07004 60101 32960 51807 10159 20027 40181 50002 80002 333 85070;MET051METAR GMTT 070000Z 18007KT CAVOK 16/03 Q1018 NOSIG;
0080601010999992011010703004+35733-005900FM-12+0021GMTT V0201901N005119999999N9999999N1+01641+00381101771ADDMD1810031+9999REMSYN054AAXX  07034 60101 46/// /1910 10164 20038 40177 58003;
0078601010999992011010704304+35733-005900FM-15+0021GMTT V0201901N005119999999Y0099001N1+01601+00501999999ADDMA1101691999999REMMET051METAR GMTT 070430Z 19010KT CAVOK 16/05 Q1017 NOSIG;
0078601010999992011010705004+35733-005900FM-15+0021GMTT V0201901N005119999999Y0099001N1+01501+00501999999ADDMA1101691999999REMMET051METAR GMTT 070500Z 19010KT CAVOK 15/05 Q1017 NOSIG;
0078601010999992011010705304+35733-005900FM-15+0021GMTT V0201901N004619999999Y0099001N1+01501+00501999999ADDMA1101691999999REMMET051METAR GMTT 070530Z 19009KT CAVOK 15/05 Q1017 NOSIG;
0078601010999992011010706004+35733-005900FM-15+0021GMTT V0201901N004619999999Y0099001N1+01501+00601999999ADDMA1101691999999REMMET051METAR GMTT 070600Z 19009KT CAVOK 15/06 Q1017 NOSIG;
0078601010999992011010706304+35733-005900FM-15+0021GMTT V0201901N004119999999Y0099001N1+01501+00601999999ADDMA1101801999999REMMET051METAR GMTT 070630Z 19008KT CAVOK 15/06 Q1018 NOSIG;
0149601010999992011010707004+35733-005900FM-15+0021GMTT V0202001N004612200019N0112651N1+01501+00501999999ADDGA1041+004801999GA2041+060001999GF104991999999999999999999MA1101801999999REMMET064METAR GMTT 070700Z 20009KT 9999 SCT016 SCT200 15/05 Q1018 NOSIG;
0142601010999992011010707304+35733-005900FM-15+0021GMTT V0202001N00361004801CN0112651N1+01501+00601999999ADDGA1071+004801999GA2041+060001999MA1101801999999REMMET064METAR GMTT 070730Z 20007KT 9999 BKN016 SCT200 15/06 Q1018 NOSIG;EQDQ01+000042SCOTCV
0142601010999992011010708004+35733-005900FM-15+0021GMTT V0202001N00311004801CN0112651N1+01501+00601999999ADDGA1071+004801999GA2041+060001999MA1101801999999REMMET064METAR GMTT 070800Z 20006KT 9999 BKN016 SCT200 15/06 Q1018 NOSIG;EQDQ01+000042SCOTCV
0142601010999992011010708304+35733-005900FM-15+0021GMTT V0202001N00411004801CN0112651N1+01501+00601999999ADDGA1071+004801999GA2041+060001999MA1101901999999REMMET064METAR GMTT 070830Z 20008KT 9999 BKN016 SCT200 15/06 Q1019 NOSIG;EQDQ01+000042SCOTCV
0245601010999992011010709004+35733-005900SY-MT+0021GMTT V0202001N004110048019N0100001N1+01511+00741101991ADDGA1071+004801999GA2041+060001999GF107991061021004501001021MA1101901999999MD1310191+9999REMSYN076AAXX  07094 60101 32460 72008 10151 20074 40199 53019 86202 333 86816 83070;MET064METAR GMTT 070900Z 20008KT 9999 BKN016 SCT200 15/07 Q1019 NOSIG;
0150601010999992011010709304+35733-005900FM-15+0021GMTT V0202001N00511004801CN0112651N1+01501+00801999999ADDGA1071+004801999GA2041+060001999MA1102001999999REMMET072METAR GMTT 070930Z 20010KT 160V220 9999 BKN016 SCT200 15/08 Q1020 NOSIG;EQDQ01+000042SCOTCV
0126601010999992011010710304+35733-005900FM-15+0021GMTT V0202001N005710048019N0080001N1+01501+00901999999ADDGA1071+004801999GF107991999999999999999999MA1102001999999REMMET057METAR GMTT 071030Z 20011KT 8000 BKN016 15/09 Q1020 NOSIG;
0136601010999992011010711004+35733-005900FM-15+0021GMTT V0202001N007210048019N0080001N1+01501+01001999999ADDGA1071+004801999GF107991999999999999999999MA1102101999999MW1611REMMET061METAR GMTT 071100Z 20014KT 8000 -RA BKN016 15/10 Q1021 NOSIG;
0139601010999992011010711304+35733-005900FM-15+0021GMTT V0202001N006210048019N0080001N1+01601+01001999999ADDGA1071+004801999GF107991999999999999999999MA1102101999999REMMET070METAR GMTT 071130Z 20012KT 170V230 8000 BKN016 16/10 Q1021 RERA NOSIG;
0265601010999992011010712004+35733-005900SY-MT+0021GMTT V0202201N005110048019N0080001N1+01641+01091102151ADDAA106000021AY161061AY221061GA1071+004801999GF107991071021004501999999MA1102101999999MD1110171+9999MW1611REMSYN082AAXX  07124 60101 11458 72210 10164 20109 40215 51017 69921 76162 872// 333 87816;MET061METAR GMTT 071200Z 22010KT 8000 -RA BKN016 16/11 Q1021 NOSIG;
0177601010999992011010712304+35733-005900FM-15+0021GMTT V0202601N005110048019N0050001N1+01601+01301999999ADDGA1041+003001999GA2071+004801999GF107991999999999999999999MA1102101999999MW1631OC101131REMMET078METAR GMTT 071230Z 26010G22KT 220V320 5000 RA SCT010 BKN016 16/13 Q1021 NOSIG;
0158601010999992011010713004+35733-005900FM-15+0021GMTT V0202301N005110048019N0050001N1+01601+01401999999ADDGA1041+003001999GA2071+004801999GF107991999999999999999999MA1102101999999MW1631REMMET067METAR GMTT 071300Z 23010KT 5000 RA SCT010 BKN016 16/14 Q1021 NOSIG;
0158601010999992011010713304+35733-005900FM-15+0021GMTT V0202201N004110048019N0050001N1+01701+01401999999ADDGA1041+003001999GA2071+004801999GF107991999999999999999999MA1102101999999MW1631REMMET067METAR GMTT 071330Z 22008KT 5000 RA SCT010 BKN016 17/14 Q1021 NOSIG;
0154601010999992011010714004+35733-005900FM-15+0021GMTT V0202301N004610048019N0050001N1+01701+01501999999ADDGA1041+003001999GA2071+004801999GF107991999999999999999999MA1102101999999REMMET069METAR GMTT 071400Z 23009KT 5000 SCT010 BKN016 17/15 Q1021 RERA NOSIG;
0158601010999992011010714304+35733-005900FM-15+0021GMTT V0202401N003610048019N0050001N1+01701+01501999999ADDGA1041+003001999GA2071+004801999GF107991999999999999999999MA1102001999999MW1631REMMET067METAR GMTT 071430Z 24007KT 5000 RA SCT010 BKN016 17/15 Q1020 NOSIG;
0284601010999992011010715004+35733-005900SY-MT+0021GMTT V0202501N002610048019N0050001N1+01691+01491102101ADDAY161031AY261031GA1041+003001999GA2071+004801999GF108991081021004501999999MA1102101999999MD1810091+9999MW1601REMSYN082AAXX  07154 60101 31450 82505 10169 20149 40210 58009 76066 882// 333 83710 87816;MET075METAR GMTT 071500Z 25005KT 200V290 5000 RA SCT010 BKN016 17/15 Q1021 NOSIG;
0166601010999992011010715304+35733-005900FM-15+0021GMTT V0202601N004110048019N0050001N1+01601+01501999999ADDGA1041+003001999GA2071+004801999GF107991999999999999999999MA1102101999999MW1631REMMET075METAR GMTT 071530Z 26008KT 210V280 5000 RA SCT010 BKN016 16/15 Q1021 NOSIG;
0158601010999992011010716004+35733-005900FM-15+0021GMTT V0202101N004610048019N0050001N1+01701+01401999999ADDGA1041+003001999GA2071+004801999GF107991999999999999999999MA1102101999999MW1631REMMET067METAR GMTT 071600Z 21009KT 5000 RA SCT010 BKN016 17/14 Q1021 NOSIG;
0149601010999992011010716304+35733-005900FM-15+0021GMTT V0202001N005710048019N0080001N1+01701+01301999999ADDGA1041+003001999GA2071+004801999GF107991999999999999999999MA1102101999999REMMET064METAR GMTT 071630Z 20011KT 8000 SCT010 BKN016 17/13 Q1021 NOSIG;
0149601010999992011010717004+35733-005900FM-15+0021GMTT V0202001N004610048019N0080001N1+01601+01301999999ADDGA1041+003001999GA2071+004801999GF107991999999999999999999MA1102101999999REMMET064METAR GMTT 071700Z 20009KT 8000 SCT010 BKN016 16/13 Q1021 NOSIG;
0149601010999992011010717304+35733-005900FM-15+0021GMTT V0202001N004610048019N0080001N1+01601+01301999999ADDGA1041+003001999GA2071+004801999GF107991999999999999999999MA1102101999999REMMET064METAR GMTT 071730Z 20009KT 8000 SCT010 BKN016 16/13 Q1021 NOSIG;
0309601010999992011010718004+35733-005900SY-MT+0021GMTT V0201901N003610048019N0080001N1+01611+01251102191ADDAA112015091AY181061AY261061GA1041+003001999GA2071+004801999GF108991081021004501999999KA1120M+01741MA1102101999999MD1110101+9999MW1021REMSYN094AAXX  07184 60101 11458 81907 10161 20125 40219 51010 60152 70286 882// 333 10174 83710 87816;MET064METAR GMTT 071800Z 19007KT 8000 SCT010 BKN016 16/13 Q1021 NOSIG;
0149601010999992011010718304+35733-005900FM-15+0021GMTT V0202001N003110048019N0080001N1+01601+01301999999ADDGA1041+003001999GA2071+004801999GF107991999999999999999999MA1102201999999REMMET064METAR GMTT 071830Z 20006KT 8000 SCT010 BKN016 16/13 Q1022 NOSIG;
0149601010999992011010719004+35733-005900FM-15+0021GMTT V0202001N003110048019N0080001N1+01601+01301999999ADDGA1041+003001999GA2071+004801999GF107991999999999999999999MA1102201999999REMMET064METAR GMTT 071900Z 20006KT 8000 SCT010 BKN016 16/13 Q1022 NOSIG;
0149601010999992011010719304+35733-005900FM-15+0021GMTT V0201901N004110048019N0080001N1+01601+01301999999ADDGA1041+003001999GA2071+004801999GF107991999999999999999999MA1102201999999REMMET064METAR GMTT 071930Z 19008KT 8000 SCT010 BKN016 16/13 Q1022 NOSIG;
0149601010999992011010720004+35733-005900FM-15+0021GMTT V0201901N003610048019N0080001N1+01601+01301999999ADDGA1041+003001999GA2071+004801999GF107991999999999999999999MA1102201999999REMMET064METAR GMTT 072000Z 19007KT 8000 SCT010 BKN016 16/13 Q1022 NOSIG;
0149601010999992011010720304+35733-005900FM-15+0021GMTT V0201901N003110048019N0080001N1+01601+01301999999ADDGA1041+003001999GA2071+004801999GF107991999999999999999999MA1102201999999REMMET064METAR GMTT 072030Z 19006KT 8000 SCT010 BKN016 16/13 Q1022 NOSIG;
0245601010999992011010721004+35733-005900SY-MT+0021GMTT V0201801N003110048019N0080001N1+01541+01231102251ADDGA1041+003001999GA2071+004801999GF108991081021004501999999MA1102201999999MD1010061+9999REMSYN076AAXX  07214 60101 32458 81806 10154 20123 40225 50006 882// 333 83710 87816;MET064METAR GMTT 072100Z 18006KT 8000 SCT010 BKN016 15/12 Q1022 NOSIG;
0149601010999992011010721304+35733-005900FM-15+0021GMTT V0201901N002610048019N0080001N1+01501+01201999999ADDGA1041+003001999GA2071+004801999GF107991999999999999999999MA1102201999999REMMET064METAR GMTT 072130Z 19005KT 8000 SCT010 BKN016 15/12 Q1022 NOSIG;
0149601010999992011010722004+35733-005900FM-15+0021GMTT V0201901N002610048019N0080001N1+01501+01201999999ADDGA1041+003001999GA2071+004801999GF107991999999999999999999MA1102201999999REMMET064METAR GMTT 072200Z 19005KT 8000 SCT010 BKN016 15/12 Q1022 NOSIG;
0149601010999992011010722304+35733-005900FM-15+0021GMTT V0201901N003110048019N0080001N1+01601+01201999999ADDGA1041+003001999GA2071+004801999GF107991999999999999999999MA1102201999999REMMET064METAR GMTT 072230Z 19006KT 8000 SCT010 BKN016 16/12 Q1022 NOSIG;
0157601010999992011010723004+35733-005900FM-15+0021GMTT V0201901N001510048019N0080001N1+01501+01101999999ADDGA1041+003001999GA2071+004801999GF107991999999999999999999MA1102201999999REMMET072METAR GMTT 072300Z 19003KT 150V220 8000 SCT010 BKN016 15/11 Q1022 NOSIG;
0149601010999992011010723304+35733-005900FM-15+0021GMTT V0200601N001010048019N0080001N1+01201+01001999999ADDGA1041+003001999GA2071+004801999GF107991999999999999999999MA1102201999999REMMET064METAR GMTT 072330Z 06002KT 8000 SCT010 BKN016 12/10 Q1022 NOSIG;
0309601010999992011010800004+35733-005900SY-MT+0021GMTT V0200901N001010048019N0080001N1+01151+00961102231ADDAA106000591AY181061AY221061GA1041+003001999GA2071+004801999GF199999061021004501001001MA1102201999999MD1610031+9999MW1021REMSYN088AAXX  08004 60101 11458 60902 10115 20096 40223 56003 69961 70282 86200 333 83710 85816;MET064METAR GMTT 080000Z 09002KT 8000 SCT010 BKN016 12/10 Q1022 NOSIG;EQDQ01+000062SCOTCV
0157601010999992011010800304+35733-005900FM-15+0021GMTT V0201101N001510048019N0080001N1+01201+01001999999ADDGA1041+003001999GA2071+004801999GF107991999999999999999999MA1102101999999REMMET072METAR GMTT 080030Z 11003KT 090V150 8000 SCT010 BKN016 12/10 Q1021 NOSIG;
0149601010999992011010801004+35733-005900FM-15+0021GMTT V0200901N001510048019N0080001N1+01101+00901999999ADDGA1041+003001999GA2071+004801999GF107991999999999999999999MA1102101999999REMMET064METAR GMTT 080100Z 09003KT 8000 SCT010 BKN016 11/09 Q1021 NOSIG;
0176601010999992011010801304+35733-005900FM-15+0021GMTT V0200901N001510048019N0050001N1+01101+00901999999ADDED128U20009GA1041+003001999GA2071+004801999GF107991999999999999999999MA1102101999999REMMET080METAR GMTT 080130Z 09003KT 5000 0750 R28/P2000D SCT010 BKN016 11/09 Q1021 NOSIG;
0184601010999992011010802004+35733-005900FM-15+0021GMTT V0200901N001510048019N0050001N1+01101+00901999999ADDED128U20009GA1041+003001999GA2071+004801999GF107991999999999999999999MA1102101999999REMMET088METAR GMTT 080200Z 09003KT 060V140 5000 0750 R28/P2000D SCT010 BKN016 11/09 Q1021 NOSIG;
0110601010999992011010802304+35733-005900AUTO +0021GMTT V0209999V001019999999N0050001N1+01001+00901999999ADDED128U20009MA1102101999999REMMET072METAR GMTT 080230Z AUTO VRB02KT 5000NDV 0750 R28/P2000U /// 10/09 Q1021;
0192601010999992011010803004+35733-005900SY-MT+0021GMTT V0200701N001519999999N0007001N1+01021+00851102131ADDED128U20009MA1102101999999MD1810091+9999REMSYN054AAXX  08034 60101 46907 /0703 10102 20085 40213 58009;MET080METAR GMTT 080300Z AUTO 07003KT 040V100 5000NDV 0750 R28/P2000U /// 10/09 Q1021;
0184601010999992011010803304+35733-005900FM-15+0021GMTT V0201001N001510048019N0043001N1+01001+00801999999ADDED128U20009GA1041+003001999GA2071+004801999GF107991999999999999999999MA1102001999999REMMET088METAR GMTT 080330Z 10003KT 040V140 4300 0750 R28/P2000D SCT010 BKN016 10/08 Q1020 NOSIG;
0176601010999992011010804004+35733-005900FM-15+0021GMTT V0200901N002110048019N0047001N1+01001+00801999999ADDED128U20009GA1041+003001999GA2071+004801999GF107991999999999999999999MA1102001999999REMMET080METAR GMTT 080400Z 09004KT 4700 0750 R28/P2000D SCT010 BKN016 10/08 Q1020 NOSIG;
0176601010999992011010804304+35733-005900FM-15+0021GMTT V0201001N001510048019N0043001N1+01001+00801999999ADDED128U20009GA1041+003001999GA2071+004801999GF107991999999999999999999MA1102001999999REMMET080METAR GMTT 080430Z 10003KT 4300 0750 R28/P2000U SCT010 BKN016 10/08 Q1020 NOSIG;
0110601010999992011010805004+35733-005900AUTO +0021GMTT V0201001N003119999999N0042001N1+00901+00801999999ADDED128U20009MA1102001999999REMMET072METAR GMTT 080500Z AUTO 10006KT 4200NDV 0750 R28/P2000U /// 09/08 Q1020;
0110601010999992011010805304+35733-005900AUTO +0021GMTT V0201001N002619999999N0041001N1+00901+00801999999ADDED128U20009MA1101901999999REMMET072METAR GMTT 080530Z AUTO 10005KT 4100NDV 0750 R28/P2000U /// 09/08 Q1019;
0271601010999992011010806004+35733-005900SY-MT+0021GMTT V0201101N003610048019N0080001N1+00951+00781101991ADDAA124016091GA1071+004801999GF199999051021004501001001KA1999N+00921MA1101901999999MD1810141+9999REMSYN082AAXX  08064 60101 12458 51107 10095 20078 40199 58014 60164 85200 333 20092 85816;MET057METAR GMTT 080600Z 11007KT 8000 BKN016 10/08 Q1019 NOSIG;EQDQ01+000052SCOTCV
0126601010999992011010806304+35733-005900FM-15+0021GMTT V0201001N003110048019N0080001N1+00901+00801999999ADDGA1071+004801999GF107991999999999999999999MA1101901999999REMMET057METAR GMTT 080630Z 10006KT 8000 BKN016 09/08 Q1019 NOSIG;
0126601010999992011010807004+35733-005900FM-15+0021GMTT V0201001N002610048019N0080001N1+00901+00701999999ADDGA1071+004801999GF107991999999999999999999MA1101901999999REMMET057METAR GMTT 080700Z 10005KT 8000 BKN016 09/07 Q1019 NOSIG;
0134601010999992011010807304+35733-005900FM-15+0021GMTT V0200801N002612200019N0080001N1+01001+00701999999ADDGA1041+004801999GF104991999999999999999999MA1101901999999REMMET065METAR GMTT 080730Z 08005KT 050V110 8000 SCT016 10/07 Q1019 NOSIG;
0126601010999992011010808004+35733-005900FM-15+0021GMTT V0200801N002112200019N0080001N1+01101+00701999999ADDGA1041+004801999GF104991999999999999999999MA1102001999999REMMET057METAR GMTT 080800Z 08004KT 8000 SCT016 11/07 Q1020 NOSIG;
0149601010999992011010808304+35733-005900FM-15+0021GMTT V0200601N002112200019N0112651N1+01101+00701999999ADDGA1021+004801999GA2041+030001999GF104991999999999999999999MA1102001999999REMMET064METAR GMTT 080830Z 06004KT 9999 FEW016 SCT100 11/07 Q1020 NOSIG;
0245601010999992011010809004+35733-005900SY-MT+0021GMTT V0201201N000512200019N0100001N1+01251+00951102071ADDGA1021+004801999GA2041+030001999GF104991041021004501001001MA1102001999999MD1310081+9999REMSYN076AAXX  08094 60101 32460 41201 10125 20095 40207 53008 84200 333 82616 83360;MET064METAR GMTT 080900Z VRB01KT 9999 FEW016 SCT100 13/10 Q1020 NOSIG;
0149601010999992011010809304+35733-005900FM-15+0021GMTT V0202801N001512200019N0112651N1+01201+00901999999ADDGA1021+004801999GA2041+030001999GF104991999999999999999999MA1102101999999REMMET064METAR GMTT 080930Z 28003KT 9999 FEW016 SCT100 12/09 Q1021 NOSIG;
0149601010999992011010810004+35733-005900FM-15+0021GMTT V0209999V001012200019N0112651N1+01501+01001999999ADDGA1021+004801999GA2041+030001999GF104991999999999999999999MA1102101999999REMMET064METAR GMTT 081000Z VRB02KT 9999 FEW016 SCT100 15/10 Q1021 NOSIG;
0149601010999992011010810304+35733-005900FM-15+0021GMTT V0201801N003612200019N0112651N1+01701+00901999999ADDGA1021+004801999GA2041+030001999GF104991999999999999999999MA1102101999999REMMET064METAR GMTT 081030Z 18007KT 9999 FEW016 SCT100 17/09 Q1021 NOSIG;
0149601010999992011010811004+35733-005900FM-15+0021GMTT V0201901N004612200019N0112651N1+01801+00801999999ADDGA1021+004801999GA2041+030001999GF104991999999999999999999MA1102001999999REMMET064METAR GMTT 081100Z 19009KT 9999 FEW016 SCT100 18/08 Q1020 NOSIG;
0149601010999992011010811304+35733-005900FM-15+0021GMTT V0201901N004612200019N0112651N1+01901+00901999999ADDGA1021+004801999GA2041+030001999GF104991999999999999999999MA1102001999999REMMET064METAR GMTT 081130Z 19009KT 9999 FEW016 SCT100 19/09 Q1020 NOSIG;
0245601010999992011010812004+35733-005900SY-MT+0021GMTT V0202101N005112200019N0100001N1+01931+00861102061ADDGA1021+004801999GA2041+030001999GF104991041021004501001001MA1102001999999MD1610031+9999REMSYN076AAXX  08124 60101 32460 42110 10193 20086 40206 56003 84200 333 82616 83360;MET064METAR GMTT 081200Z 21010KT 9999 FEW016 SCT100 19/09 Q1020 NOSIG;
0149601010999992011010812304+35733-005900FM-15+0021GMTT V0202001N005112200019N0112651N1+02001+00801999999ADDGA1021+004801999GA2041+030001999GF104991999999999999999999MA1102001999999REMMET064METAR GMTT 081230Z 20010KT 9999 FEW016 SCT100 20/08 Q1020 NOSIG;
0149601010999992011010813004+35733-005900FM-15+0021GMTT V0202201N005712200019N0112651N1+02001+01001999999ADDGA1021+004801999GA2041+030001999GF104991999999999999999999MA1101901999999REMMET064METAR GMTT 081300Z 22011KT 9999 FEW016 SCT100 20/10 Q1019 NOSIG;
0149601010999992011010813304+35733-005900FM-15+0021GMTT V0202201N006212200019N0112651N1+02001+01001999999ADDGA1021+004801999GA2041+060001999GF104991999999999999999999MA1101901999999REMMET064METAR GMTT 081330Z 22012KT 9999 FEW016 SCT200 20/10 Q1019 NOSIG;
0157601010999992011010814004+35733-005900FM-15+0021GMTT V0202201N006212200019N0112651N1+02001+01001999999ADDGA1021+004801999GA2041+060001999GF104991999999999999999999MA1101901999999REMMET072METAR GMTT 081400Z 22012KT 180V240 9999 FEW016 SCT200 20/10 Q1019 NOSIG;
0149601010999992011010814304+35733-005900FM-15+0021GMTT V0202201N007210600019N0112651N1+01901+01001999999ADDGA1021+004801999GA2071+060001999GF107991999999999999999999MA1101901999999REMMET064METAR GMTT 081430Z 22014KT 9999 FEW016 BKN200 19/10 Q1019 NOSIG;
0245601010999992011010815004+35733-005900SY-MT+0021GMTT V0202201N007210300019N0100001N1+01881+01061101911ADDGA1021+004801999GA2041+030001999GF106991021021004501081021MA1101901999999MD1610151+9999REMSYN076AAXX  08154 60101 32460 62214 10188 20106 40191 56015 82282 333 82616 83360;MET064METAR GMTT 081500Z 22014KT 9999 FEW016 SCT100 19/11 Q1019 NOSIG;
0149601010999992011010815304+35733-005900FM-15+0021GMTT V0202301N005712200019N0112651N1+01901+01101999999ADDGA1021+004801999GA2041+030001999GF104991999999999999999999MA1101901999999REMMET064METAR GMTT 081530Z 23011KT 9999 FEW016 SCT100 19/11 Q1019 NOSIG;
0149601010999992011010816004+35733-005900FM-15+0021GMTT V0202201N006212200019N0112651N1+01801+01101999999ADDGA1021+004801999GA2041+030001999GF104991999999999999999999MA1101901999999REMMET064METAR GMTT 081600Z 22012KT 9999 FEW016 SCT100 18/11 Q1019 NOSIG;
0172601010999992011010816304+35733-005900FM-15+0021GMTT V0202201N00621030001CN0112651N1+01801+01101999999ADDGA1021+004801999GA2041+030001999GA3071+060001999GF107991999999999999999999MA1101901999999REMMET071METAR GMTT 081630Z 22012KT 9999 FEW016 SCT100 BKN200 18/11 Q1019 NOSIG;
0149601010999992011010817004+35733-005900FM-15+0021GMTT V0202201N005710300019N0080001N1+01701+01201999999ADDGA1041+004801999GA2071+030001999GF107991999999999999999999MA1101901999999REMMET064METAR GMTT 081700Z 22011KT 8000 SCT016 BKN100 17/12 Q1019 NOSIG;
0158601010999992011010817304+35733-005900FM-15+0021GMTT V0202201N005710048019N0080001N1+01701+01301999999ADDGA1071+004801999GA2071+030001999GF107991999999999999999999MA1101901999999REMMET073METAR GMTT 081730Z 22011KT 8000 BKN016 BKN100 17/13 Q1019 TEMPO 4000 -RA;
0187601010999992011010817484+35733-005900FM-15+0021GMTT V0202901N00361004801CN0080001N1+01601+01301999999ADDGA1041+003001999GA2071+004801999GA3021+006901091MA1101901999999MW1171REMMET087METAR GMTT 081748Z 29007KT 8000 TS SCT010 BKN016 FEW023CB 16/13 Q1019 TEMPO 4000 -TSRA;EQDQ01+000022SCOTCV
0373601010999992011010818004+35733-005900SY-MT+0021GMTT V0202901N002610048019N0080001N1+01591+01281101991ADDAA106004191AY191061AY281061GA1041+003001999GA2071+004801999GA3021+006901091GF107991051021004501081999KA1120M+02001MA1102001999999MD1310091+9999MW1961OC100871REMSYN100AAXX  08184 60101 11458 72905 10159 20128 40199 53009 60041 79698 8528/ 333 10200 83810 86816 82923;MET098METAR GMTT 081800Z 28007G17KT 250V320 8000 TS SCT010 BKN016 FEW023CB 16/13 Q1020 TEMPO 4000 -TSRA;
0185601010999992011010818304+35733-005900FM-15+0021GMTT V0209999V00051004801CN0050001N1+01201+01001999999ADDGA1041+003001999GA2071+004801999GA3021+006901091MA1102001999999MW1801MW2951REMMET079METAR GMTT 081830Z VRB01KT 5000 -TSRA SCT010 BKN016 FEW023CB 12/10 Q1020 NOSIG;EQDQ01+000022SCOTCV
0185601010999992011010819004+35733-005900FM-15+0021GMTT V0201101N00261004801CN0050001N1+01301+01101999999ADDGA1041+003001999GA2071+004801999GA3021+006901091MA1102001999999MW1801MW2951REMMET079METAR GMTT 081900Z 11005KT 5000 -TSRA SCT010 BKN016 FEW023CB 13/11 Q1020 NOSIG;EQDQ01+000022SCOTCV
0185601010999992011010819304+35733-005900FM-15+0021GMTT V0209999V00101004801CN0050001N1+01301+01201999999ADDGA1041+003001999GA2071+004801999GA3021+006901091MA1102001999999MW1801MW2951REMMET079METAR GMTT 081930Z VRB02KT 5000 -TSRA SCT010 BKN016 FEW023CB 13/12 Q1020 NOSIG;EQDQ01+000022SCOTCV
0181601010999992011010820004+35733-005900FM-15+0021GMTT V0209999V00101004801CN0060001N1+01401+01301999999ADDGA1041+003001999GA2071+004801999GA3021+006901091MA1102001999999MW1171REMMET081METAR GMTT 082000Z VRB02KT 6000 TS SCT010 BKN016 FEW023CB 14/13 Q1020 RERA NOSIG;EQDQ01+000022SCOTCV
0193601010999992011010820304+35733-005900FM-15+0021GMTT V0202101N00361004801CN0060001N1+01401+01301999999ADDGA1041+003001999GA2071+004801999GA3021+006901091MA1102101999999MW1801MW2951REMMET087METAR GMTT 082030Z 21007KT 170V240 6000 -TSRA SCT010 BKN016 FEW023CB 14/13 Q1021 NOSIG;EQDQ01+000022SCOTCV
0316601010999992011010821004+35733-005900SY-MT+0021GMTT V0201601N004110048019N0030001N1+01451+01321102061ADDAY191031AY281031GA1041+003001999GA2071+004801999GA3021+006901091GF107991071091004501999999MA1102001999999MD1010061+9999MW1801MW2951REMSYN088AAXX  08214 60101 41430 71608 10145 20132 40206 50006 79598 879// 333 83810 86816 82923;MET079METAR GMTT 082100Z 16008KT 3000 -TSRA SCT010 BKN016 FEW023CB 15/13 Q1020 NOSIG;
0162601010999992011010821104+35733-005900FM-15+0021GMTT V0201901N005110048019N0060001N1+01401+01301999999ADDGA1041+003001999GA2071+004801999GF107991999999999999999999MA1102001999999MW1611REMMET071METAR GMTT 082110Z 19010KT 6000 -RA SCT010 BKN016 14/13 Q1020 NOSIG B8;
0159601010999992011010821304+35733-005900FM-15+0021GMTT V0201901N004610048019N0060001N1+01401+01301999999ADDGA1041+003001999GA2071+004801999GF107991999999999999999999MA1102001999999MW1611REMMET068METAR GMTT 082130Z 19009KT 6000 -RA SCT010 BKN016 14/13 Q1020 NOSIG;
0159601010999992011010822004+35733-005900FM-15+0021GMTT V0202001N004110048019N0060001N1+01401+01201999999ADDGA1041+003001999GA2071+004801999GF107991999999999999999999MA1102001999999MW1611REMMET068METAR GMTT 082200Z 20008KT 6000 -RA SCT010 BKN016 14/12 Q1020 NOSIG;
0149601010999992011010822304+35733-005900FM-15+0021GMTT V0202001N004110048019N0060001N1+01401+01201999999ADDGA1041+003001999GA2071+004801999GF107991999999999999999999MA1102001999999REMMET064METAR GMTT 082230Z 20008KT 6000 SCT010 BKN016 14/12 Q1020 NOSIG;
0149601010999992011010823004+35733-005900FM-15+0021GMTT V0201901N004610048019N0060001N1+01401+01101999999ADDGA1041+003001999GA2071+004801999GF107991999999999999999999MA1102001999999REMMET064METAR GMTT 082300Z 19009KT 6000 SCT010 BKN016 14/11 Q1020 NOSIG;
0149601010999992011010823304+35733-005900FM-15+0021GMTT V0201901N004610048019N0060001N1+01401+01201999999ADDGA1041+003001999GA2071+004801999GF107991999999999999999999MA1102001999999REMMET064METAR GMTT 082330Z 19009KT 6000 SCT010 BKN016 14/12 Q1020 NOSIG;
0290601010999992011010900004+35733-005900SY-MT+0021GMTT V0201901N005110048019N0060001N1+01411+01141102061ADDAA106002091AY161061AY291061GA1041+003001999GA2071+004801999GF107991071021004501999999MA1102001999999MD1610011+9999MW1021REMSYN088AAXX  09004 60101 11456 71910 10141 20114 40206 56001 60021 70269 872// 333 83810 87816;MET064METAR GMTT 090000Z 19009KT 6000 SCT010 BKN016 14/11 Q1020 NOSIG;
0080601010999992011010903004+35733-005900FM-12+0021GMTT V0202701N005719999999N9999999N1+01431+01091102111ADDMD1210061+9999REMSYN054AAXX  09034 60101 46/// /2711 10143 20109 40211 52006;
0149601010999992011010904304+35733-005900FM-15+0021GMTT V0202701N004110048019N0060001N1+01401+01101999999ADDGA1041+003001999GA2071+004801999GF107991999999999999999999MA1102001999999REMMET064METAR GMTT 090430Z 27008KT 6000 SCT010 BKN016 14/11 Q1020 NOSIG;
0149601010999992011010905004+35733-005900FM-15+0021GMTT V0202601N004610048019N0060001N1+01401+01101999999ADDGA1041+003001999GA2071+004801999GF107991999999999999999999MA1102101999999REMMET064METAR GMTT 090500Z 26009KT 6000 SCT010 BKN016 14/11 Q1021 NOSIG;
0149601010999992011010905304+35733-005900FM-15+0021GMTT V0202701N005710048019N0060001N1+01501+01101999999ADDGA1041+003001999GA2071+004801999GF107991999999999999999999MA1102101999999REMMET064METAR GMTT 090530Z 27011KT 6000 SCT010 BKN016 15/11 Q1021 NOSIG;
0340601010999992011010906004+35733-005900SY-MT+0021GMTT V0203101N005110048019N0060001N1+01391+00891102121ADDAA124007191AY181061AY281061GA1041+003001999GA2071+004801999GA3021+006901091GF107991071021004501999999KA1999N+01201MA1102101999999MD1510001+9999MW1131REMSYN100AAXX  09064 60101 11456 73110 10139 20089 40212 55000 60074 71388 872// 333 20120 83810 87816 81923;MET073METAR GMTT 090600Z 31010KT 6000 SCT010 BKN016 FEW023CB 14/09 Q1021 NOSIG;
0185601010999992011010906304+35733-005900FM-15+0021GMTT V0202501N00261004801CN0060001N1+01201+00901999999ADDGA1041+003001999GA2071+004801999GA3021+006901091MA1102101999999MW1611REMMET085METAR GMTT 090630Z 25005KT 210V290 6000 -RA SCT010 BKN016 FEW023CB 12/09 Q1021 NOSIG;EQDQ01+000022SCOTCV
0185601010999992011010907004+35733-005900FM-15+0021GMTT V0201001N00151004801CN0060001N1+01101+00901999999ADDGA1041+003001999GA2071+004801999GA3021+006901091MA1102101999999MW1611REMMET085METAR GMTT 090700Z 10003KT 070V130 6000 -RA SCT010 BKN016 FEW023CB 11/09 Q1021 NOSIG;EQDQ01+000022SCOTCV
0167601010999992011010907304+35733-005900FM-15+0021GMTT V0209999V00101004801CN0060001N1+01101+00901999999ADDGA1041+003001999GA2071+004801999GA3021+006901091MA1102201999999REMMET073METAR GMTT 090730Z VRB02KT 6000 SCT010 BKN016 FEW023CB 11/09 Q1022 NOSIG;EQDQ01+000022SCOTCV
0167601010999992011010908004+35733-005900FM-15+0021GMTT V0209999V00101004801CN0060001N1+01201+01001999999ADDGA1041+003001999GA2071+004801999GA3021+006901091MA1102201999999REMMET073METAR GMTT 090800Z VRB02KT 6000 SCT010 BKN016 FEW023CB 12/10 Q1022 NOSIG;EQDQ01+000022SCOTCV
0167601010999992011010908304+35733-005900FM-15+0021GMTT V0202701N00411004801CN0080001N1+01401+01101999999ADDGA1041+003001999GA2071+004801999GA3021+006901091MA1102201999999REMMET073METAR GMTT 090830Z 27008KT 8000 SCT010 BKN016 FEW023CB 14/11 Q1022 NOSIG;EQDQ01+000022SCOTCV
0292601010999992011010909004+35733-005900SY-MT+0021GMTT V0202801N005110048019N0080001N1+01471+01091102291ADDAY181031AY221031GA1041+003001999GA2071+004801999GF199999061081004501001001MA1102201999999MD1210161+9999MW1011REMSYN082AAXX  09094 60101 41458 62810 10147 20109 40229 52016 70182 86800 333 83810 85816;MET064METAR GMTT 090900Z 29009KT 8000 SCT010 BKN016 15/11 Q1022 NOSIG;EQDQ01+000062SCOTCV
0152601010999992011010909304+35733-005900FM-15+0021GMTT V0202701N005710048019N0080001N1+01501+01001999999ADDGA1041+003001021GA2071+004801999GF107991999999999999999999MA1102301999999REMMET067METAR GMTT 090930Z 27011KT 8000 SCT010TCU BKN016 15/10 Q1023 NOSIG;
0152601010999992011010910004+35733-005900FM-15+0021GMTT V0202601N006210048019N0080001N1+01601+01101999999ADDGA1041+003001021GA2071+004801999GF107991999999999999999999MA1102301999999REMMET067METAR GMTT 091000Z 26012KT 8000 SCT010TCU BKN016 16/11 Q1023 NOSIG;
0152601010999992011010910304+35733-005900FM-15+0021GMTT V0202701N005110048019N0080001N1+01701+01201999999ADDGA1041+003001021GA2071+004801999GF107991999999999999999999MA1102301999999REMMET067METAR GMTT 091030Z 27010KT 8000 SCT010TCU BKN016 17/12 Q1023 NOSIG;
0149601010999992011010911004+35733-005900FM-15+0021GMTT V0202701N005710048019N0080001N1+01701+01201999999ADDGA1041+003001999GA2071+004801999GF107991999999999999999999MA1102301999999REMMET064METAR GMTT 091100Z 27011KT 8000 SCT010 BKN016 17/12 Q1023 NOSIG;
0149601010999992011010911304+35733-005900FM-15+0021GMTT V0202501N005110048019N0080001N1+01601+01101999999ADDGA1041+003001999GA2071+004801999GF107991999999999999999999MA1102301999999REMMET064METAR GMTT 091130Z 25010KT 8000 SCT010 BKN016 16/11 Q1023 NOSIG;
0301601010999992011010912004+35733-005900SY-MT+0021GMTT V0202701N006710048019N0080001N1+01681+01131102331ADDAA106007191AY181061AY221061GA1041+003001999GA2071+004801999GF107991071081004501999999MA1102301999999MD1010041+9999MW1031REMSYN088AAXX  09124 60101 11458 72713 10168 20113 40233 50004 60071 70382 878// 333 83810 87816;MET075METAR GMTT 091200Z 27013KT 8000 SCT010 BKN016 17/12 Q1023 TEMPO 3000 -SHRA;
0149601010999992011010912304+35733-005900FM-15+0021GMTT V0202701N006710048019N0080001N1+01701+01201999999ADDGA1041+003001999GA2071+004801999GF107991999999999999999999MA1102301999999REMMET064METAR GMTT 091230Z 27013KT 8000 SCT010 BKN016 17/12 Q1023 NOSIG;
