0128601010999991985010100004+35733-005900SY-MT+0021GMTT V0209991C00001220001CN0100001N1+00621+00361102481ADDAA106000091AG10000AY101061GF100991001001999999001001MA1102401999999MD1110011+9999MW1021REMMET010CAVOK NSG?EQDQ01+000000PRSWM2
0063601010999991985010100304+35733-005900FM-15+0021GMTT V0209991C00001999991CY0099001N1+00601+00401999999ADDAG11999MA1102401999999REMMET010CAVOK NSG?EQDQ01+000000PRSWM2
0063601010999991985010101004+35733-005900FM-15+0021GMTT V0209991C00001999991CY0099001N1+00601+00301999999ADDAG11999MA1102401999999REMMET010CAVOK NSG?EQDQ01+000000PRSWM2
0063601010999991985010102304+35733-005900FM-15+0021GMTT V0209991C00001999991CY0099001N1+00601+00301999999ADDAG12000MA1102301999999REMMET010CAVOK NSG?EQDQ01+000000PRSWM2
0128601010999991985010103004+35733-005900SY-MT+0021GMTT V0200801N00311220001CN0100001N1+00521+00231102431ADDAA106000091AG12000AY101031GF100991001001999999001001MA1102401999999MD1610031+9999MW1021REMMET010CAVOK NSG?EQDQ01+000000PRSWM2
0063601010999991985010103304+35733-005900FM-15+0021GMTT V0200801N00311999991CY0099001N1+00501+00201999999ADDAG11999MA1102401999999REMMET010CAVOK NSG?EQDQ01+000000PRSWM2
0063601010999991985010105304+35733-005900FM-15+0021GMTT V0200801N00261999991CY0099001N1+00501+00201999999ADDAG12000MA1102401999999REMMET010CAVOK NSG?EQDQ01+000000PRSWM2
0158601010999991985010106004+35733-005900SY-MT+0021GMTT V0201001N00261220001CN0100001N1+00471+00111102261ADDAA106000091AG10000AY101061GF100991001001999999001001KA1120N+00471MA1102201999999MD1610261+9999MW1021REMSYN011333   20047MET010CAVOK NSG?EQDQ01+000000PRSWM2
0063601010999991985010106304+35733-005900FM-15+0021GMTT V0200801N00311999991CY0099001N1+00401+00101999999ADDAG12999MA1102201999999REMMET010CAVOK NSG?EQDQ01+000000PRSWM2
0065601010999991985010107004+35733-005900FM-15+0021GMTT V0201001N00261999991CY0099001N1+00501+00101999999ADDAG12999MA1102201999999REMMET012CAVOK NSGJV?EQDQ01+000000PRSWM2
0063601010999991985010108004+35733-005900FM-15+0021GMTT V0201001N00261999991CY0099001N1+00401+00101999999ADDAG12999MA1102201999999REMMET010CAVOK NSG?EQDQ01+000000PRSWM2
0063601010999991985010108304+35733-005900FM-15+0021GMTT V0201001N00261999991CY0099001N1+00401+00101999999ADDAG12000MA1102201999999REMMET010CAVOK NSG?EQDQ01+000000PRSWM2
0130601010999991985010109004+35733-005900SY-MT+0021GMTT V0209991C00001220001CN0150001N1+00521-00071102441ADDAA106000091AG14000AY101031GF100991001001999999001001MA1102401999999MD1310191+9999MW1021REMMET012CAVOK NOSIG?EQDQ01+000000PRSWM2
0065601010999991985010110304+35733-005900FM-15+0021GMTT V0209991C00001999991CY0099001N1+00801+00101999999ADDAG12999MA1102401999999REMMET012CAVOK NOSIG?EQDQ01+000000PRSWM2
0073601010999991985010111004+35733-005900FM-15+0021GMTT V0209991C00001220001CN0112001N1+01301+00501999999ADDAG12999GA1021+004809089MA1102401999999REMMET004NSG?EQDQ01+000000PRSWM2
0111601010999991985010112004+35733-005900FM-12+0021GMTT V0202401N00261220001CN0150001N9+01581+00951102361ADDAA106000091AG10000AY101061GA1021+004809089GF102991021021004501001001MD1810071+9999MW1021REMSYN011333   82816
0073601010999991985010112304+35733-005900FM-15+0021GMTT V0202401N00261220001CN0112001N1+01601+01001999999ADDAG12999GA1021+004809089MA1102301999999REMMET004NSG?EQDQ01+000000PRSWM2
0060601010999991985010113004+35733-005900FM-15+0021GMTT V0200601N00621220001CN0112001N1+01601+01001999999ADDAG12999GA1011+004809089MA1102301999999EQDQ01+000000PRSWM2
0060601010999991985010113304+35733-005900FM-15+0021GMTT V0200601N00621220001CN0112001N1+01601+01001999999ADDAG12999GA1011+004809089MA1102301999999EQDQ01+000000PRSWM2
0060601010999991985010114004+35733-005900FM-15+0021GMTT V0200801N01131220001CN0112001N1+01601+00601999999ADDAG12999GA1011+004809089MA1102201999999EQDQ01+000000PRSWM2
0155601010999991985010115004+35733-005900SY-MT+0021GMTT V0200601N01131220001CN0150001N1+01631+00521102171ADDAA106000091AG14000AY101031GA1011+004809089GF101991011021004501001021MA1102101999999MD1810191+9999MW1021REMSYN011333   81816MET004NSG?EQDQ01+000000PRSWM2
0073601010999991985010115304+35733-005900FM-15+0021GMTT V0200601N01131220001CN0112001N1+01601+00501999999ADDAG12999GA1011+004809089MA1102101999999REMMET004NSG?EQDQ01+000000PRSWM2
0060601010999991985010116004+35733-005900FM-15+0021GMTT V0200801N01131220001CN0112001N1+01601+00501999999ADDAG12999GA1011+004809089MA1102101999999EQDQ01+000000PRSWM2
0073601010999991985010116304+35733-005900FM-15+0021GMTT V0200801N01131220001CN0112001N1+01601+00501999999ADDAG12999GA1011+004809089MA1102101999999REMMET004NSG?EQDQ01+000000PRSWM2
0068601010999991985010117304+35733-005900FM-15+0021GMTT V0200801N00821220001CN0112001N1+01501+00701999999ADDAG12000GA1011+004809089MA1102101999999OC101241EQDQ01+000000PRSWM2
0060601010999991985010118004+35733-005900FM-15+0021GMTT V0200801N00621220001CN0112001N1+01201+00801999999ADDAG12000GA1011+004809089MA1102201999999EQDQ01+000000PRSWM2
0060601010999991985010118304+35733-005900FM-15+0021GMTT V0200801N00621220001CN0112001N1+01201+00801999999ADDAG12999GA1011+004809089MA1102201999999EQDQ01+000000PRSWM2
0060601010999991985010119304+35733-005900FM-15+0021GMTT V0200801N00511220001CN0112001N1+01001+00801999999ADDAG12999GA1011+004809089MA1102201999999EQDQ01+000000PRSWM2
0063601010999991985010120004+35733-005900FM-15+0021GMTT V0209991C00001999991CY0099001N1+00901+00601999999ADDAG12999MA1102201999999REMMET010CAVOK NSG?EQDQ01+000000PRSWM2
0063601010999991985010120304+35733-005900FM-15+0021GMTT V0209991C00001999991CY0099001N1+00901+00601999999ADDAG12000MA1102201999999REMMET010CAVOK NSG?EQDQ01+000000PRSWM2
0128601010999991985010121004+35733-005900SY-MT+0021GMTT V0209991C00001220001CN0150001N1+00851+00561102221ADDAA106000091AG14000AY101031GF100991001001999999001001MA1102201999999MD1410001+9999MW1021REMMET010CAVOK NSG?EQDQ01+000000PRSWM2
0063601010999991985010121304+35733-005900FM-15+0021GMTT V0209991C00001999991CY0099001N1+00901+00601999999ADDAG12999MA1102201999999REMMET010CAVOK NSG?EQDQ01+000000PRSWM2
0063601010999991985010122304+35733-005900FM-15+0021GMTT V0209991C00001999991CY0099001N1+00801+00501999999ADDAG12999MA1102101999999REMMET010CAVOK NSG?EQDQ01+000000PRSWM2
0063601010999991985010123004+35733-005900FM-15+0021GMTT V0209991C00001999991CY0099001N1+00701+00401999999ADDAG12999MA1102101999999REMMET010CAVOK NSG?EQDQ01+000000PRSWM2
0063601010999991985010123304+35733-005900FM-15+0021GMTT V0209991C00001999991CY0099001N1+00701+00401999999ADDAG12000MA1102101999999REMMET010CAVOK NSG?EQDQ01+000000PRSWM2
0128601010999991985010200004+35733-005900SY-MT+0021GMTT V0200801N00211220001CN0150001N1+00561+00421102171ADDAA106000091AG14000AY101061GF100991001001999999001001MA1102101999999MD1610081+9999MW1021REMMET010CAVOK NSG?EQDQ01+000000PRSWM2
0065601010999991985010201304+35733-005900FM-15+0021GMTT V0201201N00211999991CY0099001N1+00501+00301999999ADDAG11999MA1102101999999REMMET012CAVOK NOSIG?EQDQ01+000000PRSWM2
0065601010999991985010202004+35733-005900FM-15+0021GMTT V0209991C00001999991CY0099001N1+00501+00301999999ADDAG11999MA1102101999999REMMET012CAVOK NOSIG?EQDQ01+000000PRSWM2
0065601010999991985010202304+35733-005900FM-15+0021GMTT V0209991C00001999991CY0099001N1+00501+00301999999ADDAG12000MA1102101999999REMMET012CAVOK NOSIG?EQDQ01+000000PRSWM2
0130601010999991985010203004+35733-005900SY-MT+0021GMTT V0200801N00511220001CN0150001N1+00511+00421102001ADDAA106000091AG14000AY101031GF100991001001999999001001MA1102001999999MD1810101+9999MW1021REMMET012CAVOK NOSIG?EQDQ01+000000PRSWM2
0065601010999991985010204004+35733-005900FM-15+0021GMTT V0201001N00311999991CY0099001N1+00501+00401999999ADDAG12999MA1102001999999REMMET012CAVOK NOSIG?EQDQ01+000000PRSWM2
0065601010999991985010204304+35733-005900FM-15+0021GMTT V0201001N00261999991CY0099001N1+00501+00401999999ADDAG12999MA1102001999999REMMET012CAVOK NOSIG?EQDQ01+000000PRSWM2
0065601010999991985010205004+35733-005900FM-15+0021GMTT V0209991C00001999991CY0099001N1+00501+00201999999ADDAG12999MA1101901999999REMMET012CAVOK NOSIG?EQDQ01+000000PRSWM2
0065601010999991985010205304+35733-005900FM-15+0021GMTT V0209991C00001999991CY0099001N1+00501+00201999999ADDAG12000MA1101901999999REMMET012CAVOK NOSIG?EQDQ01+000000PRSWM2
0108601010999991985010206004+35733-005900FM-12+0021GMTT V0201001N00101220001CN0100001N9+00301+00121101921ADDAA106000091AG14000AY101061GF100991001001999999001001KA1120N+00281MD1610151+9999MW1021REMSYN011333   20028
0058601010999991985010206304+35733-005900FM-15+0021GMTT V0209991C00001999991CY0099001N1+00301+00101999999ADDAG12999MA1101901999999REMMET005CAVOKEQDQ01+000000PRSWM2
0058601010999991985010207004+35733-005900FM-15+0021GMTT V0200801N00211999991CY0099001N1+00301+00101999999ADDAG12999MA1101901999999REMMET005CAVOKEQDQ01+000000PRSWM2
0058601010999991985010207304+35733-005900FM-15+0021GMTT V0200801N00211999991CY0099001N1+00301+00101999999ADDAG12999MA1101901999999REMMET005CAVOKEQDQ01+000000PRSWM2
0058601010999991985010208004+35733-005900FM-15+0021GMTT V0201001N00311999991CY0099001N1+00401+00201999999ADDAG12999MA1101901999999REMMET005CAVOKEQDQ01+000000PRSWM2
0058601010999991985010208304+35733-005900FM-15+0021GMTT V0201001N00311999991CY0099001N1+00401+00201999999ADDAG12000MA1101901999999REMMET005CAVOKEQDQ01+000000PRSWM2
0161601010999991985010209004+35733-005900SY-MT+0021GMTT V0201001N00101220001CN0150001N1+00351+00201101951ADDAA106000091AG14000AY101031GA1031+069009009GF103991001001999999001021MA1101901999999MD1310031+9999MW1021REMSYN011333   83073MET010CAVOK NSG?EQDQ01+000000PRSWM2
0063601010999991985010209304+35733-005900FM-15+0021GMTT V0200801N00101999991CY0099001N1+00401+00201999999ADDAG12999MA1101901999999REMMET010CAVOK NSG?EQDQ01+000000PRSWM2
0063601010999991985010210004+35733-005900FM-15+0021GMTT V0209991C00001999991CY0099001N1+00901+00601999999ADDAG12999MA1101901999999REMMET010CAVOK NSG?EQDQ01+000000PRSWM2
0058601010999991985010210304+35733-005900FM-15+0021GMTT V0201801N00311999991CY0099001N1+00901+00601999999ADDAG12999MA1101901999999REMMET005CAVOKEQDQ01+000000PRSWM2
0065601010999991985010211004+35733-005900FM-15+0021GMTT V0201801N00311999991CY0099001N1+01201+00401999999ADDAG12999MA1101901999999REMMET012CAVOK NOSIG?EQDQ01+000000PRSWM2
0065601010999991985010211304+35733-005900FM-15+0021GMTT V0201801N00311999991CY0099001N1+01201+00401999999ADDAG12000MA1101901999999REMMET012CAVOK NOSIG?EQDQ01+000000PRSWM2
0183601010999991985010212004+35733-005900SY-MT+0021GMTT V0202001N00511220001CN0150001N1+01501+00701101881ADDAA106000091AG14000AY101061GA1011+004809059GA2031+069009009GF103991011051999999001021MA1101801999999MD1810061+9999MW1021REMSYN017333   81616 83073EQDQ01+000992SCOLCBQ02+000000PRSWM2
0091601010999991985010213304+35733-005900FM-15+0021GMTT V0202201N00411220001CN0112001N1+01501+00701999999ADDAG12999GA1011+004809059GA2041+069009009MA1101801999999REMMET006NOSIG?EQDQ01+000000PRSWM2
0091601010999991985010214004+35733-005900FM-15+0021GMTT V0202401N00411220001CN0112001N1+01501+00701999999ADDAG12999GA1011+004809059GA2041+069009009MA1101691999999REMMET006NOSIG?EQDQ01+000000PRSWM2
0156601010999991985010215004+35733-005900SY-MT+0021GMTT V0202601N00311220001CN0150001N1+01501+01001101701ADDAA106000091AG14000AY101031GA1041+069009009GF104991001001999999001021MA1101691999999MD1610181+9999MW1021REMSYN011333   84073MET005CAVOKEQDQ01+000000PRSWM2
0058601010999991985010215304+35733-005900FM-15+0021GMTT V0202601N00311999991CY0099001N1+01501+01001999999ADDAG12999MA1101691999999REMMET005CAVOKEQDQ01+000000PRSWM2
0058601010999991985010216304+35733-005900FM-15+0021GMTT V0202401N00261999991CY0099001N1+01501+01001999999ADDAG12999MA1101591999999REMMET005CAVOKEQDQ01+000000PRSWM2
0091601010999991985010217004+35733-005900FM-15+0021GMTT V0202601N00211069001CN0112001N1+01401+01001999999ADDAG12999GA1021+004809059GA2041+069009009MA1101591999999REMMET006NOSIG?EQDQ01+000000PRSWM2
0091601010999991985010217304+35733-005900FM-15+0021GMTT V0202401N00211069001CN0112001N1+01401+01001999999ADDAG12000GA1021+004809059GA2041+069009009MA1101591999999REMMET006NOSIG?EQDQ01+000000PRSWM2
0174601010999991985010218004+35733-005900SY-MT+0021GMTT V0202401N002119999999N0180001N1+01211+00961101661ADDAA106000091AG10000GA1041+069009009GF199999021051004501001021KA1120M+01501MA1101591999999MD1610041+9999MW1001REMSYN023333   10150 22616 84073MET006NOSIG?EQDQ01+000000PRSWM2
0089601010999991985010219004+35733-005900FM-15+0021GMTT V0209991C00001220001CN0112001N1+01101+00901999999ADDAG12999GA1011+004809059GA2041+060009009MA1101591999999REMMET004NSG?EQDQ01+000000PRSWM2
0089601010999991985010219304+35733-005900FM-15+0021GMTT V0209991C00001220001CN0112001N1+01101+00901999999ADDAG12999GA1011+004809059GA2041+060009009MA1101591999999REMMET004NSG?EQDQ01+000000PRSWM2
0089601010999991985010220004+35733-005900FM-15+0021GMTT V0209991C00001220001CN0112001N1+00701+00601999999ADDAG12999GA1011+004809059GA2041+069009009MA1101691999999REMMET004NSG?EQDQ01+000000PRSWM2
0057601010999991985010220304+35733-005900FM-15+0021GMTT V0209991C00001220001CN0112001N1+01101-00202999999ADDAG12000MA1101691999999REMMET004NSG?EQDQ01+000000PRSWM2
0133601010999991985010221004+35733-005900FM-12+0021GMTT V0209991C00001220001CN0100001N9+00631+00561101711ADDAA106000091AG14000AY101031GA1011+004809059GA2041+069009009GF104991011051004501001021MD1010051+9999MW1021REMSYN017333   81616 84073
0089601010999991985010221304+35733-005900FM-15+0021GMTT V0209991C00001220001CN0112001N1+00601+00601999999ADDAG12999GA1011+004809059GA2041+069009009MA1101691999999REMMET004NSG?EQDQ01+000000PRSWM2
0089601010999991985010222004+35733-005900FM-15+0021GMTT V0201001N00211220001CN0112001N1+00501+00401999999ADDAG12999GA1011+004809059GA2041+069009009MA1101691999999REMMET004NSG?EQDQ01+000000PRSWM2
0089601010999991985010222304+35733-005900FM-15+0021GMTT V0201001N00211220001CN0112001N1+00501+00401999999ADDAG12999GA1011+004809059GA2041+069009009MA1101691999999REMMET004NSG?EQDQ01+000000PRSWM2
0089601010999991985010223004+35733-005900FM-15+0021GMTT V0201001N00311220001CN0112001N1+00501+00501999999ADDAG12999GA1011+004809059GA2041+069009009MA1101591999999REMMET004NSG?EQDQ01+000000PRSWM2
0089601010999991985010223304+35733-005900FM-15+0021GMTT V0201001N00311220001CN0112001N1+00501+00501999999ADDAG12000GA1011+004809059GA2041+069009009MA1101591999999REMMET004NSG?EQDQ01+000000PRSWM2
0161601010999991985010300004+35733-005900SY-MT+0021GMTT V0201001N00101220001CN0100001N1+00451+00331101641ADDAA106000091AG14000AY101061GA1031+069009009GF103991001001999999001021MA1101591999999MD1810071+9999MW1021REMSYN011333   83073MET010CAVOK NSG?EQDQ01+000000PRSWM2
0063601010999991985010300304+35733-005900FM-15+0021GMTT V0201001N00101999991CY0099001N1+00501+00301999999ADDAG11999MA1101591999999REMMET010CAVOK NSG?EQDQ01+000000PRSWM2
0058601010999991985010301004+35733-005900FM-15+0021GMTT V0209991C00001999991CY0099001N1+00501+00301999999ADDAG11999MA1101591999999REMMET005CAVOKEQDQ01+000000PRSWM2
0058601010999991985010301304+35733-005900FM-15+0021GMTT V0209991C00001999991CY0099001N1+00501+00301999999ADDAG11999MA1101591999999REMMET005CAVOKEQDQ01+000000PRSWM2
0058601010999991985010302004+35733-005900FM-15+0021GMTT V0209991C00001999991CY0099001N1+00501+00301999999ADDAG11999MA1101591999999REMMET005CAVOKEQDQ01+000000PRSWM2
0058601010999991985010302304+35733-005900FM-15+0021GMTT V0209991C00001999991CY0099001N1+00501+00301999999ADDAG12000MA1101591999999REMMET005CAVOKEQDQ01+000000PRSWM2
0148601010999991985010303004+35733-005900SY-MT+0021GMTT V0209991C00001220001CN0100001N1+00521+00241101621ADDAA106000091AG10000AY101031GA1031+069009009GF103991001001999999001021MD1710021+9999MW1021REMSYN011333   83073MET012CAVOK 10WVR?EQDQ01+000000PRSWM2
0058601010999991985010304004+35733-005900FM-15+0021GMTT V0209991C00001999991CY0099001N1+00501+00301999999ADDAG12999MA1101591999999REMMET005CAVOKEQDQ01+000000PRSWM2
0058601010999991985010304304+35733-005900FM-15+0021GMTT V0209991C00001999991CY0099001N1+00501+00301999999ADDAG12999MA1101591999999REMMET005CAVOKEQDQ01+000000PRSWM2
0058601010999991985010305004+35733-005900FM-15+0021GMTT V0201201N00211999991CY0099001N1+00801+00101999999ADDAG12999MA1101491999999REMMET005CAVOKEQDQ01+000000PRSWM2
0058601010999991985010305304+35733-005900FM-15+0021GMTT V0201201N00211999991CY0099001N1+00801+00101999999ADDAG12000MA1101491999999REMMET005CAVOKEQDQ01+000000PRSWM2
0175601010999991985010306004+35733-005900SY-MT+0021GMTT V0201201N00211220001CN0100001N1+00921+00241101471ADDAA106000091AG10000AY101061GA1031+069009009GF103991001001999999001021KA1120N+00431MA1101391999999MD1710151+9999MW1021REMSYN017333   20043 83073MET005CAVOKEQDQ01+000000PRSWM2
0065601010999991985010307004+35733-005900FM-15+0021GMTT V0201201N00211999991CY0099001N1+00801+00301999999ADDAG12999MA1101391999999REMMET012CAVOK NOSIG?EQDQ01+000000PRSWM2
0065601010999991985010307304+35733-005900FM-15+0021GMTT V0201601N00311999991CY0099001N1+00801+00301999999ADDAG12999MA1101391999999REMMET012CAVOK NOSIG?EQDQ01+000000PRSWM2
0065601010999991985010308004+35733-005900FM-15+0021GMTT V0201601N00311999991CY0099001N1+00801+00001999999ADDAG12999MA1101391999999REMMET012CAVOK NOSIG?EQDQ01+000000PRSWM2
0091601010999991985010308304+35733-005900FM-15+0021GMTT V0201601N00511069001CN0112001N1+00801+00301999999ADDAG12000GA1021+004809059GA2051+069009009MA1101391999999REMMET006NOSIG?EQDQ01+000000PRSWM2
0133601010999991985010309004+35733-005900FM-12+0021GMTT V0201801N00621069001CN0100001N9+01041+00611101501ADDAA106000091AG14000AY101031GA1031+004809059GA2051+069009009GF106991031051004501001021MD1310031+9999MW1021REMSYN017333   83616 85073
0091601010999991985010309304+35733-005900FM-15+0021GMTT V0201801N00621069001CN0112001N1+01001+00601999999ADDAG12999GA1031+004809059GA2051+069009009MA1101491999999REMMET006NOSIG?EQDQ01+000000PRSWM2
0091601010999991985010310004+35733-005900FM-15+0021GMTT V0201801N00621069001CN0112001N1+01201+00601999999ADDAG12999GA1041+004809089GA2041+069009009MA1101491999999REMMET006NOSIG?EQDQ01+000000PRSWM2
0060601010999991985010311004+35733-005900FM-15+0021GMTT V0201801N01031004801CN0112001N1+01401+00301999999ADDAG12999GA1051+004809089MA1101491999999EQDQ01+000000PRSWM2
0111601010999991985010312004+35733-005900FM-12+0021GMTT V0201801N01031036001CN0100001N9+01521+00501101471ADDAA106000091AG14000AY101061GA1041+004809089GF105991041021004501081021MD1810031+9999MW1021REMSYN011333   84816
0099601010999991985010313004+35733-005900FM-15+0021GMTT V0202001N00821220001CN0112001N1+01501+00501999999ADDAG12999GA1021+004809089GA2031+069009009MA1101391999999OC101441REMMET006NOSIG?EQDQ01+000000PRSWM2
0099601010999991985010313304+35733-005900FM-15+0021GMTT V0202001N01031220001CN0112001N1+01501+00501999999ADDAG12999GA1021+004809089GA2031+069009009MA1101391999999OC101541REMMET006NOSIG?EQDQ01+000000PRSWM2
0065601010999991985010314004+35733-005900FM-15+0021GMTT V0202001N00771999991CY0099001N1+01701+00801999999ADDAG12999MA1101291999999REMMET012CAVOK NOSIG?EQDQ01+000000PRSWM2
0156601010999991985010315004+35733-005900SY-MT+0021GMTT V0202001N00671220001CN0150001N1+01731+00611101291ADDAA106000091AG14000AY101031GA1041+069009009GF104991001001999999001021MA1101191999999MD1710171+9999MW1021REMSYN011333   84073MET005CAVOKEQDQ01+000000PRSWM2
0063601010999991985010317004+35733-005900FM-15+0021GMTT V0202001N00721999991CY0099001N1+01501+00301999999ADDAG12999MA1101191999999REMMET010CAVOK NSG?EQDQ01+000000PRSWM2
0130601010999991985010318004+35733-005900FM-12+0021GMTT V0202001N00621220001CN0150001N9+01241+00521101281ADDAA106000091AG14000AY101061GA1041+069009009GF104991001001999999001021KA1120M+01761MD1610021+9999MW1021REMSYN017333   10176 84073
0063601010999991985010319004+35733-005900FM-15+0021GMTT V0201801N00511999991CY0099001N1+01101+00501999999ADDAG12999MA1101191999999REMMET010CAVOK NSG?EQDQ01+000000PRSWM2
0065601010999991985010320004+35733-005900FM-15+0021GMTT V0201801N00411999991CY0099001N1+01101+00501999999ADDAG12999MA1101191999999REMMET012CAVOK NOSIG?EQDQ01+000000PRSWM2
0111601010999991985010321004+35733-005900FM-12+0021GMTT V0201201N00411220001CN0150001N9+01201+00711101251ADDAA106000091AG14000AY101031GA1041+069009009GF104991001001999999001021MD1810031+9999MW1021REMSYN011333   84073
0065601010999991985010322004+35733-005900FM-15+0021GMTT V0201401N00511999991CY0099001N1+01201+00501999999ADDAG12001MA1101191999999REMMET012CAVOK NOSIG?EQDQ01+000000PRSWM2
0163601010999991985010400004+35733-005900SY-MT+0021GMTT V0201401N00511220001CN0150001N1+01341+00641101181ADDAA106000091AG14000AY101061GA1041+069009009GF104991001001999999001021MA1101081999999MD1810081+9999MW1021REMSYN011333   84073MET012CAVOK NOSIG?EQDQ01+000000PRSWM2
0133601010999991985010403004+35733-005900FM-12+0021GMTT V0201201N00511069001CN0150001N9+01131+00551101101ADDAA106000091AG10000AY101031GA1021+030009039GA2041+069009009GF105991021001999999031021MD1810081+9999MW1021REMSYN017333   82360 84073
0063601010999991985010404004+35733-005900FM-15+0021GMTT V0201201N00411999991CY0099001N1+01301+00401999999ADDAG12999MA1101021999999REMMET010CAVOK NSG?EQDQ01+000000PRSWM2
0152601010999991985010406004+35733-005900FM-12+0021GMTT V0201201N00511069001CN0150001N9+01401+00461100871ADDAA106000091AG10000AY101061GA1031+030009039GA2051+069009009GF106991031001999999031021KA1120N+00931MD1610231+9999MW1021REMSYN023333   20093 83360 85073
0063601010999991985010407004+35733-005900FM-15+0021GMTT V0201201N00511999991CY0099001N1+01401+00501999999ADDAG12999MA1100811999999REMMET010CAVOK NSG?EQDQ01+000000PRSWM2
0058601010999991985010408004+35733-005900FM-15+0021GMTT V0200801N00411999991CY0099001N1+01101+00501999999ADDAG12999MA1100811999999REMMET005CAVOKEQDQ01+000000PRSWM2
0155601010999991985010409004+35733-005900FM-12+0021GMTT V0200801N00621069001CN0150001N9+01241+00511100831ADDAA106000091AG14000AY101031GA1021+004809059GA2031+030009039GA3051+069009009GF107991021051004501031021MD1710041+9999MW1021REMSYN023333   82616 83360 85073
0089601010999991985010410004+35733-005900FM-15+0021GMTT V0200801N00411030001CN0112001N1+01301+00601999999ADDAG12999GA1041+004809059GA2051+030009039MA1100811999999REMMET004NSG?EQDQ01+000000PRSWM2
0089601010999991985010411004+35733-005900FM-15+0021GMTT V0201001N00621004801CN0112001N1+01401+00801999999ADDAG12999GA1051+004809059GA2051+030009039MA1100711999999REMMET004NSG?EQDQ01+000000PRSWM2
0133601010999991985010412004+35733-005900FM-12+0021GMTT V0201401N00931004801CN0150001N9+01861+00571100611ADDAA106999929AG10002AY161061GA1051+004809059GA2051+030009049GF107991051051004501071021MD1810211+9999MW1211REMSYN017333   85616 85460
0108601010999991985010415004+35733-005900FM-12+0021GMTT V0201801N00931004801CN0150001N9+01951+01041100301ADDAG12000GA1051+004809059GA2071+030009049GF107991051051004501071999MD1810301+9999REMSYN017333   85616 87460
0091601010999991985010416004+35733-005900FM-15+0021GMTT V0202201N00721004801CN0112001N1+01601+01001999999ADDAG12999GA1051+004809059GA2071+030009039MA1100411999999REMMET006NOSIG?EQDQ01+000000PRSWM2
0091601010999991985010416304+35733-005900FM-15+0021GMTT V0202201N00721004801CN0112001N1+01601+01001999999ADDAG12999GA1051+004809059GA2071+030009039MA1100411999999REMMET006NOSIG?EQDQ01+000000PRSWM2
0056601010999991985010416454+35733-005900FM-15+0021GMTT V0202001N01851004801CN0070001N1+99999+99999999999ADDAG12999GA1051+004809059GA2071+030009039MW1611OC102681
0086601010999991985010417004+35733-005900FM-15+0021GMTT V0202201N01541004801CN0080001N1+01601+01001999999ADDAG12999GA1051+004809059GA2071+030009039MA1100411999999MW1611OC102061REMMET006NOSIG?
0115601010999991985010417304+35733-005900FM-15+0021GMTT V0201801N01851004801CN0080001N1+01601+01001999999ADDAG12000GA1021+003009079GA2051+004809089GA3071+030009039MA1100411999999OC102571REMMET006NOSIG?EQDQ01+000000PRSWM2
0174601010999991985010418004+35733-005900FM-12+0021GMTT V0201801N01641004801CN0280001N9+01351+01071100391ADDAA199001091AG10003AY161061GA1031+003009079GA2051+004809089GA3071+030009049GF108991061021000751071999KA1120M+01951MD1010091+9999MW1251REMSYN029333   10195 83710 85816 87460
0115601010999991985010418304+35733-005900FM-15+0021GMTT V0201601N01541004801CN0080001N1+01401+01101999999ADDAG12999GA1031+003009079GA2051+004809089GA3071+030009039MA1100311999999OC102061REMMET006NOSIG?EQDQ01+000000PRSWM2
0115601010999991985010419004+35733-005900FM-15+0021GMTT V0201801N01541004801CN0080001N1+01301+01101999999ADDAG12999GA1031+003009079GA2051+004809089GA3071+030009039MA1100411999999OC102061REMMET006NOSIG?EQDQ01+000000PRSWM2
0113601010999991985010419304+35733-005900FM-15+0021GMTT V0202001N01291004801CN0080001N1+01301+01101999999ADDAG12999GA1031+003009079GA2051+004809089GA3071+030009039MA1100411999999OC101801REMMET004NSG?EQDQ01+000000PRSWM2
0105601010999991985010420004+35733-005900FM-15+0021GMTT V0201801N00931004801CN0080001N1+01301+01001999999ADDAG12999GA1031+003009079GA2051+004809089GA3071+030009039MA1100411999999REMMET004NSG?EQDQ01+000000PRSWM2
0113601010999991985010420304+35733-005900FM-15+0021GMTT V0201801N01441003901CN0060001N1+01301+01001999999ADDAG12000GA1031+002409079GA2051+003909089GA3071+027009039MA1100411999999OC102061REMMET004NSG?EQDQ01+000000PRSWM2
0174601010999991985010421004+35733-005900FM-12+0021GMTT V0201801N01441003901CN0050001N9+01301+01041100411ADDAA106999999AG14003AY161031GA1031+003009079GA2051+003909089GA3071+024009049GF108991061021002501071999MD1110021+9999MW1611REMSYN023333   83710 85813 87458EQDQ01  00002PRCP06
0100601010999991985010422004+35733-005900FM-15+0021GMTT V0201801N01541003901CN0050001N1+01201+01101999999ADDAG12999GA1031+002409079GA2051+003909089GA3071+027009049MA1100411999999MW1811OC102061REMMET004NSG?
0100601010999991985010422304+35733-005900FM-15+0021GMTT V0201801N01541003901CN0050001N1+01201+01101999999ADDAG12999GA1031+002409079GA2051+003909089GA3071+027009049MA1100411999999MW1611OC102061REMMET004NSG?
0064601010999991985010422404+35733-005900FM-16+0021GMTT V0201801N00511003901CN0050001N1+99999+99999999999ADDAG12999GA1031+002409079GA2051+003909089GA3071+024009039MW1611
0079601010999991985010423004+35733-005900FM-15+0021GMTT V0201801N00511003901CN0050001N1+01101+01101999999ADDAG12999GA1031+002409079GA2051+003909089GA3071+024009039MA1100411999999MW1611
0079601010999991985010423304+35733-005900FM-15+0021GMTT V0201801N00511003901CN0050001N1+01101+01101999999ADDAG12003GA1031+002409079GA2051+003909089GA3071+024009039MA1100411999999MW1611
0172601010999991985010500004+35733-005900SY-MT+0021GMTT V0201401N00211003901CN0050001N1+01141+01041100601ADDAA106006091AG10012AY191061GA1031+003009079GA2051+003909089GA3031+006009099GF108991081091002501999999MD1210061+9999MW1951REMSYN023333   83710 86813 83920MET011//// //// ?
0092601010999991985010501304+35733-005900FM-15+0021GMTT V0201801N01031003901CN0050001N1+01101+01001999999ADDAG11999GA1031+002409079GA2061+003909089GA3031+006009099MA1100611999999MW1171REMMET004NSG?
0092601010999991985010502004+35733-005900FM-15+0021GMTT V0201801N00931003901CN0080001N1+99999+99999999999ADDAG11999GA1011+002409079GA2051+003909089GA3021+006909099MA1100611999999MW1291REMMET004NSG?
0199601010999991985010503004+35733-005900SY-MT+0021GMTT V0201801N01231006901CN0080001N1+00971+00971100601ADDAA106000091AG14008AY191031GA1041+003909089GA2011+006909099GA3071+024009039GF108991041091004501071999MA1100611999999MD1010001+9999MW1011REMSYN023333   84813 81923 87458MET004NSG?EQDQ01+000000PRSWM2
0113601010999991985010504304+35733-005900FM-15+0021GMTT V0201801N01441006901CN0080001N1+99999+99999999999ADDAG12999GA1041+003909089GA2011+006909099GA3071+024009039MA1100511999999OC102061REMMET004NSG?EQDQ01+000000PRSWM2
0113601010999991985010505004+35733-005900FM-15+0021GMTT V0201601N01341006901CN0080001N1+01101+00901999999ADDAG12999GA1041+003909089GA2011+006909099GA3071+024009039MA1100311999999OC101651REMMET004NSG?EQDQ01+000000PRSWM2
0113601010999991985010505304+35733-005900FM-15+0021GMTT V0201601N01341006901CN0080001N1+01101+00901999999ADDAG12000GA1041+003909089GA2011+006909099GA3071+024009039MA1100311999999OC101651REMMET004NSG?EQDQ01+000000PRSWM2
0199601010999991985010506004+35733-005900SY-MT+0021GMTT V0201401N01031006901CN0080001N1+01091+00951100301ADDAA124009091AG12003AY191061GA1041+003909089GA2011+006909099GA3071+024009039GF108991041091004501071999KA1120N+01071MA1100311999999MD1710321+9999MW1611REMSYN029333   20107 84813 81923 87458MET004NSG?
0099601010999991985010507004+35733-005900FM-15+0021GMTT V0201601N011319999999N9999999N9+99999+99999999999ADDAG12999REMMET0456PP YQRA 4CUS01 WCBPWE UCAS080QQFQPQPPW OSIG?EQDQ01+000002VOVAR Q02+000000PRSWM2
0102601010999991985010508004+35733-005900FM-15+0021GMTT V0201801N01441006901CN0060001N1+01201+01001999999ADDAG12999GA1041+003909089GA2021+006909099GA3071+024009039MA1100101999999MW1631OC101851REMMET006NOSIG?
0088601010999991985010508304+35733-005900FM-15+0021GMTT V0201801N01441003901CN0060001N1+01201+99999999999ADDAG12005GA1031+002409079GA2051+003909089GA3071+024009039MW1631OC101851REMMET007101001?
0147601010999991985010509004+35733-005900SY-MT+0021GMTT V0201801N01441003901CN0060001N1+01151+01051100151ADDAG12005AY161031GA1021+001809079GA2051+003909089GA3071+024009039GF108991051021002501071999MA1100101999999MD1610151+9999MW1631REMSYN011333   82706
0087601010999991985010509304+35733-005900FM-15+0021GMTT V0201601N017510240019N0050001N1+01201+01101999999ADDAG12999GA1031+001809079GA2081+024009049GA3051+999999089MA1100101999999MW1211OC102321
0103601010999991985010510004+35733-005900FM-15+0021GMTT V0201801N025719999999N9999999N9+99999+99999999999ADDAG12999GA1031+001809079GA2061+999999089MW1211OC103351REMMET0192CBPWP QWXQQ QPPQV?EQDQ01+000002VOVAR 
0115601010999991985010511004+35733-005900FM-15+0021GMTT V0201801N02061003901CN0070001N1+01301+01201999999ADDAG12999GA1031+001809079GA2061+003909089GA3031+006009099MA1099901999999OC102571REMMET006NOSIG?EQDQ01+000000PRSWM2
0102601010999991985010511304+35733-005900FM-15+0021GMTT V0201801N01801003901CN0060001N1+01201+01101999999ADDAG12003GA1031+001809079GA2061+003909089GA3021+006009099MA1099801999999MW1251OC102371REMMET006NOSIG?
0170601010999991985010512004+35733-005900SY-MT+0021GMTT V0201801N01751003901CN0060001N1+01221+01051099841ADDAA106012091AG10003AY161061GA1031+001809079GA2061+003909089GA3021+006009099GF108991081091002501999999MA1099801999999MD1810311+9999MW1251REMSYN023333   83706 86813 82920
0064601010999991985010513104+35733-005900FM-16+0021GMTT V0201801N00721003901CN0060001N1+99999+99999999999ADDAG12999GA1031+001809079GA2061+003909089GA3021+006909099MW1811
0079601010999991985010513304+35733-005900FM-15+0021GMTT V0201801N01031006001CN0040001N1+01501+00801999999ADDAG12999GA1031+001809079GA2061+006009059GA3021+006909099MA1099701999999MW1811
0079601010999991985010514004+35733-005900FM-15+0021GMTT V0201801N00511003901CN0080001N1+01301+01201999999ADDAG12999GA1031+001809079GA2061+003909089GA3021+006909099MA1099701999999MW1811
0144601010999991985010515004+35733-005900FM-12+0021GMTT V0202001N01031003901CN0080001N9+01431+01271099641ADDAG12003AY181031GA1021+001809079GA2051+003909089GA3011+006909099GF107991071091001501999999MD1710201+9999MW1251REMSYN023333   82706 85813 81923
0092601010999991985010515304+35733-005900FM-15+0021GMTT V0202001N00931003901CN0080001N1+01401+01301999999ADDAG12999GA1021+001809079GA2051+003909089GA3011+006909099MA1099591999999EQDQ01+000000PRSWM2
0092601010999991985010516004+35733-005900FM-15+0021GMTT V0202001N00821003901CN0080001N1+01501+01301999999ADDAG12999GA1021+000159079GA2051+003909089GA3011+006909099MA1099591999999EQDQ01+000000PRSWM2
0092601010999991985010516304+35733-005900FM-15+0021GMTT V0202001N00821003901CN0080001N1+01501+01301999999ADDAG12999GA1021+001809079GA2051+003909089GA3011+006909099MA1099591999999EQDQ01+000000PRSWM2
0174601010999991985010517004+35733-005900FM-15+0021GMTT V0202001N00931003901CN9999999N9+99999+99999999999ADDAG12999GA1021+001809079GA2051+003909089GA3011+006909099REMMET072800? 2ST006 5CUSC013 1CB023 65/13        ?     96?    7@@@@@*@@@@@@@@@46EQDQ01+000002VOVAR Q02+000000PRSWM2
0092601010999991985010517304+35733-005900FM-15+0021GMTT V0202001N00931003901CN0080001N1+01501+01301999999ADDAG12000GA1021+001809079GA2051+003909089GA3011+006909099MA1099591999999EQDQ01+000000PRSWM2
0094601010999991985010518004+35733-005900FM-15+0021GMTT V0202601N01341003901CN0080001N1+01501+01101999999ADDAG12003GA1021+001809079GA2041+003909089GA3011+006909099MA1099701999999MW1251REMMET006NOSIG?
0077601010999991985010518054+35733-005900FM-16+0021GMTT V0202401N01751003901CN0080001N1+99999+99999999999ADDAG12000GA1021+001809079GA2051+003909089GA3011+006909099EQDQ01+000000PRSWM2
0100601010999991985010520004+35733-005900FM-15+0021GMTT V0202401N01751003901CN0050001N1+01501+01101999999ADDAG12999GA1021+001809079GA2051+003909089GA3031+006909099MA1099701999999MW1811OC102061REMMET004NSG?
0100601010999991985010520304+35733-005900FM-15+0021GMTT V0202401N01541003901CN0060001N1+01501+01101999999ADDAG12003GA1021+001809079GA2061+003909089GA3031+006009099MA1099701999999MW1251OC102061REMMET004NSG?
0169601010999991985010521004+35733-005900SY-MT+0021GMTT V0202401N01801003901CN0060001N1+01461+01221099841ADDAG12003AY181031GA1021+001809079GA2061+003909089GA3031+006909099GF108991081091001501999999MD1310121+9999MW1251REMSYN023333   82706 86813 83923MET01912998NSG         ??
0113601010999991985010522304+35733-005900FM-15+0021GMTT V0202401N01801003901CN0060001N1+01501+01301999999ADDAG12999GA1021+001809079GA2061+003909089GA3031+006009099MA1099901999999OC102321REMMET004NSG?EQDQ01+000000PRSWM2
0115601010999991985010523004+35733-005900FM-15+0021GMTT V0202401N01851003901CN0080001N1+01501+01301999999ADDAG12999GA1021+001809079GA2061+003909089GA3031+006909059MA1099901999999OC102371REMMET006NOSIG?EQDQ01+000000PRSWM2
0102601010999991985010523304+35733-005900FM-15+0021GMTT V0202401N01441003901CN0060001N1+01501+01301999999ADDAG12003GA1021+001809079GA2061+003909089GA3031+006909099MA1099901999999MW1251OC101851REMMET006NOSIG?
0180601010999991985010600004+35733-005900SY-MT+0021GMTT V0202401N01341003901CN0050001N1+01331+01201099961ADDAA106012091AG10003AY181061GA1031+001809079GA2061+003909089GA3041+006009099GF108991081091001501999999MA1099901999999MD1210121+9999MW1251REMSYN023333   83706 86813 84920MET004NSG?
0071601010999991985010601004+35733-005900FM-15+0021GMTT V0202601N01131003901CN0060001N1+01301+01201999999ADDAG11999GA1031+001809079GA2061+003909089MA1099901999999MW1251OC101541
0071601010999991985010601304+35733-005900FM-15+0021GMTT V0202601N01131003901CN0060001N1+01301+01201999999ADDAG11999GA1031+001809079GA2061+003909089MA1099901999999MW1251OC101541
0071601010999991985010602004+35733-005900FM-15+0021GMTT V0202801N01131003901CN0080001N1+01301+01201999999ADDAG11999GA1051+003909089GA2021+006009099MA1100001999999MW1251OC101541
0071601010999991985010602304+35733-005900FM-15+0021GMTT V0202801N01131003901CN0080001N1+01301+01201999999ADDAG12003GA1051+003909089GA2021+006009099MA1100001999999MW1251OC101541
0156601010999991985010603004+35733-005900SY-MT+0021GMTT V0203001N01341003901CN0080001N1+01301+01111100241ADDAG12003AY181031GA1051+003909089GA2021+006009099GF106991061091004501001001MA1100201999999MD1310281+9999MW1021REMSYN017333   85813 82920EQDQ01+000000PRSWM2
0076601010999991985010604004+35733-005900FM-15+0021GMTT V0203001N01341003901CN0080001N1+01201+01001999999ADDAG12999GA1051+003909089GA2021+006009099MA1100311999999EQDQ01+000000PRSWM2
0076601010999991985010604304+35733-005900FM-15+0021GMTT V0203001N01341003901CN0080001N1+01201+01001999999ADDAG12999GA1051+003909089GA2021+006009099MA1100311999999EQDQ01+000000PRSWM2
0076601010999991985010605004+35733-005900FM-15+0021GMTT V0202801N01031003901CN0080001N1+01301+01101999999ADDAG12999GA1051+003909089GA2021+006009099MA1100411999999EQDQ01+000000PRSWM2
0076601010999991985010605304+35733-005900FM-15+0021GMTT V0202801N01031003901CN0080001N1+01301+01101999999ADDAG12000GA1051+003909089GA2021+006009099MA1100411999999EQDQ01+000000PRSWM2
0202601010999991985010606004+35733-005900SY-MT+0021GMTT V0202801N01441003901CN0100001N1+01281+00971100521ADDAA124027091AG10003AY181061GA1051+003909089GA2021+006009099GF106991061091004501001001KA1120N+01281MA1100511999999MD1110281+9999MW1021REMSYN023333   20128 85813 82920EQDQ01+000722APC3  Q02+000000PRSWM2
0091601010999991985010607004+35733-005900FM-15+0021GMTT V0202801N01131003901CN0112001N1+01201+01001999999ADDAG12999GA1051+003909059GA2021+006009099MA1100611999999REMMET006NOSIG?EQDQ01+000000PRSWM2
0091601010999991985010607304+35733-005900FM-15+0021GMTT V0202801N01031003901CN0112001N1+01201+01001999999ADDAG12999GA1051+003909059GA2011+006009099MA1100611999999REMMET006NOSIG?EQDQ01+000000PRSWM2
0091601010999991985010608004+35733-005900FM-15+0021GMTT V0202801N01131003901CN0112001N1+01301+01001999999ADDAG12999GA1051+003909059GA2011+006009099MA1100611999999REMMET006NOSIG?EQDQ01+000000PRSWM2
0091601010999991985010608304+35733-005900FM-15+0021GMTT V0202801N01031003901CN0112001N1+01301+01001999999ADDAG12000GA1051+003909059GA2011+006009099MA1100611999999REMMET006NOSIG?EQDQ01+000000PRSWM2
0165601010999991985010609004+35733-005900SY-MT+0021GMTT V0202801N00931220001CN0100001N1+01281+00841100821ADDAA106000091AG14000AY101031GA1041+004809089GF104991041021004501001001MD1210301+9999MW1021REMSYN011333   84816MET0299999 4CUSC016 13/08 1(08 NSG?EQDQ01+000000PRSWM2
0073601010999991985010610004+35733-005900FM-15+0021GMTT V0202801N00771220001CN0112001N1+01401+00901999999ADDAG12999GA1041+004809089MA1100811999999REMMET004NSG?EQDQ01+000000PRSWM2
0075601010999991985010610304+35733-005900FM-15+0021GMTT V0202801N00771220001CN0112001N1+01401+00901999999ADDAG12999GA1041+004809089MA1100811999999REMMET006NOSIG?EQDQ01+000000PRSWM2
0075601010999991985010611004+35733-005900FM-15+0021GMTT V0202601N00821004801CN0112001N1+01501+00901999999ADDAG12999GA1051+004809089MA1100911999999REMMET006NOSIG?EQDQ01+000000PRSWM2
0075601010999991985010611304+35733-005900FM-15+0021GMTT V0202801N00931004801CN0112001N1+01501+00901999999ADDAG12000GA1051+004809089MA1100911999999REMMET006NOSIG?EQDQ01+000000PRSWM2
0111601010999991985010612004+35733-005900FM-12+0021GMTT V0202601N00511004801CN0100001N9+01521+00991100881ADDAA106000091AG14000AY101061GA1051+004809089GF105991051021004501001001MD1010061+9999MW1021REMSYN011333   85816
0073601010999991985010612304+35733-005900FM-15+0021GMTT V0209999999999220001CN0112001N1+01501+01001999999ADDAG12999GA1041+006009059MA1100811999999REMMET004(,:?EQDQ01+000000PRSWM2
0105601010999991985010613004+35733-005900FM-15+0021GMTT V0202801N00721006001CN0112001N1+01501+01001999999ADDAG12999GA1021+003909089GA2041+006009059GA3011+006909099MA1100811999999REMMET004NSG?EQDQ01+000000PRSWM2
0105601010999991985010613304+35733-005900FM-15+0021GMTT V0202801N00721006001CN0112001N1+01501+01001999999ADDAG12999GA1021+003909089GA2041+006009059GA3011+006909099MA1100811999999REMMET004NSG?EQDQ01+000000PRSWM2
0089601010999991985010614004+35733-005900FM-15+0021GMTT V0202601N00511006001CN0112001N1+01501+01001999999ADDAG12001GA1021+003909089GA2031+006009059MA1100811999999REMMET004NSG?EQDQ01+000000PRSWM2
0089601010999991985010614304+35733-005900FM-15+0021GMTT V0202601N00511006001CN0112001N1+01501+01001999999ADDAG12000GA1021+003909089GA2031+006009059MA1100811999999REMMET004NSG?EQDQ01+000000PRSWM2
0179601010999991985010615004+35733-005900SY-MT+0021GMTT V0202601N00461006001CN0100001N1+01501+01021100821ADDAA106000091AG14000AY101031GA1021+003909089GA2031+006009059GF105991051081004501001001MA1100811999999MD1710061+9999MW1021REMSYN017333   82813 83620MET006NOSIG?EQDQ01+000000PRSWM2
0091601010999991985010616004+35733-005900FM-15+0021GMTT V0202601N00511004801CN0112001N1+01501+00901999999ADDAG12999GA1051+004809089GA2031+069009009MA1100711999999REMMET006NOSIG?EQDQ01+000000PRSWM2
0107601010999991985010616304+35733-005900FM-15+0021GMTT V0202601N00311004801CN0112001N1+01501+00901999999ADDAG12999GA1051+004809089GA2031+030009039GA3051+069009009MA1100711999999REMMET006NOSIG?EQDQ01+000000PRSWM2
0092601010999991985010617004+35733-005900FM-15+0021GMTT V0202601N00511004801CN0112001N1+01301+01001999999ADDAG12999GA1051+004809089GA2031+030009039GA3051+069009009MA1100711999999EQDQ01+000000PRSWM2
0092601010999991985010617304+35733-005900FM-15+0021GMTT V0202601N00511004801CN0112001N1+01301+01001999999ADDAG12000GA1051+004809089GA2031+030009039GA3051+069009009MA1100711999999EQDQ01+000000PRSWM2
0186601010999991985010618004+35733-005900SY-MT+0021GMTT V0202401N00361004801CN0100001N1+01321+01041100841ADDAA106000091AG14000AY101061GA1051+004809089GA2031+069009009GF107991051021004501001021KA1120M+01551MA1100811999999MD1310041+9999MW1021REMSYN023333   10155 85816 83073EQDQ01+000000PRSWM2
0089601010999991985010619304+35733-005900FM-15+0021GMTT V0209991C00001069001CN0112001N1+01201+01001999999ADDAG12999GA1041+004809089GA2051+069009009MA1100811999999REMMET004NSG?EQDQ01+000000PRSWM2
0089601010999991985010620004+35733-005900FM-15+0021GMTT V0200801N00211004801CN0112001N1+01101+01001999999ADDAG12999GA1051+004809089GA2031+069009009MA1100811999999REMMET004NSG?EQDQ01+000000PRSWM2
0167601010999991985010621004+35733-005900SY-MT+0021GMTT V0200801N00211004801CN0100001N1+01121+01001100801ADDAA106000091AG14000AY101031GA1051+004809089GA2031+069009009GF107991051021008001001021MA1100811999999MD1810021+9999MW1021REMSYN017333   85816 83073EQDQ01+000000PRSWM2
0076601010999991985010622004+35733-005900FM-15+0021GMTT V0201001N00211006001CN0112001N1+01101+00901999999ADDAG12999GA1061+006009089GA2031+069009009MA1100811999999EQDQ01+000000PRSWM2
0076601010999991985010622304+35733-005900FM-15+0021GMTT V0201001N00211006001CN0112001N1+01101+00901999999ADDAG12999GA1061+006009089GA2031+069009009MA1100811999999EQDQ01+000000PRSWM2
0075601010999991985010623004+35733-005900FM-15+0021GMTT V0201001N00211006001CN0112001N1+01101+00901999999ADDAG12999GA1061+006009089GA2031+069009009REMMET0051(07?EQDQ01+000000PRSWM2
0089601010999991985010623304+35733-005900FM-15+0021GMTT V0201001N00211006001CN0112001N1+01101+00901999999ADDAG12000GA1061+006009089GA2031+069009009MA1100711999999REMMET004NSG?EQDQ01+000000PRSWM2
0133601010999991985010700004+35733-005900FM-12+0021GMTT V0209991C00001004801CN0100001N9+01081+01001100561ADDAA106000091AG14000AY101061GA1061+004809089GA2031+030009049GF108991061021008001071999MD1810241+9999MW1021REMSYN017333   86816 83460
0091601010999991985010701004+35733-005900FM-15+0021GMTT V0209991C00001004801CN0112001N1+01101+01001999999ADDAG11001GA1061+004809089GA2031+030009049MA1100511999999REMMET006NOSIG?EQDQ01+000000PRSWM2
0091601010999991985010701304+35733-005900FM-15+0021GMTT V0209991C00001004801CN0112001N1+01101+01001999999ADDAG11999GA1061+004809089GA2031+030009049MA1100511999999REMMET006NOSIG?EQDQ01+000000PRSWM2
0076601010999991985010702004+35733-005900FM-15+0021GMTT V0209991C00001004801CN0112001N1+01001+00901999999ADDAG11999GA1061+004809089GA2031+030009049MA1100511999999EQDQ01+000000PRSWM2
0133601010999991985010703004+35733-005900FM-12+0021GMTT V0200601N00511027001CN0100001N9+01101+00941100471ADDAA106000091AG14000AY101031GA1041+004809089GA2061+027009049GF107991041021004501071999MD1810091+9999MW1021REMSYN017333   84816 86459
0091601010999991985010703304+35733-005900FM-15+0021GMTT V0200601N00211027001CN0112001N1+01101+00901999999ADDAG12999GA1041+004809089GA2061+027009049MA1100411999999REMMET006NOSIG?EQDQ01+000000PRSWM2
0091601010999991985010704004+35733-005900FM-15+0021GMTT V0200801N00211027001CN0112001N1+01001+00901999999ADDAG12999GA1041+004809089GA2061+027009049MA1100411999999REMMET006NOSIG?EQDQ01+000000PRSWM2
0091601010999991985010704304+35733-005900FM-15+0021GMTT V0200801N00211027001CN0112001N1+01001+00901999999ADDAG12999GA1041+004809089GA2061+027009049MA1100411999999REMMET006NOSIG?EQDQ01+000000PRSWM2
0198601010999991985010706004+35733-005900SY-MT+0021GMTT V0200601N00261027001CN0100001N1+01061+00861100261ADDAA106000091AG14000AY101061GA1041+004809089GA2061+027009049GF107991041021004501071999KA1120N+01001MA1100201999999MD1710211+9999MW1021REMSYN023333   20100 84816 86459MET006NOSIG?EQDQ01+000000PRSWM2
0089601010999991985010706304+35733-005900FM-15+0021GMTT V0200601N00261027001CN0112001N1+01101+00901999999ADDAG12999GA1041+004809089GA2061+027009039MA1100201999999REMMET004NSG?EQDQ01+000000PRSWM2
0091601010999991985010707004+35733-005900FM-15+0021GMTT V0200601N00261004801CN0112001N1+01101+00901999999ADDAG12999GA1051+004809089GA2061+027009039MA1100201999999REMMET006NOSIG?EQDQ01+000000PRSWM2
0179601010999991985010709004+35733-005900SY-MT+0021GMTT V0209991C00001027001CN0100001N1+00911+00811100321ADDAA106000091AG14000AY101031GA1041+004809059GA2061+027009039GF107991041021004501071999MA1100311999999MD1310061+9999MW1021REMSYN017333   84616 86459MET006NOSIG?EQDQ01+000000PRSWM2
0091601010999991985010710004+35733-005900FM-15+0021GMTT V0200201N00211004801CN0112001N1+01201+00901999999ADDAG12999GA1051+004809089GA2041+030009039MA1100311999999REMMET006NOSIG?EQDQ01+000000PRSWM2
0091601010999991985010711304+35733-005900FM-15+0021GMTT V0200801N00981004501CN0112001N1+01401+01301999999ADDAG12000GA1051+004509089GA2041+027009039MA1100411999999REMMET006NOSIG?EQDQ01+000000PRSWM2
0167601010999991985010712004+35733-005900SY-MT+0021GMTT V0200601N01131004801CN0100001N1+01471+01051100361ADDAA106000091AG14000AY101061GA1051+004809089GA2041+027009039GF106991051021004501031021MA1100311999999MD1010041+9999MW1021REMSYN017333   85816 84359EQDQ01+000000PRSWM2
0089601010999991985010713004+35733-005900FM-15+0021GMTT V0200601N00931027001CN0112001N1+01501+01101999999ADDAG12999GA1041+004809089GA2031+027009039MA1100311999999REMMET004NSG?EQDQ01+000000PRSWM2
0151601010999991985010715004+35733-005900SY-MT+0021GMTT V0200601N00931004801CN0150001N1+01441+00961100311ADDAA106000091AG14000AY101031GA1051+004809089GF105991051021004501031021MA1100311999999MD1810051+9999MW1021REMSYN017333   85816 83073EQDQ01+000000PRSWM2
0044601010999991985010715304+35733-005900FM-15+0021GMTT V0200601N00931220001CN0112001N1+99999+99999999999ADDAG12999MA1100311999999EQDQ01+000000PRSWM2
0063601010999991985010716004+35733-005900FM-15+0021GMTT V0200601N00721006901CN0112001N1+01401+00901999999ADDAG12999GA1021+004509089GA2061+006909059MA1100311999999MW1601
0152601010999991985010718004+35733-005900FM-12+0021GMTT V0200801N00721006901CN0150001N9+01231+00981100511ADDAA199999929AG13000AY121061GA1021+004509089GA2061+006909059GF106991061081004501001001KA1120M+01501MD1210201+9999MW1021REMSYN023333   10150 82815 86623
0091601010999991985010718304+35733-005900FM-15+0021GMTT V0200801N00721006901CN0112001N1+01201+01001999999ADDAG12999GA1021+004509089GA2061+006909059MA1100511999999REMMET006NOSIG?EQDQ01+000000PRSWM2
0091601010999991985010720004+35733-005900FM-15+0021GMTT V0200801N00511006901CN0112001N1+01101+00901999999ADDAG12999GA1021+004509089GA2061+006909059MA1100611999999REMMET006NOSIG?EQDQ01+000000PRSWM2
0179601010999991985010721004+35733-005900SY-MT+0021GMTT V0200601N00361006901CN0150001N1+01131+00931100671ADDAA106000091AG14000AY101031GA1021+004509089GA2071+006909059GF107991071081004501999999MA1100611999999MD1110161+9999MW1021REMSYN017333   82815 87623MET006NOSIG?EQDQ01+000000PRSWM2
0091601010999991985010721304+35733-005900FM-15+0021GMTT V0200601N00361006901CN0112001N1+01101+00901999999ADDAG12999GA1021+004509089GA2071+006909059MA1100611999999REMMET006NOSIG?EQDQ01+000000PRSWM2
0091601010999991985010722004+35733-005900FM-15+0021GMTT V0200601N00411006901CN0112001N1+01101+00901999999ADDAG12999GA1021+004509089GA2051+006909059MA1100711999999REMMET006NOSIG?EQDQ01+000000PRSWM2
0091601010999991985010722304+35733-005900FM-15+0021GMTT V0200601N00411006901CN0112001N1+01101+00901999999ADDAG12999GA1021+004509089GA2051+006909059MA1100711999999REMMET006NOSIG?EQDQ01+000000PRSWM2
0091601010999991985010723304+35733-005900FM-15+0021GMTT V0200801N00261006901CN0112001N1+01101+00901999999ADDAG12000GA1021+004509089GA2051+006909059MA1100711999999REMMET006NOSIG?EQDQ01+000000PRSWM2
0179601010999991985010800004+35733-005900SY-MT+0021GMTT V0200801N00101006901CN0150001N1+01031+00821100831ADDAA106000091AG14000AY101061GA1021+004509089GA2041+006909059GF105991051081004501001001MA1100811999999MD1310161+9999MW1021REMSYN017333   82815 84623MET006NOSIG?EQDQ01+000000PRSWM2
0091601010999991985010800304+35733-005900FM-15+0021GMTT V0200801N00101006901CN0112001N1+01001+00801999999ADDAG11999GA1021+004509089GA2041+006909059MA1100811999999REMMET006NOSIG?EQDQ01+000000PRSWM2
0091601010999991985010801304+35733-005900FM-15+0021GMTT V0200801N00101006901CN0112001N1+00901+00801999999ADDAG11999GA1021+004509089GA2031+006909059MA1100811999999REMMET006NOSIL?EQDQ01+000000PRSWM2
0091601010999991985010802004+35733-005900FM-15+0021GMTT V0209991C00001006901CN0112001N1+00801+00601999999ADDAG11999GA1021+004509089GA2031+006909059MA1100911999999REMMET006NOSIG?EQDQ01+000000PRSWM2
0091601010999991985010802304+35733-005900FM-15+0021GMTT V0209991C00001006901CN0112001N1+00801+00601999999ADDAG12000GA1021+004509999GA2031+006909059MA1100911999999REMMET006NOSIG?EQDQ01+000000PRSWM2
0181601010999991985010803004+35733-005900SY-MT+0021GMTT V0209991C00001006901CN0150001N1+00821+00671100971ADDAA106000091AG14000AY101031GA1021+004509089GA2041+006909059GF105991051081004501001001MA1100911999999MD1210141+9999MW1021REMSYN017333   82815 84623MET008NOSIGWV?EQDQ01+000000PRSWM2
0093601010999991985010803304+35733-005900FM-15+0021GMTT V0209991C00001006901CN0112001N1+00801+00701999999ADDAG12999GA1021+004509089GA2041+006909059MA1100911999999REMMET008NOSIGWV?EQDQ01+000000PRSWM2
0089601010999991985010804304+35733-005900FM-15+0021GMTT V0201001N00211006901CN0112001N1+00801+00601999999ADDAG12999GA1021+004509089GA2031+006909059MA1101021999999REMMET004NSG?EQDQ01+000000PRSWM2
0089601010999991985010805004+35733-005900FM-15+0021GMTT V0201001N00101006001CN0112001N1+00701+00601999999ADDAG12999GA1021+004509089GA2051+006009059MA1101021999999REMMET004NSG?EQDQ01+000000PRSWM2
0190601010999991985010806004+35733-005900SY-MT+0021GMTT V0209991C00001009001CN0150001N1+00661+00551101031ADDAA106000091AG10000AY101061GA1021+004509089GF105991051081004501001001KA1120N+00661MD1310061+9999MW1021REMSYN023333   20066 82815 84620MET0294SC0A      ?     406 10P NYG?EQDQ01+000000PRSWM2
0091601010999991985010807004+35733-005900FM-15+0021GMTT V0201201N00151006001CN0112001N1+00701+00601999999ADDAG12999GA1021+004509089GA2041+006009059MA1101021999999REMMET006NOSIG?EQDQ01+000000PRSWM2
0091601010999991985010807304+35733-005900FM-15+0021GMTT V0201201N00151006001CN0112001N1+00701+00601999999ADDAG12999GA1021+004509089GA2041+006009059MA1101021999999REMMET006NOSIG?EQDQ01+000000PRSWM2
0133601010999991985010809004+35733-005900FM-12+0021GMTT V0200801N00261006001CN0150001N9+00851+00701101221ADDAA106000091AG14000AY101031GA1021+004509089GA2041+006009059GF105991051081004501001001MD1310191+9999MW1021REMSYN017333   82815 84620
0091601010999991985010810004+35733-005900FM-15+0021GMTT V0201001N00311220001CN0112001N1+01101+00901999999ADDAG12999GA1021+004509089GA2031+006009999MA1101291999999REMMET006NOSIG?EQDQ01+000000PRSWM2
0089601010999991985010811004+35733-005900FM-15+0021GMTT V0209991C00001006001CN0112001N1+01301+00901999999ADDAG12999GA1021+004509089GA2031+006009059MA1101291999999REMMET004NSG?EQDQ01+000000PRSWM2
0177601010999991985010812004+35733-005900SY-MT+0021GMTT V0202201N00101006001CN0150001N1+01371+00921101351ADDAA106000091AG14000AY101061GA1021+004509089GA2051+006009059GF106991061081004501001001MA1101291999999MD1110131+9999MW1021REMSYN017333   82815 85620MET004NSG?EQDQ01+000000PRSWM2
0091601010999991985010813004+35733-005900FM-15+0021GMTT V0202201N00411006001CN0112001N1+01401+01001999999ADDAG12999GA1041+004509089GA2051+006009059MA1101191999999REMMET006NOSIG?EQDQ01+000000PRSWM2
0091601010999991985010813304+35733-005900FM-15+0021GMTT V0202201N00411006001CN0112001N1+01401+01001999999ADDAG12999GA1041+004509089GA2051+006009059MA1101191999999REMMET006NOSIG?EQDQ01+000000PRSWM2
0199601010999991985010815004+35733-005900SY-MT+0021GMTT V0203001N00511006001CN0100001N1+01421+00961101241ADDAA106000091AG14000AY101031GA1031+004509089GA2051+006009059GA3011+006909099GF107991071081004501999999MA1101191999999MD1610111+9999MW1021REMSYN023333   83815 85620 81923MET004NSG?EQDQ01+000000PRSWM2
0105601010999991985010815304+35733-005900FM-15+0021GMTT V0203001N00511006001CN0112001N1+01401+01001999999ADDAG12001GA1031+004509089GA2051+006009059GA3011+006909099MA1101191999999REMMET004NSG?EQDQ01+000000PRSWM2
0107601010999991985010816004+35733-005900FM-15+0021GMTT V0203001N00621006001CN0112001N1+01401+00601999999ADDAG11999GA1031+004509089GA2051+006009059GA3011+006909099MA1101191999999REMMET006NOSIG?EQDQ01+000000PRSWM2
0152601010999991985010818004+35733-005900FM-12+0021GMTT V0203001N00621006001CN0100001N9+01101+00381101401ADDAA106000091AG10000AY101061GA1021+004509089GA2051+006009059GF105991051081004501001001KA1120M+01451MD1310161+9999MW1021REMSYN023333   10145 82815 85620
0060601010999991985010819004+35733-005900FM-15+0021GMTT V0203001N00361220001CN0112001N1+01001+00401999999ADDAG12999GA1021+004509089MA1101491999999EQDQ01+000000PRSWM2
0044601010999991985010820004+35733-005900FM-15+0021GMTT V0209991C000019999999N0112001N1+00801+00401999999ADDAG12999REMMET0061 NSG?EQDQ01+000000PRSWM2
0073601010999991985010820304+35733-005900FM-15+0021GMTT V0209991C00001220001CN0112001N1+00801+00401999999ADDAG12000GA1011+004509089MA1101491999999REMMET004NSG?EQDQ01+000000PRSWM2
0157601010999991985010821004+35733-005900SY-MT+0021GMTT V0209991C00001220001CN0100001N1+00651+00341101581ADDAA106000091AG14000AY101031GA1011+004509089GF101991011021008001031001MA1101491999999MD1310181+9999MW1021REMSYN011333   81815MET006NOSIG?EQDQ01+000000PRSWM2
0075601010999991985010821304+35733-005900FM-15+0021GMTT V0209991C00001220001CN0112001N1+00701+00301999999ADDAG12001GA1011+004509089MA1101491999999REMMET006NOSIG?EQDQ01+000000PRSWM2
0065601010999991985010823004+35733-005900FM-15+0021GMTT V0209991C00001999991CY0099001N1+00401+00301999999ADDAG12999MA1101691999999REMMET012CAVOK NOSIG?EQDQ01+000000PRSWM2
0065601010999991985010823304+35733-005900FM-15+0021GMTT V0209991C00001999991CY0099001N1+00401+00301999999ADDAG12000MA1101691999999REMMET012CAVOK NOSIG?EQDQ01+000000PRSWM2
0130601010999991985010900004+35733-005900SY-MT+0021GMTT V0209991C00001220001CN0150001N1+00351+00241101711ADDAA106000091AG10000AY101061GF100991001001999999001001MA1101691999999MD1110131+9999MW1021REMMET012CAVOK NOSIG?EQDQ01+000000PRSWM2
0065601010999991985010901004+35733-005900FM-15+0021GMTT V0209991C00001999991CY0099001N1+00301+00201999999ADDAG11999MA1101691999999REMMET012CAVOK NOSIG?EQDQ01+000000PRSWM2
0058601010999991985010901304+35733-005900FM-15+0021GMTT V0209991C00001999991CY0099001N1+00301+00201999999ADDAG11999MA1101691999999REMMET005CAVOKEQDQ01+000000PRSWM2
0063601010999991985010902004+35733-005900FM-15+0021GMTT V0209991C00001999991CY0099001N1+00301+00201999999ADDAG11999MA1101691999999REMMET010CAVOK NSG?EQDQ01+000000PRSWM2
0063601010999991985010902304+35733-005900FM-15+0021GMTT V0209991C00001999991CY0099001N1+00301+00201999999ADDAG12000MA1101691999999REMMET010CAVOK NSG?EQDQ01+000000PRSWM2
0075601010999991985010903004+35733-005900FM-12+0021GMTT V0209991C00001220001CN0150001N9+00321+00241101751ADDAA106000091AG14000AY101031GF100991001001999999001001MD1110031+9999MW1021
0058601010999991985010903304+35733-005900FM-15+0021GMTT V0209991C00001999991CY0099001N1+00301+00201999999ADDAG12999MA1101691999999REMMET005CAVOKEQDQ01+000000PRSWM2
0063601010999991985010904004+35733-005900FM-15+0021GMTT V0200801N00151999991CY0099001N1+00301+00201999999ADDAG12999MA1101691999999REMMET010CAVOK NSG?EQDQ01+000000PRSWM2
0063601010999991985010904304+35733-005900FM-15+0021GMTT V0200801N00151999991CY0099001N1+00301+00201999999ADDAG12999MA1101691999999REMMET010CAVOK NSG?EQDQ01+000000PRSWM2
0063601010999991985010905304+35733-005900FM-15+0021GMTT V0209991C00001999991CY0099001N1+00301+00201999999ADDAG12000MA1101691999999REMMET010CAVOK NSG?EQDQ01+000000PRSWM2
0063601010999991985010906004+35733-005900FM-15+0021GMTT V0209991C00001999991CY0099001N1+00301+00101999999ADDAG12000MA1101691999999REMMET010CAVOK NSG?EQDQ01+000000PRSWM2
0058601010999991985010906304+35733-005900FM-15+0021GMTT V0209991C00001999991CY0099001N1+00201+00101999999ADDAG12999MA1101691999999REMMET005CAVOKEQDQ01+000000PRSWM2
0058601010999991985010907304+35733-005900FM-15+0021GMTT V0201001N00261999991CY0099001N1+00201+00101999999ADDAG12999MA1101691999999REMMET005CAVOKEQDQ01+000000PRSWM2
0060601010999991985010908004+35733-005900FM-15+0021GMTT V0200801N00261220001CN0112001N1+00201+00101999999ADDAG12999GA1021+004809059MA1101801999999EQDQ01+000000PRSWM2
0173601010999991985010909004+35733-005900SY-MT+0021GMTT V0209991C00001220001CN0100001N1+00411+00261101831ADDAA106000091AG14000AY101031GA1021+004809059GF103991021051999999001021MA1101801999999MD1310071+9999MW1021REMSYN011333   82616MET006NOSIG?EQDQ01+000992SCOLCBQ02+000000PRSWM2
0075601010999991985010910004+35733-005900FM-15+0021GMTT V0209991C00001220001CN0112001N1+00801+00601999999ADDAG12999GA1021+004809059MA1101901999999REMMET006NOSIG?EQDQ01+000000PRSWM2
0089601010999991985010911004+35733-005900FM-15+0021GMTT V0200801N00151069001CN0112001N1+01001+00601999999ADDAG12999GA1021+004809059GA2041+069009009MA1101901999999REMMET004NSG?EQDQ01+000000PRSWM2
0133601010999991985010912004+35733-005900FM-12+0021GMTT V0209991C00001220001CN0150001N9+01311+00491101871ADDAA106000091AG14000AY101061GA1021+030009039GA2041+069009009GF104991021001999999081021MD1010051+9999MW1021REMSYN017333   82360 84073
0063601010999991985010912304+35733-005900FM-15+0021GMTT V0209991C00001999991CY0099001N1+01301+99999999999ADDAG12999MA1101801999999REMMET010CAVOK NSG?EQDQ01+000000PRSWM2
0089601010999991985010913004+35733-005900FM-15+0021GMTT V0209991C00001220001CN0112001N1+01401+00501999999ADDAG12999GA1021+004809089GA2031+069009009MA1101801999999REMMET004NSG?EQDQ01+000000PRSWM2
0179601010999991985010915004+35733-005900SY-MT+0021GMTT V0209991C00001069001CN0150001N1+01501+00421101711ADDAA106000091AG14000AY101031GA1021+004809089GA2031+069009009GF105991021021004501081021MA1101691999999MD1810161+9999MW1021REMSYN017333   82816 83073MET006NOSIG?EQDQ01+000000PRSWM2
0076601010999991985010916004+35733-005900FM-15+0021GMTT V0209991C00001069001CN0112001N1+01401+00501999999ADDAG12999GA1031+004809089GA2031+069009009MA1101691999999EQDQ01+000000PRSWM2
0091601010999991985010917304+35733-005900FM-15+0021GMTT V0200601N00721030001CN0112001N1+01301+00501999999ADDAG12000GA1031+004809089GA2031+030009039MA1101691999999REMMET006NOSIG?EQDQ01+000000PRSWM2
0198601010999991985010918004+35733-005900SY-MT+0021GMTT V0200601N00721030001CN0150001N1+01201+00601101711ADDAA106000091AG14000AY101061GA1021+007809089GA2041+030009039GF107991021021004501081021KA1120M+01541MA1101691999999MD1010001+9999MW1021REMSYN023333   10154 82826 84360MET006NOSIG?EQDQ01+000000PRSWM2
0081601010999991985010918304+35733-005900FM-15+0021GMTT V0200601N00511030001CN0112001N1+01201+00601999999ADDAG12999GA1021+004809089GA2041+030009039REMMET0111817 NOSIG?EQDQ01+000000PRSWM2
0091601010999991985010919004+35733-005900FM-15+0021GMTT V0200601N00511030001CN0112001N1+01101+00501999999ADDAG12999GA1031+004809089GA2051+030009039MA1101691999999REMMET006NOSIG?EQDQ01+000000PRSWM2
0089601010999991985010919304+35733-005900FM-15+0021GMTT V0200601N00411030001CN0112001N1+01101+00501999999ADDAG12999GA1031+004809089GA2051+030009039MA1101691999999REMMET004NSG?EQDQ01+000000PRSWM2
0091601010999991985010920004+35733-005900FM-15+0021GMTT V0200601N00511030001CN0112001N1+01001+00601999999ADDAG12999GA1031+004809089GA2041+030009039MA1101691999999REMMET006NOSIG?EQDQ01+000000PRSWM2
0091601010999991985010920304+35733-005900FM-15+0021GMTT V0200601N00511220001CN0112001N1+01101+00501999999ADDAG12000GA1021+004809089GA2031+030009039MA1101691999999REMMET006NOSIG?EQDQ01+000000PRSWM2
0179601010999991985010921004+35733-005900SY-MT+0021GMTT V0200601N00511220001CN0100001N1+00801+00571101741ADDAA106000091AG14000AY101031GA1021+004809089GA2031+030009039GF104991021021004501081021MA1101691999999MD1210031+9999MW1021REMSYN017333   82816 83360MET006NOSIG?EQDQ01+000000PRSWM2
0063601010999991985010921304+35733-005900FM-15+0021GMTT V0200601N00511220001CN0112001N1+00801+00601999999ADDAG12999GA1031+030009039REMMET00910U NOSI?EQDQ01+000000PRSWM2
0076601010999991985010922004+35733-005900FM-15+0021GMTT V0200601N00621030001CN0112001N1+00801+00601999999ADDAG12999GA1031+004809089GA2031+030009039MA1101591999999EQDQ01+000000PRSWM2
0076601010999991985010923004+35733-005900FM-15+0021GMTT V0200601N00511030001CN0112001N1+00801+00601999999ADDAG12999GA1041+004809089GA2041+030009039MA1101591999999EQDQ01+000000PRSWM2
0076601010999991985010923304+35733-005900FM-15+0021GMTT V0200601N00511030001CN0112001N1+00801+00601999999ADDAG12000GA1041+004809089GA2041+030009039MA1101591999999EQDQ01+000000PRSWM2
0167601010999991985011000004+35733-005900SY-MT+0021GMTT V0200801N00721030001CN0100001N1+01021+00811101541ADDAA106000091AG10000AY101061GA1031+004809059GA2051+030009039GF106991031051004501081021MA1101491999999MD1210201+9999MW1021REMSYN017333   83616 85360EQDQ01+000000PRSWM2
0076601010999991985011001004+35733-005900FM-15+0021GMTT V0200801N00411030001CN0112001N1+01001+00801999999ADDAG11999GA1041+006009059GA2051+030009039MA1101491999999EQDQ01+000000PRSWM2
0091601010999991985011001304+35733-005900FM-15+0021GMTT V0200801N00721030001CN0112001N1+01001+00801999999ADDAG11999GA1041+006009059GA2051+030009039MA1101491999999REMMET006NOSIG?EQDQ01+000000PRSWM2
0091601010999991985011002004+35733-005900FM-15+0021GMTT V0200801N00721030001CN0112001N1+01001+00701999999ADDAG11999GA1041+006009059GA2061+030009039MA1101491999999REMMET006NOSIG?EQDQ01+000000PRSWM2
0133601010999991985011003004+35733-005900FM-12+0021GMTT V0200801N00621030001CN0100001N9+01021+00721101501ADDAA106000091AG14000AY101031GA1041+006009059GA2061+030009039GF108991041061004501081999MD1610041+9999MW1021REMSYN017333   84620 86360
0152601010999991985011006004+35733-005900FM-12+0021GMTT V0200801N00621006001CN0100001N9+01031+00601101391ADDAA106000091AG14000AY101061GA1031+004809089GA2061+006009059GF108991061081004501081999KA1120N+00731MD1710111+9999MW1021REMSYN023333   20073 83816 86620
0133601010999991985011009004+35733-005900FM-12+0021GMTT V0200801N00821036001CN0150001N9+01011+00351101471ADDAA106000091AG14000AY101031GA1011+004809089GA2031+069009009GF106991031081004501081021MD1310081+9999MW1021REMSYN017333   81816 83073
0179601010999991985011012004+35733-005900SY-MT+0021GMTT V0200801N01341069001CN0150001N1+01321+00601101541ADDAA106000091AG14000AY101061GA1021+004809089GA2041+069009009GF106991031081004501081021MA1101491999999MD1010071+9999MW1021REMSYN017333   82816 84073MET006NOSIG?EQDQ01+000000PRSWM2
0099601010999991985011013304+35733-005900FM-15+0021GMTT V0200801N01291069001CN0112001N1+01301+00601999999ADDAG12999GA1021+004809089GA2051+069009009MA1101491999999OC101801REMMET006NOSIG?EQDQ01+000000PRSWM2
0089601010999991985011014304+35733-005900FM-15+0021GMTT V0200601N01291069001CN0112001N1+01301+00601999999ADDAG12000GA1021+004809089GA2051+069009009MA1101491999999REMMET004NSG?EQDQ01+000000PRSWM2
0177601010999991985011015004+35733-005900SY-MT+0021GMTT V0200801N01341069001CN0100001N1+01251+00501101481ADDAA106000091AG14000AY101031GA1021+004809089GA2051+069009009GF106991021021004501061021MA1101391999999MD1610061+9999MW1021REMSYN017333   82816 85073MET004NSG?EQDQ01+000000PRSWM2
0081601010999991985011015304+35733-005900FM-15+0021GMTT V0200801N01441220001CN0112001N1+01301+00501999999ADDAG12999GA1021+004809089MA1101391999999OC101961REMMET004NSG?EQDQ01+000000PRSWM2
0084601010999991985011017004+35733-005900FM-15+0021GMTT V0200801N01441220001CN0112001N1+01201+00401999999ADDAG12999GA1021+004809089GA2031+069009009MA1101391999999OC101961EQDQ01+000000PRSWM2
0141601010999991985011018004+35733-005900SY-MT+0021GMTT V0200601N01131069001CN0100001N1+00981+00501101561ADDAA106000091AG14000AY101061GA1021+004809089GA2031+069009009GF105991999999004501999999MA1101491999999MD1310081+9999MW1021EQDQ01+000000PRSWM2
0060601010999991985011019304+35733-005900FM-15+0021GMTT V0200801N00931220001CN0112001N1+00901+00501999999ADDAG12999GA1021+004809089MA1101491999999EQDQ01+000000PRSWM2
0073601010999991985011020004+35733-005900FM-15+0021GMTT V0200601N00411220001CN0112001N1+00901+00401999999ADDAG12999GA1021+004809089MA1101591999999REMMET004NSG?EQDQ01+000000PRSWM2
0073601010999991985011021304+35733-005900FM-15+0021GMTT V0201001N00411220001CN0112001N1+00801+00401999999ADDAG12999GA1021+004809089MA1101591999999REMMET004NSG?EQDQ01+000000PRSWM2
0073601010999991985011022004+35733-005900FM-15+0021GMTT V0200801N00261220001CN0112001N1+00801+00201999999ADDAG12999GA1021+004809089MA1101691999999REMMET004NSG?EQDQ01+000000PRSWM2
0073601010999991985011022304+35733-005900FM-15+0021GMTT V0200801N00261220001CN0112001N1+00801+00201999999ADDAG12999GA1021+004809089MA1101691999999REMMET004NSG?EQDQ01+000000PRSWM2
0073601010999991985011023004+35733-005900FM-15+0021GMTT V0200601N00411220001CN0112001N1+00701+00401999999ADDAG12999GA1021+004809089MA1101691999999REMMET004NSG?EQDQ01+000000PRSWM2
0155601010999991985011100004+35733-005900SY-MT+0021GMTT V0200601N00511220001CN0100001N1+00651+00391101701ADDAA106000091AG14000AY101061GA1021+004809089GF102991021021004501001001MA1101691999999MD1110021+9999MW1021REMSYN011333   82816MET004NSG?EQDQ01+000000PRSWM2
0073601010999991985011100304+35733-005900FM-15+0021GMTT V0200601N00511220001CN0112001N1+00701+00601999999ADDAG11999GA1021+004809089MA1101691999999REMMET004NSG?EQDQ01+000000PRSWM2
0073601010999991985011101004+35733-005900FM-15+0021GMTT V0200601N00511220001CN0112001N1+00801+00401999999ADDAG11999GA1021+004809089MA1101691999999REMMET004NSG?EQDQ01+000000PRSWM2
0073601010999991985011101304+35733-005900FM-15+0021GMTT V0200601N00411220001CN0112001N1+00801+00401999999ADDAG11999GA1021+004809089MA1101691999999REMMET004NSG?EQDQ01+000000PRSWM2
0107601010999991985011102004+35733-005900FM-15+0021GMTT V0200601N005119999999N0112001N1+00601+00301999999ADDAG11999MA1101691999999REMMET054NSG?       ?     1?.,3 04002 8000 4/?016POXPUQPYT NSG?EQDQ01+000000PRSWM2
0072601010999991985011102304+35733-005900FM-15+0021GMTT V0200601N00511220001CN0112001N1+99999+99999999999ADDAG12000GA1021+004809089MA1101691999999REMMET003NG?EQDQ01+000000PRSWM2
0155601010999991985011103004+35733-005900SY-MT+0021GMTT V0200601N00511220001CN0100001N1+00681+00281101701ADDAA106000091AG14000AY101031GA1021+004809089GF102991021021004501001001MA1101691999999MD1410001+9999MW1021REMSYN011333   82816MET004NSG?EQDQ01+000000PRSWM2
0124601010999991985011104004+35733-005900SY-MT+0021GMTT V0200601N00621220001CN0150001N1+00551+00151999999ADDAA106000091AG10001AY101011GA1021+004809089GF102991999999004501999999MA1101691999999MW1021REMMET004NSG?EQDQ01+000000PRSWM2
0073601010999991985011105304+35733-005900FM-15+0021GMTT V0200601N00311220001CN0112001N1+00801+00201999999ADDAG12000GA1021+004809089MA1101591999999REMMET004NSG?EQDQ01+000000PRSWM2
0174601010999991985011106004+35733-005900SY-MT+0021GMTT V0200601N00621220001CN0150001N1+00551+00151101671ADDAA106000091AG10000AY101061GA1021+004809089GF102991021021004501001001KA1120N+00501MA1101591999999MD1810041+9999MW1021REMSYN017333   20050 82816MET004NSG?EQDQ01+000000PRSWM2
0073601010999991985011106304+35733-005900FM-15+0021GMTT V0200601N00621220001CN0112001N1+99999+99999999999ADDAG12999GA1021+004809089MA1101591999999REMMET004NSG?EQDQ01+000000PRSWM2
0060601010999991985011108004+35733-005900FM-15+0021GMTT V0201201N00151220001CN0112001N1+00501+00201999999ADDAG12999GA1031+004809089MA1101691999999EQDQ01+000000PRSWM2
0157601010999991985011109004+35733-005900SY-MT+0021GMTT V0200601N00721220001CN0150001N1+00821+00501101741ADDAA106000091AG14000AY101031GA1041+004809089GF104991041021004501001001MA1101691999999MD1210081+9999MW1021REMSYN011333   84816MET006NOSIG?EQDQ01+000000PRSWM2
0177601010999991985011112004+35733-005900SY-MT+0021GMTT V0200601N01291030001CN0150001N1+01191+00671101801ADDAA106000091AG14000AY101061GA1031+004809089GA2031+030009039GF105991031021004501081001MA1101801999999MD1010061+9999MW1021REMSYN017333   83816 83360MET004NSG?EQDQ01+000000PRSWM2
0077601010999991985011114004+35733-005900FM-15+0021GMTT V0200401N00931006001CN0112001N1+01201+99999999999ADDAG12999GA1021+004809089GA2031+006009059REMMET007071017?EQDQ01+000000PRSWM2
0076601010999991985011114304+35733-005900FM-15+0021GMTT V0200401N01031006001CN0112001N1+99999+99999999999ADDAG12000GA1021+004809089GA2031+006009059MA1101691999999EQDQ01+000000PRSWM2
0165601010999991985011115004+35733-005900SY-MT+0021GMTT V0200401N01131030001CN0150001N1+01201+00711101701ADDAA106000091AG14000AY101031GA1021+004809089GA2041+030009039GF106991041081004501081001MD1610101+9999MW1021REMSYN017333   82816 84360MET007071017?EQDQ01+000000PRSWM2
0076601010999991985011115304+35733-005900FM-15+0021GMTT V0200401N01241030001CN0112001N1+01201+00701999999ADDAG12999GA1021+004809089GA2041+030009039MA1101691999999EQDQ01+000000PRSWM2
0091601010999991985011117004+35733-005900FM-15+0021GMTT V0200601N01031220001CN0112001N1+01101+00601999999ADDAG12999GA1021+004809089GA2031+030009039MA1101691999999REMMET006NOSIG?EQDQ01+000000PRSWM2
0091601010999991985011117304+35733-005900FM-15+0021GMTT V0200601N00721220001CN0112001N1+01101+00601999999ADDAG12000GA1021+004809089GA2031+030009039MA1101691999999REMMET006NOSIG?EQDQ01+000000PRSWM2
0198601010999991985011118004+35733-005900SY-MT+0021GMTT V0200601N00721220001CN0150001N1+00971+00561101741ADDAA106000091AG14000AY101061GA1021+004809089GA2031+030009039GF104991021081004501081001KA1120M+01311MA1101691999999MD1310041+9999MW1021REMSYN023333   10131 82816 83360MET006NOSIG?EQDQ01+000000PRSWM2
0076601010999991985011118304+35733-005900FM-15+0021GMTT V0200601N00721220001CN0112001N1+01001+00601999999ADDAG12999GA1021+004809089GA2031+030009039REMMET006NOSIG?EQDQ01+000000PRSWM2
0073601010999991985011120004+35733-005900FM-15+0021GMTT V0200601N00621220001CN0112001N1+00801+00401999999ADDAG12999GA1021+004809089MA1101801999999REMMET004NSG?EQDQ01+000000PRSWM2
0073601010999991985011120304+35733-005900FM-15+0021GMTT V0200601N00621220001CN0112001N1+00801+00401999999ADDAG12000GA1021+004809089MA1101801999999REMMET004NSG?EQDQ01+000000PRSWM2
0145601010999991985011121004+35733-005900SY-MT+0021GMTT V0200801N00511220001CN0150001N1+00621+00481101831ADDAA106000091AG14000AY101031GA1021+004809089GF103991021021004501081001MA1101801999999MD1110091+9999MW1021REMSYN011333   82816EQDQ01+000000PRSWM2
0169601010999991985011122004+35733-005900FM-15+0021GMTT V0209991C000019999999N0112001N1+99999+99999999999ADDAG12001REMMET1311CUPQYPYFPE QPQINSG0         ?     XGMME PPPE IPPPWORES 4RU01 RSC016QCB020 OXPU QPQUV          ?     :X 0400 OOO SC02 PIXP QQU NSG?EQDQ01+000000PRSWM2
0063601010999991985011123004+35733-005900FM-15+0021GMTT V0209991C00001999991CY0099001N1+00501+00301999999ADDAG12999MA1101801999999REMMET010CAVOK NSG?EQDQ01+000000PRSWM2
0053601010999991985011123304+35733-005900FM-15+0021GMTT V0209991C00001999991CY0099001N1+00501+00001999999ADDAG12000REMMET015CAVOK QPQI NSG?EQDQ01+000000PRSWM2
0161601010999991985011200004+35733-005900SY-MT+0021GMTT V0209991C00001220001CN0150001N1+00381+00181101781ADDAA106000091AG14000AY101061GA1021+030009039GF102991021001999999031001MA1101801999999MD1010021+9999MW1021REMSYN011333   82360MET010CAVOK NSG?EQDQ01+000000PRSWM2
0063601010999991985011200304+35733-005900FM-15+0021GMTT V0209991C00001999991CY0099001N1+00401+00201999999ADDAG11999MA1101801999999REMMET010CAVOK NSG?EQDQ01+000000PRSWM2
0091601010999991985011201004+35733-005900FM-15+0021GMTT V0209991C00001220001CN0112001N1+00401+00201999999ADDAG11999GA1021+004809089GA2031+027009039MA1101801999999REMMET006NOSIG?EQDQ01+000000PRSWM2
0075601010999991985011202004+35733-005900FM-15+0021GMTT V0209991C00001220001CN0112001N1+00401+00201999999ADDAG11999GA1021+004809089MA1101801999999REMMET006NOSIG?EQDQ01+000000PRSWM2
0075601010999991985011202304+35733-005900FM-15+0021GMTT V0209991C00001220001CN0112001N1+00401+00201999999ADDAG12000GA1021+004809089MA1101801999999REMMET006NOSIG?EQDQ01+000000PRSWM2
0133601010999991985011203004+35733-005900FM-12+0021GMTT V0209991C00001027001CN0150001N9+00391+00161101911ADDAA106000091AG14000AY101031GA1021+004809089GA2041+027009039GF105991021081004501031001MD1310041+9999MW1021REMSYN017333   82816 84359
0091601010999991985011203304+35733-005900FM-15+0021GMTT V0209991C00001027001CN0112001N1+00401+00201999999ADDAG12999GA1021+004809089GA2041+027009039MA1101901999999REMMET006NOSIG?EQDQ01+000000PRSWM2
0091601010999991985011204004+35733-005900FM-15+0021GMTT V0209991C00001220001CN0112001N1+00401+00201999999ADDAG12999GA1021+004809089GA2031+027009039MA1101901999999REMMET006NOSIG?EQDQ01+000000PRSWM2
0091601010999991985011204304+35733-005900FM-15+0021GMTT V0209991C00001220001CN0112001N1+00401+00201999999ADDAG11999GA1021+004809089GA2031+027009039MA1101901999999REMMET006NOSIG?EQDQ01+000000PRSWM2
0075601010999991985011205304+35733-005900FM-15+0021GMTT V0209991C00001220001CN0112001N1+00301+00101999999ADDAG12000GA1021+004809089MA1101801999999REMMET006NOSIG?EQDQ01+000000PRSWM2
0176601010999991985011206004+35733-005900SY-MT+0021GMTT V0200801N00101220001CN0150001N1+00301+00231101881ADDAA106000091AG14000AY101061GA1021+004809089GF103991021081004501031001KA1120N+00281MA1101801999999MD1810021+9999MW1021REMSYN017333   20028 82816MET006NOSIG?EQDQ01+000000PRSWM2
0075601010999991985011207004+35733-005900FM-15+0021GMTT V0200801N00261220001CN0112001N1+00301+00201999999ADDAG12001GA1021+004809089MA1101801999999REMMET006(,98:?EQDQ01+000000PRSWM2
0075601010999991985011207304+35733-005900FM-15+0021GMTT V0200801N00211220001CN0112001N1+00301+00201999999ADDAG12999GA1021+004809089MA1101801999999REMMET006NOSIG?EQDQ01+000000PRSWM2
0075601010999991985011208004+35733-005900FM-15+0021GMTT V0200801N00261220001CN0112001N1+00301+00201999999ADDAG12999GA1021+004809089MA1101901999999REMMET006NOSIG?EQDQ01+000000PRSWM2
0157601010999991985011209004+35733-005900SY-MT+0021GMTT V0201001N00261220001CN0150001N1+00451+00331102001ADDAA106000091AG14000AY101031GA1021+004809089GF103991021021004501031001MA1102001999999MD1110121+9999MW1021REMSYN011333   82816MET006NOSIG?EQDQ01+000000PRSWM2
0075601010999991985011210004+35733-005900FM-15+0021GMTT V0203201N00511220001CN0112001N1+00901+00501999999ADDAG12999GA1021+004809089MA1102001999999REMMET006NOSIG?EQDQ01+000000PRSWM2
0073601010999991985011211304+35733-005900FM-15+0021GMTT V0203201N00721220001CN0112001N1+01101-00101999999ADDAG12000GA1021+004809089MA1102101999999REMMET004NSG?EQDQ01+000000PRSWM2
0155601010999991985011212004+35733-005900SY-MT+0021GMTT V0203001N00721220001CN0150001N1+01161-00241102111ADDAA106000091AG14000AY101061GA1021+004809089GF103991021021004501031001MA1102101999999MD1010121+9999MW1021REMSYN011333   82816MET004NSG?EQDQ01+000000PRSWM2
0060601010999991985011213304+35733-005900FM-15+0021GMTT V0203001N00771220001CN0112001N1+01201+00201999999ADDAG12999GA1021+004809089MA1102001999999EQDQ01+000000PRSWM2
0060601010999991985011214004+35733-005900FM-15+0021GMTT V0203001N00821220001CN0112001N1+01201-00101999999ADDAG12999GA1031+004809089MA1102001999999EQDQ01+000000PRSWM2
0060601010999991985011214304+35733-005900FM-15+0021GMTT V0203001N00821220001CN0112001N1+01201-00101999999ADDAG12000GA1031+004809089MA1102001999999EQDQ01+000000PRSWM2
0111601010999991985011215004+35733-005900FM-12+0021GMTT V0203001N00621220001CN0150001N9+01141+00081102041ADDAA106000091AG14000AY101031GA1031+004809089GF103991031021008001001001MD1610071+9999MW1021REMSYN011333   83816
0075601010999991985011216004+35733-005900FM-15+0021GMTT V0203001N00771220001CN0112001N1+01001+00101999999ADDAG12999GA1031+004809089MA1102001999999REMMET006NOSIG?EQDQ01+000000PRSWM2
0073601010999991985011217004+35733-005900FM-15+0021GMTT V0203001N00621220001CN0112001N1+01001+00101999999ADDAG12999GA1031+004809089MA1102001999999REMMET004SIG?EQDQ01+000000PRSWM2
0176601010999991985011218004+35733-005900SY-MT+0021GMTT V0203001N00511220001CN0150001N1+00841+00531102101ADDAA106000091AG14000AY101061GA1011+006909059GF101991011051008001001001KA1120M+01201MA1102101999999MD1310061+9999MW1021REMSYN017333   10120 81623MET006NOSIG?EQDQ01+000000PRSWM2
0075601010999991985011218304+35733-005900FM-15+0021GMTT V0203001N00411220001CN0112001N1+00801-00302999999ADDAG12999GA1011+006909059MA1102101999999REMMET006NOSIG?EQDQ01+000000PRSWM2
0075601010999991985011219004+35733-005900FM-15+0021GMTT V0203001N00211220001CN0112001N1+00801-00301999999ADDAG12999GA1011+006909059MA1102101999999REMMET006NOSIG?EQDQ01+000000PRSWM2
0073601010999991985011219304+35733-005900FM-15+0021GMTT V0209991C00001220001CN0112001N1+00801-00301999999ADDAG12999GA1011+006909059MA1102101999999REMMET004NSG?EQDQ01+000000PRSWM2
0202601010999991985011221004+35733-005900SY-MT+0021GMTT V0209991C00001220001CN0150001N1+00501+00161102151ADDAA106000091AG14000AY101031GA1011+006009059GF199999999999999999001001MA1102101999999MD1310051+9999MW1021REMMET004NSH?EQDQ01+000002SCOTCVQ02+000002SCOTLCQ03+000002SCOLCGQ04+000992SCOLCBQ05+000000PRSWM2
0073601010999991985011221304+35733-005900FM-15+0021GMTT V0209991C00001220001CN0112001N1+00501+00201999999ADDAG12999GA1011+006009059MA1102101999999REMMET004NSG?EQDQ01+000000PRSWM2
0063601010999991985011222004+35733-005900FM-15+0021GMTT V0200801N00211999991CY0099001N1+00401+00001999999ADDAG12999MA1102101999999REMMET010CAVOK NSG?EQDQ01+000000PRSWM2
0063601010999991985011222304+35733-005900FM-15+0021GMTT V0200801N00211999991CY0099001N1+00401+00001999999ADDAG12999MA1102101999999REMMET010CAVOK NSG?EQDQ01+000000PRSWM2
0063601010999991985011223304+35733-005900FM-15+0021GMTT V0200801N00211999991CY0099001N1+00201+00001999999ADDAG12000MA1102101999999REMMET010CAVOK NSG?EQDQ01+000000PRSWM2
0128601010999991985011300004+35733-005900SY-MT+0021GMTT V0200801N00101220001CN0100001N1+00251-00021102111ADDAA106000091AG14000AY101061GF100991001001999999001001MA1102101999999MD1810021+9999MW1021REMMET010CAVOK NSG?EQDQ01+000000PRSWM2
0063601010999991985011300304+35733-005900FM-15+0021GMTT V0200801N00101999991CY0099001N1+00301+00001999999ADDAG11999MA1102101999999REMMET010CAVOK NSG?EQDQ01+000000PRSWM2
0063601010999991985011301304+35733-005900FM-15+0021GMTT V0209991C00001999991CY0099001N1+00301+00001999999ADDAG11999MA1102101999999REMMET010CAVOK NSG?EQDQ01+000000PRSWM2
0063601010999991985011302004+35733-005900FM-15+0021GMTT V0209991C00001999991CY0099001N1+00501+00001999999ADDAG11999MA1102001999999REMMET010CAVOK NSG?EQDQ01+000000PRSWM2
0063601010999991985011302304+35733-005900FM-15+0021GMTT V0209991C00001999991CY0099001N1+00501+00001999999ADDAG12000MA1102001999999REMMET010CAVOK NSG?EQDQ01+000000PRSWM2
0128601010999991985011303004+35733-005900SY-MT+0021GMTT V0209991C00001220001CN0100001N1+00401+00031102071ADDAA106000091AG14000AY101031GF100991001001999999001001MA1102001999999MD1810061+9999MW1021REMMET010CAVOK NSG?EQDQ01+000000PRSWM2
0063601010999991985011304304+35733-005900FM-15+0021GMTT V0209991C00001999991CY0099001N1+00401+00001999999ADDAG12999MA1102001999999REMMET010CAVOK NSG?EQDQ01+000000PRSWM2
0073601010999991985011305004+35733-005900FM-15+0021GMTT V0201401N00211220001CN0112001N1+00601+00001999999ADDAG12999GA1021+004809059MA1101901999999REMMET004NSG?EQDQ01+000000PRSWM2
0196601010999991985011306004+35733-005900SY-MT+0021GMTT V0201401N00461090001CN0100001N1+00721+00031101851ADDAA106000091AG14000AY101061GA1021+004809059GA2031+030009039GF105991021051004501031021KA1120N+00151MA1101801999999MD1710201+9999MW1021REMSYN023333   20015 82616 83360MET004NSG?EQDQ01+000000PRSWM2
0091601010999991985011306304+35733-005900FM-15+0021GMTT V0201401N00621220001CN0112001N1+00701+00001999999ADDAG12999GA1021+004809059GA2031+030009039MA1101801999999REMMET006NOSIG?EQDQ01+000000PRSWM2
0091601010999991985011307004+35733-005900FM-15+0021GMTT V0201601N00621030001CN0112001N1+00801+00101999999ADDAG12999GA1031+004809059GA2041+030009039MA1101801999999REMMET006NOSIG?EQDQ01+000000PRSWM2
0108601010999991985011308304+35733-005900FM-15+0021GMTT V0201601N00721030001CN0112001N1+00801+00101999999ADDAG12000GA1031+004809059GA2061+030009039REMMET022NEEE 08/01 1018 NOSIG?EQDQ01+029773APOA  Q02+000000PRSWM2
0177601010999991985011309004+35733-005900SY-MT+0021GMTT V0201601N00671030001CN0150001N1+00831+00031101751ADDAA106000091AG14000AY101031GA1031+004809059GA2051+030009039GF107991031051004501031021MA1101691999999MD1710091+9999MW1021REMSYN017333   83616 85360MET004NSG?EQDQ01+000000PRSWM2
0091601010999991985011310304+35733-005900FM-15+0021GMTT V0201601N00931004801CN0112001N1+00901+00101999999ADDAG12999GA1051+004809089GA2051+030009039MA1101691999999REMMET006NOSIG?EQDQ01+000000PRSWM2
0089601010999991985011311004+35733-005900FM-15+0021GMTT V0201601N00821004801CN0112001N1+01001+00101999999ADDAG12999GA1051+004809089GA2051+030009049MA1101691999999REMMET004NSG?EQDQ01+000000PRSWM2
0133601010999991985011312004+35733-005900FM-12+0021GMTT V0201601N00931030001CN0150001N9+01061+00251101671ADDAA106000091AG10000AY101061GA1041+004809089GA2061+030009049GF108991041021004501071021MD1810081+9999MW1021REMSYN017333   84816 86460
0091601010999991985011312304+35733-005900FM-15+0021GMTT V0201801N01031030001CN0112001N1+01101+00301999999ADDAG12999GA1041+004809089GA2061+030009039MA1101591999999REMMET006NOSIG?EQDQ01+000000PRSWM2
0089601010999991985011313004+35733-005900FM-15+0021GMTT V0201601N00821030001CN0112001N1+01101+00301999999ADDAG12999GA1031+006909059GA2071+030009039MA1101591999999REMMET004NSG?EQDQ01+000000PRSWM2
0091601010999991985011313304+35733-005900FM-15+0021GMTT V0201801N00931030001CN0112001N1+01101+00301999999ADDAG12999GA1031+006909059GA2071+030009039MA1101591999999REMMET006NOSIG?EQDQ01+000000PRSWM2
0175601010999991985011315004+35733-005900SY-MT+0021GMTT V0201601N00931006001CN0080001N1+00851+00701101471ADDAG12002AY161031GA1031+003009079GA2051+006009059GA3071+030009039GF108991061051004501071999MA1101391999999MD1810201+9999MW1601MW2611REMSYN023333   83710 85620 87460MET004NSG?
0121601010999991985011316304+35733-005900FM-15+0021GMTT V0201601N01031030001CN9999999N9+00901+00601999999ADDAG12999GA1011+003009079GA2041+004809089GA3081+030009039MA1101191999999REMMET004NSG?EQDQ01+000002VOVAR Q02+000000PRSWM2
0089601010999991985011317004+35733-005900FM-15+0021GMTT V0201601N01031004801CN0080001N1+00901+00601999999ADDAG12999GA1061+004809089GA2071+030009039MA1101191999999REMMET004NSG?EQDQ01+000000PRSWM2
0113601010999991985011317304+35733-005900FM-15+0021GMTT V0201401N01241007501CN0080001N1+00901+00601999999ADDAG12000GA1041+004509089GA2051+007509059GA3071+030009039MA1101191999999OC101751REMMET004NSG?EQDQ01+000000PRSWM2
0174601010999991985011318004+35733-005900FM-12+0021GMTT V0201401N01231007501CN0080001N9+00881+00501101161ADDAA199002091AG10002AY161061GA1041+004509089GA2051+007509059GA3071+030009049GF108991061081004501071999KA1120M+01131MD1610191+9999MW1031REMSYN029333   10113 84815 85625 87460
0100601010999991985011318304+35733-005900FM-15+0021GMTT V0201401N01241007501CN0080001N1+00901+00501999999ADDAG12999GA1041+004509089GA2051+007509059GA3071+030009039MA1101081999999MW1611OC101851REMMET004NSG?
0100601010999991985011319004+35733-005900FM-15+0021GMTT V0201601N01031007501CN0080001N1+00901+00501999999ADDAG12999GA1041+004509089GA2051+007509059GA3071+030009039MA1101081999999MW1611OC101541REMMET004NSG?
0100601010999991985011319304+35733-005900FM-15+0021GMTT V0201401N01031007501CN0080001N1+00901+00501999999ADDAG12999GA1041+004509089GA2051+007509059GA3071+030009039MA1101081999999MW1611OC101541REMMET004NSG?
0079601010999991985011320304+35733-005900FM-15+0021GMTT V0201601N00771006001CN0080001N1+00801+00601999999ADDAG12002GA1041+004509089GA2051+006009059GA3071+024009039MA1101081999999MW1601
0169601010999991985011321004+35733-005900SY-MT+0021GMTT V0201601N00721004801CN0080001N1+00811+00641101181ADDAG12002AY161031GA1041+004509089GA2041+004809059GA3071+024009039GF108991061081004501071999MA1101081999999MD1610031+9999MW1211REMSYN023333   84815 84616 87458MET004NSG?
0079601010999991985011321304+35733-005900FM-15+0021GMTT V0201601N00881004801CN0080001N1+01101+00801999999ADDAG12999GA1041+004509089GA2041+004809059GA3071+024009039MA1101081999999MW1601
0107601010999991985011323304+35733-005900FM-15+0021GMTT V0201201N00621004801CN0080001N1+00801+00601999999ADDAG12000GA1031+004509089GA2041+004809059GA3061+024009039MA1101081999999REMMET006NOSIG?EQDQ01+000000PRSWM2
0170601010999991985011400004+35733-005900SY-MT+0021GMTT V0201201N00411004801CN0080001N1+00801+00631101151ADDAA106011091AG10003AY161061GA1031+003909089GA2051+004809059GA3061+024009039GF107991061081004501071999MA1101081999999MD1610011+9999MW1611REMSYN023333   83813 85616 86458
0079601010999991985011401004+35733-005900FM-15+0021GMTT V0201201N00621004801CN0080001N1+00801+00601999999ADDAG11999GA1031+003909089GA2051+004809059GA3061+024009049MA1101081999999MW1611
0076601010999991985011402004+35733-005900FM-15+0021GMTT V0209999999999004801CN0080001N1+00801+00601999999ADDAG11999GA1051+004809059GA2061+024009049MA1101081999999EQDQ01+000000PRSWM2
0092601010999991985011402304+35733-005900FM-15+0021GMTT V0201201N00511004801CN0080001N1+00801+00601999999ADDAG12000GA1031+003909089GA2051+004809059GA3061+024009049MA1101081999999EQDQ01+000000PRSWM2
0178601010999991985011403004+35733-005900SY-MT+0021GMTT V0201201N00511004801CN0080001N1+00781+00641101131ADDAG12002AY161031GA1031+003909089GA2041+004809059GA3061+024009049GF107991061081004501081071MA1101081999999MD1610021+9999MW1021REMSYN023333   83813 84616 86458EQDQ01+000000PRSWM2
0092601010999991985011403304+35733-005900FM-15+0021GMTT V0201201N00721004801CN0080001N1+00801+00601999999ADDAG12999GA1031+003909089GA2041+004809059GA3061+024009049MA1101081999999EQDQ01+000000PRSWM2
0092601010999991985011404304+35733-005900FM-15+0021GMTT V0200801N00621004801CN0080001N1+00801+00601999999ADDAG12999GA1031+003909089GA2041+004809059GA3061+024009049MA1101081999999EQDQ01+000000PRSWM2
0092601010999991985011405004+35733-005900FM-15+0021GMTT V0200801N00621004801CN0080001N1+00801+00601999999ADDAG12999GA1031+003909089GA2041+004809059GA3061+024009049MA1101081999999EQDQ01+000000PRSWM2
0079601010999991985011405304+35733-005900FM-15+0021GMTT V0200801N00721004801CN0080001N1+00801+00601999999ADDAG12002GA1041+003909089GA2041+004809059GA3061+024009049MA1101081999999MW1211
0249601010999991985011406004+35733-005900SY-MT+0021GMTT V0200801N00621004801CN0080001N1+00821+00691101121ADDAA124015091AG10002AY161061GA1041+003909089GA2041+004809999GF108991061081004501071999KA1120N+00761MD1810021+9999MW1031REMSYN029333   20076 84813 84616 86458MET066PQQV       ?     GMMZ400600 PPP IPRASH 3CU015TC020 09/07 1010 NSG?EQDQ01+000000PRSWM2
0107601010999991985011407004+35733-005900FM-15+0021GMTT V0200801N00621004801CN0080001N1+00801+00701999999ADDAG12001GA1041+003909089GA2041+004809059GA3061+024009039MA1101081999999REMMET006NOSIG?EQDQ01+000000PRSWM2
0105601010999991985011408004+35733-005900FM-15+0021GMTT V0209999999999004801CN0080001N1+00901+00801999999ADDAG12999GA1041+003909089GA2051+004809059GA3051+024009039MA1101191999999REMMET004NSG?EQDQ01+000000PRSWM2
0188601010999991985011409004+35733-005900SY-MT+0021GMTT V0200801N00151004801CN0080001N1+00881+00751101261ADDAG12002AY161031GA1041+003909089GA2051+004809059GA3051+024009039GF108991061081004501071999MA1101191999999MD1310141+9999MW1031REMSYN023333   84813 85616 85458MET004NSG?EQDQ01+000000PRSWM2
0105601010999991985011410004+35733-005900FM-15+0021GMTT V0209991C00001004801CN0080001N1+00901+00801999999ADDAG12999GA1041+003909089GA2051+004809059GA3051+024009039MA1101291999999REMMET004NSG?EQDQ01+000000PRSWM2
0089601010999991985011410304+35733-005900FM-15+0021GMTT V0200801N00261024001CN0080001N1+00901+00801999999ADDAG12999GA1041+003909089GA2051+024009999MA1101291999999REMMET004NSG?EQDQ01+000000PRSWM2
0133601010999991985011412004+35733-005900FM-12+0021GMTT V0209999999999004801CN0100001N9+01161+00801101361ADDAA106999929AG10002AY161061GA1041+003909059GA2051+004809059GF107991061081004501071999MD1010101+9999MW1021REMSYN017333   84613 85616
0076601010999991985011412304+35733-005900FM-15+0021GMTT V0200401N00411004801CN0112001N1+01201+00801999999ADDAG12001GA1041+003909089GA2051+004809059MA1101291999999EQDQ01+000000PRSWM2
0076601010999991985011413004+35733-005900FM-15+0021GMTT V0203601N00311004801CN0112001N1+01201+00801999999ADDAG12001GA1041+003909089GA2051+004809059MA1101291999999EQDQ01+000000PRSWM2
0077601010999991985011414304+35733-005900FM-15+0021GMTT V0200401N00311004801CN0112001N1+01201+99999999999ADDAG12000GA1041+003909089GA2051+004809059REMMET007081012?EQDQ01+000000PRSWM2
0167601010999991985011415004+35733-005900SY-MT+0021GMTT V0203601N00311004801CN0150001N1+01161+00751101261ADDAA106000091AG14000AY101031GA1041+003909089GA2051+004809059GF107991061081004501031999MA1101191999999MD1610101+9999MW1021REMSYN017333   84813 85616EQDQ01+000000PRSWM2
0076601010999991985011416004+35733-005900FM-15+0021GMTT V0200801N00311004801CN0112001N1+01201+00801999999ADDAG12999GA1041+003909089GA2051+004809059MA1101191999999EQDQ01+000000PRSWM2
0076601010999991985011416304+35733-005900FM-15+0021GMTT V0200801N00311004801CN0112001N1+01201+00801999999ADDAG12999GA1041+003909089GA2051+004809059MA1101191999999EQDQ01+000000PRSWM2
0091601010999991985011417304+35733-005900FM-15+0021GMTT V0203001N00621004801CN0112001N1+01101+00801999999ADDAG12000GA1031+003909089GA2041+004809059MA1101191999999REMMET006NOSIG?EQDQ01+000000PRSWM2
0198601010999991985011418004+35733-005900SY-MT+0021GMTT V0203001N00621004801CN0150001N1+01061+00751101301ADDAA199999929AG10000AY101061GA1031+003909089GA2041+004809059GF105991051081004501001001KA1120M+01251MA1101291999999MD1310041+9999MW1021REMSYN023333   10125 83813 84616MET006NOSIG?EQDQ01+000000PRSWM2
0091601010999991985011418304+35733-005900FM-15+0021GMTT V0203001N00621004801CN0112001N1+01101+00801999999ADDAG12999GA1031+003909089GA2041+004809059MA1101291999999REMMET006NOSIG?EQDQ01+000000PRSWM2
0091601010999991985011419004+35733-005900FM-15+0021GMTT V0203201N01031004801CN0112001N1+00901+00701999999ADDAG12999GA1021+003909089GA2031+004809059MA1101291999999REMMET006NOSIG?EQDQ01+000000PRSWM2
0099601010999991985011420004+35733-005900FM-15+0021GMTT V0203401N01441004801CN0112001N1+00901+00001999999ADDAG12999GA1021+003909089GA2031+004809059MA1101391999999OC102061REMMET006NOSIG?EQDQ01+000000PRSWM2
0099601010999991985011420304+35733-005900FM-15+0021GMTT V0203401N01441004801CN0112001N1+00901+99999999999ADDAG12000GA1021+003909089GA2031+004809059MA1101391999999OC102061REMMET006NOSIG?EQDQ01+000000PRSWM2
0157601010999991985011421004+35733-005900SY-MT+0021GMTT V0203401N01341220001CN0150001N1+00801+00001101531ADDAA106000091AG14000AY101031GA1031+006009089GF103991031021008001001001MA1101491999999MD1110221+9999MW1021REMSYN011333   83820MET006NOSIG?EQDQ01+000000PRSWM2
0083601010999991985011421304+35733-005900FM-15+0021GMTT V0203401N01241220001CN0112001N1+00801+00001999999ADDAG12999GA1031+006009089MA1101491999999OC101541REMMET006NOSIG?EQDQ01+000000PRSWM2
0083601010999991985011422004+35733-005900FM-15+0021GMTT V0203201N00931220001CN0112001N1+00801+00101999999ADDAG12999GA1031+006009089MA1101491999999OC101131REMMET006NOSIG?EQDQ01+000000PRSWM2
0075601010999991985011422304+35733-005900FM-15+0021GMTT V0203401N00931220001CN0112001N1+00801+00101999999ADDAG12999GA1031+006009089MA1101491999999REMMET006NOSIG?EQDQ01+000000PRSWM2
0083601010999991985011423004+35733-005900FM-15+0021GMTT V0203401N01341220001CN0112001N1+00801+00101999999ADDAG12999GA1031+006009089MA1101491999999OC101541REMMET006NOSIG?EQDQ01+000000PRSWM2
0083601010999991985011423304+35733-005900FM-15+0021GMTT V0203401N01241220001CN0112001N1+00601+00101999999ADDAG12000GA1031+006009089MA1101491999999OC101541REMMET006NOSIG?EQDQ01+000000PRSWM2
0140601010999991985011500004+35733-005900SY-MT+0021GMTT V0203401N00821220001CN0060001N1+00701+00001101591ADDAA106000091AG14000AY101061GA1041+006009089GF104991041081008001021001MA1101491999999MD1310071+9999MW1021REMMET006NOSIG?EQDQ01+000000PRSWM2
0073601010999991985011501004+35733-005900FM-15+0021GMTT V0200201N00671220001CN0112001N1+00701+00101999999ADDAG11999GA1041+006009089MA1101491999999REMMET004NSG?EQDQ01+000000PRSWM2
0073601010999991985011501304+35733-005900FM-15+0021GMTT V0203601N00511220001CN0112001N1+00701+00101999999ADDAG11999GA1041+006009089MA1101491999999REMMET004NSG?EQDQ01+000000PRSWM2
0073601010999991985011502004+35733-005900FM-15+0021GMTT V0200201N00671220001CN0112001N1+00701+00101999999ADDAG11999GA1041+006009089MA1101491999999REMMET004NSG?EQDQ01+000000PRSWM2
0111601010999991985011503004+35733-005900FM-12+0021GMTT V0209991C00001220001CN0100001N9+00401+00161101601ADDAA106000091AG14000AY101031GA1031+999999029GF103991031021008001001001MD1510001+9999MW1021REMSYN011333   8320/
0073601010999991985011503304+35733-005900FM-15+0021GMTT V0209991C00001220001CN0112001N1+00401+00201999999ADDAG12999GA1031+006009089MA1101591999999REMMET004NSG?EQDQ01+000000PRSWM2
0073601010999991985011504304+35733-005900FM-15+0021GMTT V0209991C00001220001CN0112001N1+00401+00201999999ADDAG12999GA1031+006009089MA1101591999999REMMET004NSG?EQDQ01+000000PRSWM2
0073601010999991985011505004+35733-005900FM-15+0021GMTT V0200801N00261220001CN0112001N1+00201+00001999999ADDAG12999GA1031+006009089MA1101591999999REMMET004NSG?EQDQ01+000000PRSWM2
0073601010999991985011505304+35733-005900FM-15+0021GMTT V0209991C00001006001CN0112001N1+00201+00001999999ADDAG12000GA1051+006009089MA1101591999999REMMET004NSG?EQDQ01+000000PRSWM2
0196601010999991985011506004+35733-005900SY-MT+0021GMTT V0200801N00151006001CN0100001N1+00281+00071101591ADDAA124999929AG10000AY101061GA1021+004809089GA2041+006009059GF105991051081004501001001KA1120N+00221MA1101491999999MD1810011+9999MW1021REMSYN023333   20022 82816 84620MET004NSG?EQDQ01+000000PRSWM2
0091601010999991985011507004+35733-005900FM-15+0021GMTT V0201201N00151220001CN0112001N1+00301+00101999999ADDAG12999GA1011+004809089GA2031+006009059MA1101591999999REMMET006NOSIG?EQDQ01+000000PRSWM2
0091601010999991985011508004+35733-005900FM-15+0021GMTT V0200801N00151220001CN0112001N1+00301+00101999999ADDAG12999GA1011+004809089GA2031+006009059MA1101591999999REMMET006NOSIG?EQDQ01+000000PRSWM2
0145601010999991985011509004+35733-005900SY-MT+0021GMTT V0203001N00721220001CN0100001N1+00201-00071101761ADDAA106000091AG14000AY101031GA1021+004809089GF102991021021004501001001MA1101691999999MD1310171+9999MW1021REMSYN011333   82816EQDQ01+000000PRSWM2
0060601010999991985011511004+35733-005900FM-15+0021GMTT V0203401N00821220001CN0112001N1+00901+00101999999ADDAG12999GA1021+004809089MA1101901999999EQDQ01+000000PRSWM2
0111601010999991985011512004+35733-005900FM-12+0021GMTT V0203201N01131220001CN0150001N9+00841-00471101981ADDAA106000091AG14000AY101061GA1011+004809059GF101991011021004501001001MD1110231+9999MW1021REMSYN011333   81616
0065601010999991985011513004+35733-005900FM-15+0021GMTT V0203201N01131999991CY0099001N1+00801-00501999999ADDAG12999MA1101901999999REMMET012CAVOK NOSIG?EQDQ01+000000PRSWM2
0065601010999991985011514004+35733-005900FM-15+0021GMTT V0203201N01131999991CY0099001N1+00801-00501999999ADDAG12999MA1101901999999REMMET012CAVOK NOSIG?EQDQ01+000000PRSWM2
0075601010999991985011515004+35733-005900FM-12+0021GMTT V0203201N01291220001CN0150001N9+00781-00621101921ADDAA106000091AG14000AY101031GF100991001001999999001001MD1710061+9999MW1021
0073601010999991985011515304+35733-005900FM-15+0021GMTT V0203201N01541999991CY0099001N1+00801-00601999999ADDAG12999MA1101901999999OC102061REMMET012CAVOK NOSIG?EQDQ01+000000PRSWM2
0065601010999991985011516004+35733-005900FM-15+0021GMTT V0209999999999999991CY0099001N1+00701-00601999999ADDAG12999MA1102001999999REMMET012CAVOK NOSIG?EQDQ01+000000PRSWM2
0071601010999991985011516304+35733-005900FM-15+0021GMTT V0203201N01541999991CY0099001N1+00701-00601999999ADDAG12999MA1102001999999OC102061REMMET010CAVOK NSG?EQDQ01+000000PRSWM2
0081601010999991985011517004+35733-005900FM-15+0021GMTT V0203201N01541220001CN0112001N1+00701-00601999999ADDAG12999GA1021+004809089MA1102001999999OC102061REMMET004NSG?EQDQ01+000000PRSWM2
0138601010999991985011518004+35733-005900SY-MT+0021GMTT V0203201N01751220001CN0100001N1+00541-00941102201ADDAA106000091AG14000AY101061GA1021+004809089GF102991021021004501001001MA1102201999999MD1110271+9999MW1021REMMET004NSG?EQDQ01+000000PRSWM2
0073601010999991985011518304+35733-005900FM-15+0021GMTT V0203201N01541220001CN0112001N1+00501-01001999999ADDAG12999GA1031+004809089MA1102201999999REMMET004NSG?EQDQ01+000000PRSWM2
0075601010999991985011520304+35733-005900FM-15+0021GMTT V0203401N00821220001CN0112001N1+00601-00401999999ADDAG12000GA1011+004809089MA1102301999999REMMET006NOSIG?EQDQ01+000000PRSWM2
0157601010999991985011521004+35733-005900SY-MT+0021GMTT V0203401N01031220001CN0060001N1+00481-00781102341ADDAA106000091AG14000AY101031GA1011+004809089GF101991011021004501001001MA1102301999999MD1110131+9999MW1021REMSYN011333   81816MET006NOSIG?EQDQ01+000000PRSWM2
0063601010999991985011523004+35733-005900FM-15+0021GMTT V0203601N00361999991CY0099001N1+00401-00501999999ADDAG12999MA1102401999999REMMET010CAVOK NSG?EQDQ01+000000PRSWM2
0075601010999991985011600004+35733-005900FM-12+0021GMTT V0203601N00361220001CN0150001N9+00421-00711102511ADDAA106000091AG14000AY101061GF100991001001999999001001MD1310171+9999MW1021
0063601010999991985011600304+35733-005900FM-15+0021GMTT V0203601N00361999991CY0099001N1+00401-00701999999ADDAG11999MA1102511999999REMMET010CAVOK NSG?EQDQ01+000000PRSWM2
0063601010999991985011601004+35733-005900FM-15+0021GMTT V0200601N00151999991CY0099001N1+00201-00501999999ADDAG11999MA1102511999999REMMET010CAVOK NSG?EQDQ01+000000PRSWM2
0065601010999991985011602304+35733-005900FM-15+0021GMTT V0209991C00001999991CY0099001N1+00401-00601999999ADDAG12000MA1102511999999REMMET012CAVOK NOSIG?EQDQ01+000000PRSWM2
0130601010999991985011603004+35733-005900SY-MT+0021GMTT V0209991C00001220001CN0150001N1+00361-00581102561ADDAA106000091AG14000AY101031GF100991001001999999001001MA1102511999999MD1110051+9999MW1021REMMET012CAVOK NOSIG?EQDQ01+000000PRSWM2
0108601010999991985011606004+35733-005900FM-12+0021GMTT V0201001N00101220001CN0150001N9-00141-00391102571ADDAA106000091AG14000AY101061GF100991001001999999001001KA1120N-00151MD1110011+9999MW1021REMSYN011333   21015
0111601010999991985011609004+35733-005900FM-12+0021GMTT V0201601N00871220001CN0150001N9+00341-00641102551ADDAA106000091AG14000AY101031GA1041+004809089GF104991041021004501001001MD1510021+9999MW1021REMSYN011333   84816
0073601010999991985011611004+35733-005900FM-15+0021GMTT V0201801N01131004801CN0112001N1+00701-00301999999ADDAG12999GA1051+004809089MA1102611999999REMMET004NSG?EQDQ01+000000PRSWM2
0145601010999991985011612004+35733-005900SY-MT+0021GMTT V0201801N01131004801CN0150001N1+00921-00121102631ADDAA106000091AG14000AY101061GA1051+004809089GF105991051021004501001001MA1102611999999MD1010081+9999MW1021REMSYN011333   85816EQDQ01+000000PRSWM2
0075601010999991985011612304+35733-005900FM-15+0021GMTT V0201801N01131004801CN0112001N1+00901-00101999999ADDAG12999GA1051+004809089MA1102611999999REMMET006NOSIG?EQDQ01+000000PRSWM2
0073601010999991985011613004+35733-005900FM-15+0021GMTT V0201801N00721004801CN0112001N1+00901-00101999999ADDAG12999GA1051+004809089MA1102611999999REMMET004NSG?EQDQ01+000000PRSWM2
0099601010999991985011614304+35733-005900FM-15+0021GMTT V0201801N00821004801CN0112001N1+01001+00201999999ADDAG12000GA1031+003909089GA2061+004809059MA1102401999999OC101341REMMET006NOSIG?EQDQ01+000000PRSWM2
0179601010999991985011615004+35733-005900SY-MT+0021GMTT V0201801N01031006001CN0150001N1+00941+00191102461ADDAA106000091AG14000AY101031GA1031+004809089GA2061+006009059GF107991071081004501999999MA1102401999999MD1710161+9999MW1021REMSYN017333   83816 86620MET006NOSIG?EQDQ01+000000PRSWM2
0099601010999991985011616004+35733-005900FM-15+0021GMTT V0201801N00931006001CN0112001N1+01001+00301999999ADDAG12999GA1031+004809089GA2061+006009059MA1102401999999OC101441REMMET006NOSIG?EQDQ01+000000PRSWM2
0091601010999991985011617304+35733-005900FM-15+0021GMTT V0201801N00621006001CN0112001N1+00901+00201999999ADDAG12000GA1031+004809089GA2061+006009059MA1102401999999REMMET006NOSIG?EQDQ01+000000PRSWM2
0198601010999991985011618004+35733-005900SY-MT+0021GMTT V0201801N00621006001CN0150001N1+00881+00291102441ADDAA106000091AG14000AY101061GA1031+004809089GA2061+006009059GF107991071081004501999999KA1120M+00961MA1102401999999MD1810021+9999MW1021REMSYN023333   10096 83816 86620MET006NOSIG?EQDQ01+000000PRSWM2
0091601010999991985011618304+35733-005900FM-15+0021GMTT V0201801N00931006001CN0112001N1+00901+00301999999ADDAG12999GA1031+004809089GA2061+006009059MA1102401999999REMMET006NOSIG?EQDQ01+000000PRSWM2
