0105601010999991993010100004+35733-005900SY-MT+0021GMTT V0200601N00261220001CN0100001N9+00701+00561102371ADDAA106000091AG14000GA1041+004809089GF104991041021004501001001MD1510001+9999REMSYN010 333 84816MET003NSG
0139601010999991993010103004+35733-005900SY-MT+0021GMTT V0200601N00411220001CN0100001N1+00651+00531102351ADDAA106000091AG14000GA1041+004809089GF104991041021004501001001MA1102301999999MD1510001+9999REMSYN010 333 84816MET003NSGEQDQ01+000000PRSWM2
0072601010999991993010104004+35733-005900FM-15+0021GMTT V0200601N00411220001CN0112651N1+00701+00601999999ADDAG11999GA1041+004809089MA1102301999999REMMET003NSGEQDQ01+000000PRSWM2
0072601010999991993010105004+35733-005900FM-15+0021GMTT V0200601N00511220001CN0112651N1+00601+00501999999ADDAG11999GA1041+004809089MA1102301999999REMMET003NSGEQDQ01+000000PRSWM2
0158601010999991993010106004+35733-005900SY-MT+0021GMTT V0200601N00411220001CN0100001N1+00751+00581102361ADDAA106000091AG14000GA1041+004809089GF104991041021004501001001KA1120N+00601MA1102301999999MD1310011+9999REMSYN016 333 20060 84816MET003NSGEQDQ01+000000PRSWM2
0072601010999991993010107004+35733-005900FM-15+0021GMTT V0200801N00301220001CN0112651N1+00701+00601999999ADDAG11999GA1041+004809089MA1102301999999REMMET003NSGEQDQ01+000000PRSWM2
0072601010999991993010108004+35733-005900FM-15+0021GMTT V0200601N00301220001CN0112651N1+00601+00501999999ADDAG11999GA1031+004809089MA1102401999999REMMET003NSGEQDQ01+000000PRSWM2
0105601010999991993010109004+35733-005900SY-MT+0021GMTT V0200601N00311220001CN0100001N9+00701+00621102481ADDAA106000091AG14000GA1031+004809089GF103991031021004501001001MD1310121+9999REMSYN010 333 83816MET003NSG
0072601010999991993010110004+35733-005900FM-15+0021GMTT V0200801N00201220001CN0112651N1+01101+00801999999ADDAG11999GA1031+004809089MA1102511999999REMMET003NSGEQDQ01+000000PRSWM2
0096601010999991993010112004+35733-005900SY-MT+0021GMTT V0201401N00311220001CN0100001N9+01571+00841102511ADDAA106000091AG14000GA1031+004809089GF103991031021004501001001MD1110041+9999REMSYN010 333 83816
0072601010999991993010113004+35733-005900FM-15+0021GMTT V0202001N00511220001CN0112651N1+01601+00801999999ADDAG11999GA1041+004809089MA1102511999999REMMET003NSGEQDQ01+000000PRSWM2
0088601010999991993010114004+35733-005900FM-15+0021GMTT V0202201N00411006001CN0112651N1+01501+00801999999ADDAG11999GA1031+004809089GA2051+006009059MA1102301999999REMMET003NSGEQDQ01+000000PRSWM2
0152601010999991993010115004+35733-005900SY-MT+0021GMTT V0202001N00211006001CN0100001N1+01601+00851102281ADDAA106000091AG14000GA1031+004509089GA2031+006009059GF105991051081004501001001MA1102201999999MD1610231+9999REMSYN016 333 83815 83620EQDQ01+000000PRSWM2
0104601010999991993010116004+35733-005900FM-15+0021GMTT V0202201N00411006001CN0112651N1+01601+00901999999ADDAG11999GA1031+004509089GA2031+006009059GA3011+006909099MA1102201999999REMMET003NSGEQDQ01+000000PRSWM2
0088601010999991993010117004+35733-005900FM-15+0021GMTT V0202401N00151220001CN0112651N1+01501+01001999999ADDAG11999GA1031+004509089GA2011+006909099MA1102301999999REMMET003NSGEQDQ01+000000PRSWM2
0180601010999991993010118004+35733-005900SY-MT+0021GMTT V0202601N00211220001CN0100001N1+01251+01081102381ADDAA106000091AG14000GA1041+004809089GA2011+006909099GF104991041031004501001001KA1120M+01621MA1102301999999MD1310101+9999REMSYN022 333 10162 84816 81923MET003NSGEQDQ01+000000PRSWM2
0076601010999991993010119004+35733-005900FM-15+0021GMTT V0200801N00151006901CN0112651N1+01201+01001999999ADDAG11999GA1041+004809089GA2011+006909099MA1102301999999EQDQ01+000000PRSWM2
0076601010999991993010120004+35733-005900FM-15+0021GMTT V0200801N00251006901CN0112651N1+01101+00901999999ADDAG11999GA1041+004809059GA2011+006909099MA1102301999999EQDQ01+000000PRSWM2
0096601010999991993010121004+35733-005900SY-MT+0021GMTT V0200801N00211220001CN0100001N9+00721+00591102411ADDAA106000091AG14000GA1021+004809089GF102991021021004501001001MD1310021+9999REMSYN010 333 82816
0072601010999991993010123004+35733-005900FM-15+0021GMTT V0200801N00201220001CN0112651N1+00801+00601999999ADDAG11999GA1021+004809089MA1102401999999REMMET003NSGEQDQ01+000000PRSWM2
0096601010999991993010200004+35733-005900SY-MT+0021GMTT V0200601N00211220001CN0100001N9+00801+00671102411ADDAA106000091AG14000GA1021+004809089GF102991021021004501001001MD1410001+9999REMSYN010 333 82816
0073601010999991993010201004+35733-005900FM-15+0021GMTT V0200601N00201220001CN0112651N1+00801+00701999999ADDAG11999GA1021+004809089MA1102401999999REMMET004NDSGEQDQ01+000000PRSWM2
0072601010999991993010202004+35733-005900FM-15+0021GMTT V0200801N00301220001CN0112651N1+00801+00701999999ADDAG11999GA1021+004809089MA1102401999999REMMET003NSGEQDQ01+000000PRSWM2
0105601010999991993010203004+35733-005900SY-MT+0021GMTT V0200801N00211220001CN0100001N9+00801+00671102411ADDAA106000091AG14000GA1021+004809089GF102991021021004501001001MD1410001+9999REMSYN010 333 82816MET003NSG
0060601010999991993010205004+35733-005900FM-15+0021GMTT V0200801N00301220001CN0112651N1+00801+00701999999ADDAG11999GA1031+004809089MA1102401999999EQDQ01+000000PRSWM2
0149601010999991993010206004+35733-005900SY-MT+0021GMTT V0201001N00211220001CN0100001N1+00751+00641102331ADDAA106000091AG11000GA1031+004809089GF103991031021004501001001KA1120N+00651MA1102301999999MD1810081+9999REMSYN016 333 20065 83816EQDQ01+000000PRSWM2
0060601010999991993010207004+35733-005900FM-15+0021GMTT V0200801N00201220001CN0112651N1+00801+00601999999ADDAG11999GA1031+004809089MA1102301999999EQDQ01+000000PRSWM2
0088601010999991993010208004+35733-005900FM-15+0021GMTT V0200801N00201004801CN0080001N1+00801+00701999999ADDAG11999GA1051+004809089GA2031+030009039MA1102301999999REMMET003NSGEQDQ01+000000PRSWM2
0127601010999991993010209004+35733-005900SY-MT+0021GMTT V0200801N00151006901CN0080001N9+00761+00651102371ADDAA106000091AG14000GA1041+004809089GA2011+006909099GF107991051031004501081999MD1210041+9999REMSYN016 333 84816 81923MET003NSG
0088601010999991993010211004+35733-005900FM-15+0021GMTT V0203201N00201006901CN0112651N1+01401+01001999999ADDAG11999GA1041+004809089GA2011+006909099MA1102401999999REMMET003NSGEQDQ01+000000PRSWM2
0127601010999991993010212004+35733-005900SY-MT+0021GMTT V0203201N00211004801CN0100001N9+01311+00661102421ADDAA106000091AG14000GA1061+004809089GA2011+006909099GF106991061031004501001001MD1010061+9999REMSYN016 333 86816 81923MET003NSG
0076601010999991993010213004+35733-005900FM-15+0021GMTT V0202401N00201006901CN0112651N1+01301+00701999999ADDAG11999GA1041+004809089GA2011+006909099MA1102301999999EQDQ01+000000PRSWM2
0076601010999991993010214004+35733-005900FM-15+0021GMTT V0202401N00301006901CN0112651N1+01401+00701999999ADDAG11999GA1041+004809999GA2011+006909099MA1102301999999EQDQ01+000000PRSWM2
0152601010999991993010215004+35733-005900SY-MT+0021GMTT V0202601N00411220001CN0100001N1+01361+00761102301ADDAA106000091AG14000GA1031+004809089GA2011+006909099GF104991041031008001001001MA1102301999999MD1610121+9999REMSYN016 333 83816 81923EQDQ01+000000PRSWM2
0060601010999991993010216004+35733-005900FM-15+0021GMTT V0209999999999004801CN0112651N1+01401+00401999999ADDAG11999GA1051+004809089MA1102301999999EQDQ01+000000PRSWM2
0060601010999991993010217004+35733-005900FM-15+0021GMTT V0202801N00361004801CN0112651N1+01301+00501999999ADDAG11999GA1051+004809089MA1102301999999EQDQ01+000000PRSWM2
0149601010999991993010218004+35733-005900SY-MT+0021GMTT V0203001N00411220001CN0100001N1+01101+00321102341ADDAA106000091AG14000GA1031+004809089GF103991031021004501001001KA1120M+01461MA1102301999999MD1510021+9999REMSYN016 333 10146 83816EQDQ01+000000PRSWM2
0060601010999991993010219004+35733-005900FM-15+0021GMTT V0203401N00251220001CN0112651N1+00901+00301999999ADDAG11999GA1021+004809089MA1102301999999EQDQ01+000000PRSWM2
0060601010999991993010220004+35733-005900FM-15+0021GMTT V0200401N00151220001CN0112651N1+00801+00401999999ADDAG11999GA1021+004809089MA1102301999999EQDQ01+000000PRSWM2
0139601010999991993010221004+35733-005900SY-MT+0021GMTT V0201001N00311220001CN0100001N1+00561+00301102411ADDAA106000091AG14000GA1031+004809059GF103991031051004501001001MA1102401999999MD1310061+9999REMSYN010 333 83616MET003NSGEQDQ01+000000PRSWM2
0072601010999991993010222004+35733-005900FM-15+0021GMTT V0201001N00301220001CN0112651N1+00501+00301999999ADDAG11999GA1031+004809059MA1102401999999REMMET003NSGEQDQ01+000000PRSWM2
0072601010999991993010223004+35733-005900FM-15+0021GMTT V0200801N00301220001CN0112651N1+00501+00201999999ADDAG11999GA1031+004809059MA1102401999999REMMET003NSGEQDQ01+000000PRSWM2
0096601010999991993010300004+35733-005900FM-12+0021GMTT V0200801N00311220001CN0100001N9+00501+00261102481ADDAA106000091AG14000GA1021+004809059GF102991021051004501001001MD1110071+9999REMSYN010 333 82616
0072601010999991993010301004+35733-005900FM-15+0021GMTT V0201001N00301220001CN0112651N1+00501+00201999999ADDAG11999GA1021+004809059MA1102401999999REMMET003NSGEQDQ01+000000PRSWM2
0105601010999991993010303004+35733-005900SY-MT+0021GMTT V0200801N00311220001CN0100001N9+00451+00211102511ADDAA106000091AG14000GA1021+004809059GF102991021051004501001001MD1310031+9999REMSYN010 333 82616MET003NSG
0060601010999991993010304004+35733-005900FM-15+0021GMTT V0201001N00301220001CN0112651N1+00401+00201999999ADDAG11999GA1021+004809059MA1102511999999EQDQ01+000000PRSWM2
0060601010999991993010305004+35733-005900FM-15+0021GMTT V0209991C00001004801CN0112651N1+00501+00401999999ADDAG11999GA1051+004809059MA1102511999999EQDQ01+000000PRSWM2
0115601010999991993010306004+35733-005900SY-MT+0021GMTT V0200801N00211004801CN0100001N9+00651+00421102531ADDAA106000091AG14000GA1071+004809059GF107991071051004501999999KA1120N+00251MD1210021+9999REMSYN016 333 20025 87616
0060601010999991993010307004+35733-005900FM-15+0021GMTT V0209991C00001220001CN0112651N1+00501+00301999999ADDAG11999GA1041+004809059MA1102511999999EQDQ01+000000PRSWM2
0060601010999991993010308004+35733-005900FM-15+0021GMTT V0200401N00301004801CN0112651N1+00601+00401999999ADDAG11999GA1051+004809089MA1102511999999EQDQ01+000000PRSWM2
0130601010999991993010309004+35733-005900SY-MT+0021GMTT V0201001N00101220001CN0100001N1+00841+00481102641ADDAA106000091AG14000GA1041+004809089GF104991041021004501001001MA1102611999999MD1210111+9999REMSYN010 333 84816EQDQ01+000000PRSWM2
0076601010999991993010311004+35733-005900FM-15+0021GMTT V0201601N00511004801CN0112651N1+01301+00701999999ADDAG11999GA1021+004509089GA2041+004809059MA1102711999999EQDQ01+000000PRSWM2
0152601010999991993010312004+35733-005900SY-MT+0021GMTT V0201601N00511004801CN0100001N1+01361+00701102711ADDAA106000091AG14000GA1021+004509089GA2041+004809059GF105991051081004501001001MA1102711999999MD1010131+9999REMSYN016 333 82815 84616EQDQ01+000000PRSWM2
0076601010999991993010313004+35733-005900FM-15+0021GMTT V0202401N00611004801CN0112651N1+01401+00701999999ADDAG11999GA1031+004509089GA2051+004809059MA1102711999999EQDQ01+000000PRSWM2
0152601010999991993010315004+35733-005900SY-MT+0021GMTT V0202801N00571004801CN0100001N1+01371+00841102601ADDAA106000091AG14000GA1021+004509089GA2051+004809059GF106991061081004501001001MA1102611999999MD1710111+9999REMSYN016 333 82815 85616EQDQ01+000000PRSWM2
0088601010999991993010316004+35733-005900FM-15+0021GMTT V0202601N00411220001CN0112651N1+01401+00501999999ADDAG11999GA1011+004509089GA2041+004809059MA1102611999999REMMET003NSGEQDQ01+000000PRSWM2
0088601010999991993010317004+35733-005900FM-15+0021GMTT V0202601N00411004801CN0112651N1+01301+00601999999ADDAG11999GA1021+003909089GA2041+004809059MA1102611999999REMMET003NSGEQDQ01+000000PRSWM2
0146601010999991993010318004+35733-005900SY-MT+0021GMTT V0202601N00361004801CN0150001N9+01131+00571102621ADDAA106000091AG14000GA1011+004509089GA2051+004809059GF105991051081004501001001KA1120M+01461MD1310021+9999REMSYN022 333 10146 81815 85616MET003NSG
0076601010999991993010319004+35733-005900FM-15+0021GMTT V0202601N00411004801CN0112651N1+01101+00601999999ADDAG11999GA1021+003909089GA2051+004809059MA1102611999999EQDQ01+000000PRSWM2
0076601010999991993010320004+35733-005900FM-15+0021GMTT V0202601N00301004801CN0112651N1+01101+00501999999ADDAG11999GA1021+003909089GA2051+004809059MA1102611999999EQDQ01+000000PRSWM2
0118601010999991993010321004+35733-005900SY-MT+0021GMTT V0202401N00511004801CN0100001N9+01081+00531102721ADDAA106000091AG14000GA1021+004509089GA2041+004809059GF105991051081004501001001MD1210101+9999REMSYN016 333 82815 84616
0076601010999991993010322004+35733-005900FM-15+0021GMTT V0202201N00411004801CN0112651N1+01001+00501999999ADDAG11999GA1021+004509089GA2041+004809059MA1102711999999EQDQ01+000000PRSWM2
0076601010999991993010323004+35733-005900FM-15+0021GMTT V0201601N00411004801CN0112651N1+01001+00501999999ADDAG11999GA1021+004509089GA2041+004809059MA1102711999999EQDQ01+000000PRSWM2
0118601010999991993010400004+35733-005900FM-12+0021GMTT V0201601N00411004801CN0100001N9+00751+00261102881ADDAA106000091AG14000GA1021+004509089GA2041+004809059GF105991051081004501001001MD1110091+9999REMSYN016 333 82815 84616
0076601010999991993010402004+35733-005900FM-15+0021GMTT V0202001N00201004801CN0112651N1+00701+00301999999ADDAG11999GA1021+004509089GA2041+004809059MA1102811999999EQDQ01+000000PRSWM2
0118601010999991993010403004+35733-005900FM-12+0021GMTT V0202201N00261004801CN0100001N9+00681+00301102901ADDAA106000091AG14000GA1031+004509089GA2051+004809059GF106991061081004501001001MD1310021+9999REMSYN016 333 83815 85616
0076601010999991993010404004+35733-005900FM-15+0021GMTT V0201801N00411004801CN0112651N1+00701+00401999999ADDAG11999GA1031+004509089GA2051+004809059MA1102911999999EQDQ01+000000PRSWM2
0171601010999991993010406004+35733-005900SY-MT+0021GMTT V0201601N00411004801CN0100001N1+00761+00491999999ADDAA106000091AG14000GA1031+004509089GA2051+004809059GF106991061081004501001001KA1120N+00681MA1102911999999MD1410001+9999REMSYN022 333 20068 83815 86616EQDQ01+000000PRSWM2
0061601010999991993010407004+35733-005900FM-15+0021GMTT V0201401N00411004801CN0112651N1+00801+00501999999ADDAG11999GA1031+004509089GA2051+004809059EQDQ01+000000PRSWM2
0072601010999991993010408004+35733-005900FM-15+0021GMTT V0201601N00461220001CN0112651N1+00801+00501999999ADDAG11999GA1041+004809059MA1102911999999REMMET003NSGEQDQ01+000000PRSWM2
0115601010999991993010409004+35733-005900SY-MT+0021GMTT V0201401N00311220001CN0100001N9+00931+00541103011ADDAA106000091AG14000GA1021+004809059GF102991021051999999001001MD1210101+9999REMSYN010 333 82816EQDQ01+000992SCOLCB
0060601010999991993010410004+35733-005900FM-15+0021GMTT V0201601N00461004801CN0112651N1+01101+00601999999ADDAG11999GA1051+004809059MA1103121999999EQDQ01+000000PRSWM2
0060601010999991993010411004+35733-005900FM-15+0021GMTT V0201801N00511004801CN0112651N1+01201+00701999999ADDAG11999GA1051+004809059MA1103121999999EQDQ01+000000PRSWM2
0096601010999991993010412004+35733-005900SY-MT+0021GMTT V0202001N00621004801CN0100001N9+01421+00651103151ADDAA106000091AG14000GA1051+004809059GF105991051051004501001001MD1110151+9999REMSYN010 333 85816
0072601010999991993010413004+35733-005900FM-15+0021GMTT V0202201N00721220001CN0112651N1+01501+00701999999ADDAG11999GA1041+004809089MA1103121999999REMMET003NSGEQDQ01+000000PRSWM2
0130601010999991993010415004+35733-005900SY-MT+0021GMTT V0202201N00411220001CN0100001N1+01461+00531103061ADDAA106000091AG14000GA1031+004809089GF103991031021004501001001MA1103011999999MD1710091+9999REMSYN010 333 83816EQDQ01+000000PRSWM2
0115601010999991993010418004+35733-005900SY-MT+0021GMTT V0202401N00211220001CN0100001N9+01131+00641103141ADDAA106000091AG14000GA1011+004809089GF102991011021004501001021KA1120M+01651MD1310081+9999REMSYN016 333 10165 81816
0060601010999991993010419004+35733-005900FM-15+0021GMTT V0201001N00201220001CN0112651N1+01101+00601999999ADDAG11999GA1011+004809089MA1103121999999EQDQ01+000000PRSWM2
0096601010999991993010421004+35733-005900FM-12+0021GMTT V0200801N00311220001CN0100001N9+00681+00461103221ADDAA106000091AG14000GA1011+004809089GF101991011021004501001001MD1310081+9999REMSYN010 333 81816
0072601010999991993010422004+35733-005900FM-15+0021GMTT V0200801N00361220001CN0112651N1+00701+00501999999ADDAG11999GA1011+004809089MA1103181999999REMMET003NSGEQDQ01+000000PRSWM2
0072601010999991993010423004+35733-005900FM-15+0021GMTT V0200801N00361220001CN0112651N1+00701+00501999999ADDAG11999GA1011+004809089MA1103181999999REMMET003NSGEQDQ01+000000PRSWM2
0112601010999991993010500004+35733-005900SY-MT+0021GMTT V0200801N00361220001CN0100001N1+00501+00381103161ADDAA106000091AG14000GF100991001001999999001001MA1103121999999MD1810061+9999REMMET008CAVOK NSEQDQ01+000000PRSWM2
0061601010999991993010501004+35733-005900FM-15+0021GMTT V0200801N00301999991CY0099001N1+00501+00401999999ADDAG11999MA1103121999999REMMET008CAVOK NSEQDQ01+000000PRSWM2
0061601010999991993010502004+35733-005900FM-15+0021GMTT V0200801N00411999991CY0099001N1+00501+00401999999ADDAG11999MA1103121999999REMMET008CAVOK NSEQDQ01+000000PRSWM2
0078601010999991993010503004+35733-005900SY-MT+0021GMTT V0200801N00411220001CN0100001N9+00481+00361103131ADDAA106000091AG14000GF100991001001999999001001MD1610031+9999REMMET008CAVOK NS
0061601010999991993010504004+35733-005900FM-15+0021GMTT V0200801N00411999991CY0099001N1+00501+00401999999ADDAG11999MA1103121999999REMMET008CAVOK NSEQDQ01+000000PRSWM2
0061601010999991993010505004+35733-005900FM-15+0021GMTT V0200801N00411999991CY0099001N1+00501+00401999999ADDAG11999MA1103121999999REMMET008CAVOK NSEQDQ01+000000PRSWM2
0141601010999991993010506004+35733-005900SY-MT+0021GMTT V0200801N00261220001CN0100001N1+00351+00251103081ADDAA106000091AG14000GF100991001001999999001001KA1120N+00321MA1103011999999MD1610051+9999REMSYN010 333 20032MET008CAVOK NSEQDQ01+000000PRSWM2
0061601010999991993010507004+35733-005900FM-15+0021GMTT V0200801N00301999991CY0099001N1+00401+00201999999ADDAG11999MA1103011999999REMMET008CAVOK NSEQDQ01+000000PRSWM2
0096601010999991993010509004+35733-005900FM-12+0021GMTT V0200601N00621220001CN0100001N9+01051+00781103131ADDAA106000091AG14000GA1021+004809089GF102991021021004501001001MD1310051+9999REMSYN010 333 82816
0076601010999991993010510004+35733-005900FM-15+0021GMTT V0200601N01021220001CN0112651N1+99999+99999999999ADDAG11999GA1021+004809089MA1103121999999REMMET00719 1031EQDQ01+000000PRSWM2
0068601010999991993010511004+35733-005900FM-15+0021GMTT V0200601N01331220001CN0112651N1+01501+00801999999ADDAG11999GA1021+004809089MA1103181999999OC101851EQDQ01+000000PRSWM2
0159601010999991993010512004+35733-005900FM-12+0021GMTT V0202701N00461010501CN0100001N9+01061+00631999999ADDAA106000091AG14000GA1021+006009089GA2031+010509059GA3051+030009049GF106991041081008001071001MD1810021+9999REMSYN022 333 82820 83635 85460EQDQ01+102013APOSLP
0068601010999991993010513004+35733-005900FM-15+0021GMTT V0200601N01021220001CN0112651N1+01601+00701999999ADDAG11999GA1021+004809089MA1103181999999OC101541EQDQ01+000000PRSWM2
0080601010999991993010514004+35733-005900FM-15+0021GMTT V0200801N01021220001CN0112651N1+01601+00801999999ADDAG11999GA1021+004809089MA1103011999999OC101541REMMET003NSGEQDQ01+000000PRSWM2
0130601010999991993010515004+35733-005900SY-MT+0021GMTT V0200401N01231220001CN0100001N1+01571+00731102981ADDAA106000091AG11000GA1021+004809089GF102991021021004501001001MA1102911999999MD1710241+9999REMSYN010 333 82816EQDQ01+000000PRSWM2
0072601010999991993010516004+35733-005900FM-15+0021GMTT V0200401N01231220001CN0112651N1+01501+00801999999ADDAG11999GA1021+004809089MA1102911999999REMMET003NSGEQDQ01+000000PRSWM2
0072601010999991993010517004+35733-005900FM-15+0021GMTT V0200401N01331220001CN0112651N1+01501+00801999999ADDAG11999GA1021+004809089MA1102911999999REMMET003NSGEQDQ01+000000PRSWM2
0149601010999991993010518004+35733-005900SY-MT+0021GMTT V0200601N01231220001CN0100001N1+01341+00571102991ADDAA106000091AG11000GA1021+004809089GF102991021021004501001001KA1120M+01621MA1102911999999MD1310011+9999REMSYN016 333 10162 82816EQDQ01+000000PRSWM2
0060601010999991993010519004+35733-005900FM-15+0021GMTT V0200601N01231220001CN0112651N1+01301+00601999999ADDAG11999GA1021+004809089MA1102911999999EQDQ01+000000PRSWM2
0060601010999991993010520004+35733-005900FM-15+0021GMTT V0200601N01231220001CN0112651N1+01301+00601999999ADDAG11999GA1021+004809089MA1103011999999EQDQ01+000000PRSWM2
0138601010999991993010521004+35733-005900SY-MT+0021GMTT V0200601N01231220001CN0100001N1+01241+00601103111ADDAA106000091AG11000GA1011+004809089GF102991021021004501001001MA1103121999999MD1310121+9999OC101741REMSYN010 333 82816EQDQ01+000000PRSWM2
0068601010999991993010523004+35733-005900FM-15+0021GMTT V0200601N01331220001CN0112651N1+01201+00601999999ADDAG11999GA1021+004809089MA1103121999999OC101851EQDQ01+000000PRSWM2
0096601010999991993010600004+35733-005900FM-12+0021GMTT V0200601N01231220001CN0100001N9+01251+00511103181ADDAA106000091AG14000GA1021+004809089GF102991021021004501001001MD1210071+9999REMSYN010 333 82816
0068601010999991993010602004+35733-005900FM-15+0021GMTT V0200601N00921220001CN0112651N1+01101+00601999999ADDAG11999GA1021+004809089MA1103121999999OC101541EQDQ01+000000PRSWM2
0109601010999991993010603004+35733-005900SY-MT+0021GMTT V0200601N00931220001CN0100001N1+01101+00471103201ADDAA106000091AG14000GF100991001001999999001001MA1103181999999MD1110021+9999REMMET005CAVOKEQDQ01+000000PRSWM2
0061601010999991993010605004+35733-005900FM-15+0021GMTT V0200801N01021999991CY0099001N1+01101+00501999999ADDAG11999MA1103121999999REMMET008CAVOK NSEQDQ01+000000PRSWM2
0061601010999991993010607004+35733-005900FM-15+0021GMTT V0209999999999999991CY0099001N1+01201+00501999999ADDAG11999MA1103011999999REMMET008CAVOK NSEQDQ01+000000PRSWM2
0061601010999991993010608004+35733-005900FM-15+0021GMTT V0200801N01021999991CY0099001N1+01201+00501999999ADDAG11999MA1103121999999REMMET008CAVOK NSEQDQ01+000000PRSWM2
0078601010999991993010609004+35733-005900SY-MT+0021GMTT V0200601N00621220001CN0100001N9+01171+00511103221ADDAA106000091AG14000GF100991001001999999001001MD1310141+9999REMMET008CAVOK NS
0061601010999991993010610004+35733-005900FM-15+0021GMTT V0201001N00921999991CY0099001N1+01301+00601999999ADDAG11999MA1103181999999REMMET008CAVOK NSEQDQ01+000000PRSWM2
0061601010999991993010611004+35733-005900FM-15+0021GMTT V0201001N00821999991CY0099001N1+01501+00501999999ADDAG11999MA1103291999999REMMET008CAVOK NSEQDQ01+000000PRSWM2
0112601010999991993010612004+35733-005900SY-MT+0021GMTT V0201001N00721220001CN0200001N1+01601+00661103311ADDAA106000091AG14000GF100991001001999999001001MA1103291999999MD1110091+9999REMMET008CAVOK NSEQDQ01+000000PRSWM2
0058601010999991993010616004+35733-005900FM-15+0021GMTT V0200601N00821999991CY0099001N1+01601+00601999999ADDAG11999MA1103121999999REMMET005CAVOKEQDQ01+000000PRSWM2
0058601010999991993010617004+35733-005900FM-15+0021GMTT V0200601N00721999991CY0099001N1+01501+00601999999ADDAG11999MA1103121999999REMMET005CAVOKEQDQ01+000000PRSWM2
0109601010999991993010618004+35733-005900FM-12+0021GMTT V0200601N00721220001CN0150001N9+01201+00551103201ADDAA106000091AG14000GA1001+999999999GF100991001001999999001001KA1120M+01661MD1310061+9999REMSYN010 333 10166
0058601010999991993010619004+35733-005900FM-15+0021GMTT V0200601N00611999991CY0099001N1+01101+00601999999ADDAG11999MA1103181999999REMMET005CAVOKEQDQ01+000000PRSWM2
0058601010999991993010620004+35733-005900FM-15+0021GMTT V0200801N00411999991CY0099001N1+01001+00601999999ADDAG11999MA1103181999999REMMET005CAVOKEQDQ01+000000PRSWM2
0078601010999991993010621004+35733-005900SY-MT+0021GMTT V0200801N00621220001CN0100001N9+00921+00551103291ADDAA106000091AG14000GF100991001001999999001001MD1310081+9999REMMET008CAVOK NS
0061601010999991993010622004+35733-005900FM-15+0021GMTT V0200801N00721999991CY0099001N1+00901+00501999999ADDAG11999MA1103181999999REMMET008CAVOK NSEQDQ01+000000PRSWM2
0061601010999991993010623004+35733-005900FM-15+0021GMTT V0200801N00821999991CY0099001N1+00801+00501999999ADDAG11999MA1103181999999REMMET008CAVOK NSEQDQ01+000000PRSWM2
0078601010999991993010700004+35733-005900SY-MT+0021GMTT V0200601N00721220001CN0100001N9+00951+00551103281ADDAA106000091AG14000GF100991001001999999001001MD1810011+9999REMMET008CAVOK NS
0061601010999991993010701004+35733-005900FM-15+0021GMTT V0200801N00821999991CY0099001N1+00901+00601999999ADDAG11999MA1103181999999REMMET008CAVOK NSEQDQ01+000000PRSWM2
0061601010999991993010702004+35733-005900FM-15+0021GMTT V0200601N00721999991CY0099001N1+00901+00601999999ADDAG11999MA1103181999999REMMET008CAVOK NSEQDQ01+000000PRSWM2
0078601010999991993010703004+35733-005900SY-MT+0021GMTT V0200801N00621220001CN0100001N9+00901+00601103271ADDAA106000091AG14000GF100991001001999999001001MD1610011+9999REMMET008CAVOK NS
0058601010999991993010704004+35733-005900FM-15+0021GMTT V0200801N00611999991CY0099001N1+00901+00601999999ADDAG11999MA1103181999999REMMET005CAVOKEQDQ01+000000PRSWM2
0058601010999991993010705004+35733-005900FM-15+0021GMTT V0200801N00511999991CY0099001N1+00901+00601999999ADDAG11999MA1103181999999REMMET005CAVOKEQDQ01+000000PRSWM2
0138601010999991993010706004+35733-005900SY-MT+0021GMTT V0200801N00461220001CN0100001N1+01001+00571103171ADDAA106000091AG14000GF100991001001999999001001KA1120N+00861MA1103121999999MD1810101+9999REMSYN010 333 20086MET005CAVOKEQDQ01+000000PRSWM2
0058601010999991993010707004+35733-005900FM-15+0021GMTT V0200801N00461999991CY0099001N1+01001+00601999999ADDAG11999MA1103121999999REMMET005CAVOKEQDQ01+000000PRSWM2
0061601010999991993010708004+35733-005900FM-15+0021GMTT V0200801N00821999991CY0099001N1+01001+00601999999ADDAG11999MA1103121999999REMMET008CAVOK NSEQDQ01+000000PRSWM2
0077601010999991993010709004+35733-005900FM-12+0021GMTT V0200601N00931220001CN0200001N9+01221+00571103241ADDAA106000091AG14000GA1001+999999999GF100991001001999999001001MD1110081+9999
0058601010999991993010711004+35733-005900FM-15+0021GMTT V0200801N00821999991CY0099001N1+01401+00601999999ADDAG11999MA1103291999999REMMET005CAVOKEQDQ01+000000PRSWM2
0109601010999991993010712004+35733-005900SY-MT+0021GMTT V0200801N00721220001CN0200001N1+01551+00771103341ADDAA106000091AG14000GF100991001001999999001001MA1103291999999MD1010101+9999REMMET005CAVOKEQDQ01+000000PRSWM2
0058601010999991993010714004+35733-005900FM-15+0021GMTT V0200601N00821999991CY0099001N1+01601+00801999999ADDAG11999MA1103181999999REMMET005CAVOKEQDQ01+000000PRSWM2
0058601010999991993010715004+35733-005900FM-15+0021GMTT V0200801N00721999991CY0099001N1+01601+00601999999ADDAG11000MA1103121999999REMMET005CAVOKEQDQ01+000000PRSWM2
0058601010999991993010716004+35733-005900FM-15+0021GMTT V0200801N00611999991CY0099001N1+01601+00501999999ADDAG11999MA1103011999999REMMET005CAVOKEQDQ01+000000PRSWM2
0104601010999991993010718004+35733-005900SY-MT+0021GMTT V0200801N00311220001CN0100001N9+01201+00551103101ADDAA106000091AG14000GF100991001001999999001001KA1120M+01721MD1010001+9999REMSYN010 333 10172MET005CAVOK
0061601010999991993010719004+35733-005900FM-15+0021GMTT V0200801N00511999991CY0099001N1+01101+00601999999ADDAG11999MA1103121999999REMMET008CAVOK NSEQDQ01+000000PRSWM2
0061601010999991993010720004+35733-005900FM-15+0021GMTT V0200601N00461999991CY0099001N1+01001+00601999999ADDAG11999MA1103121999999REMMET008CAVOK NSEQDQ01+000000PRSWM2
0075601010999991993010721004+35733-005900SY-MT+0021GMTT V0200601N00621220001CN0150001N9+00861+00641103151ADDAA106000091AG14000GF100991001001999999001001MD1110051+9999REMMET005CAVOK
0058601010999991993010722004+35733-005900FM-15+0021GMTT V0200601N00511999991CY0099001N1+00801+00401999999ADDAG11999MA1103121999999REMMET005CAVOKEQDQ01+000000PRSWM2
0075601010999991993010800004+35733-005900SY-MT+0021GMTT V0200601N00511220001CN0150001N9+00561+00211103241ADDAA106000091AG14000GF100991001001999999001001MD1310041+9999REMMET005CAVOK
0043601010999991993010801004+35733-005900FM-15+0021GMTT V0200601N00301999991CY0099001N1+00601+00201999999ADDAG11999REMMET005CAVOKEQDQ01+000000PRSWM2
0077601010999991993010803004+35733-005900FM-12+0021GMTT V0200401N00511220001CN0150001N9+00521+00201103211ADDAA106000091AG14000GA1001+999999999GF100991001001999999001001MD1610031+9999
0043601010999991993010805004+35733-005900FM-15+0021GMTT V0200401N00611999991CY0099001N1+00501+00201999999ADDAG11999REMMET005CAVOKEQDQ01+000000PRSWM2
0104601010999991993010806004+35733-005900SY-MT+0021GMTT V0200601N00411220001CN0150001N9+00511+00371103151ADDAA106000091AG14000GF100991001001999999001001KA1120N+00511MD1610021+9999REMSYN010 333 20051MET005CAVOK
0058601010999991993010808004+35733-005900FM-15+0021GMTT V0200601N00511999991CY0099001N1+00601+00401999999ADDAG11999MA1103121999999REMMET005CAVOKEQDQ01+000000PRSWM2
0107601010999991993010809004+35733-005900SY-MT+0021GMTT V0200601N00361220001CN0150001N9+00841+00461103201ADDAA106000091AG14000GA1031+069009009GF103991001001999999001021MD1310051+9999REMSYN010 333 83073MET005CAVOK
0061601010999991993010810004+35733-005900FM-15+0021GMTT V0201001N00201999991CY0099001N1+01001+00501999999ADDAG11999MA1103181999999REMMET008CAVOK NSEQDQ01+000000PRSWM2
0061601010999991993010811004+35733-005900FM-15+0021GMTT V0209991C00001999991CY0099001N1+01301+00701999999ADDAG11999MA1103181999999REMMET008CAVOK NSEQDQ01+000000PRSWM2
0110601010999991993010812004+35733-005900SY-MT+0021GMTT V0202201N00151220001CN0150001N9+01561+00741103281ADDAA106000091AG14000GA1031+069009009GF103991001001999999001021MD1110091+9999REMSYN010 333 83073MET008CAVOK NS
0061601010999991993010813004+35733-005900FM-15+0021GMTT V0202201N00301999991CY0099001N1+01601+00701999999ADDAG11999MA1103181999999REMMET008CAVOK NSEQDQ01+000000PRSWM2
0061601010999991993010814004+35733-005900FM-15+0021GMTT V0202201N00201999991CY0099001N1+01601+00701999999ADDAG11999MA1103181999999REMMET008CAVOK NSEQDQ01+000000PRSWM2
0096601010999991993010815004+35733-005900FM-12+0021GMTT V0202401N00101220001CN0150001N9+01521+00661103121ADDAA106000091AG14000GA1031+069009009GF103991001001999999001021MD1810161+9999REMSYN010 333 83073
0058601010999991993010816004+35733-005900FM-15+0021GMTT V0209991C00001999991CY0099001N1+01501+00701999999ADDAG11999MA1103121999999REMMET005CAVOKEQDQ01+000000PRSWM2
0058601010999991993010817004+35733-005900FM-15+0021GMTT V0202801N00201999991CY0099001N1+01501+00701999999ADDAG11999MA1103121999999REMMET005CAVOKEQDQ01+000000PRSWM2
0061601010999991993010818004+35733-005900FM-15+0021GMTT V0209991C00001999991CY0099001N1+01201+00601999999ADDAG11000MA1103121999999REMMET008CAVOK NSEQDQ01+000000PRSWM2
0058601010999991993010819004+35733-005900FM-15+0021GMTT V0209991C00001999991CY0099001N1+01201+00601999999ADDAG11999MA1103121999999REMMET005CAVOKEQDQ01+000000PRSWM2
0058601010999991993010820004+35733-005900FM-15+0021GMTT V0200801N00201999991CY0099001N1+00601+00401999999ADDAG11999MA1103181999999REMMET005CAVOKEQDQ01+000000PRSWM2
0107601010999991993010821004+35733-005900SY-MT+0021GMTT V0200801N00311220001CN0150001N9+00451+00281103211ADDAA106000091AG14000GA1021+069009009GF102991001001999999001021MD1310041+9999REMSYN010 333 82073MET005CAVOK
0058601010999991993010823004+35733-005900FM-15+0021GMTT V0200801N00251999991CY0099001N1+00601+00401999999ADDAG11999MA1103181999999REMMET005CAVOKEQDQ01+000000PRSWM2
0096601010999991993010900004+35733-005900FM-12+0021GMTT V0200801N00411220001CN0100001N9+00481+00321103271ADDAA106000091AG14000GA1031+069009009GF103991001001999999001021MD1310061+9999REMSYN010 333 83073
0058601010999991993010902004+35733-005900FM-15+0021GMTT V0200801N00251999991CY0099001N1+00501+00401999999ADDAG11999MA1103181999999REMMET005CAVOKEQDQ01+000000PRSWM2
0141601010999991993010903004+35733-005900SY-MT+0021GMTT V0209991C00001220001CN0100001N1+00511+00321103251ADDAA106000091AG14000GA1021+069009009GF102991001001999999001021MA1103181999999MD1710021+9999REMSYN010 333 82073MET005CAVOKEQDQ01+000000PRSWM2
0058601010999991993010904004+35733-005900FM-15+0021GMTT V0200801N00251999991CY0099001N1+00401+00301999999ADDAG11999MA1103181999999REMMET005CAVOKEQDQ01+000000PRSWM2
0058601010999991993010905004+35733-005900FM-15+0021GMTT V0200801N00301999991CY0099001N1+00501+00301999999ADDAG11999MA1103181999999REMMET005CAVOKEQDQ01+000000PRSWM2
0137601010999991993010906004+35733-005900FM-12+0021GMTT V0200801N00311220001CN0100001N9+00441+00251103231ADDAA106000091AG14000GA1011+004809059GA2031+069009009GF103991011051004501001021KA1120N+00341MD1710021+9999REMSYN022 333 20034 81616 83073
0072601010999991993010908004+35733-005900FM-15+0021GMTT V0200801N00301004501CN0112651N1+00701+00401999999ADDAG11999GA1061+004509059MA1103181999999REMMET003NSGEQDQ01+000000PRSWM2
0105601010999991993010909004+35733-005900SY-MT+0021GMTT V0200801N00311220001CN0100001N9+00701+00471103331ADDAA106000091AG14000GA1031+004509059GF103991031051004501001001MD1310101+9999REMSYN010 333 83615MET003NSG
0061601010999991993010910004+35733-005900FM-15+0021GMTT V0200801N00411999991CY0099001N1+01101+00301999999ADDAG11999MA1103291999999REMMET008CAVOK NSEQDQ01+000000PRSWM2
0058601010999991993010911004+35733-005900FM-15+0021GMTT V0200801N00201999991CY0099001N1+01301+00901999999ADDAG11999MA1103391999999REMMET005CAVOKEQDQ01+000000PRSWM2
0107601010999991993010912004+35733-005900SY-MT+0021GMTT V0209991C00001220001CN0100001N9+01611+00841103401ADDAA106000091AG14000GA1031+069009009GF103991001001999999001021MD1010081+9999REMSYN010 333 83073MET005CAVOK
0058601010999991993010913004+35733-005900FM-15+0021GMTT V0202001N00411999991CY0099001N1+01601+00801999999ADDAG11999MA1103291999999REMMET005CAVOKEQDQ01+000000PRSWM2
0076601010999991993010914004+35733-005900FM-15+0021GMTT V0202401N00201220001CN0112651N1+01601+00801999999ADDAG11999GA1021+004809089GA2031+069009009MA1103181999999EQDQ01+000000PRSWM2
0164601010999991993010915004+35733-005900SY-MT+0021GMTT V0202201N00261069001CN0100001N1+01521+00821103231ADDAA106000091AC1299AG14000GA1021+004809089GA2051+069009009GF106991021021004501001021IA2240+02809MA1103181999999MD1710161+9999REMSYN010 333 02816EQDQ01+000000PRSWM2
0076601010999991993010916004+35733-005900FM-15+0021GMTT V0202201N00301069001CN0112651N1+01501+00801999999ADDAG11999GA1021+004809089GA2051+069009009MA1103181999999EQDQ01+000000PRSWM2
0076601010999991993010917004+35733-005900FM-15+0021GMTT V0202201N00301069001CN0112651N1+01501+00801999999ADDAG11999GA1021+004809089GA2051+069009009MA1103181999999EQDQ01+000000PRSWM2
0137601010999991993010918004+35733-005900SY-MT+0021GMTT V0202401N00151069001CN0100001N9+01381+00951103261ADDAA106000091AG14000GA1031+004809089GA2041+069009009GF106991031021004501001021KA1120M+01681MD1310031+9999REMSYN022 333 10168 83816 84073
0076601010999991993010919004+35733-005900FM-15+0021GMTT V0200801N00201069001CN0112651N1+01301+01001999999ADDAG11999GA1031+004809059GA2041+069009009MA1103181999999EQDQ01+000000PRSWM2
0076601010999991993010920004+35733-005900FM-15+0021GMTT V0200801N00201069001CN0112651N1+01101+00901999999ADDAG11999GA1031+004809059GA2041+069009009MA1103181999999EQDQ01+000000PRSWM2
0107601010999991993010921004+35733-005900SY-MT+0021GMTT V0200801N00211220001CN0100001N9+00701+00561103271ADDAA106000091AG14000GA1041+069009009GF104991001001999999001021MD1410001+9999REMSYN010 333 84073MET005CAVOK
0058601010999991993010922004+35733-005900FM-15+0021GMTT V0209991C00001999991CY0099001N1+00701+00601999999ADDAG11999MA1103181999999REMMET005CAVOKEQDQ01+000000PRSWM2
0058601010999991993010923004+35733-005900FM-15+0021GMTT V0209991C00001999991CY0099001N1+00801+00701999999ADDAG11999MA1103181999999REMMET005CAVOKEQDQ01+000000PRSWM2
0058601010999991993011002004+35733-005900FM-15+0021GMTT V0200801N00201999991CY0099001N1+00701+00601999999ADDAG11999MA1103291999999REMMET005CAVOKEQDQ01+000000PRSWM2
0152601010999991993011003004+35733-005900SY-MT+0021GMTT V0200601N00311069001CN0100001N1+00641+00481103321ADDAA106000091AG11000GA1021+006009059GA2051+069009009GF105991021051008001001021MA1103291999999MD1410001+9999REMSYN016 333 82620 85073EQDQ01+000000PRSWM2
0076601010999991993011004004+35733-005900FM-15+0021GMTT V0200601N00301069001CN0112651N1+00601+00501999999ADDAG11999GA1021+006009059GA2051+069009009MA1103291999999EQDQ01+000000PRSWM2
0058601010999991993011005004+35733-005900FM-15+0021GMTT V0209991C00001999991CY0099001N1+00601+00501999999ADDAG11999MA1103291999999REMMET005CAVOKEQDQ01+000000PRSWM2
0160601010999991993011006004+35733-005900SY-MT+0021GMTT V0200601N00311220001CN0100001N1+00601+00491103251ADDAA106000091AG11000GA1031+069009009GF103991001001999999001021KA1120N+00571MA1103181999999MD1810071+9999REMSYN016 333 20057 83073MET005CAVOKEQDQ01+000000PRSWM2
0058601010999991993011007004+35733-005900FM-15+0021GMTT V0200601N00251999991CY0099001N1+00601+00501999999ADDAG11999MA1103181999999REMMET005CAVOKEQDQ01+000000PRSWM2
0118601010999991993011009004+35733-005900FM-12+0021GMTT V0200601N00261069001CN0100001N9+00581+00491103311ADDAA106000091AG14000GA1031+006009059GA2031+069009009GF105991031021004501001021MD1310061+9999REMSYN016 333 83620 83073
0076601010999991993011010004+35733-005900FM-15+0021GMTT V0200601N00251069001CN0080001N1+00901+00601999999ADDAG11999GA1031+006009059GA2031+069009009MA1103291999999EQDQ01+000000PRSWM2
0076601010999991993011011004+35733-005900FM-15+0021GMTT V0200501N00251069001CN0080001N1+00901+00601999999ADDAG11999GA1031+006009059GA2031+069009009MA1103291999999EQDQ01+000000PRSWM2
0118601010999991993011012004+35733-005900SY-MT+0021GMTT V0202201N00101069001CN0080001N9+01371+00991103461ADDAA106000091AG14000GA1041+006009089GA2031+069009009GF106991041021004501001021MD1310161+9999REMSYN016 333 84820 83073
0076601010999991993011013004+35733-005900FM-15+0021GMTT V0202201N00151069001CN0080001N1+01401+01001999999ADDAG11999GA1041+004809059GA2031+069009009MA1103391999999EQDQ01+000000PRSWM2
0076601010999991993011014004+35733-005900FM-15+0021GMTT V0203201N00201069001CN0112651N1+01401+01001999999ADDAG11999GA1041+004809089GA2031+069009009MA1103391999999EQDQ01+000000PRSWM2
0096601010999991993011015004+35733-005900SY-MT+0021GMTT V0203401N00101090001CN0100001N9+01451+00851103261ADDAA106000091AG14000GA1041+004809089GF105991041021004501001021MD1710201+9999REMSYN010 333 84816
0045601010999991993011016004+35733-005900FM-15+0021GMTT V0203001N00201220001CN0112651N1+01401+00901999999ADDAG11999GA1041+004809089EQDQ01+000000PRSWM2
0060601010999991993011017004+35733-005900FM-15+0021GMTT V0209991C00001220001CN0112651N1+01401+00901999999ADDAG11999GA1041+004809089MA1103181999999EQDQ01+000000PRSWM2
0137601010999991993011018004+35733-005900SY-MT+0021GMTT V0209991C00001069001CN0100001N9+01221+00761103271ADDAA106000091AG14000GA1031+004809089GA2041+069009009GF106991031021004501001021KA1120M+01541MD1410001+9999REMSYN022 333 10154 83816 84073
0088601010999991993011019004+35733-005900FM-15+0021GMTT V0209991C00001069001CN0112651N1+01201+00801999999ADDAG11999GA1031+004809089GA2041+069009009MA1103181999999REMMET003NSGEQDQ01+000000PRSWM2
0088601010999991993011020004+35733-005900FM-15+0021GMTT V0201001N00151069001CN0112651N1+01101+00901999999ADDAG11999GA1031+004809089GA2041+069009009MA1103181999999REMMET003NSGEQDQ01+000000PRSWM2
0152601010999991993011021004+35733-005900SY-MT+0021GMTT V0200601N00211069001CN0080001N1+00501+00381103351ADDAA106000091AG14000GA1031+004809089GA2041+069009009GF106991031021004501001021MA1103291999999MD1310071+9999REMSYN016 333 83816 84073EQDQ01+000000PRSWM2
0060601010999991993011022004+35733-005900FM-15+0021GMTT V0200801N00201220001CN0080001N1+00501+00401999999ADDAG11999GA1021+004809059MA1103291999999EQDQ01+000000PRSWM2
0060601010999991993011023004+35733-005900FM-15+0021GMTT V0200801N00301220001CN0080001N1+00401+00301999999ADDAG11999GA1021+004809059MA1103291999999EQDQ01+000000PRSWM2
0130601010999991993011100004+35733-005900SY-MT+0021GMTT V0200801N00211220001CN0080001N1+00501+00381103351ADDAA106000091AG11000GA1021+004809059GF102991021051004501001001MA1103291999999MD1010001+9999REMSYN010 333 82616EQDQ01+000000PRSWM2
0060601010999991993011101004+35733-005900FM-15+0021GMTT V0200801N00301220001CN0080001N1+00501+00301999999ADDAG11999GA1021+004809059MA1103291999999EQDQ01+000000PRSWM2
0060601010999991993011102004+35733-005900FM-15+0021GMTT V0200801N00251220001CN0080001N1+00501+00401999999ADDAG11999GA1021+004809059MA1103291999999EQDQ01+000000PRSWM2
0130601010999991993011103004+35733-005900SY-MT+0021GMTT V0200801N00311220001CN0080001N1+00451+00381103311ADDAA106000091AG14000GA1021+004809059GF102991021051004501001001MA1103291999999MD1610041+9999REMSYN010 333 82616EQDQ01+000000PRSWM2
0060601010999991993011104004+35733-005900FM-15+0021GMTT V0200801N00301220001CN0080001N1+00501+00401999999ADDAG11999GA1021+004509059MA1103291999999EQDQ01+000000PRSWM2
0060601010999991993011105004+35733-005900FM-15+0021GMTT V0200601N00301220001CN0080001N1+00501+00401999999ADDAG11999GA1021+004809059MA1103291999999EQDQ01+000000PRSWM2
0149601010999991993011106004+35733-005900SY-MT+0021GMTT V0200801N00261220001CN0080001N1+00461+00311103171ADDAA106000091AG14000GA1021+004809059GF102991021051004501001001KA1120N+00441MA1103121999999MD1810141+9999REMSYN016 333 20044 82616EQDQ01+000000PRSWM2
0060601010999991993011107004+35733-005900FM-15+0021GMTT V0200601N00251220001CN0080001N1+00501+00301999999ADDAG11999GA1021+004809059MA1103121999999EQDQ01+000000PRSWM2
0060601010999991993011108004+35733-005900FM-15+0021GMTT V0200801N00151220001CN0080001N1+00501+00401999999ADDAG11999GA1021+004809059MA1103181999999EQDQ01+000000PRSWM2
0096601010999991993011109004+35733-005900SY-MT+0021GMTT V0200801N00151220001CN0080001N9+00551+00431103211ADDAA106000091AG14000GA1031+004809059GF103991031051004501001001MD1310041+9999REMSYN010 333 83616
0060601010999991993011111004+35733-005900FM-15+0021GMTT V0200801N00151220001CN0112651N1+01301+00801999999ADDAG11999GA1031+004809059MA1103181999999EQDQ01+000000PRSWM2
0116601010999991993011112004+35733-005900SY-MT+0021GMTT V0201801N00211220001CN0100001N1+01511+00741103261ADDAA106000091AG14000GA1031+004809059GF103991031051004501001001MA1103181999999REMSYN010 333 83616EQDQ01+000000PRSWM2
0072601010999991993011113004+35733-005900FM-15+0021GMTT V0202001N00361220001CN0112651N1+01501+00701999999ADDAG11999GA1041+004809089MA1103181999999REMMET003NSGEQDQ01+000000PRSWM2
0090601010999991993011114004+35733-005900FM-15+0021GMTT V0202401N00511030001CN0112651N1+01501+00801999999ADDAG11999GA1031+004809089GA2031+030009039MA1103121999999REMMET005NOSIGEQDQ01+000000PRSWM2
0163601010999991993011115004+35733-005900SY-MT+0021GMTT V0202401N00511030001CN0100001N1+01471+00821103061ADDAA106000091AG14000GA1031+004809089GA2031+030009039GF105991031021004501081001MA1103011999999MD1610201+9999REMSYN016 333 83816 8336/MET005NOSIGEQDQ01+000000PRSWM2
0090601010999991993011117004+35733-005900FM-15+0021GMTT V0202401N00411004801CN0112651N1+01401+00801999999ADDAG11999GA1051+004809089GA2031+030009039MA1103011999999REMMET005NOSIGEQDQ01+000000PRSWM2
0182601010999991993011118004+35733-005900SY-MT+0021GMTT V0202201N00311004801CN0100001N1+01331+01081103071ADDAA106000091AG14000GA1061+004809059GA2031+030009039GF107991061051004501031999KA1120M+01621MA1103011999999MD1310011+9999REMSYN022 333 10162 86616 83360MET005NOSIGEQDQ01+000000PRSWM2
0127601010999991993011121004+35733-005900SY-MT+0021GMTT V0202001N00211030001CN0100001N9+01221+00931103101ADDAA106000091AG14000GA1041+004809089GA2031+030009039GF105991041021004501081001MD1310031+9999REMSYN016 333 84816 83360MET003NSG
0088601010999991993011123004+35733-005900FM-15+0021GMTT V0202201N00201030001CN0112651N1+01201+00901999999ADDAG11999GA1041+004809089GA2031+030009039MA1103121999999REMMET003NSGEQDQ01+000000PRSWM2
0118601010999991993011200004+35733-005900FM-12+0021GMTT V0201601N00261006901CN0100001N9+01281+00991103081ADDAA106000091AG14000GA1041+004809089GA2051+006909059GF107991071081004501999999MD1810021+9999REMSYN016 333 84816 85623
0118601010999991993011203004+35733-005900FM-12+0021GMTT V0201401N00411006901CN0100001N9+01291+00981102981ADDAA106000091AG14000GA1041+004809089GA2051+006909059GF107991071081004501999999MD1710101+9999REMSYN016 333 84816 85623
0063601010999991993011204004+35733-005900FM-15+0021GMTT V0200201N00151006901CN0112651N1+01301+01101999999ADDAG11999GA1041+004809089GA2051+006909059MA1102911999999MW1601
0075601010999991993011205004+35733-005900FM-15+0021GMTT V0201601N00151006901CN0112651N1+01301+01101999999ADDAG11999GA1041+004809089GA2051+006909059MA1102911999999MW1211REMMET003NSG
0193601010999991993011206004+35733-005900SY-MT+0021GMTT V0201601N00361006901CN0100001N1+01251+01041102901ADDAA124999929AG10001AY181061AY221061GA1041+004809089GA2051+006909059GF107991071081004501999999KA1120N+01051MA1102911999999MD1810091+9999MW1021REMSYN022 333 20105 84816 85623EQDQ01+000000PRSWM2
0088601010999991993011207004+35733-005900FM-15+0021GMTT V0201601N00301006901CN0112651N1+01301+01001999999ADDAG11999GA1041+004809089GA2051+006909059MA1102911999999REMMET003NSGEQDQ01+000000PRSWM2
0090601010999991993011208004+35733-005900FM-15+0021GMTT V0202001N00151004801CN0080001N1+01201+01001999999ADDAG11999GA1031+003009079GA2071+004809089MA1102911999999REMMET005NOSIGEQDQ01+000000PRSWM2
0140601010999991993011209004+35733-005900FM-12+0021GMTT V0201201N00151006901CN0080001N9+01211+01001102951ADDAA106000091AG14000GA1011+003009079GA2031+004809089GA3041+006909059GF106991061081004501001001MD1310051+9999REMSYN022 333 81710 83816 84623
0104601010999991993011210004+35733-005900FM-15+0021GMTT V0201601N00461006901CN0080001N1+01301+01101999999ADDAG11999GA1011+003009079GA2031+004809089GA3041+006909059MA1103011999999REMMET003NSGEQDQ01+000000PRSWM2
0106601010999991993011211004+35733-005900FM-15+0021GMTT V0202001N00511004801CN0080001N1+01401+01101999999ADDAG11999GA1021+003009079GA2031+004809089GA3051+006909059MA1103011999999REMMET005NOSIGEQDQ01+000000PRSWM2
0185601010999991993011212004+35733-005900SY-MT+0021GMTT V0202001N00361004801CN0080001N1+01501+01021103021ADDAA106000091AG14000GA1021+003009079GA2031+004809089GA3051+006909059GF106991061081004501001001MA1103011999999MD1110071+9999REMSYN022 333 82710 83816 85623MET005NOSIGEQDQ01+000000PRSWM2
0088601010999991993011213004+35733-005900FM-15+0021GMTT V0202001N00461004801CN0080001N1+01601+01101999999ADDAG11999GA1011+003009079GA2051+004809089MA1102911999999REMMET003NSGEQDQ01+000000PRSWM2
0060601010999991993011214004+35733-005900FM-15+0021GMTT V0201801N00411004801CN0080001N1+01601+01101999999ADDAG11999GA1061+004809089MA1102811999999EQDQ01+000000PRSWM2
0130601010999991993011215004+35733-005900SY-MT+0021GMTT V0202001N00411004801CN0080001N1+01651+01131102831ADDAA106000091AG11000GA1051+004809089GF105991051081004501011061MA1102811999999MD1610191+9999REMSYN010 333 85816EQDQ01+000000PRSWM2
0060601010999991993011216004+35733-005900FM-15+0021GMTT V0202001N00411004801CN0080001N1+01601+01201999999ADDAG11999GA1051+004809089MA1102811999999EQDQ01+000000PRSWM2
0060601010999991993011217004+35733-005900FM-15+0021GMTT V0202001N00511004801CN0080001N1+01501+01101999999ADDAG11999GA1051+004809089MA1102811999999EQDQ01+000000PRSWM2
0149601010999991993011218004+35733-005900SY-MT+0021GMTT V0202001N00311220001CN0080001N1+01321+01091102831ADDAA106000091AG11000GA1031+004809089GF103991031021004501001001KA1120M+01661MA1102811999999MD1510001+9999REMSYN016 333 10166 83816EQDQ01+000000PRSWM2
0060601010999991993011219004+35733-005900FM-15+0021GMTT V0209991C00001220001CN0080001N1+01301+01001999999ADDAG11999GA1021+004809089MA1102811999999EQDQ01+000000PRSWM2
0060601010999991993011220004+35733-005900FM-15+0021GMTT V0209991C00001220001CN0080001N1+01201+01001999999ADDAG11999GA1031+004809089MA1102811999999EQDQ01+000000PRSWM2
0176601010999991993011221004+35733-005900SY-MT+0021GMTT V0202001N00311220001CN0080001N1+01321+01091102831ADDAA106000091AG11000GA1041+004809089GF199999031021004501001001KA1120M+01661MA1102911999999MD1510001+9999REMSYN016 333 10166 83816MET005NOSIGEQDQ01+000032SCOTCVQ02+000000PRSWM2
0074601010999991993011222004+35733-005900FM-15+0021GMTT V0209991C00001220001CN0080001N1+01201+01001999999ADDAG11999GA1041+004809089MA1102911999999REMMET005NOSIGEQDQ01+000000PRSWM2
0074601010999991993011223004+35733-005900FM-15+0021GMTT V0209991C00001220001CN0112651N1+01001+00801999999ADDAG11999GA1031+004809089MA1102911999999REMMET005NOSIGEQDQ01+000000PRSWM2
0141601010999991993011300004+35733-005900SY-MT+0021GMTT V0200801N00211220001CN0080001N1+00901+00801102901ADDAA106000091AG14000GA1031+004809089GF103991031021004501001001MA1102911999999MD1410001+9999REMSYN010 333 83816MET005NOSIGEQDQ01+000000PRSWM2
0074601010999991993011301004+35733-005900FM-15+0021GMTT V0200801N00151220001CN0080001N1+01001+00801999999ADDAG11999GA1031+004809089MA1102911999999REMMET005NOSIGEQDQ01+000000PRSWM2
0074601010999991993011302004+35733-005900FM-15+0021GMTT V0200801N00201220001CN0080001N1+01001+00801999999ADDAG11999GA1031+004809089MA1102911999999REMMET005NOSIGEQDQ01+000000PRSWM2
0096601010999991993011303004+35733-005900FM-12+0021GMTT V0200801N00151220001CN0080001N9+01021+00881102861ADDAA106000091AG14000GA1031+004809089GF103991031021004501001001MD1810061+9999REMSYN010 333 83816
0074601010999991993011305004+35733-005900FM-15+0021GMTT V0201001N00301220001CN0080001N1+01001+00901999999ADDAG11999GA1031+004809089MA1102711999999REMMET005NOSIGEQDQ01+000000PRSWM2
0134601010999991993011306004+35733-005900FM-12+0021GMTT V0200801N00311220001CN0080001N9+99999+99999102721ADDAA106000091AG14000GA1031+004809089GF103991031021004501001001KA1120N+00481MD1610141+9999REMSYN016 333 20048 83816EQDQ01+026663ATOT  
0074601010999991993011307004+35733-005900FM-15+0021GMTT V0200801N00201220001CN0080001N1+00701+00601999999ADDAG11999GA1021+004809089MA1102711999999REMMET005NOSIGEQDQ01+000000PRSWM2
0060601010999991993011308004+35733-005900FM-15+0021GMTT V0200601N00301220001CN0050001N1+00601+00501999999ADDAG11999GA1021+060009009MA1102811999999EQDQ01+000000PRSWM2
0130601010999991993011309004+35733-005900SY-MT+0021GMTT V0201001N00211220001CN0050001N1+00781+00721102871ADDAA106000091AG11000GA1021+004809059GF102991021051004501001001MA1102811999999MD1310141+9999REMSYN010 333 82616EQDQ01+000000PRSWM2
0060601010999991993011310004+35733-005900FM-15+0021GMTT V0201201N00101220001CN0050001N1+00901+00701999999ADDAG11999GA1021+004809059MA1102911999999EQDQ01+000000PRSWM2
0060601010999991993011311004+35733-005900FM-15+0021GMTT V0201201N00101220001CN0060001N1+01201+00701999999ADDAG11999GA1021+004809059MA1102911999999EQDQ01+000000PRSWM2
0096601010999991993011312004+35733-005900SY-MT+0021GMTT V0209991C00001004801CN0060001N9+01641+01031102911ADDAA106000091AG14000GA1051+004809089GF105991051021004501001001MD1110051+9999REMSYN010 333 85816
0072601010999991993011313004+35733-005900FM-15+0021GMTT V0202401N00151220001CN0070001N1+01601+01001999999ADDAG11999GA1041+004809089MA1102911999999REMMET003NSGEQDQ01+000000PRSWM2
0060601010999991993011314004+35733-005900FM-15+0021GMTT V0202401N00151220001CN0070001N1+01601+01001999999ADDAG11999GA1041+004809089MA1102911999999EQDQ01+000000PRSWM2
0130601010999991993011315004+35733-005900SY-MT+0021GMTT V0202801N00211220001CN0100001N1+01651+01021102751ADDAA106000091AG11000GA1041+004809089GF104991041021004501001001MA1102711999999MD1810161+9999REMSYN010 333 84816EQDQ01+000000PRSWM2
0060601010999991993011316004+35733-005900FM-15+0021GMTT V0202801N00201220001CN0112651N1+01601+01001999999ADDAG11999GA1041+004809089MA1102711999999EQDQ01+000000PRSWM2
0060601010999991993011317004+35733-005900FM-15+0021GMTT V0203001N00201220001CN0112651N1+01501+01001999999ADDAG11999GA1041+004809089MA1102711999999EQDQ01+000000PRSWM2
0115601010999991993011318004+35733-005900SY-MT+0021GMTT V0203001N00211220001CN0100001N9+01331+00981102781ADDAA106000091AG14000GA1021+004809089GF102991021021004501001001KA1120M+01801MD1310031+9999REMSYN016 333 10180 82816
0060601010999991993011319004+35733-005900FM-15+0021GMTT V0209991C00001220001CN0080001N1+01201+01001999999ADDAG11999GA1021+004809059MA1102711999999EQDQ01+000000PRSWM2
0060601010999991993011320004+35733-005900FM-15+0021GMTT V0209991C00001220001CN0080001N1+01001+00901999999ADDAG11999GA1021+004809059MA1102811999999EQDQ01+000000PRSWM2
0112601010999991993011321004+35733-005900SY-MT+0021GMTT V0201001N00211220001CN0080001N1+00801+00651102891ADDAA106000091AG11000GF100991001001999999001001MA1102811999999MD1310101+9999REMMET008CAVOK NSEQDQ01+000000PRSWM2
0061601010999991993011322004+35733-005900FM-15+0021GMTT V0201001N00201999991CY0099001N1+00801+00701999999ADDAG11999MA1102811999999REMMET008CAVOK NSEQDQ01+000000PRSWM2
0058601010999991993011323004+35733-005900FM-15+0021GMTT V0200801N00301999991CY0099001N1+00801+00701999999ADDAG11999MA1102911999999REMMET005CAVOKEQDQ01+000000PRSWM2
0109601010999991993011400004+35733-005900SY-MT+0021GMTT V0200801N00311220001CN0100001N1+00631+00541102951ADDAA106000091AG14000GF100991001001999999001001MA1102911999999MD1310061+9999REMMET005CAVOKEQDQ01+000000PRSWM2
0058601010999991993011401004+35733-005900FM-15+0021GMTT V0200801N00301999991CY0099001N1+00601+00501999999ADDAG11999MA1102811999999REMMET005CAVOKEQDQ01+000000PRSWM2
0061601010999991993011402004+35733-005900FM-15+0021GMTT V0200601N00251999991CY0099001N1+00601+00501999999ADDAG11999MA1102811999999REMMET008CAVOK NSEQDQ01+000000PRSWM2
0078601010999991993011403004+35733-005900SY-MT+0021GMTT V0201001N00211220001CN0100001N9+00591+00501102891ADDAA106000091AG14000GF100991001001999999001001MD1610061+9999REMMET008CAVOK NS
0058601010999991993011404004+35733-005900FM-15+0021GMTT V0200801N00411999991CY0099001N1+00601+00601999999ADDAG11999MA1102811999999REMMET005CAVOKEQDQ01+000000PRSWM2
0058601010999991993011405004+35733-005900FM-15+0021GMTT V0200601N00411999991CY0099001N1+00601+00501999999ADDAG11999MA1102811999999REMMET005CAVOKEQDQ01+000000PRSWM2
0109601010999991993011406004+35733-005900FM-12+0021GMTT V0200601N00411220001CN0100001N9+00641+00571102841ADDAA106000091AG14000GA1001+999999999GF100991001001999999001001KA1120N+00471MD1710051+9999REMSYN010 333 20047
0107601010999991993011409004+35733-005900SY-MT+0021GMTT V0200801N00411220001CN0100001N9+00801+00691102851ADDAA106000091AG14000GA1041+069009009GF104991001001999999001021MD1310011+9999REMSYN010 333 84073MET005CAVOK
0058601010999991993011411004+35733-005900FM-15+0021GMTT V0200801N00301999991CY0099001N1+01601+01001999999ADDAG11999MA1102911999999REMMET005CAVOKEQDQ01+000000PRSWM2
0107601010999991993011412004+35733-005900SY-MT+0021GMTT V0200801N00211220001CN0100001N9+01681+00831102911ADDAA106000091AG14000GA1031+069009009GF103991001001999999001021MD1110071+9999REMSYN010 333 83073MET005CAVOK
0058601010999991993011413004+35733-005900FM-15+0021GMTT V0200801N00511999991CY0099001N1+01701+00801999999ADDAG11999MA1102911999999REMMET005CAVOKEQDQ01+000000PRSWM2
0058601010999991993011414004+35733-005900FM-15+0021GMTT V0200801N00611999991CY0099001N1+01801+00801999999ADDAG11999MA1102711999999REMMET005CAVOKEQDQ01+000000PRSWM2
0141601010999991993011415004+35733-005900SY-MT+0021GMTT V0200601N00511220001CN0100001N1+01761+00781102821ADDAA106000091AG14000GA1031+069009009GF103991001001999999001021MA1102811999999MD1710111+9999REMSYN010 333 83073MET005CAVOKEQDQ01+000000PRSWM2
0153601010999991993011416004+35733-005900SY-MT+0021GMTT V0200601N00721220001CN0100001N1+01721+00781999999ADDAG11999GA1031+069009009GF103991999999999999999999MA1102611999999MW1001REMSYN010 333 83073MET020CAVOK NMC40 GMTT 141EQDQ01+100023APOSLPQ02+000000PRSWM2
0058601010999991993011417004+35733-005900FM-15+0021GMTT V0200601N00411999991CY0099001N1+01701+00801999999ADDAG11999MA1102611999999REMMET005CAVOKEQDQ01+000000PRSWM2
0161601010999991993011418004+35733-005900SY-MT+0021GMTT V0200601N00461220001CN0100001N9+01261+00721102681ADDAA106000091AG14000GA1031+069009009GF199999001001999999001999KA1120M+01861MD1610021+9999REMSYN016 333 10186 83073MET005CAVOKEQDQ01+000002SCOTCVQ02+000002SCOHCG
0058601010999991993011419004+35733-005900FM-15+0021GMTT V0200601N00511999991CY0099001N1+01201+00701999999ADDAG11999MA1102611999999REMMET005CAVOKEQDQ01+000000PRSWM2
0058601010999991993011420004+35733-005900FM-15+0021GMTT V0200601N00511999991CY0099001N1+01101+00701999999ADDAG11999MA1102711999999REMMET005CAVOKEQDQ01+000000PRSWM2
0058601010999991993011422004+35733-005900FM-15+0021GMTT V0200601N00411999991CY0099001N1+01101+00701999999ADDAG11999MA1102811999999REMMET005CAVOKEQDQ01+000000PRSWM2
0058601010999991993011423004+35733-005900FM-15+0021GMTT V0200601N00511999991CY0099001N1+01101+00701999999ADDAG11999MA1102811999999REMMET005CAVOKEQDQ01+000000PRSWM2
0077601010999991993011500004+35733-005900FM-12+0021GMTT V0200801N00511220001CN0100001N9+00941+00861102771ADDAA106000091AG14000GA1001+999999999GF100991001001999999001001MD1010001+9999
0058601010999991993011501004+35733-005900FM-15+0021GMTT V0200801N00511999991CY0099001N1+00901+00901999999ADDAG11999MA1102711999999REMMET005CAVOKEQDQ01+000000PRSWM2
0109601010999991993011503004+35733-005900SY-MT+0021GMTT V0200601N00311220001CN0100001N1+00801+00761102771ADDAA106000091AG14000GF100991001001999999001001MA1102711999999MD1410001+9999REMMET005CAVOKEQDQ01+000000PRSWM2
0058601010999991993011504004+35733-005900FM-15+0021GMTT V0200601N00301999991CY0099001N1+00801+00801999999ADDAG11999MA1102711999999REMMET005CAVOKEQDQ01+000000PRSWM2
0058601010999991993011505004+35733-005900FM-15+0021GMTT V0200601N00301999991CY0099001N1+00801+00801999999ADDAG11999MA1102711999999REMMET005CAVOKEQDQ01+000000PRSWM2
0115601010999991993011506004+35733-005900FM-12+0021GMTT V0200601N00311220001CN0100001N9+00661+00521102851ADDAA106000091AG14000GA1021+069009009GF102991001001999999001021KA1120N+00601MD1310061+9999REMSYN016 333 20060 82073
0058601010999991993011507004+35733-005900FM-15+0021GMTT V0200801N00201999991CY0099001N1+00701+00501999999ADDAG11999MA1102811999999REMMET005CAVOKEQDQ01+000000PRSWM2
0058601010999991993011508004+35733-005900FM-15+0021GMTT V0200801N00301999991CY0099001N1+00801+00501999999ADDAG11999MA1102911999999REMMET005CAVOKEQDQ01+000000PRSWM2
0096601010999991993011509004+35733-005900FM-12+0021GMTT V0200801N00151220001CN0100001N9+00921+00801103071ADDAA106000091AG14000GA1021+069009009GF102991001001999999001021MD1210231+9999REMSYN010 333 82073
0058601010999991993011511004+35733-005900FM-15+0021GMTT V0201101N00511999991CY0099001N1+01401+01001999999ADDAG11999MA1103121999999REMMET005CAVOKEQDQ01+000000PRSWM2
0141601010999991993011512004+35733-005900SY-MT+0021GMTT V0200601N00411220001CN0150001N1+01721+00801103061ADDAA106000091AG14000GA1021+069009009GF102991001001999999001021MA1103011999999MD1010001+9999REMSYN010 333 82073MET005CAVOKEQDQ01+000000PRSWM2
0058601010999991993011513004+35733-005900FM-15+0021GMTT V0201001N00511999991CY0099001N1+01701+00801999999ADDAG11999MA1103011999999REMMET005CAVOKEQDQ01+000000PRSWM2
0110601010999991993011515004+35733-005900SY-MT+0021GMTT V0200601N01031220001CN0100001N9+01781+00661102871ADDAA106000091AG14000GA1021+069009009GF102991001001999999001021MD1810191+9999REMSYN010 333 82073MET008CAVOK NS
0061601010999991993011516004+35733-005900FM-15+0021GMTT V0200601N00921999991CY0099001N1+01701+00701999999ADDAG11999MA1102811999999REMMET008CAVOK NOEQDQ01+000000PRSWM2
0061601010999991993011517004+35733-005900FM-15+0021GMTT V0200601N00921999991CY0099001N1+01601+00601999999ADDAG11999MA1102811999999REMMET008CAVOK -3EQDQ01+000000PRSWM2
0129601010999991993011518004+35733-005900SY-MT+0021GMTT V0200601N00721220001CN0100001N9+01421+00771102921ADDAA106000091AG14000GA1021+069009009GF102991001001999999001021KA1120M+01851MD1810021+9999REMSYN016 333 10185 82073MET008CAVOK NS
0061601010999991993011519004+35733-005900FM-15+0021GMTT V0200801N00411999991CY0099001N1+01201+00701999999ADDAG11999MA1102911999999REMMET008CAVOK NSEQDQ01+000000PRSWM2
0061601010999991993011520004+35733-005900FM-15+0021GMTT V0200801N00411999991CY0099001N1+01101+00701999999ADDAG11999MA1102911999999REMMET008CAVOK NSEQDQ01+000000PRSWM2
0141601010999991993011521004+35733-005900SY-MT+0021GMTT V0200801N00621220001CN0100001N1+01041+00701103011ADDAA106000091AG11000GA1031+069009009GF103991001001999999001021MA1103011999999MD1310091+9999REMSYN010 333 83073MET005CAVOKEQDQ01+000000PRSWM2
0058601010999991993011522004+35733-005900FM-15+0021GMTT V0200801N00511999991CY0099001N1+01001+00701999999ADDAG11999MA1103011999999REMMET005CAVOKEQDQ01+000000PRSWM2
0096601010999991993011600004+35733-005900FM-12+0021GMTT V0200801N00671220001CN0100001N9+01101+00731103021ADDAA106000091AG14000GA1041+069009009GF104991001001999999001021MD1110021+9999REMSYN010 333 84073
0058601010999991993011601004+35733-005900FM-15+0021GMTT V0200801N00511999991CY0099001N1+01101+00701999999ADDAG11999MA1103011999999REMMET005CAVOKEQDQ01+000000PRSWM2
0141601010999991993011603004+35733-005900SY-MT+0021GMTT V0200801N00821220001CN0100001N1+01041+00731103001ADDAA106000091AG14000GA1041+069009009GF104991001001999999001021MA1103011999999MD1610021+9999REMSYN010 333 84073MET005CAVOKEQDQ01+000000PRSWM2
0058601010999991993011605004+35733-005900FM-15+0021GMTT V0200801N00611999991CY0099001N1+01101+00701999999ADDAG11999MA1102911999999REMMET005CAVOKEQDQ01+000000PRSWM2
0110601010999991993011606004+35733-005900FM-12+0021GMTT V0200801N00621220001CN0100001N9+01141+00861102921ADDAA106000091AA224407091AG14000GF104991031051004501001021KA1120N+01101MD1610041+9999REMSYN016 333 20110 74073
0076601010999991993011607004+35733-005900FM-15+0021GMTT V0200801N00721069001CN0112651N1+01101+00801999999ADDAG11999GA1031+006009059GA2051+069009009MA1102911999999EQDQ01+000000PRSWM2
0088601010999991993011608004+35733-005900FM-15+0021GMTT V0200801N00611220001CN0112651N1+01201+00701999999ADDAG11999GA1011+006009059GA2041+069009009MA1102911999999REMMET003NSGEQDQ01+000000PRSWM2
0127601010999991993011609004+35733-005900SY-MT+0021GMTT V0200801N00721220001CN0150001N9+01301+00791103001ADDAA106000091AG14000GA1011+006009059GA2041+069009009GF104991011051008001001021MD1310081+9999REMSYN016 333 81620 84073MET003NSG
0088601010999991993011610004+35733-005900FM-15+0021GMTT V0200801N01021220001CN0112651N1+01401+00801999999ADDAG11999GA1011+006009059GA2041+069009009MA1103011999999REMMET003NSGEQDQ01+000000PRSWM2
0072601010999991993011611004+35733-005900FM-15+0021GMTT V0200801N01021220001CN0112651N1+01701+00801999999ADDAG11999GA1011+006009059MA1103121999999REMMET003NSGEQDQ01+000000PRSWM2
0105601010999991993011612004+35733-005900SY-MT+0021GMTT V0200801N00931220001CN0150001N9+01711+00811103061ADDAA106000091AG14000GA1011+006009059GF102991011021008001001021MD1010061+9999REMSYN010 333 81620MET003NSG
0072601010999991993011613004+35733-005900FM-15+0021GMTT V0200801N00921220001CN0112651N1+01801+00801999999ADDAG11999GA1011+006009059MA1103011999999REMMET003NSGEQDQ01+000000PRSWM2
0072601010999991993011614004+35733-005900FM-15+0021GMTT V0200801N01021220001CN0112651N1+01801+00801999999ADDAG11999GA1011+006009059MA1102911999999REMMET003NSGEQDQ01+000000PRSWM2
0078601010999991993011615004+35733-005900SY-MT+0021GMTT V0200801N01031220001CN0150001N9+01751+00791102841ADDAA106000091AG14000GF100991001001999999001001MD1710221+9999REMMET008CAVOK NX
0109601010999991993011618004+35733-005900FM-12+0021GMTT V0200801N00931220001CN0150001N9+01431+00781102881ADDAA106000091AG14000GA1001+999999999GF100991001001999999001001KA1120M+01801MD1310041+9999REMSYN010 333 10180
0061601010999991993011619004+35733-005900FM-15+0021GMTT V0200801N00821999991CY0099001N1+01401+00801999999ADDAG11999MA1102811999999REMMET008CAVOK NSEQDQ01+000000PRSWM2
0078601010999991993011621004+35733-005900SY-MT+0021GMTT V0200801N00821220001CN0150001N9+01271+00861102951ADDAA106000091AG14000GF100991001001999999001001MD1110071+9999REMMET008CAVOK NS
0061601010999991993011623004+35733-005900FM-15+0021GMTT V0200801N00611999991CY0099001N1+01201+00801999999ADDAG11999MA1102911999999REMMET008CAVOK NSEQDQ01+000000PRSWM2
0078601010999991993011700004+35733-005900SY-MT+0021GMTT V0200801N00671220001CN0150001N9+01231+00921103031ADDAA106000091AG14000GF100991001001999999001001MD1310081+9999REMMET008CAVOK NS
0061601010999991993011702004+35733-005900FM-15+0021GMTT V0200801N00611999991CY0099001N1+01101+00801999999ADDAG11999MA1103121999999REMMET008CAVOK NSEQDQ01+000000PRSWM2
0112601010999991993011703004+35733-005900SY-MT+0021GMTT V0200801N00571220001CN0150001N1+01121+00751103041ADDAA106000091AG11000GF100991001001999999001001MA1103011999999MD1310021+9999REMMET008CAVOK NSEQDQ01+000000PRSWM2
0061601010999991993011704004+35733-005900FM-15+0021GMTT V0200801N00511999991CY0099001N1+01001+00701999999ADDAG11999MA1103121999999REMMET008CAVOK NSEQDQ01+000000PRSWM2
0109601010999991993011706004+35733-005900FM-12+0021GMTT V0200801N00411220001CN0150001N9+00961+99999102921ADDAA106000091AG14000GA1001+999999999GF100991001001999999001001KA1120N+00921MD1610081+9999REMSYN010 333 20092
0061601010999991993011707004+35733-005900FM-15+0021GMTT V0200801N00411999991CY0099001N1+01001+00801999999ADDAG11999MA1102911999999REMMET008CAVOK NSEQDQ01+000000PRSWM2
0061601010999991993011708004+35733-005900FM-15+0021GMTT V0200801N00411999991CY0099001N1+00901+00701999999ADDAG11999MA1102911999999REMMET008CAVOK NSEQDQ01+000000PRSWM2
0112601010999991993011709004+35733-005900SY-MT+0021GMTT V0200801N00411220001CN0100001N1+01041+00811103001ADDAA106000091AG11000GF100991001001999999001001MA1103011999999MD1310081+9999REMMET008CAVOK NSEQDQ01+000000PRSWM2
0061601010999991993011710004+35733-005900FM-15+0021GMTT V0200801N00511999991CY0099001N1+01001+00801999999ADDAG11999MA1103011999999REMMET008CAVOK NSEQDQ01+000000PRSWM2
0061601010999991993011711004+35733-005900FM-15+0021GMTT V0201001N00611999991CY0099001N1+01601+00901999999ADDAG11999MA1103121999999REMMET008CAVOK NSEQDQ01+000000PRSWM2
0078601010999991993011712004+35733-005900SY-MT+0021GMTT V0200801N00621220001CN0100001N9+01741+00841103111ADDAA106000091AG14000GF100991001001999999001001MD1110111+9999REMMET008CAVOK NS
0061601010999991993011713004+35733-005900FM-15+0021GMTT V0200801N00511999991CY0099001N1+01701+00801999999ADDAG11999MA1103121999999REMMET008CAVOK NSEQDQ01+000000PRSWM2
0058601010999991993011714004+35733-005900FM-15+0021GMTT V0200601N00511999991CY0099001N1+01801+00801999999ADDAG11999MA1102911999999REMMET005CAVOKEQDQ01+000000PRSWM2
0109601010999991993011715004+35733-005900SY-MT+0021GMTT V0200801N00671220001CN0100001N1+01801+00761102881ADDAA106000091AG14000GF100991001001999999001001MA1102811999999MD1710231+9999REMMET005CAVOKEQDQ01+000000PRSWM2
0058601010999991993011716004+35733-005900FM-15+0021GMTT V0200801N00771999991CY0099001N1+01801+00801999999ADDAG11999MA1102811999999REMMET005CAVOKEQDQ01+000000PRSWM2
0058601010999991993011717004+35733-005900FM-15+0021GMTT V0200801N00771999991CY0099001N1+01701+00801999999ADDAG11999MA1102811999999REMMET005CAVOKEQDQ01+000000PRSWM2
0104601010999991993011718004+35733-005900SY-MT+0021GMTT V0200801N00671220001CN0100001N9+01421+00701102861ADDAA106000091AG14000GF100991001001999999001001KA1120M+01821MD1810021+9999REMSYN010 333 10182MET005CAVOK
0058601010999991993011719004+35733-005900FM-15+0021GMTT V0200801N00661999991CY0099001N1+01401+00701999999ADDAG11999MA1102811999999REMMET005CAVOKEQDQ01+000000PRSWM2
0075601010999991993011721004+35733-005900SY-MT+0021GMTT V0200601N00621220001CN0100001N9+01031+00761102911ADDAA106000091AG14000GF100991001001999999001001MD1310051+9999REMMET005CAVOK
0058601010999991993011722004+35733-005900FM-15+0021GMTT V0200601N00511999991CY0099001N1+01001+00801999999ADDAG11999MA1102911999999REMMET005CAVOKEQDQ01+000000PRSWM2
0061601010999991993011723004+35733-005900FM-15+0021GMTT V0200801N00511999991CY0099001N1+01001+00801999999ADDAG11999MA1102911999999REMMET008CAVOK NSEQDQ01+000000PRSWM2
0077601010999991993011800004+35733-005900FM-12+0021GMTT V0200801N00511220001CN0100001N9+00951+00741102921ADDAA106000091AG14000GA1001+999999999GF100991001001999999001001MD1310011+9999
0077601010999991993011803004+35733-005900FM-12+0021GMTT V0200801N00511220001CN0100001N9+00901+00721102881ADDAA106000091AG14000GA1001+999999999GF100991001001999999001001MD1610041+9999
0109601010999991993011806004+35733-005900FM-12+0021GMTT V0200801N00511220001CN0100001N9+00831+00631102691ADDAA106000091AG14000GA1001+999999999GF100991001001999999001001KA1120N+00831MD1610201+9999REMSYN010 333 20083
0058601010999991993011807004+35733-005900FM-15+0021GMTT V0200801N00511999991CY0099001N1+00801+00601999999ADDAG11999MA1102611999999REMMET005CAVOKEQDQ01+000000PRSWM2
0075601010999991993011809004+35733-005900SY-MT+0021GMTT V0200801N00411220001CN0100001N9+01151+00891102831ADDAA106000091AG14000GF100991001001999999001001MD1210151+9999REMMET005CAVOK
0178601010999991993011810004+35733-005900SY-MT+0021GMTT V0200601N00511220001CN0100001N1+01451+00851102851ADDAA106000091AG11999GA1011+004809089GF101991999999004501999999KA1120M+01801MA1102811999999REMSYN016 333 10180 81816MET005CAVOKEQDQ01+000002SCOTLCQ02+000002SCOLCGQ03+000000PRSWM2
0060601010999991993011811004+35733-005900FM-15+0021GMTT V0200801N00661220001CN0112651N1+01601+00901999999ADDAG11999GA1011+006009059MA1102811999999EQDQ01+000000PRSWM2
0096601010999991993011812004+35733-005900SY-MT+0021GMTT V0200801N00821220001CN0100001N9+01661+00881102861ADDAA106000091AG14000GA1011+006009059GF101991011051004501001001MD1310031+9999REMSYN010 333 81620
0060601010999991993011813004+35733-005900FM-15+0021GMTT V0200801N00821220001CN0112651N1+01701+00901999999ADDAG11999GA1011+006009059MA1102811999999EQDQ01+000000PRSWM2
0072601010999991993011814004+35733-005900FM-15+0021GMTT V0200801N00611220001CN0112651N1+01801+00901999999ADDAG11999GA1011+006009059MA1102711999999REMMET003NSGEQDQ01+000000PRSWM2
0116601010999991993011815004+35733-005900SY-MT+0021GMTT V0200801N00621220001CN0150001N1+01751+00771102631ADDAA106000091AG14000GA1021+004809089GF102991021081004501001021MA1102611999999REMSYN010 333 82816EQDQ01+000000PRSWM2
0060601010999991993011816004+35733-005900FM-15+0021GMTT V0200601N00611220001CN0112651N1+01801+00801999999ADDAG11999GA1021+004809089MA1102611999999EQDQ01+000000PRSWM2
0060601010999991993011817004+35733-005900FM-15+0021GMTT V0200601N00721220001CN0112651N1+01601+00801999999ADDAG11999GA1021+004809089MA1102611999999EQDQ01+000000PRSWM2
0115601010999991993011818004+35733-005900SY-MT+0021GMTT V0200601N00511220001CN0100001N9+01451+00851102641ADDAA106000091AG14000GA1011+004809089GF101991011081004501001001KA1120M+01801MD1510011+9999REMSYN016 333 10180 81816
0073601010999991993011820004+35733-005900FM-15+0021GMTT V0200601N00511999991CY0099001N1+01301+00901999999ADDAG11999MA1102711999999REMMET020CAVOK GMME 0400NNNNNEQDQ01+000000PRSWM2
0075601010999991993011821004+35733-005900SY-MT+0021GMTT V0200601N00511220001CN0100001N9+01001+00711102781ADDAA106000091AG14000GF100991001001999999001001MD1210141+9999REMMET005CAVOK
0058601010999991993011822004+35733-005900FM-15+0021GMTT V0200601N00511999991CY0099001N1+01001+00701999999ADDAG11999MA1102711999999REMMET005CAVOKEQDQ01+000000PRSWM2
0058601010999991993011823004+35733-005900FM-15+0021GMTT V0200601N00511999991CY0099001N1+01001+00701999999ADDAG11999MA1102711999999REMMET005CAVOKEQDQ01+000000PRSWM2
0075601010999991993011900004+35733-005900SY-MT+0021GMTT V0200601N00411220001CN0100001N9+01071+00721102841ADDAA106000091AG14000GF100991001001999999001001MD1310061+9999REMMET005CAVOK
0058601010999991993011901004+35733-005900FM-15+0021GMTT V0200601N00511999991CY0099001N1+01101+00701999999ADDAG11999MA1102811999999REMMET005CAVOKEQDQ01+000000PRSWM2
0058601010999991993011902004+35733-005900FM-15+0021GMTT V0200601N00511999991CY0099001N1+01101+00801999999ADDAG11999MA1102811999999REMMET005CAVOKEQDQ01+000000PRSWM2
0075601010999991993011903004+35733-005900SY-MT+0021GMTT V0200801N00511220001CN0100001N9+00921+00661102821ADDAA106000091AG14000GF100991001001999999001001MD1810021+9999REMMET005CAVOK
0058601010999991993011904004+35733-005900FM-15+0021GMTT V0200801N00511999991CY0099001N1+01001+00701999999ADDAG11999MA1102811999999REMMET005CAVOKEQDQ01+000000PRSWM2
0058601010999991993011905004+35733-005900FM-15+0021GMTT V0200801N00511999991CY0099001N1+00901+00701999999ADDAG11999MA1102711999999REMMET005CAVOKEQDQ01+000000PRSWM2
0138601010999991993011906004+35733-005900SY-MT+0021GMTT V0200601N00621220001CN0100001N1+00921+00621102791ADDAA106000091AG11000GF100991001001999999001001KA1120N+00901MA1102711999999MD1810031+9999REMSYN010 333 20090MET005CAVOKEQDQ01+000000PRSWM2
0058601010999991993011907004+35733-005900FM-15+0021GMTT V0200601N00611999991CY0099001N1+00901+00601999999ADDAG11999MA1102711999999REMMET005CAVOKEQDQ01+000000PRSWM2
0061601010999991993011908004+35733-005900FM-15+0021GMTT V0200801N00411999991CY0099001N1+00901+00601999999ADDAG11999MA1102811999999REMMET008CAVOK NSEQDQ01+000000PRSWM2
0075601010999991993011909004+35733-005900SY-MT+0021GMTT V0200601N00411220001CN0100001N9+00981+00711102941ADDAA106000091AG14000GF100991001001999999001001MD1210151+9999REMMET005CAVOK
0058601010999991993011910004+35733-005900FM-15+0021GMTT V0200601N00301999991CY0099001N1+01101+00701999999ADDAG11999MA1103011999999REMMET005CAVOKEQDQ01+000000PRSWM2
0058601010999991993011911004+35733-005900FM-15+0021GMTT V0200601N00411999991CY0099001N1+01601+01001999999ADDAG11999MA1103011999999REMMET005CAVOKEQDQ01+000000PRSWM2
0109601010999991993011912004+35733-005900SY-MT+0021GMTT V0200601N00621220001CN0100001N1+01661+00861103031ADDAA106000091AG14000GF100991001001999999001001MA1103011999999MD1010091+9999REMMET005CAVOKEQDQ01+000000PRSWM2
0071601010999991993011913004+35733-005900FM-15+0021GMTT V0200801N00411220001CN0112651N1+01701+00901999999ADDAG11999GA1021+004809089REMMET0010EQDQ01+032571APOA  Q02+000000PRSWM2
0096601010999991993011915004+35733-005900FM-12+0021GMTT V0200401N00721220001CN0100001N9+01701+01041102841ADDAA106000091AG14000GA1041+004809089GF104991041021004501001001MD1810191+9999REMSYN010 333 84816
0072601010999991993011916004+35733-005900FM-15+0021GMTT V0200401N00721220001CN0112651N1+01701+01101999999ADDAG11999GA1041+004809089MA1102811999999REMMET003NSGEQDQ01+000000PRSWM2
0072601010999991993011917004+35733-005900FM-15+0021GMTT V0200401N00511220001CN0112651N1+01701+01101999999ADDAG11999GA1041+004809089MA1102811999999REMMET003NSGEQDQ01+000000PRSWM2
0124601010999991993011918004+35733-005900SY-MT+0021GMTT V0200601N00411220001CN0100001N9+01461+00951102831ADDAA106000091AG14000GA1031+004809089GF103991031021004501001001KA1120M+01841MD1610011+9999REMSYN016 333 10184 83816MET003NSG
0072601010999991993011920004+35733-005900FM-15+0021GMTT V0200801N00511220001CN0112651N1+01201+01001999999ADDAG11999GA1021+004809089MA1102811999999REMMET003NSGEQDQ01+000000PRSWM2
0078601010999991993011921004+35733-005900SY-MT+0021GMTT V0200601N00461220001CN0100001N9+01201+00981102951ADDAA106000091AG14000GF100991001001999999001001MD1310121+9999REMMET008CAVOK NS
0061601010999991993011922004+35733-005900FM-15+0021GMTT V0200601N00461999991CY0099001N1+01201+01001999999ADDAG11999MA1102911999999REMMET008CAVOK NSEQDQ01+000000PRSWM2
0061601010999991993011923004+35733-005900FM-15+0021GMTT V0200601N00611999991CY0099001N1+01201+01001999999ADDAG11999MA1102911999999REMMET008CAVOK NSEQDQ01+000000PRSWM2
0077601010999991993012000004+35733-005900FM-12+0021GMTT V0200601N00511220001CN0100001N9+01191+00921103001ADDAA106000091AG14000GA1001+999999999GF100991001001999999001001MD1310121+9999
0061601010999991993012001004+35733-005900FM-15+0021GMTT V0200801N00511999991CY0099001N1+01201+00801999999ADDAG11999MA1102911999999REMMET008CAVOK NSEQDQ01+000000PRSWM2
0061601010999991993012002004+35733-005900FM-15+0021GMTT V0200801N00361999991CY0099001N1+01101+00901999999ADDAG11999MA1102911999999REMMET008CAVOK NSEQDQ01+000000PRSWM2
0075601010999991993012003004+35733-005900SY-MT+0021GMTT V0200601N00311220001CN0100001N9+00951+00771102911ADDAA106000091AG14000GF100991001001999999001001MD1710091+9999REMMET005CAVOK
0061601010999991993012004004+35733-005900FM-15+0021GMTT V0200801N00301999991CY0099001N1+00901+00801999999ADDAG11999MA1102911999999REMMET008CAVOK NSEQDQ01+000000PRSWM2
0061601010999991993012005004+35733-005900FM-15+0021GMTT V0200801N00411999991CY0099001N1+00901+00801999999ADDAG11999MA1102911999999REMMET008CAVOK NSEQDQ01+000000PRSWM2
0141601010999991993012006004+35733-005900SY-MT+0021GMTT V0200801N00461220001CN0100001N1+00831+00681102921ADDAA106000091AG14000GF100991001001999999001001KA1120N+00691MA1102911999999MD1310011+9999REMSYN010 333 20069MET008CAVOK NSEQDQ01+000000PRSWM2
0061601010999991993012007004+35733-005900FM-15+0021GMTT V0200801N00411999991CY0099001N1+00801+00701999999ADDAG11999MA1102911999999REMMET008CAVOK NSEQDQ01+000000PRSWM2
0072601010999991993012008004+35733-005900FM-15+0021GMTT V0200601N00411220001CN0112651N1+01001+00801999999ADDAG11999GA1021+004809089MA1103011999999REMMET003NSGEQDQ01+000000PRSWM2
0105601010999991993012009004+35733-005900SY-MT+0021GMTT V0200801N00511220001CN0100001N9+01121+00881103071ADDAA106000091AG14000GA1021+004809089GF102991021021004501001001MD1310151+9999REMSYN010 333 82816MET003NSG
0072601010999991993012010004+35733-005900FM-15+0021GMTT V0200801N00611220001CN0112651N1+01401+01001999999ADDAG11999GA1021+004809089MA1103121999999REMMET003NSGEQDQ01+000000PRSWM2
0072601010999991993012011004+35733-005900FM-15+0021GMTT V0200601N00611220001CN0112651N1+01601+00901999999ADDAG11999GA1021+004809089MA1103121999999REMMET003NSGEQDQ01+000000PRSWM2
0139601010999991993012012004+35733-005900SY-MT+0021GMTT V0200601N00721220001CN0150001N1+01741+00911103071ADDAA106000091AG14000GA1021+004809089GF103991021021004501001021MA1103011999999MD1010001+9999REMSYN010 333 82816MET003NSGEQDQ01+000000PRSWM2
0072601010999991993012013004+35733-005900FM-15+0021GMTT V0200601N00721220001CN0112651N1+01801+00801999999ADDAG11999GA1021+004809089MA1103011999999REMMET003NSGEQDQ01+000000PRSWM2
0061601010999991993012014004+35733-005900FM-15+0021GMTT V0200601N00721999991CY0099001N1+01801+00801999999ADDAG11999MA1102911999999REMMET008CAVOK NSEQDQ01+000000PRSWM2
0096601010999991993012015004+35733-005900FM-12+0021GMTT V0200601N00721220001CN0150001N9+01801+00811102881ADDAA106000091AG14000GA1021+004809089GF103991021021004501001021MD1810181+9999REMSYN010 333 82816
0060601010999991993012015304+35733-005900FM-15+0021GMTT V0200601N00721220001CN0112651N1+01801+00801999999ADDAG11999GA1021+004809089MA1102811999999EQDQ01+000000PRSWM2
0060601010999991993012017004+35733-005900FM-15+0021GMTT V0200601N00821220001CN0112651N1+01601+00901999999ADDAG11999GA1021+004809089MA1102911999999EQDQ01+000000PRSWM2
0149601010999991993012018004+35733-005900SY-MT+0021GMTT V0200601N00721220001CN0100001N1+01431+00901102941ADDAA106000091AG11000GA1021+001809089GF103991021021004501001011KA1120M+01871MA1102911999999MD1310061+9999REMSYN016 333 10187 82816EQDQ01+000000PRSWM2
0060601010999991993012019004+35733-005900FM-15+0021GMTT V0200601N00611220001CN0112651N1+01301+00901999999ADDAG11999GA1021+004809089MA1102911999999EQDQ01+000000PRSWM2
0060601010999991993012020004+35733-005900FM-15+0021GMTT V0200601N00511220001CN0112651N1+01301+00901999999ADDAG11999GA1021+004809089MA1102911999999EQDQ01+000000PRSWM2
0096601010999991993012021004+35733-005900FM-12+0021GMTT V0200801N00511220001CN0100001N9+01261+00951103021ADDAA106000091AG14000GA1021+004809089GF103991021021004501001021MD1210081+9999REMSYN010 333 82816
0072601010999991993012022004+35733-005900FM-15+0021GMTT V0200801N00611220001CN0112651N1+01301+01001999999ADDAG11999GA1021+004809089MA1103011999999REMMET003NSGEQDQ01+000000PRSWM2
0072601010999991993012023004+35733-005900FM-15+0021GMTT V0200801N00611220001CN0112651N1+01301+01001999999ADDAG11999GA1021+004209089MA1103011999999REMMET003NSGEQDQ01+000000PRSWM2
0139601010999991993012100004+35733-005900SY-MT+0021GMTT V0200601N00621220001CN0100001N1+01221+00991103031ADDAA106000091AG11000GA1021+004209089GF102991021021004501001001MA1103011999999MD1310011+9999REMSYN010 333 82814MET003NSGEQDQ01+000000PRSWM2
0072601010999991993012102004+35733-005900FM-15+0021GMTT V0200801N00721220001CN0112651N1+01201+01001999999ADDAG11999GA1031+003909089MA1103011999999REMMET003NSGEQDQ01+000000PRSWM2
0139601010999991993012103004+35733-005900SY-MT+0021GMTT V0200801N00821220001CN0100001N1+01211+00981103001ADDAA106000091AG14000GA1031+003909089GF103991031021004501001001MA1103011999999MD1610031+9999REMSYN010 333 83813MET003NSGEQDQ01+000000PRSWM2
0072601010999991993012104004+35733-005900FM-15+0021GMTT V0200601N00661220001CN0112651N1+01201+01001999999ADDAG11999GA1011+003909089MA1102911999999REMMET003NSGEQDQ01+000000PRSWM2
0072601010999991993012105004+35733-005900FM-15+0021GMTT V0200601N00661220001CN0112651N1+01201+01001999999ADDAG11999GA1011+003909089MA1102911999999REMMET003NSGEQDQ01+000000PRSWM2
0158601010999991993012106004+35733-005900SY-MT+0021GMTT V0200601N00671220001CN0100001N1+01201+00931102991ADDAA106000091AG14000GA1011+003909089GF101991011021004501001001KA1120N+01181MA1102911999999MD1610011+9999REMSYN016 333 20118 81813MET003NSGEQDQ01+000000PRSWM2
0072601010999991993012107004+35733-005900FM-15+0021GMTT V0200601N00661220001CN0112651N1+01201+00901999999ADDAG11999GA1011+003909089MA1102911999999REMMET003NSGEQDQ01+000000PRSWM2
0076601010999991993012108004+35733-005900FM-15+0021GMTT V0200601N00611220001CN0112651N1+01301+00901999999ADDAG11999GA1011+004509089GA2041+069009009MA1103011999999EQDQ01+000000PRSWM2
0076601010999991993012109004+35733-005900FM-15+0021GMTT V0200601N00611060001CN0112651N1+01201+01001999999ADDAG11000GA1021+004809089GA2041+060009009MA1103121999999EQDQ01+000000PRSWM2
0076601010999991993012111004+35733-005900FM-15+0021GMTT V0200601N01021060001CN0112651N1+01601+01001999999ADDAG11999GA1021+004809089GA2041+060009009MA1103121999999EQDQ01+000000PRSWM2
0118601010999991993012112004+35733-005900SY-MT+0021GMTT V0200601N01031220001CN0100001N9+01721+01061103161ADDAA106000091AG14000GA1021+004809089GA2041+060009009GF104991021021004501001021MD1010051+9999REMSYN016 333 82816 84070
0076601010999991993012113004+35733-005900FM-15+0021GMTT V0200601N01131060001CN0112651N1+01701+01001999999ADDAG11999GA1021+004809089GA2041+060009009MA1103121999999EQDQ01+000000PRSWM2
0090601010999991993012114004+35733-005900FM-15+0021GMTT V0201001N01021069001CN0112651N1+01701+01001999999ADDAG11999GA1021+004809089GA2041+069009009MA1103011999999REMMET005NOSIGEQDQ01+000000PRSWM2
0130601010999991993012115004+35733-005900SY-MT+0021GMTT V0200601N00931090001CN0100001N1+01771+01041102921ADDAA106000091AG11000GA1031+004809089GF105991031021004501001021MA1102911999999MD1810241+9999REMSYN010 333 83816EQDQ01+000000PRSWM2
0060601010999991993012116004+35733-005900FM-15+0021GMTT V0200601N01131220001CN0112651N1+01701+01001999999ADDAG11999GA1031+004809089MA1102911999999EQDQ01+000000PRSWM2
0074601010999991993012117004+35733-005900FM-15+0021GMTT V0200801N01131220001CN0112651N1+01701+01001999999ADDAG11999GA1031+004809089MA1102911999999REMMET005NOSIGEQDQ01+000000PRSWM2
0165601010999991993012118004+35733-005900SY-MT+0021GMTT V0200601N011319999999N0100001N1+01471+00941102921ADDAA106000091AG14000GA1031+004809089GF105991999021004501001001KA1120M+01761MA1102911999999MD1410001+9999REMSYN016 333 10176 83816EQDQ01+000032SCOTLCQ02+000000PRSWM2
0051601010999991993012119004+35733-005900FM-16+0021GMTT V0200801N00771220001CN0112651N1+99999+99999999999ADDAG11999REMMET013CUSC016 1///0EQDQ01+000000PRSWM2
0096601010999991993012121004+35733-005900SY-MT+0021GMTT V0200601N00721220001CN0100001N9+01331+00901103021ADDAA106000091AG14000GA1021+004809089GF102991021021004501001001MD1310101+9999REMSYN010 333 82816
0060601010999991993012122004+35733-005900FM-15+0021GMTT V0200601N00721220001CN0112651N1+01301+00901999999ADDAG11999GA1021+004809089MA1103011999999EQDQ01+000000PRSWM2
0060601010999991993012123004+35733-005900FM-15+0021GMTT V0200601N00611220001CN0112651N1+01301+00901999999ADDAG11999GA1021+004809089MA1103011999999EQDQ01+000000PRSWM2
0130601010999991993012200004+35733-005900SY-MT+0021GMTT V0200601N00931220001CN0100001N1+01371+00831103061ADDAA106000091AG11000GA1021+004809089GF102991021021004501001001MA1103011999999MD1210041+9999REMSYN010 333 82816EQDQ01+000000PRSWM2
0060601010999991993012201004+35733-005900FM-15+0021GMTT V0200601N00721220001CN0112651N1+01301+00901999999ADDAG11999GA1021+004809089MA1103011999999EQDQ01+000000PRSWM2
0060601010999991993012202004+35733-005900FM-15+0021GMTT V0200601N00511220001CN0112651N1+01301+01001999999ADDAG11999GA1021+004809089MA1103011999999EQDQ01+000000PRSWM2
0130601010999991993012203004+35733-005900SY-MT+0021GMTT V0200801N00511220001CN0100001N1+01201+00801103021ADDAA106000091AG11000GA1021+004809089GF102991021021004501001001MA1103011999999MD1810041+9999REMSYN010 333 82816EQDQ01+000000PRSWM2
0072601010999991993012205004+35733-005900FM-15+0021GMTT V0200601N00511220001CN0112651N1+01301+00801999999ADDAG11999GA1021+004809089MA1102911999999REMMET003NSGEQDQ01+000000PRSWM2
0115601010999991993012206004+35733-005900FM-12+0021GMTT V0200601N00621220001CN0100001N9+01241+00841102991ADDAA106000091AG14000GA1021+004809089GF102991021021004501001001KA1120N+01101MD1610031+9999REMSYN016 333 20110 82816
0072601010999991993012207004+35733-005900FM-15+0021GMTT V0200601N00611220001CN0112651N1+01201+00801999999ADDAG11999GA1021+004809089MA1102911999999REMMET003NSGEQDQ01+000000PRSWM2
0072601010999991993012208004+35733-005900FM-15+0021GMTT V0200801N00921220001CN0112651N1+01301+00801999999ADDAG11999GA1031+004809089MA1103011999999REMMET003MSGEQDQ01+000000PRSWM2
0118601010999991993012209004+35733-005900SY-MT+0021GMTT V0200801N00721060001CN0100001N9+01371+00941103081ADDAA106000091AG14000GA1031+004809089GA2031+060009009GF105991031021004501001021MD1310091+9999REMSYN016 333 83816 83060
0076601010999991993012210004+35733-005900FM-15+0021GMTT V0200801N00921069001CN0112651N1+01401+00901999999ADDAG11999GA1031+004809089GA2031+069009009MA1103011999999EQDQ01+000000PRSWM2
0090601010999991993012211004+35733-005900FM-15+0021GMTT V0200801N00921069001CN0112651N1+01601+00901999999ADDAG11999GA1041+004809089GA2031+069009009MA1103011999999REMMET005NOSIGEQDQ01+000000PRSWM2
0129601010999991993012212004+35733-005900SY-MT+0021GMTT V0209999999999069001CN0100001N9+01661+00971103111ADDAA106000091AG14000GA1041+004809089GA2031+069009009GF105991041021004501001021MD1310061+9999REMSYN016 333 84816 83073MET005NOSIG
0076601010999991993012213004+35733-005900FM-15+0021GMTT V0200801N01021069001CN0112651N1+01701+01001999999ADDAG11999GA1041+004809089GA2031+069009009MA1103121999999EQDQ01+000000PRSWM2
0155601010999991993012215004+35733-005900SY-MT+0021GMTT V0200801N01231069001CN0100001N1+01741+01131103081ADDAA106000091AG14000GA1041+004809089GA2041+069009009GF106991041021004501001021MA1103011999999OC101441REMSYN016 333 84816 84073MET003NSGEQDQ01+000000PRSWM2
0180601010999991993012218004+35733-005900SY-MT+0021GMTT V0200601N00621069001CN0100001N1+01431+01101102871ADDAA106000091AG14000GA1041+004809089GA2051+069009009GF107991041021004501001021KA1120M+01741MA1102811999999MD1610031+9999REMSYN022 333 10174 84816 85073MET003NSGEQDQ01+000000PRSWM2
0088601010999991993012220004+35733-005900FM-15+0021GMTT V0200801N00771060001CN0112651N1+01401+01101999999ADDAG11999GA1041+004809089GA2051+060009009MA1102911999999REMMET003NSGEQDQ01+000000PRSWM2
0197601010999991993012221004+35733-005900SY-MT+0021GMTT V0200801N00931004801CN0100001N1+01421+01201102991ADDAA106000091AG14000GA1051+004809089GA2031+069009009GF106991051021004501001021MA1102911999999REMSYN064 22214 60101 32460 60818 10142 20120 40299 85202 333 85816 83073MET005NOSIGEQDQ01+000000PRSWM2
0090601010999991993012222004+35733-005900FM-15+0021GMTT V0200801N00921004801CN0112651N1+99999+99999999999ADDAG11999GA1051+004809089GA2031+069009009MA1103011999999REMMET005NOSIGEQDQ01+000000PRSWM2
0090601010999991993012223004+35733-005900FM-15+0021GMTT V0200801N00771004801CN0112651N1+01401+01201999999ADDAG11999GA1051+004809089GA2031+069009009MA1103011999999REMMET005NOSIGEQDQ01+000000PRSWM2
0141601010999991993012300004+35733-005900SY-MT+0021GMTT V0200801N00621090001CN0100001N1+01381+00871103041ADDAA106000091AG14000GA1041+004809089GF105991041021004501001021MA1103011999999MD1310041+9999REMSYN010 333 8481/MET005NOSIGEQDQ01+000000PRSWM2
0074601010999991993012302004+35733-005900FM-15+0021GMTT V0200801N00821220001CN0112651N1+01401+00901999999ADDAG11999GA1031+004809089MA1103011999999REMMET005NOSIGEQDQ01+000000PRSWM2
0096601010999991993012303004+35733-005900FM-12+0021GMTT V0200801N00821220001CN0100001N9+01301+00941103021ADDAA106000091AG14000GA1031+004809089GF104991031021004501001021MD1710021+9999REMSYN010 333 83816
0060601010999991993012304004+35733-005900FM-15+0021GMTT V0200801N00721220001CN0112651N1+01301+00901999999ADDAG11999GA1031+004809089MA1103011999999EQDQ01+000000PRSWM2
0060601010999991993012305004+35733-005900FM-15+0021GMTT V0200801N00511220001CN0112651N1+01301+00901999999ADDAG11999GA1031+004809089MA1103011999999EQDQ01+000000PRSWM2
0149601010999991993012306004+35733-005900SY-MT+0021GMTT V0200601N00671220001CN0100001N1+01241+00911102961ADDAA106000091AG14000GA1021+004809089GF102991021021004501001021KA1120N+01201MA1102911999999MD1810061+9999REMSYN016 333 20120 82816EQDQ01+000000PRSWM2
0060601010999991993012307004+35733-005900FM-15+0021GMTT V0200601N00721220001CN0112651N1+01201+00901999999ADDAG11999GA1021+004809089MA1102911999999EQDQ01+000000PRSWM2
0072601010999991993012308004+35733-005900FM-15+0021GMTT V0200801N00771220001CN0112651N1+01301+00901999999ADDAG11999GA1021+004809089MA1103011999999REMMET003NSGEQDQ01+000000PRSWM2
0139601010999991993012309004+35733-005900SY-MT+0021GMTT V0200601N00871220001CN0100001N1+01321+00971103071ADDAA106000091AG14000GA1021+004809089GF102991021021004501001021MA1103011999999MD1310111+9999REMSYN010 333 82816MET003NSGEQDQ01+000000PRSWM2
0072601010999991993012311004+35733-005900FM-15+0021GMTT V0200601N01021220001CN0112651N1+01601+00901999999ADDAG11999GA1021+004809089MA1103121999999REMMET003NSGEQDQ01+000000PRSWM2
0105601010999991993012312004+35733-005900SY-MT+0021GMTT V0200601N01031220001CN0100001N9+01701+00911103081ADDAA106000091AG14000GA1021+004809089GF103991021021004501001021MD1010011+9999REMSYN010 333 82816MET003NSG
0118601010999991993012315004+35733-005900FM-12+0021GMTT V0200801N00721069001CN0100001N9+01771+00811102921ADDAA106000091AG14000GA1021+004809089GA2041+069009009GF105991021021004501001021MD1810161+9999REMSYN016 333 82816 84073
0088601010999991993012316004+35733-005900FM-15+0021GMTT V0200601N00611069001CN0112651N1+01701+00701999999ADDAG11999GA1021+004809089GA2041+069009009MA1102811999999REMMET003NSGEQDQ01+000000PRSWM2
0088601010999991993012317004+35733-005900FM-15+0021GMTT V0200601N00821069001CN0112651N1+01601+00901999999ADDAG11999GA1021+004809089GA2041+069009009MA1102911999999REMMET003NSGEQDQ01+000000PRSWM2
0180601010999991993012318004+35733-005900SY-MT+0021GMTT V0200601N01131069001CN0100001N1+01451+00811102921ADDAA106000091AG14000GA1021+004809089GA2041+069009009GF105991021021004501001021KA1120M+01801MA1102911999999MD1510001+9999REMSYN022 333 10180 82816 84073MET003NSGEQDQ01+000000PRSWM2
0060601010999991993012320004+35733-005900FM-15+0021GMTT V0200801N00971220001CN0112651N1+01301+00901999999ADDAG11999GA1021+004809089MA1103011999999EQDQ01+000000PRSWM2
0124601010999991993012321004+35733-005900SY-MT+0021GMTT V0200601N01031220001CN0100001N9+01291+00971103001ADDAA106000091AG14000GA1021+004809089GF102991021999004501021999MD1110081+9999REMSYN010 333 82816MET003NSGEQDQ01+000002SCOLCG
0072601010999991993012322004+35733-005900FM-15+0021GMTT V0200601N00771220001CN0112651N1+01201+00901999999ADDAG11999GA1021+004809089MA1103011999999REMMET003NSGEQDQ01+000000PRSWM2
0072601010999991993012323004+35733-005900FM-15+0021GMTT V0200601N01021220001CN0112651N1+01201+00901999999ADDAG11999GA1021+004809089MA1103011999999REMMET003NSGEQDQ01+000000PRSWM2
0077601010999991993012400004+35733-005900SY-MT+0021GMTT V0200801N00931220001CN0100001N9+01331+00911103041ADDAA106000091AG14000GA1021+004809089GF102991021021004501001021MD1310081+9999
0072601010999991993012401004+35733-005900FM-15+0021GMTT V0200801N00821220001CN0112651N1+01301+00901999999ADDAG11999GA1021+004809089MA1103011999999REMMET003NSGEQDQ01+000000PRSWM2
0072601010999991993012402004+35733-005900FM-15+0021GMTT V0200801N00611220001CN0112651N1+01201+00901999999ADDAG11999GA1021+004809089MA1103011999999REMMET003NSGEQDQ01+000000PRSWM2
0109601010999991993012406004+35733-005900FM-12+0021GMTT V0200601N00721220001CN0100001N9+01201+00861102941ADDAA106000091AG14000GA1001+999999999GF100991001001999999001001KA1120N+01051MD1710041+9999REMSYN010 333 20105
0096601010999991993012409004+35733-005900FM-12+0021GMTT V0200601N00411069001CN0100001N9+01051+00851103001ADDAA106000091AG14000GA1051+069009009GF105991001001999999001021MD1310061+9999REMSYN010 333 85073
0096601010999991993012412004+35733-005900FM-12+0021GMTT V0200801N00571220001CN0150001N9+01771+00981103031ADDAA106000091AG14000GA1031+069009009GF103991001001999999001021MD1010031+9999REMSYN010 333 83073
0078601010999991993012415004+35733-005900SY-MT+0021GMTT V0200601N00621220001CN0100001N9+01781+01031102861ADDAA106000091AG14000GF100991001001999999001001MD1610171+9999REMMET008CAVOK NO
0061601010999991993012416004+35733-005900FM-15+0021GMTT V0200601N00411999991CY0099001N1+01801+01001999999ADDAG11999MA1102711999999REMMET008CAVOK NSEQDQ01+000000PRSWM2
0061601010999991993012417004+35733-005900FM-15+0021GMTT V0200401N00511999991CY0099001N1+01501+01001999999ADDAG11999MA1102711999999REMMET008CAVOK NSEQDQ01+000000PRSWM2
0091601010999991993012418004+35733-005900SY-MT+0021GMTT V0200401N00511220001CN9999999N9+01451+01041102761ADDAA106000091AG14000GF100991001001999999001001MD1610101+9999REMSYN010 333 101//MET005CAVOK
0061601010999991993012419004+35733-005900FM-15+0021GMTT V0200601N00511999991CY0099001N1+01401+01001999999ADDAG11999MA1102711999999REMMET008CAVOK NSEQDQ01+000000PRSWM2
0061601010999991993012420004+35733-005900FM-15+0021GMTT V0200601N00511999991CY0099001N1+01401+01001999999ADDAG11999MA1102711999999REMMET008CAVOK NOEQDQ01+000000PRSWM2
0077601010999991993012421004+35733-005900FM-12+0021GMTT V0200801N00211220001CN0100001N9+01201+00971102841ADDAA106000091AG14000GA1001+999999999GF100991001001999999001001MD1310101+9999
0061601010999991993012422004+35733-005900FM-15+0021GMTT V0200801N00201999991CY0099001N1+01001+00801999999ADDAG11999MA1102811999999REMMET008CAVOK NSEQDQ01+000000PRSWM2
0112601010999991993012500004+35733-005900SY-MT+0021GMTT V0200801N00311220001CN0100001N1+00691+00531102871ADDAA106000091AG14000GF100991001001999999001001MA1102811999999MD1310081+9999REMMET008CAVOK NSEQDQ01+000000PRSWM2
0077601010999991993012503004+35733-005900FM-12+0021GMTT V0200801N00311220001CN0100001N9+00901+00581102791ADDAA106000091AG14000GA1001+999999999GF100991001001999999001001MD1610081+9999
0058601010999991993012505004+35733-005900FM-15+0021GMTT V0200601N00301999991CY0099001N1+00701+00501999999ADDAG11999MA1102711999999REMMET005CAVOKEQDQ01+000000PRSWM2
0104601010999991993012506004+35733-005900SY-MT+0021GMTT V0200801N00211220001CN0100001N9+00391+00291102711ADDAA106000091AG14000GF100991001001999999001001KA1120N+00341MD1710081+9999REMSYN010 333 20034MET005CAVOK
0044601010999991993012507004+35733-005900FM-15+0021GMTT V0200801N00301220001CN0080001N1+00501+00301999999ADDAG11999MA1102711999999EQDQ01+000000PRSWM2
0061601010999991993012508004+35733-005900FM-15+0021GMTT V0200801N00301999991CY0099001N1+00301+00301999999ADDAG11999MA1102711999999REMMET008CAVOK NSEQDQ01+000000PRSWM2
0078601010999991993012509004+35733-005900SY-MT+0021GMTT V0200801N00211220001CN0100001N9+00541+00401102751ADDAA106000091AG14000GF100991001001999999001001MD1310041+9999REMMET008CAVOK NS
0058601010999991993012510004+35733-005900FM-15+0021GMTT V0201401N00201999991CY0099001N1+01001+00801999999ADDAG11999MA1102711999999REMMET005CAVOKEQDQ01+000000PRSWM2
0058601010999991993012511004+35733-005900FM-15+0021GMTT V0201401N00201999991CY0099001N1+01201+00901999999ADDAG11999MA1102711999999REMMET005CAVOKEQDQ01+000000PRSWM2
0077601010999991993012512004+35733-005900FM-12+0021GMTT V0201801N00411220001CN0100001N9+01631+01001102751ADDAA106000091AG14000GA1001+999999999GF100991001001999999001001MD1110041+9999
0061601010999991993012513004+35733-005900FM-15+0021GMTT V0202001N00511999991CY0099001N1+01601+01001999999ADDAG11999MA1102711999999REMMET008CAVOK NSEQDQ01+000000PRSWM2
0074601010999991993012514004+35733-005900FM-15+0021GMTT V0202201N00511220001CN0112651N1+01601+01101999999ADDAG11999GA1021+004809089MA1102611999999REMMET005NOSIGEQDQ01+000000PRSWM2
0096601010999991993012515004+35733-005900FM-12+0021GMTT V0202001N00411220001CN0100001N9+01651+01041102581ADDAA106000091AG14000GA1031+004809059GF103991031051004501001001MD1610201+9999REMSYN010 333 83616
0160601010999991993012518004+35733-005900SY-MT+0021GMTT V0202001N00311004801CN0100001N1+01331+01051102581ADDAA106000091AG14000GA1051+004809089GF105991051021004501001001KA1120M+01701MA1102511999999MD1510001+9999REMSYN016 333 10170 85816MET005NOSIGEQDQ01+000000PRSWM2
0060601010999991993012520004+35733-005900FM-15+0021GMTT V0209991C00001220001CN0112651N1+01001+00901999999ADDAG11999GA1031+004809059MA1102611999999EQDQ01+000000PRSWM2
0109601010999991993012521004+35733-005900SY-MT+0021GMTT V0200601N00211220001CN0100001N1+00851+00741102651ADDAA106000091AG14000GF100991001001999999001001MA1102611999999MD1310061+9999REMMET005CAVOKEQDQ01+000000PRSWM2
0058601010999991993012522004+35733-005900FM-15+0021GMTT V0209991C00001999991CY0099001N1+00801+00701999999ADDAG11999MA1102611999999REMMET005CAVOKEQDQ01+000000PRSWM2
0077601010999991993012600004+35733-005900FM-12+0021GMTT V0200801N00211220001CN0100001N9+00821+00671102651ADDAA106000091AG14000GA1001+999999999GF100991001001999999001001MD1410001+9999
0058601010999991993012601004+35733-005900FM-15+0021GMTT V0200801N00201999991CY0099001N1+00801+00701999999ADDAG11999MA1102611999999REMMET005CAVOKEQDQ01+000000PRSWM2
0058601010999991993012602004+35733-005900FM-15+0021GMTT V0209991C00001999991CY0099001N1+00801+00701999999ADDAG11999MA1102611999999REMMET005CAVOKEQDQ01+000000PRSWM2
0075601010999991993012603004+35733-005900SY-MT+0021GMTT V0201001N00211220001CN0100001N9+00541+00401102571ADDAA106000091AG14000GF100991001001999999001001MD1810081+9999REMMET005CAVOK
0058601010999991993012604004+35733-005900FM-15+0021GMTT V0200801N00201999991CY0099001N1+00501+00401999999ADDAG11999MA1102511999999REMMET005CAVOKEQDQ01+000000PRSWM2
0058601010999991993012605004+35733-005900FM-15+0021GMTT V0209991C00001999991CY0099001N1+00501+00401999999ADDAG11999MA1102511999999REMMET005CAVOKEQDQ01+000000PRSWM2
0138601010999991993012606004+35733-005900SY-MT+0021GMTT V0209991C00001220001CN0100001N1+00541+00451102531ADDAA106000091AG14000GF100991001001999999001001KA1120N+00541MA1102511999999MD1810041+9999REMSYN010 333 20054MET005CAVOKEQDQ01+000000PRSWM2
0074601010999991993012608004+35733-005900FM-15+0021GMTT V0209991C00001220001CN0112651N1+00801+00601999999ADDAG11999GA1041+006009059MA1102511999999REMMET005NOSIGEQDQ01+000000PRSWM2
0107601010999991993012609004+35733-005900SY-MT+0021GMTT V0201401N00311220001CN0100001N9+00971+00761102601ADDAA106000091AG14000GA1041+006009059GF104991041051008001001001MD1310081+9999REMSYN010 333 84620MET005NOSIG
0074601010999991993012611004+35733-005900FM-15+0021GMTT V0202001N00511220001CN0112651N1+01601+01001999999ADDAG11999GA1021+004809059MA1102611999999REMMET005NOSIGEQDQ01+000000PRSWM2
0130601010999991993012612004+35733-005900SY-MT+0021GMTT V0201801N00411220001CN0100001N1+01621+00861102661ADDAA106000091AG14000GA1021+006009059GF102991021051008001001001MA1102611999999MD1010061+9999REMSYN010 333 82620EQDQ01+000000PRSWM2
0072601010999991993012614004+35733-005900FM-15+0021GMTT V0202001N00611220001CN0112651N1+01701+00901999999ADDAG11999GA1031+004809089MA1102511999999REMMET003NSGEQDQ01+000000PRSWM2
0096601010999991993012615004+35733-005900FM-12+0021GMTT V0202001N00411220001CN0100001N9+01681+00971102511ADDAA106000091AG14000GA1021+006009089GF103991031021008001001001MD1810151+9999REMSYN010 333 82820
0072601010999991993012616004+35733-005900FM-15+0021GMTT V0202001N00361220001CN0112651N1+01601+00901999999ADDAG11999GA1021+006009089MA1102511999999REMMET003NSGEQDQ01+000000PRSWM2
0072601010999991993012617004+35733-005900FM-15+0021GMTT V0202001N00251220001CN0112651N1+01601+01001999999ADDAG11999GA1021+006009089MA1102511999999REMMET003NSGEQDQ01+000000PRSWM2
0188601010999991993012618004+35733-005900SY-MT+0021GMTT V0202201N00211220001CN0100001N1+01431+01031102591ADDAA106000091AG11000GA1021+006009089GF102991021021008001001001KA1120M+01721MA1102511999999MD1210081+9999REMSYN046 22204 10143 20103 40259 52008 82200 333 10172MET003NSGEQDQ01+000000PRSWM2
0072601010999991993012619004+35733-005900FM-15+0021GMTT V0200801N00101220001CN0112651N1+01301+01001999999ADDAG11999GA1021+006009089MA1102611999999REMMET003NSGEQDQ01+000000PRSWM2
0072601010999991993012620004+35733-005900FM-15+0021GMTT V0200801N00411220001CN0112651N1+01001+00901999999ADDAG11999GA1021+006009089MA1102611999999REMMET003NSGEQDQ01+000000PRSWM2
0075601010999991993012621004+35733-005900SY-MT+0021GMTT V0200801N00211220001CN0100001N9+00861+00731102811ADDAA106000091AG14000GF100991001001999999001001MD1210211+9999REMMET005CAVOK
