0150601010999991981010100004+35717-005900SY-MT+0015GMTT V0201201N00201220001CN0099001N1+00901+00501103551ADDAA106000091AY101999GF100991001001999999001001MA1103491999999MD1010071+9999MW1021REMSYN005700//MET012CAVOK NOSIG?EQDQ01+000000PRSWM2Q02  00003PRCP99
0058601010999991981010101004+35717-005900FM-15+0015GMTT V0201001N00411999991CY0099001N1+00801+00501999999ADDMA1103491999999REMMET012CAVOK NOSIG?EQDQ01+000000PRSWM2
0058601010999991981010102004+35717-005900FM-15+0015GMTT V0200801N00411999991CY0099001N1+00801+00401999999ADDMA1103491999999REMMET012CAVOK NOSIG?EQDQ01+000000PRSWM2
0057601010999991981010103004+35717-005900FM-12+0015GMTT V0201201N00411220001CN0150001N9+00701+00401103511ADDAY101999GF100991001001999999001001MD1610041+9999MW1021
0058601010999991981010104004+35717-005900FM-15+0015GMTT V0201201N00301999991CY0099001N1+00701+00401999999ADDMA1103391999999REMMET012CAVOK NOSIG?EQDQ01+000000PRSWM2
0058601010999991981010105004+35717-005900FM-15+0015GMTT V0201401N00251999991CY0099001N1+00701+00401999999ADDMA1103391999999REMMET012CAVOK NOSIG?EQDQ01+000000PRSWM2
0114601010999991981010106004+35717-005900FM-12+0015GMTT V0200801N00101220001CN0150001N9+00401+00201103471ADDAA124000091AY101999GF100991001001999999001001KA1999N+00201MD1710041+9999MW1021REMSYN00570002EQDQ01  00003PRCP99
0058601010999991981010107004+35717-005900FM-15+0015GMTT V0200801N00101999991CY0099001N1+00301+00201999999ADDMA1103391999999REMMET012CAVOK NOSIG?EQDQ01+000000PRSWM2
0057601010999991981010109004+35717-005900FM-12+0015GMTT V0201001N00101220001CN0150001N9+01301+00401103501ADDAY101999GF100991001001999999001001MD1210031+9999MW1021
0051601010999991981010111004+35717-005900FM-15+0015GMTT V0209991C00001999991CY0099001N1+01501+00801999999ADDMA1103591999999REMMET005CAVOKEQDQ01+000000PRSWM2
0143601010999991981010112004+35717-005900SY-MT+0015GMTT V0202801N00201220001CN0099001N1+01701+01001103511ADDAA106000091AY101999GF100991001001999999001001MA1103491999999MD1010011+9999MW1021REMSYN005700//MET005CAVOKEQDQ01+000000PRSWM2Q02  00003PRCP99
0051601010999991981010113004+35717-005900FM-15+0015GMTT V0202801N00151999991CY0099001N1+01801+01101999999ADDMA1103391999999REMMET005CAVOKEQDQ01+000000PRSWM2
0110601010999991981010115004+35717-005900SY-MT+0015GMTT V0202801N00411220001CN0099001N1+01501+00901103311ADDAY101999GF100991001001999999001001MA1103291999999MD1710111+9999MW1021REMMET010CAVOK NSG?EQDQ01+000000PRSWM2
0058601010999991981010116004+35717-005900FM-15+0015GMTT V0202801N00411999991CY0099001N1+01501+01201999999ADDMA1103291999999REMMET012CAVOK NOSIG?EQDQ01+000000PRSWM2
0058601010999991981010117004+35717-005900FM-15+0015GMTT V0203001N00301999991CY0099001N1+01401+00901999999ADDMA1103291999999REMMET012CAVOK NOSIG?EQDQ01+000000PRSWM2
0147601010999991981010118004+35717-005900SY-MT+0015GMTT V0203001N00361220001CN0099001N1+01201+00901103381ADDAA199000091AY101999GF100991001001999999001001KA1999M+01601MA1103291999999MD1310071+9999MW1021REMSYN00570016MET012CAVOK NOSIG?EQDQ01+000000PRSWM2
0058601010999991981010119004+35717-005900FM-15+0015GMTT V0203201N00411999991CY0099001N1+01001+00801999999ADDMA1103291999999REMMET012CAVOK NOSIG?EQDQ01+000000PRSWM2
0058601010999991981010120004+35717-005900FM-15+0015GMTT V0203201N00511999991CY0099001N1+01101+00901999999ADDMA1103291999999REMMET012CAVOK NOSIG?EQDQ01+000000PRSWM2
0112601010999991981010121004+35717-005900SY-MT+0015GMTT V0209991C00001220001CN0099001N1+00901+00601103391ADDAY101999GF100991001001999999001001MA1103291999999MD1310011+9999MW1021REMMET012CAVOK NOSIG?EQDQ01+000000PRSWM2
0058601010999991981010122004+35717-005900FM-15+0015GMTT V0209991C00001999991CY0099001N1+00701+00501999999ADDMA1103391999999REMMET012CAVOK NOSIG?EQDQ01+000000PRSWM2
0058601010999991981010123004+35717-005900FM-15+0015GMTT V0200801N00101999991CY0099001N1+00501+00501999999ADDMA1103391999999REMMET012CAVOK NOSIG?EQDQ01+000000PRSWM2
0150601010999991981010200004+35717-005900SY-MT+0015GMTT V0201201N00101220001CN0099001N1+00501+00401103371ADDAA106000091AY101999GF100991001001999999001001MA1103291999999MD1810031+9999MW1021REMSYN005700//MET012CAVOK NOSIG?EQDQ01+000000PRSWM2Q02  00003PRCP99
0058601010999991981010201004+35717-005900FM-15+0015GMTT V0209991C00001999991CY0099001N1+00401+00401999999ADDMA1103181999999REMMET012CAVOK NOSIG?EQDQ01+000000PRSWM2
0058601010999991981010202004+35717-005900FM-15+0015GMTT V0209991C00001999991CY0099001N1+00401+00301999999ADDMA1103181999999REMMET012CAVOK NOSIG?EQDQ01+000000PRSWM2
0112601010999991981010203004+35717-005900SY-MT+0015GMTT V0201001N00151220001CN0099001N1+00401+00301103281ADDAY101999GF100991001001999999001001MA1103181999999MD1610091+9999MW1021REMMET012CAVOK NOSIG?EQDQ01+000000PRSWM2
0058601010999991981010204004+35717-005900FM-15+0015GMTT V0209991C00001999991CY0099001N1+00301+00301999999ADDMA1103181999999REMMET012CAVOK NOSIG?EQDQ01+000000PRSWM2
0058601010999991981010205004+35717-005900FM-15+0015GMTT V0209991C00001999991CY0099001N1+00301+00301999999ADDMA1103181999999REMMET012CAVOK COSIG?EQDQ01+000000PRSWM2
0149601010999991981010206004+35717-005900SY-MT+0015GMTT V0209991C00001220001CN0099001N1+00301+00301103271ADDAA124000091AY101999GF100991001001999999001001KA1999N+00301MA1103181999999MW1021REMSYN00570003MET012CAVOK NOSIG?EQDQ01+000000PRSWM2Q02  00003PRCP99
0058601010999991981010207004+35717-005900FM-15+0015GMTT V0201801N00101999991CY0099001N1+00501+00301999999ADDMA1103181999999REMMET012CAVOK NOSIG?EQDQ01+000000PRSWM2
0051601010999991981010208004+35717-005900FM-15+0015GMTT V0202001N00301999991CY0099001N1+00601+00301999999ADDMA1103121999999REMMET005CAVOKEQDQ01+000000PRSWM2
0133601010999991981010209004+35717-005900SY-MT+0015GMTT V0201801N00511220001CN0112001N1+00901+00601103211ADDAY101999GA1021+003009079GF102991021061004501001001MA1103181999999MD1710061+9999MW1031REMSYN00582710MET006NOSIG?EQDQ01+000000PRSWM2
0068601010999991981010210004+35717-005900FM-15+0015GMTT V0201801N00611220001CN0112001N1+01001+00701999999ADDGA1031+003009079MA1103181999999REMMET006NOSIG?EQDQ01+000000PRSWM2
0084601010999991981010211004+35717-005900FM-15+0015GMTT V0202001N00721220001CN0112001N1+01201+00901999999ADDGA1011+003009079GA2041+004809059MA1103291999999REMMET006NOSIG?EQDQ01+000000PRSWM2
0166601010999991981010212004+35717-005900SY-MT+0015GMTT V0201801N00611006001CN0112001N1+01501+00801103281ADDAA106000091AY111999GA1051+006009059GF105991051051008001001001MA1103181999999MD1010081+9999MW1011REMSYN011700// 85620MET006NOSIG?EQDQ01+000000PRSWM2Q02  00003PRCP99
0057601010999991981010213004+35717-005900FM-15+0015GMTT V0202401N00611220001CN0112001N1+01501+00801999999ADDGA1031+006009059REMMET0101031NOSIG?EQDQ01+000000PRSWM2
0068601010999991981010215004+35717-005900FM-15+0015GMTT V0202401N00611004801CN0112001N1+01601+00901999999ADDGA1051+004809089MA1103011999999REMMET006NOSIG?EQDQ01+000000PRSWM2
0053601010999991981010216004+35717-005900FM-15+0015GMTT V0202201N00611220001CN0112001N1+01501+01001999999ADDGA1021+004809059MA1103011999999EQDQ01+000000PRSWM2
0053601010999991981010217004+35717-005900FM-15+0015GMTT V0202001N00411220001CN0112001N1+01401+01001999999ADDGA1011+004809059MA1103011999999EQDQ01+000000PRSWM2
0163601010999991981010218004+35717-005900SY-MT+0015GMTT V0209991C00001220001CN0112001N1+01301+01101103101ADDAA199000091AY111999GA1011+004809059GF101991011051004501001001KA1999M+01601MA1103121999999MD1310041+9999MW1021REMSYN01170016 81616MET006NOSIG?EQDQ01+000000PRSWM2
0068601010999991981010220004+35717-005900FM-15+0015GMTT V0209991C00001220001CN0112001N1+00801+00801999999ADDGA1011+004809059MA1103121999999REMMET006NOSIG?EQDQ01+000000PRSWM2
0051601010999991981010221004+35717-005900FM-15+0015GMTT V0209991C00001999991CY0099001N1+00701+00701999999ADDMA1103121999999REMMET005CAVOKEQDQ01+000000PRSWM2
0051601010999991981010222004+35717-005900FM-15+0015GMTT V0209991C00001999991CY0099001N1+00701+00501999999ADDMA1103121999999REMMET005CAVOKEQDQ01+000000PRSWM2
0051601010999991981010223004+35717-005900FM-15+0015GMTT V0209991C00001999991CY0099001N1+00701+00501999999ADDMA1103121999999REMMET005CAVOKEQDQ01+000000PRSWM2
0143601010999991981010300004+35717-005900SY-MT+0015GMTT V0209991C00001220001CN0099001N1+00701+00501103101ADDAA106000091AY101999GF100991001001999999001001MA1103121999999MD1410001+9999MW1021REMSYN005700//MET005CAVOKEQDQ01+000000PRSWM2Q02  00003PRCP99
0051601010999991981010301004+35717-005900FM-15+0015GMTT V0209991C00001999991CY0099001N1+00701+00501999999ADDMA1103121999999REMMET005CAVOKEQDQ01+000000PRSWM2
0051601010999991981010302004+35717-005900FM-15+0015GMTT V0209991C00001999991CY0099001N1+00401+00301999999ADDMA1103011999999REMMET005CAVOKEQDQ01+000000PRSWM2
0105601010999991981010303004+35717-005900SY-MT+0015GMTT V0209991C00001220001CN0099001N1+00401+00301103011ADDAY101999GF100991001001999999001001MA1103011999999MD1610091+9999MW1021REMMET005CAVOKEQDQ01+000000PRSWM2
0051601010999991981010304004+35717-005900FM-15+0015GMTT V0209991C00001999991CY0099001N1+00401+00301999999ADDMA1103011999999REMMET005CAVOKEQDQ01+000000PRSWM2
0156601010999991981010306004+35717-005900SY-MT+0015GMTT V0209991C00001220001CN0099001N1+00301+00301102961ADDAA124000091AY101999GF100991001001999999001001KA1999N+00301MA1102911999999MD1810051+9999MW1021REMSYN00570003MET005CAVOKEQDQ01+000000PRSWM2Q02  00003PRCP99
0051601010999991981010307004+35717-005900FM-15+0015GMTT V0201001N00151999991CY0099001N1+00301+00301999999ADDMA1102911999999REMMET005CAVOKEQDQ01+000000PRSWM2
0057601010999991981010309004+35717-005900FM-12+0015GMTT V0201001N00211220001CN0100001N9+00701+00601103011ADDAY101999GF100991001001999999001001MD1110051+9999MW1021
0101601010999991981010312004+35717-005900FM-12+0015GMTT V0209991C00001220001CN0150001N9+01501+00801102981ADDAA106000091AY101999GF100991001001999999001001MD1810021+9999MW1021REMSYN005700//EQDQ01  00003PRCP99
0067601010999991981010315004+35717-005900FM-12+0015GMTT V0202601N00261220001CN0150001N9+01501+00901102801ADDAY101999GF100991001001999999001001MD1710181+9999MW1021REMSYN0016
0095601010999991981010318004+35717-005900FM-12+0015GMTT V0202801N00211220001CN0150001N9+01201+01001102801ADDAA199000091AY101999GF100991001001999999001001KA1999M+01601MD1510001+9999MW1021REMSYN00570016
0057601010999991981010321004+35717-005900FM-12+0015GMTT V0209991C00001220001CN0100001N9+00601+00501102851ADDAY101999GF100991001001999999001001MD1110041+9999MW1021
0101601010999991981010400004+35717-005900FM-12+0015GMTT V0201001N00151220001CN0100001N9+00501+00401102911ADDAA106000091AY101999GF100991001001999999001001MD1210061+9999MW1021REMSYN005700//EQDQ01  00003PRCP99
0057601010999991981010403004+35717-005900FM-12+0015GMTT V0209991C00001220001CN0100001N9+00601+00601102891ADDAY101999GF100991001001999999001001MD1610021+9999MW1021
0114601010999991981010406004+35717-005900FM-12+0015GMTT V0209991C00001220001CN0100001N9+00501+00501102841ADDAA124000091AY101999GF100991001001999999001001KA1999N+00301MD1610071+9999MW1021REMSYN00570003EQDQ01  00003PRCP99
0057601010999991981010409004+35717-005900FM-12+0015GMTT V0201601N00211220001CN0100001N9+01101+00601102881ADDAY101999GF100991001001999999001001MD1310041+9999MW1011
0101601010999991981010412004+35717-005900FM-12+0015GMTT V0202201N00621220001CN0150001N9+01501+00901102921ADDAA106000091AY101999GF100991001001999999001001MD1010051+9999MW1021REMSYN005700//EQDQ01  00003PRCP99
0087601010999991981010415004+35717-005900FM-12+0015GMTT V0202401N00621220001CN0150001N9+01501+01001102721ADDAY101999GA1021+006009059GF102991021051008001001001MD1710201+9999MW1031REMSYN00582620
0103601010999991981010418004+35717-005900FM-12+0015GMTT V0202201N00411220001CN0150001N9+01101+00901102751ADDAA199000091AY101999GA1011+006009059GF101991011051008001001001KA1999M+01501MW1021REMSYN01170015 81620
0057601010999991981010421004+35717-005900FM-12+0015GMTT V0209991C00001220001CN0150001N9+00901+00801102771ADDAY101999GF100991001001999999001001MD1310021+9999MW1011
0123601010999991981010500004+35717-005900FM-12+0015GMTT V0201801N00101220001CN0100001N9+00901+00801102861ADDAA106000091AY101999GA1021+002409079GF102991021061002501001001MD1310061+9999MW1031REMSYN011700// 82708EQDQ01  00003PRCP99
0087601010999991981010503004+35717-005900FM-12+0015GMTT V0201601N00261220001CN0100001N9+00901+00801102811ADDAY101999GA1021+002409079GF102991021061002501001001MD1610051+9999MW1021REMSYN00582708
0136601010999991981010506004+35717-005900FM-12+0015GMTT V0201601N00261220001CN0100001N9+01001+00801102701ADDAA124000091AY101999GA1021+002409079GF102991021061002501001001KA1999N+00601MD1610101+9999MW1021REMSYN01170006 82708EQDQ01  00003PRCP99
0109601010999991981010509004+35717-005900FM-12+0015GMTT V0201801N00411006001CN0100001N9+01101+00801102771ADDAY111999GA1051+006009059GA2041+027009039GF107991051051008001031999MD1310061+9999MW1031REMSYN01185620 84359
0123601010999991981010512004+35717-005900FM-12+0015GMTT V0202001N00511006001CN0100001N9+01501+00901102801ADDAA106000091AY111999GA1061+006009059GF106991061051008001001001MD1110041+9999MW1021REMSYN011700// 86620EQDQ01  00003PRCP99
0087601010999991981010515004+35717-005900FM-12+0015GMTT V0202401N00511006001CN0150001N9+01601+00901102621ADDAY121999GA1051+006009059GF105991051051008001001001MD1710181+9999MW1021REMSYN00585620
0139601010999991981010518004+35717-005900FM-12+0015GMTT V0202601N00151006001CN0100001N9+01201+01001102561ADDAA199000091AY111999GA1011+004809089GA2041+006009059GF105991051081004501001001KA1999M+01601MD1710101+9999MW1031REMSYN01770016 81816 84620
0087601010999991981010521004+35717-005900FM-12+0015GMTT V0209991C00001220001CN0080001N9+01001+00301102671ADDAY101999GA1021+006009059GF102991021051008001001001MD1310111+9999MW1021REMSYN00582620
0052601010999991981010523004+35717-005900FM-15+0015GMTT V0200801N004119999999N0080001N1+00701+00501999999ADDMA1102711999999REMMET006NOSIG?EQDQ01+000000PRSWM2
0144601010999991981010600004+35717-005900SY-MT+0015GMTT V0200801N00411220001CN0080001N1+00701+00601102731ADDAA106000091AY101999GF100991001001999999001001MA1102711999999MD1110061+9999MW1021REMSYN005700//MET006NOSIG?EQDQ01+000000PRSWM2Q02  00003PRCP99
0052601010999991981010601004+35717-005900FM-15+0015GMTT V0200801N004119999999N0080001N1+00601+00601999999ADDMA1102711999999REMMET006NOSIG?EQDQ01+000000PRSWM2
0037601010999991981010602004+35717-005900FM-15+0015GMTT V0201001N003619999999N0080001N1+00601+00501999999ADDMA1102711999999EQDQ01+000000PRSWM2
0057601010999991981010603004+35717-005900FM-12+0015GMTT V0201001N00361220001CN0080001N9+00701+00601102671ADDAY101999GF100991001001999999001001MD1810061+9999MW1021
0037601010999991981010604004+35717-005900FM-15+0015GMTT V0200801N004119999999N0080001N1+00701+00601999999ADDMA1102611999999EQDQ01+000000PRSWM2
0037601010999991981010605004+35717-005900FM-15+0015GMTT V0201001N004119999999N0080001N1+00601+00501999999ADDMA1102611999999EQDQ01+000000PRSWM2
0156601010999991981010606004+35717-005900SY-MT+0015GMTT V0201001N00201220001CN0099001N1+00601+00501102671ADDAA124000091AY101999GF100991001001999999001001KA1999N+00501MA1102611999999MD1410001+9999MW1021REMSYN00570005MET005CAVOKEQDQ01+000000PRSWM2Q02  00003PRCP99
0051601010999991981010607004+35717-005900FM-15+0015GMTT V0201001N00301999991CY0099001N1+00501+00401999999ADDMA1102611999999REMMET005CAVOKEQDQ01+000000PRSWM2
0050601010999991981010608004+35717-005900FM-15+0015GMTT V0200801N00151220001CN0070001N1+00601+00501999999ADDMA1102711999999REMMET004NSG?EQDQ01+000000PRSWM2
0104601010999991981010609004+35717-005900SY-MT+0015GMTT V0201001N00101220001CN0080001N1+00701+00701102731ADDAY101999GF100991001001999999001001MA1102711999999MD1310061+9999MW1021REMMET004NSG?EQDQ01+000000PRSWM2
0052601010999991981010610004+35717-005900FM-15+0015GMTT V0209991C00001220001CN0090001N1+01201+01001999999ADDMA1102711999999REMMET006NOSIG?EQDQ01+000000PRSWM2
0037601010999991981010611004+35717-005900FM-15+0015GMTT V0201001N00361220001CN0090001N1+01301+00901999999ADDMA1102711999999EQDQ01+000000PRSWM2
0166601010999991981010612004+35717-005900SY-MT+0015GMTT V0200801N00921220001CN0112001N1+01601+00901102781ADDAA106000091AY101999GA1021+004509059GF102991021051004501001001MA1102711999999MD1110061+9999MW1031REMSYN011700// 82615MET006NOSIG?EQDQ01+000000PRSWM2Q02  00003PRCP99
0068601010999991981010613004+35717-005900FM-15+0015GMTT V0201001N00971220001CN0112001N1+01601+00901999999ADDGA1011+004809059MA1102711999999REMMET006NOSIG?EQDQ01+000000PRSWM2
0068601010999991981010614004+35717-005900FM-15+0015GMTT V0200801N00821220001CN0112001N1+01801+00901999999ADDGA1011+004509059MA1102511999999REMMET006NOSIG?EQDQ01+000000PRSWM2
0133601010999991981010615004+35717-005900SY-MT+0015GMTT V0200601N00921220001CN0112001N1+01701+00801102511ADDAY101999GA1011+004809059GF101991011051004501001001MA1102511999999MD1610271+9999MW1021REMSYN00581615MET006NOSIG?EQDQ01+000000PRSWM2
0068601010999991981010616004+35717-005900FM-15+0015GMTT V0200601N00921220001CN0112001N1+01601+00801999999ADDGA1011+004509059MA1102511999999REMMET006NOSIG?EQDQ01+000000PRSWM2
0068601010999991981010617004+35717-005900FM-15+0015GMTT V0200601N00921220001CN0112001N1+01601+00901999999ADDGA1011+004509059MA1102511999999REMMET006NOSIG?EQDQ01+000000PRSWM2
0147601010999991981010618004+35717-005900SY-MT+0015GMTT V0200601N00721220001CN0099001N1+01401+00901102521ADDAA199000091AY101999GF100991001001999999001001KA1999M+01801MA1102511999999MD1110011+9999MW1011REMSYN00570018MET012CAVOK NOSIG?EQDQ01+000000PRSWM2
0058601010999991981010619004+35717-005900FM-15+0015GMTT V0200601N00561999991CY0099001N1+01301+00901999999ADDMA1102511999999REMMET012CAVOK NOSIG?EQDQ01+000000PRSWM2
0058601010999991981010620004+35717-005900FM-15+0015GMTT V0200801N00511999991CY0099001N1+01001+00701999999ADDMA1102611999999REMMET012CAVOK NOSIG?EQDQ01+000000PRSWM2
0112601010999991981010621004+35717-005900SY-MT+0015GMTT V0200801N00301220001CN0099001N1+01101+00801102641ADDAY101999GF100991001001999999001001MA1102611999999MD1210121+9999MW1021REMMET012CAVOK NOSIG?EQDQ01+000000PRSWM2
0058601010999991981010622004+35717-005900FM-15+0015GMTT V0200601N00301999991CY0099001N1+01101+00801999999ADDMA1102611999999REMMET012CAVOK NOSIG?EQDQ01+000000PRSWM2
0058601010999991981010623004+35717-005900FM-15+0015GMTT V0201401N00301999991CY0099001N1+01001+00701999999ADDMA1102611999999REMMET012CAVOK NOSIG?EQDQ01+000000PRSWM2
0150601010999991981010700004+35717-005900SY-MT+0015GMTT V0201401N00301220001CN0099001N1+00901+00701102671ADDAA106000091AY101999GF100991001001999999001001MA1102611999999MD1110031+9999MW1021REMSYN005700//MET012CAVOK NOSIG?EQDQ01+000000PRSWM2Q02  00003PRCP99
0058601010999991981010701004+35717-005900FM-15+0015GMTT V0200801N00151999991CY0099001N1+00801+00601999999ADDMA1102611999999REMMET012CAVOK NOSIG?EQDQ01+000000PRSWM2
0052601010999991981010702004+35717-005900FM-15+0015GMTT V0200801N00301220001CN0080001N1+00801+00701999999ADDMA1102611999999REMMET006NOSIG?EQDQ01+000000PRSWM2
0106601010999991981010703004+35717-005900SY-MT+0015GMTT V0200801N00361220001CN0080001N1+00901+00701102641ADDAY101999GF100991001001999999001001MA1102611999999MD1610031+9999MW1021REMMET006NOSIG?EQDQ01+000000PRSWM2
0052601010999991981010704004+35717-005900FM-15+0015GMTT V0200801N00411220001CN0080001N1+00901+00701999999ADDMA1102611999999REMMET006NOSIG?EQDQ01+000000PRSWM2
0052601010999991981010705004+35717-005900FM-15+0015GMTT V0201001N00151220001CN0070001N1+00701+00501999999ADDMA1102611999999REMMET006NOSIG?EQDQ01+000000PRSWM2
0157601010999991981010706004+35717-005900SY-MT+0015GMTT V0201001N00301220001CN0070001N1+00701+00601102631ADDAA124000091AY101999GF100991001001999999001001KA1999N+00501MA1102611999999MD1710021+9999MW1021REMSYN00570005MET006NOSIG?EQDQ01+000000PRSWM2Q02  00003PRCP99
0052601010999991981010707004+35717-005900FM-15+0015GMTT V0200801N00151220001CN0070001N1+00501+00501999999ADDMA1102611999999REMMET006NOSIG?EQDQ01+000000PRSWM2
0058601010999991981010708004+35717-005900FM-15+0015GMTT V0201001N00251999991CY0099001N1+00501+00401999999ADDMA1102611999999REMMET012CAVOK NOSIG?EQDQ01+000000PRSWM2
0112601010999991981010709004+35717-005900SY-MT+0015GMTT V0201001N00201220001CN0099001N1+00701+00601102731ADDAY101999GF100991001001999999001001MA1102711999999MD1310101+9999MW1021REMMET012CAVOK NOSIG?EQDQ01+000000PRSWM2
0058601010999991981010710004+35717-005900FM-15+0015GMTT V0201001N00151999991CY0099001N1+01101+00801999999ADDMA1102711999999REMMET012CAVOK NOSIG?EQDQ01+000000PRSWM2
0058601010999991981010711004+35717-005900FM-15+0015GMTT V0209991C00001999991CY0099001N1+01401+00901999999ADDMA1102811999999REMMET012CAVOK NOSIG?EQDQ01+000000PRSWM2
0150601010999991981010712004+35717-005900SY-MT+0015GMTT V0209991C00001220001CN0099001N1+01501+00901102681ADDAA106000091AY101999GF100991001001999999001001MA1102611999999MD1810041+9999MW1021REMSYN005700//MET012CAVOK NOSIG?EQDQ01+000000PRSWM2Q02  00003PRCP99
0058601010999991981010713004+35717-005900FM-15+0015GMTT V0202801N00101999991CY0099001N1+01601+00901999999ADDMA1102611999999REMMET012CAVOK NOSIG?EQDQ01+000000PRSWM2
0056601010999991981010714004+35717-005900FM-15+0015GMTT V0203201N00201999991CY0099001N1+01601+00901999999ADDMA1102611999999REMMET010CAVOK NSG?EQDQ01+000000PRSWM2
0126601010999991981010715004+35717-005900SY-MT+0015GMTT V0203201N00301999991CY0099001N1+01501+01101102591ADDAY101999GF100991001001999999001001MA1102511999999MD1710091+9999MW1021REMMET010CAVOK NSG?EQDQ01+000062SCOTCVQ02+000000PRSWM2
0056601010999991981010716004+35717-005900FM-15+0015GMTT V0203201N00361999991CY0099001N1+01501+01001999999ADDMA1102511999999REMMET010CAVOK NSG?EQDQ01+000000PRSWM2
0056601010999991981010717004+35717-005900FM-15+0015GMTT V0203201N00301999991CY0099001N1+01501+01001999999ADDMA1102611999999REMMET010CAVOK NSG?EQDQ01+000000PRSWM2
0145601010999991981010718004+35717-005900SY-MT+0015GMTT V0203201N00251220001CN0099001N1+01101+00901102601ADDAA199000091AY101999GF100991001001999999001001KA1999M+01601MA1102611999999MD1310011+9999MW1021REMSYN00570016MET010CAVOK NSG?EQDQ01+000000PRSWM2
0056601010999991981010719004+35717-005900FM-15+0015GMTT V0209991C00001999991CY0099001N1+01001+00801999999ADDMA1102611999999REMMET010CAVOK NSG?EQDQ01+000000PRSWM2
0056601010999991981010720004+35717-005900FM-15+0015GMTT V0201001N00251999991CY0099001N1+01001+00801999999ADDMA1102611999999REMMET010CAVOK NSG?EQDQ01+000000PRSWM2
0112601010999991981010721004+35717-005900SY-MT+0015GMTT V0201001N00101220001CN0099001N1+00601+00501102681ADDAY101999GF100991001001999999001001MA1102611999999MD1110081+9999MW1021REMMET012CAVOK NOSIG?EQDQ01+000000PRSWM2
0058601010999991981010722004+35717-005900FM-15+0015GMTT V0201001N00151999991CY0099001N1+00601+00501999999ADDMA1102611999999REMMET012CAVOK NOSIG?EQDQ01+000000PRSWM2
0058601010999991981010723004+35717-005900FM-15+0015GMTT V0201201N00151999991CY0099001N1+00601+00501999999ADDMA1102611999999REMMET012CAVOK NOSIG?EQDQ01+000000PRSWM2
0144601010999991981010800004+35717-005900SY-MT+0015GMTT V0201201N00301220001CN0080001N1+00501+00401102651ADDAA106000091AY101999GF100991001001999999001001MA1102611999999MD1710041+9999MW1021REMSYN005700//MET006NOSIG?EQDQ01+000000PRSWM2Q02  00003PRCP99
0058601010999991981010801004+35717-005900FM-15+0015GMTT V0201001N00201999991CY0099001N1+00501+00401999999ADDMA1102611999999REMMET012CAVOK NOSIG?EQDQ01+000000PRSWM2
0058601010999991981010802004+35717-005900FM-15+0015GMTT V0201001N00411999991CY0099001N1+00601+00501999999ADDMA1102611999999REMMET012CAVOK NOSIG?EQDQ01+000000PRSWM2
0112601010999991981010803004+35717-005900SY-MT+0015GMTT V0201201N00301220001CN0099001N1+00601+00501102631ADDAY101999GF100991001001999999001001MA1102611999999MD1710021+9999MW1021REMMET012CAVOK NOSIG?EQDQ01+000000PRSWM2
0058601010999991981010804004+35717-005900FM-15+0015GMTT V0201001N00361999991CY0099001N1+00501+00501999999ADDMA1102611999999REMMET012CAVOK NOSIG?EQDQ01+000000PRSWM2
0058601010999991981010805004+35717-005900FM-15+0015GMTT V0200801N00251999991CY0099001N1+00501+00501999999ADDMA1102611999999REMMET012CAVOK NOSIG?EQDQ01+000000PRSWM2
0138601010999991981010806004+35717-005900SY-MT+0015GMTT V0201201N00251220001CN0099001N1+00601+00601102601ADDAY101999GF100991001001999999001001MA1102611999999MD1810031+9999MW1021REMSYN0047004MET012CAVOK NOSIG?EQDQ01+000000PRSWM2Q02    993SCOTCV
0058601010999991981010807004+35717-005900FM-15+0015GMTT V0201001N00301999991CY0099001N1+00601+00501999999ADDMA1102611999999REMMET012CAVOK NOSIG?EQDQ01+000000PRSWM2
0051601010999991981010808004+35717-005900FM-15+0015GMTT V0201001N00251999991CY0099001N1+00701+00501999999ADDMA1102611999999REMMET005CAVOKEQDQ01+000000PRSWM2
0112601010999991981010809004+35717-005900SY-MT+0015GMTT V0200801N00251220001CN0099001N1+01001+00801102661ADDAY101999GF100991001001999999001001MA1102611999999MD1310071+9999MW1021REMMET012CAVOK NOSIG?EQDQ01+000000PRSWM2
0066601010999991981010810004+35717-005900FM-15+0015GMTT V0200601N00871220001CN0112001N1+01401+01101999999ADDGA1011+006009059MA1102611999999REMMET004NSG?EQDQ01+000000PRSWM2
0068601010999991981010811004+35717-005900FM-15+0015GMTT V0200801N01131220001CN0112001N1+01501+01001999999ADDGA1011+006009059MA1102611999999REMMET006NOSIG?EQDQ01+000000PRSWM2
0164601010999991981010812004+35717-005900SY-MT+0015GMTT V0200801N01231220001CN0150001N1+01701+00901102671ADDAA106000091AY101999GA1011+006009059GF101991011051008001001001MA1102611999999MD1010011+9999MW1021REMSYN011700// 81620MET004NSG?EQDQ01+000000PRSWM2Q02  00003PRCP99
0087601010999991981010815004+35717-005900FM-12+0015GMTT V0200801N01131220001CN0200001N9+01701+00901102581ADDAY101999GA1011+006009059GF101991011051008001001001MD1610091+9999MW1021REMSYN00581620
0053601010999991981010817004+35717-005900FM-15+0015GMTT V0200801N01131220001CN0112001N1+01501+00901999999ADDGA1011+006009059MA1102511999999EQDQ01+000000PRSWM2
0117601010999991981010818004+35717-005900FM-12+0015GMTT V0200801N01441220001CN0150001N9+01401+00801102591ADDAA199000091AY101999GA1011+006009059GF101991011051008001001001KA1999M+01801MD1310011+9999MW1021REMSYN01170018 81620
0068601010999991981010819004+35717-005900FM-15+0015GMTT V0200801N01131220001CN0112001N1+01301+00801999999ADDGA1011+006009059MA1102511999999REMMET006NOSIG?EQDQ01+000000PRSWM2
0068601010999991981010820004+35717-005900FM-15+0015GMTT V0200801N01131220001CN0112001N1+01201+00801999999ADDGA1011+006009059MA1102611999999REMMET006NOSIG?EQDQ01+000000PRSWM2
0121601010999991981010821004+35717-005900SY-MT+0015GMTT V0200801N00971220001CN0112001N1+01301+00801102661ADDAY101999GA1011+006009059GF101991011051008001001001MA1102611999999MD1310071+9999MW1021REMSYN00581620EQDQ01+000000PRSWM2
0066601010999991981010822004+35717-005900FM-15+0015GMTT V0200801N01021220001CN0112001N1+01301+00801999999ADDGA1011+006009059MA1102611999999REMMET004NSG?EQDQ01+000000PRSWM2
0066601010999991981010823004+35717-005900FM-15+0015GMTT V0201001N00921220001CN0112001N1+01301+01001999999ADDGA1011+006009059MA1102611999999REMMET004NSG?EQDQ01+000000PRSWM2
0148601010999991981010900004+35717-005900SY-MT+0015GMTT V0201001N00971220001CN0099001N1+01201+01101102661ADDAA106000091AY101999GF100991001001999999001001MA1102611999999MD1410001+9999MW1011REMSYN005700//MET010CAVOK NSG?EQDQ01+000000PRSWM2Q02  00003PRCP99
0056601010999991981010901004+35717-005900FM-15+0015GMTT V0201001N00921999991CY0099001N1+01201+01101999999ADDMA1102611999999REMMET010CAVOK NSG?EQDQ01+000000PRSWM2
0058601010999991981010903004+35717-005900FM-15+0015GMTT V0201001N00921999991CY0099001N1+01201+01001999999ADDMA1102611999999REMMET012CAVOK NOSIG?EQDQ01+000000PRSWM2
0051601010999991981010904004+35717-005900FM-15+0015GMTT V0201001N00921999991CY0099001N1+01201+01001999999ADDMA1102611999999REMMET005CAVOKEQDQ01+000000PRSWM2
0058601010999991981010905004+35717-005900FM-15+0015GMTT V0201001N00921999991CY0099001N1+01201+01101999999ADDMA1102611999999REMMET012CAVOK NOSIG?EQDQ01+000000PRSWM2
0163601010999991981010906004+35717-005900SY-MT+0015GMTT V0201001N00921220001CN0099001N1+01201+01001102631ADDAA124000091AY101999GF100991001001999999001001KA1999N+01201MA1102611999999MD1310011+9999MW1021REMSYN00570012MET012CAVOK NOSIG?EQDQ01+000000PRSWM2Q02  00003PRCP99
0051601010999991981010907004+35717-005900FM-15+0015GMTT V0201001N00921999991CY0099001N1+01201+01001999999ADDMA1102611999999REMMET005CAVOKEQDQ01+000000PRSWM2
0051601010999991981010909004+35717-005900FM-15+0015GMTT V0200801N00821999991CY0099001N1+01201+00701999999ADDMA1102611999999REMMET005CAVOKEQDQ01+000000PRSWM2
0051601010999991981010911004+35717-005900FM-15+0015GMTT V0200801N00821999991CY0099001N1+01301+00701999999ADDMA1102711999999REMMET005CAVOKEQDQ01+000000PRSWM2
0155601010999991981010912004+35717-005900SY-MT+0015GMTT V0201001N00921220001CN0099001N1+01601+00701102721ADDAA106000091AY101999GF102991001001999999001021MA1102711999999MD1010031+9999MW1021REMSYN010700// 8207MET012CAVOK NOSIG?EQDQ01+000000PRSWM2Q02  00003PRCP99
0058601010999991981010913004+35717-005900FM-15+0015GMTT V0200801N00921999991CY0099001N1+01701+00601999999ADDMA1102611999999REMMET012CAVOK NOSIG?EQDQ01+000000PRSWM2
0058601010999991981010914004+35717-005900FM-15+0015GMTT V0200801N01281999991CY0099001N1+01701+00701999999ADDMA1102611999999REMMET012CAVOK NOSIG?EQDQ01+000000PRSWM2
0195601010999991981010915004+35717-005900SY-MT+0015GMTT V0201001N01181220001CN0099001N1+01601+00501102511ADDAY101999GF102991001001999999001021MA1102511999999MD1710201+9999MW1021REMSYN0771,.   1-532 04    60022 23020 00902 01619 8507//#+YPQTP     TOFUFPUPEQ  23118MET012CAVOK NOSIG?EQDQ01+000000PRSWM2
0058601010999991981010916004+35717-005900FM-15+0015GMTT V0201001N01131999991CY0099001N1+01501+00501999999ADDMA1102511999999REMMET012CAVOK NOSIG?EQDQ01+000000PRSWM2
0051601010999991981010917004+35717-005900FM-15+0015GMTT V0201001N01281999991CY0099001N1+01501+00501999999ADDMA1102511999999REMMET005CAVOKEQDQ01+000000PRSWM2
0169601010999991981010918004+35717-005900SY-MT+0015GMTT V0200801N01021220001CN0099001N1+01201+00501102551ADDAA199000091AY101999GA1021+069009009GF102991001001999999001021KA1999M+01701MA1102511999999MD1310041+9999MW1021REMSYN01170017 82073MET012CAVOK NOSIG?EQDQ01+000000PRSWM2
0058601010999991981010919004+35717-005900FM-15+0015GMTT V0200801N00921999991CY0099001N1+01201+00501999999ADDMA1102511999999REMMET012CAVOK NOSIG?EQDQ01+000000PRSWM2
0051601010999991981010920004+35717-005900FM-15+0015GMTT V0200801N00721999991CY0099001N1+01001+00701999999ADDMA1102511999999REMMET005CAVOKEQDQ01+000000PRSWM2
0139601010999991981010921004+35717-005900SY-MT+0015GMTT V0200801N00821220001CN0099001N1+01001+00401102631ADDAY101999GA1021+069009009GF102991001001999999001021MA1102611999999MD1310081+9999MW1021REMSYN00582073MET012CAVOK NOSIG?EQDQ01+000000PRSWM2
0058601010999991981010922004+35717-005900FM-15+0015GMTT V0200801N00721999991CY0099001N1+01001+00401999999ADDMA1102611999999REMMET012CAVOK NOSIG?EQDQ01+000000PRSWM2
0058601010999991981010923004+35717-005900FM-15+0015GMTT V0200801N00721999991CY0099001N1+00901+00401999999ADDMA1102611999999REMMET012CAVOK NOSIG?EQDQ01+000000PRSWM2
0172601010999991981011000004+35717-005900SY-MT+0015GMTT V0200801N00721220001CN0099001N1+00801+00501102601ADDAA106000091AY101999GA1021+069009009GF102991001001999999001021MA1102611999999MD1810041+9999MW1021REMSYN011700// 82073MET012CAVOK NOSIG?EQDQ01+000000PRSWM2Q02  00003PRCP99
0058601010999991981011001004+35717-005900FM-15+0015GMTT V0200801N00611999991CY0099001N1+00801+00501999999ADDMA1102511999999REMMET012CAVOK NOSIG?EQDQ01+000000PRSWM2
0139601010999991981011003004+35717-005900SY-MT+0015GMTT V0209991C00001220001CN0099001N1+00601+00501102531ADDAY101999GA1021+069009009GF102991001001999999001021MA1102511999999MD1610071+9999MW1021REMSYN00582073MET012CAVOK NOSIG?EQDQ01+000000PRSWM2
0058601010999991981011004004+35717-005900FM-15+0015GMTT V0201201N00151999991CY0099001N1+00601+00501999999ADDMA1102511999999REMMET012CAVOK NOSIG?EQDQ01+000000PRSWM2
0054601010999991981011005004+35717-005900FM-15+0015GMTT V0209991C00001999991CY0099001N1+00701+00401999999ADDMA1102401999999REMMET008CAVOK V?EQDQ01+000000PRSWM2
0171601010999991981011006004+35717-005900SY-MT+0015GMTT V0201201N00151220001CN0099001N1+00501+00401102411ADDAA124000091AY101999GA1021+069009009GF102991001001999999001021KA1999N+00401MA1102401999999MW1021REMSYN01170004 82073MET012CAVOK NOSIG?EQDQ01+000000PRSWM2Q02  00003PRCP99
0058601010999991981011007004+35717-005900FM-15+0015GMTT V0201201N00151999991CY0099001N1+00501+00401999999ADDMA1102401999999REMMET012CAVOK NOSIG?EQDQ01+000000PRSWM2
0132601010999991981011009004+35717-005900SY-MT+0015GMTT V0201001N00151220001CN0099001N1+00801+00401102471ADDAY101999GA1021+069009009GF102991001001999999001021MA1102401999999MD1210061+9999MW1021REMSYN00582073MET005CAVOKEQDQ01+000000PRSWM2
0068601010999991981011010004+35717-005900FM-15+0015GMTT V0209991C00001220001CN0112001N1+01201+00801999999ADDGA1011+004809059MA1102401999999REMMET006NOSIG?EQDQ01+000000PRSWM2
0068601010999991981011011004+35717-005900FM-15+0015GMTT V0202201N00251220001CN0112001N1+01401+01001999999ADDGA1021+004809059MA1102401999999REMMET006NOSIG?EQDQ01+000000PRSWM2
0164601010999991981011012004+35717-005900SY-MT+0015GMTT V0202401N00511220001CN0112001N1+01401+01101102421ADDAA106000091AY101999GA1031+004809089GF103991031021004501001021MA1102401999999MD1510041+9999MW1031REMSYN011700// 83816MET004NSG?EQDQ01+000000PRSWM2Q02  00003PRCP99
0053601010999991981011013004+35717-005900FM-15+0015GMTT V0202401N00361220001CN0112001N1+01401+01101999999ADDGA1031+004809089MA1102301999999EQDQ01+000000PRSWM2
0068601010999991981011014004+35717-005900FM-15+0015GMTT V0202401N00511220001CN0112001N1+01401+01101999999ADDGA1041+004509089MA1102101999999REMMET006NOSIG?EQDQ01+000000PRSWM2
0068601010999991981011015004+35717-005900FM-15+0015GMTT V0202401N00511004501CN0112001N1+01601+01301999999ADDGA1051+004509089MA1102001999999REMMET006NOSIG?EQDQ01+000000PRSWM2
0068601010999991981011016004+35717-005900FM-15+0015GMTT V0202601N00511004501CN0112001N1+01401+01101999999ADDGA1051+004509089MA1102001999999REMMET006NOSIG?EQDQ01+000000PRSWM2
0053601010999991981011017004+35717-005900FM-15+0015GMTT V0202601N00511004501CN0112001N1+01301+01101999999ADDGA1071+004509089MA1101901999999EQDQ01+000000PRSWM2
0163601010999991981011018004+35717-005900SY-MT+0015GMTT V0202201N00511004501CN0112001N1+01301+01001101901ADDAA199000091AY111999GA1071+004509089GF107991071021004501999999KA1999M+01601MA1101901999999MD1810121+9999MW1021REMSYN01170016 87815MET006NOSIG?EQDQ01+000000PRSWM2
0068601010999991981011019004+35717-005900FM-15+0015GMTT V0202201N00611004501CN0112001N1+01101+01001999999ADDGA1071+004509089MA1101801999999REMMET006NOSIG?EQDQ01+000000PRSWM2
0131601010999991981011021004+35717-005900SY-MT+0015GMTT V0202401N00771004501CN0112001N1+01401+00901101831ADDAY121999GA1071+004509089GF107991071021004501999999MA1101801999999MD1810071+9999MW1021REMSYN00587815MET004NSG?EQDQ01+000000PRSWM2
0068601010999991981011022004+35717-005900FM-15+0015GMTT V0202401N00661004501CN0112001N1+01401+00901999999ADDGA1061+004509089MA1101691999999REMMET006NOSIG?EQDQ01+000000PRSWM2
0068601010999991981011023004+35717-005900FM-15+0015GMTT V0202601N00821004501CN0112001N1+01401+01001999999ADDGA1061+004509089MA1101691999999REMMET006NOSIG?EQDQ01+000000PRSWM2
0188601010999991981011100004+35717-005900SY-MT+0015GMTT V0202601N00821006001CN0112001N1+01301+00801101671ADDAA106000091AY121999GA1041+003909089GA2051+006009059GF108991081081004501999999MA1101591999999MD1710161+9999MW1031REMSYN017700// 84813 85620MET006NOSIG?EQDQ01+000000PRSWM2Q02  00003PRCP99
0084601010999991981011101004+35717-005900FM-15+0015GMTT V0202601N00661006001CN0112001N1+01301+00801999999ADDGA1041+003909089GA2051+006009059MA1101591999999REMMET006NOSIG?EQDQ01+000000PRSWM2
0084601010999991981011102004+35717-005900FM-15+0015GMTT V0202801N00871006001CN0112001N1+01201+00601999999ADDGA1041+003909089GA2041+006009059MA1101491999999REMMET006NOSIG?EQDQ01+000000PRSWM2
0155601010999991981011103004+35717-005900SY-MT+0015GMTT V0203001N00921006001CN0112001N1+01201+00701101601ADDAY121999GA1041+003909089GA2051+006009059GF108991081081004501999999MA1101591999999MD1510071+9999MW1031REMSYN01184813 85620MET006NOSIG?EQDQ01+000000PRSWM2
0069601010999991981011104004+35717-005900FM-15+0015GMTT V0203001N00871006001CN0112001N1+01201+00801999999ADDGA1031+003909089GA2041+006009059MA1101801999999EQDQ01+000000PRSWM2
0098601010999991981011105004+35717-005900FM-15+0015GMTT V0203201N00921006001CN0112001N1+01101+00401999999ADDGA1021+003909089GA2041+006009059MA1101392999999REMMET004NSG?EQDQ01+029943APOA  Q02+000000PRSWM2
0199601010999991981011106004+35717-005900SY-MT+0015GMTT V0203201N01231006001CN0112001N1+01001+00301101511ADDAA124000091AY111999GA1021+003909089GA2051+006009059GF107991071081004501999999KA1999N+01001MA1101491999999MD1510091+9999MW1011REMSYN01770010 82813 85620MET004NSG?EQDQ01+000000PRSWM2Q02  00003PRCP99
0082601010999991981011107004+35717-005900FM-15+0015GMTT V0203001N00611006001CN0112001N1+01001+00201999999ADDGA1031+003909089GA2031+006009059MA1101491999999REMMET004NSG?EQDQ01+000000PRSWM2
0084601010999991981011108004+35717-005900FM-15+0015GMTT V0203401N00821004801CN0112001N1+00701+00101999999ADDGA1021+004509089GA2031+004809059MA1101491999999REMMET006NOSIG?EQDQ01+000000PRSWM2
0119601010999991981011109004+35717-005900SY-MT+0015GMTT V0203401N00721009001CN0112001N1+00801+00201101561ADDAY121999GA1031+004509089GF105991051081004501001001MA1101491999999MW1031REMSYN00583815MET006NOSIG?EQDQ01+000000PRSWM2
0068601010999991981011110004+35717-005900FM-15+0015GMTT V0203401N00721220001CN0112001N1+00901+00201999999ADDGA1031+004509089MA1101491999999REMMET006NOSIG?EQDQ01+000000PRSWM2
0068601010999991981011111004+35717-005900FM-15+0015GMTT V0203401N00611220001CN0112001N1+00901+00101999999ADDGA1041+004509089MA1101591999999REMMET006NOSIG?EQDQ01+000000PRSWM2
0123601010999991981011112004+35717-005900FM-12+0015GMTT V0203201N00621220001CN0150001N9+01001+00201101641ADDAA106000091AY111999GA1031+004509089GF103991031021004501001001MD1110081+9999MW1011REMSYN011700// 83815EQDQ01  00003PRCP99
0186601010999991981011113004+35717-005900SY-MT+0015GMTT V0203201N00411220001CN0112001N1+01001+00201999999ADDAA106000091AY171999GA1041+004509089GF199999031021004501001001MA1101591999999MD1110081+9999MW1111REMSYN011700// 83815EQDQ01+000032SCOTCVQ02+100173APOSLPQ03+000000PRSWM2Q04  00003PRCP99
0066601010999991981011114004+35717-005900FM-15+0015GMTT V0203201N00611220001CN0112001N1+01101+00301999999ADDGA1041+004509089MA1101591999999REMMET004NSG?EQDQ01+000000PRSWM2
0137601010999991981011115004+35717-005900SY-MT+0015GMTT V0203201N00721004501CN0112001N1+01001+00001101561ADDAY111999GA1051+004509089GF105991999021004501001001MA1101491999999MD1710081+9999MW1031REMSYN00585815EQDQ01+000042SCOTLCQ02+000000PRSWM2
0066601010999991981011116004+35717-005900FM-15+0015GMTT V0203201N00721004501CN0112001N1+01001+00201999999ADDGA1051+004509089MA1101491999999REMMET004NSG?EQDQ01+000000PRSWM2
0082601010999991981011117004+35717-005900FM-15+0015GMTT V0203001N00661005101CN0112001N1+00901+00201999999ADDGA1041+004509089GA2011+005109099MA1101491999999REMMET004NSG?EQDQ01+000000PRSWM2
0185601010999991981011118004+35717-005900SY-MT+0015GMTT V0203001N00721005101CN0112001N1+00801+00201101601ADDAA199000091AY111999GA1041+004509089GA2011+005109099GF105991051091004501001001KA1999M+01101MA1101591999999MD1310041+9999MW1021REMSYN01770011 84815 81917MET006NOSIG?EQDQ01+000000PRSWM2
0084601010999991981011119004+35717-005900FM-15+0015GMTT V0203001N00721220001CN0112001N1+00801+00401999999ADDGA1031+004509089GA2011+005109099MA1101591999999REMMET006NOSIG?EQDQ01+000000PRSWM2
0084601010999991981011120004+35717-005900FM-15+0015GMTT V0203201N00511220001CN0112001N1+00801+00301999999ADDGA1031+004509089GA2011+005109099MA1101591999999REMMET006NOSIG?EQDQ01+000000PRSWM2
0155601010999991981011121004+35717-005900SY-MT+0015GMTT V0203001N00411220001CN0112001N1+00701-00201101661ADDAY101999GA1021+004509089GA2011+006009099GF103991031091004501001001MA1101591999999MD1210061+9999MW1011REMSYN01182815 81920MET006NOSIG?EQDQ01+000000PRSWM2
0084601010999991981011122004+35717-005900FM-15+0015GMTT V0202601N00301006001CN0112001N1+00801-00101999999ADDGA1031+004509089GA2021+006009099MA1101591999999REMMET006NOSIG?EQDQ01+000000PRSWM2
0041601010999991981011122104+35717-005900FM-16+0015GMTT V0202401N00771006001CN0112001N1+99999+99999999999ADDGA1041+004509089GA2021+006009099MW1131
0041601010999991981011122504+35717-005900FM-15+0015GMTT V0202201N00611004501CN0112001N1+99999+99999999999ADDGA1051+004509089GA2021+006009099MW1951
0055601010999991981011123004+35717-005900FM-15+0015GMTT V0202201N00721004501CN0112001N1+00601+00601999999ADDGA1051+004509089MA1101591999999MW1171REMMET006NOSIG?
0164601010999991981011200004+35717-005900SY-MT+0015GMTT V0202001N00411004501CN0112001N1+00501+00301101751ADDAA106000091AA299000191AY181999GA1061+004509089GA2021+006009099GF107991071091004501999999MA1101691999999MD1310091+9999MW1171REMSYN017791// 86815 82920MET006NOSIG?
0071601010999991981011201004+35717-005900FM-15+0015GMTT V0200801N00201004501CN0112001N1+00501+00301999999ADDGA1061+004509089GA2021+006009099MA1101691999999MW1171REMMET006NOSIG?
0041601010999991981011201554+35717-005900FM-15+0015GMTT V0201001N00251006001CN0112001N1+99999+99999999999ADDGA1041+004509089GA2011+006009099MW1291
0071601010999991981011202004+35717-005900FM-15+0015GMTT V0201001N00251006001CN0112001N1+00401+00301999999ADDGA1041+004509089GA2011+006009099MA1101691999999MW1291REMMET006NOSIG?
0155601010999991981011203004+35717-005900SY-MT+0015GMTT V0201001N00201220001CN0112001N1+00201+00101101681ADDAY191999GA1021+004509089GA2011+006009099GF103991031091004501001001MA1101591999999MD1610071+9999MW1011REMSYN01182815 81920MET006NOSIG?EQDQ01+000000PRSWM2
0155601010999991981011206004+35717-005900SY-MT+0015GMTT V0201801N00511220001CN0112001N1+00401+00101101591ADDAY191999GA1021+004509089GA2011+006009099GF103991031091004501001001MA1101491999999MD1810091+9999MW1021REMSYN0119102  82815MET006NOSI:?EQDQ01+000000PRSWM2
0084601010999991981011207004+35717-005900FM-15+0015GMTT V0201801N00511220001CN0112001N1+00401+00101999999ADDGA1021+004509089GA2011+006009099MA1101491999999REMMET006NOSIG?EQDQ01+000000PRSWM2
0146601010999991981011209004+35717-005900SY-MT+0015GMTT V0202401N00821004501CN0080001N1+00401+00301101671ADDAY191999GA1031+003009079GA2051+004509089GA3021+006009099GF106991061091004501001001MA1101591999999MD1310071+9999MW1171REMSYN01783710 85815 82920
0072601010999991981011210004+35717-005900FM-15+0015GMTT V0201801N00661004501CN0080001N1+00501+00301999999ADDGA1021+003009079GA2041+004509089GA3011+006009099MA1101691999999MW1291
0100601010999991981011211004+35717-005900FM-15+0015GMTT V0201801N00721004501CN0080001N1+00601+00401999999ADDGA1021+003009079GA2041+004509089GA3011+006009099MA1101691999999REMMET006NOSIG?EQDQ01+000000PRSWM2
0176601010999991981011212004+35717-005900SY-MT+0015GMTT V0201801N00721004501CN0112001N1+00701+00401101801ADDAA106001091AY191999GA1051+004509089GA2011+006009099GF105991051091004501001001MA1101801999999MD1110131+9999MW1011REMSYN017701// 85815 81920EQDQ01+000000PRSWM2Q02  00103PRCP99
0069601010999991981011213004+35717-005900FM-15+0015GMTT V0201801N00721004501CN0112001N1+00801+00401999999ADDGA1051+004509089GA2011+006009099MA1101801999999EQDQ01+000000PRSWM2
0084601010999991981011214004+35717-005900FM-15+0015GMTT V0202001N00411004501CN0112001N1+00801+00401999999ADDGA1051+004509089GA2011+006009099MA1101801999999REMMET006NOSIG?EQDQ01+000000PRSWM2
0155601010999991981011215004+35717-005900SY-MT+0015GMTT V0201801N00511004501CN0112001N1+00901+00501101681ADDAY121999GA1051+004509089GA2011+006909099GF106991061091004501001001MA1101591999999MD1710111+9999MW1031REMSYN01185815 81923MET006NOSIG?EQDQ01+000000PRSWM2
0069601010999991981011216004+35717-005900FM-15+0015GMTT V0201801N00511004501CN0112001N1+00901+00501999999ADDGA1051+004509089GA2011+006909099MA1101591999999EQDQ01+000000PRSWM2
0069601010999991981011217004+35717-005900FM-15+0015GMTT V0202001N00511006901CN0112001N1+00901+00501999999ADDGA1041+004509089GA2011+006909099MA1101591999999EQDQ01+000000PRSWM2
0173601010999991981011218004+35717-005900SY-MT+0015GMTT V0201801N00511004501CN0112001N1+00901+00501101881ADDAA199001091AY121999GA1051+004509089GA2011+006909099GF106991061091004501001001KA1999M+00901MA1101591999999MD1310191+9999MW1031REMSYN01770109 85815 81923EQDQ01+000000PRSWM2
0069601010999991981011219004+35717-005900FM-15+0015GMTT V0209991C00001004501CN0112001N1+00601+00301999999ADDGA1051+004509089GA2011+006909099MA1101801999999EQDQ01+000000PRSWM2
0069601010999991981011220004+35717-005900FM-15+0015GMTT V0201601N00201004501CN0112001N1+00601+00301999999ADDGA1051+004509089GA2011+006909099MA1101901999999EQDQ01+000000PRSWM2
0153601010999991981011221004+35717-005900SY-MT+0015GMTT V0202001N00151220001CN0112001N1+00401+00201102001ADDAY111999GA1021+004509089GA2011+006909099GF103991031091004501001001MA1102001999999MD1310121+9999MW1011REMSYN01182815 81923MET004NSG?EQDQ01+000000PRSWM2
0082601010999991981011222004+35717-005900FM-15+0015GMTT V0201801N00511220001CN0112001N1+99999+99999999999ADDGA1021+004809089GA2011+006909099MA1102001999999REMMET004NSG?EQDQ01+000000PRSWM2
0082601010999991981011223004+35717-005900FM-15+0015GMTT V0201801N00511220001CN0112001N1+00401+00101999999ADDGA1021+004509089GA2011+006909099MA1102001999999REMMET004NSG?EQDQ01+000000PRSWM2
0186601010999991981011300004+35717-005900SY-MT+0015GMTT V0201801N00611220001CN0112001N1+00401+00201102081ADDAA106000091AY111999GA1021+004509089GA2011+006909099GF103991031091004501001001MA1102001999999MD1010071+9999MW1021REMSYN017700// 82815 81923MET004NSG?EQDQ01+000000PRSWM2Q02  00003PRCP99
0082601010999991981011301004+35717-005900FM-15+0015GMTT V0201801N00561220001CN0112001N1+00401+00201999999ADDGA1021+004509089GA2011+006909099MA1102001999999REMMET004NSG?EQDQ01+000000PRSWM2
0082601010999991981011302004+35717-005900FM-15+0015GMTT V0201801N00611006901CN0112001N1+00401+00301999999ADDGA1041+004509089GA2011+006909099MA1102001999999REMMET004NSG?EQDQ01+000000PRSWM2
0153601010999991981011303004+35717-005900SY-MT+0015GMTT V0201801N00511006901CN0112001N1+00501+00301102051ADDAY111999GA1041+004509089GA2011+006909099GF105991051091004501001001MA1102001999999MD1510031+9999MW1021REMSYN01184815 81923MET004NSG?EQDQ01+000000PRSWM2
0082601010999991981011304004+35717-005900FM-15+0015GMTT V0201801N00611006901CN0112001N1+00501+00301999999ADDGA1041+004509089GA2011+006909099MA1102001999999REMMET004NSG?EQDQ01+000000PRSWM2
0082601010999991981011305004+35717-005900FM-15+0015GMTT V0201801N00561006901CN0112001N1+00501+00301999999ADDGA1041+004509089GA2011+006909099MA1101901999999REMMET004NSG?EQDQ01+000000PRSWM2
0199601010999991981011306004+35717-005900SY-MT+0015GMTT V0201801N00661006901CN0112001N1+00501+00301102051ADDAA124001091AY111999GA1041+004509089GA2011+006909099GF105991051091004501001001KA1999N+00201MA1102001999999MD1510001+9999MW1021REMSYN01770102 84815 81923MET004NSG?EQDQ01+000000PRSWM2Q02  00103PRCP99
0084601010999991981011308004+35717-005900FM-15+0015GMTT V0201801N007219999999N0112001N1+00501+00201999999ADDGA1011+006909099GA2051+999999089MA1101801999999REMMET006NOSIG?EQDQ01+000000PRSWM2
0109601010999991981011309004+35717-005900FM-12+0015GMTT V0201801N00621004501CN0100001N9+00601+00301101791ADDAY121999GA1051+004509089GA2011+006909099GF107991061091004501031001MD1610261+9999MW1031REMSYN01185815 81923
0069601010999991981011311004+35717-005900FM-15+0015GMTT V0203001N01021004801CN0112001N1+00701+00401999999ADDGA1051+004809089GA2011+006909099MA1101691999999EQDQ01+000000PRSWM2
0145601010999991981011312004+35717-005900FM-12+0015GMTT V0203401N01031004801CN0100001N9+01101+00601101711ADDAA106000091AY121999GA1051+004809089GA2011+006909099GF107991061091004501041999MD1710071+9999MW1021REMSYN017700// 85816 81923EQDQ01  00003PRCP99
0069601010999991981011313004+35717-005900FM-15+0015GMTT V0203601N00921004801CN0112001N1+01201+00601999999ADDGA1051+004809089GA2011+006909099MA1101691999999EQDQ01+000000PRSWM2
0069601010999991981011314004+35717-005900FM-15+0015GMTT V0203601N00921004801CN0112001N1+01201+00601999999ADDGA1051+004809089GA2011+006909099MA1101591999999EQDQ01+000000PRSWM2
0145601010999991981011315004+35717-005900SY-MT+0015GMTT V0203601N00721004801CN0112001N1+01201+00101101601ADDAY121999GA1081+004809089GA2031+030009039GF199999031021004501031001MA1101591999999MW1011REMSYN01183816 83360EQDQ01+000052SCOTCVQ02+000000PRSWM2
0084601010999991981011316004+35717-005900FM-15+0015GMTT V0203601N00821220001CN0112001N1+01201+00101999999ADDGA1021+004809089GA2031+030009039MA1101591999999REMMET006NOSIG?EQDQ01+000000PRSWM2
0084601010999991981011317004+35717-005900FM-15+0015GMTT V0203601N00821006001CN0112001N1+01201+00101999999ADDGA1041+004809089GA2021+006009099MA1101591999999REMMET006NOSIG?EQDQ01+000000PRSWM2
0183601010999991981011318004+35717-005900SY-MT+0015GMTT V0200201N01021006001CN0112001N1+01101+00101101701ADDAA199999929AY111999GA1041+004809089GA2021+006009099GF106991051091004501031001KA1999M+99999MA1101691999999MD1310201+9999MW1251REMSYN01779702 84816 82920MET004NSG?EQDQ01 +00202ATMX  
0082601010999991981011319004+35717-005900FM-15+0015GMTT V0200201N00821220001CN0112001N1+01001+00101999999ADDGA1031+004809089GA2011+006009099MA1101691999999REMMET004NSG?EQDQ01+000000PRSWM2
0069601010999991981011320004+35717-005900FM-15+0015GMTT V0209991C00001004801CN0080001N1+00601+00401999999ADDGA1031+003909089GA2051+004809059MA1102001999999EQDQ01+000000PRSWM2
0163601010999991981011321004+35717-005900SY-MT+0015GMTT V0203601N00921220001CN0112001N1+00801+00101102091ADDAY101999GA1021+004809089GA2011+006009099GF103991031091004501031001MA1102001999999MD1310391+9999MW1021OC101441REMSYN01182816 81920MET006NOSIG?EQDQ01+000000PRSWM2
0075601010999991981011322004+35717-005900FM-15+0015GMTT V0203601N01281220001CN0112001N1+00801+00301999999ADDGA1021+004809089GA2011+006009099REMMET01210202 NOSIG?EQDQ01+000000PRSWM2
0061601010999991981011323004+35717-005900FM-15+0015GMTT V0203601N01281220001CN0112001N1+00801+00301999999ADDGA1011+004809059MA1102201999999OC101641EQDQ01+000000PRSWM2
0134601010999991981011400004+35717-005900SY-MT+0015GMTT V0203601N01241220001CN0099001N1+00801-00401102431ADDAA106999929AY101999GF100991001001999999001001MD1210111+9999MW1021REMSYN005797//MET011CAVOK XXXX?EQDQ01+000000PRSWM2Q02  99993PRCP99
0051601010999991981011402004+35717-005900FM-15+0015GMTT V0203601N01281999991CY0099001N1+00801-00601999999ADDMA1102401999999REMMET005CAVOKEQDQ01+000000PRSWM2
0105601010999991981011403004+35717-005900SY-MT+0015GMTT V0203601N01281220001CN0099001N1+00701+00502102431ADDAY101999GF100991001001999999001001MA1102401999999MD1210111+9999MW1021REMMET005CAVOKEQDQ01+000000PRSWM2
0051601010999991981011405004+35717-005900FM-15+0015GMTT V0203601N00921999991CY0099001N1+00601+00301999999ADDMA1102401999999REMMET005CAVOKEQDQ01+000000PRSWM2
0156601010999991981011406004+35717-005900SY-MT+0015GMTT V0203601N00821220001CN0099001N1+00601+00101102451ADDAA124000091AY101999GF100991001001999999001001KA1999N+00501MA1102401999999MD1310021+9999MW1021REMSYN00570005MET005CAVOKEQDQ01+000000PRSWM2Q02  00003PRCP99
0051601010999991981011407004+35717-005900FM-15+0015GMTT V0200201N00511999991CY0099001N1+00501+00201999999ADDMA1102401999999REMMET005CAVOKEQDQ01+000000PRSWM2
0056601010999991981011408004+35717-005900FM-15+0015GMTT V0200401N00511999991CY0099001N1+00701+00301999999ADDMA1102611999999REMMET010CAVOK NSG?EQDQ01+000000PRSWM2
0110601010999991981011409004+35717-005900SY-MT+0015GMTT V0200201N00511220001CN0099001N1+00501-00301102801ADDAY101999GF100991001001999999001001MA1102811999999MD1210351+9999MW1021REMMET010CAVOK NSG?EQDQ01+000000PRSWM2
0058601010999991981011410004+35717-005900FM-15+0015GMTT V0200201N00511999991CY0099001N1+00801-00401999999ADDMA1102811999999REMMET012CAVOK NOSIG?EQDQ01+000000PRSWM2
0051601010999991981011411004+35717-005900FM-15+0015GMTT V0203201N01021999991CY0099001N1+01001-00201999999ADDMA1102911999999REMMET005CAVOKEQDQ01+000000PRSWM2
0143601010999991981011412004+35717-005900SY-MT+0015GMTT V0200201N00721220001CN0099001N1+01001-00301102991ADDAA106000091AY101999GF100991001001999999001001MA1102911999999MD1210191+9999MW1021REMSYN005700//MET005CAVOKEQDQ01+000000PRSWM2Q02  00003PRCP99
0058601010999991981011413004+35717-005900FM-15+0015GMTT V0203201N00721999991CY0099001N1+01001-00301999999ADDMA1102911999999REMMET012CAVOK NOSIG?EQDQ01+000000PRSWM2
0058601010999991981011414004+35717-005900FM-15+0015GMTT V0203201N00821999991CY0099001N1+01001+00301999999ADDMA1102811999999REMMET012CAVOK NOSIG?EQDQ01+000000PRSWM2
0112601010999991981011415004+35717-005900SY-MT+0015GMTT V0203201N00721220001CN0099001N1+01001+00001102831ADDAY101999GF100991001001999999001001MA1102811999999MD1610151+9999MW1021REMMET012CAVOK NOSIG?EQDQ01+000000PRSWM2
0051601010999991981011416004+35717-005900FM-15+0015GMTT V0203201N00511999991CY0099001N1+00102-00101999999ADDMA1102811999999REMMET005CAVOKEQDQ01+000000PRSWM2
0095601010999991981011418004+35717-005900FM-12+0015GMTT V0203201N00511220001CN0200001N9+01001+00001102911ADDAA199000091AY101999GF100991001001999999001001KA1999M+01101MD1310081+9999MW1021REMSYN00570011
0058601010999991981011419004+35717-005900FM-15+0015GMTT V0203201N00411999991CY0099001N1+00801-00101999999ADDMA1103011999999REMMET012CAVOK NOSIG?EQDQ01+000000PRSWM2
0058601010999991981011420004+35717-005900FM-15+0015GMTT V0201801N00301999991CY0099001N1+00701-00201999999ADDMA1103011999999REMMET012CAVOK NOSIG?EQDQ01+000000PRSWM2
0105601010999991981011421004+35717-005900SY-MT+0015GMTT V0201801N00411220001CN0099001N1+00601-00101103201ADDAY101999GF100991001001999999001001MA1103181999999MD1210281+9999MW1021REMMET005CAVOKEQDQ01+000000PRSWM2
0051601010999991981011422004+35717-005900FM-15+0015GMTT V0201801N00411999991CY0099001N1+00401-00101999999ADDMA1103181999999REMMET005CAVOKEQDQ01+000000PRSWM2
0051601010999991981011423004+35717-005900FM-15+0015GMTT V0201801N00411999991CY0099001N1+00301+00001999999ADDMA1103181999999REMMET005CAVOKEQDQ01+000000PRSWM2
0143601010999991981011500004+35717-005900SY-MT+0015GMTT V0201801N00411220001CN0099001N1+00401+00001103211ADDAA106000091AY101999GF100991001001999999001001MA1103181999999MD1110011+9999MW1021REMSYN005700//MET005CAVOKEQDQ01+000000PRSWM2Q02  00003PRCP99
0051601010999991981011501004+35717-005900FM-15+0015GMTT V0201801N00201999991CY0099001N1+00301+00001999999ADDMA1103181999999REMMET005CAVOKEQDQ01+000000PRSWM2
0051601010999991981011502004+35717-005900FM-15+0015GMTT V0201801N00201999991CY0099001N1+00401+00001999999ADDMA1103181999999REMMET005CAVOKEQDQ01+000000PRSWM2
0105601010999991981011503004+35717-005900SY-MT+0015GMTT V0201801N00411220001CN0099001N1+00401+00001103191ADDAY101999GF100991001001999999001001MA1103121999999MD1810021+9999MW1021REMMET005CAVOKEQDQ01+000000PRSWM2
0051601010999991981011504004+35717-005900FM-15+0015GMTT V0201801N00411999991CY0099001N1+00401+00001999999ADDMA1103121999999REMMET005CAVOKEQDQ01+000000PRSWM2
0051601010999991981011505004+35717-005900FM-15+0015GMTT V0201801N00411999991CY0099001N1+00301+00001999999ADDMA1103121999999REMMET005CAVOKEQDQ01+000000PRSWM2
0156601010999991981011506004+35717-005900SY-MT+0015GMTT V0201801N00611220001CN0099001N1+00401-00101103131ADDAA124000091AY101999GF100991001001999999001001KA1999N+00301MA1103121999999MD1610061+9999MW1021REMSYN00570003MET005CAVOKEQDQ01+000000PRSWM2Q02  00003PRCP99
0051601010999991981011507004+35717-005900FM-15+0015GMTT V0201801N00611999991CY0099001N1+00401-00101999999ADDMA1103121999999REMMET005CAVOKEQDQ01+000000PRSWM2
0053601010999991981011508004+35717-005900FM-15+0015GMTT V0201801N00611220001CN0112001N1+00501-00201999999ADDGA1041+004809089MA1103121999999EQDQ01+000000PRSWM2
0109601010999991981011509004+35717-005900FM-12+0015GMTT V0201801N00621069001CN0200001N9+00701-00101103201ADDAY111999GA1041+004809089GA2031+069009009GF105991041021004501001021MD1310071+9999MW1031REMSYN01184816 83073
0069601010999991981011510004+35717-005900FM-15+0015GMTT V0202001N01021004801CN0112001N1+00801+00001999999ADDGA1051+004809089GA2031+069009009MA1103181999999EQDQ01+000000PRSWM2
0084601010999991981011511004+35717-005900FM-15+0015GMTT V0202001N00721004801CN0112001N1+00901+00001999999ADDGA1051+004809089GA2031+069009009MA1103181999999REMMET006NOSIG?EQDQ01+000000PRSWM2
0166601010999991981011512004+35717-005900SY-MT+0015GMTT V0202201N00821004801CN0112001N1+01101+00101103281ADDAA106000091AY111999GA1071+004809089GF107991071021004501999999MA1103181999999MD1110091+9999MW1031REMSYN011700// 87816MET006NOSIG?EQDQ01+000000PRSWM2Q02  00003PRCP99
0068601010999991981011513004+35717-005900FM-15+0015GMTT V0202201N00821004801CN0112001N1+01101+00101999999ADDGA1071+004809089MA1103181999999REMMET006NOSIG?EQDQ01+000000PRSWM2
0053601010999991981011514004+35717-005900FM-15+0015GMTT V0202601N00771004801CN0112001N1+01101+00101999999ADDGA1071+004809089MA1103181999999EQDQ01+000000PRSWM2
0133601010999991981011515004+35717-005900SY-MT+0015GMTT V0202401N00671004801CN0112001N1+01301+00801103121ADDAY121999GA1071+004809089GF107991071021004501999999MA1103121999999MD1610161+9999MW1021REMSYN00587816MET006NOSIG?EQDQ01+000000PRSWM2
0066601010999991981011516004+35717-005900FM-15+0015GMTT V0202801N00771004801CN0112001N1+01301+00701999999ADDGA1071+004809089MA1103121999999REMMET004NSG?EQDQ01+000000PRSWM2
0066601010999991981011517004+35717-005900FM-15+0015GMTT V0202601N00771004801CN0112001N1+01201+00801999999ADDGA1071+004809089MA1103011999999REMMET004NSG?EQDQ01+000000PRSWM2
0161601010999991981011518004+35717-005900SY-MT+0015GMTT V0202601N00771004801CN0112001N1+01301+00701103111ADDAA199000091AY121999GA1071+004809089GF107991071021004501999999KA1999M+01301MA1103121999999MD1510011+9999MW1021REMSYN01170013 87816MET004NSG?EQDQ01+000000PRSWM2
0053601010999991981011519004+35717-005900FM-15+0015GMTT V0202401N00511004801CN0112001N1+01201+00701999999ADDGA1071+004809089MA1103121999999EQDQ01+000000PRSWM2
0066601010999991981011520004+35717-005900FM-15+0015GMTT V0202201N00511004801CN0112001N1+01101+00701999999ADDGA1071+004809089MA1103011999999REMMET004NSG?EQDQ01+000000PRSWM2
0133601010999991981011521004+35717-005900SY-MT+0015GMTT V0202001N00611004801CN0112001N1+01101+00501103111ADDAY121999GA1071+004809089GF107991071021004501999999MA1103121999999MD1510001+9999MW1021REMSYN00587816MET006NOSIG?EQDQ01+000000PRSWM2
0068601010999991981011522004+35717-005900FM-15+0015GMTT V0202001N00611004801CN0112001N1+01101+00501999999ADDGA1071+004809089MA1103121999999REMMET006NOSIG?EQDQ01+000000PRSWM2
0068601010999991981011523004+35717-005900FM-15+0015GMTT V0202001N00611004801CN0112001N1+01101+00501999999ADDGA1081+004809089MA1103121999999REMMET006NOSIG?EQDQ01+000000PRSWM2
0166601010999991981011600004+35717-005900SY-MT+0015GMTT V0202001N00511004801CN0112001N1+01001+00501103051ADDAA106000091AY121999GA1081+004809089GF108991081021004501999999MA1103011999999MD1810061+9999MW1021REMSYN011700// 88816MET006NOSIG?EQDQ01+000000PRSWM2Q02  00003PRCP99
0068601010999991981011601004+35717-005900FM-15+0015GMTT V0202001N00511004801CN0112001N1+01001+00501999999ADDGA1081+004809089MA1103011999999REMMET006NOSIG?EQDQ01+000000PRSWM2
0068601010999991981011602004+35717-005900FM-15+0015GMTT V0201801N00721004801CN0112001N1+01001+00501999999ADDGA1081+004809089MA1102911999999REMMET006NOSIG?EQDQ01+000000PRSWM2
0133601010999991981011603004+35717-005900SY-MT+0015GMTT V0202001N00301004801CN0112001N1+01001+00501102971ADDAY121999GA1081+004809089GF108991081021004501999999MA1102911999999MD1610081+9999MW1021REMSYN00588816MET006NOSIG?EQDQ01+000000PRSWM2
0053601010999991981011605004+35717-005900FM-15+0015GMTT V0202001N00411004801CN0112001N1+01001+00701999999ADDGA1081+004809089MA1102911999999EQDQ01+000000PRSWM2
0173601010999991981011606004+35717-005900SY-MT+0015GMTT V0201801N00721004801CN0112001N1+01001+00701102871ADDAA124000091AY121999GA1081+004809089GF108991081021004501999999KA1999N+01001MA1102811999999MD1710091+9999REMSYN01170010 88816MET006NOSIG?EQDQ01+000000PRSWM2Q02  00003PRCP99
0068601010999991981011607004+35717-005900FM-15+0015GMTT V0202401N00151004801CN0112001N1+01101+00701999999ADDGA1081+004809089MA1102811999999REMMET006NOSIG?EQDQ01+000000PRSWM2
0066601010999991981011608004+35717-005900FM-15+0015GMTT V0202201N00511004801CN0112001N1+01101+00701999999ADDGA1071+004809089MA1102811999999REMMET004NSG?EQDQ01+000000PRSWM2
0131601010999991981011609004+35717-005900SY-MT+0015GMTT V0202201N00511004801CN0112001N1+01101+00701102881ADDAY121999GA1071+004809089GF107991071021004501999999MA1102811999999MD1810011+9999MW1021REMSYN00587816MET004NSG?EQDQ01+000000PRSWM2
0066601010999991981011610004+35717-005900FM-15+0015GMTT V0202201N00611004801CN0112001N1+01101+00701999999ADDGA1071+004809089MA1102911999999REMMET004NSG?EQDQ01+000000PRSWM2
0066601010999991981011611004+35717-005900FM-15+0015GMTT V0202201N00611004801CN0112001N1+01201+00701999999ADDGA1071+004809089MA1102911999999REMMET004NSG?EQDQ01+000000PRSWM2
0166601010999991981011612004+35717-005900SY-MT+0015GMTT V0202201N00461004801CN0112001N1+01201+00701102901ADDAA106000091AY121999GA1071+004809089GF107991071021004501999999MA1102911999999MD1010021+9999MW1021REMSYN011700// 87816MET006NOSIG?EQDQ01+000000PRSWM2Q02  00003PRCP99
0068601010999991981011614004+35717-005900FM-15+0015GMTT V0202801N00411004801CN0112001N1+01201+00701999999ADDGA1071+004809089MA1102711999999REMMET006NOSIG?EQDQ01+000000PRSWM2
0133601010999991981011615004+35717-005900SY-MT+0015GMTT V0203001N00511006001CN0112001N1+01201+00701102701ADDAY121999GA1071+006009089GF107991071021008001999999MA1102711999999MD1710201+9999MW1011REMSYN00587820MET006NOSIG?EQDQ01+000000PRSWM2
0068601010999991981011616004+35717-005900FM-15+0015GMTT V0203001N00611006001CN0112001N1+01401+00901999999ADDGA1071+006009089MA1102511999999REMMET006NOSIG?EQDQ01+000000PRSWM2
0053601010999991981011617004+35717-005900FM-15+0015GMTT V0203201N00611006001CN0112001N1+01401+00901999999ADDGA1071+006009089MA1102511999999EQDQ01+000000PRSWM2
0173601010999991981011618004+35717-005900SY-MT+0015GMTT V0203201N00721036001CN0112001N1+01201+00801102601ADDAA199000091AY121999GA1011+004809089GA2041+006909059GF105991041081004501031021KA1999M+01401MA1102611999999MD1510031+9999MW1011REMSYN01770014 81816 84620EQDQ01+000000PRSWM2
0069601010999991981011619004+35717-005900FM-15+0015GMTT V0202801N00511220001CN0112001N1+01101+00701999999ADDGA1011+004809089GA2041+006909059MA1102611999999EQDQ01+000000PRSWM2
0069601010999991981011620004+35717-005900FM-15+0015GMTT V0203001N00511220001CN0112001N1+01101+00701999999ADDGA1011+004809089GA2041+006909059MA1102611999999EQDQ01+000000PRSWM2
0146601010999991981011621004+35717-005900SY-MT+0015GMTT V0203001N00511036001CN0112001N1+01101+00701102591ADDAY121999GA1011+004809089GA2041+006909059GF105991041081004501031021MD1810011+9999MW1021REMSYN01181816 84623MET01207.1025 NSG?EQDQ01+000000PRSWM2
0082601010999991981011622004+35717-005900FM-15+0015GMTT V0203001N00411220001CN0112001N1+01101+00801999999ADDGA1011+004809089GA2041+006909059MA1102511999999REMMET004NSG?EQDQ01+000000PRSWM2
0066601010999991981011623004+35717-005900FM-15+0015GMTT V0202801N00301220001CN0112001N1+00901+00701999999ADDGA1011+004809089MA1102611999999REMMET004NSG?EQDQ01+000000PRSWM2
0148601010999991981011700004+35717-005900SY-MT+0015GMTT V0201001N00151220001CN0099001N1+00501+00401102581ADDAA106000091AY111999GF100991001001999999001001MA1102511999999MD1810021+9999MW1011REMSYN005700//MET010CAVOK NSG?EQDQ01+000000PRSWM2Q02  00003PRCP99
0056601010999991981011701004+35717-005900FM-15+0015GMTT V0201001N00101999991CY0099001N1+00501+00401999999ADDMA1102511999999REMMET010CAVOK NSG?EQDQ01+000000PRSWM2
0068601010999991981011702004+35717-005900FM-15+0015GMTT V0201001N00101220001CN0112001N1+00501+00401999999ADDGA1031+006009059MA1102511999999REMMET006NOSIG?EQDQ01+000000PRSWM2
0133601010999991981011703004+35717-005900SY-MT+0015GMTT V0209991C00001006001CN0112001N1+00901+00801102511ADDAY111999GA1061+006009059GF106991061051008001001001MA1102511999999MD1610071+9999MW1031REMSYN00586620MET006NOSIG?EQDQ01+000000PRSWM2
0068601010999991981011704004+35717-005900FM-15+0015GMTT V0209991C00001006001CN0112001N1+01001+00901999999ADDGA1071+006009059MA1102401999999REMMET006NOSIG?EQDQ01+000000PRSWM2
0068601010999991981011705004+35717-005900FM-15+0015GMTT V0201801N00301006001CN0112001N1+01201+00801999999ADDGA1071+006009059MA1102401999999REMMET006NOSIG?EQDQ01+000000PRSWM2
0179601010999991981011706004+35717-005900SY-MT+0015GMTT V0201801N00251006001CN0112001N1+01201+00901102431ADDAA124000091AY111999GA1071+006009059GF107991071051008001999999KA1999N+00301MA1102401999999MD1610131+9999MW1021REMSYN01170003 87620MET006NOSIG?EQDQ01+000000PRSWM2Q02  00003PRCP99
0068601010999991981011707004+35717-005900FM-15+0015GMTT V0203001N00411006001CN0112001N1+01101+01001999999ADDGA1071+006009059MA1102401999999REMMET006NOSIG?EQDQ01+000000PRSWM2
0068601010999991981011708004+35717-005900FM-15+0015GMTT V0203001N00411006001CN0112001N1+01101+01001999999ADDGA1071+006009059MA1102511999999REMMET006NOSIG?EQDQ01+000000PRSWM2
0087601010999991981011709004+35717-005900FM-12+0015GMTT V0201801N00311006001CN0150001N9+01201+00901102521ADDAY111999GA1071+006009059GF107991071051008001999999MD1310091+9999MW1021REMSYN00587620
0053601010999991981011710004+35717-005900FM-15+0015GMTT V0202201N00411006001CN0112001N1+01401+00901999999ADDGA1071+006009059MA1102511999999EQDQ01+000000PRSWM2
0053601010999991981011711004+35717-005900FM-15+0015GMTT V0202401N00411004801CN0112001N1+01501+00901999999ADDGA1061+004809059MA1102511999999EQDQ01+000000PRSWM2
0176601010999991981011712004+35717-005900SY-MT+0015GMTT V0202401N00411006001CN0112001N1+01501+01001102601ADDAA106000091AY121999GA1021+004509089GA2031+006009059GF105991051081004501001001MA1102611999999MD1210081+9999MW1031REMSYN017700// 82815 83620EQDQ01+000000PRSWM2Q02  00003PRCP99
0069601010999991981011713004+35717-005900FM-15+0015GMTT V0202801N00201006001CN0112001N1+01501+01001999999ADDGA1021+004509089GA2031+006009059MA1102511999999EQDQ01+000000PRSWM2
0084601010999991981011714004+35717-005900FM-15+0015GMTT V0202801N00511069001CN0112001N1+01401+01201999999ADDGA1031+004809089GA2051+069009009MA1102511999999REMMET006NOSIG?EQDQ01+000000PRSWM2
0177601010999991981011715004+35717-005900SY-MT+0015GMTT V0202801N00411006001CN0112001N1+01401+01201102461ADDAY121999GA1031+004809089GA2041+006009059GA3061+069009009GF107991061081004501001021MA1102401999999MD1710141+9999MW1031REMSYN01783816 84620 86073MET006NOSIG?EQDQ01+000000PRSWM2
0084601010999991981011716004+35717-005900FM-15+0015GMTT V0202801N00201069001CN0112001N1+01401+01101999999ADDGA1021+004809089GA2061+069009009MA1102401999999REMMET006NOSIG?EQDQ01+000000PRSWM2
0084601010999991981011717004+35717-005900FM-15+0015GMTT V0202201N00301069001CN0112001N1+01401+01101999999ADDGA1021+004809089GA2061+069009009MA1102511999999REMMET006NOSIG?EQDQ01+000000PRSWM2
0139601010999991981011718004+35717-005900FM-12+0015GMTT V0202201N00311069001CN0150001N9+01101+01001102521ADDAA199000091AY121999GA1021+004809089GA2051+069009009GF107991031021004501001021KA1999M+01501MD1210061+9999MW1031REMSYN01770015 82816 85073
0084601010999991981011719004+35717-005900FM-15+0015GMTT V0202201N00301069001CN0112001N1+01101+01001999999ADDGA1041+006009089GA2041+069009009MA1102511999999REMMET006NOSIG?EQDQ01+000000PRSWM2
0068601010999991981011720004+35717-005900FM-15+0015GMTT V0202401N00251004801CN0112001N1+01001+00901999999ADDGA1051+004809089MA1102511999999REMMET006NOSIG?EQDQ01+000000PRSWM2
0133601010999991981011721004+35717-005900SY-MT+0015GMTT V0202801N00201004801CN0112001N1+01001+00901102591ADDAY121999GA1051+004809089GF106991051021004501001021MA1102511999999MD1210071+9999MW1011REMSYN00585816MET006NOSIG?EQDQ01+000000PRSWM2
0068601010999991981011722004+35717-005900FM-15+0015GMTT V0209991C00001220001CN0112001N1+01001+99999999999ADDGA1041+004809089MA1102511999999REMMET006NOSIG?EQDQ01+000000PRSWM2
0068601010999991981011723004+35717-005900FM-15+0015GMTT V0209991C00001004801CN0112001N1+00901+00701999999ADDGA1051+004809089MA1102611999999REMMET006NOSIG?EQDQ01+000000PRSWM2
0166601010999991981011800004+35717-005900SY-MT+0015GMTT V0201001N00101004801CN0112001N1+00801+00701102651ADDAA106000091AY121999GA1061+004809089GF106991061021004501001001MA1102611999999MD1110041+9999MW1031REMSYN011700// 86816MET006NOSIG?EQDQ01+000000PRSWM2Q02  00003PRCP99
0068601010999991981011801004+35717-005900FM-15+0015GMTT V0209991C00001004801CN0112001N1+00801+00701999999ADDGA1061+004809089MA1102611999999REMMET006NOSIG?EQDQ01+000000PRSWM2
0068601010999991981011802004+35717-005900FM-15+0015GMTT V0209991C00001004801CN0112001N1+00801+00701999999ADDGA1061+004809089MA1102611999999REMMET006NOSIG?EQDQ01+000000PRSWM2
0068601010999991981011805004+35717-005900FM-15+0015GMTT V0209991C00001220001CN0112001N1+00801+00701999999ADDGA1041+004809089MA1102511999999REMMET006NOSIG?EQDQ01+000000PRSWM2
0085601010999991981011806004+35717-005900FM-15+0015GMTT V0209991C00001069001CN0112001N1+00901+00801999999ADDGA1031+004809089GA2031+069009009MA1102511999999REMMET007NOSITG?EQDQ01+000000PRSWM2
0084601010999991981011807004+35717-005900FM-15+0015GMTT V0209991C00001069001CN0112001N1+00901+00801999999ADDGA1031+004809089GA2031+069009009MA1102511999999REMMET006NOSIG?EQDQ01+000000PRSWM2
0084601010999991981011808004+35717-005900FM-15+0015GMTT V0200801N00411006001CN0112001N1+00801+00701999999ADDGA1021+004809089GA2051+006009059MA1102511999999REMMET006NOSIG?EQDQ01+000000PRSWM2
0155601010999991981011809004+35717-005900SY-MT+0015GMTT V0201001N00411006901CN0112001N1+00901+00801102631ADDAY121999GA1011+004809089GA2051+006909059GF106991061081004501001001MA1102611999999MD1310081+9999MW1011REMSYN01181816 85623MET006NOSIG?EQDQ01+000000PRSWM2
0071601010999991981011810004+35717-005900FM-15+0015GMTT V0201001N00101006901CN0112001N1+01101+01001999999ADDGA1011+004809089GA2051+006909059REMMET0081026NSG?EQDQ01+000000PRSWM2
0164601010999991981011812004+35717-005900SY-MT+0015GMTT V0202201N00411220001CN0112001N1+01501+01001102711ADDAA106000091AY111999GA1011+004809089GF102991021081004501001001MA1102711999999MD1310091+9999MW1011REMSYN011700// 81816MET004NSG?EQDQ01+000000PRSWM2Q02  00003PRCP99
0066601010999991981011813004+35717-005900FM-15+0015GMTT V0202401N00201220001CN0112001N1+01601+00901999999ADDGA1021+004809089MA1102611999999REMMET004NSG?EQDQ01+000000PRSWM2
0068601010999991981011814004+35717-005900FM-15+0015GMTT V0202601N00201220001CN0112001N1+01601+00901999999ADDGA1021+004809089MA1102611999999REMMET006NOSIG?EQDQ01+000000PRSWM2
0139601010999991981011815004+35717-005900SY-MT+0015GMTT V0203001N00251220001CN0099001N1+01601+01101102501ADDAY101999GA1011+069009009GF101991001001999999001021MA1102511999999MD1710211+9999MW1011REMSYN00581073MET012CAVOK NOSIG?EQDQ01+000000PRSWM2
0058601010999991981011816004+35717-005900FM-15+0015GMTT V0203201N00361999991CY0099001N1+01501+01101999999ADDMA1102511999999REMMET012CAVOK NOSIG?EQDQ01+000000PRSWM2
0058601010999991981011817004+35717-005900FM-15+0015GMTT V0203601N00561999991CY0099001N1+01601+01001999999ADDMA1102511999999REMMET012CAVOK NOSIG?EQDQ01+000000PRSWM2
0169601010999991981011818004+35717-005900SY-MT+0015GMTT V0203401N00251220001CN0099001N1+01301+01001102521ADDAA199000091AY101999GA1011+069009009GF101991001001999999001021KA1999M+01601MA1102511999999MD1310021+9999MW1021REMSYN01170016 81073MET012CAVOK NOSIG?EQDQ01+000000PRSWM2
0058601010999991981011819004+35717-005900FM-15+0015GMTT V0209991C00001999991CY0099001N1+01101+00901999999ADDMA1102511999999REMMET012CAVOK NOSIG?EQDQ01+000000PRSWM2
0058601010999991981011820004+35717-005900FM-15+0015GMTT V0209991C00001999991CY0099001N1+01001+00901999999ADDMA1102511999999REMMET012CAVOK NOSIG?EQDQ01+000000PRSWM2
0139601010999991981011821004+35717-005900SY-MT+0015GMTT V0200601N00151220001CN0099001N1+00901+00801102631ADDAY101999GA1021+069009009GF102991001001999999001021MA1102611999999MD1210101+9999MW1031REMSYN00582073MET012CAVOK NOSIG?EQDQ01+000000PRSWM2
0058601010999991981011822004+35717-005900FM-15+0015GMTT V0209991C00001999991CY0099001N1+00901+00701999999ADDMA1102611999999REMMET012CAVOK NOSIG?EQDQ01+000000PRSWM2
0068601010999991981011823004+35717-005900FM-15+0015GMTT V0209991C00001220001CN0080001N1+00801+00701999999ADDGA1021+069009009MA1102611999999REMMET006NOSIG?EQDQ01+000000PRSWM2
0144601010999991981011900004+35717-005900SY-MT+0015GMTT V0200401N00301220001CN0080001N1+00801+00701102691ADDAA106000091AY101999GF100991001001999999001001MA1102611999999MD1110061+9999MW1011REMSYN005700//MET006NOSIG?EQDQ01+000000PRSWM2Q02  00003PRCP99
0049601010999991981011901004+35717-005900FM-15+0015GMTT V0209991C00001220001CN0080001N1+00901+00801999999REMMET021EEE 08/07 1026 NOSIG?EQDQ01+000000PRSWM2
0106601010999991981011903004+35717-005900SY-MT+0015GMTT V0200401N00151220001CN0080001N1+00601+00501102651ADDAY101999GF100991001001999999001001MA1102611999999MD1610041+9999MW1021REMMET006NOSIG?EQDQ01+000000PRSWM2
0052601010999991981011904004+35717-005900FM-15+0015GMTT V0200401N00151220001CN0080001N1+00601+00501999999ADDMA1102611999999REMMET006NOSIG?EQDQ01+000000PRSWM2
0156601010999991981011906004+35717-005900SY-MT+0015GMTT V0209991C00001220001CN0070001N1+00701+00501102631ADDAA124000091AY101999GF100991001001999999001001KA1999N+00401MA1102611999999MD1810021+9999MW1021REMSYN0040004MET006NOSIG?EQDQ01+000000PRSWM2Q02  00003PRCP99
0112601010999991981011909004+35717-005900SY-MT+0015GMTT V0209991C00001220001CN0099001N1+00601+00401102771ADDAY101999GF100991001001999999001001MA1102711999999MD1310141+9999MW1021REMMET012CAVOK NOSIG?EQDQ01+000000PRSWM2
0058601010999991981011910004+35717-005900FM-15+0015GMTT V0209991C00001999991CY0099001N1+01201+01001999999ADDMA1102711999999REMMET012CAVOK NOSIG?EQDQ01+000000PRSWM2
0058601010999991981011911004+35717-005900FM-15+0015GMTT V0201201N00301999991CY0099001N1+01401+00801999999ADDMA1102811999999REMMET012CAVOK NOSIG?EQDQ01+000000PRSWM2
0150601010999991981011912004+35717-005900SY-MT+0015GMTT V0201201N00201220001CN0099001N1+01601+00801102881ADDAA106000091AY101999GF100991001001999999001001MA1102811999999MD1110111+9999MW1021REMSYN005700//MET012CAVOK NOSIG?EQDQ01+000000PRSWM2Q02  00003PRCP99
0056601010999991981011914004+35717-005900FM-15+0015GMTT V0200401N00411999991CY0099001N1+01701+00801999999ADDMA1102811999999REMMET010CAVOK NSG?EQDQ01+000000PRSWM2
0110601010999991981011915004+35717-005900SY-MT+0015GMTT V0200601N00511220001CN0099001N1+01701+01101102671ADDAY101999GF100991001001999999001001MA1102611999999MD1810201+9999MW1021REMMET010CAVOK NSG?EQDQ01+000000PRSWM2
0051601010999991981011916004+35717-005900FM-15+0015GMTT V0200601N00511999991CY0099001N1+01701+01101999999ADDMA1102611999999REMMET005CAVOKEQDQ01+000000PRSWM2
0056601010999991981011917004+35717-005900FM-15+0015GMTT V0200801N00771999991CY0099001N1+01601+00801999999ADDMA1102611999999REMMET010CAVOK NSG?EQDQ01+000000PRSWM2
0145601010999991981011918004+35717-005900SY-MT+0015GMTT V0200601N00721220001CN0099001N1+01301+01101102661ADDAA199000091AY101999GF100991001001999999001001KA1999M+01801MA1102611999999MD1510011+9999MW1021REMSYN00570018MET010CAVOK NSG?EQDQ01+000000PRSWM2
0056601010999991981011919004+35717-005900FM-15+0015GMTT V0200801N00661999991CY0099001N1+01201+01101999999ADDMA1102611999999REMMET010CAVOK NSG?EQDQ01+000000PRSWM2
0056601010999991981011920004+35717-005900FM-15+0015GMTT V0201001N00411999991CY0099001N1+01201+01101999999ADDMA1102611999999REMMET010CAVOK NSG?EQDQ01+000000PRSWM2
0112601010999991981011921004+35717-005900SY-MT+0015GMTT V0200801N00251220001CN0099001N1+00801+00701102751ADDAY101999GF100991001001999999001001MA1102711999999MD1210061+9999MW1021REMMET012CAVOK NOSIG?EQDQ01+000000PRSWM2
0058601010999991981011922004+35717-005900FM-15+0015GMTT V0200801N00151999991CY0099001N1+00701+00601999999ADDMA1102711999999REMMET012CAVOK NOSIG?EQDQ01+000000PRSWM2
0058601010999991981011923004+35717-005900FM-15+0015GMTT V0200801N00361999991CY0099001N1+00801+00701999999ADDMA1102811999999REMMET012CAVOK NOSIG?EQDQ01+000000PRSWM2
0150601010999991981012000004+35717-005900SY-MT+0015GMTT V0201001N00461220001CN0099001N1+00701+00601102801ADDAA106000091AY101999GF100991001001999999001001MA1102811999999MD1110031+9999MW1021REMSYN005700//MET012CAVOK NOSIG?EQDQ01+000000PRSWM2Q02  00003PRCP99
0058601010999991981012001004+35717-005900FM-15+0015GMTT V0201001N00301999991CY0099001N1+00701+00601999999ADDMA1102811999999REMMET012CAVOK NOSIG?EQDQ01+000000PRSWM2
0058601010999991981012002004+35717-005900FM-15+0015GMTT V0201001N00151999991CY0099001N1+00501+00401999999ADDMA1102811999999REMMET012CAVOK NOSIG?EQDQ01+000000PRSWM2
0112601010999991981012003004+35717-005900SY-MT+0015GMTT V0201001N00301220001CN0099001N1+00601+00501102811ADDAY101999GF100991001001999999001001MA1102811999999MD1110011+9999MW1021REMMET012CAVOK NOSIG?EQDQ01+000000PRSWM2
0058601010999991981012004004+35717-005900FM-15+0015GMTT V0201001N00301999991CY0099001N1+00601+00501999999ADDMA1102811999999REMMET012CAVOK NOSIG?EQDQ01+000000PRSWM2
0058601010999991981012005004+35717-005900FM-15+0015GMTT V0201001N00201999991CY0099001N1+00601+00501999999ADDMA1102711999999REMMET012CAVOK NOSIG?EQDQ01+000000PRSWM2
0163601010999991981012006004+35717-005900SY-MT+0015GMTT V0201001N00201220001CN0099001N1+00401+00301102711ADDAA124000091AY101999GF100991001001999999001001KA1999N+00401MA1102711999999MD1610041+9999MW1021REMSYN00570004MET012CAVOK NOSIG?EQDQ01+000000PRSWM2Q02  00003PRCP99
0058601010999991981012007004+35717-005900FM-15+0015GMTT V0201001N00201999991CY0099001N1+00401+00301999999ADDMA1102611999999REMMET012CAVOK NOSIG?EQDQ01+000000PRSWM2
0056601010999991981012008004+35717-005900FM-15+0015GMTT V0201001N00201999991CY0099001N1+00501+00301999999ADDMA1102611999999REMMET010CAVOK NSG?EQDQ01+000000PRSWM2
0110601010999991981012009004+35717-005900SY-MT+0015GMTT V0201001N00201220001CN0099001N1+00401+00301102851ADDAY101999GF100991001001999999001001MA1102811999999MD1310141+9999MW1021REMMET010CAVOK NSG?EQDQ01+000000PRSWM2
0066601010999991981012010004+35717-005900FM-15+0015GMTT V0201601N00101220001CN0112001N1+01001+00801999999ADDGA1021+003009079MA1102811999999REMMET004NSG?EQDQ01+000000PRSWM2
0056601010999991981012011004+35717-005900FM-15+0015GMTT V0202201N00411999991CY0099001N1+01101+00801999999ADDMA1102811999999REMMET010CAVOK NSG?EQDQ01+000000PRSWM2
0143601010999991981012012004+35717-005900SY-MT+0015GMTT V0202401N00301220001CN0099001N1+01401+01101102881ADDAA106000091AY101999GF100991001001999999001001MA1102811999999MD1310041+9999MW1021REMSYN005700//MET005CAVOKEQDQ01+000000PRSWM2Q02  00003PRCP99
0053601010999991981012013004+35717-005900FM-15+0015GMTT V0202401N00411220001CN0112001N1+01401+01201999999ADDGA1031+003009079MA1102811999999EQDQ01+000000PRSWM2
0155601010999991981012015004+35717-005900SY-MT+0015GMTT V0202401N00411006301CN0080001N1+01401+01101102761ADDAY111999GA1021+002409079GA2041+006309059GF105991051051002501001001MA1102711999999MD1810121+9999MW1031REMSYN01182708 84620MET006NOSIG?EQDQ01+000000PRSWM2
0084601010999991981012016004+35717-005900FM-15+0015GMTT V0202401N00201006001CN0080001N1+01401+01101999999ADDGA1021+002409079GA2041+006009059MA1102711999999REMMET006NOSIG?EQDQ01+000000PRSWM2
0084601010999991981012017004+35717-005900FM-15+0015GMTT V0202401N00511006001CN0080001N1+01301+01101999999ADDGA1021+002409079GA2051+006009059MA1102711999999REMMET006NOSIG?EQDQ01+000000PRSWM2
0185601010999991981012018004+35717-005900SY-MT+0015GMTT V0209991C00001006001CN0080001N1+01201+01101102711ADDAA199000091AY111999GA1021+002409079GA2051+006009059GF106991061051002501001001KA1999M+01501MA1102711999999MD1610051+9999MW1031REMSYN01770015 82708 85620MET006NOSIG?EQDQ01+000000PRSWM2
0084601010999991981012019004+35717-005900FM-15+0015GMTT V0209991C00001006001CN0080001N1+01101+01001999999ADDGA1021+002409079GA2051+006009059MA1102711999999REMMET006NOSIG?EQDQ01+000000PRSWM2
0084601010999991981012020004+35717-005900FM-15+0015GMTT V0209991C00001006001CN0080001N1+01101+01001999999ADDGA1021+002409079GA2041+006009059MA1102711999999REMMET006NOSIG?EQDQ01+000000PRSWM2
0143601010999991981012021004+35717-005900SY-MT+0015GMTT V0209991C00001220001CN0080001N1+00901+00601102791ADDAY111999GA1021+002409079GA2041+006009059GF104991041051002501001001MA1102711999999MD1310071+9999MW1021REMSYN01182708 84620EQDQ01+000000PRSWM2
0069601010999991981012022004+35717-005900FM-15+0015GMTT V0209991C00001006001CN0060001N1+00601+00601999999ADDGA1031+002409079GA2031+006009059MA1102811999999EQDQ01+000000PRSWM2
0069601010999991981012023004+35717-005900FM-15+0015GMTT V0209991C00001006001CN0060001N1+00601+00601999999ADDGA1031+002409079GA2031+006009059MA1102811999999EQDQ01+000000PRSWM2
0129601010999991981012100004+35717-005900SY-MT+0015GMTT V0201001N00201002401CN0030001N1+00601+00601102811ADDAY111999GA1051+002409079GA2031+006009059GF105991999061001501001021MA1102811999999MW1101REMSYN01185708 83620EQDQ01+000002SCOTLC
0069601010999991981012101004+35717-005900FM-15+0015GMTT V0201001N00201002401CN0040001N1+00601+00601999999ADDGA1051+002409079GA2031+006009059MA1102711999999EQDQ01+000000PRSWM2
0056601010999991981012102004+35717-005900FM-15+0015GMTT V0201201N00201002401CN0040001N1+00501+00501999999ADDGA1051+002409079GA2031+006009059MA1102711999999MW1101
0116601010999991981012103004+35717-005900SY-MT+0015GMTT V0201001N00151002401CN0040001N1+00501+00501102731ADDGA1051+002409079GA2031+006009059GF106991061051002501001001MA1102711999999MD1710081+9999MW1101REMSYN01185708 83620
0054601010999991981012103104+35717-005900FM-16+0015GMTT V0201001N00151006001CN0060001N1+99999+99999999999ADDGA1031+002409079GA2031+006009059EQDQ01+000000PRSWM2
0069601010999991981012104004+35717-005900FM-15+0015GMTT V0201001N00151006001CN0060001N1+00601+00501999999ADDGA1031+002409079GA2031+006009059MA1102611999999EQDQ01+000000PRSWM2
0069601010999991981012105004+35717-005900FM-15+0015GMTT V0209991C00001006001CN0060001N1+00601+00501999999ADDGA1031+002409079GA2031+006009059MA1102611999999EQDQ01+000000PRSWM2
0189601010999991981012106004+35717-005900SY-MT+0015GMTT V0209991C00001006001CN0060001N1+00801+00701102601ADDAA124000091AY121999GA1031+002409079GA2041+006009059GF106991061051002501001001KA1999N+00501MA1102611999999MD1710131+9999MW1031REMSYN01770005 83708 84620EQDQ01+000000PRSWM2Q02  00003PRCP99
0069601010999991981012107004+35717-005900FM-15+0015GMTT V0201801N00411006001CN0060001N1+00801+00701999999ADDGA1031+002409079GA2041+006009059MA1102611999999EQDQ01+000000PRSWM2
0063601010999991981012108004+35717-005900FM-15+0015GMTT V0201801N00511002401CN0040001N1+01101+01001999999ADDGA1071+002409079MA1102611999999MW1101REMMET014TEND VIS 6000?
0145601010999991981012109004+35717-005900SY-MT+0015GMTT V0201801N00511004501CN0040001N1+01201+01101102701ADDAY121999GA1031+002409079GA2041+004509059GF106991061051002501001001MA1102711999999MD1310111+9999MW1101REMSYN01183708 84615MET015TEND VISI 6000?
0068601010999991981012111004+35717-005900FM-15+0015GMTT V0201801N00721220001CN0080001N1+01401+01201999999ADDGA1031+002409079MA1102711999999REMMET006NOSIG?EQDQ01+000000PRSWM2
0176601010999991981012112004+35717-005900SY-MT+0015GMTT V0201801N00721004501CN0112001N1+01501+01001102791ADDAA106000091AY121999GA1031+003009079GA2041+004509059GF107991071061004501999999MA1102711999999MD1110091+9999MW1031REMSYN017700// 83710 84615EQDQ01+000000PRSWM2Q02  00003PRCP99
0069601010999991981012113004+35717-005900FM-15+0015GMTT V0202201N00611004501CN0112001N1+01501+01101999999ADDGA1031+003009079GA2051+004509059MA1102711999999EQDQ01+000000PRSWM2
0084601010999991981012114004+35717-005900FM-15+0015GMTT V0202201N00511004501CN0112001N1+01501+01001999999ADDGA1031+003009079GA2041+004509059MA1102611999999REMMET006NOSIG?EQDQ01+000000PRSWM2
0155601010999991981012115004+35717-005900SY-MT+0015GMTT V0202201N00511220001CN0112001N1+01601+00901102571ADDAY111999GA1011+003009079GA2031+004809059GF104991041051004501001001MA1102511999999MD1710211+9999MW1011REMSYN01181710 83616MET006NOSIG?EQDQ01+000000PRSWM2
0068601010999991981012117004+35717-005900FM-15+0015GMTT V0202401N00411220001CN0112001N1+01501+01201999999ADDGA1011+006009059MA1102511999999REMMET006NOSIG?EQDQ01+000000PRSWM2
0139601010999991981012118004+35717-005900FM-12+0015GMTT V0202601N00361220001CN0100001N9+01401+01201102561ADDAA199000091AY111999GA1011+003609079GA2031+004809059GF103991031051004501001001KA1999M+01601MD1310011+9999MW1031REMSYN01770016 81712 83616
0057601010999991981012121004+35717-005900FM-12+0015GMTT V0201201N00261220001CN0080001N9+00801+00801102561ADDAY101999GF100991001001999999001001MD1410001+9999MW1011
0052601010999991981012122004+35717-005900FM-15+0015GMTT V0209991C000019999999N0080001N1+00801+00801999999ADDMA1102511999999REMMET006NOSIG?EQDQ01+000000PRSWM2
0052601010999991981012123004+35717-005900FM-15+0015GMTT V0209991C000019999999N0070001N1+00701+00701999999ADDMA1102511999999REMMET006NOSIG?EQDQ01+000000PRSWM2
0052601010999991981012200004+35717-005900FM-15+0015GMTT V0201001N005119999999N0070001N1+00901+00901999999ADDMA1102511999999REMMET006NOSIG?EQDQ01+000000PRSWM2
0055601010999991981012201004+35717-005900FM-15+0015GMTT V0201001N00301001501CN0070001N1+00901+00901999999ADDGA1051+001509079MA1102511999999MW1101REMMET006NOSIG?
0025601010999991981012201304+35717-005900FM-15+0015GMTT V0201001N00301001501CN0030001N1+99999+99999999999ADDGA1051+001509079MW1101
0087601010999991981012203004+35717-005900FM-12+0015GMTT V0201001N00311220001CN0020001N9+00801+00801102421ADDAY111999GA1031+001209079GF103991031061001501001001MD1610081+9999MW1281REMSYN00583704
0136601010999991981012206004+35717-005900FM-12+0015GMTT V0209991C00001220001CN0040001N9+00701+00701102241ADDAA124000091AY141999GA1021+060009009GF102991001001999999001021KA1999N+00601MD1810181+9999MW1101REMSYN01170006 82070EQDQ01  00003PRCP99
0087601010999991981012209004+35717-005900FM-12+0015GMTT V0209991C00001220001CN0060001N9+01201+01101102341ADDAY101999GA1021+003909059GF103991021051004501001021MD1210101+9999MW1031REMSYN00582613
0068601010999991981012210004+35717-005900FM-15+0015GMTT V0201401N00301220001CN0080001N1+01401+01201999999ADDGA1021+003909059MA1102301999999REMMET006NOSIG?EQDQ01+000000PRSWM2
0068601010999991981012211004+35717-005900FM-15+0015GMTT V0201401N00301220001CN0080001N1+01401+01201999999ADDGA1021+003909059MA1102301999999REMMET006NOSIG?EQDQ01+000000PRSWM2
0166601010999991981012212004+35717-005900SY-MT+0015GMTT V0202601N00251220001CN0112001N1+01801+01301102341ADDAA106000091AY111999GA1011+006009059GF101991011051008001001021MA1102301999999MD1010001+9999MW1031REMSYN011700// 81620MET006NOSIG?EQDQ01+000000PRSWM2Q02  00003PRCP99
0053601010999991981012213004+35717-005900FM-15+0015GMTT V0202601N00251220001CN0112001N1+01801+01301999999ADDGA1011+006009059MA1102301999999EQDQ01+000000PRSWM2
0058601010999991981012214004+35717-005900FM-15+0015GMTT V0203001N00251999991CY0099001N1+01701+01401999999ADDMA1102101999999REMMET012CAVOK NOSIG?EQDQ01+000000PRSWM2
0087601010999991981012215004+35717-005900FM-12+0015GMTT V0203201N00311220001CN0150001N9+01701+01201102101ADDAY101999GA1031+069009009GF103991001001999999001021MD1810241+9999MW1031REMSYN00583073
0058601010999991981012217004+35717-005900FM-15+0015GMTT V0203401N00301999991CY0099001N1+01601+01301999999ADDMA1102001999999REMMET012CAVOK NOSIG?EQDQ01+000000PRSWM2
0169601010999991981012218004+35717-005900SY-MT+0015GMTT V0203401N00301220001CN0099001N1+01601+01301102101ADDAA199000091AY101999GA1031+069009009GF103991001001999999001021KA1999M+01801MA1102101999999MD1510001+9999MW1021REMSYN01170018 8+073MET012CAVOK NOSIG?EQDQ01+000000PRSWM2
0058601010999991981012219004+35717-005900FM-15+0015GMTT V0209991C00001999991CY0099001N1+01301+01101999999ADDMA1102101999999REMMET012CAVOK NOSIG?EQDQ01+000000PRSWM2
0056601010999991981012220004+35717-005900FM-15+0015GMTT V0209991C00001999991CY0099001N1+01201+01001999999ADDMA1102101999999REMMET010CAVOK NSG?EQDQ01+000000PRSWM2
0139601010999991981012221004+35717-005900SY-MT+0015GMTT V0209991C00001220001CN0099001N1+01301+01101102191ADDAY101999GA1021+069009009GF102991001001999999001021MA1102101999999MD1210091+9999MW1011REMSYN00582073MET012CAVOK NOSIG?EQDQ01+000000PRSWM2
0058601010999991981012222004+35717-005900FM-15+0015GMTT V0209991C00001999991CY0099001N1+01201+01001999999ADDMA1102201999999REMMET012CAVOK NOSIG?EQDQ01+000000PRSWM2
0058601010999991981012223004+35717-005900FM-15+0015GMTT V0209991C00001999991CY0099001N1+01201+01101999999ADDMA1102101999999REMMET012CAVOK NOSIG?EQDQ01+000000PRSWM2
0166601010999991981012300004+35717-005900SY-MT+0015GMTT V0201201N00411220001CN0060001N1+01201+00901102181ADDAA106000091AY101999GA1021+060009009GF102991001001999999001021MA1102101999999MD1810011+9999MW1021REMSYN011700// 82070MET006NOSIG?EQDQ01+000000PRSWM2Q02  00003PRCP99
0068601010999991981012301004+35717-005900FM-15+0015GMTT V0201201N00411220001CN0060001N1+01201+00901999999ADDGA1021+060009009MA1102101999999REMMET006NOSIG?EQDQ01+000000PRSWM2
0053601010999991981012302004+35717-005900FM-15+0015GMTT V0201001N00251220001CN0060001N1+01101+01001999999ADDGA1021+060009009MA1102101999999EQDQ01+000000PRSWM2
0141601010999991981012303004+35717-005900SY-MT+0015GMTT V0201001N00301220001CN0060001N1+01101+99999999999ADDAY101999GA1041+060009009GF104991001001999999001021MD1110011+9999MW1031REMSYN00584070MET013091021 NOSIG?EQDQ01+102913APOSLPQ02+000000PRSWM2
0068601010999991981012304004+35717-005900FM-15+0015GMTT V0201201N00361220001CN0060001N1+01101+00801999999ADDGA1021+060009009MA1102101999999REMMET006NOSIG?EQDQ01+000000PRSWM2
0068601010999991981012305004+35717-005900FM-15+0015GMTT V0201201N00361220001CN0060001N1+01101+00901999999ADDGA1021+060009009MA1102101999999REMMET006NOSIG?EQDQ01+000000PRSWM2
0179601010999991981012306004+35717-005900SY-MT+0015GMTT V0201001N00301220001CN0080001N1+01001+00901102141ADDAA124000091AY101999GA1041+060009009GF104991001001999999001021KA1999N+00901MA1102101999999MD1710051+9999MW1031REMSYN01170009 84070MET006NOSIG?EQDQ01+000000PRSWM2Q02  00003PRCP99
0076601010999991981012307004+35717-005900FM-15+0015GMTT V0201001N00301060001CN0080001N1+01001+99999999999ADDGA1051+060009009REMMET0139 1021 NOSIG?EQDQ01+027323ATOD  Q02+000000PRSWM2
0084601010999991981012308004+35717-005900FM-15+0015GMTT V0201001N00511220001CN0112001N1+01001+00901999999ADDGA1011+004809059GA2031+069009009MA1102101999999REMMET006NOSIG?EQDQ01+000000PRSWM2
0109601010999991981012309004+35717-005900FM-12+0015GMTT V0201001N00721060001CN0150001N9+01301+01101102151ADDAY111999GA1011+004809059GA2051+060009009GF105991011051004501001021MD1210011+9999MW1031REMSYN01181616 85070
0084601010999991981012310004+35717-005900FM-15+0015GMTT V0201001N00921220001CN0112001N1+01401+01101999999ADDGA1011+004809059GA2031+069009009MA1102101999999REMMET006NOSIG?EQDQ01+000000PRSWM2
0084601010999991981012311004+35717-005900FM-15+0015GMTT V0201001N01021220001CN0112001N1+01401+01101999999ADDGA1011+004809059GA2031+069009009MA1102201999999REMMET006NOSIG?EQDQ01+000000PRSWM2
0176601010999991981012312004+35717-005900SY-MT+0015GMTT V0201001N00931220001CN0150001N1+01701+01101102201ADDAA106000091AY111999GA1011+004809059GA2031+069009009GF103991011051004501001021MA1102201999999MD1110051+9999MW1021REMSYN017700// 81616 83073EQDQ01+000000PRSWM2Q02  00003PRCP99
0069601010999991981012313004+35717-005900FM-15+0015GMTT V0201001N00921220001CN0112001N1+01801+01101999999ADDGA1011+004809059GA2031+069009009MA1102101999999EQDQ01+000000PRSWM2
0082601010999991981012314004+35717-005900FM-15+0015GMTT V0201001N01021220001CN0112001N1+01801+01201999999ADDGA1011+004809059GA2031+069009009MA1102101999999REMMET004NSG?EQDQ01+000000PRSWM2
0143601010999991981012315004+35717-005900SY-MT+0015GMTT V0200801N01181220001CN0112001N1+01801+01001102021ADDAY101999GA1011+004809059GA2031+069009009GF103991011051004501001021MA1102001999999MD1810181+9999MW1021REMSYN01181616 83070EQDQ01+000000PRSWM2
0069601010999991981012316004+35717-005900FM-15+0015GMTT V0200801N01131220001CN0112001N1+01801+01001999999ADDGA1011+004809059GA2031+069009009MA1102001999999EQDQ01+000000PRSWM2
0084601010999991981012317004+35717-005900FM-15+0015GMTT V0200801N01021220001CN0112001N1+01701+01001999999ADDGA1011+004809059GA2031+069009009MA1102001999999REMMET006NOSIG?EQDQ01+000000PRSWM2
0173601010999991981012318004+35717-005900SY-MT+0015GMTT V0201001N01131220001CN0112001N1+01501+01001102071ADDAA199000091AY101999GA1011+004809059GA2041+069009009GF104991011051004501001021KA1999M+01801MA1102001999999MD1310051+9999MW1031REMSYN01770018 81616 84073EQDQ01+000000PRSWM2
0069601010999991981012319004+35717-005900FM-15+0015GMTT V0201001N01131220001CN0112001N1+01401+01001999999ADDGA1011+004809059GA2041+069009009MA1102001999999EQDQ01+000000PRSWM2
0069601010999991981012320004+35717-005900FM-15+0015GMTT V0201001N00921220001CN0112001N1+01401+01001999999ADDGA1011+004809059GA2041+069009009MA1102001999999EQDQ01+000000PRSWM2
0113601010999991981012321004+35717-005900SY-MT+0015GMTT V0201001N01021220001CN0099001N1+01301+01101102101ADDAY101999GF100991001001999999001001MA1102101999999MD1110031+9999MW1011REMMET013CAVOK ,NOSIG?EQDQ01+000000PRSWM2
0058601010999991981012322004+35717-005900FM-15+0015GMTT V0201001N00921999991CY0099001N1+01301+01101999999ADDMA1102101999999REMMET012CAVOK NOSIG?EQDQ01+000000PRSWM2
0058601010999991981012323004+35717-005900FM-15+0015GMTT V0201001N00921999991CY0099001N1+01301+01101999999ADDMA1102101999999REMMET012CAVOK NOSIG?EQDQ01+000000PRSWM2
0150601010999991981012400004+35717-005900SY-MT+0015GMTT V0201001N00871220001CN0099001N1+01301+01101102121ADDAA106000091AY101999GF100991001001999999001001MA1102101999999MD1310021+9999MW1021REMSYN005700//MET012CAVOK NOSIG?EQDQ01+000000PRSWM2Q02  00003PRCP99
0058601010999991981012401004+35717-005900FM-15+0015GMTT V0201001N00721999991CY0099001N1+01301+01101999999ADDMA1102101999999REMMET012CAVOK NOSIG?EQDQ01+000000PRSWM2
0058601010999991981012402004+35717-005900FM-15+0015GMTT V0201001N00821999991CY0099001N1+01301+01101999999ADDMA1102101999999REMMET012CAVOK NOSIG?EQDQ01+000000PRSWM2
0112601010999991981012403004+35717-005900SY-MT+0015GMTT V0201801N00721220001CN0099001N1+01201+01101102101ADDAY101999GF100991001001999999001001MA1102101999999MD1410001+9999MW1021REMMET012CAVOK NOSIG?EQDQ01+000000PRSWM2
0058601010999991981012404004+35717-005900FM-15+0015GMTT V0201001N00821999991CY0099001N1+01301+01101999999ADDMA1102101999999REMMET012CAVOK NOSIG?EQDQ01+000000PRSWM2
0058601010999991981012405004+35717-005900FM-15+0015GMTT V0201001N00771999991CY0099001N1+01301+01101999999ADDMA1102101999999REMMET012CAVOK NOSIG?EQDQ01+000000PRSWM2
0185601010999991981012406004+35717-005900SY-MT+0015GMTT V0201001N01021220001CN0099001N1+01301+01001102111ADDAA124000091AY101999GA1031+069009009GF103991001001999999001021KA1999N+01301MA1102101999999MD1410001+9999MW1031REMSYN01170013 83073MET012CAVOK NOSIG?EQDQ01+000000PRSWM2Q02  00003PRCP99
0058601010999991981012407004+35717-005900FM-15+0015GMTT V0201001N00821999991CY0099001N1+01301+01101999999ADDMA1102101999999REMMET012CAVOK NOSIG?EQDQ01+000000PRSWM2
0058601010999991981012408004+35717-005900FM-15+0015GMTT V0201001N00921999991CY0099001N1+01401+01101999999ADDMA1102101999999REMMET012CAVOK NOSIG?EQDQ01+000000PRSWM2
0143601010999991981012409004+35717-005900SY-MT+0015GMTT V0201801N00511220001CN0112001N1+01301+00901102191ADDAY101999GA1011+006009059GA2031+069009009GF103991011051008001001021MA1102101999999MD1310081+9999MW1031REMSYN01181820 83073EQDQ01+000000PRSWM2
0069601010999991981012410004+35717-005900FM-15+0015GMTT V0201001N01021220001CN0112001N1+01501+01001999999ADDGA1011+006009059GA2031+069009009MA1102201999999EQDQ01+000000PRSWM2
0145601010999991981012412004+35717-005900FM-12+0015GMTT V0201001N01291220001CN0150001N9+01701+00901102111ADDAA106000091AY101999GA1011+006009059GA2031+069009009GF103991011051008001001021MD1610111+9999MW1021REMSYN017700// 81620 83073EQDQ01  00003PRCP99
0069601010999991981012413004+35717-005900FM-15+0015GMTT V0201001N01281220001CN0112001N1+01701+00901999999ADDGA1011+006009059GA2031+069009009MA1102001999999EQDQ01+000000PRSWM2
0147601010999991981012415004+35717-005900SY-MT+0015GMTT V0201001N01441220001CN0099001N1+01701+00701101911ADDAY101999GA1021+069009009GF102991001001999999001021MA1101901999999MD1610171+9999MW1011OC101751REMSYN00582073MET012CAVOK NOSIG?EQDQ01+000000PRSWM2
0058601010999991981012416004+35717-005900FM-15+0015GMTT V0201001N01131999991CY0099001N1+01701+00701999999ADDMA1101901999999REMMET012CAVOK NOSIG?EQDQ01+000000PRSWM2
0066601010999991981012417004+35717-005900FM-15+0015GMTT V0201001N01021999991CY0099001N1+01601+00601999999ADDMA1101901999999OC101541REMMET012CAVOK NOSIG?EQDQ01+000000PRSWM2
0178601010999991981012418004+35717-005900SY-MT+0015GMTT V0200801N01231220001CN0099001N1+01401+00701101991ADDAA199000091AY101999GA1021+069009009GF102991001001999999001021KA1999M+01701MA1101901999999MD1310081+9999MW1021OC101641REMSYN01270017 82073.MET012CAVOK NOSIG?EQDQ01+000000PRSWM2
0059601010999991981012419004+35717-005900FM-15+0015GMTT V0200801N00921999991CY0099001N1+01301+00801999999ADDMA1101901999999OC101441REMMET005CAVOKEQDQ01+000000PRSWM2
0051601010999991981012420004+35717-005900FM-15+0015GMTT V0201001N01021999991CY0099001N1+01301+00801999999ADDMA1101901999999REMMET005CAVOKEQDQ01+000000PRSWM2
0139601010999991981012421004+35717-005900SY-MT+0015GMTT V0200801N01021220001CN0099001N1+01301+00501102101ADDAY101999GA1041+069009009GF104991001001999999001021MA1102101999999MD1110111+9999MW1031REMSYN00584073MET012CAVOK NOSIG?EQDQ01+000000PRSWM2
0058601010999991981012422004+35717-005900FM-15+0015GMTT V0200801N01021999991CY0099001N1+01301+00501999999ADDMA1102101999999REMMET012CAVOK NOSIG?EQDQ01+000000PRSWM2
0058601010999991981012423004+35717-005900FM-15+0015GMTT V0201001N00921999991CY0099001N1+01301+00801999999ADDMA1102101999999REMMET012CAVOK NOSIG?EQDQ01+000000PRSWM2
0123601010999991981012500004+35717-005900FM-12+0015GMTT V0200801N00931220001CN0150001N9+01201+01001102121ADDAA106000091AY101999GA1041+069009009GF104991001001999999001021MD1110021+9999MW1021REMSYN011700// 84073EQDQ01  00003PRCP99
0058601010999991981012501004+35717-005900FM-15+0015GMTT V0200801N01021999991CY0099001N1+01201+00901999999ADDMA1102101999999REMMET012CAVOK NOSIG?EQDQ01+000000PRSWM2
0123601010999991981012503004+35717-005900SY-MT+0015GMTT V0201001N00921220001CN0099001N1+01201+01001102101ADDAY101999GF104991001001999999001021MA1102101999999MD1610021+9999MW1021REMSYN00584073MET012CAVOK NOSIG?EQDQ01+000000PRSWM2
0058601010999991981012504004+35717-005900FM-15+0015GMTT V0200801N00921999991CY0099001N1+01201+01001999999ADDMA1102101999999REMMET012CAVOK NOSIG?EQDQ01+000000PRSWM2
0145601010999991981012506004+35717-005900SY-MT+0015GMTT V0201001N01021090001CN0099001N1+01201+00901102101ADDAA124000091AY101999GF105991001001999999001021KA1999N+01201MA1102101999999MD1410001+9999MW1031REMSYN00570012EQDQ01+000000PRSWM2Q02  00003PRCP99
0058601010999991981012507004+35717-005900FM-15+0015GMTT V0201001N01131999991CY0099001N1+01201+00901999999ADDMA1102001999999REMMET012CAVOK NOSIG?EQDQ01+000000PRSWM2
0051601010999991981012508004+35717-005900FM-15+0015GMTT V0201001N01131999991CY0099001N1+01101+00701999999ADDMA1102101999999REMMET005CAVOKEQDQ01+000000PRSWM2
0105601010999991981012509004+35717-005900SY-MT+0015GMTT V0201001N01231220001CN0099001N1+01301+00701999999ADDAY111999GF100991001001999999001001MA1102101999999MD1210061+9999MW1021REMMET005CAVOKEQDQ01+000000PRSWM2
0059601010999991981012511004+35717-005900FM-15+0015GMTT V0201001N01331999991CY0099001N1+01401+00701999999ADDMA1102101999999OC101541REMMET005CAVOKEQDQ01+000000PRSWM2
0151601010999991981012512004+35717-005900SY-MT+0015GMTT V0200801N01541220001CN0099001N1+01701+00801102191ADDAA106000091AY111999GF100991001001999999001001MA1102101999999MD1010071+9999MW1021OC101851REMSYN005700//MET005CAVOKEQDQ01+000000PRSWM2Q02  00003PRCP99
0074601010999991981012514004+35717-005900FM-15+0015GMTT V0201001N01541220001CN0112001N1+01701+00701999999ADDGA1011+004809089MA1102001999999OC101691REMMET004NSG?EQDQ01+000000PRSWM2
0087601010999991981012515004+35717-005900FM-12+0015GMTT V0200801N01541220001CN0150001N9+01701+00801102021ADDAY101999GA1011+004809059GF101991011021004501001001MD1610171+9999MW1021REMSYN00581616
0068601010999991981012516004+35717-005900FM-15+0015GMTT V0200801N01541220001CN0112001N1+01701+00801999999ADDGA1011+004809089MA1102001999999REMMET006NOSIG?EQDQ01+000000PRSWM2
0060601010999991981012517004+35717-005900FM-15+0015GMTT V0201001N01541220001CN0112001N1+01501+99999999999ADDGA1011+004809089REMMET013081020 NOSIG?EQDQ01+000000PRSWM2
0171601010999991981012518004+35717-005900SY-MT+0015GMTT V0200801N01331220001CN0112001N1+01401+00801102121ADDAA199000091AY101999GA1011+004809089GF101991011021004501001001KA1999M+01701MA1102101999999MD1310101+9999MW1021OC101641REMSYN01170017 81816MET006NOSIG?EQDQ01+000000PRSWM2
0068601010999991981012519004+35717-005900FM-15+0015GMTT V0200801N01281220001CN0112001N1+01301+00701999999ADDGA1011+004809089MA1102101999999REMMET006NOSIG?EQDQ01+000000PRSWM2
